{
  "_format": "hh-sol-artifact-1",
  "contractName": "MultiAccount",
  "sourceName": "contracts/MultiAccount.sol",
  "abi": [
    {
      "inputs": [],
      "stateMutability": "nonpayable",
      "type": "constructor"
    },
    {
      "anonymous": false,
      "inputs": [
        {
          "indexed": false,
          "internalType": "address",
          "name": "user",
          "type": "address"
        },
        {
          "indexed": false,
          "internalType": "address",
          "name": "account",
          "type": "address"
        },
        {
          "indexed": false,
          "internalType": "string",
          "name": "name",
          "type": "string"
        }
      ],
      "name": "AddAccount",
      "type": "event"
    },
    {
      "anonymous": false,
      "inputs": [
        {
          "indexed": false,
          "internalType": "address",
          "name": "user",
          "type": "address"
        },
        {
          "indexed": false,
          "internalType": "address",
          "name": "account",
          "type": "address"
        },
        {
          "indexed": false,
          "internalType": "uint256",
          "name": "amount",
          "type": "uint256"
        }
      ],
      "name": "AllocateForAccount",
      "type": "event"
    },
    {
      "anonymous": false,
      "inputs": [
        {
          "indexed": false,
          "internalType": "address",
          "name": "user",
          "type": "address"
        },
        {
          "indexed": false,
          "internalType": "address",
          "name": "account",
          "type": "address"
        },
        {
          "indexed": false,
          "internalType": "bytes",
          "name": "_callData",
          "type": "bytes"
        },
        {
          "indexed": false,
          "internalType": "bool",
          "name": "_success",
          "type": "bool"
        },
        {
          "indexed": false,
          "internalType": "bytes",
          "name": "_resultData",
          "type": "bytes"
        }
      ],
      "name": "Call",
      "type": "event"
    },
    {
      "anonymous": false,
      "inputs": [
        {
          "indexed": false,
          "internalType": "address",
          "name": "account",
          "type": "address"
        },
        {
          "indexed": false,
          "internalType": "address",
          "name": "target",
          "type": "address"
        },
        {
          "indexed": false,
          "internalType": "bytes4",
          "name": "selector",
          "type": "bytes4"
        },
        {
          "indexed": false,
          "internalType": "bool",
          "name": "state",
          "type": "bool"
        }
      ],
      "name": "DelegateAccess",
      "type": "event"
    },
    {
      "anonymous": false,
      "inputs": [
        {
          "indexed": false,
          "internalType": "address",
          "name": "account",
          "type": "address"
        },
        {
          "indexed": false,
          "internalType": "address",
          "name": "target",
          "type": "address"
        },
        {
          "indexed": false,
          "internalType": "bytes4[]",
          "name": "selector",
          "type": "bytes4[]"
        },
        {
          "indexed": false,
          "internalType": "bool",
          "name": "state",
          "type": "bool"
        }
      ],
      "name": "DelegateAccesses",
      "type": "event"
    },
    {
      "anonymous": false,
      "inputs": [
        {
          "indexed": false,
          "internalType": "address",
          "name": "sender",
          "type": "address"
        },
        {
          "indexed": false,
          "internalType": "address",
          "name": "contractAddress",
          "type": "address"
        }
      ],
      "name": "DeployContract",
      "type": "event"
    },
    {
      "anonymous": false,
      "inputs": [
        {
          "indexed": false,
          "internalType": "address",
          "name": "user",
          "type": "address"
        },
        {
          "indexed": false,
          "internalType": "address",
          "name": "account",
          "type": "address"
        },
        {
          "indexed": false,
          "internalType": "uint256",
          "name": "amount",
          "type": "uint256"
        }
      ],
      "name": "DepositForAccount",
      "type": "event"
    },
    {
      "anonymous": false,
      "inputs": [
        {
          "indexed": false,
          "internalType": "address",
          "name": "user",
          "type": "address"
        },
        {
          "indexed": false,
          "internalType": "address",
          "name": "account",
          "type": "address"
        },
        {
          "indexed": false,
          "internalType": "string",
          "name": "newName",
          "type": "string"
        }
      ],
      "name": "EditAccountName",
      "type": "event"
    },
    {
      "anonymous": false,
      "inputs": [
        {
          "indexed": false,
          "internalType": "uint8",
          "name": "version",
          "type": "uint8"
        }
      ],
      "name": "Initialized",
      "type": "event"
    },
    {
      "anonymous": false,
      "inputs": [
        {
          "indexed": false,
          "internalType": "address",
          "name": "account",
          "type": "address"
        }
      ],
      "name": "Paused",
      "type": "event"
    },
    {
      "anonymous": false,
      "inputs": [
        {
          "indexed": false,
          "internalType": "address",
          "name": "account",
          "type": "address"
        },
        {
          "indexed": false,
          "internalType": "address",
          "name": "target",
          "type": "address"
        },
        {
          "indexed": false,
          "internalType": "bytes4[]",
          "name": "selector",
          "type": "bytes4[]"
        }
      ],
      "name": "ProposeToRevokeAccesses",
      "type": "event"
    },
    {
      "anonymous": false,
      "inputs": [
        {
          "indexed": true,
          "internalType": "bytes32",
          "name": "role",
          "type": "bytes32"
        },
        {
          "indexed": true,
          "internalType": "bytes32",
          "name": "previousAdminRole",
          "type": "bytes32"
        },
        {
          "indexed": true,
          "internalType": "bytes32",
          "name": "newAdminRole",
          "type": "bytes32"
        }
      ],
      "name": "RoleAdminChanged",
      "type": "event"
    },
    {
      "anonymous": false,
      "inputs": [
        {
          "indexed": true,
          "internalType": "bytes32",
          "name": "role",
          "type": "bytes32"
        },
        {
          "indexed": true,
          "internalType": "address",
          "name": "account",
          "type": "address"
        },
        {
          "indexed": true,
          "internalType": "address",
          "name": "sender",
          "type": "address"
        }
      ],
      "name": "RoleGranted",
      "type": "event"
    },
    {
      "anonymous": false,
      "inputs": [
        {
          "indexed": true,
          "internalType": "bytes32",
          "name": "role",
          "type": "bytes32"
        },
        {
          "indexed": true,
          "internalType": "address",
          "name": "account",
          "type": "address"
        },
        {
          "indexed": true,
          "internalType": "address",
          "name": "sender",
          "type": "address"
        }
      ],
      "name": "RoleRevoked",
      "type": "event"
    },
    {
      "anonymous": false,
      "inputs": [
        {
          "indexed": false,
          "internalType": "bytes",
          "name": "oldAddress",
          "type": "bytes"
        },
        {
          "indexed": false,
          "internalType": "bytes",
          "name": "newAddress",
          "type": "bytes"
        }
      ],
      "name": "SetAccountImplementation",
      "type": "event"
    },
    {
      "anonymous": false,
      "inputs": [
        {
          "indexed": false,
          "internalType": "address",
          "name": "oldAccountAdmin",
          "type": "address"
        },
        {
          "indexed": false,
          "internalType": "address",
          "name": "newAccountAdmin",
          "type": "address"
        }
      ],
      "name": "SetAccountsAdmin",
      "type": "event"
    },
    {
      "anonymous": false,
      "inputs": [
        {
          "indexed": false,
          "internalType": "uint256",
          "name": "oldCooldown",
          "type": "uint256"
        },
        {
          "indexed": false,
          "internalType": "uint256",
          "name": "newCooldown",
          "type": "uint256"
        }
      ],
      "name": "SetRevokeCooldown",
      "type": "event"
    },
    {
      "anonymous": false,
      "inputs": [
        {
          "indexed": false,
          "internalType": "address",
          "name": "oldAddress",
          "type": "address"
        },
        {
          "indexed": false,
          "internalType": "address",
          "name": "newAddress",
          "type": "address"
        }
      ],
      "name": "SetSymmioAddress",
      "type": "event"
    },
    {
      "anonymous": false,
      "inputs": [
        {
          "indexed": false,
          "internalType": "address",
          "name": "account",
          "type": "address"
        }
      ],
      "name": "Unpaused",
      "type": "event"
    },
    {
      "anonymous": false,
      "inputs": [
        {
          "indexed": false,
          "internalType": "address",
          "name": "user",
          "type": "address"
        },
        {
          "indexed": false,
          "internalType": "address",
          "name": "account",
          "type": "address"
        },
        {
          "indexed": false,
          "internalType": "uint256",
          "name": "amount",
          "type": "uint256"
        }
      ],
      "name": "WithdrawFromAccount",
      "type": "event"
    },
    {
      "inputs": [],
      "name": "DEFAULT_ADMIN_ROLE",
      "outputs": [
        {
          "internalType": "bytes32",
          "name": "",
          "type": "bytes32"
        }
      ],
      "stateMutability": "view",
      "type": "function"
    },
    {
      "inputs": [],
      "name": "PAUSER_ROLE",
      "outputs": [
        {
          "internalType": "bytes32",
          "name": "",
          "type": "bytes32"
        }
      ],
      "stateMutability": "view",
      "type": "function"
    },
    {
      "inputs": [],
      "name": "SETTER_ROLE",
      "outputs": [
        {
          "internalType": "bytes32",
          "name": "",
          "type": "bytes32"
        }
      ],
      "stateMutability": "view",
      "type": "function"
    },
    {
      "inputs": [],
      "name": "UNPAUSER_ROLE",
      "outputs": [
        {
          "internalType": "bytes32",
          "name": "",
          "type": "bytes32"
        }
      ],
      "stateMutability": "view",
      "type": "function"
    },
    {
      "inputs": [
        {
          "internalType": "address",
          "name": "account",
          "type": "address"
        },
        {
          "internalType": "bytes[]",
          "name": "_callDatas",
          "type": "bytes[]"
        }
      ],
      "name": "_call",
      "outputs": [],
      "stateMutability": "nonpayable",
      "type": "function"
    },
    {
      "inputs": [],
      "name": "accountImplementation",
      "outputs": [
        {
          "internalType": "bytes",
          "name": "",
          "type": "bytes"
        }
      ],
      "stateMutability": "view",
      "type": "function"
    },
    {
      "inputs": [
        {
          "internalType": "address",
          "name": "",
          "type": "address"
        },
        {
          "internalType": "uint256",
          "name": "",
          "type": "uint256"
        }
      ],
      "name": "accounts",
      "outputs": [
        {
          "internalType": "address",
          "name": "accountAddress",
          "type": "address"
        },
        {
          "internalType": "string",
          "name": "name",
          "type": "string"
        }
      ],
      "stateMutability": "view",
      "type": "function"
    },
    {
      "inputs": [],
      "name": "accountsAdmin",
      "outputs": [
        {
          "internalType": "address",
          "name": "",
          "type": "address"
        }
      ],
      "stateMutability": "view",
      "type": "function"
    },
    {
      "inputs": [
        {
          "internalType": "string",
          "name": "name",
          "type": "string"
        }
      ],
      "name": "addAccount",
      "outputs": [],
      "stateMutability": "nonpayable",
      "type": "function"
    },
    {
      "inputs": [
        {
          "internalType": "string",
          "name": "name",
          "type": "string"
        },
        {
          "internalType": "address",
          "name": "target",
          "type": "address"
        },
        {
          "internalType": "bytes4[]",
          "name": "selector",
          "type": "bytes4[]"
        },
        {
          "internalType": "bytes[]",
          "name": "_callDatas",
          "type": "bytes[]"
        }
      ],
      "name": "addAccountDelegateAccessAndCall",
      "outputs": [
        {
          "internalType": "address",
          "name": "account",
          "type": "address"
        }
      ],
      "stateMutability": "nonpayable",
      "type": "function"
    },
    {
      "inputs": [
        {
          "internalType": "address",
          "name": "account",
          "type": "address"
        },
        {
          "internalType": "address",
          "name": "target",
          "type": "address"
        },
        {
          "internalType": "bytes4",
          "name": "selector",
          "type": "bytes4"
        },
        {
          "internalType": "bool",
          "name": "state",
          "type": "bool"
        }
      ],
      "name": "delegateAccess",
      "outputs": [],
      "stateMutability": "nonpayable",
      "type": "function"
    },
    {
      "inputs": [
        {
          "internalType": "address",
          "name": "account",
          "type": "address"
        },
        {
          "internalType": "address",
          "name": "target",
          "type": "address"
        },
        {
          "internalType": "bytes4[]",
          "name": "selector",
          "type": "bytes4[]"
        },
        {
          "internalType": "bool",
          "name": "state",
          "type": "bool"
        }
      ],
      "name": "delegateAccesses",
      "outputs": [],
      "stateMutability": "nonpayable",
      "type": "function"
    },
    {
      "inputs": [
        {
          "internalType": "address",
          "name": "",
          "type": "address"
        },
        {
          "internalType": "address",
          "name": "",
          "type": "address"
        },
        {
          "internalType": "bytes4",
          "name": "",
          "type": "bytes4"
        }
      ],
      "name": "delegatedAccesses",
      "outputs": [
        {
          "internalType": "bool",
          "name": "",
          "type": "bool"
        }
      ],
      "stateMutability": "view",
      "type": "function"
    },
    {
      "inputs": [
        {
          "internalType": "address",
          "name": "account",
          "type": "address"
        },
        {
          "internalType": "uint256",
          "name": "amount",
          "type": "uint256"
        }
      ],
      "name": "depositAndAllocateForAccount",
      "outputs": [],
      "stateMutability": "nonpayable",
      "type": "function"
    },
    {
      "inputs": [
        {
          "internalType": "address",
          "name": "account",
          "type": "address"
        },
        {
          "internalType": "uint256",
          "name": "amount",
          "type": "uint256"
        }
      ],
      "name": "depositForAccount",
      "outputs": [],
      "stateMutability": "nonpayable",
      "type": "function"
    },
    {
      "inputs": [
        {
          "internalType": "address",
          "name": "accountAddress",
          "type": "address"
        },
        {
          "internalType": "string",
          "name": "name",
          "type": "string"
        }
      ],
      "name": "editAccountName",
      "outputs": [],
      "stateMutability": "nonpayable",
      "type": "function"
    },
    {
      "inputs": [
        {
          "internalType": "address",
          "name": "user",
          "type": "address"
        },
        {
          "internalType": "uint256",
          "name": "start",
          "type": "uint256"
        },
        {
          "internalType": "uint256",
          "name": "size",
          "type": "uint256"
        }
      ],
      "name": "getAccounts",
      "outputs": [
        {
          "components": [
            {
              "internalType": "address",
              "name": "accountAddress",
              "type": "address"
            },
            {
              "internalType": "string",
              "name": "name",
              "type": "string"
            }
          ],
          "internalType": "struct IMultiAccount.Account[]",
          "name": "",
          "type": "tuple[]"
        }
      ],
      "stateMutability": "view",
      "type": "function"
    },
    {
      "inputs": [
        {
          "internalType": "address",
          "name": "user",
          "type": "address"
        }
      ],
      "name": "getAccountsLength",
      "outputs": [
        {
          "internalType": "uint256",
          "name": "",
          "type": "uint256"
        }
      ],
      "stateMutability": "view",
      "type": "function"
    },
    {
      "inputs": [
        {
          "internalType": "bytes32",
          "name": "role",
          "type": "bytes32"
        }
      ],
      "name": "getRoleAdmin",
      "outputs": [
        {
          "internalType": "bytes32",
          "name": "",
          "type": "bytes32"
        }
      ],
      "stateMutability": "view",
      "type": "function"
    },
    {
      "inputs": [
        {
          "internalType": "bytes32",
          "name": "role",
          "type": "bytes32"
        },
        {
          "internalType": "address",
          "name": "account",
          "type": "address"
        }
      ],
      "name": "grantRole",
      "outputs": [],
      "stateMutability": "nonpayable",
      "type": "function"
    },
    {
      "inputs": [
        {
          "internalType": "bytes32",
          "name": "role",
          "type": "bytes32"
        },
        {
          "internalType": "address",
          "name": "account",
          "type": "address"
        }
      ],
      "name": "hasRole",
      "outputs": [
        {
          "internalType": "bool",
          "name": "",
          "type": "bool"
        }
      ],
      "stateMutability": "view",
      "type": "function"
    },
    {
      "inputs": [
        {
          "internalType": "address",
          "name": "",
          "type": "address"
        }
      ],
      "name": "indexOfAccount",
      "outputs": [
        {
          "internalType": "uint256",
          "name": "",
          "type": "uint256"
        }
      ],
      "stateMutability": "view",
      "type": "function"
    },
    {
      "inputs": [
        {
          "internalType": "address",
          "name": "admin",
          "type": "address"
        },
        {
          "internalType": "address",
          "name": "symmioAddress_",
          "type": "address"
        },
        {
          "internalType": "bytes",
          "name": "accountImplementation_",
          "type": "bytes"
        }
      ],
      "name": "initialize",
      "outputs": [],
      "stateMutability": "nonpayable",
      "type": "function"
    },
    {
      "inputs": [
        {
          "internalType": "address",
          "name": "",
          "type": "address"
        }
      ],
      "name": "owners",
      "outputs": [
        {
          "internalType": "address",
          "name": "",
          "type": "address"
        }
      ],
      "stateMutability": "view",
      "type": "function"
    },
    {
      "inputs": [],
      "name": "pause",
      "outputs": [],
      "stateMutability": "nonpayable",
      "type": "function"
    },
    {
      "inputs": [],
      "name": "paused",
      "outputs": [
        {
          "internalType": "bool",
          "name": "",
          "type": "bool"
        }
      ],
      "stateMutability": "view",
      "type": "function"
    },
    {
      "inputs": [
        {
          "internalType": "address",
          "name": "account",
          "type": "address"
        },
        {
          "internalType": "address",
          "name": "target",
          "type": "address"
        },
        {
          "internalType": "bytes4[]",
          "name": "selector",
          "type": "bytes4[]"
        }
      ],
      "name": "proposeToRevokeAccesses",
      "outputs": [],
      "stateMutability": "nonpayable",
      "type": "function"
    },
    {
      "inputs": [
        {
          "internalType": "bytes32",
          "name": "role",
          "type": "bytes32"
        },
        {
          "internalType": "address",
          "name": "account",
          "type": "address"
        }
      ],
      "name": "renounceRole",
      "outputs": [],
      "stateMutability": "nonpayable",
      "type": "function"
    },
    {
      "inputs": [
        {
          "internalType": "address",
          "name": "account",
          "type": "address"
        },
        {
          "internalType": "address",
          "name": "target",
          "type": "address"
        },
        {
          "internalType": "bytes4[]",
          "name": "selector",
          "type": "bytes4[]"
        }
      ],
      "name": "revokeAccesses",
      "outputs": [],
      "stateMutability": "nonpayable",
      "type": "function"
    },
    {
      "inputs": [],
      "name": "revokeCooldown",
      "outputs": [
        {
          "internalType": "uint256",
          "name": "",
          "type": "uint256"
        }
      ],
      "stateMutability": "view",
      "type": "function"
    },
    {
      "inputs": [
        {
          "internalType": "address",
          "name": "",
          "type": "address"
        },
        {
          "internalType": "address",
          "name": "",
          "type": "address"
        },
        {
          "internalType": "bytes4",
          "name": "",
          "type": "bytes4"
        }
      ],
      "name": "revokeProposalTimestamp",
      "outputs": [
        {
          "internalType": "uint256",
          "name": "",
          "type": "uint256"
        }
      ],
      "stateMutability": "view",
      "type": "function"
    },
    {
      "inputs": [
        {
          "internalType": "bytes32",
          "name": "role",
          "type": "bytes32"
        },
        {
          "internalType": "address",
          "name": "account",
          "type": "address"
        }
      ],
      "name": "revokeRole",
      "outputs": [],
      "stateMutability": "nonpayable",
      "type": "function"
    },
    {
      "inputs": [],
      "name": "saltCounter",
      "outputs": [
        {
          "internalType": "uint256",
          "name": "",
          "type": "uint256"
        }
      ],
      "stateMutability": "view",
      "type": "function"
    },
    {
      "inputs": [
        {
          "internalType": "bytes",
          "name": "accountImplementation_",
          "type": "bytes"
        }
      ],
      "name": "setAccountImplementation",
      "outputs": [],
      "stateMutability": "nonpayable",
      "type": "function"
    },
    {
      "inputs": [
        {
          "internalType": "address",
          "name": "accountsAdmin_",
          "type": "address"
        }
      ],
      "name": "setAccountsAdmin",
      "outputs": [],
      "stateMutability": "nonpayable",
      "type": "function"
    },
    {
      "inputs": [
        {
          "internalType": "uint256",
          "name": "cooldown",
          "type": "uint256"
        }
      ],
      "name": "setRevokeCooldown",
      "outputs": [],
      "stateMutability": "nonpayable",
      "type": "function"
    },
    {
      "inputs": [
        {
          "internalType": "address",
          "name": "addr",
          "type": "address"
        }
      ],
      "name": "setSymmioAddress",
      "outputs": [],
      "stateMutability": "nonpayable",
      "type": "function"
    },
    {
      "inputs": [
        {
          "internalType": "bytes4",
          "name": "interfaceId",
          "type": "bytes4"
        }
      ],
      "name": "supportsInterface",
      "outputs": [
        {
          "internalType": "bool",
          "name": "",
          "type": "bool"
        }
      ],
      "stateMutability": "view",
      "type": "function"
    },
    {
      "inputs": [],
      "name": "symmioAddress",
      "outputs": [
        {
          "internalType": "address",
          "name": "",
          "type": "address"
        }
      ],
      "stateMutability": "view",
      "type": "function"
    },
    {
      "inputs": [],
      "name": "unpause",
      "outputs": [],
      "stateMutability": "nonpayable",
      "type": "function"
    },
    {
      "inputs": [
        {
          "internalType": "address",
          "name": "account",
          "type": "address"
        },
        {
          "internalType": "uint256",
          "name": "amount",
          "type": "uint256"
        }
      ],
      "name": "withdrawFromAccount",
      "outputs": [],
      "stateMutability": "nonpayable",
      "type": "function"
    }
  ],
  "bytecode": "0x60806040523480156200001157600080fd5b506200001c62000022565b620000e3565b600054610100900460ff16156200008f5760405162461bcd60e51b815260206004820152602760248201527f496e697469616c697a61626c653a20636f6e747261637420697320696e697469604482015266616c697a696e6760c81b606482015260840160405180910390fd5b60005460ff90811614620000e1576000805460ff191660ff9081179091556040519081527f7f26b83ff96e1f2b6a682f133852f6798a09c465da95921460cefb38474024989060200160405180910390a15b565b6141e280620000f36000396000f3fe608060405234801561001057600080fd5b50600436106102d35760003560e01c80638b5afd2b11610186578063a58c99d7116100e3578063d547741f11610097578063f462e68211610071578063f462e682146106a7578063f7420276146106b0578063fb1bb9de146106c357600080fd5b8063d547741f1461065a578063d9c2337c1461066d578063e63ab1e91461068057600080fd5b8063bd367d8e116100c8578063bd367d8e14610621578063c110221414610634578063cf7a1d771461064757600080fd5b8063a58c99d7146105da578063b9c9b3f2146105ed57600080fd5b806395d4609d1161013a578063a04c68091161011f578063a04c6809146105a2578063a2011b3f146105ab578063a217fddf146105d257600080fd5b806395d4609d146105515780639b0c03de1461058257600080fd5b806391d148541161016b57806391d14854146104e557806394aee4221461051e57806395c7d0ec1461053157600080fd5b80638b5afd2b146104a95780639181b74b146104d257600080fd5b806336568abe116102345780636a29dfbf116101e857806382a7e533116101cd57806382a7e5331461046d5780638456cb5914610480578063875245811461048857600080fd5b80636a29dfbf146104475780637278b28f1461045a57600080fd5b80633f4ba83a116102195780633f4ba83a146104215780634ebabea1146104295780635c975abb1461043c57600080fd5b806336568abe146103fb57806337f93b081461040e57600080fd5b8063288409bb1161028b5780632f2ff15d116102705780632f2ff15d146103c257806331e69d2d146103d5578063342fcda9146103e857600080fd5b8063288409bb1461039c5780632ad26a04146103af57600080fd5b8063022914a7116102bc578063022914a71461031557806311464fbe14610356578063248a9ca31461036b57600080fd5b806301569e3a146102d857806301ffc9a7146102ed575b600080fd5b6102eb6102e6366004613372565b6106ea565b005b6103006102fb3660046133ac565b61078b565b60405190151581526020015b60405180910390f35b61033e610323366004613372565b60cb602052600090815260409020546001600160a01b031681565b6040516001600160a01b03909116815260200161030c565b61035e6107f4565b60405161030c9190613417565b61038e61037936600461342a565b60009081526097602052604090206001015490565b60405190815260200161030c565b6102eb6103aa366004613372565b610882565b6102eb6103bd366004613508565b610904565b6102eb6103d036600461353d565b610a1e565b6102eb6103e336600461356d565b610a48565b6102eb6103f636600461356d565b610d12565b6102eb61040936600461353d565b610f1e565b60cc5461033e906001600160a01b031681565b6102eb610faa565b6102eb610437366004613638565b610fdf565b60335460ff16610300565b6102eb6104553660046136ad565b611229565b60cd5461033e906001600160a01b031681565b6102eb61047b366004613508565b6113da565b6102eb61144a565b61049b61049636600461356d565b61147c565b60405161030c92919061370f565b61038e6104b7366004613372565b6001600160a01b0316600090815260c9602052604090205490565b61033e6104e03660046137b1565b61154c565b6103006104f336600461353d565b60009182526097602090815260408084206001600160a01b0393909316845291905290205460ff1690565b6102eb61052c36600461356d565b6117f9565b61054461053f36600461384e565b611943565b60405161030c9190613883565b61038e61055f36600461391e565b60d260209081526000938452604080852082529284528284209052825290205481565b61038e610590366004613372565b60ca6020526000908152604090205481565b61038e60ce5481565b61038e7f61c92169ef077349011ff0b1383c894d86c5f0b41d986366b58a6cf31e93beda81565b61038e600081565b6102eb6105e83660046136ad565b611b44565b6103006105fb36600461391e565b60d060209081526000938452604080852082529284528284209052825290205460ff1681565b6102eb61062f366004613965565b611f41565b6102eb6106423660046139b5565b6120c3565b6102eb610655366004613a04565b6122d6565b6102eb61066836600461353d565b6124d3565b6102eb61067b366004613a5c565b6124f8565b61038e7f65d7a28e3265b37a6474929f336521b332c1681b933f6cb9f3376673440d862a81565b61038e60d15481565b6102eb6106be36600461342a565b61259a565b61038e7f427da25fe773164f88948d3e215c94b6554e2ed5e5f203a821c9f2f6131cf75a81565b7f61c92169ef077349011ff0b1383c894d86c5f0b41d986366b58a6cf31e93beda61071481612606565b60cd54604080516001600160a01b03928316815291841660208301527ff78ccdf5924090b2ab6627ac5da4ec5affed73d47c6bc6c8a4620a0d5ed57bc8910160405180910390a15060cd805473ffffffffffffffffffffffffffffffffffffffff19166001600160a01b0392909216919091179055565b60006001600160e01b031982167f7965db0b0000000000000000000000000000000000000000000000000000000014806107ee57507f01ffc9a7000000000000000000000000000000000000000000000000000000006001600160e01b03198316145b92915050565b60cf805461080190613aa2565b80601f016020809104026020016040519081016040528092919081815260200182805461082d90613aa2565b801561087a5780601f1061084f5761010080835404028352916020019161087a565b820191906000526020600020905b81548152906001019060200180831161085d57829003601f168201915b505050505081565b600061088d81612606565b60cc54604080516001600160a01b03928316815291841660208301527fc0c0a485d5a9547b687095c9652fe0811abc1379aa253cc64a91be08804b8956910160405180910390a15060cc805473ffffffffffffffffffffffffffffffffffffffff19166001600160a01b0392909216919091179055565b61090c612610565b6000610916612665565b33600090815260c96020818152604080842080546001600160a01b0387811680885260ca8652848820839055958552835180850190945294835282840189815260018083018455928752939095208251600290960201805473ffffffffffffffffffffffffffffffffffffffff19169590941694909417835590519394509290918201906109a49082613b2a565b5050506001600160a01b038116600090815260cb602052604090819020805473ffffffffffffffffffffffffffffffffffffffff19163390811790915590517f1deb86e124d1a5f3b49977292b48e989b984bcd8944cfb14d63c8880482f2cff91610a129184908690613bea565b60405180910390a15050565b600082815260976020526040902060010154610a3981612606565b610a438383612743565b505050565b610a50612610565b60cd54604080517f5c1548fb00000000000000000000000000000000000000000000000000000000815290516000926001600160a01b031691635c1548fb9160048083019260209291908290030181865afa158015610ab3573d6000803e3d6000fd5b505050506040513d601f19601f82011682018060405250810190610ad79190613c1f565b9050610aee6001600160a01b0382163330856127e5565b60cd54610b08906001600160a01b03838116911684612869565b60cd546040517f2f4f21e20000000000000000000000000000000000000000000000000000000081526001600160a01b0385811660048301526024820185905290911690632f4f21e290604401600060405180830381600087803b158015610b6f57600080fd5b505af1158015610b83573d6000803e3d6000fd5b505050506000816001600160a01b031663313ce5676040518163ffffffff1660e01b8152600401602060405180830381865afa158015610bc7573d6000803e3d6000fd5b505050506040513d601f19601f82011682018060405250810190610beb9190613c3c565b610bf690600a613d59565b610c0884670de0b6b3a7640000613d68565b610c129190613d7f565b9050600081604051602401610c2991815260200190565b60408051601f198184030181529190526020810180516001600160e01b03167f90ca796b000000000000000000000000000000000000000000000000000000001790529050610c7885826129b7565b604080513381526001600160a01b03871660208201529081018590527fb92f7c65176e3a873589352927ba42330e95085f34ab1a9721f2135b94a518839060600160405180910390a1604080513381526001600160a01b03871660208201529081018390527f13b84d799b5b8b235eafe52313197bb3dbf3d5c36c2ac0b62e4c45cc4d3a958e906060015b60405180910390a15050505050565b6001600160a01b03808316600090815260cb602052604090205483913391168114610d985760405162461bcd60e51b815260206004820152602b60248201527f4d756c74694163636f756e743a2053656e6465722069736e2774206f776e657260448201526a081bd9881858d8dbdd5b9d60aa1b60648201526084015b60405180910390fd5b610da0612610565b60cd54604080517f5c1548fb00000000000000000000000000000000000000000000000000000000815290516000926001600160a01b031691635c1548fb9160048083019260209291908290030181865afa158015610e03573d6000803e3d6000fd5b505050506040513d601f19601f82011682018060405250810190610e279190613c1f565b9050610e3e6001600160a01b0382163330876127e5565b60cd54610e58906001600160a01b03838116911686612869565b60cd546040517f2f4f21e20000000000000000000000000000000000000000000000000000000081526001600160a01b0387811660048301526024820187905290911690632f4f21e290604401600060405180830381600087803b158015610ebf57600080fd5b505af1158015610ed3573d6000803e3d6000fd5b5050604080513381526001600160a01b03891660208201529081018790527fb92f7c65176e3a873589352927ba42330e95085f34ab1a9721f2135b94a5188392506060019050610d03565b6001600160a01b0381163314610f9c5760405162461bcd60e51b815260206004820152602f60248201527f416363657373436f6e74726f6c3a2063616e206f6e6c792072656e6f756e636560448201527f20726f6c657320666f722073656c6600000000000000000000000000000000006064820152608401610d8f565b610fa68282612a7d565b5050565b7f427da25fe773164f88948d3e215c94b6554e2ed5e5f203a821c9f2f6131cf75a610fd481612606565b610fdc612b00565b50565b6001600160a01b03808516600090815260cb6020526040902054859133911681146110605760405162461bcd60e51b815260206004820152602b60248201527f4d756c74694163636f756e743a2053656e6465722069736e2774206f776e657260448201526a081bd9881858d8dbdd5b9d60aa1b6064820152608401610d8f565b6001600160a01b038516331480159061108b5750856001600160a01b0316856001600160a01b031614155b6110d75760405162461bcd60e51b815260206004820152601c60248201527f4d756c74694163636f756e743a20496e76616c696420746172676574000000006044820152606401610d8f565b60018315151461114f5760405162461bcd60e51b815260206004820152602960248201527f557365207265766f6b6520746f2066756e6374696f6e7320746f207265766f6b60448201527f65204163636573732e00000000000000000000000000000000000000000000006064820152608401610d8f565b83515b80156111e2576001600160a01b03808816600090815260d060209081526040808320938a1683529290529081206001918761118d8486613da1565b8151811061119d5761119d613db4565b6020908102919091018101516001600160e01b0319168252810191909152604001600020805460ff1916911515919091179055806111da81613dca565b915050611152565b507f41e2c91b7cd59c2d41cfac17496b166b244a4921d4a1c926b4a7132b6c66906e86868660016040516112199493929190613e26565b60405180910390a1505050505050565b6001600160a01b03808416600090815260cb6020526040902054849133911681146112aa5760405162461bcd60e51b815260206004820152602b60248201527f4d756c74694163636f756e743a2053656e6465722069736e2774206f776e657260448201526a081bd9881858d8dbdd5b9d60aa1b6064820152608401610d8f565b6001600160a01b03841633148015906112d55750846001600160a01b0316846001600160a01b031614155b6113215760405162461bcd60e51b815260206004820152601c60248201527f4d756c74694163636f756e743a20496e76616c696420746172676574000000006044820152606401610d8f565b82515b80156113a6576001600160a01b03808716600090815260d260209081526040808320938916835292905290812042918661135f600186613da1565b8151811061136f5761136f613db4565b6020908102919091018101516001600160e01b0319168252810191909152604001600020558061139e81613dca565b915050611324565b507f64930ca7235077162dd09f78d211b233f0f505f794151b9ecfaa6680bf00ead6858585604051610d0393929190613e65565b7f61c92169ef077349011ff0b1383c894d86c5f0b41d986366b58a6cf31e93beda61140481612606565b7f4ec7166fdb5f155366ddacdab9af9c74d038015a7570252e40c6c82346308ad760cf83604051611436929190613e91565b60405180910390a160cf610a438382613b2a565b7f65d7a28e3265b37a6474929f336521b332c1681b933f6cb9f3376673440d862a61147481612606565b610fdc612b52565b60c9602052816000526040600020818154811061149857600080fd5b6000918252602090912060029091020180546001820180546001600160a01b0390921694509192506114c990613aa2565b80601f01602080910402602001604051908101604052809291908181526020018280546114f590613aa2565b80156115425780601f1061151757610100808354040283529160200191611542565b820191906000526020600020905b81548152906001019060200180831161152557829003601f168201915b5050505050905082565b6000611556612665565b33600090815260c96020818152604080842080546001600160a01b0387811680885260ca865284882083905595855283518085019094529483528284018c815260018083018455928752939095208251600290960201805473ffffffffffffffffffffffffffffffffffffffff19169590941694909417835590519394509290918201906115e49082613b2a565b5050506001600160a01b038116600090815260cb602052604090819020805473ffffffffffffffffffffffffffffffffffffffff19163390811790915590517f1deb86e124d1a5f3b49977292b48e989b984bcd8944cfb14d63c8880482f2cff916116529184908990613bea565b60405180910390a16001600160a01b03841633148015906116855750806001600160a01b0316846001600160a01b031614155b6116d15760405162461bcd60e51b815260206004820152601c60248201527f4d756c74694163636f756e743a20696e76616c696420746172676574000000006044820152606401610d8f565b82515b8015611764576001600160a01b03808316600090815260d06020908152604080832093891683529290529081206001918661170f8486613da1565b8151811061171f5761171f613db4565b6020908102919091018101516001600160e01b0319168252810191909152604001600020805460ff19169115159190911790558061175c81613dca565b9150506116d4565b507f41e2c91b7cd59c2d41cfac17496b166b244a4921d4a1c926b4a7132b6c66906e818585600160405161179b9493929190613e26565b60405180910390a160005b82518160ff1610156117f0576000838260ff16815181106117c9576117c9613db4565b602002602001015190506117dd83826129b7565b50806117e881613f27565b9150506117a6565b50949350505050565b6001600160a01b03808316600090815260cb60205260409020548391339116811461187a5760405162461bcd60e51b815260206004820152602b60248201527f4d756c74694163636f756e743a2053656e6465722069736e2774206f776e657260448201526a081bd9881858d8dbdd5b9d60aa1b6064820152608401610d8f565b611882612610565b6001600160a01b03848116600081815260cb6020908152604091829020548251941660248501526044808501889052825180860390910181526064909401825283810180516001600160e01b03167f205c287800000000000000000000000000000000000000000000000000000000179052815133815290810192909252818101869052517f40e4447d271dea2a920b9669d305a3255d8783d59b016237e63b106f1c9dd5fa916060908290030190a161193c85826129b7565b5050505050565b6001600160a01b038316600090815260c960205260408120546060919061196b908590613da1565b8311611977578261199b565b6001600160a01b038516600090815260c9602052604090205461199b908590613da1565b905060008167ffffffffffffffff8111156119b8576119b8613443565b6040519080825280602002602001820160405280156119fe57816020015b6040805180820190915260008152606060208201528152602001906001900390816119d65790505b509050845b611a0d8387613f46565b811015611b3a576001600160a01b038716600090815260c960205260409020805482908110611a3e57611a3e613db4565b60009182526020918290206040805180820190915260029092020180546001600160a01b031682526001810180549293919291840191611a7d90613aa2565b80601f0160208091040260200160405190810160405280929190818152602001828054611aa990613aa2565b8015611af65780601f10611acb57610100808354040283529160200191611af6565b820191906000526020600020905b815481529060010190602001808311611ad957829003601f168201915b505050505081525050828783611b0c9190613da1565b81518110611b1c57611b1c613db4565b60200260200101819052508080611b3290613f59565b915050611a03565b5095945050505050565b6001600160a01b03808416600090815260cb602052604090205484913391168114611bc55760405162461bcd60e51b815260206004820152602b60248201527f4d756c74694163636f756e743a2053656e6465722069736e2774206f776e657260448201526a081bd9881858d8dbdd5b9d60aa1b6064820152608401610d8f565b6001600160a01b0384163314801590611bf05750846001600160a01b0316846001600160a01b031614155b611c3c5760405162461bcd60e51b815260206004820152601c60248201527f4d756c74694163636f756e743a20496e76616c696420746172676574000000006044820152606401610d8f565b82515b8015611f0a576001600160a01b03808716600090815260d26020908152604080832093891683529290529081209085611c79600185613da1565b81518110611c8957611c89613db4565b60200260200101516001600160e01b0319166001600160e01b031916815260200190815260200160002054600003611d295760405162461bcd60e51b815260206004820152602860248201527f4d756c74694163636f756e743a205265766f6b6520616363657373206e6f742060448201527f70726f706f7365640000000000000000000000000000000000000000000000006064820152608401610d8f565b60d1546001600160a01b03808816600090815260d260209081526040808320938a16835292905290812042929187611d62600187613da1565b81518110611d7257611d72613db4565b60200260200101516001600160e01b0319166001600160e01b031916815260200190815260200160002054611da79190613f46565b1115611e1b5760405162461bcd60e51b815260206004820152602260248201527f4d756c74694163636f756e743a20436f6f6c646f776e206e6f7420726561636860448201527f65640000000000000000000000000000000000000000000000000000000000006064820152608401610d8f565b6001600160a01b03808716600090815260d06020908152604080832093891683529290529081208186611e4f600186613da1565b81518110611e5f57611e5f613db4565b6020908102919091018101516001600160e01b03191682528181019290925260409081016000908120805460ff1916941515949094179093556001600160a01b03898116845260d28352818420908916845290915281208186611ec3600186613da1565b81518110611ed357611ed3613db4565b6020908102919091018101516001600160e01b03191682528101919091526040016000205580611f0281613dca565b915050611c3f565b507f41e2c91b7cd59c2d41cfac17496b166b244a4921d4a1c926b4a7132b6c66906e8585856000604051610d039493929190613e26565b611f49612610565b6001600160a01b03828116600090815260cb60205260408120549091163314905b82518160ff1610156120bd576000838260ff1681518110611f8d57611f8d613db4565b60200260200101519050826120a057600481511015611fee5760405162461bcd60e51b815260206004820152601f60248201527f4d756c74694163636f756e743a20496e76616c69642063616c6c2064617461006044820152606401610d8f565b6020818101516001600160a01b038716600090815260d08352604080822033835284528082206001600160e01b031984168352909352919091205460ff1661209e5760405162461bcd60e51b815260206004820152602160248201527f4d756c74694163636f756e743a20556e617574686f72697a656420616363657360448201527f73000000000000000000000000000000000000000000000000000000000000006064820152608401610d8f565b505b6120aa85826129b7565b50806120b581613f27565b915050611f6a565b50505050565b6001600160a01b03808516600090815260cb6020526040902054859133911681146121445760405162461bcd60e51b815260206004820152602b60248201527f4d756c74694163636f756e743a2053656e6465722069736e2774206f776e657260448201526a081bd9881858d8dbdd5b9d60aa1b6064820152608401610d8f565b6001600160a01b038516331480159061216f5750856001600160a01b0316856001600160a01b031614155b6121bb5760405162461bcd60e51b815260206004820152601c60248201527f4d756c74694163636f756e743a20496e76616c696420746172676574000000006044820152606401610d8f565b6001831515146122335760405162461bcd60e51b815260206004820152602960248201527f557365207265766f6b6520746f2066756e6374696f6e7320746f207265766f6b60448201527f65204163636573732e00000000000000000000000000000000000000000000006064820152608401610d8f565b604080516001600160a01b038881168252871660208201526001600160e01b03198616818301526001606082015290517fc6c2cef2fe1f0545b232744fc2812ca3a23cdb770794c9c7458ea69f6d9be7ff9181900360800190a15050506001600160a01b03928316600090815260d0602090815260408083209490951682529283528381206001600160e01b03199092168152915220805460ff19166001179055565b600054610100900460ff16158080156122f65750600054600160ff909116105b806123105750303b158015612310575060005460ff166001145b6123825760405162461bcd60e51b815260206004820152602e60248201527f496e697469616c697a61626c653a20636f6e747261637420697320616c72656160448201527f647920696e697469616c697a65640000000000000000000000000000000000006064820152608401610d8f565b6000805460ff1916600117905580156123a5576000805461ff0019166101001790555b6123ad612b8f565b6123b5612c14565b6123c0600085612743565b6123ea7f65d7a28e3265b37a6474929f336521b332c1681b933f6cb9f3376673440d862a85612743565b6124147f427da25fe773164f88948d3e215c94b6554e2ed5e5f203a821c9f2f6131cf75a85612743565b61243e7f61c92169ef077349011ff0b1383c894d86c5f0b41d986366b58a6cf31e93beda85612743565b60cc80546001600160a01b0380871673ffffffffffffffffffffffffffffffffffffffff199283161790925560cd80549286169290911691909117905560cf6124878382613b2a565b5080156120bd576000805461ff0019169055604051600181527f7f26b83ff96e1f2b6a682f133852f6798a09c465da95921460cefb38474024989060200160405180910390a150505050565b6000828152609760205260409020600101546124ee81612606565b610a438383612a7d565b612500612610565b6001600160a01b038216600090815260ca602090815260408083205433845260c990925290912080548391908390811061253c5761253c613db4565b906000526020600020906002020160010190816125599190613b2a565b507f13bbfc66aca7f597c509c7eb717cafee4ae3fc31a77f4bbb22b333e81369276d33848460405161258d93929190613bea565b60405180910390a1505050565b7f61c92169ef077349011ff0b1383c894d86c5f0b41d986366b58a6cf31e93beda6125c481612606565b60d15460408051918252602082018490527f41a6e3ea336979dfead544a7561ccbf3fbbbf13c4405cc4ce398afaebf4b1498910160405180910390a15060d155565b610fdc8133612c91565b60335460ff16156126635760405162461bcd60e51b815260206004820152601060248201527f5061757361626c653a20706175736564000000000000000000000000000000006044820152606401610d8f565b565b60ce546040517f4d756c74694163636f756e745f000000000000000000000000000000000000006020820152602d8101919091526000908190604d01604051602081830303815290604052805190602001209050600160ce60008282546126cc9190613f46565b909155505060cc5460cd54604080516001600160a01b03938416602082015230918101919091529116606082015260009060cf9060800160408051601f19818403018152908290526127219291602001613f73565b604051602081830303815290604052905061273c8183612d06565b9250505090565b60008281526097602090815260408083206001600160a01b038516845290915290205460ff16610fa65760008281526097602090815260408083206001600160a01b03851684529091529020805460ff191660011790556127a13390565b6001600160a01b0316816001600160a01b0316837f2f8788117e7eff1d82e926ec794901d17c78024a50270940304540a733656f0d60405160405180910390a45050565b6040516001600160a01b03808516602483015283166044820152606481018290526120bd9085907f23b872dd00000000000000000000000000000000000000000000000000000000906084015b60408051601f198184030181529190526020810180516001600160e01b03166001600160e01b031990931692909217909152612db1565b8015806128fc57506040517fdd62ed3e0000000000000000000000000000000000000000000000000000000081523060048201526001600160a01b03838116602483015284169063dd62ed3e90604401602060405180830381865afa1580156128d6573d6000803e3d6000fd5b505050506040513d601f19601f820116820180604052508101906128fa9190613ffa565b155b61296e5760405162461bcd60e51b815260206004820152603660248201527f5361666545524332303a20617070726f76652066726f6d206e6f6e2d7a65726f60448201527f20746f206e6f6e2d7a65726f20616c6c6f77616e6365000000000000000000006064820152608401610d8f565b6040516001600160a01b038316602482015260448101829052610a439084907f095ea7b30000000000000000000000000000000000000000000000000000000090606401612832565b600080836001600160a01b03166362dfbb2e846040518263ffffffff1660e01b81526004016129e69190613417565b6000604051808303816000875af1158015612a05573d6000803e3d6000fd5b505050506040513d6000823e601f3d908101601f19168201604052612a2d9190810190614013565b915091507f268e99f0b37c8146a6aea7c6af329e3924d9c92c4386be924c2990926d99b6613385858585604051612a689594939291906140a0565b60405180910390a1816120bd57805160208201fd5b60008281526097602090815260408083206001600160a01b038516845290915290205460ff1615610fa65760008281526097602090815260408083206001600160a01b0385168085529252808320805460ff1916905551339285917ff6391f5c32d9c69d2a47ea670b442974b53935d1edc7fd64eb21e047a839171b9190a45050565b612b08612e99565b6033805460ff191690557f5db9ee0a495bf2e6ff9c91a7834c1ba4fdd244a5e8aa4e537bd38aeae4b073aa335b6040516001600160a01b03909116815260200160405180910390a1565b612b5a612610565b6033805460ff191660011790557f62e78cea01bee320cd4e420270b5ea74000d11b0c9f74754ebdbfc544b05a258612b353390565b600054610100900460ff16612c0c5760405162461bcd60e51b815260206004820152602b60248201527f496e697469616c697a61626c653a20636f6e7472616374206973206e6f74206960448201527f6e697469616c697a696e670000000000000000000000000000000000000000006064820152608401610d8f565b612663612eeb565b600054610100900460ff166126635760405162461bcd60e51b815260206004820152602b60248201527f496e697469616c697a61626c653a20636f6e7472616374206973206e6f74206960448201527f6e697469616c697a696e670000000000000000000000000000000000000000006064820152608401610d8f565b60008281526097602090815260408083206001600160a01b038516845290915290205460ff16610fa657612cc481612f74565b612ccf836020612f86565b604051602001612ce09291906140f2565b60408051601f198184030181529082905262461bcd60e51b8252610d8f91600401613417565b6000818351602085016000f590506001600160a01b038116612d6a5760405162461bcd60e51b815260206004820152601c60248201527f4d756c74694163636f756e743a2063726561746532206661696c6564000000006044820152606401610d8f565b604080513381526001600160a01b03831660208201527f6cbd957809e2aaf4d5e36136d06e71215f53a984b218c6d501e22f91d348d9ce910160405180910390a192915050565b6000612e06826040518060400160405280602081526020017f5361666545524332303a206c6f772d6c6576656c2063616c6c206661696c6564815250856001600160a01b03166131b69092919063ffffffff16565b9050805160001480612e27575080806020019051810190612e279190614173565b610a435760405162461bcd60e51b815260206004820152602a60248201527f5361666545524332303a204552433230206f7065726174696f6e20646964206e60448201527f6f742073756363656564000000000000000000000000000000000000000000006064820152608401610d8f565b60335460ff166126635760405162461bcd60e51b815260206004820152601460248201527f5061757361626c653a206e6f74207061757365640000000000000000000000006044820152606401610d8f565b600054610100900460ff16612f685760405162461bcd60e51b815260206004820152602b60248201527f496e697469616c697a61626c653a20636f6e7472616374206973206e6f74206960448201527f6e697469616c697a696e670000000000000000000000000000000000000000006064820152608401610d8f565b6033805460ff19169055565b60606107ee6001600160a01b03831660145b60606000612f95836002613d68565b612fa0906002613f46565b67ffffffffffffffff811115612fb857612fb8613443565b6040519080825280601f01601f191660200182016040528015612fe2576020820181803683370190505b5090507f30000000000000000000000000000000000000000000000000000000000000008160008151811061301957613019613db4565b60200101907effffffffffffffffffffffffffffffffffffffffffffffffffffffffffffff1916908160001a9053507f78000000000000000000000000000000000000000000000000000000000000008160018151811061307c5761307c613db4565b60200101907effffffffffffffffffffffffffffffffffffffffffffffffffffffffffffff1916908160001a90535060006130b8846002613d68565b6130c3906001613f46565b90505b6001811115613160577f303132333435363738396162636465660000000000000000000000000000000085600f166010811061310457613104613db4565b1a60f81b82828151811061311a5761311a613db4565b60200101907effffffffffffffffffffffffffffffffffffffffffffffffffffffffffffff1916908160001a90535060049490941c9361315981613dca565b90506130c6565b5083156131af5760405162461bcd60e51b815260206004820181905260248201527f537472696e67733a20686578206c656e67746820696e73756666696369656e746044820152606401610d8f565b9392505050565b60606131c584846000856131cd565b949350505050565b6060824710156132455760405162461bcd60e51b815260206004820152602660248201527f416464726573733a20696e73756666696369656e742062616c616e636520666f60448201527f722063616c6c00000000000000000000000000000000000000000000000000006064820152608401610d8f565b600080866001600160a01b031685876040516132619190614190565b60006040518083038185875af1925050503d806000811461329e576040519150601f19603f3d011682016040523d82523d6000602084013e6132a3565b606091505b50915091506132b4878383876132bf565b979650505050505050565b6060831561332e578251600003613327576001600160a01b0385163b6133275760405162461bcd60e51b815260206004820152601d60248201527f416464726573733a2063616c6c20746f206e6f6e2d636f6e74726163740000006044820152606401610d8f565b50816131c5565b6131c583838151156133435781518083602001fd5b8060405162461bcd60e51b8152600401610d8f9190613417565b6001600160a01b0381168114610fdc57600080fd5b60006020828403121561338457600080fd5b81356131af8161335d565b80356001600160e01b0319811681146133a757600080fd5b919050565b6000602082840312156133be57600080fd5b6131af8261338f565b60005b838110156133e25781810151838201526020016133ca565b50506000910152565b600081518084526134038160208601602086016133c7565b601f01601f19169290920160200192915050565b6020815260006131af60208301846133eb565b60006020828403121561343c57600080fd5b5035919050565b634e487b7160e01b600052604160045260246000fd5b604051601f8201601f1916810167ffffffffffffffff8111828210171561348257613482613443565b604052919050565b600067ffffffffffffffff8211156134a4576134a4613443565b50601f01601f191660200190565b600082601f8301126134c357600080fd5b81356134d66134d18261348a565b613459565b8181528460208386010111156134eb57600080fd5b816020850160208301376000918101602001919091529392505050565b60006020828403121561351a57600080fd5b813567ffffffffffffffff81111561353157600080fd5b6131c5848285016134b2565b6000806040838503121561355057600080fd5b8235915060208301356135628161335d565b809150509250929050565b6000806040838503121561358057600080fd5b823561358b8161335d565b946020939093013593505050565b600067ffffffffffffffff8211156135b3576135b3613443565b5060051b60200190565b600082601f8301126135ce57600080fd5b813560206135de6134d183613599565b82815260059290921b840181019181810190868411156135fd57600080fd5b8286015b8481101561361f576136128161338f565b8352918301918301613601565b509695505050505050565b8015158114610fdc57600080fd5b6000806000806080858703121561364e57600080fd5b84356136598161335d565b935060208501356136698161335d565b9250604085013567ffffffffffffffff81111561368557600080fd5b613691878288016135bd565b92505060608501356136a28161362a565b939692955090935050565b6000806000606084860312156136c257600080fd5b83356136cd8161335d565b925060208401356136dd8161335d565b9150604084013567ffffffffffffffff8111156136f957600080fd5b613705868287016135bd565b9150509250925092565b6001600160a01b03831681526040602082015260006131c560408301846133eb565b600082601f83011261374257600080fd5b813560206137526134d183613599565b82815260059290921b8401810191818101908684111561377157600080fd5b8286015b8481101561361f57803567ffffffffffffffff8111156137955760008081fd5b6137a38986838b01016134b2565b845250918301918301613775565b600080600080608085870312156137c757600080fd5b843567ffffffffffffffff808211156137df57600080fd5b6137eb888389016134b2565b9550602087013591506137fd8261335d565b9093506040860135908082111561381357600080fd5b61381f888389016135bd565b9350606087013591508082111561383557600080fd5b5061384287828801613731565b91505092959194509250565b60008060006060848603121561386357600080fd5b833561386e8161335d565b95602085013595506040909401359392505050565b60006020808301818452808551808352604092508286019150828160051b87010184880160005b83811015613910578883037fffffffffffffffffffffffffffffffffffffffffffffffffffffffffffffffc0018552815180516001600160a01b031684528701518784018790526138fd878501826133eb565b95880195935050908601906001016138aa565b509098975050505050505050565b60008060006060848603121561393357600080fd5b833561393e8161335d565b9250602084013561394e8161335d565b915061395c6040850161338f565b90509250925092565b6000806040838503121561397857600080fd5b82356139838161335d565b9150602083013567ffffffffffffffff81111561399f57600080fd5b6139ab85828601613731565b9150509250929050565b600080600080608085870312156139cb57600080fd5b84356139d68161335d565b935060208501356139e68161335d565b92506139f46040860161338f565b915060608501356136a28161362a565b600080600060608486031215613a1957600080fd5b8335613a248161335d565b92506020840135613a348161335d565b9150604084013567ffffffffffffffff811115613a5057600080fd5b613705868287016134b2565b60008060408385031215613a6f57600080fd5b8235613a7a8161335d565b9150602083013567ffffffffffffffff811115613a9657600080fd5b6139ab858286016134b2565b600181811c90821680613ab657607f821691505b602082108103613ad657634e487b7160e01b600052602260045260246000fd5b50919050565b601f821115610a4357600081815260208120601f850160051c81016020861015613b035750805b601f850160051c820191505b81811015613b2257828155600101613b0f565b505050505050565b815167ffffffffffffffff811115613b4457613b44613443565b613b5881613b528454613aa2565b84613adc565b602080601f831160018114613b8d5760008415613b755750858301515b600019600386901b1c1916600185901b178555613b22565b600085815260208120601f198616915b82811015613bbc57888601518255948401946001909101908401613b9d565b5085821015613bda5787850151600019600388901b60f8161c191681555b5050505050600190811b01905550565b60006001600160a01b03808616835280851660208401525060606040830152613c1660608301846133eb565b95945050505050565b600060208284031215613c3157600080fd5b81516131af8161335d565b600060208284031215613c4e57600080fd5b815160ff811681146131af57600080fd5b634e487b7160e01b600052601160045260246000fd5b600181815b80851115613cb0578160001904821115613c9657613c96613c5f565b80851615613ca357918102915b93841c9390800290613c7a565b509250929050565b600082613cc7575060016107ee565b81613cd4575060006107ee565b8160018114613cea5760028114613cf457613d10565b60019150506107ee565b60ff841115613d0557613d05613c5f565b50506001821b6107ee565b5060208310610133831016604e8410600b8410161715613d33575081810a6107ee565b613d3d8383613c75565b8060001904821115613d5157613d51613c5f565b029392505050565b60006131af60ff841683613cb8565b80820281158282048414176107ee576107ee613c5f565b600082613d9c57634e487b7160e01b600052601260045260246000fd5b500490565b818103818111156107ee576107ee613c5f565b634e487b7160e01b600052603260045260246000fd5b600081613dd957613dd9613c5f565b506000190190565b600081518084526020808501945080840160005b83811015613e1b5781516001600160e01b03191687529582019590820190600101613df5565b509495945050505050565b60006001600160a01b03808716835280861660208401525060806040830152613e526080830185613de1565b9050821515606083015295945050505050565b60006001600160a01b03808616835280851660208401525060606040830152613c166060830184613de1565b604081526000808454613ea381613aa2565b8060408601526060600180841660008114613ec55760018114613edf57613f10565b60ff198516838901528284151560051b8901019550613f10565b8960005260208060002060005b86811015613f075781548b8201870152908401908201613eec565b8a018501975050505b50505050508281036020840152613c1681856133eb565b600060ff821660ff8103613f3d57613f3d613c5f565b60010192915050565b808201808211156107ee576107ee613c5f565b60006000198203613f6c57613f6c613c5f565b5060010190565b6000808454613f8181613aa2565b60018281168015613f995760018114613fae57613fdd565b60ff1984168752821515830287019450613fdd565b8860005260208060002060005b85811015613fd45781548a820152908401908201613fbb565b50505082870194505b505050508351613ff18183602088016133c7565b01949350505050565b60006020828403121561400c57600080fd5b5051919050565b6000806040838503121561402657600080fd5b82516140318161362a565b602084015190925067ffffffffffffffff81111561404e57600080fd5b8301601f8101851361405f57600080fd5b805161406d6134d18261348a565b81815286602083850101111561408257600080fd5b6140938260208301602086016133c7565b8093505050509250929050565b60006001600160a01b03808816835280871660208401525060a060408301526140cc60a08301866133eb565b841515606084015282810360808401526140e681856133eb565b98975050505050505050565b7f416363657373436f6e74726f6c3a206163636f756e742000000000000000000081526000835161412a8160178501602088016133c7565b7f206973206d697373696e6720726f6c652000000000000000000000000000000060179184019182015283516141678160288401602088016133c7565b01602801949350505050565b60006020828403121561418557600080fd5b81516131af8161362a565b600082516141a28184602087016133c7565b919091019291505056fea264697066735822122089e52fc705cf67983314b855f87f357238238ff2c96e9b8123f3d1c8653507c164736f6c63430008120033",
  "linkReferences": {},
  "deployedLinkReferences": {}
}