{
  "_format": "hh-sol-artifact-1",
  "contractName": "MultiAccount",
  "sourceName": "contracts/MultiAccount.sol",
  "abi": [
    {
      "inputs": [],
      "stateMutability": "nonpayable",
      "type": "constructor"
    },
    {
      "inputs": [],
      "name": "AccessControlBadConfirmation",
      "type": "error"
    },
    {
      "inputs": [
        {
          "internalType": "address",
          "name": "account",
          "type": "address"
        },
        {
          "internalType": "bytes32",
          "name": "neededRole",
          "type": "bytes32"
        }
      ],
      "name": "AccessControlUnauthorizedAccount",
      "type": "error"
    },
    {
      "inputs": [],
      "name": "EnforcedPause",
      "type": "error"
    },
    {
      "inputs": [],
      "name": "ExpectedPause",
      "type": "error"
    },
    {
      "inputs": [],
      "name": "InvalidInitialization",
      "type": "error"
    },
    {
      "inputs": [],
      "name": "NotInitializing",
      "type": "error"
    },
    {
      "inputs": [
        {
          "internalType": "address",
          "name": "token",
          "type": "address"
        }
      ],
      "name": "SafeERC20FailedOperation",
      "type": "error"
    },
    {
      "anonymous": false,
      "inputs": [
        {
          "indexed": false,
          "internalType": "address",
          "name": "user",
          "type": "address"
        },
        {
          "indexed": false,
          "internalType": "address",
          "name": "account",
          "type": "address"
        },
        {
          "indexed": false,
          "internalType": "string",
          "name": "name",
          "type": "string"
        }
      ],
      "name": "AddAccount",
      "type": "event"
    },
    {
      "anonymous": false,
      "inputs": [
        {
          "indexed": false,
          "internalType": "address",
          "name": "user",
          "type": "address"
        },
        {
          "indexed": false,
          "internalType": "address",
          "name": "account",
          "type": "address"
        },
        {
          "indexed": false,
          "internalType": "uint256",
          "name": "amount",
          "type": "uint256"
        }
      ],
      "name": "AllocateForAccount",
      "type": "event"
    },
    {
      "anonymous": false,
      "inputs": [
        {
          "indexed": false,
          "internalType": "address",
          "name": "user",
          "type": "address"
        },
        {
          "indexed": false,
          "internalType": "address",
          "name": "account",
          "type": "address"
        },
        {
          "indexed": false,
          "internalType": "bytes",
          "name": "_callData",
          "type": "bytes"
        },
        {
          "indexed": false,
          "internalType": "bool",
          "name": "_success",
          "type": "bool"
        },
        {
          "indexed": false,
          "internalType": "bytes",
          "name": "_resultData",
          "type": "bytes"
        }
      ],
      "name": "Call",
      "type": "event"
    },
    {
      "anonymous": false,
      "inputs": [
        {
          "indexed": false,
          "internalType": "address",
          "name": "account",
          "type": "address"
        },
        {
          "indexed": false,
          "internalType": "address",
          "name": "target",
          "type": "address"
        },
        {
          "indexed": false,
          "internalType": "bytes4",
          "name": "selector",
          "type": "bytes4"
        },
        {
          "indexed": false,
          "internalType": "bool",
          "name": "state",
          "type": "bool"
        }
      ],
      "name": "DelegateAccess",
      "type": "event"
    },
    {
      "anonymous": false,
      "inputs": [
        {
          "indexed": false,
          "internalType": "address",
          "name": "account",
          "type": "address"
        },
        {
          "indexed": false,
          "internalType": "address",
          "name": "target",
          "type": "address"
        },
        {
          "indexed": false,
          "internalType": "bytes4[]",
          "name": "selector",
          "type": "bytes4[]"
        },
        {
          "indexed": false,
          "internalType": "bool",
          "name": "state",
          "type": "bool"
        }
      ],
      "name": "DelegateAccesses",
      "type": "event"
    },
    {
      "anonymous": false,
      "inputs": [
        {
          "indexed": false,
          "internalType": "address",
          "name": "sender",
          "type": "address"
        },
        {
          "indexed": false,
          "internalType": "address",
          "name": "contractAddress",
          "type": "address"
        }
      ],
      "name": "DeployContract",
      "type": "event"
    },
    {
      "anonymous": false,
      "inputs": [
        {
          "indexed": false,
          "internalType": "address",
          "name": "user",
          "type": "address"
        },
        {
          "indexed": false,
          "internalType": "address",
          "name": "account",
          "type": "address"
        },
        {
          "indexed": false,
          "internalType": "uint256",
          "name": "amount",
          "type": "uint256"
        }
      ],
      "name": "DepositForAccount",
      "type": "event"
    },
    {
      "anonymous": false,
      "inputs": [
        {
          "indexed": false,
          "internalType": "address",
          "name": "user",
          "type": "address"
        },
        {
          "indexed": false,
          "internalType": "address",
          "name": "account",
          "type": "address"
        },
        {
          "indexed": false,
          "internalType": "string",
          "name": "newName",
          "type": "string"
        }
      ],
      "name": "EditAccountName",
      "type": "event"
    },
    {
      "anonymous": false,
      "inputs": [
        {
          "indexed": false,
          "internalType": "uint64",
          "name": "version",
          "type": "uint64"
        }
      ],
      "name": "Initialized",
      "type": "event"
    },
    {
      "anonymous": false,
      "inputs": [
        {
          "indexed": false,
          "internalType": "address",
          "name": "account",
          "type": "address"
        }
      ],
      "name": "Paused",
      "type": "event"
    },
    {
      "anonymous": false,
      "inputs": [
        {
          "indexed": false,
          "internalType": "address",
          "name": "account",
          "type": "address"
        },
        {
          "indexed": false,
          "internalType": "address",
          "name": "target",
          "type": "address"
        },
        {
          "indexed": false,
          "internalType": "bytes4[]",
          "name": "selector",
          "type": "bytes4[]"
        }
      ],
      "name": "ProposeToRevokeAccesses",
      "type": "event"
    },
    {
      "anonymous": false,
      "inputs": [
        {
          "indexed": true,
          "internalType": "bytes32",
          "name": "role",
          "type": "bytes32"
        },
        {
          "indexed": true,
          "internalType": "bytes32",
          "name": "previousAdminRole",
          "type": "bytes32"
        },
        {
          "indexed": true,
          "internalType": "bytes32",
          "name": "newAdminRole",
          "type": "bytes32"
        }
      ],
      "name": "RoleAdminChanged",
      "type": "event"
    },
    {
      "anonymous": false,
      "inputs": [
        {
          "indexed": true,
          "internalType": "bytes32",
          "name": "role",
          "type": "bytes32"
        },
        {
          "indexed": true,
          "internalType": "address",
          "name": "account",
          "type": "address"
        },
        {
          "indexed": true,
          "internalType": "address",
          "name": "sender",
          "type": "address"
        }
      ],
      "name": "RoleGranted",
      "type": "event"
    },
    {
      "anonymous": false,
      "inputs": [
        {
          "indexed": true,
          "internalType": "bytes32",
          "name": "role",
          "type": "bytes32"
        },
        {
          "indexed": true,
          "internalType": "address",
          "name": "account",
          "type": "address"
        },
        {
          "indexed": true,
          "internalType": "address",
          "name": "sender",
          "type": "address"
        }
      ],
      "name": "RoleRevoked",
      "type": "event"
    },
    {
      "anonymous": false,
      "inputs": [
        {
          "indexed": false,
          "internalType": "bytes",
          "name": "oldAddress",
          "type": "bytes"
        },
        {
          "indexed": false,
          "internalType": "bytes",
          "name": "newAddress",
          "type": "bytes"
        }
      ],
      "name": "SetAccountImplementation",
      "type": "event"
    },
    {
      "anonymous": false,
      "inputs": [
        {
          "indexed": false,
          "internalType": "address",
          "name": "oldAccountAdmin",
          "type": "address"
        },
        {
          "indexed": false,
          "internalType": "address",
          "name": "newAccountAdmin",
          "type": "address"
        }
      ],
      "name": "SetAccountsAdmin",
      "type": "event"
    },
    {
      "anonymous": false,
      "inputs": [
        {
          "indexed": false,
          "internalType": "address",
          "name": "oldApiExecutor",
          "type": "address"
        },
        {
          "indexed": false,
          "internalType": "address",
          "name": "newApiExecutor",
          "type": "address"
        }
      ],
      "name": "SetApiExecutor",
      "type": "event"
    },
    {
      "anonymous": false,
      "inputs": [
        {
          "indexed": false,
          "internalType": "uint256",
          "name": "oldCooldown",
          "type": "uint256"
        },
        {
          "indexed": false,
          "internalType": "uint256",
          "name": "newCooldown",
          "type": "uint256"
        }
      ],
      "name": "SetRevokeCooldown",
      "type": "event"
    },
    {
      "anonymous": false,
      "inputs": [
        {
          "indexed": false,
          "internalType": "address",
          "name": "oldAddress",
          "type": "address"
        },
        {
          "indexed": false,
          "internalType": "address",
          "name": "newAddress",
          "type": "address"
        }
      ],
      "name": "SetSymmioAddress",
      "type": "event"
    },
    {
      "anonymous": false,
      "inputs": [
        {
          "indexed": false,
          "internalType": "address",
          "name": "account",
          "type": "address"
        }
      ],
      "name": "Unpaused",
      "type": "event"
    },
    {
      "anonymous": false,
      "inputs": [
        {
          "indexed": false,
          "internalType": "address",
          "name": "user",
          "type": "address"
        },
        {
          "indexed": false,
          "internalType": "address",
          "name": "account",
          "type": "address"
        },
        {
          "indexed": false,
          "internalType": "uint256",
          "name": "amount",
          "type": "uint256"
        }
      ],
      "name": "WithdrawFromAccount",
      "type": "event"
    },
    {
      "inputs": [],
      "name": "DEFAULT_ADMIN_ROLE",
      "outputs": [
        {
          "internalType": "bytes32",
          "name": "",
          "type": "bytes32"
        }
      ],
      "stateMutability": "view",
      "type": "function"
    },
    {
      "inputs": [],
      "name": "PAUSER_ROLE",
      "outputs": [
        {
          "internalType": "bytes32",
          "name": "",
          "type": "bytes32"
        }
      ],
      "stateMutability": "view",
      "type": "function"
    },
    {
      "inputs": [],
      "name": "SETTER_ROLE",
      "outputs": [
        {
          "internalType": "bytes32",
          "name": "",
          "type": "bytes32"
        }
      ],
      "stateMutability": "view",
      "type": "function"
    },
    {
      "inputs": [],
      "name": "UNPAUSER_ROLE",
      "outputs": [
        {
          "internalType": "bytes32",
          "name": "",
          "type": "bytes32"
        }
      ],
      "stateMutability": "view",
      "type": "function"
    },
    {
      "inputs": [
        {
          "internalType": "address",
          "name": "account",
          "type": "address"
        },
        {
          "internalType": "bytes[]",
          "name": "_callDatas",
          "type": "bytes[]"
        }
      ],
      "name": "_call",
      "outputs": [],
      "stateMutability": "nonpayable",
      "type": "function"
    },
    {
      "inputs": [],
      "name": "accountImplementation",
      "outputs": [
        {
          "internalType": "bytes",
          "name": "",
          "type": "bytes"
        }
      ],
      "stateMutability": "view",
      "type": "function"
    },
    {
      "inputs": [
        {
          "internalType": "address",
          "name": "",
          "type": "address"
        },
        {
          "internalType": "uint256",
          "name": "",
          "type": "uint256"
        }
      ],
      "name": "accounts",
      "outputs": [
        {
          "internalType": "address",
          "name": "accountAddress",
          "type": "address"
        },
        {
          "internalType": "string",
          "name": "name",
          "type": "string"
        }
      ],
      "stateMutability": "view",
      "type": "function"
    },
    {
      "inputs": [],
      "name": "accountsAdmin",
      "outputs": [
        {
          "internalType": "address",
          "name": "",
          "type": "address"
        }
      ],
      "stateMutability": "view",
      "type": "function"
    },
    {
      "inputs": [
        {
          "internalType": "string",
          "name": "name",
          "type": "string"
        }
      ],
      "name": "addAccount",
      "outputs": [],
      "stateMutability": "nonpayable",
      "type": "function"
    },
    {
      "inputs": [
        {
          "internalType": "string",
          "name": "name",
          "type": "string"
        },
        {
          "internalType": "address",
          "name": "target",
          "type": "address"
        },
        {
          "internalType": "bytes4[]",
          "name": "selector",
          "type": "bytes4[]"
        },
        {
          "internalType": "bytes[]",
          "name": "_callDatas",
          "type": "bytes[]"
        }
      ],
      "name": "addAccountDelegateAccessAndCall",
      "outputs": [
        {
          "internalType": "address",
          "name": "account",
          "type": "address"
        }
      ],
      "stateMutability": "nonpayable",
      "type": "function"
    },
    {
      "inputs": [],
      "name": "apiExecutor",
      "outputs": [
        {
          "internalType": "address",
          "name": "",
          "type": "address"
        }
      ],
      "stateMutability": "view",
      "type": "function"
    },
    {
      "inputs": [
        {
          "internalType": "address",
          "name": "account",
          "type": "address"
        },
        {
          "internalType": "address",
          "name": "target",
          "type": "address"
        },
        {
          "internalType": "bytes4",
          "name": "selector",
          "type": "bytes4"
        },
        {
          "internalType": "bool",
          "name": "state",
          "type": "bool"
        }
      ],
      "name": "delegateAccess",
      "outputs": [],
      "stateMutability": "nonpayable",
      "type": "function"
    },
    {
      "inputs": [
        {
          "internalType": "address",
          "name": "account",
          "type": "address"
        },
        {
          "internalType": "address",
          "name": "target",
          "type": "address"
        },
        {
          "internalType": "bytes4[]",
          "name": "selector",
          "type": "bytes4[]"
        },
        {
          "internalType": "bool",
          "name": "state",
          "type": "bool"
        }
      ],
      "name": "delegateAccesses",
      "outputs": [],
      "stateMutability": "nonpayable",
      "type": "function"
    },
    {
      "inputs": [
        {
          "internalType": "address",
          "name": "",
          "type": "address"
        },
        {
          "internalType": "address",
          "name": "",
          "type": "address"
        },
        {
          "internalType": "bytes4",
          "name": "",
          "type": "bytes4"
        }
      ],
      "name": "delegatedAccesses",
      "outputs": [
        {
          "internalType": "bool",
          "name": "",
          "type": "bool"
        }
      ],
      "stateMutability": "view",
      "type": "function"
    },
    {
      "inputs": [
        {
          "internalType": "address",
          "name": "account",
          "type": "address"
        },
        {
          "internalType": "uint256",
          "name": "amount",
          "type": "uint256"
        }
      ],
      "name": "depositAndAllocateForAccount",
      "outputs": [],
      "stateMutability": "nonpayable",
      "type": "function"
    },
    {
      "inputs": [
        {
          "internalType": "address",
          "name": "account",
          "type": "address"
        },
        {
          "internalType": "uint256",
          "name": "amount",
          "type": "uint256"
        }
      ],
      "name": "depositForAccount",
      "outputs": [],
      "stateMutability": "nonpayable",
      "type": "function"
    },
    {
      "inputs": [
        {
          "internalType": "address",
          "name": "accountAddress",
          "type": "address"
        },
        {
          "internalType": "string",
          "name": "name",
          "type": "string"
        }
      ],
      "name": "editAccountName",
      "outputs": [],
      "stateMutability": "nonpayable",
      "type": "function"
    },
    {
      "inputs": [
        {
          "internalType": "address",
          "name": "user",
          "type": "address"
        },
        {
          "internalType": "uint256",
          "name": "start",
          "type": "uint256"
        },
        {
          "internalType": "uint256",
          "name": "size",
          "type": "uint256"
        }
      ],
      "name": "getAccounts",
      "outputs": [
        {
          "components": [
            {
              "internalType": "address",
              "name": "accountAddress",
              "type": "address"
            },
            {
              "internalType": "string",
              "name": "name",
              "type": "string"
            }
          ],
          "internalType": "struct IMultiAccount.Account[]",
          "name": "",
          "type": "tuple[]"
        }
      ],
      "stateMutability": "view",
      "type": "function"
    },
    {
      "inputs": [
        {
          "internalType": "address",
          "name": "user",
          "type": "address"
        }
      ],
      "name": "getAccountsLength",
      "outputs": [
        {
          "internalType": "uint256",
          "name": "",
          "type": "uint256"
        }
      ],
      "stateMutability": "view",
      "type": "function"
    },
    {
      "inputs": [
        {
          "internalType": "bytes32",
          "name": "role",
          "type": "bytes32"
        }
      ],
      "name": "getRoleAdmin",
      "outputs": [
        {
          "internalType": "bytes32",
          "name": "",
          "type": "bytes32"
        }
      ],
      "stateMutability": "view",
      "type": "function"
    },
    {
      "inputs": [
        {
          "internalType": "bytes32",
          "name": "role",
          "type": "bytes32"
        },
        {
          "internalType": "address",
          "name": "account",
          "type": "address"
        }
      ],
      "name": "grantRole",
      "outputs": [],
      "stateMutability": "nonpayable",
      "type": "function"
    },
    {
      "inputs": [
        {
          "internalType": "bytes32",
          "name": "role",
          "type": "bytes32"
        },
        {
          "internalType": "address",
          "name": "account",
          "type": "address"
        }
      ],
      "name": "hasRole",
      "outputs": [
        {
          "internalType": "bool",
          "name": "",
          "type": "bool"
        }
      ],
      "stateMutability": "view",
      "type": "function"
    },
    {
      "inputs": [
        {
          "internalType": "address",
          "name": "",
          "type": "address"
        }
      ],
      "name": "indexOfAccount",
      "outputs": [
        {
          "internalType": "uint256",
          "name": "",
          "type": "uint256"
        }
      ],
      "stateMutability": "view",
      "type": "function"
    },
    {
      "inputs": [
        {
          "internalType": "address",
          "name": "admin",
          "type": "address"
        },
        {
          "internalType": "address",
          "name": "symmioAddress_",
          "type": "address"
        },
        {
          "internalType": "bytes",
          "name": "accountImplementation_",
          "type": "bytes"
        }
      ],
      "name": "initialize",
      "outputs": [],
      "stateMutability": "nonpayable",
      "type": "function"
    },
    {
      "inputs": [
        {
          "internalType": "address",
          "name": "",
          "type": "address"
        }
      ],
      "name": "owners",
      "outputs": [
        {
          "internalType": "address",
          "name": "",
          "type": "address"
        }
      ],
      "stateMutability": "view",
      "type": "function"
    },
    {
      "inputs": [],
      "name": "pause",
      "outputs": [],
      "stateMutability": "nonpayable",
      "type": "function"
    },
    {
      "inputs": [],
      "name": "paused",
      "outputs": [
        {
          "internalType": "bool",
          "name": "",
          "type": "bool"
        }
      ],
      "stateMutability": "view",
      "type": "function"
    },
    {
      "inputs": [
        {
          "internalType": "address",
          "name": "account",
          "type": "address"
        },
        {
          "internalType": "address",
          "name": "target",
          "type": "address"
        },
        {
          "internalType": "bytes4[]",
          "name": "selector",
          "type": "bytes4[]"
        }
      ],
      "name": "proposeToRevokeAccesses",
      "outputs": [],
      "stateMutability": "nonpayable",
      "type": "function"
    },
    {
      "inputs": [
        {
          "internalType": "bytes32",
          "name": "role",
          "type": "bytes32"
        },
        {
          "internalType": "address",
          "name": "callerConfirmation",
          "type": "address"
        }
      ],
      "name": "renounceRole",
      "outputs": [],
      "stateMutability": "nonpayable",
      "type": "function"
    },
    {
      "inputs": [
        {
          "internalType": "address",
          "name": "account",
          "type": "address"
        },
        {
          "internalType": "address",
          "name": "target",
          "type": "address"
        },
        {
          "internalType": "bytes4[]",
          "name": "selector",
          "type": "bytes4[]"
        }
      ],
      "name": "revokeAccesses",
      "outputs": [],
      "stateMutability": "nonpayable",
      "type": "function"
    },
    {
      "inputs": [],
      "name": "revokeCooldown",
      "outputs": [
        {
          "internalType": "uint256",
          "name": "",
          "type": "uint256"
        }
      ],
      "stateMutability": "view",
      "type": "function"
    },
    {
      "inputs": [
        {
          "internalType": "address",
          "name": "",
          "type": "address"
        },
        {
          "internalType": "address",
          "name": "",
          "type": "address"
        },
        {
          "internalType": "bytes4",
          "name": "",
          "type": "bytes4"
        }
      ],
      "name": "revokeProposalTimestamp",
      "outputs": [
        {
          "internalType": "uint256",
          "name": "",
          "type": "uint256"
        }
      ],
      "stateMutability": "view",
      "type": "function"
    },
    {
      "inputs": [
        {
          "internalType": "bytes32",
          "name": "role",
          "type": "bytes32"
        },
        {
          "internalType": "address",
          "name": "account",
          "type": "address"
        }
      ],
      "name": "revokeRole",
      "outputs": [],
      "stateMutability": "nonpayable",
      "type": "function"
    },
    {
      "inputs": [],
      "name": "saltCounter",
      "outputs": [
        {
          "internalType": "uint256",
          "name": "",
          "type": "uint256"
        }
      ],
      "stateMutability": "view",
      "type": "function"
    },
    {
      "inputs": [
        {
          "internalType": "bytes",
          "name": "accountImplementation_",
          "type": "bytes"
        }
      ],
      "name": "setAccountImplementation",
      "outputs": [],
      "stateMutability": "nonpayable",
      "type": "function"
    },
    {
      "inputs": [
        {
          "internalType": "address",
          "name": "accountsAdmin_",
          "type": "address"
        }
      ],
      "name": "setAccountsAdmin",
      "outputs": [],
      "stateMutability": "nonpayable",
      "type": "function"
    },
    {
      "inputs": [
        {
          "internalType": "address",
          "name": "apiExecutor_",
          "type": "address"
        }
      ],
      "name": "setApiExecutor",
      "outputs": [],
      "stateMutability": "nonpayable",
      "type": "function"
    },
    {
      "inputs": [
        {
          "internalType": "uint256",
          "name": "cooldown",
          "type": "uint256"
        }
      ],
      "name": "setRevokeCooldown",
      "outputs": [],
      "stateMutability": "nonpayable",
      "type": "function"
    },
    {
      "inputs": [
        {
          "internalType": "address",
          "name": "addr",
          "type": "address"
        }
      ],
      "name": "setSymmioAddress",
      "outputs": [],
      "stateMutability": "nonpayable",
      "type": "function"
    },
    {
      "inputs": [
        {
          "internalType": "bytes4",
          "name": "interfaceId",
          "type": "bytes4"
        }
      ],
      "name": "supportsInterface",
      "outputs": [
        {
          "internalType": "bool",
          "name": "",
          "type": "bool"
        }
      ],
      "stateMutability": "view",
      "type": "function"
    },
    {
      "inputs": [],
      "name": "symmioAddress",
      "outputs": [
        {
          "internalType": "address",
          "name": "",
          "type": "address"
        }
      ],
      "stateMutability": "view",
      "type": "function"
    },
    {
      "inputs": [],
      "name": "unpause",
      "outputs": [],
      "stateMutability": "nonpayable",
      "type": "function"
    },
    {
      "inputs": [
        {
          "internalType": "address",
          "name": "account",
          "type": "address"
        },
        {
          "internalType": "uint256",
          "name": "amount",
          "type": "uint256"
        }
      ],
      "name": "withdrawFromAccount",
      "outputs": [],
      "stateMutability": "nonpayable",
      "type": "function"
    },
    {
      "inputs": [
        {
          "internalType": "address",
          "name": "account",
          "type": "address"
        },
        {
          "internalType": "uint256",
          "name": "amount",
          "type": "uint256"
        },
        {
          "internalType": "address",
          "name": "destination",
          "type": "address"
        }
      ],
      "name": "withdrawFromAccountTo",
      "outputs": [],
      "stateMutability": "nonpayable",
      "type": "function"
    }
  ],
  "bytecode": "0x6080604052348015600f57600080fd5b506016601a565b60ca565b7ff0c57e16840df040f15088dc2f81fe391c3923bec73e23a9662efc9c229c6a00805468010000000000000000900460ff161560695760405163f92ee8a960e01b815260040160405180910390fd5b80546001600160401b039081161460c75780546001600160401b0319166001600160401b0390811782556040519081527fc7f505b2f371ae2175ee4913f4499e1f2633a7b5936321eed1cdaeb6115181d29060200160405180910390a15b50565b613faf806100d96000396000f3fe608060405234801561001057600080fd5b50600436106102f45760003560e01c80638b5afd2b11610191578063ab3ef49b116100e3578063d547741f11610097578063f462e68211610071578063f462e6821461075e578063f742027614610767578063fb1bb9de1461077a57600080fd5b8063d547741f14610711578063d9c2337c14610724578063e63ab1e91461073757600080fd5b8063bd367d8e116100c8578063bd367d8e146106d8578063c1102214146106eb578063cf7a1d77146106fe57600080fd5b8063ab3ef49b14610691578063b9c9b3f2146106a457600080fd5b806395d4609d11610145578063a2011b3f1161011f578063a2011b3f1461064f578063a217fddf14610676578063a58c99d71461067e57600080fd5b806395d4609d146105f55780639b0c03de14610626578063a04c68091461064657600080fd5b806391d148541161017657806391d148541461056a57806394aee422146105c257806395c7d0ec146105d557600080fd5b80638b5afd2b1461052e5780639181b74b1461055757600080fd5b806336568abe1161024a5780636a29dfbf116101fe57806382a7e533116101d857806382a7e533146104f25780638456cb5914610505578063875245811461050d57600080fd5b80636a29dfbf146104b95780637278b28f146104cc578063807bbbad146104df57600080fd5b80633f4ba83a1161022f5780633f4ba83a146104745780634ebabea11461047c5780635c975abb1461048f57600080fd5b806336568abe1461044e57806337f93b081461046157600080fd5b8063248a9ca3116102ac5780632f2ff15d116102865780632f2ff15d1461041557806331e69d2d14610428578063342fcda91461043b57600080fd5b8063248a9ca31461039f578063288409bb146103ef5780632ad26a041461040257600080fd5b8063022914a7116102dd578063022914a714610336578063107050461461037757806311464fbe1461038a57600080fd5b806301569e3a146102f957806301ffc9a71461030e575b600080fd5b61030c6103073660046131a3565b6107a1565b005b61032161031c3660046131e4565b610842565b60405190151581526020015b60405180910390f35b61035f6103443660046131a3565b6002602052600090815260409020546001600160a01b031681565b6040516001600160a01b03909116815260200161032d565b61030c6103853660046131a3565b6108ab565b61039261092d565b60405161032d919061324f565b6103e16103ad366004613262565b60009081527f02dd7bc7dec4dceedda775e58dd541e08a116c6c53815c0bd028192f7b626800602052604090206001015490565b60405190815260200161032d565b61030c6103fd3660046131a3565b6109bb565b61030c610410366004613343565b610a3d565b61030c610423366004613380565b610b4f565b61030c6104363660046133b0565b610b99565b61030c6104493660046133b0565b610e57565b61030c61045c366004613380565b611057565b60035461035f906001600160a01b031681565b61030c6110a8565b61030c61048a366004613473565b6110dd565b7fcd5ed15c6e187e77e9aee88184c21f4f2182ab5827cb3b7e07fbedcd63f033005460ff16610321565b61030c6104c73660046134e8565b611327565b60045461035f906001600160a01b031681565b600a5461035f906001600160a01b031681565b61030c610500366004613343565b6114d8565b61030c611548565b61052061051b3660046133b0565b61157a565b60405161032d92919061354a565b6103e161053c3660046131a3565b6001600160a01b031660009081526020819052604090205490565b61035f6105653660046135ef565b61164a565b610321610578366004613380565b60009182527f02dd7bc7dec4dceedda775e58dd541e08a116c6c53815c0bd028192f7b626800602090815260408084206001600160a01b0393909316845291905290205460ff1690565b61030c6105d03660046133b0565b6118ef565b6105e86105e3366004613696565b611a39565b60405161032d91906136cb565b6103e161060336600461376e565b600960209081526000938452604080852082529284528284209052825290205481565b6103e16106343660046131a3565b60016020526000908152604090205481565b6103e160055481565b6103e17f61c92169ef077349011ff0b1383c894d86c5f0b41d986366b58a6cf31e93beda81565b6103e1600081565b61030c61068c3660046134e8565b611c2f565b61030c61069f3660046137b5565b61202c565b6103216106b236600461376e565b600760209081526000938452604080852082529284528284209052825290205460ff1681565b61030c6106e63660046137f7565b612176565b61030c6106f9366004613847565b61230b565b61030c61070c366004613896565b61251e565b61030c61071f366004613380565b61273e565b61030c6107323660046138ee565b612782565b6103e17f65d7a28e3265b37a6474929f336521b332c1681b933f6cb9f3376673440d862a81565b6103e160085481565b61030c610775366004613262565b612823565b6103e17f427da25fe773164f88948d3e215c94b6554e2ed5e5f203a821c9f2f6131cf75a81565b7f61c92169ef077349011ff0b1383c894d86c5f0b41d986366b58a6cf31e93beda6107cb8161288f565b600454604080516001600160a01b03928316815291841660208301527ff78ccdf5924090b2ab6627ac5da4ec5affed73d47c6bc6c8a4620a0d5ed57bc8910160405180910390a1506004805473ffffffffffffffffffffffffffffffffffffffff19166001600160a01b0392909216919091179055565b60006001600160e01b031982167f7965db0b0000000000000000000000000000000000000000000000000000000014806108a557507f01ffc9a7000000000000000000000000000000000000000000000000000000006001600160e01b03198316145b92915050565b60006108b68161288f565b600a54604080516001600160a01b03928316815291841660208301527f8a5ed057955681148f2309414702f1942a9849c5d2e0df34390b8f08032e3b3a910160405180910390a150600a805473ffffffffffffffffffffffffffffffffffffffff19166001600160a01b0392909216919091179055565b6006805461093a90613934565b80601f016020809104026020016040519081016040528092919081815260200182805461096690613934565b80156109b35780601f10610988576101008083540402835291602001916109b3565b820191906000526020600020905b81548152906001019060200180831161099657829003601f168201915b505050505081565b60006109c68161288f565b600354604080516001600160a01b03928316815291841660208301527fc0c0a485d5a9547b687095c9652fe0811abc1379aa253cc64a91be08804b8956910160405180910390a1506003805473ffffffffffffffffffffffffffffffffffffffff19166001600160a01b0392909216919091179055565b610a45612899565b6000610a4f6128f7565b3360009081526020818152604080832080546001600160a01b03868116808752600180875285882084905587875285518087019096529085528486018a81528184018555938752949095208351600290920201805473ffffffffffffffffffffffffffffffffffffffff191691909516178455519394509290820190610ad590826139b5565b5050506001600160a01b03811660009081526002602052604090819020805473ffffffffffffffffffffffffffffffffffffffff19163390811790915590517f1deb86e124d1a5f3b49977292b48e989b984bcd8944cfb14d63c8880482f2cff91610b439184908690613a74565b60405180910390a15050565b60008281527f02dd7bc7dec4dceedda775e58dd541e08a116c6c53815c0bd028192f7b6268006020526040902060010154610b898161288f565b610b9383836129d5565b50505050565b610ba1612899565b6000600460009054906101000a90046001600160a01b03166001600160a01b0316635c1548fb6040518163ffffffff1660e01b8152600401602060405180830381865afa158015610bf6573d6000803e3d6000fd5b505050506040513d601f19601f82011682018060405250810190610c1a9190613aae565b9050610c316001600160a01b038216333085612aa4565b600454610c4b906001600160a01b03838116911684612b0b565b600480546040517f2f4f21e20000000000000000000000000000000000000000000000000000000081526001600160a01b038681169382019390935260248101859052911690632f4f21e290604401600060405180830381600087803b158015610cb457600080fd5b505af1158015610cc8573d6000803e3d6000fd5b505050506000816001600160a01b031663313ce5676040518163ffffffff1660e01b8152600401602060405180830381865afa158015610d0c573d6000803e3d6000fd5b505050506040513d601f19601f82011682018060405250810190610d309190613acb565b610d3b90600a613beb565b610d4d84670de0b6b3a7640000613bfa565b610d579190613c11565b9050600081604051602401610d6e91815260200190565b60408051601f198184030181529190526020810180516001600160e01b03167f90ca796b000000000000000000000000000000000000000000000000000000001790529050610dbd8582612bae565b604080513381526001600160a01b03871660208201529081018590527fb92f7c65176e3a873589352927ba42330e95085f34ab1a9721f2135b94a518839060600160405180910390a1604080513381526001600160a01b03871660208201529081018390527f13b84d799b5b8b235eafe52313197bb3dbf3d5c36c2ac0b62e4c45cc4d3a958e906060015b60405180910390a15050505050565b6001600160a01b0380831660009081526002602052604090205483913391168114610edd5760405162461bcd60e51b815260206004820152602b60248201527f4d756c74694163636f756e743a2053656e6465722069736e2774206f776e657260448201526a081bd9881858d8dbdd5b9d60aa1b60648201526084015b60405180910390fd5b610ee5612899565b6000600460009054906101000a90046001600160a01b03166001600160a01b0316635c1548fb6040518163ffffffff1660e01b8152600401602060405180830381865afa158015610f3a573d6000803e3d6000fd5b505050506040513d601f19601f82011682018060405250810190610f5e9190613aae565b9050610f756001600160a01b038216333087612aa4565b600454610f8f906001600160a01b03838116911686612b0b565b600480546040517f2f4f21e20000000000000000000000000000000000000000000000000000000081526001600160a01b038881169382019390935260248101879052911690632f4f21e290604401600060405180830381600087803b158015610ff857600080fd5b505af115801561100c573d6000803e3d6000fd5b5050604080513381526001600160a01b03891660208201529081018790527fb92f7c65176e3a873589352927ba42330e95085f34ab1a9721f2135b94a5188392506060019050610e48565b6001600160a01b0381163314611099576040517f6697b23200000000000000000000000000000000000000000000000000000000815260040160405180910390fd5b6110a38282612c74565b505050565b7f427da25fe773164f88948d3e215c94b6554e2ed5e5f203a821c9f2f6131cf75a6110d28161288f565b6110da612d1a565b50565b6001600160a01b038085166000908152600260205260409020548591339116811461115e5760405162461bcd60e51b815260206004820152602b60248201527f4d756c74694163636f756e743a2053656e6465722069736e2774206f776e657260448201526a081bd9881858d8dbdd5b9d60aa1b6064820152608401610ed4565b6001600160a01b03851633148015906111895750856001600160a01b0316856001600160a01b031614155b6111d55760405162461bcd60e51b815260206004820152601c60248201527f4d756c74694163636f756e743a20496e76616c696420746172676574000000006044820152606401610ed4565b60018315151461124d5760405162461bcd60e51b815260206004820152602960248201527f557365207265766f6b6520746f2066756e6374696f6e7320746f207265766f6b60448201527f65204163636573732e00000000000000000000000000000000000000000000006064820152608401610ed4565b83515b80156112e0576001600160a01b038088166000908152600760209081526040808320938a1683529290529081206001918761128b8486613c33565b8151811061129b5761129b613c46565b6020908102919091018101516001600160e01b0319168252810191909152604001600020805460ff1916911515919091179055806112d881613c5c565b915050611250565b507f41e2c91b7cd59c2d41cfac17496b166b244a4921d4a1c926b4a7132b6c66906e86868660016040516113179493929190613cb9565b60405180910390a1505050505050565b6001600160a01b03808416600090815260026020526040902054849133911681146113a85760405162461bcd60e51b815260206004820152602b60248201527f4d756c74694163636f756e743a2053656e6465722069736e2774206f776e657260448201526a081bd9881858d8dbdd5b9d60aa1b6064820152608401610ed4565b6001600160a01b03841633148015906113d35750846001600160a01b0316846001600160a01b031614155b61141f5760405162461bcd60e51b815260206004820152601c60248201527f4d756c74694163636f756e743a20496e76616c696420746172676574000000006044820152606401610ed4565b82515b80156114a4576001600160a01b038087166000908152600960209081526040808320938916835292905290812042918661145d600186613c33565b8151811061146d5761146d613c46565b6020908102919091018101516001600160e01b0319168252810191909152604001600020558061149c81613c5c565b915050611422565b507f64930ca7235077162dd09f78d211b233f0f505f794151b9ecfaa6680bf00ead6858585604051610e4893929190613cfd565b7f61c92169ef077349011ff0b1383c894d86c5f0b41d986366b58a6cf31e93beda6115028161288f565b7f4ec7166fdb5f155366ddacdab9af9c74d038015a7570252e40c6c82346308ad7600683604051611534929190613d2e565b60405180910390a160066110a383826139b5565b7f65d7a28e3265b37a6474929f336521b332c1681b933f6cb9f3376673440d862a6115728161288f565b6110da612d8c565b6000602052816000526040600020818154811061159657600080fd5b6000918252602090912060029091020180546001820180546001600160a01b0390921694509192506115c790613934565b80601f01602080910402602001604051908101604052809291908181526020018280546115f390613934565b80156116405780601f1061161557610100808354040283529160200191611640565b820191906000526020600020905b81548152906001019060200180831161162357829003601f168201915b5050505050905082565b60006116546128f7565b3360009081526020818152604080832080546001600160a01b03868116808752600180875285882084905587875285518087019096529085528486018d81528184018555938752949095208351600290920201805473ffffffffffffffffffffffffffffffffffffffff1916919095161784555193945092908201906116da90826139b5565b5050506001600160a01b03811660009081526002602052604090819020805473ffffffffffffffffffffffffffffffffffffffff19163390811790915590517f1deb86e124d1a5f3b49977292b48e989b984bcd8944cfb14d63c8880482f2cff916117489184908990613a74565b60405180910390a16001600160a01b038416331480159061177b5750806001600160a01b0316846001600160a01b031614155b6117c75760405162461bcd60e51b815260206004820152601c60248201527f4d756c74694163636f756e743a20696e76616c696420746172676574000000006044820152606401610ed4565b82515b801561185a576001600160a01b0380831660009081526007602090815260408083209389168352929052908120600191866118058486613c33565b8151811061181557611815613c46565b6020908102919091018101516001600160e01b0319168252810191909152604001600020805460ff19169115159190911790558061185281613c5c565b9150506117ca565b507f41e2c91b7cd59c2d41cfac17496b166b244a4921d4a1c926b4a7132b6c66906e81858560016040516118919493929190613cb9565b60405180910390a160005b82518160ff1610156118e6576000838260ff16815181106118bf576118bf613c46565b602002602001015190506118d38382612bae565b50806118de81613dc4565b91505061189c565b50949350505050565b6001600160a01b03808316600090815260026020526040902054839133911681146119705760405162461bcd60e51b815260206004820152602b60248201527f4d756c74694163636f756e743a2053656e6465722069736e2774206f776e657260448201526a081bd9881858d8dbdd5b9d60aa1b6064820152608401610ed4565b611978612899565b6001600160a01b03848116600081815260026020908152604091829020548251941660248501526044808501889052825180860390910181526064909401825283810180516001600160e01b03167f205c287800000000000000000000000000000000000000000000000000000000179052815133815290810192909252818101869052517f40e4447d271dea2a920b9669d305a3255d8783d59b016237e63b106f1c9dd5fa916060908290030190a1611a328582612bae565b5050505050565b6001600160a01b03831660009081526020819052604081205460609190611a61908590613c33565b8311611a6d5782611a91565b6001600160a01b038516600090815260208190526040902054611a91908590613c33565b905060008167ffffffffffffffff811115611aae57611aae61327b565b604051908082528060200260200182016040528015611af457816020015b604080518082019091526000815260606020820152815260200190600190039081611acc5790505b509050845b611b038387613de3565b811015611c25576001600160a01b0387166000908152602081905260409020805482908110611b3457611b34613c46565b60009182526020918290206040805180820190915260029092020180546001600160a01b031682526001810180549293919291840191611b7390613934565b80601f0160208091040260200160405190810160405280929190818152602001828054611b9f90613934565b8015611bec5780601f10611bc157610100808354040283529160200191611bec565b820191906000526020600020905b815481529060010190602001808311611bcf57829003601f168201915b505050505081525050828783611c029190613c33565b81518110611c1257611c12613c46565b6020908102919091010152600101611af9565b5095945050505050565b6001600160a01b0380841660009081526002602052604090205484913391168114611cb05760405162461bcd60e51b815260206004820152602b60248201527f4d756c74694163636f756e743a2053656e6465722069736e2774206f776e657260448201526a081bd9881858d8dbdd5b9d60aa1b6064820152608401610ed4565b6001600160a01b0384163314801590611cdb5750846001600160a01b0316846001600160a01b031614155b611d275760405162461bcd60e51b815260206004820152601c60248201527f4d756c74694163636f756e743a20496e76616c696420746172676574000000006044820152606401610ed4565b82515b8015611ff5576001600160a01b03808716600090815260096020908152604080832093891683529290529081209085611d64600185613c33565b81518110611d7457611d74613c46565b60200260200101516001600160e01b0319166001600160e01b031916815260200190815260200160002054600003611e145760405162461bcd60e51b815260206004820152602860248201527f4d756c74694163636f756e743a205265766f6b6520616363657373206e6f742060448201527f70726f706f7365640000000000000000000000000000000000000000000000006064820152608401610ed4565b6008546001600160a01b038088166000908152600960209081526040808320938a16835292905290812042929187611e4d600187613c33565b81518110611e5d57611e5d613c46565b60200260200101516001600160e01b0319166001600160e01b031916815260200190815260200160002054611e929190613de3565b1115611f065760405162461bcd60e51b815260206004820152602260248201527f4d756c74694163636f756e743a20436f6f6c646f776e206e6f7420726561636860448201527f65640000000000000000000000000000000000000000000000000000000000006064820152608401610ed4565b6001600160a01b03808716600090815260076020908152604080832093891683529290529081208186611f3a600186613c33565b81518110611f4a57611f4a613c46565b6020908102919091018101516001600160e01b03191682528181019290925260409081016000908120805460ff1916941515949094179093556001600160a01b03898116845260098352818420908916845290915281208186611fae600186613c33565b81518110611fbe57611fbe613c46565b6020908102919091018101516001600160e01b03191682528101919091526040016000205580611fed81613c5c565b915050611d2a565b507f41e2c91b7cd59c2d41cfac17496b166b244a4921d4a1c926b4a7132b6c66906e8585856000604051610e489493929190613cb9565b6001600160a01b03808416600090815260026020526040902054849133911681146120ad5760405162461bcd60e51b815260206004820152602b60248201527f4d756c74694163636f756e743a2053656e6465722069736e2774206f776e657260448201526a081bd9881858d8dbdd5b9d60aa1b6064820152608401610ed4565b6120b5612899565b6040516001600160a01b03841660248201526044810185905260009060640160408051601f19818403018152918152602080830180516001600160e01b03167f205c28780000000000000000000000000000000000000000000000000000000017905281513381526001600160a01b038a16918101919091529081018790529091507f40e4447d271dea2a920b9669d305a3255d8783d59b016237e63b106f1c9dd5fa9060600160405180910390a161216e8682612bae565b505050505050565b61217e612899565b6001600160a01b038281166000908152600260205260408120549091163314905b82518160ff161015610b93576000838260ff16815181106121c2576121c2613c46565b60200260200101519050821580156121e55750600a546001600160a01b03163314155b156122ee5760048151101561223c5760405162461bcd60e51b815260206004820152601f60248201527f4d756c74694163636f756e743a20496e76616c69642063616c6c2064617461006044820152606401610ed4565b6020818101516001600160a01b038716600090815260078352604080822033835284528082206001600160e01b031984168352909352919091205460ff166122ec5760405162461bcd60e51b815260206004820152602160248201527f4d756c74694163636f756e743a20556e617574686f72697a656420616363657360448201527f73000000000000000000000000000000000000000000000000000000000000006064820152608401610ed4565b505b6122f88582612bae565b508061230381613dc4565b91505061219f565b6001600160a01b038085166000908152600260205260409020548591339116811461238c5760405162461bcd60e51b815260206004820152602b60248201527f4d756c74694163636f756e743a2053656e6465722069736e2774206f776e657260448201526a081bd9881858d8dbdd5b9d60aa1b6064820152608401610ed4565b6001600160a01b03851633148015906123b75750856001600160a01b0316856001600160a01b031614155b6124035760405162461bcd60e51b815260206004820152601c60248201527f4d756c74694163636f756e743a20496e76616c696420746172676574000000006044820152606401610ed4565b60018315151461247b5760405162461bcd60e51b815260206004820152602960248201527f557365207265766f6b6520746f2066756e6374696f6e7320746f207265766f6b60448201527f65204163636573732e00000000000000000000000000000000000000000000006064820152608401610ed4565b604080516001600160a01b038881168252871660208201526001600160e01b03198616818301526001606082015290517fc6c2cef2fe1f0545b232744fc2812ca3a23cdb770794c9c7458ea69f6d9be7ff9181900360800190a15050506001600160a01b0392831660009081526007602090815260408083209490951682529283528381206001600160e01b03199092168152915220805460ff19166001179055565b6000612528612de7565b805490915060ff68010000000000000000820416159067ffffffffffffffff166000811580156125555750825b905060008267ffffffffffffffff1660011480156125725750303b155b905081158015612580575080155b156125b7576040517ff92ee8a900000000000000000000000000000000000000000000000000000000815260040160405180910390fd5b84547fffffffffffffffffffffffffffffffffffffffffffffffff0000000000000000166001178555831561260257845468ff00000000000000001916680100000000000000001785555b61260a612e10565b612612612e10565b61261d6000896129d5565b506126487f65d7a28e3265b37a6474929f336521b332c1681b933f6cb9f3376673440d862a896129d5565b506126737f427da25fe773164f88948d3e215c94b6554e2ed5e5f203a821c9f2f6131cf75a896129d5565b5061269e7f61c92169ef077349011ff0b1383c894d86c5f0b41d986366b58a6cf31e93beda896129d5565b50600380546001600160a01b03808b1673ffffffffffffffffffffffffffffffffffffffff199283161790925560048054928a169290911691909117905560066126e887826139b5565b50831561273457845468ff000000000000000019168555604051600181527fc7f505b2f371ae2175ee4913f4499e1f2633a7b5936321eed1cdaeb6115181d29060200160405180910390a15b5050505050505050565b60008281527f02dd7bc7dec4dceedda775e58dd541e08a116c6c53815c0bd028192f7b62680060205260409020600101546127788161288f565b610b938383612c74565b61278a612899565b6001600160a01b038216600090815260016020908152604080832054338452918390529091208054839190839081106127c5576127c5613c46565b906000526020600020906002020160010190816127e291906139b5565b507f13bbfc66aca7f597c509c7eb717cafee4ae3fc31a77f4bbb22b333e81369276d33848460405161281693929190613a74565b60405180910390a1505050565b7f61c92169ef077349011ff0b1383c894d86c5f0b41d986366b58a6cf31e93beda61284d8161288f565b60085460408051918252602082018490527f41a6e3ea336979dfead544a7561ccbf3fbbbf13c4405cc4ce398afaebf4b1498910160405180910390a150600855565b6110da8133612e18565b7fcd5ed15c6e187e77e9aee88184c21f4f2182ab5827cb3b7e07fbedcd63f033005460ff16156128f5576040517fd93c066500000000000000000000000000000000000000000000000000000000815260040160405180910390fd5b565b6005546040517f4d756c74694163636f756e745f000000000000000000000000000000000000006020820152602d8101919091526000908190604d0160405160208183030381529060405280519060200120905060016005600082825461295e9190613de3565b9091555050600354600454604080516001600160a01b03938416602082015230918101919091529116606082015260009060069060800160408051601f19818403018152908290526129b39291602001613df6565b60405160208183030381529060405290506129ce8183612ea9565b9250505090565b60008281527f02dd7bc7dec4dceedda775e58dd541e08a116c6c53815c0bd028192f7b626800602081815260408084206001600160a01b038616855290915282205460ff16612a9a576000848152602082815260408083206001600160a01b03871684529091529020805460ff19166001179055612a503390565b6001600160a01b0316836001600160a01b0316857f2f8788117e7eff1d82e926ec794901d17c78024a50270940304540a733656f0d60405160405180910390a460019150506108a5565b60009150506108a5565b6040516001600160a01b038481166024830152838116604483015260648201839052610b939186918216906323b872dd906084015b604051602081830303815290604052915060e01b6020820180516001600160e01b038381831617835250505050612f54565b6040517fdd62ed3e0000000000000000000000000000000000000000000000000000000081523060048201526001600160a01b0383811660248301526000919085169063dd62ed3e90604401602060405180830381865afa158015612b74573d6000803e3d6000fd5b505050506040513d601f19601f82011682018060405250810190612b989190613e7c565b9050610b938484612ba98585613de3565b612fde565b600080836001600160a01b03166362dfbb2e846040518263ffffffff1660e01b8152600401612bdd919061324f565b6000604051808303816000875af1158015612bfc573d6000803e3d6000fd5b505050506040513d6000823e601f3d908101601f19168201604052612c249190810190613e95565b915091507f268e99f0b37c8146a6aea7c6af329e3924d9c92c4386be924c2990926d99b6613385858585604051612c5f959493929190613f22565b60405180910390a181610b9357805160208201fd5b60008281527f02dd7bc7dec4dceedda775e58dd541e08a116c6c53815c0bd028192f7b626800602081815260408084206001600160a01b038616855290915282205460ff1615612a9a576000848152602082815260408083206001600160a01b0387168085529252808320805460ff1916905551339287917ff6391f5c32d9c69d2a47ea670b442974b53935d1edc7fd64eb21e047a839171b9190a460019150506108a5565b612d22613087565b7fcd5ed15c6e187e77e9aee88184c21f4f2182ab5827cb3b7e07fbedcd63f03300805460ff191681557f5db9ee0a495bf2e6ff9c91a7834c1ba4fdd244a5e8aa4e537bd38aeae4b073aa335b6040516001600160a01b03909116815260200160405180910390a150565b612d94612899565b7fcd5ed15c6e187e77e9aee88184c21f4f2182ab5827cb3b7e07fbedcd63f03300805460ff191660011781557f62e78cea01bee320cd4e420270b5ea74000d11b0c9f74754ebdbfc544b05a25833612d6e565b6000807ff0c57e16840df040f15088dc2f81fe391c3923bec73e23a9662efc9c229c6a006108a5565b6128f56130e2565b60008281527f02dd7bc7dec4dceedda775e58dd541e08a116c6c53815c0bd028192f7b626800602090815260408083206001600160a01b038516845290915290205460ff16612ea5576040517fe2517d3f0000000000000000000000000000000000000000000000000000000081526001600160a01b038216600482015260248101839052604401610ed4565b5050565b6000818351602085016000f590506001600160a01b038116612f0d5760405162461bcd60e51b815260206004820152601c60248201527f4d756c74694163636f756e743a2063726561746532206661696c6564000000006044820152606401610ed4565b604080513381526001600160a01b03831660208201527f6cbd957809e2aaf4d5e36136d06e71215f53a984b218c6d501e22f91d348d9ce910160405180910390a192915050565b600080602060008451602086016000885af180612f77576040513d6000823e3d81fd5b50506000513d91508115612f8f578060011415612f9c565b6001600160a01b0384163b155b15610b93576040517f5274afe70000000000000000000000000000000000000000000000000000000081526001600160a01b0385166004820152602401610ed4565b604080516001600160a01b038416602482015260448082018490528251808303909101815260649091019091526020810180516001600160e01b03167f095ea7b3000000000000000000000000000000000000000000000000000000001790526130488482613120565b610b93576040516001600160a01b0384811660248301526000604483015261307d91869182169063095ea7b390606401612ad9565b610b938482612f54565b7fcd5ed15c6e187e77e9aee88184c21f4f2182ab5827cb3b7e07fbedcd63f033005460ff166128f5576040517f8dfc202b00000000000000000000000000000000000000000000000000000000815260040160405180910390fd5b6130ea61316f565b6128f5576040517fd7e6bcf800000000000000000000000000000000000000000000000000000000815260040160405180910390fd5b6000806000806020600086516020880160008a5af192503d91506000519050828015613165575081156131565780600114613165565b6000866001600160a01b03163b115b9695505050505050565b6000613179612de7565b5468010000000000000000900460ff16919050565b6001600160a01b03811681146110da57600080fd5b6000602082840312156131b557600080fd5b81356131c08161318e565b9392505050565b80356001600160e01b0319811681146131df57600080fd5b919050565b6000602082840312156131f657600080fd5b6131c0826131c7565b60005b8381101561321a578181015183820152602001613202565b50506000910152565b6000815180845261323b8160208601602086016131ff565b601f01601f19169290920160200192915050565b6020815260006131c06020830184613223565b60006020828403121561327457600080fd5b5035919050565b634e487b7160e01b600052604160045260246000fd5b604051601f8201601f1916810167ffffffffffffffff811182821017156132ba576132ba61327b565b604052919050565b600067ffffffffffffffff8211156132dc576132dc61327b565b50601f01601f191660200190565b600082601f8301126132fb57600080fd5b813560208301600061331461330f846132c2565b613291565b905082815285838301111561332857600080fd5b82826020830137600092810160200192909252509392505050565b60006020828403121561335557600080fd5b813567ffffffffffffffff81111561336c57600080fd5b613378848285016132ea565b949350505050565b6000806040838503121561339357600080fd5b8235915060208301356133a58161318e565b809150509250929050565b600080604083850312156133c357600080fd5b82356133ce8161318e565b946020939093013593505050565b600067ffffffffffffffff8211156133f6576133f661327b565b5060051b60200190565b600082601f83011261341157600080fd5b813561341f61330f826133dc565b8082825260208201915060208360051b86010192508583111561344157600080fd5b602085015b83811015611c2557613457816131c7565b835260209283019201613446565b80151581146110da57600080fd5b6000806000806080858703121561348957600080fd5b84356134948161318e565b935060208501356134a48161318e565b9250604085013567ffffffffffffffff8111156134c057600080fd5b6134cc87828801613400565b92505060608501356134dd81613465565b939692955090935050565b6000806000606084860312156134fd57600080fd5b83356135088161318e565b925060208401356135188161318e565b9150604084013567ffffffffffffffff81111561353457600080fd5b61354086828701613400565b9150509250925092565b6001600160a01b03831681526040602082015260006133786040830184613223565b600082601f83011261357d57600080fd5b813561358b61330f826133dc565b8082825260208201915060208360051b8601019250858311156135ad57600080fd5b602085015b83811015611c2557803567ffffffffffffffff8111156135d157600080fd5b6135e0886020838a01016132ea565b845250602092830192016135b2565b6000806000806080858703121561360557600080fd5b843567ffffffffffffffff81111561361c57600080fd5b613628878288016132ea565b94505060208501356136398161318e565b9250604085013567ffffffffffffffff81111561365557600080fd5b61366187828801613400565b925050606085013567ffffffffffffffff81111561367e57600080fd5b61368a8782880161356c565b91505092959194509250565b6000806000606084860312156136ab57600080fd5b83356136b68161318e565b95602085013595506040909401359392505050565b6000602082016020835280845180835260408501915060408160051b86010192506020860160005b82811015613762577fffffffffffffffffffffffffffffffffffffffffffffffffffffffffffffffc087860301845281516001600160a01b038151168652602081015190506040602087015261374c6040870182613223565b95505060209384019391909101906001016136f3565b50929695505050505050565b60008060006060848603121561378357600080fd5b833561378e8161318e565b9250602084013561379e8161318e565b91506137ac604085016131c7565b90509250925092565b6000806000606084860312156137ca57600080fd5b83356137d58161318e565b92506020840135915060408401356137ec8161318e565b809150509250925092565b6000806040838503121561380a57600080fd5b82356138158161318e565b9150602083013567ffffffffffffffff81111561383157600080fd5b61383d8582860161356c565b9150509250929050565b6000806000806080858703121561385d57600080fd5b84356138688161318e565b935060208501356138788161318e565b9250613886604086016131c7565b915060608501356134dd81613465565b6000806000606084860312156138ab57600080fd5b83356138b68161318e565b925060208401356138c68161318e565b9150604084013567ffffffffffffffff8111156138e257600080fd5b613540868287016132ea565b6000806040838503121561390157600080fd5b823561390c8161318e565b9150602083013567ffffffffffffffff81111561392857600080fd5b61383d858286016132ea565b600181811c9082168061394857607f821691505b60208210810361396857634e487b7160e01b600052602260045260246000fd5b50919050565b601f8211156110a357806000526020600020601f840160051c810160208510156139955750805b601f840160051c820191505b81811015611a3257600081556001016139a1565b815167ffffffffffffffff8111156139cf576139cf61327b565b6139e3816139dd8454613934565b8461396e565b6020601f821160018114613a1757600083156139ff5750848201515b600019600385901b1c1916600184901b178455611a32565b600084815260208120601f198516915b82811015613a475787850151825560209485019460019092019101613a27565b5084821015613a655786840151600019600387901b60f8161c191681555b50505050600190811b01905550565b6001600160a01b03841681526001600160a01b0383166020820152606060408201526000613aa56060830184613223565b95945050505050565b600060208284031215613ac057600080fd5b81516131c08161318e565b600060208284031215613add57600080fd5b815160ff811681146131c057600080fd5b634e487b7160e01b600052601160045260246000fd5b6001815b6001841115613b3f57808504811115613b2357613b23613aee565b6001841615613b3157908102905b60019390931c928002613b08565b935093915050565b600082613b56575060016108a5565b81613b63575060006108a5565b8160018114613b795760028114613b8357613b9f565b60019150506108a5565b60ff841115613b9457613b94613aee565b50506001821b6108a5565b5060208310610133831016604e8410600b8410161715613bc2575081810a6108a5565b613bcf6000198484613b04565b8060001904821115613be357613be3613aee565b029392505050565b60006131c060ff841683613b47565b80820281158282048414176108a5576108a5613aee565b600082613c2e57634e487b7160e01b600052601260045260246000fd5b500490565b818103818111156108a5576108a5613aee565b634e487b7160e01b600052603260045260246000fd5b600081613c6b57613c6b613aee565b506000190190565b600081518084526020840193506020830160005b82811015613caf5781516001600160e01b031916865260209586019590910190600101613c87565b5093949350505050565b6001600160a01b03851681526001600160a01b0384166020820152608060408201526000613cea6080830185613c73565b9050821515606083015295945050505050565b6001600160a01b03841681526001600160a01b0383166020820152606060408201526000613aa56060830184613c73565b604081526000808454613d4081613934565b8060408601526001821660008114613d5f5760018114613d7b57613daf565b60ff1983166060870152606082151560051b8701019350613daf565b87600052602060002060005b83811015613da657815488820160600152600190910190602001613d87565b87016060019450505b5050508281036020840152613aa58185613223565b600060ff821660ff8103613dda57613dda613aee565b60010192915050565b808201808211156108a5576108a5613aee565b6000808454613e0481613934565b600182168015613e1b5760018114613e3057613e60565b60ff1983168652811515820286019350613e60565b87600052602060002060005b83811015613e5857815488820152600190910190602001613e3c565b505081860193505b5050508351613e738183602088016131ff565b01949350505050565b600060208284031215613e8e57600080fd5b5051919050565b60008060408385031215613ea857600080fd5b8251613eb381613465565b602084015190925067ffffffffffffffff811115613ed057600080fd5b8301601f81018513613ee157600080fd5b8051613eef61330f826132c2565b818152866020838501011115613f0457600080fd5b613f158260208301602086016131ff565b8093505050509250929050565b6001600160a01b03861681526001600160a01b038516602082015260a060408201526000613f5360a0830186613223565b84151560608401528281036080840152613f6d8185613223565b9897505050505050505056fea2646970667358221220d03b3e71577848650979b4933c3d0dbe6094842e6dc76e037a30b446994205f164736f6c634300081c0033",
  "linkReferences": {},
  "deployedLinkReferences": {}
}