{
  "_format": "hh-sol-artifact-1",
  "contractName": "MultiAccount",
  "sourceName": "contracts/MultiAccount.sol",
  "abi": [
    {
      "inputs": [],
      "stateMutability": "nonpayable",
      "type": "constructor"
    },
    {
      "anonymous": false,
      "inputs": [
        {
          "indexed": false,
          "internalType": "address",
          "name": "user",
          "type": "address"
        },
        {
          "indexed": false,
          "internalType": "address",
          "name": "account",
          "type": "address"
        },
        {
          "indexed": false,
          "internalType": "string",
          "name": "name",
          "type": "string"
        }
      ],
      "name": "AddAccount",
      "type": "event"
    },
    {
      "anonymous": false,
      "inputs": [
        {
          "indexed": false,
          "internalType": "address",
          "name": "user",
          "type": "address"
        },
        {
          "indexed": false,
          "internalType": "address",
          "name": "account",
          "type": "address"
        },
        {
          "indexed": false,
          "internalType": "uint256",
          "name": "amount",
          "type": "uint256"
        }
      ],
      "name": "AllocateForAccount",
      "type": "event"
    },
    {
      "anonymous": false,
      "inputs": [
        {
          "indexed": false,
          "internalType": "address",
          "name": "user",
          "type": "address"
        },
        {
          "indexed": false,
          "internalType": "address",
          "name": "account",
          "type": "address"
        },
        {
          "indexed": false,
          "internalType": "bytes",
          "name": "_callData",
          "type": "bytes"
        },
        {
          "indexed": false,
          "internalType": "bool",
          "name": "_success",
          "type": "bool"
        },
        {
          "indexed": false,
          "internalType": "bytes",
          "name": "_resultData",
          "type": "bytes"
        }
      ],
      "name": "Call",
      "type": "event"
    },
    {
      "anonymous": false,
      "inputs": [
        {
          "indexed": false,
          "internalType": "address",
          "name": "account",
          "type": "address"
        },
        {
          "indexed": false,
          "internalType": "address",
          "name": "target",
          "type": "address"
        },
        {
          "indexed": false,
          "internalType": "bytes4",
          "name": "selector",
          "type": "bytes4"
        },
        {
          "indexed": false,
          "internalType": "bool",
          "name": "state",
          "type": "bool"
        }
      ],
      "name": "DelegateAccess",
      "type": "event"
    },
    {
      "anonymous": false,
      "inputs": [
        {
          "indexed": false,
          "internalType": "address",
          "name": "account",
          "type": "address"
        },
        {
          "indexed": false,
          "internalType": "address",
          "name": "target",
          "type": "address"
        },
        {
          "indexed": false,
          "internalType": "bytes4[]",
          "name": "selector",
          "type": "bytes4[]"
        },
        {
          "indexed": false,
          "internalType": "bool",
          "name": "state",
          "type": "bool"
        }
      ],
      "name": "DelegateAccesses",
      "type": "event"
    },
    {
      "anonymous": false,
      "inputs": [
        {
          "indexed": false,
          "internalType": "address",
          "name": "sender",
          "type": "address"
        },
        {
          "indexed": false,
          "internalType": "address",
          "name": "contractAddress",
          "type": "address"
        }
      ],
      "name": "DeployContract",
      "type": "event"
    },
    {
      "anonymous": false,
      "inputs": [
        {
          "indexed": false,
          "internalType": "address",
          "name": "user",
          "type": "address"
        },
        {
          "indexed": false,
          "internalType": "address",
          "name": "account",
          "type": "address"
        },
        {
          "indexed": false,
          "internalType": "uint256",
          "name": "amount",
          "type": "uint256"
        }
      ],
      "name": "DepositForAccount",
      "type": "event"
    },
    {
      "anonymous": false,
      "inputs": [
        {
          "indexed": false,
          "internalType": "address",
          "name": "user",
          "type": "address"
        },
        {
          "indexed": false,
          "internalType": "address",
          "name": "account",
          "type": "address"
        },
        {
          "indexed": false,
          "internalType": "string",
          "name": "newName",
          "type": "string"
        }
      ],
      "name": "EditAccountName",
      "type": "event"
    },
    {
      "anonymous": false,
      "inputs": [
        {
          "indexed": false,
          "internalType": "uint8",
          "name": "version",
          "type": "uint8"
        }
      ],
      "name": "Initialized",
      "type": "event"
    },
    {
      "anonymous": false,
      "inputs": [
        {
          "indexed": false,
          "internalType": "address",
          "name": "account",
          "type": "address"
        }
      ],
      "name": "Paused",
      "type": "event"
    },
    {
      "anonymous": false,
      "inputs": [
        {
          "indexed": false,
          "internalType": "address",
          "name": "account",
          "type": "address"
        },
        {
          "indexed": false,
          "internalType": "address",
          "name": "target",
          "type": "address"
        },
        {
          "indexed": false,
          "internalType": "bytes4[]",
          "name": "selector",
          "type": "bytes4[]"
        }
      ],
      "name": "ProposeToRevokeAccesses",
      "type": "event"
    },
    {
      "anonymous": false,
      "inputs": [
        {
          "indexed": true,
          "internalType": "bytes32",
          "name": "role",
          "type": "bytes32"
        },
        {
          "indexed": true,
          "internalType": "bytes32",
          "name": "previousAdminRole",
          "type": "bytes32"
        },
        {
          "indexed": true,
          "internalType": "bytes32",
          "name": "newAdminRole",
          "type": "bytes32"
        }
      ],
      "name": "RoleAdminChanged",
      "type": "event"
    },
    {
      "anonymous": false,
      "inputs": [
        {
          "indexed": true,
          "internalType": "bytes32",
          "name": "role",
          "type": "bytes32"
        },
        {
          "indexed": true,
          "internalType": "address",
          "name": "account",
          "type": "address"
        },
        {
          "indexed": true,
          "internalType": "address",
          "name": "sender",
          "type": "address"
        }
      ],
      "name": "RoleGranted",
      "type": "event"
    },
    {
      "anonymous": false,
      "inputs": [
        {
          "indexed": true,
          "internalType": "bytes32",
          "name": "role",
          "type": "bytes32"
        },
        {
          "indexed": true,
          "internalType": "address",
          "name": "account",
          "type": "address"
        },
        {
          "indexed": true,
          "internalType": "address",
          "name": "sender",
          "type": "address"
        }
      ],
      "name": "RoleRevoked",
      "type": "event"
    },
    {
      "anonymous": false,
      "inputs": [
        {
          "indexed": false,
          "internalType": "bytes",
          "name": "oldAddress",
          "type": "bytes"
        },
        {
          "indexed": false,
          "internalType": "bytes",
          "name": "newAddress",
          "type": "bytes"
        }
      ],
      "name": "SetAccountImplementation",
      "type": "event"
    },
    {
      "anonymous": false,
      "inputs": [
        {
          "indexed": false,
          "internalType": "address",
          "name": "oldAccountAdmin",
          "type": "address"
        },
        {
          "indexed": false,
          "internalType": "address",
          "name": "newAccountAdmin",
          "type": "address"
        }
      ],
      "name": "SetAccountsAdmin",
      "type": "event"
    },
    {
      "anonymous": false,
      "inputs": [
        {
          "indexed": false,
          "internalType": "address",
          "name": "oldApiExecutor",
          "type": "address"
        },
        {
          "indexed": false,
          "internalType": "address",
          "name": "newApiExecutor",
          "type": "address"
        }
      ],
      "name": "SetApiExecutor",
      "type": "event"
    },
    {
      "anonymous": false,
      "inputs": [
        {
          "indexed": false,
          "internalType": "uint256",
          "name": "oldCooldown",
          "type": "uint256"
        },
        {
          "indexed": false,
          "internalType": "uint256",
          "name": "newCooldown",
          "type": "uint256"
        }
      ],
      "name": "SetRevokeCooldown",
      "type": "event"
    },
    {
      "anonymous": false,
      "inputs": [
        {
          "indexed": false,
          "internalType": "address",
          "name": "oldAddress",
          "type": "address"
        },
        {
          "indexed": false,
          "internalType": "address",
          "name": "newAddress",
          "type": "address"
        }
      ],
      "name": "SetSymmioAddress",
      "type": "event"
    },
    {
      "anonymous": false,
      "inputs": [
        {
          "indexed": false,
          "internalType": "address",
          "name": "account",
          "type": "address"
        }
      ],
      "name": "Unpaused",
      "type": "event"
    },
    {
      "anonymous": false,
      "inputs": [
        {
          "indexed": false,
          "internalType": "address",
          "name": "user",
          "type": "address"
        },
        {
          "indexed": false,
          "internalType": "address",
          "name": "account",
          "type": "address"
        },
        {
          "indexed": false,
          "internalType": "uint256",
          "name": "amount",
          "type": "uint256"
        }
      ],
      "name": "WithdrawFromAccount",
      "type": "event"
    },
    {
      "inputs": [],
      "name": "DEFAULT_ADMIN_ROLE",
      "outputs": [
        {
          "internalType": "bytes32",
          "name": "",
          "type": "bytes32"
        }
      ],
      "stateMutability": "view",
      "type": "function"
    },
    {
      "inputs": [],
      "name": "PAUSER_ROLE",
      "outputs": [
        {
          "internalType": "bytes32",
          "name": "",
          "type": "bytes32"
        }
      ],
      "stateMutability": "view",
      "type": "function"
    },
    {
      "inputs": [],
      "name": "SETTER_ROLE",
      "outputs": [
        {
          "internalType": "bytes32",
          "name": "",
          "type": "bytes32"
        }
      ],
      "stateMutability": "view",
      "type": "function"
    },
    {
      "inputs": [],
      "name": "UNPAUSER_ROLE",
      "outputs": [
        {
          "internalType": "bytes32",
          "name": "",
          "type": "bytes32"
        }
      ],
      "stateMutability": "view",
      "type": "function"
    },
    {
      "inputs": [
        {
          "internalType": "address",
          "name": "account",
          "type": "address"
        },
        {
          "internalType": "bytes[]",
          "name": "_callDatas",
          "type": "bytes[]"
        }
      ],
      "name": "_call",
      "outputs": [],
      "stateMutability": "nonpayable",
      "type": "function"
    },
    {
      "inputs": [],
      "name": "accountImplementation",
      "outputs": [
        {
          "internalType": "bytes",
          "name": "",
          "type": "bytes"
        }
      ],
      "stateMutability": "view",
      "type": "function"
    },
    {
      "inputs": [
        {
          "internalType": "address",
          "name": "",
          "type": "address"
        },
        {
          "internalType": "uint256",
          "name": "",
          "type": "uint256"
        }
      ],
      "name": "accounts",
      "outputs": [
        {
          "internalType": "address",
          "name": "accountAddress",
          "type": "address"
        },
        {
          "internalType": "string",
          "name": "name",
          "type": "string"
        }
      ],
      "stateMutability": "view",
      "type": "function"
    },
    {
      "inputs": [],
      "name": "accountsAdmin",
      "outputs": [
        {
          "internalType": "address",
          "name": "",
          "type": "address"
        }
      ],
      "stateMutability": "view",
      "type": "function"
    },
    {
      "inputs": [
        {
          "internalType": "string",
          "name": "name",
          "type": "string"
        }
      ],
      "name": "addAccount",
      "outputs": [],
      "stateMutability": "nonpayable",
      "type": "function"
    },
    {
      "inputs": [
        {
          "internalType": "string",
          "name": "name",
          "type": "string"
        },
        {
          "internalType": "address",
          "name": "target",
          "type": "address"
        },
        {
          "internalType": "bytes4[]",
          "name": "selector",
          "type": "bytes4[]"
        },
        {
          "internalType": "bytes[]",
          "name": "_callDatas",
          "type": "bytes[]"
        }
      ],
      "name": "addAccountDelegateAccessAndCall",
      "outputs": [
        {
          "internalType": "address",
          "name": "account",
          "type": "address"
        }
      ],
      "stateMutability": "nonpayable",
      "type": "function"
    },
    {
      "inputs": [
        {
          "internalType": "address",
          "name": "account",
          "type": "address"
        },
        {
          "internalType": "address",
          "name": "target",
          "type": "address"
        },
        {
          "internalType": "bytes4",
          "name": "selector",
          "type": "bytes4"
        },
        {
          "internalType": "bool",
          "name": "state",
          "type": "bool"
        }
      ],
      "name": "delegateAccess",
      "outputs": [],
      "stateMutability": "nonpayable",
      "type": "function"
    },
    {
      "inputs": [
        {
          "internalType": "address",
          "name": "account",
          "type": "address"
        },
        {
          "internalType": "address",
          "name": "target",
          "type": "address"
        },
        {
          "internalType": "bytes4[]",
          "name": "selector",
          "type": "bytes4[]"
        },
        {
          "internalType": "bool",
          "name": "state",
          "type": "bool"
        }
      ],
      "name": "delegateAccesses",
      "outputs": [],
      "stateMutability": "nonpayable",
      "type": "function"
    },
    {
      "inputs": [
        {
          "internalType": "address",
          "name": "",
          "type": "address"
        },
        {
          "internalType": "address",
          "name": "",
          "type": "address"
        },
        {
          "internalType": "bytes4",
          "name": "",
          "type": "bytes4"
        }
      ],
      "name": "delegatedAccesses",
      "outputs": [
        {
          "internalType": "bool",
          "name": "",
          "type": "bool"
        }
      ],
      "stateMutability": "view",
      "type": "function"
    },
    {
      "inputs": [
        {
          "internalType": "address",
          "name": "account",
          "type": "address"
        },
        {
          "internalType": "uint256",
          "name": "amount",
          "type": "uint256"
        }
      ],
      "name": "depositAndAllocateForAccount",
      "outputs": [],
      "stateMutability": "nonpayable",
      "type": "function"
    },
    {
      "inputs": [
        {
          "internalType": "address",
          "name": "account",
          "type": "address"
        },
        {
          "internalType": "uint256",
          "name": "amount",
          "type": "uint256"
        }
      ],
      "name": "depositForAccount",
      "outputs": [],
      "stateMutability": "nonpayable",
      "type": "function"
    },
    {
      "inputs": [
        {
          "internalType": "address",
          "name": "accountAddress",
          "type": "address"
        },
        {
          "internalType": "string",
          "name": "name",
          "type": "string"
        }
      ],
      "name": "editAccountName",
      "outputs": [],
      "stateMutability": "nonpayable",
      "type": "function"
    },
    {
      "inputs": [
        {
          "internalType": "address",
          "name": "user",
          "type": "address"
        },
        {
          "internalType": "uint256",
          "name": "start",
          "type": "uint256"
        },
        {
          "internalType": "uint256",
          "name": "size",
          "type": "uint256"
        }
      ],
      "name": "getAccounts",
      "outputs": [
        {
          "components": [
            {
              "internalType": "address",
              "name": "accountAddress",
              "type": "address"
            },
            {
              "internalType": "string",
              "name": "name",
              "type": "string"
            }
          ],
          "internalType": "struct IMultiAccount.Account[]",
          "name": "",
          "type": "tuple[]"
        }
      ],
      "stateMutability": "view",
      "type": "function"
    },
    {
      "inputs": [
        {
          "internalType": "address",
          "name": "user",
          "type": "address"
        }
      ],
      "name": "getAccountsLength",
      "outputs": [
        {
          "internalType": "uint256",
          "name": "",
          "type": "uint256"
        }
      ],
      "stateMutability": "view",
      "type": "function"
    },
    {
      "inputs": [
        {
          "internalType": "bytes32",
          "name": "role",
          "type": "bytes32"
        }
      ],
      "name": "getRoleAdmin",
      "outputs": [
        {
          "internalType": "bytes32",
          "name": "",
          "type": "bytes32"
        }
      ],
      "stateMutability": "view",
      "type": "function"
    },
    {
      "inputs": [
        {
          "internalType": "bytes32",
          "name": "role",
          "type": "bytes32"
        },
        {
          "internalType": "address",
          "name": "account",
          "type": "address"
        }
      ],
      "name": "grantRole",
      "outputs": [],
      "stateMutability": "nonpayable",
      "type": "function"
    },
    {
      "inputs": [
        {
          "internalType": "bytes32",
          "name": "role",
          "type": "bytes32"
        },
        {
          "internalType": "address",
          "name": "account",
          "type": "address"
        }
      ],
      "name": "hasRole",
      "outputs": [
        {
          "internalType": "bool",
          "name": "",
          "type": "bool"
        }
      ],
      "stateMutability": "view",
      "type": "function"
    },
    {
      "inputs": [
        {
          "internalType": "address",
          "name": "",
          "type": "address"
        }
      ],
      "name": "indexOfAccount",
      "outputs": [
        {
          "internalType": "uint256",
          "name": "",
          "type": "uint256"
        }
      ],
      "stateMutability": "view",
      "type": "function"
    },
    {
      "inputs": [
        {
          "internalType": "address",
          "name": "admin",
          "type": "address"
        },
        {
          "internalType": "address",
          "name": "symmioAddress_",
          "type": "address"
        },
        {
          "internalType": "bytes",
          "name": "accountImplementation_",
          "type": "bytes"
        }
      ],
      "name": "initialize",
      "outputs": [],
      "stateMutability": "nonpayable",
      "type": "function"
    },
    {
      "inputs": [
        {
          "internalType": "address",
          "name": "",
          "type": "address"
        }
      ],
      "name": "owners",
      "outputs": [
        {
          "internalType": "address",
          "name": "",
          "type": "address"
        }
      ],
      "stateMutability": "view",
      "type": "function"
    },
    {
      "inputs": [],
      "name": "pause",
      "outputs": [],
      "stateMutability": "nonpayable",
      "type": "function"
    },
    {
      "inputs": [],
      "name": "paused",
      "outputs": [
        {
          "internalType": "bool",
          "name": "",
          "type": "bool"
        }
      ],
      "stateMutability": "view",
      "type": "function"
    },
    {
      "inputs": [
        {
          "internalType": "address",
          "name": "account",
          "type": "address"
        },
        {
          "internalType": "address",
          "name": "target",
          "type": "address"
        },
        {
          "internalType": "bytes4[]",
          "name": "selector",
          "type": "bytes4[]"
        }
      ],
      "name": "proposeToRevokeAccesses",
      "outputs": [],
      "stateMutability": "nonpayable",
      "type": "function"
    },
    {
      "inputs": [
        {
          "internalType": "bytes32",
          "name": "role",
          "type": "bytes32"
        },
        {
          "internalType": "address",
          "name": "account",
          "type": "address"
        }
      ],
      "name": "renounceRole",
      "outputs": [],
      "stateMutability": "nonpayable",
      "type": "function"
    },
    {
      "inputs": [
        {
          "internalType": "address",
          "name": "account",
          "type": "address"
        },
        {
          "internalType": "address",
          "name": "target",
          "type": "address"
        },
        {
          "internalType": "bytes4[]",
          "name": "selector",
          "type": "bytes4[]"
        }
      ],
      "name": "revokeAccesses",
      "outputs": [],
      "stateMutability": "nonpayable",
      "type": "function"
    },
    {
      "inputs": [],
      "name": "revokeCooldown",
      "outputs": [
        {
          "internalType": "uint256",
          "name": "",
          "type": "uint256"
        }
      ],
      "stateMutability": "view",
      "type": "function"
    },
    {
      "inputs": [
        {
          "internalType": "address",
          "name": "",
          "type": "address"
        },
        {
          "internalType": "address",
          "name": "",
          "type": "address"
        },
        {
          "internalType": "bytes4",
          "name": "",
          "type": "bytes4"
        }
      ],
      "name": "revokeProposalTimestamp",
      "outputs": [
        {
          "internalType": "uint256",
          "name": "",
          "type": "uint256"
        }
      ],
      "stateMutability": "view",
      "type": "function"
    },
    {
      "inputs": [
        {
          "internalType": "bytes32",
          "name": "role",
          "type": "bytes32"
        },
        {
          "internalType": "address",
          "name": "account",
          "type": "address"
        }
      ],
      "name": "revokeRole",
      "outputs": [],
      "stateMutability": "nonpayable",
      "type": "function"
    },
    {
      "inputs": [],
      "name": "saltCounter",
      "outputs": [
        {
          "internalType": "uint256",
          "name": "",
          "type": "uint256"
        }
      ],
      "stateMutability": "view",
      "type": "function"
    },
    {
      "inputs": [
        {
          "internalType": "bytes",
          "name": "accountImplementation_",
          "type": "bytes"
        }
      ],
      "name": "setAccountImplementation",
      "outputs": [],
      "stateMutability": "nonpayable",
      "type": "function"
    },
    {
      "inputs": [
        {
          "internalType": "address",
          "name": "accountsAdmin_",
          "type": "address"
        }
      ],
      "name": "setAccountsAdmin",
      "outputs": [],
      "stateMutability": "nonpayable",
      "type": "function"
    },
    {
      "inputs": [
        {
          "internalType": "address",
          "name": "apiExecutor_",
          "type": "address"
        }
      ],
      "name": "setApiExecutor",
      "outputs": [],
      "stateMutability": "nonpayable",
      "type": "function"
    },
    {
      "inputs": [
        {
          "internalType": "uint256",
          "name": "cooldown",
          "type": "uint256"
        }
      ],
      "name": "setRevokeCooldown",
      "outputs": [],
      "stateMutability": "nonpayable",
      "type": "function"
    },
    {
      "inputs": [
        {
          "internalType": "address",
          "name": "addr",
          "type": "address"
        }
      ],
      "name": "setSymmioAddress",
      "outputs": [],
      "stateMutability": "nonpayable",
      "type": "function"
    },
    {
      "inputs": [
        {
          "internalType": "bytes4",
          "name": "interfaceId",
          "type": "bytes4"
        }
      ],
      "name": "supportsInterface",
      "outputs": [
        {
          "internalType": "bool",
          "name": "",
          "type": "bool"
        }
      ],
      "stateMutability": "view",
      "type": "function"
    },
    {
      "inputs": [],
      "name": "symmioAddress",
      "outputs": [
        {
          "internalType": "address",
          "name": "",
          "type": "address"
        }
      ],
      "stateMutability": "view",
      "type": "function"
    },
    {
      "inputs": [],
      "name": "unpause",
      "outputs": [],
      "stateMutability": "nonpayable",
      "type": "function"
    },
    {
      "inputs": [
        {
          "internalType": "address",
          "name": "account",
          "type": "address"
        },
        {
          "internalType": "uint256",
          "name": "amount",
          "type": "uint256"
        }
      ],
      "name": "withdrawFromAccount",
      "outputs": [],
      "stateMutability": "nonpayable",
      "type": "function"
    },
    {
      "inputs": [
        {
          "internalType": "address",
          "name": "account",
          "type": "address"
        },
        {
          "internalType": "uint256",
          "name": "amount",
          "type": "uint256"
        },
        {
          "internalType": "address",
          "name": "destination",
          "type": "address"
        }
      ],
      "name": "withdrawFromAccountTo",
      "outputs": [],
      "stateMutability": "nonpayable",
      "type": "function"
    }
  ],
  "bytecode": "0x60806040523480156200001157600080fd5b506200001c62000022565b620000e3565b600054610100900460ff16156200008f5760405162461bcd60e51b815260206004820152602760248201527f496e697469616c697a61626c653a20636f6e747261637420697320696e697469604482015266616c697a696e6760c81b606482015260840160405180910390fd5b60005460ff90811614620000e1576000805460ff191660ff9081179091556040519081527f7f26b83ff96e1f2b6a682f133852f6798a09c465da95921460cefb38474024989060200160405180910390a15b565b61443d80620000f36000396000f3fe608060405234801561001057600080fd5b50600436106102e95760003560e01c80638b5afd2b11610191578063ab3ef49b116100e3578063d547741f11610097578063f462e68211610071578063f462e682146106e3578063f7420276146106ec578063fb1bb9de146106ff57600080fd5b8063d547741f14610696578063d9c2337c146106a9578063e63ab1e9146106bc57600080fd5b8063bd367d8e116100c8578063bd367d8e1461065d578063c110221414610670578063cf7a1d771461068357600080fd5b8063ab3ef49b14610616578063b9c9b3f21461062957600080fd5b806395d4609d11610145578063a2011b3f1161011f578063a2011b3f146105d4578063a217fddf146105fb578063a58c99d71461060357600080fd5b806395d4609d1461057a5780639b0c03de146105ab578063a04c6809146105cb57600080fd5b806391d148541161017657806391d148541461050e57806394aee4221461054757806395c7d0ec1461055a57600080fd5b80638b5afd2b146104d25780639181b74b146104fb57600080fd5b8063342fcda91161024a5780635c975abb116101fe57806382a7e533116101d857806382a7e533146104965780638456cb59146104a957806387524581146104b157600080fd5b80635c975abb146104655780636a29dfbf146104705780637278b28f1461048357600080fd5b806337f93b081161022f57806337f93b08146104375780633f4ba83a1461044a5780634ebabea11461045257600080fd5b8063342fcda91461041157806336568abe1461042457600080fd5b8063248a9ca3116102a15780632ad26a04116102865780632ad26a04146103d85780632f2ff15d146103eb57806331e69d2d146103fe57600080fd5b8063248a9ca314610394578063288409bb146103c557600080fd5b8063022914a7116102d2578063022914a71461032b578063107050461461036c57806311464fbe1461037f57600080fd5b806301569e3a146102ee57806301ffc9a714610303575b600080fd5b6103016102fc366004613593565b610726565b005b6103166103113660046135cd565b6107c7565b60405190151581526020015b60405180910390f35b610354610339366004613593565b60cb602052600090815260409020546001600160a01b031681565b6040516001600160a01b039091168152602001610322565b61030161037a366004613593565b610830565b6103876108b2565b6040516103229190613638565b6103b76103a236600461364b565b60009081526097602052604090206001015490565b604051908152602001610322565b6103016103d3366004613593565b610940565b6103016103e6366004613729565b6109c2565b6103016103f936600461375e565b610adc565b61030161040c36600461378e565b610b06565b61030161041f36600461378e565b610dd0565b61030161043236600461375e565b610fdc565b60cc54610354906001600160a01b031681565b610301611068565b610301610460366004613859565b61109d565b60335460ff16610316565b61030161047e3660046138ce565b6112e7565b60cd54610354906001600160a01b031681565b6103016104a4366004613729565b611498565b610301611508565b6104c46104bf36600461378e565b61153a565b604051610322929190613930565b6103b76104e0366004613593565b6001600160a01b0316600090815260c9602052604090205490565b6103546105093660046139d2565b61160a565b61031661051c36600461375e565b60009182526097602090815260408084206001600160a01b0393909316845291905290205460ff1690565b61030161055536600461378e565b6118b7565b61056d610568366004613a6f565b611a01565b6040516103229190613aa4565b6103b7610588366004613b3f565b60d260209081526000938452604080852082529284528284209052825290205481565b6103b76105b9366004613593565b60ca6020526000908152604090205481565b6103b760ce5481565b6103b77f61c92169ef077349011ff0b1383c894d86c5f0b41d986366b58a6cf31e93beda81565b6103b7600081565b6103016106113660046138ce565b611c02565b610301610624366004613b86565b611fff565b610316610637366004613b3f565b60d060209081526000938452604080852082529284528284209052825290205460ff1681565b61030161066b366004613bc8565b612149565b61030161067e366004613c18565b6122e4565b610301610691366004613c67565b6124f7565b6103016106a436600461375e565b6126f4565b6103016106b7366004613cbf565b612719565b6103b77f65d7a28e3265b37a6474929f336521b332c1681b933f6cb9f3376673440d862a81565b6103b760d15481565b6103016106fa36600461364b565b6127bb565b6103b77f427da25fe773164f88948d3e215c94b6554e2ed5e5f203a821c9f2f6131cf75a81565b7f61c92169ef077349011ff0b1383c894d86c5f0b41d986366b58a6cf31e93beda61075081612827565b60cd54604080516001600160a01b03928316815291841660208301527ff78ccdf5924090b2ab6627ac5da4ec5affed73d47c6bc6c8a4620a0d5ed57bc8910160405180910390a15060cd805473ffffffffffffffffffffffffffffffffffffffff19166001600160a01b0392909216919091179055565b60006001600160e01b031982167f7965db0b00000000000000000000000000000000000000000000000000000000148061082a57507f01ffc9a7000000000000000000000000000000000000000000000000000000006001600160e01b03198316145b92915050565b600061083b81612827565b60d354604080516001600160a01b03928316815291841660208301527f8a5ed057955681148f2309414702f1942a9849c5d2e0df34390b8f08032e3b3a910160405180910390a15060d3805473ffffffffffffffffffffffffffffffffffffffff19166001600160a01b0392909216919091179055565b60cf80546108bf90613d05565b80601f01602080910402602001604051908101604052809291908181526020018280546108eb90613d05565b80156109385780601f1061090d57610100808354040283529160200191610938565b820191906000526020600020905b81548152906001019060200180831161091b57829003601f168201915b505050505081565b600061094b81612827565b60cc54604080516001600160a01b03928316815291841660208301527fc0c0a485d5a9547b687095c9652fe0811abc1379aa253cc64a91be08804b8956910160405180910390a15060cc805473ffffffffffffffffffffffffffffffffffffffff19166001600160a01b0392909216919091179055565b6109ca612831565b60006109d4612886565b33600090815260c96020818152604080842080546001600160a01b0387811680885260ca8652848820839055958552835180850190945294835282840189815260018083018455928752939095208251600290960201805473ffffffffffffffffffffffffffffffffffffffff1916959094169490941783559051939450929091820190610a629082613d85565b5050506001600160a01b038116600090815260cb602052604090819020805473ffffffffffffffffffffffffffffffffffffffff19163390811790915590517f1deb86e124d1a5f3b49977292b48e989b984bcd8944cfb14d63c8880482f2cff91610ad09184908690613e45565b60405180910390a15050565b600082815260976020526040902060010154610af781612827565b610b018383612964565b505050565b610b0e612831565b60cd54604080517f5c1548fb00000000000000000000000000000000000000000000000000000000815290516000926001600160a01b031691635c1548fb9160048083019260209291908290030181865afa158015610b71573d6000803e3d6000fd5b505050506040513d601f19601f82011682018060405250810190610b959190613e7a565b9050610bac6001600160a01b038216333085612a06565b60cd54610bc6906001600160a01b03838116911684612a8a565b60cd546040517f2f4f21e20000000000000000000000000000000000000000000000000000000081526001600160a01b0385811660048301526024820185905290911690632f4f21e290604401600060405180830381600087803b158015610c2d57600080fd5b505af1158015610c41573d6000803e3d6000fd5b505050506000816001600160a01b031663313ce5676040518163ffffffff1660e01b8152600401602060405180830381865afa158015610c85573d6000803e3d6000fd5b505050506040513d601f19601f82011682018060405250810190610ca99190613e97565b610cb490600a613fb4565b610cc684670de0b6b3a7640000613fc3565b610cd09190613fda565b9050600081604051602401610ce791815260200190565b60408051601f198184030181529190526020810180516001600160e01b03167f90ca796b000000000000000000000000000000000000000000000000000000001790529050610d368582612bd8565b604080513381526001600160a01b03871660208201529081018590527fb92f7c65176e3a873589352927ba42330e95085f34ab1a9721f2135b94a518839060600160405180910390a1604080513381526001600160a01b03871660208201529081018390527f13b84d799b5b8b235eafe52313197bb3dbf3d5c36c2ac0b62e4c45cc4d3a958e906060015b60405180910390a15050505050565b6001600160a01b03808316600090815260cb602052604090205483913391168114610e565760405162461bcd60e51b815260206004820152602b60248201527f4d756c74694163636f756e743a2053656e6465722069736e2774206f776e657260448201526a081bd9881858d8dbdd5b9d60aa1b60648201526084015b60405180910390fd5b610e5e612831565b60cd54604080517f5c1548fb00000000000000000000000000000000000000000000000000000000815290516000926001600160a01b031691635c1548fb9160048083019260209291908290030181865afa158015610ec1573d6000803e3d6000fd5b505050506040513d601f19601f82011682018060405250810190610ee59190613e7a565b9050610efc6001600160a01b038216333087612a06565b60cd54610f16906001600160a01b03838116911686612a8a565b60cd546040517f2f4f21e20000000000000000000000000000000000000000000000000000000081526001600160a01b0387811660048301526024820187905290911690632f4f21e290604401600060405180830381600087803b158015610f7d57600080fd5b505af1158015610f91573d6000803e3d6000fd5b5050604080513381526001600160a01b03891660208201529081018790527fb92f7c65176e3a873589352927ba42330e95085f34ab1a9721f2135b94a5188392506060019050610dc1565b6001600160a01b038116331461105a5760405162461bcd60e51b815260206004820152602f60248201527f416363657373436f6e74726f6c3a2063616e206f6e6c792072656e6f756e636560448201527f20726f6c657320666f722073656c6600000000000000000000000000000000006064820152608401610e4d565b6110648282612c9e565b5050565b7f427da25fe773164f88948d3e215c94b6554e2ed5e5f203a821c9f2f6131cf75a61109281612827565b61109a612d21565b50565b6001600160a01b03808516600090815260cb60205260409020548591339116811461111e5760405162461bcd60e51b815260206004820152602b60248201527f4d756c74694163636f756e743a2053656e6465722069736e2774206f776e657260448201526a081bd9881858d8dbdd5b9d60aa1b6064820152608401610e4d565b6001600160a01b03851633148015906111495750856001600160a01b0316856001600160a01b031614155b6111955760405162461bcd60e51b815260206004820152601c60248201527f4d756c74694163636f756e743a20496e76616c696420746172676574000000006044820152606401610e4d565b60018315151461120d5760405162461bcd60e51b815260206004820152602960248201527f557365207265766f6b6520746f2066756e6374696f6e7320746f207265766f6b60448201527f65204163636573732e00000000000000000000000000000000000000000000006064820152608401610e4d565b83515b80156112a0576001600160a01b03808816600090815260d060209081526040808320938a1683529290529081206001918761124b8486613ffc565b8151811061125b5761125b61400f565b6020908102919091018101516001600160e01b0319168252810191909152604001600020805460ff19169115159190911790558061129881614025565b915050611210565b507f41e2c91b7cd59c2d41cfac17496b166b244a4921d4a1c926b4a7132b6c66906e86868660016040516112d79493929190614081565b60405180910390a1505050505050565b6001600160a01b03808416600090815260cb6020526040902054849133911681146113685760405162461bcd60e51b815260206004820152602b60248201527f4d756c74694163636f756e743a2053656e6465722069736e2774206f776e657260448201526a081bd9881858d8dbdd5b9d60aa1b6064820152608401610e4d565b6001600160a01b03841633148015906113935750846001600160a01b0316846001600160a01b031614155b6113df5760405162461bcd60e51b815260206004820152601c60248201527f4d756c74694163636f756e743a20496e76616c696420746172676574000000006044820152606401610e4d565b82515b8015611464576001600160a01b03808716600090815260d260209081526040808320938916835292905290812042918661141d600186613ffc565b8151811061142d5761142d61400f565b6020908102919091018101516001600160e01b0319168252810191909152604001600020558061145c81614025565b9150506113e2565b507f64930ca7235077162dd09f78d211b233f0f505f794151b9ecfaa6680bf00ead6858585604051610dc1939291906140c0565b7f61c92169ef077349011ff0b1383c894d86c5f0b41d986366b58a6cf31e93beda6114c281612827565b7f4ec7166fdb5f155366ddacdab9af9c74d038015a7570252e40c6c82346308ad760cf836040516114f49291906140ec565b60405180910390a160cf610b018382613d85565b7f65d7a28e3265b37a6474929f336521b332c1681b933f6cb9f3376673440d862a61153281612827565b61109a612d73565b60c9602052816000526040600020818154811061155657600080fd5b6000918252602090912060029091020180546001820180546001600160a01b03909216945091925061158790613d05565b80601f01602080910402602001604051908101604052809291908181526020018280546115b390613d05565b80156116005780601f106115d557610100808354040283529160200191611600565b820191906000526020600020905b8154815290600101906020018083116115e357829003601f168201915b5050505050905082565b6000611614612886565b33600090815260c96020818152604080842080546001600160a01b0387811680885260ca865284882083905595855283518085019094529483528284018c815260018083018455928752939095208251600290960201805473ffffffffffffffffffffffffffffffffffffffff19169590941694909417835590519394509290918201906116a29082613d85565b5050506001600160a01b038116600090815260cb602052604090819020805473ffffffffffffffffffffffffffffffffffffffff19163390811790915590517f1deb86e124d1a5f3b49977292b48e989b984bcd8944cfb14d63c8880482f2cff916117109184908990613e45565b60405180910390a16001600160a01b03841633148015906117435750806001600160a01b0316846001600160a01b031614155b61178f5760405162461bcd60e51b815260206004820152601c60248201527f4d756c74694163636f756e743a20696e76616c696420746172676574000000006044820152606401610e4d565b82515b8015611822576001600160a01b03808316600090815260d0602090815260408083209389168352929052908120600191866117cd8486613ffc565b815181106117dd576117dd61400f565b6020908102919091018101516001600160e01b0319168252810191909152604001600020805460ff19169115159190911790558061181a81614025565b915050611792565b507f41e2c91b7cd59c2d41cfac17496b166b244a4921d4a1c926b4a7132b6c66906e81858560016040516118599493929190614081565b60405180910390a160005b82518160ff1610156118ae576000838260ff16815181106118875761188761400f565b6020026020010151905061189b8382612bd8565b50806118a681614182565b915050611864565b50949350505050565b6001600160a01b03808316600090815260cb6020526040902054839133911681146119385760405162461bcd60e51b815260206004820152602b60248201527f4d756c74694163636f756e743a2053656e6465722069736e2774206f776e657260448201526a081bd9881858d8dbdd5b9d60aa1b6064820152608401610e4d565b611940612831565b6001600160a01b03848116600081815260cb6020908152604091829020548251941660248501526044808501889052825180860390910181526064909401825283810180516001600160e01b03167f205c287800000000000000000000000000000000000000000000000000000000179052815133815290810192909252818101869052517f40e4447d271dea2a920b9669d305a3255d8783d59b016237e63b106f1c9dd5fa916060908290030190a16119fa8582612bd8565b5050505050565b6001600160a01b038316600090815260c9602052604081205460609190611a29908590613ffc565b8311611a355782611a59565b6001600160a01b038516600090815260c96020526040902054611a59908590613ffc565b905060008167ffffffffffffffff811115611a7657611a76613664565b604051908082528060200260200182016040528015611abc57816020015b604080518082019091526000815260606020820152815260200190600190039081611a945790505b509050845b611acb83876141a1565b811015611bf8576001600160a01b038716600090815260c960205260409020805482908110611afc57611afc61400f565b60009182526020918290206040805180820190915260029092020180546001600160a01b031682526001810180549293919291840191611b3b90613d05565b80601f0160208091040260200160405190810160405280929190818152602001828054611b6790613d05565b8015611bb45780601f10611b8957610100808354040283529160200191611bb4565b820191906000526020600020905b815481529060010190602001808311611b9757829003601f168201915b505050505081525050828783611bca9190613ffc565b81518110611bda57611bda61400f565b60200260200101819052508080611bf0906141b4565b915050611ac1565b5095945050505050565b6001600160a01b03808416600090815260cb602052604090205484913391168114611c835760405162461bcd60e51b815260206004820152602b60248201527f4d756c74694163636f756e743a2053656e6465722069736e2774206f776e657260448201526a081bd9881858d8dbdd5b9d60aa1b6064820152608401610e4d565b6001600160a01b0384163314801590611cae5750846001600160a01b0316846001600160a01b031614155b611cfa5760405162461bcd60e51b815260206004820152601c60248201527f4d756c74694163636f756e743a20496e76616c696420746172676574000000006044820152606401610e4d565b82515b8015611fc8576001600160a01b03808716600090815260d26020908152604080832093891683529290529081209085611d37600185613ffc565b81518110611d4757611d4761400f565b60200260200101516001600160e01b0319166001600160e01b031916815260200190815260200160002054600003611de75760405162461bcd60e51b815260206004820152602860248201527f4d756c74694163636f756e743a205265766f6b6520616363657373206e6f742060448201527f70726f706f7365640000000000000000000000000000000000000000000000006064820152608401610e4d565b60d1546001600160a01b03808816600090815260d260209081526040808320938a16835292905290812042929187611e20600187613ffc565b81518110611e3057611e3061400f565b60200260200101516001600160e01b0319166001600160e01b031916815260200190815260200160002054611e6591906141a1565b1115611ed95760405162461bcd60e51b815260206004820152602260248201527f4d756c74694163636f756e743a20436f6f6c646f776e206e6f7420726561636860448201527f65640000000000000000000000000000000000000000000000000000000000006064820152608401610e4d565b6001600160a01b03808716600090815260d06020908152604080832093891683529290529081208186611f0d600186613ffc565b81518110611f1d57611f1d61400f565b6020908102919091018101516001600160e01b03191682528181019290925260409081016000908120805460ff1916941515949094179093556001600160a01b03898116845260d28352818420908916845290915281208186611f81600186613ffc565b81518110611f9157611f9161400f565b6020908102919091018101516001600160e01b03191682528101919091526040016000205580611fc081614025565b915050611cfd565b507f41e2c91b7cd59c2d41cfac17496b166b244a4921d4a1c926b4a7132b6c66906e8585856000604051610dc19493929190614081565b6001600160a01b03808416600090815260cb6020526040902054849133911681146120805760405162461bcd60e51b815260206004820152602b60248201527f4d756c74694163636f756e743a2053656e6465722069736e2774206f776e657260448201526a081bd9881858d8dbdd5b9d60aa1b6064820152608401610e4d565b612088612831565b6040516001600160a01b03841660248201526044810185905260009060640160408051601f19818403018152918152602080830180516001600160e01b03167f205c28780000000000000000000000000000000000000000000000000000000017905281513381526001600160a01b038a16918101919091529081018790529091507f40e4447d271dea2a920b9669d305a3255d8783d59b016237e63b106f1c9dd5fa9060600160405180910390a16121418682612bd8565b505050505050565b612151612831565b6001600160a01b03828116600090815260cb60205260408120549091163314905b82518160ff1610156122de576000838260ff16815181106121955761219561400f565b60200260200101519050821580156121b8575060d3546001600160a01b03163314155b156122c15760048151101561220f5760405162461bcd60e51b815260206004820152601f60248201527f4d756c74694163636f756e743a20496e76616c69642063616c6c2064617461006044820152606401610e4d565b6020818101516001600160a01b038716600090815260d08352604080822033835284528082206001600160e01b031984168352909352919091205460ff166122bf5760405162461bcd60e51b815260206004820152602160248201527f4d756c74694163636f756e743a20556e617574686f72697a656420616363657360448201527f73000000000000000000000000000000000000000000000000000000000000006064820152608401610e4d565b505b6122cb8582612bd8565b50806122d681614182565b915050612172565b50505050565b6001600160a01b03808516600090815260cb6020526040902054859133911681146123655760405162461bcd60e51b815260206004820152602b60248201527f4d756c74694163636f756e743a2053656e6465722069736e2774206f776e657260448201526a081bd9881858d8dbdd5b9d60aa1b6064820152608401610e4d565b6001600160a01b03851633148015906123905750856001600160a01b0316856001600160a01b031614155b6123dc5760405162461bcd60e51b815260206004820152601c60248201527f4d756c74694163636f756e743a20496e76616c696420746172676574000000006044820152606401610e4d565b6001831515146124545760405162461bcd60e51b815260206004820152602960248201527f557365207265766f6b6520746f2066756e6374696f6e7320746f207265766f6b60448201527f65204163636573732e00000000000000000000000000000000000000000000006064820152608401610e4d565b604080516001600160a01b038881168252871660208201526001600160e01b03198616818301526001606082015290517fc6c2cef2fe1f0545b232744fc2812ca3a23cdb770794c9c7458ea69f6d9be7ff9181900360800190a15050506001600160a01b03928316600090815260d0602090815260408083209490951682529283528381206001600160e01b03199092168152915220805460ff19166001179055565b600054610100900460ff16158080156125175750600054600160ff909116105b806125315750303b158015612531575060005460ff166001145b6125a35760405162461bcd60e51b815260206004820152602e60248201527f496e697469616c697a61626c653a20636f6e747261637420697320616c72656160448201527f647920696e697469616c697a65640000000000000000000000000000000000006064820152608401610e4d565b6000805460ff1916600117905580156125c6576000805461ff0019166101001790555b6125ce612db0565b6125d6612e35565b6125e1600085612964565b61260b7f65d7a28e3265b37a6474929f336521b332c1681b933f6cb9f3376673440d862a85612964565b6126357f427da25fe773164f88948d3e215c94b6554e2ed5e5f203a821c9f2f6131cf75a85612964565b61265f7f61c92169ef077349011ff0b1383c894d86c5f0b41d986366b58a6cf31e93beda85612964565b60cc80546001600160a01b0380871673ffffffffffffffffffffffffffffffffffffffff199283161790925560cd80549286169290911691909117905560cf6126a88382613d85565b5080156122de576000805461ff0019169055604051600181527f7f26b83ff96e1f2b6a682f133852f6798a09c465da95921460cefb38474024989060200160405180910390a150505050565b60008281526097602052604090206001015461270f81612827565b610b018383612c9e565b612721612831565b6001600160a01b038216600090815260ca602090815260408083205433845260c990925290912080548391908390811061275d5761275d61400f565b9060005260206000209060020201600101908161277a9190613d85565b507f13bbfc66aca7f597c509c7eb717cafee4ae3fc31a77f4bbb22b333e81369276d3384846040516127ae93929190613e45565b60405180910390a1505050565b7f61c92169ef077349011ff0b1383c894d86c5f0b41d986366b58a6cf31e93beda6127e581612827565b60d15460408051918252602082018490527f41a6e3ea336979dfead544a7561ccbf3fbbbf13c4405cc4ce398afaebf4b1498910160405180910390a15060d155565b61109a8133612eb2565b60335460ff16156128845760405162461bcd60e51b815260206004820152601060248201527f5061757361626c653a20706175736564000000000000000000000000000000006044820152606401610e4d565b565b60ce546040517f4d756c74694163636f756e745f000000000000000000000000000000000000006020820152602d8101919091526000908190604d01604051602081830303815290604052805190602001209050600160ce60008282546128ed91906141a1565b909155505060cc5460cd54604080516001600160a01b03938416602082015230918101919091529116606082015260009060cf9060800160408051601f198184030181529082905261294292916020016141ce565b604051602081830303815290604052905061295d8183612f27565b9250505090565b60008281526097602090815260408083206001600160a01b038516845290915290205460ff166110645760008281526097602090815260408083206001600160a01b03851684529091529020805460ff191660011790556129c23390565b6001600160a01b0316816001600160a01b0316837f2f8788117e7eff1d82e926ec794901d17c78024a50270940304540a733656f0d60405160405180910390a45050565b6040516001600160a01b03808516602483015283166044820152606481018290526122de9085907f23b872dd00000000000000000000000000000000000000000000000000000000906084015b60408051601f198184030181529190526020810180516001600160e01b03166001600160e01b031990931692909217909152612fd2565b801580612b1d57506040517fdd62ed3e0000000000000000000000000000000000000000000000000000000081523060048201526001600160a01b03838116602483015284169063dd62ed3e90604401602060405180830381865afa158015612af7573d6000803e3d6000fd5b505050506040513d601f19601f82011682018060405250810190612b1b9190614255565b155b612b8f5760405162461bcd60e51b815260206004820152603660248201527f5361666545524332303a20617070726f76652066726f6d206e6f6e2d7a65726f60448201527f20746f206e6f6e2d7a65726f20616c6c6f77616e6365000000000000000000006064820152608401610e4d565b6040516001600160a01b038316602482015260448101829052610b019084907f095ea7b30000000000000000000000000000000000000000000000000000000090606401612a53565b600080836001600160a01b03166362dfbb2e846040518263ffffffff1660e01b8152600401612c079190613638565b6000604051808303816000875af1158015612c26573d6000803e3d6000fd5b505050506040513d6000823e601f3d908101601f19168201604052612c4e919081019061426e565b915091507f268e99f0b37c8146a6aea7c6af329e3924d9c92c4386be924c2990926d99b6613385858585604051612c899594939291906142fb565b60405180910390a1816122de57805160208201fd5b60008281526097602090815260408083206001600160a01b038516845290915290205460ff16156110645760008281526097602090815260408083206001600160a01b0385168085529252808320805460ff1916905551339285917ff6391f5c32d9c69d2a47ea670b442974b53935d1edc7fd64eb21e047a839171b9190a45050565b612d296130ba565b6033805460ff191690557f5db9ee0a495bf2e6ff9c91a7834c1ba4fdd244a5e8aa4e537bd38aeae4b073aa335b6040516001600160a01b03909116815260200160405180910390a1565b612d7b612831565b6033805460ff191660011790557f62e78cea01bee320cd4e420270b5ea74000d11b0c9f74754ebdbfc544b05a258612d563390565b600054610100900460ff16612e2d5760405162461bcd60e51b815260206004820152602b60248201527f496e697469616c697a61626c653a20636f6e7472616374206973206e6f74206960448201527f6e697469616c697a696e670000000000000000000000000000000000000000006064820152608401610e4d565b61288461310c565b600054610100900460ff166128845760405162461bcd60e51b815260206004820152602b60248201527f496e697469616c697a61626c653a20636f6e7472616374206973206e6f74206960448201527f6e697469616c697a696e670000000000000000000000000000000000000000006064820152608401610e4d565b60008281526097602090815260408083206001600160a01b038516845290915290205460ff1661106457612ee581613195565b612ef08360206131a7565b604051602001612f0192919061434d565b60408051601f198184030181529082905262461bcd60e51b8252610e4d91600401613638565b6000818351602085016000f590506001600160a01b038116612f8b5760405162461bcd60e51b815260206004820152601c60248201527f4d756c74694163636f756e743a2063726561746532206661696c6564000000006044820152606401610e4d565b604080513381526001600160a01b03831660208201527f6cbd957809e2aaf4d5e36136d06e71215f53a984b218c6d501e22f91d348d9ce910160405180910390a192915050565b6000613027826040518060400160405280602081526020017f5361666545524332303a206c6f772d6c6576656c2063616c6c206661696c6564815250856001600160a01b03166133d79092919063ffffffff16565b905080516000148061304857508080602001905181019061304891906143ce565b610b015760405162461bcd60e51b815260206004820152602a60248201527f5361666545524332303a204552433230206f7065726174696f6e20646964206e60448201527f6f742073756363656564000000000000000000000000000000000000000000006064820152608401610e4d565b60335460ff166128845760405162461bcd60e51b815260206004820152601460248201527f5061757361626c653a206e6f74207061757365640000000000000000000000006044820152606401610e4d565b600054610100900460ff166131895760405162461bcd60e51b815260206004820152602b60248201527f496e697469616c697a61626c653a20636f6e7472616374206973206e6f74206960448201527f6e697469616c697a696e670000000000000000000000000000000000000000006064820152608401610e4d565b6033805460ff19169055565b606061082a6001600160a01b03831660145b606060006131b6836002613fc3565b6131c19060026141a1565b67ffffffffffffffff8111156131d9576131d9613664565b6040519080825280601f01601f191660200182016040528015613203576020820181803683370190505b5090507f30000000000000000000000000000000000000000000000000000000000000008160008151811061323a5761323a61400f565b60200101907effffffffffffffffffffffffffffffffffffffffffffffffffffffffffffff1916908160001a9053507f78000000000000000000000000000000000000000000000000000000000000008160018151811061329d5761329d61400f565b60200101907effffffffffffffffffffffffffffffffffffffffffffffffffffffffffffff1916908160001a90535060006132d9846002613fc3565b6132e49060016141a1565b90505b6001811115613381577f303132333435363738396162636465660000000000000000000000000000000085600f16601081106133255761332561400f565b1a60f81b82828151811061333b5761333b61400f565b60200101907effffffffffffffffffffffffffffffffffffffffffffffffffffffffffffff1916908160001a90535060049490941c9361337a81614025565b90506132e7565b5083156133d05760405162461bcd60e51b815260206004820181905260248201527f537472696e67733a20686578206c656e67746820696e73756666696369656e746044820152606401610e4d565b9392505050565b60606133e684846000856133ee565b949350505050565b6060824710156134665760405162461bcd60e51b815260206004820152602660248201527f416464726573733a20696e73756666696369656e742062616c616e636520666f60448201527f722063616c6c00000000000000000000000000000000000000000000000000006064820152608401610e4d565b600080866001600160a01b0316858760405161348291906143eb565b60006040518083038185875af1925050503d80600081146134bf576040519150601f19603f3d011682016040523d82523d6000602084013e6134c4565b606091505b50915091506134d5878383876134e0565b979650505050505050565b6060831561354f578251600003613548576001600160a01b0385163b6135485760405162461bcd60e51b815260206004820152601d60248201527f416464726573733a2063616c6c20746f206e6f6e2d636f6e74726163740000006044820152606401610e4d565b50816133e6565b6133e683838151156135645781518083602001fd5b8060405162461bcd60e51b8152600401610e4d9190613638565b6001600160a01b038116811461109a57600080fd5b6000602082840312156135a557600080fd5b81356133d08161357e565b80356001600160e01b0319811681146135c857600080fd5b919050565b6000602082840312156135df57600080fd5b6133d0826135b0565b60005b838110156136035781810151838201526020016135eb565b50506000910152565b600081518084526136248160208601602086016135e8565b601f01601f19169290920160200192915050565b6020815260006133d0602083018461360c565b60006020828403121561365d57600080fd5b5035919050565b634e487b7160e01b600052604160045260246000fd5b604051601f8201601f1916810167ffffffffffffffff811182821017156136a3576136a3613664565b604052919050565b600067ffffffffffffffff8211156136c5576136c5613664565b50601f01601f191660200190565b600082601f8301126136e457600080fd5b81356136f76136f2826136ab565b61367a565b81815284602083860101111561370c57600080fd5b816020850160208301376000918101602001919091529392505050565b60006020828403121561373b57600080fd5b813567ffffffffffffffff81111561375257600080fd5b6133e6848285016136d3565b6000806040838503121561377157600080fd5b8235915060208301356137838161357e565b809150509250929050565b600080604083850312156137a157600080fd5b82356137ac8161357e565b946020939093013593505050565b600067ffffffffffffffff8211156137d4576137d4613664565b5060051b60200190565b600082601f8301126137ef57600080fd5b813560206137ff6136f2836137ba565b82815260059290921b8401810191818101908684111561381e57600080fd5b8286015b8481101561384057613833816135b0565b8352918301918301613822565b509695505050505050565b801515811461109a57600080fd5b6000806000806080858703121561386f57600080fd5b843561387a8161357e565b9350602085013561388a8161357e565b9250604085013567ffffffffffffffff8111156138a657600080fd5b6138b2878288016137de565b92505060608501356138c38161384b565b939692955090935050565b6000806000606084860312156138e357600080fd5b83356138ee8161357e565b925060208401356138fe8161357e565b9150604084013567ffffffffffffffff81111561391a57600080fd5b613926868287016137de565b9150509250925092565b6001600160a01b03831681526040602082015260006133e6604083018461360c565b600082601f83011261396357600080fd5b813560206139736136f2836137ba565b82815260059290921b8401810191818101908684111561399257600080fd5b8286015b8481101561384057803567ffffffffffffffff8111156139b65760008081fd5b6139c48986838b01016136d3565b845250918301918301613996565b600080600080608085870312156139e857600080fd5b843567ffffffffffffffff80821115613a0057600080fd5b613a0c888389016136d3565b955060208701359150613a1e8261357e565b90935060408601359080821115613a3457600080fd5b613a40888389016137de565b93506060870135915080821115613a5657600080fd5b50613a6387828801613952565b91505092959194509250565b600080600060608486031215613a8457600080fd5b8335613a8f8161357e565b95602085013595506040909401359392505050565b60006020808301818452808551808352604092508286019150828160051b87010184880160005b83811015613b31578883037fffffffffffffffffffffffffffffffffffffffffffffffffffffffffffffffc0018552815180516001600160a01b03168452870151878401879052613b1e8785018261360c565b9588019593505090860190600101613acb565b509098975050505050505050565b600080600060608486031215613b5457600080fd5b8335613b5f8161357e565b92506020840135613b6f8161357e565b9150613b7d604085016135b0565b90509250925092565b600080600060608486031215613b9b57600080fd5b8335613ba68161357e565b9250602084013591506040840135613bbd8161357e565b809150509250925092565b60008060408385031215613bdb57600080fd5b8235613be68161357e565b9150602083013567ffffffffffffffff811115613c0257600080fd5b613c0e85828601613952565b9150509250929050565b60008060008060808587031215613c2e57600080fd5b8435613c398161357e565b93506020850135613c498161357e565b9250613c57604086016135b0565b915060608501356138c38161384b565b600080600060608486031215613c7c57600080fd5b8335613c878161357e565b92506020840135613c978161357e565b9150604084013567ffffffffffffffff811115613cb357600080fd5b613926868287016136d3565b60008060408385031215613cd257600080fd5b8235613cdd8161357e565b9150602083013567ffffffffffffffff811115613cf957600080fd5b613c0e858286016136d3565b600181811c90821680613d1957607f821691505b602082108103613d3957634e487b7160e01b600052602260045260246000fd5b50919050565b601f821115610b0157600081815260208120601f850160051c81016020861015613d665750805b601f850160051c820191505b8181101561214157828155600101613d72565b815167ffffffffffffffff811115613d9f57613d9f613664565b613db381613dad8454613d05565b84613d3f565b602080601f831160018114613de85760008415613dd05750858301515b600019600386901b1c1916600185901b178555612141565b600085815260208120601f198616915b82811015613e1757888601518255948401946001909101908401613df8565b5085821015613e355787850151600019600388901b60f8161c191681555b5050505050600190811b01905550565b60006001600160a01b03808616835280851660208401525060606040830152613e71606083018461360c565b95945050505050565b600060208284031215613e8c57600080fd5b81516133d08161357e565b600060208284031215613ea957600080fd5b815160ff811681146133d057600080fd5b634e487b7160e01b600052601160045260246000fd5b600181815b80851115613f0b578160001904821115613ef157613ef1613eba565b80851615613efe57918102915b93841c9390800290613ed5565b509250929050565b600082613f225750600161082a565b81613f2f5750600061082a565b8160018114613f455760028114613f4f57613f6b565b600191505061082a565b60ff841115613f6057613f60613eba565b50506001821b61082a565b5060208310610133831016604e8410600b8410161715613f8e575081810a61082a565b613f988383613ed0565b8060001904821115613fac57613fac613eba565b029392505050565b60006133d060ff841683613f13565b808202811582820484141761082a5761082a613eba565b600082613ff757634e487b7160e01b600052601260045260246000fd5b500490565b8181038181111561082a5761082a613eba565b634e487b7160e01b600052603260045260246000fd5b60008161403457614034613eba565b506000190190565b600081518084526020808501945080840160005b838110156140765781516001600160e01b03191687529582019590820190600101614050565b509495945050505050565b60006001600160a01b038087168352808616602084015250608060408301526140ad608083018561403c565b9050821515606083015295945050505050565b60006001600160a01b03808616835280851660208401525060606040830152613e71606083018461403c565b6040815260008084546140fe81613d05565b8060408601526060600180841660008114614120576001811461413a5761416b565b60ff198516838901528284151560051b890101955061416b565b8960005260208060002060005b868110156141625781548b8201870152908401908201614147565b8a018501975050505b50505050508281036020840152613e71818561360c565b600060ff821660ff810361419857614198613eba565b60010192915050565b8082018082111561082a5761082a613eba565b600060001982036141c7576141c7613eba565b5060010190565b60008084546141dc81613d05565b600182811680156141f4576001811461420957614238565b60ff1984168752821515830287019450614238565b8860005260208060002060005b8581101561422f5781548a820152908401908201614216565b50505082870194505b50505050835161424c8183602088016135e8565b01949350505050565b60006020828403121561426757600080fd5b5051919050565b6000806040838503121561428157600080fd5b825161428c8161384b565b602084015190925067ffffffffffffffff8111156142a957600080fd5b8301601f810185136142ba57600080fd5b80516142c86136f2826136ab565b8181528660208385010111156142dd57600080fd5b6142ee8260208301602086016135e8565b8093505050509250929050565b60006001600160a01b03808816835280871660208401525060a0604083015261432760a083018661360c565b84151560608401528281036080840152614341818561360c565b98975050505050505050565b7f416363657373436f6e74726f6c3a206163636f756e74200000000000000000008152600083516143858160178501602088016135e8565b7f206973206d697373696e6720726f6c652000000000000000000000000000000060179184019182015283516143c28160288401602088016135e8565b01602801949350505050565b6000602082840312156143e057600080fd5b81516133d08161384b565b600082516143fd8184602087016135e8565b919091019291505056fea2646970667358221220cc6f8cd95136dbe8ebcc4f27470f019f45f14103186bc32b45c276ddb3bd274864736f6c63430008120033",
  "linkReferences": {},
  "deployedLinkReferences": {}
}