{
  "_format": "hh-sol-artifact-1",
  "contractName": "MultiAccount",
  "sourceName": "contracts/MultiAccount.sol",
  "abi": [
    {
      "inputs": [],
      "stateMutability": "nonpayable",
      "type": "constructor"
    },
    {
      "anonymous": false,
      "inputs": [
        {
          "indexed": false,
          "internalType": "address",
          "name": "user",
          "type": "address"
        },
        {
          "indexed": false,
          "internalType": "address",
          "name": "account",
          "type": "address"
        },
        {
          "indexed": false,
          "internalType": "string",
          "name": "name",
          "type": "string"
        }
      ],
      "name": "AddAccount",
      "type": "event"
    },
    {
      "anonymous": false,
      "inputs": [
        {
          "indexed": false,
          "internalType": "address",
          "name": "user",
          "type": "address"
        },
        {
          "indexed": false,
          "internalType": "address",
          "name": "account",
          "type": "address"
        },
        {
          "indexed": false,
          "internalType": "uint256",
          "name": "amount",
          "type": "uint256"
        }
      ],
      "name": "AllocateForAccount",
      "type": "event"
    },
    {
      "anonymous": false,
      "inputs": [
        {
          "indexed": false,
          "internalType": "address",
          "name": "user",
          "type": "address"
        },
        {
          "indexed": false,
          "internalType": "address",
          "name": "account",
          "type": "address"
        },
        {
          "indexed": false,
          "internalType": "bytes",
          "name": "_callData",
          "type": "bytes"
        },
        {
          "indexed": false,
          "internalType": "bool",
          "name": "_success",
          "type": "bool"
        },
        {
          "indexed": false,
          "internalType": "bytes",
          "name": "_resultData",
          "type": "bytes"
        }
      ],
      "name": "Call",
      "type": "event"
    },
    {
      "anonymous": false,
      "inputs": [
        {
          "indexed": false,
          "internalType": "address",
          "name": "account",
          "type": "address"
        },
        {
          "indexed": false,
          "internalType": "address",
          "name": "target",
          "type": "address"
        },
        {
          "indexed": false,
          "internalType": "bytes4",
          "name": "selector",
          "type": "bytes4"
        },
        {
          "indexed": false,
          "internalType": "bool",
          "name": "state",
          "type": "bool"
        }
      ],
      "name": "DelegateAccess",
      "type": "event"
    },
    {
      "anonymous": false,
      "inputs": [
        {
          "indexed": false,
          "internalType": "address",
          "name": "account",
          "type": "address"
        },
        {
          "indexed": false,
          "internalType": "address",
          "name": "target",
          "type": "address"
        },
        {
          "indexed": false,
          "internalType": "bytes4[]",
          "name": "selector",
          "type": "bytes4[]"
        },
        {
          "indexed": false,
          "internalType": "bool",
          "name": "state",
          "type": "bool"
        }
      ],
      "name": "DelegateAccesses",
      "type": "event"
    },
    {
      "anonymous": false,
      "inputs": [
        {
          "indexed": false,
          "internalType": "address",
          "name": "sender",
          "type": "address"
        },
        {
          "indexed": false,
          "internalType": "address",
          "name": "contractAddress",
          "type": "address"
        }
      ],
      "name": "DeployContract",
      "type": "event"
    },
    {
      "anonymous": false,
      "inputs": [
        {
          "indexed": false,
          "internalType": "address",
          "name": "user",
          "type": "address"
        },
        {
          "indexed": false,
          "internalType": "address",
          "name": "account",
          "type": "address"
        },
        {
          "indexed": false,
          "internalType": "uint256",
          "name": "amount",
          "type": "uint256"
        }
      ],
      "name": "DepositForAccount",
      "type": "event"
    },
    {
      "anonymous": false,
      "inputs": [
        {
          "indexed": false,
          "internalType": "address",
          "name": "user",
          "type": "address"
        },
        {
          "indexed": false,
          "internalType": "address",
          "name": "account",
          "type": "address"
        },
        {
          "indexed": false,
          "internalType": "string",
          "name": "newName",
          "type": "string"
        }
      ],
      "name": "EditAccountName",
      "type": "event"
    },
    {
      "anonymous": false,
      "inputs": [
        {
          "indexed": false,
          "internalType": "uint8",
          "name": "version",
          "type": "uint8"
        }
      ],
      "name": "Initialized",
      "type": "event"
    },
    {
      "anonymous": false,
      "inputs": [
        {
          "indexed": false,
          "internalType": "address",
          "name": "account",
          "type": "address"
        }
      ],
      "name": "Paused",
      "type": "event"
    },
    {
      "anonymous": false,
      "inputs": [
        {
          "indexed": false,
          "internalType": "address",
          "name": "account",
          "type": "address"
        },
        {
          "indexed": false,
          "internalType": "address",
          "name": "target",
          "type": "address"
        },
        {
          "indexed": false,
          "internalType": "bytes4[]",
          "name": "selector",
          "type": "bytes4[]"
        }
      ],
      "name": "ProposeToRevokeAccesses",
      "type": "event"
    },
    {
      "anonymous": false,
      "inputs": [
        {
          "indexed": true,
          "internalType": "bytes32",
          "name": "role",
          "type": "bytes32"
        },
        {
          "indexed": true,
          "internalType": "bytes32",
          "name": "previousAdminRole",
          "type": "bytes32"
        },
        {
          "indexed": true,
          "internalType": "bytes32",
          "name": "newAdminRole",
          "type": "bytes32"
        }
      ],
      "name": "RoleAdminChanged",
      "type": "event"
    },
    {
      "anonymous": false,
      "inputs": [
        {
          "indexed": true,
          "internalType": "bytes32",
          "name": "role",
          "type": "bytes32"
        },
        {
          "indexed": true,
          "internalType": "address",
          "name": "account",
          "type": "address"
        },
        {
          "indexed": true,
          "internalType": "address",
          "name": "sender",
          "type": "address"
        }
      ],
      "name": "RoleGranted",
      "type": "event"
    },
    {
      "anonymous": false,
      "inputs": [
        {
          "indexed": true,
          "internalType": "bytes32",
          "name": "role",
          "type": "bytes32"
        },
        {
          "indexed": true,
          "internalType": "address",
          "name": "account",
          "type": "address"
        },
        {
          "indexed": true,
          "internalType": "address",
          "name": "sender",
          "type": "address"
        }
      ],
      "name": "RoleRevoked",
      "type": "event"
    },
    {
      "anonymous": false,
      "inputs": [
        {
          "indexed": false,
          "internalType": "bytes",
          "name": "oldAddress",
          "type": "bytes"
        },
        {
          "indexed": false,
          "internalType": "bytes",
          "name": "newAddress",
          "type": "bytes"
        }
      ],
      "name": "SetAccountImplementation",
      "type": "event"
    },
    {
      "anonymous": false,
      "inputs": [
        {
          "indexed": false,
          "internalType": "address",
          "name": "oldAccountAdmin",
          "type": "address"
        },
        {
          "indexed": false,
          "internalType": "address",
          "name": "newAccountAdmin",
          "type": "address"
        }
      ],
      "name": "SetAccountsAdmin",
      "type": "event"
    },
    {
      "anonymous": false,
      "inputs": [
        {
          "indexed": false,
          "internalType": "uint256",
          "name": "oldCooldown",
          "type": "uint256"
        },
        {
          "indexed": false,
          "internalType": "uint256",
          "name": "newCooldown",
          "type": "uint256"
        }
      ],
      "name": "SetRevokeCooldown",
      "type": "event"
    },
    {
      "anonymous": false,
      "inputs": [
        {
          "indexed": false,
          "internalType": "address",
          "name": "oldAddress",
          "type": "address"
        },
        {
          "indexed": false,
          "internalType": "address",
          "name": "newAddress",
          "type": "address"
        }
      ],
      "name": "SetSymmioAddress",
      "type": "event"
    },
    {
      "anonymous": false,
      "inputs": [
        {
          "indexed": false,
          "internalType": "address",
          "name": "account",
          "type": "address"
        }
      ],
      "name": "Unpaused",
      "type": "event"
    },
    {
      "anonymous": false,
      "inputs": [
        {
          "indexed": false,
          "internalType": "address",
          "name": "user",
          "type": "address"
        },
        {
          "indexed": false,
          "internalType": "address",
          "name": "account",
          "type": "address"
        },
        {
          "indexed": false,
          "internalType": "uint256",
          "name": "amount",
          "type": "uint256"
        }
      ],
      "name": "WithdrawFromAccount",
      "type": "event"
    },
    {
      "inputs": [],
      "name": "DEFAULT_ADMIN_ROLE",
      "outputs": [
        {
          "internalType": "bytes32",
          "name": "",
          "type": "bytes32"
        }
      ],
      "stateMutability": "view",
      "type": "function"
    },
    {
      "inputs": [],
      "name": "PAUSER_ROLE",
      "outputs": [
        {
          "internalType": "bytes32",
          "name": "",
          "type": "bytes32"
        }
      ],
      "stateMutability": "view",
      "type": "function"
    },
    {
      "inputs": [],
      "name": "SETTER_ROLE",
      "outputs": [
        {
          "internalType": "bytes32",
          "name": "",
          "type": "bytes32"
        }
      ],
      "stateMutability": "view",
      "type": "function"
    },
    {
      "inputs": [],
      "name": "UNPAUSER_ROLE",
      "outputs": [
        {
          "internalType": "bytes32",
          "name": "",
          "type": "bytes32"
        }
      ],
      "stateMutability": "view",
      "type": "function"
    },
    {
      "inputs": [
        {
          "internalType": "address",
          "name": "account",
          "type": "address"
        },
        {
          "internalType": "bytes[]",
          "name": "_callDatas",
          "type": "bytes[]"
        }
      ],
      "name": "_call",
      "outputs": [],
      "stateMutability": "nonpayable",
      "type": "function"
    },
    {
      "inputs": [],
      "name": "accountImplementation",
      "outputs": [
        {
          "internalType": "bytes",
          "name": "",
          "type": "bytes"
        }
      ],
      "stateMutability": "view",
      "type": "function"
    },
    {
      "inputs": [
        {
          "internalType": "address",
          "name": "",
          "type": "address"
        },
        {
          "internalType": "uint256",
          "name": "",
          "type": "uint256"
        }
      ],
      "name": "accounts",
      "outputs": [
        {
          "internalType": "address",
          "name": "accountAddress",
          "type": "address"
        },
        {
          "internalType": "string",
          "name": "name",
          "type": "string"
        }
      ],
      "stateMutability": "view",
      "type": "function"
    },
    {
      "inputs": [],
      "name": "accountsAdmin",
      "outputs": [
        {
          "internalType": "address",
          "name": "",
          "type": "address"
        }
      ],
      "stateMutability": "view",
      "type": "function"
    },
    {
      "inputs": [
        {
          "internalType": "string",
          "name": "name",
          "type": "string"
        }
      ],
      "name": "addAccount",
      "outputs": [],
      "stateMutability": "nonpayable",
      "type": "function"
    },
    {
      "inputs": [
        {
          "internalType": "string",
          "name": "name",
          "type": "string"
        },
        {
          "internalType": "address",
          "name": "target",
          "type": "address"
        },
        {
          "internalType": "bytes4[]",
          "name": "selector",
          "type": "bytes4[]"
        },
        {
          "internalType": "bytes[]",
          "name": "_callDatas",
          "type": "bytes[]"
        }
      ],
      "name": "addAccountDelegateAccessAndCall",
      "outputs": [
        {
          "internalType": "address",
          "name": "account",
          "type": "address"
        }
      ],
      "stateMutability": "nonpayable",
      "type": "function"
    },
    {
      "inputs": [
        {
          "internalType": "address",
          "name": "account",
          "type": "address"
        },
        {
          "internalType": "address",
          "name": "target",
          "type": "address"
        },
        {
          "internalType": "bytes4",
          "name": "selector",
          "type": "bytes4"
        },
        {
          "internalType": "bool",
          "name": "state",
          "type": "bool"
        }
      ],
      "name": "delegateAccess",
      "outputs": [],
      "stateMutability": "nonpayable",
      "type": "function"
    },
    {
      "inputs": [
        {
          "internalType": "address",
          "name": "account",
          "type": "address"
        },
        {
          "internalType": "address",
          "name": "target",
          "type": "address"
        },
        {
          "internalType": "bytes4[]",
          "name": "selector",
          "type": "bytes4[]"
        },
        {
          "internalType": "bool",
          "name": "state",
          "type": "bool"
        }
      ],
      "name": "delegateAccesses",
      "outputs": [],
      "stateMutability": "nonpayable",
      "type": "function"
    },
    {
      "inputs": [
        {
          "internalType": "address",
          "name": "",
          "type": "address"
        },
        {
          "internalType": "address",
          "name": "",
          "type": "address"
        },
        {
          "internalType": "bytes4",
          "name": "",
          "type": "bytes4"
        }
      ],
      "name": "delegatedAccesses",
      "outputs": [
        {
          "internalType": "bool",
          "name": "",
          "type": "bool"
        }
      ],
      "stateMutability": "view",
      "type": "function"
    },
    {
      "inputs": [
        {
          "internalType": "address",
          "name": "account",
          "type": "address"
        },
        {
          "internalType": "uint256",
          "name": "amount",
          "type": "uint256"
        }
      ],
      "name": "depositAndAllocateForAccount",
      "outputs": [],
      "stateMutability": "nonpayable",
      "type": "function"
    },
    {
      "inputs": [
        {
          "internalType": "address",
          "name": "account",
          "type": "address"
        },
        {
          "internalType": "uint256",
          "name": "amount",
          "type": "uint256"
        }
      ],
      "name": "depositForAccount",
      "outputs": [],
      "stateMutability": "nonpayable",
      "type": "function"
    },
    {
      "inputs": [
        {
          "internalType": "address",
          "name": "accountAddress",
          "type": "address"
        },
        {
          "internalType": "string",
          "name": "name",
          "type": "string"
        }
      ],
      "name": "editAccountName",
      "outputs": [],
      "stateMutability": "nonpayable",
      "type": "function"
    },
    {
      "inputs": [
        {
          "internalType": "address",
          "name": "user",
          "type": "address"
        },
        {
          "internalType": "uint256",
          "name": "start",
          "type": "uint256"
        },
        {
          "internalType": "uint256",
          "name": "size",
          "type": "uint256"
        }
      ],
      "name": "getAccounts",
      "outputs": [
        {
          "components": [
            {
              "internalType": "address",
              "name": "accountAddress",
              "type": "address"
            },
            {
              "internalType": "string",
              "name": "name",
              "type": "string"
            }
          ],
          "internalType": "struct IMultiAccount.Account[]",
          "name": "",
          "type": "tuple[]"
        }
      ],
      "stateMutability": "view",
      "type": "function"
    },
    {
      "inputs": [
        {
          "internalType": "address",
          "name": "user",
          "type": "address"
        }
      ],
      "name": "getAccountsLength",
      "outputs": [
        {
          "internalType": "uint256",
          "name": "",
          "type": "uint256"
        }
      ],
      "stateMutability": "view",
      "type": "function"
    },
    {
      "inputs": [
        {
          "internalType": "bytes32",
          "name": "role",
          "type": "bytes32"
        }
      ],
      "name": "getRoleAdmin",
      "outputs": [
        {
          "internalType": "bytes32",
          "name": "",
          "type": "bytes32"
        }
      ],
      "stateMutability": "view",
      "type": "function"
    },
    {
      "inputs": [
        {
          "internalType": "bytes32",
          "name": "role",
          "type": "bytes32"
        },
        {
          "internalType": "address",
          "name": "account",
          "type": "address"
        }
      ],
      "name": "grantRole",
      "outputs": [],
      "stateMutability": "nonpayable",
      "type": "function"
    },
    {
      "inputs": [
        {
          "internalType": "bytes32",
          "name": "role",
          "type": "bytes32"
        },
        {
          "internalType": "address",
          "name": "account",
          "type": "address"
        }
      ],
      "name": "hasRole",
      "outputs": [
        {
          "internalType": "bool",
          "name": "",
          "type": "bool"
        }
      ],
      "stateMutability": "view",
      "type": "function"
    },
    {
      "inputs": [
        {
          "internalType": "address",
          "name": "",
          "type": "address"
        }
      ],
      "name": "indexOfAccount",
      "outputs": [
        {
          "internalType": "uint256",
          "name": "",
          "type": "uint256"
        }
      ],
      "stateMutability": "view",
      "type": "function"
    },
    {
      "inputs": [
        {
          "internalType": "address",
          "name": "admin",
          "type": "address"
        },
        {
          "internalType": "address",
          "name": "symmioAddress_",
          "type": "address"
        },
        {
          "internalType": "bytes",
          "name": "accountImplementation_",
          "type": "bytes"
        }
      ],
      "name": "initialize",
      "outputs": [],
      "stateMutability": "nonpayable",
      "type": "function"
    },
    {
      "inputs": [
        {
          "internalType": "address",
          "name": "",
          "type": "address"
        }
      ],
      "name": "owners",
      "outputs": [
        {
          "internalType": "address",
          "name": "",
          "type": "address"
        }
      ],
      "stateMutability": "view",
      "type": "function"
    },
    {
      "inputs": [],
      "name": "pause",
      "outputs": [],
      "stateMutability": "nonpayable",
      "type": "function"
    },
    {
      "inputs": [],
      "name": "paused",
      "outputs": [
        {
          "internalType": "bool",
          "name": "",
          "type": "bool"
        }
      ],
      "stateMutability": "view",
      "type": "function"
    },
    {
      "inputs": [
        {
          "internalType": "address",
          "name": "account",
          "type": "address"
        },
        {
          "internalType": "address",
          "name": "target",
          "type": "address"
        },
        {
          "internalType": "bytes4[]",
          "name": "selector",
          "type": "bytes4[]"
        }
      ],
      "name": "proposeToRevokeAccesses",
      "outputs": [],
      "stateMutability": "nonpayable",
      "type": "function"
    },
    {
      "inputs": [
        {
          "internalType": "bytes32",
          "name": "role",
          "type": "bytes32"
        },
        {
          "internalType": "address",
          "name": "account",
          "type": "address"
        }
      ],
      "name": "renounceRole",
      "outputs": [],
      "stateMutability": "nonpayable",
      "type": "function"
    },
    {
      "inputs": [
        {
          "internalType": "address",
          "name": "account",
          "type": "address"
        },
        {
          "internalType": "address",
          "name": "target",
          "type": "address"
        },
        {
          "internalType": "bytes4[]",
          "name": "selector",
          "type": "bytes4[]"
        }
      ],
      "name": "revokeAccesses",
      "outputs": [],
      "stateMutability": "nonpayable",
      "type": "function"
    },
    {
      "inputs": [],
      "name": "revokeCooldown",
      "outputs": [
        {
          "internalType": "uint256",
          "name": "",
          "type": "uint256"
        }
      ],
      "stateMutability": "view",
      "type": "function"
    },
    {
      "inputs": [
        {
          "internalType": "address",
          "name": "",
          "type": "address"
        },
        {
          "internalType": "address",
          "name": "",
          "type": "address"
        },
        {
          "internalType": "bytes4",
          "name": "",
          "type": "bytes4"
        }
      ],
      "name": "revokeProposalTimestamp",
      "outputs": [
        {
          "internalType": "uint256",
          "name": "",
          "type": "uint256"
        }
      ],
      "stateMutability": "view",
      "type": "function"
    },
    {
      "inputs": [
        {
          "internalType": "bytes32",
          "name": "role",
          "type": "bytes32"
        },
        {
          "internalType": "address",
          "name": "account",
          "type": "address"
        }
      ],
      "name": "revokeRole",
      "outputs": [],
      "stateMutability": "nonpayable",
      "type": "function"
    },
    {
      "inputs": [],
      "name": "saltCounter",
      "outputs": [
        {
          "internalType": "uint256",
          "name": "",
          "type": "uint256"
        }
      ],
      "stateMutability": "view",
      "type": "function"
    },
    {
      "inputs": [
        {
          "internalType": "bytes",
          "name": "accountImplementation_",
          "type": "bytes"
        }
      ],
      "name": "setAccountImplementation",
      "outputs": [],
      "stateMutability": "nonpayable",
      "type": "function"
    },
    {
      "inputs": [
        {
          "internalType": "address",
          "name": "accountsAdmin_",
          "type": "address"
        }
      ],
      "name": "setAccountsAdmin",
      "outputs": [],
      "stateMutability": "nonpayable",
      "type": "function"
    },
    {
      "inputs": [
        {
          "internalType": "uint256",
          "name": "cooldown",
          "type": "uint256"
        }
      ],
      "name": "setRevokeCooldown",
      "outputs": [],
      "stateMutability": "nonpayable",
      "type": "function"
    },
    {
      "inputs": [
        {
          "internalType": "address",
          "name": "addr",
          "type": "address"
        }
      ],
      "name": "setSymmioAddress",
      "outputs": [],
      "stateMutability": "nonpayable",
      "type": "function"
    },
    {
      "inputs": [
        {
          "internalType": "bytes4",
          "name": "interfaceId",
          "type": "bytes4"
        }
      ],
      "name": "supportsInterface",
      "outputs": [
        {
          "internalType": "bool",
          "name": "",
          "type": "bool"
        }
      ],
      "stateMutability": "view",
      "type": "function"
    },
    {
      "inputs": [],
      "name": "symmioAddress",
      "outputs": [
        {
          "internalType": "address",
          "name": "",
          "type": "address"
        }
      ],
      "stateMutability": "view",
      "type": "function"
    },
    {
      "inputs": [],
      "name": "unpause",
      "outputs": [],
      "stateMutability": "nonpayable",
      "type": "function"
    },
    {
      "inputs": [
        {
          "internalType": "address",
          "name": "account",
          "type": "address"
        },
        {
          "internalType": "uint256",
          "name": "amount",
          "type": "uint256"
        }
      ],
      "name": "withdrawFromAccount",
      "outputs": [],
      "stateMutability": "nonpayable",
      "type": "function"
    }
  ],
  "bytecode": "0x60806040523480156200001157600080fd5b506200001c62000022565b620000e3565b600054610100900460ff16156200008f5760405162461bcd60e51b815260206004820152602760248201527f496e697469616c697a61626c653a20636f6e747261637420697320696e697469604482015266616c697a696e6760c81b606482015260840160405180910390fd5b60005460ff90811614620000e1576000805460ff191660ff9081179091556040519081527f7f26b83ff96e1f2b6a682f133852f6798a09c465da95921460cefb38474024989060200160405180910390a15b565b61426f80620000f36000396000f3fe608060405234801561001057600080fd5b50600436106102d35760003560e01c80638b5afd2b11610186578063a58c99d7116100e3578063d547741f11610097578063f462e68211610071578063f462e682146106a7578063f7420276146106b0578063fb1bb9de146106c357600080fd5b8063d547741f1461065a578063d9c2337c1461066d578063e63ab1e91461068057600080fd5b8063bd367d8e116100c8578063bd367d8e14610621578063c110221414610634578063cf7a1d771461064757600080fd5b8063a58c99d7146105da578063b9c9b3f2146105ed57600080fd5b806395d4609d1161013a578063a04c68091161011f578063a04c6809146105a2578063a2011b3f146105ab578063a217fddf146105d257600080fd5b806395d4609d146105515780639b0c03de1461058257600080fd5b806391d148541161016b57806391d14854146104e557806394aee4221461051e57806395c7d0ec1461053157600080fd5b80638b5afd2b146104a95780639181b74b146104d257600080fd5b806336568abe116102345780636a29dfbf116101e857806382a7e533116101cd57806382a7e5331461046d5780638456cb5914610480578063875245811461048857600080fd5b80636a29dfbf146104475780637278b28f1461045a57600080fd5b80633f4ba83a116102195780633f4ba83a146104215780634ebabea1146104295780635c975abb1461043c57600080fd5b806336568abe146103fb57806337f93b081461040e57600080fd5b8063288409bb1161028b5780632f2ff15d116102705780632f2ff15d146103c257806331e69d2d146103d5578063342fcda9146103e857600080fd5b8063288409bb1461039c5780632ad26a04146103af57600080fd5b8063022914a7116102bc578063022914a71461031557806311464fbe14610356578063248a9ca31461036b57600080fd5b806301569e3a146102d857806301ffc9a7146102ed575b600080fd5b6102eb6102e63660046133ff565b6106ea565b005b6103006102fb366004613439565b61078b565b60405190151581526020015b60405180910390f35b61033e6103233660046133ff565b60cb602052600090815260409020546001600160a01b031681565b6040516001600160a01b03909116815260200161030c565b61035e6107f4565b60405161030c91906134a4565b61038e6103793660046134b7565b60009081526097602052604090206001015490565b60405190815260200161030c565b6102eb6103aa3660046133ff565b610882565b6102eb6103bd366004613595565b610904565b6102eb6103d03660046135ca565b610a1e565b6102eb6103e33660046135fa565b610a48565b6102eb6103f63660046135fa565b610d99565b6102eb6104093660046135ca565b610fab565b60cc5461033e906001600160a01b031681565b6102eb611037565b6102eb6104373660046136c5565b61106c565b60335460ff16610300565b6102eb61045536600461373a565b6112b6565b60cd5461033e906001600160a01b031681565b6102eb61047b366004613595565b611467565b6102eb6114d7565b61049b6104963660046135fa565b611509565b60405161030c92919061379c565b61038e6104b73660046133ff565b6001600160a01b0316600090815260c9602052604090205490565b61033e6104e036600461383e565b6115d9565b6103006104f33660046135ca565b60009182526097602090815260408084206001600160a01b0393909316845291905290205460ff1690565b6102eb61052c3660046135fa565b611886565b61054461053f3660046138db565b6119d0565b60405161030c9190613910565b61038e61055f3660046139ab565b60d260209081526000938452604080852082529284528284209052825290205481565b61038e6105903660046133ff565b60ca6020526000908152604090205481565b61038e60ce5481565b61038e7f61c92169ef077349011ff0b1383c894d86c5f0b41d986366b58a6cf31e93beda81565b61038e600081565b6102eb6105e836600461373a565b611bd1565b6103006105fb3660046139ab565b60d060209081526000938452604080852082529284528284209052825290205460ff1681565b6102eb61062f3660046139f2565b611fce565b6102eb610642366004613a42565b612150565b6102eb610655366004613a91565b612363565b6102eb6106683660046135ca565b612560565b6102eb61067b366004613ae9565b612585565b61038e7f65d7a28e3265b37a6474929f336521b332c1681b933f6cb9f3376673440d862a81565b61038e60d15481565b6102eb6106be3660046134b7565b612627565b61038e7f427da25fe773164f88948d3e215c94b6554e2ed5e5f203a821c9f2f6131cf75a81565b7f61c92169ef077349011ff0b1383c894d86c5f0b41d986366b58a6cf31e93beda61071481612693565b60cd54604080516001600160a01b03928316815291841660208301527ff78ccdf5924090b2ab6627ac5da4ec5affed73d47c6bc6c8a4620a0d5ed57bc8910160405180910390a15060cd805473ffffffffffffffffffffffffffffffffffffffff19166001600160a01b0392909216919091179055565b60006001600160e01b031982167f7965db0b0000000000000000000000000000000000000000000000000000000014806107ee57507f01ffc9a7000000000000000000000000000000000000000000000000000000006001600160e01b03198316145b92915050565b60cf805461080190613b2f565b80601f016020809104026020016040519081016040528092919081815260200182805461082d90613b2f565b801561087a5780601f1061084f5761010080835404028352916020019161087a565b820191906000526020600020905b81548152906001019060200180831161085d57829003601f168201915b505050505081565b600061088d81612693565b60cc54604080516001600160a01b03928316815291841660208301527fc0c0a485d5a9547b687095c9652fe0811abc1379aa253cc64a91be08804b8956910160405180910390a15060cc805473ffffffffffffffffffffffffffffffffffffffff19166001600160a01b0392909216919091179055565b61090c61269d565b60006109166126f2565b33600090815260c96020818152604080842080546001600160a01b0387811680885260ca8652848820839055958552835180850190945294835282840189815260018083018455928752939095208251600290960201805473ffffffffffffffffffffffffffffffffffffffff19169590941694909417835590519394509290918201906109a49082613bb7565b5050506001600160a01b038116600090815260cb602052604090819020805473ffffffffffffffffffffffffffffffffffffffff19163390811790915590517f1deb86e124d1a5f3b49977292b48e989b984bcd8944cfb14d63c8880482f2cff91610a129184908690613c77565b60405180910390a15050565b600082815260976020526040902060010154610a3981612693565b610a4383836127d0565b505050565b6001600160a01b03808316600090815260cb602052604090205483913391168114610ace5760405162461bcd60e51b815260206004820152602b60248201527f4d756c74694163636f756e743a2053656e6465722069736e2774206f776e657260448201526a081bd9881858d8dbdd5b9d60aa1b60648201526084015b60405180910390fd5b610ad661269d565b60cd54604080517f5c1548fb00000000000000000000000000000000000000000000000000000000815290516000926001600160a01b031691635c1548fb9160048083019260209291908290030181865afa158015610b39573d6000803e3d6000fd5b505050506040513d601f19601f82011682018060405250810190610b5d9190613cac565b9050610b746001600160a01b038216333087612872565b60cd54610b8e906001600160a01b038381169116866128f6565b60cd546040517f2f4f21e20000000000000000000000000000000000000000000000000000000081526001600160a01b0387811660048301526024820187905290911690632f4f21e290604401600060405180830381600087803b158015610bf557600080fd5b505af1158015610c09573d6000803e3d6000fd5b505050506000816001600160a01b031663313ce5676040518163ffffffff1660e01b8152600401602060405180830381865afa158015610c4d573d6000803e3d6000fd5b505050506040513d601f19601f82011682018060405250810190610c719190613cc9565b610c7c90600a613de6565b610c8e86670de0b6b3a7640000613df5565b610c989190613e0c565b9050600081604051602401610caf91815260200190565b60408051601f198184030181529190526020810180516001600160e01b03167f90ca796b000000000000000000000000000000000000000000000000000000001790529050610cfe8782612a44565b604080513381526001600160a01b03891660208201529081018790527fb92f7c65176e3a873589352927ba42330e95085f34ab1a9721f2135b94a518839060600160405180910390a1604080513381526001600160a01b03891660208201529081018390527f13b84d799b5b8b235eafe52313197bb3dbf3d5c36c2ac0b62e4c45cc4d3a958e9060600160405180910390a150505050505050565b6001600160a01b03808316600090815260cb602052604090205483913391168114610e1a5760405162461bcd60e51b815260206004820152602b60248201527f4d756c74694163636f756e743a2053656e6465722069736e2774206f776e657260448201526a081bd9881858d8dbdd5b9d60aa1b6064820152608401610ac5565b610e2261269d565b60cd54604080517f5c1548fb00000000000000000000000000000000000000000000000000000000815290516000926001600160a01b031691635c1548fb9160048083019260209291908290030181865afa158015610e85573d6000803e3d6000fd5b505050506040513d601f19601f82011682018060405250810190610ea99190613cac565b9050610ec06001600160a01b038216333087612872565b60cd54610eda906001600160a01b038381169116866128f6565b60cd546040517f2f4f21e20000000000000000000000000000000000000000000000000000000081526001600160a01b0387811660048301526024820187905290911690632f4f21e290604401600060405180830381600087803b158015610f4157600080fd5b505af1158015610f55573d6000803e3d6000fd5b5050604080513381526001600160a01b03891660208201529081018790527fb92f7c65176e3a873589352927ba42330e95085f34ab1a9721f2135b94a51883925060600190505b60405180910390a15050505050565b6001600160a01b03811633146110295760405162461bcd60e51b815260206004820152602f60248201527f416363657373436f6e74726f6c3a2063616e206f6e6c792072656e6f756e636560448201527f20726f6c657320666f722073656c6600000000000000000000000000000000006064820152608401610ac5565b6110338282612b0a565b5050565b7f427da25fe773164f88948d3e215c94b6554e2ed5e5f203a821c9f2f6131cf75a61106181612693565b611069612b8d565b50565b6001600160a01b03808516600090815260cb6020526040902054859133911681146110ed5760405162461bcd60e51b815260206004820152602b60248201527f4d756c74694163636f756e743a2053656e6465722069736e2774206f776e657260448201526a081bd9881858d8dbdd5b9d60aa1b6064820152608401610ac5565b6001600160a01b03851633148015906111185750856001600160a01b0316856001600160a01b031614155b6111645760405162461bcd60e51b815260206004820152601c60248201527f4d756c74694163636f756e743a20496e76616c696420746172676574000000006044820152606401610ac5565b6001831515146111dc5760405162461bcd60e51b815260206004820152602960248201527f557365207265766f6b6520746f2066756e6374696f6e7320746f207265766f6b60448201527f65204163636573732e00000000000000000000000000000000000000000000006064820152608401610ac5565b83515b801561126f576001600160a01b03808816600090815260d060209081526040808320938a1683529290529081206001918761121a8486613e2e565b8151811061122a5761122a613e41565b6020908102919091018101516001600160e01b0319168252810191909152604001600020805460ff19169115159190911790558061126781613e57565b9150506111df565b507f41e2c91b7cd59c2d41cfac17496b166b244a4921d4a1c926b4a7132b6c66906e86868660016040516112a69493929190613eb3565b60405180910390a1505050505050565b6001600160a01b03808416600090815260cb6020526040902054849133911681146113375760405162461bcd60e51b815260206004820152602b60248201527f4d756c74694163636f756e743a2053656e6465722069736e2774206f776e657260448201526a081bd9881858d8dbdd5b9d60aa1b6064820152608401610ac5565b6001600160a01b03841633148015906113625750846001600160a01b0316846001600160a01b031614155b6113ae5760405162461bcd60e51b815260206004820152601c60248201527f4d756c74694163636f756e743a20496e76616c696420746172676574000000006044820152606401610ac5565b82515b8015611433576001600160a01b03808716600090815260d26020908152604080832093891683529290529081204291866113ec600186613e2e565b815181106113fc576113fc613e41565b6020908102919091018101516001600160e01b0319168252810191909152604001600020558061142b81613e57565b9150506113b1565b507f64930ca7235077162dd09f78d211b233f0f505f794151b9ecfaa6680bf00ead6858585604051610f9c93929190613ef2565b7f61c92169ef077349011ff0b1383c894d86c5f0b41d986366b58a6cf31e93beda61149181612693565b7f4ec7166fdb5f155366ddacdab9af9c74d038015a7570252e40c6c82346308ad760cf836040516114c3929190613f1e565b60405180910390a160cf610a438382613bb7565b7f65d7a28e3265b37a6474929f336521b332c1681b933f6cb9f3376673440d862a61150181612693565b611069612bdf565b60c9602052816000526040600020818154811061152557600080fd5b6000918252602090912060029091020180546001820180546001600160a01b03909216945091925061155690613b2f565b80601f016020809104026020016040519081016040528092919081815260200182805461158290613b2f565b80156115cf5780601f106115a4576101008083540402835291602001916115cf565b820191906000526020600020905b8154815290600101906020018083116115b257829003601f168201915b5050505050905082565b60006115e36126f2565b33600090815260c96020818152604080842080546001600160a01b0387811680885260ca865284882083905595855283518085019094529483528284018c815260018083018455928752939095208251600290960201805473ffffffffffffffffffffffffffffffffffffffff19169590941694909417835590519394509290918201906116719082613bb7565b5050506001600160a01b038116600090815260cb602052604090819020805473ffffffffffffffffffffffffffffffffffffffff19163390811790915590517f1deb86e124d1a5f3b49977292b48e989b984bcd8944cfb14d63c8880482f2cff916116df9184908990613c77565b60405180910390a16001600160a01b03841633148015906117125750806001600160a01b0316846001600160a01b031614155b61175e5760405162461bcd60e51b815260206004820152601c60248201527f4d756c74694163636f756e743a20696e76616c696420746172676574000000006044820152606401610ac5565b82515b80156117f1576001600160a01b03808316600090815260d06020908152604080832093891683529290529081206001918661179c8486613e2e565b815181106117ac576117ac613e41565b6020908102919091018101516001600160e01b0319168252810191909152604001600020805460ff1916911515919091179055806117e981613e57565b915050611761565b507f41e2c91b7cd59c2d41cfac17496b166b244a4921d4a1c926b4a7132b6c66906e81858560016040516118289493929190613eb3565b60405180910390a160005b82518160ff16101561187d576000838260ff168151811061185657611856613e41565b6020026020010151905061186a8382612a44565b508061187581613fb4565b915050611833565b50949350505050565b6001600160a01b03808316600090815260cb6020526040902054839133911681146119075760405162461bcd60e51b815260206004820152602b60248201527f4d756c74694163636f756e743a2053656e6465722069736e2774206f776e657260448201526a081bd9881858d8dbdd5b9d60aa1b6064820152608401610ac5565b61190f61269d565b6001600160a01b03848116600081815260cb6020908152604091829020548251941660248501526044808501889052825180860390910181526064909401825283810180516001600160e01b03167f205c287800000000000000000000000000000000000000000000000000000000179052815133815290810192909252818101869052517f40e4447d271dea2a920b9669d305a3255d8783d59b016237e63b106f1c9dd5fa916060908290030190a16119c98582612a44565b5050505050565b6001600160a01b038316600090815260c96020526040812054606091906119f8908590613e2e565b8311611a045782611a28565b6001600160a01b038516600090815260c96020526040902054611a28908590613e2e565b905060008167ffffffffffffffff811115611a4557611a456134d0565b604051908082528060200260200182016040528015611a8b57816020015b604080518082019091526000815260606020820152815260200190600190039081611a635790505b509050845b611a9a8387613fd3565b811015611bc7576001600160a01b038716600090815260c960205260409020805482908110611acb57611acb613e41565b60009182526020918290206040805180820190915260029092020180546001600160a01b031682526001810180549293919291840191611b0a90613b2f565b80601f0160208091040260200160405190810160405280929190818152602001828054611b3690613b2f565b8015611b835780601f10611b5857610100808354040283529160200191611b83565b820191906000526020600020905b815481529060010190602001808311611b6657829003601f168201915b505050505081525050828783611b999190613e2e565b81518110611ba957611ba9613e41565b60200260200101819052508080611bbf90613fe6565b915050611a90565b5095945050505050565b6001600160a01b03808416600090815260cb602052604090205484913391168114611c525760405162461bcd60e51b815260206004820152602b60248201527f4d756c74694163636f756e743a2053656e6465722069736e2774206f776e657260448201526a081bd9881858d8dbdd5b9d60aa1b6064820152608401610ac5565b6001600160a01b0384163314801590611c7d5750846001600160a01b0316846001600160a01b031614155b611cc95760405162461bcd60e51b815260206004820152601c60248201527f4d756c74694163636f756e743a20496e76616c696420746172676574000000006044820152606401610ac5565b82515b8015611f97576001600160a01b03808716600090815260d26020908152604080832093891683529290529081209085611d06600185613e2e565b81518110611d1657611d16613e41565b60200260200101516001600160e01b0319166001600160e01b031916815260200190815260200160002054600003611db65760405162461bcd60e51b815260206004820152602860248201527f4d756c74694163636f756e743a205265766f6b6520616363657373206e6f742060448201527f70726f706f7365640000000000000000000000000000000000000000000000006064820152608401610ac5565b60d1546001600160a01b03808816600090815260d260209081526040808320938a16835292905290812042929187611def600187613e2e565b81518110611dff57611dff613e41565b60200260200101516001600160e01b0319166001600160e01b031916815260200190815260200160002054611e349190613fd3565b1115611ea85760405162461bcd60e51b815260206004820152602260248201527f4d756c74694163636f756e743a20436f6f6c646f776e206e6f7420726561636860448201527f65640000000000000000000000000000000000000000000000000000000000006064820152608401610ac5565b6001600160a01b03808716600090815260d06020908152604080832093891683529290529081208186611edc600186613e2e565b81518110611eec57611eec613e41565b6020908102919091018101516001600160e01b03191682528181019290925260409081016000908120805460ff1916941515949094179093556001600160a01b03898116845260d28352818420908916845290915281208186611f50600186613e2e565b81518110611f6057611f60613e41565b6020908102919091018101516001600160e01b03191682528101919091526040016000205580611f8f81613e57565b915050611ccc565b507f41e2c91b7cd59c2d41cfac17496b166b244a4921d4a1c926b4a7132b6c66906e8585856000604051610f9c9493929190613eb3565b611fd661269d565b6001600160a01b03828116600090815260cb60205260408120549091163314905b82518160ff16101561214a576000838260ff168151811061201a5761201a613e41565b602002602001015190508261212d5760048151101561207b5760405162461bcd60e51b815260206004820152601f60248201527f4d756c74694163636f756e743a20496e76616c69642063616c6c2064617461006044820152606401610ac5565b6020818101516001600160a01b038716600090815260d08352604080822033835284528082206001600160e01b031984168352909352919091205460ff1661212b5760405162461bcd60e51b815260206004820152602160248201527f4d756c74694163636f756e743a20556e617574686f72697a656420616363657360448201527f73000000000000000000000000000000000000000000000000000000000000006064820152608401610ac5565b505b6121378582612a44565b508061214281613fb4565b915050611ff7565b50505050565b6001600160a01b03808516600090815260cb6020526040902054859133911681146121d15760405162461bcd60e51b815260206004820152602b60248201527f4d756c74694163636f756e743a2053656e6465722069736e2774206f776e657260448201526a081bd9881858d8dbdd5b9d60aa1b6064820152608401610ac5565b6001600160a01b03851633148015906121fc5750856001600160a01b0316856001600160a01b031614155b6122485760405162461bcd60e51b815260206004820152601c60248201527f4d756c74694163636f756e743a20496e76616c696420746172676574000000006044820152606401610ac5565b6001831515146122c05760405162461bcd60e51b815260206004820152602960248201527f557365207265766f6b6520746f2066756e6374696f6e7320746f207265766f6b60448201527f65204163636573732e00000000000000000000000000000000000000000000006064820152608401610ac5565b604080516001600160a01b038881168252871660208201526001600160e01b03198616818301526001606082015290517fc6c2cef2fe1f0545b232744fc2812ca3a23cdb770794c9c7458ea69f6d9be7ff9181900360800190a15050506001600160a01b03928316600090815260d0602090815260408083209490951682529283528381206001600160e01b03199092168152915220805460ff19166001179055565b600054610100900460ff16158080156123835750600054600160ff909116105b8061239d5750303b15801561239d575060005460ff166001145b61240f5760405162461bcd60e51b815260206004820152602e60248201527f496e697469616c697a61626c653a20636f6e747261637420697320616c72656160448201527f647920696e697469616c697a65640000000000000000000000000000000000006064820152608401610ac5565b6000805460ff191660011790558015612432576000805461ff0019166101001790555b61243a612c1c565b612442612ca1565b61244d6000856127d0565b6124777f65d7a28e3265b37a6474929f336521b332c1681b933f6cb9f3376673440d862a856127d0565b6124a17f427da25fe773164f88948d3e215c94b6554e2ed5e5f203a821c9f2f6131cf75a856127d0565b6124cb7f61c92169ef077349011ff0b1383c894d86c5f0b41d986366b58a6cf31e93beda856127d0565b60cc80546001600160a01b0380871673ffffffffffffffffffffffffffffffffffffffff199283161790925560cd80549286169290911691909117905560cf6125148382613bb7565b50801561214a576000805461ff0019169055604051600181527f7f26b83ff96e1f2b6a682f133852f6798a09c465da95921460cefb38474024989060200160405180910390a150505050565b60008281526097602052604090206001015461257b81612693565b610a438383612b0a565b61258d61269d565b6001600160a01b038216600090815260ca602090815260408083205433845260c99092529091208054839190839081106125c9576125c9613e41565b906000526020600020906002020160010190816125e69190613bb7565b507f13bbfc66aca7f597c509c7eb717cafee4ae3fc31a77f4bbb22b333e81369276d33848460405161261a93929190613c77565b60405180910390a1505050565b7f61c92169ef077349011ff0b1383c894d86c5f0b41d986366b58a6cf31e93beda61265181612693565b60d15460408051918252602082018490527f41a6e3ea336979dfead544a7561ccbf3fbbbf13c4405cc4ce398afaebf4b1498910160405180910390a15060d155565b6110698133612d1e565b60335460ff16156126f05760405162461bcd60e51b815260206004820152601060248201527f5061757361626c653a20706175736564000000000000000000000000000000006044820152606401610ac5565b565b60ce546040517f4d756c74694163636f756e745f000000000000000000000000000000000000006020820152602d8101919091526000908190604d01604051602081830303815290604052805190602001209050600160ce60008282546127599190613fd3565b909155505060cc5460cd54604080516001600160a01b03938416602082015230918101919091529116606082015260009060cf9060800160408051601f19818403018152908290526127ae9291602001614000565b60405160208183030381529060405290506127c98183612d93565b9250505090565b60008281526097602090815260408083206001600160a01b038516845290915290205460ff166110335760008281526097602090815260408083206001600160a01b03851684529091529020805460ff1916600117905561282e3390565b6001600160a01b0316816001600160a01b0316837f2f8788117e7eff1d82e926ec794901d17c78024a50270940304540a733656f0d60405160405180910390a45050565b6040516001600160a01b038085166024830152831660448201526064810182905261214a9085907f23b872dd00000000000000000000000000000000000000000000000000000000906084015b60408051601f198184030181529190526020810180516001600160e01b03166001600160e01b031990931692909217909152612e3e565b80158061298957506040517fdd62ed3e0000000000000000000000000000000000000000000000000000000081523060048201526001600160a01b03838116602483015284169063dd62ed3e90604401602060405180830381865afa158015612963573d6000803e3d6000fd5b505050506040513d601f19601f820116820180604052508101906129879190614087565b155b6129fb5760405162461bcd60e51b815260206004820152603660248201527f5361666545524332303a20617070726f76652066726f6d206e6f6e2d7a65726f60448201527f20746f206e6f6e2d7a65726f20616c6c6f77616e6365000000000000000000006064820152608401610ac5565b6040516001600160a01b038316602482015260448101829052610a439084907f095ea7b300000000000000000000000000000000000000000000000000000000906064016128bf565b600080836001600160a01b03166362dfbb2e846040518263ffffffff1660e01b8152600401612a7391906134a4565b6000604051808303816000875af1158015612a92573d6000803e3d6000fd5b505050506040513d6000823e601f3d908101601f19168201604052612aba91908101906140a0565b915091507f268e99f0b37c8146a6aea7c6af329e3924d9c92c4386be924c2990926d99b6613385858585604051612af595949392919061412d565b60405180910390a18161214a57805160208201fd5b60008281526097602090815260408083206001600160a01b038516845290915290205460ff16156110335760008281526097602090815260408083206001600160a01b0385168085529252808320805460ff1916905551339285917ff6391f5c32d9c69d2a47ea670b442974b53935d1edc7fd64eb21e047a839171b9190a45050565b612b95612f26565b6033805460ff191690557f5db9ee0a495bf2e6ff9c91a7834c1ba4fdd244a5e8aa4e537bd38aeae4b073aa335b6040516001600160a01b03909116815260200160405180910390a1565b612be761269d565b6033805460ff191660011790557f62e78cea01bee320cd4e420270b5ea74000d11b0c9f74754ebdbfc544b05a258612bc23390565b600054610100900460ff16612c995760405162461bcd60e51b815260206004820152602b60248201527f496e697469616c697a61626c653a20636f6e7472616374206973206e6f74206960448201527f6e697469616c697a696e670000000000000000000000000000000000000000006064820152608401610ac5565b6126f0612f78565b600054610100900460ff166126f05760405162461bcd60e51b815260206004820152602b60248201527f496e697469616c697a61626c653a20636f6e7472616374206973206e6f74206960448201527f6e697469616c697a696e670000000000000000000000000000000000000000006064820152608401610ac5565b60008281526097602090815260408083206001600160a01b038516845290915290205460ff1661103357612d5181613001565b612d5c836020613013565b604051602001612d6d92919061417f565b60408051601f198184030181529082905262461bcd60e51b8252610ac5916004016134a4565b6000818351602085016000f590506001600160a01b038116612df75760405162461bcd60e51b815260206004820152601c60248201527f4d756c74694163636f756e743a2063726561746532206661696c6564000000006044820152606401610ac5565b604080513381526001600160a01b03831660208201527f6cbd957809e2aaf4d5e36136d06e71215f53a984b218c6d501e22f91d348d9ce910160405180910390a192915050565b6000612e93826040518060400160405280602081526020017f5361666545524332303a206c6f772d6c6576656c2063616c6c206661696c6564815250856001600160a01b03166132439092919063ffffffff16565b9050805160001480612eb4575080806020019051810190612eb49190614200565b610a435760405162461bcd60e51b815260206004820152602a60248201527f5361666545524332303a204552433230206f7065726174696f6e20646964206e60448201527f6f742073756363656564000000000000000000000000000000000000000000006064820152608401610ac5565b60335460ff166126f05760405162461bcd60e51b815260206004820152601460248201527f5061757361626c653a206e6f74207061757365640000000000000000000000006044820152606401610ac5565b600054610100900460ff16612ff55760405162461bcd60e51b815260206004820152602b60248201527f496e697469616c697a61626c653a20636f6e7472616374206973206e6f74206960448201527f6e697469616c697a696e670000000000000000000000000000000000000000006064820152608401610ac5565b6033805460ff19169055565b60606107ee6001600160a01b03831660145b60606000613022836002613df5565b61302d906002613fd3565b67ffffffffffffffff811115613045576130456134d0565b6040519080825280601f01601f19166020018201604052801561306f576020820181803683370190505b5090507f3000000000000000000000000000000000000000000000000000000000000000816000815181106130a6576130a6613e41565b60200101907effffffffffffffffffffffffffffffffffffffffffffffffffffffffffffff1916908160001a9053507f78000000000000000000000000000000000000000000000000000000000000008160018151811061310957613109613e41565b60200101907effffffffffffffffffffffffffffffffffffffffffffffffffffffffffffff1916908160001a9053506000613145846002613df5565b613150906001613fd3565b90505b60018111156131ed577f303132333435363738396162636465660000000000000000000000000000000085600f166010811061319157613191613e41565b1a60f81b8282815181106131a7576131a7613e41565b60200101907effffffffffffffffffffffffffffffffffffffffffffffffffffffffffffff1916908160001a90535060049490941c936131e681613e57565b9050613153565b50831561323c5760405162461bcd60e51b815260206004820181905260248201527f537472696e67733a20686578206c656e67746820696e73756666696369656e746044820152606401610ac5565b9392505050565b6060613252848460008561325a565b949350505050565b6060824710156132d25760405162461bcd60e51b815260206004820152602660248201527f416464726573733a20696e73756666696369656e742062616c616e636520666f60448201527f722063616c6c00000000000000000000000000000000000000000000000000006064820152608401610ac5565b600080866001600160a01b031685876040516132ee919061421d565b60006040518083038185875af1925050503d806000811461332b576040519150601f19603f3d011682016040523d82523d6000602084013e613330565b606091505b50915091506133418783838761334c565b979650505050505050565b606083156133bb5782516000036133b4576001600160a01b0385163b6133b45760405162461bcd60e51b815260206004820152601d60248201527f416464726573733a2063616c6c20746f206e6f6e2d636f6e74726163740000006044820152606401610ac5565b5081613252565b61325283838151156133d05781518083602001fd5b8060405162461bcd60e51b8152600401610ac591906134a4565b6001600160a01b038116811461106957600080fd5b60006020828403121561341157600080fd5b813561323c816133ea565b80356001600160e01b03198116811461343457600080fd5b919050565b60006020828403121561344b57600080fd5b61323c8261341c565b60005b8381101561346f578181015183820152602001613457565b50506000910152565b60008151808452613490816020860160208601613454565b601f01601f19169290920160200192915050565b60208152600061323c6020830184613478565b6000602082840312156134c957600080fd5b5035919050565b634e487b7160e01b600052604160045260246000fd5b604051601f8201601f1916810167ffffffffffffffff8111828210171561350f5761350f6134d0565b604052919050565b600067ffffffffffffffff821115613531576135316134d0565b50601f01601f191660200190565b600082601f83011261355057600080fd5b813561356361355e82613517565b6134e6565b81815284602083860101111561357857600080fd5b816020850160208301376000918101602001919091529392505050565b6000602082840312156135a757600080fd5b813567ffffffffffffffff8111156135be57600080fd5b6132528482850161353f565b600080604083850312156135dd57600080fd5b8235915060208301356135ef816133ea565b809150509250929050565b6000806040838503121561360d57600080fd5b8235613618816133ea565b946020939093013593505050565b600067ffffffffffffffff821115613640576136406134d0565b5060051b60200190565b600082601f83011261365b57600080fd5b8135602061366b61355e83613626565b82815260059290921b8401810191818101908684111561368a57600080fd5b8286015b848110156136ac5761369f8161341c565b835291830191830161368e565b509695505050505050565b801515811461106957600080fd5b600080600080608085870312156136db57600080fd5b84356136e6816133ea565b935060208501356136f6816133ea565b9250604085013567ffffffffffffffff81111561371257600080fd5b61371e8782880161364a565b925050606085013561372f816136b7565b939692955090935050565b60008060006060848603121561374f57600080fd5b833561375a816133ea565b9250602084013561376a816133ea565b9150604084013567ffffffffffffffff81111561378657600080fd5b6137928682870161364a565b9150509250925092565b6001600160a01b03831681526040602082015260006132526040830184613478565b600082601f8301126137cf57600080fd5b813560206137df61355e83613626565b82815260059290921b840181019181810190868411156137fe57600080fd5b8286015b848110156136ac57803567ffffffffffffffff8111156138225760008081fd5b6138308986838b010161353f565b845250918301918301613802565b6000806000806080858703121561385457600080fd5b843567ffffffffffffffff8082111561386c57600080fd5b6138788883890161353f565b95506020870135915061388a826133ea565b909350604086013590808211156138a057600080fd5b6138ac8883890161364a565b935060608701359150808211156138c257600080fd5b506138cf878288016137be565b91505092959194509250565b6000806000606084860312156138f057600080fd5b83356138fb816133ea565b95602085013595506040909401359392505050565b60006020808301818452808551808352604092508286019150828160051b87010184880160005b8381101561399d578883037fffffffffffffffffffffffffffffffffffffffffffffffffffffffffffffffc0018552815180516001600160a01b0316845287015187840187905261398a87850182613478565b9588019593505090860190600101613937565b509098975050505050505050565b6000806000606084860312156139c057600080fd5b83356139cb816133ea565b925060208401356139db816133ea565b91506139e96040850161341c565b90509250925092565b60008060408385031215613a0557600080fd5b8235613a10816133ea565b9150602083013567ffffffffffffffff811115613a2c57600080fd5b613a38858286016137be565b9150509250929050565b60008060008060808587031215613a5857600080fd5b8435613a63816133ea565b93506020850135613a73816133ea565b9250613a816040860161341c565b9150606085013561372f816136b7565b600080600060608486031215613aa657600080fd5b8335613ab1816133ea565b92506020840135613ac1816133ea565b9150604084013567ffffffffffffffff811115613add57600080fd5b6137928682870161353f565b60008060408385031215613afc57600080fd5b8235613b07816133ea565b9150602083013567ffffffffffffffff811115613b2357600080fd5b613a388582860161353f565b600181811c90821680613b4357607f821691505b602082108103613b6357634e487b7160e01b600052602260045260246000fd5b50919050565b601f821115610a4357600081815260208120601f850160051c81016020861015613b905750805b601f850160051c820191505b81811015613baf57828155600101613b9c565b505050505050565b815167ffffffffffffffff811115613bd157613bd16134d0565b613be581613bdf8454613b2f565b84613b69565b602080601f831160018114613c1a5760008415613c025750858301515b600019600386901b1c1916600185901b178555613baf565b600085815260208120601f198616915b82811015613c4957888601518255948401946001909101908401613c2a565b5085821015613c675787850151600019600388901b60f8161c191681555b5050505050600190811b01905550565b60006001600160a01b03808616835280851660208401525060606040830152613ca36060830184613478565b95945050505050565b600060208284031215613cbe57600080fd5b815161323c816133ea565b600060208284031215613cdb57600080fd5b815160ff8116811461323c57600080fd5b634e487b7160e01b600052601160045260246000fd5b600181815b80851115613d3d578160001904821115613d2357613d23613cec565b80851615613d3057918102915b93841c9390800290613d07565b509250929050565b600082613d54575060016107ee565b81613d61575060006107ee565b8160018114613d775760028114613d8157613d9d565b60019150506107ee565b60ff841115613d9257613d92613cec565b50506001821b6107ee565b5060208310610133831016604e8410600b8410161715613dc0575081810a6107ee565b613dca8383613d02565b8060001904821115613dde57613dde613cec565b029392505050565b600061323c60ff841683613d45565b80820281158282048414176107ee576107ee613cec565b600082613e2957634e487b7160e01b600052601260045260246000fd5b500490565b818103818111156107ee576107ee613cec565b634e487b7160e01b600052603260045260246000fd5b600081613e6657613e66613cec565b506000190190565b600081518084526020808501945080840160005b83811015613ea85781516001600160e01b03191687529582019590820190600101613e82565b509495945050505050565b60006001600160a01b03808716835280861660208401525060806040830152613edf6080830185613e6e565b9050821515606083015295945050505050565b60006001600160a01b03808616835280851660208401525060606040830152613ca36060830184613e6e565b604081526000808454613f3081613b2f565b8060408601526060600180841660008114613f525760018114613f6c57613f9d565b60ff198516838901528284151560051b8901019550613f9d565b8960005260208060002060005b86811015613f945781548b8201870152908401908201613f79565b8a018501975050505b50505050508281036020840152613ca38185613478565b600060ff821660ff8103613fca57613fca613cec565b60010192915050565b808201808211156107ee576107ee613cec565b60006000198203613ff957613ff9613cec565b5060010190565b600080845461400e81613b2f565b60018281168015614026576001811461403b5761406a565b60ff198416875282151583028701945061406a565b8860005260208060002060005b858110156140615781548a820152908401908201614048565b50505082870194505b50505050835161407e818360208801613454565b01949350505050565b60006020828403121561409957600080fd5b5051919050565b600080604083850312156140b357600080fd5b82516140be816136b7565b602084015190925067ffffffffffffffff8111156140db57600080fd5b8301601f810185136140ec57600080fd5b80516140fa61355e82613517565b81815286602083850101111561410f57600080fd5b614120826020830160208601613454565b8093505050509250929050565b60006001600160a01b03808816835280871660208401525060a0604083015261415960a0830186613478565b841515606084015282810360808401526141738185613478565b98975050505050505050565b7f416363657373436f6e74726f6c3a206163636f756e74200000000000000000008152600083516141b7816017850160208801613454565b7f206973206d697373696e6720726f6c652000000000000000000000000000000060179184019182015283516141f4816028840160208801613454565b01602801949350505050565b60006020828403121561421257600080fd5b815161323c816136b7565b6000825161422f818460208701613454565b919091019291505056fea264697066735822122026e7b6f81bdde854c5f02422048d82a00885bf54355dc9c0af124524809d458464736f6c63430008120033",
  "linkReferences": {},
  "deployedLinkReferences": {}
}