{
  "_format": "hh-sol-artifact-1",
  "contractName": "MultiAccount",
  "sourceName": "contracts/MultiAccount.sol",
  "abi": [
    {
      "inputs": [],
      "stateMutability": "nonpayable",
      "type": "constructor"
    },
    {
      "anonymous": false,
      "inputs": [
        {
          "indexed": false,
          "internalType": "address",
          "name": "user",
          "type": "address"
        },
        {
          "indexed": false,
          "internalType": "address",
          "name": "account",
          "type": "address"
        },
        {
          "indexed": false,
          "internalType": "string",
          "name": "name",
          "type": "string"
        }
      ],
      "name": "AddAccount",
      "type": "event"
    },
    {
      "anonymous": false,
      "inputs": [
        {
          "indexed": false,
          "internalType": "address",
          "name": "user",
          "type": "address"
        },
        {
          "indexed": false,
          "internalType": "address",
          "name": "account",
          "type": "address"
        },
        {
          "indexed": false,
          "internalType": "uint256",
          "name": "amount",
          "type": "uint256"
        }
      ],
      "name": "AllocateForAccount",
      "type": "event"
    },
    {
      "anonymous": false,
      "inputs": [
        {
          "indexed": false,
          "internalType": "address",
          "name": "user",
          "type": "address"
        },
        {
          "indexed": false,
          "internalType": "address",
          "name": "account",
          "type": "address"
        },
        {
          "indexed": false,
          "internalType": "bytes",
          "name": "_callData",
          "type": "bytes"
        },
        {
          "indexed": false,
          "internalType": "bool",
          "name": "_success",
          "type": "bool"
        },
        {
          "indexed": false,
          "internalType": "bytes",
          "name": "_resultData",
          "type": "bytes"
        }
      ],
      "name": "Call",
      "type": "event"
    },
    {
      "anonymous": false,
      "inputs": [
        {
          "indexed": false,
          "internalType": "address",
          "name": "account",
          "type": "address"
        },
        {
          "indexed": false,
          "internalType": "address",
          "name": "target",
          "type": "address"
        },
        {
          "indexed": false,
          "internalType": "bytes4",
          "name": "selector",
          "type": "bytes4"
        },
        {
          "indexed": false,
          "internalType": "bool",
          "name": "state",
          "type": "bool"
        }
      ],
      "name": "DelegateAccess",
      "type": "event"
    },
    {
      "anonymous": false,
      "inputs": [
        {
          "indexed": false,
          "internalType": "address",
          "name": "account",
          "type": "address"
        },
        {
          "indexed": false,
          "internalType": "address",
          "name": "target",
          "type": "address"
        },
        {
          "indexed": false,
          "internalType": "bytes4[]",
          "name": "selector",
          "type": "bytes4[]"
        },
        {
          "indexed": false,
          "internalType": "bool",
          "name": "state",
          "type": "bool"
        }
      ],
      "name": "DelegateAccesses",
      "type": "event"
    },
    {
      "anonymous": false,
      "inputs": [
        {
          "indexed": false,
          "internalType": "address",
          "name": "sender",
          "type": "address"
        },
        {
          "indexed": false,
          "internalType": "address",
          "name": "contractAddress",
          "type": "address"
        }
      ],
      "name": "DeployContract",
      "type": "event"
    },
    {
      "anonymous": false,
      "inputs": [
        {
          "indexed": false,
          "internalType": "address",
          "name": "user",
          "type": "address"
        },
        {
          "indexed": false,
          "internalType": "address",
          "name": "account",
          "type": "address"
        },
        {
          "indexed": false,
          "internalType": "uint256",
          "name": "amount",
          "type": "uint256"
        }
      ],
      "name": "DepositForAccount",
      "type": "event"
    },
    {
      "anonymous": false,
      "inputs": [
        {
          "indexed": false,
          "internalType": "address",
          "name": "user",
          "type": "address"
        },
        {
          "indexed": false,
          "internalType": "address",
          "name": "account",
          "type": "address"
        },
        {
          "indexed": false,
          "internalType": "string",
          "name": "newName",
          "type": "string"
        }
      ],
      "name": "EditAccountName",
      "type": "event"
    },
    {
      "anonymous": false,
      "inputs": [
        {
          "indexed": false,
          "internalType": "uint8",
          "name": "version",
          "type": "uint8"
        }
      ],
      "name": "Initialized",
      "type": "event"
    },
    {
      "anonymous": false,
      "inputs": [
        {
          "indexed": false,
          "internalType": "address",
          "name": "account",
          "type": "address"
        }
      ],
      "name": "Paused",
      "type": "event"
    },
    {
      "anonymous": false,
      "inputs": [
        {
          "indexed": false,
          "internalType": "address",
          "name": "account",
          "type": "address"
        },
        {
          "indexed": false,
          "internalType": "address",
          "name": "target",
          "type": "address"
        },
        {
          "indexed": false,
          "internalType": "bytes4[]",
          "name": "selector",
          "type": "bytes4[]"
        }
      ],
      "name": "ProposeToRevokeAccesses",
      "type": "event"
    },
    {
      "anonymous": false,
      "inputs": [
        {
          "indexed": true,
          "internalType": "bytes32",
          "name": "role",
          "type": "bytes32"
        },
        {
          "indexed": true,
          "internalType": "bytes32",
          "name": "previousAdminRole",
          "type": "bytes32"
        },
        {
          "indexed": true,
          "internalType": "bytes32",
          "name": "newAdminRole",
          "type": "bytes32"
        }
      ],
      "name": "RoleAdminChanged",
      "type": "event"
    },
    {
      "anonymous": false,
      "inputs": [
        {
          "indexed": true,
          "internalType": "bytes32",
          "name": "role",
          "type": "bytes32"
        },
        {
          "indexed": true,
          "internalType": "address",
          "name": "account",
          "type": "address"
        },
        {
          "indexed": true,
          "internalType": "address",
          "name": "sender",
          "type": "address"
        }
      ],
      "name": "RoleGranted",
      "type": "event"
    },
    {
      "anonymous": false,
      "inputs": [
        {
          "indexed": true,
          "internalType": "bytes32",
          "name": "role",
          "type": "bytes32"
        },
        {
          "indexed": true,
          "internalType": "address",
          "name": "account",
          "type": "address"
        },
        {
          "indexed": true,
          "internalType": "address",
          "name": "sender",
          "type": "address"
        }
      ],
      "name": "RoleRevoked",
      "type": "event"
    },
    {
      "anonymous": false,
      "inputs": [
        {
          "indexed": false,
          "internalType": "bytes",
          "name": "oldAddress",
          "type": "bytes"
        },
        {
          "indexed": false,
          "internalType": "bytes",
          "name": "newAddress",
          "type": "bytes"
        }
      ],
      "name": "SetAccountImplementation",
      "type": "event"
    },
    {
      "anonymous": false,
      "inputs": [
        {
          "indexed": false,
          "internalType": "address",
          "name": "oldAccountAdmin",
          "type": "address"
        },
        {
          "indexed": false,
          "internalType": "address",
          "name": "newAccountAdmin",
          "type": "address"
        }
      ],
      "name": "SetAccountsAdmin",
      "type": "event"
    },
    {
      "anonymous": false,
      "inputs": [
        {
          "indexed": false,
          "internalType": "uint256",
          "name": "oldCooldown",
          "type": "uint256"
        },
        {
          "indexed": false,
          "internalType": "uint256",
          "name": "newCooldown",
          "type": "uint256"
        }
      ],
      "name": "SetRevokeCooldown",
      "type": "event"
    },
    {
      "anonymous": false,
      "inputs": [
        {
          "indexed": false,
          "internalType": "address",
          "name": "oldAddress",
          "type": "address"
        },
        {
          "indexed": false,
          "internalType": "address",
          "name": "newAddress",
          "type": "address"
        }
      ],
      "name": "SetSymmioAddress",
      "type": "event"
    },
    {
      "anonymous": false,
      "inputs": [
        {
          "indexed": false,
          "internalType": "address",
          "name": "account",
          "type": "address"
        }
      ],
      "name": "Unpaused",
      "type": "event"
    },
    {
      "anonymous": false,
      "inputs": [
        {
          "indexed": false,
          "internalType": "address",
          "name": "user",
          "type": "address"
        },
        {
          "indexed": false,
          "internalType": "address",
          "name": "account",
          "type": "address"
        },
        {
          "indexed": false,
          "internalType": "uint256",
          "name": "amount",
          "type": "uint256"
        }
      ],
      "name": "WithdrawFromAccount",
      "type": "event"
    },
    {
      "inputs": [],
      "name": "DEFAULT_ADMIN_ROLE",
      "outputs": [
        {
          "internalType": "bytes32",
          "name": "",
          "type": "bytes32"
        }
      ],
      "stateMutability": "view",
      "type": "function"
    },
    {
      "inputs": [],
      "name": "PAUSER_ROLE",
      "outputs": [
        {
          "internalType": "bytes32",
          "name": "",
          "type": "bytes32"
        }
      ],
      "stateMutability": "view",
      "type": "function"
    },
    {
      "inputs": [],
      "name": "SETTER_ROLE",
      "outputs": [
        {
          "internalType": "bytes32",
          "name": "",
          "type": "bytes32"
        }
      ],
      "stateMutability": "view",
      "type": "function"
    },
    {
      "inputs": [],
      "name": "UNPAUSER_ROLE",
      "outputs": [
        {
          "internalType": "bytes32",
          "name": "",
          "type": "bytes32"
        }
      ],
      "stateMutability": "view",
      "type": "function"
    },
    {
      "inputs": [
        {
          "internalType": "address",
          "name": "account",
          "type": "address"
        },
        {
          "internalType": "bytes[]",
          "name": "_callDatas",
          "type": "bytes[]"
        }
      ],
      "name": "_call",
      "outputs": [],
      "stateMutability": "nonpayable",
      "type": "function"
    },
    {
      "inputs": [],
      "name": "accountImplementation",
      "outputs": [
        {
          "internalType": "bytes",
          "name": "",
          "type": "bytes"
        }
      ],
      "stateMutability": "view",
      "type": "function"
    },
    {
      "inputs": [
        {
          "internalType": "address",
          "name": "",
          "type": "address"
        },
        {
          "internalType": "uint256",
          "name": "",
          "type": "uint256"
        }
      ],
      "name": "accounts",
      "outputs": [
        {
          "internalType": "address",
          "name": "accountAddress",
          "type": "address"
        },
        {
          "internalType": "string",
          "name": "name",
          "type": "string"
        }
      ],
      "stateMutability": "view",
      "type": "function"
    },
    {
      "inputs": [],
      "name": "accountsAdmin",
      "outputs": [
        {
          "internalType": "address",
          "name": "",
          "type": "address"
        }
      ],
      "stateMutability": "view",
      "type": "function"
    },
    {
      "inputs": [
        {
          "internalType": "string",
          "name": "name",
          "type": "string"
        }
      ],
      "name": "addAccount",
      "outputs": [],
      "stateMutability": "nonpayable",
      "type": "function"
    },
    {
      "inputs": [
        {
          "internalType": "string",
          "name": "name",
          "type": "string"
        },
        {
          "internalType": "address",
          "name": "target",
          "type": "address"
        },
        {
          "internalType": "bytes4[]",
          "name": "selector",
          "type": "bytes4[]"
        },
        {
          "internalType": "bytes[]",
          "name": "_callDatas",
          "type": "bytes[]"
        }
      ],
      "name": "addAccountDelegateAccessAndCall",
      "outputs": [
        {
          "internalType": "address",
          "name": "account",
          "type": "address"
        }
      ],
      "stateMutability": "nonpayable",
      "type": "function"
    },
    {
      "inputs": [
        {
          "internalType": "address",
          "name": "account",
          "type": "address"
        },
        {
          "internalType": "address",
          "name": "target",
          "type": "address"
        },
        {
          "internalType": "bytes4",
          "name": "selector",
          "type": "bytes4"
        },
        {
          "internalType": "bool",
          "name": "state",
          "type": "bool"
        }
      ],
      "name": "delegateAccess",
      "outputs": [],
      "stateMutability": "nonpayable",
      "type": "function"
    },
    {
      "inputs": [
        {
          "internalType": "address",
          "name": "account",
          "type": "address"
        },
        {
          "internalType": "address",
          "name": "target",
          "type": "address"
        },
        {
          "internalType": "bytes4[]",
          "name": "selector",
          "type": "bytes4[]"
        },
        {
          "internalType": "bool",
          "name": "state",
          "type": "bool"
        }
      ],
      "name": "delegateAccesses",
      "outputs": [],
      "stateMutability": "nonpayable",
      "type": "function"
    },
    {
      "inputs": [
        {
          "internalType": "address",
          "name": "",
          "type": "address"
        },
        {
          "internalType": "address",
          "name": "",
          "type": "address"
        },
        {
          "internalType": "bytes4",
          "name": "",
          "type": "bytes4"
        }
      ],
      "name": "delegatedAccesses",
      "outputs": [
        {
          "internalType": "bool",
          "name": "",
          "type": "bool"
        }
      ],
      "stateMutability": "view",
      "type": "function"
    },
    {
      "inputs": [
        {
          "internalType": "address",
          "name": "account",
          "type": "address"
        },
        {
          "internalType": "uint256",
          "name": "amount",
          "type": "uint256"
        }
      ],
      "name": "depositAndAllocateForAccount",
      "outputs": [],
      "stateMutability": "nonpayable",
      "type": "function"
    },
    {
      "inputs": [
        {
          "internalType": "address",
          "name": "account",
          "type": "address"
        }
      ],
      "name": "depositAndAllocateForAccount",
      "outputs": [],
      "stateMutability": "nonpayable",
      "type": "function"
    },
    {
      "inputs": [
        {
          "internalType": "address",
          "name": "account",
          "type": "address"
        },
        {
          "internalType": "uint256",
          "name": "amount",
          "type": "uint256"
        }
      ],
      "name": "depositForAccount",
      "outputs": [],
      "stateMutability": "nonpayable",
      "type": "function"
    },
    {
      "inputs": [
        {
          "internalType": "address",
          "name": "accountAddress",
          "type": "address"
        },
        {
          "internalType": "string",
          "name": "name",
          "type": "string"
        }
      ],
      "name": "editAccountName",
      "outputs": [],
      "stateMutability": "nonpayable",
      "type": "function"
    },
    {
      "inputs": [
        {
          "internalType": "address",
          "name": "user",
          "type": "address"
        },
        {
          "internalType": "uint256",
          "name": "start",
          "type": "uint256"
        },
        {
          "internalType": "uint256",
          "name": "size",
          "type": "uint256"
        }
      ],
      "name": "getAccounts",
      "outputs": [
        {
          "components": [
            {
              "internalType": "address",
              "name": "accountAddress",
              "type": "address"
            },
            {
              "internalType": "string",
              "name": "name",
              "type": "string"
            }
          ],
          "internalType": "struct IMultiAccount.Account[]",
          "name": "",
          "type": "tuple[]"
        }
      ],
      "stateMutability": "view",
      "type": "function"
    },
    {
      "inputs": [
        {
          "internalType": "address",
          "name": "user",
          "type": "address"
        }
      ],
      "name": "getAccountsLength",
      "outputs": [
        {
          "internalType": "uint256",
          "name": "",
          "type": "uint256"
        }
      ],
      "stateMutability": "view",
      "type": "function"
    },
    {
      "inputs": [
        {
          "internalType": "bytes32",
          "name": "role",
          "type": "bytes32"
        }
      ],
      "name": "getRoleAdmin",
      "outputs": [
        {
          "internalType": "bytes32",
          "name": "",
          "type": "bytes32"
        }
      ],
      "stateMutability": "view",
      "type": "function"
    },
    {
      "inputs": [
        {
          "internalType": "bytes32",
          "name": "role",
          "type": "bytes32"
        },
        {
          "internalType": "address",
          "name": "account",
          "type": "address"
        }
      ],
      "name": "grantRole",
      "outputs": [],
      "stateMutability": "nonpayable",
      "type": "function"
    },
    {
      "inputs": [
        {
          "internalType": "bytes32",
          "name": "role",
          "type": "bytes32"
        },
        {
          "internalType": "address",
          "name": "account",
          "type": "address"
        }
      ],
      "name": "hasRole",
      "outputs": [
        {
          "internalType": "bool",
          "name": "",
          "type": "bool"
        }
      ],
      "stateMutability": "view",
      "type": "function"
    },
    {
      "inputs": [
        {
          "internalType": "address",
          "name": "",
          "type": "address"
        }
      ],
      "name": "indexOfAccount",
      "outputs": [
        {
          "internalType": "uint256",
          "name": "",
          "type": "uint256"
        }
      ],
      "stateMutability": "view",
      "type": "function"
    },
    {
      "inputs": [
        {
          "internalType": "address",
          "name": "admin",
          "type": "address"
        },
        {
          "internalType": "address",
          "name": "symmioAddress_",
          "type": "address"
        },
        {
          "internalType": "bytes",
          "name": "accountImplementation_",
          "type": "bytes"
        }
      ],
      "name": "initialize",
      "outputs": [],
      "stateMutability": "nonpayable",
      "type": "function"
    },
    {
      "inputs": [
        {
          "internalType": "address",
          "name": "",
          "type": "address"
        }
      ],
      "name": "owners",
      "outputs": [
        {
          "internalType": "address",
          "name": "",
          "type": "address"
        }
      ],
      "stateMutability": "view",
      "type": "function"
    },
    {
      "inputs": [],
      "name": "pause",
      "outputs": [],
      "stateMutability": "nonpayable",
      "type": "function"
    },
    {
      "inputs": [],
      "name": "paused",
      "outputs": [
        {
          "internalType": "bool",
          "name": "",
          "type": "bool"
        }
      ],
      "stateMutability": "view",
      "type": "function"
    },
    {
      "inputs": [
        {
          "internalType": "address",
          "name": "account",
          "type": "address"
        },
        {
          "internalType": "address",
          "name": "target",
          "type": "address"
        },
        {
          "internalType": "bytes4[]",
          "name": "selector",
          "type": "bytes4[]"
        }
      ],
      "name": "proposeToRevokeAccesses",
      "outputs": [],
      "stateMutability": "nonpayable",
      "type": "function"
    },
    {
      "inputs": [
        {
          "internalType": "bytes32",
          "name": "role",
          "type": "bytes32"
        },
        {
          "internalType": "address",
          "name": "account",
          "type": "address"
        }
      ],
      "name": "renounceRole",
      "outputs": [],
      "stateMutability": "nonpayable",
      "type": "function"
    },
    {
      "inputs": [
        {
          "internalType": "address",
          "name": "account",
          "type": "address"
        },
        {
          "internalType": "address",
          "name": "target",
          "type": "address"
        },
        {
          "internalType": "bytes4[]",
          "name": "selector",
          "type": "bytes4[]"
        }
      ],
      "name": "revokeAccesses",
      "outputs": [],
      "stateMutability": "nonpayable",
      "type": "function"
    },
    {
      "inputs": [],
      "name": "revokeCooldown",
      "outputs": [
        {
          "internalType": "uint256",
          "name": "",
          "type": "uint256"
        }
      ],
      "stateMutability": "view",
      "type": "function"
    },
    {
      "inputs": [
        {
          "internalType": "address",
          "name": "",
          "type": "address"
        },
        {
          "internalType": "address",
          "name": "",
          "type": "address"
        },
        {
          "internalType": "bytes4",
          "name": "",
          "type": "bytes4"
        }
      ],
      "name": "revokeProposalTimestamp",
      "outputs": [
        {
          "internalType": "uint256",
          "name": "",
          "type": "uint256"
        }
      ],
      "stateMutability": "view",
      "type": "function"
    },
    {
      "inputs": [
        {
          "internalType": "bytes32",
          "name": "role",
          "type": "bytes32"
        },
        {
          "internalType": "address",
          "name": "account",
          "type": "address"
        }
      ],
      "name": "revokeRole",
      "outputs": [],
      "stateMutability": "nonpayable",
      "type": "function"
    },
    {
      "inputs": [],
      "name": "saltCounter",
      "outputs": [
        {
          "internalType": "uint256",
          "name": "",
          "type": "uint256"
        }
      ],
      "stateMutability": "view",
      "type": "function"
    },
    {
      "inputs": [
        {
          "internalType": "bytes",
          "name": "accountImplementation_",
          "type": "bytes"
        }
      ],
      "name": "setAccountImplementation",
      "outputs": [],
      "stateMutability": "nonpayable",
      "type": "function"
    },
    {
      "inputs": [
        {
          "internalType": "address",
          "name": "accountsAdmin_",
          "type": "address"
        }
      ],
      "name": "setAccountsAdmin",
      "outputs": [],
      "stateMutability": "nonpayable",
      "type": "function"
    },
    {
      "inputs": [
        {
          "internalType": "uint256",
          "name": "cooldown",
          "type": "uint256"
        }
      ],
      "name": "setRevokeCooldown",
      "outputs": [],
      "stateMutability": "nonpayable",
      "type": "function"
    },
    {
      "inputs": [
        {
          "internalType": "address",
          "name": "addr",
          "type": "address"
        }
      ],
      "name": "setSymmioAddress",
      "outputs": [],
      "stateMutability": "nonpayable",
      "type": "function"
    },
    {
      "inputs": [
        {
          "internalType": "bytes4",
          "name": "interfaceId",
          "type": "bytes4"
        }
      ],
      "name": "supportsInterface",
      "outputs": [
        {
          "internalType": "bool",
          "name": "",
          "type": "bool"
        }
      ],
      "stateMutability": "view",
      "type": "function"
    },
    {
      "inputs": [],
      "name": "symmioAddress",
      "outputs": [
        {
          "internalType": "address",
          "name": "",
          "type": "address"
        }
      ],
      "stateMutability": "view",
      "type": "function"
    },
    {
      "inputs": [],
      "name": "unpause",
      "outputs": [],
      "stateMutability": "nonpayable",
      "type": "function"
    },
    {
      "inputs": [
        {
          "internalType": "address",
          "name": "account",
          "type": "address"
        },
        {
          "internalType": "uint256",
          "name": "amount",
          "type": "uint256"
        }
      ],
      "name": "withdrawFromAccount",
      "outputs": [],
      "stateMutability": "nonpayable",
      "type": "function"
    },
    {
      "inputs": [
        {
          "internalType": "address",
          "name": "account",
          "type": "address"
        },
        {
          "internalType": "uint256",
          "name": "amount",
          "type": "uint256"
        },
        {
          "internalType": "address",
          "name": "destination",
          "type": "address"
        }
      ],
      "name": "withdrawFromAccountTo",
      "outputs": [],
      "stateMutability": "nonpayable",
      "type": "function"
    }
  ],
  "bytecode": "0x60806040523480156200001157600080fd5b506200001c62000022565b620000e3565b600054610100900460ff16156200008f5760405162461bcd60e51b815260206004820152602760248201527f496e697469616c697a61626c653a20636f6e747261637420697320696e697469604482015266616c697a696e6760c81b606482015260840160405180910390fd5b60005460ff90811614620000e1576000805460ff191660ff9081179091556040519081527f7f26b83ff96e1f2b6a682f133852f6798a09c465da95921460cefb38474024989060200160405180910390a15b565b6146cb80620000f36000396000f3fe608060405234801561001057600080fd5b50600436106102e95760003560e01c80639181b74b11610191578063ab3ef49b116100e3578063d547741f11610097578063f462e68211610071578063f462e682146106e3578063f7420276146106ec578063fb1bb9de146106ff57600080fd5b8063d547741f14610696578063d9c2337c146106a9578063e63ab1e9146106bc57600080fd5b8063bd367d8e116100c8578063bd367d8e1461065d578063c110221414610670578063cf7a1d771461068357600080fd5b8063ab3ef49b14610616578063b9c9b3f21461062957600080fd5b806395f70ab011610145578063a2011b3f1161011f578063a2011b3f146105d4578063a217fddf146105fb578063a58c99d71461060357600080fd5b806395f70ab0146105985780639b0c03de146105ab578063a04c6809146105cb57600080fd5b806394aee4221161017657806394aee4221461053457806395c7d0ec1461054757806395d4609d1461056757600080fd5b80639181b74b146104e857806391d14854146104fb57600080fd5b806336568abe1161024a5780636a29dfbf116101fe5780638456cb59116101d85780638456cb5914610496578063875245811461049e5780638b5afd2b146104bf57600080fd5b80636a29dfbf1461045d5780637278b28f1461047057806382a7e5331461048357600080fd5b80633f4ba83a1161022f5780633f4ba83a146104375780634ebabea11461043f5780635c975abb1461045257600080fd5b806336568abe1461041157806337f93b081461042457600080fd5b8063288409bb116102a15780632f2ff15d116102865780632f2ff15d146103d857806331e69d2d146103eb578063342fcda9146103fe57600080fd5b8063288409bb146103b25780632ad26a04146103c557600080fd5b8063022914a7116102d2578063022914a71461032b57806311464fbe1461036c578063248a9ca31461038157600080fd5b806301569e3a146102ee57806301ffc9a714610303575b600080fd5b6103016102fc366004613821565b610726565b005b61031661031136600461385b565b6107c7565b60405190151581526020015b60405180910390f35b610354610339366004613821565b60cb602052600090815260409020546001600160a01b031681565b6040516001600160a01b039091168152602001610322565b610374610830565b60405161032291906138c6565b6103a461038f3660046138d9565b60009081526097602052604090206001015490565b604051908152602001610322565b6103016103c0366004613821565b6108be565b6103016103d33660046139b7565b610940565b6103016103e63660046139ec565b610a5a565b6103016103f9366004613a1c565b610a84565b61030161040c366004613a1c565b610da3565b61030161041f3660046139ec565b610f83565b60cc54610354906001600160a01b031681565b61030161100f565b61030161044d366004613ae7565b611044565b60335460ff16610316565b61030161046b366004613b5c565b61128e565b60cd54610354906001600160a01b031681565b6103016104913660046139b7565b61143f565b6103016114af565b6104b16104ac366004613a1c565b6114e1565b604051610322929190613bbe565b6103a46104cd366004613821565b6001600160a01b0316600090815260c9602052604090205490565b6103546104f6366004613c60565b6115b1565b6103166105093660046139ec565b60009182526097602090815260408084206001600160a01b0393909316845291905290205460ff1690565b610301610542366004613a1c565b61185e565b61055a610555366004613cfd565b6119a8565b6040516103229190613d32565b6103a4610575366004613dcd565b60d260209081526000938452604080852082529284528284209052825290205481565b6103016105a6366004613821565b611ba9565b6103a46105b9366004613821565b60ca6020526000908152604090205481565b6103a460ce5481565b6103a47f61c92169ef077349011ff0b1383c894d86c5f0b41d986366b58a6cf31e93beda81565b6103a4600081565b610301610611366004613b5c565b611ea9565b610301610624366004613e14565b6122a6565b610316610637366004613dcd565b60d060209081526000938452604080852082529284528284209052825290205460ff1681565b61030161066b366004613e56565b6123f0565b61030161067e366004613ea6565b612572565b610301610691366004613ef5565b612785565b6103016106a43660046139ec565b612982565b6103016106b7366004613f4d565b6129a7565b6103a47f65d7a28e3265b37a6474929f336521b332c1681b933f6cb9f3376673440d862a81565b6103a460d15481565b6103016106fa3660046138d9565b612a49565b6103a47f427da25fe773164f88948d3e215c94b6554e2ed5e5f203a821c9f2f6131cf75a81565b7f61c92169ef077349011ff0b1383c894d86c5f0b41d986366b58a6cf31e93beda61075081612ab5565b60cd54604080516001600160a01b03928316815291841660208301527ff78ccdf5924090b2ab6627ac5da4ec5affed73d47c6bc6c8a4620a0d5ed57bc8910160405180910390a15060cd805473ffffffffffffffffffffffffffffffffffffffff19166001600160a01b0392909216919091179055565b60006001600160e01b031982167f7965db0b00000000000000000000000000000000000000000000000000000000148061082a57507f01ffc9a7000000000000000000000000000000000000000000000000000000006001600160e01b03198316145b92915050565b60cf805461083d90613f93565b80601f016020809104026020016040519081016040528092919081815260200182805461086990613f93565b80156108b65780601f1061088b576101008083540402835291602001916108b6565b820191906000526020600020905b81548152906001019060200180831161089957829003601f168201915b505050505081565b60006108c981612ab5565b60cc54604080516001600160a01b03928316815291841660208301527fc0c0a485d5a9547b687095c9652fe0811abc1379aa253cc64a91be08804b8956910160405180910390a15060cc805473ffffffffffffffffffffffffffffffffffffffff19166001600160a01b0392909216919091179055565b610948612abf565b6000610952612b14565b33600090815260c96020818152604080842080546001600160a01b0387811680885260ca8652848820839055958552835180850190945294835282840189815260018083018455928752939095208251600290960201805473ffffffffffffffffffffffffffffffffffffffff19169590941694909417835590519394509290918201906109e09082614013565b5050506001600160a01b038116600090815260cb602052604090819020805473ffffffffffffffffffffffffffffffffffffffff19163390811790915590517f1deb86e124d1a5f3b49977292b48e989b984bcd8944cfb14d63c8880482f2cff91610a4e91849086906140d3565b60405180910390a15050565b600082815260976020526040902060010154610a7581612ab5565b610a7f8383612bf2565b505050565b6001600160a01b03808316600090815260cb602052604090205483913391168114610b0a5760405162461bcd60e51b815260206004820152602b60248201527f4d756c74694163636f756e743a2053656e6465722069736e2774206f776e657260448201526a081bd9881858d8dbdd5b9d60aa1b60648201526084015b60405180910390fd5b610b12612abf565b60cd5460408051635c1548fb60e01b815290516000926001600160a01b031691635c1548fb9160048083019260209291908290030181865afa158015610b5c573d6000803e3d6000fd5b505050506040513d601f19601f82011682018060405250810190610b809190614108565b9050610b976001600160a01b038216333087612c94565b60cd54610bb1906001600160a01b03838116911686612d18565b60cd546040516317a790f160e11b81526001600160a01b0387811660048301526024820187905290911690632f4f21e290604401600060405180830381600087803b158015610bff57600080fd5b505af1158015610c13573d6000803e3d6000fd5b505050506000816001600160a01b031663313ce5676040518163ffffffff1660e01b8152600401602060405180830381865afa158015610c57573d6000803e3d6000fd5b505050506040513d601f19601f82011682018060405250810190610c7b9190614125565b610c8690600a614242565b610c9886670de0b6b3a7640000614251565b610ca29190614268565b9050600081604051602401610cb991815260200190565b60408051601f198184030181529190526020810180516001600160e01b03167f90ca796b000000000000000000000000000000000000000000000000000000001790529050610d088782612e66565b604080513381526001600160a01b03891660208201529081018790527fb92f7c65176e3a873589352927ba42330e95085f34ab1a9721f2135b94a518839060600160405180910390a1604080513381526001600160a01b03891660208201529081018390527f13b84d799b5b8b235eafe52313197bb3dbf3d5c36c2ac0b62e4c45cc4d3a958e9060600160405180910390a150505050505050565b6001600160a01b03808316600090815260cb602052604090205483913391168114610e245760405162461bcd60e51b815260206004820152602b60248201527f4d756c74694163636f756e743a2053656e6465722069736e2774206f776e657260448201526a081bd9881858d8dbdd5b9d60aa1b6064820152608401610b01565b610e2c612abf565b60cd5460408051635c1548fb60e01b815290516000926001600160a01b031691635c1548fb9160048083019260209291908290030181865afa158015610e76573d6000803e3d6000fd5b505050506040513d601f19601f82011682018060405250810190610e9a9190614108565b9050610eb16001600160a01b038216333087612c94565b60cd54610ecb906001600160a01b03838116911686612d18565b60cd546040516317a790f160e11b81526001600160a01b0387811660048301526024820187905290911690632f4f21e290604401600060405180830381600087803b158015610f1957600080fd5b505af1158015610f2d573d6000803e3d6000fd5b5050604080513381526001600160a01b03891660208201529081018790527fb92f7c65176e3a873589352927ba42330e95085f34ab1a9721f2135b94a51883925060600190505b60405180910390a15050505050565b6001600160a01b03811633146110015760405162461bcd60e51b815260206004820152602f60248201527f416363657373436f6e74726f6c3a2063616e206f6e6c792072656e6f756e636560448201527f20726f6c657320666f722073656c6600000000000000000000000000000000006064820152608401610b01565b61100b8282612f2c565b5050565b7f427da25fe773164f88948d3e215c94b6554e2ed5e5f203a821c9f2f6131cf75a61103981612ab5565b611041612faf565b50565b6001600160a01b03808516600090815260cb6020526040902054859133911681146110c55760405162461bcd60e51b815260206004820152602b60248201527f4d756c74694163636f756e743a2053656e6465722069736e2774206f776e657260448201526a081bd9881858d8dbdd5b9d60aa1b6064820152608401610b01565b6001600160a01b03851633148015906110f05750856001600160a01b0316856001600160a01b031614155b61113c5760405162461bcd60e51b815260206004820152601c60248201527f4d756c74694163636f756e743a20496e76616c696420746172676574000000006044820152606401610b01565b6001831515146111b45760405162461bcd60e51b815260206004820152602960248201527f557365207265766f6b6520746f2066756e6374696f6e7320746f207265766f6b60448201527f65204163636573732e00000000000000000000000000000000000000000000006064820152608401610b01565b83515b8015611247576001600160a01b03808816600090815260d060209081526040808320938a168352929052908120600191876111f2848661428a565b815181106112025761120261429d565b6020908102919091018101516001600160e01b0319168252810191909152604001600020805460ff19169115159190911790558061123f816142b3565b9150506111b7565b507f41e2c91b7cd59c2d41cfac17496b166b244a4921d4a1c926b4a7132b6c66906e868686600160405161127e949392919061430f565b60405180910390a1505050505050565b6001600160a01b03808416600090815260cb60205260409020548491339116811461130f5760405162461bcd60e51b815260206004820152602b60248201527f4d756c74694163636f756e743a2053656e6465722069736e2774206f776e657260448201526a081bd9881858d8dbdd5b9d60aa1b6064820152608401610b01565b6001600160a01b038416331480159061133a5750846001600160a01b0316846001600160a01b031614155b6113865760405162461bcd60e51b815260206004820152601c60248201527f4d756c74694163636f756e743a20496e76616c696420746172676574000000006044820152606401610b01565b82515b801561140b576001600160a01b03808716600090815260d26020908152604080832093891683529290529081204291866113c460018661428a565b815181106113d4576113d461429d565b6020908102919091018101516001600160e01b03191682528101919091526040016000205580611403816142b3565b915050611389565b507f64930ca7235077162dd09f78d211b233f0f505f794151b9ecfaa6680bf00ead6858585604051610f749392919061434e565b7f61c92169ef077349011ff0b1383c894d86c5f0b41d986366b58a6cf31e93beda61146981612ab5565b7f4ec7166fdb5f155366ddacdab9af9c74d038015a7570252e40c6c82346308ad760cf8360405161149b92919061437a565b60405180910390a160cf610a7f8382614013565b7f65d7a28e3265b37a6474929f336521b332c1681b933f6cb9f3376673440d862a6114d981612ab5565b611041613001565b60c960205281600052604060002081815481106114fd57600080fd5b6000918252602090912060029091020180546001820180546001600160a01b03909216945091925061152e90613f93565b80601f016020809104026020016040519081016040528092919081815260200182805461155a90613f93565b80156115a75780601f1061157c576101008083540402835291602001916115a7565b820191906000526020600020905b81548152906001019060200180831161158a57829003601f168201915b5050505050905082565b60006115bb612b14565b33600090815260c96020818152604080842080546001600160a01b0387811680885260ca865284882083905595855283518085019094529483528284018c815260018083018455928752939095208251600290960201805473ffffffffffffffffffffffffffffffffffffffff19169590941694909417835590519394509290918201906116499082614013565b5050506001600160a01b038116600090815260cb602052604090819020805473ffffffffffffffffffffffffffffffffffffffff19163390811790915590517f1deb86e124d1a5f3b49977292b48e989b984bcd8944cfb14d63c8880482f2cff916116b791849089906140d3565b60405180910390a16001600160a01b03841633148015906116ea5750806001600160a01b0316846001600160a01b031614155b6117365760405162461bcd60e51b815260206004820152601c60248201527f4d756c74694163636f756e743a20696e76616c696420746172676574000000006044820152606401610b01565b82515b80156117c9576001600160a01b03808316600090815260d060209081526040808320938916835292905290812060019186611774848661428a565b815181106117845761178461429d565b6020908102919091018101516001600160e01b0319168252810191909152604001600020805460ff1916911515919091179055806117c1816142b3565b915050611739565b507f41e2c91b7cd59c2d41cfac17496b166b244a4921d4a1c926b4a7132b6c66906e8185856001604051611800949392919061430f565b60405180910390a160005b82518160ff161015611855576000838260ff168151811061182e5761182e61429d565b602002602001015190506118428382612e66565b508061184d81614410565b91505061180b565b50949350505050565b6001600160a01b03808316600090815260cb6020526040902054839133911681146118df5760405162461bcd60e51b815260206004820152602b60248201527f4d756c74694163636f756e743a2053656e6465722069736e2774206f776e657260448201526a081bd9881858d8dbdd5b9d60aa1b6064820152608401610b01565b6118e7612abf565b6001600160a01b03848116600081815260cb6020908152604091829020548251941660248501526044808501889052825180860390910181526064909401825283810180516001600160e01b03167f205c287800000000000000000000000000000000000000000000000000000000179052815133815290810192909252818101869052517f40e4447d271dea2a920b9669d305a3255d8783d59b016237e63b106f1c9dd5fa916060908290030190a16119a18582612e66565b5050505050565b6001600160a01b038316600090815260c96020526040812054606091906119d090859061428a565b83116119dc5782611a00565b6001600160a01b038516600090815260c96020526040902054611a0090859061428a565b905060008167ffffffffffffffff811115611a1d57611a1d6138f2565b604051908082528060200260200182016040528015611a6357816020015b604080518082019091526000815260606020820152815260200190600190039081611a3b5790505b509050845b611a72838761442f565b811015611b9f576001600160a01b038716600090815260c960205260409020805482908110611aa357611aa361429d565b60009182526020918290206040805180820190915260029092020180546001600160a01b031682526001810180549293919291840191611ae290613f93565b80601f0160208091040260200160405190810160405280929190818152602001828054611b0e90613f93565b8015611b5b5780601f10611b3057610100808354040283529160200191611b5b565b820191906000526020600020905b815481529060010190602001808311611b3e57829003601f168201915b505050505081525050828783611b71919061428a565b81518110611b8157611b8161429d565b60200260200101819052508080611b9790614442565b915050611a68565b5095945050505050565b611bb1612abf565b60cd5460408051635c1548fb60e01b815290516000926001600160a01b031691635c1548fb9160048083019260209291908290030181865afa158015611bfb573d6000803e3d6000fd5b505050506040513d601f19601f82011682018060405250810190611c1f9190614108565b6040517f70a082310000000000000000000000000000000000000000000000000000000081523060048201529091506000906001600160a01b038316906370a0823190602401602060405180830381865afa158015611c82573d6000803e3d6000fd5b505050506040513d601f19601f82011682018060405250810190611ca6919061445c565b60cd54909150611cc3906001600160a01b03848116911683612d18565b60cd546040516317a790f160e11b81526001600160a01b0385811660048301526024820184905290911690632f4f21e290604401600060405180830381600087803b158015611d1157600080fd5b505af1158015611d25573d6000803e3d6000fd5b505050506000826001600160a01b031663313ce5676040518163ffffffff1660e01b8152600401602060405180830381865afa158015611d69573d6000803e3d6000fd5b505050506040513d601f19601f82011682018060405250810190611d8d9190614125565b611d9890600a614242565b611daa83670de0b6b3a7640000614251565b611db49190614268565b9050600081604051602401611dcb91815260200190565b60408051601f198184030181529190526020810180516001600160e01b03167f90ca796b000000000000000000000000000000000000000000000000000000001790529050611e1a8582612e66565b604080513381526001600160a01b03871660208201529081018490527fb92f7c65176e3a873589352927ba42330e95085f34ab1a9721f2135b94a518839060600160405180910390a1604080513381526001600160a01b03871660208201529081018390527f13b84d799b5b8b235eafe52313197bb3dbf3d5c36c2ac0b62e4c45cc4d3a958e90606001610f74565b6001600160a01b03808416600090815260cb602052604090205484913391168114611f2a5760405162461bcd60e51b815260206004820152602b60248201527f4d756c74694163636f756e743a2053656e6465722069736e2774206f776e657260448201526a081bd9881858d8dbdd5b9d60aa1b6064820152608401610b01565b6001600160a01b0384163314801590611f555750846001600160a01b0316846001600160a01b031614155b611fa15760405162461bcd60e51b815260206004820152601c60248201527f4d756c74694163636f756e743a20496e76616c696420746172676574000000006044820152606401610b01565b82515b801561226f576001600160a01b03808716600090815260d26020908152604080832093891683529290529081209085611fde60018561428a565b81518110611fee57611fee61429d565b60200260200101516001600160e01b0319166001600160e01b03191681526020019081526020016000205460000361208e5760405162461bcd60e51b815260206004820152602860248201527f4d756c74694163636f756e743a205265766f6b6520616363657373206e6f742060448201527f70726f706f7365640000000000000000000000000000000000000000000000006064820152608401610b01565b60d1546001600160a01b03808816600090815260d260209081526040808320938a168352929052908120429291876120c760018761428a565b815181106120d7576120d761429d565b60200260200101516001600160e01b0319166001600160e01b03191681526020019081526020016000205461210c919061442f565b11156121805760405162461bcd60e51b815260206004820152602260248201527f4d756c74694163636f756e743a20436f6f6c646f776e206e6f7420726561636860448201527f65640000000000000000000000000000000000000000000000000000000000006064820152608401610b01565b6001600160a01b03808716600090815260d060209081526040808320938916835292905290812081866121b460018661428a565b815181106121c4576121c461429d565b6020908102919091018101516001600160e01b03191682528181019290925260409081016000908120805460ff1916941515949094179093556001600160a01b03898116845260d2835281842090891684529091528120818661222860018661428a565b815181106122385761223861429d565b6020908102919091018101516001600160e01b03191682528101919091526040016000205580612267816142b3565b915050611fa4565b507f41e2c91b7cd59c2d41cfac17496b166b244a4921d4a1c926b4a7132b6c66906e8585856000604051610f74949392919061430f565b6001600160a01b03808416600090815260cb6020526040902054849133911681146123275760405162461bcd60e51b815260206004820152602b60248201527f4d756c74694163636f756e743a2053656e6465722069736e2774206f776e657260448201526a081bd9881858d8dbdd5b9d60aa1b6064820152608401610b01565b61232f612abf565b6040516001600160a01b03841660248201526044810185905260009060640160408051601f19818403018152918152602080830180516001600160e01b03167f205c28780000000000000000000000000000000000000000000000000000000017905281513381526001600160a01b038a16918101919091529081018790529091507f40e4447d271dea2a920b9669d305a3255d8783d59b016237e63b106f1c9dd5fa9060600160405180910390a16123e88682612e66565b505050505050565b6123f8612abf565b6001600160a01b03828116600090815260cb60205260408120549091163314905b82518160ff16101561256c576000838260ff168151811061243c5761243c61429d565b602002602001015190508261254f5760048151101561249d5760405162461bcd60e51b815260206004820152601f60248201527f4d756c74694163636f756e743a20496e76616c69642063616c6c2064617461006044820152606401610b01565b6020818101516001600160a01b038716600090815260d08352604080822033835284528082206001600160e01b031984168352909352919091205460ff1661254d5760405162461bcd60e51b815260206004820152602160248201527f4d756c74694163636f756e743a20556e617574686f72697a656420616363657360448201527f73000000000000000000000000000000000000000000000000000000000000006064820152608401610b01565b505b6125598582612e66565b508061256481614410565b915050612419565b50505050565b6001600160a01b03808516600090815260cb6020526040902054859133911681146125f35760405162461bcd60e51b815260206004820152602b60248201527f4d756c74694163636f756e743a2053656e6465722069736e2774206f776e657260448201526a081bd9881858d8dbdd5b9d60aa1b6064820152608401610b01565b6001600160a01b038516331480159061261e5750856001600160a01b0316856001600160a01b031614155b61266a5760405162461bcd60e51b815260206004820152601c60248201527f4d756c74694163636f756e743a20496e76616c696420746172676574000000006044820152606401610b01565b6001831515146126e25760405162461bcd60e51b815260206004820152602960248201527f557365207265766f6b6520746f2066756e6374696f6e7320746f207265766f6b60448201527f65204163636573732e00000000000000000000000000000000000000000000006064820152608401610b01565b604080516001600160a01b038881168252871660208201526001600160e01b03198616818301526001606082015290517fc6c2cef2fe1f0545b232744fc2812ca3a23cdb770794c9c7458ea69f6d9be7ff9181900360800190a15050506001600160a01b03928316600090815260d0602090815260408083209490951682529283528381206001600160e01b03199092168152915220805460ff19166001179055565b600054610100900460ff16158080156127a55750600054600160ff909116105b806127bf5750303b1580156127bf575060005460ff166001145b6128315760405162461bcd60e51b815260206004820152602e60248201527f496e697469616c697a61626c653a20636f6e747261637420697320616c72656160448201527f647920696e697469616c697a65640000000000000000000000000000000000006064820152608401610b01565b6000805460ff191660011790558015612854576000805461ff0019166101001790555b61285c61303e565b6128646130c3565b61286f600085612bf2565b6128997f65d7a28e3265b37a6474929f336521b332c1681b933f6cb9f3376673440d862a85612bf2565b6128c37f427da25fe773164f88948d3e215c94b6554e2ed5e5f203a821c9f2f6131cf75a85612bf2565b6128ed7f61c92169ef077349011ff0b1383c894d86c5f0b41d986366b58a6cf31e93beda85612bf2565b60cc80546001600160a01b0380871673ffffffffffffffffffffffffffffffffffffffff199283161790925560cd80549286169290911691909117905560cf6129368382614013565b50801561256c576000805461ff0019169055604051600181527f7f26b83ff96e1f2b6a682f133852f6798a09c465da95921460cefb38474024989060200160405180910390a150505050565b60008281526097602052604090206001015461299d81612ab5565b610a7f8383612f2c565b6129af612abf565b6001600160a01b038216600090815260ca602090815260408083205433845260c99092529091208054839190839081106129eb576129eb61429d565b90600052602060002090600202016001019081612a089190614013565b507f13bbfc66aca7f597c509c7eb717cafee4ae3fc31a77f4bbb22b333e81369276d338484604051612a3c939291906140d3565b60405180910390a1505050565b7f61c92169ef077349011ff0b1383c894d86c5f0b41d986366b58a6cf31e93beda612a7381612ab5565b60d15460408051918252602082018490527f41a6e3ea336979dfead544a7561ccbf3fbbbf13c4405cc4ce398afaebf4b1498910160405180910390a15060d155565b6110418133613140565b60335460ff1615612b125760405162461bcd60e51b815260206004820152601060248201527f5061757361626c653a20706175736564000000000000000000000000000000006044820152606401610b01565b565b60ce546040517f4d756c74694163636f756e745f000000000000000000000000000000000000006020820152602d8101919091526000908190604d01604051602081830303815290604052805190602001209050600160ce6000828254612b7b919061442f565b909155505060cc5460cd54604080516001600160a01b03938416602082015230918101919091529116606082015260009060cf9060800160408051601f1981840301815290829052612bd09291602001614475565b6040516020818303038152906040529050612beb81836131b5565b9250505090565b60008281526097602090815260408083206001600160a01b038516845290915290205460ff1661100b5760008281526097602090815260408083206001600160a01b03851684529091529020805460ff19166001179055612c503390565b6001600160a01b0316816001600160a01b0316837f2f8788117e7eff1d82e926ec794901d17c78024a50270940304540a733656f0d60405160405180910390a45050565b6040516001600160a01b038085166024830152831660448201526064810182905261256c9085907f23b872dd00000000000000000000000000000000000000000000000000000000906084015b60408051601f198184030181529190526020810180516001600160e01b03166001600160e01b031990931692909217909152613260565b801580612dab57506040517fdd62ed3e0000000000000000000000000000000000000000000000000000000081523060048201526001600160a01b03838116602483015284169063dd62ed3e90604401602060405180830381865afa158015612d85573d6000803e3d6000fd5b505050506040513d601f19601f82011682018060405250810190612da9919061445c565b155b612e1d5760405162461bcd60e51b815260206004820152603660248201527f5361666545524332303a20617070726f76652066726f6d206e6f6e2d7a65726f60448201527f20746f206e6f6e2d7a65726f20616c6c6f77616e6365000000000000000000006064820152608401610b01565b6040516001600160a01b038316602482015260448101829052610a7f9084907f095ea7b30000000000000000000000000000000000000000000000000000000090606401612ce1565b600080836001600160a01b03166362dfbb2e846040518263ffffffff1660e01b8152600401612e9591906138c6565b6000604051808303816000875af1158015612eb4573d6000803e3d6000fd5b505050506040513d6000823e601f3d908101601f19168201604052612edc91908101906144fc565b915091507f268e99f0b37c8146a6aea7c6af329e3924d9c92c4386be924c2990926d99b6613385858585604051612f17959493929190614589565b60405180910390a18161256c57805160208201fd5b60008281526097602090815260408083206001600160a01b038516845290915290205460ff161561100b5760008281526097602090815260408083206001600160a01b0385168085529252808320805460ff1916905551339285917ff6391f5c32d9c69d2a47ea670b442974b53935d1edc7fd64eb21e047a839171b9190a45050565b612fb7613348565b6033805460ff191690557f5db9ee0a495bf2e6ff9c91a7834c1ba4fdd244a5e8aa4e537bd38aeae4b073aa335b6040516001600160a01b03909116815260200160405180910390a1565b613009612abf565b6033805460ff191660011790557f62e78cea01bee320cd4e420270b5ea74000d11b0c9f74754ebdbfc544b05a258612fe43390565b600054610100900460ff166130bb5760405162461bcd60e51b815260206004820152602b60248201527f496e697469616c697a61626c653a20636f6e7472616374206973206e6f74206960448201527f6e697469616c697a696e670000000000000000000000000000000000000000006064820152608401610b01565b612b1261339a565b600054610100900460ff16612b125760405162461bcd60e51b815260206004820152602b60248201527f496e697469616c697a61626c653a20636f6e7472616374206973206e6f74206960448201527f6e697469616c697a696e670000000000000000000000000000000000000000006064820152608401610b01565b60008281526097602090815260408083206001600160a01b038516845290915290205460ff1661100b5761317381613423565b61317e836020613435565b60405160200161318f9291906145db565b60408051601f198184030181529082905262461bcd60e51b8252610b01916004016138c6565b6000818351602085016000f590506001600160a01b0381166132195760405162461bcd60e51b815260206004820152601c60248201527f4d756c74694163636f756e743a2063726561746532206661696c6564000000006044820152606401610b01565b604080513381526001600160a01b03831660208201527f6cbd957809e2aaf4d5e36136d06e71215f53a984b218c6d501e22f91d348d9ce910160405180910390a192915050565b60006132b5826040518060400160405280602081526020017f5361666545524332303a206c6f772d6c6576656c2063616c6c206661696c6564815250856001600160a01b03166136659092919063ffffffff16565b90508051600014806132d65750808060200190518101906132d6919061465c565b610a7f5760405162461bcd60e51b815260206004820152602a60248201527f5361666545524332303a204552433230206f7065726174696f6e20646964206e60448201527f6f742073756363656564000000000000000000000000000000000000000000006064820152608401610b01565b60335460ff16612b125760405162461bcd60e51b815260206004820152601460248201527f5061757361626c653a206e6f74207061757365640000000000000000000000006044820152606401610b01565b600054610100900460ff166134175760405162461bcd60e51b815260206004820152602b60248201527f496e697469616c697a61626c653a20636f6e7472616374206973206e6f74206960448201527f6e697469616c697a696e670000000000000000000000000000000000000000006064820152608401610b01565b6033805460ff19169055565b606061082a6001600160a01b03831660145b60606000613444836002614251565b61344f90600261442f565b67ffffffffffffffff811115613467576134676138f2565b6040519080825280601f01601f191660200182016040528015613491576020820181803683370190505b5090507f3000000000000000000000000000000000000000000000000000000000000000816000815181106134c8576134c861429d565b60200101907effffffffffffffffffffffffffffffffffffffffffffffffffffffffffffff1916908160001a9053507f78000000000000000000000000000000000000000000000000000000000000008160018151811061352b5761352b61429d565b60200101907effffffffffffffffffffffffffffffffffffffffffffffffffffffffffffff1916908160001a9053506000613567846002614251565b61357290600161442f565b90505b600181111561360f577f303132333435363738396162636465660000000000000000000000000000000085600f16601081106135b3576135b361429d565b1a60f81b8282815181106135c9576135c961429d565b60200101907effffffffffffffffffffffffffffffffffffffffffffffffffffffffffffff1916908160001a90535060049490941c93613608816142b3565b9050613575565b50831561365e5760405162461bcd60e51b815260206004820181905260248201527f537472696e67733a20686578206c656e67746820696e73756666696369656e746044820152606401610b01565b9392505050565b6060613674848460008561367c565b949350505050565b6060824710156136f45760405162461bcd60e51b815260206004820152602660248201527f416464726573733a20696e73756666696369656e742062616c616e636520666f60448201527f722063616c6c00000000000000000000000000000000000000000000000000006064820152608401610b01565b600080866001600160a01b031685876040516137109190614679565b60006040518083038185875af1925050503d806000811461374d576040519150601f19603f3d011682016040523d82523d6000602084013e613752565b606091505b50915091506137638783838761376e565b979650505050505050565b606083156137dd5782516000036137d6576001600160a01b0385163b6137d65760405162461bcd60e51b815260206004820152601d60248201527f416464726573733a2063616c6c20746f206e6f6e2d636f6e74726163740000006044820152606401610b01565b5081613674565b61367483838151156137f25781518083602001fd5b8060405162461bcd60e51b8152600401610b0191906138c6565b6001600160a01b038116811461104157600080fd5b60006020828403121561383357600080fd5b813561365e8161380c565b80356001600160e01b03198116811461385657600080fd5b919050565b60006020828403121561386d57600080fd5b61365e8261383e565b60005b83811015613891578181015183820152602001613879565b50506000910152565b600081518084526138b2816020860160208601613876565b601f01601f19169290920160200192915050565b60208152600061365e602083018461389a565b6000602082840312156138eb57600080fd5b5035919050565b634e487b7160e01b600052604160045260246000fd5b604051601f8201601f1916810167ffffffffffffffff81118282101715613931576139316138f2565b604052919050565b600067ffffffffffffffff821115613953576139536138f2565b50601f01601f191660200190565b600082601f83011261397257600080fd5b813561398561398082613939565b613908565b81815284602083860101111561399a57600080fd5b816020850160208301376000918101602001919091529392505050565b6000602082840312156139c957600080fd5b813567ffffffffffffffff8111156139e057600080fd5b61367484828501613961565b600080604083850312156139ff57600080fd5b823591506020830135613a118161380c565b809150509250929050565b60008060408385031215613a2f57600080fd5b8235613a3a8161380c565b946020939093013593505050565b600067ffffffffffffffff821115613a6257613a626138f2565b5060051b60200190565b600082601f830112613a7d57600080fd5b81356020613a8d61398083613a48565b82815260059290921b84018101918181019086841115613aac57600080fd5b8286015b84811015613ace57613ac18161383e565b8352918301918301613ab0565b509695505050505050565b801515811461104157600080fd5b60008060008060808587031215613afd57600080fd5b8435613b088161380c565b93506020850135613b188161380c565b9250604085013567ffffffffffffffff811115613b3457600080fd5b613b4087828801613a6c565b9250506060850135613b5181613ad9565b939692955090935050565b600080600060608486031215613b7157600080fd5b8335613b7c8161380c565b92506020840135613b8c8161380c565b9150604084013567ffffffffffffffff811115613ba857600080fd5b613bb486828701613a6c565b9150509250925092565b6001600160a01b0383168152604060208201526000613674604083018461389a565b600082601f830112613bf157600080fd5b81356020613c0161398083613a48565b82815260059290921b84018101918181019086841115613c2057600080fd5b8286015b84811015613ace57803567ffffffffffffffff811115613c445760008081fd5b613c528986838b0101613961565b845250918301918301613c24565b60008060008060808587031215613c7657600080fd5b843567ffffffffffffffff80821115613c8e57600080fd5b613c9a88838901613961565b955060208701359150613cac8261380c565b90935060408601359080821115613cc257600080fd5b613cce88838901613a6c565b93506060870135915080821115613ce457600080fd5b50613cf187828801613be0565b91505092959194509250565b600080600060608486031215613d1257600080fd5b8335613d1d8161380c565b95602085013595506040909401359392505050565b60006020808301818452808551808352604092508286019150828160051b87010184880160005b83811015613dbf578883037fffffffffffffffffffffffffffffffffffffffffffffffffffffffffffffffc0018552815180516001600160a01b03168452870151878401879052613dac8785018261389a565b9588019593505090860190600101613d59565b509098975050505050505050565b600080600060608486031215613de257600080fd5b8335613ded8161380c565b92506020840135613dfd8161380c565b9150613e0b6040850161383e565b90509250925092565b600080600060608486031215613e2957600080fd5b8335613e348161380c565b9250602084013591506040840135613e4b8161380c565b809150509250925092565b60008060408385031215613e6957600080fd5b8235613e748161380c565b9150602083013567ffffffffffffffff811115613e9057600080fd5b613e9c85828601613be0565b9150509250929050565b60008060008060808587031215613ebc57600080fd5b8435613ec78161380c565b93506020850135613ed78161380c565b9250613ee56040860161383e565b91506060850135613b5181613ad9565b600080600060608486031215613f0a57600080fd5b8335613f158161380c565b92506020840135613f258161380c565b9150604084013567ffffffffffffffff811115613f4157600080fd5b613bb486828701613961565b60008060408385031215613f6057600080fd5b8235613f6b8161380c565b9150602083013567ffffffffffffffff811115613f8757600080fd5b613e9c85828601613961565b600181811c90821680613fa757607f821691505b602082108103613fc757634e487b7160e01b600052602260045260246000fd5b50919050565b601f821115610a7f57600081815260208120601f850160051c81016020861015613ff45750805b601f850160051c820191505b818110156123e857828155600101614000565b815167ffffffffffffffff81111561402d5761402d6138f2565b6140418161403b8454613f93565b84613fcd565b602080601f831160018114614076576000841561405e5750858301515b600019600386901b1c1916600185901b1785556123e8565b600085815260208120601f198616915b828110156140a557888601518255948401946001909101908401614086565b50858210156140c35787850151600019600388901b60f8161c191681555b5050505050600190811b01905550565b60006001600160a01b038086168352808516602084015250606060408301526140ff606083018461389a565b95945050505050565b60006020828403121561411a57600080fd5b815161365e8161380c565b60006020828403121561413757600080fd5b815160ff8116811461365e57600080fd5b634e487b7160e01b600052601160045260246000fd5b600181815b8085111561419957816000190482111561417f5761417f614148565b8085161561418c57918102915b93841c9390800290614163565b509250929050565b6000826141b05750600161082a565b816141bd5750600061082a565b81600181146141d357600281146141dd576141f9565b600191505061082a565b60ff8411156141ee576141ee614148565b50506001821b61082a565b5060208310610133831016604e8410600b841016171561421c575081810a61082a565b614226838361415e565b806000190482111561423a5761423a614148565b029392505050565b600061365e60ff8416836141a1565b808202811582820484141761082a5761082a614148565b60008261428557634e487b7160e01b600052601260045260246000fd5b500490565b8181038181111561082a5761082a614148565b634e487b7160e01b600052603260045260246000fd5b6000816142c2576142c2614148565b506000190190565b600081518084526020808501945080840160005b838110156143045781516001600160e01b031916875295820195908201906001016142de565b509495945050505050565b60006001600160a01b0380871683528086166020840152506080604083015261433b60808301856142ca565b9050821515606083015295945050505050565b60006001600160a01b038086168352808516602084015250606060408301526140ff60608301846142ca565b60408152600080845461438c81613f93565b80604086015260606001808416600081146143ae57600181146143c8576143f9565b60ff198516838901528284151560051b89010195506143f9565b8960005260208060002060005b868110156143f05781548b82018701529084019082016143d5565b8a018501975050505b505050505082810360208401526140ff818561389a565b600060ff821660ff810361442657614426614148565b60010192915050565b8082018082111561082a5761082a614148565b6000600019820361445557614455614148565b5060010190565b60006020828403121561446e57600080fd5b5051919050565b600080845461448381613f93565b6001828116801561449b57600181146144b0576144df565b60ff19841687528215158302870194506144df565b8860005260208060002060005b858110156144d65781548a8201529084019082016144bd565b50505082870194505b5050505083516144f3818360208801613876565b01949350505050565b6000806040838503121561450f57600080fd5b825161451a81613ad9565b602084015190925067ffffffffffffffff81111561453757600080fd5b8301601f8101851361454857600080fd5b805161455661398082613939565b81815286602083850101111561456b57600080fd5b61457c826020830160208601613876565b8093505050509250929050565b60006001600160a01b03808816835280871660208401525060a060408301526145b560a083018661389a565b841515606084015282810360808401526145cf818561389a565b98975050505050505050565b7f416363657373436f6e74726f6c3a206163636f756e7420000000000000000000815260008351614613816017850160208801613876565b7f206973206d697373696e6720726f6c65200000000000000000000000000000006017918401918201528351614650816028840160208801613876565b01602801949350505050565b60006020828403121561466e57600080fd5b815161365e81613ad9565b6000825161468b818460208701613876565b919091019291505056fea2646970667358221220ef5bcbca74ebb3e25c4c33a180153fc68bbdf1fb1952892534f0eeb23c1a3f6764736f6c63430008120033",
  "linkReferences": {},
  "deployedLinkReferences": {}
}