{
  "_format": "hh-sol-artifact-1",
  "contractName": "MultiAccount",
  "sourceName": "contracts/MultiAccount.sol",
  "abi": [
    {
      "inputs": [],
      "stateMutability": "nonpayable",
      "type": "constructor"
    },
    {
      "anonymous": false,
      "inputs": [
        {
          "indexed": false,
          "internalType": "address",
          "name": "user",
          "type": "address"
        },
        {
          "indexed": false,
          "internalType": "address",
          "name": "account",
          "type": "address"
        },
        {
          "indexed": false,
          "internalType": "string",
          "name": "name",
          "type": "string"
        }
      ],
      "name": "AddAccount",
      "type": "event"
    },
    {
      "anonymous": false,
      "inputs": [
        {
          "indexed": false,
          "internalType": "address",
          "name": "user",
          "type": "address"
        },
        {
          "indexed": false,
          "internalType": "address",
          "name": "account",
          "type": "address"
        },
        {
          "indexed": false,
          "internalType": "uint256",
          "name": "amount",
          "type": "uint256"
        }
      ],
      "name": "AllocateForAccount",
      "type": "event"
    },
    {
      "anonymous": false,
      "inputs": [
        {
          "indexed": false,
          "internalType": "address",
          "name": "user",
          "type": "address"
        },
        {
          "indexed": false,
          "internalType": "address",
          "name": "account",
          "type": "address"
        },
        {
          "indexed": false,
          "internalType": "bytes",
          "name": "_callData",
          "type": "bytes"
        },
        {
          "indexed": false,
          "internalType": "bool",
          "name": "_success",
          "type": "bool"
        },
        {
          "indexed": false,
          "internalType": "bytes",
          "name": "_resultData",
          "type": "bytes"
        }
      ],
      "name": "Call",
      "type": "event"
    },
    {
      "anonymous": false,
      "inputs": [
        {
          "indexed": false,
          "internalType": "address",
          "name": "account",
          "type": "address"
        },
        {
          "indexed": false,
          "internalType": "address",
          "name": "target",
          "type": "address"
        },
        {
          "indexed": false,
          "internalType": "bytes4",
          "name": "selector",
          "type": "bytes4"
        },
        {
          "indexed": false,
          "internalType": "bool",
          "name": "state",
          "type": "bool"
        }
      ],
      "name": "DelegateAccess",
      "type": "event"
    },
    {
      "anonymous": false,
      "inputs": [
        {
          "indexed": false,
          "internalType": "address",
          "name": "account",
          "type": "address"
        },
        {
          "indexed": false,
          "internalType": "address",
          "name": "target",
          "type": "address"
        },
        {
          "indexed": false,
          "internalType": "bytes4[]",
          "name": "selector",
          "type": "bytes4[]"
        },
        {
          "indexed": false,
          "internalType": "bool",
          "name": "state",
          "type": "bool"
        }
      ],
      "name": "DelegateAccesses",
      "type": "event"
    },
    {
      "anonymous": false,
      "inputs": [
        {
          "indexed": false,
          "internalType": "address",
          "name": "sender",
          "type": "address"
        },
        {
          "indexed": false,
          "internalType": "address",
          "name": "contractAddress",
          "type": "address"
        }
      ],
      "name": "DeployContract",
      "type": "event"
    },
    {
      "anonymous": false,
      "inputs": [
        {
          "indexed": false,
          "internalType": "address",
          "name": "user",
          "type": "address"
        },
        {
          "indexed": false,
          "internalType": "address",
          "name": "account",
          "type": "address"
        },
        {
          "indexed": false,
          "internalType": "uint256",
          "name": "amount",
          "type": "uint256"
        }
      ],
      "name": "DepositForAccount",
      "type": "event"
    },
    {
      "anonymous": false,
      "inputs": [
        {
          "indexed": false,
          "internalType": "address",
          "name": "user",
          "type": "address"
        },
        {
          "indexed": false,
          "internalType": "address",
          "name": "account",
          "type": "address"
        },
        {
          "indexed": false,
          "internalType": "string",
          "name": "newName",
          "type": "string"
        }
      ],
      "name": "EditAccountName",
      "type": "event"
    },
    {
      "anonymous": false,
      "inputs": [
        {
          "indexed": false,
          "internalType": "uint8",
          "name": "version",
          "type": "uint8"
        }
      ],
      "name": "Initialized",
      "type": "event"
    },
    {
      "anonymous": false,
      "inputs": [
        {
          "indexed": false,
          "internalType": "address",
          "name": "account",
          "type": "address"
        }
      ],
      "name": "Paused",
      "type": "event"
    },
    {
      "anonymous": false,
      "inputs": [
        {
          "indexed": false,
          "internalType": "address",
          "name": "account",
          "type": "address"
        },
        {
          "indexed": false,
          "internalType": "address",
          "name": "target",
          "type": "address"
        },
        {
          "indexed": false,
          "internalType": "bytes4[]",
          "name": "selector",
          "type": "bytes4[]"
        }
      ],
      "name": "ProposeToRevokeAccesses",
      "type": "event"
    },
    {
      "anonymous": false,
      "inputs": [
        {
          "indexed": true,
          "internalType": "bytes32",
          "name": "role",
          "type": "bytes32"
        },
        {
          "indexed": true,
          "internalType": "bytes32",
          "name": "previousAdminRole",
          "type": "bytes32"
        },
        {
          "indexed": true,
          "internalType": "bytes32",
          "name": "newAdminRole",
          "type": "bytes32"
        }
      ],
      "name": "RoleAdminChanged",
      "type": "event"
    },
    {
      "anonymous": false,
      "inputs": [
        {
          "indexed": true,
          "internalType": "bytes32",
          "name": "role",
          "type": "bytes32"
        },
        {
          "indexed": true,
          "internalType": "address",
          "name": "account",
          "type": "address"
        },
        {
          "indexed": true,
          "internalType": "address",
          "name": "sender",
          "type": "address"
        }
      ],
      "name": "RoleGranted",
      "type": "event"
    },
    {
      "anonymous": false,
      "inputs": [
        {
          "indexed": true,
          "internalType": "bytes32",
          "name": "role",
          "type": "bytes32"
        },
        {
          "indexed": true,
          "internalType": "address",
          "name": "account",
          "type": "address"
        },
        {
          "indexed": true,
          "internalType": "address",
          "name": "sender",
          "type": "address"
        }
      ],
      "name": "RoleRevoked",
      "type": "event"
    },
    {
      "anonymous": false,
      "inputs": [
        {
          "indexed": false,
          "internalType": "bytes",
          "name": "oldAddress",
          "type": "bytes"
        },
        {
          "indexed": false,
          "internalType": "bytes",
          "name": "newAddress",
          "type": "bytes"
        }
      ],
      "name": "SetAccountImplementation",
      "type": "event"
    },
    {
      "anonymous": false,
      "inputs": [
        {
          "indexed": false,
          "internalType": "address",
          "name": "oldAccountAdmin",
          "type": "address"
        },
        {
          "indexed": false,
          "internalType": "address",
          "name": "newAccountAdmin",
          "type": "address"
        }
      ],
      "name": "SetAccountsAdmin",
      "type": "event"
    },
    {
      "anonymous": false,
      "inputs": [
        {
          "indexed": false,
          "internalType": "address",
          "name": "oldApiExecutor",
          "type": "address"
        },
        {
          "indexed": false,
          "internalType": "address",
          "name": "newApiExecutor",
          "type": "address"
        }
      ],
      "name": "SetApiExecutor",
      "type": "event"
    },
    {
      "anonymous": false,
      "inputs": [
        {
          "indexed": false,
          "internalType": "uint256",
          "name": "oldCooldown",
          "type": "uint256"
        },
        {
          "indexed": false,
          "internalType": "uint256",
          "name": "newCooldown",
          "type": "uint256"
        }
      ],
      "name": "SetRevokeCooldown",
      "type": "event"
    },
    {
      "anonymous": false,
      "inputs": [
        {
          "indexed": false,
          "internalType": "address",
          "name": "oldAddress",
          "type": "address"
        },
        {
          "indexed": false,
          "internalType": "address",
          "name": "newAddress",
          "type": "address"
        }
      ],
      "name": "SetSymmioAddress",
      "type": "event"
    },
    {
      "anonymous": false,
      "inputs": [
        {
          "indexed": false,
          "internalType": "address",
          "name": "account",
          "type": "address"
        }
      ],
      "name": "Unpaused",
      "type": "event"
    },
    {
      "anonymous": false,
      "inputs": [
        {
          "indexed": false,
          "internalType": "address",
          "name": "user",
          "type": "address"
        },
        {
          "indexed": false,
          "internalType": "address",
          "name": "account",
          "type": "address"
        },
        {
          "indexed": false,
          "internalType": "uint256",
          "name": "amount",
          "type": "uint256"
        }
      ],
      "name": "WithdrawFromAccount",
      "type": "event"
    },
    {
      "inputs": [],
      "name": "DEFAULT_ADMIN_ROLE",
      "outputs": [
        {
          "internalType": "bytes32",
          "name": "",
          "type": "bytes32"
        }
      ],
      "stateMutability": "view",
      "type": "function"
    },
    {
      "inputs": [],
      "name": "PAUSER_ROLE",
      "outputs": [
        {
          "internalType": "bytes32",
          "name": "",
          "type": "bytes32"
        }
      ],
      "stateMutability": "view",
      "type": "function"
    },
    {
      "inputs": [],
      "name": "SETTER_ROLE",
      "outputs": [
        {
          "internalType": "bytes32",
          "name": "",
          "type": "bytes32"
        }
      ],
      "stateMutability": "view",
      "type": "function"
    },
    {
      "inputs": [],
      "name": "UNPAUSER_ROLE",
      "outputs": [
        {
          "internalType": "bytes32",
          "name": "",
          "type": "bytes32"
        }
      ],
      "stateMutability": "view",
      "type": "function"
    },
    {
      "inputs": [
        {
          "internalType": "address",
          "name": "account",
          "type": "address"
        },
        {
          "internalType": "bytes[]",
          "name": "_callDatas",
          "type": "bytes[]"
        }
      ],
      "name": "_call",
      "outputs": [],
      "stateMutability": "nonpayable",
      "type": "function"
    },
    {
      "inputs": [],
      "name": "accountImplementation",
      "outputs": [
        {
          "internalType": "bytes",
          "name": "",
          "type": "bytes"
        }
      ],
      "stateMutability": "view",
      "type": "function"
    },
    {
      "inputs": [
        {
          "internalType": "address",
          "name": "",
          "type": "address"
        },
        {
          "internalType": "uint256",
          "name": "",
          "type": "uint256"
        }
      ],
      "name": "accounts",
      "outputs": [
        {
          "internalType": "address",
          "name": "accountAddress",
          "type": "address"
        },
        {
          "internalType": "string",
          "name": "name",
          "type": "string"
        }
      ],
      "stateMutability": "view",
      "type": "function"
    },
    {
      "inputs": [],
      "name": "accountsAdmin",
      "outputs": [
        {
          "internalType": "address",
          "name": "",
          "type": "address"
        }
      ],
      "stateMutability": "view",
      "type": "function"
    },
    {
      "inputs": [
        {
          "internalType": "string",
          "name": "name",
          "type": "string"
        }
      ],
      "name": "addAccount",
      "outputs": [],
      "stateMutability": "nonpayable",
      "type": "function"
    },
    {
      "inputs": [
        {
          "internalType": "string",
          "name": "name",
          "type": "string"
        },
        {
          "internalType": "address",
          "name": "target",
          "type": "address"
        },
        {
          "internalType": "bytes4[]",
          "name": "selector",
          "type": "bytes4[]"
        },
        {
          "internalType": "bytes[]",
          "name": "_callDatas",
          "type": "bytes[]"
        }
      ],
      "name": "addAccountDelegateAccessAndCall",
      "outputs": [
        {
          "internalType": "address",
          "name": "account",
          "type": "address"
        }
      ],
      "stateMutability": "nonpayable",
      "type": "function"
    },
    {
      "inputs": [],
      "name": "apiExecutor",
      "outputs": [
        {
          "internalType": "address",
          "name": "",
          "type": "address"
        }
      ],
      "stateMutability": "view",
      "type": "function"
    },
    {
      "inputs": [
        {
          "internalType": "address",
          "name": "account",
          "type": "address"
        },
        {
          "internalType": "address",
          "name": "target",
          "type": "address"
        },
        {
          "internalType": "bytes4",
          "name": "selector",
          "type": "bytes4"
        },
        {
          "internalType": "bool",
          "name": "state",
          "type": "bool"
        }
      ],
      "name": "delegateAccess",
      "outputs": [],
      "stateMutability": "nonpayable",
      "type": "function"
    },
    {
      "inputs": [
        {
          "internalType": "address",
          "name": "account",
          "type": "address"
        },
        {
          "internalType": "address",
          "name": "target",
          "type": "address"
        },
        {
          "internalType": "bytes4[]",
          "name": "selector",
          "type": "bytes4[]"
        },
        {
          "internalType": "bool",
          "name": "state",
          "type": "bool"
        }
      ],
      "name": "delegateAccesses",
      "outputs": [],
      "stateMutability": "nonpayable",
      "type": "function"
    },
    {
      "inputs": [
        {
          "internalType": "address",
          "name": "",
          "type": "address"
        },
        {
          "internalType": "address",
          "name": "",
          "type": "address"
        },
        {
          "internalType": "bytes4",
          "name": "",
          "type": "bytes4"
        }
      ],
      "name": "delegatedAccesses",
      "outputs": [
        {
          "internalType": "bool",
          "name": "",
          "type": "bool"
        }
      ],
      "stateMutability": "view",
      "type": "function"
    },
    {
      "inputs": [
        {
          "internalType": "address",
          "name": "account",
          "type": "address"
        },
        {
          "internalType": "uint256",
          "name": "amount",
          "type": "uint256"
        }
      ],
      "name": "depositAndAllocateForAccount",
      "outputs": [],
      "stateMutability": "nonpayable",
      "type": "function"
    },
    {
      "inputs": [
        {
          "internalType": "address",
          "name": "account",
          "type": "address"
        },
        {
          "internalType": "uint256",
          "name": "amount",
          "type": "uint256"
        }
      ],
      "name": "depositForAccount",
      "outputs": [],
      "stateMutability": "nonpayable",
      "type": "function"
    },
    {
      "inputs": [
        {
          "internalType": "address",
          "name": "accountAddress",
          "type": "address"
        },
        {
          "internalType": "string",
          "name": "name",
          "type": "string"
        }
      ],
      "name": "editAccountName",
      "outputs": [],
      "stateMutability": "nonpayable",
      "type": "function"
    },
    {
      "inputs": [
        {
          "internalType": "address",
          "name": "user",
          "type": "address"
        },
        {
          "internalType": "uint256",
          "name": "start",
          "type": "uint256"
        },
        {
          "internalType": "uint256",
          "name": "size",
          "type": "uint256"
        }
      ],
      "name": "getAccounts",
      "outputs": [
        {
          "components": [
            {
              "internalType": "address",
              "name": "accountAddress",
              "type": "address"
            },
            {
              "internalType": "string",
              "name": "name",
              "type": "string"
            }
          ],
          "internalType": "struct IMultiAccount.Account[]",
          "name": "",
          "type": "tuple[]"
        }
      ],
      "stateMutability": "view",
      "type": "function"
    },
    {
      "inputs": [
        {
          "internalType": "address",
          "name": "user",
          "type": "address"
        }
      ],
      "name": "getAccountsLength",
      "outputs": [
        {
          "internalType": "uint256",
          "name": "",
          "type": "uint256"
        }
      ],
      "stateMutability": "view",
      "type": "function"
    },
    {
      "inputs": [
        {
          "internalType": "bytes32",
          "name": "role",
          "type": "bytes32"
        }
      ],
      "name": "getRoleAdmin",
      "outputs": [
        {
          "internalType": "bytes32",
          "name": "",
          "type": "bytes32"
        }
      ],
      "stateMutability": "view",
      "type": "function"
    },
    {
      "inputs": [
        {
          "internalType": "bytes32",
          "name": "role",
          "type": "bytes32"
        },
        {
          "internalType": "address",
          "name": "account",
          "type": "address"
        }
      ],
      "name": "grantRole",
      "outputs": [],
      "stateMutability": "nonpayable",
      "type": "function"
    },
    {
      "inputs": [
        {
          "internalType": "bytes32",
          "name": "role",
          "type": "bytes32"
        },
        {
          "internalType": "address",
          "name": "account",
          "type": "address"
        }
      ],
      "name": "hasRole",
      "outputs": [
        {
          "internalType": "bool",
          "name": "",
          "type": "bool"
        }
      ],
      "stateMutability": "view",
      "type": "function"
    },
    {
      "inputs": [
        {
          "internalType": "address",
          "name": "",
          "type": "address"
        }
      ],
      "name": "indexOfAccount",
      "outputs": [
        {
          "internalType": "uint256",
          "name": "",
          "type": "uint256"
        }
      ],
      "stateMutability": "view",
      "type": "function"
    },
    {
      "inputs": [
        {
          "internalType": "address",
          "name": "admin",
          "type": "address"
        },
        {
          "internalType": "address",
          "name": "symmioAddress_",
          "type": "address"
        },
        {
          "internalType": "bytes",
          "name": "accountImplementation_",
          "type": "bytes"
        }
      ],
      "name": "initialize",
      "outputs": [],
      "stateMutability": "nonpayable",
      "type": "function"
    },
    {
      "inputs": [
        {
          "internalType": "address",
          "name": "",
          "type": "address"
        }
      ],
      "name": "owners",
      "outputs": [
        {
          "internalType": "address",
          "name": "",
          "type": "address"
        }
      ],
      "stateMutability": "view",
      "type": "function"
    },
    {
      "inputs": [],
      "name": "pause",
      "outputs": [],
      "stateMutability": "nonpayable",
      "type": "function"
    },
    {
      "inputs": [],
      "name": "paused",
      "outputs": [
        {
          "internalType": "bool",
          "name": "",
          "type": "bool"
        }
      ],
      "stateMutability": "view",
      "type": "function"
    },
    {
      "inputs": [
        {
          "internalType": "address",
          "name": "account",
          "type": "address"
        },
        {
          "internalType": "address",
          "name": "target",
          "type": "address"
        },
        {
          "internalType": "bytes4[]",
          "name": "selector",
          "type": "bytes4[]"
        }
      ],
      "name": "proposeToRevokeAccesses",
      "outputs": [],
      "stateMutability": "nonpayable",
      "type": "function"
    },
    {
      "inputs": [
        {
          "internalType": "bytes32",
          "name": "role",
          "type": "bytes32"
        },
        {
          "internalType": "address",
          "name": "account",
          "type": "address"
        }
      ],
      "name": "renounceRole",
      "outputs": [],
      "stateMutability": "nonpayable",
      "type": "function"
    },
    {
      "inputs": [
        {
          "internalType": "address",
          "name": "account",
          "type": "address"
        },
        {
          "internalType": "address",
          "name": "target",
          "type": "address"
        },
        {
          "internalType": "bytes4[]",
          "name": "selector",
          "type": "bytes4[]"
        }
      ],
      "name": "revokeAccesses",
      "outputs": [],
      "stateMutability": "nonpayable",
      "type": "function"
    },
    {
      "inputs": [],
      "name": "revokeCooldown",
      "outputs": [
        {
          "internalType": "uint256",
          "name": "",
          "type": "uint256"
        }
      ],
      "stateMutability": "view",
      "type": "function"
    },
    {
      "inputs": [
        {
          "internalType": "address",
          "name": "",
          "type": "address"
        },
        {
          "internalType": "address",
          "name": "",
          "type": "address"
        },
        {
          "internalType": "bytes4",
          "name": "",
          "type": "bytes4"
        }
      ],
      "name": "revokeProposalTimestamp",
      "outputs": [
        {
          "internalType": "uint256",
          "name": "",
          "type": "uint256"
        }
      ],
      "stateMutability": "view",
      "type": "function"
    },
    {
      "inputs": [
        {
          "internalType": "bytes32",
          "name": "role",
          "type": "bytes32"
        },
        {
          "internalType": "address",
          "name": "account",
          "type": "address"
        }
      ],
      "name": "revokeRole",
      "outputs": [],
      "stateMutability": "nonpayable",
      "type": "function"
    },
    {
      "inputs": [],
      "name": "saltCounter",
      "outputs": [
        {
          "internalType": "uint256",
          "name": "",
          "type": "uint256"
        }
      ],
      "stateMutability": "view",
      "type": "function"
    },
    {
      "inputs": [
        {
          "internalType": "bytes",
          "name": "accountImplementation_",
          "type": "bytes"
        }
      ],
      "name": "setAccountImplementation",
      "outputs": [],
      "stateMutability": "nonpayable",
      "type": "function"
    },
    {
      "inputs": [
        {
          "internalType": "address",
          "name": "accountsAdmin_",
          "type": "address"
        }
      ],
      "name": "setAccountsAdmin",
      "outputs": [],
      "stateMutability": "nonpayable",
      "type": "function"
    },
    {
      "inputs": [
        {
          "internalType": "address",
          "name": "apiExecutor_",
          "type": "address"
        }
      ],
      "name": "setApiExecutor",
      "outputs": [],
      "stateMutability": "nonpayable",
      "type": "function"
    },
    {
      "inputs": [
        {
          "internalType": "uint256",
          "name": "cooldown",
          "type": "uint256"
        }
      ],
      "name": "setRevokeCooldown",
      "outputs": [],
      "stateMutability": "nonpayable",
      "type": "function"
    },
    {
      "inputs": [
        {
          "internalType": "address",
          "name": "addr",
          "type": "address"
        }
      ],
      "name": "setSymmioAddress",
      "outputs": [],
      "stateMutability": "nonpayable",
      "type": "function"
    },
    {
      "inputs": [
        {
          "internalType": "bytes4",
          "name": "interfaceId",
          "type": "bytes4"
        }
      ],
      "name": "supportsInterface",
      "outputs": [
        {
          "internalType": "bool",
          "name": "",
          "type": "bool"
        }
      ],
      "stateMutability": "view",
      "type": "function"
    },
    {
      "inputs": [],
      "name": "symmioAddress",
      "outputs": [
        {
          "internalType": "address",
          "name": "",
          "type": "address"
        }
      ],
      "stateMutability": "view",
      "type": "function"
    },
    {
      "inputs": [],
      "name": "unpause",
      "outputs": [],
      "stateMutability": "nonpayable",
      "type": "function"
    },
    {
      "inputs": [
        {
          "internalType": "address",
          "name": "account",
          "type": "address"
        },
        {
          "internalType": "uint256",
          "name": "amount",
          "type": "uint256"
        }
      ],
      "name": "withdrawFromAccount",
      "outputs": [],
      "stateMutability": "nonpayable",
      "type": "function"
    },
    {
      "inputs": [
        {
          "internalType": "address",
          "name": "account",
          "type": "address"
        },
        {
          "internalType": "uint256",
          "name": "amount",
          "type": "uint256"
        },
        {
          "internalType": "address",
          "name": "destination",
          "type": "address"
        }
      ],
      "name": "withdrawFromAccountTo",
      "outputs": [],
      "stateMutability": "nonpayable",
      "type": "function"
    }
  ],
  "bytecode": "0x60806040523480156200001157600080fd5b506200001c62000022565b620000e3565b600054610100900460ff16156200008f5760405162461bcd60e51b815260206004820152602760248201527f496e697469616c697a61626c653a20636f6e747261637420697320696e697469604482015266616c697a696e6760c81b606482015260840160405180910390fd5b60005460ff90811614620000e1576000805460ff191660ff9081179091556040519081527f7f26b83ff96e1f2b6a682f133852f6798a09c465da95921460cefb38474024989060200160405180910390a15b565b61445b80620000f36000396000f3fe608060405234801561001057600080fd5b50600436106102f45760003560e01c80638b5afd2b11610191578063ab3ef49b116100e3578063d547741f11610097578063f462e68211610071578063f462e68214610701578063f74202761461070a578063fb1bb9de1461071d57600080fd5b8063d547741f146106b4578063d9c2337c146106c7578063e63ab1e9146106da57600080fd5b8063bd367d8e116100c8578063bd367d8e1461067b578063c11022141461068e578063cf7a1d77146106a157600080fd5b8063ab3ef49b14610634578063b9c9b3f21461064757600080fd5b806395d4609d11610145578063a2011b3f1161011f578063a2011b3f146105f2578063a217fddf14610619578063a58c99d71461062157600080fd5b806395d4609d146105985780639b0c03de146105c9578063a04c6809146105e957600080fd5b806391d148541161017657806391d148541461052c57806394aee4221461056557806395c7d0ec1461057857600080fd5b80638b5afd2b146104f05780639181b74b1461051957600080fd5b806336568abe1161024a5780636a29dfbf116101fe57806382a7e533116101d857806382a7e533146104b45780638456cb59146104c757806387524581146104cf57600080fd5b80636a29dfbf1461047b5780637278b28f1461048e578063807bbbad146104a157600080fd5b80633f4ba83a1161022f5780633f4ba83a146104555780634ebabea11461045d5780635c975abb1461047057600080fd5b806336568abe1461042f57806337f93b081461044257600080fd5b8063248a9ca3116102ac5780632f2ff15d116102865780632f2ff15d146103f657806331e69d2d14610409578063342fcda91461041c57600080fd5b8063248a9ca31461039f578063288409bb146103d05780632ad26a04146103e357600080fd5b8063022914a7116102dd578063022914a714610336578063107050461461037757806311464fbe1461038a57600080fd5b806301569e3a146102f957806301ffc9a71461030e575b600080fd5b61030c6103073660046135b1565b610744565b005b61032161031c3660046135eb565b6107e5565b60405190151581526020015b60405180910390f35b61035f6103443660046135b1565b60cb602052600090815260409020546001600160a01b031681565b6040516001600160a01b03909116815260200161032d565b61030c6103853660046135b1565b61084e565b6103926108d0565b60405161032d9190613656565b6103c26103ad366004613669565b60009081526097602052604090206001015490565b60405190815260200161032d565b61030c6103de3660046135b1565b61095e565b61030c6103f1366004613747565b6109e0565b61030c61040436600461377c565b610afa565b61030c6104173660046137ac565b610b24565b61030c61042a3660046137ac565b610dee565b61030c61043d36600461377c565b610ffa565b60cc5461035f906001600160a01b031681565b61030c611086565b61030c61046b366004613877565b6110bb565b60335460ff16610321565b61030c6104893660046138ec565b611305565b60cd5461035f906001600160a01b031681565b60d35461035f906001600160a01b031681565b61030c6104c2366004613747565b6114b6565b61030c611526565b6104e26104dd3660046137ac565b611558565b60405161032d92919061394e565b6103c26104fe3660046135b1565b6001600160a01b0316600090815260c9602052604090205490565b61035f6105273660046139f0565b611628565b61032161053a36600461377c565b60009182526097602090815260408084206001600160a01b0393909316845291905290205460ff1690565b61030c6105733660046137ac565b6118d5565b61058b610586366004613a8d565b611a1f565b60405161032d9190613ac2565b6103c26105a6366004613b5d565b60d260209081526000938452604080852082529284528284209052825290205481565b6103c26105d73660046135b1565b60ca6020526000908152604090205481565b6103c260ce5481565b6103c27f61c92169ef077349011ff0b1383c894d86c5f0b41d986366b58a6cf31e93beda81565b6103c2600081565b61030c61062f3660046138ec565b611c20565b61030c610642366004613ba4565b61201d565b610321610655366004613b5d565b60d060209081526000938452604080852082529284528284209052825290205460ff1681565b61030c610689366004613be6565b612167565b61030c61069c366004613c36565b612302565b61030c6106af366004613c85565b612515565b61030c6106c236600461377c565b612712565b61030c6106d5366004613cdd565b612737565b6103c27f65d7a28e3265b37a6474929f336521b332c1681b933f6cb9f3376673440d862a81565b6103c260d15481565b61030c610718366004613669565b6127d9565b6103c27f427da25fe773164f88948d3e215c94b6554e2ed5e5f203a821c9f2f6131cf75a81565b7f61c92169ef077349011ff0b1383c894d86c5f0b41d986366b58a6cf31e93beda61076e81612845565b60cd54604080516001600160a01b03928316815291841660208301527ff78ccdf5924090b2ab6627ac5da4ec5affed73d47c6bc6c8a4620a0d5ed57bc8910160405180910390a15060cd805473ffffffffffffffffffffffffffffffffffffffff19166001600160a01b0392909216919091179055565b60006001600160e01b031982167f7965db0b00000000000000000000000000000000000000000000000000000000148061084857507f01ffc9a7000000000000000000000000000000000000000000000000000000006001600160e01b03198316145b92915050565b600061085981612845565b60d354604080516001600160a01b03928316815291841660208301527f8a5ed057955681148f2309414702f1942a9849c5d2e0df34390b8f08032e3b3a910160405180910390a15060d3805473ffffffffffffffffffffffffffffffffffffffff19166001600160a01b0392909216919091179055565b60cf80546108dd90613d23565b80601f016020809104026020016040519081016040528092919081815260200182805461090990613d23565b80156109565780601f1061092b57610100808354040283529160200191610956565b820191906000526020600020905b81548152906001019060200180831161093957829003601f168201915b505050505081565b600061096981612845565b60cc54604080516001600160a01b03928316815291841660208301527fc0c0a485d5a9547b687095c9652fe0811abc1379aa253cc64a91be08804b8956910160405180910390a15060cc805473ffffffffffffffffffffffffffffffffffffffff19166001600160a01b0392909216919091179055565b6109e861284f565b60006109f26128a4565b33600090815260c96020818152604080842080546001600160a01b0387811680885260ca8652848820839055958552835180850190945294835282840189815260018083018455928752939095208251600290960201805473ffffffffffffffffffffffffffffffffffffffff1916959094169490941783559051939450929091820190610a809082613da3565b5050506001600160a01b038116600090815260cb602052604090819020805473ffffffffffffffffffffffffffffffffffffffff19163390811790915590517f1deb86e124d1a5f3b49977292b48e989b984bcd8944cfb14d63c8880482f2cff91610aee9184908690613e63565b60405180910390a15050565b600082815260976020526040902060010154610b1581612845565b610b1f8383612982565b505050565b610b2c61284f565b60cd54604080517f5c1548fb00000000000000000000000000000000000000000000000000000000815290516000926001600160a01b031691635c1548fb9160048083019260209291908290030181865afa158015610b8f573d6000803e3d6000fd5b505050506040513d601f19601f82011682018060405250810190610bb39190613e98565b9050610bca6001600160a01b038216333085612a24565b60cd54610be4906001600160a01b03838116911684612aa8565b60cd546040517f2f4f21e20000000000000000000000000000000000000000000000000000000081526001600160a01b0385811660048301526024820185905290911690632f4f21e290604401600060405180830381600087803b158015610c4b57600080fd5b505af1158015610c5f573d6000803e3d6000fd5b505050506000816001600160a01b031663313ce5676040518163ffffffff1660e01b8152600401602060405180830381865afa158015610ca3573d6000803e3d6000fd5b505050506040513d601f19601f82011682018060405250810190610cc79190613eb5565b610cd290600a613fd2565b610ce484670de0b6b3a7640000613fe1565b610cee9190613ff8565b9050600081604051602401610d0591815260200190565b60408051601f198184030181529190526020810180516001600160e01b03167f90ca796b000000000000000000000000000000000000000000000000000000001790529050610d548582612bf6565b604080513381526001600160a01b03871660208201529081018590527fb92f7c65176e3a873589352927ba42330e95085f34ab1a9721f2135b94a518839060600160405180910390a1604080513381526001600160a01b03871660208201529081018390527f13b84d799b5b8b235eafe52313197bb3dbf3d5c36c2ac0b62e4c45cc4d3a958e906060015b60405180910390a15050505050565b6001600160a01b03808316600090815260cb602052604090205483913391168114610e745760405162461bcd60e51b815260206004820152602b60248201527f4d756c74694163636f756e743a2053656e6465722069736e2774206f776e657260448201526a081bd9881858d8dbdd5b9d60aa1b60648201526084015b60405180910390fd5b610e7c61284f565b60cd54604080517f5c1548fb00000000000000000000000000000000000000000000000000000000815290516000926001600160a01b031691635c1548fb9160048083019260209291908290030181865afa158015610edf573d6000803e3d6000fd5b505050506040513d601f19601f82011682018060405250810190610f039190613e98565b9050610f1a6001600160a01b038216333087612a24565b60cd54610f34906001600160a01b03838116911686612aa8565b60cd546040517f2f4f21e20000000000000000000000000000000000000000000000000000000081526001600160a01b0387811660048301526024820187905290911690632f4f21e290604401600060405180830381600087803b158015610f9b57600080fd5b505af1158015610faf573d6000803e3d6000fd5b5050604080513381526001600160a01b03891660208201529081018790527fb92f7c65176e3a873589352927ba42330e95085f34ab1a9721f2135b94a5188392506060019050610ddf565b6001600160a01b03811633146110785760405162461bcd60e51b815260206004820152602f60248201527f416363657373436f6e74726f6c3a2063616e206f6e6c792072656e6f756e636560448201527f20726f6c657320666f722073656c6600000000000000000000000000000000006064820152608401610e6b565b6110828282612cbc565b5050565b7f427da25fe773164f88948d3e215c94b6554e2ed5e5f203a821c9f2f6131cf75a6110b081612845565b6110b8612d3f565b50565b6001600160a01b03808516600090815260cb60205260409020548591339116811461113c5760405162461bcd60e51b815260206004820152602b60248201527f4d756c74694163636f756e743a2053656e6465722069736e2774206f776e657260448201526a081bd9881858d8dbdd5b9d60aa1b6064820152608401610e6b565b6001600160a01b03851633148015906111675750856001600160a01b0316856001600160a01b031614155b6111b35760405162461bcd60e51b815260206004820152601c60248201527f4d756c74694163636f756e743a20496e76616c696420746172676574000000006044820152606401610e6b565b60018315151461122b5760405162461bcd60e51b815260206004820152602960248201527f557365207265766f6b6520746f2066756e6374696f6e7320746f207265766f6b60448201527f65204163636573732e00000000000000000000000000000000000000000000006064820152608401610e6b565b83515b80156112be576001600160a01b03808816600090815260d060209081526040808320938a16835292905290812060019187611269848661401a565b815181106112795761127961402d565b6020908102919091018101516001600160e01b0319168252810191909152604001600020805460ff1916911515919091179055806112b681614043565b91505061122e565b507f41e2c91b7cd59c2d41cfac17496b166b244a4921d4a1c926b4a7132b6c66906e86868660016040516112f5949392919061409f565b60405180910390a1505050505050565b6001600160a01b03808416600090815260cb6020526040902054849133911681146113865760405162461bcd60e51b815260206004820152602b60248201527f4d756c74694163636f756e743a2053656e6465722069736e2774206f776e657260448201526a081bd9881858d8dbdd5b9d60aa1b6064820152608401610e6b565b6001600160a01b03841633148015906113b15750846001600160a01b0316846001600160a01b031614155b6113fd5760405162461bcd60e51b815260206004820152601c60248201527f4d756c74694163636f756e743a20496e76616c696420746172676574000000006044820152606401610e6b565b82515b8015611482576001600160a01b03808716600090815260d260209081526040808320938916835292905290812042918661143b60018661401a565b8151811061144b5761144b61402d565b6020908102919091018101516001600160e01b0319168252810191909152604001600020558061147a81614043565b915050611400565b507f64930ca7235077162dd09f78d211b233f0f505f794151b9ecfaa6680bf00ead6858585604051610ddf939291906140de565b7f61c92169ef077349011ff0b1383c894d86c5f0b41d986366b58a6cf31e93beda6114e081612845565b7f4ec7166fdb5f155366ddacdab9af9c74d038015a7570252e40c6c82346308ad760cf8360405161151292919061410a565b60405180910390a160cf610b1f8382613da3565b7f65d7a28e3265b37a6474929f336521b332c1681b933f6cb9f3376673440d862a61155081612845565b6110b8612d91565b60c9602052816000526040600020818154811061157457600080fd5b6000918252602090912060029091020180546001820180546001600160a01b0390921694509192506115a590613d23565b80601f01602080910402602001604051908101604052809291908181526020018280546115d190613d23565b801561161e5780601f106115f35761010080835404028352916020019161161e565b820191906000526020600020905b81548152906001019060200180831161160157829003601f168201915b5050505050905082565b60006116326128a4565b33600090815260c96020818152604080842080546001600160a01b0387811680885260ca865284882083905595855283518085019094529483528284018c815260018083018455928752939095208251600290960201805473ffffffffffffffffffffffffffffffffffffffff19169590941694909417835590519394509290918201906116c09082613da3565b5050506001600160a01b038116600090815260cb602052604090819020805473ffffffffffffffffffffffffffffffffffffffff19163390811790915590517f1deb86e124d1a5f3b49977292b48e989b984bcd8944cfb14d63c8880482f2cff9161172e9184908990613e63565b60405180910390a16001600160a01b03841633148015906117615750806001600160a01b0316846001600160a01b031614155b6117ad5760405162461bcd60e51b815260206004820152601c60248201527f4d756c74694163636f756e743a20696e76616c696420746172676574000000006044820152606401610e6b565b82515b8015611840576001600160a01b03808316600090815260d0602090815260408083209389168352929052908120600191866117eb848661401a565b815181106117fb576117fb61402d565b6020908102919091018101516001600160e01b0319168252810191909152604001600020805460ff19169115159190911790558061183881614043565b9150506117b0565b507f41e2c91b7cd59c2d41cfac17496b166b244a4921d4a1c926b4a7132b6c66906e8185856001604051611877949392919061409f565b60405180910390a160005b82518160ff1610156118cc576000838260ff16815181106118a5576118a561402d565b602002602001015190506118b98382612bf6565b50806118c4816141a0565b915050611882565b50949350505050565b6001600160a01b03808316600090815260cb6020526040902054839133911681146119565760405162461bcd60e51b815260206004820152602b60248201527f4d756c74694163636f756e743a2053656e6465722069736e2774206f776e657260448201526a081bd9881858d8dbdd5b9d60aa1b6064820152608401610e6b565b61195e61284f565b6001600160a01b03848116600081815260cb6020908152604091829020548251941660248501526044808501889052825180860390910181526064909401825283810180516001600160e01b03167f205c287800000000000000000000000000000000000000000000000000000000179052815133815290810192909252818101869052517f40e4447d271dea2a920b9669d305a3255d8783d59b016237e63b106f1c9dd5fa916060908290030190a1611a188582612bf6565b5050505050565b6001600160a01b038316600090815260c9602052604081205460609190611a4790859061401a565b8311611a535782611a77565b6001600160a01b038516600090815260c96020526040902054611a7790859061401a565b905060008167ffffffffffffffff811115611a9457611a94613682565b604051908082528060200260200182016040528015611ada57816020015b604080518082019091526000815260606020820152815260200190600190039081611ab25790505b509050845b611ae983876141bf565b811015611c16576001600160a01b038716600090815260c960205260409020805482908110611b1a57611b1a61402d565b60009182526020918290206040805180820190915260029092020180546001600160a01b031682526001810180549293919291840191611b5990613d23565b80601f0160208091040260200160405190810160405280929190818152602001828054611b8590613d23565b8015611bd25780601f10611ba757610100808354040283529160200191611bd2565b820191906000526020600020905b815481529060010190602001808311611bb557829003601f168201915b505050505081525050828783611be8919061401a565b81518110611bf857611bf861402d565b60200260200101819052508080611c0e906141d2565b915050611adf565b5095945050505050565b6001600160a01b03808416600090815260cb602052604090205484913391168114611ca15760405162461bcd60e51b815260206004820152602b60248201527f4d756c74694163636f756e743a2053656e6465722069736e2774206f776e657260448201526a081bd9881858d8dbdd5b9d60aa1b6064820152608401610e6b565b6001600160a01b0384163314801590611ccc5750846001600160a01b0316846001600160a01b031614155b611d185760405162461bcd60e51b815260206004820152601c60248201527f4d756c74694163636f756e743a20496e76616c696420746172676574000000006044820152606401610e6b565b82515b8015611fe6576001600160a01b03808716600090815260d26020908152604080832093891683529290529081209085611d5560018561401a565b81518110611d6557611d6561402d565b60200260200101516001600160e01b0319166001600160e01b031916815260200190815260200160002054600003611e055760405162461bcd60e51b815260206004820152602860248201527f4d756c74694163636f756e743a205265766f6b6520616363657373206e6f742060448201527f70726f706f7365640000000000000000000000000000000000000000000000006064820152608401610e6b565b60d1546001600160a01b03808816600090815260d260209081526040808320938a16835292905290812042929187611e3e60018761401a565b81518110611e4e57611e4e61402d565b60200260200101516001600160e01b0319166001600160e01b031916815260200190815260200160002054611e8391906141bf565b1115611ef75760405162461bcd60e51b815260206004820152602260248201527f4d756c74694163636f756e743a20436f6f6c646f776e206e6f7420726561636860448201527f65640000000000000000000000000000000000000000000000000000000000006064820152608401610e6b565b6001600160a01b03808716600090815260d06020908152604080832093891683529290529081208186611f2b60018661401a565b81518110611f3b57611f3b61402d565b6020908102919091018101516001600160e01b03191682528181019290925260409081016000908120805460ff1916941515949094179093556001600160a01b03898116845260d28352818420908916845290915281208186611f9f60018661401a565b81518110611faf57611faf61402d565b6020908102919091018101516001600160e01b03191682528101919091526040016000205580611fde81614043565b915050611d1b565b507f41e2c91b7cd59c2d41cfac17496b166b244a4921d4a1c926b4a7132b6c66906e8585856000604051610ddf949392919061409f565b6001600160a01b03808416600090815260cb60205260409020548491339116811461209e5760405162461bcd60e51b815260206004820152602b60248201527f4d756c74694163636f756e743a2053656e6465722069736e2774206f776e657260448201526a081bd9881858d8dbdd5b9d60aa1b6064820152608401610e6b565b6120a661284f565b6040516001600160a01b03841660248201526044810185905260009060640160408051601f19818403018152918152602080830180516001600160e01b03167f205c28780000000000000000000000000000000000000000000000000000000017905281513381526001600160a01b038a16918101919091529081018790529091507f40e4447d271dea2a920b9669d305a3255d8783d59b016237e63b106f1c9dd5fa9060600160405180910390a161215f8682612bf6565b505050505050565b61216f61284f565b6001600160a01b03828116600090815260cb60205260408120549091163314905b82518160ff1610156122fc576000838260ff16815181106121b3576121b361402d565b60200260200101519050821580156121d6575060d3546001600160a01b03163314155b156122df5760048151101561222d5760405162461bcd60e51b815260206004820152601f60248201527f4d756c74694163636f756e743a20496e76616c69642063616c6c2064617461006044820152606401610e6b565b6020818101516001600160a01b038716600090815260d08352604080822033835284528082206001600160e01b031984168352909352919091205460ff166122dd5760405162461bcd60e51b815260206004820152602160248201527f4d756c74694163636f756e743a20556e617574686f72697a656420616363657360448201527f73000000000000000000000000000000000000000000000000000000000000006064820152608401610e6b565b505b6122e98582612bf6565b50806122f4816141a0565b915050612190565b50505050565b6001600160a01b03808516600090815260cb6020526040902054859133911681146123835760405162461bcd60e51b815260206004820152602b60248201527f4d756c74694163636f756e743a2053656e6465722069736e2774206f776e657260448201526a081bd9881858d8dbdd5b9d60aa1b6064820152608401610e6b565b6001600160a01b03851633148015906123ae5750856001600160a01b0316856001600160a01b031614155b6123fa5760405162461bcd60e51b815260206004820152601c60248201527f4d756c74694163636f756e743a20496e76616c696420746172676574000000006044820152606401610e6b565b6001831515146124725760405162461bcd60e51b815260206004820152602960248201527f557365207265766f6b6520746f2066756e6374696f6e7320746f207265766f6b60448201527f65204163636573732e00000000000000000000000000000000000000000000006064820152608401610e6b565b604080516001600160a01b038881168252871660208201526001600160e01b03198616818301526001606082015290517fc6c2cef2fe1f0545b232744fc2812ca3a23cdb770794c9c7458ea69f6d9be7ff9181900360800190a15050506001600160a01b03928316600090815260d0602090815260408083209490951682529283528381206001600160e01b03199092168152915220805460ff19166001179055565b600054610100900460ff16158080156125355750600054600160ff909116105b8061254f5750303b15801561254f575060005460ff166001145b6125c15760405162461bcd60e51b815260206004820152602e60248201527f496e697469616c697a61626c653a20636f6e747261637420697320616c72656160448201527f647920696e697469616c697a65640000000000000000000000000000000000006064820152608401610e6b565b6000805460ff1916600117905580156125e4576000805461ff0019166101001790555b6125ec612dce565b6125f4612e53565b6125ff600085612982565b6126297f65d7a28e3265b37a6474929f336521b332c1681b933f6cb9f3376673440d862a85612982565b6126537f427da25fe773164f88948d3e215c94b6554e2ed5e5f203a821c9f2f6131cf75a85612982565b61267d7f61c92169ef077349011ff0b1383c894d86c5f0b41d986366b58a6cf31e93beda85612982565b60cc80546001600160a01b0380871673ffffffffffffffffffffffffffffffffffffffff199283161790925560cd80549286169290911691909117905560cf6126c68382613da3565b5080156122fc576000805461ff0019169055604051600181527f7f26b83ff96e1f2b6a682f133852f6798a09c465da95921460cefb38474024989060200160405180910390a150505050565b60008281526097602052604090206001015461272d81612845565b610b1f8383612cbc565b61273f61284f565b6001600160a01b038216600090815260ca602090815260408083205433845260c990925290912080548391908390811061277b5761277b61402d565b906000526020600020906002020160010190816127989190613da3565b507f13bbfc66aca7f597c509c7eb717cafee4ae3fc31a77f4bbb22b333e81369276d3384846040516127cc93929190613e63565b60405180910390a1505050565b7f61c92169ef077349011ff0b1383c894d86c5f0b41d986366b58a6cf31e93beda61280381612845565b60d15460408051918252602082018490527f41a6e3ea336979dfead544a7561ccbf3fbbbf13c4405cc4ce398afaebf4b1498910160405180910390a15060d155565b6110b88133612ed0565b60335460ff16156128a25760405162461bcd60e51b815260206004820152601060248201527f5061757361626c653a20706175736564000000000000000000000000000000006044820152606401610e6b565b565b60ce546040517f4d756c74694163636f756e745f000000000000000000000000000000000000006020820152602d8101919091526000908190604d01604051602081830303815290604052805190602001209050600160ce600082825461290b91906141bf565b909155505060cc5460cd54604080516001600160a01b03938416602082015230918101919091529116606082015260009060cf9060800160408051601f198184030181529082905261296092916020016141ec565b604051602081830303815290604052905061297b8183612f45565b9250505090565b60008281526097602090815260408083206001600160a01b038516845290915290205460ff166110825760008281526097602090815260408083206001600160a01b03851684529091529020805460ff191660011790556129e03390565b6001600160a01b0316816001600160a01b0316837f2f8788117e7eff1d82e926ec794901d17c78024a50270940304540a733656f0d60405160405180910390a45050565b6040516001600160a01b03808516602483015283166044820152606481018290526122fc9085907f23b872dd00000000000000000000000000000000000000000000000000000000906084015b60408051601f198184030181529190526020810180516001600160e01b03166001600160e01b031990931692909217909152612ff0565b801580612b3b57506040517fdd62ed3e0000000000000000000000000000000000000000000000000000000081523060048201526001600160a01b03838116602483015284169063dd62ed3e90604401602060405180830381865afa158015612b15573d6000803e3d6000fd5b505050506040513d601f19601f82011682018060405250810190612b399190614273565b155b612bad5760405162461bcd60e51b815260206004820152603660248201527f5361666545524332303a20617070726f76652066726f6d206e6f6e2d7a65726f60448201527f20746f206e6f6e2d7a65726f20616c6c6f77616e6365000000000000000000006064820152608401610e6b565b6040516001600160a01b038316602482015260448101829052610b1f9084907f095ea7b30000000000000000000000000000000000000000000000000000000090606401612a71565b600080836001600160a01b03166362dfbb2e846040518263ffffffff1660e01b8152600401612c259190613656565b6000604051808303816000875af1158015612c44573d6000803e3d6000fd5b505050506040513d6000823e601f3d908101601f19168201604052612c6c919081019061428c565b915091507f268e99f0b37c8146a6aea7c6af329e3924d9c92c4386be924c2990926d99b6613385858585604051612ca7959493929190614319565b60405180910390a1816122fc57805160208201fd5b60008281526097602090815260408083206001600160a01b038516845290915290205460ff16156110825760008281526097602090815260408083206001600160a01b0385168085529252808320805460ff1916905551339285917ff6391f5c32d9c69d2a47ea670b442974b53935d1edc7fd64eb21e047a839171b9190a45050565b612d476130d8565b6033805460ff191690557f5db9ee0a495bf2e6ff9c91a7834c1ba4fdd244a5e8aa4e537bd38aeae4b073aa335b6040516001600160a01b03909116815260200160405180910390a1565b612d9961284f565b6033805460ff191660011790557f62e78cea01bee320cd4e420270b5ea74000d11b0c9f74754ebdbfc544b05a258612d743390565b600054610100900460ff16612e4b5760405162461bcd60e51b815260206004820152602b60248201527f496e697469616c697a61626c653a20636f6e7472616374206973206e6f74206960448201527f6e697469616c697a696e670000000000000000000000000000000000000000006064820152608401610e6b565b6128a261312a565b600054610100900460ff166128a25760405162461bcd60e51b815260206004820152602b60248201527f496e697469616c697a61626c653a20636f6e7472616374206973206e6f74206960448201527f6e697469616c697a696e670000000000000000000000000000000000000000006064820152608401610e6b565b60008281526097602090815260408083206001600160a01b038516845290915290205460ff1661108257612f03816131b3565b612f0e8360206131c5565b604051602001612f1f92919061436b565b60408051601f198184030181529082905262461bcd60e51b8252610e6b91600401613656565b6000818351602085016000f590506001600160a01b038116612fa95760405162461bcd60e51b815260206004820152601c60248201527f4d756c74694163636f756e743a2063726561746532206661696c6564000000006044820152606401610e6b565b604080513381526001600160a01b03831660208201527f6cbd957809e2aaf4d5e36136d06e71215f53a984b218c6d501e22f91d348d9ce910160405180910390a192915050565b6000613045826040518060400160405280602081526020017f5361666545524332303a206c6f772d6c6576656c2063616c6c206661696c6564815250856001600160a01b03166133f59092919063ffffffff16565b905080516000148061306657508080602001905181019061306691906143ec565b610b1f5760405162461bcd60e51b815260206004820152602a60248201527f5361666545524332303a204552433230206f7065726174696f6e20646964206e60448201527f6f742073756363656564000000000000000000000000000000000000000000006064820152608401610e6b565b60335460ff166128a25760405162461bcd60e51b815260206004820152601460248201527f5061757361626c653a206e6f74207061757365640000000000000000000000006044820152606401610e6b565b600054610100900460ff166131a75760405162461bcd60e51b815260206004820152602b60248201527f496e697469616c697a61626c653a20636f6e7472616374206973206e6f74206960448201527f6e697469616c697a696e670000000000000000000000000000000000000000006064820152608401610e6b565b6033805460ff19169055565b60606108486001600160a01b03831660145b606060006131d4836002613fe1565b6131df9060026141bf565b67ffffffffffffffff8111156131f7576131f7613682565b6040519080825280601f01601f191660200182016040528015613221576020820181803683370190505b5090507f3000000000000000000000000000000000000000000000000000000000000000816000815181106132585761325861402d565b60200101907effffffffffffffffffffffffffffffffffffffffffffffffffffffffffffff1916908160001a9053507f7800000000000000000000000000000000000000000000000000000000000000816001815181106132bb576132bb61402d565b60200101907effffffffffffffffffffffffffffffffffffffffffffffffffffffffffffff1916908160001a90535060006132f7846002613fe1565b6133029060016141bf565b90505b600181111561339f577f303132333435363738396162636465660000000000000000000000000000000085600f16601081106133435761334361402d565b1a60f81b8282815181106133595761335961402d565b60200101907effffffffffffffffffffffffffffffffffffffffffffffffffffffffffffff1916908160001a90535060049490941c9361339881614043565b9050613305565b5083156133ee5760405162461bcd60e51b815260206004820181905260248201527f537472696e67733a20686578206c656e67746820696e73756666696369656e746044820152606401610e6b565b9392505050565b6060613404848460008561340c565b949350505050565b6060824710156134845760405162461bcd60e51b815260206004820152602660248201527f416464726573733a20696e73756666696369656e742062616c616e636520666f60448201527f722063616c6c00000000000000000000000000000000000000000000000000006064820152608401610e6b565b600080866001600160a01b031685876040516134a09190614409565b60006040518083038185875af1925050503d80600081146134dd576040519150601f19603f3d011682016040523d82523d6000602084013e6134e2565b606091505b50915091506134f3878383876134fe565b979650505050505050565b6060831561356d578251600003613566576001600160a01b0385163b6135665760405162461bcd60e51b815260206004820152601d60248201527f416464726573733a2063616c6c20746f206e6f6e2d636f6e74726163740000006044820152606401610e6b565b5081613404565b61340483838151156135825781518083602001fd5b8060405162461bcd60e51b8152600401610e6b9190613656565b6001600160a01b03811681146110b857600080fd5b6000602082840312156135c357600080fd5b81356133ee8161359c565b80356001600160e01b0319811681146135e657600080fd5b919050565b6000602082840312156135fd57600080fd5b6133ee826135ce565b60005b83811015613621578181015183820152602001613609565b50506000910152565b60008151808452613642816020860160208601613606565b601f01601f19169290920160200192915050565b6020815260006133ee602083018461362a565b60006020828403121561367b57600080fd5b5035919050565b634e487b7160e01b600052604160045260246000fd5b604051601f8201601f1916810167ffffffffffffffff811182821017156136c1576136c1613682565b604052919050565b600067ffffffffffffffff8211156136e3576136e3613682565b50601f01601f191660200190565b600082601f83011261370257600080fd5b8135613715613710826136c9565b613698565b81815284602083860101111561372a57600080fd5b816020850160208301376000918101602001919091529392505050565b60006020828403121561375957600080fd5b813567ffffffffffffffff81111561377057600080fd5b613404848285016136f1565b6000806040838503121561378f57600080fd5b8235915060208301356137a18161359c565b809150509250929050565b600080604083850312156137bf57600080fd5b82356137ca8161359c565b946020939093013593505050565b600067ffffffffffffffff8211156137f2576137f2613682565b5060051b60200190565b600082601f83011261380d57600080fd5b8135602061381d613710836137d8565b82815260059290921b8401810191818101908684111561383c57600080fd5b8286015b8481101561385e57613851816135ce565b8352918301918301613840565b509695505050505050565b80151581146110b857600080fd5b6000806000806080858703121561388d57600080fd5b84356138988161359c565b935060208501356138a88161359c565b9250604085013567ffffffffffffffff8111156138c457600080fd5b6138d0878288016137fc565b92505060608501356138e181613869565b939692955090935050565b60008060006060848603121561390157600080fd5b833561390c8161359c565b9250602084013561391c8161359c565b9150604084013567ffffffffffffffff81111561393857600080fd5b613944868287016137fc565b9150509250925092565b6001600160a01b0383168152604060208201526000613404604083018461362a565b600082601f83011261398157600080fd5b81356020613991613710836137d8565b82815260059290921b840181019181810190868411156139b057600080fd5b8286015b8481101561385e57803567ffffffffffffffff8111156139d45760008081fd5b6139e28986838b01016136f1565b8452509183019183016139b4565b60008060008060808587031215613a0657600080fd5b843567ffffffffffffffff80821115613a1e57600080fd5b613a2a888389016136f1565b955060208701359150613a3c8261359c565b90935060408601359080821115613a5257600080fd5b613a5e888389016137fc565b93506060870135915080821115613a7457600080fd5b50613a8187828801613970565b91505092959194509250565b600080600060608486031215613aa257600080fd5b8335613aad8161359c565b95602085013595506040909401359392505050565b60006020808301818452808551808352604092508286019150828160051b87010184880160005b83811015613b4f578883037fffffffffffffffffffffffffffffffffffffffffffffffffffffffffffffffc0018552815180516001600160a01b03168452870151878401879052613b3c8785018261362a565b9588019593505090860190600101613ae9565b509098975050505050505050565b600080600060608486031215613b7257600080fd5b8335613b7d8161359c565b92506020840135613b8d8161359c565b9150613b9b604085016135ce565b90509250925092565b600080600060608486031215613bb957600080fd5b8335613bc48161359c565b9250602084013591506040840135613bdb8161359c565b809150509250925092565b60008060408385031215613bf957600080fd5b8235613c048161359c565b9150602083013567ffffffffffffffff811115613c2057600080fd5b613c2c85828601613970565b9150509250929050565b60008060008060808587031215613c4c57600080fd5b8435613c578161359c565b93506020850135613c678161359c565b9250613c75604086016135ce565b915060608501356138e181613869565b600080600060608486031215613c9a57600080fd5b8335613ca58161359c565b92506020840135613cb58161359c565b9150604084013567ffffffffffffffff811115613cd157600080fd5b613944868287016136f1565b60008060408385031215613cf057600080fd5b8235613cfb8161359c565b9150602083013567ffffffffffffffff811115613d1757600080fd5b613c2c858286016136f1565b600181811c90821680613d3757607f821691505b602082108103613d5757634e487b7160e01b600052602260045260246000fd5b50919050565b601f821115610b1f57600081815260208120601f850160051c81016020861015613d845750805b601f850160051c820191505b8181101561215f57828155600101613d90565b815167ffffffffffffffff811115613dbd57613dbd613682565b613dd181613dcb8454613d23565b84613d5d565b602080601f831160018114613e065760008415613dee5750858301515b600019600386901b1c1916600185901b17855561215f565b600085815260208120601f198616915b82811015613e3557888601518255948401946001909101908401613e16565b5085821015613e535787850151600019600388901b60f8161c191681555b5050505050600190811b01905550565b60006001600160a01b03808616835280851660208401525060606040830152613e8f606083018461362a565b95945050505050565b600060208284031215613eaa57600080fd5b81516133ee8161359c565b600060208284031215613ec757600080fd5b815160ff811681146133ee57600080fd5b634e487b7160e01b600052601160045260246000fd5b600181815b80851115613f29578160001904821115613f0f57613f0f613ed8565b80851615613f1c57918102915b93841c9390800290613ef3565b509250929050565b600082613f4057506001610848565b81613f4d57506000610848565b8160018114613f635760028114613f6d57613f89565b6001915050610848565b60ff841115613f7e57613f7e613ed8565b50506001821b610848565b5060208310610133831016604e8410600b8410161715613fac575081810a610848565b613fb68383613eee565b8060001904821115613fca57613fca613ed8565b029392505050565b60006133ee60ff841683613f31565b808202811582820484141761084857610848613ed8565b60008261401557634e487b7160e01b600052601260045260246000fd5b500490565b8181038181111561084857610848613ed8565b634e487b7160e01b600052603260045260246000fd5b60008161405257614052613ed8565b506000190190565b600081518084526020808501945080840160005b838110156140945781516001600160e01b0319168752958201959082019060010161406e565b509495945050505050565b60006001600160a01b038087168352808616602084015250608060408301526140cb608083018561405a565b9050821515606083015295945050505050565b60006001600160a01b03808616835280851660208401525060606040830152613e8f606083018461405a565b60408152600080845461411c81613d23565b806040860152606060018084166000811461413e576001811461415857614189565b60ff198516838901528284151560051b8901019550614189565b8960005260208060002060005b868110156141805781548b8201870152908401908201614165565b8a018501975050505b50505050508281036020840152613e8f818561362a565b600060ff821660ff81036141b6576141b6613ed8565b60010192915050565b8082018082111561084857610848613ed8565b600060001982036141e5576141e5613ed8565b5060010190565b60008084546141fa81613d23565b60018281168015614212576001811461422757614256565b60ff1984168752821515830287019450614256565b8860005260208060002060005b8581101561424d5781548a820152908401908201614234565b50505082870194505b50505050835161426a818360208801613606565b01949350505050565b60006020828403121561428557600080fd5b5051919050565b6000806040838503121561429f57600080fd5b82516142aa81613869565b602084015190925067ffffffffffffffff8111156142c757600080fd5b8301601f810185136142d857600080fd5b80516142e6613710826136c9565b8181528660208385010111156142fb57600080fd5b61430c826020830160208601613606565b8093505050509250929050565b60006001600160a01b03808816835280871660208401525060a0604083015261434560a083018661362a565b8415156060840152828103608084015261435f818561362a565b98975050505050505050565b7f416363657373436f6e74726f6c3a206163636f756e74200000000000000000008152600083516143a3816017850160208801613606565b7f206973206d697373696e6720726f6c652000000000000000000000000000000060179184019182015283516143e0816028840160208801613606565b01602801949350505050565b6000602082840312156143fe57600080fd5b81516133ee81613869565b6000825161441b818460208701613606565b919091019291505056fea264697066735822122089487dddfb3af1399bdba210ca2b55f5241b50ad5de0b726f9b1fed4d1d6902464736f6c63430008120033",
  "linkReferences": {},
  "deployedLinkReferences": {}
}