{
  "_format": "hh-sol-artifact-1",
  "contractName": "VestingXINTX",
  "sourceName": "contracts/VestingXINTX.sol",
  "abi": [
    {
      "inputs": [],
      "stateMutability": "nonpayable",
      "type": "constructor"
    },
    {
      "anonymous": false,
      "inputs": [
        {
          "indexed": false,
          "internalType": "address",
          "name": "changedBy",
          "type": "address"
        },
        {
          "indexed": true,
          "internalType": "address",
          "name": "_oldAddress",
          "type": "address"
        },
        {
          "indexed": true,
          "internalType": "address",
          "name": "_newAddress",
          "type": "address"
        }
      ],
      "name": "AllocationChanged",
      "type": "event"
    },
    {
      "anonymous": false,
      "inputs": [
        {
          "indexed": true,
          "internalType": "address",
          "name": "user",
          "type": "address"
        },
        {
          "indexed": false,
          "internalType": "uint256",
          "name": "amount",
          "type": "uint256"
        }
      ],
      "name": "AllocationSet",
      "type": "event"
    },
    {
      "anonymous": false,
      "inputs": [
        {
          "indexed": true,
          "internalType": "address",
          "name": "user",
          "type": "address"
        },
        {
          "indexed": false,
          "internalType": "uint256",
          "name": "amount",
          "type": "uint256"
        },
        {
          "indexed": false,
          "internalType": "uint256",
          "name": "_tokenId",
          "type": "uint256"
        }
      ],
      "name": "Claimed",
      "type": "event"
    },
    {
      "anonymous": false,
      "inputs": [
        {
          "indexed": false,
          "internalType": "uint8",
          "name": "version",
          "type": "uint8"
        }
      ],
      "name": "Initialized",
      "type": "event"
    },
    {
      "anonymous": false,
      "inputs": [
        {
          "indexed": true,
          "internalType": "address",
          "name": "previousOwner",
          "type": "address"
        },
        {
          "indexed": true,
          "internalType": "address",
          "name": "newOwner",
          "type": "address"
        }
      ],
      "name": "OwnershipTransferred",
      "type": "event"
    },
    {
      "anonymous": false,
      "inputs": [
        {
          "indexed": false,
          "internalType": "address",
          "name": "operator",
          "type": "address"
        },
        {
          "indexed": false,
          "internalType": "uint256",
          "name": "amount",
          "type": "uint256"
        }
      ],
      "name": "Seeded",
      "type": "event"
    },
    {
      "inputs": [],
      "name": "PRECISION",
      "outputs": [
        {
          "internalType": "uint256",
          "name": "",
          "type": "uint256"
        }
      ],
      "stateMutability": "view",
      "type": "function"
    },
    {
      "inputs": [],
      "name": "START_VESTING",
      "outputs": [
        {
          "internalType": "uint256",
          "name": "",
          "type": "uint256"
        }
      ],
      "stateMutability": "view",
      "type": "function"
    },
    {
      "inputs": [],
      "name": "VESTING_DURATION",
      "outputs": [
        {
          "internalType": "uint256",
          "name": "",
          "type": "uint256"
        }
      ],
      "stateMutability": "view",
      "type": "function"
    },
    {
      "inputs": [],
      "name": "allowChange",
      "outputs": [
        {
          "internalType": "bool",
          "name": "",
          "type": "bool"
        }
      ],
      "stateMutability": "view",
      "type": "function"
    },
    {
      "inputs": [],
      "name": "allowOwnerChange",
      "outputs": [
        {
          "internalType": "bool",
          "name": "",
          "type": "bool"
        }
      ],
      "stateMutability": "view",
      "type": "function"
    },
    {
      "inputs": [
        {
          "internalType": "address",
          "name": "_newAddress",
          "type": "address"
        }
      ],
      "name": "changeReceiver",
      "outputs": [],
      "stateMutability": "nonpayable",
      "type": "function"
    },
    {
      "inputs": [
        {
          "internalType": "address",
          "name": "_oldAddress",
          "type": "address"
        },
        {
          "internalType": "address",
          "name": "_newAddress",
          "type": "address"
        }
      ],
      "name": "changeReceiverOwner",
      "outputs": [],
      "stateMutability": "nonpayable",
      "type": "function"
    },
    {
      "inputs": [],
      "name": "claim",
      "outputs": [],
      "stateMutability": "nonpayable",
      "type": "function"
    },
    {
      "inputs": [
        {
          "internalType": "address",
          "name": "",
          "type": "address"
        }
      ],
      "name": "claimableAmount",
      "outputs": [
        {
          "internalType": "uint256",
          "name": "",
          "type": "uint256"
        }
      ],
      "stateMutability": "view",
      "type": "function"
    },
    {
      "inputs": [
        {
          "internalType": "address",
          "name": "",
          "type": "address"
        }
      ],
      "name": "claimedAmount",
      "outputs": [
        {
          "internalType": "uint256",
          "name": "",
          "type": "uint256"
        }
      ],
      "stateMutability": "view",
      "type": "function"
    },
    {
      "inputs": [],
      "name": "deposit",
      "outputs": [],
      "stateMutability": "nonpayable",
      "type": "function"
    },
    {
      "inputs": [
        {
          "internalType": "address",
          "name": "_intx",
          "type": "address"
        },
        {
          "internalType": "address",
          "name": "_xIntx",
          "type": "address"
        },
        {
          "internalType": "uint256",
          "name": "_startVesting",
          "type": "uint256"
        },
        {
          "internalType": "uint256",
          "name": "_vestingDuration",
          "type": "uint256"
        },
        {
          "internalType": "address[]",
          "name": "_receivers",
          "type": "address[]"
        },
        {
          "internalType": "uint256[]",
          "name": "_amounts",
          "type": "uint256[]"
        },
        {
          "internalType": "bool",
          "name": "_allowChange",
          "type": "bool"
        },
        {
          "internalType": "bool",
          "name": "_allowOwnerChange",
          "type": "bool"
        }
      ],
      "name": "initialize",
      "outputs": [],
      "stateMutability": "nonpayable",
      "type": "function"
    },
    {
      "inputs": [],
      "name": "intx",
      "outputs": [
        {
          "internalType": "contract IERC20",
          "name": "",
          "type": "address"
        }
      ],
      "stateMutability": "view",
      "type": "function"
    },
    {
      "inputs": [],
      "name": "owner",
      "outputs": [
        {
          "internalType": "address",
          "name": "",
          "type": "address"
        }
      ],
      "stateMutability": "view",
      "type": "function"
    },
    {
      "inputs": [],
      "name": "renounceOwnership",
      "outputs": [],
      "stateMutability": "nonpayable",
      "type": "function"
    },
    {
      "inputs": [],
      "name": "seeded",
      "outputs": [
        {
          "internalType": "bool",
          "name": "",
          "type": "bool"
        }
      ],
      "stateMutability": "view",
      "type": "function"
    },
    {
      "inputs": [
        {
          "internalType": "address",
          "name": "newOwner",
          "type": "address"
        }
      ],
      "name": "transferOwnership",
      "outputs": [],
      "stateMutability": "nonpayable",
      "type": "function"
    },
    {
      "inputs": [],
      "name": "xIntx",
      "outputs": [
        {
          "internalType": "contract IStakedINTX",
          "name": "",
          "type": "address"
        }
      ],
      "stateMutability": "view",
      "type": "function"
    }
  ],
  "bytecode": "0x608060405234801561001057600080fd5b5061001961001e565b6100dd565b600054610100900460ff161561008a5760405162461bcd60e51b815260206004820152602760248201527f496e697469616c697a61626c653a20636f6e747261637420697320696e697469604482015266616c697a696e6760c81b606482015260840160405180910390fd5b60005460ff908116146100db576000805460ff191660ff9081179091556040519081527f7f26b83ff96e1f2b6a682f133852f6798a09c465da95921460cefb38474024989060200160405180910390a15b565b61182e806100ec6000396000f3fe608060405234801561001057600080fd5b50600436106101365760003560e01c8063715018a6116100b2578063aa264c9b11610081578063d0e30db011610066578063d0e30db01461027f578063d5ff56f814610287578063f2fde38b1461029457600080fd5b8063aa264c9b1461026d578063aaf5eb681461027657600080fd5b8063715018a61461022157806389885049146102295780638da5cb5b146102495780639b4edee21461025a57600080fd5b806346f7d6c9116101095780634e71d92d116100ee5780634e71d92d146101f4578063547e3f06146101fc578063702775b91461020f57600080fd5b806346f7d6c9146101d15780634cfc4d30146101eb57600080fd5b806304e869031461013b57806323307e141461016e57806327a7af8914610183578063334041a6146101ae575b600080fd5b61015b61014936600461159d565b609d6020526000908152604090205481565b6040519081526020015b60405180910390f35b61018161017c366004611619565b6102a7565b005b609b54610196906001600160a01b031681565b6040516001600160a01b039091168152602001610165565b609a546101c19062010000900460ff1681565b6040519015158152602001610165565b609a5461019690630100000090046001600160a01b031681565b61015b60985481565b610181610605565b61018161020a36600461159d565b610944565b609a546101c190610100900460ff1681565b610181610c6c565b61015b61023736600461159d565b609c6020526000908152604090205481565b6065546001600160a01b0316610196565b6101816102683660046116e4565b610c7e565b61015b60975481565b61015b61271081565b610181610fc1565b609a546101c19060ff1681565b6101816102a236600461159d565b611209565b600054610100900460ff16158080156102c75750600054600160ff909116105b806102e15750303b1580156102e1575060005460ff166001145b6103585760405162461bcd60e51b815260206004820152602e60248201527f496e697469616c697a61626c653a20636f6e747261637420697320616c72656160448201527f647920696e697469616c697a656400000000000000000000000000000000000060648201526084015b60405180910390fd5b600080547fffffffffffffffffffffffffffffffffffffffffffffffffffffffffffffff001660011790558015610399576000805461ff0019166101001790555b6103a1611299565b6103a961130c565b609a80547fffffffffffffffffff0000000000000000000000000000000000000000ffffff1663010000006001600160a01b038e81169190910291909117909155609b80547fffffffffffffffffffffffff000000000000000000000000000000000000000016918c16919091179055609789905560988890558584811461043057600080fd5b60005b818110156105775786868281811061044d5761044d611717565b90506020020135609c60008b8b8581811061046a5761046a611717565b905060200201602081019061047f919061159d565b6001600160a01b03166001600160a01b0316815260200190815260200160002060008282546104ae9190611743565b9091555087905086828181106104c6576104c6611717565b90506020020135609960008282546104de9190611743565b9091555089905088828181106104f6576104f6611717565b905060200201602081019061050b919061159d565b6001600160a01b03167fedfc909d0ab2a1625b7911d925efbd8200cdd99d4c7ba44e720328b17879f0b388888481811061054757610547611717565b9050602002013560405161055d91815260200190565b60405180910390a28061056f8161175c565b915050610433565b5050609a80547fffffffffffffffffffffffffffffffffffffffffffffffffffffffffffff00001684151561ff001916176101008415150217905580156105f8576000805461ff0019169055604051600181527f7f26b83ff96e1f2b6a682f133852f6798a09c465da95921460cefb38474024989060200160405180910390a15b5050505050505050505050565b61060d61137f565b336000908152609c602052604081205490036106915760405162461bcd60e51b815260206004820152602e60248201527f54686973206164647265737320646f65736e2774206861766520616e7920616d60448201527f6f756e7420746f20636c61696d2e000000000000000000000000000000000000606482015260840161034f565b609a5462010000900460ff1661070f5760405162461bcd60e51b815260206004820152602860248201527f56657374696e6720436f6e7472616374206861736e2774206265656e2073656560448201527f646564207965742e000000000000000000000000000000000000000000000000606482015260840161034f565b336000908152609c6020908152604080832054609d909252909120541061079e5760405162461bcd60e51b815260206004820152602c60248201527f596f75206861766520616c726561647920636c61696d656420616c6c20796f7560448201527f7220616c6c6f636174696f6e0000000000000000000000000000000000000000606482015260840161034f565b60975442111561093957336000908152609c60205260408120546097549091906107c89042611776565b90506098548111156107d957506098545b6098546000906107eb61271084611789565b6107f591906117a0565b336000908152609d6020526040812054919250906127106108168487611789565b61082091906117a0565b61082a9190611776565b9050801561093457336000908152609d602052604081208054839290610851908490611743565b9091555050609b546000906001600160a01b0316632ee40908336040517fffffffff0000000000000000000000000000000000000000000000000000000060e084901b1681526001600160a01b039091166004820152602481018590526044016020604051808303816000875af11580156108d0573d6000803e3d6000fd5b505050506040513d601f19601f820116820180604052508101906108f491906117c2565b604080518481526020810183905291925033917f987d620f307ff6b94d58743cb7a7509f24071586a77759b77c2d4e29f75a2f9a910160405180910390a2505b505050505b61094260018055565b565b609a5460ff166109e25760405162461bcd60e51b815260206004820152604660248201527f546869732076657374696e6720636f6e747261637420646f65736e277420616c60448201527f6c6f7720796f7520746f206368616e676520746865207265636569766572206160648201527f6464726573730000000000000000000000000000000000000000000000000000608482015260a40161034f565b6001600160a01b038116610a5e5760405162461bcd60e51b815260206004820152603660248201527f4e657720616c6c6f636174696f6e2072656365697665722063616e277420626560448201527f20746865203078303030302e2e2e206164647265737300000000000000000000606482015260840161034f565b336000818152609c60205260408120549003610abc5760405162461bcd60e51b815260206004820152601e60248201527f596f7520646f6e2774206861766520616e7920616c6c6f636174696f6e2e0000604482015260640161034f565b6001600160a01b0382166000908152609c602052604090205415610b485760405162461bcd60e51b815260206004820152602d60248201527f546865206e6577206164647265737320616c726561647920686173206120766560448201527f7374696e6720616d6f756e742e00000000000000000000000000000000000000606482015260840161034f565b6001600160a01b0381166000908152609c6020908152604080832054609d9092529091205410610be05760405162461bcd60e51b815260206004820152602d60248201527f596f75206861766520616c726561647920636c61696d656420616c6c20796f7560448201527f7220616c6c6f636174696f6e2e00000000000000000000000000000000000000606482015260840161034f565b6001600160a01b038181166000818152609c60209081526040808320805495881680855282852096909655848452609d90925280832080548685529184209190915583835290829055557f4e87e17c55076158dc051ffe67edb8c0abf946f53612656c46f887ac1f9c486c335b6040516001600160a01b03909116815260200160405180910390a35050565b610c746113de565b6109426000611438565b610c866113de565b609a54610100900460ff16610c9a57600080fd5b6001600160a01b0382166000908152609c60205260408120549003610d275760405162461bcd60e51b815260206004820152602860248201527f4f6c64206164647265737320646f65736e2774206861766520616e7920616c6c60448201527f6f636174696f6e2e000000000000000000000000000000000000000000000000606482015260840161034f565b6001600160a01b0382166000908152609c6020908152604080832054609d9092529091205410610dbf5760405162461bcd60e51b815260206004820152602d60248201527f596f75206861766520616c726561647920636c61696d656420616c6c20796f7560448201527f7220616c6c6f636174696f6e2e00000000000000000000000000000000000000606482015260840161034f565b6001600160a01b03811615610e99576001600160a01b0381166000908152609c602052604090205415610e5a5760405162461bcd60e51b815260206004820152602d60248201527f546865206e6577206164647265737320616c726561647920686173206120766560448201527f7374696e6720616d6f756e742e00000000000000000000000000000000000000606482015260840161034f565b6001600160a01b038083166000818152609c602090815260408083205494861680845281842095909555928252609d9052818120549281522055610f6f565b6001600160a01b0382166000908152609d6020908152604080832054609c909252822054610ec79190611776565b609a54909150630100000090046001600160a01b031663a9059cbb336040517fffffffff0000000000000000000000000000000000000000000000000000000060e084901b1681526001600160a01b039091166004820152602481018490526044016020604051808303816000875af1158015610f48573d6000803e3d6000fd5b505050506040513d601f19601f82011682018060405250810190610f6c91906117db565b50505b6001600160a01b038281166000818152609c60209081526040808320839055609d909152812055908216907f4e87e17c55076158dc051ffe67edb8c0abf946f53612656c46f887ac1f9c486c33610c4d565b610fc96113de565b609a5462010000900460ff16156110485760405162461bcd60e51b815260206004820152603460248201527f56657374696e6720436f6e747261637420416c7265616479207365656465642060448201527f7769746820696e697469616c20616d6f756e742e000000000000000000000000606482015260840161034f565b609a54630100000090046001600160a01b03166323b872dd336099546040517fffffffff0000000000000000000000000000000000000000000000000000000060e085901b1681526001600160a01b03909216600483015230602483015260448201526064016020604051808303816000875af11580156110cd573d6000803e3d6000fd5b505050506040513d601f19601f820116820180604052508101906110f191906117db565b50609a54609b546040517f095ea7b30000000000000000000000000000000000000000000000000000000081526001600160a01b03918216600482015260001960248201526301000000909204169063095ea7b3906044016020604051808303816000875af1158015611168573d6000803e3d6000fd5b505050506040513d601f19601f8201168201806040525081019061118c91906117db565b50609a80547fffffffffffffffffffffffffffffffffffffffffffffffffffffffffff00ffff16620100001790557f6189b14a5c1490dbeb86a9da875768d98dc98fb398d6b29dd475defaa1ec4ba36111e23390565b609954604080516001600160a01b03909316835260208301919091520160405180910390a1565b6112116113de565b6001600160a01b03811661128d5760405162461bcd60e51b815260206004820152602660248201527f4f776e61626c653a206e6577206f776e657220697320746865207a65726f206160448201527f6464726573730000000000000000000000000000000000000000000000000000606482015260840161034f565b61129681611438565b50565b600054610100900460ff166113045760405162461bcd60e51b815260206004820152602b60248201527f496e697469616c697a61626c653a20636f6e7472616374206973206e6f74206960448201526a6e697469616c697a696e6760a81b606482015260840161034f565b6109426114a2565b600054610100900460ff166113775760405162461bcd60e51b815260206004820152602b60248201527f496e697469616c697a61626c653a20636f6e7472616374206973206e6f74206960448201526a6e697469616c697a696e6760a81b606482015260840161034f565b61094261150d565b6002600154036113d15760405162461bcd60e51b815260206004820152601f60248201527f5265656e7472616e637947756172643a207265656e7472616e742063616c6c00604482015260640161034f565b6002600155565b60018055565b6065546001600160a01b031633146109425760405162461bcd60e51b815260206004820181905260248201527f4f776e61626c653a2063616c6c6572206973206e6f7420746865206f776e6572604482015260640161034f565b606580546001600160a01b038381167fffffffffffffffffffffffff0000000000000000000000000000000000000000831681179093556040519116919082907f8be0079c531659141344cd1fd0a4f28419497f9722a3daafe3b4186f6b6457e090600090a35050565b600054610100900460ff166113d85760405162461bcd60e51b815260206004820152602b60248201527f496e697469616c697a61626c653a20636f6e7472616374206973206e6f74206960448201526a6e697469616c697a696e6760a81b606482015260840161034f565b600054610100900460ff166115785760405162461bcd60e51b815260206004820152602b60248201527f496e697469616c697a61626c653a20636f6e7472616374206973206e6f74206960448201526a6e697469616c697a696e6760a81b606482015260840161034f565b61094233611438565b80356001600160a01b038116811461159857600080fd5b919050565b6000602082840312156115af57600080fd5b6115b882611581565b9392505050565b60008083601f8401126115d157600080fd5b50813567ffffffffffffffff8111156115e957600080fd5b6020830191508360208260051b850101111561160457600080fd5b9250929050565b801515811461129657600080fd5b6000806000806000806000806000806101008b8d03121561163957600080fd5b6116428b611581565b995061165060208c01611581565b985060408b0135975060608b0135965060808b013567ffffffffffffffff8082111561167b57600080fd5b6116878e838f016115bf565b909850965060a08d01359150808211156116a057600080fd5b506116ad8d828e016115bf565b90955093505060c08b01356116c18161160b565b915060e08b01356116d18161160b565b809150509295989b9194979a5092959850565b600080604083850312156116f757600080fd5b61170083611581565b915061170e60208401611581565b90509250929050565b634e487b7160e01b600052603260045260246000fd5b634e487b7160e01b600052601160045260246000fd5b808201808211156117565761175661172d565b92915050565b6000600019820361176f5761176f61172d565b5060010190565b818103818111156117565761175661172d565b80820281158282048414176117565761175661172d565b6000826117bd57634e487b7160e01b600052601260045260246000fd5b500490565b6000602082840312156117d457600080fd5b5051919050565b6000602082840312156117ed57600080fd5b81516115b88161160b56fea2646970667358221220f24eb2c3ab0de3c9fbad8c82d2b61b96c4ad9499799c6b9ccbed750b10ed85d364736f6c63430008130033",
  "linkReferences": {},
  "deployedLinkReferences": {}
}