{
  "_format": "hh-sol-artifact-1",
  "contractName": "VestingXINTX",
  "sourceName": "contracts/VestingXINTX.sol",
  "abi": [
    {
      "inputs": [],
      "stateMutability": "nonpayable",
      "type": "constructor"
    },
    {
      "anonymous": false,
      "inputs": [
        {
          "indexed": false,
          "internalType": "uint8",
          "name": "version",
          "type": "uint8"
        }
      ],
      "name": "Initialized",
      "type": "event"
    },
    {
      "anonymous": false,
      "inputs": [
        {
          "indexed": true,
          "internalType": "address",
          "name": "previousOwner",
          "type": "address"
        },
        {
          "indexed": true,
          "internalType": "address",
          "name": "newOwner",
          "type": "address"
        }
      ],
      "name": "OwnershipTransferred",
      "type": "event"
    },
    {
      "inputs": [],
      "name": "PRECISION",
      "outputs": [
        {
          "internalType": "uint256",
          "name": "",
          "type": "uint256"
        }
      ],
      "stateMutability": "view",
      "type": "function"
    },
    {
      "inputs": [],
      "name": "START_VESTING",
      "outputs": [
        {
          "internalType": "uint256",
          "name": "",
          "type": "uint256"
        }
      ],
      "stateMutability": "view",
      "type": "function"
    },
    {
      "inputs": [],
      "name": "VESTING_DURATION",
      "outputs": [
        {
          "internalType": "uint256",
          "name": "",
          "type": "uint256"
        }
      ],
      "stateMutability": "view",
      "type": "function"
    },
    {
      "inputs": [
        {
          "internalType": "address",
          "name": "",
          "type": "address"
        }
      ],
      "name": "claimableAmount",
      "outputs": [
        {
          "internalType": "uint256",
          "name": "",
          "type": "uint256"
        }
      ],
      "stateMutability": "view",
      "type": "function"
    },
    {
      "inputs": [
        {
          "internalType": "address",
          "name": "",
          "type": "address"
        }
      ],
      "name": "claimedAmount",
      "outputs": [
        {
          "internalType": "bool",
          "name": "",
          "type": "bool"
        }
      ],
      "stateMutability": "view",
      "type": "function"
    },
    {
      "inputs": [
        {
          "internalType": "uint256",
          "name": "_intxAmount",
          "type": "uint256"
        }
      ],
      "name": "deposit",
      "outputs": [],
      "stateMutability": "nonpayable",
      "type": "function"
    },
    {
      "inputs": [
        {
          "internalType": "address",
          "name": "_intx",
          "type": "address"
        },
        {
          "internalType": "address",
          "name": "_xIntx",
          "type": "address"
        },
        {
          "internalType": "uint256",
          "name": "_startVesting",
          "type": "uint256"
        },
        {
          "internalType": "uint256",
          "name": "_vestingDuration",
          "type": "uint256"
        },
        {
          "internalType": "address[]",
          "name": "_receivers",
          "type": "address[]"
        },
        {
          "internalType": "uint256[]",
          "name": "_amounts",
          "type": "uint256[]"
        }
      ],
      "name": "initialize",
      "outputs": [],
      "stateMutability": "nonpayable",
      "type": "function"
    },
    {
      "inputs": [],
      "name": "intx",
      "outputs": [
        {
          "internalType": "contract IERC20",
          "name": "",
          "type": "address"
        }
      ],
      "stateMutability": "view",
      "type": "function"
    },
    {
      "inputs": [],
      "name": "owner",
      "outputs": [
        {
          "internalType": "address",
          "name": "",
          "type": "address"
        }
      ],
      "stateMutability": "view",
      "type": "function"
    },
    {
      "inputs": [],
      "name": "renounceOwnership",
      "outputs": [],
      "stateMutability": "nonpayable",
      "type": "function"
    },
    {
      "inputs": [],
      "name": "totalAllocation",
      "outputs": [
        {
          "internalType": "uint256",
          "name": "",
          "type": "uint256"
        }
      ],
      "stateMutability": "view",
      "type": "function"
    },
    {
      "inputs": [
        {
          "internalType": "address",
          "name": "newOwner",
          "type": "address"
        }
      ],
      "name": "transferOwnership",
      "outputs": [],
      "stateMutability": "nonpayable",
      "type": "function"
    },
    {
      "inputs": [],
      "name": "xIntx",
      "outputs": [
        {
          "internalType": "contract IStakedINTX",
          "name": "",
          "type": "address"
        }
      ],
      "stateMutability": "view",
      "type": "function"
    }
  ],
  "bytecode": "0x608060405234801561001057600080fd5b5061001961001e565b6100dd565b600054610100900460ff161561008a5760405162461bcd60e51b815260206004820152602760248201527f496e697469616c697a61626c653a20636f6e747261637420697320696e697469604482015266616c697a696e6760c81b606482015260840160405180910390fd5b60005460ff908116146100db576000805460ff191660ff9081179091556040519081527f7f26b83ff96e1f2b6a682f133852f6798a09c465da95921460cefb38474024989060200160405180910390a15b565b610b7b806100ec6000396000f3fe608060405234801561001057600080fd5b50600436106100df5760003560e01c806379203dc41161008c578063aa264c9b11610066578063aa264c9b146101cd578063aaf5eb68146101d6578063b6b55f25146101df578063f2fde38b146101f257600080fd5b806379203dc414610193578063898850491461019c5780638da5cb5b146101bc57600080fd5b806346f7d6c9116100bd57806346f7d6c91461015c5780634cfc4d3014610174578063715018a61461018b57600080fd5b806304e86903146100e457806322bf40e41461011c57806327a7af8914610131575b600080fd5b6101076100f2366004610967565b609d6020526000908152604090205460ff1681565b60405190151581526020015b60405180910390f35b61012f61012a3660046109d5565b610205565b005b609b54610144906001600160a01b031681565b6040516001600160a01b039091168152602001610113565b609a546101449061010090046001600160a01b031681565b61017d60985481565b604051908152602001610113565b61012f610455565b61017d60995481565b61017d6101aa366004610967565b609c6020526000908152604090205481565b6065546001600160a01b0316610144565b61017d60975481565b61017d61271081565b61012f6101ed366004610a79565b610469565b61012f610200366004610967565b61062c565b600054610100900460ff16158080156102255750600054600160ff909116105b8061023f5750303b15801561023f575060005460ff166001145b6102b65760405162461bcd60e51b815260206004820152602e60248201527f496e697469616c697a61626c653a20636f6e747261637420697320616c72656160448201527f647920696e697469616c697a656400000000000000000000000000000000000060648201526084015b60405180910390fd5b6000805460ff1916600117905580156102d9576000805461ff0019166101001790555b6102e16106bc565b6102e961072f565b609a80547fffffffffffffffffffffff0000000000000000000000000000000000000000ff166101006001600160a01b038c81169190910291909117909155609b80547fffffffffffffffffffffffff000000000000000000000000000000000000000016918a169190911790556097879055609886905581841461036d57600080fd5b60005b848110156104035783838281811061038a5761038a610a92565b90506020020135609c60008888858181106103a7576103a7610a92565b90506020020160208101906103bc9190610967565b6001600160a01b03166001600160a01b0316815260200190815260200160002060008282546103eb9190610af0565b909155508190506103fb81610b09565b915050610370565b50801561044a576000805461ff0019169055604051600181527f7f26b83ff96e1f2b6a682f133852f6798a09c465da95921460cefb38474024989060200160405180910390a15b505050505050505050565b61045d6107a2565b61046760006107fc565b565b6104716107a2565b609a5460ff16156104ea5760405162461bcd60e51b815260206004820152603460248201527f56657374696e6720436f6e747261637420416c7265616479207365656465642060448201527f7769746820696e697469616c20616d6f756e742e00000000000000000000000060648201526084016102ad565b609a546040517f23b872dd000000000000000000000000000000000000000000000000000000008152336004820152306024820152604481018390526101009091046001600160a01b0316906323b872dd906064016020604051808303816000875af115801561055e573d6000803e3d6000fd5b505050506040513d601f19601f820116820180604052508101906105829190610b23565b50609a54609b546040517f095ea7b30000000000000000000000000000000000000000000000000000000081526001600160a01b0391821660048201526000196024820152610100909204169063095ea7b3906044016020604051808303816000875af11580156105f7573d6000803e3d6000fd5b505050506040513d601f19601f8201168201806040525081019061061b9190610b23565b5050609a805460ff19166001179055565b6106346107a2565b6001600160a01b0381166106b05760405162461bcd60e51b815260206004820152602660248201527f4f776e61626c653a206e6577206f776e657220697320746865207a65726f206160448201527f646472657373000000000000000000000000000000000000000000000000000060648201526084016102ad565b6106b9816107fc565b50565b600054610100900460ff166107275760405162461bcd60e51b815260206004820152602b60248201527f496e697469616c697a61626c653a20636f6e7472616374206973206e6f74206960448201526a6e697469616c697a696e6760a81b60648201526084016102ad565b610467610866565b600054610100900460ff1661079a5760405162461bcd60e51b815260206004820152602b60248201527f496e697469616c697a61626c653a20636f6e7472616374206973206e6f74206960448201526a6e697469616c697a696e6760a81b60648201526084016102ad565b6104676108d7565b6065546001600160a01b031633146104675760405162461bcd60e51b815260206004820181905260248201527f4f776e61626c653a2063616c6c6572206973206e6f7420746865206f776e657260448201526064016102ad565b606580546001600160a01b038381167fffffffffffffffffffffffff0000000000000000000000000000000000000000831681179093556040519116919082907f8be0079c531659141344cd1fd0a4f28419497f9722a3daafe3b4186f6b6457e090600090a35050565b600054610100900460ff166108d15760405162461bcd60e51b815260206004820152602b60248201527f496e697469616c697a61626c653a20636f6e7472616374206973206e6f74206960448201526a6e697469616c697a696e6760a81b60648201526084016102ad565b60018055565b600054610100900460ff166109425760405162461bcd60e51b815260206004820152602b60248201527f496e697469616c697a61626c653a20636f6e7472616374206973206e6f74206960448201526a6e697469616c697a696e6760a81b60648201526084016102ad565b610467336107fc565b80356001600160a01b038116811461096257600080fd5b919050565b60006020828403121561097957600080fd5b6109828261094b565b9392505050565b60008083601f84011261099b57600080fd5b50813567ffffffffffffffff8111156109b357600080fd5b6020830191508360208260051b85010111156109ce57600080fd5b9250929050565b60008060008060008060008060c0898b0312156109f157600080fd5b6109fa8961094b565b9750610a0860208a0161094b565b96506040890135955060608901359450608089013567ffffffffffffffff80821115610a3357600080fd5b610a3f8c838d01610989565b909650945060a08b0135915080821115610a5857600080fd5b50610a658b828c01610989565b999c989b5096995094979396929594505050565b600060208284031215610a8b57600080fd5b5035919050565b7f4e487b7100000000000000000000000000000000000000000000000000000000600052603260045260246000fd5b7f4e487b7100000000000000000000000000000000000000000000000000000000600052601160045260246000fd5b80820180821115610b0357610b03610ac1565b92915050565b60006000198203610b1c57610b1c610ac1565b5060010190565b600060208284031215610b3557600080fd5b8151801515811461098257600080fdfea26469706673582212207448a901ba4f72d45697570af5c446281044d41242dbb79cb13054a048c83bb764736f6c63430008130033",
  "linkReferences": {},
  "deployedLinkReferences": {}
}