{
  "_format": "hh-sol-artifact-1",
  "contractName": "VestingXINTX",
  "sourceName": "contracts/VestingXINTX.sol",
  "abi": [
    {
      "inputs": [],
      "stateMutability": "nonpayable",
      "type": "constructor"
    },
    {
      "anonymous": false,
      "inputs": [
        {
          "indexed": false,
          "internalType": "address",
          "name": "changedBy",
          "type": "address"
        },
        {
          "indexed": true,
          "internalType": "address",
          "name": "_oldAddress",
          "type": "address"
        },
        {
          "indexed": true,
          "internalType": "address",
          "name": "_newAddress",
          "type": "address"
        }
      ],
      "name": "AllocationChanged",
      "type": "event"
    },
    {
      "anonymous": false,
      "inputs": [
        {
          "indexed": true,
          "internalType": "address",
          "name": "user",
          "type": "address"
        },
        {
          "indexed": false,
          "internalType": "uint256",
          "name": "amount",
          "type": "uint256"
        }
      ],
      "name": "AllocationSet",
      "type": "event"
    },
    {
      "anonymous": false,
      "inputs": [
        {
          "indexed": true,
          "internalType": "address",
          "name": "user",
          "type": "address"
        },
        {
          "indexed": false,
          "internalType": "uint256",
          "name": "amount",
          "type": "uint256"
        },
        {
          "indexed": false,
          "internalType": "uint256",
          "name": "_tokenId",
          "type": "uint256"
        }
      ],
      "name": "Claimed",
      "type": "event"
    },
    {
      "anonymous": false,
      "inputs": [
        {
          "indexed": false,
          "internalType": "uint8",
          "name": "version",
          "type": "uint8"
        }
      ],
      "name": "Initialized",
      "type": "event"
    },
    {
      "anonymous": false,
      "inputs": [
        {
          "indexed": true,
          "internalType": "address",
          "name": "previousOwner",
          "type": "address"
        },
        {
          "indexed": true,
          "internalType": "address",
          "name": "newOwner",
          "type": "address"
        }
      ],
      "name": "OwnershipTransferred",
      "type": "event"
    },
    {
      "anonymous": false,
      "inputs": [
        {
          "indexed": false,
          "internalType": "address",
          "name": "operator",
          "type": "address"
        },
        {
          "indexed": false,
          "internalType": "uint256",
          "name": "amount",
          "type": "uint256"
        }
      ],
      "name": "Seeded",
      "type": "event"
    },
    {
      "inputs": [],
      "name": "PRECISION",
      "outputs": [
        {
          "internalType": "uint256",
          "name": "",
          "type": "uint256"
        }
      ],
      "stateMutability": "view",
      "type": "function"
    },
    {
      "inputs": [],
      "name": "START_VESTING",
      "outputs": [
        {
          "internalType": "uint256",
          "name": "",
          "type": "uint256"
        }
      ],
      "stateMutability": "view",
      "type": "function"
    },
    {
      "inputs": [],
      "name": "VESTING_DURATION",
      "outputs": [
        {
          "internalType": "uint256",
          "name": "",
          "type": "uint256"
        }
      ],
      "stateMutability": "view",
      "type": "function"
    },
    {
      "inputs": [],
      "name": "allowChange",
      "outputs": [
        {
          "internalType": "bool",
          "name": "",
          "type": "bool"
        }
      ],
      "stateMutability": "view",
      "type": "function"
    },
    {
      "inputs": [],
      "name": "allowOwnerChange",
      "outputs": [
        {
          "internalType": "bool",
          "name": "",
          "type": "bool"
        }
      ],
      "stateMutability": "view",
      "type": "function"
    },
    {
      "inputs": [
        {
          "internalType": "address",
          "name": "_newAddress",
          "type": "address"
        }
      ],
      "name": "changeReceiver",
      "outputs": [],
      "stateMutability": "nonpayable",
      "type": "function"
    },
    {
      "inputs": [
        {
          "internalType": "address",
          "name": "_oldAddress",
          "type": "address"
        },
        {
          "internalType": "address",
          "name": "_newAddress",
          "type": "address"
        }
      ],
      "name": "changeReceiverOwner",
      "outputs": [],
      "stateMutability": "nonpayable",
      "type": "function"
    },
    {
      "inputs": [],
      "name": "claim",
      "outputs": [],
      "stateMutability": "nonpayable",
      "type": "function"
    },
    {
      "inputs": [
        {
          "internalType": "address",
          "name": "",
          "type": "address"
        }
      ],
      "name": "claimableAmount",
      "outputs": [
        {
          "internalType": "uint256",
          "name": "",
          "type": "uint256"
        }
      ],
      "stateMutability": "view",
      "type": "function"
    },
    {
      "inputs": [
        {
          "internalType": "address",
          "name": "",
          "type": "address"
        }
      ],
      "name": "claimedAmount",
      "outputs": [
        {
          "internalType": "uint256",
          "name": "",
          "type": "uint256"
        }
      ],
      "stateMutability": "view",
      "type": "function"
    },
    {
      "inputs": [],
      "name": "deposit",
      "outputs": [],
      "stateMutability": "nonpayable",
      "type": "function"
    },
    {
      "inputs": [
        {
          "internalType": "address",
          "name": "_intx",
          "type": "address"
        },
        {
          "internalType": "address",
          "name": "_xIntx",
          "type": "address"
        },
        {
          "internalType": "address",
          "name": "_multisig",
          "type": "address"
        },
        {
          "internalType": "uint256",
          "name": "_startVesting",
          "type": "uint256"
        },
        {
          "internalType": "uint256",
          "name": "_vestingDuration",
          "type": "uint256"
        },
        {
          "internalType": "address[]",
          "name": "_receivers",
          "type": "address[]"
        },
        {
          "internalType": "uint256[]",
          "name": "_amounts",
          "type": "uint256[]"
        },
        {
          "internalType": "bool",
          "name": "_allowChange",
          "type": "bool"
        },
        {
          "internalType": "bool",
          "name": "_allowOwnerChange",
          "type": "bool"
        }
      ],
      "name": "initialize",
      "outputs": [],
      "stateMutability": "nonpayable",
      "type": "function"
    },
    {
      "inputs": [],
      "name": "intx",
      "outputs": [
        {
          "internalType": "contract IERC20",
          "name": "",
          "type": "address"
        }
      ],
      "stateMutability": "view",
      "type": "function"
    },
    {
      "inputs": [],
      "name": "multisig",
      "outputs": [
        {
          "internalType": "address",
          "name": "",
          "type": "address"
        }
      ],
      "stateMutability": "view",
      "type": "function"
    },
    {
      "inputs": [],
      "name": "owner",
      "outputs": [
        {
          "internalType": "address",
          "name": "",
          "type": "address"
        }
      ],
      "stateMutability": "view",
      "type": "function"
    },
    {
      "inputs": [],
      "name": "renounceOwnership",
      "outputs": [],
      "stateMutability": "nonpayable",
      "type": "function"
    },
    {
      "inputs": [],
      "name": "seeded",
      "outputs": [
        {
          "internalType": "bool",
          "name": "",
          "type": "bool"
        }
      ],
      "stateMutability": "view",
      "type": "function"
    },
    {
      "inputs": [
        {
          "internalType": "address",
          "name": "newOwner",
          "type": "address"
        }
      ],
      "name": "transferOwnership",
      "outputs": [],
      "stateMutability": "nonpayable",
      "type": "function"
    },
    {
      "inputs": [],
      "name": "xIntx",
      "outputs": [
        {
          "internalType": "contract IStakedINTX",
          "name": "",
          "type": "address"
        }
      ],
      "stateMutability": "view",
      "type": "function"
    }
  ],
  "bytecode": "0x608060405234801561001057600080fd5b5061001961001e565b6100dd565b600054610100900460ff161561008a5760405162461bcd60e51b815260206004820152602760248201527f496e697469616c697a61626c653a20636f6e747261637420697320696e697469604482015266616c697a696e6760c81b606482015260840160405180910390fd5b60005460ff908116146100db576000805460ff191660ff9081179091556040519081527f7f26b83ff96e1f2b6a682f133852f6798a09c465da95921460cefb38474024989060200160405180910390a15b565b6118d5806100ec6000396000f3fe608060405234801561001057600080fd5b50600436106101515760003560e01c8063715018a6116100cd578063aa264c9b11610081578063d0e30db011610066578063d0e30db0146102bb578063d5ff56f8146102c3578063f2fde38b146102e857600080fd5b8063aa264c9b146102a9578063aaf5eb68146102b257600080fd5b80638da5cb5b116100b25780638da5cb5b146102725780639b105a57146102835780639b4edee21461029657600080fd5b8063715018a61461024a578063898850491461025257600080fd5b80634783c35b116101245780634e71d92d116101095780634e71d92d14610207578063547e3f0614610211578063702775b91461022457600080fd5b80634783c35b146101eb5780634cfc4d30146101fe57600080fd5b806304e869031461015657806327a7af8914610189578063334041a6146101b457806346f7d6c9146101d8575b600080fd5b61017661016436600461162f565b609e6020526000908152604090205481565b6040519081526020015b60405180910390f35b609c5461019c906001600160a01b031681565b6040516001600160a01b039091168152602001610180565b609a546101c890600160b01b900460ff1681565b6040519015158152602001610180565b609b5461019c906001600160a01b031681565b609a5461019c906001600160a01b031681565b61017660985481565b61020f6102fb565b005b61020f61021f36600461162f565b610640565b609a546101c8907501000000000000000000000000000000000000000000900460ff1681565b61020f610980565b61017661026036600461162f565b609d6020526000908152604090205481565b6065546001600160a01b031661019c565b61020f6102913660046116ab565b610992565b61020f6102a436600461178b565b610d19565b61017660975481565b61017661271081565b61020f61105f565b609a546101c89074010000000000000000000000000000000000000000900460ff1681565b61020f6102f636600461162f565b61129b565b61030361132b565b336000908152609d6020526040812054900361038c5760405162461bcd60e51b815260206004820152602e60248201527f54686973206164647265737320646f65736e2774206861766520616e7920616d60448201527f6f756e7420746f20636c61696d2e00000000000000000000000000000000000060648201526084015b60405180910390fd5b609a54600160b01b900460ff1661040b5760405162461bcd60e51b815260206004820152602860248201527f56657374696e6720436f6e7472616374206861736e2774206265656e2073656560448201527f646564207965742e0000000000000000000000000000000000000000000000006064820152608401610383565b336000908152609d6020908152604080832054609e909252909120541061049a5760405162461bcd60e51b815260206004820152602c60248201527f596f75206861766520616c726561647920636c61696d656420616c6c20796f7560448201527f7220616c6c6f636174696f6e00000000000000000000000000000000000000006064820152608401610383565b60975442111561063557336000908152609d60205260408120546097549091906104c490426117d4565b90506098548111156104d557506098545b6098546000906104e7612710846117ed565b6104f19190611804565b336000908152609e60205260408120549192509061271061051284876117ed565b61051c9190611804565b61052691906117d4565b9050801561063057336000908152609e60205260408120805483929061054d908490611826565b9091555050609c546000906001600160a01b0316632ee40908336040517fffffffff0000000000000000000000000000000000000000000000000000000060e084901b1681526001600160a01b039091166004820152602481018590526044016020604051808303816000875af11580156105cc573d6000803e3d6000fd5b505050506040513d601f19601f820116820180604052508101906105f09190611839565b604080518481526020810183905291925033917f987d620f307ff6b94d58743cb7a7509f24071586a77759b77c2d4e29f75a2f9a910160405180910390a2505b505050505b61063e60018055565b565b609a5474010000000000000000000000000000000000000000900460ff166106f65760405162461bcd60e51b815260206004820152604660248201527f546869732076657374696e6720636f6e747261637420646f65736e277420616c60448201527f6c6f7720796f7520746f206368616e676520746865207265636569766572206160648201527f6464726573730000000000000000000000000000000000000000000000000000608482015260a401610383565b6001600160a01b0381166107725760405162461bcd60e51b815260206004820152603660248201527f4e657720616c6c6f636174696f6e2072656365697665722063616e277420626560448201527f20746865203078303030302e2e2e2061646472657373000000000000000000006064820152608401610383565b336000818152609d602052604081205490036107d05760405162461bcd60e51b815260206004820152601e60248201527f596f7520646f6e2774206861766520616e7920616c6c6f636174696f6e2e00006044820152606401610383565b6001600160a01b0382166000908152609d60205260409020541561085c5760405162461bcd60e51b815260206004820152602d60248201527f546865206e6577206164647265737320616c726561647920686173206120766560448201527f7374696e6720616d6f756e742e000000000000000000000000000000000000006064820152608401610383565b6001600160a01b0381166000908152609d6020908152604080832054609e90925290912054106108f45760405162461bcd60e51b815260206004820152602d60248201527f596f75206861766520616c726561647920636c61696d656420616c6c20796f7560448201527f7220616c6c6f636174696f6e2e000000000000000000000000000000000000006064820152608401610383565b6001600160a01b038181166000818152609d60209081526040808320805495881680855282852096909655848452609e90925280832080548685529184209190915583835290829055557f4e87e17c55076158dc051ffe67edb8c0abf946f53612656c46f887ac1f9c486c335b6040516001600160a01b03909116815260200160405180910390a35050565b61098861138a565b61063e60006113e4565b600054610100900460ff16158080156109b25750600054600160ff909116105b806109cc5750303b1580156109cc575060005460ff166001145b610a3e5760405162461bcd60e51b815260206004820152602e60248201527f496e697469616c697a61626c653a20636f6e747261637420697320616c72656160448201527f647920696e697469616c697a65640000000000000000000000000000000000006064820152608401610383565b600080547fffffffffffffffffffffffffffffffffffffffffffffffffffffffffffffff001660011790558015610a7f576000805461ff0019166101001790555b610a8761144e565b610a8f6114c1565b609b80546001600160a01b03808f167fffffffffffffffffffffffff000000000000000000000000000000000000000092831617909255609c80548e8416908316179055609a8054928d16929091169190911790556097899055609888905585848114610afb57600080fd5b60005b81811015610c4257868682818110610b1857610b18611852565b90506020020135609d60008b8b85818110610b3557610b35611852565b9050602002016020810190610b4a919061162f565b6001600160a01b03166001600160a01b031681526020019081526020016000206000828254610b799190611826565b909155508790508682818110610b9157610b91611852565b9050602002013560996000828254610ba99190611826565b909155508990508882818110610bc157610bc1611852565b9050602002016020810190610bd6919061162f565b6001600160a01b03167fedfc909d0ab2a1625b7911d925efbd8200cdd99d4c7ba44e720328b17879f0b3888884818110610c1257610c12611852565b90506020020135604051610c2891815260200190565b60405180910390a280610c3a81611868565b915050610afe565b5050609a80547fffffffffffffffffffff0000ffffffffffffffffffffffffffffffffffffffff1674010000000000000000000000000000000000000000851515027fffffffffffffffffffff00ffffffffffffffffffffffffffffffffffffffffff16177501000000000000000000000000000000000000000000841515021790558015610d0b576000805461ff0019169055604051600181527f7f26b83ff96e1f2b6a682f133852f6798a09c465da95921460cefb38474024989060200160405180910390a15b505050505050505050505050565b610d2161138a565b609a547501000000000000000000000000000000000000000000900460ff16610d4957600080fd5b6001600160a01b0382166000908152609d60205260408120549003610dd65760405162461bcd60e51b815260206004820152602860248201527f4f6c64206164647265737320646f65736e2774206861766520616e7920616c6c60448201527f6f636174696f6e2e0000000000000000000000000000000000000000000000006064820152608401610383565b6001600160a01b0382166000908152609d6020908152604080832054609e9092529091205410610e6e5760405162461bcd60e51b815260206004820152602d60248201527f596f75206861766520616c726561647920636c61696d656420616c6c20796f7560448201527f7220616c6c6f636174696f6e2e000000000000000000000000000000000000006064820152608401610383565b6001600160a01b03811615610f48576001600160a01b0381166000908152609d602052604090205415610f095760405162461bcd60e51b815260206004820152602d60248201527f546865206e6577206164647265737320616c726561647920686173206120766560448201527f7374696e6720616d6f756e742e000000000000000000000000000000000000006064820152608401610383565b6001600160a01b038083166000818152609d602090815260408083205494861680845281842095909555928252609e905281812054928152205561100d565b6001600160a01b0382166000908152609e6020908152604080832054609d909252822054610f7691906117d4565b609b54609a546040517fa9059cbb0000000000000000000000000000000000000000000000000000000081526001600160a01b03918216600482015260248101849052929350169063a9059cbb906044016020604051808303816000875af1158015610fe6573d6000803e3d6000fd5b505050506040513d601f19601f8201168201806040525081019061100a9190611882565b50505b6001600160a01b038281166000818152609d60209081526040808320839055609e909152812055908216907f4e87e17c55076158dc051ffe67edb8c0abf946f53612656c46f887ac1f9c486c33610961565b61106761138a565b609a54600160b01b900460ff16156110e75760405162461bcd60e51b815260206004820152603460248201527f56657374696e6720436f6e747261637420416c7265616479207365656465642060448201527f7769746820696e697469616c20616d6f756e742e0000000000000000000000006064820152608401610383565b609b546001600160a01b03166323b872dd336099546040517fffffffff0000000000000000000000000000000000000000000000000000000060e085901b1681526001600160a01b03909216600483015230602483015260448201526064016020604051808303816000875af1158015611165573d6000803e3d6000fd5b505050506040513d601f19601f820116820180604052508101906111899190611882565b50609b54609c546040517f095ea7b30000000000000000000000000000000000000000000000000000000081526001600160a01b039182166004820152600019602482015291169063095ea7b3906044016020604051808303816000875af11580156111f9573d6000803e3d6000fd5b505050506040513d601f19601f8201168201806040525081019061121d9190611882565b50609a80547fffffffffffffffffff00ffffffffffffffffffffffffffffffffffffffffffff16600160b01b1790557f6189b14a5c1490dbeb86a9da875768d98dc98fb398d6b29dd475defaa1ec4ba36112743390565b609954604080516001600160a01b03909316835260208301919091520160405180910390a1565b6112a361138a565b6001600160a01b03811661131f5760405162461bcd60e51b815260206004820152602660248201527f4f776e61626c653a206e6577206f776e657220697320746865207a65726f206160448201527f64647265737300000000000000000000000000000000000000000000000000006064820152608401610383565b611328816113e4565b50565b60026001540361137d5760405162461bcd60e51b815260206004820152601f60248201527f5265656e7472616e637947756172643a207265656e7472616e742063616c6c006044820152606401610383565b6002600155565b60018055565b6065546001600160a01b0316331461063e5760405162461bcd60e51b815260206004820181905260248201527f4f776e61626c653a2063616c6c6572206973206e6f7420746865206f776e65726044820152606401610383565b606580546001600160a01b038381167fffffffffffffffffffffffff0000000000000000000000000000000000000000831681179093556040519116919082907f8be0079c531659141344cd1fd0a4f28419497f9722a3daafe3b4186f6b6457e090600090a35050565b600054610100900460ff166114b95760405162461bcd60e51b815260206004820152602b60248201527f496e697469616c697a61626c653a20636f6e7472616374206973206e6f74206960448201526a6e697469616c697a696e6760a81b6064820152608401610383565b61063e611534565b600054610100900460ff1661152c5760405162461bcd60e51b815260206004820152602b60248201527f496e697469616c697a61626c653a20636f6e7472616374206973206e6f74206960448201526a6e697469616c697a696e6760a81b6064820152608401610383565b61063e61159f565b600054610100900460ff166113845760405162461bcd60e51b815260206004820152602b60248201527f496e697469616c697a61626c653a20636f6e7472616374206973206e6f74206960448201526a6e697469616c697a696e6760a81b6064820152608401610383565b600054610100900460ff1661160a5760405162461bcd60e51b815260206004820152602b60248201527f496e697469616c697a61626c653a20636f6e7472616374206973206e6f74206960448201526a6e697469616c697a696e6760a81b6064820152608401610383565b61063e336113e4565b80356001600160a01b038116811461162a57600080fd5b919050565b60006020828403121561164157600080fd5b61164a82611613565b9392505050565b60008083601f84011261166357600080fd5b50813567ffffffffffffffff81111561167b57600080fd5b6020830191508360208260051b850101111561169657600080fd5b9250929050565b801515811461132857600080fd5b60008060008060008060008060008060006101208c8e0312156116cd57600080fd5b6116d68c611613565b9a506116e460208d01611613565b99506116f260408d01611613565b985060608c0135975060808c0135965067ffffffffffffffff8060a08e0135111561171c57600080fd5b61172c8e60a08f01358f01611651565b909750955060c08d013581101561174257600080fd5b506117538d60c08e01358e01611651565b909450925060e08c01356117668161169d565b91506101008c01356117778161169d565b809150509295989b509295989b9093969950565b6000806040838503121561179e57600080fd5b6117a783611613565b91506117b560208401611613565b90509250929050565b634e487b7160e01b600052601160045260246000fd5b818103818111156117e7576117e76117be565b92915050565b80820281158282048414176117e7576117e76117be565b60008261182157634e487b7160e01b600052601260045260246000fd5b500490565b808201808211156117e7576117e76117be565b60006020828403121561184b57600080fd5b5051919050565b634e487b7160e01b600052603260045260246000fd5b6000600019820361187b5761187b6117be565b5060010190565b60006020828403121561189457600080fd5b815161164a8161169d56fea2646970667358221220b41cfc12717c6ae53f45965b98ed5448815b9ca348dba64f5f9fe867d950292264736f6c63430008130033",
  "linkReferences": {},
  "deployedLinkReferences": {}
}