{
  "_format": "hh-sol-artifact-1",
  "contractName": "VestingXINTX",
  "sourceName": "contracts/VestingXINTX.sol",
  "abi": [
    {
      "inputs": [],
      "stateMutability": "nonpayable",
      "type": "constructor"
    },
    {
      "anonymous": false,
      "inputs": [
        {
          "indexed": false,
          "internalType": "address",
          "name": "changedBy",
          "type": "address"
        },
        {
          "indexed": true,
          "internalType": "address",
          "name": "_oldAddress",
          "type": "address"
        },
        {
          "indexed": true,
          "internalType": "address",
          "name": "_newAddress",
          "type": "address"
        }
      ],
      "name": "AllocationChanged",
      "type": "event"
    },
    {
      "anonymous": false,
      "inputs": [
        {
          "indexed": true,
          "internalType": "address",
          "name": "user",
          "type": "address"
        },
        {
          "indexed": false,
          "internalType": "uint256",
          "name": "amount",
          "type": "uint256"
        }
      ],
      "name": "AllocationSet",
      "type": "event"
    },
    {
      "anonymous": false,
      "inputs": [
        {
          "indexed": true,
          "internalType": "address",
          "name": "user",
          "type": "address"
        },
        {
          "indexed": false,
          "internalType": "uint256",
          "name": "amount",
          "type": "uint256"
        },
        {
          "indexed": false,
          "internalType": "uint256",
          "name": "_tokenId",
          "type": "uint256"
        }
      ],
      "name": "Claimed",
      "type": "event"
    },
    {
      "anonymous": false,
      "inputs": [
        {
          "indexed": false,
          "internalType": "uint8",
          "name": "version",
          "type": "uint8"
        }
      ],
      "name": "Initialized",
      "type": "event"
    },
    {
      "anonymous": false,
      "inputs": [
        {
          "indexed": true,
          "internalType": "address",
          "name": "previousOwner",
          "type": "address"
        },
        {
          "indexed": true,
          "internalType": "address",
          "name": "newOwner",
          "type": "address"
        }
      ],
      "name": "OwnershipTransferStarted",
      "type": "event"
    },
    {
      "anonymous": false,
      "inputs": [
        {
          "indexed": true,
          "internalType": "address",
          "name": "previousOwner",
          "type": "address"
        },
        {
          "indexed": true,
          "internalType": "address",
          "name": "newOwner",
          "type": "address"
        }
      ],
      "name": "OwnershipTransferred",
      "type": "event"
    },
    {
      "anonymous": false,
      "inputs": [
        {
          "indexed": false,
          "internalType": "address",
          "name": "operator",
          "type": "address"
        },
        {
          "indexed": false,
          "internalType": "uint256",
          "name": "amount",
          "type": "uint256"
        }
      ],
      "name": "Seeded",
      "type": "event"
    },
    {
      "inputs": [],
      "name": "PRECISION",
      "outputs": [
        {
          "internalType": "uint256",
          "name": "",
          "type": "uint256"
        }
      ],
      "stateMutability": "view",
      "type": "function"
    },
    {
      "inputs": [],
      "name": "START_VESTING",
      "outputs": [
        {
          "internalType": "uint256",
          "name": "",
          "type": "uint256"
        }
      ],
      "stateMutability": "view",
      "type": "function"
    },
    {
      "inputs": [],
      "name": "VESTING_DURATION",
      "outputs": [
        {
          "internalType": "uint256",
          "name": "",
          "type": "uint256"
        }
      ],
      "stateMutability": "view",
      "type": "function"
    },
    {
      "inputs": [],
      "name": "acceptOwnership",
      "outputs": [],
      "stateMutability": "nonpayable",
      "type": "function"
    },
    {
      "inputs": [],
      "name": "allowChange",
      "outputs": [
        {
          "internalType": "bool",
          "name": "",
          "type": "bool"
        }
      ],
      "stateMutability": "view",
      "type": "function"
    },
    {
      "inputs": [],
      "name": "allowOwnerChange",
      "outputs": [
        {
          "internalType": "bool",
          "name": "",
          "type": "bool"
        }
      ],
      "stateMutability": "view",
      "type": "function"
    },
    {
      "inputs": [
        {
          "internalType": "address",
          "name": "_newAddress",
          "type": "address"
        }
      ],
      "name": "changeReceiver",
      "outputs": [],
      "stateMutability": "nonpayable",
      "type": "function"
    },
    {
      "inputs": [
        {
          "internalType": "address",
          "name": "_oldAddress",
          "type": "address"
        },
        {
          "internalType": "address",
          "name": "_newAddress",
          "type": "address"
        }
      ],
      "name": "changeReceiverOwner",
      "outputs": [],
      "stateMutability": "nonpayable",
      "type": "function"
    },
    {
      "inputs": [],
      "name": "claim",
      "outputs": [],
      "stateMutability": "nonpayable",
      "type": "function"
    },
    {
      "inputs": [
        {
          "internalType": "address",
          "name": "",
          "type": "address"
        }
      ],
      "name": "claimableAmount",
      "outputs": [
        {
          "internalType": "uint256",
          "name": "",
          "type": "uint256"
        }
      ],
      "stateMutability": "view",
      "type": "function"
    },
    {
      "inputs": [
        {
          "internalType": "address",
          "name": "",
          "type": "address"
        }
      ],
      "name": "claimedAmount",
      "outputs": [
        {
          "internalType": "uint256",
          "name": "",
          "type": "uint256"
        }
      ],
      "stateMutability": "view",
      "type": "function"
    },
    {
      "inputs": [],
      "name": "deposit",
      "outputs": [],
      "stateMutability": "nonpayable",
      "type": "function"
    },
    {
      "inputs": [
        {
          "internalType": "address",
          "name": "_intx",
          "type": "address"
        },
        {
          "internalType": "address",
          "name": "_xIntx",
          "type": "address"
        },
        {
          "internalType": "address",
          "name": "_multisig",
          "type": "address"
        },
        {
          "internalType": "uint256",
          "name": "_startVesting",
          "type": "uint256"
        },
        {
          "internalType": "uint256",
          "name": "_vestingDuration",
          "type": "uint256"
        },
        {
          "internalType": "address[]",
          "name": "_receivers",
          "type": "address[]"
        },
        {
          "internalType": "uint256[]",
          "name": "_amounts",
          "type": "uint256[]"
        },
        {
          "internalType": "bool",
          "name": "_allowChange",
          "type": "bool"
        },
        {
          "internalType": "bool",
          "name": "_allowOwnerChange",
          "type": "bool"
        }
      ],
      "name": "initialize",
      "outputs": [],
      "stateMutability": "nonpayable",
      "type": "function"
    },
    {
      "inputs": [],
      "name": "intx",
      "outputs": [
        {
          "internalType": "contract IERC20",
          "name": "",
          "type": "address"
        }
      ],
      "stateMutability": "view",
      "type": "function"
    },
    {
      "inputs": [],
      "name": "multisig",
      "outputs": [
        {
          "internalType": "address",
          "name": "",
          "type": "address"
        }
      ],
      "stateMutability": "view",
      "type": "function"
    },
    {
      "inputs": [],
      "name": "owner",
      "outputs": [
        {
          "internalType": "address",
          "name": "",
          "type": "address"
        }
      ],
      "stateMutability": "view",
      "type": "function"
    },
    {
      "inputs": [],
      "name": "pendingOwner",
      "outputs": [
        {
          "internalType": "address",
          "name": "",
          "type": "address"
        }
      ],
      "stateMutability": "view",
      "type": "function"
    },
    {
      "inputs": [],
      "name": "renounceOwnership",
      "outputs": [],
      "stateMutability": "nonpayable",
      "type": "function"
    },
    {
      "inputs": [],
      "name": "seeded",
      "outputs": [
        {
          "internalType": "bool",
          "name": "",
          "type": "bool"
        }
      ],
      "stateMutability": "view",
      "type": "function"
    },
    {
      "inputs": [
        {
          "internalType": "address",
          "name": "newOwner",
          "type": "address"
        }
      ],
      "name": "transferOwnership",
      "outputs": [],
      "stateMutability": "nonpayable",
      "type": "function"
    },
    {
      "inputs": [],
      "name": "xIntx",
      "outputs": [
        {
          "internalType": "contract IStakedINTX",
          "name": "",
          "type": "address"
        }
      ],
      "stateMutability": "view",
      "type": "function"
    }
  ],
  "bytecode": "0x608060405234801561001057600080fd5b5061001961001e565b6100dd565b600054610100900460ff161561008a5760405162461bcd60e51b815260206004820152602760248201527f496e697469616c697a61626c653a20636f6e747261637420697320696e697469604482015266616c697a696e6760c81b606482015260840160405180910390fd5b60005460ff908116146100db576000805460ff191660ff9081179091556040519081527f7f26b83ff96e1f2b6a682f133852f6798a09c465da95921460cefb38474024989060200160405180910390a15b565b611996806100ec6000396000f3fe608060405234801561001057600080fd5b50600436106101775760003560e01c806379ba5097116100d8578063aa264c9b1161008c578063d5ff56f811610066578063d5ff56f8146102f1578063e30c397814610316578063f2fde38b1461032757600080fd5b8063aa264c9b146102d7578063aaf5eb68146102e0578063d0e30db0146102e957600080fd5b80638da5cb5b116100bd5780638da5cb5b146102a05780639b105a57146102b15780639b4edee2146102c457600080fd5b806379ba509714610278578063898850491461028057600080fd5b80634cfc4d301161012f578063547e3f0611610114578063547e3f0614610237578063702775b91461024a578063715018a61461027057600080fd5b80634cfc4d30146102245780634e71d92d1461022d57600080fd5b8063334041a611610160578063334041a6146101da57806346f7d6c9146101fe5780634783c35b1461021157600080fd5b806304e869031461017c57806327a7af89146101af575b600080fd5b61019c61018a3660046116f0565b60d06020526000908152604090205481565b6040519081526020015b60405180910390f35b60ce546101c2906001600160a01b031681565b6040516001600160a01b0390911681526020016101a6565b60cc546101ee90600160b01b900460ff1681565b60405190151581526020016101a6565b60cd546101c2906001600160a01b031681565b60cc546101c2906001600160a01b031681565b61019c60ca5481565b61023561033a565b005b6102356102453660046116f0565b61067f565b60cc546101ee907501000000000000000000000000000000000000000000900460ff1681565b6102356109bf565b6102356109c7565b61019c61028e3660046116f0565b60cf6020526000908152604090205481565b6065546001600160a01b03166101c2565b6102356102bf36600461176c565b610a55565b6102356102d236600461184c565b610dd1565b61019c60c95481565b61019c61271081565b610235611117565b60cc546101ee9074010000000000000000000000000000000000000000900460ff1681565b6097546001600160a01b03166101c2565b6102356103353660046116f0565b611353565b6103426113d1565b33600090815260cf602052604081205490036103cb5760405162461bcd60e51b815260206004820152602e60248201527f54686973206164647265737320646f65736e2774206861766520616e7920616d60448201527f6f756e7420746f20636c61696d2e00000000000000000000000000000000000060648201526084015b60405180910390fd5b60cc54600160b01b900460ff1661044a5760405162461bcd60e51b815260206004820152602860248201527f56657374696e6720436f6e7472616374206861736e2774206265656e2073656560448201527f646564207965742e00000000000000000000000000000000000000000000000060648201526084016103c2565b33600090815260cf602090815260408083205460d090925290912054106104d95760405162461bcd60e51b815260206004820152602c60248201527f596f75206861766520616c726561647920636c61696d656420616c6c20796f7560448201527f7220616c6c6f636174696f6e000000000000000000000000000000000000000060648201526084016103c2565b60c9544211156106745733600090815260cf602052604081205460c9549091906105039042611895565b905060ca54811115610514575060ca545b60ca54600090610526612710846118ae565b61053091906118c5565b33600090815260d060205260408120549192509061271061055184876118ae565b61055b91906118c5565b6105659190611895565b9050801561066f5733600090815260d060205260408120805483929061058c9084906118e7565b909155505060ce546000906001600160a01b0316632ee40908336040517fffffffff0000000000000000000000000000000000000000000000000000000060e084901b1681526001600160a01b039091166004820152602481018590526044016020604051808303816000875af115801561060b573d6000803e3d6000fd5b505050506040513d601f19601f8201168201806040525081019061062f91906118fa565b604080518481526020810183905291925033917f987d620f307ff6b94d58743cb7a7509f24071586a77759b77c2d4e29f75a2f9a910160405180910390a2505b505050505b61067d60018055565b565b60cc5474010000000000000000000000000000000000000000900460ff166107355760405162461bcd60e51b815260206004820152604660248201527f546869732076657374696e6720636f6e747261637420646f65736e277420616c60448201527f6c6f7720796f7520746f206368616e676520746865207265636569766572206160648201527f6464726573730000000000000000000000000000000000000000000000000000608482015260a4016103c2565b6001600160a01b0381166107b15760405162461bcd60e51b815260206004820152603660248201527f4e657720616c6c6f636174696f6e2072656365697665722063616e277420626560448201527f20746865203078303030302e2e2e20616464726573730000000000000000000060648201526084016103c2565b33600081815260cf6020526040812054900361080f5760405162461bcd60e51b815260206004820152601e60248201527f596f7520646f6e2774206861766520616e7920616c6c6f636174696f6e2e000060448201526064016103c2565b6001600160a01b038216600090815260cf60205260409020541561089b5760405162461bcd60e51b815260206004820152602d60248201527f546865206e6577206164647265737320616c726561647920686173206120766560448201527f7374696e6720616d6f756e742e0000000000000000000000000000000000000060648201526084016103c2565b6001600160a01b038116600090815260cf602090815260408083205460d090925290912054106109335760405162461bcd60e51b815260206004820152602d60248201527f596f75206861766520616c726561647920636c61696d656420616c6c20796f7560448201527f7220616c6c6f636174696f6e2e0000000000000000000000000000000000000060648201526084016103c2565b6001600160a01b03818116600081815260cf6020908152604080832080549588168085528285209690965584845260d090925280832080548685529184209190915583835290829055557f4e87e17c55076158dc051ffe67edb8c0abf946f53612656c46f887ac1f9c486c335b6040516001600160a01b03909116815260200160405180910390a35050565b61067d611430565b60975433906001600160a01b03168114610a495760405162461bcd60e51b815260206004820152602960248201527f4f776e61626c6532537465703a2063616c6c6572206973206e6f74207468652060448201527f6e6577206f776e6572000000000000000000000000000000000000000000000060648201526084016103c2565b610a528161148a565b50565b600054610100900460ff1615808015610a755750600054600160ff909116105b80610a8f5750303b158015610a8f575060005460ff166001145b610b015760405162461bcd60e51b815260206004820152602e60248201527f496e697469616c697a61626c653a20636f6e747261637420697320616c72656160448201527f647920696e697469616c697a656400000000000000000000000000000000000060648201526084016103c2565b600080547fffffffffffffffffffffffffffffffffffffffffffffffffffffffffffffff001660011790558015610b42576000805461ff0019166101001790555b610b4a6114b0565b610b52611523565b60cd80546001600160a01b03808f1673ffffffffffffffffffffffffffffffffffffffff199283161790925560ce80548e841690831617905560cc8054928d169290911691909117905560c989905560ca88905585848114610bb357600080fd5b60005b81811015610cfa57868682818110610bd057610bd0611913565b9050602002013560cf60008b8b85818110610bed57610bed611913565b9050602002016020810190610c0291906116f0565b6001600160a01b03166001600160a01b031681526020019081526020016000206000828254610c3191906118e7565b909155508790508682818110610c4957610c49611913565b9050602002013560cb6000828254610c6191906118e7565b909155508990508882818110610c7957610c79611913565b9050602002016020810190610c8e91906116f0565b6001600160a01b03167fedfc909d0ab2a1625b7911d925efbd8200cdd99d4c7ba44e720328b17879f0b3888884818110610cca57610cca611913565b90506020020135604051610ce091815260200190565b60405180910390a280610cf281611929565b915050610bb6565b505060cc80547fffffffffffffffffffff0000ffffffffffffffffffffffffffffffffffffffff1674010000000000000000000000000000000000000000851515027fffffffffffffffffffff00ffffffffffffffffffffffffffffffffffffffffff16177501000000000000000000000000000000000000000000841515021790558015610dc3576000805461ff0019169055604051600181527f7f26b83ff96e1f2b6a682f133852f6798a09c465da95921460cefb38474024989060200160405180910390a15b505050505050505050505050565b610dd9611430565b60cc547501000000000000000000000000000000000000000000900460ff16610e0157600080fd5b6001600160a01b038216600090815260cf60205260408120549003610e8e5760405162461bcd60e51b815260206004820152602860248201527f4f6c64206164647265737320646f65736e2774206861766520616e7920616c6c60448201527f6f636174696f6e2e00000000000000000000000000000000000000000000000060648201526084016103c2565b6001600160a01b038216600090815260cf602090815260408083205460d09092529091205410610f265760405162461bcd60e51b815260206004820152602d60248201527f596f75206861766520616c726561647920636c61696d656420616c6c20796f7560448201527f7220616c6c6f636174696f6e2e0000000000000000000000000000000000000060648201526084016103c2565b6001600160a01b03811615611000576001600160a01b038116600090815260cf602052604090205415610fc15760405162461bcd60e51b815260206004820152602d60248201527f546865206e6577206164647265737320616c726561647920686173206120766560448201527f7374696e6720616d6f756e742e0000000000000000000000000000000000000060648201526084016103c2565b6001600160a01b03808316600081815260cf60209081526040808320549486168084528184209590955592825260d090528181205492815220556110c5565b6001600160a01b038216600090815260d0602090815260408083205460cf90925282205461102e9190611895565b60cd5460cc546040517fa9059cbb0000000000000000000000000000000000000000000000000000000081526001600160a01b03918216600482015260248101849052929350169063a9059cbb906044016020604051808303816000875af115801561109e573d6000803e3d6000fd5b505050506040513d601f19601f820116820180604052508101906110c29190611943565b50505b6001600160a01b03828116600081815260cf6020908152604080832083905560d0909152812055908216907f4e87e17c55076158dc051ffe67edb8c0abf946f53612656c46f887ac1f9c486c336109a0565b61111f611430565b60cc54600160b01b900460ff161561119f5760405162461bcd60e51b815260206004820152603460248201527f56657374696e6720436f6e747261637420416c7265616479207365656465642060448201527f7769746820696e697469616c20616d6f756e742e00000000000000000000000060648201526084016103c2565b60cd546001600160a01b03166323b872dd3360cb546040517fffffffff0000000000000000000000000000000000000000000000000000000060e085901b1681526001600160a01b03909216600483015230602483015260448201526064016020604051808303816000875af115801561121d573d6000803e3d6000fd5b505050506040513d601f19601f820116820180604052508101906112419190611943565b5060cd5460ce546040517f095ea7b30000000000000000000000000000000000000000000000000000000081526001600160a01b039182166004820152600019602482015291169063095ea7b3906044016020604051808303816000875af11580156112b1573d6000803e3d6000fd5b505050506040513d601f19601f820116820180604052508101906112d59190611943565b5060cc80547fffffffffffffffffff00ffffffffffffffffffffffffffffffffffffffffffff16600160b01b1790557f6189b14a5c1490dbeb86a9da875768d98dc98fb398d6b29dd475defaa1ec4ba361132c3390565b60cb54604080516001600160a01b03909316835260208301919091520160405180910390a1565b61135b611430565b609780546001600160a01b03831673ffffffffffffffffffffffffffffffffffffffff1990911681179091556113996065546001600160a01b031690565b6001600160a01b03167f38d16b8cac22d99fc7c124b9cd0de2d3fa1faef420bfe791d8c362d765e2270060405160405180910390a350565b6002600154036114235760405162461bcd60e51b815260206004820152601f60248201527f5265656e7472616e637947756172643a207265656e7472616e742063616c6c0060448201526064016103c2565b6002600155565b60018055565b6065546001600160a01b0316331461067d5760405162461bcd60e51b815260206004820181905260248201527f4f776e61626c653a2063616c6c6572206973206e6f7420746865206f776e657260448201526064016103c2565b6097805473ffffffffffffffffffffffffffffffffffffffff19169055610a5281611596565b600054610100900460ff1661151b5760405162461bcd60e51b815260206004820152602b60248201527f496e697469616c697a61626c653a20636f6e7472616374206973206e6f74206960448201526a6e697469616c697a696e6760a81b60648201526084016103c2565b61067d6115f5565b600054610100900460ff1661158e5760405162461bcd60e51b815260206004820152602b60248201527f496e697469616c697a61626c653a20636f6e7472616374206973206e6f74206960448201526a6e697469616c697a696e6760a81b60648201526084016103c2565b61067d611660565b606580546001600160a01b0383811673ffffffffffffffffffffffffffffffffffffffff19831681179093556040519116919082907f8be0079c531659141344cd1fd0a4f28419497f9722a3daafe3b4186f6b6457e090600090a35050565b600054610100900460ff1661142a5760405162461bcd60e51b815260206004820152602b60248201527f496e697469616c697a61626c653a20636f6e7472616374206973206e6f74206960448201526a6e697469616c697a696e6760a81b60648201526084016103c2565b600054610100900460ff166116cb5760405162461bcd60e51b815260206004820152602b60248201527f496e697469616c697a61626c653a20636f6e7472616374206973206e6f74206960448201526a6e697469616c697a696e6760a81b60648201526084016103c2565b61067d3361148a565b80356001600160a01b03811681146116eb57600080fd5b919050565b60006020828403121561170257600080fd5b61170b826116d4565b9392505050565b60008083601f84011261172457600080fd5b50813567ffffffffffffffff81111561173c57600080fd5b6020830191508360208260051b850101111561175757600080fd5b9250929050565b8015158114610a5257600080fd5b60008060008060008060008060008060006101208c8e03121561178e57600080fd5b6117978c6116d4565b9a506117a560208d016116d4565b99506117b360408d016116d4565b985060608c0135975060808c0135965067ffffffffffffffff8060a08e013511156117dd57600080fd5b6117ed8e60a08f01358f01611712565b909750955060c08d013581101561180357600080fd5b506118148d60c08e01358e01611712565b909450925060e08c01356118278161175e565b91506101008c01356118388161175e565b809150509295989b509295989b9093969950565b6000806040838503121561185f57600080fd5b611868836116d4565b9150611876602084016116d4565b90509250929050565b634e487b7160e01b600052601160045260246000fd5b818103818111156118a8576118a861187f565b92915050565b80820281158282048414176118a8576118a861187f565b6000826118e257634e487b7160e01b600052601260045260246000fd5b500490565b808201808211156118a8576118a861187f565b60006020828403121561190c57600080fd5b5051919050565b634e487b7160e01b600052603260045260246000fd5b6000600019820361193c5761193c61187f565b5060010190565b60006020828403121561195557600080fd5b815161170b8161175e56fea264697066735822122038baa7c516cf2d79e86a3f037b608e593e5dd357251dd6c390c002f4970a685564736f6c63430008130033",
  "linkReferences": {},
  "deployedLinkReferences": {}
}