{"contracts/StakedINTX.sol":{"StakedINTX":{"abi":[{"inputs":[],"stateMutability":"nonpayable","type":"constructor"},{"anonymous":false,"inputs":[{"indexed":true,"internalType":"address","name":"owner","type":"address"},{"indexed":true,"internalType":"address","name":"approved","type":"address"},{"indexed":true,"internalType":"uint256","name":"tokenId","type":"uint256"}],"name":"Approval","type":"event"},{"anonymous":false,"inputs":[{"indexed":true,"internalType":"address","name":"owner","type":"address"},{"indexed":true,"internalType":"address","name":"operator","type":"address"},{"indexed":false,"internalType":"bool","name":"approved","type":"bool"}],"name":"ApprovalForAll","type":"event"},{"anonymous":false,"inputs":[{"indexed":true,"internalType":"address","name":"owner","type":"address"},{"indexed":true,"internalType":"uint256","name":"tokenId","type":"uint256"},{"indexed":false,"internalType":"uint256","name":"amountBurned","type":"uint256"},{"indexed":false,"internalType":"uint256","name":"amountIntxOut","type":"uint256"},{"indexed":false,"internalType":"uint256","name":"amountIntxPenalized","type":"uint256"},{"indexed":false,"internalType":"uint256","name":"totalXINTXNew","type":"uint256"}],"name":"Burn","type":"event"},{"anonymous":false,"inputs":[{"indexed":true,"internalType":"address","name":"owner","type":"address"},{"indexed":false,"internalType":"uint256","name":"amountOut","type":"uint256"},{"indexed":true,"internalType":"uint256[]","name":"tokenIds","type":"uint256[]"}],"name":"Claim","type":"event"},{"anonymous":false,"inputs":[{"indexed":false,"internalType":"uint8","name":"version","type":"uint8"}],"name":"Initialized","type":"event"},{"anonymous":false,"inputs":[{"indexed":true,"internalType":"address","name":"owner","type":"address"},{"indexed":true,"internalType":"uint256","name":"tokenIdFrom","type":"uint256"},{"indexed":false,"internalType":"uint256","name":"tokenIdTo","type":"uint256"},{"indexed":false,"internalType":"uint256","name":"newBalance","type":"uint256"},{"indexed":false,"internalType":"uint256","name":"newLoyalSince","type":"uint256"}],"name":"Merge","type":"event"},{"anonymous":false,"inputs":[{"indexed":true,"internalType":"address","name":"from","type":"address"},{"indexed":true,"internalType":"address","name":"to","type":"address"},{"indexed":true,"internalType":"uint256","name":"tokenId","type":"uint256"},{"indexed":false,"internalType":"uint256","name":"amountMinted","type":"uint256"},{"indexed":false,"internalType":"uint256","name":"amountIntxIn","type":"uint256"},{"indexed":false,"internalType":"uint256","name":"totalXINTXNew","type":"uint256"},{"indexed":false,"internalType":"uint256","name":"newTotalWeight","type":"uint256"}],"name":"Mint","type":"event"},{"anonymous":false,"inputs":[{"indexed":true,"internalType":"address","name":"previousOwner","type":"address"},{"indexed":true,"internalType":"address","name":"newOwner","type":"address"}],"name":"OwnershipTransferStarted","type":"event"},{"anonymous":false,"inputs":[{"indexed":true,"internalType":"address","name":"previousOwner","type":"address"},{"indexed":true,"internalType":"address","name":"newOwner","type":"address"}],"name":"OwnershipTransferred","type":"event"},{"anonymous":false,"inputs":[{"indexed":false,"internalType":"uint256","name":"rewardAdded","type":"uint256"}],"name":"RewardAdded","type":"event"},{"anonymous":false,"inputs":[{"indexed":true,"internalType":"address","name":"owner","type":"address"},{"indexed":true,"internalType":"uint256","name":"tokenIdFrom","type":"uint256"},{"indexed":false,"internalType":"uint256","name":"tokenIdTo","type":"uint256"},{"indexed":false,"internalType":"uint256","name":"balanceSplitted","type":"uint256"}],"name":"Split","type":"event"},{"anonymous":false,"inputs":[{"indexed":true,"internalType":"address","name":"from","type":"address"},{"indexed":true,"internalType":"address","name":"to","type":"address"},{"indexed":true,"internalType":"uint256","name":"tokenId","type":"uint256"}],"name":"Transfer","type":"event"},{"anonymous":false,"inputs":[{"indexed":false,"internalType":"uint256","name":"intxBalance","type":"uint256"},{"indexed":false,"internalType":"uint256","name":"totalXINTX","type":"uint256"},{"indexed":false,"internalType":"uint256","name":"totalWeight","type":"uint256"}],"name":"statusEvent","type":"event"},{"inputs":[],"name":"DURATION","outputs":[{"internalType":"uint256","name":"","type":"uint256"}],"stateMutability":"view","type":"function"},{"inputs":[],"name":"INTX","outputs":[{"internalType":"contract IERC20","name":"","type":"address"}],"stateMutability":"view","type":"function"},{"inputs":[],"name":"P","outputs":[{"internalType":"uint256","name":"","type":"uint256"}],"stateMutability":"view","type":"function"},{"inputs":[],"name":"acceptOwnership","outputs":[],"stateMutability":"nonpayable","type":"function"},{"inputs":[{"internalType":"uint256","name":"_intxAmount","type":"uint256"},{"internalType":"uint256","name":"tokenTo","type":"uint256"}],"name":"add","outputs":[],"stateMutability":"nonpayable","type":"function"},{"inputs":[{"internalType":"uint256","name":"_tokenId","type":"uint256"}],"name":"amountStakedOf","outputs":[{"internalType":"uint256","name":"amount","type":"uint256"}],"stateMutability":"view","type":"function"},{"inputs":[{"internalType":"address","name":"to","type":"address"},{"internalType":"uint256","name":"tokenId","type":"uint256"}],"name":"approve","outputs":[],"stateMutability":"nonpayable","type":"function"},{"inputs":[{"internalType":"address","name":"owner","type":"address"}],"name":"balanceOf","outputs":[{"internalType":"uint256","name":"","type":"uint256"}],"stateMutability":"view","type":"function"},{"inputs":[{"internalType":"uint256","name":"","type":"uint256"}],"name":"balanceOfId","outputs":[{"internalType":"uint256","name":"","type":"uint256"}],"stateMutability":"view","type":"function"},{"inputs":[{"internalType":"uint256","name":"_tokenId","type":"uint256"}],"name":"boostPercentageOf","outputs":[{"internalType":"uint256","name":"boostPercentage","type":"uint256"}],"stateMutability":"view","type":"function"},{"inputs":[{"internalType":"uint256[]","name":"_tokenIds","type":"uint256[]"}],"name":"claim","outputs":[],"stateMutability":"nonpayable","type":"function"},{"inputs":[],"name":"currentExchangeRate","outputs":[{"internalType":"uint256","name":"_exchangeRate","type":"uint256"}],"stateMutability":"view","type":"function"},{"inputs":[{"internalType":"uint256[]","name":"_tokenIds","type":"uint256[]"}],"name":"earned","outputs":[{"internalType":"uint256","name":"totalReward","type":"uint256"},{"internalType":"uint256[]","name":"claimableAmounts","type":"uint256[]"}],"stateMutability":"view","type":"function"},{"inputs":[{"internalType":"uint256","name":"_tokenId","type":"uint256"}],"name":"earned","outputs":[{"internalType":"uint256","name":"","type":"uint256"}],"stateMutability":"view","type":"function"},{"inputs":[{"internalType":"uint256","name":"tokenId","type":"uint256"}],"name":"getApproved","outputs":[{"internalType":"address","name":"","type":"address"}],"stateMutability":"view","type":"function"},{"inputs":[{"internalType":"uint256","name":"_tokenId","type":"uint256"}],"name":"getPositionInfo","outputs":[{"components":[{"internalType":"uint256","name":"tokenId","type":"uint256"},{"internalType":"address","name":"owner","type":"address"},{"internalType":"uint256","name":"balanceOfId","type":"uint256"},{"internalType":"uint256","name":"amountStakedOf","type":"uint256"},{"internalType":"uint256","name":"withdrawableAmountOf","type":"uint256"},{"internalType":"uint256","name":"loyalSince","type":"uint256"},{"internalType":"uint256","name":"boostPercentageOf","type":"uint256"},{"internalType":"uint256","name":"penaltyPercentageOf","type":"uint256"},{"internalType":"uint256","name":"penaltyAmountOf","type":"uint256"},{"internalType":"uint256","name":"pendingReward","type":"uint256"},{"internalType":"uint256","name":"lastWeightKnown","type":"uint256"}],"internalType":"struct StakedINTX.PositionInfo","name":"_positionInfo","type":"tuple"}],"stateMutability":"view","type":"function"},{"inputs":[{"internalType":"uint256[]","name":"_tokenId","type":"uint256[]"}],"name":"getPositionsInfo","outputs":[{"components":[{"internalType":"uint256","name":"tokenId","type":"uint256"},{"internalType":"address","name":"owner","type":"address"},{"internalType":"uint256","name":"balanceOfId","type":"uint256"},{"internalType":"uint256","name":"amountStakedOf","type":"uint256"},{"internalType":"uint256","name":"withdrawableAmountOf","type":"uint256"},{"internalType":"uint256","name":"loyalSince","type":"uint256"},{"internalType":"uint256","name":"boostPercentageOf","type":"uint256"},{"internalType":"uint256","name":"penaltyPercentageOf","type":"uint256"},{"internalType":"uint256","name":"penaltyAmountOf","type":"uint256"},{"internalType":"uint256","name":"pendingReward","type":"uint256"},{"internalType":"uint256","name":"lastWeightKnown","type":"uint256"}],"internalType":"struct StakedINTX.PositionInfo[]","name":"_positionInfo","type":"tuple[]"}],"stateMutability":"view","type":"function"},{"inputs":[{"internalType":"address","name":"_intx","type":"address"},{"internalType":"address","name":"_usdc","type":"address"}],"name":"initialize","outputs":[],"stateMutability":"nonpayable","type":"function"},{"inputs":[{"internalType":"address","name":"owner","type":"address"},{"internalType":"address","name":"operator","type":"address"}],"name":"isApprovedForAll","outputs":[{"internalType":"bool","name":"","type":"bool"}],"stateMutability":"view","type":"function"},{"inputs":[],"name":"lastTimeRewardApplicable","outputs":[{"internalType":"uint256","name":"","type":"uint256"}],"stateMutability":"view","type":"function"},{"inputs":[],"name":"lastTokenId","outputs":[{"internalType":"uint256","name":"","type":"uint256"}],"stateMutability":"view","type":"function"},{"inputs":[],"name":"lastUpdateTime","outputs":[{"internalType":"uint256","name":"","type":"uint256"}],"stateMutability":"view","type":"function"},{"inputs":[{"internalType":"uint256","name":"","type":"uint256"}],"name":"loyalSince","outputs":[{"internalType":"uint256","name":"","type":"uint256"}],"stateMutability":"view","type":"function"},{"inputs":[],"name":"loyaltyDuration","outputs":[{"internalType":"uint256","name":"","type":"uint256"}],"stateMutability":"view","type":"function"},{"inputs":[],"name":"maxLoyaltyBoost","outputs":[{"internalType":"uint256","name":"","type":"uint256"}],"stateMutability":"view","type":"function"},{"inputs":[],"name":"maxPenalty","outputs":[{"internalType":"uint256","name":"","type":"uint256"}],"stateMutability":"view","type":"function"},{"inputs":[{"internalType":"uint256","name":"_tokenFrom","type":"uint256"},{"internalType":"uint256","name":"tokenTo","type":"uint256"}],"name":"merge","outputs":[],"stateMutability":"nonpayable","type":"function"},{"inputs":[],"name":"minPenalty","outputs":[{"internalType":"uint256","name":"","type":"uint256"}],"stateMutability":"view","type":"function"},{"inputs":[],"name":"name","outputs":[{"internalType":"string","name":"","type":"string"}],"stateMutability":"view","type":"function"},{"inputs":[{"internalType":"uint256","name":"_rewardAmount","type":"uint256"}],"name":"notifyReward","outputs":[],"stateMutability":"nonpayable","type":"function"},{"inputs":[],"name":"owner","outputs":[{"internalType":"address","name":"","type":"address"}],"stateMutability":"view","type":"function"},{"inputs":[{"internalType":"uint256","name":"tokenId","type":"uint256"}],"name":"ownerOf","outputs":[{"internalType":"address","name":"","type":"address"}],"stateMutability":"view","type":"function"},{"inputs":[{"internalType":"uint256","name":"_tokenId","type":"uint256"}],"name":"penaltyAmountOf","outputs":[{"internalType":"uint256","name":"penaltyAmount","type":"uint256"}],"stateMutability":"view","type":"function"},{"inputs":[{"internalType":"uint256","name":"_tokenId","type":"uint256"}],"name":"penaltyPercentageOf","outputs":[{"internalType":"uint256","name":"penaltyPercentage","type":"uint256"}],"stateMutability":"view","type":"function"},{"inputs":[],"name":"pendingOwner","outputs":[{"internalType":"address","name":"","type":"address"}],"stateMutability":"view","type":"function"},{"inputs":[{"internalType":"address","name":"","type":"address"}],"name":"pendingRewards","outputs":[{"internalType":"uint256","name":"","type":"uint256"}],"stateMutability":"view","type":"function"},{"inputs":[],"name":"periodFinish","outputs":[{"internalType":"uint256","name":"","type":"uint256"}],"stateMutability":"view","type":"function"},{"inputs":[],"name":"renounceOwnership","outputs":[],"stateMutability":"nonpayable","type":"function"},{"inputs":[],"name":"rewardPerWeight","outputs":[{"internalType":"uint256","name":"","type":"uint256"}],"stateMutability":"view","type":"function"},{"inputs":[],"name":"rewardPerWeightStored","outputs":[{"internalType":"uint256","name":"","type":"uint256"}],"stateMutability":"view","type":"function"},{"inputs":[],"name":"rewardRate","outputs":[{"internalType":"uint256","name":"","type":"uint256"}],"stateMutability":"view","type":"function"},{"inputs":[],"name":"rewardToken","outputs":[{"internalType":"contract IERC20","name":"","type":"address"}],"stateMutability":"view","type":"function"},{"inputs":[{"internalType":"address","name":"from","type":"address"},{"internalType":"address","name":"to","type":"address"},{"internalType":"uint256","name":"tokenId","type":"uint256"}],"name":"safeTransferFrom","outputs":[],"stateMutability":"nonpayable","type":"function"},{"inputs":[{"internalType":"address","name":"from","type":"address"},{"internalType":"address","name":"to","type":"address"},{"internalType":"uint256","name":"tokenId","type":"uint256"},{"internalType":"bytes","name":"data","type":"bytes"}],"name":"safeTransferFrom","outputs":[],"stateMutability":"nonpayable","type":"function"},{"inputs":[{"internalType":"address","name":"operator","type":"address"},{"internalType":"bool","name":"approved","type":"bool"}],"name":"setApprovalForAll","outputs":[],"stateMutability":"nonpayable","type":"function"},{"inputs":[{"internalType":"uint256","name":"_tokenId","type":"uint256"},{"internalType":"uint256[]","name":"_splitWeights","type":"uint256[]"}],"name":"split","outputs":[{"internalType":"uint256[]","name":"_tokenIds","type":"uint256[]"}],"stateMutability":"nonpayable","type":"function"},{"inputs":[{"internalType":"uint256","name":"_intxAmount","type":"uint256"}],"name":"stake","outputs":[{"internalType":"uint256","name":"_tokenId","type":"uint256"}],"stateMutability":"nonpayable","type":"function"},{"inputs":[{"internalType":"address","name":"_to","type":"address"},{"internalType":"uint256","name":"_intxAmount","type":"uint256"}],"name":"stakeFor","outputs":[{"internalType":"uint256","name":"_tokenId","type":"uint256"}],"stateMutability":"nonpayable","type":"function"},{"inputs":[{"internalType":"bytes4","name":"interfaceId","type":"bytes4"}],"name":"supportsInterface","outputs":[{"internalType":"bool","name":"","type":"bool"}],"stateMutability":"view","type":"function"},{"inputs":[],"name":"symbol","outputs":[{"internalType":"string","name":"","type":"string"}],"stateMutability":"view","type":"function"},{"inputs":[{"internalType":"uint256","name":"tokenId","type":"uint256"}],"name":"tokenURI","outputs":[{"internalType":"string","name":"","type":"string"}],"stateMutability":"view","type":"function"},{"inputs":[],"name":"totalWeight","outputs":[{"internalType":"uint256","name":"","type":"uint256"}],"stateMutability":"view","type":"function"},{"inputs":[],"name":"totalXINTX","outputs":[{"internalType":"uint256","name":"","type":"uint256"}],"stateMutability":"view","type":"function"},{"inputs":[{"internalType":"address","name":"from","type":"address"},{"internalType":"address","name":"to","type":"address"},{"internalType":"uint256","name":"tokenId","type":"uint256"}],"name":"transferFrom","outputs":[],"stateMutability":"nonpayable","type":"function"},{"inputs":[{"internalType":"address","name":"newOwner","type":"address"}],"name":"transferOwnership","outputs":[],"stateMutability":"nonpayable","type":"function"},{"inputs":[{"internalType":"uint256","name":"_tokenId","type":"uint256"}],"name":"unstake","outputs":[{"internalType":"uint256","name":"_intxAmountOut","type":"uint256"}],"stateMutability":"nonpayable","type":"function"},{"inputs":[{"internalType":"uint256","name":"_tokenId","type":"uint256"},{"internalType":"uint256","name":"_xIntxAmountWithdraw","type":"uint256"}],"name":"unstakePartially","outputs":[{"internalType":"uint256","name":"_intxAmountOut","type":"uint256"},{"internalType":"uint256","name":"_newTokenId","type":"uint256"}],"stateMutability":"nonpayable","type":"function"},{"inputs":[{"internalType":"uint256[]","name":"_tokenIds","type":"uint256[]"}],"name":"updateWeights","outputs":[],"stateMutability":"nonpayable","type":"function"},{"inputs":[{"internalType":"uint256","name":"_tokenId","type":"uint256"}],"name":"withdrawableAmountOf","outputs":[{"internalType":"uint256","name":"withdrawableAmount","type":"uint256"}],"stateMutability":"view","type":"function"}],"evm":{"bytecode":{"linkReferences":{},"object":"60806040523480156200001157600080fd5b506200001c62000022565b620000e3565b600054610100900460ff16156200008f5760405162461bcd60e51b815260206004820152602760248201527f496e697469616c697a61626c653a20636f6e747261637420697320696e697469604482015266616c697a696e6760c81b606482015260840160405180910390fd5b60005460ff90811614620000e1576000805460ff191660ff9081179091556040519081527f7f26b83ff96e1f2b6a682f133852f6798a09c465da95921460cefb38474024989060200160405180910390a15b565b61474680620000f36000396000f3fe608060405234801561001057600080fd5b50600436106103995760003560e01c8063771602f7116101e9578063b88d4fde1161010f578063df2e0b97116100ad578063f290dfa71161007c578063f290dfa7146107cd578063f2fde38b146107f5578063f7c618c114610808578063f84ddf0b1461081c57600080fd5b8063df2e0b9714610762578063e30c397814610776578063e985e9c514610787578063ebe2b12b146107c357600080fd5b8063cfd0e125116100e9578063cfd0e12514610711578063d1a249ab14610732578063d1c2babb1461073c578063d975dfed1461074f57600080fd5b8063b88d4fde146106e1578063c87b56dd146106f4578063c8f33c911461070757600080fd5b806395d89b4111610187578063a1c95e5a11610156578063a1c95e5a14610693578063a22cb465146106b4578063a3684977146106c6578063a694fc3a146106ce57600080fd5b806395d89b411461065b57806396c82e5714610663578063988dc31e1461066d578063a00ea0c51461068057600080fd5b806380faa57d116101c357806380faa57d146106135780638b8fbd921461061b5780638da5cb5b1461062a5780638fca5a591461063b57600080fd5b8063771602f7146105ee57806379ba5097146106015780637b0a47ee1461060957600080fd5b806342842e0e116102ce5780635a48a97f1161026c57806369c672471161023b57806369c67247146105a05780636ba4c138146105c057806370a08231146105d3578063715018a6146105e657600080fd5b80635a48a97f1461055457806360993b5b146105675780636352211e1461057a578063645bfd9a1461058d57600080fd5b80634d6ed8c4116102a85780634d6ed8c41461050d578063519f5099146105205780635200e79e14610540578063520bf08a1461054a57600080fd5b806342842e0e146104c6578063485cc955146104d95780634d62f590146104ec57600080fd5b806323b872dd1161033b5780632ee40908116103155780632ee409081461047557806330f916191461048857806331d7a2621461049b5780633228dd59146104bc57600080fd5b806323b872dd146104475780632ac3f4501461045a5780632e17de781461046257600080fd5b8063095ea7b311610377578063095ea7b3146104065780630eba98491461041b5780631be05289146104335780632212b8061461043d57600080fd5b806301ffc9a71461039e57806306fdde03146103c6578063081812fc146103db575b600080fd5b6103b16103ac366004613f30565b610826565b60405190151581526020015b60405180910390f35b6103ce61090b565b6040516103bd9190613f9d565b6103ee6103e9366004613fb0565b61099d565b6040516001600160a01b0390911681526020016103bd565b610419610414366004613fe0565b6109c4565b005b6104256101325481565b6040519081526020016103bd565b61042562093a8081565b6104256101305481565b61041961045536600461400a565b505050565b610425610aeb565b610425610470366004613fb0565b610bb7565b610425610483366004613fe0565b610bd1565b610419610496366004614092565b610be8565b6104256104a93660046140d4565b61013f6020526000908152604090205481565b6104256101365481565b6104196104d436600461400a565b610c30565b6104196104e73660046140ef565b610c4b565b6104ff6104fa366004614092565b610f1f565b6040516103bd92919061415d565b61042561051b366004613fb0565b610fdf565b61053361052e366004613fb0565b611050565b6040516103bd91906141f9565b6104256101315481565b61042561012e5481565b610425610562366004613fb0565b6110bf565b610419610575366004613fb0565b611107565b6103ee610588366004613fb0565b61130f565b61042561059b366004613fb0565b611374565b6105b36105ae366004614208565b61139a565b6040516103bd9190614254565b6104196105ce366004614092565b6113e3565b6104256105e13660046140d4565b6115f8565b610419611692565b6104196105fc366004614267565b61169c565b6104196116bd565b6104256101355481565b610425611748565b610425670de0b6b3a764000081565b60c9546001600160a01b03166103ee565b61064e610649366004614092565b61175c565b6040516103bd9190614289565b6103ce611876565b6104256101375481565b61042561067b366004613fb0565b611885565b61042561068e366004613fb0565b6118ab565b6104256106a1366004613fb0565b61013b6020526000908152604090205481565b6104196106c23660046142e6565b5050565b6104256118d1565b6104256106dc366004613fb0565b6118db565b6104196106ef366004614333565b6118e8565b6103ce610702366004613fb0565b611976565b6104256101335481565b61042561071f366004613fb0565b61013a6020526000908152604090205481565b61042561012f5481565b61041961074a366004614267565b6119e9565b61042561075d366004613fb0565b6119fb565b610138546103ee906001600160a01b031681565b60fb546001600160a01b03166103ee565b6103b16107953660046140ef565b6001600160a01b039182166000908152609c6020908152604080832093909416825291909152205460ff1690565b6104256101345481565b6107e06107db366004614267565b611a43565b604080519283526020830191909152016103bd565b6104196108033660046140d4565b611b95565b610139546103ee906001600160a01b031681565b61042561012d5481565b60007fffffffff0000000000000000000000000000000000000000000000000000000082167f80ac58cd0000000000000000000000000000000000000000000000000000000014806108b957507fffffffff0000000000000000000000000000000000000000000000000000000082167f5b5e139f00000000000000000000000000000000000000000000000000000000145b8061090557507f01ffc9a7000000000000000000000000000000000000000000000000000000007fffffffff000000000000000000000000000000000000000000000000000000008316145b92915050565b60606097805461091a9061440f565b80601f01602080910402602001604051908101604052809291908181526020018280546109469061440f565b80156109935780601f1061096857610100808354040283529160200191610993565b820191906000526020600020905b81548152906001019060200180831161097657829003601f168201915b5050505050905090565b60006109a882611c13565b506000908152609b60205260409020546001600160a01b031690565b60006109cf8261130f565b9050806001600160a01b0316836001600160a01b031603610a5d5760405162461bcd60e51b815260206004820152602160248201527f4552433732313a20617070726f76616c20746f2063757272656e74206f776e6560448201527f720000000000000000000000000000000000000000000000000000000000000060648201526084015b60405180910390fd5b336001600160a01b0382161480610a795750610a798133610795565b6104555760405162461bcd60e51b815260206004820152603d60248201527f4552433732313a20617070726f76652063616c6c6572206973206e6f7420746f60448201527f6b656e206f776e6572206f7220617070726f76656420666f7220616c6c0000006064820152608401610a54565b600061013754600003610b0057506101365490565b60006101375411610b535760405162461bcd60e51b815260206004820152601060248201527f496e636f727265637420776569676874000000000000000000000000000000006044820152606401610a54565b600061013354610b61611748565b610b6b919061445f565b9050610137546101355482610b809190614472565b610b99906ec097ce7bc90715b34b9f1000000000614472565b610ba39190614489565b61013654610bb191906144ab565b91505090565b6000610bc282611c77565b9050610bcc611f3e565b919050565b6000610bde338484611f8f565b9050610905611f3e565b8060005b81811015610c2757610c15848483818110610c0957610c096144be565b90506020020135612148565b80610c1f816144d4565b915050610bec565b50610455611f3e565b610455838383604051806020016040528060008152506118e8565b600054610100900460ff1615808015610c6b5750600054600160ff909116105b80610c855750303b158015610c85575060005460ff166001145b610cf75760405162461bcd60e51b815260206004820152602e60248201527f496e697469616c697a61626c653a20636f6e747261637420697320616c72656160448201527f647920696e697469616c697a65640000000000000000000000000000000000006064820152608401610a54565b600080547fffffffffffffffffffffffffffffffffffffffffffffffffffffffffffffff001660011790558015610d38576000805461ff0019166101001790555b610d4061220e565b610db46040518060400160405280600b81526020017f5374616b656420494e54580000000000000000000000000000000000000000008152506040518060400160405280600581526020017f58494e5458000000000000000000000000000000000000000000000000000000815250612281565b610dbc6122f6565b6001600160a01b038316610e125760405162461bcd60e51b815260206004820152601460248201527f43616e27742075736520307820616464726573730000000000000000000000006044820152606401610a54565b6001600160a01b038216610e685760405162461bcd60e51b815260206004820152601460248201527f43616e27742075736520307820616464726573730000000000000000000000006044820152606401610a54565b61013880546001600160a01b0380861673ffffffffffffffffffffffffffffffffffffffff19928316179092556101398054928516929091169190911790556293a80061012f556722b1c8c1227a0000610130556703782dace9d90000610131556611c37937e08000610132558015610455576000805461ff0019169055604051600181527f7f26b83ff96e1f2b6a682f133852f6798a09c465da95921460cefb38474024989060200160405180910390a1505050565b60006060828067ffffffffffffffff811115610f3d57610f3d61431d565b604051908082528060200260200182016040528015610f66578160200160208202803683370190505b50915060005b81811015610fd6576000610f97878784818110610f8b57610f8b6144be565b90506020020135610fdf565b9050610fa381866144ab565b945080848381518110610fb857610fb86144be565b60209081029190910101525080610fce816144d4565b915050610f6c565b50509250929050565b600081815261013c602090815260408083205461013e83528184205461013d909352908320549091906ec097ce7bc90715b34b9f100000000090611021610aeb565b61102b919061445f565b6110359084614472565b61103f9190614489565b61104991906144ab565b9392505050565b6110b66040518061016001604052806000815260200160006001600160a01b031681526020016000815260200160008152602001600081526020016000815260200160008152602001600081526020016000815260200160008152602001600081525090565b61090582612369565b6000806110cb836124ce565b905060006110d8846124fc565b9050811561110057670de0b6b3a76400006110f38284614472565b6110fd9190614489565b92505b5050919050565b61110f6125a5565b6111176125fe565b6111216000612148565b61113a33610139546001600160a01b0316903084612658565b61013454421061115a5761115162093a8082614489565b6101355561119f565b6000426101345461116b919061445f565b90506000610135548261117e9190614472565b905062093a8061118e82856144ab565b6111989190614489565b6101355550505b610139546040517f70a08231000000000000000000000000000000000000000000000000000000008152306004820152600091670de0b6b3a7640000916001600160a01b03909116906370a0823190602401602060405180830381865afa15801561120e573d6000803e3d6000fd5b505050506040513d601f19601f8201168201806040525081019061123291906144ee565b61123c9190614472565b905061124b62093a8082614489565b61013554111561129d5760405162461bcd60e51b815260206004820152601860248201527f50726f76696465642072657761726420746f6f206869676800000000000000006044820152606401610a54565b426101338190556112b29062093a80906144ab565b610134557fde88a922e0d3b88b24e9623efeb464919c6bf9f66857a65e2bfcf2ce87a9433d6112e9670de0b6b3a764000084614489565b60405190815260200160405180910390a1611302611f3e565b5061130c60018055565b50565b6000818152609960205260408120546001600160a01b0316806109055760405162461bcd60e51b815260206004820152601860248201527f4552433732313a20696e76616c696420746f6b656e20494400000000000000006044820152606401610a54565b6000818152609960205260408120546001600160a01b031615610bcc576109058261270f565b60606113d9848484808060200260200160405190810160405280939291908181526020018383602002808284376000920191909152506127ac92505050565b9050611049611f3e565b33600090815261013f60205260408120548291908190815b8481101561156157868682818110611415576114156144be565b90506020020135935061143f846000908152609960205260409020546001600160a01b0316151590565b61148b5760405162461bcd60e51b815260206004820152601c60248201527f5468697320706f736974696f6e20646f65736e27742065786973742e000000006044820152606401610a54565b6000848152609960205260409020546001600160a01b0316925033831461151a5760405162461bcd60e51b815260206004820152602760248201527f596f7520617265206e6f7420746865206f776e6572206f66207468697320706f60448201527f736974696f6e2e000000000000000000000000000000000000000000000000006064820152608401610a54565b61152384612148565b600084815261013e602052604090205461153d90836144ab565b600085815261013e6020526040812055915080611559816144d4565b9150506113fb565b5033600081815261013f60205260408120556101395461158d916001600160a01b039091169083612d00565b858560405161159d929190614507565b6040518091039020826001600160a01b03167f916f43dce61aa4c4d8761c25ddcacfe178ea96a18f68d2775354bbc06be75aaa836040516115e091815260200190565b60405180910390a36115f0611f3e565b505050505050565b60006001600160a01b0382166116765760405162461bcd60e51b815260206004820152602960248201527f4552433732313a2061646472657373207a65726f206973206e6f74206120766160448201527f6c6964206f776e657200000000000000000000000000000000000000000000006064820152608401610a54565b506001600160a01b03166000908152609a602052604090205490565b61169a6125fe565b565b60006116a9333385611f8f565b90506116b58183612d49565b610455611f3e565b60fb5433906001600160a01b0316811461173f5760405162461bcd60e51b815260206004820152602960248201527f4f776e61626c6532537465703a2063616c6c6572206973206e6f74207468652060448201527f6e6577206f776e657200000000000000000000000000000000000000000000006064820152608401610a54565b61130c81613194565b600061175742610134546131ba565b905090565b6060818067ffffffffffffffff8111156117785761177861431d565b60405190808252806020026020018201604052801561180f57816020015b6117fc6040518061016001604052806000815260200160006001600160a01b031681526020016000815260200160008152602001600081526020016000815260200160008152602001600081526020016000815260200160008152602001600081525090565b8152602001906001900390816117965790505b50915060005b8181101561186e5761183e858583818110611832576118326144be565b90506020020135612369565b838281518110611850576118506144be565b60200260200101819052508080611866906144d4565b915050611815565b505092915050565b60606098805461091a9061440f565b6000818152609960205260408120546001600160a01b031615610bcc57610905826124fc565b6000818152609960205260408120546001600160a01b031615610bcc57610905826124ce565b60006117576131d0565b6000610bc2333384611f8f565b6118f23383613213565b6119645760405162461bcd60e51b815260206004820152602d60248201527f4552433732313a2063616c6c6572206973206e6f7420746f6b656e206f776e6560448201527f72206f7220617070726f766564000000000000000000000000000000000000006064820152608401610a54565b61197084848484613292565b50505050565b606061198182611c13565b600061199860408051602081019091526000815290565b905060008151116119b85760405180602001604052806000815250611049565b806119c28461331b565b6040516020016119d3929190614549565b6040516020818303038152906040529392505050565b6119f38282612d49565b6106c2611f3e565b600080611a07836124ce565b90506000611a14846124fc565b9050811561110057670de0b6b3a7640000611a2f8284614472565b611a399190614489565b6110fd908361445f565b600082815261013b60205260408120548190838111611aca5760405162461bcd60e51b815260206004820152602e60248201527f596f752063616e2774207061727469616c6c79207769746864726177206d6f7260448201527f65207468616e20796f75206f776e0000000000000000000000000000000000006064820152608401610a54565b6040805160028082526060820183526000926020830190803683370190505090508481600081518110611aff57611aff6144be565b6020908102919091010152611b14858361445f565b81600181518110611b2757611b276144be565b6020026020010181815250506000611b3f87836127ac565b9050611b6481600081518110611b5757611b576144be565b6020026020010151611c77565b945080600181518110611b7957611b796144be565b60200260200101519350611b8b611f3e565b5050509250929050565b611b9d6125fe565b60fb80546001600160a01b03831673ffffffffffffffffffffffffffffffffffffffff199091168117909155611bdb60c9546001600160a01b031690565b6001600160a01b03167f38d16b8cac22d99fc7c124b9cd0de2d3fa1faef420bfe791d8c362d765e2270060405160405180910390a350565b6000818152609960205260409020546001600160a01b031661130c5760405162461bcd60e51b815260206004820152601860248201527f4552433732313a20696e76616c696420746f6b656e20494400000000000000006044820152606401610a54565b6000611c816125a5565b6000828152609960205260409020546001600160a01b0316611ce55760405162461bcd60e51b815260206004820152601c60248201527f5468697320706f736974696f6e20646f65736e27742065786973742e000000006044820152606401610a54565b6000828152609960205260409020546001600160a01b0316338114611d4c5760405162461bcd60e51b815260206004820152601360248201527f4e6f7420796f75722078494e5458204e46542e000000000000000000000000006044820152606401610a54565b611d5583612148565b600083815261013b602052604081205490670de0b6b3a7640000611d788661270f565b611d829084614472565b611d8c9190614489565b90506000611d986131d0565b90506000670de0b6b3a7640000611daf8386614472565b611db99190614489565b90506000670de0b6b3a7640000611dcf896124fc565b611dd99084614472565b611de39190614489565b9050611def818361445f565b600089815261013a6020908152604080832083905561013b825280832083905561013c825280832083905561013d825280832083905561013e90915290205490975015611e7457600088815261013e60209081526040808320546001600160a01b038a16845261013f9092528220805491929091611e6e9084906144ab565b90915550505b600088815261013e6020526040812055611e8d886133bb565b8461012e6000828254611ea0919061445f565b92505081905550836101376000828254611eba919061445f565b909155505061013854611ed7906001600160a01b03168789612d00565b61012e5460408051878152602081018a905280820184905260608101929092525189916001600160a01b038916917f44bd20a79e993bdcc7cbedf54a3b4d19fb78490124b6b90d04fe3242eea579e89181900360800190a3505050505050610bcc60018055565b7fb7ed67a7a04c3ac1ec8c35b581007f013b24a305093b7ffc2dc2dffd12cc4a6c611f6761345d565b61012e54610137546040805193845260208401929092529082015260600160405180910390a1565b6000611f996125a5565b60008211611fe95760405162461bcd60e51b815260206004820152601360248201527f43616e2774207374616b65203020696e74582e000000000000000000000000006044820152606401610a54565b6000611ff36131d0565b6101385490915061200f906001600160a01b0316863086612658565b61012d8054906000612020836144d4565b91905055506120328461012d546134e4565b61203e61012d54612148565b600081612053670de0b6b3a764000086614472565b61205d9190614489565b61012d8054600090815261013a602090815260408083204290559254825261013b905290812082905561012e8054929350839290919061209e9084906144ab565b925050819055508061013760008282546120b891906144ab565b909155505061012d8054600090815261013c6020908152604091829020849055915461012e54610137548351868152948501899052928401526060830191909152906001600160a01b0380881691908916907f52c6b7a228763dc832bef1e2dee48707b24b8f1400a6335b3af6d5def4f5bb219060800160405180910390a461012d549250505061104960018055565b612150610aeb565b6101365561215c611748565b61013355801561130c5761216f81610fdf565b600082815261013e6020526040812091909155670de0b6b3a76400006121948361270f565b600084815261013b60205260409020546121ae9190614472565b6121b89190614489565b600083815261013c60205260409020546101375491925082916121db919061445f565b6121e591906144ab565b61013755600091825261013c60209081526040808420929092556101365461013d909152912055565b600054610100900460ff166122795760405162461bcd60e51b815260206004820152602b60248201527f496e697469616c697a61626c653a20636f6e7472616374206973206e6f74206960448201526a6e697469616c697a696e6760a81b6064820152608401610a54565b61169a61367c565b600054610100900460ff166122ec5760405162461bcd60e51b815260206004820152602b60248201527f496e697469616c697a61626c653a20636f6e7472616374206973206e6f74206960448201526a6e697469616c697a696e6760a81b6064820152608401610a54565b6106c282826136e7565b600054610100900460ff166123615760405162461bcd60e51b815260206004820152602b60248201527f496e697469616c697a61626c653a20636f6e7472616374206973206e6f74206960448201526a6e697469616c697a696e6760a81b6064820152608401610a54565b61169a61376b565b6123cf6040518061016001604052806000815260200160006001600160a01b031681526020016000815260200160008152602001600081526020016000815260200160008152602001600081526020016000815260200160008152602001600081525090565b60006123da836124ce565b905060006123e7846124fc565b8484526000858152609960209081526040808320546001600160a01b03168288015287835261013b909152908190205490850152606084018390529050670de0b6b3a76400006124378284614472565b6124419190614489565b61244b908361445f565b6080840152600084815261013a602052604090205460a084015261246e8461270f565b60c084015260e08301819052670de0b6b3a764000061248d8284614472565b6124979190614489565b6101008401525050600082815261013e602090815260408083205461012085015293825261013c9052919091205461014082015290565b600081815261013b6020526040812054816124e76131d0565b9050670de0b6b3a76400006110f38284614472565b600081815261013a602052604081205480820361251c5750600092915050565b6000612528824261445f565b905061012f5481111561253b575061012f545b670de0b6b3a76400006101315461012f54670de0b6b3a7640000846125609190614472565b61256a9190614489565b6125749190614472565b61257e9190614489565b6101315461258c919061445f565b9250610132548310156111005750506101325492915050565b6002600154036125f75760405162461bcd60e51b815260206004820152601f60248201527f5265656e7472616e637947756172643a207265656e7472616e742063616c6c006044820152606401610a54565b6002600155565b60c9546001600160a01b0316331461169a5760405162461bcd60e51b815260206004820181905260248201527f4f776e61626c653a2063616c6c6572206973206e6f7420746865206f776e65726044820152606401610a54565b6040516001600160a01b03808516602483015283166044820152606481018290526119709085907f23b872dd00000000000000000000000000000000000000000000000000000000906084015b60408051601f198184030181529190526020810180517bffffffffffffffffffffffffffffffffffffffffffffffffffffffff167fffffffff00000000000000000000000000000000000000000000000000000000909316929092179091526137df565b60018055565b600081815261013a602052604081205480820361272f5750600092915050565b600061273b824261445f565b905061012f5481111561274e575061012f545b670de0b6b3a76400008061013054612766919061445f565b61012f5461277c670de0b6b3a764000085614472565b6127869190614489565b6127909190614472565b61279a9190614489565b6110fd90670de0b6b3a76400006144ab565b60606127b66125a5565b6000838152609960205260409020546001600160a01b031661281a5760405162461bcd60e51b815260206004820152601c60248201527f5468697320706f736974696f6e20646f65736e27742065786973742e000000006044820152606401610a54565b6000838152609960205260409020546001600160a01b03163381146128815760405162461bcd60e51b815260206004820152601360248201527f4e6f7420796f75722078494e5458204e46542e000000000000000000000000006044820152606401610a54565b8251600181116128f95760405162461bcd60e51b815260206004820152602c60248201527f596f752063616e27742073706c697420746869732058494e5458206c6573732060448201527f7468616e20322074696d657300000000000000000000000000000000000000006064820152608401610a54565b600a8111156129705760405162461bcd60e51b815260206004820152602d60248201527f596f752063616e27742073706c697420746869732058494e5458206d6f72652060448201527f7468616e2031302074696d6573000000000000000000000000000000000000006064820152608401610a54565b8067ffffffffffffffff8111156129895761298961431d565b6040519080825280602002602001820160405280156129b2578160200160208202803683370190505b5092506129be85612148565b600085815261013b602090815260408083205461013a83528184205461013d9093529083205461012e805492939284919086906129fc90849061445f565b9091555050600089815261013c6020526040812054610137805491929091612a2590849061445f565b90915550600090505b85811015612a6f57888181518110612a4857612a486144be565b602002602001015185612a5b91906144ab565b945080612a67816144d4565b915050612a2e565b5060005b85811015612c5557600085858b8481518110612a9157612a916144be565b6020026020010151612aa39190614472565b612aad9190614489565b905060008111612aff5760405162461bcd60e51b815260206004820152601460248201527f43616e27742073706c697420302078494e54582e0000000000000000000000006044820152606401610a54565b61012d8054906000612b10836144d4565b9190505550612b228861012d546134e4565b61012d54898381518110612b3857612b386144be565b60209081029190910181019190915261012d8054600090815261013a835260408082208890558254825261013b90935291822083905554670de0b6b3a764000090612b829061270f565b612b8c9084614472565b612b969190614489565b61012d8054600090815261013c602090815260408083208590559254825261013d905290812086905561012e80549293508492909190612bd79084906144ab565b92505081905550806101376000828254612bf191906144ab565b909155505061012d5460408051918252602082018490528d916001600160a01b038c16917ff66885c33d648fcd0d97e0f2a18e30102169c22763473af0fb716f11b4a17dd6910160405180910390a350508080612c4d906144d4565b915050612a73565b50600089815261013a6020908152604080832083905561013b825280832083905561013c825280832083905561013d825280832083905561013e90915290205415612cd857600089815261013e60209081526040808320546001600160a01b038a16845261013f9092528220805491929091612cd29084906144ab565b90915550505b600089815261013e6020526040812055612cf1896133bb565b50505050505061090560018055565b6040516001600160a01b0383166024820152604481018290526104559084907fa9059cbb00000000000000000000000000000000000000000000000000000000906064016126a5565b612d516125a5565b6000828152609960205260409020546001600160a01b0316612db55760405162461bcd60e51b815260206004820152601c60248201527f5468697320706f736974696f6e20646f65736e27742065786973742e000000006044820152606401610a54565b6000818152609960205260409020546001600160a01b0316612e195760405162461bcd60e51b815260206004820152601c60248201527f5468697320706f736974696f6e20646f65736e27742065786973742e000000006044820152606401610a54565b6000828152609960205260409020546001600160a01b0316338114612e805760405162461bcd60e51b815260206004820152601e60248201527f46726f6d204e46542069736e277420796f75722078494e5458204e46542e00006044820152606401610a54565b6000828152609960205260409020546001600160a01b03828116911614612ee95760405162461bcd60e51b815260206004820152601760248201527f546f204e46542069736e27742078494e5458204e46542e0000000000000000006044820152606401610a54565b612ef283612148565b612efb82612148565b600083815261013b602090815260408083205461013a909252822054909190612f24904261445f565b905061012f54811115612f37575061012f545b600084815261013b602090815260408083205461013a909252822054909190612f60904261445f565b905061012f54811115612f73575061012f545b6000612f7f83866144ab565b905060008111612ff75760405162461bcd60e51b815260206004820152602360248201527f43616e2774206d616b65206120706f736974696f6e207769746820302078494e60448201527f54582e00000000000000000000000000000000000000000000000000000000006064820152608401610a54565b6000816130048585614472565b61300e9190614489565b826130198888614472565b6130239190614489565b61302d91906144ab565b600089815261013b60205260409020839055905061304b814261445f565b600089815261013a6020526040812091909155670de0b6b3a76400006130708a61270f565b61307a9085614472565b6130849190614489565b60008a815261013c602081815260408084208590558e845261013a825280842084905561013b825280842084905591815281832083905561013d815281832083905561013e9052902054909150156131145760008a815261013e60209081526040808320546001600160a01b038c16845261013f909252822080549192909161310e9084906144ab565b90915550505b60008a815261013e602052604081205561312d8a6133bb565b896001600160a01b0389167f50d7f0ef4f7b59921566f6b835fb032efa0fd0dacccb9361292f89b7aa6bafdd8b86613165874261445f565b6040805193845260208401929092529082015260600160405180910390a350505050505050506106c260018055565b60fb805473ffffffffffffffffffffffffffffffffffffffff1916905561130c816138c7565b60008183106131c95781611049565b5090919050565b600061012e546000036131ea5750670de0b6b3a764000090565b61012e54670de0b6b3a76400006131ff61345d565b6132099190614472565b6117579190614489565b60008061321f8361130f565b9050806001600160a01b0316846001600160a01b0316148061326657506001600160a01b038082166000908152609c602090815260408083209388168352929052205460ff165b8061328a5750836001600160a01b031661327f8461099d565b6001600160a01b0316145b949350505050565b61329d848484613926565b6132a984848484613b5c565b6119705760405162461bcd60e51b815260206004820152603260248201527f4552433732313a207472616e7366657220746f206e6f6e20455243373231526560448201527f63656976657220696d706c656d656e74657200000000000000000000000000006064820152608401610a54565b6060600061332883613cfd565b600101905060008167ffffffffffffffff8111156133485761334861431d565b6040519080825280601f01601f191660200182016040528015613372576020820181803683370190505b5090508181016020015b600019017f3031323334353637383961626364656600000000000000000000000000000000600a86061a8153600a850494508461337c57509392505050565b60006133c68261130f565b90506133d18261130f565b6000838152609b60209081526040808320805473ffffffffffffffffffffffffffffffffffffffff199081169091556001600160a01b038516808552609a845282852080546000190190558785526099909352818420805490911690555192935084927fddf252ad1be2c89b69c2b068fc378daa952ba7f163c4a11628f55a4df523b3ef908390a45050565b610138546040517f70a082310000000000000000000000000000000000000000000000000000000081523060048201526000916001600160a01b0316906370a0823190602401602060405180830381865afa1580156134c0573d6000803e3d6000fd5b505050506040513d601f19601f8201168201806040525081019061175791906144ee565b6001600160a01b03821661353a5760405162461bcd60e51b815260206004820181905260248201527f4552433732313a206d696e7420746f20746865207a65726f20616464726573736044820152606401610a54565b6000818152609960205260409020546001600160a01b03161561359f5760405162461bcd60e51b815260206004820152601c60248201527f4552433732313a20746f6b656e20616c7265616479206d696e746564000000006044820152606401610a54565b6000818152609960205260409020546001600160a01b0316156136045760405162461bcd60e51b815260206004820152601c60248201527f4552433732313a20746f6b656e20616c7265616479206d696e746564000000006044820152606401610a54565b6001600160a01b0382166000818152609a60209081526040808320805460010190558483526099909152808220805473ffffffffffffffffffffffffffffffffffffffff19168417905551839291907fddf252ad1be2c89b69c2b068fc378daa952ba7f163c4a11628f55a4df523b3ef908290a45050565b600054610100900460ff166127095760405162461bcd60e51b815260206004820152602b60248201527f496e697469616c697a61626c653a20636f6e7472616374206973206e6f74206960448201526a6e697469616c697a696e6760a81b6064820152608401610a54565b600054610100900460ff166137525760405162461bcd60e51b815260206004820152602b60248201527f496e697469616c697a61626c653a20636f6e7472616374206973206e6f74206960448201526a6e697469616c697a696e6760a81b6064820152608401610a54565b609761375e83826145be565b50609861045582826145be565b600054610100900460ff166137d65760405162461bcd60e51b815260206004820152602b60248201527f496e697469616c697a61626c653a20636f6e7472616374206973206e6f74206960448201526a6e697469616c697a696e6760a81b6064820152608401610a54565b61169a33613194565b6000613834826040518060400160405280602081526020017f5361666545524332303a206c6f772d6c6576656c2063616c6c206661696c6564815250856001600160a01b0316613ddf9092919063ffffffff16565b9050805160001480613855575080806020019051810190613855919061467e565b6104555760405162461bcd60e51b815260206004820152602a60248201527f5361666545524332303a204552433230206f7065726174696f6e20646964206e60448201527f6f742073756363656564000000000000000000000000000000000000000000006064820152608401610a54565b60c980546001600160a01b0383811673ffffffffffffffffffffffffffffffffffffffff19831681179093556040519116919082907f8be0079c531659141344cd1fd0a4f28419497f9722a3daafe3b4186f6b6457e090600090a35050565b826001600160a01b03166139398261130f565b6001600160a01b0316146139b55760405162461bcd60e51b815260206004820152602560248201527f4552433732313a207472616e736665722066726f6d20696e636f72726563742060448201527f6f776e65720000000000000000000000000000000000000000000000000000006064820152608401610a54565b6001600160a01b038216613a305760405162461bcd60e51b8152602060048201526024808201527f4552433732313a207472616e7366657220746f20746865207a65726f2061646460448201527f72657373000000000000000000000000000000000000000000000000000000006064820152608401610a54565b826001600160a01b0316613a438261130f565b6001600160a01b031614613abf5760405162461bcd60e51b815260206004820152602560248201527f4552433732313a207472616e736665722066726f6d20696e636f72726563742060448201527f6f776e65720000000000000000000000000000000000000000000000000000006064820152608401610a54565b6000818152609b60209081526040808320805473ffffffffffffffffffffffffffffffffffffffff199081169091556001600160a01b03878116808652609a8552838620805460001901905590871680865283862080546001019055868652609990945282852080549092168417909155905184937fddf252ad1be2c89b69c2b068fc378daa952ba7f163c4a11628f55a4df523b3ef91a4505050565b60006001600160a01b0384163b15613cf2576040517f150b7a020000000000000000000000000000000000000000000000000000000081526001600160a01b0385169063150b7a0290613bb990339089908890889060040161469b565b6020604051808303816000875af1925050508015613bf4575060408051601f3d908101601f19168201909252613bf1918101906146d7565b60015b613ca7573d808015613c22576040519150601f19603f3d011682016040523d82523d6000602084013e613c27565b606091505b508051600003613c9f5760405162461bcd60e51b815260206004820152603260248201527f4552433732313a207472616e7366657220746f206e6f6e20455243373231526560448201527f63656976657220696d706c656d656e74657200000000000000000000000000006064820152608401610a54565b805181602001fd5b7fffffffff00000000000000000000000000000000000000000000000000000000167f150b7a020000000000000000000000000000000000000000000000000000000014905061328a565b506001949350505050565b6000807a184f03e93ff9f4daa797ed6e38ed64bf6a1f0100000000000000008310613d46577a184f03e93ff9f4daa797ed6e38ed64bf6a1f010000000000000000830492506040015b6d04ee2d6d415b85acef81000000008310613d72576d04ee2d6d415b85acef8100000000830492506020015b662386f26fc100008310613d9057662386f26fc10000830492506010015b6305f5e1008310613da8576305f5e100830492506008015b6127108310613dbc57612710830492506004015b60648310613dce576064830492506002015b600a83106109055760010192915050565b606061328a848460008585600080866001600160a01b03168587604051613e0691906146f4565b60006040518083038185875af1925050503d8060008114613e43576040519150601f19603f3d011682016040523d82523d6000602084013e613e48565b606091505b5091509150613e5987838387613e64565b979650505050505050565b60608315613ed3578251600003613ecc576001600160a01b0385163b613ecc5760405162461bcd60e51b815260206004820152601d60248201527f416464726573733a2063616c6c20746f206e6f6e2d636f6e74726163740000006044820152606401610a54565b508161328a565b61328a8383815115613ee85781518083602001fd5b8060405162461bcd60e51b8152600401610a549190613f9d565b7fffffffff000000000000000000000000000000000000000000000000000000008116811461130c57600080fd5b600060208284031215613f4257600080fd5b813561104981613f02565b60005b83811015613f68578181015183820152602001613f50565b50506000910152565b60008151808452613f89816020860160208601613f4d565b601f01601f19169290920160200192915050565b6020815260006110496020830184613f71565b600060208284031215613fc257600080fd5b5035919050565b80356001600160a01b0381168114610bcc57600080fd5b60008060408385031215613ff357600080fd5b613ffc83613fc9565b946020939093013593505050565b60008060006060848603121561401f57600080fd5b61402884613fc9565b925061403660208501613fc9565b9150604084013590509250925092565b60008083601f84011261405857600080fd5b50813567ffffffffffffffff81111561407057600080fd5b6020830191508360208260051b850101111561408b57600080fd5b9250929050565b600080602083850312156140a557600080fd5b823567ffffffffffffffff8111156140bc57600080fd5b6140c885828601614046565b90969095509350505050565b6000602082840312156140e657600080fd5b61104982613fc9565b6000806040838503121561410257600080fd5b61410b83613fc9565b915061411960208401613fc9565b90509250929050565b600081518084526020808501945080840160005b8381101561415257815187529582019590820190600101614136565b509495945050505050565b82815260406020820152600061328a6040830184614122565b80518252602081015161419460208401826001600160a01b03169052565b5060408101516040830152606081015160608301526080810151608083015260a081015160a083015260c081015160c083015260e081015160e08301526101008082015181840152506101208082015181840152506101408082015181840152505050565b61016081016109058284614176565b60008060006040848603121561421d57600080fd5b83359250602084013567ffffffffffffffff81111561423b57600080fd5b61424786828701614046565b9497909650939450505050565b6020815260006110496020830184614122565b6000806040838503121561427a57600080fd5b50508035926020909101359150565b6020808252825182820181905260009190848201906040850190845b818110156142cc576142b8838551614176565b9284019261016092909201916001016142a5565b50909695505050505050565b801515811461130c57600080fd5b600080604083850312156142f957600080fd5b61430283613fc9565b91506020830135614312816142d8565b809150509250929050565b634e487b7160e01b600052604160045260246000fd5b6000806000806080858703121561434957600080fd5b61435285613fc9565b935061436060208601613fc9565b925060408501359150606085013567ffffffffffffffff8082111561438457600080fd5b818701915087601f83011261439857600080fd5b8135818111156143aa576143aa61431d565b604051601f8201601f19908116603f011681019083821181831017156143d2576143d261431d565b816040528281528a60208487010111156143eb57600080fd5b82602086016020830137600060208483010152809550505050505092959194509250565b600181811c9082168061442357607f821691505b60208210810361444357634e487b7160e01b600052602260045260246000fd5b50919050565b634e487b7160e01b600052601160045260246000fd5b8181038181111561090557610905614449565b808202811582820484141761090557610905614449565b6000826144a657634e487b7160e01b600052601260045260246000fd5b500490565b8082018082111561090557610905614449565b634e487b7160e01b600052603260045260246000fd5b600060001982036144e7576144e7614449565b5060010190565b60006020828403121561450057600080fd5b5051919050565b60007f07ffffffffffffffffffffffffffffffffffffffffffffffffffffffffffffff83111561453657600080fd5b8260051b80858437919091019392505050565b6000835161455b818460208801613f4d565b83519083019061456f818360208801613f4d565b01949350505050565b601f82111561045557600081815260208120601f850160051c8101602086101561459f5750805b601f850160051c820191505b818110156115f0578281556001016145ab565b815167ffffffffffffffff8111156145d8576145d861431d565b6145ec816145e6845461440f565b84614578565b602080601f83116001811461462157600084156146095750858301515b600019600386901b1c1916600185901b1785556115f0565b600085815260208120601f198616915b8281101561465057888601518255948401946001909101908401614631565b508582101561466e5787850151600019600388901b60f8161c191681555b5050505050600190811b01905550565b60006020828403121561469057600080fd5b8151611049816142d8565b60006001600160a01b038087168352808616602084015250836040830152608060608301526146cd6080830184613f71565b9695505050505050565b6000602082840312156146e957600080fd5b815161104981613f02565b60008251614706818460208701613f4d565b919091019291505056fea2646970667358221220e53ccd374b9281d4a5ec7d82f801e6e3b6caf47af8845120aa4e95a02d6b320e64736f6c63430008120033","opcodes":"PUSH1 0x80 PUSH1 0x40 MSTORE CALLVALUE DUP1 ISZERO PUSH3 0x11 JUMPI PUSH1 0x0 DUP1 REVERT JUMPDEST POP PUSH3 0x1C PUSH3 0x22 JUMP JUMPDEST PUSH3 0xE3 JUMP JUMPDEST PUSH1 0x0 SLOAD PUSH2 0x100 SWAP1 DIV PUSH1 0xFF AND ISZERO PUSH3 0x8F JUMPI PUSH1 0x40 MLOAD PUSH3 0x461BCD PUSH1 0xE5 SHL DUP2 MSTORE PUSH1 0x20 PUSH1 0x4 DUP3 ADD MSTORE PUSH1 0x27 PUSH1 0x24 DUP3 ADD MSTORE PUSH32 0x496E697469616C697A61626C653A20636F6E747261637420697320696E697469 PUSH1 0x44 DUP3 ADD MSTORE PUSH7 0x616C697A696E67 PUSH1 0xC8 SHL PUSH1 0x64 DUP3 ADD MSTORE PUSH1 0x84 ADD PUSH1 0x40 MLOAD DUP1 SWAP2 SUB SWAP1 REVERT JUMPDEST PUSH1 0x0 SLOAD PUSH1 0xFF SWAP1 DUP2 AND EQ PUSH3 0xE1 JUMPI PUSH1 0x0 DUP1 SLOAD PUSH1 0xFF NOT AND PUSH1 0xFF SWAP1 DUP2 OR SWAP1 SWAP2 SSTORE PUSH1 0x40 MLOAD SWAP1 DUP2 MSTORE PUSH32 0x7F26B83FF96E1F2B6A682F133852F6798A09C465DA95921460CEFB3847402498 SWAP1 PUSH1 0x20 ADD PUSH1 0x40 MLOAD DUP1 SWAP2 SUB SWAP1 LOG1 JUMPDEST JUMP JUMPDEST PUSH2 0x4746 DUP1 PUSH3 0xF3 PUSH1 0x0 CODECOPY PUSH1 0x0 RETURN INVALID PUSH1 0x80 PUSH1 0x40 MSTORE CALLVALUE DUP1 ISZERO PUSH2 0x10 JUMPI PUSH1 0x0 DUP1 REVERT JUMPDEST POP PUSH1 0x4 CALLDATASIZE LT PUSH2 0x399 JUMPI PUSH1 0x0 CALLDATALOAD PUSH1 0xE0 SHR DUP1 PUSH4 0x771602F7 GT PUSH2 0x1E9 JUMPI DUP1 PUSH4 0xB88D4FDE GT PUSH2 0x10F JUMPI DUP1 PUSH4 0xDF2E0B97 GT PUSH2 0xAD JUMPI DUP1 PUSH4 0xF290DFA7 GT PUSH2 0x7C JUMPI DUP1 PUSH4 0xF290DFA7 EQ PUSH2 0x7CD JUMPI DUP1 PUSH4 0xF2FDE38B EQ PUSH2 0x7F5 JUMPI DUP1 PUSH4 0xF7C618C1 EQ PUSH2 0x808 JUMPI DUP1 PUSH4 0xF84DDF0B EQ PUSH2 0x81C JUMPI PUSH1 0x0 DUP1 REVERT JUMPDEST DUP1 PUSH4 0xDF2E0B97 EQ PUSH2 0x762 JUMPI DUP1 PUSH4 0xE30C3978 EQ PUSH2 0x776 JUMPI DUP1 PUSH4 0xE985E9C5 EQ PUSH2 0x787 JUMPI DUP1 PUSH4 0xEBE2B12B EQ PUSH2 0x7C3 JUMPI PUSH1 0x0 DUP1 REVERT JUMPDEST DUP1 PUSH4 0xCFD0E125 GT PUSH2 0xE9 JUMPI DUP1 PUSH4 0xCFD0E125 EQ PUSH2 0x711 JUMPI DUP1 PUSH4 0xD1A249AB EQ PUSH2 0x732 JUMPI DUP1 PUSH4 0xD1C2BABB EQ PUSH2 0x73C JUMPI DUP1 PUSH4 0xD975DFED EQ PUSH2 0x74F JUMPI PUSH1 0x0 DUP1 REVERT JUMPDEST DUP1 PUSH4 0xB88D4FDE EQ PUSH2 0x6E1 JUMPI DUP1 PUSH4 0xC87B56DD EQ PUSH2 0x6F4 JUMPI DUP1 PUSH4 0xC8F33C91 EQ PUSH2 0x707 JUMPI PUSH1 0x0 DUP1 REVERT JUMPDEST DUP1 PUSH4 0x95D89B41 GT PUSH2 0x187 JUMPI DUP1 PUSH4 0xA1C95E5A GT PUSH2 0x156 JUMPI DUP1 PUSH4 0xA1C95E5A EQ PUSH2 0x693 JUMPI DUP1 PUSH4 0xA22CB465 EQ PUSH2 0x6B4 JUMPI DUP1 PUSH4 0xA3684977 EQ PUSH2 0x6C6 JUMPI DUP1 PUSH4 0xA694FC3A EQ PUSH2 0x6CE JUMPI PUSH1 0x0 DUP1 REVERT JUMPDEST DUP1 PUSH4 0x95D89B41 EQ PUSH2 0x65B JUMPI DUP1 PUSH4 0x96C82E57 EQ PUSH2 0x663 JUMPI DUP1 PUSH4 0x988DC31E EQ PUSH2 0x66D JUMPI DUP1 PUSH4 0xA00EA0C5 EQ PUSH2 0x680 JUMPI PUSH1 0x0 DUP1 REVERT JUMPDEST DUP1 PUSH4 0x80FAA57D GT PUSH2 0x1C3 JUMPI DUP1 PUSH4 0x80FAA57D EQ PUSH2 0x613 JUMPI DUP1 PUSH4 0x8B8FBD92 EQ PUSH2 0x61B JUMPI DUP1 PUSH4 0x8DA5CB5B EQ PUSH2 0x62A JUMPI DUP1 PUSH4 0x8FCA5A59 EQ PUSH2 0x63B JUMPI PUSH1 0x0 DUP1 REVERT JUMPDEST DUP1 PUSH4 0x771602F7 EQ PUSH2 0x5EE JUMPI DUP1 PUSH4 0x79BA5097 EQ PUSH2 0x601 JUMPI DUP1 PUSH4 0x7B0A47EE EQ PUSH2 0x609 JUMPI PUSH1 0x0 DUP1 REVERT JUMPDEST DUP1 PUSH4 0x42842E0E GT PUSH2 0x2CE JUMPI DUP1 PUSH4 0x5A48A97F GT PUSH2 0x26C JUMPI DUP1 PUSH4 0x69C67247 GT PUSH2 0x23B JUMPI DUP1 PUSH4 0x69C67247 EQ PUSH2 0x5A0 JUMPI DUP1 PUSH4 0x6BA4C138 EQ PUSH2 0x5C0 JUMPI DUP1 PUSH4 0x70A08231 EQ PUSH2 0x5D3 JUMPI DUP1 PUSH4 0x715018A6 EQ PUSH2 0x5E6 JUMPI PUSH1 0x0 DUP1 REVERT JUMPDEST DUP1 PUSH4 0x5A48A97F EQ PUSH2 0x554 JUMPI DUP1 PUSH4 0x60993B5B EQ PUSH2 0x567 JUMPI DUP1 PUSH4 0x6352211E EQ PUSH2 0x57A JUMPI DUP1 PUSH4 0x645BFD9A EQ PUSH2 0x58D JUMPI PUSH1 0x0 DUP1 REVERT JUMPDEST DUP1 PUSH4 0x4D6ED8C4 GT PUSH2 0x2A8 JUMPI DUP1 PUSH4 0x4D6ED8C4 EQ PUSH2 0x50D JUMPI DUP1 PUSH4 0x519F5099 EQ PUSH2 0x520 JUMPI DUP1 PUSH4 0x5200E79E EQ PUSH2 0x540 JUMPI DUP1 PUSH4 0x520BF08A EQ PUSH2 0x54A JUMPI PUSH1 0x0 DUP1 REVERT JUMPDEST DUP1 PUSH4 0x42842E0E EQ PUSH2 0x4C6 JUMPI DUP1 PUSH4 0x485CC955 EQ PUSH2 0x4D9 JUMPI DUP1 PUSH4 0x4D62F590 EQ PUSH2 0x4EC JUMPI PUSH1 0x0 DUP1 REVERT JUMPDEST DUP1 PUSH4 0x23B872DD GT PUSH2 0x33B JUMPI DUP1 PUSH4 0x2EE40908 GT PUSH2 0x315 JUMPI DUP1 PUSH4 0x2EE40908 EQ PUSH2 0x475 JUMPI DUP1 PUSH4 0x30F91619 EQ PUSH2 0x488 JUMPI DUP1 PUSH4 0x31D7A262 EQ PUSH2 0x49B JUMPI DUP1 PUSH4 0x3228DD59 EQ PUSH2 0x4BC JUMPI PUSH1 0x0 DUP1 REVERT JUMPDEST DUP1 PUSH4 0x23B872DD EQ PUSH2 0x447 JUMPI DUP1 PUSH4 0x2AC3F450 EQ PUSH2 0x45A JUMPI DUP1 PUSH4 0x2E17DE78 EQ PUSH2 0x462 JUMPI PUSH1 0x0 DUP1 REVERT JUMPDEST DUP1 PUSH4 0x95EA7B3 GT PUSH2 0x377 JUMPI DUP1 PUSH4 0x95EA7B3 EQ PUSH2 0x406 JUMPI DUP1 PUSH4 0xEBA9849 EQ PUSH2 0x41B JUMPI DUP1 PUSH4 0x1BE05289 EQ PUSH2 0x433 JUMPI DUP1 PUSH4 0x2212B806 EQ PUSH2 0x43D JUMPI PUSH1 0x0 DUP1 REVERT JUMPDEST DUP1 PUSH4 0x1FFC9A7 EQ PUSH2 0x39E JUMPI DUP1 PUSH4 0x6FDDE03 EQ PUSH2 0x3C6 JUMPI DUP1 PUSH4 0x81812FC EQ PUSH2 0x3DB JUMPI JUMPDEST PUSH1 0x0 DUP1 REVERT JUMPDEST PUSH2 0x3B1 PUSH2 0x3AC CALLDATASIZE PUSH1 0x4 PUSH2 0x3F30 JUMP JUMPDEST PUSH2 0x826 JUMP JUMPDEST PUSH1 0x40 MLOAD SWAP1 ISZERO ISZERO DUP2 MSTORE PUSH1 0x20 ADD JUMPDEST PUSH1 0x40 MLOAD DUP1 SWAP2 SUB SWAP1 RETURN JUMPDEST PUSH2 0x3CE PUSH2 0x90B JUMP JUMPDEST PUSH1 0x40 MLOAD PUSH2 0x3BD SWAP2 SWAP1 PUSH2 0x3F9D JUMP JUMPDEST PUSH2 0x3EE PUSH2 0x3E9 CALLDATASIZE PUSH1 0x4 PUSH2 0x3FB0 JUMP JUMPDEST PUSH2 0x99D JUMP JUMPDEST PUSH1 0x40 MLOAD PUSH1 0x1 PUSH1 0x1 PUSH1 0xA0 SHL SUB SWAP1 SWAP2 AND DUP2 MSTORE PUSH1 0x20 ADD PUSH2 0x3BD JUMP JUMPDEST PUSH2 0x419 PUSH2 0x414 CALLDATASIZE PUSH1 0x4 PUSH2 0x3FE0 JUMP JUMPDEST PUSH2 0x9C4 JUMP JUMPDEST STOP JUMPDEST PUSH2 0x425 PUSH2 0x132 SLOAD DUP2 JUMP JUMPDEST PUSH1 0x40 MLOAD SWAP1 DUP2 MSTORE PUSH1 0x20 ADD PUSH2 0x3BD JUMP JUMPDEST PUSH2 0x425 PUSH3 0x93A80 DUP2 JUMP JUMPDEST PUSH2 0x425 PUSH2 0x130 SLOAD DUP2 JUMP JUMPDEST PUSH2 0x419 PUSH2 0x455 CALLDATASIZE PUSH1 0x4 PUSH2 0x400A JUMP JUMPDEST POP POP POP JUMP JUMPDEST PUSH2 0x425 PUSH2 0xAEB JUMP JUMPDEST PUSH2 0x425 PUSH2 0x470 CALLDATASIZE PUSH1 0x4 PUSH2 0x3FB0 JUMP JUMPDEST PUSH2 0xBB7 JUMP JUMPDEST PUSH2 0x425 PUSH2 0x483 CALLDATASIZE PUSH1 0x4 PUSH2 0x3FE0 JUMP JUMPDEST PUSH2 0xBD1 JUMP JUMPDEST PUSH2 0x419 PUSH2 0x496 CALLDATASIZE PUSH1 0x4 PUSH2 0x4092 JUMP JUMPDEST PUSH2 0xBE8 JUMP JUMPDEST PUSH2 0x425 PUSH2 0x4A9 CALLDATASIZE PUSH1 0x4 PUSH2 0x40D4 JUMP JUMPDEST PUSH2 0x13F PUSH1 0x20 MSTORE PUSH1 0x0 SWAP1 DUP2 MSTORE PUSH1 0x40 SWAP1 KECCAK256 SLOAD DUP2 JUMP JUMPDEST PUSH2 0x425 PUSH2 0x136 SLOAD DUP2 JUMP JUMPDEST PUSH2 0x419 PUSH2 0x4D4 CALLDATASIZE PUSH1 0x4 PUSH2 0x400A JUMP JUMPDEST PUSH2 0xC30 JUMP JUMPDEST PUSH2 0x419 PUSH2 0x4E7 CALLDATASIZE PUSH1 0x4 PUSH2 0x40EF JUMP JUMPDEST PUSH2 0xC4B JUMP JUMPDEST PUSH2 0x4FF PUSH2 0x4FA CALLDATASIZE PUSH1 0x4 PUSH2 0x4092 JUMP JUMPDEST PUSH2 0xF1F JUMP JUMPDEST PUSH1 0x40 MLOAD PUSH2 0x3BD SWAP3 SWAP2 SWAP1 PUSH2 0x415D JUMP JUMPDEST PUSH2 0x425 PUSH2 0x51B CALLDATASIZE PUSH1 0x4 PUSH2 0x3FB0 JUMP JUMPDEST PUSH2 0xFDF JUMP JUMPDEST PUSH2 0x533 PUSH2 0x52E CALLDATASIZE PUSH1 0x4 PUSH2 0x3FB0 JUMP JUMPDEST PUSH2 0x1050 JUMP JUMPDEST PUSH1 0x40 MLOAD PUSH2 0x3BD SWAP2 SWAP1 PUSH2 0x41F9 JUMP JUMPDEST PUSH2 0x425 PUSH2 0x131 SLOAD DUP2 JUMP JUMPDEST PUSH2 0x425 PUSH2 0x12E SLOAD DUP2 JUMP JUMPDEST PUSH2 0x425 PUSH2 0x562 CALLDATASIZE PUSH1 0x4 PUSH2 0x3FB0 JUMP JUMPDEST PUSH2 0x10BF JUMP JUMPDEST PUSH2 0x419 PUSH2 0x575 CALLDATASIZE PUSH1 0x4 PUSH2 0x3FB0 JUMP JUMPDEST PUSH2 0x1107 JUMP JUMPDEST PUSH2 0x3EE PUSH2 0x588 CALLDATASIZE PUSH1 0x4 PUSH2 0x3FB0 JUMP JUMPDEST PUSH2 0x130F JUMP JUMPDEST PUSH2 0x425 PUSH2 0x59B CALLDATASIZE PUSH1 0x4 PUSH2 0x3FB0 JUMP JUMPDEST PUSH2 0x1374 JUMP JUMPDEST PUSH2 0x5B3 PUSH2 0x5AE CALLDATASIZE PUSH1 0x4 PUSH2 0x4208 JUMP JUMPDEST PUSH2 0x139A JUMP JUMPDEST PUSH1 0x40 MLOAD PUSH2 0x3BD SWAP2 SWAP1 PUSH2 0x4254 JUMP JUMPDEST PUSH2 0x419 PUSH2 0x5CE CALLDATASIZE PUSH1 0x4 PUSH2 0x4092 JUMP JUMPDEST PUSH2 0x13E3 JUMP JUMPDEST PUSH2 0x425 PUSH2 0x5E1 CALLDATASIZE PUSH1 0x4 PUSH2 0x40D4 JUMP JUMPDEST PUSH2 0x15F8 JUMP JUMPDEST PUSH2 0x419 PUSH2 0x1692 JUMP JUMPDEST PUSH2 0x419 PUSH2 0x5FC CALLDATASIZE PUSH1 0x4 PUSH2 0x4267 JUMP JUMPDEST PUSH2 0x169C JUMP JUMPDEST PUSH2 0x419 PUSH2 0x16BD JUMP JUMPDEST PUSH2 0x425 PUSH2 0x135 SLOAD DUP2 JUMP JUMPDEST PUSH2 0x425 PUSH2 0x1748 JUMP JUMPDEST PUSH2 0x425 PUSH8 0xDE0B6B3A7640000 DUP2 JUMP JUMPDEST PUSH1 0xC9 SLOAD PUSH1 0x1 PUSH1 0x1 PUSH1 0xA0 SHL SUB AND PUSH2 0x3EE JUMP JUMPDEST PUSH2 0x64E PUSH2 0x649 CALLDATASIZE PUSH1 0x4 PUSH2 0x4092 JUMP JUMPDEST PUSH2 0x175C JUMP JUMPDEST PUSH1 0x40 MLOAD PUSH2 0x3BD SWAP2 SWAP1 PUSH2 0x4289 JUMP JUMPDEST PUSH2 0x3CE PUSH2 0x1876 JUMP JUMPDEST PUSH2 0x425 PUSH2 0x137 SLOAD DUP2 JUMP JUMPDEST PUSH2 0x425 PUSH2 0x67B CALLDATASIZE PUSH1 0x4 PUSH2 0x3FB0 JUMP JUMPDEST PUSH2 0x1885 JUMP JUMPDEST PUSH2 0x425 PUSH2 0x68E CALLDATASIZE PUSH1 0x4 PUSH2 0x3FB0 JUMP JUMPDEST PUSH2 0x18AB JUMP JUMPDEST PUSH2 0x425 PUSH2 0x6A1 CALLDATASIZE PUSH1 0x4 PUSH2 0x3FB0 JUMP JUMPDEST PUSH2 0x13B PUSH1 0x20 MSTORE PUSH1 0x0 SWAP1 DUP2 MSTORE PUSH1 0x40 SWAP1 KECCAK256 SLOAD DUP2 JUMP JUMPDEST PUSH2 0x419 PUSH2 0x6C2 CALLDATASIZE PUSH1 0x4 PUSH2 0x42E6 JUMP JUMPDEST POP POP JUMP JUMPDEST PUSH2 0x425 PUSH2 0x18D1 JUMP JUMPDEST PUSH2 0x425 PUSH2 0x6DC CALLDATASIZE PUSH1 0x4 PUSH2 0x3FB0 JUMP JUMPDEST PUSH2 0x18DB JUMP JUMPDEST PUSH2 0x419 PUSH2 0x6EF CALLDATASIZE PUSH1 0x4 PUSH2 0x4333 JUMP JUMPDEST PUSH2 0x18E8 JUMP JUMPDEST PUSH2 0x3CE PUSH2 0x702 CALLDATASIZE PUSH1 0x4 PUSH2 0x3FB0 JUMP JUMPDEST PUSH2 0x1976 JUMP JUMPDEST PUSH2 0x425 PUSH2 0x133 SLOAD DUP2 JUMP JUMPDEST PUSH2 0x425 PUSH2 0x71F CALLDATASIZE PUSH1 0x4 PUSH2 0x3FB0 JUMP JUMPDEST PUSH2 0x13A PUSH1 0x20 MSTORE PUSH1 0x0 SWAP1 DUP2 MSTORE PUSH1 0x40 SWAP1 KECCAK256 SLOAD DUP2 JUMP JUMPDEST PUSH2 0x425 PUSH2 0x12F SLOAD DUP2 JUMP JUMPDEST PUSH2 0x419 PUSH2 0x74A CALLDATASIZE PUSH1 0x4 PUSH2 0x4267 JUMP JUMPDEST PUSH2 0x19E9 JUMP JUMPDEST PUSH2 0x425 PUSH2 0x75D CALLDATASIZE PUSH1 0x4 PUSH2 0x3FB0 JUMP JUMPDEST PUSH2 0x19FB JUMP JUMPDEST PUSH2 0x138 SLOAD PUSH2 0x3EE SWAP1 PUSH1 0x1 PUSH1 0x1 PUSH1 0xA0 SHL SUB AND DUP2 JUMP JUMPDEST PUSH1 0xFB SLOAD PUSH1 0x1 PUSH1 0x1 PUSH1 0xA0 SHL SUB AND PUSH2 0x3EE JUMP JUMPDEST PUSH2 0x3B1 PUSH2 0x795 CALLDATASIZE PUSH1 0x4 PUSH2 0x40EF JUMP JUMPDEST PUSH1 0x1 PUSH1 0x1 PUSH1 0xA0 SHL SUB SWAP2 DUP3 AND PUSH1 0x0 SWAP1 DUP2 MSTORE PUSH1 0x9C PUSH1 0x20 SWAP1 DUP2 MSTORE PUSH1 0x40 DUP1 DUP4 KECCAK256 SWAP4 SWAP1 SWAP5 AND DUP3 MSTORE SWAP2 SWAP1 SWAP2 MSTORE KECCAK256 SLOAD PUSH1 0xFF AND SWAP1 JUMP JUMPDEST PUSH2 0x425 PUSH2 0x134 SLOAD DUP2 JUMP JUMPDEST PUSH2 0x7E0 PUSH2 0x7DB CALLDATASIZE PUSH1 0x4 PUSH2 0x4267 JUMP JUMPDEST PUSH2 0x1A43 JUMP JUMPDEST PUSH1 0x40 DUP1 MLOAD SWAP3 DUP4 MSTORE PUSH1 0x20 DUP4 ADD SWAP2 SWAP1 SWAP2 MSTORE ADD PUSH2 0x3BD JUMP JUMPDEST PUSH2 0x419 PUSH2 0x803 CALLDATASIZE PUSH1 0x4 PUSH2 0x40D4 JUMP JUMPDEST PUSH2 0x1B95 JUMP JUMPDEST PUSH2 0x139 SLOAD PUSH2 0x3EE SWAP1 PUSH1 0x1 PUSH1 0x1 PUSH1 0xA0 SHL SUB AND DUP2 JUMP JUMPDEST PUSH2 0x425 PUSH2 0x12D SLOAD DUP2 JUMP JUMPDEST PUSH1 0x0 PUSH32 0xFFFFFFFF00000000000000000000000000000000000000000000000000000000 DUP3 AND PUSH32 0x80AC58CD00000000000000000000000000000000000000000000000000000000 EQ DUP1 PUSH2 0x8B9 JUMPI POP PUSH32 0xFFFFFFFF00000000000000000000000000000000000000000000000000000000 DUP3 AND PUSH32 0x5B5E139F00000000000000000000000000000000000000000000000000000000 EQ JUMPDEST DUP1 PUSH2 0x905 JUMPI POP PUSH32 0x1FFC9A700000000000000000000000000000000000000000000000000000000 PUSH32 0xFFFFFFFF00000000000000000000000000000000000000000000000000000000 DUP4 AND EQ JUMPDEST SWAP3 SWAP2 POP POP JUMP JUMPDEST PUSH1 0x60 PUSH1 0x97 DUP1 SLOAD PUSH2 0x91A SWAP1 PUSH2 0x440F JUMP JUMPDEST DUP1 PUSH1 0x1F ADD PUSH1 0x20 DUP1 SWAP2 DIV MUL PUSH1 0x20 ADD PUSH1 0x40 MLOAD SWAP1 DUP2 ADD PUSH1 0x40 MSTORE DUP1 SWAP3 SWAP2 SWAP1 DUP2 DUP2 MSTORE PUSH1 0x20 ADD DUP3 DUP1 SLOAD PUSH2 0x946 SWAP1 PUSH2 0x440F JUMP JUMPDEST DUP1 ISZERO PUSH2 0x993 JUMPI DUP1 PUSH1 0x1F LT PUSH2 0x968 JUMPI PUSH2 0x100 DUP1 DUP4 SLOAD DIV MUL DUP4 MSTORE SWAP2 PUSH1 0x20 ADD SWAP2 PUSH2 0x993 JUMP JUMPDEST DUP3 ADD SWAP2 SWAP1 PUSH1 0x0 MSTORE PUSH1 0x20 PUSH1 0x0 KECCAK256 SWAP1 JUMPDEST DUP2 SLOAD DUP2 MSTORE SWAP1 PUSH1 0x1 ADD SWAP1 PUSH1 0x20 ADD DUP1 DUP4 GT PUSH2 0x976 JUMPI DUP3 SWAP1 SUB PUSH1 0x1F AND DUP3 ADD SWAP2 JUMPDEST POP POP POP POP POP SWAP1 POP SWAP1 JUMP JUMPDEST PUSH1 0x0 PUSH2 0x9A8 DUP3 PUSH2 0x1C13 JUMP JUMPDEST POP PUSH1 0x0 SWAP1 DUP2 MSTORE PUSH1 0x9B PUSH1 0x20 MSTORE PUSH1 0x40 SWAP1 KECCAK256 SLOAD PUSH1 0x1 PUSH1 0x1 PUSH1 0xA0 SHL SUB AND SWAP1 JUMP JUMPDEST PUSH1 0x0 PUSH2 0x9CF DUP3 PUSH2 0x130F JUMP JUMPDEST SWAP1 POP DUP1 PUSH1 0x1 PUSH1 0x1 PUSH1 0xA0 SHL SUB AND DUP4 PUSH1 0x1 PUSH1 0x1 PUSH1 0xA0 SHL SUB AND SUB PUSH2 0xA5D JUMPI PUSH1 0x40 MLOAD PUSH3 0x461BCD PUSH1 0xE5 SHL DUP2 MSTORE PUSH1 0x20 PUSH1 0x4 DUP3 ADD MSTORE PUSH1 0x21 PUSH1 0x24 DUP3 ADD MSTORE PUSH32 0x4552433732313A20617070726F76616C20746F2063757272656E74206F776E65 PUSH1 0x44 DUP3 ADD MSTORE PUSH32 0x7200000000000000000000000000000000000000000000000000000000000000 PUSH1 0x64 DUP3 ADD MSTORE PUSH1 0x84 ADD JUMPDEST PUSH1 0x40 MLOAD DUP1 SWAP2 SUB SWAP1 REVERT JUMPDEST CALLER PUSH1 0x1 PUSH1 0x1 PUSH1 0xA0 SHL SUB DUP3 AND EQ DUP1 PUSH2 0xA79 JUMPI POP PUSH2 0xA79 DUP2 CALLER PUSH2 0x795 JUMP JUMPDEST PUSH2 0x455 JUMPI PUSH1 0x40 MLOAD PUSH3 0x461BCD PUSH1 0xE5 SHL DUP2 MSTORE PUSH1 0x20 PUSH1 0x4 DUP3 ADD MSTORE PUSH1 0x3D PUSH1 0x24 DUP3 ADD MSTORE PUSH32 0x4552433732313A20617070726F76652063616C6C6572206973206E6F7420746F PUSH1 0x44 DUP3 ADD MSTORE PUSH32 0x6B656E206F776E6572206F7220617070726F76656420666F7220616C6C000000 PUSH1 0x64 DUP3 ADD MSTORE PUSH1 0x84 ADD PUSH2 0xA54 JUMP JUMPDEST PUSH1 0x0 PUSH2 0x137 SLOAD PUSH1 0x0 SUB PUSH2 0xB00 JUMPI POP PUSH2 0x136 SLOAD SWAP1 JUMP JUMPDEST PUSH1 0x0 PUSH2 0x137 SLOAD GT PUSH2 0xB53 JUMPI PUSH1 0x40 MLOAD PUSH3 0x461BCD PUSH1 0xE5 SHL DUP2 MSTORE PUSH1 0x20 PUSH1 0x4 DUP3 ADD MSTORE PUSH1 0x10 PUSH1 0x24 DUP3 ADD MSTORE PUSH32 0x496E636F72726563742077656967687400000000000000000000000000000000 PUSH1 0x44 DUP3 ADD MSTORE PUSH1 0x64 ADD PUSH2 0xA54 JUMP JUMPDEST PUSH1 0x0 PUSH2 0x133 SLOAD PUSH2 0xB61 PUSH2 0x1748 JUMP JUMPDEST PUSH2 0xB6B SWAP2 SWAP1 PUSH2 0x445F JUMP JUMPDEST SWAP1 POP PUSH2 0x137 SLOAD PUSH2 0x135 SLOAD DUP3 PUSH2 0xB80 SWAP2 SWAP1 PUSH2 0x4472 JUMP JUMPDEST PUSH2 0xB99 SWAP1 PUSH15 0xC097CE7BC90715B34B9F1000000000 PUSH2 0x4472 JUMP JUMPDEST PUSH2 0xBA3 SWAP2 SWAP1 PUSH2 0x4489 JUMP JUMPDEST PUSH2 0x136 SLOAD PUSH2 0xBB1 SWAP2 SWAP1 PUSH2 0x44AB JUMP JUMPDEST SWAP2 POP POP SWAP1 JUMP JUMPDEST PUSH1 0x0 PUSH2 0xBC2 DUP3 PUSH2 0x1C77 JUMP JUMPDEST SWAP1 POP PUSH2 0xBCC PUSH2 0x1F3E JUMP JUMPDEST SWAP2 SWAP1 POP JUMP JUMPDEST PUSH1 0x0 PUSH2 0xBDE CALLER DUP5 DUP5 PUSH2 0x1F8F JUMP JUMPDEST SWAP1 POP PUSH2 0x905 PUSH2 0x1F3E JUMP JUMPDEST DUP1 PUSH1 0x0 JUMPDEST DUP2 DUP2 LT ISZERO PUSH2 0xC27 JUMPI PUSH2 0xC15 DUP5 DUP5 DUP4 DUP2 DUP2 LT PUSH2 0xC09 JUMPI PUSH2 0xC09 PUSH2 0x44BE JUMP JUMPDEST SWAP1 POP PUSH1 0x20 MUL ADD CALLDATALOAD PUSH2 0x2148 JUMP JUMPDEST DUP1 PUSH2 0xC1F DUP2 PUSH2 0x44D4 JUMP JUMPDEST SWAP2 POP POP PUSH2 0xBEC JUMP JUMPDEST POP PUSH2 0x455 PUSH2 0x1F3E JUMP JUMPDEST PUSH2 0x455 DUP4 DUP4 DUP4 PUSH1 0x40 MLOAD DUP1 PUSH1 0x20 ADD PUSH1 0x40 MSTORE DUP1 PUSH1 0x0 DUP2 MSTORE POP PUSH2 0x18E8 JUMP JUMPDEST PUSH1 0x0 SLOAD PUSH2 0x100 SWAP1 DIV PUSH1 0xFF AND ISZERO DUP1 DUP1 ISZERO PUSH2 0xC6B JUMPI POP PUSH1 0x0 SLOAD PUSH1 0x1 PUSH1 0xFF SWAP1 SWAP2 AND LT JUMPDEST DUP1 PUSH2 0xC85 JUMPI POP ADDRESS EXTCODESIZE ISZERO DUP1 ISZERO PUSH2 0xC85 JUMPI POP PUSH1 0x0 SLOAD PUSH1 0xFF AND PUSH1 0x1 EQ JUMPDEST PUSH2 0xCF7 JUMPI PUSH1 0x40 MLOAD PUSH3 0x461BCD PUSH1 0xE5 SHL DUP2 MSTORE PUSH1 0x20 PUSH1 0x4 DUP3 ADD MSTORE PUSH1 0x2E PUSH1 0x24 DUP3 ADD MSTORE PUSH32 0x496E697469616C697A61626C653A20636F6E747261637420697320616C726561 PUSH1 0x44 DUP3 ADD MSTORE PUSH32 0x647920696E697469616C697A6564000000000000000000000000000000000000 PUSH1 0x64 DUP3 ADD MSTORE PUSH1 0x84 ADD PUSH2 0xA54 JUMP JUMPDEST PUSH1 0x0 DUP1 SLOAD PUSH32 0xFFFFFFFFFFFFFFFFFFFFFFFFFFFFFFFFFFFFFFFFFFFFFFFFFFFFFFFFFFFFFF00 AND PUSH1 0x1 OR SWAP1 SSTORE DUP1 ISZERO PUSH2 0xD38 JUMPI PUSH1 0x0 DUP1 SLOAD PUSH2 0xFF00 NOT AND PUSH2 0x100 OR SWAP1 SSTORE JUMPDEST PUSH2 0xD40 PUSH2 0x220E JUMP JUMPDEST PUSH2 0xDB4 PUSH1 0x40 MLOAD DUP1 PUSH1 0x40 ADD PUSH1 0x40 MSTORE DUP1 PUSH1 0xB DUP2 MSTORE PUSH1 0x20 ADD PUSH32 0x5374616B656420494E5458000000000000000000000000000000000000000000 DUP2 MSTORE POP PUSH1 0x40 MLOAD DUP1 PUSH1 0x40 ADD PUSH1 0x40 MSTORE DUP1 PUSH1 0x5 DUP2 MSTORE PUSH1 0x20 ADD PUSH32 0x58494E5458000000000000000000000000000000000000000000000000000000 DUP2 MSTORE POP PUSH2 0x2281 JUMP JUMPDEST PUSH2 0xDBC PUSH2 0x22F6 JUMP JUMPDEST PUSH1 0x1 PUSH1 0x1 PUSH1 0xA0 SHL SUB DUP4 AND PUSH2 0xE12 JUMPI PUSH1 0x40 MLOAD PUSH3 0x461BCD PUSH1 0xE5 SHL DUP2 MSTORE PUSH1 0x20 PUSH1 0x4 DUP3 ADD MSTORE PUSH1 0x14 PUSH1 0x24 DUP3 ADD MSTORE PUSH32 0x43616E2774207573652030782061646472657373000000000000000000000000 PUSH1 0x44 DUP3 ADD MSTORE PUSH1 0x64 ADD PUSH2 0xA54 JUMP JUMPDEST PUSH1 0x1 PUSH1 0x1 PUSH1 0xA0 SHL SUB DUP3 AND PUSH2 0xE68 JUMPI PUSH1 0x40 MLOAD PUSH3 0x461BCD PUSH1 0xE5 SHL DUP2 MSTORE PUSH1 0x20 PUSH1 0x4 DUP3 ADD MSTORE PUSH1 0x14 PUSH1 0x24 DUP3 ADD MSTORE PUSH32 0x43616E2774207573652030782061646472657373000000000000000000000000 PUSH1 0x44 DUP3 ADD MSTORE PUSH1 0x64 ADD PUSH2 0xA54 JUMP JUMPDEST PUSH2 0x138 DUP1 SLOAD PUSH1 0x1 PUSH1 0x1 PUSH1 0xA0 SHL SUB DUP1 DUP7 AND PUSH20 0xFFFFFFFFFFFFFFFFFFFFFFFFFFFFFFFFFFFFFFFF NOT SWAP3 DUP4 AND OR SWAP1 SWAP3 SSTORE PUSH2 0x139 DUP1 SLOAD SWAP3 DUP6 AND SWAP3 SWAP1 SWAP2 AND SWAP2 SWAP1 SWAP2 OR SWAP1 SSTORE PUSH3 0x93A800 PUSH2 0x12F SSTORE PUSH8 0x22B1C8C1227A0000 PUSH2 0x130 SSTORE PUSH8 0x3782DACE9D90000 PUSH2 0x131 SSTORE PUSH7 0x11C37937E08000 PUSH2 0x132 SSTORE DUP1 ISZERO PUSH2 0x455 JUMPI PUSH1 0x0 DUP1 SLOAD PUSH2 0xFF00 NOT AND SWAP1 SSTORE PUSH1 0x40 MLOAD PUSH1 0x1 DUP2 MSTORE PUSH32 0x7F26B83FF96E1F2B6A682F133852F6798A09C465DA95921460CEFB3847402498 SWAP1 PUSH1 0x20 ADD PUSH1 0x40 MLOAD DUP1 SWAP2 SUB SWAP1 LOG1 POP POP POP JUMP JUMPDEST PUSH1 0x0 PUSH1 0x60 DUP3 DUP1 PUSH8 0xFFFFFFFFFFFFFFFF DUP2 GT ISZERO PUSH2 0xF3D JUMPI PUSH2 0xF3D PUSH2 0x431D JUMP JUMPDEST PUSH1 0x40 MLOAD SWAP1 DUP1 DUP3 MSTORE DUP1 PUSH1 0x20 MUL PUSH1 0x20 ADD DUP3 ADD PUSH1 0x40 MSTORE DUP1 ISZERO PUSH2 0xF66 JUMPI DUP2 PUSH1 0x20 ADD PUSH1 0x20 DUP3 MUL DUP1 CALLDATASIZE DUP4 CALLDATACOPY ADD SWAP1 POP JUMPDEST POP SWAP2 POP PUSH1 0x0 JUMPDEST DUP2 DUP2 LT ISZERO PUSH2 0xFD6 JUMPI PUSH1 0x0 PUSH2 0xF97 DUP8 DUP8 DUP5 DUP2 DUP2 LT PUSH2 0xF8B JUMPI PUSH2 0xF8B PUSH2 0x44BE JUMP JUMPDEST SWAP1 POP PUSH1 0x20 MUL ADD CALLDATALOAD PUSH2 0xFDF JUMP JUMPDEST SWAP1 POP PUSH2 0xFA3 DUP2 DUP7 PUSH2 0x44AB JUMP JUMPDEST SWAP5 POP DUP1 DUP5 DUP4 DUP2 MLOAD DUP2 LT PUSH2 0xFB8 JUMPI PUSH2 0xFB8 PUSH2 0x44BE JUMP JUMPDEST PUSH1 0x20 SWAP1 DUP2 MUL SWAP2 SWAP1 SWAP2 ADD ADD MSTORE POP DUP1 PUSH2 0xFCE DUP2 PUSH2 0x44D4 JUMP JUMPDEST SWAP2 POP POP PUSH2 0xF6C JUMP JUMPDEST POP POP SWAP3 POP SWAP3 SWAP1 POP JUMP JUMPDEST PUSH1 0x0 DUP2 DUP2 MSTORE PUSH2 0x13C PUSH1 0x20 SWAP1 DUP2 MSTORE PUSH1 0x40 DUP1 DUP4 KECCAK256 SLOAD PUSH2 0x13E DUP4 MSTORE DUP2 DUP5 KECCAK256 SLOAD PUSH2 0x13D SWAP1 SWAP4 MSTORE SWAP1 DUP4 KECCAK256 SLOAD SWAP1 SWAP2 SWAP1 PUSH15 0xC097CE7BC90715B34B9F1000000000 SWAP1 PUSH2 0x1021 PUSH2 0xAEB JUMP JUMPDEST PUSH2 0x102B SWAP2 SWAP1 PUSH2 0x445F JUMP JUMPDEST PUSH2 0x1035 SWAP1 DUP5 PUSH2 0x4472 JUMP JUMPDEST PUSH2 0x103F SWAP2 SWAP1 PUSH2 0x4489 JUMP JUMPDEST PUSH2 0x1049 SWAP2 SWAP1 PUSH2 0x44AB JUMP JUMPDEST SWAP4 SWAP3 POP POP POP JUMP JUMPDEST PUSH2 0x10B6 PUSH1 0x40 MLOAD DUP1 PUSH2 0x160 ADD PUSH1 0x40 MSTORE DUP1 PUSH1 0x0 DUP2 MSTORE PUSH1 0x20 ADD PUSH1 0x0 PUSH1 0x1 PUSH1 0x1 PUSH1 0xA0 SHL SUB AND DUP2 MSTORE PUSH1 0x20 ADD PUSH1 0x0 DUP2 MSTORE PUSH1 0x20 ADD PUSH1 0x0 DUP2 MSTORE PUSH1 0x20 ADD PUSH1 0x0 DUP2 MSTORE PUSH1 0x20 ADD PUSH1 0x0 DUP2 MSTORE PUSH1 0x20 ADD PUSH1 0x0 DUP2 MSTORE PUSH1 0x20 ADD PUSH1 0x0 DUP2 MSTORE PUSH1 0x20 ADD PUSH1 0x0 DUP2 MSTORE PUSH1 0x20 ADD PUSH1 0x0 DUP2 MSTORE PUSH1 0x20 ADD PUSH1 0x0 DUP2 MSTORE POP SWAP1 JUMP JUMPDEST PUSH2 0x905 DUP3 PUSH2 0x2369 JUMP JUMPDEST PUSH1 0x0 DUP1 PUSH2 0x10CB DUP4 PUSH2 0x24CE JUMP JUMPDEST SWAP1 POP PUSH1 0x0 PUSH2 0x10D8 DUP5 PUSH2 0x24FC JUMP JUMPDEST SWAP1 POP DUP2 ISZERO PUSH2 0x1100 JUMPI PUSH8 0xDE0B6B3A7640000 PUSH2 0x10F3 DUP3 DUP5 PUSH2 0x4472 JUMP JUMPDEST PUSH2 0x10FD SWAP2 SWAP1 PUSH2 0x4489 JUMP JUMPDEST SWAP3 POP JUMPDEST POP POP SWAP2 SWAP1 POP JUMP JUMPDEST PUSH2 0x110F PUSH2 0x25A5 JUMP JUMPDEST PUSH2 0x1117 PUSH2 0x25FE JUMP JUMPDEST PUSH2 0x1121 PUSH1 0x0 PUSH2 0x2148 JUMP JUMPDEST PUSH2 0x113A CALLER PUSH2 0x139 SLOAD PUSH1 0x1 PUSH1 0x1 PUSH1 0xA0 SHL SUB AND SWAP1 ADDRESS DUP5 PUSH2 0x2658 JUMP JUMPDEST PUSH2 0x134 SLOAD TIMESTAMP LT PUSH2 0x115A JUMPI PUSH2 0x1151 PUSH3 0x93A80 DUP3 PUSH2 0x4489 JUMP JUMPDEST PUSH2 0x135 SSTORE PUSH2 0x119F JUMP JUMPDEST PUSH1 0x0 TIMESTAMP PUSH2 0x134 SLOAD PUSH2 0x116B SWAP2 SWAP1 PUSH2 0x445F JUMP JUMPDEST SWAP1 POP PUSH1 0x0 PUSH2 0x135 SLOAD DUP3 PUSH2 0x117E SWAP2 SWAP1 PUSH2 0x4472 JUMP JUMPDEST SWAP1 POP PUSH3 0x93A80 PUSH2 0x118E DUP3 DUP6 PUSH2 0x44AB JUMP JUMPDEST PUSH2 0x1198 SWAP2 SWAP1 PUSH2 0x4489 JUMP JUMPDEST PUSH2 0x135 SSTORE POP POP JUMPDEST PUSH2 0x139 SLOAD PUSH1 0x40 MLOAD PUSH32 0x70A0823100000000000000000000000000000000000000000000000000000000 DUP2 MSTORE ADDRESS PUSH1 0x4 DUP3 ADD MSTORE PUSH1 0x0 SWAP2 PUSH8 0xDE0B6B3A7640000 SWAP2 PUSH1 0x1 PUSH1 0x1 PUSH1 0xA0 SHL SUB SWAP1 SWAP2 AND SWAP1 PUSH4 0x70A08231 SWAP1 PUSH1 0x24 ADD PUSH1 0x20 PUSH1 0x40 MLOAD DUP1 DUP4 SUB DUP2 DUP7 GAS STATICCALL ISZERO DUP1 ISZERO PUSH2 0x120E JUMPI RETURNDATASIZE PUSH1 0x0 DUP1 RETURNDATACOPY RETURNDATASIZE PUSH1 0x0 REVERT JUMPDEST POP POP POP POP PUSH1 0x40 MLOAD RETURNDATASIZE PUSH1 0x1F NOT PUSH1 0x1F DUP3 ADD AND DUP3 ADD DUP1 PUSH1 0x40 MSTORE POP DUP2 ADD SWAP1 PUSH2 0x1232 SWAP2 SWAP1 PUSH2 0x44EE JUMP JUMPDEST PUSH2 0x123C SWAP2 SWAP1 PUSH2 0x4472 JUMP JUMPDEST SWAP1 POP PUSH2 0x124B PUSH3 0x93A80 DUP3 PUSH2 0x4489 JUMP JUMPDEST PUSH2 0x135 SLOAD GT ISZERO PUSH2 0x129D JUMPI PUSH1 0x40 MLOAD PUSH3 0x461BCD PUSH1 0xE5 SHL DUP2 MSTORE PUSH1 0x20 PUSH1 0x4 DUP3 ADD MSTORE PUSH1 0x18 PUSH1 0x24 DUP3 ADD MSTORE PUSH32 0x50726F76696465642072657761726420746F6F20686967680000000000000000 PUSH1 0x44 DUP3 ADD MSTORE PUSH1 0x64 ADD PUSH2 0xA54 JUMP JUMPDEST TIMESTAMP PUSH2 0x133 DUP2 SWAP1 SSTORE PUSH2 0x12B2 SWAP1 PUSH3 0x93A80 SWAP1 PUSH2 0x44AB JUMP JUMPDEST PUSH2 0x134 SSTORE PUSH32 0xDE88A922E0D3B88B24E9623EFEB464919C6BF9F66857A65E2BFCF2CE87A9433D PUSH2 0x12E9 PUSH8 0xDE0B6B3A7640000 DUP5 PUSH2 0x4489 JUMP JUMPDEST PUSH1 0x40 MLOAD SWAP1 DUP2 MSTORE PUSH1 0x20 ADD PUSH1 0x40 MLOAD DUP1 SWAP2 SUB SWAP1 LOG1 PUSH2 0x1302 PUSH2 0x1F3E JUMP JUMPDEST POP PUSH2 0x130C PUSH1 0x1 DUP1 SSTORE JUMP JUMPDEST POP JUMP JUMPDEST PUSH1 0x0 DUP2 DUP2 MSTORE PUSH1 0x99 PUSH1 0x20 MSTORE PUSH1 0x40 DUP2 KECCAK256 SLOAD PUSH1 0x1 PUSH1 0x1 PUSH1 0xA0 SHL SUB AND DUP1 PUSH2 0x905 JUMPI PUSH1 0x40 MLOAD PUSH3 0x461BCD PUSH1 0xE5 SHL DUP2 MSTORE PUSH1 0x20 PUSH1 0x4 DUP3 ADD MSTORE PUSH1 0x18 PUSH1 0x24 DUP3 ADD MSTORE PUSH32 0x4552433732313A20696E76616C696420746F6B656E2049440000000000000000 PUSH1 0x44 DUP3 ADD MSTORE PUSH1 0x64 ADD PUSH2 0xA54 JUMP JUMPDEST PUSH1 0x0 DUP2 DUP2 MSTORE PUSH1 0x99 PUSH1 0x20 MSTORE PUSH1 0x40 DUP2 KECCAK256 SLOAD PUSH1 0x1 PUSH1 0x1 PUSH1 0xA0 SHL SUB AND ISZERO PUSH2 0xBCC JUMPI PUSH2 0x905 DUP3 PUSH2 0x270F JUMP JUMPDEST PUSH1 0x60 PUSH2 0x13D9 DUP5 DUP5 DUP5 DUP1 DUP1 PUSH1 0x20 MUL PUSH1 0x20 ADD PUSH1 0x40 MLOAD SWAP1 DUP2 ADD PUSH1 0x40 MSTORE DUP1 SWAP4 SWAP3 SWAP2 SWAP1 DUP2 DUP2 MSTORE PUSH1 0x20 ADD DUP4 DUP4 PUSH1 0x20 MUL DUP1 DUP3 DUP5 CALLDATACOPY PUSH1 0x0 SWAP3 ADD SWAP2 SWAP1 SWAP2 MSTORE POP PUSH2 0x27AC SWAP3 POP POP POP JUMP JUMPDEST SWAP1 POP PUSH2 0x1049 PUSH2 0x1F3E JUMP JUMPDEST CALLER PUSH1 0x0 SWAP1 DUP2 MSTORE PUSH2 0x13F PUSH1 0x20 MSTORE PUSH1 0x40 DUP2 KECCAK256 SLOAD DUP3 SWAP2 SWAP1 DUP2 SWAP1 DUP2 JUMPDEST DUP5 DUP2 LT ISZERO PUSH2 0x1561 JUMPI DUP7 DUP7 DUP3 DUP2 DUP2 LT PUSH2 0x1415 JUMPI PUSH2 0x1415 PUSH2 0x44BE JUMP JUMPDEST SWAP1 POP PUSH1 0x20 MUL ADD CALLDATALOAD SWAP4 POP PUSH2 0x143F DUP5 PUSH1 0x0 SWAP1 DUP2 MSTORE PUSH1 0x99 PUSH1 0x20 MSTORE PUSH1 0x40 SWAP1 KECCAK256 SLOAD PUSH1 0x1 PUSH1 0x1 PUSH1 0xA0 SHL SUB AND ISZERO ISZERO SWAP1 JUMP JUMPDEST PUSH2 0x148B JUMPI PUSH1 0x40 MLOAD PUSH3 0x461BCD PUSH1 0xE5 SHL DUP2 MSTORE PUSH1 0x20 PUSH1 0x4 DUP3 ADD MSTORE PUSH1 0x1C PUSH1 0x24 DUP3 ADD MSTORE PUSH32 0x5468697320706F736974696F6E20646F65736E27742065786973742E00000000 PUSH1 0x44 DUP3 ADD MSTORE PUSH1 0x64 ADD PUSH2 0xA54 JUMP JUMPDEST PUSH1 0x0 DUP5 DUP2 MSTORE PUSH1 0x99 PUSH1 0x20 MSTORE PUSH1 0x40 SWAP1 KECCAK256 SLOAD PUSH1 0x1 PUSH1 0x1 PUSH1 0xA0 SHL SUB AND SWAP3 POP CALLER DUP4 EQ PUSH2 0x151A JUMPI PUSH1 0x40 MLOAD PUSH3 0x461BCD PUSH1 0xE5 SHL DUP2 MSTORE PUSH1 0x20 PUSH1 0x4 DUP3 ADD MSTORE PUSH1 0x27 PUSH1 0x24 DUP3 ADD MSTORE PUSH32 0x596F7520617265206E6F7420746865206F776E6572206F66207468697320706F PUSH1 0x44 DUP3 ADD MSTORE PUSH32 0x736974696F6E2E00000000000000000000000000000000000000000000000000 PUSH1 0x64 DUP3 ADD MSTORE PUSH1 0x84 ADD PUSH2 0xA54 JUMP JUMPDEST PUSH2 0x1523 DUP5 PUSH2 0x2148 JUMP JUMPDEST PUSH1 0x0 DUP5 DUP2 MSTORE PUSH2 0x13E PUSH1 0x20 MSTORE PUSH1 0x40 SWAP1 KECCAK256 SLOAD PUSH2 0x153D SWAP1 DUP4 PUSH2 0x44AB JUMP JUMPDEST PUSH1 0x0 DUP6 DUP2 MSTORE PUSH2 0x13E PUSH1 0x20 MSTORE PUSH1 0x40 DUP2 KECCAK256 SSTORE SWAP2 POP DUP1 PUSH2 0x1559 DUP2 PUSH2 0x44D4 JUMP JUMPDEST SWAP2 POP POP PUSH2 0x13FB JUMP JUMPDEST POP CALLER PUSH1 0x0 DUP2 DUP2 MSTORE PUSH2 0x13F PUSH1 0x20 MSTORE PUSH1 0x40 DUP2 KECCAK256 SSTORE PUSH2 0x139 SLOAD PUSH2 0x158D SWAP2 PUSH1 0x1 PUSH1 0x1 PUSH1 0xA0 SHL SUB SWAP1 SWAP2 AND SWAP1 DUP4 PUSH2 0x2D00 JUMP JUMPDEST DUP6 DUP6 PUSH1 0x40 MLOAD PUSH2 0x159D SWAP3 SWAP2 SWAP1 PUSH2 0x4507 JUMP JUMPDEST PUSH1 0x40 MLOAD DUP1 SWAP2 SUB SWAP1 KECCAK256 DUP3 PUSH1 0x1 PUSH1 0x1 PUSH1 0xA0 SHL SUB AND PUSH32 0x916F43DCE61AA4C4D8761C25DDCACFE178EA96A18F68D2775354BBC06BE75AAA DUP4 PUSH1 0x40 MLOAD PUSH2 0x15E0 SWAP2 DUP2 MSTORE PUSH1 0x20 ADD SWAP1 JUMP JUMPDEST PUSH1 0x40 MLOAD DUP1 SWAP2 SUB SWAP1 LOG3 PUSH2 0x15F0 PUSH2 0x1F3E JUMP JUMPDEST POP POP POP POP POP POP JUMP JUMPDEST PUSH1 0x0 PUSH1 0x1 PUSH1 0x1 PUSH1 0xA0 SHL SUB DUP3 AND PUSH2 0x1676 JUMPI PUSH1 0x40 MLOAD PUSH3 0x461BCD PUSH1 0xE5 SHL DUP2 MSTORE PUSH1 0x20 PUSH1 0x4 DUP3 ADD MSTORE PUSH1 0x29 PUSH1 0x24 DUP3 ADD MSTORE PUSH32 0x4552433732313A2061646472657373207A65726F206973206E6F742061207661 PUSH1 0x44 DUP3 ADD MSTORE PUSH32 0x6C6964206F776E65720000000000000000000000000000000000000000000000 PUSH1 0x64 DUP3 ADD MSTORE PUSH1 0x84 ADD PUSH2 0xA54 JUMP JUMPDEST POP PUSH1 0x1 PUSH1 0x1 PUSH1 0xA0 SHL SUB AND PUSH1 0x0 SWAP1 DUP2 MSTORE PUSH1 0x9A PUSH1 0x20 MSTORE PUSH1 0x40 SWAP1 KECCAK256 SLOAD SWAP1 JUMP JUMPDEST PUSH2 0x169A PUSH2 0x25FE JUMP JUMPDEST JUMP JUMPDEST PUSH1 0x0 PUSH2 0x16A9 CALLER CALLER DUP6 PUSH2 0x1F8F JUMP JUMPDEST SWAP1 POP PUSH2 0x16B5 DUP2 DUP4 PUSH2 0x2D49 JUMP JUMPDEST PUSH2 0x455 PUSH2 0x1F3E JUMP JUMPDEST PUSH1 0xFB SLOAD CALLER SWAP1 PUSH1 0x1 PUSH1 0x1 PUSH1 0xA0 SHL SUB AND DUP2 EQ PUSH2 0x173F JUMPI PUSH1 0x40 MLOAD PUSH3 0x461BCD PUSH1 0xE5 SHL DUP2 MSTORE PUSH1 0x20 PUSH1 0x4 DUP3 ADD MSTORE PUSH1 0x29 PUSH1 0x24 DUP3 ADD MSTORE PUSH32 0x4F776E61626C6532537465703A2063616C6C6572206973206E6F742074686520 PUSH1 0x44 DUP3 ADD MSTORE PUSH32 0x6E6577206F776E65720000000000000000000000000000000000000000000000 PUSH1 0x64 DUP3 ADD MSTORE PUSH1 0x84 ADD PUSH2 0xA54 JUMP JUMPDEST PUSH2 0x130C DUP2 PUSH2 0x3194 JUMP JUMPDEST PUSH1 0x0 PUSH2 0x1757 TIMESTAMP PUSH2 0x134 SLOAD PUSH2 0x31BA JUMP JUMPDEST SWAP1 POP SWAP1 JUMP JUMPDEST PUSH1 0x60 DUP2 DUP1 PUSH8 0xFFFFFFFFFFFFFFFF DUP2 GT ISZERO PUSH2 0x1778 JUMPI PUSH2 0x1778 PUSH2 0x431D JUMP JUMPDEST PUSH1 0x40 MLOAD SWAP1 DUP1 DUP3 MSTORE DUP1 PUSH1 0x20 MUL PUSH1 0x20 ADD DUP3 ADD PUSH1 0x40 MSTORE DUP1 ISZERO PUSH2 0x180F JUMPI DUP2 PUSH1 0x20 ADD JUMPDEST PUSH2 0x17FC PUSH1 0x40 MLOAD DUP1 PUSH2 0x160 ADD PUSH1 0x40 MSTORE DUP1 PUSH1 0x0 DUP2 MSTORE PUSH1 0x20 ADD PUSH1 0x0 PUSH1 0x1 PUSH1 0x1 PUSH1 0xA0 SHL SUB AND DUP2 MSTORE PUSH1 0x20 ADD PUSH1 0x0 DUP2 MSTORE PUSH1 0x20 ADD PUSH1 0x0 DUP2 MSTORE PUSH1 0x20 ADD PUSH1 0x0 DUP2 MSTORE PUSH1 0x20 ADD PUSH1 0x0 DUP2 MSTORE PUSH1 0x20 ADD PUSH1 0x0 DUP2 MSTORE PUSH1 0x20 ADD PUSH1 0x0 DUP2 MSTORE PUSH1 0x20 ADD PUSH1 0x0 DUP2 MSTORE PUSH1 0x20 ADD PUSH1 0x0 DUP2 MSTORE PUSH1 0x20 ADD PUSH1 0x0 DUP2 MSTORE POP SWAP1 JUMP JUMPDEST DUP2 MSTORE PUSH1 0x20 ADD SWAP1 PUSH1 0x1 SWAP1 SUB SWAP1 DUP2 PUSH2 0x1796 JUMPI SWAP1 POP JUMPDEST POP SWAP2 POP PUSH1 0x0 JUMPDEST DUP2 DUP2 LT ISZERO PUSH2 0x186E JUMPI PUSH2 0x183E DUP6 DUP6 DUP4 DUP2 DUP2 LT PUSH2 0x1832 JUMPI PUSH2 0x1832 PUSH2 0x44BE JUMP JUMPDEST SWAP1 POP PUSH1 0x20 MUL ADD CALLDATALOAD PUSH2 0x2369 JUMP JUMPDEST DUP4 DUP3 DUP2 MLOAD DUP2 LT PUSH2 0x1850 JUMPI PUSH2 0x1850 PUSH2 0x44BE JUMP JUMPDEST PUSH1 0x20 MUL PUSH1 0x20 ADD ADD DUP2 SWAP1 MSTORE POP DUP1 DUP1 PUSH2 0x1866 SWAP1 PUSH2 0x44D4 JUMP JUMPDEST SWAP2 POP POP PUSH2 0x1815 JUMP JUMPDEST POP POP SWAP3 SWAP2 POP POP JUMP JUMPDEST PUSH1 0x60 PUSH1 0x98 DUP1 SLOAD PUSH2 0x91A SWAP1 PUSH2 0x440F JUMP JUMPDEST PUSH1 0x0 DUP2 DUP2 MSTORE PUSH1 0x99 PUSH1 0x20 MSTORE PUSH1 0x40 DUP2 KECCAK256 SLOAD PUSH1 0x1 PUSH1 0x1 PUSH1 0xA0 SHL SUB AND ISZERO PUSH2 0xBCC JUMPI PUSH2 0x905 DUP3 PUSH2 0x24FC JUMP JUMPDEST PUSH1 0x0 DUP2 DUP2 MSTORE PUSH1 0x99 PUSH1 0x20 MSTORE PUSH1 0x40 DUP2 KECCAK256 SLOAD PUSH1 0x1 PUSH1 0x1 PUSH1 0xA0 SHL SUB AND ISZERO PUSH2 0xBCC JUMPI PUSH2 0x905 DUP3 PUSH2 0x24CE JUMP JUMPDEST PUSH1 0x0 PUSH2 0x1757 PUSH2 0x31D0 JUMP JUMPDEST PUSH1 0x0 PUSH2 0xBC2 CALLER CALLER DUP5 PUSH2 0x1F8F JUMP JUMPDEST PUSH2 0x18F2 CALLER DUP4 PUSH2 0x3213 JUMP JUMPDEST PUSH2 0x1964 JUMPI PUSH1 0x40 MLOAD PUSH3 0x461BCD PUSH1 0xE5 SHL DUP2 MSTORE PUSH1 0x20 PUSH1 0x4 DUP3 ADD MSTORE PUSH1 0x2D PUSH1 0x24 DUP3 ADD MSTORE PUSH32 0x4552433732313A2063616C6C6572206973206E6F7420746F6B656E206F776E65 PUSH1 0x44 DUP3 ADD MSTORE PUSH32 0x72206F7220617070726F76656400000000000000000000000000000000000000 PUSH1 0x64 DUP3 ADD MSTORE PUSH1 0x84 ADD PUSH2 0xA54 JUMP JUMPDEST PUSH2 0x1970 DUP5 DUP5 DUP5 DUP5 PUSH2 0x3292 JUMP JUMPDEST POP POP POP POP JUMP JUMPDEST PUSH1 0x60 PUSH2 0x1981 DUP3 PUSH2 0x1C13 JUMP JUMPDEST PUSH1 0x0 PUSH2 0x1998 PUSH1 0x40 DUP1 MLOAD PUSH1 0x20 DUP2 ADD SWAP1 SWAP2 MSTORE PUSH1 0x0 DUP2 MSTORE SWAP1 JUMP JUMPDEST SWAP1 POP PUSH1 0x0 DUP2 MLOAD GT PUSH2 0x19B8 JUMPI PUSH1 0x40 MLOAD DUP1 PUSH1 0x20 ADD PUSH1 0x40 MSTORE DUP1 PUSH1 0x0 DUP2 MSTORE POP PUSH2 0x1049 JUMP JUMPDEST DUP1 PUSH2 0x19C2 DUP5 PUSH2 0x331B JUMP JUMPDEST PUSH1 0x40 MLOAD PUSH1 0x20 ADD PUSH2 0x19D3 SWAP3 SWAP2 SWAP1 PUSH2 0x4549 JUMP JUMPDEST PUSH1 0x40 MLOAD PUSH1 0x20 DUP2 DUP4 SUB SUB DUP2 MSTORE SWAP1 PUSH1 0x40 MSTORE SWAP4 SWAP3 POP POP POP JUMP JUMPDEST PUSH2 0x19F3 DUP3 DUP3 PUSH2 0x2D49 JUMP JUMPDEST PUSH2 0x6C2 PUSH2 0x1F3E JUMP JUMPDEST PUSH1 0x0 DUP1 PUSH2 0x1A07 DUP4 PUSH2 0x24CE JUMP JUMPDEST SWAP1 POP PUSH1 0x0 PUSH2 0x1A14 DUP5 PUSH2 0x24FC JUMP JUMPDEST SWAP1 POP DUP2 ISZERO PUSH2 0x1100 JUMPI PUSH8 0xDE0B6B3A7640000 PUSH2 0x1A2F DUP3 DUP5 PUSH2 0x4472 JUMP JUMPDEST PUSH2 0x1A39 SWAP2 SWAP1 PUSH2 0x4489 JUMP JUMPDEST PUSH2 0x10FD SWAP1 DUP4 PUSH2 0x445F JUMP JUMPDEST PUSH1 0x0 DUP3 DUP2 MSTORE PUSH2 0x13B PUSH1 0x20 MSTORE PUSH1 0x40 DUP2 KECCAK256 SLOAD DUP2 SWAP1 DUP4 DUP2 GT PUSH2 0x1ACA JUMPI PUSH1 0x40 MLOAD PUSH3 0x461BCD PUSH1 0xE5 SHL DUP2 MSTORE PUSH1 0x20 PUSH1 0x4 DUP3 ADD MSTORE PUSH1 0x2E PUSH1 0x24 DUP3 ADD MSTORE PUSH32 0x596F752063616E2774207061727469616C6C79207769746864726177206D6F72 PUSH1 0x44 DUP3 ADD MSTORE PUSH32 0x65207468616E20796F75206F776E000000000000000000000000000000000000 PUSH1 0x64 DUP3 ADD MSTORE PUSH1 0x84 ADD PUSH2 0xA54 JUMP JUMPDEST PUSH1 0x40 DUP1 MLOAD PUSH1 0x2 DUP1 DUP3 MSTORE PUSH1 0x60 DUP3 ADD DUP4 MSTORE PUSH1 0x0 SWAP3 PUSH1 0x20 DUP4 ADD SWAP1 DUP1 CALLDATASIZE DUP4 CALLDATACOPY ADD SWAP1 POP POP SWAP1 POP DUP5 DUP2 PUSH1 0x0 DUP2 MLOAD DUP2 LT PUSH2 0x1AFF JUMPI PUSH2 0x1AFF PUSH2 0x44BE JUMP JUMPDEST PUSH1 0x20 SWAP1 DUP2 MUL SWAP2 SWAP1 SWAP2 ADD ADD MSTORE PUSH2 0x1B14 DUP6 DUP4 PUSH2 0x445F JUMP JUMPDEST DUP2 PUSH1 0x1 DUP2 MLOAD DUP2 LT PUSH2 0x1B27 JUMPI PUSH2 0x1B27 PUSH2 0x44BE JUMP JUMPDEST PUSH1 0x20 MUL PUSH1 0x20 ADD ADD DUP2 DUP2 MSTORE POP POP PUSH1 0x0 PUSH2 0x1B3F DUP8 DUP4 PUSH2 0x27AC JUMP JUMPDEST SWAP1 POP PUSH2 0x1B64 DUP2 PUSH1 0x0 DUP2 MLOAD DUP2 LT PUSH2 0x1B57 JUMPI PUSH2 0x1B57 PUSH2 0x44BE JUMP JUMPDEST PUSH1 0x20 MUL PUSH1 0x20 ADD ADD MLOAD PUSH2 0x1C77 JUMP JUMPDEST SWAP5 POP DUP1 PUSH1 0x1 DUP2 MLOAD DUP2 LT PUSH2 0x1B79 JUMPI PUSH2 0x1B79 PUSH2 0x44BE JUMP JUMPDEST PUSH1 0x20 MUL PUSH1 0x20 ADD ADD MLOAD SWAP4 POP PUSH2 0x1B8B PUSH2 0x1F3E JUMP JUMPDEST POP POP POP SWAP3 POP SWAP3 SWAP1 POP JUMP JUMPDEST PUSH2 0x1B9D PUSH2 0x25FE JUMP JUMPDEST PUSH1 0xFB DUP1 SLOAD PUSH1 0x1 PUSH1 0x1 PUSH1 0xA0 SHL SUB DUP4 AND PUSH20 0xFFFFFFFFFFFFFFFFFFFFFFFFFFFFFFFFFFFFFFFF NOT SWAP1 SWAP2 AND DUP2 OR SWAP1 SWAP2 SSTORE PUSH2 0x1BDB PUSH1 0xC9 SLOAD PUSH1 0x1 PUSH1 0x1 PUSH1 0xA0 SHL SUB AND SWAP1 JUMP JUMPDEST PUSH1 0x1 PUSH1 0x1 PUSH1 0xA0 SHL SUB AND PUSH32 0x38D16B8CAC22D99FC7C124B9CD0DE2D3FA1FAEF420BFE791D8C362D765E22700 PUSH1 0x40 MLOAD PUSH1 0x40 MLOAD DUP1 SWAP2 SUB SWAP1 LOG3 POP JUMP JUMPDEST PUSH1 0x0 DUP2 DUP2 MSTORE PUSH1 0x99 PUSH1 0x20 MSTORE PUSH1 0x40 SWAP1 KECCAK256 SLOAD PUSH1 0x1 PUSH1 0x1 PUSH1 0xA0 SHL SUB AND PUSH2 0x130C JUMPI PUSH1 0x40 MLOAD PUSH3 0x461BCD PUSH1 0xE5 SHL DUP2 MSTORE PUSH1 0x20 PUSH1 0x4 DUP3 ADD MSTORE PUSH1 0x18 PUSH1 0x24 DUP3 ADD MSTORE PUSH32 0x4552433732313A20696E76616C696420746F6B656E2049440000000000000000 PUSH1 0x44 DUP3 ADD MSTORE PUSH1 0x64 ADD PUSH2 0xA54 JUMP JUMPDEST PUSH1 0x0 PUSH2 0x1C81 PUSH2 0x25A5 JUMP JUMPDEST PUSH1 0x0 DUP3 DUP2 MSTORE PUSH1 0x99 PUSH1 0x20 MSTORE PUSH1 0x40 SWAP1 KECCAK256 SLOAD PUSH1 0x1 PUSH1 0x1 PUSH1 0xA0 SHL SUB AND PUSH2 0x1CE5 JUMPI PUSH1 0x40 MLOAD PUSH3 0x461BCD PUSH1 0xE5 SHL DUP2 MSTORE PUSH1 0x20 PUSH1 0x4 DUP3 ADD MSTORE PUSH1 0x1C PUSH1 0x24 DUP3 ADD MSTORE PUSH32 0x5468697320706F736974696F6E20646F65736E27742065786973742E00000000 PUSH1 0x44 DUP3 ADD MSTORE PUSH1 0x64 ADD PUSH2 0xA54 JUMP JUMPDEST PUSH1 0x0 DUP3 DUP2 MSTORE PUSH1 0x99 PUSH1 0x20 MSTORE PUSH1 0x40 SWAP1 KECCAK256 SLOAD PUSH1 0x1 PUSH1 0x1 PUSH1 0xA0 SHL SUB AND CALLER DUP2 EQ PUSH2 0x1D4C JUMPI PUSH1 0x40 MLOAD PUSH3 0x461BCD PUSH1 0xE5 SHL DUP2 MSTORE PUSH1 0x20 PUSH1 0x4 DUP3 ADD MSTORE PUSH1 0x13 PUSH1 0x24 DUP3 ADD MSTORE PUSH32 0x4E6F7420796F75722078494E5458204E46542E00000000000000000000000000 PUSH1 0x44 DUP3 ADD MSTORE PUSH1 0x64 ADD PUSH2 0xA54 JUMP JUMPDEST PUSH2 0x1D55 DUP4 PUSH2 0x2148 JUMP JUMPDEST PUSH1 0x0 DUP4 DUP2 MSTORE PUSH2 0x13B PUSH1 0x20 MSTORE PUSH1 0x40 DUP2 KECCAK256 SLOAD SWAP1 PUSH8 0xDE0B6B3A7640000 PUSH2 0x1D78 DUP7 PUSH2 0x270F JUMP JUMPDEST PUSH2 0x1D82 SWAP1 DUP5 PUSH2 0x4472 JUMP JUMPDEST PUSH2 0x1D8C SWAP2 SWAP1 PUSH2 0x4489 JUMP JUMPDEST SWAP1 POP PUSH1 0x0 PUSH2 0x1D98 PUSH2 0x31D0 JUMP JUMPDEST SWAP1 POP PUSH1 0x0 PUSH8 0xDE0B6B3A7640000 PUSH2 0x1DAF DUP4 DUP7 PUSH2 0x4472 JUMP JUMPDEST PUSH2 0x1DB9 SWAP2 SWAP1 PUSH2 0x4489 JUMP JUMPDEST SWAP1 POP PUSH1 0x0 PUSH8 0xDE0B6B3A7640000 PUSH2 0x1DCF DUP10 PUSH2 0x24FC JUMP JUMPDEST PUSH2 0x1DD9 SWAP1 DUP5 PUSH2 0x4472 JUMP JUMPDEST PUSH2 0x1DE3 SWAP2 SWAP1 PUSH2 0x4489 JUMP JUMPDEST SWAP1 POP PUSH2 0x1DEF DUP2 DUP4 PUSH2 0x445F JUMP JUMPDEST PUSH1 0x0 DUP10 DUP2 MSTORE PUSH2 0x13A PUSH1 0x20 SWAP1 DUP2 MSTORE PUSH1 0x40 DUP1 DUP4 KECCAK256 DUP4 SWAP1 SSTORE PUSH2 0x13B DUP3 MSTORE DUP1 DUP4 KECCAK256 DUP4 SWAP1 SSTORE PUSH2 0x13C DUP3 MSTORE DUP1 DUP4 KECCAK256 DUP4 SWAP1 SSTORE PUSH2 0x13D DUP3 MSTORE DUP1 DUP4 KECCAK256 DUP4 SWAP1 SSTORE PUSH2 0x13E SWAP1 SWAP2 MSTORE SWAP1 KECCAK256 SLOAD SWAP1 SWAP8 POP ISZERO PUSH2 0x1E74 JUMPI PUSH1 0x0 DUP9 DUP2 MSTORE PUSH2 0x13E PUSH1 0x20 SWAP1 DUP2 MSTORE PUSH1 0x40 DUP1 DUP4 KECCAK256 SLOAD PUSH1 0x1 PUSH1 0x1 PUSH1 0xA0 SHL SUB DUP11 AND DUP5 MSTORE PUSH2 0x13F SWAP1 SWAP3 MSTORE DUP3 KECCAK256 DUP1 SLOAD SWAP2 SWAP3 SWAP1 SWAP2 PUSH2 0x1E6E SWAP1 DUP5 SWAP1 PUSH2 0x44AB JUMP JUMPDEST SWAP1 SWAP2 SSTORE POP POP JUMPDEST PUSH1 0x0 DUP9 DUP2 MSTORE PUSH2 0x13E PUSH1 0x20 MSTORE PUSH1 0x40 DUP2 KECCAK256 SSTORE PUSH2 0x1E8D DUP9 PUSH2 0x33BB JUMP JUMPDEST DUP5 PUSH2 0x12E PUSH1 0x0 DUP3 DUP3 SLOAD PUSH2 0x1EA0 SWAP2 SWAP1 PUSH2 0x445F JUMP JUMPDEST SWAP3 POP POP DUP2 SWAP1 SSTORE POP DUP4 PUSH2 0x137 PUSH1 0x0 DUP3 DUP3 SLOAD PUSH2 0x1EBA SWAP2 SWAP1 PUSH2 0x445F JUMP JUMPDEST SWAP1 SWAP2 SSTORE POP POP PUSH2 0x138 SLOAD PUSH2 0x1ED7 SWAP1 PUSH1 0x1 PUSH1 0x1 PUSH1 0xA0 SHL SUB AND DUP8 DUP10 PUSH2 0x2D00 JUMP JUMPDEST PUSH2 0x12E SLOAD PUSH1 0x40 DUP1 MLOAD DUP8 DUP2 MSTORE PUSH1 0x20 DUP2 ADD DUP11 SWAP1 MSTORE DUP1 DUP3 ADD DUP5 SWAP1 MSTORE PUSH1 0x60 DUP2 ADD SWAP3 SWAP1 SWAP3 MSTORE MLOAD DUP10 SWAP2 PUSH1 0x1 PUSH1 0x1 PUSH1 0xA0 SHL SUB DUP10 AND SWAP2 PUSH32 0x44BD20A79E993BDCC7CBEDF54A3B4D19FB78490124B6B90D04FE3242EEA579E8 SWAP2 DUP2 SWAP1 SUB PUSH1 0x80 ADD SWAP1 LOG3 POP POP POP POP POP POP PUSH2 0xBCC PUSH1 0x1 DUP1 SSTORE JUMP JUMPDEST PUSH32 0xB7ED67A7A04C3AC1EC8C35B581007F013B24A305093B7FFC2DC2DFFD12CC4A6C PUSH2 0x1F67 PUSH2 0x345D JUMP JUMPDEST PUSH2 0x12E SLOAD PUSH2 0x137 SLOAD PUSH1 0x40 DUP1 MLOAD SWAP4 DUP5 MSTORE PUSH1 0x20 DUP5 ADD SWAP3 SWAP1 SWAP3 MSTORE SWAP1 DUP3 ADD MSTORE PUSH1 0x60 ADD PUSH1 0x40 MLOAD DUP1 SWAP2 SUB SWAP1 LOG1 JUMP JUMPDEST PUSH1 0x0 PUSH2 0x1F99 PUSH2 0x25A5 JUMP JUMPDEST PUSH1 0x0 DUP3 GT PUSH2 0x1FE9 JUMPI PUSH1 0x40 MLOAD PUSH3 0x461BCD PUSH1 0xE5 SHL DUP2 MSTORE PUSH1 0x20 PUSH1 0x4 DUP3 ADD MSTORE PUSH1 0x13 PUSH1 0x24 DUP3 ADD MSTORE PUSH32 0x43616E2774207374616B65203020696E74582E00000000000000000000000000 PUSH1 0x44 DUP3 ADD MSTORE PUSH1 0x64 ADD PUSH2 0xA54 JUMP JUMPDEST PUSH1 0x0 PUSH2 0x1FF3 PUSH2 0x31D0 JUMP JUMPDEST PUSH2 0x138 SLOAD SWAP1 SWAP2 POP PUSH2 0x200F SWAP1 PUSH1 0x1 PUSH1 0x1 PUSH1 0xA0 SHL SUB AND DUP7 ADDRESS DUP7 PUSH2 0x2658 JUMP JUMPDEST PUSH2 0x12D DUP1 SLOAD SWAP1 PUSH1 0x0 PUSH2 0x2020 DUP4 PUSH2 0x44D4 JUMP JUMPDEST SWAP2 SWAP1 POP SSTORE POP PUSH2 0x2032 DUP5 PUSH2 0x12D SLOAD PUSH2 0x34E4 JUMP JUMPDEST PUSH2 0x203E PUSH2 0x12D SLOAD PUSH2 0x2148 JUMP JUMPDEST PUSH1 0x0 DUP2 PUSH2 0x2053 PUSH8 0xDE0B6B3A7640000 DUP7 PUSH2 0x4472 JUMP JUMPDEST PUSH2 0x205D SWAP2 SWAP1 PUSH2 0x4489 JUMP JUMPDEST PUSH2 0x12D DUP1 SLOAD PUSH1 0x0 SWAP1 DUP2 MSTORE PUSH2 0x13A PUSH1 0x20 SWAP1 DUP2 MSTORE PUSH1 0x40 DUP1 DUP4 KECCAK256 TIMESTAMP SWAP1 SSTORE SWAP3 SLOAD DUP3 MSTORE PUSH2 0x13B SWAP1 MSTORE SWAP1 DUP2 KECCAK256 DUP3 SWAP1 SSTORE PUSH2 0x12E DUP1 SLOAD SWAP3 SWAP4 POP DUP4 SWAP3 SWAP1 SWAP2 SWAP1 PUSH2 0x209E SWAP1 DUP5 SWAP1 PUSH2 0x44AB JUMP JUMPDEST SWAP3 POP POP DUP2 SWAP1 SSTORE POP DUP1 PUSH2 0x137 PUSH1 0x0 DUP3 DUP3 SLOAD PUSH2 0x20B8 SWAP2 SWAP1 PUSH2 0x44AB JUMP JUMPDEST SWAP1 SWAP2 SSTORE POP POP PUSH2 0x12D DUP1 SLOAD PUSH1 0x0 SWAP1 DUP2 MSTORE PUSH2 0x13C PUSH1 0x20 SWAP1 DUP2 MSTORE PUSH1 0x40 SWAP2 DUP3 SWAP1 KECCAK256 DUP5 SWAP1 SSTORE SWAP2 SLOAD PUSH2 0x12E SLOAD PUSH2 0x137 SLOAD DUP4 MLOAD DUP7 DUP2 MSTORE SWAP5 DUP6 ADD DUP10 SWAP1 MSTORE SWAP3 DUP5 ADD MSTORE PUSH1 0x60 DUP4 ADD SWAP2 SWAP1 SWAP2 MSTORE SWAP1 PUSH1 0x1 PUSH1 0x1 PUSH1 0xA0 SHL SUB DUP1 DUP9 AND SWAP2 SWAP1 DUP10 AND SWAP1 PUSH32 0x52C6B7A228763DC832BEF1E2DEE48707B24B8F1400A6335B3AF6D5DEF4F5BB21 SWAP1 PUSH1 0x80 ADD PUSH1 0x40 MLOAD DUP1 SWAP2 SUB SWAP1 LOG4 PUSH2 0x12D SLOAD SWAP3 POP POP POP PUSH2 0x1049 PUSH1 0x1 DUP1 SSTORE JUMP JUMPDEST PUSH2 0x2150 PUSH2 0xAEB JUMP JUMPDEST PUSH2 0x136 SSTORE PUSH2 0x215C PUSH2 0x1748 JUMP JUMPDEST PUSH2 0x133 SSTORE DUP1 ISZERO PUSH2 0x130C JUMPI PUSH2 0x216F DUP2 PUSH2 0xFDF JUMP JUMPDEST PUSH1 0x0 DUP3 DUP2 MSTORE PUSH2 0x13E PUSH1 0x20 MSTORE PUSH1 0x40 DUP2 KECCAK256 SWAP2 SWAP1 SWAP2 SSTORE PUSH8 0xDE0B6B3A7640000 PUSH2 0x2194 DUP4 PUSH2 0x270F JUMP JUMPDEST PUSH1 0x0 DUP5 DUP2 MSTORE PUSH2 0x13B PUSH1 0x20 MSTORE PUSH1 0x40 SWAP1 KECCAK256 SLOAD PUSH2 0x21AE SWAP2 SWAP1 PUSH2 0x4472 JUMP JUMPDEST PUSH2 0x21B8 SWAP2 SWAP1 PUSH2 0x4489 JUMP JUMPDEST PUSH1 0x0 DUP4 DUP2 MSTORE PUSH2 0x13C PUSH1 0x20 MSTORE PUSH1 0x40 SWAP1 KECCAK256 SLOAD PUSH2 0x137 SLOAD SWAP2 SWAP3 POP DUP3 SWAP2 PUSH2 0x21DB SWAP2 SWAP1 PUSH2 0x445F JUMP JUMPDEST PUSH2 0x21E5 SWAP2 SWAP1 PUSH2 0x44AB JUMP JUMPDEST PUSH2 0x137 SSTORE PUSH1 0x0 SWAP2 DUP3 MSTORE PUSH2 0x13C PUSH1 0x20 SWAP1 DUP2 MSTORE PUSH1 0x40 DUP1 DUP5 KECCAK256 SWAP3 SWAP1 SWAP3 SSTORE PUSH2 0x136 SLOAD PUSH2 0x13D SWAP1 SWAP2 MSTORE SWAP2 KECCAK256 SSTORE JUMP JUMPDEST PUSH1 0x0 SLOAD PUSH2 0x100 SWAP1 DIV PUSH1 0xFF AND PUSH2 0x2279 JUMPI PUSH1 0x40 MLOAD PUSH3 0x461BCD PUSH1 0xE5 SHL DUP2 MSTORE PUSH1 0x20 PUSH1 0x4 DUP3 ADD MSTORE PUSH1 0x2B PUSH1 0x24 DUP3 ADD MSTORE PUSH32 0x496E697469616C697A61626C653A20636F6E7472616374206973206E6F742069 PUSH1 0x44 DUP3 ADD MSTORE PUSH11 0x6E697469616C697A696E67 PUSH1 0xA8 SHL PUSH1 0x64 DUP3 ADD MSTORE PUSH1 0x84 ADD PUSH2 0xA54 JUMP JUMPDEST PUSH2 0x169A PUSH2 0x367C JUMP JUMPDEST PUSH1 0x0 SLOAD PUSH2 0x100 SWAP1 DIV PUSH1 0xFF AND PUSH2 0x22EC JUMPI PUSH1 0x40 MLOAD PUSH3 0x461BCD PUSH1 0xE5 SHL DUP2 MSTORE PUSH1 0x20 PUSH1 0x4 DUP3 ADD MSTORE PUSH1 0x2B PUSH1 0x24 DUP3 ADD MSTORE PUSH32 0x496E697469616C697A61626C653A20636F6E7472616374206973206E6F742069 PUSH1 0x44 DUP3 ADD MSTORE PUSH11 0x6E697469616C697A696E67 PUSH1 0xA8 SHL PUSH1 0x64 DUP3 ADD MSTORE PUSH1 0x84 ADD PUSH2 0xA54 JUMP JUMPDEST PUSH2 0x6C2 DUP3 DUP3 PUSH2 0x36E7 JUMP JUMPDEST PUSH1 0x0 SLOAD PUSH2 0x100 SWAP1 DIV PUSH1 0xFF AND PUSH2 0x2361 JUMPI PUSH1 0x40 MLOAD PUSH3 0x461BCD PUSH1 0xE5 SHL DUP2 MSTORE PUSH1 0x20 PUSH1 0x4 DUP3 ADD MSTORE PUSH1 0x2B PUSH1 0x24 DUP3 ADD MSTORE PUSH32 0x496E697469616C697A61626C653A20636F6E7472616374206973206E6F742069 PUSH1 0x44 DUP3 ADD MSTORE PUSH11 0x6E697469616C697A696E67 PUSH1 0xA8 SHL PUSH1 0x64 DUP3 ADD MSTORE PUSH1 0x84 ADD PUSH2 0xA54 JUMP JUMPDEST PUSH2 0x169A PUSH2 0x376B JUMP JUMPDEST PUSH2 0x23CF PUSH1 0x40 MLOAD DUP1 PUSH2 0x160 ADD PUSH1 0x40 MSTORE DUP1 PUSH1 0x0 DUP2 MSTORE PUSH1 0x20 ADD PUSH1 0x0 PUSH1 0x1 PUSH1 0x1 PUSH1 0xA0 SHL SUB AND DUP2 MSTORE PUSH1 0x20 ADD PUSH1 0x0 DUP2 MSTORE PUSH1 0x20 ADD PUSH1 0x0 DUP2 MSTORE PUSH1 0x20 ADD PUSH1 0x0 DUP2 MSTORE PUSH1 0x20 ADD PUSH1 0x0 DUP2 MSTORE PUSH1 0x20 ADD PUSH1 0x0 DUP2 MSTORE PUSH1 0x20 ADD PUSH1 0x0 DUP2 MSTORE PUSH1 0x20 ADD PUSH1 0x0 DUP2 MSTORE PUSH1 0x20 ADD PUSH1 0x0 DUP2 MSTORE PUSH1 0x20 ADD PUSH1 0x0 DUP2 MSTORE POP SWAP1 JUMP JUMPDEST PUSH1 0x0 PUSH2 0x23DA DUP4 PUSH2 0x24CE JUMP JUMPDEST SWAP1 POP PUSH1 0x0 PUSH2 0x23E7 DUP5 PUSH2 0x24FC JUMP JUMPDEST DUP5 DUP5 MSTORE PUSH1 0x0 DUP6 DUP2 MSTORE PUSH1 0x99 PUSH1 0x20 SWAP1 DUP2 MSTORE PUSH1 0x40 DUP1 DUP4 KECCAK256 SLOAD PUSH1 0x1 PUSH1 0x1 PUSH1 0xA0 SHL SUB AND DUP3 DUP9 ADD MSTORE DUP8 DUP4 MSTORE PUSH2 0x13B SWAP1 SWAP2 MSTORE SWAP1 DUP2 SWAP1 KECCAK256 SLOAD SWAP1 DUP6 ADD MSTORE PUSH1 0x60 DUP5 ADD DUP4 SWAP1 MSTORE SWAP1 POP PUSH8 0xDE0B6B3A7640000 PUSH2 0x2437 DUP3 DUP5 PUSH2 0x4472 JUMP JUMPDEST PUSH2 0x2441 SWAP2 SWAP1 PUSH2 0x4489 JUMP JUMPDEST PUSH2 0x244B SWAP1 DUP4 PUSH2 0x445F JUMP JUMPDEST PUSH1 0x80 DUP5 ADD MSTORE PUSH1 0x0 DUP5 DUP2 MSTORE PUSH2 0x13A PUSH1 0x20 MSTORE PUSH1 0x40 SWAP1 KECCAK256 SLOAD PUSH1 0xA0 DUP5 ADD MSTORE PUSH2 0x246E DUP5 PUSH2 0x270F JUMP JUMPDEST PUSH1 0xC0 DUP5 ADD MSTORE PUSH1 0xE0 DUP4 ADD DUP2 SWAP1 MSTORE PUSH8 0xDE0B6B3A7640000 PUSH2 0x248D DUP3 DUP5 PUSH2 0x4472 JUMP JUMPDEST PUSH2 0x2497 SWAP2 SWAP1 PUSH2 0x4489 JUMP JUMPDEST PUSH2 0x100 DUP5 ADD MSTORE POP POP PUSH1 0x0 DUP3 DUP2 MSTORE PUSH2 0x13E PUSH1 0x20 SWAP1 DUP2 MSTORE PUSH1 0x40 DUP1 DUP4 KECCAK256 SLOAD PUSH2 0x120 DUP6 ADD MSTORE SWAP4 DUP3 MSTORE PUSH2 0x13C SWAP1 MSTORE SWAP2 SWAP1 SWAP2 KECCAK256 SLOAD PUSH2 0x140 DUP3 ADD MSTORE SWAP1 JUMP JUMPDEST PUSH1 0x0 DUP2 DUP2 MSTORE PUSH2 0x13B PUSH1 0x20 MSTORE PUSH1 0x40 DUP2 KECCAK256 SLOAD DUP2 PUSH2 0x24E7 PUSH2 0x31D0 JUMP JUMPDEST SWAP1 POP PUSH8 0xDE0B6B3A7640000 PUSH2 0x10F3 DUP3 DUP5 PUSH2 0x4472 JUMP JUMPDEST PUSH1 0x0 DUP2 DUP2 MSTORE PUSH2 0x13A PUSH1 0x20 MSTORE PUSH1 0x40 DUP2 KECCAK256 SLOAD DUP1 DUP3 SUB PUSH2 0x251C JUMPI POP PUSH1 0x0 SWAP3 SWAP2 POP POP JUMP JUMPDEST PUSH1 0x0 PUSH2 0x2528 DUP3 TIMESTAMP PUSH2 0x445F JUMP JUMPDEST SWAP1 POP PUSH2 0x12F SLOAD DUP2 GT ISZERO PUSH2 0x253B JUMPI POP PUSH2 0x12F SLOAD JUMPDEST PUSH8 0xDE0B6B3A7640000 PUSH2 0x131 SLOAD PUSH2 0x12F SLOAD PUSH8 0xDE0B6B3A7640000 DUP5 PUSH2 0x2560 SWAP2 SWAP1 PUSH2 0x4472 JUMP JUMPDEST PUSH2 0x256A SWAP2 SWAP1 PUSH2 0x4489 JUMP JUMPDEST PUSH2 0x2574 SWAP2 SWAP1 PUSH2 0x4472 JUMP JUMPDEST PUSH2 0x257E SWAP2 SWAP1 PUSH2 0x4489 JUMP JUMPDEST PUSH2 0x131 SLOAD PUSH2 0x258C SWAP2 SWAP1 PUSH2 0x445F JUMP JUMPDEST SWAP3 POP PUSH2 0x132 SLOAD DUP4 LT ISZERO PUSH2 0x1100 JUMPI POP POP PUSH2 0x132 SLOAD SWAP3 SWAP2 POP POP JUMP JUMPDEST PUSH1 0x2 PUSH1 0x1 SLOAD SUB PUSH2 0x25F7 JUMPI PUSH1 0x40 MLOAD PUSH3 0x461BCD PUSH1 0xE5 SHL DUP2 MSTORE PUSH1 0x20 PUSH1 0x4 DUP3 ADD MSTORE PUSH1 0x1F PUSH1 0x24 DUP3 ADD MSTORE PUSH32 0x5265656E7472616E637947756172643A207265656E7472616E742063616C6C00 PUSH1 0x44 DUP3 ADD MSTORE PUSH1 0x64 ADD PUSH2 0xA54 JUMP JUMPDEST PUSH1 0x2 PUSH1 0x1 SSTORE JUMP JUMPDEST PUSH1 0xC9 SLOAD PUSH1 0x1 PUSH1 0x1 PUSH1 0xA0 SHL SUB AND CALLER EQ PUSH2 0x169A JUMPI PUSH1 0x40 MLOAD PUSH3 0x461BCD PUSH1 0xE5 SHL DUP2 MSTORE PUSH1 0x20 PUSH1 0x4 DUP3 ADD DUP2 SWAP1 MSTORE PUSH1 0x24 DUP3 ADD MSTORE PUSH32 0x4F776E61626C653A2063616C6C6572206973206E6F7420746865206F776E6572 PUSH1 0x44 DUP3 ADD MSTORE PUSH1 0x64 ADD PUSH2 0xA54 JUMP JUMPDEST PUSH1 0x40 MLOAD PUSH1 0x1 PUSH1 0x1 PUSH1 0xA0 SHL SUB DUP1 DUP6 AND PUSH1 0x24 DUP4 ADD MSTORE DUP4 AND PUSH1 0x44 DUP3 ADD MSTORE PUSH1 0x64 DUP2 ADD DUP3 SWAP1 MSTORE PUSH2 0x1970 SWAP1 DUP6 SWAP1 PUSH32 0x23B872DD00000000000000000000000000000000000000000000000000000000 SWAP1 PUSH1 0x84 ADD JUMPDEST PUSH1 0x40 DUP1 MLOAD PUSH1 0x1F NOT DUP2 DUP5 SUB ADD DUP2 MSTORE SWAP2 SWAP1 MSTORE PUSH1 0x20 DUP2 ADD DUP1 MLOAD PUSH28 0xFFFFFFFFFFFFFFFFFFFFFFFFFFFFFFFFFFFFFFFFFFFFFFFFFFFFFFFF AND PUSH32 0xFFFFFFFF00000000000000000000000000000000000000000000000000000000 SWAP1 SWAP4 AND SWAP3 SWAP1 SWAP3 OR SWAP1 SWAP2 MSTORE PUSH2 0x37DF JUMP JUMPDEST PUSH1 0x1 DUP1 SSTORE JUMP JUMPDEST PUSH1 0x0 DUP2 DUP2 MSTORE PUSH2 0x13A PUSH1 0x20 MSTORE PUSH1 0x40 DUP2 KECCAK256 SLOAD DUP1 DUP3 SUB PUSH2 0x272F JUMPI POP PUSH1 0x0 SWAP3 SWAP2 POP POP JUMP JUMPDEST PUSH1 0x0 PUSH2 0x273B DUP3 TIMESTAMP PUSH2 0x445F JUMP JUMPDEST SWAP1 POP PUSH2 0x12F SLOAD DUP2 GT ISZERO PUSH2 0x274E JUMPI POP PUSH2 0x12F SLOAD JUMPDEST PUSH8 0xDE0B6B3A7640000 DUP1 PUSH2 0x130 SLOAD PUSH2 0x2766 SWAP2 SWAP1 PUSH2 0x445F JUMP JUMPDEST PUSH2 0x12F SLOAD PUSH2 0x277C PUSH8 0xDE0B6B3A7640000 DUP6 PUSH2 0x4472 JUMP JUMPDEST PUSH2 0x2786 SWAP2 SWAP1 PUSH2 0x4489 JUMP JUMPDEST PUSH2 0x2790 SWAP2 SWAP1 PUSH2 0x4472 JUMP JUMPDEST PUSH2 0x279A SWAP2 SWAP1 PUSH2 0x4489 JUMP JUMPDEST PUSH2 0x10FD SWAP1 PUSH8 0xDE0B6B3A7640000 PUSH2 0x44AB JUMP JUMPDEST PUSH1 0x60 PUSH2 0x27B6 PUSH2 0x25A5 JUMP JUMPDEST PUSH1 0x0 DUP4 DUP2 MSTORE PUSH1 0x99 PUSH1 0x20 MSTORE PUSH1 0x40 SWAP1 KECCAK256 SLOAD PUSH1 0x1 PUSH1 0x1 PUSH1 0xA0 SHL SUB AND PUSH2 0x281A JUMPI PUSH1 0x40 MLOAD PUSH3 0x461BCD PUSH1 0xE5 SHL DUP2 MSTORE PUSH1 0x20 PUSH1 0x4 DUP3 ADD MSTORE PUSH1 0x1C PUSH1 0x24 DUP3 ADD MSTORE PUSH32 0x5468697320706F736974696F6E20646F65736E27742065786973742E00000000 PUSH1 0x44 DUP3 ADD MSTORE PUSH1 0x64 ADD PUSH2 0xA54 JUMP JUMPDEST PUSH1 0x0 DUP4 DUP2 MSTORE PUSH1 0x99 PUSH1 0x20 MSTORE PUSH1 0x40 SWAP1 KECCAK256 SLOAD PUSH1 0x1 PUSH1 0x1 PUSH1 0xA0 SHL SUB AND CALLER DUP2 EQ PUSH2 0x2881 JUMPI PUSH1 0x40 MLOAD PUSH3 0x461BCD PUSH1 0xE5 SHL DUP2 MSTORE PUSH1 0x20 PUSH1 0x4 DUP3 ADD MSTORE PUSH1 0x13 PUSH1 0x24 DUP3 ADD MSTORE PUSH32 0x4E6F7420796F75722078494E5458204E46542E00000000000000000000000000 PUSH1 0x44 DUP3 ADD MSTORE PUSH1 0x64 ADD PUSH2 0xA54 JUMP JUMPDEST DUP3 MLOAD PUSH1 0x1 DUP2 GT PUSH2 0x28F9 JUMPI PUSH1 0x40 MLOAD PUSH3 0x461BCD PUSH1 0xE5 SHL DUP2 MSTORE PUSH1 0x20 PUSH1 0x4 DUP3 ADD MSTORE PUSH1 0x2C PUSH1 0x24 DUP3 ADD MSTORE PUSH32 0x596F752063616E27742073706C697420746869732058494E5458206C65737320 PUSH1 0x44 DUP3 ADD MSTORE PUSH32 0x7468616E20322074696D65730000000000000000000000000000000000000000 PUSH1 0x64 DUP3 ADD MSTORE PUSH1 0x84 ADD PUSH2 0xA54 JUMP JUMPDEST PUSH1 0xA DUP2 GT ISZERO PUSH2 0x2970 JUMPI PUSH1 0x40 MLOAD PUSH3 0x461BCD PUSH1 0xE5 SHL DUP2 MSTORE PUSH1 0x20 PUSH1 0x4 DUP3 ADD MSTORE PUSH1 0x2D PUSH1 0x24 DUP3 ADD MSTORE PUSH32 0x596F752063616E27742073706C697420746869732058494E5458206D6F726520 PUSH1 0x44 DUP3 ADD MSTORE PUSH32 0x7468616E2031302074696D657300000000000000000000000000000000000000 PUSH1 0x64 DUP3 ADD MSTORE PUSH1 0x84 ADD PUSH2 0xA54 JUMP JUMPDEST DUP1 PUSH8 0xFFFFFFFFFFFFFFFF DUP2 GT ISZERO PUSH2 0x2989 JUMPI PUSH2 0x2989 PUSH2 0x431D JUMP JUMPDEST PUSH1 0x40 MLOAD SWAP1 DUP1 DUP3 MSTORE DUP1 PUSH1 0x20 MUL PUSH1 0x20 ADD DUP3 ADD PUSH1 0x40 MSTORE DUP1 ISZERO PUSH2 0x29B2 JUMPI DUP2 PUSH1 0x20 ADD PUSH1 0x20 DUP3 MUL DUP1 CALLDATASIZE DUP4 CALLDATACOPY ADD SWAP1 POP JUMPDEST POP SWAP3 POP PUSH2 0x29BE DUP6 PUSH2 0x2148 JUMP JUMPDEST PUSH1 0x0 DUP6 DUP2 MSTORE PUSH2 0x13B PUSH1 0x20 SWAP1 DUP2 MSTORE PUSH1 0x40 DUP1 DUP4 KECCAK256 SLOAD PUSH2 0x13A DUP4 MSTORE DUP2 DUP5 KECCAK256 SLOAD PUSH2 0x13D SWAP1 SWAP4 MSTORE SWAP1 DUP4 KECCAK256 SLOAD PUSH2 0x12E DUP1 SLOAD SWAP3 SWAP4 SWAP3 DUP5 SWAP2 SWAP1 DUP7 SWAP1 PUSH2 0x29FC SWAP1 DUP5 SWAP1 PUSH2 0x445F JUMP JUMPDEST SWAP1 SWAP2 SSTORE POP POP PUSH1 0x0 DUP10 DUP2 MSTORE PUSH2 0x13C PUSH1 0x20 MSTORE PUSH1 0x40 DUP2 KECCAK256 SLOAD PUSH2 0x137 DUP1 SLOAD SWAP2 SWAP3 SWAP1 SWAP2 PUSH2 0x2A25 SWAP1 DUP5 SWAP1 PUSH2 0x445F JUMP JUMPDEST SWAP1 SWAP2 SSTORE POP PUSH1 0x0 SWAP1 POP JUMPDEST DUP6 DUP2 LT ISZERO PUSH2 0x2A6F JUMPI DUP9 DUP2 DUP2 MLOAD DUP2 LT PUSH2 0x2A48 JUMPI PUSH2 0x2A48 PUSH2 0x44BE JUMP JUMPDEST PUSH1 0x20 MUL PUSH1 0x20 ADD ADD MLOAD DUP6 PUSH2 0x2A5B SWAP2 SWAP1 PUSH2 0x44AB JUMP JUMPDEST SWAP5 POP DUP1 PUSH2 0x2A67 DUP2 PUSH2 0x44D4 JUMP JUMPDEST SWAP2 POP POP PUSH2 0x2A2E JUMP JUMPDEST POP PUSH1 0x0 JUMPDEST DUP6 DUP2 LT ISZERO PUSH2 0x2C55 JUMPI PUSH1 0x0 DUP6 DUP6 DUP12 DUP5 DUP2 MLOAD DUP2 LT PUSH2 0x2A91 JUMPI PUSH2 0x2A91 PUSH2 0x44BE JUMP JUMPDEST PUSH1 0x20 MUL PUSH1 0x20 ADD ADD MLOAD PUSH2 0x2AA3 SWAP2 SWAP1 PUSH2 0x4472 JUMP JUMPDEST PUSH2 0x2AAD SWAP2 SWAP1 PUSH2 0x4489 JUMP JUMPDEST SWAP1 POP PUSH1 0x0 DUP2 GT PUSH2 0x2AFF JUMPI PUSH1 0x40 MLOAD PUSH3 0x461BCD PUSH1 0xE5 SHL DUP2 MSTORE PUSH1 0x20 PUSH1 0x4 DUP3 ADD MSTORE PUSH1 0x14 PUSH1 0x24 DUP3 ADD MSTORE PUSH32 0x43616E27742073706C697420302078494E54582E000000000000000000000000 PUSH1 0x44 DUP3 ADD MSTORE PUSH1 0x64 ADD PUSH2 0xA54 JUMP JUMPDEST PUSH2 0x12D DUP1 SLOAD SWAP1 PUSH1 0x0 PUSH2 0x2B10 DUP4 PUSH2 0x44D4 JUMP JUMPDEST SWAP2 SWAP1 POP SSTORE POP PUSH2 0x2B22 DUP9 PUSH2 0x12D SLOAD PUSH2 0x34E4 JUMP JUMPDEST PUSH2 0x12D SLOAD DUP10 DUP4 DUP2 MLOAD DUP2 LT PUSH2 0x2B38 JUMPI PUSH2 0x2B38 PUSH2 0x44BE JUMP JUMPDEST PUSH1 0x20 SWAP1 DUP2 MUL SWAP2 SWAP1 SWAP2 ADD DUP2 ADD SWAP2 SWAP1 SWAP2 MSTORE PUSH2 0x12D DUP1 SLOAD PUSH1 0x0 SWAP1 DUP2 MSTORE PUSH2 0x13A DUP4 MSTORE PUSH1 0x40 DUP1 DUP3 KECCAK256 DUP9 SWAP1 SSTORE DUP3 SLOAD DUP3 MSTORE PUSH2 0x13B SWAP1 SWAP4 MSTORE SWAP2 DUP3 KECCAK256 DUP4 SWAP1 SSTORE SLOAD PUSH8 0xDE0B6B3A7640000 SWAP1 PUSH2 0x2B82 SWAP1 PUSH2 0x270F JUMP JUMPDEST PUSH2 0x2B8C SWAP1 DUP5 PUSH2 0x4472 JUMP JUMPDEST PUSH2 0x2B96 SWAP2 SWAP1 PUSH2 0x4489 JUMP JUMPDEST PUSH2 0x12D DUP1 SLOAD PUSH1 0x0 SWAP1 DUP2 MSTORE PUSH2 0x13C PUSH1 0x20 SWAP1 DUP2 MSTORE PUSH1 0x40 DUP1 DUP4 KECCAK256 DUP6 SWAP1 SSTORE SWAP3 SLOAD DUP3 MSTORE PUSH2 0x13D SWAP1 MSTORE SWAP1 DUP2 KECCAK256 DUP7 SWAP1 SSTORE PUSH2 0x12E DUP1 SLOAD SWAP3 SWAP4 POP DUP5 SWAP3 SWAP1 SWAP2 SWAP1 PUSH2 0x2BD7 SWAP1 DUP5 SWAP1 PUSH2 0x44AB JUMP JUMPDEST SWAP3 POP POP DUP2 SWAP1 SSTORE POP DUP1 PUSH2 0x137 PUSH1 0x0 DUP3 DUP3 SLOAD PUSH2 0x2BF1 SWAP2 SWAP1 PUSH2 0x44AB JUMP JUMPDEST SWAP1 SWAP2 SSTORE POP POP PUSH2 0x12D SLOAD PUSH1 0x40 DUP1 MLOAD SWAP2 DUP3 MSTORE PUSH1 0x20 DUP3 ADD DUP5 SWAP1 MSTORE DUP14 SWAP2 PUSH1 0x1 PUSH1 0x1 PUSH1 0xA0 SHL SUB DUP13 AND SWAP2 PUSH32 0xF66885C33D648FCD0D97E0F2A18E30102169C22763473AF0FB716F11B4A17DD6 SWAP2 ADD PUSH1 0x40 MLOAD DUP1 SWAP2 SUB SWAP1 LOG3 POP POP DUP1 DUP1 PUSH2 0x2C4D SWAP1 PUSH2 0x44D4 JUMP JUMPDEST SWAP2 POP POP PUSH2 0x2A73 JUMP JUMPDEST POP PUSH1 0x0 DUP10 DUP2 MSTORE PUSH2 0x13A PUSH1 0x20 SWAP1 DUP2 MSTORE PUSH1 0x40 DUP1 DUP4 KECCAK256 DUP4 SWAP1 SSTORE PUSH2 0x13B DUP3 MSTORE DUP1 DUP4 KECCAK256 DUP4 SWAP1 SSTORE PUSH2 0x13C DUP3 MSTORE DUP1 DUP4 KECCAK256 DUP4 SWAP1 SSTORE PUSH2 0x13D DUP3 MSTORE DUP1 DUP4 KECCAK256 DUP4 SWAP1 SSTORE PUSH2 0x13E SWAP1 SWAP2 MSTORE SWAP1 KECCAK256 SLOAD ISZERO PUSH2 0x2CD8 JUMPI PUSH1 0x0 DUP10 DUP2 MSTORE PUSH2 0x13E PUSH1 0x20 SWAP1 DUP2 MSTORE PUSH1 0x40 DUP1 DUP4 KECCAK256 SLOAD PUSH1 0x1 PUSH1 0x1 PUSH1 0xA0 SHL SUB DUP11 AND DUP5 MSTORE PUSH2 0x13F SWAP1 SWAP3 MSTORE DUP3 KECCAK256 DUP1 SLOAD SWAP2 SWAP3 SWAP1 SWAP2 PUSH2 0x2CD2 SWAP1 DUP5 SWAP1 PUSH2 0x44AB JUMP JUMPDEST SWAP1 SWAP2 SSTORE POP POP JUMPDEST PUSH1 0x0 DUP10 DUP2 MSTORE PUSH2 0x13E PUSH1 0x20 MSTORE PUSH1 0x40 DUP2 KECCAK256 SSTORE PUSH2 0x2CF1 DUP10 PUSH2 0x33BB JUMP JUMPDEST POP POP POP POP POP POP PUSH2 0x905 PUSH1 0x1 DUP1 SSTORE JUMP JUMPDEST PUSH1 0x40 MLOAD PUSH1 0x1 PUSH1 0x1 PUSH1 0xA0 SHL SUB DUP4 AND PUSH1 0x24 DUP3 ADD MSTORE PUSH1 0x44 DUP2 ADD DUP3 SWAP1 MSTORE PUSH2 0x455 SWAP1 DUP5 SWAP1 PUSH32 0xA9059CBB00000000000000000000000000000000000000000000000000000000 SWAP1 PUSH1 0x64 ADD PUSH2 0x26A5 JUMP JUMPDEST PUSH2 0x2D51 PUSH2 0x25A5 JUMP JUMPDEST PUSH1 0x0 DUP3 DUP2 MSTORE PUSH1 0x99 PUSH1 0x20 MSTORE PUSH1 0x40 SWAP1 KECCAK256 SLOAD PUSH1 0x1 PUSH1 0x1 PUSH1 0xA0 SHL SUB AND PUSH2 0x2DB5 JUMPI PUSH1 0x40 MLOAD PUSH3 0x461BCD PUSH1 0xE5 SHL DUP2 MSTORE PUSH1 0x20 PUSH1 0x4 DUP3 ADD MSTORE PUSH1 0x1C PUSH1 0x24 DUP3 ADD MSTORE PUSH32 0x5468697320706F736974696F6E20646F65736E27742065786973742E00000000 PUSH1 0x44 DUP3 ADD MSTORE PUSH1 0x64 ADD PUSH2 0xA54 JUMP JUMPDEST PUSH1 0x0 DUP2 DUP2 MSTORE PUSH1 0x99 PUSH1 0x20 MSTORE PUSH1 0x40 SWAP1 KECCAK256 SLOAD PUSH1 0x1 PUSH1 0x1 PUSH1 0xA0 SHL SUB AND PUSH2 0x2E19 JUMPI PUSH1 0x40 MLOAD PUSH3 0x461BCD PUSH1 0xE5 SHL DUP2 MSTORE PUSH1 0x20 PUSH1 0x4 DUP3 ADD MSTORE PUSH1 0x1C PUSH1 0x24 DUP3 ADD MSTORE PUSH32 0x5468697320706F736974696F6E20646F65736E27742065786973742E00000000 PUSH1 0x44 DUP3 ADD MSTORE PUSH1 0x64 ADD PUSH2 0xA54 JUMP JUMPDEST PUSH1 0x0 DUP3 DUP2 MSTORE PUSH1 0x99 PUSH1 0x20 MSTORE PUSH1 0x40 SWAP1 KECCAK256 SLOAD PUSH1 0x1 PUSH1 0x1 PUSH1 0xA0 SHL SUB AND CALLER DUP2 EQ PUSH2 0x2E80 JUMPI PUSH1 0x40 MLOAD PUSH3 0x461BCD PUSH1 0xE5 SHL DUP2 MSTORE PUSH1 0x20 PUSH1 0x4 DUP3 ADD MSTORE PUSH1 0x1E PUSH1 0x24 DUP3 ADD MSTORE PUSH32 0x46726F6D204E46542069736E277420796F75722078494E5458204E46542E0000 PUSH1 0x44 DUP3 ADD MSTORE PUSH1 0x64 ADD PUSH2 0xA54 JUMP JUMPDEST PUSH1 0x0 DUP3 DUP2 MSTORE PUSH1 0x99 PUSH1 0x20 MSTORE PUSH1 0x40 SWAP1 KECCAK256 SLOAD PUSH1 0x1 PUSH1 0x1 PUSH1 0xA0 SHL SUB DUP3 DUP2 AND SWAP2 AND EQ PUSH2 0x2EE9 JUMPI PUSH1 0x40 MLOAD PUSH3 0x461BCD PUSH1 0xE5 SHL DUP2 MSTORE PUSH1 0x20 PUSH1 0x4 DUP3 ADD MSTORE PUSH1 0x17 PUSH1 0x24 DUP3 ADD MSTORE PUSH32 0x546F204E46542069736E27742078494E5458204E46542E000000000000000000 PUSH1 0x44 DUP3 ADD MSTORE PUSH1 0x64 ADD PUSH2 0xA54 JUMP JUMPDEST PUSH2 0x2EF2 DUP4 PUSH2 0x2148 JUMP JUMPDEST PUSH2 0x2EFB DUP3 PUSH2 0x2148 JUMP JUMPDEST PUSH1 0x0 DUP4 DUP2 MSTORE PUSH2 0x13B PUSH1 0x20 SWAP1 DUP2 MSTORE PUSH1 0x40 DUP1 DUP4 KECCAK256 SLOAD PUSH2 0x13A SWAP1 SWAP3 MSTORE DUP3 KECCAK256 SLOAD SWAP1 SWAP2 SWAP1 PUSH2 0x2F24 SWAP1 TIMESTAMP PUSH2 0x445F JUMP JUMPDEST SWAP1 POP PUSH2 0x12F SLOAD DUP2 GT ISZERO PUSH2 0x2F37 JUMPI POP PUSH2 0x12F SLOAD JUMPDEST PUSH1 0x0 DUP5 DUP2 MSTORE PUSH2 0x13B PUSH1 0x20 SWAP1 DUP2 MSTORE PUSH1 0x40 DUP1 DUP4 KECCAK256 SLOAD PUSH2 0x13A SWAP1 SWAP3 MSTORE DUP3 KECCAK256 SLOAD SWAP1 SWAP2 SWAP1 PUSH2 0x2F60 SWAP1 TIMESTAMP PUSH2 0x445F JUMP JUMPDEST SWAP1 POP PUSH2 0x12F SLOAD DUP2 GT ISZERO PUSH2 0x2F73 JUMPI POP PUSH2 0x12F SLOAD JUMPDEST PUSH1 0x0 PUSH2 0x2F7F DUP4 DUP7 PUSH2 0x44AB JUMP JUMPDEST SWAP1 POP PUSH1 0x0 DUP2 GT PUSH2 0x2FF7 JUMPI PUSH1 0x40 MLOAD PUSH3 0x461BCD PUSH1 0xE5 SHL DUP2 MSTORE PUSH1 0x20 PUSH1 0x4 DUP3 ADD MSTORE PUSH1 0x23 PUSH1 0x24 DUP3 ADD MSTORE PUSH32 0x43616E2774206D616B65206120706F736974696F6E207769746820302078494E PUSH1 0x44 DUP3 ADD MSTORE PUSH32 0x54582E0000000000000000000000000000000000000000000000000000000000 PUSH1 0x64 DUP3 ADD MSTORE PUSH1 0x84 ADD PUSH2 0xA54 JUMP JUMPDEST PUSH1 0x0 DUP2 PUSH2 0x3004 DUP6 DUP6 PUSH2 0x4472 JUMP JUMPDEST PUSH2 0x300E SWAP2 SWAP1 PUSH2 0x4489 JUMP JUMPDEST DUP3 PUSH2 0x3019 DUP9 DUP9 PUSH2 0x4472 JUMP JUMPDEST PUSH2 0x3023 SWAP2 SWAP1 PUSH2 0x4489 JUMP JUMPDEST PUSH2 0x302D SWAP2 SWAP1 PUSH2 0x44AB JUMP JUMPDEST PUSH1 0x0 DUP10 DUP2 MSTORE PUSH2 0x13B PUSH1 0x20 MSTORE PUSH1 0x40 SWAP1 KECCAK256 DUP4 SWAP1 SSTORE SWAP1 POP PUSH2 0x304B DUP2 TIMESTAMP PUSH2 0x445F JUMP JUMPDEST PUSH1 0x0 DUP10 DUP2 MSTORE PUSH2 0x13A PUSH1 0x20 MSTORE PUSH1 0x40 DUP2 KECCAK256 SWAP2 SWAP1 SWAP2 SSTORE PUSH8 0xDE0B6B3A7640000 PUSH2 0x3070 DUP11 PUSH2 0x270F JUMP JUMPDEST PUSH2 0x307A SWAP1 DUP6 PUSH2 0x4472 JUMP JUMPDEST PUSH2 0x3084 SWAP2 SWAP1 PUSH2 0x4489 JUMP JUMPDEST PUSH1 0x0 DUP11 DUP2 MSTORE PUSH2 0x13C PUSH1 0x20 DUP2 DUP2 MSTORE PUSH1 0x40 DUP1 DUP5 KECCAK256 DUP6 SWAP1 SSTORE DUP15 DUP5 MSTORE PUSH2 0x13A DUP3 MSTORE DUP1 DUP5 KECCAK256 DUP5 SWAP1 SSTORE PUSH2 0x13B DUP3 MSTORE DUP1 DUP5 KECCAK256 DUP5 SWAP1 SSTORE SWAP2 DUP2 MSTORE DUP2 DUP4 KECCAK256 DUP4 SWAP1 SSTORE PUSH2 0x13D DUP2 MSTORE DUP2 DUP4 KECCAK256 DUP4 SWAP1 SSTORE PUSH2 0x13E SWAP1 MSTORE SWAP1 KECCAK256 SLOAD SWAP1 SWAP2 POP ISZERO PUSH2 0x3114 JUMPI PUSH1 0x0 DUP11 DUP2 MSTORE PUSH2 0x13E PUSH1 0x20 SWAP1 DUP2 MSTORE PUSH1 0x40 DUP1 DUP4 KECCAK256 SLOAD PUSH1 0x1 PUSH1 0x1 PUSH1 0xA0 SHL SUB DUP13 AND DUP5 MSTORE PUSH2 0x13F SWAP1 SWAP3 MSTORE DUP3 KECCAK256 DUP1 SLOAD SWAP2 SWAP3 SWAP1 SWAP2 PUSH2 0x310E SWAP1 DUP5 SWAP1 PUSH2 0x44AB JUMP JUMPDEST SWAP1 SWAP2 SSTORE POP POP JUMPDEST PUSH1 0x0 DUP11 DUP2 MSTORE PUSH2 0x13E PUSH1 0x20 MSTORE PUSH1 0x40 DUP2 KECCAK256 SSTORE PUSH2 0x312D DUP11 PUSH2 0x33BB JUMP JUMPDEST DUP10 PUSH1 0x1 PUSH1 0x1 PUSH1 0xA0 SHL SUB DUP10 AND PUSH32 0x50D7F0EF4F7B59921566F6B835FB032EFA0FD0DACCCB9361292F89B7AA6BAFDD DUP12 DUP7 PUSH2 0x3165 DUP8 TIMESTAMP PUSH2 0x445F JUMP JUMPDEST PUSH1 0x40 DUP1 MLOAD SWAP4 DUP5 MSTORE PUSH1 0x20 DUP5 ADD SWAP3 SWAP1 SWAP3 MSTORE SWAP1 DUP3 ADD MSTORE PUSH1 0x60 ADD PUSH1 0x40 MLOAD DUP1 SWAP2 SUB SWAP1 LOG3 POP POP POP POP POP POP POP POP PUSH2 0x6C2 PUSH1 0x1 DUP1 SSTORE JUMP JUMPDEST PUSH1 0xFB DUP1 SLOAD PUSH20 0xFFFFFFFFFFFFFFFFFFFFFFFFFFFFFFFFFFFFFFFF NOT AND SWAP1 SSTORE PUSH2 0x130C DUP2 PUSH2 0x38C7 JUMP JUMPDEST PUSH1 0x0 DUP2 DUP4 LT PUSH2 0x31C9 JUMPI DUP2 PUSH2 0x1049 JUMP JUMPDEST POP SWAP1 SWAP2 SWAP1 POP JUMP JUMPDEST PUSH1 0x0 PUSH2 0x12E SLOAD PUSH1 0x0 SUB PUSH2 0x31EA JUMPI POP PUSH8 0xDE0B6B3A7640000 SWAP1 JUMP JUMPDEST PUSH2 0x12E SLOAD PUSH8 0xDE0B6B3A7640000 PUSH2 0x31FF PUSH2 0x345D JUMP JUMPDEST PUSH2 0x3209 SWAP2 SWAP1 PUSH2 0x4472 JUMP JUMPDEST PUSH2 0x1757 SWAP2 SWAP1 PUSH2 0x4489 JUMP JUMPDEST PUSH1 0x0 DUP1 PUSH2 0x321F DUP4 PUSH2 0x130F JUMP JUMPDEST SWAP1 POP DUP1 PUSH1 0x1 PUSH1 0x1 PUSH1 0xA0 SHL SUB AND DUP5 PUSH1 0x1 PUSH1 0x1 PUSH1 0xA0 SHL SUB AND EQ DUP1 PUSH2 0x3266 JUMPI POP PUSH1 0x1 PUSH1 0x1 PUSH1 0xA0 SHL SUB DUP1 DUP3 AND PUSH1 0x0 SWAP1 DUP2 MSTORE PUSH1 0x9C PUSH1 0x20 SWAP1 DUP2 MSTORE PUSH1 0x40 DUP1 DUP4 KECCAK256 SWAP4 DUP9 AND DUP4 MSTORE SWAP3 SWAP1 MSTORE KECCAK256 SLOAD PUSH1 0xFF AND JUMPDEST DUP1 PUSH2 0x328A JUMPI POP DUP4 PUSH1 0x1 PUSH1 0x1 PUSH1 0xA0 SHL SUB AND PUSH2 0x327F DUP5 PUSH2 0x99D JUMP JUMPDEST PUSH1 0x1 PUSH1 0x1 PUSH1 0xA0 SHL SUB AND EQ JUMPDEST SWAP5 SWAP4 POP POP POP POP JUMP JUMPDEST PUSH2 0x329D DUP5 DUP5 DUP5 PUSH2 0x3926 JUMP JUMPDEST PUSH2 0x32A9 DUP5 DUP5 DUP5 DUP5 PUSH2 0x3B5C JUMP JUMPDEST PUSH2 0x1970 JUMPI PUSH1 0x40 MLOAD PUSH3 0x461BCD PUSH1 0xE5 SHL DUP2 MSTORE PUSH1 0x20 PUSH1 0x4 DUP3 ADD MSTORE PUSH1 0x32 PUSH1 0x24 DUP3 ADD MSTORE PUSH32 0x4552433732313A207472616E7366657220746F206E6F6E204552433732315265 PUSH1 0x44 DUP3 ADD MSTORE PUSH32 0x63656976657220696D706C656D656E7465720000000000000000000000000000 PUSH1 0x64 DUP3 ADD MSTORE PUSH1 0x84 ADD PUSH2 0xA54 JUMP JUMPDEST PUSH1 0x60 PUSH1 0x0 PUSH2 0x3328 DUP4 PUSH2 0x3CFD JUMP JUMPDEST PUSH1 0x1 ADD SWAP1 POP PUSH1 0x0 DUP2 PUSH8 0xFFFFFFFFFFFFFFFF DUP2 GT ISZERO PUSH2 0x3348 JUMPI PUSH2 0x3348 PUSH2 0x431D JUMP JUMPDEST PUSH1 0x40 MLOAD SWAP1 DUP1 DUP3 MSTORE DUP1 PUSH1 0x1F ADD PUSH1 0x1F NOT AND PUSH1 0x20 ADD DUP3 ADD PUSH1 0x40 MSTORE DUP1 ISZERO PUSH2 0x3372 JUMPI PUSH1 0x20 DUP3 ADD DUP2 DUP1 CALLDATASIZE DUP4 CALLDATACOPY ADD SWAP1 POP JUMPDEST POP SWAP1 POP DUP2 DUP2 ADD PUSH1 0x20 ADD JUMPDEST PUSH1 0x0 NOT ADD PUSH32 0x3031323334353637383961626364656600000000000000000000000000000000 PUSH1 0xA DUP7 MOD BYTE DUP2 MSTORE8 PUSH1 0xA DUP6 DIV SWAP5 POP DUP5 PUSH2 0x337C JUMPI POP SWAP4 SWAP3 POP POP POP JUMP JUMPDEST PUSH1 0x0 PUSH2 0x33C6 DUP3 PUSH2 0x130F JUMP JUMPDEST SWAP1 POP PUSH2 0x33D1 DUP3 PUSH2 0x130F JUMP JUMPDEST PUSH1 0x0 DUP4 DUP2 MSTORE PUSH1 0x9B PUSH1 0x20 SWAP1 DUP2 MSTORE PUSH1 0x40 DUP1 DUP4 KECCAK256 DUP1 SLOAD PUSH20 0xFFFFFFFFFFFFFFFFFFFFFFFFFFFFFFFFFFFFFFFF NOT SWAP1 DUP2 AND SWAP1 SWAP2 SSTORE PUSH1 0x1 PUSH1 0x1 PUSH1 0xA0 SHL SUB DUP6 AND DUP1 DUP6 MSTORE PUSH1 0x9A DUP5 MSTORE DUP3 DUP6 KECCAK256 DUP1 SLOAD PUSH1 0x0 NOT ADD SWAP1 SSTORE DUP8 DUP6 MSTORE PUSH1 0x99 SWAP1 SWAP4 MSTORE DUP2 DUP5 KECCAK256 DUP1 SLOAD SWAP1 SWAP2 AND SWAP1 SSTORE MLOAD SWAP3 SWAP4 POP DUP5 SWAP3 PUSH32 0xDDF252AD1BE2C89B69C2B068FC378DAA952BA7F163C4A11628F55A4DF523B3EF SWAP1 DUP4 SWAP1 LOG4 POP POP JUMP JUMPDEST PUSH2 0x138 SLOAD PUSH1 0x40 MLOAD PUSH32 0x70A0823100000000000000000000000000000000000000000000000000000000 DUP2 MSTORE ADDRESS PUSH1 0x4 DUP3 ADD MSTORE PUSH1 0x0 SWAP2 PUSH1 0x1 PUSH1 0x1 PUSH1 0xA0 SHL SUB AND SWAP1 PUSH4 0x70A08231 SWAP1 PUSH1 0x24 ADD PUSH1 0x20 PUSH1 0x40 MLOAD DUP1 DUP4 SUB DUP2 DUP7 GAS STATICCALL ISZERO DUP1 ISZERO PUSH2 0x34C0 JUMPI RETURNDATASIZE PUSH1 0x0 DUP1 RETURNDATACOPY RETURNDATASIZE PUSH1 0x0 REVERT JUMPDEST POP POP POP POP PUSH1 0x40 MLOAD RETURNDATASIZE PUSH1 0x1F NOT PUSH1 0x1F DUP3 ADD AND DUP3 ADD DUP1 PUSH1 0x40 MSTORE POP DUP2 ADD SWAP1 PUSH2 0x1757 SWAP2 SWAP1 PUSH2 0x44EE JUMP JUMPDEST PUSH1 0x1 PUSH1 0x1 PUSH1 0xA0 SHL SUB DUP3 AND PUSH2 0x353A JUMPI PUSH1 0x40 MLOAD PUSH3 0x461BCD PUSH1 0xE5 SHL DUP2 MSTORE PUSH1 0x20 PUSH1 0x4 DUP3 ADD DUP2 SWAP1 MSTORE PUSH1 0x24 DUP3 ADD MSTORE PUSH32 0x4552433732313A206D696E7420746F20746865207A65726F2061646472657373 PUSH1 0x44 DUP3 ADD MSTORE PUSH1 0x64 ADD PUSH2 0xA54 JUMP JUMPDEST PUSH1 0x0 DUP2 DUP2 MSTORE PUSH1 0x99 PUSH1 0x20 MSTORE PUSH1 0x40 SWAP1 KECCAK256 SLOAD PUSH1 0x1 PUSH1 0x1 PUSH1 0xA0 SHL SUB AND ISZERO PUSH2 0x359F JUMPI PUSH1 0x40 MLOAD PUSH3 0x461BCD PUSH1 0xE5 SHL DUP2 MSTORE PUSH1 0x20 PUSH1 0x4 DUP3 ADD MSTORE PUSH1 0x1C PUSH1 0x24 DUP3 ADD MSTORE PUSH32 0x4552433732313A20746F6B656E20616C7265616479206D696E74656400000000 PUSH1 0x44 DUP3 ADD MSTORE PUSH1 0x64 ADD PUSH2 0xA54 JUMP JUMPDEST PUSH1 0x0 DUP2 DUP2 MSTORE PUSH1 0x99 PUSH1 0x20 MSTORE PUSH1 0x40 SWAP1 KECCAK256 SLOAD PUSH1 0x1 PUSH1 0x1 PUSH1 0xA0 SHL SUB AND ISZERO PUSH2 0x3604 JUMPI PUSH1 0x40 MLOAD PUSH3 0x461BCD PUSH1 0xE5 SHL DUP2 MSTORE PUSH1 0x20 PUSH1 0x4 DUP3 ADD MSTORE PUSH1 0x1C PUSH1 0x24 DUP3 ADD MSTORE PUSH32 0x4552433732313A20746F6B656E20616C7265616479206D696E74656400000000 PUSH1 0x44 DUP3 ADD MSTORE PUSH1 0x64 ADD PUSH2 0xA54 JUMP JUMPDEST PUSH1 0x1 PUSH1 0x1 PUSH1 0xA0 SHL SUB DUP3 AND PUSH1 0x0 DUP2 DUP2 MSTORE PUSH1 0x9A PUSH1 0x20 SWAP1 DUP2 MSTORE PUSH1 0x40 DUP1 DUP4 KECCAK256 DUP1 SLOAD PUSH1 0x1 ADD SWAP1 SSTORE DUP5 DUP4 MSTORE PUSH1 0x99 SWAP1 SWAP2 MSTORE DUP1 DUP3 KECCAK256 DUP1 SLOAD PUSH20 0xFFFFFFFFFFFFFFFFFFFFFFFFFFFFFFFFFFFFFFFF NOT AND DUP5 OR SWAP1 SSTORE MLOAD DUP4 SWAP3 SWAP2 SWAP1 PUSH32 0xDDF252AD1BE2C89B69C2B068FC378DAA952BA7F163C4A11628F55A4DF523B3EF SWAP1 DUP3 SWAP1 LOG4 POP POP JUMP JUMPDEST PUSH1 0x0 SLOAD PUSH2 0x100 SWAP1 DIV PUSH1 0xFF AND PUSH2 0x2709 JUMPI PUSH1 0x40 MLOAD PUSH3 0x461BCD PUSH1 0xE5 SHL DUP2 MSTORE PUSH1 0x20 PUSH1 0x4 DUP3 ADD MSTORE PUSH1 0x2B PUSH1 0x24 DUP3 ADD MSTORE PUSH32 0x496E697469616C697A61626C653A20636F6E7472616374206973206E6F742069 PUSH1 0x44 DUP3 ADD MSTORE PUSH11 0x6E697469616C697A696E67 PUSH1 0xA8 SHL PUSH1 0x64 DUP3 ADD MSTORE PUSH1 0x84 ADD PUSH2 0xA54 JUMP JUMPDEST PUSH1 0x0 SLOAD PUSH2 0x100 SWAP1 DIV PUSH1 0xFF AND PUSH2 0x3752 JUMPI PUSH1 0x40 MLOAD PUSH3 0x461BCD PUSH1 0xE5 SHL DUP2 MSTORE PUSH1 0x20 PUSH1 0x4 DUP3 ADD MSTORE PUSH1 0x2B PUSH1 0x24 DUP3 ADD MSTORE PUSH32 0x496E697469616C697A61626C653A20636F6E7472616374206973206E6F742069 PUSH1 0x44 DUP3 ADD MSTORE PUSH11 0x6E697469616C697A696E67 PUSH1 0xA8 SHL PUSH1 0x64 DUP3 ADD MSTORE PUSH1 0x84 ADD PUSH2 0xA54 JUMP JUMPDEST PUSH1 0x97 PUSH2 0x375E DUP4 DUP3 PUSH2 0x45BE JUMP JUMPDEST POP PUSH1 0x98 PUSH2 0x455 DUP3 DUP3 PUSH2 0x45BE JUMP JUMPDEST PUSH1 0x0 SLOAD PUSH2 0x100 SWAP1 DIV PUSH1 0xFF AND PUSH2 0x37D6 JUMPI PUSH1 0x40 MLOAD PUSH3 0x461BCD PUSH1 0xE5 SHL DUP2 MSTORE PUSH1 0x20 PUSH1 0x4 DUP3 ADD MSTORE PUSH1 0x2B PUSH1 0x24 DUP3 ADD MSTORE PUSH32 0x496E697469616C697A61626C653A20636F6E7472616374206973206E6F742069 PUSH1 0x44 DUP3 ADD MSTORE PUSH11 0x6E697469616C697A696E67 PUSH1 0xA8 SHL PUSH1 0x64 DUP3 ADD MSTORE PUSH1 0x84 ADD PUSH2 0xA54 JUMP JUMPDEST PUSH2 0x169A CALLER PUSH2 0x3194 JUMP JUMPDEST PUSH1 0x0 PUSH2 0x3834 DUP3 PUSH1 0x40 MLOAD DUP1 PUSH1 0x40 ADD PUSH1 0x40 MSTORE DUP1 PUSH1 0x20 DUP2 MSTORE PUSH1 0x20 ADD PUSH32 0x5361666545524332303A206C6F772D6C6576656C2063616C6C206661696C6564 DUP2 MSTORE POP DUP6 PUSH1 0x1 PUSH1 0x1 PUSH1 0xA0 SHL SUB AND PUSH2 0x3DDF SWAP1 SWAP3 SWAP2 SWAP1 PUSH4 0xFFFFFFFF AND JUMP JUMPDEST SWAP1 POP DUP1 MLOAD PUSH1 0x0 EQ DUP1 PUSH2 0x3855 JUMPI POP DUP1 DUP1 PUSH1 0x20 ADD SWAP1 MLOAD DUP2 ADD SWAP1 PUSH2 0x3855 SWAP2 SWAP1 PUSH2 0x467E JUMP JUMPDEST PUSH2 0x455 JUMPI PUSH1 0x40 MLOAD PUSH3 0x461BCD PUSH1 0xE5 SHL DUP2 MSTORE PUSH1 0x20 PUSH1 0x4 DUP3 ADD MSTORE PUSH1 0x2A PUSH1 0x24 DUP3 ADD MSTORE PUSH32 0x5361666545524332303A204552433230206F7065726174696F6E20646964206E PUSH1 0x44 DUP3 ADD MSTORE PUSH32 0x6F74207375636365656400000000000000000000000000000000000000000000 PUSH1 0x64 DUP3 ADD MSTORE PUSH1 0x84 ADD PUSH2 0xA54 JUMP JUMPDEST PUSH1 0xC9 DUP1 SLOAD PUSH1 0x1 PUSH1 0x1 PUSH1 0xA0 SHL SUB DUP4 DUP2 AND PUSH20 0xFFFFFFFFFFFFFFFFFFFFFFFFFFFFFFFFFFFFFFFF NOT DUP4 AND DUP2 OR SWAP1 SWAP4 SSTORE PUSH1 0x40 MLOAD SWAP2 AND SWAP2 SWAP1 DUP3 SWAP1 PUSH32 0x8BE0079C531659141344CD1FD0A4F28419497F9722A3DAAFE3B4186F6B6457E0 SWAP1 PUSH1 0x0 SWAP1 LOG3 POP POP JUMP JUMPDEST DUP3 PUSH1 0x1 PUSH1 0x1 PUSH1 0xA0 SHL SUB AND PUSH2 0x3939 DUP3 PUSH2 0x130F JUMP JUMPDEST PUSH1 0x1 PUSH1 0x1 PUSH1 0xA0 SHL SUB AND EQ PUSH2 0x39B5 JUMPI PUSH1 0x40 MLOAD PUSH3 0x461BCD PUSH1 0xE5 SHL DUP2 MSTORE PUSH1 0x20 PUSH1 0x4 DUP3 ADD MSTORE PUSH1 0x25 PUSH1 0x24 DUP3 ADD MSTORE PUSH32 0x4552433732313A207472616E736665722066726F6D20696E636F727265637420 PUSH1 0x44 DUP3 ADD MSTORE PUSH32 0x6F776E6572000000000000000000000000000000000000000000000000000000 PUSH1 0x64 DUP3 ADD MSTORE PUSH1 0x84 ADD PUSH2 0xA54 JUMP JUMPDEST PUSH1 0x1 PUSH1 0x1 PUSH1 0xA0 SHL SUB DUP3 AND PUSH2 0x3A30 JUMPI PUSH1 0x40 MLOAD PUSH3 0x461BCD PUSH1 0xE5 SHL DUP2 MSTORE PUSH1 0x20 PUSH1 0x4 DUP3 ADD MSTORE PUSH1 0x24 DUP1 DUP3 ADD MSTORE PUSH32 0x4552433732313A207472616E7366657220746F20746865207A65726F20616464 PUSH1 0x44 DUP3 ADD MSTORE PUSH32 0x7265737300000000000000000000000000000000000000000000000000000000 PUSH1 0x64 DUP3 ADD MSTORE PUSH1 0x84 ADD PUSH2 0xA54 JUMP JUMPDEST DUP3 PUSH1 0x1 PUSH1 0x1 PUSH1 0xA0 SHL SUB AND PUSH2 0x3A43 DUP3 PUSH2 0x130F JUMP JUMPDEST PUSH1 0x1 PUSH1 0x1 PUSH1 0xA0 SHL SUB AND EQ PUSH2 0x3ABF JUMPI PUSH1 0x40 MLOAD PUSH3 0x461BCD PUSH1 0xE5 SHL DUP2 MSTORE PUSH1 0x20 PUSH1 0x4 DUP3 ADD MSTORE PUSH1 0x25 PUSH1 0x24 DUP3 ADD MSTORE PUSH32 0x4552433732313A207472616E736665722066726F6D20696E636F727265637420 PUSH1 0x44 DUP3 ADD MSTORE PUSH32 0x6F776E6572000000000000000000000000000000000000000000000000000000 PUSH1 0x64 DUP3 ADD MSTORE PUSH1 0x84 ADD PUSH2 0xA54 JUMP JUMPDEST PUSH1 0x0 DUP2 DUP2 MSTORE PUSH1 0x9B PUSH1 0x20 SWAP1 DUP2 MSTORE PUSH1 0x40 DUP1 DUP4 KECCAK256 DUP1 SLOAD PUSH20 0xFFFFFFFFFFFFFFFFFFFFFFFFFFFFFFFFFFFFFFFF NOT SWAP1 DUP2 AND SWAP1 SWAP2 SSTORE PUSH1 0x1 PUSH1 0x1 PUSH1 0xA0 SHL SUB DUP8 DUP2 AND DUP1 DUP7 MSTORE PUSH1 0x9A DUP6 MSTORE DUP4 DUP7 KECCAK256 DUP1 SLOAD PUSH1 0x0 NOT ADD SWAP1 SSTORE SWAP1 DUP8 AND DUP1 DUP7 MSTORE DUP4 DUP7 KECCAK256 DUP1 SLOAD PUSH1 0x1 ADD SWAP1 SSTORE DUP7 DUP7 MSTORE PUSH1 0x99 SWAP1 SWAP5 MSTORE DUP3 DUP6 KECCAK256 DUP1 SLOAD SWAP1 SWAP3 AND DUP5 OR SWAP1 SWAP2 SSTORE SWAP1 MLOAD DUP5 SWAP4 PUSH32 0xDDF252AD1BE2C89B69C2B068FC378DAA952BA7F163C4A11628F55A4DF523B3EF SWAP2 LOG4 POP POP POP JUMP JUMPDEST PUSH1 0x0 PUSH1 0x1 PUSH1 0x1 PUSH1 0xA0 SHL SUB DUP5 AND EXTCODESIZE ISZERO PUSH2 0x3CF2 JUMPI PUSH1 0x40 MLOAD PUSH32 0x150B7A0200000000000000000000000000000000000000000000000000000000 DUP2 MSTORE PUSH1 0x1 PUSH1 0x1 PUSH1 0xA0 SHL SUB DUP6 AND SWAP1 PUSH4 0x150B7A02 SWAP1 PUSH2 0x3BB9 SWAP1 CALLER SWAP1 DUP10 SWAP1 DUP9 SWAP1 DUP9 SWAP1 PUSH1 0x4 ADD PUSH2 0x469B JUMP JUMPDEST PUSH1 0x20 PUSH1 0x40 MLOAD DUP1 DUP4 SUB DUP2 PUSH1 0x0 DUP8 GAS CALL SWAP3 POP POP POP DUP1 ISZERO PUSH2 0x3BF4 JUMPI POP PUSH1 0x40 DUP1 MLOAD PUSH1 0x1F RETURNDATASIZE SWAP1 DUP2 ADD PUSH1 0x1F NOT AND DUP3 ADD SWAP1 SWAP3 MSTORE PUSH2 0x3BF1 SWAP2 DUP2 ADD SWAP1 PUSH2 0x46D7 JUMP JUMPDEST PUSH1 0x1 JUMPDEST PUSH2 0x3CA7 JUMPI RETURNDATASIZE DUP1 DUP1 ISZERO PUSH2 0x3C22 JUMPI PUSH1 0x40 MLOAD SWAP2 POP PUSH1 0x1F NOT PUSH1 0x3F RETURNDATASIZE ADD AND DUP3 ADD PUSH1 0x40 MSTORE RETURNDATASIZE DUP3 MSTORE RETURNDATASIZE PUSH1 0x0 PUSH1 0x20 DUP5 ADD RETURNDATACOPY PUSH2 0x3C27 JUMP JUMPDEST PUSH1 0x60 SWAP2 POP JUMPDEST POP DUP1 MLOAD PUSH1 0x0 SUB PUSH2 0x3C9F JUMPI PUSH1 0x40 MLOAD PUSH3 0x461BCD PUSH1 0xE5 SHL DUP2 MSTORE PUSH1 0x20 PUSH1 0x4 DUP3 ADD MSTORE PUSH1 0x32 PUSH1 0x24 DUP3 ADD MSTORE PUSH32 0x4552433732313A207472616E7366657220746F206E6F6E204552433732315265 PUSH1 0x44 DUP3 ADD MSTORE PUSH32 0x63656976657220696D706C656D656E7465720000000000000000000000000000 PUSH1 0x64 DUP3 ADD MSTORE PUSH1 0x84 ADD PUSH2 0xA54 JUMP JUMPDEST DUP1 MLOAD DUP2 PUSH1 0x20 ADD REVERT JUMPDEST PUSH32 0xFFFFFFFF00000000000000000000000000000000000000000000000000000000 AND PUSH32 0x150B7A0200000000000000000000000000000000000000000000000000000000 EQ SWAP1 POP PUSH2 0x328A JUMP JUMPDEST POP PUSH1 0x1 SWAP5 SWAP4 POP POP POP POP JUMP JUMPDEST PUSH1 0x0 DUP1 PUSH27 0x184F03E93FF9F4DAA797ED6E38ED64BF6A1F010000000000000000 DUP4 LT PUSH2 0x3D46 JUMPI PUSH27 0x184F03E93FF9F4DAA797ED6E38ED64BF6A1F010000000000000000 DUP4 DIV SWAP3 POP PUSH1 0x40 ADD JUMPDEST PUSH14 0x4EE2D6D415B85ACEF8100000000 DUP4 LT PUSH2 0x3D72 JUMPI PUSH14 0x4EE2D6D415B85ACEF8100000000 DUP4 DIV SWAP3 POP PUSH1 0x20 ADD JUMPDEST PUSH7 0x2386F26FC10000 DUP4 LT PUSH2 0x3D90 JUMPI PUSH7 0x2386F26FC10000 DUP4 DIV SWAP3 POP PUSH1 0x10 ADD JUMPDEST PUSH4 0x5F5E100 DUP4 LT PUSH2 0x3DA8 JUMPI PUSH4 0x5F5E100 DUP4 DIV SWAP3 POP PUSH1 0x8 ADD JUMPDEST PUSH2 0x2710 DUP4 LT PUSH2 0x3DBC JUMPI PUSH2 0x2710 DUP4 DIV SWAP3 POP PUSH1 0x4 ADD JUMPDEST PUSH1 0x64 DUP4 LT PUSH2 0x3DCE JUMPI PUSH1 0x64 DUP4 DIV SWAP3 POP PUSH1 0x2 ADD JUMPDEST PUSH1 0xA DUP4 LT PUSH2 0x905 JUMPI PUSH1 0x1 ADD SWAP3 SWAP2 POP POP JUMP JUMPDEST PUSH1 0x60 PUSH2 0x328A DUP5 DUP5 PUSH1 0x0 DUP6 DUP6 PUSH1 0x0 DUP1 DUP7 PUSH1 0x1 PUSH1 0x1 PUSH1 0xA0 SHL SUB AND DUP6 DUP8 PUSH1 0x40 MLOAD PUSH2 0x3E06 SWAP2 SWAP1 PUSH2 0x46F4 JUMP JUMPDEST PUSH1 0x0 PUSH1 0x40 MLOAD DUP1 DUP4 SUB DUP2 DUP6 DUP8 GAS CALL SWAP3 POP POP POP RETURNDATASIZE DUP1 PUSH1 0x0 DUP2 EQ PUSH2 0x3E43 JUMPI PUSH1 0x40 MLOAD SWAP2 POP PUSH1 0x1F NOT PUSH1 0x3F RETURNDATASIZE ADD AND DUP3 ADD PUSH1 0x40 MSTORE RETURNDATASIZE DUP3 MSTORE RETURNDATASIZE PUSH1 0x0 PUSH1 0x20 DUP5 ADD RETURNDATACOPY PUSH2 0x3E48 JUMP JUMPDEST PUSH1 0x60 SWAP2 POP JUMPDEST POP SWAP2 POP SWAP2 POP PUSH2 0x3E59 DUP8 DUP4 DUP4 DUP8 PUSH2 0x3E64 JUMP JUMPDEST SWAP8 SWAP7 POP POP POP POP POP POP POP JUMP JUMPDEST PUSH1 0x60 DUP4 ISZERO PUSH2 0x3ED3 JUMPI DUP3 MLOAD PUSH1 0x0 SUB PUSH2 0x3ECC JUMPI PUSH1 0x1 PUSH1 0x1 PUSH1 0xA0 SHL SUB DUP6 AND EXTCODESIZE PUSH2 0x3ECC JUMPI PUSH1 0x40 MLOAD PUSH3 0x461BCD PUSH1 0xE5 SHL DUP2 MSTORE PUSH1 0x20 PUSH1 0x4 DUP3 ADD MSTORE PUSH1 0x1D PUSH1 0x24 DUP3 ADD MSTORE PUSH32 0x416464726573733A2063616C6C20746F206E6F6E2D636F6E7472616374000000 PUSH1 0x44 DUP3 ADD MSTORE PUSH1 0x64 ADD PUSH2 0xA54 JUMP JUMPDEST POP DUP2 PUSH2 0x328A JUMP JUMPDEST PUSH2 0x328A DUP4 DUP4 DUP2 MLOAD ISZERO PUSH2 0x3EE8 JUMPI DUP2 MLOAD DUP1 DUP4 PUSH1 0x20 ADD REVERT JUMPDEST DUP1 PUSH1 0x40 MLOAD PUSH3 0x461BCD PUSH1 0xE5 SHL DUP2 MSTORE PUSH1 0x4 ADD PUSH2 0xA54 SWAP2 SWAP1 PUSH2 0x3F9D JUMP JUMPDEST PUSH32 0xFFFFFFFF00000000000000000000000000000000000000000000000000000000 DUP2 AND DUP2 EQ PUSH2 0x130C JUMPI PUSH1 0x0 DUP1 REVERT JUMPDEST PUSH1 0x0 PUSH1 0x20 DUP3 DUP5 SUB SLT ISZERO PUSH2 0x3F42 JUMPI PUSH1 0x0 DUP1 REVERT JUMPDEST DUP2 CALLDATALOAD PUSH2 0x1049 DUP2 PUSH2 0x3F02 JUMP JUMPDEST PUSH1 0x0 JUMPDEST DUP4 DUP2 LT ISZERO PUSH2 0x3F68 JUMPI DUP2 DUP2 ADD MLOAD DUP4 DUP3 ADD MSTORE PUSH1 0x20 ADD PUSH2 0x3F50 JUMP JUMPDEST POP POP PUSH1 0x0 SWAP2 ADD MSTORE JUMP JUMPDEST PUSH1 0x0 DUP2 MLOAD DUP1 DUP5 MSTORE PUSH2 0x3F89 DUP2 PUSH1 0x20 DUP7 ADD PUSH1 0x20 DUP7 ADD PUSH2 0x3F4D JUMP JUMPDEST PUSH1 0x1F ADD PUSH1 0x1F NOT AND SWAP3 SWAP1 SWAP3 ADD PUSH1 0x20 ADD SWAP3 SWAP2 POP POP JUMP JUMPDEST PUSH1 0x20 DUP2 MSTORE PUSH1 0x0 PUSH2 0x1049 PUSH1 0x20 DUP4 ADD DUP5 PUSH2 0x3F71 JUMP JUMPDEST PUSH1 0x0 PUSH1 0x20 DUP3 DUP5 SUB SLT ISZERO PUSH2 0x3FC2 JUMPI PUSH1 0x0 DUP1 REVERT JUMPDEST POP CALLDATALOAD SWAP2 SWAP1 POP JUMP JUMPDEST DUP1 CALLDATALOAD PUSH1 0x1 PUSH1 0x1 PUSH1 0xA0 SHL SUB DUP2 AND DUP2 EQ PUSH2 0xBCC JUMPI PUSH1 0x0 DUP1 REVERT JUMPDEST PUSH1 0x0 DUP1 PUSH1 0x40 DUP4 DUP6 SUB SLT ISZERO PUSH2 0x3FF3 JUMPI PUSH1 0x0 DUP1 REVERT JUMPDEST PUSH2 0x3FFC DUP4 PUSH2 0x3FC9 JUMP JUMPDEST SWAP5 PUSH1 0x20 SWAP4 SWAP1 SWAP4 ADD CALLDATALOAD SWAP4 POP POP POP JUMP JUMPDEST PUSH1 0x0 DUP1 PUSH1 0x0 PUSH1 0x60 DUP5 DUP7 SUB SLT ISZERO PUSH2 0x401F JUMPI PUSH1 0x0 DUP1 REVERT JUMPDEST PUSH2 0x4028 DUP5 PUSH2 0x3FC9 JUMP JUMPDEST SWAP3 POP PUSH2 0x4036 PUSH1 0x20 DUP6 ADD PUSH2 0x3FC9 JUMP JUMPDEST SWAP2 POP PUSH1 0x40 DUP5 ADD CALLDATALOAD SWAP1 POP SWAP3 POP SWAP3 POP SWAP3 JUMP JUMPDEST PUSH1 0x0 DUP1 DUP4 PUSH1 0x1F DUP5 ADD SLT PUSH2 0x4058 JUMPI PUSH1 0x0 DUP1 REVERT JUMPDEST POP DUP2 CALLDATALOAD PUSH8 0xFFFFFFFFFFFFFFFF DUP2 GT ISZERO PUSH2 0x4070 JUMPI PUSH1 0x0 DUP1 REVERT JUMPDEST PUSH1 0x20 DUP4 ADD SWAP2 POP DUP4 PUSH1 0x20 DUP3 PUSH1 0x5 SHL DUP6 ADD ADD GT ISZERO PUSH2 0x408B JUMPI PUSH1 0x0 DUP1 REVERT JUMPDEST SWAP3 POP SWAP3 SWAP1 POP JUMP JUMPDEST PUSH1 0x0 DUP1 PUSH1 0x20 DUP4 DUP6 SUB SLT ISZERO PUSH2 0x40A5 JUMPI PUSH1 0x0 DUP1 REVERT JUMPDEST DUP3 CALLDATALOAD PUSH8 0xFFFFFFFFFFFFFFFF DUP2 GT ISZERO PUSH2 0x40BC JUMPI PUSH1 0x0 DUP1 REVERT JUMPDEST PUSH2 0x40C8 DUP6 DUP3 DUP7 ADD PUSH2 0x4046 JUMP JUMPDEST SWAP1 SWAP7 SWAP1 SWAP6 POP SWAP4 POP POP POP POP JUMP JUMPDEST PUSH1 0x0 PUSH1 0x20 DUP3 DUP5 SUB SLT ISZERO PUSH2 0x40E6 JUMPI PUSH1 0x0 DUP1 REVERT JUMPDEST PUSH2 0x1049 DUP3 PUSH2 0x3FC9 JUMP JUMPDEST PUSH1 0x0 DUP1 PUSH1 0x40 DUP4 DUP6 SUB SLT ISZERO PUSH2 0x4102 JUMPI PUSH1 0x0 DUP1 REVERT JUMPDEST PUSH2 0x410B DUP4 PUSH2 0x3FC9 JUMP JUMPDEST SWAP2 POP PUSH2 0x4119 PUSH1 0x20 DUP5 ADD PUSH2 0x3FC9 JUMP JUMPDEST SWAP1 POP SWAP3 POP SWAP3 SWAP1 POP JUMP JUMPDEST PUSH1 0x0 DUP2 MLOAD DUP1 DUP5 MSTORE PUSH1 0x20 DUP1 DUP6 ADD SWAP5 POP DUP1 DUP5 ADD PUSH1 0x0 JUMPDEST DUP4 DUP2 LT ISZERO PUSH2 0x4152 JUMPI DUP2 MLOAD DUP8 MSTORE SWAP6 DUP3 ADD SWAP6 SWAP1 DUP3 ADD SWAP1 PUSH1 0x1 ADD PUSH2 0x4136 JUMP JUMPDEST POP SWAP5 SWAP6 SWAP5 POP POP POP POP POP JUMP JUMPDEST DUP3 DUP2 MSTORE PUSH1 0x40 PUSH1 0x20 DUP3 ADD MSTORE PUSH1 0x0 PUSH2 0x328A PUSH1 0x40 DUP4 ADD DUP5 PUSH2 0x4122 JUMP JUMPDEST DUP1 MLOAD DUP3 MSTORE PUSH1 0x20 DUP2 ADD MLOAD PUSH2 0x4194 PUSH1 0x20 DUP5 ADD DUP3 PUSH1 0x1 PUSH1 0x1 PUSH1 0xA0 SHL SUB AND SWAP1 MSTORE JUMP JUMPDEST POP PUSH1 0x40 DUP2 ADD MLOAD PUSH1 0x40 DUP4 ADD MSTORE PUSH1 0x60 DUP2 ADD MLOAD PUSH1 0x60 DUP4 ADD MSTORE PUSH1 0x80 DUP2 ADD MLOAD PUSH1 0x80 DUP4 ADD MSTORE PUSH1 0xA0 DUP2 ADD MLOAD PUSH1 0xA0 DUP4 ADD MSTORE PUSH1 0xC0 DUP2 ADD MLOAD PUSH1 0xC0 DUP4 ADD MSTORE PUSH1 0xE0 DUP2 ADD MLOAD PUSH1 0xE0 DUP4 ADD MSTORE PUSH2 0x100 DUP1 DUP3 ADD MLOAD DUP2 DUP5 ADD MSTORE POP PUSH2 0x120 DUP1 DUP3 ADD MLOAD DUP2 DUP5 ADD MSTORE POP PUSH2 0x140 DUP1 DUP3 ADD MLOAD DUP2 DUP5 ADD MSTORE POP POP POP JUMP JUMPDEST PUSH2 0x160 DUP2 ADD PUSH2 0x905 DUP3 DUP5 PUSH2 0x4176 JUMP JUMPDEST PUSH1 0x0 DUP1 PUSH1 0x0 PUSH1 0x40 DUP5 DUP7 SUB SLT ISZERO PUSH2 0x421D JUMPI PUSH1 0x0 DUP1 REVERT JUMPDEST DUP4 CALLDATALOAD SWAP3 POP PUSH1 0x20 DUP5 ADD CALLDATALOAD PUSH8 0xFFFFFFFFFFFFFFFF DUP2 GT ISZERO PUSH2 0x423B JUMPI PUSH1 0x0 DUP1 REVERT JUMPDEST PUSH2 0x4247 DUP7 DUP3 DUP8 ADD PUSH2 0x4046 JUMP JUMPDEST SWAP5 SWAP8 SWAP1 SWAP7 POP SWAP4 SWAP5 POP POP POP POP JUMP JUMPDEST PUSH1 0x20 DUP2 MSTORE PUSH1 0x0 PUSH2 0x1049 PUSH1 0x20 DUP4 ADD DUP5 PUSH2 0x4122 JUMP JUMPDEST PUSH1 0x0 DUP1 PUSH1 0x40 DUP4 DUP6 SUB SLT ISZERO PUSH2 0x427A JUMPI PUSH1 0x0 DUP1 REVERT JUMPDEST POP POP DUP1 CALLDATALOAD SWAP3 PUSH1 0x20 SWAP1 SWAP2 ADD CALLDATALOAD SWAP2 POP JUMP JUMPDEST PUSH1 0x20 DUP1 DUP3 MSTORE DUP3 MLOAD DUP3 DUP3 ADD DUP2 SWAP1 MSTORE PUSH1 0x0 SWAP2 SWAP1 DUP5 DUP3 ADD SWAP1 PUSH1 0x40 DUP6 ADD SWAP1 DUP5 JUMPDEST DUP2 DUP2 LT ISZERO PUSH2 0x42CC JUMPI PUSH2 0x42B8 DUP4 DUP6 MLOAD PUSH2 0x4176 JUMP JUMPDEST SWAP3 DUP5 ADD SWAP3 PUSH2 0x160 SWAP3 SWAP1 SWAP3 ADD SWAP2 PUSH1 0x1 ADD PUSH2 0x42A5 JUMP JUMPDEST POP SWAP1 SWAP7 SWAP6 POP POP POP POP POP POP JUMP JUMPDEST DUP1 ISZERO ISZERO DUP2 EQ PUSH2 0x130C JUMPI PUSH1 0x0 DUP1 REVERT JUMPDEST PUSH1 0x0 DUP1 PUSH1 0x40 DUP4 DUP6 SUB SLT ISZERO PUSH2 0x42F9 JUMPI PUSH1 0x0 DUP1 REVERT JUMPDEST PUSH2 0x4302 DUP4 PUSH2 0x3FC9 JUMP JUMPDEST SWAP2 POP PUSH1 0x20 DUP4 ADD CALLDATALOAD PUSH2 0x4312 DUP2 PUSH2 0x42D8 JUMP JUMPDEST DUP1 SWAP2 POP POP SWAP3 POP SWAP3 SWAP1 POP JUMP JUMPDEST PUSH4 0x4E487B71 PUSH1 0xE0 SHL PUSH1 0x0 MSTORE PUSH1 0x41 PUSH1 0x4 MSTORE PUSH1 0x24 PUSH1 0x0 REVERT JUMPDEST PUSH1 0x0 DUP1 PUSH1 0x0 DUP1 PUSH1 0x80 DUP6 DUP8 SUB SLT ISZERO PUSH2 0x4349 JUMPI PUSH1 0x0 DUP1 REVERT JUMPDEST PUSH2 0x4352 DUP6 PUSH2 0x3FC9 JUMP JUMPDEST SWAP4 POP PUSH2 0x4360 PUSH1 0x20 DUP7 ADD PUSH2 0x3FC9 JUMP JUMPDEST SWAP3 POP PUSH1 0x40 DUP6 ADD CALLDATALOAD SWAP2 POP PUSH1 0x60 DUP6 ADD CALLDATALOAD PUSH8 0xFFFFFFFFFFFFFFFF DUP1 DUP3 GT ISZERO PUSH2 0x4384 JUMPI PUSH1 0x0 DUP1 REVERT JUMPDEST DUP2 DUP8 ADD SWAP2 POP DUP8 PUSH1 0x1F DUP4 ADD SLT PUSH2 0x4398 JUMPI PUSH1 0x0 DUP1 REVERT JUMPDEST DUP2 CALLDATALOAD DUP2 DUP2 GT ISZERO PUSH2 0x43AA JUMPI PUSH2 0x43AA PUSH2 0x431D JUMP JUMPDEST PUSH1 0x40 MLOAD PUSH1 0x1F DUP3 ADD PUSH1 0x1F NOT SWAP1 DUP2 AND PUSH1 0x3F ADD AND DUP2 ADD SWAP1 DUP4 DUP3 GT DUP2 DUP4 LT OR ISZERO PUSH2 0x43D2 JUMPI PUSH2 0x43D2 PUSH2 0x431D JUMP JUMPDEST DUP2 PUSH1 0x40 MSTORE DUP3 DUP2 MSTORE DUP11 PUSH1 0x20 DUP5 DUP8 ADD ADD GT ISZERO PUSH2 0x43EB JUMPI PUSH1 0x0 DUP1 REVERT JUMPDEST DUP3 PUSH1 0x20 DUP7 ADD PUSH1 0x20 DUP4 ADD CALLDATACOPY PUSH1 0x0 PUSH1 0x20 DUP5 DUP4 ADD ADD MSTORE DUP1 SWAP6 POP POP POP POP POP POP SWAP3 SWAP6 SWAP2 SWAP5 POP SWAP3 POP JUMP JUMPDEST PUSH1 0x1 DUP2 DUP2 SHR SWAP1 DUP3 AND DUP1 PUSH2 0x4423 JUMPI PUSH1 0x7F DUP3 AND SWAP2 POP JUMPDEST PUSH1 0x20 DUP3 LT DUP2 SUB PUSH2 0x4443 JUMPI PUSH4 0x4E487B71 PUSH1 0xE0 SHL PUSH1 0x0 MSTORE PUSH1 0x22 PUSH1 0x4 MSTORE PUSH1 0x24 PUSH1 0x0 REVERT JUMPDEST POP SWAP2 SWAP1 POP JUMP JUMPDEST PUSH4 0x4E487B71 PUSH1 0xE0 SHL PUSH1 0x0 MSTORE PUSH1 0x11 PUSH1 0x4 MSTORE PUSH1 0x24 PUSH1 0x0 REVERT JUMPDEST DUP2 DUP2 SUB DUP2 DUP2 GT ISZERO PUSH2 0x905 JUMPI PUSH2 0x905 PUSH2 0x4449 JUMP JUMPDEST DUP1 DUP3 MUL DUP2 ISZERO DUP3 DUP3 DIV DUP5 EQ OR PUSH2 0x905 JUMPI PUSH2 0x905 PUSH2 0x4449 JUMP JUMPDEST PUSH1 0x0 DUP3 PUSH2 0x44A6 JUMPI PUSH4 0x4E487B71 PUSH1 0xE0 SHL PUSH1 0x0 MSTORE PUSH1 0x12 PUSH1 0x4 MSTORE PUSH1 0x24 PUSH1 0x0 REVERT JUMPDEST POP DIV SWAP1 JUMP JUMPDEST DUP1 DUP3 ADD DUP1 DUP3 GT ISZERO PUSH2 0x905 JUMPI PUSH2 0x905 PUSH2 0x4449 JUMP JUMPDEST PUSH4 0x4E487B71 PUSH1 0xE0 SHL PUSH1 0x0 MSTORE PUSH1 0x32 PUSH1 0x4 MSTORE PUSH1 0x24 PUSH1 0x0 REVERT JUMPDEST PUSH1 0x0 PUSH1 0x0 NOT DUP3 SUB PUSH2 0x44E7 JUMPI PUSH2 0x44E7 PUSH2 0x4449 JUMP JUMPDEST POP PUSH1 0x1 ADD SWAP1 JUMP JUMPDEST PUSH1 0x0 PUSH1 0x20 DUP3 DUP5 SUB SLT ISZERO PUSH2 0x4500 JUMPI PUSH1 0x0 DUP1 REVERT JUMPDEST POP MLOAD SWAP2 SWAP1 POP JUMP JUMPDEST PUSH1 0x0 PUSH32 0x7FFFFFFFFFFFFFFFFFFFFFFFFFFFFFFFFFFFFFFFFFFFFFFFFFFFFFFFFFFFFFF DUP4 GT ISZERO PUSH2 0x4536 JUMPI PUSH1 0x0 DUP1 REVERT JUMPDEST DUP3 PUSH1 0x5 SHL DUP1 DUP6 DUP5 CALLDATACOPY SWAP2 SWAP1 SWAP2 ADD SWAP4 SWAP3 POP POP POP JUMP JUMPDEST PUSH1 0x0 DUP4 MLOAD PUSH2 0x455B DUP2 DUP5 PUSH1 0x20 DUP9 ADD PUSH2 0x3F4D JUMP JUMPDEST DUP4 MLOAD SWAP1 DUP4 ADD SWAP1 PUSH2 0x456F DUP2 DUP4 PUSH1 0x20 DUP9 ADD PUSH2 0x3F4D JUMP JUMPDEST ADD SWAP5 SWAP4 POP POP POP POP JUMP JUMPDEST PUSH1 0x1F DUP3 GT ISZERO PUSH2 0x455 JUMPI PUSH1 0x0 DUP2 DUP2 MSTORE PUSH1 0x20 DUP2 KECCAK256 PUSH1 0x1F DUP6 ADD PUSH1 0x5 SHR DUP2 ADD PUSH1 0x20 DUP7 LT ISZERO PUSH2 0x459F JUMPI POP DUP1 JUMPDEST PUSH1 0x1F DUP6 ADD PUSH1 0x5 SHR DUP3 ADD SWAP2 POP JUMPDEST DUP2 DUP2 LT ISZERO PUSH2 0x15F0 JUMPI DUP3 DUP2 SSTORE PUSH1 0x1 ADD PUSH2 0x45AB JUMP JUMPDEST DUP2 MLOAD PUSH8 0xFFFFFFFFFFFFFFFF DUP2 GT ISZERO PUSH2 0x45D8 JUMPI PUSH2 0x45D8 PUSH2 0x431D JUMP JUMPDEST PUSH2 0x45EC DUP2 PUSH2 0x45E6 DUP5 SLOAD PUSH2 0x440F JUMP JUMPDEST DUP5 PUSH2 0x4578 JUMP JUMPDEST PUSH1 0x20 DUP1 PUSH1 0x1F DUP4 GT PUSH1 0x1 DUP2 EQ PUSH2 0x4621 JUMPI PUSH1 0x0 DUP5 ISZERO PUSH2 0x4609 JUMPI POP DUP6 DUP4 ADD MLOAD JUMPDEST PUSH1 0x0 NOT PUSH1 0x3 DUP7 SWAP1 SHL SHR NOT AND PUSH1 0x1 DUP6 SWAP1 SHL OR DUP6 SSTORE PUSH2 0x15F0 JUMP JUMPDEST PUSH1 0x0 DUP6 DUP2 MSTORE PUSH1 0x20 DUP2 KECCAK256 PUSH1 0x1F NOT DUP7 AND SWAP2 JUMPDEST DUP3 DUP2 LT ISZERO PUSH2 0x4650 JUMPI DUP9 DUP7 ADD MLOAD DUP3 SSTORE SWAP5 DUP5 ADD SWAP5 PUSH1 0x1 SWAP1 SWAP2 ADD SWAP1 DUP5 ADD PUSH2 0x4631 JUMP JUMPDEST POP DUP6 DUP3 LT ISZERO PUSH2 0x466E JUMPI DUP8 DUP6 ADD MLOAD PUSH1 0x0 NOT PUSH1 0x3 DUP9 SWAP1 SHL PUSH1 0xF8 AND SHR NOT AND DUP2 SSTORE JUMPDEST POP POP POP POP POP PUSH1 0x1 SWAP1 DUP2 SHL ADD SWAP1 SSTORE POP JUMP JUMPDEST PUSH1 0x0 PUSH1 0x20 DUP3 DUP5 SUB SLT ISZERO PUSH2 0x4690 JUMPI PUSH1 0x0 DUP1 REVERT JUMPDEST DUP2 MLOAD PUSH2 0x1049 DUP2 PUSH2 0x42D8 JUMP JUMPDEST PUSH1 0x0 PUSH1 0x1 PUSH1 0x1 PUSH1 0xA0 SHL SUB DUP1 DUP8 AND DUP4 MSTORE DUP1 DUP7 AND PUSH1 0x20 DUP5 ADD MSTORE POP DUP4 PUSH1 0x40 DUP4 ADD MSTORE PUSH1 0x80 PUSH1 0x60 DUP4 ADD MSTORE PUSH2 0x46CD PUSH1 0x80 DUP4 ADD DUP5 PUSH2 0x3F71 JUMP JUMPDEST SWAP7 SWAP6 POP POP POP POP POP POP JUMP JUMPDEST PUSH1 0x0 PUSH1 0x20 DUP3 DUP5 SUB SLT ISZERO PUSH2 0x46E9 JUMPI PUSH1 0x0 DUP1 REVERT JUMPDEST DUP2 MLOAD PUSH2 0x1049 DUP2 PUSH2 0x3F02 JUMP JUMPDEST PUSH1 0x0 DUP3 MLOAD PUSH2 0x4706 DUP2 DUP5 PUSH1 0x20 DUP8 ADD PUSH2 0x3F4D JUMP JUMPDEST SWAP2 SWAP1 SWAP2 ADD SWAP3 SWAP2 POP POP JUMP INVALID LOG2 PUSH5 0x6970667358 0x22 SLT KECCAK256 0xE5 EXTCODECOPY 0xCD CALLDATACOPY 0x4B SWAP3 DUP2 0xD4 0xA5 0xEC PUSH30 0x82F801E6E3B6CAF47AF8845120AA4E95A02D6B320E64736F6C6343000812 STOP CALLER "},"methodIdentifiers":{"DURATION()":"1be05289","INTX()":"df2e0b97","P()":"8b8fbd92","acceptOwnership()":"79ba5097","add(uint256,uint256)":"771602f7","amountStakedOf(uint256)":"a00ea0c5","approve(address,uint256)":"095ea7b3","balanceOf(address)":"70a08231","balanceOfId(uint256)":"a1c95e5a","boostPercentageOf(uint256)":"645bfd9a","claim(uint256[])":"6ba4c138","currentExchangeRate()":"a3684977","earned(uint256)":"4d6ed8c4","earned(uint256[])":"4d62f590","getApproved(uint256)":"081812fc","getPositionInfo(uint256)":"519f5099","getPositionsInfo(uint256[])":"8fca5a59","initialize(address,address)":"485cc955","isApprovedForAll(address,address)":"e985e9c5","lastTimeRewardApplicable()":"80faa57d","lastTokenId()":"f84ddf0b","lastUpdateTime()":"c8f33c91","loyalSince(uint256)":"cfd0e125","loyaltyDuration()":"d1a249ab","maxLoyaltyBoost()":"2212b806","maxPenalty()":"5200e79e","merge(uint256,uint256)":"d1c2babb","minPenalty()":"0eba9849","name()":"06fdde03","notifyReward(uint256)":"60993b5b","owner()":"8da5cb5b","ownerOf(uint256)":"6352211e","penaltyAmountOf(uint256)":"5a48a97f","penaltyPercentageOf(uint256)":"988dc31e","pendingOwner()":"e30c3978","pendingRewards(address)":"31d7a262","periodFinish()":"ebe2b12b","renounceOwnership()":"715018a6","rewardPerWeight()":"2ac3f450","rewardPerWeightStored()":"3228dd59","rewardRate()":"7b0a47ee","rewardToken()":"f7c618c1","safeTransferFrom(address,address,uint256)":"42842e0e","safeTransferFrom(address,address,uint256,bytes)":"b88d4fde","setApprovalForAll(address,bool)":"a22cb465","split(uint256,uint256[])":"69c67247","stake(uint256)":"a694fc3a","stakeFor(address,uint256)":"2ee40908","supportsInterface(bytes4)":"01ffc9a7","symbol()":"95d89b41","tokenURI(uint256)":"c87b56dd","totalWeight()":"96c82e57","totalXINTX()":"520bf08a","transferFrom(address,address,uint256)":"23b872dd","transferOwnership(address)":"f2fde38b","unstake(uint256)":"2e17de78","unstakePartially(uint256,uint256)":"f290dfa7","updateWeights(uint256[])":"30f91619","withdrawableAmountOf(uint256)":"d975dfed"}},"storageLayout":{"storage":[{"astId":246,"contract":"contracts/StakedINTX.sol:StakedINTX","label":"_initialized","offset":0,"slot":"0","type":"t_uint8"},{"astId":249,"contract":"contracts/StakedINTX.sol:StakedINTX","label":"_initializing","offset":1,"slot":"0","type":"t_bool"},{"astId":423,"contract":"contracts/StakedINTX.sol:StakedINTX","label":"_status","offset":0,"slot":"1","type":"t_uint256"},{"astId":492,"contract":"contracts/StakedINTX.sol:StakedINTX","label":"__gap","offset":0,"slot":"2","type":"t_array(t_uint256)49_storage"},{"astId":1987,"contract":"contracts/StakedINTX.sol:StakedINTX","label":"__gap","offset":0,"slot":"51","type":"t_array(t_uint256)50_storage"},{"astId":2261,"contract":"contracts/StakedINTX.sol:StakedINTX","label":"__gap","offset":0,"slot":"101","type":"t_array(t_uint256)50_storage"},{"astId":523,"contract":"contracts/StakedINTX.sol:StakedINTX","label":"_name","offset":0,"slot":"151","type":"t_string_storage"},{"astId":525,"contract":"contracts/StakedINTX.sol:StakedINTX","label":"_symbol","offset":0,"slot":"152","type":"t_string_storage"},{"astId":529,"contract":"contracts/StakedINTX.sol:StakedINTX","label":"_owners","offset":0,"slot":"153","type":"t_mapping(t_uint256,t_address)"},{"astId":533,"contract":"contracts/StakedINTX.sol:StakedINTX","label":"_balances","offset":0,"slot":"154","type":"t_mapping(t_address,t_uint256)"},{"astId":537,"contract":"contracts/StakedINTX.sol:StakedINTX","label":"_tokenApprovals","offset":0,"slot":"155","type":"t_mapping(t_uint256,t_address)"},{"astId":543,"contract":"contracts/StakedINTX.sol:StakedINTX","label":"_operatorApprovals","offset":0,"slot":"156","type":"t_mapping(t_address,t_mapping(t_address,t_bool))"},{"astId":1445,"contract":"contracts/StakedINTX.sol:StakedINTX","label":"__gap","offset":0,"slot":"157","type":"t_array(t_uint256)44_storage"},{"astId":118,"contract":"contracts/StakedINTX.sol:StakedINTX","label":"_owner","offset":0,"slot":"201","type":"t_address"},{"astId":238,"contract":"contracts/StakedINTX.sol:StakedINTX","label":"__gap","offset":0,"slot":"202","type":"t_array(t_uint256)49_storage"},{"astId":11,"contract":"contracts/StakedINTX.sol:StakedINTX","label":"_pendingOwner","offset":0,"slot":"251","type":"t_address"},{"astId":105,"contract":"contracts/StakedINTX.sol:StakedINTX","label":"__gap","offset":0,"slot":"252","type":"t_array(t_uint256)49_storage"},{"astId":4128,"contract":"contracts/StakedINTX.sol:StakedINTX","label":"lastTokenId","offset":0,"slot":"301","type":"t_uint256"},{"astId":4130,"contract":"contracts/StakedINTX.sol:StakedINTX","label":"totalXINTX","offset":0,"slot":"302","type":"t_uint256"},{"astId":4132,"contract":"contracts/StakedINTX.sol:StakedINTX","label":"loyaltyDuration","offset":0,"slot":"303","type":"t_uint256"},{"astId":4134,"contract":"contracts/StakedINTX.sol:StakedINTX","label":"maxLoyaltyBoost","offset":0,"slot":"304","type":"t_uint256"},{"astId":4136,"contract":"contracts/StakedINTX.sol:StakedINTX","label":"maxPenalty","offset":0,"slot":"305","type":"t_uint256"},{"astId":4138,"contract":"contracts/StakedINTX.sol:StakedINTX","label":"minPenalty","offset":0,"slot":"306","type":"t_uint256"},{"astId":4140,"contract":"contracts/StakedINTX.sol:StakedINTX","label":"lastUpdateTime","offset":0,"slot":"307","type":"t_uint256"},{"astId":4142,"contract":"contracts/StakedINTX.sol:StakedINTX","label":"periodFinish","offset":0,"slot":"308","type":"t_uint256"},{"astId":4144,"contract":"contracts/StakedINTX.sol:StakedINTX","label":"rewardRate","offset":0,"slot":"309","type":"t_uint256"},{"astId":4146,"contract":"contracts/StakedINTX.sol:StakedINTX","label":"rewardPerWeightStored","offset":0,"slot":"310","type":"t_uint256"},{"astId":4148,"contract":"contracts/StakedINTX.sol:StakedINTX","label":"totalWeight","offset":0,"slot":"311","type":"t_uint256"},{"astId":4151,"contract":"contracts/StakedINTX.sol:StakedINTX","label":"INTX","offset":0,"slot":"312","type":"t_contract(IERC20)3323"},{"astId":4154,"contract":"contracts/StakedINTX.sol:StakedINTX","label":"rewardToken","offset":0,"slot":"313","type":"t_contract(IERC20)3323"},{"astId":4158,"contract":"contracts/StakedINTX.sol:StakedINTX","label":"loyalSince","offset":0,"slot":"314","type":"t_mapping(t_uint256,t_uint256)"},{"astId":4162,"contract":"contracts/StakedINTX.sol:StakedINTX","label":"balanceOfId","offset":0,"slot":"315","type":"t_mapping(t_uint256,t_uint256)"},{"astId":4166,"contract":"contracts/StakedINTX.sol:StakedINTX","label":"_lastWeightOfTokenId","offset":0,"slot":"316","type":"t_mapping(t_uint256,t_uint256)"},{"astId":4170,"contract":"contracts/StakedINTX.sol:StakedINTX","label":"_rewardPerWeightPaid","offset":0,"slot":"317","type":"t_mapping(t_uint256,t_uint256)"},{"astId":4174,"contract":"contracts/StakedINTX.sol:StakedINTX","label":"_rewards","offset":0,"slot":"318","type":"t_mapping(t_uint256,t_uint256)"},{"astId":4178,"contract":"contracts/StakedINTX.sol:StakedINTX","label":"pendingRewards","offset":0,"slot":"319","type":"t_mapping(t_address,t_uint256)"}],"types":{"t_address":{"encoding":"inplace","label":"address","numberOfBytes":"20"},"t_array(t_uint256)44_storage":{"base":"t_uint256","encoding":"inplace","label":"uint256[44]","numberOfBytes":"1408"},"t_array(t_uint256)49_storage":{"base":"t_uint256","encoding":"inplace","label":"uint256[49]","numberOfBytes":"1568"},"t_array(t_uint256)50_storage":{"base":"t_uint256","encoding":"inplace","label":"uint256[50]","numberOfBytes":"1600"},"t_bool":{"encoding":"inplace","label":"bool","numberOfBytes":"1"},"t_contract(IERC20)3323":{"encoding":"inplace","label":"contract IERC20","numberOfBytes":"20"},"t_mapping(t_address,t_bool)":{"encoding":"mapping","key":"t_address","label":"mapping(address => bool)","numberOfBytes":"32","value":"t_bool"},"t_mapping(t_address,t_mapping(t_address,t_bool))":{"encoding":"mapping","key":"t_address","label":"mapping(address => mapping(address => bool))","numberOfBytes":"32","value":"t_mapping(t_address,t_bool)"},"t_mapping(t_address,t_uint256)":{"encoding":"mapping","key":"t_address","label":"mapping(address => uint256)","numberOfBytes":"32","value":"t_uint256"},"t_mapping(t_uint256,t_address)":{"encoding":"mapping","key":"t_uint256","label":"mapping(uint256 => address)","numberOfBytes":"32","value":"t_address"},"t_mapping(t_uint256,t_uint256)":{"encoding":"mapping","key":"t_uint256","label":"mapping(uint256 => uint256)","numberOfBytes":"32","value":"t_uint256"},"t_string_storage":{"encoding":"bytes","label":"string","numberOfBytes":"32"},"t_uint256":{"encoding":"inplace","label":"uint256","numberOfBytes":"32"},"t_uint8":{"encoding":"inplace","label":"uint8","numberOfBytes":"1"}}}}}}