{"contracts/apis/APIHelper2.sol":{"APIHelper2":{"abi":[{"inputs":[],"name":"DEFAULT_ADMIN_ROLE","outputs":[{"internalType":"bytes32","name":"","type":"bytes32"}],"stateMutability":"view","type":"function"},{"inputs":[],"name":"MULTIACCOUNT_ROLE","outputs":[{"internalType":"bytes32","name":"","type":"bytes32"}],"stateMutability":"view","type":"function"},{"inputs":[{"internalType":"address","name":"account","type":"address"}],"name":"isContract","outputs":[{"internalType":"bool","name":"","type":"bool"}],"stateMutability":"view","type":"function"},{"inputs":[{"internalType":"address[]","name":"_partyAs","type":"address[]"},{"internalType":"address","name":"multiaccount","type":"address"},{"internalType":"address","name":"oldOwner","type":"address"}],"name":"ourControl","outputs":[{"internalType":"address[]","name":"discriminatedPartyAs","type":"address[]"}],"stateMutability":"view","type":"function"}],"evm":{"bytecode":{"linkReferences":{},"object":"608060405234801561001057600080fd5b50610514806100206000396000f3fe608060405234801561001057600080fd5b506004361061004c5760003560e01c8063162790551461005157806359f6d3921461007a578063a217fddf146100af578063afdfb1fc146100b7575b600080fd5b61006561005f366004610358565b3b151590565b60405190151581526020015b60405180910390f35b6100a17febee9ae4283d502e7ed608f7bff6281dc40560c705aa66f8f31324862ed03f5a81565b604051908152602001610071565b6100a1600081565b6100ca6100c536600461037a565b6100d7565b604051610071919061040f565b60608360008080808467ffffffffffffffff8111156100f8576100f8610469565b604051908082528060200260200182016040528015610121578160200160208202803683370190505b50955060005b85811015610321578a8a828181106101415761014161047f565b90506020020160208101906101569190610358565b9150813b15159250821561030f576040517f91d148540000000000000000000000000000000000000000000000000000000081527febee9ae4283d502e7ed608f7bff6281dc40560c705aa66f8f31324862ed03f5a600482015273ffffffffffffffffffffffffffffffffffffffff8a811660248301528316906391d1485490604401602060405180830381865afa1580156101f6573d6000803e3d6000fd5b505050506040513d601f19601f8201168201806040525081019061021a9190610495565b9450841561030f576040517f91d148540000000000000000000000000000000000000000000000000000000081526000600482015273ffffffffffffffffffffffffffffffffffffffff89811660248301528316906391d1485490604401602060405180830381865afa158015610295573d6000803e3d6000fd5b505050506040513d601f19601f820116820180604052508101906102b99190610495565b9350831561030f57818782815181106102d4576102d461047f565b602002602001019073ffffffffffffffffffffffffffffffffffffffff16908173ffffffffffffffffffffffffffffffffffffffff16815250505b61031a8160016104b7565b9050610127565b505050505050949350505050565b803573ffffffffffffffffffffffffffffffffffffffff8116811461035357600080fd5b919050565b60006020828403121561036a57600080fd5b6103738261032f565b9392505050565b6000806000806060858703121561039057600080fd5b843567ffffffffffffffff808211156103a857600080fd5b818701915087601f8301126103bc57600080fd5b8135818111156103cb57600080fd5b8860208260051b85010111156103e057600080fd5b6020928301965094506103f6918701905061032f565b91506104046040860161032f565b905092959194509250565b6020808252825182820181905260009190848201906040850190845b8181101561045d57835173ffffffffffffffffffffffffffffffffffffffff168352928401929184019160010161042b565b50909695505050505050565b634e487b7160e01b600052604160045260246000fd5b634e487b7160e01b600052603260045260246000fd5b6000602082840312156104a757600080fd5b8151801515811461037357600080fd5b808201808211156104d857634e487b7160e01b600052601160045260246000fd5b9291505056fea2646970667358221220e75a41af34021db9a75d45e267f09db1f0becaf835cb9cca392b625f3971aae364736f6c63430008120033","opcodes":"PUSH1 0x80 PUSH1 0x40 MSTORE CALLVALUE DUP1 ISZERO PUSH2 0x10 JUMPI PUSH1 0x0 DUP1 REVERT JUMPDEST POP PUSH2 0x514 DUP1 PUSH2 0x20 PUSH1 0x0 CODECOPY PUSH1 0x0 RETURN INVALID PUSH1 0x80 PUSH1 0x40 MSTORE CALLVALUE DUP1 ISZERO PUSH2 0x10 JUMPI PUSH1 0x0 DUP1 REVERT JUMPDEST POP PUSH1 0x4 CALLDATASIZE LT PUSH2 0x4C JUMPI PUSH1 0x0 CALLDATALOAD PUSH1 0xE0 SHR DUP1 PUSH4 0x16279055 EQ PUSH2 0x51 JUMPI DUP1 PUSH4 0x59F6D392 EQ PUSH2 0x7A JUMPI DUP1 PUSH4 0xA217FDDF EQ PUSH2 0xAF JUMPI DUP1 PUSH4 0xAFDFB1FC EQ PUSH2 0xB7 JUMPI JUMPDEST PUSH1 0x0 DUP1 REVERT JUMPDEST PUSH2 0x65 PUSH2 0x5F CALLDATASIZE PUSH1 0x4 PUSH2 0x358 JUMP JUMPDEST EXTCODESIZE ISZERO ISZERO SWAP1 JUMP JUMPDEST PUSH1 0x40 MLOAD SWAP1 ISZERO ISZERO DUP2 MSTORE PUSH1 0x20 ADD JUMPDEST PUSH1 0x40 MLOAD DUP1 SWAP2 SUB SWAP1 RETURN JUMPDEST PUSH2 0xA1 PUSH32 0xEBEE9AE4283D502E7ED608F7BFF6281DC40560C705AA66F8F31324862ED03F5A DUP2 JUMP JUMPDEST PUSH1 0x40 MLOAD SWAP1 DUP2 MSTORE PUSH1 0x20 ADD PUSH2 0x71 JUMP JUMPDEST PUSH2 0xA1 PUSH1 0x0 DUP2 JUMP JUMPDEST PUSH2 0xCA PUSH2 0xC5 CALLDATASIZE PUSH1 0x4 PUSH2 0x37A JUMP JUMPDEST PUSH2 0xD7 JUMP JUMPDEST PUSH1 0x40 MLOAD PUSH2 0x71 SWAP2 SWAP1 PUSH2 0x40F JUMP JUMPDEST PUSH1 0x60 DUP4 PUSH1 0x0 DUP1 DUP1 DUP1 DUP5 PUSH8 0xFFFFFFFFFFFFFFFF DUP2 GT ISZERO PUSH2 0xF8 JUMPI PUSH2 0xF8 PUSH2 0x469 JUMP JUMPDEST PUSH1 0x40 MLOAD SWAP1 DUP1 DUP3 MSTORE DUP1 PUSH1 0x20 MUL PUSH1 0x20 ADD DUP3 ADD PUSH1 0x40 MSTORE DUP1 ISZERO PUSH2 0x121 JUMPI DUP2 PUSH1 0x20 ADD PUSH1 0x20 DUP3 MUL DUP1 CALLDATASIZE DUP4 CALLDATACOPY ADD SWAP1 POP JUMPDEST POP SWAP6 POP PUSH1 0x0 JUMPDEST DUP6 DUP2 LT ISZERO PUSH2 0x321 JUMPI DUP11 DUP11 DUP3 DUP2 DUP2 LT PUSH2 0x141 JUMPI PUSH2 0x141 PUSH2 0x47F JUMP JUMPDEST SWAP1 POP PUSH1 0x20 MUL ADD PUSH1 0x20 DUP2 ADD SWAP1 PUSH2 0x156 SWAP2 SWAP1 PUSH2 0x358 JUMP JUMPDEST SWAP2 POP DUP2 EXTCODESIZE ISZERO ISZERO SWAP3 POP DUP3 ISZERO PUSH2 0x30F JUMPI PUSH1 0x40 MLOAD PUSH32 0x91D1485400000000000000000000000000000000000000000000000000000000 DUP2 MSTORE PUSH32 0xEBEE9AE4283D502E7ED608F7BFF6281DC40560C705AA66F8F31324862ED03F5A PUSH1 0x4 DUP3 ADD MSTORE PUSH20 0xFFFFFFFFFFFFFFFFFFFFFFFFFFFFFFFFFFFFFFFF DUP11 DUP2 AND PUSH1 0x24 DUP4 ADD MSTORE DUP4 AND SWAP1 PUSH4 0x91D14854 SWAP1 PUSH1 0x44 ADD PUSH1 0x20 PUSH1 0x40 MLOAD DUP1 DUP4 SUB DUP2 DUP7 GAS STATICCALL ISZERO DUP1 ISZERO PUSH2 0x1F6 JUMPI RETURNDATASIZE PUSH1 0x0 DUP1 RETURNDATACOPY RETURNDATASIZE PUSH1 0x0 REVERT JUMPDEST POP POP POP POP PUSH1 0x40 MLOAD RETURNDATASIZE PUSH1 0x1F NOT PUSH1 0x1F DUP3 ADD AND DUP3 ADD DUP1 PUSH1 0x40 MSTORE POP DUP2 ADD SWAP1 PUSH2 0x21A SWAP2 SWAP1 PUSH2 0x495 JUMP JUMPDEST SWAP5 POP DUP5 ISZERO PUSH2 0x30F JUMPI PUSH1 0x40 MLOAD PUSH32 0x91D1485400000000000000000000000000000000000000000000000000000000 DUP2 MSTORE PUSH1 0x0 PUSH1 0x4 DUP3 ADD MSTORE PUSH20 0xFFFFFFFFFFFFFFFFFFFFFFFFFFFFFFFFFFFFFFFF DUP10 DUP2 AND PUSH1 0x24 DUP4 ADD MSTORE DUP4 AND SWAP1 PUSH4 0x91D14854 SWAP1 PUSH1 0x44 ADD PUSH1 0x20 PUSH1 0x40 MLOAD DUP1 DUP4 SUB DUP2 DUP7 GAS STATICCALL ISZERO DUP1 ISZERO PUSH2 0x295 JUMPI RETURNDATASIZE PUSH1 0x0 DUP1 RETURNDATACOPY RETURNDATASIZE PUSH1 0x0 REVERT JUMPDEST POP POP POP POP PUSH1 0x40 MLOAD RETURNDATASIZE PUSH1 0x1F NOT PUSH1 0x1F DUP3 ADD AND DUP3 ADD DUP1 PUSH1 0x40 MSTORE POP DUP2 ADD SWAP1 PUSH2 0x2B9 SWAP2 SWAP1 PUSH2 0x495 JUMP JUMPDEST SWAP4 POP DUP4 ISZERO PUSH2 0x30F JUMPI DUP2 DUP8 DUP3 DUP2 MLOAD DUP2 LT PUSH2 0x2D4 JUMPI PUSH2 0x2D4 PUSH2 0x47F JUMP JUMPDEST PUSH1 0x20 MUL PUSH1 0x20 ADD ADD SWAP1 PUSH20 0xFFFFFFFFFFFFFFFFFFFFFFFFFFFFFFFFFFFFFFFF AND SWAP1 DUP2 PUSH20 0xFFFFFFFFFFFFFFFFFFFFFFFFFFFFFFFFFFFFFFFF AND DUP2 MSTORE POP POP JUMPDEST PUSH2 0x31A DUP2 PUSH1 0x1 PUSH2 0x4B7 JUMP JUMPDEST SWAP1 POP PUSH2 0x127 JUMP JUMPDEST POP POP POP POP POP POP SWAP5 SWAP4 POP POP POP POP JUMP JUMPDEST DUP1 CALLDATALOAD PUSH20 0xFFFFFFFFFFFFFFFFFFFFFFFFFFFFFFFFFFFFFFFF DUP2 AND DUP2 EQ PUSH2 0x353 JUMPI PUSH1 0x0 DUP1 REVERT JUMPDEST SWAP2 SWAP1 POP JUMP JUMPDEST PUSH1 0x0 PUSH1 0x20 DUP3 DUP5 SUB SLT ISZERO PUSH2 0x36A JUMPI PUSH1 0x0 DUP1 REVERT JUMPDEST PUSH2 0x373 DUP3 PUSH2 0x32F JUMP JUMPDEST SWAP4 SWAP3 POP POP POP JUMP JUMPDEST PUSH1 0x0 DUP1 PUSH1 0x0 DUP1 PUSH1 0x60 DUP6 DUP8 SUB SLT ISZERO PUSH2 0x390 JUMPI PUSH1 0x0 DUP1 REVERT JUMPDEST DUP5 CALLDATALOAD PUSH8 0xFFFFFFFFFFFFFFFF DUP1 DUP3 GT ISZERO PUSH2 0x3A8 JUMPI PUSH1 0x0 DUP1 REVERT JUMPDEST DUP2 DUP8 ADD SWAP2 POP DUP8 PUSH1 0x1F DUP4 ADD SLT PUSH2 0x3BC JUMPI PUSH1 0x0 DUP1 REVERT JUMPDEST DUP2 CALLDATALOAD DUP2 DUP2 GT ISZERO PUSH2 0x3CB JUMPI PUSH1 0x0 DUP1 REVERT JUMPDEST DUP9 PUSH1 0x20 DUP3 PUSH1 0x5 SHL DUP6 ADD ADD GT ISZERO PUSH2 0x3E0 JUMPI PUSH1 0x0 DUP1 REVERT JUMPDEST PUSH1 0x20 SWAP3 DUP4 ADD SWAP7 POP SWAP5 POP PUSH2 0x3F6 SWAP2 DUP8 ADD SWAP1 POP PUSH2 0x32F JUMP JUMPDEST SWAP2 POP PUSH2 0x404 PUSH1 0x40 DUP7 ADD PUSH2 0x32F JUMP JUMPDEST SWAP1 POP SWAP3 SWAP6 SWAP2 SWAP5 POP SWAP3 POP JUMP JUMPDEST PUSH1 0x20 DUP1 DUP3 MSTORE DUP3 MLOAD DUP3 DUP3 ADD DUP2 SWAP1 MSTORE PUSH1 0x0 SWAP2 SWAP1 DUP5 DUP3 ADD SWAP1 PUSH1 0x40 DUP6 ADD SWAP1 DUP5 JUMPDEST DUP2 DUP2 LT ISZERO PUSH2 0x45D JUMPI DUP4 MLOAD PUSH20 0xFFFFFFFFFFFFFFFFFFFFFFFFFFFFFFFFFFFFFFFF AND DUP4 MSTORE SWAP3 DUP5 ADD SWAP3 SWAP2 DUP5 ADD SWAP2 PUSH1 0x1 ADD PUSH2 0x42B JUMP JUMPDEST POP SWAP1 SWAP7 SWAP6 POP POP POP POP POP POP JUMP JUMPDEST PUSH4 0x4E487B71 PUSH1 0xE0 SHL PUSH1 0x0 MSTORE PUSH1 0x41 PUSH1 0x4 MSTORE PUSH1 0x24 PUSH1 0x0 REVERT JUMPDEST PUSH4 0x4E487B71 PUSH1 0xE0 SHL PUSH1 0x0 MSTORE PUSH1 0x32 PUSH1 0x4 MSTORE PUSH1 0x24 PUSH1 0x0 REVERT JUMPDEST PUSH1 0x0 PUSH1 0x20 DUP3 DUP5 SUB SLT ISZERO PUSH2 0x4A7 JUMPI PUSH1 0x0 DUP1 REVERT JUMPDEST DUP2 MLOAD DUP1 ISZERO ISZERO DUP2 EQ PUSH2 0x373 JUMPI PUSH1 0x0 DUP1 REVERT JUMPDEST DUP1 DUP3 ADD DUP1 DUP3 GT ISZERO PUSH2 0x4D8 JUMPI PUSH4 0x4E487B71 PUSH1 0xE0 SHL PUSH1 0x0 MSTORE PUSH1 0x11 PUSH1 0x4 MSTORE PUSH1 0x24 PUSH1 0x0 REVERT JUMPDEST SWAP3 SWAP2 POP POP JUMP INVALID LOG2 PUSH5 0x6970667358 0x22 SLT KECCAK256 0xE7 GAS COINBASE 0xAF CALLVALUE MUL SAR 0xB9 0xA7 0x5D GASLIMIT 0xE2 PUSH8 0xF09DB1F0BECAF835 0xCB SWAP13 0xCA CODECOPY 0x2B PUSH3 0x5F3971 0xAA 0xE3 PUSH5 0x736F6C6343 STOP ADDMOD SLT STOP CALLER "},"methodIdentifiers":{"DEFAULT_ADMIN_ROLE()":"a217fddf","MULTIACCOUNT_ROLE()":"59f6d392","isContract(address)":"16279055","ourControl(address[],address,address)":"afdfb1fc"}},"storageLayout":{"storage":[],"types":null}}}}