{"contracts/apis/SnapshotAPI.sol":{"SnapshotAPI":{"abi":[{"inputs":[{"internalType":"uint256[][]","name":"tokenIds_","type":"uint256[][]"}],"name":"checkINTXBalanceOfTokenIds","outputs":[{"internalType":"uint256[]","name":"intxBalances","type":"uint256[]"}],"stateMutability":"view","type":"function"},{"inputs":[],"name":"xINTX","outputs":[{"internalType":"address","name":"","type":"address"}],"stateMutability":"view","type":"function"}],"evm":{"bytecode":{"linkReferences":{},"object":"608060405234801561001057600080fd5b5061041a806100206000396000f3fe608060405234801561001057600080fd5b50600436106100365760003560e01c80634d5d24821461003b578063f4438d6d14610080575b600080fd5b610056732554727881c5fb22965c6fcb7c6042b36784536281565b60405173ffffffffffffffffffffffffffffffffffffffff90911681526020015b60405180910390f35b61009361008e366004610250565b6100a0565b60405161007791906102c5565b606081732554727881c5fb22965c6fcb7c6042b3678453628167ffffffffffffffff8111156100d1576100d1610309565b6040519080825280602002602001820160405280156100fa578160200160208202803683370190505b50925060008060005b848110156102455787878281811061011d5761011d61031f565b905060200281019061012f9190610335565b9050925060005b85811015610232578888838181106101505761015061031f565b90506020028101906101629190610335565b828181106101725761017261031f565b9050602002013592508473ffffffffffffffffffffffffffffffffffffffff1663a00ea0c5846040518263ffffffff1660e01b81526004016101b691815260200190565b602060405180830381865afa1580156101d3573d6000803e3d6000fd5b505050506040513d601f19601f820116820180604052508101906101f791906103a4565b8783815181106102095761020961031f565b6020026020010181815161021d91906103bd565b90525061022b6001826103bd565b9050610136565b5061023e6001826103bd565b9050610103565b505050505092915050565b6000806020838503121561026357600080fd5b823567ffffffffffffffff8082111561027b57600080fd5b818501915085601f83011261028f57600080fd5b81358181111561029e57600080fd5b8660208260051b85010111156102b357600080fd5b60209290920196919550909350505050565b6020808252825182820181905260009190848201906040850190845b818110156102fd578351835292840192918401916001016102e1565b50909695505050505050565b634e487b7160e01b600052604160045260246000fd5b634e487b7160e01b600052603260045260246000fd5b60008083357fffffffffffffffffffffffffffffffffffffffffffffffffffffffffffffffe184360301811261036a57600080fd5b83018035915067ffffffffffffffff82111561038557600080fd5b6020019150600581901b360382131561039d57600080fd5b9250929050565b6000602082840312156103b657600080fd5b5051919050565b808201808211156103de57634e487b7160e01b600052601160045260246000fd5b9291505056fea26469706673582212200376f313a1527cddecf8edc12c8ea3d2c5a3ede1ce0952b1aafbcbc17ddd552364736f6c63430008120033","opcodes":"PUSH1 0x80 PUSH1 0x40 MSTORE CALLVALUE DUP1 ISZERO PUSH2 0x10 JUMPI PUSH1 0x0 DUP1 REVERT JUMPDEST POP PUSH2 0x41A DUP1 PUSH2 0x20 PUSH1 0x0 CODECOPY PUSH1 0x0 RETURN INVALID PUSH1 0x80 PUSH1 0x40 MSTORE CALLVALUE DUP1 ISZERO PUSH2 0x10 JUMPI PUSH1 0x0 DUP1 REVERT JUMPDEST POP PUSH1 0x4 CALLDATASIZE LT PUSH2 0x36 JUMPI PUSH1 0x0 CALLDATALOAD PUSH1 0xE0 SHR DUP1 PUSH4 0x4D5D2482 EQ PUSH2 0x3B JUMPI DUP1 PUSH4 0xF4438D6D EQ PUSH2 0x80 JUMPI JUMPDEST PUSH1 0x0 DUP1 REVERT JUMPDEST PUSH2 0x56 PUSH20 0x2554727881C5FB22965C6FCB7C6042B367845362 DUP2 JUMP JUMPDEST PUSH1 0x40 MLOAD PUSH20 0xFFFFFFFFFFFFFFFFFFFFFFFFFFFFFFFFFFFFFFFF SWAP1 SWAP2 AND DUP2 MSTORE PUSH1 0x20 ADD JUMPDEST PUSH1 0x40 MLOAD DUP1 SWAP2 SUB SWAP1 RETURN JUMPDEST PUSH2 0x93 PUSH2 0x8E CALLDATASIZE PUSH1 0x4 PUSH2 0x250 JUMP JUMPDEST PUSH2 0xA0 JUMP JUMPDEST PUSH1 0x40 MLOAD PUSH2 0x77 SWAP2 SWAP1 PUSH2 0x2C5 JUMP JUMPDEST PUSH1 0x60 DUP2 PUSH20 0x2554727881C5FB22965C6FCB7C6042B367845362 DUP2 PUSH8 0xFFFFFFFFFFFFFFFF DUP2 GT ISZERO PUSH2 0xD1 JUMPI PUSH2 0xD1 PUSH2 0x309 JUMP JUMPDEST PUSH1 0x40 MLOAD SWAP1 DUP1 DUP3 MSTORE DUP1 PUSH1 0x20 MUL PUSH1 0x20 ADD DUP3 ADD PUSH1 0x40 MSTORE DUP1 ISZERO PUSH2 0xFA JUMPI DUP2 PUSH1 0x20 ADD PUSH1 0x20 DUP3 MUL DUP1 CALLDATASIZE DUP4 CALLDATACOPY ADD SWAP1 POP JUMPDEST POP SWAP3 POP PUSH1 0x0 DUP1 PUSH1 0x0 JUMPDEST DUP5 DUP2 LT ISZERO PUSH2 0x245 JUMPI DUP8 DUP8 DUP3 DUP2 DUP2 LT PUSH2 0x11D JUMPI PUSH2 0x11D PUSH2 0x31F JUMP JUMPDEST SWAP1 POP PUSH1 0x20 MUL DUP2 ADD SWAP1 PUSH2 0x12F SWAP2 SWAP1 PUSH2 0x335 JUMP JUMPDEST SWAP1 POP SWAP3 POP PUSH1 0x0 JUMPDEST DUP6 DUP2 LT ISZERO PUSH2 0x232 JUMPI DUP9 DUP9 DUP4 DUP2 DUP2 LT PUSH2 0x150 JUMPI PUSH2 0x150 PUSH2 0x31F JUMP JUMPDEST SWAP1 POP PUSH1 0x20 MUL DUP2 ADD SWAP1 PUSH2 0x162 SWAP2 SWAP1 PUSH2 0x335 JUMP JUMPDEST DUP3 DUP2 DUP2 LT PUSH2 0x172 JUMPI PUSH2 0x172 PUSH2 0x31F JUMP JUMPDEST SWAP1 POP PUSH1 0x20 MUL ADD CALLDATALOAD SWAP3 POP DUP5 PUSH20 0xFFFFFFFFFFFFFFFFFFFFFFFFFFFFFFFFFFFFFFFF AND PUSH4 0xA00EA0C5 DUP5 PUSH1 0x40 MLOAD DUP3 PUSH4 0xFFFFFFFF AND PUSH1 0xE0 SHL DUP2 MSTORE PUSH1 0x4 ADD PUSH2 0x1B6 SWAP2 DUP2 MSTORE PUSH1 0x20 ADD SWAP1 JUMP JUMPDEST PUSH1 0x20 PUSH1 0x40 MLOAD DUP1 DUP4 SUB DUP2 DUP7 GAS STATICCALL ISZERO DUP1 ISZERO PUSH2 0x1D3 JUMPI RETURNDATASIZE PUSH1 0x0 DUP1 RETURNDATACOPY RETURNDATASIZE PUSH1 0x0 REVERT JUMPDEST POP POP POP POP PUSH1 0x40 MLOAD RETURNDATASIZE PUSH1 0x1F NOT PUSH1 0x1F DUP3 ADD AND DUP3 ADD DUP1 PUSH1 0x40 MSTORE POP DUP2 ADD SWAP1 PUSH2 0x1F7 SWAP2 SWAP1 PUSH2 0x3A4 JUMP JUMPDEST DUP8 DUP4 DUP2 MLOAD DUP2 LT PUSH2 0x209 JUMPI PUSH2 0x209 PUSH2 0x31F JUMP JUMPDEST PUSH1 0x20 MUL PUSH1 0x20 ADD ADD DUP2 DUP2 MLOAD PUSH2 0x21D SWAP2 SWAP1 PUSH2 0x3BD JUMP JUMPDEST SWAP1 MSTORE POP PUSH2 0x22B PUSH1 0x1 DUP3 PUSH2 0x3BD JUMP JUMPDEST SWAP1 POP PUSH2 0x136 JUMP JUMPDEST POP PUSH2 0x23E PUSH1 0x1 DUP3 PUSH2 0x3BD JUMP JUMPDEST SWAP1 POP PUSH2 0x103 JUMP JUMPDEST POP POP POP POP POP SWAP3 SWAP2 POP POP JUMP JUMPDEST PUSH1 0x0 DUP1 PUSH1 0x20 DUP4 DUP6 SUB SLT ISZERO PUSH2 0x263 JUMPI PUSH1 0x0 DUP1 REVERT JUMPDEST DUP3 CALLDATALOAD PUSH8 0xFFFFFFFFFFFFFFFF DUP1 DUP3 GT ISZERO PUSH2 0x27B JUMPI PUSH1 0x0 DUP1 REVERT JUMPDEST DUP2 DUP6 ADD SWAP2 POP DUP6 PUSH1 0x1F DUP4 ADD SLT PUSH2 0x28F JUMPI PUSH1 0x0 DUP1 REVERT JUMPDEST DUP2 CALLDATALOAD DUP2 DUP2 GT ISZERO PUSH2 0x29E JUMPI PUSH1 0x0 DUP1 REVERT JUMPDEST DUP7 PUSH1 0x20 DUP3 PUSH1 0x5 SHL DUP6 ADD ADD GT ISZERO PUSH2 0x2B3 JUMPI PUSH1 0x0 DUP1 REVERT JUMPDEST PUSH1 0x20 SWAP3 SWAP1 SWAP3 ADD SWAP7 SWAP2 SWAP6 POP SWAP1 SWAP4 POP POP POP POP JUMP JUMPDEST PUSH1 0x20 DUP1 DUP3 MSTORE DUP3 MLOAD DUP3 DUP3 ADD DUP2 SWAP1 MSTORE PUSH1 0x0 SWAP2 SWAP1 DUP5 DUP3 ADD SWAP1 PUSH1 0x40 DUP6 ADD SWAP1 DUP5 JUMPDEST DUP2 DUP2 LT ISZERO PUSH2 0x2FD JUMPI DUP4 MLOAD DUP4 MSTORE SWAP3 DUP5 ADD SWAP3 SWAP2 DUP5 ADD SWAP2 PUSH1 0x1 ADD PUSH2 0x2E1 JUMP JUMPDEST POP SWAP1 SWAP7 SWAP6 POP POP POP POP POP POP JUMP JUMPDEST PUSH4 0x4E487B71 PUSH1 0xE0 SHL PUSH1 0x0 MSTORE PUSH1 0x41 PUSH1 0x4 MSTORE PUSH1 0x24 PUSH1 0x0 REVERT JUMPDEST PUSH4 0x4E487B71 PUSH1 0xE0 SHL PUSH1 0x0 MSTORE PUSH1 0x32 PUSH1 0x4 MSTORE PUSH1 0x24 PUSH1 0x0 REVERT JUMPDEST PUSH1 0x0 DUP1 DUP4 CALLDATALOAD PUSH32 0xFFFFFFFFFFFFFFFFFFFFFFFFFFFFFFFFFFFFFFFFFFFFFFFFFFFFFFFFFFFFFFE1 DUP5 CALLDATASIZE SUB ADD DUP2 SLT PUSH2 0x36A JUMPI PUSH1 0x0 DUP1 REVERT JUMPDEST DUP4 ADD DUP1 CALLDATALOAD SWAP2 POP PUSH8 0xFFFFFFFFFFFFFFFF DUP3 GT ISZERO PUSH2 0x385 JUMPI PUSH1 0x0 DUP1 REVERT JUMPDEST PUSH1 0x20 ADD SWAP2 POP PUSH1 0x5 DUP2 SWAP1 SHL CALLDATASIZE SUB DUP3 SGT ISZERO PUSH2 0x39D JUMPI PUSH1 0x0 DUP1 REVERT JUMPDEST SWAP3 POP SWAP3 SWAP1 POP JUMP JUMPDEST PUSH1 0x0 PUSH1 0x20 DUP3 DUP5 SUB SLT ISZERO PUSH2 0x3B6 JUMPI PUSH1 0x0 DUP1 REVERT JUMPDEST POP MLOAD SWAP2 SWAP1 POP JUMP JUMPDEST DUP1 DUP3 ADD DUP1 DUP3 GT ISZERO PUSH2 0x3DE JUMPI PUSH4 0x4E487B71 PUSH1 0xE0 SHL PUSH1 0x0 MSTORE PUSH1 0x11 PUSH1 0x4 MSTORE PUSH1 0x24 PUSH1 0x0 REVERT JUMPDEST SWAP3 SWAP2 POP POP JUMP INVALID LOG2 PUSH5 0x6970667358 0x22 SLT KECCAK256 SUB PUSH23 0xF313A1527CDDECF8EDC12C8EA3D2C5A3EDE1CE0952B1AA 0xFB 0xCB 0xC1 PUSH30 0xDD552364736F6C6343000812003300000000000000000000000000000000 "},"methodIdentifiers":{"checkINTXBalanceOfTokenIds(uint256[][])":"f4438d6d","xINTX()":"4d5d2482"}},"storageLayout":{"storage":[],"types":null}}}}