{"contracts/StakedINTX.sol":{"StakedINTX":{"abi":[{"inputs":[],"stateMutability":"nonpayable","type":"constructor"},{"anonymous":false,"inputs":[{"indexed":true,"internalType":"address","name":"owner","type":"address"},{"indexed":true,"internalType":"address","name":"approved","type":"address"},{"indexed":true,"internalType":"uint256","name":"tokenId","type":"uint256"}],"name":"Approval","type":"event"},{"anonymous":false,"inputs":[{"indexed":true,"internalType":"address","name":"owner","type":"address"},{"indexed":true,"internalType":"address","name":"operator","type":"address"},{"indexed":false,"internalType":"bool","name":"approved","type":"bool"}],"name":"ApprovalForAll","type":"event"},{"anonymous":false,"inputs":[{"indexed":true,"internalType":"address","name":"owner","type":"address"},{"indexed":true,"internalType":"uint256","name":"tokenId","type":"uint256"},{"indexed":false,"internalType":"uint256","name":"amountBurned","type":"uint256"},{"indexed":false,"internalType":"uint256","name":"amountIntxOut","type":"uint256"},{"indexed":false,"internalType":"uint256","name":"amountIntxPenalized","type":"uint256"},{"indexed":false,"internalType":"uint256","name":"totalXINTXNew","type":"uint256"}],"name":"Burn","type":"event"},{"anonymous":false,"inputs":[{"indexed":true,"internalType":"address","name":"owner","type":"address"},{"indexed":false,"internalType":"uint256","name":"amountOut","type":"uint256"},{"indexed":true,"internalType":"uint256[]","name":"tokenIds","type":"uint256[]"}],"name":"Claim","type":"event"},{"anonymous":false,"inputs":[{"indexed":false,"internalType":"uint8","name":"version","type":"uint8"}],"name":"Initialized","type":"event"},{"anonymous":false,"inputs":[{"indexed":true,"internalType":"address","name":"owner","type":"address"},{"indexed":true,"internalType":"uint256","name":"tokenIdFrom","type":"uint256"},{"indexed":false,"internalType":"uint256","name":"tokenIdTo","type":"uint256"},{"indexed":false,"internalType":"uint256","name":"newBalance","type":"uint256"},{"indexed":false,"internalType":"uint256","name":"newLoyalSince","type":"uint256"}],"name":"Merge","type":"event"},{"anonymous":false,"inputs":[{"indexed":true,"internalType":"address","name":"from","type":"address"},{"indexed":true,"internalType":"address","name":"to","type":"address"},{"indexed":true,"internalType":"uint256","name":"tokenId","type":"uint256"},{"indexed":false,"internalType":"uint256","name":"amountMinted","type":"uint256"},{"indexed":false,"internalType":"uint256","name":"amountIntxIn","type":"uint256"},{"indexed":false,"internalType":"uint256","name":"totalXINTXNew","type":"uint256"},{"indexed":false,"internalType":"uint256","name":"newTotalWeight","type":"uint256"}],"name":"Mint","type":"event"},{"anonymous":false,"inputs":[{"indexed":true,"internalType":"address","name":"previousOwner","type":"address"},{"indexed":true,"internalType":"address","name":"newOwner","type":"address"}],"name":"OwnershipTransferStarted","type":"event"},{"anonymous":false,"inputs":[{"indexed":true,"internalType":"address","name":"previousOwner","type":"address"},{"indexed":true,"internalType":"address","name":"newOwner","type":"address"}],"name":"OwnershipTransferred","type":"event"},{"anonymous":false,"inputs":[{"indexed":false,"internalType":"uint256","name":"rewardAdded","type":"uint256"}],"name":"RewardAdded","type":"event"},{"anonymous":false,"inputs":[{"indexed":true,"internalType":"address","name":"owner","type":"address"},{"indexed":true,"internalType":"uint256","name":"tokenIdFrom","type":"uint256"},{"indexed":false,"internalType":"uint256","name":"tokenIdTo","type":"uint256"},{"indexed":false,"internalType":"uint256","name":"balanceSplitted","type":"uint256"}],"name":"Split","type":"event"},{"anonymous":false,"inputs":[{"indexed":false,"internalType":"uint256","name":"intxBalance","type":"uint256"},{"indexed":false,"internalType":"uint256","name":"totalXINTX","type":"uint256"},{"indexed":false,"internalType":"uint256","name":"totalWeight","type":"uint256"}],"name":"StatusEvent","type":"event"},{"anonymous":false,"inputs":[{"indexed":true,"internalType":"address","name":"from","type":"address"},{"indexed":true,"internalType":"address","name":"to","type":"address"},{"indexed":true,"internalType":"uint256","name":"tokenId","type":"uint256"}],"name":"Transfer","type":"event"},{"inputs":[],"name":"DURATION","outputs":[{"internalType":"uint256","name":"","type":"uint256"}],"stateMutability":"view","type":"function"},{"inputs":[],"name":"INTX","outputs":[{"internalType":"contract IERC20","name":"","type":"address"}],"stateMutability":"view","type":"function"},{"inputs":[],"name":"P","outputs":[{"internalType":"uint256","name":"","type":"uint256"}],"stateMutability":"view","type":"function"},{"inputs":[],"name":"acceptOwnership","outputs":[],"stateMutability":"nonpayable","type":"function"},{"inputs":[{"internalType":"uint256","name":"_intxAmount","type":"uint256"},{"internalType":"uint256","name":"tokenTo","type":"uint256"}],"name":"add","outputs":[],"stateMutability":"nonpayable","type":"function"},{"inputs":[{"internalType":"uint256","name":"_tokenId","type":"uint256"}],"name":"amountStakedOf","outputs":[{"internalType":"uint256","name":"amount","type":"uint256"}],"stateMutability":"view","type":"function"},{"inputs":[{"internalType":"address","name":"to","type":"address"},{"internalType":"uint256","name":"tokenId","type":"uint256"}],"name":"approve","outputs":[],"stateMutability":"nonpayable","type":"function"},{"inputs":[{"internalType":"address","name":"owner","type":"address"}],"name":"balanceOf","outputs":[{"internalType":"uint256","name":"","type":"uint256"}],"stateMutability":"view","type":"function"},{"inputs":[{"internalType":"uint256","name":"","type":"uint256"}],"name":"balanceOfId","outputs":[{"internalType":"uint256","name":"","type":"uint256"}],"stateMutability":"view","type":"function"},{"inputs":[{"internalType":"uint256","name":"_tokenId","type":"uint256"}],"name":"boostPercentageOf","outputs":[{"internalType":"uint256","name":"boostPercentage","type":"uint256"}],"stateMutability":"view","type":"function"},{"inputs":[{"internalType":"uint256[]","name":"_tokenIds","type":"uint256[]"}],"name":"claim","outputs":[],"stateMutability":"nonpayable","type":"function"},{"inputs":[],"name":"currentExchangeRate","outputs":[{"internalType":"uint256","name":"_exchangeRate","type":"uint256"}],"stateMutability":"view","type":"function"},{"inputs":[{"internalType":"uint256[]","name":"_tokenIds","type":"uint256[]"}],"name":"earned","outputs":[{"internalType":"uint256","name":"totalReward","type":"uint256"},{"internalType":"uint256[]","name":"claimableAmounts","type":"uint256[]"}],"stateMutability":"view","type":"function"},{"inputs":[{"internalType":"uint256","name":"_tokenId","type":"uint256"}],"name":"earned","outputs":[{"internalType":"uint256","name":"","type":"uint256"}],"stateMutability":"view","type":"function"},{"inputs":[{"internalType":"uint256","name":"tokenId","type":"uint256"}],"name":"getApproved","outputs":[{"internalType":"address","name":"","type":"address"}],"stateMutability":"view","type":"function"},{"inputs":[{"internalType":"uint256","name":"_tokenId","type":"uint256"}],"name":"getPositionInfo","outputs":[{"components":[{"internalType":"uint256","name":"tokenId","type":"uint256"},{"internalType":"address","name":"owner","type":"address"},{"internalType":"uint256","name":"balanceOfId","type":"uint256"},{"internalType":"uint256","name":"amountStakedOf","type":"uint256"},{"internalType":"uint256","name":"withdrawableAmountOf","type":"uint256"},{"internalType":"uint256","name":"loyalSince","type":"uint256"},{"internalType":"uint256","name":"boostPercentageOf","type":"uint256"},{"internalType":"uint256","name":"penaltyPercentageOf","type":"uint256"},{"internalType":"uint256","name":"penaltyAmountOf","type":"uint256"},{"internalType":"uint256","name":"pendingReward","type":"uint256"},{"internalType":"uint256","name":"lastWeightKnown","type":"uint256"}],"internalType":"struct StakedINTX.PositionInfo","name":"_positionInfo","type":"tuple"}],"stateMutability":"view","type":"function"},{"inputs":[{"internalType":"uint256[]","name":"_tokenId","type":"uint256[]"}],"name":"getPositionsInfo","outputs":[{"components":[{"internalType":"uint256","name":"tokenId","type":"uint256"},{"internalType":"address","name":"owner","type":"address"},{"internalType":"uint256","name":"balanceOfId","type":"uint256"},{"internalType":"uint256","name":"amountStakedOf","type":"uint256"},{"internalType":"uint256","name":"withdrawableAmountOf","type":"uint256"},{"internalType":"uint256","name":"loyalSince","type":"uint256"},{"internalType":"uint256","name":"boostPercentageOf","type":"uint256"},{"internalType":"uint256","name":"penaltyPercentageOf","type":"uint256"},{"internalType":"uint256","name":"penaltyAmountOf","type":"uint256"},{"internalType":"uint256","name":"pendingReward","type":"uint256"},{"internalType":"uint256","name":"lastWeightKnown","type":"uint256"}],"internalType":"struct StakedINTX.PositionInfo[]","name":"_positionInfo","type":"tuple[]"}],"stateMutability":"view","type":"function"},{"inputs":[{"internalType":"address","name":"_intx","type":"address"},{"internalType":"address","name":"_usdc","type":"address"}],"name":"initialize","outputs":[],"stateMutability":"nonpayable","type":"function"},{"inputs":[{"internalType":"address","name":"owner","type":"address"},{"internalType":"address","name":"operator","type":"address"}],"name":"isApprovedForAll","outputs":[{"internalType":"bool","name":"","type":"bool"}],"stateMutability":"view","type":"function"},{"inputs":[{"internalType":"uint256","name":"_tokenId","type":"uint256"}],"name":"isRestrictedToken","outputs":[{"internalType":"bool","name":"isRestricted","type":"bool"}],"stateMutability":"view","type":"function"},{"inputs":[],"name":"lastTimeRewardApplicable","outputs":[{"internalType":"uint256","name":"","type":"uint256"}],"stateMutability":"view","type":"function"},{"inputs":[],"name":"lastTokenId","outputs":[{"internalType":"uint256","name":"","type":"uint256"}],"stateMutability":"view","type":"function"},{"inputs":[],"name":"lastUpdateTime","outputs":[{"internalType":"uint256","name":"","type":"uint256"}],"stateMutability":"view","type":"function"},{"inputs":[{"internalType":"uint256","name":"","type":"uint256"}],"name":"loyalSince","outputs":[{"internalType":"uint256","name":"","type":"uint256"}],"stateMutability":"view","type":"function"},{"inputs":[],"name":"loyaltyDuration","outputs":[{"internalType":"uint256","name":"","type":"uint256"}],"stateMutability":"view","type":"function"},{"inputs":[],"name":"maxLoyaltyBoost","outputs":[{"internalType":"uint256","name":"","type":"uint256"}],"stateMutability":"view","type":"function"},{"inputs":[],"name":"maxPenalty","outputs":[{"internalType":"uint256","name":"","type":"uint256"}],"stateMutability":"view","type":"function"},{"inputs":[{"internalType":"uint256","name":"_tokenFrom","type":"uint256"},{"internalType":"uint256","name":"tokenTo","type":"uint256"}],"name":"merge","outputs":[],"stateMutability":"nonpayable","type":"function"},{"inputs":[],"name":"minPenalty","outputs":[{"internalType":"uint256","name":"","type":"uint256"}],"stateMutability":"view","type":"function"},{"inputs":[],"name":"name","outputs":[{"internalType":"string","name":"","type":"string"}],"stateMutability":"view","type":"function"},{"inputs":[{"internalType":"uint256","name":"_rewardAmount","type":"uint256"}],"name":"notifyReward","outputs":[],"stateMutability":"nonpayable","type":"function"},{"inputs":[],"name":"owner","outputs":[{"internalType":"address","name":"","type":"address"}],"stateMutability":"view","type":"function"},{"inputs":[{"internalType":"uint256","name":"tokenId","type":"uint256"}],"name":"ownerOf","outputs":[{"internalType":"address","name":"","type":"address"}],"stateMutability":"view","type":"function"},{"inputs":[{"internalType":"uint256","name":"_tokenId","type":"uint256"}],"name":"penaltyAmountOf","outputs":[{"internalType":"uint256","name":"penaltyAmount","type":"uint256"}],"stateMutability":"view","type":"function"},{"inputs":[{"internalType":"uint256","name":"_tokenId","type":"uint256"}],"name":"penaltyPercentageOf","outputs":[{"internalType":"uint256","name":"penaltyPercentage","type":"uint256"}],"stateMutability":"view","type":"function"},{"inputs":[],"name":"pendingOwner","outputs":[{"internalType":"address","name":"","type":"address"}],"stateMutability":"view","type":"function"},{"inputs":[{"internalType":"address","name":"","type":"address"}],"name":"pendingRewards","outputs":[{"internalType":"uint256","name":"","type":"uint256"}],"stateMutability":"view","type":"function"},{"inputs":[],"name":"periodFinish","outputs":[{"internalType":"uint256","name":"","type":"uint256"}],"stateMutability":"view","type":"function"},{"inputs":[],"name":"renounceOwnership","outputs":[],"stateMutability":"nonpayable","type":"function"},{"inputs":[{"internalType":"uint256","name":"","type":"uint256"}],"name":"restrictedToken","outputs":[{"internalType":"uint8","name":"","type":"uint8"}],"stateMutability":"view","type":"function"},{"inputs":[],"name":"rewardPerWeight","outputs":[{"internalType":"uint256","name":"","type":"uint256"}],"stateMutability":"view","type":"function"},{"inputs":[],"name":"rewardPerWeightStored","outputs":[{"internalType":"uint256","name":"","type":"uint256"}],"stateMutability":"view","type":"function"},{"inputs":[],"name":"rewardRate","outputs":[{"internalType":"uint256","name":"","type":"uint256"}],"stateMutability":"view","type":"function"},{"inputs":[],"name":"rewardToken","outputs":[{"internalType":"contract IERC20","name":"","type":"address"}],"stateMutability":"view","type":"function"},{"inputs":[{"internalType":"address","name":"from","type":"address"},{"internalType":"address","name":"to","type":"address"},{"internalType":"uint256","name":"tokenId","type":"uint256"}],"name":"safeTransferFrom","outputs":[],"stateMutability":"nonpayable","type":"function"},{"inputs":[{"internalType":"address","name":"from","type":"address"},{"internalType":"address","name":"to","type":"address"},{"internalType":"uint256","name":"tokenId","type":"uint256"},{"internalType":"bytes","name":"data","type":"bytes"}],"name":"safeTransferFrom","outputs":[],"stateMutability":"nonpayable","type":"function"},{"inputs":[{"internalType":"address","name":"operator","type":"address"},{"internalType":"bool","name":"approved","type":"bool"}],"name":"setApprovalForAll","outputs":[],"stateMutability":"nonpayable","type":"function"},{"inputs":[{"internalType":"address","name":"_teamVestingContract","type":"address"}],"name":"setTeamVestingContract","outputs":[],"stateMutability":"nonpayable","type":"function"},{"inputs":[{"internalType":"uint256","name":"_tokenId","type":"uint256"},{"internalType":"uint256[]","name":"_splitWeights","type":"uint256[]"}],"name":"split","outputs":[{"internalType":"uint256[]","name":"_tokenIds","type":"uint256[]"}],"stateMutability":"nonpayable","type":"function"},{"inputs":[{"internalType":"uint256","name":"_intxAmount","type":"uint256"}],"name":"stake","outputs":[{"internalType":"uint256","name":"_tokenId","type":"uint256"}],"stateMutability":"nonpayable","type":"function"},{"inputs":[{"internalType":"address","name":"_to","type":"address"},{"internalType":"uint256","name":"_intxAmount","type":"uint256"}],"name":"stakeFor","outputs":[{"internalType":"uint256","name":"_tokenId","type":"uint256"}],"stateMutability":"nonpayable","type":"function"},{"inputs":[{"internalType":"bytes4","name":"interfaceId","type":"bytes4"}],"name":"supportsInterface","outputs":[{"internalType":"bool","name":"","type":"bool"}],"stateMutability":"view","type":"function"},{"inputs":[],"name":"symbol","outputs":[{"internalType":"string","name":"","type":"string"}],"stateMutability":"view","type":"function"},{"inputs":[],"name":"teamVestingContract","outputs":[{"internalType":"address","name":"","type":"address"}],"stateMutability":"view","type":"function"},{"inputs":[{"internalType":"uint256","name":"tokenId","type":"uint256"}],"name":"tokenURI","outputs":[{"internalType":"string","name":"","type":"string"}],"stateMutability":"view","type":"function"},{"inputs":[],"name":"totalWeight","outputs":[{"internalType":"uint256","name":"","type":"uint256"}],"stateMutability":"view","type":"function"},{"inputs":[],"name":"totalXINTX","outputs":[{"internalType":"uint256","name":"","type":"uint256"}],"stateMutability":"view","type":"function"},{"inputs":[{"internalType":"address","name":"from","type":"address"},{"internalType":"address","name":"to","type":"address"},{"internalType":"uint256","name":"tokenId","type":"uint256"}],"name":"transferFrom","outputs":[],"stateMutability":"nonpayable","type":"function"},{"inputs":[{"internalType":"address","name":"newOwner","type":"address"}],"name":"transferOwnership","outputs":[],"stateMutability":"nonpayable","type":"function"},{"inputs":[{"internalType":"uint256","name":"_tokenId","type":"uint256"}],"name":"unstake","outputs":[{"internalType":"uint256","name":"_intxAmountOut","type":"uint256"}],"stateMutability":"nonpayable","type":"function"},{"inputs":[{"internalType":"uint256","name":"_tokenId","type":"uint256"},{"internalType":"uint256","name":"_xIntxAmountWithdraw","type":"uint256"}],"name":"unstakePartially","outputs":[{"internalType":"uint256","name":"_intxAmountOut","type":"uint256"},{"internalType":"uint256","name":"_newTokenId","type":"uint256"}],"stateMutability":"nonpayable","type":"function"},{"inputs":[{"internalType":"uint256[]","name":"_tokenIds","type":"uint256[]"}],"name":"updateWeights","outputs":[],"stateMutability":"nonpayable","type":"function"},{"inputs":[{"internalType":"uint256","name":"_tokenId","type":"uint256"}],"name":"withdrawableAmountOf","outputs":[{"internalType":"uint256","name":"withdrawableAmount","type":"uint256"}],"stateMutability":"view","type":"function"}],"evm":{"bytecode":{"linkReferences":{},"object":"60806040523480156200001157600080fd5b506200001c62000022565b620000e3565b600054610100900460ff16156200008f5760405162461bcd60e51b815260206004820152602760248201527f496e697469616c697a61626c653a20636f6e747261637420697320696e697469604482015266616c697a696e6760c81b606482015260840160405180910390fd5b60005460ff90811614620000e1576000805460ff191660ff9081179091556040519081527f7f26b83ff96e1f2b6a682f133852f6798a09c465da95921460cefb38474024989060200160405180910390a15b565b614d5880620000f36000396000f3fe608060405234801561001057600080fd5b50600436106103c55760003560e01c806379ba5097116101ff578063c205f3411161011a578063e30c3978116100ad578063f290dfa71161007c578063f290dfa71461086a578063f2fde38b14610892578063f7c618c1146108a5578063f84ddf0b146108b957600080fd5b8063e30c3978146107ff578063e985e9c514610810578063ebe2b12b1461084c578063ef7297de1461085657600080fd5b8063d1a249ab116100e9578063d1a249ab146107bb578063d1c2babb146107c5578063d975dfed146107d8578063df2e0b97146107eb57600080fd5b8063c205f3411461076a578063c87b56dd1461077d578063c8f33c9114610790578063cfd0e1251461079a57600080fd5b8063988dc31e11610192578063a345280a11610161578063a345280a14610729578063a36849771461073c578063a694fc3a14610744578063b88d4fde1461075757600080fd5b8063988dc31e146106cf578063a00ea0c5146106e2578063a1c95e5a146106f5578063a22cb4651461071657600080fd5b80638da5cb5b116101ce5780638da5cb5b1461068c5780638fca5a591461069d57806395d89b41146106bd57806396c82e57146106c557600080fd5b806379ba5097146106635780637b0a47ee1461066b57806380faa57d146106755780638b8fbd921461067d57600080fd5b806342842e0e116102ef57806360993b5b116102825780636ba4c138116102515780636ba4c1381461062257806370a0823114610635578063715018a614610648578063771602f71461065057600080fd5b806360993b5b146105c95780636352211e146105dc578063645bfd9a146105ef57806369c672471461060257600080fd5b8063519f5099116102be578063519f5099146105825780635200e79e146105a2578063520bf08a146105ac5780635a48a97f146105b657600080fd5b806342842e0e14610528578063485cc9551461053b5780634d62f5901461054e5780634d6ed8c41461056f57600080fd5b80632212b806116103675780632ee40908116103365780632ee40908146104d757806330f91619146104ea57806331d7a262146104fd5780633228dd591461051e57600080fd5b80632212b8061461049f57806323b872dd146104a95780632ac3f450146104bc5780632e17de78146104c457600080fd5b806308d9788d116103a357806308d9788d14610432578063095ea7b3146104685780630eba98491461047d5780631be052891461049557600080fd5b806301ffc9a7146103ca57806306fdde03146103f2578063081812fc14610407575b600080fd5b6103dd6103d8366004614542565b6108c3565b60405190151581526020015b60405180910390f35b6103fa6109a8565b6040516103e991906145af565b61041a6104153660046145c2565b610a3a565b6040516001600160a01b0390911681526020016103e9565b6104566104403660046145c2565b6101406020526000908152604090205460ff1681565b60405160ff90911681526020016103e9565b61047b6104763660046145f2565b610a61565b005b6104876101325481565b6040519081526020016103e9565b61048762093a8081565b6104876101305481565b61047b6104b736600461461c565b610b97565b610487610c1e565b6104876104d23660046145c2565b610cea565b6104876104e53660046145f2565b610d80565b61047b6104f83660046146a4565b610dc6565b61048761050b3660046146e6565b61013f6020526000908152604090205481565b6104876101365481565b61047b61053636600461461c565b610e0e565b61047b610549366004614701565b610e29565b61056161055c3660046146a4565b6110df565b6040516103e992919061476f565b61048761057d3660046145c2565b61119f565b6105956105903660046145c2565b611210565b6040516103e9919061480b565b6104876101315481565b61048761012e5481565b6104876105c43660046145c2565b61127f565b61047b6105d73660046145c2565b6112c7565b61041a6105ea3660046145c2565b6114a8565b6104876105fd3660046145c2565b61150d565b61061561061036600461481a565b611533565b6040516103e99190614866565b61047b6106303660046146a4565b6115f8565b6104876106433660046146e6565b61180d565b61047b6118a7565b61047b61065e366004614879565b6118b1565b61047b611974565b6104876101355481565b6104876119ff565b610487670de0b6b3a764000081565b60c9546001600160a01b031661041a565b6106b06106ab3660046146a4565b611a13565b6040516103e9919061489b565b6103fa611b2d565b6104876101375481565b6104876106dd3660046145c2565b611b3c565b6104876106f03660046145c2565b611b62565b6104876107033660046145c2565b61013b6020526000908152604090205481565b61047b6107243660046148f8565b611b88565b6103dd6107373660046145c2565b611b97565b610487611bc5565b6104876107523660046145c2565b611bcf565b61047b610765366004614945565b611bdc565b61047b6107783660046146e6565b611c6a565b6103fa61078b3660046145c2565b611ca2565b6104876101335481565b6104876107a83660046145c2565b61013a6020526000908152604090205481565b61048761012f5481565b61047b6107d3366004614879565b611d15565b6104876107e63660046145c2565b611db8565b6101385461041a906001600160a01b031681565b60fb546001600160a01b031661041a565b6103dd61081e366004614701565b6001600160a01b039182166000908152609c6020908152604080832093909416825291909152205460ff1690565b6104876101345481565b6101415461041a906001600160a01b031681565b61087d610878366004614879565b611e00565b604080519283526020830191909152016103e9565b61047b6108a03660046146e6565b611fcf565b6101395461041a906001600160a01b031681565b61048761012d5481565b60007fffffffff0000000000000000000000000000000000000000000000000000000082167f80ac58cd00000000000000000000000000000000000000000000000000000000148061095657507fffffffff0000000000000000000000000000000000000000000000000000000082167f5b5e139f00000000000000000000000000000000000000000000000000000000145b806109a257507f01ffc9a7000000000000000000000000000000000000000000000000000000007fffffffff000000000000000000000000000000000000000000000000000000008316145b92915050565b6060609780546109b790614a21565b80601f01602080910402602001604051908101604052809291908181526020018280546109e390614a21565b8015610a305780601f10610a0557610100808354040283529160200191610a30565b820191906000526020600020905b815481529060010190602001808311610a1357829003601f168201915b5050505050905090565b6000610a458261204d565b506000908152609b60205260409020546001600160a01b031690565b6000610a6c826114a8565b9050806001600160a01b0316836001600160a01b031603610afa5760405162461bcd60e51b815260206004820152602160248201527f4552433732313a20617070726f76616c20746f2063757272656e74206f776e6560448201527f720000000000000000000000000000000000000000000000000000000000000060648201526084015b60405180910390fd5b336001600160a01b0382161480610b165750610b16813361081e565b610b885760405162461bcd60e51b815260206004820152603d60248201527f4552433732313a20617070726f76652063616c6c6572206973206e6f7420746f60448201527f6b656e206f776e6572206f7220617070726f76656420666f7220616c6c0000006064820152608401610af1565b610b9283836120b1565b505050565b610ba1338261212c565b610c135760405162461bcd60e51b815260206004820152602d60248201527f4552433732313a2063616c6c6572206973206e6f7420746f6b656e206f776e6560448201527f72206f7220617070726f766564000000000000000000000000000000000000006064820152608401610af1565b610b928383836121ab565b600061013754600003610c3357506101365490565b60006101375411610c865760405162461bcd60e51b815260206004820152601060248201527f496e636f727265637420776569676874000000000000000000000000000000006044820152606401610af1565b600061013354610c946119ff565b610c9e9190614a71565b9050610137546101355482610cb39190614a84565b610ccc906ec097ce7bc90715b34b9f1000000000614a84565b610cd69190614a9b565b61013654610ce49190614abd565b91505090565b6000610cf582611b97565b15610d685760405162461bcd60e51b815260206004820152603a60248201527f5468697320746f6b656e20697320726573747269637465642c20796f7520636160448201527f6e277420756e7374616b652f7472616e736665722f73706c69740000000000006064820152608401610af1565b610d7182612234565b9050610d7b6124fb565b919050565b6000610d8d33848461254c565b610141549091506001600160a01b03163303610dbe57600081815261014060205260409020805460ff191660011790555b6109a26124fb565b8060005b81811015610e0557610df3848483818110610de757610de7614ad0565b90506020020135612705565b80610dfd81614ae6565b915050610dca565b50610b926124fb565b610b9283838360405180602001604052806000815250611bdc565b600054610100900460ff1615808015610e495750600054600160ff909116105b80610e635750303b158015610e63575060005460ff166001145b610ed55760405162461bcd60e51b815260206004820152602e60248201527f496e697469616c697a61626c653a20636f6e747261637420697320616c72656160448201527f647920696e697469616c697a65640000000000000000000000000000000000006064820152608401610af1565b6000805460ff191660011790558015610ef8576000805461ff0019166101001790555b610f006127cb565b610f746040518060400160405280600b81526020017f5374616b656420494e54580000000000000000000000000000000000000000008152506040518060400160405280600581526020017f58494e545800000000000000000000000000000000000000000000000000000081525061283e565b610f7c6128b3565b6001600160a01b038316610fd25760405162461bcd60e51b815260206004820152601460248201527f43616e27742075736520307820616464726573730000000000000000000000006044820152606401610af1565b6001600160a01b0382166110285760405162461bcd60e51b815260206004820152601460248201527f43616e27742075736520307820616464726573730000000000000000000000006044820152606401610af1565b61013880546001600160a01b0380861673ffffffffffffffffffffffffffffffffffffffff19928316179092556101398054928516929091169190911790556293a80061012f556722b1c8c1227a0000610130556703782dace9d9000061013155662386f26fc10000610132558015610b92576000805461ff0019169055604051600181527f7f26b83ff96e1f2b6a682f133852f6798a09c465da95921460cefb38474024989060200160405180910390a1505050565b60006060828067ffffffffffffffff8111156110fd576110fd61492f565b604051908082528060200260200182016040528015611126578160200160208202803683370190505b50915060005b8181101561119657600061115787878481811061114b5761114b614ad0565b9050602002013561119f565b90506111638186614abd565b94508084838151811061117857611178614ad0565b6020908102919091010152508061118e81614ae6565b91505061112c565b50509250929050565b600081815261013c602090815260408083205461013e83528184205461013d909352908320549091906ec097ce7bc90715b34b9f1000000000906111e1610c1e565b6111eb9190614a71565b6111f59084614a84565b6111ff9190614a9b565b6112099190614abd565b9392505050565b6112766040518061016001604052806000815260200160006001600160a01b031681526020016000815260200160008152602001600081526020016000815260200160008152602001600081526020016000815260200160008152602001600081525090565b6109a282612926565b60008061128b83612a8b565b9050600061129884612ab9565b905081156112c057670de0b6b3a76400006112b38284614a84565b6112bd9190614a9b565b92505b5050919050565b6112cf612b62565b6112d7612bbb565b6112e16000612705565b6112fa33610139546001600160a01b0316903084612c15565b61013454421061131a5761131162093a8082614a9b565b6101355561135f565b6000426101345461132b9190614a71565b90506000610135548261133e9190614a84565b905062093a8061134e8285614abd565b6113589190614a9b565b6101355550505b610139546040517f70a082310000000000000000000000000000000000000000000000000000000081523060048201526000916001600160a01b0316906370a0823190602401602060405180830381865afa1580156113c2573d6000803e3d6000fd5b505050506040513d601f19601f820116820180604052508101906113e69190614b00565b90506113f562093a8082614a9b565b6101355411156114475760405162461bcd60e51b815260206004820152601860248201527f50726f76696465642072657761726420746f6f206869676800000000000000006044820152606401610af1565b4261013381905561145c9062093a8090614abd565b610134556040518281527fde88a922e0d3b88b24e9623efeb464919c6bf9f66857a65e2bfcf2ce87a9433d9060200160405180910390a161149b6124fb565b506114a560018055565b50565b6000818152609960205260408120546001600160a01b0316806109a25760405162461bcd60e51b815260206004820152601860248201527f4552433732313a20696e76616c696420746f6b656e20494400000000000000006044820152606401610af1565b6000818152609960205260408120546001600160a01b031615610d7b576109a282612ccc565b606061153e84611b97565b156115b15760405162461bcd60e51b815260206004820152603a60248201527f5468697320746f6b656e20697320726573747269637465642c20796f7520636160448201527f6e277420756e7374616b652f7472616e736665722f73706c69740000000000006064820152608401610af1565b6115ee84848480806020026020016040519081016040528093929190818152602001838360200280828437600092019190915250612d6992505050565b90506112096124fb565b33600090815261013f60205260408120548291908190815b848110156117765786868281811061162a5761162a614ad0565b905060200201359350611654846000908152609960205260409020546001600160a01b0316151590565b6116a05760405162461bcd60e51b815260206004820152601c60248201527f5468697320706f736974696f6e20646f65736e27742065786973742e000000006044820152606401610af1565b6000848152609960205260409020546001600160a01b0316925033831461172f5760405162461bcd60e51b815260206004820152602760248201527f596f7520617265206e6f7420746865206f776e6572206f66207468697320706f60448201527f736974696f6e2e000000000000000000000000000000000000000000000000006064820152608401610af1565b61173884612705565b600084815261013e60205260409020546117529083614abd565b600085815261013e602052604081205591508061176e81614ae6565b915050611610565b5033600081815261013f6020526040812055610139546117a2916001600160a01b0390911690836132bd565b85856040516117b2929190614b19565b6040518091039020826001600160a01b03167f916f43dce61aa4c4d8761c25ddcacfe178ea96a18f68d2775354bbc06be75aaa836040516117f591815260200190565b60405180910390a36118056124fb565b505050505050565b60006001600160a01b03821661188b5760405162461bcd60e51b815260206004820152602960248201527f4552433732313a2061646472657373207a65726f206973206e6f74206120766160448201527f6c6964206f776e657200000000000000000000000000000000000000000000006064820152608401610af1565b506001600160a01b03166000908152609a602052604090205490565b6118af612bbb565b565b6118ba81611b97565b156119535760405162461bcd60e51b815260206004820152605260248201527f5468697320746f6b656e20697320726573747269637465642c20796f7520636160448201527f6e27742061646420696e747820746f2069742c206372656174652061206e657760648201527f20706f736974696f6e20696e73746561642e0000000000000000000000000000608482015260a401610af1565b600061196033338561254c565b905061196c8183613306565b610b926124fb565b60fb5433906001600160a01b031681146119f65760405162461bcd60e51b815260206004820152602960248201527f4f776e61626c6532537465703a2063616c6c6572206973206e6f74207468652060448201527f6e6577206f776e657200000000000000000000000000000000000000000000006064820152608401610af1565b6114a581613757565b6000611a0e426101345461377d565b905090565b6060818067ffffffffffffffff811115611a2f57611a2f61492f565b604051908082528060200260200182016040528015611ac657816020015b611ab36040518061016001604052806000815260200160006001600160a01b031681526020016000815260200160008152602001600081526020016000815260200160008152602001600081526020016000815260200160008152602001600081525090565b815260200190600190039081611a4d5790505b50915060005b81811015611b2557611af5858583818110611ae957611ae9614ad0565b90506020020135612926565b838281518110611b0757611b07614ad0565b60200260200101819052508080611b1d90614ae6565b915050611acc565b505092915050565b6060609880546109b790614a21565b6000818152609960205260408120546001600160a01b031615610d7b576109a282612ab9565b6000818152609960205260408120546001600160a01b031615610d7b576109a282612a8b565b611b93338383613793565b5050565b6000818152610140602052604081205460ff16600103610d7b576368383020421015610d7b57506001919050565b6000611a0e613861565b6000610d7133338461254c565b611be6338361212c565b611c585760405162461bcd60e51b815260206004820152602d60248201527f4552433732313a2063616c6c6572206973206e6f7420746f6b656e206f776e6560448201527f72206f7220617070726f766564000000000000000000000000000000000000006064820152608401610af1565b611c64848484846138a4565b50505050565b611c72612bbb565b610141805473ffffffffffffffffffffffffffffffffffffffff19166001600160a01b0392909216919091179055565b6060611cad8261204d565b6000611cc460408051602081019091526000815290565b90506000815111611ce45760405180602001604052806000815250611209565b80611cee8461392d565b604051602001611cff929190614b5b565b6040516020818303038152906040529392505050565b600081815261014060205260408082205484835291205460ff908116911614611da65760405162461bcd60e51b815260206004820152602c60248201527f596f752063616e2774206d6572676520746f6b656e732077697468206469666660448201527f6572656e742074797065732e00000000000000000000000000000000000000006064820152608401610af1565b611db08282613306565b611b936124fb565b600080611dc483612a8b565b90506000611dd184612ab9565b905081156112c057670de0b6b3a7640000611dec8284614a84565b611df69190614a9b565b6112bd9083614a71565b600080611e0c84611b97565b15611e7f5760405162461bcd60e51b815260206004820152603a60248201527f5468697320746f6b656e20697320726573747269637465642c20796f7520636160448201527f6e277420756e7374616b652f7472616e736665722f73706c69740000000000006064820152608401610af1565b600084815261013b6020526040902054838111611f045760405162461bcd60e51b815260206004820152602e60248201527f596f752063616e2774207061727469616c6c79207769746864726177206d6f7260448201527f65207468616e20796f75206f776e0000000000000000000000000000000000006064820152608401610af1565b6040805160028082526060820183526000926020830190803683370190505090508481600081518110611f3957611f39614ad0565b6020908102919091010152611f4e8583614a71565b81600181518110611f6157611f61614ad0565b6020026020010181815250506000611f798783612d69565b9050611f9e81600081518110611f9157611f91614ad0565b6020026020010151612234565b945080600181518110611fb357611fb3614ad0565b60200260200101519350611fc56124fb565b5050509250929050565b611fd7612bbb565b60fb80546001600160a01b03831673ffffffffffffffffffffffffffffffffffffffff19909116811790915561201560c9546001600160a01b031690565b6001600160a01b03167f38d16b8cac22d99fc7c124b9cd0de2d3fa1faef420bfe791d8c362d765e2270060405160405180910390a350565b6000818152609960205260409020546001600160a01b03166114a55760405162461bcd60e51b815260206004820152601860248201527f4552433732313a20696e76616c696420746f6b656e20494400000000000000006044820152606401610af1565b6000818152609b60205260409020805473ffffffffffffffffffffffffffffffffffffffff19166001600160a01b03841690811790915581906120f3826114a8565b6001600160a01b03167f8c5be1e5ebec7d5bd14f71427d1e84f3dd0314c0f7b2291e5b200ac8c7c3b92560405160405180910390a45050565b600080612138836114a8565b9050806001600160a01b0316846001600160a01b0316148061217f57506001600160a01b038082166000908152609c602090815260408083209388168352929052205460ff165b806121a35750836001600160a01b031661219884610a3a565b6001600160a01b0316145b949350505050565b6121b481611b97565b15612229576040805162461bcd60e51b81526020600482015260248101919091527f5468697320746f6b656e20697320726573747269637465642c20796f7520636160448201527f6e277420756e7374616b652f7472616e736665722f6d657267652f73706c69746064820152608401610af1565b610b928383836139cd565b600061223e612b62565b6000828152609960205260409020546001600160a01b03166122a25760405162461bcd60e51b815260206004820152601c60248201527f5468697320706f736974696f6e20646f65736e27742065786973742e000000006044820152606401610af1565b6000828152609960205260409020546001600160a01b03163381146123095760405162461bcd60e51b815260206004820152601360248201527f4e6f7420796f75722078494e5458204e46542e000000000000000000000000006044820152606401610af1565b61231283612705565b600083815261013b602052604081205490670de0b6b3a764000061233586612ccc565b61233f9084614a84565b6123499190614a9b565b90506000612355613861565b90506000670de0b6b3a764000061236c8386614a84565b6123769190614a9b565b90506000670de0b6b3a764000061238c89612ab9565b6123969084614a84565b6123a09190614a9b565b90506123ac8183614a71565b600089815261013e60205260409020549097501561240257600088815261013e60209081526040808320546001600160a01b038a16845261013f90925282208054919290916123fc908490614abd565b90915550505b600088815261013a6020908152604080832083905561013b825280832083905561013c825280832083905561013d825280832083905561013e90915281205561244a88613c03565b8461012e600082825461245d9190614a71565b925050819055508361013760008282546124779190614a71565b909155505061013854612494906001600160a01b031687896132bd565b61012e5460408051878152602081018a905280820184905260608101929092525189916001600160a01b038916917f44bd20a79e993bdcc7cbedf54a3b4d19fb78490124b6b90d04fe3242eea579e89181900360800190a3505050505050610d7b60018055565b7f107ded4700c40c119c1250039eb39b50e8a49f47e8de2028d5efe1d7bc5b4ebd612524613ca5565b61012e54610137546040805193845260208401929092529082015260600160405180910390a1565b6000612556612b62565b600082116125a65760405162461bcd60e51b815260206004820152601360248201527f43616e2774207374616b65203020696e74582e000000000000000000000000006044820152606401610af1565b60006125b0613861565b610138549091506125cc906001600160a01b0316863086612c15565b61012d80549060006125dd83614ae6565b91905055506125ef8461012d54613d2c565b6125fb61012d54612705565b600081612610670de0b6b3a764000086614a84565b61261a9190614a9b565b61012d8054600090815261013a602090815260408083204290559254825261013b905290812082905561012e8054929350839290919061265b908490614abd565b925050819055508061013760008282546126759190614abd565b909155505061012d8054600090815261013c6020908152604091829020849055915461012e54610137548351868152948501899052928401526060830191909152906001600160a01b0380881691908916907f52c6b7a228763dc832bef1e2dee48707b24b8f1400a6335b3af6d5def4f5bb219060800160405180910390a461012d549250505061120960018055565b61270d610c1e565b610136556127196119ff565b6101335580156114a55761272c8161119f565b600082815261013e6020526040812091909155670de0b6b3a764000061275183612ccc565b600084815261013b602052604090205461276b9190614a84565b6127759190614a9b565b600083815261013c60205260409020546101375491925082916127989190614a71565b6127a29190614abd565b61013755600091825261013c60209081526040808420929092556101365461013d909152912055565b600054610100900460ff166128365760405162461bcd60e51b815260206004820152602b60248201527f496e697469616c697a61626c653a20636f6e7472616374206973206e6f74206960448201526a6e697469616c697a696e6760a81b6064820152608401610af1565b6118af613ec4565b600054610100900460ff166128a95760405162461bcd60e51b815260206004820152602b60248201527f496e697469616c697a61626c653a20636f6e7472616374206973206e6f74206960448201526a6e697469616c697a696e6760a81b6064820152608401610af1565b611b938282613f2f565b600054610100900460ff1661291e5760405162461bcd60e51b815260206004820152602b60248201527f496e697469616c697a61626c653a20636f6e7472616374206973206e6f74206960448201526a6e697469616c697a696e6760a81b6064820152608401610af1565b6118af613fb3565b61298c6040518061016001604052806000815260200160006001600160a01b031681526020016000815260200160008152602001600081526020016000815260200160008152602001600081526020016000815260200160008152602001600081525090565b600061299783612a8b565b905060006129a484612ab9565b8484526000858152609960209081526040808320546001600160a01b03168288015287835261013b909152908190205490850152606084018390529050670de0b6b3a76400006129f48284614a84565b6129fe9190614a9b565b612a089083614a71565b6080840152600084815261013a602052604090205460a0840152612a2b84612ccc565b60c084015260e08301819052670de0b6b3a7640000612a4a8284614a84565b612a549190614a9b565b6101008401525050600082815261013e602090815260408083205461012085015293825261013c9052919091205461014082015290565b600081815261013b602052604081205481612aa4613861565b9050670de0b6b3a76400006112b38284614a84565b600081815261013a6020526040812054808203612ad95750600092915050565b6000612ae58242614a71565b905061012f54811115612af8575061012f545b670de0b6b3a76400006101315461012f54670de0b6b3a764000084612b1d9190614a84565b612b279190614a9b565b612b319190614a84565b612b3b9190614a9b565b61013154612b499190614a71565b9250610132548310156112c05750506101325492915050565b600260015403612bb45760405162461bcd60e51b815260206004820152601f60248201527f5265656e7472616e637947756172643a207265656e7472616e742063616c6c006044820152606401610af1565b6002600155565b60c9546001600160a01b031633146118af5760405162461bcd60e51b815260206004820181905260248201527f4f776e61626c653a2063616c6c6572206973206e6f7420746865206f776e65726044820152606401610af1565b6040516001600160a01b0380851660248301528316604482015260648101829052611c649085907f23b872dd00000000000000000000000000000000000000000000000000000000906084015b60408051601f198184030181529190526020810180517bffffffffffffffffffffffffffffffffffffffffffffffffffffffff167fffffffff0000000000000000000000000000000000000000000000000000000090931692909217909152614027565b60018055565b600081815261013a6020526040812054808203612cec5750600092915050565b6000612cf88242614a71565b905061012f54811115612d0b575061012f545b670de0b6b3a76400008061013054612d239190614a71565b61012f54612d39670de0b6b3a764000085614a84565b612d439190614a9b565b612d4d9190614a84565b612d579190614a9b565b6112bd90670de0b6b3a7640000614abd565b6060612d73612b62565b6000838152609960205260409020546001600160a01b0316612dd75760405162461bcd60e51b815260206004820152601c60248201527f5468697320706f736974696f6e20646f65736e27742065786973742e000000006044820152606401610af1565b6000838152609960205260409020546001600160a01b0316338114612e3e5760405162461bcd60e51b815260206004820152601360248201527f4e6f7420796f75722078494e5458204e46542e000000000000000000000000006044820152606401610af1565b825160018111612eb65760405162461bcd60e51b815260206004820152602c60248201527f596f752063616e27742073706c697420746869732058494e5458206c6573732060448201527f7468616e20322074696d657300000000000000000000000000000000000000006064820152608401610af1565b600a811115612f2d5760405162461bcd60e51b815260206004820152602d60248201527f596f752063616e27742073706c697420746869732058494e5458206d6f72652060448201527f7468616e2031302074696d6573000000000000000000000000000000000000006064820152608401610af1565b8067ffffffffffffffff811115612f4657612f4661492f565b604051908082528060200260200182016040528015612f6f578160200160208202803683370190505b509250612f7b85612705565b600085815261013b602090815260408083205461013a83528184205461013d9093529083205461012e80549293928491908690612fb9908490614a71565b9091555050600089815261013c6020526040812054610137805491929091612fe2908490614a71565b90915550600090505b8581101561302c5788818151811061300557613005614ad0565b6020026020010151856130189190614abd565b94508061302481614ae6565b915050612feb565b5060005b8581101561321257600085858b848151811061304e5761304e614ad0565b60200260200101516130609190614a84565b61306a9190614a9b565b9050600081116130bc5760405162461bcd60e51b815260206004820152601460248201527f43616e27742073706c697420302078494e54582e0000000000000000000000006044820152606401610af1565b61012d80549060006130cd83614ae6565b91905055506130df8861012d54613d2c565b61012d548983815181106130f5576130f5614ad0565b60209081029190910181019190915261012d8054600090815261013a835260408082208890558254825261013b90935291822083905554670de0b6b3a76400009061313f90612ccc565b6131499084614a84565b6131539190614a9b565b61012d8054600090815261013c602090815260408083208590559254825261013d905290812086905561012e80549293508492909190613194908490614abd565b925050819055508061013760008282546131ae9190614abd565b909155505061012d5460408051918252602082018490528d916001600160a01b038c16917ff66885c33d648fcd0d97e0f2a18e30102169c22763473af0fb716f11b4a17dd6910160405180910390a35050808061320a90614ae6565b915050613030565b50600089815261013e60205260409020541561326657600089815261013e60209081526040808320546001600160a01b038a16845261013f9092528220805491929091613260908490614abd565b90915550505b600089815261013a6020908152604080832083905561013b825280832083905561013c825280832083905561013d825280832083905561013e9091528120556132ae89613c03565b5050505050506109a260018055565b6040516001600160a01b038316602482015260448101829052610b929084907fa9059cbb0000000000000000000000000000000000000000000000000000000090606401612c62565b61330e612b62565b6000828152609960205260409020546001600160a01b03166133725760405162461bcd60e51b815260206004820152601c60248201527f5468697320706f736974696f6e20646f65736e27742065786973742e000000006044820152606401610af1565b6000818152609960205260409020546001600160a01b03166133d65760405162461bcd60e51b815260206004820152601c60248201527f5468697320706f736974696f6e20646f65736e27742065786973742e000000006044820152606401610af1565b6000828152609960205260409020546001600160a01b031633811461343d5760405162461bcd60e51b815260206004820152601e60248201527f46726f6d204e46542069736e277420796f75722078494e5458204e46542e00006044820152606401610af1565b6000828152609960205260409020546001600160a01b038281169116146134a65760405162461bcd60e51b815260206004820152601760248201527f546f204e46542069736e27742078494e5458204e46542e0000000000000000006044820152606401610af1565b6134af83612705565b6134b882612705565b600083815261013b602090815260408083205461013a9092528220549091906134e19042614a71565b905061012f548111156134f4575061012f545b600084815261013b602090815260408083205461013a90925282205490919061351d9042614a71565b905061012f54811115613530575061012f545b600061353c8386614abd565b9050600081116135b45760405162461bcd60e51b815260206004820152602360248201527f43616e2774206d616b65206120706f736974696f6e207769746820302078494e60448201527f54582e00000000000000000000000000000000000000000000000000000000006064820152608401610af1565b6000816135c18585614a84565b6135cb9190614a9b565b826135d68888614a84565b6135e09190614a9b565b6135ea9190614abd565b600089815261013b6020526040902083905590506136088142614a71565b600089815261013a6020526040812091909155670de0b6b3a764000061362d8a612ccc565b6136379085614a84565b6136419190614a9b565b60008a815261013c602090815260408083208490558d835261013e909152902054909150156136a85760008a815261013e60209081526040808320546001600160a01b038c16845261013f90925282208054919290916136a2908490614abd565b90915550505b60008a815261013a6020908152604080832083905561013b825280832083905561013c825280832083905561013d825280832083905561013e9091528120556136f08a613c03565b896001600160a01b0389167f50d7f0ef4f7b59921566f6b835fb032efa0fd0dacccb9361292f89b7aa6bafdd8b866137288742614a71565b6040805193845260208401929092529082015260600160405180910390a35050505050505050611b9360018055565b60fb805473ffffffffffffffffffffffffffffffffffffffff191690556114a58161410f565b600081831061378c5781611209565b5090919050565b816001600160a01b0316836001600160a01b0316036137f45760405162461bcd60e51b815260206004820152601960248201527f4552433732313a20617070726f766520746f2063616c6c6572000000000000006044820152606401610af1565b6001600160a01b038381166000818152609c6020908152604080832094871680845294825291829020805460ff191686151590811790915591519182527f17307eab39ab6107e8899845ad3d59bd9653f200f220920489ca2b5937696c31910160405180910390a3505050565b600061012e5460000361387b5750670de0b6b3a764000090565b61012e54670de0b6b3a7640000613890613ca5565b61389a9190614a84565b611a0e9190614a9b565b6138af8484846121ab565b6138bb8484848461416e565b611c645760405162461bcd60e51b815260206004820152603260248201527f4552433732313a207472616e7366657220746f206e6f6e20455243373231526560448201527f63656976657220696d706c656d656e74657200000000000000000000000000006064820152608401610af1565b6060600061393a8361430f565b600101905060008167ffffffffffffffff81111561395a5761395a61492f565b6040519080825280601f01601f191660200182016040528015613984576020820181803683370190505b5090508181016020015b600019017f3031323334353637383961626364656600000000000000000000000000000000600a86061a8153600a850494508461398e57509392505050565b826001600160a01b03166139e0826114a8565b6001600160a01b031614613a5c5760405162461bcd60e51b815260206004820152602560248201527f4552433732313a207472616e736665722066726f6d20696e636f72726563742060448201527f6f776e65720000000000000000000000000000000000000000000000000000006064820152608401610af1565b6001600160a01b038216613ad75760405162461bcd60e51b8152602060048201526024808201527f4552433732313a207472616e7366657220746f20746865207a65726f2061646460448201527f72657373000000000000000000000000000000000000000000000000000000006064820152608401610af1565b826001600160a01b0316613aea826114a8565b6001600160a01b031614613b665760405162461bcd60e51b815260206004820152602560248201527f4552433732313a207472616e736665722066726f6d20696e636f72726563742060448201527f6f776e65720000000000000000000000000000000000000000000000000000006064820152608401610af1565b6000818152609b60209081526040808320805473ffffffffffffffffffffffffffffffffffffffff199081169091556001600160a01b03878116808652609a8552838620805460001901905590871680865283862080546001019055868652609990945282852080549092168417909155905184937fddf252ad1be2c89b69c2b068fc378daa952ba7f163c4a11628f55a4df523b3ef91a4505050565b6000613c0e826114a8565b9050613c19826114a8565b6000838152609b60209081526040808320805473ffffffffffffffffffffffffffffffffffffffff199081169091556001600160a01b038516808552609a845282852080546000190190558785526099909352818420805490911690555192935084927fddf252ad1be2c89b69c2b068fc378daa952ba7f163c4a11628f55a4df523b3ef908390a45050565b610138546040517f70a082310000000000000000000000000000000000000000000000000000000081523060048201526000916001600160a01b0316906370a0823190602401602060405180830381865afa158015613d08573d6000803e3d6000fd5b505050506040513d601f19601f82011682018060405250810190611a0e9190614b00565b6001600160a01b038216613d825760405162461bcd60e51b815260206004820181905260248201527f4552433732313a206d696e7420746f20746865207a65726f20616464726573736044820152606401610af1565b6000818152609960205260409020546001600160a01b031615613de75760405162461bcd60e51b815260206004820152601c60248201527f4552433732313a20746f6b656e20616c7265616479206d696e746564000000006044820152606401610af1565b6000818152609960205260409020546001600160a01b031615613e4c5760405162461bcd60e51b815260206004820152601c60248201527f4552433732313a20746f6b656e20616c7265616479206d696e746564000000006044820152606401610af1565b6001600160a01b0382166000818152609a60209081526040808320805460010190558483526099909152808220805473ffffffffffffffffffffffffffffffffffffffff19168417905551839291907fddf252ad1be2c89b69c2b068fc378daa952ba7f163c4a11628f55a4df523b3ef908290a45050565b600054610100900460ff16612cc65760405162461bcd60e51b815260206004820152602b60248201527f496e697469616c697a61626c653a20636f6e7472616374206973206e6f74206960448201526a6e697469616c697a696e6760a81b6064820152608401610af1565b600054610100900460ff16613f9a5760405162461bcd60e51b815260206004820152602b60248201527f496e697469616c697a61626c653a20636f6e7472616374206973206e6f74206960448201526a6e697469616c697a696e6760a81b6064820152608401610af1565b6097613fa68382614bd0565b506098610b928282614bd0565b600054610100900460ff1661401e5760405162461bcd60e51b815260206004820152602b60248201527f496e697469616c697a61626c653a20636f6e7472616374206973206e6f74206960448201526a6e697469616c697a696e6760a81b6064820152608401610af1565b6118af33613757565b600061407c826040518060400160405280602081526020017f5361666545524332303a206c6f772d6c6576656c2063616c6c206661696c6564815250856001600160a01b03166143f19092919063ffffffff16565b905080516000148061409d57508080602001905181019061409d9190614c90565b610b925760405162461bcd60e51b815260206004820152602a60248201527f5361666545524332303a204552433230206f7065726174696f6e20646964206e60448201527f6f742073756363656564000000000000000000000000000000000000000000006064820152608401610af1565b60c980546001600160a01b0383811673ffffffffffffffffffffffffffffffffffffffff19831681179093556040519116919082907f8be0079c531659141344cd1fd0a4f28419497f9722a3daafe3b4186f6b6457e090600090a35050565b60006001600160a01b0384163b15614304576040517f150b7a020000000000000000000000000000000000000000000000000000000081526001600160a01b0385169063150b7a02906141cb903390899088908890600401614cad565b6020604051808303816000875af1925050508015614206575060408051601f3d908101601f1916820190925261420391810190614ce9565b60015b6142b9573d808015614234576040519150601f19603f3d011682016040523d82523d6000602084013e614239565b606091505b5080516000036142b15760405162461bcd60e51b815260206004820152603260248201527f4552433732313a207472616e7366657220746f206e6f6e20455243373231526560448201527f63656976657220696d706c656d656e74657200000000000000000000000000006064820152608401610af1565b805181602001fd5b7fffffffff00000000000000000000000000000000000000000000000000000000167f150b7a02000000000000000000000000000000000000000000000000000000001490506121a3565b506001949350505050565b6000807a184f03e93ff9f4daa797ed6e38ed64bf6a1f0100000000000000008310614358577a184f03e93ff9f4daa797ed6e38ed64bf6a1f010000000000000000830492506040015b6d04ee2d6d415b85acef81000000008310614384576d04ee2d6d415b85acef8100000000830492506020015b662386f26fc1000083106143a257662386f26fc10000830492506010015b6305f5e10083106143ba576305f5e100830492506008015b61271083106143ce57612710830492506004015b606483106143e0576064830492506002015b600a83106109a25760010192915050565b60606121a3848460008585600080866001600160a01b031685876040516144189190614d06565b60006040518083038185875af1925050503d8060008114614455576040519150601f19603f3d011682016040523d82523d6000602084013e61445a565b606091505b509150915061446b87838387614476565b979650505050505050565b606083156144e55782516000036144de576001600160a01b0385163b6144de5760405162461bcd60e51b815260206004820152601d60248201527f416464726573733a2063616c6c20746f206e6f6e2d636f6e74726163740000006044820152606401610af1565b50816121a3565b6121a383838151156144fa5781518083602001fd5b8060405162461bcd60e51b8152600401610af191906145af565b7fffffffff00000000000000000000000000000000000000000000000000000000811681146114a557600080fd5b60006020828403121561455457600080fd5b813561120981614514565b60005b8381101561457a578181015183820152602001614562565b50506000910152565b6000815180845261459b81602086016020860161455f565b601f01601f19169290920160200192915050565b6020815260006112096020830184614583565b6000602082840312156145d457600080fd5b5035919050565b80356001600160a01b0381168114610d7b57600080fd5b6000806040838503121561460557600080fd5b61460e836145db565b946020939093013593505050565b60008060006060848603121561463157600080fd5b61463a846145db565b9250614648602085016145db565b9150604084013590509250925092565b60008083601f84011261466a57600080fd5b50813567ffffffffffffffff81111561468257600080fd5b6020830191508360208260051b850101111561469d57600080fd5b9250929050565b600080602083850312156146b757600080fd5b823567ffffffffffffffff8111156146ce57600080fd5b6146da85828601614658565b90969095509350505050565b6000602082840312156146f857600080fd5b611209826145db565b6000806040838503121561471457600080fd5b61471d836145db565b915061472b602084016145db565b90509250929050565b600081518084526020808501945080840160005b8381101561476457815187529582019590820190600101614748565b509495945050505050565b8281526040602082015260006121a36040830184614734565b8051825260208101516147a660208401826001600160a01b03169052565b5060408101516040830152606081015160608301526080810151608083015260a081015160a083015260c081015160c083015260e081015160e08301526101008082015181840152506101208082015181840152506101408082015181840152505050565b61016081016109a28284614788565b60008060006040848603121561482f57600080fd5b83359250602084013567ffffffffffffffff81111561484d57600080fd5b61485986828701614658565b9497909650939450505050565b6020815260006112096020830184614734565b6000806040838503121561488c57600080fd5b50508035926020909101359150565b6020808252825182820181905260009190848201906040850190845b818110156148de576148ca838551614788565b9284019261016092909201916001016148b7565b50909695505050505050565b80151581146114a557600080fd5b6000806040838503121561490b57600080fd5b614914836145db565b91506020830135614924816148ea565b809150509250929050565b634e487b7160e01b600052604160045260246000fd5b6000806000806080858703121561495b57600080fd5b614964856145db565b9350614972602086016145db565b925060408501359150606085013567ffffffffffffffff8082111561499657600080fd5b818701915087601f8301126149aa57600080fd5b8135818111156149bc576149bc61492f565b604051601f8201601f19908116603f011681019083821181831017156149e4576149e461492f565b816040528281528a60208487010111156149fd57600080fd5b82602086016020830137600060208483010152809550505050505092959194509250565b600181811c90821680614a3557607f821691505b602082108103614a5557634e487b7160e01b600052602260045260246000fd5b50919050565b634e487b7160e01b600052601160045260246000fd5b818103818111156109a2576109a2614a5b565b80820281158282048414176109a2576109a2614a5b565b600082614ab857634e487b7160e01b600052601260045260246000fd5b500490565b808201808211156109a2576109a2614a5b565b634e487b7160e01b600052603260045260246000fd5b60006000198203614af957614af9614a5b565b5060010190565b600060208284031215614b1257600080fd5b5051919050565b60007f07ffffffffffffffffffffffffffffffffffffffffffffffffffffffffffffff831115614b4857600080fd5b8260051b80858437919091019392505050565b60008351614b6d81846020880161455f565b835190830190614b8181836020880161455f565b01949350505050565b601f821115610b9257600081815260208120601f850160051c81016020861015614bb15750805b601f850160051c820191505b8181101561180557828155600101614bbd565b815167ffffffffffffffff811115614bea57614bea61492f565b614bfe81614bf88454614a21565b84614b8a565b602080601f831160018114614c335760008415614c1b5750858301515b600019600386901b1c1916600185901b178555611805565b600085815260208120601f198616915b82811015614c6257888601518255948401946001909101908401614c43565b5085821015614c805787850151600019600388901b60f8161c191681555b5050505050600190811b01905550565b600060208284031215614ca257600080fd5b8151611209816148ea565b60006001600160a01b03808716835280861660208401525083604083015260806060830152614cdf6080830184614583565b9695505050505050565b600060208284031215614cfb57600080fd5b815161120981614514565b60008251614d1881846020870161455f565b919091019291505056fea2646970667358221220378e8c0c946be467113ff4e018d4caba1c58b043d3480a63c4a862514d1ce16264736f6c63430008120033","opcodes":"PUSH1 0x80 PUSH1 0x40 MSTORE CALLVALUE DUP1 ISZERO PUSH3 0x11 JUMPI PUSH1 0x0 DUP1 REVERT JUMPDEST POP PUSH3 0x1C PUSH3 0x22 JUMP JUMPDEST PUSH3 0xE3 JUMP JUMPDEST PUSH1 0x0 SLOAD PUSH2 0x100 SWAP1 DIV PUSH1 0xFF AND ISZERO PUSH3 0x8F JUMPI PUSH1 0x40 MLOAD PUSH3 0x461BCD PUSH1 0xE5 SHL DUP2 MSTORE PUSH1 0x20 PUSH1 0x4 DUP3 ADD MSTORE PUSH1 0x27 PUSH1 0x24 DUP3 ADD MSTORE PUSH32 0x496E697469616C697A61626C653A20636F6E747261637420697320696E697469 PUSH1 0x44 DUP3 ADD MSTORE PUSH7 0x616C697A696E67 PUSH1 0xC8 SHL PUSH1 0x64 DUP3 ADD MSTORE PUSH1 0x84 ADD PUSH1 0x40 MLOAD DUP1 SWAP2 SUB SWAP1 REVERT JUMPDEST PUSH1 0x0 SLOAD PUSH1 0xFF SWAP1 DUP2 AND EQ PUSH3 0xE1 JUMPI PUSH1 0x0 DUP1 SLOAD PUSH1 0xFF NOT AND PUSH1 0xFF SWAP1 DUP2 OR SWAP1 SWAP2 SSTORE PUSH1 0x40 MLOAD SWAP1 DUP2 MSTORE PUSH32 0x7F26B83FF96E1F2B6A682F133852F6798A09C465DA95921460CEFB3847402498 SWAP1 PUSH1 0x20 ADD PUSH1 0x40 MLOAD DUP1 SWAP2 SUB SWAP1 LOG1 JUMPDEST JUMP JUMPDEST PUSH2 0x4D58 DUP1 PUSH3 0xF3 PUSH1 0x0 CODECOPY PUSH1 0x0 RETURN INVALID PUSH1 0x80 PUSH1 0x40 MSTORE CALLVALUE DUP1 ISZERO PUSH2 0x10 JUMPI PUSH1 0x0 DUP1 REVERT JUMPDEST POP PUSH1 0x4 CALLDATASIZE LT PUSH2 0x3C5 JUMPI PUSH1 0x0 CALLDATALOAD PUSH1 0xE0 SHR DUP1 PUSH4 0x79BA5097 GT PUSH2 0x1FF JUMPI DUP1 PUSH4 0xC205F341 GT PUSH2 0x11A JUMPI DUP1 PUSH4 0xE30C3978 GT PUSH2 0xAD JUMPI DUP1 PUSH4 0xF290DFA7 GT PUSH2 0x7C JUMPI DUP1 PUSH4 0xF290DFA7 EQ PUSH2 0x86A JUMPI DUP1 PUSH4 0xF2FDE38B EQ PUSH2 0x892 JUMPI DUP1 PUSH4 0xF7C618C1 EQ PUSH2 0x8A5 JUMPI DUP1 PUSH4 0xF84DDF0B EQ PUSH2 0x8B9 JUMPI PUSH1 0x0 DUP1 REVERT JUMPDEST DUP1 PUSH4 0xE30C3978 EQ PUSH2 0x7FF JUMPI DUP1 PUSH4 0xE985E9C5 EQ PUSH2 0x810 JUMPI DUP1 PUSH4 0xEBE2B12B EQ PUSH2 0x84C JUMPI DUP1 PUSH4 0xEF7297DE EQ PUSH2 0x856 JUMPI PUSH1 0x0 DUP1 REVERT JUMPDEST DUP1 PUSH4 0xD1A249AB GT PUSH2 0xE9 JUMPI DUP1 PUSH4 0xD1A249AB EQ PUSH2 0x7BB JUMPI DUP1 PUSH4 0xD1C2BABB EQ PUSH2 0x7C5 JUMPI DUP1 PUSH4 0xD975DFED EQ PUSH2 0x7D8 JUMPI DUP1 PUSH4 0xDF2E0B97 EQ PUSH2 0x7EB JUMPI PUSH1 0x0 DUP1 REVERT JUMPDEST DUP1 PUSH4 0xC205F341 EQ PUSH2 0x76A JUMPI DUP1 PUSH4 0xC87B56DD EQ PUSH2 0x77D JUMPI DUP1 PUSH4 0xC8F33C91 EQ PUSH2 0x790 JUMPI DUP1 PUSH4 0xCFD0E125 EQ PUSH2 0x79A JUMPI PUSH1 0x0 DUP1 REVERT JUMPDEST DUP1 PUSH4 0x988DC31E GT PUSH2 0x192 JUMPI DUP1 PUSH4 0xA345280A GT PUSH2 0x161 JUMPI DUP1 PUSH4 0xA345280A EQ PUSH2 0x729 JUMPI DUP1 PUSH4 0xA3684977 EQ PUSH2 0x73C JUMPI DUP1 PUSH4 0xA694FC3A EQ PUSH2 0x744 JUMPI DUP1 PUSH4 0xB88D4FDE EQ PUSH2 0x757 JUMPI PUSH1 0x0 DUP1 REVERT JUMPDEST DUP1 PUSH4 0x988DC31E EQ PUSH2 0x6CF JUMPI DUP1 PUSH4 0xA00EA0C5 EQ PUSH2 0x6E2 JUMPI DUP1 PUSH4 0xA1C95E5A EQ PUSH2 0x6F5 JUMPI DUP1 PUSH4 0xA22CB465 EQ PUSH2 0x716 JUMPI PUSH1 0x0 DUP1 REVERT JUMPDEST DUP1 PUSH4 0x8DA5CB5B GT PUSH2 0x1CE JUMPI DUP1 PUSH4 0x8DA5CB5B EQ PUSH2 0x68C JUMPI DUP1 PUSH4 0x8FCA5A59 EQ PUSH2 0x69D JUMPI DUP1 PUSH4 0x95D89B41 EQ PUSH2 0x6BD JUMPI DUP1 PUSH4 0x96C82E57 EQ PUSH2 0x6C5 JUMPI PUSH1 0x0 DUP1 REVERT JUMPDEST DUP1 PUSH4 0x79BA5097 EQ PUSH2 0x663 JUMPI DUP1 PUSH4 0x7B0A47EE EQ PUSH2 0x66B JUMPI DUP1 PUSH4 0x80FAA57D EQ PUSH2 0x675 JUMPI DUP1 PUSH4 0x8B8FBD92 EQ PUSH2 0x67D JUMPI PUSH1 0x0 DUP1 REVERT JUMPDEST DUP1 PUSH4 0x42842E0E GT PUSH2 0x2EF JUMPI DUP1 PUSH4 0x60993B5B GT PUSH2 0x282 JUMPI DUP1 PUSH4 0x6BA4C138 GT PUSH2 0x251 JUMPI DUP1 PUSH4 0x6BA4C138 EQ PUSH2 0x622 JUMPI DUP1 PUSH4 0x70A08231 EQ PUSH2 0x635 JUMPI DUP1 PUSH4 0x715018A6 EQ PUSH2 0x648 JUMPI DUP1 PUSH4 0x771602F7 EQ PUSH2 0x650 JUMPI PUSH1 0x0 DUP1 REVERT JUMPDEST DUP1 PUSH4 0x60993B5B EQ PUSH2 0x5C9 JUMPI DUP1 PUSH4 0x6352211E EQ PUSH2 0x5DC JUMPI DUP1 PUSH4 0x645BFD9A EQ PUSH2 0x5EF JUMPI DUP1 PUSH4 0x69C67247 EQ PUSH2 0x602 JUMPI PUSH1 0x0 DUP1 REVERT JUMPDEST DUP1 PUSH4 0x519F5099 GT PUSH2 0x2BE JUMPI DUP1 PUSH4 0x519F5099 EQ PUSH2 0x582 JUMPI DUP1 PUSH4 0x5200E79E EQ PUSH2 0x5A2 JUMPI DUP1 PUSH4 0x520BF08A EQ PUSH2 0x5AC JUMPI DUP1 PUSH4 0x5A48A97F EQ PUSH2 0x5B6 JUMPI PUSH1 0x0 DUP1 REVERT JUMPDEST DUP1 PUSH4 0x42842E0E EQ PUSH2 0x528 JUMPI DUP1 PUSH4 0x485CC955 EQ PUSH2 0x53B JUMPI DUP1 PUSH4 0x4D62F590 EQ PUSH2 0x54E JUMPI DUP1 PUSH4 0x4D6ED8C4 EQ PUSH2 0x56F JUMPI PUSH1 0x0 DUP1 REVERT JUMPDEST DUP1 PUSH4 0x2212B806 GT PUSH2 0x367 JUMPI DUP1 PUSH4 0x2EE40908 GT PUSH2 0x336 JUMPI DUP1 PUSH4 0x2EE40908 EQ PUSH2 0x4D7 JUMPI DUP1 PUSH4 0x30F91619 EQ PUSH2 0x4EA JUMPI DUP1 PUSH4 0x31D7A262 EQ PUSH2 0x4FD JUMPI DUP1 PUSH4 0x3228DD59 EQ PUSH2 0x51E JUMPI PUSH1 0x0 DUP1 REVERT JUMPDEST DUP1 PUSH4 0x2212B806 EQ PUSH2 0x49F JUMPI DUP1 PUSH4 0x23B872DD EQ PUSH2 0x4A9 JUMPI DUP1 PUSH4 0x2AC3F450 EQ PUSH2 0x4BC JUMPI DUP1 PUSH4 0x2E17DE78 EQ PUSH2 0x4C4 JUMPI PUSH1 0x0 DUP1 REVERT JUMPDEST DUP1 PUSH4 0x8D9788D GT PUSH2 0x3A3 JUMPI DUP1 PUSH4 0x8D9788D EQ PUSH2 0x432 JUMPI DUP1 PUSH4 0x95EA7B3 EQ PUSH2 0x468 JUMPI DUP1 PUSH4 0xEBA9849 EQ PUSH2 0x47D JUMPI DUP1 PUSH4 0x1BE05289 EQ PUSH2 0x495 JUMPI PUSH1 0x0 DUP1 REVERT JUMPDEST DUP1 PUSH4 0x1FFC9A7 EQ PUSH2 0x3CA JUMPI DUP1 PUSH4 0x6FDDE03 EQ PUSH2 0x3F2 JUMPI DUP1 PUSH4 0x81812FC EQ PUSH2 0x407 JUMPI JUMPDEST PUSH1 0x0 DUP1 REVERT JUMPDEST PUSH2 0x3DD PUSH2 0x3D8 CALLDATASIZE PUSH1 0x4 PUSH2 0x4542 JUMP JUMPDEST PUSH2 0x8C3 JUMP JUMPDEST PUSH1 0x40 MLOAD SWAP1 ISZERO ISZERO DUP2 MSTORE PUSH1 0x20 ADD JUMPDEST PUSH1 0x40 MLOAD DUP1 SWAP2 SUB SWAP1 RETURN JUMPDEST PUSH2 0x3FA PUSH2 0x9A8 JUMP JUMPDEST PUSH1 0x40 MLOAD PUSH2 0x3E9 SWAP2 SWAP1 PUSH2 0x45AF JUMP JUMPDEST PUSH2 0x41A PUSH2 0x415 CALLDATASIZE PUSH1 0x4 PUSH2 0x45C2 JUMP JUMPDEST PUSH2 0xA3A JUMP JUMPDEST PUSH1 0x40 MLOAD PUSH1 0x1 PUSH1 0x1 PUSH1 0xA0 SHL SUB SWAP1 SWAP2 AND DUP2 MSTORE PUSH1 0x20 ADD PUSH2 0x3E9 JUMP JUMPDEST PUSH2 0x456 PUSH2 0x440 CALLDATASIZE PUSH1 0x4 PUSH2 0x45C2 JUMP JUMPDEST PUSH2 0x140 PUSH1 0x20 MSTORE PUSH1 0x0 SWAP1 DUP2 MSTORE PUSH1 0x40 SWAP1 KECCAK256 SLOAD PUSH1 0xFF AND DUP2 JUMP JUMPDEST PUSH1 0x40 MLOAD PUSH1 0xFF SWAP1 SWAP2 AND DUP2 MSTORE PUSH1 0x20 ADD PUSH2 0x3E9 JUMP JUMPDEST PUSH2 0x47B PUSH2 0x476 CALLDATASIZE PUSH1 0x4 PUSH2 0x45F2 JUMP JUMPDEST PUSH2 0xA61 JUMP JUMPDEST STOP JUMPDEST PUSH2 0x487 PUSH2 0x132 SLOAD DUP2 JUMP JUMPDEST PUSH1 0x40 MLOAD SWAP1 DUP2 MSTORE PUSH1 0x20 ADD PUSH2 0x3E9 JUMP JUMPDEST PUSH2 0x487 PUSH3 0x93A80 DUP2 JUMP JUMPDEST PUSH2 0x487 PUSH2 0x130 SLOAD DUP2 JUMP JUMPDEST PUSH2 0x47B PUSH2 0x4B7 CALLDATASIZE PUSH1 0x4 PUSH2 0x461C JUMP JUMPDEST PUSH2 0xB97 JUMP JUMPDEST PUSH2 0x487 PUSH2 0xC1E JUMP JUMPDEST PUSH2 0x487 PUSH2 0x4D2 CALLDATASIZE PUSH1 0x4 PUSH2 0x45C2 JUMP JUMPDEST PUSH2 0xCEA JUMP JUMPDEST PUSH2 0x487 PUSH2 0x4E5 CALLDATASIZE PUSH1 0x4 PUSH2 0x45F2 JUMP JUMPDEST PUSH2 0xD80 JUMP JUMPDEST PUSH2 0x47B PUSH2 0x4F8 CALLDATASIZE PUSH1 0x4 PUSH2 0x46A4 JUMP JUMPDEST PUSH2 0xDC6 JUMP JUMPDEST PUSH2 0x487 PUSH2 0x50B CALLDATASIZE PUSH1 0x4 PUSH2 0x46E6 JUMP JUMPDEST PUSH2 0x13F PUSH1 0x20 MSTORE PUSH1 0x0 SWAP1 DUP2 MSTORE PUSH1 0x40 SWAP1 KECCAK256 SLOAD DUP2 JUMP JUMPDEST PUSH2 0x487 PUSH2 0x136 SLOAD DUP2 JUMP JUMPDEST PUSH2 0x47B PUSH2 0x536 CALLDATASIZE PUSH1 0x4 PUSH2 0x461C JUMP JUMPDEST PUSH2 0xE0E JUMP JUMPDEST PUSH2 0x47B PUSH2 0x549 CALLDATASIZE PUSH1 0x4 PUSH2 0x4701 JUMP JUMPDEST PUSH2 0xE29 JUMP JUMPDEST PUSH2 0x561 PUSH2 0x55C CALLDATASIZE PUSH1 0x4 PUSH2 0x46A4 JUMP JUMPDEST PUSH2 0x10DF JUMP JUMPDEST PUSH1 0x40 MLOAD PUSH2 0x3E9 SWAP3 SWAP2 SWAP1 PUSH2 0x476F JUMP JUMPDEST PUSH2 0x487 PUSH2 0x57D CALLDATASIZE PUSH1 0x4 PUSH2 0x45C2 JUMP JUMPDEST PUSH2 0x119F JUMP JUMPDEST PUSH2 0x595 PUSH2 0x590 CALLDATASIZE PUSH1 0x4 PUSH2 0x45C2 JUMP JUMPDEST PUSH2 0x1210 JUMP JUMPDEST PUSH1 0x40 MLOAD PUSH2 0x3E9 SWAP2 SWAP1 PUSH2 0x480B JUMP JUMPDEST PUSH2 0x487 PUSH2 0x131 SLOAD DUP2 JUMP JUMPDEST PUSH2 0x487 PUSH2 0x12E SLOAD DUP2 JUMP JUMPDEST PUSH2 0x487 PUSH2 0x5C4 CALLDATASIZE PUSH1 0x4 PUSH2 0x45C2 JUMP JUMPDEST PUSH2 0x127F JUMP JUMPDEST PUSH2 0x47B PUSH2 0x5D7 CALLDATASIZE PUSH1 0x4 PUSH2 0x45C2 JUMP JUMPDEST PUSH2 0x12C7 JUMP JUMPDEST PUSH2 0x41A PUSH2 0x5EA CALLDATASIZE PUSH1 0x4 PUSH2 0x45C2 JUMP JUMPDEST PUSH2 0x14A8 JUMP JUMPDEST PUSH2 0x487 PUSH2 0x5FD CALLDATASIZE PUSH1 0x4 PUSH2 0x45C2 JUMP JUMPDEST PUSH2 0x150D JUMP JUMPDEST PUSH2 0x615 PUSH2 0x610 CALLDATASIZE PUSH1 0x4 PUSH2 0x481A JUMP JUMPDEST PUSH2 0x1533 JUMP JUMPDEST PUSH1 0x40 MLOAD PUSH2 0x3E9 SWAP2 SWAP1 PUSH2 0x4866 JUMP JUMPDEST PUSH2 0x47B PUSH2 0x630 CALLDATASIZE PUSH1 0x4 PUSH2 0x46A4 JUMP JUMPDEST PUSH2 0x15F8 JUMP JUMPDEST PUSH2 0x487 PUSH2 0x643 CALLDATASIZE PUSH1 0x4 PUSH2 0x46E6 JUMP JUMPDEST PUSH2 0x180D JUMP JUMPDEST PUSH2 0x47B PUSH2 0x18A7 JUMP JUMPDEST PUSH2 0x47B PUSH2 0x65E CALLDATASIZE PUSH1 0x4 PUSH2 0x4879 JUMP JUMPDEST PUSH2 0x18B1 JUMP JUMPDEST PUSH2 0x47B PUSH2 0x1974 JUMP JUMPDEST PUSH2 0x487 PUSH2 0x135 SLOAD DUP2 JUMP JUMPDEST PUSH2 0x487 PUSH2 0x19FF JUMP JUMPDEST PUSH2 0x487 PUSH8 0xDE0B6B3A7640000 DUP2 JUMP JUMPDEST PUSH1 0xC9 SLOAD PUSH1 0x1 PUSH1 0x1 PUSH1 0xA0 SHL SUB AND PUSH2 0x41A JUMP JUMPDEST PUSH2 0x6B0 PUSH2 0x6AB CALLDATASIZE PUSH1 0x4 PUSH2 0x46A4 JUMP JUMPDEST PUSH2 0x1A13 JUMP JUMPDEST PUSH1 0x40 MLOAD PUSH2 0x3E9 SWAP2 SWAP1 PUSH2 0x489B JUMP JUMPDEST PUSH2 0x3FA PUSH2 0x1B2D JUMP JUMPDEST PUSH2 0x487 PUSH2 0x137 SLOAD DUP2 JUMP JUMPDEST PUSH2 0x487 PUSH2 0x6DD CALLDATASIZE PUSH1 0x4 PUSH2 0x45C2 JUMP JUMPDEST PUSH2 0x1B3C JUMP JUMPDEST PUSH2 0x487 PUSH2 0x6F0 CALLDATASIZE PUSH1 0x4 PUSH2 0x45C2 JUMP JUMPDEST PUSH2 0x1B62 JUMP JUMPDEST PUSH2 0x487 PUSH2 0x703 CALLDATASIZE PUSH1 0x4 PUSH2 0x45C2 JUMP JUMPDEST PUSH2 0x13B PUSH1 0x20 MSTORE PUSH1 0x0 SWAP1 DUP2 MSTORE PUSH1 0x40 SWAP1 KECCAK256 SLOAD DUP2 JUMP JUMPDEST PUSH2 0x47B PUSH2 0x724 CALLDATASIZE PUSH1 0x4 PUSH2 0x48F8 JUMP JUMPDEST PUSH2 0x1B88 JUMP JUMPDEST PUSH2 0x3DD PUSH2 0x737 CALLDATASIZE PUSH1 0x4 PUSH2 0x45C2 JUMP JUMPDEST PUSH2 0x1B97 JUMP JUMPDEST PUSH2 0x487 PUSH2 0x1BC5 JUMP JUMPDEST PUSH2 0x487 PUSH2 0x752 CALLDATASIZE PUSH1 0x4 PUSH2 0x45C2 JUMP JUMPDEST PUSH2 0x1BCF JUMP JUMPDEST PUSH2 0x47B PUSH2 0x765 CALLDATASIZE PUSH1 0x4 PUSH2 0x4945 JUMP JUMPDEST PUSH2 0x1BDC JUMP JUMPDEST PUSH2 0x47B PUSH2 0x778 CALLDATASIZE PUSH1 0x4 PUSH2 0x46E6 JUMP JUMPDEST PUSH2 0x1C6A JUMP JUMPDEST PUSH2 0x3FA PUSH2 0x78B CALLDATASIZE PUSH1 0x4 PUSH2 0x45C2 JUMP JUMPDEST PUSH2 0x1CA2 JUMP JUMPDEST PUSH2 0x487 PUSH2 0x133 SLOAD DUP2 JUMP JUMPDEST PUSH2 0x487 PUSH2 0x7A8 CALLDATASIZE PUSH1 0x4 PUSH2 0x45C2 JUMP JUMPDEST PUSH2 0x13A PUSH1 0x20 MSTORE PUSH1 0x0 SWAP1 DUP2 MSTORE PUSH1 0x40 SWAP1 KECCAK256 SLOAD DUP2 JUMP JUMPDEST PUSH2 0x487 PUSH2 0x12F SLOAD DUP2 JUMP JUMPDEST PUSH2 0x47B PUSH2 0x7D3 CALLDATASIZE PUSH1 0x4 PUSH2 0x4879 JUMP JUMPDEST PUSH2 0x1D15 JUMP JUMPDEST PUSH2 0x487 PUSH2 0x7E6 CALLDATASIZE PUSH1 0x4 PUSH2 0x45C2 JUMP JUMPDEST PUSH2 0x1DB8 JUMP JUMPDEST PUSH2 0x138 SLOAD PUSH2 0x41A SWAP1 PUSH1 0x1 PUSH1 0x1 PUSH1 0xA0 SHL SUB AND DUP2 JUMP JUMPDEST PUSH1 0xFB SLOAD PUSH1 0x1 PUSH1 0x1 PUSH1 0xA0 SHL SUB AND PUSH2 0x41A JUMP JUMPDEST PUSH2 0x3DD PUSH2 0x81E CALLDATASIZE PUSH1 0x4 PUSH2 0x4701 JUMP JUMPDEST PUSH1 0x1 PUSH1 0x1 PUSH1 0xA0 SHL SUB SWAP2 DUP3 AND PUSH1 0x0 SWAP1 DUP2 MSTORE PUSH1 0x9C PUSH1 0x20 SWAP1 DUP2 MSTORE PUSH1 0x40 DUP1 DUP4 KECCAK256 SWAP4 SWAP1 SWAP5 AND DUP3 MSTORE SWAP2 SWAP1 SWAP2 MSTORE KECCAK256 SLOAD PUSH1 0xFF AND SWAP1 JUMP JUMPDEST PUSH2 0x487 PUSH2 0x134 SLOAD DUP2 JUMP JUMPDEST PUSH2 0x141 SLOAD PUSH2 0x41A SWAP1 PUSH1 0x1 PUSH1 0x1 PUSH1 0xA0 SHL SUB AND DUP2 JUMP JUMPDEST PUSH2 0x87D PUSH2 0x878 CALLDATASIZE PUSH1 0x4 PUSH2 0x4879 JUMP JUMPDEST PUSH2 0x1E00 JUMP JUMPDEST PUSH1 0x40 DUP1 MLOAD SWAP3 DUP4 MSTORE PUSH1 0x20 DUP4 ADD SWAP2 SWAP1 SWAP2 MSTORE ADD PUSH2 0x3E9 JUMP JUMPDEST PUSH2 0x47B PUSH2 0x8A0 CALLDATASIZE PUSH1 0x4 PUSH2 0x46E6 JUMP JUMPDEST PUSH2 0x1FCF JUMP JUMPDEST PUSH2 0x139 SLOAD PUSH2 0x41A SWAP1 PUSH1 0x1 PUSH1 0x1 PUSH1 0xA0 SHL SUB AND DUP2 JUMP JUMPDEST PUSH2 0x487 PUSH2 0x12D SLOAD DUP2 JUMP JUMPDEST PUSH1 0x0 PUSH32 0xFFFFFFFF00000000000000000000000000000000000000000000000000000000 DUP3 AND PUSH32 0x80AC58CD00000000000000000000000000000000000000000000000000000000 EQ DUP1 PUSH2 0x956 JUMPI POP PUSH32 0xFFFFFFFF00000000000000000000000000000000000000000000000000000000 DUP3 AND PUSH32 0x5B5E139F00000000000000000000000000000000000000000000000000000000 EQ JUMPDEST DUP1 PUSH2 0x9A2 JUMPI POP PUSH32 0x1FFC9A700000000000000000000000000000000000000000000000000000000 PUSH32 0xFFFFFFFF00000000000000000000000000000000000000000000000000000000 DUP4 AND EQ JUMPDEST SWAP3 SWAP2 POP POP JUMP JUMPDEST PUSH1 0x60 PUSH1 0x97 DUP1 SLOAD PUSH2 0x9B7 SWAP1 PUSH2 0x4A21 JUMP JUMPDEST DUP1 PUSH1 0x1F ADD PUSH1 0x20 DUP1 SWAP2 DIV MUL PUSH1 0x20 ADD PUSH1 0x40 MLOAD SWAP1 DUP2 ADD PUSH1 0x40 MSTORE DUP1 SWAP3 SWAP2 SWAP1 DUP2 DUP2 MSTORE PUSH1 0x20 ADD DUP3 DUP1 SLOAD PUSH2 0x9E3 SWAP1 PUSH2 0x4A21 JUMP JUMPDEST DUP1 ISZERO PUSH2 0xA30 JUMPI DUP1 PUSH1 0x1F LT PUSH2 0xA05 JUMPI PUSH2 0x100 DUP1 DUP4 SLOAD DIV MUL DUP4 MSTORE SWAP2 PUSH1 0x20 ADD SWAP2 PUSH2 0xA30 JUMP JUMPDEST DUP3 ADD SWAP2 SWAP1 PUSH1 0x0 MSTORE PUSH1 0x20 PUSH1 0x0 KECCAK256 SWAP1 JUMPDEST DUP2 SLOAD DUP2 MSTORE SWAP1 PUSH1 0x1 ADD SWAP1 PUSH1 0x20 ADD DUP1 DUP4 GT PUSH2 0xA13 JUMPI DUP3 SWAP1 SUB PUSH1 0x1F AND DUP3 ADD SWAP2 JUMPDEST POP POP POP POP POP SWAP1 POP SWAP1 JUMP JUMPDEST PUSH1 0x0 PUSH2 0xA45 DUP3 PUSH2 0x204D JUMP JUMPDEST POP PUSH1 0x0 SWAP1 DUP2 MSTORE PUSH1 0x9B PUSH1 0x20 MSTORE PUSH1 0x40 SWAP1 KECCAK256 SLOAD PUSH1 0x1 PUSH1 0x1 PUSH1 0xA0 SHL SUB AND SWAP1 JUMP JUMPDEST PUSH1 0x0 PUSH2 0xA6C DUP3 PUSH2 0x14A8 JUMP JUMPDEST SWAP1 POP DUP1 PUSH1 0x1 PUSH1 0x1 PUSH1 0xA0 SHL SUB AND DUP4 PUSH1 0x1 PUSH1 0x1 PUSH1 0xA0 SHL SUB AND SUB PUSH2 0xAFA JUMPI PUSH1 0x40 MLOAD PUSH3 0x461BCD PUSH1 0xE5 SHL DUP2 MSTORE PUSH1 0x20 PUSH1 0x4 DUP3 ADD MSTORE PUSH1 0x21 PUSH1 0x24 DUP3 ADD MSTORE PUSH32 0x4552433732313A20617070726F76616C20746F2063757272656E74206F776E65 PUSH1 0x44 DUP3 ADD MSTORE PUSH32 0x7200000000000000000000000000000000000000000000000000000000000000 PUSH1 0x64 DUP3 ADD MSTORE PUSH1 0x84 ADD JUMPDEST PUSH1 0x40 MLOAD DUP1 SWAP2 SUB SWAP1 REVERT JUMPDEST CALLER PUSH1 0x1 PUSH1 0x1 PUSH1 0xA0 SHL SUB DUP3 AND EQ DUP1 PUSH2 0xB16 JUMPI POP PUSH2 0xB16 DUP2 CALLER PUSH2 0x81E JUMP JUMPDEST PUSH2 0xB88 JUMPI PUSH1 0x40 MLOAD PUSH3 0x461BCD PUSH1 0xE5 SHL DUP2 MSTORE PUSH1 0x20 PUSH1 0x4 DUP3 ADD MSTORE PUSH1 0x3D PUSH1 0x24 DUP3 ADD MSTORE PUSH32 0x4552433732313A20617070726F76652063616C6C6572206973206E6F7420746F PUSH1 0x44 DUP3 ADD MSTORE PUSH32 0x6B656E206F776E6572206F7220617070726F76656420666F7220616C6C000000 PUSH1 0x64 DUP3 ADD MSTORE PUSH1 0x84 ADD PUSH2 0xAF1 JUMP JUMPDEST PUSH2 0xB92 DUP4 DUP4 PUSH2 0x20B1 JUMP JUMPDEST POP POP POP JUMP JUMPDEST PUSH2 0xBA1 CALLER DUP3 PUSH2 0x212C JUMP JUMPDEST PUSH2 0xC13 JUMPI PUSH1 0x40 MLOAD PUSH3 0x461BCD PUSH1 0xE5 SHL DUP2 MSTORE PUSH1 0x20 PUSH1 0x4 DUP3 ADD MSTORE PUSH1 0x2D PUSH1 0x24 DUP3 ADD MSTORE PUSH32 0x4552433732313A2063616C6C6572206973206E6F7420746F6B656E206F776E65 PUSH1 0x44 DUP3 ADD MSTORE PUSH32 0x72206F7220617070726F76656400000000000000000000000000000000000000 PUSH1 0x64 DUP3 ADD MSTORE PUSH1 0x84 ADD PUSH2 0xAF1 JUMP JUMPDEST PUSH2 0xB92 DUP4 DUP4 DUP4 PUSH2 0x21AB JUMP JUMPDEST PUSH1 0x0 PUSH2 0x137 SLOAD PUSH1 0x0 SUB PUSH2 0xC33 JUMPI POP PUSH2 0x136 SLOAD SWAP1 JUMP JUMPDEST PUSH1 0x0 PUSH2 0x137 SLOAD GT PUSH2 0xC86 JUMPI PUSH1 0x40 MLOAD PUSH3 0x461BCD PUSH1 0xE5 SHL DUP2 MSTORE PUSH1 0x20 PUSH1 0x4 DUP3 ADD MSTORE PUSH1 0x10 PUSH1 0x24 DUP3 ADD MSTORE PUSH32 0x496E636F72726563742077656967687400000000000000000000000000000000 PUSH1 0x44 DUP3 ADD MSTORE PUSH1 0x64 ADD PUSH2 0xAF1 JUMP JUMPDEST PUSH1 0x0 PUSH2 0x133 SLOAD PUSH2 0xC94 PUSH2 0x19FF JUMP JUMPDEST PUSH2 0xC9E SWAP2 SWAP1 PUSH2 0x4A71 JUMP JUMPDEST SWAP1 POP PUSH2 0x137 SLOAD PUSH2 0x135 SLOAD DUP3 PUSH2 0xCB3 SWAP2 SWAP1 PUSH2 0x4A84 JUMP JUMPDEST PUSH2 0xCCC SWAP1 PUSH15 0xC097CE7BC90715B34B9F1000000000 PUSH2 0x4A84 JUMP JUMPDEST PUSH2 0xCD6 SWAP2 SWAP1 PUSH2 0x4A9B JUMP JUMPDEST PUSH2 0x136 SLOAD PUSH2 0xCE4 SWAP2 SWAP1 PUSH2 0x4ABD JUMP JUMPDEST SWAP2 POP POP SWAP1 JUMP JUMPDEST PUSH1 0x0 PUSH2 0xCF5 DUP3 PUSH2 0x1B97 JUMP JUMPDEST ISZERO PUSH2 0xD68 JUMPI PUSH1 0x40 MLOAD PUSH3 0x461BCD PUSH1 0xE5 SHL DUP2 MSTORE PUSH1 0x20 PUSH1 0x4 DUP3 ADD MSTORE PUSH1 0x3A PUSH1 0x24 DUP3 ADD MSTORE PUSH32 0x5468697320746F6B656E20697320726573747269637465642C20796F75206361 PUSH1 0x44 DUP3 ADD MSTORE PUSH32 0x6E277420756E7374616B652F7472616E736665722F73706C6974000000000000 PUSH1 0x64 DUP3 ADD MSTORE PUSH1 0x84 ADD PUSH2 0xAF1 JUMP JUMPDEST PUSH2 0xD71 DUP3 PUSH2 0x2234 JUMP JUMPDEST SWAP1 POP PUSH2 0xD7B PUSH2 0x24FB JUMP JUMPDEST SWAP2 SWAP1 POP JUMP JUMPDEST PUSH1 0x0 PUSH2 0xD8D CALLER DUP5 DUP5 PUSH2 0x254C JUMP JUMPDEST PUSH2 0x141 SLOAD SWAP1 SWAP2 POP PUSH1 0x1 PUSH1 0x1 PUSH1 0xA0 SHL SUB AND CALLER SUB PUSH2 0xDBE JUMPI PUSH1 0x0 DUP2 DUP2 MSTORE PUSH2 0x140 PUSH1 0x20 MSTORE PUSH1 0x40 SWAP1 KECCAK256 DUP1 SLOAD PUSH1 0xFF NOT AND PUSH1 0x1 OR SWAP1 SSTORE JUMPDEST PUSH2 0x9A2 PUSH2 0x24FB JUMP JUMPDEST DUP1 PUSH1 0x0 JUMPDEST DUP2 DUP2 LT ISZERO PUSH2 0xE05 JUMPI PUSH2 0xDF3 DUP5 DUP5 DUP4 DUP2 DUP2 LT PUSH2 0xDE7 JUMPI PUSH2 0xDE7 PUSH2 0x4AD0 JUMP JUMPDEST SWAP1 POP PUSH1 0x20 MUL ADD CALLDATALOAD PUSH2 0x2705 JUMP JUMPDEST DUP1 PUSH2 0xDFD DUP2 PUSH2 0x4AE6 JUMP JUMPDEST SWAP2 POP POP PUSH2 0xDCA JUMP JUMPDEST POP PUSH2 0xB92 PUSH2 0x24FB JUMP JUMPDEST PUSH2 0xB92 DUP4 DUP4 DUP4 PUSH1 0x40 MLOAD DUP1 PUSH1 0x20 ADD PUSH1 0x40 MSTORE DUP1 PUSH1 0x0 DUP2 MSTORE POP PUSH2 0x1BDC JUMP JUMPDEST PUSH1 0x0 SLOAD PUSH2 0x100 SWAP1 DIV PUSH1 0xFF AND ISZERO DUP1 DUP1 ISZERO PUSH2 0xE49 JUMPI POP PUSH1 0x0 SLOAD PUSH1 0x1 PUSH1 0xFF SWAP1 SWAP2 AND LT JUMPDEST DUP1 PUSH2 0xE63 JUMPI POP ADDRESS EXTCODESIZE ISZERO DUP1 ISZERO PUSH2 0xE63 JUMPI POP PUSH1 0x0 SLOAD PUSH1 0xFF AND PUSH1 0x1 EQ JUMPDEST PUSH2 0xED5 JUMPI PUSH1 0x40 MLOAD PUSH3 0x461BCD PUSH1 0xE5 SHL DUP2 MSTORE PUSH1 0x20 PUSH1 0x4 DUP3 ADD MSTORE PUSH1 0x2E PUSH1 0x24 DUP3 ADD MSTORE PUSH32 0x496E697469616C697A61626C653A20636F6E747261637420697320616C726561 PUSH1 0x44 DUP3 ADD MSTORE PUSH32 0x647920696E697469616C697A6564000000000000000000000000000000000000 PUSH1 0x64 DUP3 ADD MSTORE PUSH1 0x84 ADD PUSH2 0xAF1 JUMP JUMPDEST PUSH1 0x0 DUP1 SLOAD PUSH1 0xFF NOT AND PUSH1 0x1 OR SWAP1 SSTORE DUP1 ISZERO PUSH2 0xEF8 JUMPI PUSH1 0x0 DUP1 SLOAD PUSH2 0xFF00 NOT AND PUSH2 0x100 OR SWAP1 SSTORE JUMPDEST PUSH2 0xF00 PUSH2 0x27CB JUMP JUMPDEST PUSH2 0xF74 PUSH1 0x40 MLOAD DUP1 PUSH1 0x40 ADD PUSH1 0x40 MSTORE DUP1 PUSH1 0xB DUP2 MSTORE PUSH1 0x20 ADD PUSH32 0x5374616B656420494E5458000000000000000000000000000000000000000000 DUP2 MSTORE POP PUSH1 0x40 MLOAD DUP1 PUSH1 0x40 ADD PUSH1 0x40 MSTORE DUP1 PUSH1 0x5 DUP2 MSTORE PUSH1 0x20 ADD PUSH32 0x58494E5458000000000000000000000000000000000000000000000000000000 DUP2 MSTORE POP PUSH2 0x283E JUMP JUMPDEST PUSH2 0xF7C PUSH2 0x28B3 JUMP JUMPDEST PUSH1 0x1 PUSH1 0x1 PUSH1 0xA0 SHL SUB DUP4 AND PUSH2 0xFD2 JUMPI PUSH1 0x40 MLOAD PUSH3 0x461BCD PUSH1 0xE5 SHL DUP2 MSTORE PUSH1 0x20 PUSH1 0x4 DUP3 ADD MSTORE PUSH1 0x14 PUSH1 0x24 DUP3 ADD MSTORE PUSH32 0x43616E2774207573652030782061646472657373000000000000000000000000 PUSH1 0x44 DUP3 ADD MSTORE PUSH1 0x64 ADD PUSH2 0xAF1 JUMP JUMPDEST PUSH1 0x1 PUSH1 0x1 PUSH1 0xA0 SHL SUB DUP3 AND PUSH2 0x1028 JUMPI PUSH1 0x40 MLOAD PUSH3 0x461BCD PUSH1 0xE5 SHL DUP2 MSTORE PUSH1 0x20 PUSH1 0x4 DUP3 ADD MSTORE PUSH1 0x14 PUSH1 0x24 DUP3 ADD MSTORE PUSH32 0x43616E2774207573652030782061646472657373000000000000000000000000 PUSH1 0x44 DUP3 ADD MSTORE PUSH1 0x64 ADD PUSH2 0xAF1 JUMP JUMPDEST PUSH2 0x138 DUP1 SLOAD PUSH1 0x1 PUSH1 0x1 PUSH1 0xA0 SHL SUB DUP1 DUP7 AND PUSH20 0xFFFFFFFFFFFFFFFFFFFFFFFFFFFFFFFFFFFFFFFF NOT SWAP3 DUP4 AND OR SWAP1 SWAP3 SSTORE PUSH2 0x139 DUP1 SLOAD SWAP3 DUP6 AND SWAP3 SWAP1 SWAP2 AND SWAP2 SWAP1 SWAP2 OR SWAP1 SSTORE PUSH3 0x93A800 PUSH2 0x12F SSTORE PUSH8 0x22B1C8C1227A0000 PUSH2 0x130 SSTORE PUSH8 0x3782DACE9D90000 PUSH2 0x131 SSTORE PUSH7 0x2386F26FC10000 PUSH2 0x132 SSTORE DUP1 ISZERO PUSH2 0xB92 JUMPI PUSH1 0x0 DUP1 SLOAD PUSH2 0xFF00 NOT AND SWAP1 SSTORE PUSH1 0x40 MLOAD PUSH1 0x1 DUP2 MSTORE PUSH32 0x7F26B83FF96E1F2B6A682F133852F6798A09C465DA95921460CEFB3847402498 SWAP1 PUSH1 0x20 ADD PUSH1 0x40 MLOAD DUP1 SWAP2 SUB SWAP1 LOG1 POP POP POP JUMP JUMPDEST PUSH1 0x0 PUSH1 0x60 DUP3 DUP1 PUSH8 0xFFFFFFFFFFFFFFFF DUP2 GT ISZERO PUSH2 0x10FD JUMPI PUSH2 0x10FD PUSH2 0x492F JUMP JUMPDEST PUSH1 0x40 MLOAD SWAP1 DUP1 DUP3 MSTORE DUP1 PUSH1 0x20 MUL PUSH1 0x20 ADD DUP3 ADD PUSH1 0x40 MSTORE DUP1 ISZERO PUSH2 0x1126 JUMPI DUP2 PUSH1 0x20 ADD PUSH1 0x20 DUP3 MUL DUP1 CALLDATASIZE DUP4 CALLDATACOPY ADD SWAP1 POP JUMPDEST POP SWAP2 POP PUSH1 0x0 JUMPDEST DUP2 DUP2 LT ISZERO PUSH2 0x1196 JUMPI PUSH1 0x0 PUSH2 0x1157 DUP8 DUP8 DUP5 DUP2 DUP2 LT PUSH2 0x114B JUMPI PUSH2 0x114B PUSH2 0x4AD0 JUMP JUMPDEST SWAP1 POP PUSH1 0x20 MUL ADD CALLDATALOAD PUSH2 0x119F JUMP JUMPDEST SWAP1 POP PUSH2 0x1163 DUP2 DUP7 PUSH2 0x4ABD JUMP JUMPDEST SWAP5 POP DUP1 DUP5 DUP4 DUP2 MLOAD DUP2 LT PUSH2 0x1178 JUMPI PUSH2 0x1178 PUSH2 0x4AD0 JUMP JUMPDEST PUSH1 0x20 SWAP1 DUP2 MUL SWAP2 SWAP1 SWAP2 ADD ADD MSTORE POP DUP1 PUSH2 0x118E DUP2 PUSH2 0x4AE6 JUMP JUMPDEST SWAP2 POP POP PUSH2 0x112C JUMP JUMPDEST POP POP SWAP3 POP SWAP3 SWAP1 POP JUMP JUMPDEST PUSH1 0x0 DUP2 DUP2 MSTORE PUSH2 0x13C PUSH1 0x20 SWAP1 DUP2 MSTORE PUSH1 0x40 DUP1 DUP4 KECCAK256 SLOAD PUSH2 0x13E DUP4 MSTORE DUP2 DUP5 KECCAK256 SLOAD PUSH2 0x13D SWAP1 SWAP4 MSTORE SWAP1 DUP4 KECCAK256 SLOAD SWAP1 SWAP2 SWAP1 PUSH15 0xC097CE7BC90715B34B9F1000000000 SWAP1 PUSH2 0x11E1 PUSH2 0xC1E JUMP JUMPDEST PUSH2 0x11EB SWAP2 SWAP1 PUSH2 0x4A71 JUMP JUMPDEST PUSH2 0x11F5 SWAP1 DUP5 PUSH2 0x4A84 JUMP JUMPDEST PUSH2 0x11FF SWAP2 SWAP1 PUSH2 0x4A9B JUMP JUMPDEST PUSH2 0x1209 SWAP2 SWAP1 PUSH2 0x4ABD JUMP JUMPDEST SWAP4 SWAP3 POP POP POP JUMP JUMPDEST PUSH2 0x1276 PUSH1 0x40 MLOAD DUP1 PUSH2 0x160 ADD PUSH1 0x40 MSTORE DUP1 PUSH1 0x0 DUP2 MSTORE PUSH1 0x20 ADD PUSH1 0x0 PUSH1 0x1 PUSH1 0x1 PUSH1 0xA0 SHL SUB AND DUP2 MSTORE PUSH1 0x20 ADD PUSH1 0x0 DUP2 MSTORE PUSH1 0x20 ADD PUSH1 0x0 DUP2 MSTORE PUSH1 0x20 ADD PUSH1 0x0 DUP2 MSTORE PUSH1 0x20 ADD PUSH1 0x0 DUP2 MSTORE PUSH1 0x20 ADD PUSH1 0x0 DUP2 MSTORE PUSH1 0x20 ADD PUSH1 0x0 DUP2 MSTORE PUSH1 0x20 ADD PUSH1 0x0 DUP2 MSTORE PUSH1 0x20 ADD PUSH1 0x0 DUP2 MSTORE PUSH1 0x20 ADD PUSH1 0x0 DUP2 MSTORE POP SWAP1 JUMP JUMPDEST PUSH2 0x9A2 DUP3 PUSH2 0x2926 JUMP JUMPDEST PUSH1 0x0 DUP1 PUSH2 0x128B DUP4 PUSH2 0x2A8B JUMP JUMPDEST SWAP1 POP PUSH1 0x0 PUSH2 0x1298 DUP5 PUSH2 0x2AB9 JUMP JUMPDEST SWAP1 POP DUP2 ISZERO PUSH2 0x12C0 JUMPI PUSH8 0xDE0B6B3A7640000 PUSH2 0x12B3 DUP3 DUP5 PUSH2 0x4A84 JUMP JUMPDEST PUSH2 0x12BD SWAP2 SWAP1 PUSH2 0x4A9B JUMP JUMPDEST SWAP3 POP JUMPDEST POP POP SWAP2 SWAP1 POP JUMP JUMPDEST PUSH2 0x12CF PUSH2 0x2B62 JUMP JUMPDEST PUSH2 0x12D7 PUSH2 0x2BBB JUMP JUMPDEST PUSH2 0x12E1 PUSH1 0x0 PUSH2 0x2705 JUMP JUMPDEST PUSH2 0x12FA CALLER PUSH2 0x139 SLOAD PUSH1 0x1 PUSH1 0x1 PUSH1 0xA0 SHL SUB AND SWAP1 ADDRESS DUP5 PUSH2 0x2C15 JUMP JUMPDEST PUSH2 0x134 SLOAD TIMESTAMP LT PUSH2 0x131A JUMPI PUSH2 0x1311 PUSH3 0x93A80 DUP3 PUSH2 0x4A9B JUMP JUMPDEST PUSH2 0x135 SSTORE PUSH2 0x135F JUMP JUMPDEST PUSH1 0x0 TIMESTAMP PUSH2 0x134 SLOAD PUSH2 0x132B SWAP2 SWAP1 PUSH2 0x4A71 JUMP JUMPDEST SWAP1 POP PUSH1 0x0 PUSH2 0x135 SLOAD DUP3 PUSH2 0x133E SWAP2 SWAP1 PUSH2 0x4A84 JUMP JUMPDEST SWAP1 POP PUSH3 0x93A80 PUSH2 0x134E DUP3 DUP6 PUSH2 0x4ABD JUMP JUMPDEST PUSH2 0x1358 SWAP2 SWAP1 PUSH2 0x4A9B JUMP JUMPDEST PUSH2 0x135 SSTORE POP POP JUMPDEST PUSH2 0x139 SLOAD PUSH1 0x40 MLOAD PUSH32 0x70A0823100000000000000000000000000000000000000000000000000000000 DUP2 MSTORE ADDRESS PUSH1 0x4 DUP3 ADD MSTORE PUSH1 0x0 SWAP2 PUSH1 0x1 PUSH1 0x1 PUSH1 0xA0 SHL SUB AND SWAP1 PUSH4 0x70A08231 SWAP1 PUSH1 0x24 ADD PUSH1 0x20 PUSH1 0x40 MLOAD DUP1 DUP4 SUB DUP2 DUP7 GAS STATICCALL ISZERO DUP1 ISZERO PUSH2 0x13C2 JUMPI RETURNDATASIZE PUSH1 0x0 DUP1 RETURNDATACOPY RETURNDATASIZE PUSH1 0x0 REVERT JUMPDEST POP POP POP POP PUSH1 0x40 MLOAD RETURNDATASIZE PUSH1 0x1F NOT PUSH1 0x1F DUP3 ADD AND DUP3 ADD DUP1 PUSH1 0x40 MSTORE POP DUP2 ADD SWAP1 PUSH2 0x13E6 SWAP2 SWAP1 PUSH2 0x4B00 JUMP JUMPDEST SWAP1 POP PUSH2 0x13F5 PUSH3 0x93A80 DUP3 PUSH2 0x4A9B JUMP JUMPDEST PUSH2 0x135 SLOAD GT ISZERO PUSH2 0x1447 JUMPI PUSH1 0x40 MLOAD PUSH3 0x461BCD PUSH1 0xE5 SHL DUP2 MSTORE PUSH1 0x20 PUSH1 0x4 DUP3 ADD MSTORE PUSH1 0x18 PUSH1 0x24 DUP3 ADD MSTORE PUSH32 0x50726F76696465642072657761726420746F6F20686967680000000000000000 PUSH1 0x44 DUP3 ADD MSTORE PUSH1 0x64 ADD PUSH2 0xAF1 JUMP JUMPDEST TIMESTAMP PUSH2 0x133 DUP2 SWAP1 SSTORE PUSH2 0x145C SWAP1 PUSH3 0x93A80 SWAP1 PUSH2 0x4ABD JUMP JUMPDEST PUSH2 0x134 SSTORE PUSH1 0x40 MLOAD DUP3 DUP2 MSTORE PUSH32 0xDE88A922E0D3B88B24E9623EFEB464919C6BF9F66857A65E2BFCF2CE87A9433D SWAP1 PUSH1 0x20 ADD PUSH1 0x40 MLOAD DUP1 SWAP2 SUB SWAP1 LOG1 PUSH2 0x149B PUSH2 0x24FB JUMP JUMPDEST POP PUSH2 0x14A5 PUSH1 0x1 DUP1 SSTORE JUMP JUMPDEST POP JUMP JUMPDEST PUSH1 0x0 DUP2 DUP2 MSTORE PUSH1 0x99 PUSH1 0x20 MSTORE PUSH1 0x40 DUP2 KECCAK256 SLOAD PUSH1 0x1 PUSH1 0x1 PUSH1 0xA0 SHL SUB AND DUP1 PUSH2 0x9A2 JUMPI PUSH1 0x40 MLOAD PUSH3 0x461BCD PUSH1 0xE5 SHL DUP2 MSTORE PUSH1 0x20 PUSH1 0x4 DUP3 ADD MSTORE PUSH1 0x18 PUSH1 0x24 DUP3 ADD MSTORE PUSH32 0x4552433732313A20696E76616C696420746F6B656E2049440000000000000000 PUSH1 0x44 DUP3 ADD MSTORE PUSH1 0x64 ADD PUSH2 0xAF1 JUMP JUMPDEST PUSH1 0x0 DUP2 DUP2 MSTORE PUSH1 0x99 PUSH1 0x20 MSTORE PUSH1 0x40 DUP2 KECCAK256 SLOAD PUSH1 0x1 PUSH1 0x1 PUSH1 0xA0 SHL SUB AND ISZERO PUSH2 0xD7B JUMPI PUSH2 0x9A2 DUP3 PUSH2 0x2CCC JUMP JUMPDEST PUSH1 0x60 PUSH2 0x153E DUP5 PUSH2 0x1B97 JUMP JUMPDEST ISZERO PUSH2 0x15B1 JUMPI PUSH1 0x40 MLOAD PUSH3 0x461BCD PUSH1 0xE5 SHL DUP2 MSTORE PUSH1 0x20 PUSH1 0x4 DUP3 ADD MSTORE PUSH1 0x3A PUSH1 0x24 DUP3 ADD MSTORE PUSH32 0x5468697320746F6B656E20697320726573747269637465642C20796F75206361 PUSH1 0x44 DUP3 ADD MSTORE PUSH32 0x6E277420756E7374616B652F7472616E736665722F73706C6974000000000000 PUSH1 0x64 DUP3 ADD MSTORE PUSH1 0x84 ADD PUSH2 0xAF1 JUMP JUMPDEST PUSH2 0x15EE DUP5 DUP5 DUP5 DUP1 DUP1 PUSH1 0x20 MUL PUSH1 0x20 ADD PUSH1 0x40 MLOAD SWAP1 DUP2 ADD PUSH1 0x40 MSTORE DUP1 SWAP4 SWAP3 SWAP2 SWAP1 DUP2 DUP2 MSTORE PUSH1 0x20 ADD DUP4 DUP4 PUSH1 0x20 MUL DUP1 DUP3 DUP5 CALLDATACOPY PUSH1 0x0 SWAP3 ADD SWAP2 SWAP1 SWAP2 MSTORE POP PUSH2 0x2D69 SWAP3 POP POP POP JUMP JUMPDEST SWAP1 POP PUSH2 0x1209 PUSH2 0x24FB JUMP JUMPDEST CALLER PUSH1 0x0 SWAP1 DUP2 MSTORE PUSH2 0x13F PUSH1 0x20 MSTORE PUSH1 0x40 DUP2 KECCAK256 SLOAD DUP3 SWAP2 SWAP1 DUP2 SWAP1 DUP2 JUMPDEST DUP5 DUP2 LT ISZERO PUSH2 0x1776 JUMPI DUP7 DUP7 DUP3 DUP2 DUP2 LT PUSH2 0x162A JUMPI PUSH2 0x162A PUSH2 0x4AD0 JUMP JUMPDEST SWAP1 POP PUSH1 0x20 MUL ADD CALLDATALOAD SWAP4 POP PUSH2 0x1654 DUP5 PUSH1 0x0 SWAP1 DUP2 MSTORE PUSH1 0x99 PUSH1 0x20 MSTORE PUSH1 0x40 SWAP1 KECCAK256 SLOAD PUSH1 0x1 PUSH1 0x1 PUSH1 0xA0 SHL SUB AND ISZERO ISZERO SWAP1 JUMP JUMPDEST PUSH2 0x16A0 JUMPI PUSH1 0x40 MLOAD PUSH3 0x461BCD PUSH1 0xE5 SHL DUP2 MSTORE PUSH1 0x20 PUSH1 0x4 DUP3 ADD MSTORE PUSH1 0x1C PUSH1 0x24 DUP3 ADD MSTORE PUSH32 0x5468697320706F736974696F6E20646F65736E27742065786973742E00000000 PUSH1 0x44 DUP3 ADD MSTORE PUSH1 0x64 ADD PUSH2 0xAF1 JUMP JUMPDEST PUSH1 0x0 DUP5 DUP2 MSTORE PUSH1 0x99 PUSH1 0x20 MSTORE PUSH1 0x40 SWAP1 KECCAK256 SLOAD PUSH1 0x1 PUSH1 0x1 PUSH1 0xA0 SHL SUB AND SWAP3 POP CALLER DUP4 EQ PUSH2 0x172F JUMPI PUSH1 0x40 MLOAD PUSH3 0x461BCD PUSH1 0xE5 SHL DUP2 MSTORE PUSH1 0x20 PUSH1 0x4 DUP3 ADD MSTORE PUSH1 0x27 PUSH1 0x24 DUP3 ADD MSTORE PUSH32 0x596F7520617265206E6F7420746865206F776E6572206F66207468697320706F PUSH1 0x44 DUP3 ADD MSTORE PUSH32 0x736974696F6E2E00000000000000000000000000000000000000000000000000 PUSH1 0x64 DUP3 ADD MSTORE PUSH1 0x84 ADD PUSH2 0xAF1 JUMP JUMPDEST PUSH2 0x1738 DUP5 PUSH2 0x2705 JUMP JUMPDEST PUSH1 0x0 DUP5 DUP2 MSTORE PUSH2 0x13E PUSH1 0x20 MSTORE PUSH1 0x40 SWAP1 KECCAK256 SLOAD PUSH2 0x1752 SWAP1 DUP4 PUSH2 0x4ABD JUMP JUMPDEST PUSH1 0x0 DUP6 DUP2 MSTORE PUSH2 0x13E PUSH1 0x20 MSTORE PUSH1 0x40 DUP2 KECCAK256 SSTORE SWAP2 POP DUP1 PUSH2 0x176E DUP2 PUSH2 0x4AE6 JUMP JUMPDEST SWAP2 POP POP PUSH2 0x1610 JUMP JUMPDEST POP CALLER PUSH1 0x0 DUP2 DUP2 MSTORE PUSH2 0x13F PUSH1 0x20 MSTORE PUSH1 0x40 DUP2 KECCAK256 SSTORE PUSH2 0x139 SLOAD PUSH2 0x17A2 SWAP2 PUSH1 0x1 PUSH1 0x1 PUSH1 0xA0 SHL SUB SWAP1 SWAP2 AND SWAP1 DUP4 PUSH2 0x32BD JUMP JUMPDEST DUP6 DUP6 PUSH1 0x40 MLOAD PUSH2 0x17B2 SWAP3 SWAP2 SWAP1 PUSH2 0x4B19 JUMP JUMPDEST PUSH1 0x40 MLOAD DUP1 SWAP2 SUB SWAP1 KECCAK256 DUP3 PUSH1 0x1 PUSH1 0x1 PUSH1 0xA0 SHL SUB AND PUSH32 0x916F43DCE61AA4C4D8761C25DDCACFE178EA96A18F68D2775354BBC06BE75AAA DUP4 PUSH1 0x40 MLOAD PUSH2 0x17F5 SWAP2 DUP2 MSTORE PUSH1 0x20 ADD SWAP1 JUMP JUMPDEST PUSH1 0x40 MLOAD DUP1 SWAP2 SUB SWAP1 LOG3 PUSH2 0x1805 PUSH2 0x24FB JUMP JUMPDEST POP POP POP POP POP POP JUMP JUMPDEST PUSH1 0x0 PUSH1 0x1 PUSH1 0x1 PUSH1 0xA0 SHL SUB DUP3 AND PUSH2 0x188B JUMPI PUSH1 0x40 MLOAD PUSH3 0x461BCD PUSH1 0xE5 SHL DUP2 MSTORE PUSH1 0x20 PUSH1 0x4 DUP3 ADD MSTORE PUSH1 0x29 PUSH1 0x24 DUP3 ADD MSTORE PUSH32 0x4552433732313A2061646472657373207A65726F206973206E6F742061207661 PUSH1 0x44 DUP3 ADD MSTORE PUSH32 0x6C6964206F776E65720000000000000000000000000000000000000000000000 PUSH1 0x64 DUP3 ADD MSTORE PUSH1 0x84 ADD PUSH2 0xAF1 JUMP JUMPDEST POP PUSH1 0x1 PUSH1 0x1 PUSH1 0xA0 SHL SUB AND PUSH1 0x0 SWAP1 DUP2 MSTORE PUSH1 0x9A PUSH1 0x20 MSTORE PUSH1 0x40 SWAP1 KECCAK256 SLOAD SWAP1 JUMP JUMPDEST PUSH2 0x18AF PUSH2 0x2BBB JUMP JUMPDEST JUMP JUMPDEST PUSH2 0x18BA DUP2 PUSH2 0x1B97 JUMP JUMPDEST ISZERO PUSH2 0x1953 JUMPI PUSH1 0x40 MLOAD PUSH3 0x461BCD PUSH1 0xE5 SHL DUP2 MSTORE PUSH1 0x20 PUSH1 0x4 DUP3 ADD MSTORE PUSH1 0x52 PUSH1 0x24 DUP3 ADD MSTORE PUSH32 0x5468697320746F6B656E20697320726573747269637465642C20796F75206361 PUSH1 0x44 DUP3 ADD MSTORE PUSH32 0x6E27742061646420696E747820746F2069742C206372656174652061206E6577 PUSH1 0x64 DUP3 ADD MSTORE PUSH32 0x20706F736974696F6E20696E73746561642E0000000000000000000000000000 PUSH1 0x84 DUP3 ADD MSTORE PUSH1 0xA4 ADD PUSH2 0xAF1 JUMP JUMPDEST PUSH1 0x0 PUSH2 0x1960 CALLER CALLER DUP6 PUSH2 0x254C JUMP JUMPDEST SWAP1 POP PUSH2 0x196C DUP2 DUP4 PUSH2 0x3306 JUMP JUMPDEST PUSH2 0xB92 PUSH2 0x24FB JUMP JUMPDEST PUSH1 0xFB SLOAD CALLER SWAP1 PUSH1 0x1 PUSH1 0x1 PUSH1 0xA0 SHL SUB AND DUP2 EQ PUSH2 0x19F6 JUMPI PUSH1 0x40 MLOAD PUSH3 0x461BCD PUSH1 0xE5 SHL DUP2 MSTORE PUSH1 0x20 PUSH1 0x4 DUP3 ADD MSTORE PUSH1 0x29 PUSH1 0x24 DUP3 ADD MSTORE PUSH32 0x4F776E61626C6532537465703A2063616C6C6572206973206E6F742074686520 PUSH1 0x44 DUP3 ADD MSTORE PUSH32 0x6E6577206F776E65720000000000000000000000000000000000000000000000 PUSH1 0x64 DUP3 ADD MSTORE PUSH1 0x84 ADD PUSH2 0xAF1 JUMP JUMPDEST PUSH2 0x14A5 DUP2 PUSH2 0x3757 JUMP JUMPDEST PUSH1 0x0 PUSH2 0x1A0E TIMESTAMP PUSH2 0x134 SLOAD PUSH2 0x377D JUMP JUMPDEST SWAP1 POP SWAP1 JUMP JUMPDEST PUSH1 0x60 DUP2 DUP1 PUSH8 0xFFFFFFFFFFFFFFFF DUP2 GT ISZERO PUSH2 0x1A2F JUMPI PUSH2 0x1A2F PUSH2 0x492F JUMP JUMPDEST PUSH1 0x40 MLOAD SWAP1 DUP1 DUP3 MSTORE DUP1 PUSH1 0x20 MUL PUSH1 0x20 ADD DUP3 ADD PUSH1 0x40 MSTORE DUP1 ISZERO PUSH2 0x1AC6 JUMPI DUP2 PUSH1 0x20 ADD JUMPDEST PUSH2 0x1AB3 PUSH1 0x40 MLOAD DUP1 PUSH2 0x160 ADD PUSH1 0x40 MSTORE DUP1 PUSH1 0x0 DUP2 MSTORE PUSH1 0x20 ADD PUSH1 0x0 PUSH1 0x1 PUSH1 0x1 PUSH1 0xA0 SHL SUB AND DUP2 MSTORE PUSH1 0x20 ADD PUSH1 0x0 DUP2 MSTORE PUSH1 0x20 ADD PUSH1 0x0 DUP2 MSTORE PUSH1 0x20 ADD PUSH1 0x0 DUP2 MSTORE PUSH1 0x20 ADD PUSH1 0x0 DUP2 MSTORE PUSH1 0x20 ADD PUSH1 0x0 DUP2 MSTORE PUSH1 0x20 ADD PUSH1 0x0 DUP2 MSTORE PUSH1 0x20 ADD PUSH1 0x0 DUP2 MSTORE PUSH1 0x20 ADD PUSH1 0x0 DUP2 MSTORE PUSH1 0x20 ADD PUSH1 0x0 DUP2 MSTORE POP SWAP1 JUMP JUMPDEST DUP2 MSTORE PUSH1 0x20 ADD SWAP1 PUSH1 0x1 SWAP1 SUB SWAP1 DUP2 PUSH2 0x1A4D JUMPI SWAP1 POP JUMPDEST POP SWAP2 POP PUSH1 0x0 JUMPDEST DUP2 DUP2 LT ISZERO PUSH2 0x1B25 JUMPI PUSH2 0x1AF5 DUP6 DUP6 DUP4 DUP2 DUP2 LT PUSH2 0x1AE9 JUMPI PUSH2 0x1AE9 PUSH2 0x4AD0 JUMP JUMPDEST SWAP1 POP PUSH1 0x20 MUL ADD CALLDATALOAD PUSH2 0x2926 JUMP JUMPDEST DUP4 DUP3 DUP2 MLOAD DUP2 LT PUSH2 0x1B07 JUMPI PUSH2 0x1B07 PUSH2 0x4AD0 JUMP JUMPDEST PUSH1 0x20 MUL PUSH1 0x20 ADD ADD DUP2 SWAP1 MSTORE POP DUP1 DUP1 PUSH2 0x1B1D SWAP1 PUSH2 0x4AE6 JUMP JUMPDEST SWAP2 POP POP PUSH2 0x1ACC JUMP JUMPDEST POP POP SWAP3 SWAP2 POP POP JUMP JUMPDEST PUSH1 0x60 PUSH1 0x98 DUP1 SLOAD PUSH2 0x9B7 SWAP1 PUSH2 0x4A21 JUMP JUMPDEST PUSH1 0x0 DUP2 DUP2 MSTORE PUSH1 0x99 PUSH1 0x20 MSTORE PUSH1 0x40 DUP2 KECCAK256 SLOAD PUSH1 0x1 PUSH1 0x1 PUSH1 0xA0 SHL SUB AND ISZERO PUSH2 0xD7B JUMPI PUSH2 0x9A2 DUP3 PUSH2 0x2AB9 JUMP JUMPDEST PUSH1 0x0 DUP2 DUP2 MSTORE PUSH1 0x99 PUSH1 0x20 MSTORE PUSH1 0x40 DUP2 KECCAK256 SLOAD PUSH1 0x1 PUSH1 0x1 PUSH1 0xA0 SHL SUB AND ISZERO PUSH2 0xD7B JUMPI PUSH2 0x9A2 DUP3 PUSH2 0x2A8B JUMP JUMPDEST PUSH2 0x1B93 CALLER DUP4 DUP4 PUSH2 0x3793 JUMP JUMPDEST POP POP JUMP JUMPDEST PUSH1 0x0 DUP2 DUP2 MSTORE PUSH2 0x140 PUSH1 0x20 MSTORE PUSH1 0x40 DUP2 KECCAK256 SLOAD PUSH1 0xFF AND PUSH1 0x1 SUB PUSH2 0xD7B JUMPI PUSH4 0x68383020 TIMESTAMP LT ISZERO PUSH2 0xD7B JUMPI POP PUSH1 0x1 SWAP2 SWAP1 POP JUMP JUMPDEST PUSH1 0x0 PUSH2 0x1A0E PUSH2 0x3861 JUMP JUMPDEST PUSH1 0x0 PUSH2 0xD71 CALLER CALLER DUP5 PUSH2 0x254C JUMP JUMPDEST PUSH2 0x1BE6 CALLER DUP4 PUSH2 0x212C JUMP JUMPDEST PUSH2 0x1C58 JUMPI PUSH1 0x40 MLOAD PUSH3 0x461BCD PUSH1 0xE5 SHL DUP2 MSTORE PUSH1 0x20 PUSH1 0x4 DUP3 ADD MSTORE PUSH1 0x2D PUSH1 0x24 DUP3 ADD MSTORE PUSH32 0x4552433732313A2063616C6C6572206973206E6F7420746F6B656E206F776E65 PUSH1 0x44 DUP3 ADD MSTORE PUSH32 0x72206F7220617070726F76656400000000000000000000000000000000000000 PUSH1 0x64 DUP3 ADD MSTORE PUSH1 0x84 ADD PUSH2 0xAF1 JUMP JUMPDEST PUSH2 0x1C64 DUP5 DUP5 DUP5 DUP5 PUSH2 0x38A4 JUMP JUMPDEST POP POP POP POP JUMP JUMPDEST PUSH2 0x1C72 PUSH2 0x2BBB JUMP JUMPDEST PUSH2 0x141 DUP1 SLOAD PUSH20 0xFFFFFFFFFFFFFFFFFFFFFFFFFFFFFFFFFFFFFFFF NOT AND PUSH1 0x1 PUSH1 0x1 PUSH1 0xA0 SHL SUB SWAP3 SWAP1 SWAP3 AND SWAP2 SWAP1 SWAP2 OR SWAP1 SSTORE JUMP JUMPDEST PUSH1 0x60 PUSH2 0x1CAD DUP3 PUSH2 0x204D JUMP JUMPDEST PUSH1 0x0 PUSH2 0x1CC4 PUSH1 0x40 DUP1 MLOAD PUSH1 0x20 DUP2 ADD SWAP1 SWAP2 MSTORE PUSH1 0x0 DUP2 MSTORE SWAP1 JUMP JUMPDEST SWAP1 POP PUSH1 0x0 DUP2 MLOAD GT PUSH2 0x1CE4 JUMPI PUSH1 0x40 MLOAD DUP1 PUSH1 0x20 ADD PUSH1 0x40 MSTORE DUP1 PUSH1 0x0 DUP2 MSTORE POP PUSH2 0x1209 JUMP JUMPDEST DUP1 PUSH2 0x1CEE DUP5 PUSH2 0x392D JUMP JUMPDEST PUSH1 0x40 MLOAD PUSH1 0x20 ADD PUSH2 0x1CFF SWAP3 SWAP2 SWAP1 PUSH2 0x4B5B JUMP JUMPDEST PUSH1 0x40 MLOAD PUSH1 0x20 DUP2 DUP4 SUB SUB DUP2 MSTORE SWAP1 PUSH1 0x40 MSTORE SWAP4 SWAP3 POP POP POP JUMP JUMPDEST PUSH1 0x0 DUP2 DUP2 MSTORE PUSH2 0x140 PUSH1 0x20 MSTORE PUSH1 0x40 DUP1 DUP3 KECCAK256 SLOAD DUP5 DUP4 MSTORE SWAP2 KECCAK256 SLOAD PUSH1 0xFF SWAP1 DUP2 AND SWAP2 AND EQ PUSH2 0x1DA6 JUMPI PUSH1 0x40 MLOAD PUSH3 0x461BCD PUSH1 0xE5 SHL DUP2 MSTORE PUSH1 0x20 PUSH1 0x4 DUP3 ADD MSTORE PUSH1 0x2C PUSH1 0x24 DUP3 ADD MSTORE PUSH32 0x596F752063616E2774206D6572676520746F6B656E7320776974682064696666 PUSH1 0x44 DUP3 ADD MSTORE PUSH32 0x6572656E742074797065732E0000000000000000000000000000000000000000 PUSH1 0x64 DUP3 ADD MSTORE PUSH1 0x84 ADD PUSH2 0xAF1 JUMP JUMPDEST PUSH2 0x1DB0 DUP3 DUP3 PUSH2 0x3306 JUMP JUMPDEST PUSH2 0x1B93 PUSH2 0x24FB JUMP JUMPDEST PUSH1 0x0 DUP1 PUSH2 0x1DC4 DUP4 PUSH2 0x2A8B JUMP JUMPDEST SWAP1 POP PUSH1 0x0 PUSH2 0x1DD1 DUP5 PUSH2 0x2AB9 JUMP JUMPDEST SWAP1 POP DUP2 ISZERO PUSH2 0x12C0 JUMPI PUSH8 0xDE0B6B3A7640000 PUSH2 0x1DEC DUP3 DUP5 PUSH2 0x4A84 JUMP JUMPDEST PUSH2 0x1DF6 SWAP2 SWAP1 PUSH2 0x4A9B JUMP JUMPDEST PUSH2 0x12BD SWAP1 DUP4 PUSH2 0x4A71 JUMP JUMPDEST PUSH1 0x0 DUP1 PUSH2 0x1E0C DUP5 PUSH2 0x1B97 JUMP JUMPDEST ISZERO PUSH2 0x1E7F JUMPI PUSH1 0x40 MLOAD PUSH3 0x461BCD PUSH1 0xE5 SHL DUP2 MSTORE PUSH1 0x20 PUSH1 0x4 DUP3 ADD MSTORE PUSH1 0x3A PUSH1 0x24 DUP3 ADD MSTORE PUSH32 0x5468697320746F6B656E20697320726573747269637465642C20796F75206361 PUSH1 0x44 DUP3 ADD MSTORE PUSH32 0x6E277420756E7374616B652F7472616E736665722F73706C6974000000000000 PUSH1 0x64 DUP3 ADD MSTORE PUSH1 0x84 ADD PUSH2 0xAF1 JUMP JUMPDEST PUSH1 0x0 DUP5 DUP2 MSTORE PUSH2 0x13B PUSH1 0x20 MSTORE PUSH1 0x40 SWAP1 KECCAK256 SLOAD DUP4 DUP2 GT PUSH2 0x1F04 JUMPI PUSH1 0x40 MLOAD PUSH3 0x461BCD PUSH1 0xE5 SHL DUP2 MSTORE PUSH1 0x20 PUSH1 0x4 DUP3 ADD MSTORE PUSH1 0x2E PUSH1 0x24 DUP3 ADD MSTORE PUSH32 0x596F752063616E2774207061727469616C6C79207769746864726177206D6F72 PUSH1 0x44 DUP3 ADD MSTORE PUSH32 0x65207468616E20796F75206F776E000000000000000000000000000000000000 PUSH1 0x64 DUP3 ADD MSTORE PUSH1 0x84 ADD PUSH2 0xAF1 JUMP JUMPDEST PUSH1 0x40 DUP1 MLOAD PUSH1 0x2 DUP1 DUP3 MSTORE PUSH1 0x60 DUP3 ADD DUP4 MSTORE PUSH1 0x0 SWAP3 PUSH1 0x20 DUP4 ADD SWAP1 DUP1 CALLDATASIZE DUP4 CALLDATACOPY ADD SWAP1 POP POP SWAP1 POP DUP5 DUP2 PUSH1 0x0 DUP2 MLOAD DUP2 LT PUSH2 0x1F39 JUMPI PUSH2 0x1F39 PUSH2 0x4AD0 JUMP JUMPDEST PUSH1 0x20 SWAP1 DUP2 MUL SWAP2 SWAP1 SWAP2 ADD ADD MSTORE PUSH2 0x1F4E DUP6 DUP4 PUSH2 0x4A71 JUMP JUMPDEST DUP2 PUSH1 0x1 DUP2 MLOAD DUP2 LT PUSH2 0x1F61 JUMPI PUSH2 0x1F61 PUSH2 0x4AD0 JUMP JUMPDEST PUSH1 0x20 MUL PUSH1 0x20 ADD ADD DUP2 DUP2 MSTORE POP POP PUSH1 0x0 PUSH2 0x1F79 DUP8 DUP4 PUSH2 0x2D69 JUMP JUMPDEST SWAP1 POP PUSH2 0x1F9E DUP2 PUSH1 0x0 DUP2 MLOAD DUP2 LT PUSH2 0x1F91 JUMPI PUSH2 0x1F91 PUSH2 0x4AD0 JUMP JUMPDEST PUSH1 0x20 MUL PUSH1 0x20 ADD ADD MLOAD PUSH2 0x2234 JUMP JUMPDEST SWAP5 POP DUP1 PUSH1 0x1 DUP2 MLOAD DUP2 LT PUSH2 0x1FB3 JUMPI PUSH2 0x1FB3 PUSH2 0x4AD0 JUMP JUMPDEST PUSH1 0x20 MUL PUSH1 0x20 ADD ADD MLOAD SWAP4 POP PUSH2 0x1FC5 PUSH2 0x24FB JUMP JUMPDEST POP POP POP SWAP3 POP SWAP3 SWAP1 POP JUMP JUMPDEST PUSH2 0x1FD7 PUSH2 0x2BBB JUMP JUMPDEST PUSH1 0xFB DUP1 SLOAD PUSH1 0x1 PUSH1 0x1 PUSH1 0xA0 SHL SUB DUP4 AND PUSH20 0xFFFFFFFFFFFFFFFFFFFFFFFFFFFFFFFFFFFFFFFF NOT SWAP1 SWAP2 AND DUP2 OR SWAP1 SWAP2 SSTORE PUSH2 0x2015 PUSH1 0xC9 SLOAD PUSH1 0x1 PUSH1 0x1 PUSH1 0xA0 SHL SUB AND SWAP1 JUMP JUMPDEST PUSH1 0x1 PUSH1 0x1 PUSH1 0xA0 SHL SUB AND PUSH32 0x38D16B8CAC22D99FC7C124B9CD0DE2D3FA1FAEF420BFE791D8C362D765E22700 PUSH1 0x40 MLOAD PUSH1 0x40 MLOAD DUP1 SWAP2 SUB SWAP1 LOG3 POP JUMP JUMPDEST PUSH1 0x0 DUP2 DUP2 MSTORE PUSH1 0x99 PUSH1 0x20 MSTORE PUSH1 0x40 SWAP1 KECCAK256 SLOAD PUSH1 0x1 PUSH1 0x1 PUSH1 0xA0 SHL SUB AND PUSH2 0x14A5 JUMPI PUSH1 0x40 MLOAD PUSH3 0x461BCD PUSH1 0xE5 SHL DUP2 MSTORE PUSH1 0x20 PUSH1 0x4 DUP3 ADD MSTORE PUSH1 0x18 PUSH1 0x24 DUP3 ADD MSTORE PUSH32 0x4552433732313A20696E76616C696420746F6B656E2049440000000000000000 PUSH1 0x44 DUP3 ADD MSTORE PUSH1 0x64 ADD PUSH2 0xAF1 JUMP JUMPDEST PUSH1 0x0 DUP2 DUP2 MSTORE PUSH1 0x9B PUSH1 0x20 MSTORE PUSH1 0x40 SWAP1 KECCAK256 DUP1 SLOAD PUSH20 0xFFFFFFFFFFFFFFFFFFFFFFFFFFFFFFFFFFFFFFFF NOT AND PUSH1 0x1 PUSH1 0x1 PUSH1 0xA0 SHL SUB DUP5 AND SWAP1 DUP2 OR SWAP1 SWAP2 SSTORE DUP2 SWAP1 PUSH2 0x20F3 DUP3 PUSH2 0x14A8 JUMP JUMPDEST PUSH1 0x1 PUSH1 0x1 PUSH1 0xA0 SHL SUB AND PUSH32 0x8C5BE1E5EBEC7D5BD14F71427D1E84F3DD0314C0F7B2291E5B200AC8C7C3B925 PUSH1 0x40 MLOAD PUSH1 0x40 MLOAD DUP1 SWAP2 SUB SWAP1 LOG4 POP POP JUMP JUMPDEST PUSH1 0x0 DUP1 PUSH2 0x2138 DUP4 PUSH2 0x14A8 JUMP JUMPDEST SWAP1 POP DUP1 PUSH1 0x1 PUSH1 0x1 PUSH1 0xA0 SHL SUB AND DUP5 PUSH1 0x1 PUSH1 0x1 PUSH1 0xA0 SHL SUB AND EQ DUP1 PUSH2 0x217F JUMPI POP PUSH1 0x1 PUSH1 0x1 PUSH1 0xA0 SHL SUB DUP1 DUP3 AND PUSH1 0x0 SWAP1 DUP2 MSTORE PUSH1 0x9C PUSH1 0x20 SWAP1 DUP2 MSTORE PUSH1 0x40 DUP1 DUP4 KECCAK256 SWAP4 DUP9 AND DUP4 MSTORE SWAP3 SWAP1 MSTORE KECCAK256 SLOAD PUSH1 0xFF AND JUMPDEST DUP1 PUSH2 0x21A3 JUMPI POP DUP4 PUSH1 0x1 PUSH1 0x1 PUSH1 0xA0 SHL SUB AND PUSH2 0x2198 DUP5 PUSH2 0xA3A JUMP JUMPDEST PUSH1 0x1 PUSH1 0x1 PUSH1 0xA0 SHL SUB AND EQ JUMPDEST SWAP5 SWAP4 POP POP POP POP JUMP JUMPDEST PUSH2 0x21B4 DUP2 PUSH2 0x1B97 JUMP JUMPDEST ISZERO PUSH2 0x2229 JUMPI PUSH1 0x40 DUP1 MLOAD PUSH3 0x461BCD PUSH1 0xE5 SHL DUP2 MSTORE PUSH1 0x20 PUSH1 0x4 DUP3 ADD MSTORE PUSH1 0x24 DUP2 ADD SWAP2 SWAP1 SWAP2 MSTORE PUSH32 0x5468697320746F6B656E20697320726573747269637465642C20796F75206361 PUSH1 0x44 DUP3 ADD MSTORE PUSH32 0x6E277420756E7374616B652F7472616E736665722F6D657267652F73706C6974 PUSH1 0x64 DUP3 ADD MSTORE PUSH1 0x84 ADD PUSH2 0xAF1 JUMP JUMPDEST PUSH2 0xB92 DUP4 DUP4 DUP4 PUSH2 0x39CD JUMP JUMPDEST PUSH1 0x0 PUSH2 0x223E PUSH2 0x2B62 JUMP JUMPDEST PUSH1 0x0 DUP3 DUP2 MSTORE PUSH1 0x99 PUSH1 0x20 MSTORE PUSH1 0x40 SWAP1 KECCAK256 SLOAD PUSH1 0x1 PUSH1 0x1 PUSH1 0xA0 SHL SUB AND PUSH2 0x22A2 JUMPI PUSH1 0x40 MLOAD PUSH3 0x461BCD PUSH1 0xE5 SHL DUP2 MSTORE PUSH1 0x20 PUSH1 0x4 DUP3 ADD MSTORE PUSH1 0x1C PUSH1 0x24 DUP3 ADD MSTORE PUSH32 0x5468697320706F736974696F6E20646F65736E27742065786973742E00000000 PUSH1 0x44 DUP3 ADD MSTORE PUSH1 0x64 ADD PUSH2 0xAF1 JUMP JUMPDEST PUSH1 0x0 DUP3 DUP2 MSTORE PUSH1 0x99 PUSH1 0x20 MSTORE PUSH1 0x40 SWAP1 KECCAK256 SLOAD PUSH1 0x1 PUSH1 0x1 PUSH1 0xA0 SHL SUB AND CALLER DUP2 EQ PUSH2 0x2309 JUMPI PUSH1 0x40 MLOAD PUSH3 0x461BCD PUSH1 0xE5 SHL DUP2 MSTORE PUSH1 0x20 PUSH1 0x4 DUP3 ADD MSTORE PUSH1 0x13 PUSH1 0x24 DUP3 ADD MSTORE PUSH32 0x4E6F7420796F75722078494E5458204E46542E00000000000000000000000000 PUSH1 0x44 DUP3 ADD MSTORE PUSH1 0x64 ADD PUSH2 0xAF1 JUMP JUMPDEST PUSH2 0x2312 DUP4 PUSH2 0x2705 JUMP JUMPDEST PUSH1 0x0 DUP4 DUP2 MSTORE PUSH2 0x13B PUSH1 0x20 MSTORE PUSH1 0x40 DUP2 KECCAK256 SLOAD SWAP1 PUSH8 0xDE0B6B3A7640000 PUSH2 0x2335 DUP7 PUSH2 0x2CCC JUMP JUMPDEST PUSH2 0x233F SWAP1 DUP5 PUSH2 0x4A84 JUMP JUMPDEST PUSH2 0x2349 SWAP2 SWAP1 PUSH2 0x4A9B JUMP JUMPDEST SWAP1 POP PUSH1 0x0 PUSH2 0x2355 PUSH2 0x3861 JUMP JUMPDEST SWAP1 POP PUSH1 0x0 PUSH8 0xDE0B6B3A7640000 PUSH2 0x236C DUP4 DUP7 PUSH2 0x4A84 JUMP JUMPDEST PUSH2 0x2376 SWAP2 SWAP1 PUSH2 0x4A9B JUMP JUMPDEST SWAP1 POP PUSH1 0x0 PUSH8 0xDE0B6B3A7640000 PUSH2 0x238C DUP10 PUSH2 0x2AB9 JUMP JUMPDEST PUSH2 0x2396 SWAP1 DUP5 PUSH2 0x4A84 JUMP JUMPDEST PUSH2 0x23A0 SWAP2 SWAP1 PUSH2 0x4A9B JUMP JUMPDEST SWAP1 POP PUSH2 0x23AC DUP2 DUP4 PUSH2 0x4A71 JUMP JUMPDEST PUSH1 0x0 DUP10 DUP2 MSTORE PUSH2 0x13E PUSH1 0x20 MSTORE PUSH1 0x40 SWAP1 KECCAK256 SLOAD SWAP1 SWAP8 POP ISZERO PUSH2 0x2402 JUMPI PUSH1 0x0 DUP9 DUP2 MSTORE PUSH2 0x13E PUSH1 0x20 SWAP1 DUP2 MSTORE PUSH1 0x40 DUP1 DUP4 KECCAK256 SLOAD PUSH1 0x1 PUSH1 0x1 PUSH1 0xA0 SHL SUB DUP11 AND DUP5 MSTORE PUSH2 0x13F SWAP1 SWAP3 MSTORE DUP3 KECCAK256 DUP1 SLOAD SWAP2 SWAP3 SWAP1 SWAP2 PUSH2 0x23FC SWAP1 DUP5 SWAP1 PUSH2 0x4ABD JUMP JUMPDEST SWAP1 SWAP2 SSTORE POP POP JUMPDEST PUSH1 0x0 DUP9 DUP2 MSTORE PUSH2 0x13A PUSH1 0x20 SWAP1 DUP2 MSTORE PUSH1 0x40 DUP1 DUP4 KECCAK256 DUP4 SWAP1 SSTORE PUSH2 0x13B DUP3 MSTORE DUP1 DUP4 KECCAK256 DUP4 SWAP1 SSTORE PUSH2 0x13C DUP3 MSTORE DUP1 DUP4 KECCAK256 DUP4 SWAP1 SSTORE PUSH2 0x13D DUP3 MSTORE DUP1 DUP4 KECCAK256 DUP4 SWAP1 SSTORE PUSH2 0x13E SWAP1 SWAP2 MSTORE DUP2 KECCAK256 SSTORE PUSH2 0x244A DUP9 PUSH2 0x3C03 JUMP JUMPDEST DUP5 PUSH2 0x12E PUSH1 0x0 DUP3 DUP3 SLOAD PUSH2 0x245D SWAP2 SWAP1 PUSH2 0x4A71 JUMP JUMPDEST SWAP3 POP POP DUP2 SWAP1 SSTORE POP DUP4 PUSH2 0x137 PUSH1 0x0 DUP3 DUP3 SLOAD PUSH2 0x2477 SWAP2 SWAP1 PUSH2 0x4A71 JUMP JUMPDEST SWAP1 SWAP2 SSTORE POP POP PUSH2 0x138 SLOAD PUSH2 0x2494 SWAP1 PUSH1 0x1 PUSH1 0x1 PUSH1 0xA0 SHL SUB AND DUP8 DUP10 PUSH2 0x32BD JUMP JUMPDEST PUSH2 0x12E SLOAD PUSH1 0x40 DUP1 MLOAD DUP8 DUP2 MSTORE PUSH1 0x20 DUP2 ADD DUP11 SWAP1 MSTORE DUP1 DUP3 ADD DUP5 SWAP1 MSTORE PUSH1 0x60 DUP2 ADD SWAP3 SWAP1 SWAP3 MSTORE MLOAD DUP10 SWAP2 PUSH1 0x1 PUSH1 0x1 PUSH1 0xA0 SHL SUB DUP10 AND SWAP2 PUSH32 0x44BD20A79E993BDCC7CBEDF54A3B4D19FB78490124B6B90D04FE3242EEA579E8 SWAP2 DUP2 SWAP1 SUB PUSH1 0x80 ADD SWAP1 LOG3 POP POP POP POP POP POP PUSH2 0xD7B PUSH1 0x1 DUP1 SSTORE JUMP JUMPDEST PUSH32 0x107DED4700C40C119C1250039EB39B50E8A49F47E8DE2028D5EFE1D7BC5B4EBD PUSH2 0x2524 PUSH2 0x3CA5 JUMP JUMPDEST PUSH2 0x12E SLOAD PUSH2 0x137 SLOAD PUSH1 0x40 DUP1 MLOAD SWAP4 DUP5 MSTORE PUSH1 0x20 DUP5 ADD SWAP3 SWAP1 SWAP3 MSTORE SWAP1 DUP3 ADD MSTORE PUSH1 0x60 ADD PUSH1 0x40 MLOAD DUP1 SWAP2 SUB SWAP1 LOG1 JUMP JUMPDEST PUSH1 0x0 PUSH2 0x2556 PUSH2 0x2B62 JUMP JUMPDEST PUSH1 0x0 DUP3 GT PUSH2 0x25A6 JUMPI PUSH1 0x40 MLOAD PUSH3 0x461BCD PUSH1 0xE5 SHL DUP2 MSTORE PUSH1 0x20 PUSH1 0x4 DUP3 ADD MSTORE PUSH1 0x13 PUSH1 0x24 DUP3 ADD MSTORE PUSH32 0x43616E2774207374616B65203020696E74582E00000000000000000000000000 PUSH1 0x44 DUP3 ADD MSTORE PUSH1 0x64 ADD PUSH2 0xAF1 JUMP JUMPDEST PUSH1 0x0 PUSH2 0x25B0 PUSH2 0x3861 JUMP JUMPDEST PUSH2 0x138 SLOAD SWAP1 SWAP2 POP PUSH2 0x25CC SWAP1 PUSH1 0x1 PUSH1 0x1 PUSH1 0xA0 SHL SUB AND DUP7 ADDRESS DUP7 PUSH2 0x2C15 JUMP JUMPDEST PUSH2 0x12D DUP1 SLOAD SWAP1 PUSH1 0x0 PUSH2 0x25DD DUP4 PUSH2 0x4AE6 JUMP JUMPDEST SWAP2 SWAP1 POP SSTORE POP PUSH2 0x25EF DUP5 PUSH2 0x12D SLOAD PUSH2 0x3D2C JUMP JUMPDEST PUSH2 0x25FB PUSH2 0x12D SLOAD PUSH2 0x2705 JUMP JUMPDEST PUSH1 0x0 DUP2 PUSH2 0x2610 PUSH8 0xDE0B6B3A7640000 DUP7 PUSH2 0x4A84 JUMP JUMPDEST PUSH2 0x261A SWAP2 SWAP1 PUSH2 0x4A9B JUMP JUMPDEST PUSH2 0x12D DUP1 SLOAD PUSH1 0x0 SWAP1 DUP2 MSTORE PUSH2 0x13A PUSH1 0x20 SWAP1 DUP2 MSTORE PUSH1 0x40 DUP1 DUP4 KECCAK256 TIMESTAMP SWAP1 SSTORE SWAP3 SLOAD DUP3 MSTORE PUSH2 0x13B SWAP1 MSTORE SWAP1 DUP2 KECCAK256 DUP3 SWAP1 SSTORE PUSH2 0x12E DUP1 SLOAD SWAP3 SWAP4 POP DUP4 SWAP3 SWAP1 SWAP2 SWAP1 PUSH2 0x265B SWAP1 DUP5 SWAP1 PUSH2 0x4ABD JUMP JUMPDEST SWAP3 POP POP DUP2 SWAP1 SSTORE POP DUP1 PUSH2 0x137 PUSH1 0x0 DUP3 DUP3 SLOAD PUSH2 0x2675 SWAP2 SWAP1 PUSH2 0x4ABD JUMP JUMPDEST SWAP1 SWAP2 SSTORE POP POP PUSH2 0x12D DUP1 SLOAD PUSH1 0x0 SWAP1 DUP2 MSTORE PUSH2 0x13C PUSH1 0x20 SWAP1 DUP2 MSTORE PUSH1 0x40 SWAP2 DUP3 SWAP1 KECCAK256 DUP5 SWAP1 SSTORE SWAP2 SLOAD PUSH2 0x12E SLOAD PUSH2 0x137 SLOAD DUP4 MLOAD DUP7 DUP2 MSTORE SWAP5 DUP6 ADD DUP10 SWAP1 MSTORE SWAP3 DUP5 ADD MSTORE PUSH1 0x60 DUP4 ADD SWAP2 SWAP1 SWAP2 MSTORE SWAP1 PUSH1 0x1 PUSH1 0x1 PUSH1 0xA0 SHL SUB DUP1 DUP9 AND SWAP2 SWAP1 DUP10 AND SWAP1 PUSH32 0x52C6B7A228763DC832BEF1E2DEE48707B24B8F1400A6335B3AF6D5DEF4F5BB21 SWAP1 PUSH1 0x80 ADD PUSH1 0x40 MLOAD DUP1 SWAP2 SUB SWAP1 LOG4 PUSH2 0x12D SLOAD SWAP3 POP POP POP PUSH2 0x1209 PUSH1 0x1 DUP1 SSTORE JUMP JUMPDEST PUSH2 0x270D PUSH2 0xC1E JUMP JUMPDEST PUSH2 0x136 SSTORE PUSH2 0x2719 PUSH2 0x19FF JUMP JUMPDEST PUSH2 0x133 SSTORE DUP1 ISZERO PUSH2 0x14A5 JUMPI PUSH2 0x272C DUP2 PUSH2 0x119F JUMP JUMPDEST PUSH1 0x0 DUP3 DUP2 MSTORE PUSH2 0x13E PUSH1 0x20 MSTORE PUSH1 0x40 DUP2 KECCAK256 SWAP2 SWAP1 SWAP2 SSTORE PUSH8 0xDE0B6B3A7640000 PUSH2 0x2751 DUP4 PUSH2 0x2CCC JUMP JUMPDEST PUSH1 0x0 DUP5 DUP2 MSTORE PUSH2 0x13B PUSH1 0x20 MSTORE PUSH1 0x40 SWAP1 KECCAK256 SLOAD PUSH2 0x276B SWAP2 SWAP1 PUSH2 0x4A84 JUMP JUMPDEST PUSH2 0x2775 SWAP2 SWAP1 PUSH2 0x4A9B JUMP JUMPDEST PUSH1 0x0 DUP4 DUP2 MSTORE PUSH2 0x13C PUSH1 0x20 MSTORE PUSH1 0x40 SWAP1 KECCAK256 SLOAD PUSH2 0x137 SLOAD SWAP2 SWAP3 POP DUP3 SWAP2 PUSH2 0x2798 SWAP2 SWAP1 PUSH2 0x4A71 JUMP JUMPDEST PUSH2 0x27A2 SWAP2 SWAP1 PUSH2 0x4ABD JUMP JUMPDEST PUSH2 0x137 SSTORE PUSH1 0x0 SWAP2 DUP3 MSTORE PUSH2 0x13C PUSH1 0x20 SWAP1 DUP2 MSTORE PUSH1 0x40 DUP1 DUP5 KECCAK256 SWAP3 SWAP1 SWAP3 SSTORE PUSH2 0x136 SLOAD PUSH2 0x13D SWAP1 SWAP2 MSTORE SWAP2 KECCAK256 SSTORE JUMP JUMPDEST PUSH1 0x0 SLOAD PUSH2 0x100 SWAP1 DIV PUSH1 0xFF AND PUSH2 0x2836 JUMPI PUSH1 0x40 MLOAD PUSH3 0x461BCD PUSH1 0xE5 SHL DUP2 MSTORE PUSH1 0x20 PUSH1 0x4 DUP3 ADD MSTORE PUSH1 0x2B PUSH1 0x24 DUP3 ADD MSTORE PUSH32 0x496E697469616C697A61626C653A20636F6E7472616374206973206E6F742069 PUSH1 0x44 DUP3 ADD MSTORE PUSH11 0x6E697469616C697A696E67 PUSH1 0xA8 SHL PUSH1 0x64 DUP3 ADD MSTORE PUSH1 0x84 ADD PUSH2 0xAF1 JUMP JUMPDEST PUSH2 0x18AF PUSH2 0x3EC4 JUMP JUMPDEST PUSH1 0x0 SLOAD PUSH2 0x100 SWAP1 DIV PUSH1 0xFF AND PUSH2 0x28A9 JUMPI PUSH1 0x40 MLOAD PUSH3 0x461BCD PUSH1 0xE5 SHL DUP2 MSTORE PUSH1 0x20 PUSH1 0x4 DUP3 ADD MSTORE PUSH1 0x2B PUSH1 0x24 DUP3 ADD MSTORE PUSH32 0x496E697469616C697A61626C653A20636F6E7472616374206973206E6F742069 PUSH1 0x44 DUP3 ADD MSTORE PUSH11 0x6E697469616C697A696E67 PUSH1 0xA8 SHL PUSH1 0x64 DUP3 ADD MSTORE PUSH1 0x84 ADD PUSH2 0xAF1 JUMP JUMPDEST PUSH2 0x1B93 DUP3 DUP3 PUSH2 0x3F2F JUMP JUMPDEST PUSH1 0x0 SLOAD PUSH2 0x100 SWAP1 DIV PUSH1 0xFF AND PUSH2 0x291E JUMPI PUSH1 0x40 MLOAD PUSH3 0x461BCD PUSH1 0xE5 SHL DUP2 MSTORE PUSH1 0x20 PUSH1 0x4 DUP3 ADD MSTORE PUSH1 0x2B PUSH1 0x24 DUP3 ADD MSTORE PUSH32 0x496E697469616C697A61626C653A20636F6E7472616374206973206E6F742069 PUSH1 0x44 DUP3 ADD MSTORE PUSH11 0x6E697469616C697A696E67 PUSH1 0xA8 SHL PUSH1 0x64 DUP3 ADD MSTORE PUSH1 0x84 ADD PUSH2 0xAF1 JUMP JUMPDEST PUSH2 0x18AF PUSH2 0x3FB3 JUMP JUMPDEST PUSH2 0x298C PUSH1 0x40 MLOAD DUP1 PUSH2 0x160 ADD PUSH1 0x40 MSTORE DUP1 PUSH1 0x0 DUP2 MSTORE PUSH1 0x20 ADD PUSH1 0x0 PUSH1 0x1 PUSH1 0x1 PUSH1 0xA0 SHL SUB AND DUP2 MSTORE PUSH1 0x20 ADD PUSH1 0x0 DUP2 MSTORE PUSH1 0x20 ADD PUSH1 0x0 DUP2 MSTORE PUSH1 0x20 ADD PUSH1 0x0 DUP2 MSTORE PUSH1 0x20 ADD PUSH1 0x0 DUP2 MSTORE PUSH1 0x20 ADD PUSH1 0x0 DUP2 MSTORE PUSH1 0x20 ADD PUSH1 0x0 DUP2 MSTORE PUSH1 0x20 ADD PUSH1 0x0 DUP2 MSTORE PUSH1 0x20 ADD PUSH1 0x0 DUP2 MSTORE PUSH1 0x20 ADD PUSH1 0x0 DUP2 MSTORE POP SWAP1 JUMP JUMPDEST PUSH1 0x0 PUSH2 0x2997 DUP4 PUSH2 0x2A8B JUMP JUMPDEST SWAP1 POP PUSH1 0x0 PUSH2 0x29A4 DUP5 PUSH2 0x2AB9 JUMP JUMPDEST DUP5 DUP5 MSTORE PUSH1 0x0 DUP6 DUP2 MSTORE PUSH1 0x99 PUSH1 0x20 SWAP1 DUP2 MSTORE PUSH1 0x40 DUP1 DUP4 KECCAK256 SLOAD PUSH1 0x1 PUSH1 0x1 PUSH1 0xA0 SHL SUB AND DUP3 DUP9 ADD MSTORE DUP8 DUP4 MSTORE PUSH2 0x13B SWAP1 SWAP2 MSTORE SWAP1 DUP2 SWAP1 KECCAK256 SLOAD SWAP1 DUP6 ADD MSTORE PUSH1 0x60 DUP5 ADD DUP4 SWAP1 MSTORE SWAP1 POP PUSH8 0xDE0B6B3A7640000 PUSH2 0x29F4 DUP3 DUP5 PUSH2 0x4A84 JUMP JUMPDEST PUSH2 0x29FE SWAP2 SWAP1 PUSH2 0x4A9B JUMP JUMPDEST PUSH2 0x2A08 SWAP1 DUP4 PUSH2 0x4A71 JUMP JUMPDEST PUSH1 0x80 DUP5 ADD MSTORE PUSH1 0x0 DUP5 DUP2 MSTORE PUSH2 0x13A PUSH1 0x20 MSTORE PUSH1 0x40 SWAP1 KECCAK256 SLOAD PUSH1 0xA0 DUP5 ADD MSTORE PUSH2 0x2A2B DUP5 PUSH2 0x2CCC JUMP JUMPDEST PUSH1 0xC0 DUP5 ADD MSTORE PUSH1 0xE0 DUP4 ADD DUP2 SWAP1 MSTORE PUSH8 0xDE0B6B3A7640000 PUSH2 0x2A4A DUP3 DUP5 PUSH2 0x4A84 JUMP JUMPDEST PUSH2 0x2A54 SWAP2 SWAP1 PUSH2 0x4A9B JUMP JUMPDEST PUSH2 0x100 DUP5 ADD MSTORE POP POP PUSH1 0x0 DUP3 DUP2 MSTORE PUSH2 0x13E PUSH1 0x20 SWAP1 DUP2 MSTORE PUSH1 0x40 DUP1 DUP4 KECCAK256 SLOAD PUSH2 0x120 DUP6 ADD MSTORE SWAP4 DUP3 MSTORE PUSH2 0x13C SWAP1 MSTORE SWAP2 SWAP1 SWAP2 KECCAK256 SLOAD PUSH2 0x140 DUP3 ADD MSTORE SWAP1 JUMP JUMPDEST PUSH1 0x0 DUP2 DUP2 MSTORE PUSH2 0x13B PUSH1 0x20 MSTORE PUSH1 0x40 DUP2 KECCAK256 SLOAD DUP2 PUSH2 0x2AA4 PUSH2 0x3861 JUMP JUMPDEST SWAP1 POP PUSH8 0xDE0B6B3A7640000 PUSH2 0x12B3 DUP3 DUP5 PUSH2 0x4A84 JUMP JUMPDEST PUSH1 0x0 DUP2 DUP2 MSTORE PUSH2 0x13A PUSH1 0x20 MSTORE PUSH1 0x40 DUP2 KECCAK256 SLOAD DUP1 DUP3 SUB PUSH2 0x2AD9 JUMPI POP PUSH1 0x0 SWAP3 SWAP2 POP POP JUMP JUMPDEST PUSH1 0x0 PUSH2 0x2AE5 DUP3 TIMESTAMP PUSH2 0x4A71 JUMP JUMPDEST SWAP1 POP PUSH2 0x12F SLOAD DUP2 GT ISZERO PUSH2 0x2AF8 JUMPI POP PUSH2 0x12F SLOAD JUMPDEST PUSH8 0xDE0B6B3A7640000 PUSH2 0x131 SLOAD PUSH2 0x12F SLOAD PUSH8 0xDE0B6B3A7640000 DUP5 PUSH2 0x2B1D SWAP2 SWAP1 PUSH2 0x4A84 JUMP JUMPDEST PUSH2 0x2B27 SWAP2 SWAP1 PUSH2 0x4A9B JUMP JUMPDEST PUSH2 0x2B31 SWAP2 SWAP1 PUSH2 0x4A84 JUMP JUMPDEST PUSH2 0x2B3B SWAP2 SWAP1 PUSH2 0x4A9B JUMP JUMPDEST PUSH2 0x131 SLOAD PUSH2 0x2B49 SWAP2 SWAP1 PUSH2 0x4A71 JUMP JUMPDEST SWAP3 POP PUSH2 0x132 SLOAD DUP4 LT ISZERO PUSH2 0x12C0 JUMPI POP POP PUSH2 0x132 SLOAD SWAP3 SWAP2 POP POP JUMP JUMPDEST PUSH1 0x2 PUSH1 0x1 SLOAD SUB PUSH2 0x2BB4 JUMPI PUSH1 0x40 MLOAD PUSH3 0x461BCD PUSH1 0xE5 SHL DUP2 MSTORE PUSH1 0x20 PUSH1 0x4 DUP3 ADD MSTORE PUSH1 0x1F PUSH1 0x24 DUP3 ADD MSTORE PUSH32 0x5265656E7472616E637947756172643A207265656E7472616E742063616C6C00 PUSH1 0x44 DUP3 ADD MSTORE PUSH1 0x64 ADD PUSH2 0xAF1 JUMP JUMPDEST PUSH1 0x2 PUSH1 0x1 SSTORE JUMP JUMPDEST PUSH1 0xC9 SLOAD PUSH1 0x1 PUSH1 0x1 PUSH1 0xA0 SHL SUB AND CALLER EQ PUSH2 0x18AF JUMPI PUSH1 0x40 MLOAD PUSH3 0x461BCD PUSH1 0xE5 SHL DUP2 MSTORE PUSH1 0x20 PUSH1 0x4 DUP3 ADD DUP2 SWAP1 MSTORE PUSH1 0x24 DUP3 ADD MSTORE PUSH32 0x4F776E61626C653A2063616C6C6572206973206E6F7420746865206F776E6572 PUSH1 0x44 DUP3 ADD MSTORE PUSH1 0x64 ADD PUSH2 0xAF1 JUMP JUMPDEST PUSH1 0x40 MLOAD PUSH1 0x1 PUSH1 0x1 PUSH1 0xA0 SHL SUB DUP1 DUP6 AND PUSH1 0x24 DUP4 ADD MSTORE DUP4 AND PUSH1 0x44 DUP3 ADD MSTORE PUSH1 0x64 DUP2 ADD DUP3 SWAP1 MSTORE PUSH2 0x1C64 SWAP1 DUP6 SWAP1 PUSH32 0x23B872DD00000000000000000000000000000000000000000000000000000000 SWAP1 PUSH1 0x84 ADD JUMPDEST PUSH1 0x40 DUP1 MLOAD PUSH1 0x1F NOT DUP2 DUP5 SUB ADD DUP2 MSTORE SWAP2 SWAP1 MSTORE PUSH1 0x20 DUP2 ADD DUP1 MLOAD PUSH28 0xFFFFFFFFFFFFFFFFFFFFFFFFFFFFFFFFFFFFFFFFFFFFFFFFFFFFFFFF AND PUSH32 0xFFFFFFFF00000000000000000000000000000000000000000000000000000000 SWAP1 SWAP4 AND SWAP3 SWAP1 SWAP3 OR SWAP1 SWAP2 MSTORE PUSH2 0x4027 JUMP JUMPDEST PUSH1 0x1 DUP1 SSTORE JUMP JUMPDEST PUSH1 0x0 DUP2 DUP2 MSTORE PUSH2 0x13A PUSH1 0x20 MSTORE PUSH1 0x40 DUP2 KECCAK256 SLOAD DUP1 DUP3 SUB PUSH2 0x2CEC JUMPI POP PUSH1 0x0 SWAP3 SWAP2 POP POP JUMP JUMPDEST PUSH1 0x0 PUSH2 0x2CF8 DUP3 TIMESTAMP PUSH2 0x4A71 JUMP JUMPDEST SWAP1 POP PUSH2 0x12F SLOAD DUP2 GT ISZERO PUSH2 0x2D0B JUMPI POP PUSH2 0x12F SLOAD JUMPDEST PUSH8 0xDE0B6B3A7640000 DUP1 PUSH2 0x130 SLOAD PUSH2 0x2D23 SWAP2 SWAP1 PUSH2 0x4A71 JUMP JUMPDEST PUSH2 0x12F SLOAD PUSH2 0x2D39 PUSH8 0xDE0B6B3A7640000 DUP6 PUSH2 0x4A84 JUMP JUMPDEST PUSH2 0x2D43 SWAP2 SWAP1 PUSH2 0x4A9B JUMP JUMPDEST PUSH2 0x2D4D SWAP2 SWAP1 PUSH2 0x4A84 JUMP JUMPDEST PUSH2 0x2D57 SWAP2 SWAP1 PUSH2 0x4A9B JUMP JUMPDEST PUSH2 0x12BD SWAP1 PUSH8 0xDE0B6B3A7640000 PUSH2 0x4ABD JUMP JUMPDEST PUSH1 0x60 PUSH2 0x2D73 PUSH2 0x2B62 JUMP JUMPDEST PUSH1 0x0 DUP4 DUP2 MSTORE PUSH1 0x99 PUSH1 0x20 MSTORE PUSH1 0x40 SWAP1 KECCAK256 SLOAD PUSH1 0x1 PUSH1 0x1 PUSH1 0xA0 SHL SUB AND PUSH2 0x2DD7 JUMPI PUSH1 0x40 MLOAD PUSH3 0x461BCD PUSH1 0xE5 SHL DUP2 MSTORE PUSH1 0x20 PUSH1 0x4 DUP3 ADD MSTORE PUSH1 0x1C PUSH1 0x24 DUP3 ADD MSTORE PUSH32 0x5468697320706F736974696F6E20646F65736E27742065786973742E00000000 PUSH1 0x44 DUP3 ADD MSTORE PUSH1 0x64 ADD PUSH2 0xAF1 JUMP JUMPDEST PUSH1 0x0 DUP4 DUP2 MSTORE PUSH1 0x99 PUSH1 0x20 MSTORE PUSH1 0x40 SWAP1 KECCAK256 SLOAD PUSH1 0x1 PUSH1 0x1 PUSH1 0xA0 SHL SUB AND CALLER DUP2 EQ PUSH2 0x2E3E JUMPI PUSH1 0x40 MLOAD PUSH3 0x461BCD PUSH1 0xE5 SHL DUP2 MSTORE PUSH1 0x20 PUSH1 0x4 DUP3 ADD MSTORE PUSH1 0x13 PUSH1 0x24 DUP3 ADD MSTORE PUSH32 0x4E6F7420796F75722078494E5458204E46542E00000000000000000000000000 PUSH1 0x44 DUP3 ADD MSTORE PUSH1 0x64 ADD PUSH2 0xAF1 JUMP JUMPDEST DUP3 MLOAD PUSH1 0x1 DUP2 GT PUSH2 0x2EB6 JUMPI PUSH1 0x40 MLOAD PUSH3 0x461BCD PUSH1 0xE5 SHL DUP2 MSTORE PUSH1 0x20 PUSH1 0x4 DUP3 ADD MSTORE PUSH1 0x2C PUSH1 0x24 DUP3 ADD MSTORE PUSH32 0x596F752063616E27742073706C697420746869732058494E5458206C65737320 PUSH1 0x44 DUP3 ADD MSTORE PUSH32 0x7468616E20322074696D65730000000000000000000000000000000000000000 PUSH1 0x64 DUP3 ADD MSTORE PUSH1 0x84 ADD PUSH2 0xAF1 JUMP JUMPDEST PUSH1 0xA DUP2 GT ISZERO PUSH2 0x2F2D JUMPI PUSH1 0x40 MLOAD PUSH3 0x461BCD PUSH1 0xE5 SHL DUP2 MSTORE PUSH1 0x20 PUSH1 0x4 DUP3 ADD MSTORE PUSH1 0x2D PUSH1 0x24 DUP3 ADD MSTORE PUSH32 0x596F752063616E27742073706C697420746869732058494E5458206D6F726520 PUSH1 0x44 DUP3 ADD MSTORE PUSH32 0x7468616E2031302074696D657300000000000000000000000000000000000000 PUSH1 0x64 DUP3 ADD MSTORE PUSH1 0x84 ADD PUSH2 0xAF1 JUMP JUMPDEST DUP1 PUSH8 0xFFFFFFFFFFFFFFFF DUP2 GT ISZERO PUSH2 0x2F46 JUMPI PUSH2 0x2F46 PUSH2 0x492F JUMP JUMPDEST PUSH1 0x40 MLOAD SWAP1 DUP1 DUP3 MSTORE DUP1 PUSH1 0x20 MUL PUSH1 0x20 ADD DUP3 ADD PUSH1 0x40 MSTORE DUP1 ISZERO PUSH2 0x2F6F JUMPI DUP2 PUSH1 0x20 ADD PUSH1 0x20 DUP3 MUL DUP1 CALLDATASIZE DUP4 CALLDATACOPY ADD SWAP1 POP JUMPDEST POP SWAP3 POP PUSH2 0x2F7B DUP6 PUSH2 0x2705 JUMP JUMPDEST PUSH1 0x0 DUP6 DUP2 MSTORE PUSH2 0x13B PUSH1 0x20 SWAP1 DUP2 MSTORE PUSH1 0x40 DUP1 DUP4 KECCAK256 SLOAD PUSH2 0x13A DUP4 MSTORE DUP2 DUP5 KECCAK256 SLOAD PUSH2 0x13D SWAP1 SWAP4 MSTORE SWAP1 DUP4 KECCAK256 SLOAD PUSH2 0x12E DUP1 SLOAD SWAP3 SWAP4 SWAP3 DUP5 SWAP2 SWAP1 DUP7 SWAP1 PUSH2 0x2FB9 SWAP1 DUP5 SWAP1 PUSH2 0x4A71 JUMP JUMPDEST SWAP1 SWAP2 SSTORE POP POP PUSH1 0x0 DUP10 DUP2 MSTORE PUSH2 0x13C PUSH1 0x20 MSTORE PUSH1 0x40 DUP2 KECCAK256 SLOAD PUSH2 0x137 DUP1 SLOAD SWAP2 SWAP3 SWAP1 SWAP2 PUSH2 0x2FE2 SWAP1 DUP5 SWAP1 PUSH2 0x4A71 JUMP JUMPDEST SWAP1 SWAP2 SSTORE POP PUSH1 0x0 SWAP1 POP JUMPDEST DUP6 DUP2 LT ISZERO PUSH2 0x302C JUMPI DUP9 DUP2 DUP2 MLOAD DUP2 LT PUSH2 0x3005 JUMPI PUSH2 0x3005 PUSH2 0x4AD0 JUMP JUMPDEST PUSH1 0x20 MUL PUSH1 0x20 ADD ADD MLOAD DUP6 PUSH2 0x3018 SWAP2 SWAP1 PUSH2 0x4ABD JUMP JUMPDEST SWAP5 POP DUP1 PUSH2 0x3024 DUP2 PUSH2 0x4AE6 JUMP JUMPDEST SWAP2 POP POP PUSH2 0x2FEB JUMP JUMPDEST POP PUSH1 0x0 JUMPDEST DUP6 DUP2 LT ISZERO PUSH2 0x3212 JUMPI PUSH1 0x0 DUP6 DUP6 DUP12 DUP5 DUP2 MLOAD DUP2 LT PUSH2 0x304E JUMPI PUSH2 0x304E PUSH2 0x4AD0 JUMP JUMPDEST PUSH1 0x20 MUL PUSH1 0x20 ADD ADD MLOAD PUSH2 0x3060 SWAP2 SWAP1 PUSH2 0x4A84 JUMP JUMPDEST PUSH2 0x306A SWAP2 SWAP1 PUSH2 0x4A9B JUMP JUMPDEST SWAP1 POP PUSH1 0x0 DUP2 GT PUSH2 0x30BC JUMPI PUSH1 0x40 MLOAD PUSH3 0x461BCD PUSH1 0xE5 SHL DUP2 MSTORE PUSH1 0x20 PUSH1 0x4 DUP3 ADD MSTORE PUSH1 0x14 PUSH1 0x24 DUP3 ADD MSTORE PUSH32 0x43616E27742073706C697420302078494E54582E000000000000000000000000 PUSH1 0x44 DUP3 ADD MSTORE PUSH1 0x64 ADD PUSH2 0xAF1 JUMP JUMPDEST PUSH2 0x12D DUP1 SLOAD SWAP1 PUSH1 0x0 PUSH2 0x30CD DUP4 PUSH2 0x4AE6 JUMP JUMPDEST SWAP2 SWAP1 POP SSTORE POP PUSH2 0x30DF DUP9 PUSH2 0x12D SLOAD PUSH2 0x3D2C JUMP JUMPDEST PUSH2 0x12D SLOAD DUP10 DUP4 DUP2 MLOAD DUP2 LT PUSH2 0x30F5 JUMPI PUSH2 0x30F5 PUSH2 0x4AD0 JUMP JUMPDEST PUSH1 0x20 SWAP1 DUP2 MUL SWAP2 SWAP1 SWAP2 ADD DUP2 ADD SWAP2 SWAP1 SWAP2 MSTORE PUSH2 0x12D DUP1 SLOAD PUSH1 0x0 SWAP1 DUP2 MSTORE PUSH2 0x13A DUP4 MSTORE PUSH1 0x40 DUP1 DUP3 KECCAK256 DUP9 SWAP1 SSTORE DUP3 SLOAD DUP3 MSTORE PUSH2 0x13B SWAP1 SWAP4 MSTORE SWAP2 DUP3 KECCAK256 DUP4 SWAP1 SSTORE SLOAD PUSH8 0xDE0B6B3A7640000 SWAP1 PUSH2 0x313F SWAP1 PUSH2 0x2CCC JUMP JUMPDEST PUSH2 0x3149 SWAP1 DUP5 PUSH2 0x4A84 JUMP JUMPDEST PUSH2 0x3153 SWAP2 SWAP1 PUSH2 0x4A9B JUMP JUMPDEST PUSH2 0x12D DUP1 SLOAD PUSH1 0x0 SWAP1 DUP2 MSTORE PUSH2 0x13C PUSH1 0x20 SWAP1 DUP2 MSTORE PUSH1 0x40 DUP1 DUP4 KECCAK256 DUP6 SWAP1 SSTORE SWAP3 SLOAD DUP3 MSTORE PUSH2 0x13D SWAP1 MSTORE SWAP1 DUP2 KECCAK256 DUP7 SWAP1 SSTORE PUSH2 0x12E DUP1 SLOAD SWAP3 SWAP4 POP DUP5 SWAP3 SWAP1 SWAP2 SWAP1 PUSH2 0x3194 SWAP1 DUP5 SWAP1 PUSH2 0x4ABD JUMP JUMPDEST SWAP3 POP POP DUP2 SWAP1 SSTORE POP DUP1 PUSH2 0x137 PUSH1 0x0 DUP3 DUP3 SLOAD PUSH2 0x31AE SWAP2 SWAP1 PUSH2 0x4ABD JUMP JUMPDEST SWAP1 SWAP2 SSTORE POP POP PUSH2 0x12D SLOAD PUSH1 0x40 DUP1 MLOAD SWAP2 DUP3 MSTORE PUSH1 0x20 DUP3 ADD DUP5 SWAP1 MSTORE DUP14 SWAP2 PUSH1 0x1 PUSH1 0x1 PUSH1 0xA0 SHL SUB DUP13 AND SWAP2 PUSH32 0xF66885C33D648FCD0D97E0F2A18E30102169C22763473AF0FB716F11B4A17DD6 SWAP2 ADD PUSH1 0x40 MLOAD DUP1 SWAP2 SUB SWAP1 LOG3 POP POP DUP1 DUP1 PUSH2 0x320A SWAP1 PUSH2 0x4AE6 JUMP JUMPDEST SWAP2 POP POP PUSH2 0x3030 JUMP JUMPDEST POP PUSH1 0x0 DUP10 DUP2 MSTORE PUSH2 0x13E PUSH1 0x20 MSTORE PUSH1 0x40 SWAP1 KECCAK256 SLOAD ISZERO PUSH2 0x3266 JUMPI PUSH1 0x0 DUP10 DUP2 MSTORE PUSH2 0x13E PUSH1 0x20 SWAP1 DUP2 MSTORE PUSH1 0x40 DUP1 DUP4 KECCAK256 SLOAD PUSH1 0x1 PUSH1 0x1 PUSH1 0xA0 SHL SUB DUP11 AND DUP5 MSTORE PUSH2 0x13F SWAP1 SWAP3 MSTORE DUP3 KECCAK256 DUP1 SLOAD SWAP2 SWAP3 SWAP1 SWAP2 PUSH2 0x3260 SWAP1 DUP5 SWAP1 PUSH2 0x4ABD JUMP JUMPDEST SWAP1 SWAP2 SSTORE POP POP JUMPDEST PUSH1 0x0 DUP10 DUP2 MSTORE PUSH2 0x13A PUSH1 0x20 SWAP1 DUP2 MSTORE PUSH1 0x40 DUP1 DUP4 KECCAK256 DUP4 SWAP1 SSTORE PUSH2 0x13B DUP3 MSTORE DUP1 DUP4 KECCAK256 DUP4 SWAP1 SSTORE PUSH2 0x13C DUP3 MSTORE DUP1 DUP4 KECCAK256 DUP4 SWAP1 SSTORE PUSH2 0x13D DUP3 MSTORE DUP1 DUP4 KECCAK256 DUP4 SWAP1 SSTORE PUSH2 0x13E SWAP1 SWAP2 MSTORE DUP2 KECCAK256 SSTORE PUSH2 0x32AE DUP10 PUSH2 0x3C03 JUMP JUMPDEST POP POP POP POP POP POP PUSH2 0x9A2 PUSH1 0x1 DUP1 SSTORE JUMP JUMPDEST PUSH1 0x40 MLOAD PUSH1 0x1 PUSH1 0x1 PUSH1 0xA0 SHL SUB DUP4 AND PUSH1 0x24 DUP3 ADD MSTORE PUSH1 0x44 DUP2 ADD DUP3 SWAP1 MSTORE PUSH2 0xB92 SWAP1 DUP5 SWAP1 PUSH32 0xA9059CBB00000000000000000000000000000000000000000000000000000000 SWAP1 PUSH1 0x64 ADD PUSH2 0x2C62 JUMP JUMPDEST PUSH2 0x330E PUSH2 0x2B62 JUMP JUMPDEST PUSH1 0x0 DUP3 DUP2 MSTORE PUSH1 0x99 PUSH1 0x20 MSTORE PUSH1 0x40 SWAP1 KECCAK256 SLOAD PUSH1 0x1 PUSH1 0x1 PUSH1 0xA0 SHL SUB AND PUSH2 0x3372 JUMPI PUSH1 0x40 MLOAD PUSH3 0x461BCD PUSH1 0xE5 SHL DUP2 MSTORE PUSH1 0x20 PUSH1 0x4 DUP3 ADD MSTORE PUSH1 0x1C PUSH1 0x24 DUP3 ADD MSTORE PUSH32 0x5468697320706F736974696F6E20646F65736E27742065786973742E00000000 PUSH1 0x44 DUP3 ADD MSTORE PUSH1 0x64 ADD PUSH2 0xAF1 JUMP JUMPDEST PUSH1 0x0 DUP2 DUP2 MSTORE PUSH1 0x99 PUSH1 0x20 MSTORE PUSH1 0x40 SWAP1 KECCAK256 SLOAD PUSH1 0x1 PUSH1 0x1 PUSH1 0xA0 SHL SUB AND PUSH2 0x33D6 JUMPI PUSH1 0x40 MLOAD PUSH3 0x461BCD PUSH1 0xE5 SHL DUP2 MSTORE PUSH1 0x20 PUSH1 0x4 DUP3 ADD MSTORE PUSH1 0x1C PUSH1 0x24 DUP3 ADD MSTORE PUSH32 0x5468697320706F736974696F6E20646F65736E27742065786973742E00000000 PUSH1 0x44 DUP3 ADD MSTORE PUSH1 0x64 ADD PUSH2 0xAF1 JUMP JUMPDEST PUSH1 0x0 DUP3 DUP2 MSTORE PUSH1 0x99 PUSH1 0x20 MSTORE PUSH1 0x40 SWAP1 KECCAK256 SLOAD PUSH1 0x1 PUSH1 0x1 PUSH1 0xA0 SHL SUB AND CALLER DUP2 EQ PUSH2 0x343D JUMPI PUSH1 0x40 MLOAD PUSH3 0x461BCD PUSH1 0xE5 SHL DUP2 MSTORE PUSH1 0x20 PUSH1 0x4 DUP3 ADD MSTORE PUSH1 0x1E PUSH1 0x24 DUP3 ADD MSTORE PUSH32 0x46726F6D204E46542069736E277420796F75722078494E5458204E46542E0000 PUSH1 0x44 DUP3 ADD MSTORE PUSH1 0x64 ADD PUSH2 0xAF1 JUMP JUMPDEST PUSH1 0x0 DUP3 DUP2 MSTORE PUSH1 0x99 PUSH1 0x20 MSTORE PUSH1 0x40 SWAP1 KECCAK256 SLOAD PUSH1 0x1 PUSH1 0x1 PUSH1 0xA0 SHL SUB DUP3 DUP2 AND SWAP2 AND EQ PUSH2 0x34A6 JUMPI PUSH1 0x40 MLOAD PUSH3 0x461BCD PUSH1 0xE5 SHL DUP2 MSTORE PUSH1 0x20 PUSH1 0x4 DUP3 ADD MSTORE PUSH1 0x17 PUSH1 0x24 DUP3 ADD MSTORE PUSH32 0x546F204E46542069736E27742078494E5458204E46542E000000000000000000 PUSH1 0x44 DUP3 ADD MSTORE PUSH1 0x64 ADD PUSH2 0xAF1 JUMP JUMPDEST PUSH2 0x34AF DUP4 PUSH2 0x2705 JUMP JUMPDEST PUSH2 0x34B8 DUP3 PUSH2 0x2705 JUMP JUMPDEST PUSH1 0x0 DUP4 DUP2 MSTORE PUSH2 0x13B PUSH1 0x20 SWAP1 DUP2 MSTORE PUSH1 0x40 DUP1 DUP4 KECCAK256 SLOAD PUSH2 0x13A SWAP1 SWAP3 MSTORE DUP3 KECCAK256 SLOAD SWAP1 SWAP2 SWAP1 PUSH2 0x34E1 SWAP1 TIMESTAMP PUSH2 0x4A71 JUMP JUMPDEST SWAP1 POP PUSH2 0x12F SLOAD DUP2 GT ISZERO PUSH2 0x34F4 JUMPI POP PUSH2 0x12F SLOAD JUMPDEST PUSH1 0x0 DUP5 DUP2 MSTORE PUSH2 0x13B PUSH1 0x20 SWAP1 DUP2 MSTORE PUSH1 0x40 DUP1 DUP4 KECCAK256 SLOAD PUSH2 0x13A SWAP1 SWAP3 MSTORE DUP3 KECCAK256 SLOAD SWAP1 SWAP2 SWAP1 PUSH2 0x351D SWAP1 TIMESTAMP PUSH2 0x4A71 JUMP JUMPDEST SWAP1 POP PUSH2 0x12F SLOAD DUP2 GT ISZERO PUSH2 0x3530 JUMPI POP PUSH2 0x12F SLOAD JUMPDEST PUSH1 0x0 PUSH2 0x353C DUP4 DUP7 PUSH2 0x4ABD JUMP JUMPDEST SWAP1 POP PUSH1 0x0 DUP2 GT PUSH2 0x35B4 JUMPI PUSH1 0x40 MLOAD PUSH3 0x461BCD PUSH1 0xE5 SHL DUP2 MSTORE PUSH1 0x20 PUSH1 0x4 DUP3 ADD MSTORE PUSH1 0x23 PUSH1 0x24 DUP3 ADD MSTORE PUSH32 0x43616E2774206D616B65206120706F736974696F6E207769746820302078494E PUSH1 0x44 DUP3 ADD MSTORE PUSH32 0x54582E0000000000000000000000000000000000000000000000000000000000 PUSH1 0x64 DUP3 ADD MSTORE PUSH1 0x84 ADD PUSH2 0xAF1 JUMP JUMPDEST PUSH1 0x0 DUP2 PUSH2 0x35C1 DUP6 DUP6 PUSH2 0x4A84 JUMP JUMPDEST PUSH2 0x35CB SWAP2 SWAP1 PUSH2 0x4A9B JUMP JUMPDEST DUP3 PUSH2 0x35D6 DUP9 DUP9 PUSH2 0x4A84 JUMP JUMPDEST PUSH2 0x35E0 SWAP2 SWAP1 PUSH2 0x4A9B JUMP JUMPDEST PUSH2 0x35EA SWAP2 SWAP1 PUSH2 0x4ABD JUMP JUMPDEST PUSH1 0x0 DUP10 DUP2 MSTORE PUSH2 0x13B PUSH1 0x20 MSTORE PUSH1 0x40 SWAP1 KECCAK256 DUP4 SWAP1 SSTORE SWAP1 POP PUSH2 0x3608 DUP2 TIMESTAMP PUSH2 0x4A71 JUMP JUMPDEST PUSH1 0x0 DUP10 DUP2 MSTORE PUSH2 0x13A PUSH1 0x20 MSTORE PUSH1 0x40 DUP2 KECCAK256 SWAP2 SWAP1 SWAP2 SSTORE PUSH8 0xDE0B6B3A7640000 PUSH2 0x362D DUP11 PUSH2 0x2CCC JUMP JUMPDEST PUSH2 0x3637 SWAP1 DUP6 PUSH2 0x4A84 JUMP JUMPDEST PUSH2 0x3641 SWAP2 SWAP1 PUSH2 0x4A9B JUMP JUMPDEST PUSH1 0x0 DUP11 DUP2 MSTORE PUSH2 0x13C PUSH1 0x20 SWAP1 DUP2 MSTORE PUSH1 0x40 DUP1 DUP4 KECCAK256 DUP5 SWAP1 SSTORE DUP14 DUP4 MSTORE PUSH2 0x13E SWAP1 SWAP2 MSTORE SWAP1 KECCAK256 SLOAD SWAP1 SWAP2 POP ISZERO PUSH2 0x36A8 JUMPI PUSH1 0x0 DUP11 DUP2 MSTORE PUSH2 0x13E PUSH1 0x20 SWAP1 DUP2 MSTORE PUSH1 0x40 DUP1 DUP4 KECCAK256 SLOAD PUSH1 0x1 PUSH1 0x1 PUSH1 0xA0 SHL SUB DUP13 AND DUP5 MSTORE PUSH2 0x13F SWAP1 SWAP3 MSTORE DUP3 KECCAK256 DUP1 SLOAD SWAP2 SWAP3 SWAP1 SWAP2 PUSH2 0x36A2 SWAP1 DUP5 SWAP1 PUSH2 0x4ABD JUMP JUMPDEST SWAP1 SWAP2 SSTORE POP POP JUMPDEST PUSH1 0x0 DUP11 DUP2 MSTORE PUSH2 0x13A PUSH1 0x20 SWAP1 DUP2 MSTORE PUSH1 0x40 DUP1 DUP4 KECCAK256 DUP4 SWAP1 SSTORE PUSH2 0x13B DUP3 MSTORE DUP1 DUP4 KECCAK256 DUP4 SWAP1 SSTORE PUSH2 0x13C DUP3 MSTORE DUP1 DUP4 KECCAK256 DUP4 SWAP1 SSTORE PUSH2 0x13D DUP3 MSTORE DUP1 DUP4 KECCAK256 DUP4 SWAP1 SSTORE PUSH2 0x13E SWAP1 SWAP2 MSTORE DUP2 KECCAK256 SSTORE PUSH2 0x36F0 DUP11 PUSH2 0x3C03 JUMP JUMPDEST DUP10 PUSH1 0x1 PUSH1 0x1 PUSH1 0xA0 SHL SUB DUP10 AND PUSH32 0x50D7F0EF4F7B59921566F6B835FB032EFA0FD0DACCCB9361292F89B7AA6BAFDD DUP12 DUP7 PUSH2 0x3728 DUP8 TIMESTAMP PUSH2 0x4A71 JUMP JUMPDEST PUSH1 0x40 DUP1 MLOAD SWAP4 DUP5 MSTORE PUSH1 0x20 DUP5 ADD SWAP3 SWAP1 SWAP3 MSTORE SWAP1 DUP3 ADD MSTORE PUSH1 0x60 ADD PUSH1 0x40 MLOAD DUP1 SWAP2 SUB SWAP1 LOG3 POP POP POP POP POP POP POP POP PUSH2 0x1B93 PUSH1 0x1 DUP1 SSTORE JUMP JUMPDEST PUSH1 0xFB DUP1 SLOAD PUSH20 0xFFFFFFFFFFFFFFFFFFFFFFFFFFFFFFFFFFFFFFFF NOT AND SWAP1 SSTORE PUSH2 0x14A5 DUP2 PUSH2 0x410F JUMP JUMPDEST PUSH1 0x0 DUP2 DUP4 LT PUSH2 0x378C JUMPI DUP2 PUSH2 0x1209 JUMP JUMPDEST POP SWAP1 SWAP2 SWAP1 POP JUMP JUMPDEST DUP2 PUSH1 0x1 PUSH1 0x1 PUSH1 0xA0 SHL SUB AND DUP4 PUSH1 0x1 PUSH1 0x1 PUSH1 0xA0 SHL SUB AND SUB PUSH2 0x37F4 JUMPI PUSH1 0x40 MLOAD PUSH3 0x461BCD PUSH1 0xE5 SHL DUP2 MSTORE PUSH1 0x20 PUSH1 0x4 DUP3 ADD MSTORE PUSH1 0x19 PUSH1 0x24 DUP3 ADD MSTORE PUSH32 0x4552433732313A20617070726F766520746F2063616C6C657200000000000000 PUSH1 0x44 DUP3 ADD MSTORE PUSH1 0x64 ADD PUSH2 0xAF1 JUMP JUMPDEST PUSH1 0x1 PUSH1 0x1 PUSH1 0xA0 SHL SUB DUP4 DUP2 AND PUSH1 0x0 DUP2 DUP2 MSTORE PUSH1 0x9C PUSH1 0x20 SWAP1 DUP2 MSTORE PUSH1 0x40 DUP1 DUP4 KECCAK256 SWAP5 DUP8 AND DUP1 DUP5 MSTORE SWAP5 DUP3 MSTORE SWAP2 DUP3 SWAP1 KECCAK256 DUP1 SLOAD PUSH1 0xFF NOT AND DUP7 ISZERO ISZERO SWAP1 DUP2 OR SWAP1 SWAP2 SSTORE SWAP2 MLOAD SWAP2 DUP3 MSTORE PUSH32 0x17307EAB39AB6107E8899845AD3D59BD9653F200F220920489CA2B5937696C31 SWAP2 ADD PUSH1 0x40 MLOAD DUP1 SWAP2 SUB SWAP1 LOG3 POP POP POP JUMP JUMPDEST PUSH1 0x0 PUSH2 0x12E SLOAD PUSH1 0x0 SUB PUSH2 0x387B JUMPI POP PUSH8 0xDE0B6B3A7640000 SWAP1 JUMP JUMPDEST PUSH2 0x12E SLOAD PUSH8 0xDE0B6B3A7640000 PUSH2 0x3890 PUSH2 0x3CA5 JUMP JUMPDEST PUSH2 0x389A SWAP2 SWAP1 PUSH2 0x4A84 JUMP JUMPDEST PUSH2 0x1A0E SWAP2 SWAP1 PUSH2 0x4A9B JUMP JUMPDEST PUSH2 0x38AF DUP5 DUP5 DUP5 PUSH2 0x21AB JUMP JUMPDEST PUSH2 0x38BB DUP5 DUP5 DUP5 DUP5 PUSH2 0x416E JUMP JUMPDEST PUSH2 0x1C64 JUMPI PUSH1 0x40 MLOAD PUSH3 0x461BCD PUSH1 0xE5 SHL DUP2 MSTORE PUSH1 0x20 PUSH1 0x4 DUP3 ADD MSTORE PUSH1 0x32 PUSH1 0x24 DUP3 ADD MSTORE PUSH32 0x4552433732313A207472616E7366657220746F206E6F6E204552433732315265 PUSH1 0x44 DUP3 ADD MSTORE PUSH32 0x63656976657220696D706C656D656E7465720000000000000000000000000000 PUSH1 0x64 DUP3 ADD MSTORE PUSH1 0x84 ADD PUSH2 0xAF1 JUMP JUMPDEST PUSH1 0x60 PUSH1 0x0 PUSH2 0x393A DUP4 PUSH2 0x430F JUMP JUMPDEST PUSH1 0x1 ADD SWAP1 POP PUSH1 0x0 DUP2 PUSH8 0xFFFFFFFFFFFFFFFF DUP2 GT ISZERO PUSH2 0x395A JUMPI PUSH2 0x395A PUSH2 0x492F JUMP JUMPDEST PUSH1 0x40 MLOAD SWAP1 DUP1 DUP3 MSTORE DUP1 PUSH1 0x1F ADD PUSH1 0x1F NOT AND PUSH1 0x20 ADD DUP3 ADD PUSH1 0x40 MSTORE DUP1 ISZERO PUSH2 0x3984 JUMPI PUSH1 0x20 DUP3 ADD DUP2 DUP1 CALLDATASIZE DUP4 CALLDATACOPY ADD SWAP1 POP JUMPDEST POP SWAP1 POP DUP2 DUP2 ADD PUSH1 0x20 ADD JUMPDEST PUSH1 0x0 NOT ADD PUSH32 0x3031323334353637383961626364656600000000000000000000000000000000 PUSH1 0xA DUP7 MOD BYTE DUP2 MSTORE8 PUSH1 0xA DUP6 DIV SWAP5 POP DUP5 PUSH2 0x398E JUMPI POP SWAP4 SWAP3 POP POP POP JUMP JUMPDEST DUP3 PUSH1 0x1 PUSH1 0x1 PUSH1 0xA0 SHL SUB AND PUSH2 0x39E0 DUP3 PUSH2 0x14A8 JUMP JUMPDEST PUSH1 0x1 PUSH1 0x1 PUSH1 0xA0 SHL SUB AND EQ PUSH2 0x3A5C JUMPI PUSH1 0x40 MLOAD PUSH3 0x461BCD PUSH1 0xE5 SHL DUP2 MSTORE PUSH1 0x20 PUSH1 0x4 DUP3 ADD MSTORE PUSH1 0x25 PUSH1 0x24 DUP3 ADD MSTORE PUSH32 0x4552433732313A207472616E736665722066726F6D20696E636F727265637420 PUSH1 0x44 DUP3 ADD MSTORE PUSH32 0x6F776E6572000000000000000000000000000000000000000000000000000000 PUSH1 0x64 DUP3 ADD MSTORE PUSH1 0x84 ADD PUSH2 0xAF1 JUMP JUMPDEST PUSH1 0x1 PUSH1 0x1 PUSH1 0xA0 SHL SUB DUP3 AND PUSH2 0x3AD7 JUMPI PUSH1 0x40 MLOAD PUSH3 0x461BCD PUSH1 0xE5 SHL DUP2 MSTORE PUSH1 0x20 PUSH1 0x4 DUP3 ADD MSTORE PUSH1 0x24 DUP1 DUP3 ADD MSTORE PUSH32 0x4552433732313A207472616E7366657220746F20746865207A65726F20616464 PUSH1 0x44 DUP3 ADD MSTORE PUSH32 0x7265737300000000000000000000000000000000000000000000000000000000 PUSH1 0x64 DUP3 ADD MSTORE PUSH1 0x84 ADD PUSH2 0xAF1 JUMP JUMPDEST DUP3 PUSH1 0x1 PUSH1 0x1 PUSH1 0xA0 SHL SUB AND PUSH2 0x3AEA DUP3 PUSH2 0x14A8 JUMP JUMPDEST PUSH1 0x1 PUSH1 0x1 PUSH1 0xA0 SHL SUB AND EQ PUSH2 0x3B66 JUMPI PUSH1 0x40 MLOAD PUSH3 0x461BCD PUSH1 0xE5 SHL DUP2 MSTORE PUSH1 0x20 PUSH1 0x4 DUP3 ADD MSTORE PUSH1 0x25 PUSH1 0x24 DUP3 ADD MSTORE PUSH32 0x4552433732313A207472616E736665722066726F6D20696E636F727265637420 PUSH1 0x44 DUP3 ADD MSTORE PUSH32 0x6F776E6572000000000000000000000000000000000000000000000000000000 PUSH1 0x64 DUP3 ADD MSTORE PUSH1 0x84 ADD PUSH2 0xAF1 JUMP JUMPDEST PUSH1 0x0 DUP2 DUP2 MSTORE PUSH1 0x9B PUSH1 0x20 SWAP1 DUP2 MSTORE PUSH1 0x40 DUP1 DUP4 KECCAK256 DUP1 SLOAD PUSH20 0xFFFFFFFFFFFFFFFFFFFFFFFFFFFFFFFFFFFFFFFF NOT SWAP1 DUP2 AND SWAP1 SWAP2 SSTORE PUSH1 0x1 PUSH1 0x1 PUSH1 0xA0 SHL SUB DUP8 DUP2 AND DUP1 DUP7 MSTORE PUSH1 0x9A DUP6 MSTORE DUP4 DUP7 KECCAK256 DUP1 SLOAD PUSH1 0x0 NOT ADD SWAP1 SSTORE SWAP1 DUP8 AND DUP1 DUP7 MSTORE DUP4 DUP7 KECCAK256 DUP1 SLOAD PUSH1 0x1 ADD SWAP1 SSTORE DUP7 DUP7 MSTORE PUSH1 0x99 SWAP1 SWAP5 MSTORE DUP3 DUP6 KECCAK256 DUP1 SLOAD SWAP1 SWAP3 AND DUP5 OR SWAP1 SWAP2 SSTORE SWAP1 MLOAD DUP5 SWAP4 PUSH32 0xDDF252AD1BE2C89B69C2B068FC378DAA952BA7F163C4A11628F55A4DF523B3EF SWAP2 LOG4 POP POP POP JUMP JUMPDEST PUSH1 0x0 PUSH2 0x3C0E DUP3 PUSH2 0x14A8 JUMP JUMPDEST SWAP1 POP PUSH2 0x3C19 DUP3 PUSH2 0x14A8 JUMP JUMPDEST PUSH1 0x0 DUP4 DUP2 MSTORE PUSH1 0x9B PUSH1 0x20 SWAP1 DUP2 MSTORE PUSH1 0x40 DUP1 DUP4 KECCAK256 DUP1 SLOAD PUSH20 0xFFFFFFFFFFFFFFFFFFFFFFFFFFFFFFFFFFFFFFFF NOT SWAP1 DUP2 AND SWAP1 SWAP2 SSTORE PUSH1 0x1 PUSH1 0x1 PUSH1 0xA0 SHL SUB DUP6 AND DUP1 DUP6 MSTORE PUSH1 0x9A DUP5 MSTORE DUP3 DUP6 KECCAK256 DUP1 SLOAD PUSH1 0x0 NOT ADD SWAP1 SSTORE DUP8 DUP6 MSTORE PUSH1 0x99 SWAP1 SWAP4 MSTORE DUP2 DUP5 KECCAK256 DUP1 SLOAD SWAP1 SWAP2 AND SWAP1 SSTORE MLOAD SWAP3 SWAP4 POP DUP5 SWAP3 PUSH32 0xDDF252AD1BE2C89B69C2B068FC378DAA952BA7F163C4A11628F55A4DF523B3EF SWAP1 DUP4 SWAP1 LOG4 POP POP JUMP JUMPDEST PUSH2 0x138 SLOAD PUSH1 0x40 MLOAD PUSH32 0x70A0823100000000000000000000000000000000000000000000000000000000 DUP2 MSTORE ADDRESS PUSH1 0x4 DUP3 ADD MSTORE PUSH1 0x0 SWAP2 PUSH1 0x1 PUSH1 0x1 PUSH1 0xA0 SHL SUB AND SWAP1 PUSH4 0x70A08231 SWAP1 PUSH1 0x24 ADD PUSH1 0x20 PUSH1 0x40 MLOAD DUP1 DUP4 SUB DUP2 DUP7 GAS STATICCALL ISZERO DUP1 ISZERO PUSH2 0x3D08 JUMPI RETURNDATASIZE PUSH1 0x0 DUP1 RETURNDATACOPY RETURNDATASIZE PUSH1 0x0 REVERT JUMPDEST POP POP POP POP PUSH1 0x40 MLOAD RETURNDATASIZE PUSH1 0x1F NOT PUSH1 0x1F DUP3 ADD AND DUP3 ADD DUP1 PUSH1 0x40 MSTORE POP DUP2 ADD SWAP1 PUSH2 0x1A0E SWAP2 SWAP1 PUSH2 0x4B00 JUMP JUMPDEST PUSH1 0x1 PUSH1 0x1 PUSH1 0xA0 SHL SUB DUP3 AND PUSH2 0x3D82 JUMPI PUSH1 0x40 MLOAD PUSH3 0x461BCD PUSH1 0xE5 SHL DUP2 MSTORE PUSH1 0x20 PUSH1 0x4 DUP3 ADD DUP2 SWAP1 MSTORE PUSH1 0x24 DUP3 ADD MSTORE PUSH32 0x4552433732313A206D696E7420746F20746865207A65726F2061646472657373 PUSH1 0x44 DUP3 ADD MSTORE PUSH1 0x64 ADD PUSH2 0xAF1 JUMP JUMPDEST PUSH1 0x0 DUP2 DUP2 MSTORE PUSH1 0x99 PUSH1 0x20 MSTORE PUSH1 0x40 SWAP1 KECCAK256 SLOAD PUSH1 0x1 PUSH1 0x1 PUSH1 0xA0 SHL SUB AND ISZERO PUSH2 0x3DE7 JUMPI PUSH1 0x40 MLOAD PUSH3 0x461BCD PUSH1 0xE5 SHL DUP2 MSTORE PUSH1 0x20 PUSH1 0x4 DUP3 ADD MSTORE PUSH1 0x1C PUSH1 0x24 DUP3 ADD MSTORE PUSH32 0x4552433732313A20746F6B656E20616C7265616479206D696E74656400000000 PUSH1 0x44 DUP3 ADD MSTORE PUSH1 0x64 ADD PUSH2 0xAF1 JUMP JUMPDEST PUSH1 0x0 DUP2 DUP2 MSTORE PUSH1 0x99 PUSH1 0x20 MSTORE PUSH1 0x40 SWAP1 KECCAK256 SLOAD PUSH1 0x1 PUSH1 0x1 PUSH1 0xA0 SHL SUB AND ISZERO PUSH2 0x3E4C JUMPI PUSH1 0x40 MLOAD PUSH3 0x461BCD PUSH1 0xE5 SHL DUP2 MSTORE PUSH1 0x20 PUSH1 0x4 DUP3 ADD MSTORE PUSH1 0x1C PUSH1 0x24 DUP3 ADD MSTORE PUSH32 0x4552433732313A20746F6B656E20616C7265616479206D696E74656400000000 PUSH1 0x44 DUP3 ADD MSTORE PUSH1 0x64 ADD PUSH2 0xAF1 JUMP JUMPDEST PUSH1 0x1 PUSH1 0x1 PUSH1 0xA0 SHL SUB DUP3 AND PUSH1 0x0 DUP2 DUP2 MSTORE PUSH1 0x9A PUSH1 0x20 SWAP1 DUP2 MSTORE PUSH1 0x40 DUP1 DUP4 KECCAK256 DUP1 SLOAD PUSH1 0x1 ADD SWAP1 SSTORE DUP5 DUP4 MSTORE PUSH1 0x99 SWAP1 SWAP2 MSTORE DUP1 DUP3 KECCAK256 DUP1 SLOAD PUSH20 0xFFFFFFFFFFFFFFFFFFFFFFFFFFFFFFFFFFFFFFFF NOT AND DUP5 OR SWAP1 SSTORE MLOAD DUP4 SWAP3 SWAP2 SWAP1 PUSH32 0xDDF252AD1BE2C89B69C2B068FC378DAA952BA7F163C4A11628F55A4DF523B3EF SWAP1 DUP3 SWAP1 LOG4 POP POP JUMP JUMPDEST PUSH1 0x0 SLOAD PUSH2 0x100 SWAP1 DIV PUSH1 0xFF AND PUSH2 0x2CC6 JUMPI PUSH1 0x40 MLOAD PUSH3 0x461BCD PUSH1 0xE5 SHL DUP2 MSTORE PUSH1 0x20 PUSH1 0x4 DUP3 ADD MSTORE PUSH1 0x2B PUSH1 0x24 DUP3 ADD MSTORE PUSH32 0x496E697469616C697A61626C653A20636F6E7472616374206973206E6F742069 PUSH1 0x44 DUP3 ADD MSTORE PUSH11 0x6E697469616C697A696E67 PUSH1 0xA8 SHL PUSH1 0x64 DUP3 ADD MSTORE PUSH1 0x84 ADD PUSH2 0xAF1 JUMP JUMPDEST PUSH1 0x0 SLOAD PUSH2 0x100 SWAP1 DIV PUSH1 0xFF AND PUSH2 0x3F9A JUMPI PUSH1 0x40 MLOAD PUSH3 0x461BCD PUSH1 0xE5 SHL DUP2 MSTORE PUSH1 0x20 PUSH1 0x4 DUP3 ADD MSTORE PUSH1 0x2B PUSH1 0x24 DUP3 ADD MSTORE PUSH32 0x496E697469616C697A61626C653A20636F6E7472616374206973206E6F742069 PUSH1 0x44 DUP3 ADD MSTORE PUSH11 0x6E697469616C697A696E67 PUSH1 0xA8 SHL PUSH1 0x64 DUP3 ADD MSTORE PUSH1 0x84 ADD PUSH2 0xAF1 JUMP JUMPDEST PUSH1 0x97 PUSH2 0x3FA6 DUP4 DUP3 PUSH2 0x4BD0 JUMP JUMPDEST POP PUSH1 0x98 PUSH2 0xB92 DUP3 DUP3 PUSH2 0x4BD0 JUMP JUMPDEST PUSH1 0x0 SLOAD PUSH2 0x100 SWAP1 DIV PUSH1 0xFF AND PUSH2 0x401E JUMPI PUSH1 0x40 MLOAD PUSH3 0x461BCD PUSH1 0xE5 SHL DUP2 MSTORE PUSH1 0x20 PUSH1 0x4 DUP3 ADD MSTORE PUSH1 0x2B PUSH1 0x24 DUP3 ADD MSTORE PUSH32 0x496E697469616C697A61626C653A20636F6E7472616374206973206E6F742069 PUSH1 0x44 DUP3 ADD MSTORE PUSH11 0x6E697469616C697A696E67 PUSH1 0xA8 SHL PUSH1 0x64 DUP3 ADD MSTORE PUSH1 0x84 ADD PUSH2 0xAF1 JUMP JUMPDEST PUSH2 0x18AF CALLER PUSH2 0x3757 JUMP JUMPDEST PUSH1 0x0 PUSH2 0x407C DUP3 PUSH1 0x40 MLOAD DUP1 PUSH1 0x40 ADD PUSH1 0x40 MSTORE DUP1 PUSH1 0x20 DUP2 MSTORE PUSH1 0x20 ADD PUSH32 0x5361666545524332303A206C6F772D6C6576656C2063616C6C206661696C6564 DUP2 MSTORE POP DUP6 PUSH1 0x1 PUSH1 0x1 PUSH1 0xA0 SHL SUB AND PUSH2 0x43F1 SWAP1 SWAP3 SWAP2 SWAP1 PUSH4 0xFFFFFFFF AND JUMP JUMPDEST SWAP1 POP DUP1 MLOAD PUSH1 0x0 EQ DUP1 PUSH2 0x409D JUMPI POP DUP1 DUP1 PUSH1 0x20 ADD SWAP1 MLOAD DUP2 ADD SWAP1 PUSH2 0x409D SWAP2 SWAP1 PUSH2 0x4C90 JUMP JUMPDEST PUSH2 0xB92 JUMPI PUSH1 0x40 MLOAD PUSH3 0x461BCD PUSH1 0xE5 SHL DUP2 MSTORE PUSH1 0x20 PUSH1 0x4 DUP3 ADD MSTORE PUSH1 0x2A PUSH1 0x24 DUP3 ADD MSTORE PUSH32 0x5361666545524332303A204552433230206F7065726174696F6E20646964206E PUSH1 0x44 DUP3 ADD MSTORE PUSH32 0x6F74207375636365656400000000000000000000000000000000000000000000 PUSH1 0x64 DUP3 ADD MSTORE PUSH1 0x84 ADD PUSH2 0xAF1 JUMP JUMPDEST PUSH1 0xC9 DUP1 SLOAD PUSH1 0x1 PUSH1 0x1 PUSH1 0xA0 SHL SUB DUP4 DUP2 AND PUSH20 0xFFFFFFFFFFFFFFFFFFFFFFFFFFFFFFFFFFFFFFFF NOT DUP4 AND DUP2 OR SWAP1 SWAP4 SSTORE PUSH1 0x40 MLOAD SWAP2 AND SWAP2 SWAP1 DUP3 SWAP1 PUSH32 0x8BE0079C531659141344CD1FD0A4F28419497F9722A3DAAFE3B4186F6B6457E0 SWAP1 PUSH1 0x0 SWAP1 LOG3 POP POP JUMP JUMPDEST PUSH1 0x0 PUSH1 0x1 PUSH1 0x1 PUSH1 0xA0 SHL SUB DUP5 AND EXTCODESIZE ISZERO PUSH2 0x4304 JUMPI PUSH1 0x40 MLOAD PUSH32 0x150B7A0200000000000000000000000000000000000000000000000000000000 DUP2 MSTORE PUSH1 0x1 PUSH1 0x1 PUSH1 0xA0 SHL SUB DUP6 AND SWAP1 PUSH4 0x150B7A02 SWAP1 PUSH2 0x41CB SWAP1 CALLER SWAP1 DUP10 SWAP1 DUP9 SWAP1 DUP9 SWAP1 PUSH1 0x4 ADD PUSH2 0x4CAD JUMP JUMPDEST PUSH1 0x20 PUSH1 0x40 MLOAD DUP1 DUP4 SUB DUP2 PUSH1 0x0 DUP8 GAS CALL SWAP3 POP POP POP DUP1 ISZERO PUSH2 0x4206 JUMPI POP PUSH1 0x40 DUP1 MLOAD PUSH1 0x1F RETURNDATASIZE SWAP1 DUP2 ADD PUSH1 0x1F NOT AND DUP3 ADD SWAP1 SWAP3 MSTORE PUSH2 0x4203 SWAP2 DUP2 ADD SWAP1 PUSH2 0x4CE9 JUMP JUMPDEST PUSH1 0x1 JUMPDEST PUSH2 0x42B9 JUMPI RETURNDATASIZE DUP1 DUP1 ISZERO PUSH2 0x4234 JUMPI PUSH1 0x40 MLOAD SWAP2 POP PUSH1 0x1F NOT PUSH1 0x3F RETURNDATASIZE ADD AND DUP3 ADD PUSH1 0x40 MSTORE RETURNDATASIZE DUP3 MSTORE RETURNDATASIZE PUSH1 0x0 PUSH1 0x20 DUP5 ADD RETURNDATACOPY PUSH2 0x4239 JUMP JUMPDEST PUSH1 0x60 SWAP2 POP JUMPDEST POP DUP1 MLOAD PUSH1 0x0 SUB PUSH2 0x42B1 JUMPI PUSH1 0x40 MLOAD PUSH3 0x461BCD PUSH1 0xE5 SHL DUP2 MSTORE PUSH1 0x20 PUSH1 0x4 DUP3 ADD MSTORE PUSH1 0x32 PUSH1 0x24 DUP3 ADD MSTORE PUSH32 0x4552433732313A207472616E7366657220746F206E6F6E204552433732315265 PUSH1 0x44 DUP3 ADD MSTORE PUSH32 0x63656976657220696D706C656D656E7465720000000000000000000000000000 PUSH1 0x64 DUP3 ADD MSTORE PUSH1 0x84 ADD PUSH2 0xAF1 JUMP JUMPDEST DUP1 MLOAD DUP2 PUSH1 0x20 ADD REVERT JUMPDEST PUSH32 0xFFFFFFFF00000000000000000000000000000000000000000000000000000000 AND PUSH32 0x150B7A0200000000000000000000000000000000000000000000000000000000 EQ SWAP1 POP PUSH2 0x21A3 JUMP JUMPDEST POP PUSH1 0x1 SWAP5 SWAP4 POP POP POP POP JUMP JUMPDEST PUSH1 0x0 DUP1 PUSH27 0x184F03E93FF9F4DAA797ED6E38ED64BF6A1F010000000000000000 DUP4 LT PUSH2 0x4358 JUMPI PUSH27 0x184F03E93FF9F4DAA797ED6E38ED64BF6A1F010000000000000000 DUP4 DIV SWAP3 POP PUSH1 0x40 ADD JUMPDEST PUSH14 0x4EE2D6D415B85ACEF8100000000 DUP4 LT PUSH2 0x4384 JUMPI PUSH14 0x4EE2D6D415B85ACEF8100000000 DUP4 DIV SWAP3 POP PUSH1 0x20 ADD JUMPDEST PUSH7 0x2386F26FC10000 DUP4 LT PUSH2 0x43A2 JUMPI PUSH7 0x2386F26FC10000 DUP4 DIV SWAP3 POP PUSH1 0x10 ADD JUMPDEST PUSH4 0x5F5E100 DUP4 LT PUSH2 0x43BA JUMPI PUSH4 0x5F5E100 DUP4 DIV SWAP3 POP PUSH1 0x8 ADD JUMPDEST PUSH2 0x2710 DUP4 LT PUSH2 0x43CE JUMPI PUSH2 0x2710 DUP4 DIV SWAP3 POP PUSH1 0x4 ADD JUMPDEST PUSH1 0x64 DUP4 LT PUSH2 0x43E0 JUMPI PUSH1 0x64 DUP4 DIV SWAP3 POP PUSH1 0x2 ADD JUMPDEST PUSH1 0xA DUP4 LT PUSH2 0x9A2 JUMPI PUSH1 0x1 ADD SWAP3 SWAP2 POP POP JUMP JUMPDEST PUSH1 0x60 PUSH2 0x21A3 DUP5 DUP5 PUSH1 0x0 DUP6 DUP6 PUSH1 0x0 DUP1 DUP7 PUSH1 0x1 PUSH1 0x1 PUSH1 0xA0 SHL SUB AND DUP6 DUP8 PUSH1 0x40 MLOAD PUSH2 0x4418 SWAP2 SWAP1 PUSH2 0x4D06 JUMP JUMPDEST PUSH1 0x0 PUSH1 0x40 MLOAD DUP1 DUP4 SUB DUP2 DUP6 DUP8 GAS CALL SWAP3 POP POP POP RETURNDATASIZE DUP1 PUSH1 0x0 DUP2 EQ PUSH2 0x4455 JUMPI PUSH1 0x40 MLOAD SWAP2 POP PUSH1 0x1F NOT PUSH1 0x3F RETURNDATASIZE ADD AND DUP3 ADD PUSH1 0x40 MSTORE RETURNDATASIZE DUP3 MSTORE RETURNDATASIZE PUSH1 0x0 PUSH1 0x20 DUP5 ADD RETURNDATACOPY PUSH2 0x445A JUMP JUMPDEST PUSH1 0x60 SWAP2 POP JUMPDEST POP SWAP2 POP SWAP2 POP PUSH2 0x446B DUP8 DUP4 DUP4 DUP8 PUSH2 0x4476 JUMP JUMPDEST SWAP8 SWAP7 POP POP POP POP POP POP POP JUMP JUMPDEST PUSH1 0x60 DUP4 ISZERO PUSH2 0x44E5 JUMPI DUP3 MLOAD PUSH1 0x0 SUB PUSH2 0x44DE JUMPI PUSH1 0x1 PUSH1 0x1 PUSH1 0xA0 SHL SUB DUP6 AND EXTCODESIZE PUSH2 0x44DE JUMPI PUSH1 0x40 MLOAD PUSH3 0x461BCD PUSH1 0xE5 SHL DUP2 MSTORE PUSH1 0x20 PUSH1 0x4 DUP3 ADD MSTORE PUSH1 0x1D PUSH1 0x24 DUP3 ADD MSTORE PUSH32 0x416464726573733A2063616C6C20746F206E6F6E2D636F6E7472616374000000 PUSH1 0x44 DUP3 ADD MSTORE PUSH1 0x64 ADD PUSH2 0xAF1 JUMP JUMPDEST POP DUP2 PUSH2 0x21A3 JUMP JUMPDEST PUSH2 0x21A3 DUP4 DUP4 DUP2 MLOAD ISZERO PUSH2 0x44FA JUMPI DUP2 MLOAD DUP1 DUP4 PUSH1 0x20 ADD REVERT JUMPDEST DUP1 PUSH1 0x40 MLOAD PUSH3 0x461BCD PUSH1 0xE5 SHL DUP2 MSTORE PUSH1 0x4 ADD PUSH2 0xAF1 SWAP2 SWAP1 PUSH2 0x45AF JUMP JUMPDEST PUSH32 0xFFFFFFFF00000000000000000000000000000000000000000000000000000000 DUP2 AND DUP2 EQ PUSH2 0x14A5 JUMPI PUSH1 0x0 DUP1 REVERT JUMPDEST PUSH1 0x0 PUSH1 0x20 DUP3 DUP5 SUB SLT ISZERO PUSH2 0x4554 JUMPI PUSH1 0x0 DUP1 REVERT JUMPDEST DUP2 CALLDATALOAD PUSH2 0x1209 DUP2 PUSH2 0x4514 JUMP JUMPDEST PUSH1 0x0 JUMPDEST DUP4 DUP2 LT ISZERO PUSH2 0x457A JUMPI DUP2 DUP2 ADD MLOAD DUP4 DUP3 ADD MSTORE PUSH1 0x20 ADD PUSH2 0x4562 JUMP JUMPDEST POP POP PUSH1 0x0 SWAP2 ADD MSTORE JUMP JUMPDEST PUSH1 0x0 DUP2 MLOAD DUP1 DUP5 MSTORE PUSH2 0x459B DUP2 PUSH1 0x20 DUP7 ADD PUSH1 0x20 DUP7 ADD PUSH2 0x455F JUMP JUMPDEST PUSH1 0x1F ADD PUSH1 0x1F NOT AND SWAP3 SWAP1 SWAP3 ADD PUSH1 0x20 ADD SWAP3 SWAP2 POP POP JUMP JUMPDEST PUSH1 0x20 DUP2 MSTORE PUSH1 0x0 PUSH2 0x1209 PUSH1 0x20 DUP4 ADD DUP5 PUSH2 0x4583 JUMP JUMPDEST PUSH1 0x0 PUSH1 0x20 DUP3 DUP5 SUB SLT ISZERO PUSH2 0x45D4 JUMPI PUSH1 0x0 DUP1 REVERT JUMPDEST POP CALLDATALOAD SWAP2 SWAP1 POP JUMP JUMPDEST DUP1 CALLDATALOAD PUSH1 0x1 PUSH1 0x1 PUSH1 0xA0 SHL SUB DUP2 AND DUP2 EQ PUSH2 0xD7B JUMPI PUSH1 0x0 DUP1 REVERT JUMPDEST PUSH1 0x0 DUP1 PUSH1 0x40 DUP4 DUP6 SUB SLT ISZERO PUSH2 0x4605 JUMPI PUSH1 0x0 DUP1 REVERT JUMPDEST PUSH2 0x460E DUP4 PUSH2 0x45DB JUMP JUMPDEST SWAP5 PUSH1 0x20 SWAP4 SWAP1 SWAP4 ADD CALLDATALOAD SWAP4 POP POP POP JUMP JUMPDEST PUSH1 0x0 DUP1 PUSH1 0x0 PUSH1 0x60 DUP5 DUP7 SUB SLT ISZERO PUSH2 0x4631 JUMPI PUSH1 0x0 DUP1 REVERT JUMPDEST PUSH2 0x463A DUP5 PUSH2 0x45DB JUMP JUMPDEST SWAP3 POP PUSH2 0x4648 PUSH1 0x20 DUP6 ADD PUSH2 0x45DB JUMP JUMPDEST SWAP2 POP PUSH1 0x40 DUP5 ADD CALLDATALOAD SWAP1 POP SWAP3 POP SWAP3 POP SWAP3 JUMP JUMPDEST PUSH1 0x0 DUP1 DUP4 PUSH1 0x1F DUP5 ADD SLT PUSH2 0x466A JUMPI PUSH1 0x0 DUP1 REVERT JUMPDEST POP DUP2 CALLDATALOAD PUSH8 0xFFFFFFFFFFFFFFFF DUP2 GT ISZERO PUSH2 0x4682 JUMPI PUSH1 0x0 DUP1 REVERT JUMPDEST PUSH1 0x20 DUP4 ADD SWAP2 POP DUP4 PUSH1 0x20 DUP3 PUSH1 0x5 SHL DUP6 ADD ADD GT ISZERO PUSH2 0x469D JUMPI PUSH1 0x0 DUP1 REVERT JUMPDEST SWAP3 POP SWAP3 SWAP1 POP JUMP JUMPDEST PUSH1 0x0 DUP1 PUSH1 0x20 DUP4 DUP6 SUB SLT ISZERO PUSH2 0x46B7 JUMPI PUSH1 0x0 DUP1 REVERT JUMPDEST DUP3 CALLDATALOAD PUSH8 0xFFFFFFFFFFFFFFFF DUP2 GT ISZERO PUSH2 0x46CE JUMPI PUSH1 0x0 DUP1 REVERT JUMPDEST PUSH2 0x46DA DUP6 DUP3 DUP7 ADD PUSH2 0x4658 JUMP JUMPDEST SWAP1 SWAP7 SWAP1 SWAP6 POP SWAP4 POP POP POP POP JUMP JUMPDEST PUSH1 0x0 PUSH1 0x20 DUP3 DUP5 SUB SLT ISZERO PUSH2 0x46F8 JUMPI PUSH1 0x0 DUP1 REVERT JUMPDEST PUSH2 0x1209 DUP3 PUSH2 0x45DB JUMP JUMPDEST PUSH1 0x0 DUP1 PUSH1 0x40 DUP4 DUP6 SUB SLT ISZERO PUSH2 0x4714 JUMPI PUSH1 0x0 DUP1 REVERT JUMPDEST PUSH2 0x471D DUP4 PUSH2 0x45DB JUMP JUMPDEST SWAP2 POP PUSH2 0x472B PUSH1 0x20 DUP5 ADD PUSH2 0x45DB JUMP JUMPDEST SWAP1 POP SWAP3 POP SWAP3 SWAP1 POP JUMP JUMPDEST PUSH1 0x0 DUP2 MLOAD DUP1 DUP5 MSTORE PUSH1 0x20 DUP1 DUP6 ADD SWAP5 POP DUP1 DUP5 ADD PUSH1 0x0 JUMPDEST DUP4 DUP2 LT ISZERO PUSH2 0x4764 JUMPI DUP2 MLOAD DUP8 MSTORE SWAP6 DUP3 ADD SWAP6 SWAP1 DUP3 ADD SWAP1 PUSH1 0x1 ADD PUSH2 0x4748 JUMP JUMPDEST POP SWAP5 SWAP6 SWAP5 POP POP POP POP POP JUMP JUMPDEST DUP3 DUP2 MSTORE PUSH1 0x40 PUSH1 0x20 DUP3 ADD MSTORE PUSH1 0x0 PUSH2 0x21A3 PUSH1 0x40 DUP4 ADD DUP5 PUSH2 0x4734 JUMP JUMPDEST DUP1 MLOAD DUP3 MSTORE PUSH1 0x20 DUP2 ADD MLOAD PUSH2 0x47A6 PUSH1 0x20 DUP5 ADD DUP3 PUSH1 0x1 PUSH1 0x1 PUSH1 0xA0 SHL SUB AND SWAP1 MSTORE JUMP JUMPDEST POP PUSH1 0x40 DUP2 ADD MLOAD PUSH1 0x40 DUP4 ADD MSTORE PUSH1 0x60 DUP2 ADD MLOAD PUSH1 0x60 DUP4 ADD MSTORE PUSH1 0x80 DUP2 ADD MLOAD PUSH1 0x80 DUP4 ADD MSTORE PUSH1 0xA0 DUP2 ADD MLOAD PUSH1 0xA0 DUP4 ADD MSTORE PUSH1 0xC0 DUP2 ADD MLOAD PUSH1 0xC0 DUP4 ADD MSTORE PUSH1 0xE0 DUP2 ADD MLOAD PUSH1 0xE0 DUP4 ADD MSTORE PUSH2 0x100 DUP1 DUP3 ADD MLOAD DUP2 DUP5 ADD MSTORE POP PUSH2 0x120 DUP1 DUP3 ADD MLOAD DUP2 DUP5 ADD MSTORE POP PUSH2 0x140 DUP1 DUP3 ADD MLOAD DUP2 DUP5 ADD MSTORE POP POP POP JUMP JUMPDEST PUSH2 0x160 DUP2 ADD PUSH2 0x9A2 DUP3 DUP5 PUSH2 0x4788 JUMP JUMPDEST PUSH1 0x0 DUP1 PUSH1 0x0 PUSH1 0x40 DUP5 DUP7 SUB SLT ISZERO PUSH2 0x482F JUMPI PUSH1 0x0 DUP1 REVERT JUMPDEST DUP4 CALLDATALOAD SWAP3 POP PUSH1 0x20 DUP5 ADD CALLDATALOAD PUSH8 0xFFFFFFFFFFFFFFFF DUP2 GT ISZERO PUSH2 0x484D JUMPI PUSH1 0x0 DUP1 REVERT JUMPDEST PUSH2 0x4859 DUP7 DUP3 DUP8 ADD PUSH2 0x4658 JUMP JUMPDEST SWAP5 SWAP8 SWAP1 SWAP7 POP SWAP4 SWAP5 POP POP POP POP JUMP JUMPDEST PUSH1 0x20 DUP2 MSTORE PUSH1 0x0 PUSH2 0x1209 PUSH1 0x20 DUP4 ADD DUP5 PUSH2 0x4734 JUMP JUMPDEST PUSH1 0x0 DUP1 PUSH1 0x40 DUP4 DUP6 SUB SLT ISZERO PUSH2 0x488C JUMPI PUSH1 0x0 DUP1 REVERT JUMPDEST POP POP DUP1 CALLDATALOAD SWAP3 PUSH1 0x20 SWAP1 SWAP2 ADD CALLDATALOAD SWAP2 POP JUMP JUMPDEST PUSH1 0x20 DUP1 DUP3 MSTORE DUP3 MLOAD DUP3 DUP3 ADD DUP2 SWAP1 MSTORE PUSH1 0x0 SWAP2 SWAP1 DUP5 DUP3 ADD SWAP1 PUSH1 0x40 DUP6 ADD SWAP1 DUP5 JUMPDEST DUP2 DUP2 LT ISZERO PUSH2 0x48DE JUMPI PUSH2 0x48CA DUP4 DUP6 MLOAD PUSH2 0x4788 JUMP JUMPDEST SWAP3 DUP5 ADD SWAP3 PUSH2 0x160 SWAP3 SWAP1 SWAP3 ADD SWAP2 PUSH1 0x1 ADD PUSH2 0x48B7 JUMP JUMPDEST POP SWAP1 SWAP7 SWAP6 POP POP POP POP POP POP JUMP JUMPDEST DUP1 ISZERO ISZERO DUP2 EQ PUSH2 0x14A5 JUMPI PUSH1 0x0 DUP1 REVERT JUMPDEST PUSH1 0x0 DUP1 PUSH1 0x40 DUP4 DUP6 SUB SLT ISZERO PUSH2 0x490B JUMPI PUSH1 0x0 DUP1 REVERT JUMPDEST PUSH2 0x4914 DUP4 PUSH2 0x45DB JUMP JUMPDEST SWAP2 POP PUSH1 0x20 DUP4 ADD CALLDATALOAD PUSH2 0x4924 DUP2 PUSH2 0x48EA JUMP JUMPDEST DUP1 SWAP2 POP POP SWAP3 POP SWAP3 SWAP1 POP JUMP JUMPDEST PUSH4 0x4E487B71 PUSH1 0xE0 SHL PUSH1 0x0 MSTORE PUSH1 0x41 PUSH1 0x4 MSTORE PUSH1 0x24 PUSH1 0x0 REVERT JUMPDEST PUSH1 0x0 DUP1 PUSH1 0x0 DUP1 PUSH1 0x80 DUP6 DUP8 SUB SLT ISZERO PUSH2 0x495B JUMPI PUSH1 0x0 DUP1 REVERT JUMPDEST PUSH2 0x4964 DUP6 PUSH2 0x45DB JUMP JUMPDEST SWAP4 POP PUSH2 0x4972 PUSH1 0x20 DUP7 ADD PUSH2 0x45DB JUMP JUMPDEST SWAP3 POP PUSH1 0x40 DUP6 ADD CALLDATALOAD SWAP2 POP PUSH1 0x60 DUP6 ADD CALLDATALOAD PUSH8 0xFFFFFFFFFFFFFFFF DUP1 DUP3 GT ISZERO PUSH2 0x4996 JUMPI PUSH1 0x0 DUP1 REVERT JUMPDEST DUP2 DUP8 ADD SWAP2 POP DUP8 PUSH1 0x1F DUP4 ADD SLT PUSH2 0x49AA JUMPI PUSH1 0x0 DUP1 REVERT JUMPDEST DUP2 CALLDATALOAD DUP2 DUP2 GT ISZERO PUSH2 0x49BC JUMPI PUSH2 0x49BC PUSH2 0x492F JUMP JUMPDEST PUSH1 0x40 MLOAD PUSH1 0x1F DUP3 ADD PUSH1 0x1F NOT SWAP1 DUP2 AND PUSH1 0x3F ADD AND DUP2 ADD SWAP1 DUP4 DUP3 GT DUP2 DUP4 LT OR ISZERO PUSH2 0x49E4 JUMPI PUSH2 0x49E4 PUSH2 0x492F JUMP JUMPDEST DUP2 PUSH1 0x40 MSTORE DUP3 DUP2 MSTORE DUP11 PUSH1 0x20 DUP5 DUP8 ADD ADD GT ISZERO PUSH2 0x49FD JUMPI PUSH1 0x0 DUP1 REVERT JUMPDEST DUP3 PUSH1 0x20 DUP7 ADD PUSH1 0x20 DUP4 ADD CALLDATACOPY PUSH1 0x0 PUSH1 0x20 DUP5 DUP4 ADD ADD MSTORE DUP1 SWAP6 POP POP POP POP POP POP SWAP3 SWAP6 SWAP2 SWAP5 POP SWAP3 POP JUMP JUMPDEST PUSH1 0x1 DUP2 DUP2 SHR SWAP1 DUP3 AND DUP1 PUSH2 0x4A35 JUMPI PUSH1 0x7F DUP3 AND SWAP2 POP JUMPDEST PUSH1 0x20 DUP3 LT DUP2 SUB PUSH2 0x4A55 JUMPI PUSH4 0x4E487B71 PUSH1 0xE0 SHL PUSH1 0x0 MSTORE PUSH1 0x22 PUSH1 0x4 MSTORE PUSH1 0x24 PUSH1 0x0 REVERT JUMPDEST POP SWAP2 SWAP1 POP JUMP JUMPDEST PUSH4 0x4E487B71 PUSH1 0xE0 SHL PUSH1 0x0 MSTORE PUSH1 0x11 PUSH1 0x4 MSTORE PUSH1 0x24 PUSH1 0x0 REVERT JUMPDEST DUP2 DUP2 SUB DUP2 DUP2 GT ISZERO PUSH2 0x9A2 JUMPI PUSH2 0x9A2 PUSH2 0x4A5B JUMP JUMPDEST DUP1 DUP3 MUL DUP2 ISZERO DUP3 DUP3 DIV DUP5 EQ OR PUSH2 0x9A2 JUMPI PUSH2 0x9A2 PUSH2 0x4A5B JUMP JUMPDEST PUSH1 0x0 DUP3 PUSH2 0x4AB8 JUMPI PUSH4 0x4E487B71 PUSH1 0xE0 SHL PUSH1 0x0 MSTORE PUSH1 0x12 PUSH1 0x4 MSTORE PUSH1 0x24 PUSH1 0x0 REVERT JUMPDEST POP DIV SWAP1 JUMP JUMPDEST DUP1 DUP3 ADD DUP1 DUP3 GT ISZERO PUSH2 0x9A2 JUMPI PUSH2 0x9A2 PUSH2 0x4A5B JUMP JUMPDEST PUSH4 0x4E487B71 PUSH1 0xE0 SHL PUSH1 0x0 MSTORE PUSH1 0x32 PUSH1 0x4 MSTORE PUSH1 0x24 PUSH1 0x0 REVERT JUMPDEST PUSH1 0x0 PUSH1 0x0 NOT DUP3 SUB PUSH2 0x4AF9 JUMPI PUSH2 0x4AF9 PUSH2 0x4A5B JUMP JUMPDEST POP PUSH1 0x1 ADD SWAP1 JUMP JUMPDEST PUSH1 0x0 PUSH1 0x20 DUP3 DUP5 SUB SLT ISZERO PUSH2 0x4B12 JUMPI PUSH1 0x0 DUP1 REVERT JUMPDEST POP MLOAD SWAP2 SWAP1 POP JUMP JUMPDEST PUSH1 0x0 PUSH32 0x7FFFFFFFFFFFFFFFFFFFFFFFFFFFFFFFFFFFFFFFFFFFFFFFFFFFFFFFFFFFFFF DUP4 GT ISZERO PUSH2 0x4B48 JUMPI PUSH1 0x0 DUP1 REVERT JUMPDEST DUP3 PUSH1 0x5 SHL DUP1 DUP6 DUP5 CALLDATACOPY SWAP2 SWAP1 SWAP2 ADD SWAP4 SWAP3 POP POP POP JUMP JUMPDEST PUSH1 0x0 DUP4 MLOAD PUSH2 0x4B6D DUP2 DUP5 PUSH1 0x20 DUP9 ADD PUSH2 0x455F JUMP JUMPDEST DUP4 MLOAD SWAP1 DUP4 ADD SWAP1 PUSH2 0x4B81 DUP2 DUP4 PUSH1 0x20 DUP9 ADD PUSH2 0x455F JUMP JUMPDEST ADD SWAP5 SWAP4 POP POP POP POP JUMP JUMPDEST PUSH1 0x1F DUP3 GT ISZERO PUSH2 0xB92 JUMPI PUSH1 0x0 DUP2 DUP2 MSTORE PUSH1 0x20 DUP2 KECCAK256 PUSH1 0x1F DUP6 ADD PUSH1 0x5 SHR DUP2 ADD PUSH1 0x20 DUP7 LT ISZERO PUSH2 0x4BB1 JUMPI POP DUP1 JUMPDEST PUSH1 0x1F DUP6 ADD PUSH1 0x5 SHR DUP3 ADD SWAP2 POP JUMPDEST DUP2 DUP2 LT ISZERO PUSH2 0x1805 JUMPI DUP3 DUP2 SSTORE PUSH1 0x1 ADD PUSH2 0x4BBD JUMP JUMPDEST DUP2 MLOAD PUSH8 0xFFFFFFFFFFFFFFFF DUP2 GT ISZERO PUSH2 0x4BEA JUMPI PUSH2 0x4BEA PUSH2 0x492F JUMP JUMPDEST PUSH2 0x4BFE DUP2 PUSH2 0x4BF8 DUP5 SLOAD PUSH2 0x4A21 JUMP JUMPDEST DUP5 PUSH2 0x4B8A JUMP JUMPDEST PUSH1 0x20 DUP1 PUSH1 0x1F DUP4 GT PUSH1 0x1 DUP2 EQ PUSH2 0x4C33 JUMPI PUSH1 0x0 DUP5 ISZERO PUSH2 0x4C1B JUMPI POP DUP6 DUP4 ADD MLOAD JUMPDEST PUSH1 0x0 NOT PUSH1 0x3 DUP7 SWAP1 SHL SHR NOT AND PUSH1 0x1 DUP6 SWAP1 SHL OR DUP6 SSTORE PUSH2 0x1805 JUMP JUMPDEST PUSH1 0x0 DUP6 DUP2 MSTORE PUSH1 0x20 DUP2 KECCAK256 PUSH1 0x1F NOT DUP7 AND SWAP2 JUMPDEST DUP3 DUP2 LT ISZERO PUSH2 0x4C62 JUMPI DUP9 DUP7 ADD MLOAD DUP3 SSTORE SWAP5 DUP5 ADD SWAP5 PUSH1 0x1 SWAP1 SWAP2 ADD SWAP1 DUP5 ADD PUSH2 0x4C43 JUMP JUMPDEST POP DUP6 DUP3 LT ISZERO PUSH2 0x4C80 JUMPI DUP8 DUP6 ADD MLOAD PUSH1 0x0 NOT PUSH1 0x3 DUP9 SWAP1 SHL PUSH1 0xF8 AND SHR NOT AND DUP2 SSTORE JUMPDEST POP POP POP POP POP PUSH1 0x1 SWAP1 DUP2 SHL ADD SWAP1 SSTORE POP JUMP JUMPDEST PUSH1 0x0 PUSH1 0x20 DUP3 DUP5 SUB SLT ISZERO PUSH2 0x4CA2 JUMPI PUSH1 0x0 DUP1 REVERT JUMPDEST DUP2 MLOAD PUSH2 0x1209 DUP2 PUSH2 0x48EA JUMP JUMPDEST PUSH1 0x0 PUSH1 0x1 PUSH1 0x1 PUSH1 0xA0 SHL SUB DUP1 DUP8 AND DUP4 MSTORE DUP1 DUP7 AND PUSH1 0x20 DUP5 ADD MSTORE POP DUP4 PUSH1 0x40 DUP4 ADD MSTORE PUSH1 0x80 PUSH1 0x60 DUP4 ADD MSTORE PUSH2 0x4CDF PUSH1 0x80 DUP4 ADD DUP5 PUSH2 0x4583 JUMP JUMPDEST SWAP7 SWAP6 POP POP POP POP POP POP JUMP JUMPDEST PUSH1 0x0 PUSH1 0x20 DUP3 DUP5 SUB SLT ISZERO PUSH2 0x4CFB JUMPI PUSH1 0x0 DUP1 REVERT JUMPDEST DUP2 MLOAD PUSH2 0x1209 DUP2 PUSH2 0x4514 JUMP JUMPDEST PUSH1 0x0 DUP3 MLOAD PUSH2 0x4D18 DUP2 DUP5 PUSH1 0x20 DUP8 ADD PUSH2 0x455F JUMP JUMPDEST SWAP2 SWAP1 SWAP2 ADD SWAP3 SWAP2 POP POP JUMP INVALID LOG2 PUSH5 0x6970667358 0x22 SLT KECCAK256 CALLDATACOPY DUP15 DUP13 0xC SWAP5 PUSH12 0xE467113FF4E018D4CABA1C58 0xB0 NUMBER 0xD3 BASEFEE EXP PUSH4 0xC4A86251 0x4D SHR 0xE1 PUSH3 0x64736F PUSH13 0x63430008120033000000000000 "},"methodIdentifiers":{"DURATION()":"1be05289","INTX()":"df2e0b97","P()":"8b8fbd92","acceptOwnership()":"79ba5097","add(uint256,uint256)":"771602f7","amountStakedOf(uint256)":"a00ea0c5","approve(address,uint256)":"095ea7b3","balanceOf(address)":"70a08231","balanceOfId(uint256)":"a1c95e5a","boostPercentageOf(uint256)":"645bfd9a","claim(uint256[])":"6ba4c138","currentExchangeRate()":"a3684977","earned(uint256)":"4d6ed8c4","earned(uint256[])":"4d62f590","getApproved(uint256)":"081812fc","getPositionInfo(uint256)":"519f5099","getPositionsInfo(uint256[])":"8fca5a59","initialize(address,address)":"485cc955","isApprovedForAll(address,address)":"e985e9c5","isRestrictedToken(uint256)":"a345280a","lastTimeRewardApplicable()":"80faa57d","lastTokenId()":"f84ddf0b","lastUpdateTime()":"c8f33c91","loyalSince(uint256)":"cfd0e125","loyaltyDuration()":"d1a249ab","maxLoyaltyBoost()":"2212b806","maxPenalty()":"5200e79e","merge(uint256,uint256)":"d1c2babb","minPenalty()":"0eba9849","name()":"06fdde03","notifyReward(uint256)":"60993b5b","owner()":"8da5cb5b","ownerOf(uint256)":"6352211e","penaltyAmountOf(uint256)":"5a48a97f","penaltyPercentageOf(uint256)":"988dc31e","pendingOwner()":"e30c3978","pendingRewards(address)":"31d7a262","periodFinish()":"ebe2b12b","renounceOwnership()":"715018a6","restrictedToken(uint256)":"08d9788d","rewardPerWeight()":"2ac3f450","rewardPerWeightStored()":"3228dd59","rewardRate()":"7b0a47ee","rewardToken()":"f7c618c1","safeTransferFrom(address,address,uint256)":"42842e0e","safeTransferFrom(address,address,uint256,bytes)":"b88d4fde","setApprovalForAll(address,bool)":"a22cb465","setTeamVestingContract(address)":"c205f341","split(uint256,uint256[])":"69c67247","stake(uint256)":"a694fc3a","stakeFor(address,uint256)":"2ee40908","supportsInterface(bytes4)":"01ffc9a7","symbol()":"95d89b41","teamVestingContract()":"ef7297de","tokenURI(uint256)":"c87b56dd","totalWeight()":"96c82e57","totalXINTX()":"520bf08a","transferFrom(address,address,uint256)":"23b872dd","transferOwnership(address)":"f2fde38b","unstake(uint256)":"2e17de78","unstakePartially(uint256,uint256)":"f290dfa7","updateWeights(uint256[])":"30f91619","withdrawableAmountOf(uint256)":"d975dfed"}},"storageLayout":{"storage":[{"astId":246,"contract":"contracts/StakedINTX.sol:StakedINTX","label":"_initialized","offset":0,"slot":"0","type":"t_uint8"},{"astId":249,"contract":"contracts/StakedINTX.sol:StakedINTX","label":"_initializing","offset":1,"slot":"0","type":"t_bool"},{"astId":423,"contract":"contracts/StakedINTX.sol:StakedINTX","label":"_status","offset":0,"slot":"1","type":"t_uint256"},{"astId":492,"contract":"contracts/StakedINTX.sol:StakedINTX","label":"__gap","offset":0,"slot":"2","type":"t_array(t_uint256)49_storage"},{"astId":1987,"contract":"contracts/StakedINTX.sol:StakedINTX","label":"__gap","offset":0,"slot":"51","type":"t_array(t_uint256)50_storage"},{"astId":2261,"contract":"contracts/StakedINTX.sol:StakedINTX","label":"__gap","offset":0,"slot":"101","type":"t_array(t_uint256)50_storage"},{"astId":523,"contract":"contracts/StakedINTX.sol:StakedINTX","label":"_name","offset":0,"slot":"151","type":"t_string_storage"},{"astId":525,"contract":"contracts/StakedINTX.sol:StakedINTX","label":"_symbol","offset":0,"slot":"152","type":"t_string_storage"},{"astId":529,"contract":"contracts/StakedINTX.sol:StakedINTX","label":"_owners","offset":0,"slot":"153","type":"t_mapping(t_uint256,t_address)"},{"astId":533,"contract":"contracts/StakedINTX.sol:StakedINTX","label":"_balances","offset":0,"slot":"154","type":"t_mapping(t_address,t_uint256)"},{"astId":537,"contract":"contracts/StakedINTX.sol:StakedINTX","label":"_tokenApprovals","offset":0,"slot":"155","type":"t_mapping(t_uint256,t_address)"},{"astId":543,"contract":"contracts/StakedINTX.sol:StakedINTX","label":"_operatorApprovals","offset":0,"slot":"156","type":"t_mapping(t_address,t_mapping(t_address,t_bool))"},{"astId":1445,"contract":"contracts/StakedINTX.sol:StakedINTX","label":"__gap","offset":0,"slot":"157","type":"t_array(t_uint256)44_storage"},{"astId":118,"contract":"contracts/StakedINTX.sol:StakedINTX","label":"_owner","offset":0,"slot":"201","type":"t_address"},{"astId":238,"contract":"contracts/StakedINTX.sol:StakedINTX","label":"__gap","offset":0,"slot":"202","type":"t_array(t_uint256)49_storage"},{"astId":11,"contract":"contracts/StakedINTX.sol:StakedINTX","label":"_pendingOwner","offset":0,"slot":"251","type":"t_address"},{"astId":105,"contract":"contracts/StakedINTX.sol:StakedINTX","label":"__gap","offset":0,"slot":"252","type":"t_array(t_uint256)49_storage"},{"astId":4128,"contract":"contracts/StakedINTX.sol:StakedINTX","label":"lastTokenId","offset":0,"slot":"301","type":"t_uint256"},{"astId":4130,"contract":"contracts/StakedINTX.sol:StakedINTX","label":"totalXINTX","offset":0,"slot":"302","type":"t_uint256"},{"astId":4132,"contract":"contracts/StakedINTX.sol:StakedINTX","label":"loyaltyDuration","offset":0,"slot":"303","type":"t_uint256"},{"astId":4134,"contract":"contracts/StakedINTX.sol:StakedINTX","label":"maxLoyaltyBoost","offset":0,"slot":"304","type":"t_uint256"},{"astId":4136,"contract":"contracts/StakedINTX.sol:StakedINTX","label":"maxPenalty","offset":0,"slot":"305","type":"t_uint256"},{"astId":4138,"contract":"contracts/StakedINTX.sol:StakedINTX","label":"minPenalty","offset":0,"slot":"306","type":"t_uint256"},{"astId":4140,"contract":"contracts/StakedINTX.sol:StakedINTX","label":"lastUpdateTime","offset":0,"slot":"307","type":"t_uint256"},{"astId":4142,"contract":"contracts/StakedINTX.sol:StakedINTX","label":"periodFinish","offset":0,"slot":"308","type":"t_uint256"},{"astId":4144,"contract":"contracts/StakedINTX.sol:StakedINTX","label":"rewardRate","offset":0,"slot":"309","type":"t_uint256"},{"astId":4146,"contract":"contracts/StakedINTX.sol:StakedINTX","label":"rewardPerWeightStored","offset":0,"slot":"310","type":"t_uint256"},{"astId":4148,"contract":"contracts/StakedINTX.sol:StakedINTX","label":"totalWeight","offset":0,"slot":"311","type":"t_uint256"},{"astId":4151,"contract":"contracts/StakedINTX.sol:StakedINTX","label":"INTX","offset":0,"slot":"312","type":"t_contract(IERC20)3323"},{"astId":4154,"contract":"contracts/StakedINTX.sol:StakedINTX","label":"rewardToken","offset":0,"slot":"313","type":"t_contract(IERC20)3323"},{"astId":4158,"contract":"contracts/StakedINTX.sol:StakedINTX","label":"loyalSince","offset":0,"slot":"314","type":"t_mapping(t_uint256,t_uint256)"},{"astId":4162,"contract":"contracts/StakedINTX.sol:StakedINTX","label":"balanceOfId","offset":0,"slot":"315","type":"t_mapping(t_uint256,t_uint256)"},{"astId":4166,"contract":"contracts/StakedINTX.sol:StakedINTX","label":"_lastWeightOfTokenId","offset":0,"slot":"316","type":"t_mapping(t_uint256,t_uint256)"},{"astId":4170,"contract":"contracts/StakedINTX.sol:StakedINTX","label":"_rewardPerWeightPaid","offset":0,"slot":"317","type":"t_mapping(t_uint256,t_uint256)"},{"astId":4174,"contract":"contracts/StakedINTX.sol:StakedINTX","label":"_rewards","offset":0,"slot":"318","type":"t_mapping(t_uint256,t_uint256)"},{"astId":4178,"contract":"contracts/StakedINTX.sol:StakedINTX","label":"pendingRewards","offset":0,"slot":"319","type":"t_mapping(t_address,t_uint256)"},{"astId":4182,"contract":"contracts/StakedINTX.sol:StakedINTX","label":"restrictedToken","offset":0,"slot":"320","type":"t_mapping(t_uint256,t_uint8)"},{"astId":4184,"contract":"contracts/StakedINTX.sol:StakedINTX","label":"teamVestingContract","offset":0,"slot":"321","type":"t_address"}],"types":{"t_address":{"encoding":"inplace","label":"address","numberOfBytes":"20"},"t_array(t_uint256)44_storage":{"base":"t_uint256","encoding":"inplace","label":"uint256[44]","numberOfBytes":"1408"},"t_array(t_uint256)49_storage":{"base":"t_uint256","encoding":"inplace","label":"uint256[49]","numberOfBytes":"1568"},"t_array(t_uint256)50_storage":{"base":"t_uint256","encoding":"inplace","label":"uint256[50]","numberOfBytes":"1600"},"t_bool":{"encoding":"inplace","label":"bool","numberOfBytes":"1"},"t_contract(IERC20)3323":{"encoding":"inplace","label":"contract IERC20","numberOfBytes":"20"},"t_mapping(t_address,t_bool)":{"encoding":"mapping","key":"t_address","label":"mapping(address => bool)","numberOfBytes":"32","value":"t_bool"},"t_mapping(t_address,t_mapping(t_address,t_bool))":{"encoding":"mapping","key":"t_address","label":"mapping(address => mapping(address => bool))","numberOfBytes":"32","value":"t_mapping(t_address,t_bool)"},"t_mapping(t_address,t_uint256)":{"encoding":"mapping","key":"t_address","label":"mapping(address => uint256)","numberOfBytes":"32","value":"t_uint256"},"t_mapping(t_uint256,t_address)":{"encoding":"mapping","key":"t_uint256","label":"mapping(uint256 => address)","numberOfBytes":"32","value":"t_address"},"t_mapping(t_uint256,t_uint256)":{"encoding":"mapping","key":"t_uint256","label":"mapping(uint256 => uint256)","numberOfBytes":"32","value":"t_uint256"},"t_mapping(t_uint256,t_uint8)":{"encoding":"mapping","key":"t_uint256","label":"mapping(uint256 => uint8)","numberOfBytes":"32","value":"t_uint8"},"t_string_storage":{"encoding":"bytes","label":"string","numberOfBytes":"32"},"t_uint256":{"encoding":"inplace","label":"uint256","numberOfBytes":"32"},"t_uint8":{"encoding":"inplace","label":"uint8","numberOfBytes":"1"}}}}}}