{"contracts/solver/OnChainSymmioVaultV2.sol":{"OnChainSymmioVaultV2":{"abi":[{"inputs":[],"stateMutability":"nonpayable","type":"constructor"},{"anonymous":false,"inputs":[{"indexed":true,"internalType":"address","name":"depositor","type":"address"},{"indexed":false,"internalType":"uint256","name":"amount","type":"uint256"}],"name":"Deposit","type":"event"},{"anonymous":false,"inputs":[{"indexed":false,"internalType":"uint256","name":"depositLimit","type":"uint256"}],"name":"DepositLimitUpdatedEvent","type":"event"},{"anonymous":false,"inputs":[{"indexed":true,"internalType":"address","name":"depositor","type":"address"},{"indexed":true,"internalType":"address","name":"solver","type":"address"},{"indexed":false,"internalType":"uint256","name":"amount","type":"uint256"}],"name":"DepositToSymmio","type":"event"},{"anonymous":false,"inputs":[],"name":"EIP712DomainChanged","type":"event"},{"anonymous":false,"inputs":[{"indexed":false,"internalType":"uint8","name":"version","type":"uint8"}],"name":"Initialized","type":"event"},{"anonymous":false,"inputs":[{"indexed":false,"internalType":"uint256","name":"minimumPaybackRatio","type":"uint256"}],"name":"MinimumPaybackRatioUpdatedEvent","type":"event"},{"anonymous":false,"inputs":[{"indexed":false,"internalType":"address","name":"account","type":"address"}],"name":"Paused","type":"event"},{"anonymous":false,"inputs":[{"indexed":true,"internalType":"bytes32","name":"role","type":"bytes32"},{"indexed":true,"internalType":"bytes32","name":"previousAdminRole","type":"bytes32"},{"indexed":true,"internalType":"bytes32","name":"newAdminRole","type":"bytes32"}],"name":"RoleAdminChanged","type":"event"},{"anonymous":false,"inputs":[{"indexed":true,"internalType":"bytes32","name":"role","type":"bytes32"},{"indexed":true,"internalType":"address","name":"account","type":"address"},{"indexed":true,"internalType":"address","name":"sender","type":"address"}],"name":"RoleGranted","type":"event"},{"anonymous":false,"inputs":[{"indexed":true,"internalType":"bytes32","name":"role","type":"bytes32"},{"indexed":true,"internalType":"address","name":"account","type":"address"},{"indexed":true,"internalType":"address","name":"sender","type":"address"}],"name":"RoleRevoked","type":"event"},{"anonymous":false,"inputs":[{"indexed":true,"internalType":"address","name":"signer","type":"address"}],"name":"SignerUpdatedEvent","type":"event"},{"anonymous":false,"inputs":[{"indexed":true,"internalType":"address","name":"solver","type":"address"}],"name":"SolverUpdatedEvent","type":"event"},{"anonymous":false,"inputs":[{"indexed":true,"internalType":"address","name":"newSymmioAddress","type":"address"}],"name":"SymmioAddressUpdatedEvent","type":"event"},{"anonymous":false,"inputs":[{"indexed":false,"internalType":"address","name":"account","type":"address"}],"name":"Unpaused","type":"event"},{"anonymous":false,"inputs":[{"indexed":true,"internalType":"uint256","name":"requestId","type":"uint256"},{"indexed":true,"internalType":"address","name":"receiver","type":"address"}],"name":"WithdrawClaimedEvent","type":"event"},{"anonymous":false,"inputs":[{"indexed":false,"internalType":"uint256","name":"providedAmount","type":"uint256"},{"indexed":false,"internalType":"uint256[]","name":"acceptedRequestIds","type":"uint256[]"},{"indexed":false,"internalType":"uint256[]","name":"_acceptedAmounts","type":"uint256[]"}],"name":"WithdrawRequestAcceptedEvent","type":"event"},{"anonymous":false,"inputs":[{"indexed":true,"internalType":"uint256","name":"requestId","type":"uint256"}],"name":"WithdrawRequestCanceled","type":"event"},{"anonymous":false,"inputs":[{"indexed":true,"internalType":"uint256","name":"requestId","type":"uint256"},{"indexed":true,"internalType":"address","name":"sender","type":"address"},{"indexed":true,"internalType":"address","name":"receiver","type":"address"},{"indexed":false,"internalType":"uint256","name":"amount","type":"uint256"},{"indexed":false,"internalType":"uint256","name":"nonce","type":"uint256"}],"name":"WithdrawRequestEvent","type":"event"},{"anonymous":false,"inputs":[{"indexed":true,"internalType":"uint256","name":"requestId","type":"uint256"}],"name":"WithdrawRequestRejected","type":"event"},{"anonymous":false,"inputs":[{"indexed":false,"internalType":"uint256","name":"withdrawalPeriod","type":"uint256"}],"name":"WithdrawalPeriodUpdate","type":"event"},{"inputs":[],"name":"BALANCER_ROLE","outputs":[{"internalType":"bytes32","name":"","type":"bytes32"}],"stateMutability":"view","type":"function"},{"inputs":[],"name":"DEFAULT_ADMIN_ROLE","outputs":[{"internalType":"bytes32","name":"","type":"bytes32"}],"stateMutability":"view","type":"function"},{"inputs":[],"name":"MIN_PAYBACK_RATIO","outputs":[{"internalType":"uint256","name":"","type":"uint256"}],"stateMutability":"view","type":"function"},{"inputs":[],"name":"PAUSER_ROLE","outputs":[{"internalType":"bytes32","name":"","type":"bytes32"}],"stateMutability":"view","type":"function"},{"inputs":[],"name":"SETTER_ROLE","outputs":[{"internalType":"bytes32","name":"","type":"bytes32"}],"stateMutability":"view","type":"function"},{"inputs":[],"name":"TYPE_HASH","outputs":[{"internalType":"bytes32","name":"","type":"bytes32"}],"stateMutability":"view","type":"function"},{"inputs":[],"name":"UNPAUSER_ROLE","outputs":[{"internalType":"bytes32","name":"","type":"bytes32"}],"stateMutability":"view","type":"function"},{"inputs":[{"internalType":"uint256","name":"providedAmount","type":"uint256"},{"internalType":"uint256[]","name":"_acceptedRequestIds","type":"uint256[]"},{"internalType":"uint256[]","name":"_acceptedAmounts","type":"uint256[]"}],"name":"acceptWithdrawRequest","outputs":[],"stateMutability":"nonpayable","type":"function"},{"inputs":[{"internalType":"uint256","name":"id","type":"uint256"}],"name":"cancelWithdrawRequest","outputs":[],"stateMutability":"nonpayable","type":"function"},{"inputs":[{"internalType":"uint256","name":"requestId","type":"uint256"}],"name":"claimForWithdrawRequest","outputs":[],"stateMutability":"nonpayable","type":"function"},{"inputs":[],"name":"collateralTokenAddress","outputs":[{"internalType":"address","name":"","type":"address"}],"stateMutability":"view","type":"function"},{"inputs":[],"name":"collateralTokenDecimals","outputs":[{"internalType":"uint256","name":"","type":"uint256"}],"stateMutability":"view","type":"function"},{"inputs":[],"name":"currentDeposit","outputs":[{"internalType":"uint256","name":"","type":"uint256"}],"stateMutability":"view","type":"function"},{"inputs":[{"internalType":"uint256","name":"amount","type":"uint256"}],"name":"deposit","outputs":[],"stateMutability":"nonpayable","type":"function"},{"inputs":[],"name":"depositLimit","outputs":[{"internalType":"uint256","name":"","type":"uint256"}],"stateMutability":"view","type":"function"},{"inputs":[],"name":"eip712Domain","outputs":[{"internalType":"bytes1","name":"fields","type":"bytes1"},{"internalType":"string","name":"name","type":"string"},{"internalType":"string","name":"version","type":"string"},{"internalType":"uint256","name":"chainId","type":"uint256"},{"internalType":"address","name":"verifyingContract","type":"address"},{"internalType":"bytes32","name":"salt","type":"bytes32"},{"internalType":"uint256[]","name":"extensions","type":"uint256[]"}],"stateMutability":"view","type":"function"},{"inputs":[{"internalType":"bytes32","name":"role","type":"bytes32"}],"name":"getRoleAdmin","outputs":[{"internalType":"bytes32","name":"","type":"bytes32"}],"stateMutability":"view","type":"function"},{"inputs":[{"internalType":"bytes32","name":"role","type":"bytes32"},{"internalType":"uint256","name":"index","type":"uint256"}],"name":"getRoleMember","outputs":[{"internalType":"address","name":"","type":"address"}],"stateMutability":"view","type":"function"},{"inputs":[{"internalType":"bytes32","name":"role","type":"bytes32"}],"name":"getRoleMemberCount","outputs":[{"internalType":"uint256","name":"","type":"uint256"}],"stateMutability":"view","type":"function"},{"inputs":[{"internalType":"bytes32","name":"role","type":"bytes32"},{"internalType":"address","name":"account","type":"address"}],"name":"grantRole","outputs":[],"stateMutability":"nonpayable","type":"function"},{"inputs":[{"internalType":"bytes32","name":"role","type":"bytes32"},{"internalType":"address","name":"account","type":"address"}],"name":"hasRole","outputs":[{"internalType":"bool","name":"","type":"bool"}],"stateMutability":"view","type":"function"},{"inputs":[{"internalType":"address","name":"_symmioAddress","type":"address"},{"internalType":"address","name":"_solver","type":"address"},{"internalType":"address","name":"_signer","type":"address"},{"internalType":"uint256","name":"_depositLimit","type":"uint256"}],"name":"initialize","outputs":[],"stateMutability":"nonpayable","type":"function"},{"inputs":[],"name":"lockedBalance","outputs":[{"internalType":"uint256","name":"","type":"uint256"}],"stateMutability":"view","type":"function"},{"inputs":[],"name":"pause","outputs":[],"stateMutability":"nonpayable","type":"function"},{"inputs":[],"name":"paused","outputs":[{"internalType":"bool","name":"","type":"bool"}],"stateMutability":"view","type":"function"},{"inputs":[{"internalType":"address","name":"","type":"address"}],"name":"pendingWithdrawalAmount","outputs":[{"internalType":"uint256","name":"","type":"uint256"}],"stateMutability":"view","type":"function"},{"inputs":[{"internalType":"uint256","name":"id","type":"uint256"}],"name":"rejectWithdrawRequest","outputs":[],"stateMutability":"nonpayable","type":"function"},{"inputs":[{"internalType":"bytes32","name":"role","type":"bytes32"},{"internalType":"address","name":"account","type":"address"}],"name":"renounceRole","outputs":[],"stateMutability":"nonpayable","type":"function"},{"inputs":[{"internalType":"uint256","name":"amount","type":"uint256"},{"internalType":"uint256","name":"minAmountOut","type":"uint256"},{"internalType":"address","name":"receiver","type":"address"},{"internalType":"uint256","name":"nonce","type":"uint256"},{"internalType":"uint256","name":"deadline","type":"uint256"},{"internalType":"bytes","name":"signature","type":"bytes"}],"name":"requestWithdraw","outputs":[],"stateMutability":"nonpayable","type":"function"},{"inputs":[{"internalType":"bytes32","name":"role","type":"bytes32"},{"internalType":"address","name":"account","type":"address"}],"name":"revokeRole","outputs":[],"stateMutability":"nonpayable","type":"function"},{"inputs":[{"internalType":"uint256","name":"_depositLimit","type":"uint256"}],"name":"setDepositLimit","outputs":[],"stateMutability":"nonpayable","type":"function"},{"inputs":[{"internalType":"address","name":"_signer","type":"address"}],"name":"setSigner","outputs":[],"stateMutability":"nonpayable","type":"function"},{"inputs":[{"internalType":"address","name":"_solver","type":"address"}],"name":"setSolver","outputs":[],"stateMutability":"nonpayable","type":"function"},{"inputs":[{"internalType":"address","name":"_symmioAddress","type":"address"}],"name":"setSymmioAddress","outputs":[],"stateMutability":"nonpayable","type":"function"},{"inputs":[{"internalType":"uint256","name":"withdrawalPeriod_","type":"uint256"}],"name":"setWithdrawalPeriod","outputs":[],"stateMutability":"nonpayable","type":"function"},{"inputs":[],"name":"signer","outputs":[{"internalType":"address","name":"","type":"address"}],"stateMutability":"view","type":"function"},{"inputs":[],"name":"solver","outputs":[{"internalType":"address","name":"","type":"address"}],"stateMutability":"view","type":"function"},{"inputs":[{"internalType":"bytes4","name":"interfaceId","type":"bytes4"}],"name":"supportsInterface","outputs":[{"internalType":"bool","name":"","type":"bool"}],"stateMutability":"view","type":"function"},{"inputs":[],"name":"symmio","outputs":[{"internalType":"contract ISymmio","name":"","type":"address"}],"stateMutability":"view","type":"function"},{"inputs":[],"name":"unpause","outputs":[],"stateMutability":"nonpayable","type":"function"},{"inputs":[{"internalType":"address","name":"","type":"address"},{"internalType":"uint256","name":"","type":"uint256"}],"name":"usedNonces","outputs":[{"internalType":"bool","name":"","type":"bool"}],"stateMutability":"view","type":"function"},{"inputs":[{"internalType":"address","name":"receiver","type":"address"},{"internalType":"uint256","name":"amount","type":"uint256"}],"name":"withdrawNotLockedCollateralTokens","outputs":[],"stateMutability":"nonpayable","type":"function"},{"inputs":[{"internalType":"uint256","name":"","type":"uint256"}],"name":"withdrawRequests","outputs":[{"internalType":"address","name":"receiver","type":"address"},{"internalType":"address","name":"sender","type":"address"},{"internalType":"uint256","name":"amount","type":"uint256"},{"internalType":"uint256","name":"minAmountOut","type":"uint256"},{"internalType":"enum IOnChainSymmioVault.RequestStatus","name":"status","type":"uint8"},{"internalType":"uint256","name":"acceptedAmount","type":"uint256"},{"internalType":"uint256","name":"acceptedWithdrawRequestTimestamp","type":"uint256"},{"internalType":"uint256","name":"claimableAt","type":"uint256"}],"stateMutability":"view","type":"function"},{"inputs":[],"name":"withdrawalPeriod","outputs":[{"internalType":"uint256","name":"","type":"uint256"}],"stateMutability":"view","type":"function"}],"evm":{"bytecode":{"linkReferences":{},"object":"6080604052348015600f57600080fd5b506016601a565b60d7565b600054610100900460ff161560855760405162461bcd60e51b815260206004820152602760248201527f496e697469616c697a61626c653a20636f6e747261637420697320696e697469604482015266616c697a696e6760c81b606482015260840160405180910390fd5b60005460ff9081161460d5576000805460ff191660ff9081179091556040519081527f7f26b83ff96e1f2b6a682f133852f6798a09c465da95921460cefb38474024989060200160405180910390a15b565b614399806100e66000396000f3fe608060405234801561001057600080fd5b50600436106102f45760003560e01c806384b0196e11610191578063bdc8144b116100e3578063deaf30b211610097578063ecf7085811610071578063ecf70858146106c0578063f36fbab7146106ca578063fb1bb9de146106dd57600080fd5b8063deaf30b21461066e578063e63ab1e91461068f578063e94b2f44146106b657600080fd5b8063cce4705b116100c8578063cce4705b14610635578063cf756fdf14610648578063d547741f1461065b57600080fd5b8063bdc8144b1461060f578063ca15c8731461062257600080fd5b8063992a7dfb11610145578063b54790d81161011f578063b54790d8146105e8578063b6b55f25146105f2578063bca7093d1461060557600080fd5b8063992a7dfb14610592578063a2011b3f146105b9578063a217fddf146105e057600080fd5b80639010d07c116101765780639010d07c1461053357806391d1485414610546578063973b294f1461057f57600080fd5b806384b0196e1461050557806386da03231461052057600080fd5b80635849b93d1161024a5780636d9dd201116101fe57806381548fed116101d857806381548fed146104d75780638456cb59146104ea578063849fc72b146104f257600080fd5b80636d9dd201146104aa5780637b80889b146104be5780637b9f7d94146104c857600080fd5b806364d4c8191161022f57806364d4c819146104415780636a8a6894146104685780636c19e7831461049757600080fd5b80635849b93d146104225780635c975abb1461043657600080fd5b8063248a9ca3116102ac57806336568abe1161028657806336568abe146103f35780633f4ba83a1461040657806349a7a26d1461040e57600080fd5b8063248a9ca3146103885780632f2ff15d146103b957806330d3c534146103cc57600080fd5b806301ffc9a7116102dd57806301ffc9a7146103215780631f87943314610349578063238ac9331461035c57600080fd5b806301228e15146102f957806301569e3a1461030e575b600080fd5b61030c610307366004613c01565b610704565b005b61030c61031c366004613c88565b610c4a565b61033461032f366004613ca5565b610de0565b60405190151581526020015b60405180910390f35b61030c610357366004613c88565b610e3c565b61016354610370906001600160a01b031681565b6040516001600160a01b039091168152602001610340565b6103ab610396366004613ce7565b60009081526065602052604090206001015490565b604051908152602001610340565b61030c6103c7366004613d00565b610f21565b6103ab7f372387bd01807b923229b5bd1e46f8a6b8815b5d5db581db3e993c5168467b2781565b61030c610401366004613d00565b610f4b565b61030c610fd7565b61016254610370906001600160a01b031681565b61016154610370906001600160a01b031681565b60c95460ff16610334565b6103ab7fb1dd0bed30d3b8ab9fc76313ecb7db14f6b497d5f1f7859fa5cb5811c1ca307381565b610334610476366004613d30565b61016c60209081526000928352604080842090915290825290205460ff1681565b61030c6104a5366004613c88565b61100c565b61016454610370906001600160a01b031681565b6103ab6101655481565b6103ab6706f05b59d3b2000081565b61030c6104e5366004613ce7565b6110f1565b61030c6112b1565b61030c610500366004613d5c565b6112e3565b61050d6116b4565b6040516103409796959493929190613eba565b61030c61052e366004613ce7565b611776565b610370610541366004613f44565b61199c565b610334610554366004613d00565b60009182526065602090815260408084206001600160a01b0393909316845291905290205460ff1690565b61030c61058d366004613ce7565b6119bb565b6105a56105a0366004613ce7565b6119ee565b604051610340989796959493929190613f7c565b6103ab7f61c92169ef077349011ff0b1383c894d86c5f0b41d986366b58a6cf31e93beda81565b6103ab600081565b6103ab6101685481565b61030c610600366004613ce7565b611a55565b6103ab61016a5481565b61030c61061d366004613ce7565b611cb7565b6103ab610630366004613ce7565b611d1e565b61030c610643366004613ce7565b611d35565b61030c610656366004613fe6565b611f49565b61030c610669366004613d00565b612150565b6103ab61067c366004613c88565b61016b6020526000908152604090205481565b6103ab7f65d7a28e3265b37a6474929f336521b332c1681b933f6cb9f3376673440d862a81565b6103ab6101675481565b6103ab6101665481565b61030c6106d8366004613d30565b612175565b6103ab7f427da25fe773164f88948d3e215c94b6554e2ed5e5f203a821c9f2f6131cf75a81565b7f372387bd01807b923229b5bd1e46f8a6b8815b5d5db581db3e993c5168467b2761072e816123be565b6107366123c8565b61074f33610164546001600160a01b031690308761241d565b6101655460005b8451811015610b0657600085828151811061077357610773614037565b602002602001015190506101698054905081106107e95760405162461bcd60e51b815260206004820152602960248201527f53796d6d696f536f6c7665724465706f7369746f723a20496e76616c69642072604482015268195c5d595cdd08125160ba1b60648201526084015b60405180910390fd5b600061016982815481106107ff576107ff614037565b60009182526020909120600460089092020181015460ff169081111561082757610827613f66565b1461089a5760405162461bcd60e51b815260206004820152602f60248201527f53796d6d696f536f6c7665724465706f7369746f723a20496e76616c6964206160448201527f636365707465642072657175657374000000000000000000000000000000000060648201526084016107e0565b60008583815181106108ae576108ae614037565b6020026020010151905061016982815481106108cc576108cc614037565b906000526020600020906008020160030154811015610955576040805162461bcd60e51b81526020600482015260248101919091527f53796d6d696f536f6c7665724465706f7369746f723a205061796261636b207260448201527f6174696f20697320746f6f206c6f7720666f722074686973207265717565737460648201526084016107e0565b61095f8185614063565b9350610169828154811061097557610975614037565b90600052602060002090600802016002015461016760008282546109999190614076565b92505081905550600161016983815481106109b6576109b6614037565b906000526020600020906008020160040160006101000a81548160ff021916908360048111156109e8576109e8613f66565b0217905550806101698381548110610a0257610a02614037565b906000526020600020906008020160050181905550426101698381548110610a2c57610a2c614037565b600091825260209091206006600890920201015561016a54610a4e9042614063565b6101698381548110610a6257610a62614037565b9060005260206000209060080201600701819055506101698281548110610a8b57610a8b614037565b90600052602060002090600802016002015461016b60006101698581548110610ab657610ab6614037565b60009182526020808320600160089093020191909101546001600160a01b0316835282019290925260400181208054909190610af3908490614076565b9091555050600190920191506107569050565b50610164546040517f70a0823100000000000000000000000000000000000000000000000000000000815230600482015282916001600160a01b0316906370a0823190602401602060405180830381865afa158015610b69573d6000803e3d6000fd5b505050506040513d601f19601f82011682018060405250810190610b8d9190614089565b1015610c015760405162461bcd60e51b815260206004820152603460248201527f53796d6d696f536f6c7665724465706f7369746f723a20496e7375666669636960448201527f656e7420636f6e74726163742062616c616e636500000000000000000000000060648201526084016107e0565b6101658190556040517f2a6e9b91b054f05821c68f8fbd6354e6a1b29a9ad492bf0f81e04cd591ed5b1690610c3b908790879087906140a2565b60405180910390a15050505050565b7f61c92169ef077349011ff0b1383c894d86c5f0b41d986366b58a6cf31e93beda610c74816123be565b6001600160a01b038216610cd65760405162461bcd60e51b815260206004820152602360248201527f53796d6d696f536f6c7665724465706f7369746f723a205a65726f206164647260448201526265737360e81b60648201526084016107e0565b610161805473ffffffffffffffffffffffffffffffffffffffff19166001600160a01b03848116919091179091556101645416610d116124d4565b610164546001600160a01b0382811691161480610d3557506001600160a01b038116155b610da75760405162461bcd60e51b815260206004820152603460248201527f53796d6d696f536f6c7665724465706f7369746f723a20436f6c6c617465726160448201527f6c2063616e206e6f74206265206368616e67656400000000000000000000000060648201526084016107e0565b6040516001600160a01b038416907fe5af12e9abb914276d8e0a5a01aa97d26f4c81e3002646f90824c2063953104490600090a2505050565b60007fffffffff0000000000000000000000000000000000000000000000000000000082167f5a05180f000000000000000000000000000000000000000000000000000000001480610e365750610e3682612696565b92915050565b7f61c92169ef077349011ff0b1383c894d86c5f0b41d986366b58a6cf31e93beda610e66816123be565b6001600160a01b038216610ec85760405162461bcd60e51b815260206004820152602360248201527f53796d6d696f536f6c7665724465706f7369746f723a205a65726f206164647260448201526265737360e81b60648201526084016107e0565b610162805473ffffffffffffffffffffffffffffffffffffffff19166001600160a01b0384169081179091556040517f73c48e8c0360f51d3049faa15518d29248fbad9e77ad28ad94bcd1712854ca9b90600090a25050565b600082815260656020526040902060010154610f3c816123be565b610f46838361272d565b505050565b6001600160a01b0381163314610fc95760405162461bcd60e51b815260206004820152602f60248201527f416363657373436f6e74726f6c3a2063616e206f6e6c792072656e6f756e636560448201527f20726f6c657320666f722073656c66000000000000000000000000000000000060648201526084016107e0565b610fd3828261274f565b5050565b7f427da25fe773164f88948d3e215c94b6554e2ed5e5f203a821c9f2f6131cf75a611001816123be565b611009612771565b50565b7f61c92169ef077349011ff0b1383c894d86c5f0b41d986366b58a6cf31e93beda611036816123be565b6001600160a01b0382166110985760405162461bcd60e51b815260206004820152602360248201527f53796d6d696f536f6c7665724465706f7369746f723a205a65726f206164647260448201526265737360e81b60648201526084016107e0565b610163805473ffffffffffffffffffffffffffffffffffffffff19166001600160a01b0384169081179091556040517f93d2bd623fe74229d9510c70ec2da10109749943db6d68437555a01b1844beae90600090a25050565b7f372387bd01807b923229b5bd1e46f8a6b8815b5d5db581db3e993c5168467b2761111b816123be565b6111236123c8565b6101695482106111875760405162461bcd60e51b815260206004820152602960248201527f53796d6d696f536f6c7665724465706f7369746f723a20496e76616c69642072604482015268195c5d595cdd08125160ba1b60648201526084016107e0565b6000610169838154811061119d5761119d614037565b600091825260208220600890910201915060048083015460ff16908111156111c7576111c7613f66565b1461123a5760405162461bcd60e51b815260206004820152602560248201527f53796d6d696f536f6c7665724465706f7369746f723a20496e76616c6964207360448201527f746174757300000000000000000000000000000000000000000000000000000060648201526084016107e0565b6004818101805460ff19169091179055600281015460018201546001600160a01b0316600090815261016b60205260408120805490919061127c908490614076565b909155505060405183907ff12d2a5d8b37ba59b2fa12dedca1d420ee1c5da121eb1878497bc1d29076b5c090600090a2505050565b7f65d7a28e3265b37a6474929f336521b332c1681b933f6cb9f3376673440d862a6112db816123be565b6110096127c3565b6112eb6123c8565b6001600160a01b0384166113675760405162461bcd60e51b815260206004820152603060248201527f53796d6d696f536f6c7665724465706f7369746f723a205a65726f206164647260448201527f65737320666f722072656365697665720000000000000000000000000000000060648201526084016107e0565b4282116113dc5760405162461bcd60e51b815260206004820152603560248201527f53796d6d696f536f6c7665724465706f7369746f723a20446561646c696e652060448201527f6d75737420626520696e2074686520667574757265000000000000000000000060648201526084016107e0565b6001600160a01b038416600090815261016c6020908152604080832086845290915290205460ff16156114775760405162461bcd60e51b815260206004820152602960248201527f53796d6d696f536f6c7665724465706f7369746f723a204e6f6e636520616c7260448201527f656164792075736564000000000000000000000000000000000000000000000060648201526084016107e0565b611485868686868686612800565b6114f75760405162461bcd60e51b815260206004820152602860248201527f53796d6d696f536f6c7665724465706f7369746f723a20496e76616c6964207360448201527f69676e617475726500000000000000000000000000000000000000000000000060648201526084016107e0565b6001600160a01b038416600081815261016c60209081526040808320878452825291829020805460ff19166001179055815161010081019092529181526101699181016115413390565b6001600160a01b031681526020810189905260408101889052606001600081526000602080830182905260408084018390526060938401839052855460018082018855968452928290208551600890940201805473ffffffffffffffffffffffffffffffffffffffff199081166001600160a01b039586161782559286015181880180549094169416939093179091558301516002820155908201516003820155608082015160048083018054949593949293909260ff191691849081111561160c5761160c613f66565b021790555060a0820151600582015560c0820151600682015560e09091015160079091015533600090815261016b602052604081208054889290611651908490614063565b9091555050610169546001600160a01b03851690339061167390600190614076565b604080518a8152602081018890527f0766e8c55dde32095d8c203180e4f32c7407c445e0a87007877162126d257b25910160405180910390a4505050505050565b60006060806000806000606060fb546000801b1480156116d4575060fc54155b6117205760405162461bcd60e51b815260206004820152601560248201527f4549503731323a20556e696e697469616c697a6564000000000000000000000060448201526064016107e0565b6117286128a8565b61173061293a565b604080516000808252602082019092527f0f000000000000000000000000000000000000000000000000000000000000009b939a50919850469750309650945092509050565b61177e6123c8565b6101695481106117e25760405162461bcd60e51b815260206004820152602960248201527f53796d6d696f536f6c7665724465706f7369746f723a20496e76616c69642072604482015268195c5d595cdd08125160ba1b60648201526084016107e0565b600061016982815481106117f8576117f8614037565b600091825260209091206008909102019050600160048083015460ff169081111561182557611825613f66565b146118985760405162461bcd60e51b815260206004820152603760248201527f53796d6d696f536f6c7665724465706f7369746f723a2052657175657374206e60448201527f6f7420726561647920666f72207769746864726177616c00000000000000000060648201526084016107e0565b42816007015411156119125760405162461bcd60e51b815260206004820152603960248201527f53796d6d696f536f6c7665724465706f7369746f723a2052657175657374206e60448201527f6f742070617373207769746864726177616c20706572696f640000000000000060648201526084016107e0565b60048101805460ff191660021790556005810154610165805482919060009061193c908490614076565b909155505081546101645461195e916001600160a01b03918216911683612949565b81546040516001600160a01b039091169084907f4ce122b005e10b197f4caf028d92e008a684c370ad8f93528e07ded8214240e190600090a3505050565b60008281526097602052604081206119b49083612992565b9392505050565b7f61c92169ef077349011ff0b1383c894d86c5f0b41d986366b58a6cf31e93beda6119e5816123be565b610fd38261299e565b61016981815481106119ff57600080fd5b6000918252602090912060089091020180546001820154600283015460038401546004850154600586015460068701546007909701546001600160a01b03968716985094909516959294919360ff909116929088565b611a5d6123c8565b611a656129da565b60008111611adb5760405162461bcd60e51b815260206004820152603460248201527f53796d6d696f536f6c7665724465706f7369746f723a20416d6f756e74206d7560448201527f73742062652067726561746572207468616e203000000000000000000000000060648201526084016107e0565b610166548161016754611aee9190614063565b1115611b625760405162461bcd60e51b815260206004820152602c60248201527f53796d6d696f536f6c7665724465706f7369746f723a204465706f736974206c60448201527f696d69742072656163686564000000000000000000000000000000000000000060648201526084016107e0565b610164546001600160a01b0316611b7b8133308561241d565b816101676000828254611b8e9190614063565b909155505060405182815233907fe1fffcc4923d04b559f4d29a8bfc6cda04eb5b0d3c460751c2402c5c5cc9109c9060200160405180910390a261016154611be3906001600160a01b03838116911684612a35565b61016154610162546040517f2f4f21e20000000000000000000000000000000000000000000000000000000081526001600160a01b03918216600482015260248101859052911690632f4f21e290604401600060405180830381600087803b158015611c4e57600080fd5b505af1158015611c62573d6000803e3d6000fd5b5050610162546040518581526001600160a01b0390911692503391507f42a31d51415a86588240e32bf72025c881c4c9aada6e283ce50dc32f5a64717b9060200160405180910390a350611009600161012f55565b7f61c92169ef077349011ff0b1383c894d86c5f0b41d986366b58a6cf31e93beda611ce1816123be565b6101668290556040518281527fa1b2ac18b42a8ccd9c95e39420259ed780b3f6d890e5ecd36af7a4dc570348ff9060200160405180910390a15050565b6000818152609760205260408120610e3690612b13565b611d3d6123c8565b610169548110611da15760405162461bcd60e51b815260206004820152602960248201527f53796d6d696f536f6c7665724465706f7369746f723a20496e76616c69642072604482015268195c5d595cdd08125160ba1b60648201526084016107e0565b60006101698281548110611db757611db7614037565b90600052602060002090600802019050611dce3390565b60018201546001600160a01b03908116911614611e535760405162461bcd60e51b815260206004820152603f60248201527f53796d6d696f536f6c7665724465706f7369746f723a204f6e6c79207468652060448201527f73656e646572206f6620726571756573742063616e2063616e63656c2069740060648201526084016107e0565b600060048083015460ff1690811115611e6e57611e6e613f66565b14611ee15760405162461bcd60e51b815260206004820152602560248201527f53796d6d696f536f6c7665724465706f7369746f723a20496e76616c6964207360448201527f746174757300000000000000000000000000000000000000000000000000000060648201526084016107e0565b60048101805460ff19166003179055600281015433600090815261016b602052604081208054909190611f15908490614076565b909155505060405182907f8f3015a84bd69b67997edb78d8928ad670dcb6243df596529ae1e07f93eaf35a90600090a25050565b600054610100900460ff1615808015611f695750600054600160ff909116105b80611f835750303b158015611f83575060005460ff166001145b611ff55760405162461bcd60e51b815260206004820152602e60248201527f496e697469616c697a61626c653a20636f6e747261637420697320616c72656160448201527f647920696e697469616c697a656400000000000000000000000000000000000060648201526084016107e0565b6000805460ff191660011790558015612018576000805461ff0019166101001790555b612020612b1d565b612028612b90565b612030612bfb565b6120a46040518060400160405280601481526020017f4f6e436861696e53796d6d696f5661756c7456320000000000000000000000008152506040518060400160405280600181526020017f3100000000000000000000000000000000000000000000000000000000000000815250612c6e565b6120af60003361272d565b6120d97f61c92169ef077349011ff0b1383c894d86c5f0b41d986366b58a6cf31e93beda3361272d565b6120e285610c4a565b6120eb84610e3c565b6120f482611cb7565b6120fd8361100c565b612107606461299e565b8015612149576000805461ff0019169055604051600181527f7f26b83ff96e1f2b6a682f133852f6798a09c465da95921460cefb384740249890602001610c3b565b5050505050565b60008281526065602052604090206001015461216b816123be565b610f46838361274f565b7f372387bd01807b923229b5bd1e46f8a6b8815b5d5db581db3e993c5168467b2761219f816123be565b6121a76123c8565b6001600160a01b0383166122235760405162461bcd60e51b815260206004820152603060248201527f53796d6d696f536f6c7665724465706f7369746f723a205a65726f206164647260448201527f65737320666f722072656365697665720000000000000000000000000000000060648201526084016107e0565b600082116122995760405162461bcd60e51b815260206004820152603460248201527f53796d6d696f536f6c7665724465706f7369746f723a20416d6f756e74206d7560448201527f73742062652067726561746572207468616e203000000000000000000000000060648201526084016107e0565b610164546040517f70a082310000000000000000000000000000000000000000000000000000000081523060048201526001600160a01b039091169060009082906370a0823190602401602060405180830381865afa158015612300573d6000803e3d6000fd5b505050506040513d601f19601f820116820180604052508101906123249190614089565b905061016554816123359190614076565b8411156123aa5760405162461bcd60e51b815260206004820152602b60248201527f53796d6d696f536f6c7665724465706f7369746f723a20496e7375666669636960448201527f656e742062616c616e636500000000000000000000000000000000000000000060648201526084016107e0565b6121496001600160a01b0383168686612949565b6110098133612ce3565b60c95460ff161561241b5760405162461bcd60e51b815260206004820152601060248201527f5061757361626c653a207061757365640000000000000000000000000000000060448201526064016107e0565b565b6040516001600160a01b03808516602483015283166044820152606481018290526124ce9085907f23b872dd00000000000000000000000000000000000000000000000000000000906084015b60408051601f198184030181529190526020810180517bffffffffffffffffffffffffffffffffffffffffffffffffffffffff167fffffffff0000000000000000000000000000000000000000000000000000000090931692909217909152612d58565b50505050565b61016160009054906101000a90046001600160a01b03166001600160a01b0316635c1548fb6040518163ffffffff1660e01b8152600401602060405180830381865afa158015612528573d6000803e3d6000fd5b505050506040513d601f19601f8201168201806040525081019061254c91906140cd565b610164805473ffffffffffffffffffffffffffffffffffffffff19166001600160a01b03929092169182179055604080517f313ce567000000000000000000000000000000000000000000000000000000008152905163313ce567916004808201926020929091908290030181865afa1580156125cd573d6000803e3d6000fd5b505050506040513d601f19601f820116820180604052508101906125f191906140ea565b60ff166101688190556012101561241b5760405162461bcd60e51b815260206004820152604e60248201527f53796d6d696f536f6c7665724465706f7369746f723a20436f6c6c617465726160448201527f6c20646563696d616c732073686f756c64206265206c6f776572207468616e2060648201527f6f7220657175616c20746f203138000000000000000000000000000000000000608482015260a4016107e0565b60007fffffffff0000000000000000000000000000000000000000000000000000000082167f7965db0b000000000000000000000000000000000000000000000000000000001480610e3657507f01ffc9a7000000000000000000000000000000000000000000000000000000007fffffffff00000000000000000000000000000000000000000000000000000000831614610e36565b6127378282612e40565b6000828152609760205260409020610f469082612ee2565b6127598282612ef7565b6000828152609760205260409020610f469082612f7a565b612779612f8f565b60c9805460ff191690557f5db9ee0a495bf2e6ff9c91a7834c1ba4fdd244a5e8aa4e537bd38aeae4b073aa335b6040516001600160a01b03909116815260200160405180910390a1565b6127cb6123c8565b60c9805460ff191660011790557f62e78cea01bee320cd4e420270b5ea74000d11b0c9f74754ebdbfc544b05a2586127a63390565b604080517fb1dd0bed30d3b8ab9fc76313ecb7db14f6b497d5f1f7859fa5cb5811c1ca30736020820152908101879052606081018690526001600160a01b038516608082015260a0810184905260c08101839052600090819061287b9060e00160405160208183030381529060405280519060200120612fe1565b905060006128898285613029565b610163546001600160a01b039182169116149998505050505050505050565b606060fd80546128b79061410d565b80601f01602080910402602001604051908101604052809291908181526020018280546128e39061410d565b80156129305780601f1061290557610100808354040283529160200191612930565b820191906000526020600020905b81548152906001019060200180831161291357829003601f168201915b5050505050905090565b606060fe80546128b79061410d565b6040516001600160a01b038316602482015260448101829052610f469084907fa9059cbb000000000000000000000000000000000000000000000000000000009060640161246a565b60006119b4838361304d565b61016a8190556040518181527f699d7bc1fd2d92f6912f04b6a309ef25ec3937479e80cdc04b75f234a724e9a29060200160405180910390a150565b600261012f5403612a2d5760405162461bcd60e51b815260206004820152601f60248201527f5265656e7472616e637947756172643a207265656e7472616e742063616c6c0060448201526064016107e0565b600261012f55565b604080516001600160a01b038416602482015260448082018490528251808303909101815260649091019091526020810180517bffffffffffffffffffffffffffffffffffffffffffffffffffffffff167f095ea7b300000000000000000000000000000000000000000000000000000000179052612ab48482613077565b6124ce576040516001600160a01b038416602482015260006044820152612b019085907f095ea7b3000000000000000000000000000000000000000000000000000000009060640161246a565b6124ce8482612d58565b600161012f55565b6000610e36825490565b600054610100900460ff16612b885760405162461bcd60e51b815260206004820152602b60248201527f496e697469616c697a61626c653a20636f6e7472616374206973206e6f74206960448201526a6e697469616c697a696e6760a81b60648201526084016107e0565b61241b61311e565b600054610100900460ff1661241b5760405162461bcd60e51b815260206004820152602b60248201527f496e697469616c697a61626c653a20636f6e7472616374206973206e6f74206960448201526a6e697469616c697a696e6760a81b60648201526084016107e0565b600054610100900460ff16612c665760405162461bcd60e51b815260206004820152602b60248201527f496e697469616c697a61626c653a20636f6e7472616374206973206e6f74206960448201526a6e697469616c697a696e6760a81b60648201526084016107e0565b61241b613189565b600054610100900460ff16612cd95760405162461bcd60e51b815260206004820152602b60248201527f496e697469616c697a61626c653a20636f6e7472616374206973206e6f74206960448201526a6e697469616c697a696e6760a81b60648201526084016107e0565b610fd38282613200565b60008281526065602090815260408083206001600160a01b038516845290915290205460ff16610fd357612d1681613293565b612d218360206132a5565b604051602001612d32929190614147565b60408051601f198184030181529082905262461bcd60e51b82526107e0916004016141c8565b6000612dad826040518060400160405280602081526020017f5361666545524332303a206c6f772d6c6576656c2063616c6c206661696c6564815250856001600160a01b03166134ce9092919063ffffffff16565b9050805160001480612dce575080806020019051810190612dce91906141db565b610f465760405162461bcd60e51b815260206004820152602a60248201527f5361666545524332303a204552433230206f7065726174696f6e20646964206e60448201527f6f7420737563636565640000000000000000000000000000000000000000000060648201526084016107e0565b60008281526065602090815260408083206001600160a01b038516845290915290205460ff16610fd35760008281526065602090815260408083206001600160a01b03851684529091529020805460ff19166001179055612e9e3390565b6001600160a01b0316816001600160a01b0316837f2f8788117e7eff1d82e926ec794901d17c78024a50270940304540a733656f0d60405160405180910390a45050565b60006119b4836001600160a01b0384166134e5565b60008281526065602090815260408083206001600160a01b038516845290915290205460ff1615610fd35760008281526065602090815260408083206001600160a01b0385168085529252808320805460ff1916905551339285917ff6391f5c32d9c69d2a47ea670b442974b53935d1edc7fd64eb21e047a839171b9190a45050565b60006119b4836001600160a01b038416613534565b60c95460ff1661241b5760405162461bcd60e51b815260206004820152601460248201527f5061757361626c653a206e6f742070617573656400000000000000000000000060448201526064016107e0565b6000610e36612fee613627565b836040517f19010000000000000000000000000000000000000000000000000000000000008152600281019290925260228201526042902090565b60008060006130388585613636565b915091506130458161367b565b509392505050565b600082600001828154811061306457613064614037565b9060005260206000200154905092915050565b6000806000846001600160a01b03168460405161309491906141fd565b6000604051808303816000865af19150503d80600081146130d1576040519150601f19603f3d011682016040523d82523d6000602084013e6130d6565b606091505b509150915081801561310057508051158061310057508080602001905181019061310091906141db565b801561311557506001600160a01b0385163b15155b95945050505050565b600054610100900460ff16612b0b5760405162461bcd60e51b815260206004820152602b60248201527f496e697469616c697a61626c653a20636f6e7472616374206973206e6f74206960448201526a6e697469616c697a696e6760a81b60648201526084016107e0565b600054610100900460ff166131f45760405162461bcd60e51b815260206004820152602b60248201527f496e697469616c697a61626c653a20636f6e7472616374206973206e6f74206960448201526a6e697469616c697a696e6760a81b60648201526084016107e0565b60c9805460ff19169055565b600054610100900460ff1661326b5760405162461bcd60e51b815260206004820152602b60248201527f496e697469616c697a61626c653a20636f6e7472616374206973206e6f74206960448201526a6e697469616c697a696e6760a81b60648201526084016107e0565b60fd6132778382614260565b5060fe6132848282614260565b5050600060fb81905560fc5550565b6060610e366001600160a01b03831660145b606060006132b483600261431f565b6132bf906002614063565b67ffffffffffffffff8111156132d7576132d7613b37565b6040519080825280601f01601f191660200182016040528015613301576020820181803683370190505b5090507f30000000000000000000000000000000000000000000000000000000000000008160008151811061333857613338614037565b60200101907effffffffffffffffffffffffffffffffffffffffffffffffffffffffffffff1916908160001a9053507f78000000000000000000000000000000000000000000000000000000000000008160018151811061339b5761339b614037565b60200101907effffffffffffffffffffffffffffffffffffffffffffffffffffffffffffff1916908160001a90535060006133d784600261431f565b6133e2906001614063565b90505b600181111561347f577f303132333435363738396162636465660000000000000000000000000000000085600f166010811061342357613423614037565b1a60f81b82828151811061343957613439614037565b60200101907effffffffffffffffffffffffffffffffffffffffffffffffffffffffffffff1916908160001a90535060049490941c9361347881614336565b90506133e5565b5083156119b45760405162461bcd60e51b815260206004820181905260248201527f537472696e67733a20686578206c656e67746820696e73756666696369656e7460448201526064016107e0565b60606134dd84846000856137e0565b949350505050565b600081815260018301602052604081205461352c57508154600181810184556000848152602080822090930184905584548482528286019093526040902091909155610e36565b506000610e36565b6000818152600183016020526040812054801561361d576000613558600183614076565b855490915060009061356c90600190614076565b90508181146135d157600086600001828154811061358c5761358c614037565b90600052602060002001549050808760000184815481106135af576135af614037565b6000918252602080832090910192909255918252600188019052604090208390555b85548690806135e2576135e261434d565b600190038181906000526020600020016000905590558560010160008681526020019081526020016000206000905560019350505050610e36565b6000915050610e36565b60006136316138d2565b905090565b600080825160410361366c5760208301516040840151606085015160001a61366087828585613946565b94509450505050613674565b506000905060025b9250929050565b600081600481111561368f5761368f613f66565b036136975750565b60018160048111156136ab576136ab613f66565b036136f85760405162461bcd60e51b815260206004820152601860248201527f45434453413a20696e76616c6964207369676e6174757265000000000000000060448201526064016107e0565b600281600481111561370c5761370c613f66565b036137595760405162461bcd60e51b815260206004820152601f60248201527f45434453413a20696e76616c6964207369676e6174757265206c656e6774680060448201526064016107e0565b600381600481111561376d5761376d613f66565b036110095760405162461bcd60e51b815260206004820152602260248201527f45434453413a20696e76616c6964207369676e6174757265202773272076616c60448201527f756500000000000000000000000000000000000000000000000000000000000060648201526084016107e0565b6060824710156138585760405162461bcd60e51b815260206004820152602660248201527f416464726573733a20696e73756666696369656e742062616c616e636520666f60448201527f722063616c6c000000000000000000000000000000000000000000000000000060648201526084016107e0565b600080866001600160a01b0316858760405161387491906141fd565b60006040518083038185875af1925050503d80600081146138b1576040519150601f19603f3d011682016040523d82523d6000602084013e6138b6565b606091505b50915091506138c787838387613a0a565b979650505050505050565b60007f8b73c3c69bb8fe3d512ecc4cf759cc79239f7b179b0ffacaa9a75d522b39400f6138fd613a83565b613905613adc565b60408051602081019490945283019190915260608201524660808201523060a082015260c00160405160208183030381529060405280519060200120905090565b6000807f7fffffffffffffffffffffffffffffff5d576e7357a4501ddfe92f46681b20a083111561397d5750600090506003613a01565b6040805160008082526020820180845289905260ff881692820192909252606081018690526080810185905260019060a0016020604051602081039080840390855afa1580156139d1573d6000803e3d6000fd5b5050604051601f1901519150506001600160a01b0381166139fa57600060019250925050613a01565b9150600090505b94509492505050565b60608315613a79578251600003613a72576001600160a01b0385163b613a725760405162461bcd60e51b815260206004820152601d60248201527f416464726573733a2063616c6c20746f206e6f6e2d636f6e747261637400000060448201526064016107e0565b50816134dd565b6134dd8383613b0d565b600080613a8e6128a8565b805190915015613aa5578051602090910120919050565b60fb548015613ab45792915050565b7fc5d2460186f7233c927e7db2dcc703c0e500b653ca82273b7bfad8045d85a4709250505090565b600080613ae761293a565b805190915015613afe578051602090910120919050565b60fc548015613ab45792915050565b815115613b1d5781518083602001fd5b8060405162461bcd60e51b81526004016107e091906141c8565b634e487b7160e01b600052604160045260246000fd5b604051601f8201601f1916810167ffffffffffffffff81118282101715613b7657613b76613b37565b604052919050565b600082601f830112613b8f57600080fd5b813567ffffffffffffffff811115613ba957613ba9613b37565b8060051b613bb960208201613b4d565b91825260208185018101929081019086841115613bd557600080fd5b6020860192505b83831015613bf7578235825260209283019290910190613bdc565b9695505050505050565b600080600060608486031215613c1657600080fd5b83359250602084013567ffffffffffffffff811115613c3457600080fd5b613c4086828701613b7e565b925050604084013567ffffffffffffffff811115613c5d57600080fd5b613c6986828701613b7e565b9150509250925092565b6001600160a01b038116811461100957600080fd5b600060208284031215613c9a57600080fd5b81356119b481613c73565b600060208284031215613cb757600080fd5b81357fffffffff00000000000000000000000000000000000000000000000000000000811681146119b457600080fd5b600060208284031215613cf957600080fd5b5035919050565b60008060408385031215613d1357600080fd5b823591506020830135613d2581613c73565b809150509250929050565b60008060408385031215613d4357600080fd5b8235613d4e81613c73565b946020939093013593505050565b60008060008060008060c08789031215613d7557600080fd5b86359550602087013594506040870135613d8e81613c73565b9350606087013592506080870135915060a087013567ffffffffffffffff811115613db857600080fd5b8701601f81018913613dc957600080fd5b803567ffffffffffffffff811115613de357613de3613b37565b613df66020601f19601f84011601613b4d565b8181528a6020838501011115613e0b57600080fd5b816020840160208301376000602083830101528093505050509295509295509295565b60005b83811015613e49578181015183820152602001613e31565b50506000910152565b60008151808452613e6a816020860160208601613e2e565b601f01601f19169290920160200192915050565b600081518084526020840193506020830160005b82811015613eb0578151865260209586019590910190600101613e92565b5093949350505050565b7fff000000000000000000000000000000000000000000000000000000000000008816815260e060208201526000613ef560e0830189613e52565b8281036040840152613f078189613e52565b90508660608401526001600160a01b03861660808401528460a084015282810360c0840152613f368185613e7e565b9a9950505050505050505050565b60008060408385031215613f5757600080fd5b50508035926020909101359150565b634e487b7160e01b600052602160045260246000fd5b6001600160a01b038981168252881660208201526040810187905260608101869052610100810160058610613fc157634e487b7160e01b600052602160045260246000fd5b8560808301528460a08301528360c08301528260e08301529998505050505050505050565b60008060008060808587031215613ffc57600080fd5b843561400781613c73565b9350602085013561401781613c73565b9250604085013561402781613c73565b9396929550929360600135925050565b634e487b7160e01b600052603260045260246000fd5b634e487b7160e01b600052601160045260246000fd5b80820180821115610e3657610e3661404d565b81810381811115610e3657610e3661404d565b60006020828403121561409b57600080fd5b5051919050565b8381526060602082015260006140bb6060830185613e7e565b8281036040840152613bf78185613e7e565b6000602082840312156140df57600080fd5b81516119b481613c73565b6000602082840312156140fc57600080fd5b815160ff811681146119b457600080fd5b600181811c9082168061412157607f821691505b60208210810361414157634e487b7160e01b600052602260045260246000fd5b50919050565b7f416363657373436f6e74726f6c3a206163636f756e742000000000000000000081526000835161417f816017850160208801613e2e565b7f206973206d697373696e6720726f6c652000000000000000000000000000000060179184019182015283516141bc816028840160208801613e2e565b01602801949350505050565b6020815260006119b46020830184613e52565b6000602082840312156141ed57600080fd5b815180151581146119b457600080fd5b6000825161420f818460208701613e2e565b9190910192915050565b601f821115610f4657806000526020600020601f840160051c810160208510156142405750805b601f840160051c820191505b81811015612149576000815560010161424c565b815167ffffffffffffffff81111561427a5761427a613b37565b61428e81614288845461410d565b84614219565b6020601f8211600181146142c257600083156142aa5750848201515b600019600385901b1c1916600184901b178455612149565b600084815260208120601f198516915b828110156142f257878501518255602094850194600190920191016142d2565b50848210156143105786840151600019600387901b60f8161c191681555b50505050600190811b01905550565b8082028115828204841417610e3657610e3661404d565b6000816143455761434561404d565b506000190190565b634e487b7160e01b600052603160045260246000fdfea2646970667358221220a9203179aa170367385044191dc902da78df7ce0778c7691eb6f1ed655c83e0a64736f6c634300081c0033","opcodes":"PUSH1 0x80 PUSH1 0x40 MSTORE CALLVALUE DUP1 ISZERO PUSH1 0xF JUMPI PUSH1 0x0 DUP1 REVERT JUMPDEST POP PUSH1 0x16 PUSH1 0x1A JUMP JUMPDEST PUSH1 0xD7 JUMP JUMPDEST PUSH1 0x0 SLOAD PUSH2 0x100 SWAP1 DIV PUSH1 0xFF AND ISZERO PUSH1 0x85 JUMPI PUSH1 0x40 MLOAD PUSH3 0x461BCD PUSH1 0xE5 SHL DUP2 MSTORE PUSH1 0x20 PUSH1 0x4 DUP3 ADD MSTORE PUSH1 0x27 PUSH1 0x24 DUP3 ADD MSTORE PUSH32 0x496E697469616C697A61626C653A20636F6E747261637420697320696E697469 PUSH1 0x44 DUP3 ADD MSTORE PUSH7 0x616C697A696E67 PUSH1 0xC8 SHL PUSH1 0x64 DUP3 ADD MSTORE PUSH1 0x84 ADD PUSH1 0x40 MLOAD DUP1 SWAP2 SUB SWAP1 REVERT JUMPDEST PUSH1 0x0 SLOAD PUSH1 0xFF SWAP1 DUP2 AND EQ PUSH1 0xD5 JUMPI PUSH1 0x0 DUP1 SLOAD PUSH1 0xFF NOT AND PUSH1 0xFF SWAP1 DUP2 OR SWAP1 SWAP2 SSTORE PUSH1 0x40 MLOAD SWAP1 DUP2 MSTORE PUSH32 0x7F26B83FF96E1F2B6A682F133852F6798A09C465DA95921460CEFB3847402498 SWAP1 PUSH1 0x20 ADD PUSH1 0x40 MLOAD DUP1 SWAP2 SUB SWAP1 LOG1 JUMPDEST JUMP JUMPDEST PUSH2 0x4399 DUP1 PUSH2 0xE6 PUSH1 0x0 CODECOPY PUSH1 0x0 RETURN INVALID PUSH1 0x80 PUSH1 0x40 MSTORE CALLVALUE DUP1 ISZERO PUSH2 0x10 JUMPI PUSH1 0x0 DUP1 REVERT JUMPDEST POP PUSH1 0x4 CALLDATASIZE LT PUSH2 0x2F4 JUMPI PUSH1 0x0 CALLDATALOAD PUSH1 0xE0 SHR DUP1 PUSH4 0x84B0196E GT PUSH2 0x191 JUMPI DUP1 PUSH4 0xBDC8144B GT PUSH2 0xE3 JUMPI DUP1 PUSH4 0xDEAF30B2 GT PUSH2 0x97 JUMPI DUP1 PUSH4 0xECF70858 GT PUSH2 0x71 JUMPI DUP1 PUSH4 0xECF70858 EQ PUSH2 0x6C0 JUMPI DUP1 PUSH4 0xF36FBAB7 EQ PUSH2 0x6CA JUMPI DUP1 PUSH4 0xFB1BB9DE EQ PUSH2 0x6DD JUMPI PUSH1 0x0 DUP1 REVERT JUMPDEST DUP1 PUSH4 0xDEAF30B2 EQ PUSH2 0x66E JUMPI DUP1 PUSH4 0xE63AB1E9 EQ PUSH2 0x68F JUMPI DUP1 PUSH4 0xE94B2F44 EQ PUSH2 0x6B6 JUMPI PUSH1 0x0 DUP1 REVERT JUMPDEST DUP1 PUSH4 0xCCE4705B GT PUSH2 0xC8 JUMPI DUP1 PUSH4 0xCCE4705B EQ PUSH2 0x635 JUMPI DUP1 PUSH4 0xCF756FDF EQ PUSH2 0x648 JUMPI DUP1 PUSH4 0xD547741F EQ PUSH2 0x65B JUMPI PUSH1 0x0 DUP1 REVERT JUMPDEST DUP1 PUSH4 0xBDC8144B EQ PUSH2 0x60F JUMPI DUP1 PUSH4 0xCA15C873 EQ PUSH2 0x622 JUMPI PUSH1 0x0 DUP1 REVERT JUMPDEST DUP1 PUSH4 0x992A7DFB GT PUSH2 0x145 JUMPI DUP1 PUSH4 0xB54790D8 GT PUSH2 0x11F JUMPI DUP1 PUSH4 0xB54790D8 EQ PUSH2 0x5E8 JUMPI DUP1 PUSH4 0xB6B55F25 EQ PUSH2 0x5F2 JUMPI DUP1 PUSH4 0xBCA7093D EQ PUSH2 0x605 JUMPI PUSH1 0x0 DUP1 REVERT JUMPDEST DUP1 PUSH4 0x992A7DFB EQ PUSH2 0x592 JUMPI DUP1 PUSH4 0xA2011B3F EQ PUSH2 0x5B9 JUMPI DUP1 PUSH4 0xA217FDDF EQ PUSH2 0x5E0 JUMPI PUSH1 0x0 DUP1 REVERT JUMPDEST DUP1 PUSH4 0x9010D07C GT PUSH2 0x176 JUMPI DUP1 PUSH4 0x9010D07C EQ PUSH2 0x533 JUMPI DUP1 PUSH4 0x91D14854 EQ PUSH2 0x546 JUMPI DUP1 PUSH4 0x973B294F EQ PUSH2 0x57F JUMPI PUSH1 0x0 DUP1 REVERT JUMPDEST DUP1 PUSH4 0x84B0196E EQ PUSH2 0x505 JUMPI DUP1 PUSH4 0x86DA0323 EQ PUSH2 0x520 JUMPI PUSH1 0x0 DUP1 REVERT JUMPDEST DUP1 PUSH4 0x5849B93D GT PUSH2 0x24A JUMPI DUP1 PUSH4 0x6D9DD201 GT PUSH2 0x1FE JUMPI DUP1 PUSH4 0x81548FED GT PUSH2 0x1D8 JUMPI DUP1 PUSH4 0x81548FED EQ PUSH2 0x4D7 JUMPI DUP1 PUSH4 0x8456CB59 EQ PUSH2 0x4EA JUMPI DUP1 PUSH4 0x849FC72B EQ PUSH2 0x4F2 JUMPI PUSH1 0x0 DUP1 REVERT JUMPDEST DUP1 PUSH4 0x6D9DD201 EQ PUSH2 0x4AA JUMPI DUP1 PUSH4 0x7B80889B EQ PUSH2 0x4BE JUMPI DUP1 PUSH4 0x7B9F7D94 EQ PUSH2 0x4C8 JUMPI PUSH1 0x0 DUP1 REVERT JUMPDEST DUP1 PUSH4 0x64D4C819 GT PUSH2 0x22F JUMPI DUP1 PUSH4 0x64D4C819 EQ PUSH2 0x441 JUMPI DUP1 PUSH4 0x6A8A6894 EQ PUSH2 0x468 JUMPI DUP1 PUSH4 0x6C19E783 EQ PUSH2 0x497 JUMPI PUSH1 0x0 DUP1 REVERT JUMPDEST DUP1 PUSH4 0x5849B93D EQ PUSH2 0x422 JUMPI DUP1 PUSH4 0x5C975ABB EQ PUSH2 0x436 JUMPI PUSH1 0x0 DUP1 REVERT JUMPDEST DUP1 PUSH4 0x248A9CA3 GT PUSH2 0x2AC JUMPI DUP1 PUSH4 0x36568ABE GT PUSH2 0x286 JUMPI DUP1 PUSH4 0x36568ABE EQ PUSH2 0x3F3 JUMPI DUP1 PUSH4 0x3F4BA83A EQ PUSH2 0x406 JUMPI DUP1 PUSH4 0x49A7A26D EQ PUSH2 0x40E JUMPI PUSH1 0x0 DUP1 REVERT JUMPDEST DUP1 PUSH4 0x248A9CA3 EQ PUSH2 0x388 JUMPI DUP1 PUSH4 0x2F2FF15D EQ PUSH2 0x3B9 JUMPI DUP1 PUSH4 0x30D3C534 EQ PUSH2 0x3CC JUMPI PUSH1 0x0 DUP1 REVERT JUMPDEST DUP1 PUSH4 0x1FFC9A7 GT PUSH2 0x2DD JUMPI DUP1 PUSH4 0x1FFC9A7 EQ PUSH2 0x321 JUMPI DUP1 PUSH4 0x1F879433 EQ PUSH2 0x349 JUMPI DUP1 PUSH4 0x238AC933 EQ PUSH2 0x35C JUMPI PUSH1 0x0 DUP1 REVERT JUMPDEST DUP1 PUSH4 0x1228E15 EQ PUSH2 0x2F9 JUMPI DUP1 PUSH4 0x1569E3A EQ PUSH2 0x30E JUMPI JUMPDEST PUSH1 0x0 DUP1 REVERT JUMPDEST PUSH2 0x30C PUSH2 0x307 CALLDATASIZE PUSH1 0x4 PUSH2 0x3C01 JUMP JUMPDEST PUSH2 0x704 JUMP JUMPDEST STOP JUMPDEST PUSH2 0x30C PUSH2 0x31C CALLDATASIZE PUSH1 0x4 PUSH2 0x3C88 JUMP JUMPDEST PUSH2 0xC4A JUMP JUMPDEST PUSH2 0x334 PUSH2 0x32F CALLDATASIZE PUSH1 0x4 PUSH2 0x3CA5 JUMP JUMPDEST PUSH2 0xDE0 JUMP JUMPDEST PUSH1 0x40 MLOAD SWAP1 ISZERO ISZERO DUP2 MSTORE PUSH1 0x20 ADD JUMPDEST PUSH1 0x40 MLOAD DUP1 SWAP2 SUB SWAP1 RETURN JUMPDEST PUSH2 0x30C PUSH2 0x357 CALLDATASIZE PUSH1 0x4 PUSH2 0x3C88 JUMP JUMPDEST PUSH2 0xE3C JUMP JUMPDEST PUSH2 0x163 SLOAD PUSH2 0x370 SWAP1 PUSH1 0x1 PUSH1 0x1 PUSH1 0xA0 SHL SUB AND DUP2 JUMP JUMPDEST PUSH1 0x40 MLOAD PUSH1 0x1 PUSH1 0x1 PUSH1 0xA0 SHL SUB SWAP1 SWAP2 AND DUP2 MSTORE PUSH1 0x20 ADD PUSH2 0x340 JUMP JUMPDEST PUSH2 0x3AB PUSH2 0x396 CALLDATASIZE PUSH1 0x4 PUSH2 0x3CE7 JUMP JUMPDEST PUSH1 0x0 SWAP1 DUP2 MSTORE PUSH1 0x65 PUSH1 0x20 MSTORE PUSH1 0x40 SWAP1 KECCAK256 PUSH1 0x1 ADD SLOAD SWAP1 JUMP JUMPDEST PUSH1 0x40 MLOAD SWAP1 DUP2 MSTORE PUSH1 0x20 ADD PUSH2 0x340 JUMP JUMPDEST PUSH2 0x30C PUSH2 0x3C7 CALLDATASIZE PUSH1 0x4 PUSH2 0x3D00 JUMP JUMPDEST PUSH2 0xF21 JUMP JUMPDEST PUSH2 0x3AB PUSH32 0x372387BD01807B923229B5BD1E46F8A6B8815B5D5DB581DB3E993C5168467B27 DUP2 JUMP JUMPDEST PUSH2 0x30C PUSH2 0x401 CALLDATASIZE PUSH1 0x4 PUSH2 0x3D00 JUMP JUMPDEST PUSH2 0xF4B JUMP JUMPDEST PUSH2 0x30C PUSH2 0xFD7 JUMP JUMPDEST PUSH2 0x162 SLOAD PUSH2 0x370 SWAP1 PUSH1 0x1 PUSH1 0x1 PUSH1 0xA0 SHL SUB AND DUP2 JUMP JUMPDEST PUSH2 0x161 SLOAD PUSH2 0x370 SWAP1 PUSH1 0x1 PUSH1 0x1 PUSH1 0xA0 SHL SUB AND DUP2 JUMP JUMPDEST PUSH1 0xC9 SLOAD PUSH1 0xFF AND PUSH2 0x334 JUMP JUMPDEST PUSH2 0x3AB PUSH32 0xB1DD0BED30D3B8AB9FC76313ECB7DB14F6B497D5F1F7859FA5CB5811C1CA3073 DUP2 JUMP JUMPDEST PUSH2 0x334 PUSH2 0x476 CALLDATASIZE PUSH1 0x4 PUSH2 0x3D30 JUMP JUMPDEST PUSH2 0x16C PUSH1 0x20 SWAP1 DUP2 MSTORE PUSH1 0x0 SWAP3 DUP4 MSTORE PUSH1 0x40 DUP1 DUP5 KECCAK256 SWAP1 SWAP2 MSTORE SWAP1 DUP3 MSTORE SWAP1 KECCAK256 SLOAD PUSH1 0xFF AND DUP2 JUMP JUMPDEST PUSH2 0x30C PUSH2 0x4A5 CALLDATASIZE PUSH1 0x4 PUSH2 0x3C88 JUMP JUMPDEST PUSH2 0x100C JUMP JUMPDEST PUSH2 0x164 SLOAD PUSH2 0x370 SWAP1 PUSH1 0x1 PUSH1 0x1 PUSH1 0xA0 SHL SUB AND DUP2 JUMP JUMPDEST PUSH2 0x3AB PUSH2 0x165 SLOAD DUP2 JUMP JUMPDEST PUSH2 0x3AB PUSH8 0x6F05B59D3B20000 DUP2 JUMP JUMPDEST PUSH2 0x30C PUSH2 0x4E5 CALLDATASIZE PUSH1 0x4 PUSH2 0x3CE7 JUMP JUMPDEST PUSH2 0x10F1 JUMP JUMPDEST PUSH2 0x30C PUSH2 0x12B1 JUMP JUMPDEST PUSH2 0x30C PUSH2 0x500 CALLDATASIZE PUSH1 0x4 PUSH2 0x3D5C JUMP JUMPDEST PUSH2 0x12E3 JUMP JUMPDEST PUSH2 0x50D PUSH2 0x16B4 JUMP JUMPDEST PUSH1 0x40 MLOAD PUSH2 0x340 SWAP8 SWAP7 SWAP6 SWAP5 SWAP4 SWAP3 SWAP2 SWAP1 PUSH2 0x3EBA JUMP JUMPDEST PUSH2 0x30C PUSH2 0x52E CALLDATASIZE PUSH1 0x4 PUSH2 0x3CE7 JUMP JUMPDEST PUSH2 0x1776 JUMP JUMPDEST PUSH2 0x370 PUSH2 0x541 CALLDATASIZE PUSH1 0x4 PUSH2 0x3F44 JUMP JUMPDEST PUSH2 0x199C JUMP JUMPDEST PUSH2 0x334 PUSH2 0x554 CALLDATASIZE PUSH1 0x4 PUSH2 0x3D00 JUMP JUMPDEST PUSH1 0x0 SWAP2 DUP3 MSTORE PUSH1 0x65 PUSH1 0x20 SWAP1 DUP2 MSTORE PUSH1 0x40 DUP1 DUP5 KECCAK256 PUSH1 0x1 PUSH1 0x1 PUSH1 0xA0 SHL SUB SWAP4 SWAP1 SWAP4 AND DUP5 MSTORE SWAP2 SWAP1 MSTORE SWAP1 KECCAK256 SLOAD PUSH1 0xFF AND SWAP1 JUMP JUMPDEST PUSH2 0x30C PUSH2 0x58D CALLDATASIZE PUSH1 0x4 PUSH2 0x3CE7 JUMP JUMPDEST PUSH2 0x19BB JUMP JUMPDEST PUSH2 0x5A5 PUSH2 0x5A0 CALLDATASIZE PUSH1 0x4 PUSH2 0x3CE7 JUMP JUMPDEST PUSH2 0x19EE JUMP JUMPDEST PUSH1 0x40 MLOAD PUSH2 0x340 SWAP9 SWAP8 SWAP7 SWAP6 SWAP5 SWAP4 SWAP3 SWAP2 SWAP1 PUSH2 0x3F7C JUMP JUMPDEST PUSH2 0x3AB PUSH32 0x61C92169EF077349011FF0B1383C894D86C5F0B41D986366B58A6CF31E93BEDA DUP2 JUMP JUMPDEST PUSH2 0x3AB PUSH1 0x0 DUP2 JUMP JUMPDEST PUSH2 0x3AB PUSH2 0x168 SLOAD DUP2 JUMP JUMPDEST PUSH2 0x30C PUSH2 0x600 CALLDATASIZE PUSH1 0x4 PUSH2 0x3CE7 JUMP JUMPDEST PUSH2 0x1A55 JUMP JUMPDEST PUSH2 0x3AB PUSH2 0x16A SLOAD DUP2 JUMP JUMPDEST PUSH2 0x30C PUSH2 0x61D CALLDATASIZE PUSH1 0x4 PUSH2 0x3CE7 JUMP JUMPDEST PUSH2 0x1CB7 JUMP JUMPDEST PUSH2 0x3AB PUSH2 0x630 CALLDATASIZE PUSH1 0x4 PUSH2 0x3CE7 JUMP JUMPDEST PUSH2 0x1D1E JUMP JUMPDEST PUSH2 0x30C PUSH2 0x643 CALLDATASIZE PUSH1 0x4 PUSH2 0x3CE7 JUMP JUMPDEST PUSH2 0x1D35 JUMP JUMPDEST PUSH2 0x30C PUSH2 0x656 CALLDATASIZE PUSH1 0x4 PUSH2 0x3FE6 JUMP JUMPDEST PUSH2 0x1F49 JUMP JUMPDEST PUSH2 0x30C PUSH2 0x669 CALLDATASIZE PUSH1 0x4 PUSH2 0x3D00 JUMP JUMPDEST PUSH2 0x2150 JUMP JUMPDEST PUSH2 0x3AB PUSH2 0x67C CALLDATASIZE PUSH1 0x4 PUSH2 0x3C88 JUMP JUMPDEST PUSH2 0x16B PUSH1 0x20 MSTORE PUSH1 0x0 SWAP1 DUP2 MSTORE PUSH1 0x40 SWAP1 KECCAK256 SLOAD DUP2 JUMP JUMPDEST PUSH2 0x3AB PUSH32 0x65D7A28E3265B37A6474929F336521B332C1681B933F6CB9F3376673440D862A DUP2 JUMP JUMPDEST PUSH2 0x3AB PUSH2 0x167 SLOAD DUP2 JUMP JUMPDEST PUSH2 0x3AB PUSH2 0x166 SLOAD DUP2 JUMP JUMPDEST PUSH2 0x30C PUSH2 0x6D8 CALLDATASIZE PUSH1 0x4 PUSH2 0x3D30 JUMP JUMPDEST PUSH2 0x2175 JUMP JUMPDEST PUSH2 0x3AB PUSH32 0x427DA25FE773164F88948D3E215C94B6554E2ED5E5F203A821C9F2F6131CF75A DUP2 JUMP JUMPDEST PUSH32 0x372387BD01807B923229B5BD1E46F8A6B8815B5D5DB581DB3E993C5168467B27 PUSH2 0x72E DUP2 PUSH2 0x23BE JUMP JUMPDEST PUSH2 0x736 PUSH2 0x23C8 JUMP JUMPDEST PUSH2 0x74F CALLER PUSH2 0x164 SLOAD PUSH1 0x1 PUSH1 0x1 PUSH1 0xA0 SHL SUB AND SWAP1 ADDRESS DUP8 PUSH2 0x241D JUMP JUMPDEST PUSH2 0x165 SLOAD PUSH1 0x0 JUMPDEST DUP5 MLOAD DUP2 LT ISZERO PUSH2 0xB06 JUMPI PUSH1 0x0 DUP6 DUP3 DUP2 MLOAD DUP2 LT PUSH2 0x773 JUMPI PUSH2 0x773 PUSH2 0x4037 JUMP JUMPDEST PUSH1 0x20 MUL PUSH1 0x20 ADD ADD MLOAD SWAP1 POP PUSH2 0x169 DUP1 SLOAD SWAP1 POP DUP2 LT PUSH2 0x7E9 JUMPI PUSH1 0x40 MLOAD PUSH3 0x461BCD PUSH1 0xE5 SHL DUP2 MSTORE PUSH1 0x20 PUSH1 0x4 DUP3 ADD MSTORE PUSH1 0x29 PUSH1 0x24 DUP3 ADD MSTORE PUSH32 0x53796D6D696F536F6C7665724465706F7369746F723A20496E76616C69642072 PUSH1 0x44 DUP3 ADD MSTORE PUSH9 0x195C5D595CDD081251 PUSH1 0xBA SHL PUSH1 0x64 DUP3 ADD MSTORE PUSH1 0x84 ADD JUMPDEST PUSH1 0x40 MLOAD DUP1 SWAP2 SUB SWAP1 REVERT JUMPDEST PUSH1 0x0 PUSH2 0x169 DUP3 DUP2 SLOAD DUP2 LT PUSH2 0x7FF JUMPI PUSH2 0x7FF PUSH2 0x4037 JUMP JUMPDEST PUSH1 0x0 SWAP2 DUP3 MSTORE PUSH1 0x20 SWAP1 SWAP2 KECCAK256 PUSH1 0x4 PUSH1 0x8 SWAP1 SWAP3 MUL ADD DUP2 ADD SLOAD PUSH1 0xFF AND SWAP1 DUP2 GT ISZERO PUSH2 0x827 JUMPI PUSH2 0x827 PUSH2 0x3F66 JUMP JUMPDEST EQ PUSH2 0x89A JUMPI PUSH1 0x40 MLOAD PUSH3 0x461BCD PUSH1 0xE5 SHL DUP2 MSTORE PUSH1 0x20 PUSH1 0x4 DUP3 ADD MSTORE PUSH1 0x2F PUSH1 0x24 DUP3 ADD MSTORE PUSH32 0x53796D6D696F536F6C7665724465706F7369746F723A20496E76616C69642061 PUSH1 0x44 DUP3 ADD MSTORE PUSH32 0x6363657074656420726571756573740000000000000000000000000000000000 PUSH1 0x64 DUP3 ADD MSTORE PUSH1 0x84 ADD PUSH2 0x7E0 JUMP JUMPDEST PUSH1 0x0 DUP6 DUP4 DUP2 MLOAD DUP2 LT PUSH2 0x8AE JUMPI PUSH2 0x8AE PUSH2 0x4037 JUMP JUMPDEST PUSH1 0x20 MUL PUSH1 0x20 ADD ADD MLOAD SWAP1 POP PUSH2 0x169 DUP3 DUP2 SLOAD DUP2 LT PUSH2 0x8CC JUMPI PUSH2 0x8CC PUSH2 0x4037 JUMP JUMPDEST SWAP1 PUSH1 0x0 MSTORE PUSH1 0x20 PUSH1 0x0 KECCAK256 SWAP1 PUSH1 0x8 MUL ADD PUSH1 0x3 ADD SLOAD DUP2 LT ISZERO PUSH2 0x955 JUMPI PUSH1 0x40 DUP1 MLOAD PUSH3 0x461BCD PUSH1 0xE5 SHL DUP2 MSTORE PUSH1 0x20 PUSH1 0x4 DUP3 ADD MSTORE PUSH1 0x24 DUP2 ADD SWAP2 SWAP1 SWAP2 MSTORE PUSH32 0x53796D6D696F536F6C7665724465706F7369746F723A205061796261636B2072 PUSH1 0x44 DUP3 ADD MSTORE PUSH32 0x6174696F20697320746F6F206C6F7720666F7220746869732072657175657374 PUSH1 0x64 DUP3 ADD MSTORE PUSH1 0x84 ADD PUSH2 0x7E0 JUMP JUMPDEST PUSH2 0x95F DUP2 DUP6 PUSH2 0x4063 JUMP JUMPDEST SWAP4 POP PUSH2 0x169 DUP3 DUP2 SLOAD DUP2 LT PUSH2 0x975 JUMPI PUSH2 0x975 PUSH2 0x4037 JUMP JUMPDEST SWAP1 PUSH1 0x0 MSTORE PUSH1 0x20 PUSH1 0x0 KECCAK256 SWAP1 PUSH1 0x8 MUL ADD PUSH1 0x2 ADD SLOAD PUSH2 0x167 PUSH1 0x0 DUP3 DUP3 SLOAD PUSH2 0x999 SWAP2 SWAP1 PUSH2 0x4076 JUMP JUMPDEST SWAP3 POP POP DUP2 SWAP1 SSTORE POP PUSH1 0x1 PUSH2 0x169 DUP4 DUP2 SLOAD DUP2 LT PUSH2 0x9B6 JUMPI PUSH2 0x9B6 PUSH2 0x4037 JUMP JUMPDEST SWAP1 PUSH1 0x0 MSTORE PUSH1 0x20 PUSH1 0x0 KECCAK256 SWAP1 PUSH1 0x8 MUL ADD PUSH1 0x4 ADD PUSH1 0x0 PUSH2 0x100 EXP DUP2 SLOAD DUP2 PUSH1 0xFF MUL NOT AND SWAP1 DUP4 PUSH1 0x4 DUP2 GT ISZERO PUSH2 0x9E8 JUMPI PUSH2 0x9E8 PUSH2 0x3F66 JUMP JUMPDEST MUL OR SWAP1 SSTORE POP DUP1 PUSH2 0x169 DUP4 DUP2 SLOAD DUP2 LT PUSH2 0xA02 JUMPI PUSH2 0xA02 PUSH2 0x4037 JUMP JUMPDEST SWAP1 PUSH1 0x0 MSTORE PUSH1 0x20 PUSH1 0x0 KECCAK256 SWAP1 PUSH1 0x8 MUL ADD PUSH1 0x5 ADD DUP2 SWAP1 SSTORE POP TIMESTAMP PUSH2 0x169 DUP4 DUP2 SLOAD DUP2 LT PUSH2 0xA2C JUMPI PUSH2 0xA2C PUSH2 0x4037 JUMP JUMPDEST PUSH1 0x0 SWAP2 DUP3 MSTORE PUSH1 0x20 SWAP1 SWAP2 KECCAK256 PUSH1 0x6 PUSH1 0x8 SWAP1 SWAP3 MUL ADD ADD SSTORE PUSH2 0x16A SLOAD PUSH2 0xA4E SWAP1 TIMESTAMP PUSH2 0x4063 JUMP JUMPDEST PUSH2 0x169 DUP4 DUP2 SLOAD DUP2 LT PUSH2 0xA62 JUMPI PUSH2 0xA62 PUSH2 0x4037 JUMP JUMPDEST SWAP1 PUSH1 0x0 MSTORE PUSH1 0x20 PUSH1 0x0 KECCAK256 SWAP1 PUSH1 0x8 MUL ADD PUSH1 0x7 ADD DUP2 SWAP1 SSTORE POP PUSH2 0x169 DUP3 DUP2 SLOAD DUP2 LT PUSH2 0xA8B JUMPI PUSH2 0xA8B PUSH2 0x4037 JUMP JUMPDEST SWAP1 PUSH1 0x0 MSTORE PUSH1 0x20 PUSH1 0x0 KECCAK256 SWAP1 PUSH1 0x8 MUL ADD PUSH1 0x2 ADD SLOAD PUSH2 0x16B PUSH1 0x0 PUSH2 0x169 DUP6 DUP2 SLOAD DUP2 LT PUSH2 0xAB6 JUMPI PUSH2 0xAB6 PUSH2 0x4037 JUMP JUMPDEST PUSH1 0x0 SWAP2 DUP3 MSTORE PUSH1 0x20 DUP1 DUP4 KECCAK256 PUSH1 0x1 PUSH1 0x8 SWAP1 SWAP4 MUL ADD SWAP2 SWAP1 SWAP2 ADD SLOAD PUSH1 0x1 PUSH1 0x1 PUSH1 0xA0 SHL SUB AND DUP4 MSTORE DUP3 ADD SWAP3 SWAP1 SWAP3 MSTORE PUSH1 0x40 ADD DUP2 KECCAK256 DUP1 SLOAD SWAP1 SWAP2 SWAP1 PUSH2 0xAF3 SWAP1 DUP5 SWAP1 PUSH2 0x4076 JUMP JUMPDEST SWAP1 SWAP2 SSTORE POP POP PUSH1 0x1 SWAP1 SWAP3 ADD SWAP2 POP PUSH2 0x756 SWAP1 POP JUMP JUMPDEST POP PUSH2 0x164 SLOAD PUSH1 0x40 MLOAD PUSH32 0x70A0823100000000000000000000000000000000000000000000000000000000 DUP2 MSTORE ADDRESS PUSH1 0x4 DUP3 ADD MSTORE DUP3 SWAP2 PUSH1 0x1 PUSH1 0x1 PUSH1 0xA0 SHL SUB AND SWAP1 PUSH4 0x70A08231 SWAP1 PUSH1 0x24 ADD PUSH1 0x20 PUSH1 0x40 MLOAD DUP1 DUP4 SUB DUP2 DUP7 GAS STATICCALL ISZERO DUP1 ISZERO PUSH2 0xB69 JUMPI RETURNDATASIZE PUSH1 0x0 DUP1 RETURNDATACOPY RETURNDATASIZE PUSH1 0x0 REVERT JUMPDEST POP POP POP POP PUSH1 0x40 MLOAD RETURNDATASIZE PUSH1 0x1F NOT PUSH1 0x1F DUP3 ADD AND DUP3 ADD DUP1 PUSH1 0x40 MSTORE POP DUP2 ADD SWAP1 PUSH2 0xB8D SWAP2 SWAP1 PUSH2 0x4089 JUMP JUMPDEST LT ISZERO PUSH2 0xC01 JUMPI PUSH1 0x40 MLOAD PUSH3 0x461BCD PUSH1 0xE5 SHL DUP2 MSTORE PUSH1 0x20 PUSH1 0x4 DUP3 ADD MSTORE PUSH1 0x34 PUSH1 0x24 DUP3 ADD MSTORE PUSH32 0x53796D6D696F536F6C7665724465706F7369746F723A20496E73756666696369 PUSH1 0x44 DUP3 ADD MSTORE PUSH32 0x656E7420636F6E74726163742062616C616E6365000000000000000000000000 PUSH1 0x64 DUP3 ADD MSTORE PUSH1 0x84 ADD PUSH2 0x7E0 JUMP JUMPDEST PUSH2 0x165 DUP2 SWAP1 SSTORE PUSH1 0x40 MLOAD PUSH32 0x2A6E9B91B054F05821C68F8FBD6354E6A1B29A9AD492BF0F81E04CD591ED5B16 SWAP1 PUSH2 0xC3B SWAP1 DUP8 SWAP1 DUP8 SWAP1 DUP8 SWAP1 PUSH2 0x40A2 JUMP JUMPDEST PUSH1 0x40 MLOAD DUP1 SWAP2 SUB SWAP1 LOG1 POP POP POP POP POP JUMP JUMPDEST PUSH32 0x61C92169EF077349011FF0B1383C894D86C5F0B41D986366B58A6CF31E93BEDA PUSH2 0xC74 DUP2 PUSH2 0x23BE JUMP JUMPDEST PUSH1 0x1 PUSH1 0x1 PUSH1 0xA0 SHL SUB DUP3 AND PUSH2 0xCD6 JUMPI PUSH1 0x40 MLOAD PUSH3 0x461BCD PUSH1 0xE5 SHL DUP2 MSTORE PUSH1 0x20 PUSH1 0x4 DUP3 ADD MSTORE PUSH1 0x23 PUSH1 0x24 DUP3 ADD MSTORE PUSH32 0x53796D6D696F536F6C7665724465706F7369746F723A205A65726F2061646472 PUSH1 0x44 DUP3 ADD MSTORE PUSH3 0x657373 PUSH1 0xE8 SHL PUSH1 0x64 DUP3 ADD MSTORE PUSH1 0x84 ADD PUSH2 0x7E0 JUMP JUMPDEST PUSH2 0x161 DUP1 SLOAD PUSH20 0xFFFFFFFFFFFFFFFFFFFFFFFFFFFFFFFFFFFFFFFF NOT AND PUSH1 0x1 PUSH1 0x1 PUSH1 0xA0 SHL SUB DUP5 DUP2 AND SWAP2 SWAP1 SWAP2 OR SWAP1 SWAP2 SSTORE PUSH2 0x164 SLOAD AND PUSH2 0xD11 PUSH2 0x24D4 JUMP JUMPDEST PUSH2 0x164 SLOAD PUSH1 0x1 PUSH1 0x1 PUSH1 0xA0 SHL SUB DUP3 DUP2 AND SWAP2 AND EQ DUP1 PUSH2 0xD35 JUMPI POP PUSH1 0x1 PUSH1 0x1 PUSH1 0xA0 SHL SUB DUP2 AND ISZERO JUMPDEST PUSH2 0xDA7 JUMPI PUSH1 0x40 MLOAD PUSH3 0x461BCD PUSH1 0xE5 SHL DUP2 MSTORE PUSH1 0x20 PUSH1 0x4 DUP3 ADD MSTORE PUSH1 0x34 PUSH1 0x24 DUP3 ADD MSTORE PUSH32 0x53796D6D696F536F6C7665724465706F7369746F723A20436F6C6C6174657261 PUSH1 0x44 DUP3 ADD MSTORE PUSH32 0x6C2063616E206E6F74206265206368616E676564000000000000000000000000 PUSH1 0x64 DUP3 ADD MSTORE PUSH1 0x84 ADD PUSH2 0x7E0 JUMP JUMPDEST PUSH1 0x40 MLOAD PUSH1 0x1 PUSH1 0x1 PUSH1 0xA0 SHL SUB DUP5 AND SWAP1 PUSH32 0xE5AF12E9ABB914276D8E0A5A01AA97D26F4C81E3002646F90824C20639531044 SWAP1 PUSH1 0x0 SWAP1 LOG2 POP POP POP JUMP JUMPDEST PUSH1 0x0 PUSH32 0xFFFFFFFF00000000000000000000000000000000000000000000000000000000 DUP3 AND PUSH32 0x5A05180F00000000000000000000000000000000000000000000000000000000 EQ DUP1 PUSH2 0xE36 JUMPI POP PUSH2 0xE36 DUP3 PUSH2 0x2696 JUMP JUMPDEST SWAP3 SWAP2 POP POP JUMP JUMPDEST PUSH32 0x61C92169EF077349011FF0B1383C894D86C5F0B41D986366B58A6CF31E93BEDA PUSH2 0xE66 DUP2 PUSH2 0x23BE JUMP JUMPDEST PUSH1 0x1 PUSH1 0x1 PUSH1 0xA0 SHL SUB DUP3 AND PUSH2 0xEC8 JUMPI PUSH1 0x40 MLOAD PUSH3 0x461BCD PUSH1 0xE5 SHL DUP2 MSTORE PUSH1 0x20 PUSH1 0x4 DUP3 ADD MSTORE PUSH1 0x23 PUSH1 0x24 DUP3 ADD MSTORE PUSH32 0x53796D6D696F536F6C7665724465706F7369746F723A205A65726F2061646472 PUSH1 0x44 DUP3 ADD MSTORE PUSH3 0x657373 PUSH1 0xE8 SHL PUSH1 0x64 DUP3 ADD MSTORE PUSH1 0x84 ADD PUSH2 0x7E0 JUMP JUMPDEST PUSH2 0x162 DUP1 SLOAD PUSH20 0xFFFFFFFFFFFFFFFFFFFFFFFFFFFFFFFFFFFFFFFF NOT AND PUSH1 0x1 PUSH1 0x1 PUSH1 0xA0 SHL SUB DUP5 AND SWAP1 DUP2 OR SWAP1 SWAP2 SSTORE PUSH1 0x40 MLOAD PUSH32 0x73C48E8C0360F51D3049FAA15518D29248FBAD9E77AD28AD94BCD1712854CA9B SWAP1 PUSH1 0x0 SWAP1 LOG2 POP POP JUMP JUMPDEST PUSH1 0x0 DUP3 DUP2 MSTORE PUSH1 0x65 PUSH1 0x20 MSTORE PUSH1 0x40 SWAP1 KECCAK256 PUSH1 0x1 ADD SLOAD PUSH2 0xF3C DUP2 PUSH2 0x23BE JUMP JUMPDEST PUSH2 0xF46 DUP4 DUP4 PUSH2 0x272D JUMP JUMPDEST POP POP POP JUMP JUMPDEST PUSH1 0x1 PUSH1 0x1 PUSH1 0xA0 SHL SUB DUP2 AND CALLER EQ PUSH2 0xFC9 JUMPI PUSH1 0x40 MLOAD PUSH3 0x461BCD PUSH1 0xE5 SHL DUP2 MSTORE PUSH1 0x20 PUSH1 0x4 DUP3 ADD MSTORE PUSH1 0x2F PUSH1 0x24 DUP3 ADD MSTORE PUSH32 0x416363657373436F6E74726F6C3A2063616E206F6E6C792072656E6F756E6365 PUSH1 0x44 DUP3 ADD MSTORE PUSH32 0x20726F6C657320666F722073656C660000000000000000000000000000000000 PUSH1 0x64 DUP3 ADD MSTORE PUSH1 0x84 ADD PUSH2 0x7E0 JUMP JUMPDEST PUSH2 0xFD3 DUP3 DUP3 PUSH2 0x274F JUMP JUMPDEST POP POP JUMP JUMPDEST PUSH32 0x427DA25FE773164F88948D3E215C94B6554E2ED5E5F203A821C9F2F6131CF75A PUSH2 0x1001 DUP2 PUSH2 0x23BE JUMP JUMPDEST PUSH2 0x1009 PUSH2 0x2771 JUMP JUMPDEST POP JUMP JUMPDEST PUSH32 0x61C92169EF077349011FF0B1383C894D86C5F0B41D986366B58A6CF31E93BEDA PUSH2 0x1036 DUP2 PUSH2 0x23BE JUMP JUMPDEST PUSH1 0x1 PUSH1 0x1 PUSH1 0xA0 SHL SUB DUP3 AND PUSH2 0x1098 JUMPI PUSH1 0x40 MLOAD PUSH3 0x461BCD PUSH1 0xE5 SHL DUP2 MSTORE PUSH1 0x20 PUSH1 0x4 DUP3 ADD MSTORE PUSH1 0x23 PUSH1 0x24 DUP3 ADD MSTORE PUSH32 0x53796D6D696F536F6C7665724465706F7369746F723A205A65726F2061646472 PUSH1 0x44 DUP3 ADD MSTORE PUSH3 0x657373 PUSH1 0xE8 SHL PUSH1 0x64 DUP3 ADD MSTORE PUSH1 0x84 ADD PUSH2 0x7E0 JUMP JUMPDEST PUSH2 0x163 DUP1 SLOAD PUSH20 0xFFFFFFFFFFFFFFFFFFFFFFFFFFFFFFFFFFFFFFFF NOT AND PUSH1 0x1 PUSH1 0x1 PUSH1 0xA0 SHL SUB DUP5 AND SWAP1 DUP2 OR SWAP1 SWAP2 SSTORE PUSH1 0x40 MLOAD PUSH32 0x93D2BD623FE74229D9510C70EC2DA10109749943DB6D68437555A01B1844BEAE SWAP1 PUSH1 0x0 SWAP1 LOG2 POP POP JUMP JUMPDEST PUSH32 0x372387BD01807B923229B5BD1E46F8A6B8815B5D5DB581DB3E993C5168467B27 PUSH2 0x111B DUP2 PUSH2 0x23BE JUMP JUMPDEST PUSH2 0x1123 PUSH2 0x23C8 JUMP JUMPDEST PUSH2 0x169 SLOAD DUP3 LT PUSH2 0x1187 JUMPI PUSH1 0x40 MLOAD PUSH3 0x461BCD PUSH1 0xE5 SHL DUP2 MSTORE PUSH1 0x20 PUSH1 0x4 DUP3 ADD MSTORE PUSH1 0x29 PUSH1 0x24 DUP3 ADD MSTORE PUSH32 0x53796D6D696F536F6C7665724465706F7369746F723A20496E76616C69642072 PUSH1 0x44 DUP3 ADD MSTORE PUSH9 0x195C5D595CDD081251 PUSH1 0xBA SHL PUSH1 0x64 DUP3 ADD MSTORE PUSH1 0x84 ADD PUSH2 0x7E0 JUMP JUMPDEST PUSH1 0x0 PUSH2 0x169 DUP4 DUP2 SLOAD DUP2 LT PUSH2 0x119D JUMPI PUSH2 0x119D PUSH2 0x4037 JUMP JUMPDEST PUSH1 0x0 SWAP2 DUP3 MSTORE PUSH1 0x20 DUP3 KECCAK256 PUSH1 0x8 SWAP1 SWAP2 MUL ADD SWAP2 POP PUSH1 0x4 DUP1 DUP4 ADD SLOAD PUSH1 0xFF AND SWAP1 DUP2 GT ISZERO PUSH2 0x11C7 JUMPI PUSH2 0x11C7 PUSH2 0x3F66 JUMP JUMPDEST EQ PUSH2 0x123A JUMPI PUSH1 0x40 MLOAD PUSH3 0x461BCD PUSH1 0xE5 SHL DUP2 MSTORE PUSH1 0x20 PUSH1 0x4 DUP3 ADD MSTORE PUSH1 0x25 PUSH1 0x24 DUP3 ADD MSTORE PUSH32 0x53796D6D696F536F6C7665724465706F7369746F723A20496E76616C69642073 PUSH1 0x44 DUP3 ADD MSTORE PUSH32 0x7461747573000000000000000000000000000000000000000000000000000000 PUSH1 0x64 DUP3 ADD MSTORE PUSH1 0x84 ADD PUSH2 0x7E0 JUMP JUMPDEST PUSH1 0x4 DUP2 DUP2 ADD DUP1 SLOAD PUSH1 0xFF NOT AND SWAP1 SWAP2 OR SWAP1 SSTORE PUSH1 0x2 DUP2 ADD SLOAD PUSH1 0x1 DUP3 ADD SLOAD PUSH1 0x1 PUSH1 0x1 PUSH1 0xA0 SHL SUB AND PUSH1 0x0 SWAP1 DUP2 MSTORE PUSH2 0x16B PUSH1 0x20 MSTORE PUSH1 0x40 DUP2 KECCAK256 DUP1 SLOAD SWAP1 SWAP2 SWAP1 PUSH2 0x127C SWAP1 DUP5 SWAP1 PUSH2 0x4076 JUMP JUMPDEST SWAP1 SWAP2 SSTORE POP POP PUSH1 0x40 MLOAD DUP4 SWAP1 PUSH32 0xF12D2A5D8B37BA59B2FA12DEDCA1D420EE1C5DA121EB1878497BC1D29076B5C0 SWAP1 PUSH1 0x0 SWAP1 LOG2 POP POP POP JUMP JUMPDEST PUSH32 0x65D7A28E3265B37A6474929F336521B332C1681B933F6CB9F3376673440D862A PUSH2 0x12DB DUP2 PUSH2 0x23BE JUMP JUMPDEST PUSH2 0x1009 PUSH2 0x27C3 JUMP JUMPDEST PUSH2 0x12EB PUSH2 0x23C8 JUMP JUMPDEST PUSH1 0x1 PUSH1 0x1 PUSH1 0xA0 SHL SUB DUP5 AND PUSH2 0x1367 JUMPI PUSH1 0x40 MLOAD PUSH3 0x461BCD PUSH1 0xE5 SHL DUP2 MSTORE PUSH1 0x20 PUSH1 0x4 DUP3 ADD MSTORE PUSH1 0x30 PUSH1 0x24 DUP3 ADD MSTORE PUSH32 0x53796D6D696F536F6C7665724465706F7369746F723A205A65726F2061646472 PUSH1 0x44 DUP3 ADD MSTORE PUSH32 0x65737320666F7220726563656976657200000000000000000000000000000000 PUSH1 0x64 DUP3 ADD MSTORE PUSH1 0x84 ADD PUSH2 0x7E0 JUMP JUMPDEST TIMESTAMP DUP3 GT PUSH2 0x13DC JUMPI PUSH1 0x40 MLOAD PUSH3 0x461BCD PUSH1 0xE5 SHL DUP2 MSTORE PUSH1 0x20 PUSH1 0x4 DUP3 ADD MSTORE PUSH1 0x35 PUSH1 0x24 DUP3 ADD MSTORE PUSH32 0x53796D6D696F536F6C7665724465706F7369746F723A20446561646C696E6520 PUSH1 0x44 DUP3 ADD MSTORE PUSH32 0x6D75737420626520696E20746865206675747572650000000000000000000000 PUSH1 0x64 DUP3 ADD MSTORE PUSH1 0x84 ADD PUSH2 0x7E0 JUMP JUMPDEST PUSH1 0x1 PUSH1 0x1 PUSH1 0xA0 SHL SUB DUP5 AND PUSH1 0x0 SWAP1 DUP2 MSTORE PUSH2 0x16C PUSH1 0x20 SWAP1 DUP2 MSTORE PUSH1 0x40 DUP1 DUP4 KECCAK256 DUP7 DUP5 MSTORE SWAP1 SWAP2 MSTORE SWAP1 KECCAK256 SLOAD PUSH1 0xFF AND ISZERO PUSH2 0x1477 JUMPI PUSH1 0x40 MLOAD PUSH3 0x461BCD PUSH1 0xE5 SHL DUP2 MSTORE PUSH1 0x20 PUSH1 0x4 DUP3 ADD MSTORE PUSH1 0x29 PUSH1 0x24 DUP3 ADD MSTORE PUSH32 0x53796D6D696F536F6C7665724465706F7369746F723A204E6F6E636520616C72 PUSH1 0x44 DUP3 ADD MSTORE PUSH32 0x6561647920757365640000000000000000000000000000000000000000000000 PUSH1 0x64 DUP3 ADD MSTORE PUSH1 0x84 ADD PUSH2 0x7E0 JUMP JUMPDEST PUSH2 0x1485 DUP7 DUP7 DUP7 DUP7 DUP7 DUP7 PUSH2 0x2800 JUMP JUMPDEST PUSH2 0x14F7 JUMPI PUSH1 0x40 MLOAD PUSH3 0x461BCD PUSH1 0xE5 SHL DUP2 MSTORE PUSH1 0x20 PUSH1 0x4 DUP3 ADD MSTORE PUSH1 0x28 PUSH1 0x24 DUP3 ADD MSTORE PUSH32 0x53796D6D696F536F6C7665724465706F7369746F723A20496E76616C69642073 PUSH1 0x44 DUP3 ADD MSTORE PUSH32 0x69676E6174757265000000000000000000000000000000000000000000000000 PUSH1 0x64 DUP3 ADD MSTORE PUSH1 0x84 ADD PUSH2 0x7E0 JUMP JUMPDEST PUSH1 0x1 PUSH1 0x1 PUSH1 0xA0 SHL SUB DUP5 AND PUSH1 0x0 DUP2 DUP2 MSTORE PUSH2 0x16C PUSH1 0x20 SWAP1 DUP2 MSTORE PUSH1 0x40 DUP1 DUP4 KECCAK256 DUP8 DUP5 MSTORE DUP3 MSTORE SWAP2 DUP3 SWAP1 KECCAK256 DUP1 SLOAD PUSH1 0xFF NOT AND PUSH1 0x1 OR SWAP1 SSTORE DUP2 MLOAD PUSH2 0x100 DUP2 ADD SWAP1 SWAP3 MSTORE SWAP2 DUP2 MSTORE PUSH2 0x169 SWAP2 DUP2 ADD PUSH2 0x1541 CALLER SWAP1 JUMP JUMPDEST PUSH1 0x1 PUSH1 0x1 PUSH1 0xA0 SHL SUB AND DUP2 MSTORE PUSH1 0x20 DUP2 ADD DUP10 SWAP1 MSTORE PUSH1 0x40 DUP2 ADD DUP9 SWAP1 MSTORE PUSH1 0x60 ADD PUSH1 0x0 DUP2 MSTORE PUSH1 0x0 PUSH1 0x20 DUP1 DUP4 ADD DUP3 SWAP1 MSTORE PUSH1 0x40 DUP1 DUP5 ADD DUP4 SWAP1 MSTORE PUSH1 0x60 SWAP4 DUP5 ADD DUP4 SWAP1 MSTORE DUP6 SLOAD PUSH1 0x1 DUP1 DUP3 ADD DUP9 SSTORE SWAP7 DUP5 MSTORE SWAP3 DUP3 SWAP1 KECCAK256 DUP6 MLOAD PUSH1 0x8 SWAP1 SWAP5 MUL ADD DUP1 SLOAD PUSH20 0xFFFFFFFFFFFFFFFFFFFFFFFFFFFFFFFFFFFFFFFF NOT SWAP1 DUP2 AND PUSH1 0x1 PUSH1 0x1 PUSH1 0xA0 SHL SUB SWAP6 DUP7 AND OR DUP3 SSTORE SWAP3 DUP7 ADD MLOAD DUP2 DUP9 ADD DUP1 SLOAD SWAP1 SWAP5 AND SWAP5 AND SWAP4 SWAP1 SWAP4 OR SWAP1 SWAP2 SSTORE DUP4 ADD MLOAD PUSH1 0x2 DUP3 ADD SSTORE SWAP1 DUP3 ADD MLOAD PUSH1 0x3 DUP3 ADD SSTORE PUSH1 0x80 DUP3 ADD MLOAD PUSH1 0x4 DUP1 DUP4 ADD DUP1 SLOAD SWAP5 SWAP6 SWAP4 SWAP5 SWAP3 SWAP4 SWAP1 SWAP3 PUSH1 0xFF NOT AND SWAP2 DUP5 SWAP1 DUP2 GT ISZERO PUSH2 0x160C JUMPI PUSH2 0x160C PUSH2 0x3F66 JUMP JUMPDEST MUL OR SWAP1 SSTORE POP PUSH1 0xA0 DUP3 ADD MLOAD PUSH1 0x5 DUP3 ADD SSTORE PUSH1 0xC0 DUP3 ADD MLOAD PUSH1 0x6 DUP3 ADD SSTORE PUSH1 0xE0 SWAP1 SWAP2 ADD MLOAD PUSH1 0x7 SWAP1 SWAP2 ADD SSTORE CALLER PUSH1 0x0 SWAP1 DUP2 MSTORE PUSH2 0x16B PUSH1 0x20 MSTORE PUSH1 0x40 DUP2 KECCAK256 DUP1 SLOAD DUP9 SWAP3 SWAP1 PUSH2 0x1651 SWAP1 DUP5 SWAP1 PUSH2 0x4063 JUMP JUMPDEST SWAP1 SWAP2 SSTORE POP POP PUSH2 0x169 SLOAD PUSH1 0x1 PUSH1 0x1 PUSH1 0xA0 SHL SUB DUP6 AND SWAP1 CALLER SWAP1 PUSH2 0x1673 SWAP1 PUSH1 0x1 SWAP1 PUSH2 0x4076 JUMP JUMPDEST PUSH1 0x40 DUP1 MLOAD DUP11 DUP2 MSTORE PUSH1 0x20 DUP2 ADD DUP9 SWAP1 MSTORE PUSH32 0x766E8C55DDE32095D8C203180E4F32C7407C445E0A87007877162126D257B25 SWAP2 ADD PUSH1 0x40 MLOAD DUP1 SWAP2 SUB SWAP1 LOG4 POP POP POP POP POP POP JUMP JUMPDEST PUSH1 0x0 PUSH1 0x60 DUP1 PUSH1 0x0 DUP1 PUSH1 0x0 PUSH1 0x60 PUSH1 0xFB SLOAD PUSH1 0x0 DUP1 SHL EQ DUP1 ISZERO PUSH2 0x16D4 JUMPI POP PUSH1 0xFC SLOAD ISZERO JUMPDEST PUSH2 0x1720 JUMPI PUSH1 0x40 MLOAD PUSH3 0x461BCD PUSH1 0xE5 SHL DUP2 MSTORE PUSH1 0x20 PUSH1 0x4 DUP3 ADD MSTORE PUSH1 0x15 PUSH1 0x24 DUP3 ADD MSTORE PUSH32 0x4549503731323A20556E696E697469616C697A65640000000000000000000000 PUSH1 0x44 DUP3 ADD MSTORE PUSH1 0x64 ADD PUSH2 0x7E0 JUMP JUMPDEST PUSH2 0x1728 PUSH2 0x28A8 JUMP JUMPDEST PUSH2 0x1730 PUSH2 0x293A JUMP JUMPDEST PUSH1 0x40 DUP1 MLOAD PUSH1 0x0 DUP1 DUP3 MSTORE PUSH1 0x20 DUP3 ADD SWAP1 SWAP3 MSTORE PUSH32 0xF00000000000000000000000000000000000000000000000000000000000000 SWAP12 SWAP4 SWAP11 POP SWAP2 SWAP9 POP CHAINID SWAP8 POP ADDRESS SWAP7 POP SWAP5 POP SWAP3 POP SWAP1 POP JUMP JUMPDEST PUSH2 0x177E PUSH2 0x23C8 JUMP JUMPDEST PUSH2 0x169 SLOAD DUP2 LT PUSH2 0x17E2 JUMPI PUSH1 0x40 MLOAD PUSH3 0x461BCD PUSH1 0xE5 SHL DUP2 MSTORE PUSH1 0x20 PUSH1 0x4 DUP3 ADD MSTORE PUSH1 0x29 PUSH1 0x24 DUP3 ADD MSTORE PUSH32 0x53796D6D696F536F6C7665724465706F7369746F723A20496E76616C69642072 PUSH1 0x44 DUP3 ADD MSTORE PUSH9 0x195C5D595CDD081251 PUSH1 0xBA SHL PUSH1 0x64 DUP3 ADD MSTORE PUSH1 0x84 ADD PUSH2 0x7E0 JUMP JUMPDEST PUSH1 0x0 PUSH2 0x169 DUP3 DUP2 SLOAD DUP2 LT PUSH2 0x17F8 JUMPI PUSH2 0x17F8 PUSH2 0x4037 JUMP JUMPDEST PUSH1 0x0 SWAP2 DUP3 MSTORE PUSH1 0x20 SWAP1 SWAP2 KECCAK256 PUSH1 0x8 SWAP1 SWAP2 MUL ADD SWAP1 POP PUSH1 0x1 PUSH1 0x4 DUP1 DUP4 ADD SLOAD PUSH1 0xFF AND SWAP1 DUP2 GT ISZERO PUSH2 0x1825 JUMPI PUSH2 0x1825 PUSH2 0x3F66 JUMP JUMPDEST EQ PUSH2 0x1898 JUMPI PUSH1 0x40 MLOAD PUSH3 0x461BCD PUSH1 0xE5 SHL DUP2 MSTORE PUSH1 0x20 PUSH1 0x4 DUP3 ADD MSTORE PUSH1 0x37 PUSH1 0x24 DUP3 ADD MSTORE PUSH32 0x53796D6D696F536F6C7665724465706F7369746F723A2052657175657374206E PUSH1 0x44 DUP3 ADD MSTORE PUSH32 0x6F7420726561647920666F72207769746864726177616C000000000000000000 PUSH1 0x64 DUP3 ADD MSTORE PUSH1 0x84 ADD PUSH2 0x7E0 JUMP JUMPDEST TIMESTAMP DUP2 PUSH1 0x7 ADD SLOAD GT ISZERO PUSH2 0x1912 JUMPI PUSH1 0x40 MLOAD PUSH3 0x461BCD PUSH1 0xE5 SHL DUP2 MSTORE PUSH1 0x20 PUSH1 0x4 DUP3 ADD MSTORE PUSH1 0x39 PUSH1 0x24 DUP3 ADD MSTORE PUSH32 0x53796D6D696F536F6C7665724465706F7369746F723A2052657175657374206E PUSH1 0x44 DUP3 ADD MSTORE PUSH32 0x6F742070617373207769746864726177616C20706572696F6400000000000000 PUSH1 0x64 DUP3 ADD MSTORE PUSH1 0x84 ADD PUSH2 0x7E0 JUMP JUMPDEST PUSH1 0x4 DUP2 ADD DUP1 SLOAD PUSH1 0xFF NOT AND PUSH1 0x2 OR SWAP1 SSTORE PUSH1 0x5 DUP2 ADD SLOAD PUSH2 0x165 DUP1 SLOAD DUP3 SWAP2 SWAP1 PUSH1 0x0 SWAP1 PUSH2 0x193C SWAP1 DUP5 SWAP1 PUSH2 0x4076 JUMP JUMPDEST SWAP1 SWAP2 SSTORE POP POP DUP2 SLOAD PUSH2 0x164 SLOAD PUSH2 0x195E SWAP2 PUSH1 0x1 PUSH1 0x1 PUSH1 0xA0 SHL SUB SWAP2 DUP3 AND SWAP2 AND DUP4 PUSH2 0x2949 JUMP JUMPDEST DUP2 SLOAD PUSH1 0x40 MLOAD PUSH1 0x1 PUSH1 0x1 PUSH1 0xA0 SHL SUB SWAP1 SWAP2 AND SWAP1 DUP5 SWAP1 PUSH32 0x4CE122B005E10B197F4CAF028D92E008A684C370AD8F93528E07DED8214240E1 SWAP1 PUSH1 0x0 SWAP1 LOG3 POP POP POP JUMP JUMPDEST PUSH1 0x0 DUP3 DUP2 MSTORE PUSH1 0x97 PUSH1 0x20 MSTORE PUSH1 0x40 DUP2 KECCAK256 PUSH2 0x19B4 SWAP1 DUP4 PUSH2 0x2992 JUMP JUMPDEST SWAP4 SWAP3 POP POP POP JUMP JUMPDEST PUSH32 0x61C92169EF077349011FF0B1383C894D86C5F0B41D986366B58A6CF31E93BEDA PUSH2 0x19E5 DUP2 PUSH2 0x23BE JUMP JUMPDEST PUSH2 0xFD3 DUP3 PUSH2 0x299E JUMP JUMPDEST PUSH2 0x169 DUP2 DUP2 SLOAD DUP2 LT PUSH2 0x19FF JUMPI PUSH1 0x0 DUP1 REVERT JUMPDEST PUSH1 0x0 SWAP2 DUP3 MSTORE PUSH1 0x20 SWAP1 SWAP2 KECCAK256 PUSH1 0x8 SWAP1 SWAP2 MUL ADD DUP1 SLOAD PUSH1 0x1 DUP3 ADD SLOAD PUSH1 0x2 DUP4 ADD SLOAD PUSH1 0x3 DUP5 ADD SLOAD PUSH1 0x4 DUP6 ADD SLOAD PUSH1 0x5 DUP7 ADD SLOAD PUSH1 0x6 DUP8 ADD SLOAD PUSH1 0x7 SWAP1 SWAP8 ADD SLOAD PUSH1 0x1 PUSH1 0x1 PUSH1 0xA0 SHL SUB SWAP7 DUP8 AND SWAP9 POP SWAP5 SWAP1 SWAP6 AND SWAP6 SWAP3 SWAP5 SWAP2 SWAP4 PUSH1 0xFF SWAP1 SWAP2 AND SWAP3 SWAP1 DUP9 JUMP JUMPDEST PUSH2 0x1A5D PUSH2 0x23C8 JUMP JUMPDEST PUSH2 0x1A65 PUSH2 0x29DA JUMP JUMPDEST PUSH1 0x0 DUP2 GT PUSH2 0x1ADB JUMPI PUSH1 0x40 MLOAD PUSH3 0x461BCD PUSH1 0xE5 SHL DUP2 MSTORE PUSH1 0x20 PUSH1 0x4 DUP3 ADD MSTORE PUSH1 0x34 PUSH1 0x24 DUP3 ADD MSTORE PUSH32 0x53796D6D696F536F6C7665724465706F7369746F723A20416D6F756E74206D75 PUSH1 0x44 DUP3 ADD MSTORE PUSH32 0x73742062652067726561746572207468616E2030000000000000000000000000 PUSH1 0x64 DUP3 ADD MSTORE PUSH1 0x84 ADD PUSH2 0x7E0 JUMP JUMPDEST PUSH2 0x166 SLOAD DUP2 PUSH2 0x167 SLOAD PUSH2 0x1AEE SWAP2 SWAP1 PUSH2 0x4063 JUMP JUMPDEST GT ISZERO PUSH2 0x1B62 JUMPI PUSH1 0x40 MLOAD PUSH3 0x461BCD PUSH1 0xE5 SHL DUP2 MSTORE PUSH1 0x20 PUSH1 0x4 DUP3 ADD MSTORE PUSH1 0x2C PUSH1 0x24 DUP3 ADD MSTORE PUSH32 0x53796D6D696F536F6C7665724465706F7369746F723A204465706F736974206C PUSH1 0x44 DUP3 ADD MSTORE PUSH32 0x696D697420726561636865640000000000000000000000000000000000000000 PUSH1 0x64 DUP3 ADD MSTORE PUSH1 0x84 ADD PUSH2 0x7E0 JUMP JUMPDEST PUSH2 0x164 SLOAD PUSH1 0x1 PUSH1 0x1 PUSH1 0xA0 SHL SUB AND PUSH2 0x1B7B DUP2 CALLER ADDRESS DUP6 PUSH2 0x241D JUMP JUMPDEST DUP2 PUSH2 0x167 PUSH1 0x0 DUP3 DUP3 SLOAD PUSH2 0x1B8E SWAP2 SWAP1 PUSH2 0x4063 JUMP JUMPDEST SWAP1 SWAP2 SSTORE POP POP PUSH1 0x40 MLOAD DUP3 DUP2 MSTORE CALLER SWAP1 PUSH32 0xE1FFFCC4923D04B559F4D29A8BFC6CDA04EB5B0D3C460751C2402C5C5CC9109C SWAP1 PUSH1 0x20 ADD PUSH1 0x40 MLOAD DUP1 SWAP2 SUB SWAP1 LOG2 PUSH2 0x161 SLOAD PUSH2 0x1BE3 SWAP1 PUSH1 0x1 PUSH1 0x1 PUSH1 0xA0 SHL SUB DUP4 DUP2 AND SWAP2 AND DUP5 PUSH2 0x2A35 JUMP JUMPDEST PUSH2 0x161 SLOAD PUSH2 0x162 SLOAD PUSH1 0x40 MLOAD PUSH32 0x2F4F21E200000000000000000000000000000000000000000000000000000000 DUP2 MSTORE PUSH1 0x1 PUSH1 0x1 PUSH1 0xA0 SHL SUB SWAP2 DUP3 AND PUSH1 0x4 DUP3 ADD MSTORE PUSH1 0x24 DUP2 ADD DUP6 SWAP1 MSTORE SWAP2 AND SWAP1 PUSH4 0x2F4F21E2 SWAP1 PUSH1 0x44 ADD PUSH1 0x0 PUSH1 0x40 MLOAD DUP1 DUP4 SUB DUP2 PUSH1 0x0 DUP8 DUP1 EXTCODESIZE ISZERO DUP1 ISZERO PUSH2 0x1C4E JUMPI PUSH1 0x0 DUP1 REVERT JUMPDEST POP GAS CALL ISZERO DUP1 ISZERO PUSH2 0x1C62 JUMPI RETURNDATASIZE PUSH1 0x0 DUP1 RETURNDATACOPY RETURNDATASIZE PUSH1 0x0 REVERT JUMPDEST POP POP PUSH2 0x162 SLOAD PUSH1 0x40 MLOAD DUP6 DUP2 MSTORE PUSH1 0x1 PUSH1 0x1 PUSH1 0xA0 SHL SUB SWAP1 SWAP2 AND SWAP3 POP CALLER SWAP2 POP PUSH32 0x42A31D51415A86588240E32BF72025C881C4C9AADA6E283CE50DC32F5A64717B SWAP1 PUSH1 0x20 ADD PUSH1 0x40 MLOAD DUP1 SWAP2 SUB SWAP1 LOG3 POP PUSH2 0x1009 PUSH1 0x1 PUSH2 0x12F SSTORE JUMP JUMPDEST PUSH32 0x61C92169EF077349011FF0B1383C894D86C5F0B41D986366B58A6CF31E93BEDA PUSH2 0x1CE1 DUP2 PUSH2 0x23BE JUMP JUMPDEST PUSH2 0x166 DUP3 SWAP1 SSTORE PUSH1 0x40 MLOAD DUP3 DUP2 MSTORE PUSH32 0xA1B2AC18B42A8CCD9C95E39420259ED780B3F6D890E5ECD36AF7A4DC570348FF SWAP1 PUSH1 0x20 ADD PUSH1 0x40 MLOAD DUP1 SWAP2 SUB SWAP1 LOG1 POP POP JUMP JUMPDEST PUSH1 0x0 DUP2 DUP2 MSTORE PUSH1 0x97 PUSH1 0x20 MSTORE PUSH1 0x40 DUP2 KECCAK256 PUSH2 0xE36 SWAP1 PUSH2 0x2B13 JUMP JUMPDEST PUSH2 0x1D3D PUSH2 0x23C8 JUMP JUMPDEST PUSH2 0x169 SLOAD DUP2 LT PUSH2 0x1DA1 JUMPI PUSH1 0x40 MLOAD PUSH3 0x461BCD PUSH1 0xE5 SHL DUP2 MSTORE PUSH1 0x20 PUSH1 0x4 DUP3 ADD MSTORE PUSH1 0x29 PUSH1 0x24 DUP3 ADD MSTORE PUSH32 0x53796D6D696F536F6C7665724465706F7369746F723A20496E76616C69642072 PUSH1 0x44 DUP3 ADD MSTORE PUSH9 0x195C5D595CDD081251 PUSH1 0xBA SHL PUSH1 0x64 DUP3 ADD MSTORE PUSH1 0x84 ADD PUSH2 0x7E0 JUMP JUMPDEST PUSH1 0x0 PUSH2 0x169 DUP3 DUP2 SLOAD DUP2 LT PUSH2 0x1DB7 JUMPI PUSH2 0x1DB7 PUSH2 0x4037 JUMP JUMPDEST SWAP1 PUSH1 0x0 MSTORE PUSH1 0x20 PUSH1 0x0 KECCAK256 SWAP1 PUSH1 0x8 MUL ADD SWAP1 POP PUSH2 0x1DCE CALLER SWAP1 JUMP JUMPDEST PUSH1 0x1 DUP3 ADD SLOAD PUSH1 0x1 PUSH1 0x1 PUSH1 0xA0 SHL SUB SWAP1 DUP2 AND SWAP2 AND EQ PUSH2 0x1E53 JUMPI PUSH1 0x40 MLOAD PUSH3 0x461BCD PUSH1 0xE5 SHL DUP2 MSTORE PUSH1 0x20 PUSH1 0x4 DUP3 ADD MSTORE PUSH1 0x3F PUSH1 0x24 DUP3 ADD MSTORE PUSH32 0x53796D6D696F536F6C7665724465706F7369746F723A204F6E6C792074686520 PUSH1 0x44 DUP3 ADD MSTORE PUSH32 0x73656E646572206F6620726571756573742063616E2063616E63656C20697400 PUSH1 0x64 DUP3 ADD MSTORE PUSH1 0x84 ADD PUSH2 0x7E0 JUMP JUMPDEST PUSH1 0x0 PUSH1 0x4 DUP1 DUP4 ADD SLOAD PUSH1 0xFF AND SWAP1 DUP2 GT ISZERO PUSH2 0x1E6E JUMPI PUSH2 0x1E6E PUSH2 0x3F66 JUMP JUMPDEST EQ PUSH2 0x1EE1 JUMPI PUSH1 0x40 MLOAD PUSH3 0x461BCD PUSH1 0xE5 SHL DUP2 MSTORE PUSH1 0x20 PUSH1 0x4 DUP3 ADD MSTORE PUSH1 0x25 PUSH1 0x24 DUP3 ADD MSTORE PUSH32 0x53796D6D696F536F6C7665724465706F7369746F723A20496E76616C69642073 PUSH1 0x44 DUP3 ADD MSTORE PUSH32 0x7461747573000000000000000000000000000000000000000000000000000000 PUSH1 0x64 DUP3 ADD MSTORE PUSH1 0x84 ADD PUSH2 0x7E0 JUMP JUMPDEST PUSH1 0x4 DUP2 ADD DUP1 SLOAD PUSH1 0xFF NOT AND PUSH1 0x3 OR SWAP1 SSTORE PUSH1 0x2 DUP2 ADD SLOAD CALLER PUSH1 0x0 SWAP1 DUP2 MSTORE PUSH2 0x16B PUSH1 0x20 MSTORE PUSH1 0x40 DUP2 KECCAK256 DUP1 SLOAD SWAP1 SWAP2 SWAP1 PUSH2 0x1F15 SWAP1 DUP5 SWAP1 PUSH2 0x4076 JUMP JUMPDEST SWAP1 SWAP2 SSTORE POP POP PUSH1 0x40 MLOAD DUP3 SWAP1 PUSH32 0x8F3015A84BD69B67997EDB78D8928AD670DCB6243DF596529AE1E07F93EAF35A SWAP1 PUSH1 0x0 SWAP1 LOG2 POP POP JUMP JUMPDEST PUSH1 0x0 SLOAD PUSH2 0x100 SWAP1 DIV PUSH1 0xFF AND ISZERO DUP1 DUP1 ISZERO PUSH2 0x1F69 JUMPI POP PUSH1 0x0 SLOAD PUSH1 0x1 PUSH1 0xFF SWAP1 SWAP2 AND LT JUMPDEST DUP1 PUSH2 0x1F83 JUMPI POP ADDRESS EXTCODESIZE ISZERO DUP1 ISZERO PUSH2 0x1F83 JUMPI POP PUSH1 0x0 SLOAD PUSH1 0xFF AND PUSH1 0x1 EQ JUMPDEST PUSH2 0x1FF5 JUMPI PUSH1 0x40 MLOAD PUSH3 0x461BCD PUSH1 0xE5 SHL DUP2 MSTORE PUSH1 0x20 PUSH1 0x4 DUP3 ADD MSTORE PUSH1 0x2E PUSH1 0x24 DUP3 ADD MSTORE PUSH32 0x496E697469616C697A61626C653A20636F6E747261637420697320616C726561 PUSH1 0x44 DUP3 ADD MSTORE PUSH32 0x647920696E697469616C697A6564000000000000000000000000000000000000 PUSH1 0x64 DUP3 ADD MSTORE PUSH1 0x84 ADD PUSH2 0x7E0 JUMP JUMPDEST PUSH1 0x0 DUP1 SLOAD PUSH1 0xFF NOT AND PUSH1 0x1 OR SWAP1 SSTORE DUP1 ISZERO PUSH2 0x2018 JUMPI PUSH1 0x0 DUP1 SLOAD PUSH2 0xFF00 NOT AND PUSH2 0x100 OR SWAP1 SSTORE JUMPDEST PUSH2 0x2020 PUSH2 0x2B1D JUMP JUMPDEST PUSH2 0x2028 PUSH2 0x2B90 JUMP JUMPDEST PUSH2 0x2030 PUSH2 0x2BFB JUMP JUMPDEST PUSH2 0x20A4 PUSH1 0x40 MLOAD DUP1 PUSH1 0x40 ADD PUSH1 0x40 MSTORE DUP1 PUSH1 0x14 DUP2 MSTORE PUSH1 0x20 ADD PUSH32 0x4F6E436861696E53796D6D696F5661756C745632000000000000000000000000 DUP2 MSTORE POP PUSH1 0x40 MLOAD DUP1 PUSH1 0x40 ADD PUSH1 0x40 MSTORE DUP1 PUSH1 0x1 DUP2 MSTORE PUSH1 0x20 ADD PUSH32 0x3100000000000000000000000000000000000000000000000000000000000000 DUP2 MSTORE POP PUSH2 0x2C6E JUMP JUMPDEST PUSH2 0x20AF PUSH1 0x0 CALLER PUSH2 0x272D JUMP JUMPDEST PUSH2 0x20D9 PUSH32 0x61C92169EF077349011FF0B1383C894D86C5F0B41D986366B58A6CF31E93BEDA CALLER PUSH2 0x272D JUMP JUMPDEST PUSH2 0x20E2 DUP6 PUSH2 0xC4A JUMP JUMPDEST PUSH2 0x20EB DUP5 PUSH2 0xE3C JUMP JUMPDEST PUSH2 0x20F4 DUP3 PUSH2 0x1CB7 JUMP JUMPDEST PUSH2 0x20FD DUP4 PUSH2 0x100C JUMP JUMPDEST PUSH2 0x2107 PUSH1 0x64 PUSH2 0x299E JUMP JUMPDEST DUP1 ISZERO PUSH2 0x2149 JUMPI PUSH1 0x0 DUP1 SLOAD PUSH2 0xFF00 NOT AND SWAP1 SSTORE PUSH1 0x40 MLOAD PUSH1 0x1 DUP2 MSTORE PUSH32 0x7F26B83FF96E1F2B6A682F133852F6798A09C465DA95921460CEFB3847402498 SWAP1 PUSH1 0x20 ADD PUSH2 0xC3B JUMP JUMPDEST POP POP POP POP POP JUMP JUMPDEST PUSH1 0x0 DUP3 DUP2 MSTORE PUSH1 0x65 PUSH1 0x20 MSTORE PUSH1 0x40 SWAP1 KECCAK256 PUSH1 0x1 ADD SLOAD PUSH2 0x216B DUP2 PUSH2 0x23BE JUMP JUMPDEST PUSH2 0xF46 DUP4 DUP4 PUSH2 0x274F JUMP JUMPDEST PUSH32 0x372387BD01807B923229B5BD1E46F8A6B8815B5D5DB581DB3E993C5168467B27 PUSH2 0x219F DUP2 PUSH2 0x23BE JUMP JUMPDEST PUSH2 0x21A7 PUSH2 0x23C8 JUMP JUMPDEST PUSH1 0x1 PUSH1 0x1 PUSH1 0xA0 SHL SUB DUP4 AND PUSH2 0x2223 JUMPI PUSH1 0x40 MLOAD PUSH3 0x461BCD PUSH1 0xE5 SHL DUP2 MSTORE PUSH1 0x20 PUSH1 0x4 DUP3 ADD MSTORE PUSH1 0x30 PUSH1 0x24 DUP3 ADD MSTORE PUSH32 0x53796D6D696F536F6C7665724465706F7369746F723A205A65726F2061646472 PUSH1 0x44 DUP3 ADD MSTORE PUSH32 0x65737320666F7220726563656976657200000000000000000000000000000000 PUSH1 0x64 DUP3 ADD MSTORE PUSH1 0x84 ADD PUSH2 0x7E0 JUMP JUMPDEST PUSH1 0x0 DUP3 GT PUSH2 0x2299 JUMPI PUSH1 0x40 MLOAD PUSH3 0x461BCD PUSH1 0xE5 SHL DUP2 MSTORE PUSH1 0x20 PUSH1 0x4 DUP3 ADD MSTORE PUSH1 0x34 PUSH1 0x24 DUP3 ADD MSTORE PUSH32 0x53796D6D696F536F6C7665724465706F7369746F723A20416D6F756E74206D75 PUSH1 0x44 DUP3 ADD MSTORE PUSH32 0x73742062652067726561746572207468616E2030000000000000000000000000 PUSH1 0x64 DUP3 ADD MSTORE PUSH1 0x84 ADD PUSH2 0x7E0 JUMP JUMPDEST PUSH2 0x164 SLOAD PUSH1 0x40 MLOAD PUSH32 0x70A0823100000000000000000000000000000000000000000000000000000000 DUP2 MSTORE ADDRESS PUSH1 0x4 DUP3 ADD MSTORE PUSH1 0x1 PUSH1 0x1 PUSH1 0xA0 SHL SUB SWAP1 SWAP2 AND SWAP1 PUSH1 0x0 SWAP1 DUP3 SWAP1 PUSH4 0x70A08231 SWAP1 PUSH1 0x24 ADD PUSH1 0x20 PUSH1 0x40 MLOAD DUP1 DUP4 SUB DUP2 DUP7 GAS STATICCALL ISZERO DUP1 ISZERO PUSH2 0x2300 JUMPI RETURNDATASIZE PUSH1 0x0 DUP1 RETURNDATACOPY RETURNDATASIZE PUSH1 0x0 REVERT JUMPDEST POP POP POP POP PUSH1 0x40 MLOAD RETURNDATASIZE PUSH1 0x1F NOT PUSH1 0x1F DUP3 ADD AND DUP3 ADD DUP1 PUSH1 0x40 MSTORE POP DUP2 ADD SWAP1 PUSH2 0x2324 SWAP2 SWAP1 PUSH2 0x4089 JUMP JUMPDEST SWAP1 POP PUSH2 0x165 SLOAD DUP2 PUSH2 0x2335 SWAP2 SWAP1 PUSH2 0x4076 JUMP JUMPDEST DUP5 GT ISZERO PUSH2 0x23AA JUMPI PUSH1 0x40 MLOAD PUSH3 0x461BCD PUSH1 0xE5 SHL DUP2 MSTORE PUSH1 0x20 PUSH1 0x4 DUP3 ADD MSTORE PUSH1 0x2B PUSH1 0x24 DUP3 ADD MSTORE PUSH32 0x53796D6D696F536F6C7665724465706F7369746F723A20496E73756666696369 PUSH1 0x44 DUP3 ADD MSTORE PUSH32 0x656E742062616C616E6365000000000000000000000000000000000000000000 PUSH1 0x64 DUP3 ADD MSTORE PUSH1 0x84 ADD PUSH2 0x7E0 JUMP JUMPDEST PUSH2 0x2149 PUSH1 0x1 PUSH1 0x1 PUSH1 0xA0 SHL SUB DUP4 AND DUP7 DUP7 PUSH2 0x2949 JUMP JUMPDEST PUSH2 0x1009 DUP2 CALLER PUSH2 0x2CE3 JUMP JUMPDEST PUSH1 0xC9 SLOAD PUSH1 0xFF AND ISZERO PUSH2 0x241B JUMPI PUSH1 0x40 MLOAD PUSH3 0x461BCD PUSH1 0xE5 SHL DUP2 MSTORE PUSH1 0x20 PUSH1 0x4 DUP3 ADD MSTORE PUSH1 0x10 PUSH1 0x24 DUP3 ADD MSTORE PUSH32 0x5061757361626C653A2070617573656400000000000000000000000000000000 PUSH1 0x44 DUP3 ADD MSTORE PUSH1 0x64 ADD PUSH2 0x7E0 JUMP JUMPDEST JUMP JUMPDEST PUSH1 0x40 MLOAD PUSH1 0x1 PUSH1 0x1 PUSH1 0xA0 SHL SUB DUP1 DUP6 AND PUSH1 0x24 DUP4 ADD MSTORE DUP4 AND PUSH1 0x44 DUP3 ADD MSTORE PUSH1 0x64 DUP2 ADD DUP3 SWAP1 MSTORE PUSH2 0x24CE SWAP1 DUP6 SWAP1 PUSH32 0x23B872DD00000000000000000000000000000000000000000000000000000000 SWAP1 PUSH1 0x84 ADD JUMPDEST PUSH1 0x40 DUP1 MLOAD PUSH1 0x1F NOT DUP2 DUP5 SUB ADD DUP2 MSTORE SWAP2 SWAP1 MSTORE PUSH1 0x20 DUP2 ADD DUP1 MLOAD PUSH28 0xFFFFFFFFFFFFFFFFFFFFFFFFFFFFFFFFFFFFFFFFFFFFFFFFFFFFFFFF AND PUSH32 0xFFFFFFFF00000000000000000000000000000000000000000000000000000000 SWAP1 SWAP4 AND SWAP3 SWAP1 SWAP3 OR SWAP1 SWAP2 MSTORE PUSH2 0x2D58 JUMP JUMPDEST POP POP POP POP JUMP JUMPDEST PUSH2 0x161 PUSH1 0x0 SWAP1 SLOAD SWAP1 PUSH2 0x100 EXP SWAP1 DIV PUSH1 0x1 PUSH1 0x1 PUSH1 0xA0 SHL SUB AND PUSH1 0x1 PUSH1 0x1 PUSH1 0xA0 SHL SUB AND PUSH4 0x5C1548FB PUSH1 0x40 MLOAD DUP2 PUSH4 0xFFFFFFFF AND PUSH1 0xE0 SHL DUP2 MSTORE PUSH1 0x4 ADD PUSH1 0x20 PUSH1 0x40 MLOAD DUP1 DUP4 SUB DUP2 DUP7 GAS STATICCALL ISZERO DUP1 ISZERO PUSH2 0x2528 JUMPI RETURNDATASIZE PUSH1 0x0 DUP1 RETURNDATACOPY RETURNDATASIZE PUSH1 0x0 REVERT JUMPDEST POP POP POP POP PUSH1 0x40 MLOAD RETURNDATASIZE PUSH1 0x1F NOT PUSH1 0x1F DUP3 ADD AND DUP3 ADD DUP1 PUSH1 0x40 MSTORE POP DUP2 ADD SWAP1 PUSH2 0x254C SWAP2 SWAP1 PUSH2 0x40CD JUMP JUMPDEST PUSH2 0x164 DUP1 SLOAD PUSH20 0xFFFFFFFFFFFFFFFFFFFFFFFFFFFFFFFFFFFFFFFF NOT AND PUSH1 0x1 PUSH1 0x1 PUSH1 0xA0 SHL SUB SWAP3 SWAP1 SWAP3 AND SWAP2 DUP3 OR SWAP1 SSTORE PUSH1 0x40 DUP1 MLOAD PUSH32 0x313CE56700000000000000000000000000000000000000000000000000000000 DUP2 MSTORE SWAP1 MLOAD PUSH4 0x313CE567 SWAP2 PUSH1 0x4 DUP1 DUP3 ADD SWAP3 PUSH1 0x20 SWAP3 SWAP1 SWAP2 SWAP1 DUP3 SWAP1 SUB ADD DUP2 DUP7 GAS STATICCALL ISZERO DUP1 ISZERO PUSH2 0x25CD JUMPI RETURNDATASIZE PUSH1 0x0 DUP1 RETURNDATACOPY RETURNDATASIZE PUSH1 0x0 REVERT JUMPDEST POP POP POP POP PUSH1 0x40 MLOAD RETURNDATASIZE PUSH1 0x1F NOT PUSH1 0x1F DUP3 ADD AND DUP3 ADD DUP1 PUSH1 0x40 MSTORE POP DUP2 ADD SWAP1 PUSH2 0x25F1 SWAP2 SWAP1 PUSH2 0x40EA JUMP JUMPDEST PUSH1 0xFF AND PUSH2 0x168 DUP2 SWAP1 SSTORE PUSH1 0x12 LT ISZERO PUSH2 0x241B JUMPI PUSH1 0x40 MLOAD PUSH3 0x461BCD PUSH1 0xE5 SHL DUP2 MSTORE PUSH1 0x20 PUSH1 0x4 DUP3 ADD MSTORE PUSH1 0x4E PUSH1 0x24 DUP3 ADD MSTORE PUSH32 0x53796D6D696F536F6C7665724465706F7369746F723A20436F6C6C6174657261 PUSH1 0x44 DUP3 ADD MSTORE PUSH32 0x6C20646563696D616C732073686F756C64206265206C6F776572207468616E20 PUSH1 0x64 DUP3 ADD MSTORE PUSH32 0x6F7220657175616C20746F203138000000000000000000000000000000000000 PUSH1 0x84 DUP3 ADD MSTORE PUSH1 0xA4 ADD PUSH2 0x7E0 JUMP JUMPDEST PUSH1 0x0 PUSH32 0xFFFFFFFF00000000000000000000000000000000000000000000000000000000 DUP3 AND PUSH32 0x7965DB0B00000000000000000000000000000000000000000000000000000000 EQ DUP1 PUSH2 0xE36 JUMPI POP PUSH32 0x1FFC9A700000000000000000000000000000000000000000000000000000000 PUSH32 0xFFFFFFFF00000000000000000000000000000000000000000000000000000000 DUP4 AND EQ PUSH2 0xE36 JUMP JUMPDEST PUSH2 0x2737 DUP3 DUP3 PUSH2 0x2E40 JUMP JUMPDEST PUSH1 0x0 DUP3 DUP2 MSTORE PUSH1 0x97 PUSH1 0x20 MSTORE PUSH1 0x40 SWAP1 KECCAK256 PUSH2 0xF46 SWAP1 DUP3 PUSH2 0x2EE2 JUMP JUMPDEST PUSH2 0x2759 DUP3 DUP3 PUSH2 0x2EF7 JUMP JUMPDEST PUSH1 0x0 DUP3 DUP2 MSTORE PUSH1 0x97 PUSH1 0x20 MSTORE PUSH1 0x40 SWAP1 KECCAK256 PUSH2 0xF46 SWAP1 DUP3 PUSH2 0x2F7A JUMP JUMPDEST PUSH2 0x2779 PUSH2 0x2F8F JUMP JUMPDEST PUSH1 0xC9 DUP1 SLOAD PUSH1 0xFF NOT AND SWAP1 SSTORE PUSH32 0x5DB9EE0A495BF2E6FF9C91A7834C1BA4FDD244A5E8AA4E537BD38AEAE4B073AA CALLER JUMPDEST PUSH1 0x40 MLOAD PUSH1 0x1 PUSH1 0x1 PUSH1 0xA0 SHL SUB SWAP1 SWAP2 AND DUP2 MSTORE PUSH1 0x20 ADD PUSH1 0x40 MLOAD DUP1 SWAP2 SUB SWAP1 LOG1 JUMP JUMPDEST PUSH2 0x27CB PUSH2 0x23C8 JUMP JUMPDEST PUSH1 0xC9 DUP1 SLOAD PUSH1 0xFF NOT AND PUSH1 0x1 OR SWAP1 SSTORE PUSH32 0x62E78CEA01BEE320CD4E420270B5EA74000D11B0C9F74754EBDBFC544B05A258 PUSH2 0x27A6 CALLER SWAP1 JUMP JUMPDEST PUSH1 0x40 DUP1 MLOAD PUSH32 0xB1DD0BED30D3B8AB9FC76313ECB7DB14F6B497D5F1F7859FA5CB5811C1CA3073 PUSH1 0x20 DUP3 ADD MSTORE SWAP1 DUP2 ADD DUP8 SWAP1 MSTORE PUSH1 0x60 DUP2 ADD DUP7 SWAP1 MSTORE PUSH1 0x1 PUSH1 0x1 PUSH1 0xA0 SHL SUB DUP6 AND PUSH1 0x80 DUP3 ADD MSTORE PUSH1 0xA0 DUP2 ADD DUP5 SWAP1 MSTORE PUSH1 0xC0 DUP2 ADD DUP4 SWAP1 MSTORE PUSH1 0x0 SWAP1 DUP2 SWAP1 PUSH2 0x287B SWAP1 PUSH1 0xE0 ADD PUSH1 0x40 MLOAD PUSH1 0x20 DUP2 DUP4 SUB SUB DUP2 MSTORE SWAP1 PUSH1 0x40 MSTORE DUP1 MLOAD SWAP1 PUSH1 0x20 ADD KECCAK256 PUSH2 0x2FE1 JUMP JUMPDEST SWAP1 POP PUSH1 0x0 PUSH2 0x2889 DUP3 DUP6 PUSH2 0x3029 JUMP JUMPDEST PUSH2 0x163 SLOAD PUSH1 0x1 PUSH1 0x1 PUSH1 0xA0 SHL SUB SWAP2 DUP3 AND SWAP2 AND EQ SWAP10 SWAP9 POP POP POP POP POP POP POP POP POP JUMP JUMPDEST PUSH1 0x60 PUSH1 0xFD DUP1 SLOAD PUSH2 0x28B7 SWAP1 PUSH2 0x410D JUMP JUMPDEST DUP1 PUSH1 0x1F ADD PUSH1 0x20 DUP1 SWAP2 DIV MUL PUSH1 0x20 ADD PUSH1 0x40 MLOAD SWAP1 DUP2 ADD PUSH1 0x40 MSTORE DUP1 SWAP3 SWAP2 SWAP1 DUP2 DUP2 MSTORE PUSH1 0x20 ADD DUP3 DUP1 SLOAD PUSH2 0x28E3 SWAP1 PUSH2 0x410D JUMP JUMPDEST DUP1 ISZERO PUSH2 0x2930 JUMPI DUP1 PUSH1 0x1F LT PUSH2 0x2905 JUMPI PUSH2 0x100 DUP1 DUP4 SLOAD DIV MUL DUP4 MSTORE SWAP2 PUSH1 0x20 ADD SWAP2 PUSH2 0x2930 JUMP JUMPDEST DUP3 ADD SWAP2 SWAP1 PUSH1 0x0 MSTORE PUSH1 0x20 PUSH1 0x0 KECCAK256 SWAP1 JUMPDEST DUP2 SLOAD DUP2 MSTORE SWAP1 PUSH1 0x1 ADD SWAP1 PUSH1 0x20 ADD DUP1 DUP4 GT PUSH2 0x2913 JUMPI DUP3 SWAP1 SUB PUSH1 0x1F AND DUP3 ADD SWAP2 JUMPDEST POP POP POP POP POP SWAP1 POP SWAP1 JUMP JUMPDEST PUSH1 0x60 PUSH1 0xFE DUP1 SLOAD PUSH2 0x28B7 SWAP1 PUSH2 0x410D JUMP JUMPDEST PUSH1 0x40 MLOAD PUSH1 0x1 PUSH1 0x1 PUSH1 0xA0 SHL SUB DUP4 AND PUSH1 0x24 DUP3 ADD MSTORE PUSH1 0x44 DUP2 ADD DUP3 SWAP1 MSTORE PUSH2 0xF46 SWAP1 DUP5 SWAP1 PUSH32 0xA9059CBB00000000000000000000000000000000000000000000000000000000 SWAP1 PUSH1 0x64 ADD PUSH2 0x246A JUMP JUMPDEST PUSH1 0x0 PUSH2 0x19B4 DUP4 DUP4 PUSH2 0x304D JUMP JUMPDEST PUSH2 0x16A DUP2 SWAP1 SSTORE PUSH1 0x40 MLOAD DUP2 DUP2 MSTORE PUSH32 0x699D7BC1FD2D92F6912F04B6A309EF25EC3937479E80CDC04B75F234A724E9A2 SWAP1 PUSH1 0x20 ADD PUSH1 0x40 MLOAD DUP1 SWAP2 SUB SWAP1 LOG1 POP JUMP JUMPDEST PUSH1 0x2 PUSH2 0x12F SLOAD SUB PUSH2 0x2A2D JUMPI PUSH1 0x40 MLOAD PUSH3 0x461BCD PUSH1 0xE5 SHL DUP2 MSTORE PUSH1 0x20 PUSH1 0x4 DUP3 ADD MSTORE PUSH1 0x1F PUSH1 0x24 DUP3 ADD MSTORE PUSH32 0x5265656E7472616E637947756172643A207265656E7472616E742063616C6C00 PUSH1 0x44 DUP3 ADD MSTORE PUSH1 0x64 ADD PUSH2 0x7E0 JUMP JUMPDEST PUSH1 0x2 PUSH2 0x12F SSTORE JUMP JUMPDEST PUSH1 0x40 DUP1 MLOAD PUSH1 0x1 PUSH1 0x1 PUSH1 0xA0 SHL SUB DUP5 AND PUSH1 0x24 DUP3 ADD MSTORE PUSH1 0x44 DUP1 DUP3 ADD DUP5 SWAP1 MSTORE DUP3 MLOAD DUP1 DUP4 SUB SWAP1 SWAP2 ADD DUP2 MSTORE PUSH1 0x64 SWAP1 SWAP2 ADD SWAP1 SWAP2 MSTORE PUSH1 0x20 DUP2 ADD DUP1 MLOAD PUSH28 0xFFFFFFFFFFFFFFFFFFFFFFFFFFFFFFFFFFFFFFFFFFFFFFFFFFFFFFFF AND PUSH32 0x95EA7B300000000000000000000000000000000000000000000000000000000 OR SWAP1 MSTORE PUSH2 0x2AB4 DUP5 DUP3 PUSH2 0x3077 JUMP JUMPDEST PUSH2 0x24CE JUMPI PUSH1 0x40 MLOAD PUSH1 0x1 PUSH1 0x1 PUSH1 0xA0 SHL SUB DUP5 AND PUSH1 0x24 DUP3 ADD MSTORE PUSH1 0x0 PUSH1 0x44 DUP3 ADD MSTORE PUSH2 0x2B01 SWAP1 DUP6 SWAP1 PUSH32 0x95EA7B300000000000000000000000000000000000000000000000000000000 SWAP1 PUSH1 0x64 ADD PUSH2 0x246A JUMP JUMPDEST PUSH2 0x24CE DUP5 DUP3 PUSH2 0x2D58 JUMP JUMPDEST PUSH1 0x1 PUSH2 0x12F SSTORE JUMP JUMPDEST PUSH1 0x0 PUSH2 0xE36 DUP3 SLOAD SWAP1 JUMP JUMPDEST PUSH1 0x0 SLOAD PUSH2 0x100 SWAP1 DIV PUSH1 0xFF AND PUSH2 0x2B88 JUMPI PUSH1 0x40 MLOAD PUSH3 0x461BCD PUSH1 0xE5 SHL DUP2 MSTORE PUSH1 0x20 PUSH1 0x4 DUP3 ADD MSTORE PUSH1 0x2B PUSH1 0x24 DUP3 ADD MSTORE PUSH32 0x496E697469616C697A61626C653A20636F6E7472616374206973206E6F742069 PUSH1 0x44 DUP3 ADD MSTORE PUSH11 0x6E697469616C697A696E67 PUSH1 0xA8 SHL PUSH1 0x64 DUP3 ADD MSTORE PUSH1 0x84 ADD PUSH2 0x7E0 JUMP JUMPDEST PUSH2 0x241B PUSH2 0x311E JUMP JUMPDEST PUSH1 0x0 SLOAD PUSH2 0x100 SWAP1 DIV PUSH1 0xFF AND PUSH2 0x241B JUMPI PUSH1 0x40 MLOAD PUSH3 0x461BCD PUSH1 0xE5 SHL DUP2 MSTORE PUSH1 0x20 PUSH1 0x4 DUP3 ADD MSTORE PUSH1 0x2B PUSH1 0x24 DUP3 ADD MSTORE PUSH32 0x496E697469616C697A61626C653A20636F6E7472616374206973206E6F742069 PUSH1 0x44 DUP3 ADD MSTORE PUSH11 0x6E697469616C697A696E67 PUSH1 0xA8 SHL PUSH1 0x64 DUP3 ADD MSTORE PUSH1 0x84 ADD PUSH2 0x7E0 JUMP JUMPDEST PUSH1 0x0 SLOAD PUSH2 0x100 SWAP1 DIV PUSH1 0xFF AND PUSH2 0x2C66 JUMPI PUSH1 0x40 MLOAD PUSH3 0x461BCD PUSH1 0xE5 SHL DUP2 MSTORE PUSH1 0x20 PUSH1 0x4 DUP3 ADD MSTORE PUSH1 0x2B PUSH1 0x24 DUP3 ADD MSTORE PUSH32 0x496E697469616C697A61626C653A20636F6E7472616374206973206E6F742069 PUSH1 0x44 DUP3 ADD MSTORE PUSH11 0x6E697469616C697A696E67 PUSH1 0xA8 SHL PUSH1 0x64 DUP3 ADD MSTORE PUSH1 0x84 ADD PUSH2 0x7E0 JUMP JUMPDEST PUSH2 0x241B PUSH2 0x3189 JUMP JUMPDEST PUSH1 0x0 SLOAD PUSH2 0x100 SWAP1 DIV PUSH1 0xFF AND PUSH2 0x2CD9 JUMPI PUSH1 0x40 MLOAD PUSH3 0x461BCD PUSH1 0xE5 SHL DUP2 MSTORE PUSH1 0x20 PUSH1 0x4 DUP3 ADD MSTORE PUSH1 0x2B PUSH1 0x24 DUP3 ADD MSTORE PUSH32 0x496E697469616C697A61626C653A20636F6E7472616374206973206E6F742069 PUSH1 0x44 DUP3 ADD MSTORE PUSH11 0x6E697469616C697A696E67 PUSH1 0xA8 SHL PUSH1 0x64 DUP3 ADD MSTORE PUSH1 0x84 ADD PUSH2 0x7E0 JUMP JUMPDEST PUSH2 0xFD3 DUP3 DUP3 PUSH2 0x3200 JUMP JUMPDEST PUSH1 0x0 DUP3 DUP2 MSTORE PUSH1 0x65 PUSH1 0x20 SWAP1 DUP2 MSTORE PUSH1 0x40 DUP1 DUP4 KECCAK256 PUSH1 0x1 PUSH1 0x1 PUSH1 0xA0 SHL SUB DUP6 AND DUP5 MSTORE SWAP1 SWAP2 MSTORE SWAP1 KECCAK256 SLOAD PUSH1 0xFF AND PUSH2 0xFD3 JUMPI PUSH2 0x2D16 DUP2 PUSH2 0x3293 JUMP JUMPDEST PUSH2 0x2D21 DUP4 PUSH1 0x20 PUSH2 0x32A5 JUMP JUMPDEST PUSH1 0x40 MLOAD PUSH1 0x20 ADD PUSH2 0x2D32 SWAP3 SWAP2 SWAP1 PUSH2 0x4147 JUMP JUMPDEST PUSH1 0x40 DUP1 MLOAD PUSH1 0x1F NOT DUP2 DUP5 SUB ADD DUP2 MSTORE SWAP1 DUP3 SWAP1 MSTORE PUSH3 0x461BCD PUSH1 0xE5 SHL DUP3 MSTORE PUSH2 0x7E0 SWAP2 PUSH1 0x4 ADD PUSH2 0x41C8 JUMP JUMPDEST PUSH1 0x0 PUSH2 0x2DAD DUP3 PUSH1 0x40 MLOAD DUP1 PUSH1 0x40 ADD PUSH1 0x40 MSTORE DUP1 PUSH1 0x20 DUP2 MSTORE PUSH1 0x20 ADD PUSH32 0x5361666545524332303A206C6F772D6C6576656C2063616C6C206661696C6564 DUP2 MSTORE POP DUP6 PUSH1 0x1 PUSH1 0x1 PUSH1 0xA0 SHL SUB AND PUSH2 0x34CE SWAP1 SWAP3 SWAP2 SWAP1 PUSH4 0xFFFFFFFF AND JUMP JUMPDEST SWAP1 POP DUP1 MLOAD PUSH1 0x0 EQ DUP1 PUSH2 0x2DCE JUMPI POP DUP1 DUP1 PUSH1 0x20 ADD SWAP1 MLOAD DUP2 ADD SWAP1 PUSH2 0x2DCE SWAP2 SWAP1 PUSH2 0x41DB JUMP JUMPDEST PUSH2 0xF46 JUMPI PUSH1 0x40 MLOAD PUSH3 0x461BCD PUSH1 0xE5 SHL DUP2 MSTORE PUSH1 0x20 PUSH1 0x4 DUP3 ADD MSTORE PUSH1 0x2A PUSH1 0x24 DUP3 ADD MSTORE PUSH32 0x5361666545524332303A204552433230206F7065726174696F6E20646964206E PUSH1 0x44 DUP3 ADD MSTORE PUSH32 0x6F74207375636365656400000000000000000000000000000000000000000000 PUSH1 0x64 DUP3 ADD MSTORE PUSH1 0x84 ADD PUSH2 0x7E0 JUMP JUMPDEST PUSH1 0x0 DUP3 DUP2 MSTORE PUSH1 0x65 PUSH1 0x20 SWAP1 DUP2 MSTORE PUSH1 0x40 DUP1 DUP4 KECCAK256 PUSH1 0x1 PUSH1 0x1 PUSH1 0xA0 SHL SUB DUP6 AND DUP5 MSTORE SWAP1 SWAP2 MSTORE SWAP1 KECCAK256 SLOAD PUSH1 0xFF AND PUSH2 0xFD3 JUMPI PUSH1 0x0 DUP3 DUP2 MSTORE PUSH1 0x65 PUSH1 0x20 SWAP1 DUP2 MSTORE PUSH1 0x40 DUP1 DUP4 KECCAK256 PUSH1 0x1 PUSH1 0x1 PUSH1 0xA0 SHL SUB DUP6 AND DUP5 MSTORE SWAP1 SWAP2 MSTORE SWAP1 KECCAK256 DUP1 SLOAD PUSH1 0xFF NOT AND PUSH1 0x1 OR SWAP1 SSTORE PUSH2 0x2E9E CALLER SWAP1 JUMP JUMPDEST PUSH1 0x1 PUSH1 0x1 PUSH1 0xA0 SHL SUB AND DUP2 PUSH1 0x1 PUSH1 0x1 PUSH1 0xA0 SHL SUB AND DUP4 PUSH32 0x2F8788117E7EFF1D82E926EC794901D17C78024A50270940304540A733656F0D PUSH1 0x40 MLOAD PUSH1 0x40 MLOAD DUP1 SWAP2 SUB SWAP1 LOG4 POP POP JUMP JUMPDEST PUSH1 0x0 PUSH2 0x19B4 DUP4 PUSH1 0x1 PUSH1 0x1 PUSH1 0xA0 SHL SUB DUP5 AND PUSH2 0x34E5 JUMP JUMPDEST PUSH1 0x0 DUP3 DUP2 MSTORE PUSH1 0x65 PUSH1 0x20 SWAP1 DUP2 MSTORE PUSH1 0x40 DUP1 DUP4 KECCAK256 PUSH1 0x1 PUSH1 0x1 PUSH1 0xA0 SHL SUB DUP6 AND DUP5 MSTORE SWAP1 SWAP2 MSTORE SWAP1 KECCAK256 SLOAD PUSH1 0xFF AND ISZERO PUSH2 0xFD3 JUMPI PUSH1 0x0 DUP3 DUP2 MSTORE PUSH1 0x65 PUSH1 0x20 SWAP1 DUP2 MSTORE PUSH1 0x40 DUP1 DUP4 KECCAK256 PUSH1 0x1 PUSH1 0x1 PUSH1 0xA0 SHL SUB DUP6 AND DUP1 DUP6 MSTORE SWAP3 MSTORE DUP1 DUP4 KECCAK256 DUP1 SLOAD PUSH1 0xFF NOT AND SWAP1 SSTORE MLOAD CALLER SWAP3 DUP6 SWAP2 PUSH32 0xF6391F5C32D9C69D2A47EA670B442974B53935D1EDC7FD64EB21E047A839171B SWAP2 SWAP1 LOG4 POP POP JUMP JUMPDEST PUSH1 0x0 PUSH2 0x19B4 DUP4 PUSH1 0x1 PUSH1 0x1 PUSH1 0xA0 SHL SUB DUP5 AND PUSH2 0x3534 JUMP JUMPDEST PUSH1 0xC9 SLOAD PUSH1 0xFF AND PUSH2 0x241B JUMPI PUSH1 0x40 MLOAD PUSH3 0x461BCD PUSH1 0xE5 SHL DUP2 MSTORE PUSH1 0x20 PUSH1 0x4 DUP3 ADD MSTORE PUSH1 0x14 PUSH1 0x24 DUP3 ADD MSTORE PUSH32 0x5061757361626C653A206E6F7420706175736564000000000000000000000000 PUSH1 0x44 DUP3 ADD MSTORE PUSH1 0x64 ADD PUSH2 0x7E0 JUMP JUMPDEST PUSH1 0x0 PUSH2 0xE36 PUSH2 0x2FEE PUSH2 0x3627 JUMP JUMPDEST DUP4 PUSH1 0x40 MLOAD PUSH32 0x1901000000000000000000000000000000000000000000000000000000000000 DUP2 MSTORE PUSH1 0x2 DUP2 ADD SWAP3 SWAP1 SWAP3 MSTORE PUSH1 0x22 DUP3 ADD MSTORE PUSH1 0x42 SWAP1 KECCAK256 SWAP1 JUMP JUMPDEST PUSH1 0x0 DUP1 PUSH1 0x0 PUSH2 0x3038 DUP6 DUP6 PUSH2 0x3636 JUMP JUMPDEST SWAP2 POP SWAP2 POP PUSH2 0x3045 DUP2 PUSH2 0x367B JUMP JUMPDEST POP SWAP4 SWAP3 POP POP POP JUMP JUMPDEST PUSH1 0x0 DUP3 PUSH1 0x0 ADD DUP3 DUP2 SLOAD DUP2 LT PUSH2 0x3064 JUMPI PUSH2 0x3064 PUSH2 0x4037 JUMP JUMPDEST SWAP1 PUSH1 0x0 MSTORE PUSH1 0x20 PUSH1 0x0 KECCAK256 ADD SLOAD SWAP1 POP SWAP3 SWAP2 POP POP JUMP JUMPDEST PUSH1 0x0 DUP1 PUSH1 0x0 DUP5 PUSH1 0x1 PUSH1 0x1 PUSH1 0xA0 SHL SUB AND DUP5 PUSH1 0x40 MLOAD PUSH2 0x3094 SWAP2 SWAP1 PUSH2 0x41FD JUMP JUMPDEST PUSH1 0x0 PUSH1 0x40 MLOAD DUP1 DUP4 SUB DUP2 PUSH1 0x0 DUP7 GAS CALL SWAP2 POP POP RETURNDATASIZE DUP1 PUSH1 0x0 DUP2 EQ PUSH2 0x30D1 JUMPI PUSH1 0x40 MLOAD SWAP2 POP PUSH1 0x1F NOT PUSH1 0x3F RETURNDATASIZE ADD AND DUP3 ADD PUSH1 0x40 MSTORE RETURNDATASIZE DUP3 MSTORE RETURNDATASIZE PUSH1 0x0 PUSH1 0x20 DUP5 ADD RETURNDATACOPY PUSH2 0x30D6 JUMP JUMPDEST PUSH1 0x60 SWAP2 POP JUMPDEST POP SWAP2 POP SWAP2 POP DUP2 DUP1 ISZERO PUSH2 0x3100 JUMPI POP DUP1 MLOAD ISZERO DUP1 PUSH2 0x3100 JUMPI POP DUP1 DUP1 PUSH1 0x20 ADD SWAP1 MLOAD DUP2 ADD SWAP1 PUSH2 0x3100 SWAP2 SWAP1 PUSH2 0x41DB JUMP JUMPDEST DUP1 ISZERO PUSH2 0x3115 JUMPI POP PUSH1 0x1 PUSH1 0x1 PUSH1 0xA0 SHL SUB DUP6 AND EXTCODESIZE ISZERO ISZERO JUMPDEST SWAP6 SWAP5 POP POP POP POP POP JUMP JUMPDEST PUSH1 0x0 SLOAD PUSH2 0x100 SWAP1 DIV PUSH1 0xFF AND PUSH2 0x2B0B JUMPI PUSH1 0x40 MLOAD PUSH3 0x461BCD PUSH1 0xE5 SHL DUP2 MSTORE PUSH1 0x20 PUSH1 0x4 DUP3 ADD MSTORE PUSH1 0x2B PUSH1 0x24 DUP3 ADD MSTORE PUSH32 0x496E697469616C697A61626C653A20636F6E7472616374206973206E6F742069 PUSH1 0x44 DUP3 ADD MSTORE PUSH11 0x6E697469616C697A696E67 PUSH1 0xA8 SHL PUSH1 0x64 DUP3 ADD MSTORE PUSH1 0x84 ADD PUSH2 0x7E0 JUMP JUMPDEST PUSH1 0x0 SLOAD PUSH2 0x100 SWAP1 DIV PUSH1 0xFF AND PUSH2 0x31F4 JUMPI PUSH1 0x40 MLOAD PUSH3 0x461BCD PUSH1 0xE5 SHL DUP2 MSTORE PUSH1 0x20 PUSH1 0x4 DUP3 ADD MSTORE PUSH1 0x2B PUSH1 0x24 DUP3 ADD MSTORE PUSH32 0x496E697469616C697A61626C653A20636F6E7472616374206973206E6F742069 PUSH1 0x44 DUP3 ADD MSTORE PUSH11 0x6E697469616C697A696E67 PUSH1 0xA8 SHL PUSH1 0x64 DUP3 ADD MSTORE PUSH1 0x84 ADD PUSH2 0x7E0 JUMP JUMPDEST PUSH1 0xC9 DUP1 SLOAD PUSH1 0xFF NOT AND SWAP1 SSTORE JUMP JUMPDEST PUSH1 0x0 SLOAD PUSH2 0x100 SWAP1 DIV PUSH1 0xFF AND PUSH2 0x326B JUMPI PUSH1 0x40 MLOAD PUSH3 0x461BCD PUSH1 0xE5 SHL DUP2 MSTORE PUSH1 0x20 PUSH1 0x4 DUP3 ADD MSTORE PUSH1 0x2B PUSH1 0x24 DUP3 ADD MSTORE PUSH32 0x496E697469616C697A61626C653A20636F6E7472616374206973206E6F742069 PUSH1 0x44 DUP3 ADD MSTORE PUSH11 0x6E697469616C697A696E67 PUSH1 0xA8 SHL PUSH1 0x64 DUP3 ADD MSTORE PUSH1 0x84 ADD PUSH2 0x7E0 JUMP JUMPDEST PUSH1 0xFD PUSH2 0x3277 DUP4 DUP3 PUSH2 0x4260 JUMP JUMPDEST POP PUSH1 0xFE PUSH2 0x3284 DUP3 DUP3 PUSH2 0x4260 JUMP JUMPDEST POP POP PUSH1 0x0 PUSH1 0xFB DUP2 SWAP1 SSTORE PUSH1 0xFC SSTORE POP JUMP JUMPDEST PUSH1 0x60 PUSH2 0xE36 PUSH1 0x1 PUSH1 0x1 PUSH1 0xA0 SHL SUB DUP4 AND PUSH1 0x14 JUMPDEST PUSH1 0x60 PUSH1 0x0 PUSH2 0x32B4 DUP4 PUSH1 0x2 PUSH2 0x431F JUMP JUMPDEST PUSH2 0x32BF SWAP1 PUSH1 0x2 PUSH2 0x4063 JUMP JUMPDEST PUSH8 0xFFFFFFFFFFFFFFFF DUP2 GT ISZERO PUSH2 0x32D7 JUMPI PUSH2 0x32D7 PUSH2 0x3B37 JUMP JUMPDEST PUSH1 0x40 MLOAD SWAP1 DUP1 DUP3 MSTORE DUP1 PUSH1 0x1F ADD PUSH1 0x1F NOT AND PUSH1 0x20 ADD DUP3 ADD PUSH1 0x40 MSTORE DUP1 ISZERO PUSH2 0x3301 JUMPI PUSH1 0x20 DUP3 ADD DUP2 DUP1 CALLDATASIZE DUP4 CALLDATACOPY ADD SWAP1 POP JUMPDEST POP SWAP1 POP PUSH32 0x3000000000000000000000000000000000000000000000000000000000000000 DUP2 PUSH1 0x0 DUP2 MLOAD DUP2 LT PUSH2 0x3338 JUMPI PUSH2 0x3338 PUSH2 0x4037 JUMP JUMPDEST PUSH1 0x20 ADD ADD SWAP1 PUSH31 0xFFFFFFFFFFFFFFFFFFFFFFFFFFFFFFFFFFFFFFFFFFFFFFFFFFFFFFFFFFFFFF NOT AND SWAP1 DUP2 PUSH1 0x0 BYTE SWAP1 MSTORE8 POP PUSH32 0x7800000000000000000000000000000000000000000000000000000000000000 DUP2 PUSH1 0x1 DUP2 MLOAD DUP2 LT PUSH2 0x339B JUMPI PUSH2 0x339B PUSH2 0x4037 JUMP JUMPDEST PUSH1 0x20 ADD ADD SWAP1 PUSH31 0xFFFFFFFFFFFFFFFFFFFFFFFFFFFFFFFFFFFFFFFFFFFFFFFFFFFFFFFFFFFFFF NOT AND SWAP1 DUP2 PUSH1 0x0 BYTE SWAP1 MSTORE8 POP PUSH1 0x0 PUSH2 0x33D7 DUP5 PUSH1 0x2 PUSH2 0x431F JUMP JUMPDEST PUSH2 0x33E2 SWAP1 PUSH1 0x1 PUSH2 0x4063 JUMP JUMPDEST SWAP1 POP JUMPDEST PUSH1 0x1 DUP2 GT ISZERO PUSH2 0x347F JUMPI PUSH32 0x3031323334353637383961626364656600000000000000000000000000000000 DUP6 PUSH1 0xF AND PUSH1 0x10 DUP2 LT PUSH2 0x3423 JUMPI PUSH2 0x3423 PUSH2 0x4037 JUMP JUMPDEST BYTE PUSH1 0xF8 SHL DUP3 DUP3 DUP2 MLOAD DUP2 LT PUSH2 0x3439 JUMPI PUSH2 0x3439 PUSH2 0x4037 JUMP JUMPDEST PUSH1 0x20 ADD ADD SWAP1 PUSH31 0xFFFFFFFFFFFFFFFFFFFFFFFFFFFFFFFFFFFFFFFFFFFFFFFFFFFFFFFFFFFFFF NOT AND SWAP1 DUP2 PUSH1 0x0 BYTE SWAP1 MSTORE8 POP PUSH1 0x4 SWAP5 SWAP1 SWAP5 SHR SWAP4 PUSH2 0x3478 DUP2 PUSH2 0x4336 JUMP JUMPDEST SWAP1 POP PUSH2 0x33E5 JUMP JUMPDEST POP DUP4 ISZERO PUSH2 0x19B4 JUMPI PUSH1 0x40 MLOAD PUSH3 0x461BCD PUSH1 0xE5 SHL DUP2 MSTORE PUSH1 0x20 PUSH1 0x4 DUP3 ADD DUP2 SWAP1 MSTORE PUSH1 0x24 DUP3 ADD MSTORE PUSH32 0x537472696E67733A20686578206C656E67746820696E73756666696369656E74 PUSH1 0x44 DUP3 ADD MSTORE PUSH1 0x64 ADD PUSH2 0x7E0 JUMP JUMPDEST PUSH1 0x60 PUSH2 0x34DD DUP5 DUP5 PUSH1 0x0 DUP6 PUSH2 0x37E0 JUMP JUMPDEST SWAP5 SWAP4 POP POP POP POP JUMP JUMPDEST PUSH1 0x0 DUP2 DUP2 MSTORE PUSH1 0x1 DUP4 ADD PUSH1 0x20 MSTORE PUSH1 0x40 DUP2 KECCAK256 SLOAD PUSH2 0x352C JUMPI POP DUP2 SLOAD PUSH1 0x1 DUP2 DUP2 ADD DUP5 SSTORE PUSH1 0x0 DUP5 DUP2 MSTORE PUSH1 0x20 DUP1 DUP3 KECCAK256 SWAP1 SWAP4 ADD DUP5 SWAP1 SSTORE DUP5 SLOAD DUP5 DUP3 MSTORE DUP3 DUP7 ADD SWAP1 SWAP4 MSTORE PUSH1 0x40 SWAP1 KECCAK256 SWAP2 SWAP1 SWAP2 SSTORE PUSH2 0xE36 JUMP JUMPDEST POP PUSH1 0x0 PUSH2 0xE36 JUMP JUMPDEST PUSH1 0x0 DUP2 DUP2 MSTORE PUSH1 0x1 DUP4 ADD PUSH1 0x20 MSTORE PUSH1 0x40 DUP2 KECCAK256 SLOAD DUP1 ISZERO PUSH2 0x361D JUMPI PUSH1 0x0 PUSH2 0x3558 PUSH1 0x1 DUP4 PUSH2 0x4076 JUMP JUMPDEST DUP6 SLOAD SWAP1 SWAP2 POP PUSH1 0x0 SWAP1 PUSH2 0x356C SWAP1 PUSH1 0x1 SWAP1 PUSH2 0x4076 JUMP JUMPDEST SWAP1 POP DUP2 DUP2 EQ PUSH2 0x35D1 JUMPI PUSH1 0x0 DUP7 PUSH1 0x0 ADD DUP3 DUP2 SLOAD DUP2 LT PUSH2 0x358C JUMPI PUSH2 0x358C PUSH2 0x4037 JUMP JUMPDEST SWAP1 PUSH1 0x0 MSTORE PUSH1 0x20 PUSH1 0x0 KECCAK256 ADD SLOAD SWAP1 POP DUP1 DUP8 PUSH1 0x0 ADD DUP5 DUP2 SLOAD DUP2 LT PUSH2 0x35AF JUMPI PUSH2 0x35AF PUSH2 0x4037 JUMP JUMPDEST PUSH1 0x0 SWAP2 DUP3 MSTORE PUSH1 0x20 DUP1 DUP4 KECCAK256 SWAP1 SWAP2 ADD SWAP3 SWAP1 SWAP3 SSTORE SWAP2 DUP3 MSTORE PUSH1 0x1 DUP9 ADD SWAP1 MSTORE PUSH1 0x40 SWAP1 KECCAK256 DUP4 SWAP1 SSTORE JUMPDEST DUP6 SLOAD DUP7 SWAP1 DUP1 PUSH2 0x35E2 JUMPI PUSH2 0x35E2 PUSH2 0x434D JUMP JUMPDEST PUSH1 0x1 SWAP1 SUB DUP2 DUP2 SWAP1 PUSH1 0x0 MSTORE PUSH1 0x20 PUSH1 0x0 KECCAK256 ADD PUSH1 0x0 SWAP1 SSTORE SWAP1 SSTORE DUP6 PUSH1 0x1 ADD PUSH1 0x0 DUP7 DUP2 MSTORE PUSH1 0x20 ADD SWAP1 DUP2 MSTORE PUSH1 0x20 ADD PUSH1 0x0 KECCAK256 PUSH1 0x0 SWAP1 SSTORE PUSH1 0x1 SWAP4 POP POP POP POP PUSH2 0xE36 JUMP JUMPDEST PUSH1 0x0 SWAP2 POP POP PUSH2 0xE36 JUMP JUMPDEST PUSH1 0x0 PUSH2 0x3631 PUSH2 0x38D2 JUMP JUMPDEST SWAP1 POP SWAP1 JUMP JUMPDEST PUSH1 0x0 DUP1 DUP3 MLOAD PUSH1 0x41 SUB PUSH2 0x366C JUMPI PUSH1 0x20 DUP4 ADD MLOAD PUSH1 0x40 DUP5 ADD MLOAD PUSH1 0x60 DUP6 ADD MLOAD PUSH1 0x0 BYTE PUSH2 0x3660 DUP8 DUP3 DUP6 DUP6 PUSH2 0x3946 JUMP JUMPDEST SWAP5 POP SWAP5 POP POP POP POP PUSH2 0x3674 JUMP JUMPDEST POP PUSH1 0x0 SWAP1 POP PUSH1 0x2 JUMPDEST SWAP3 POP SWAP3 SWAP1 POP JUMP JUMPDEST PUSH1 0x0 DUP2 PUSH1 0x4 DUP2 GT ISZERO PUSH2 0x368F JUMPI PUSH2 0x368F PUSH2 0x3F66 JUMP JUMPDEST SUB PUSH2 0x3697 JUMPI POP JUMP JUMPDEST PUSH1 0x1 DUP2 PUSH1 0x4 DUP2 GT ISZERO PUSH2 0x36AB JUMPI PUSH2 0x36AB PUSH2 0x3F66 JUMP JUMPDEST SUB PUSH2 0x36F8 JUMPI PUSH1 0x40 MLOAD PUSH3 0x461BCD PUSH1 0xE5 SHL DUP2 MSTORE PUSH1 0x20 PUSH1 0x4 DUP3 ADD MSTORE PUSH1 0x18 PUSH1 0x24 DUP3 ADD MSTORE PUSH32 0x45434453413A20696E76616C6964207369676E61747572650000000000000000 PUSH1 0x44 DUP3 ADD MSTORE PUSH1 0x64 ADD PUSH2 0x7E0 JUMP JUMPDEST PUSH1 0x2 DUP2 PUSH1 0x4 DUP2 GT ISZERO PUSH2 0x370C JUMPI PUSH2 0x370C PUSH2 0x3F66 JUMP JUMPDEST SUB PUSH2 0x3759 JUMPI PUSH1 0x40 MLOAD PUSH3 0x461BCD PUSH1 0xE5 SHL DUP2 MSTORE PUSH1 0x20 PUSH1 0x4 DUP3 ADD MSTORE PUSH1 0x1F PUSH1 0x24 DUP3 ADD MSTORE PUSH32 0x45434453413A20696E76616C6964207369676E6174757265206C656E67746800 PUSH1 0x44 DUP3 ADD MSTORE PUSH1 0x64 ADD PUSH2 0x7E0 JUMP JUMPDEST PUSH1 0x3 DUP2 PUSH1 0x4 DUP2 GT ISZERO PUSH2 0x376D JUMPI PUSH2 0x376D PUSH2 0x3F66 JUMP JUMPDEST SUB PUSH2 0x1009 JUMPI PUSH1 0x40 MLOAD PUSH3 0x461BCD PUSH1 0xE5 SHL DUP2 MSTORE PUSH1 0x20 PUSH1 0x4 DUP3 ADD MSTORE PUSH1 0x22 PUSH1 0x24 DUP3 ADD MSTORE PUSH32 0x45434453413A20696E76616C6964207369676E6174757265202773272076616C PUSH1 0x44 DUP3 ADD MSTORE PUSH32 0x7565000000000000000000000000000000000000000000000000000000000000 PUSH1 0x64 DUP3 ADD MSTORE PUSH1 0x84 ADD PUSH2 0x7E0 JUMP JUMPDEST PUSH1 0x60 DUP3 SELFBALANCE LT ISZERO PUSH2 0x3858 JUMPI PUSH1 0x40 MLOAD PUSH3 0x461BCD PUSH1 0xE5 SHL DUP2 MSTORE PUSH1 0x20 PUSH1 0x4 DUP3 ADD MSTORE PUSH1 0x26 PUSH1 0x24 DUP3 ADD MSTORE PUSH32 0x416464726573733A20696E73756666696369656E742062616C616E636520666F PUSH1 0x44 DUP3 ADD MSTORE PUSH32 0x722063616C6C0000000000000000000000000000000000000000000000000000 PUSH1 0x64 DUP3 ADD MSTORE PUSH1 0x84 ADD PUSH2 0x7E0 JUMP JUMPDEST PUSH1 0x0 DUP1 DUP7 PUSH1 0x1 PUSH1 0x1 PUSH1 0xA0 SHL SUB AND DUP6 DUP8 PUSH1 0x40 MLOAD PUSH2 0x3874 SWAP2 SWAP1 PUSH2 0x41FD JUMP JUMPDEST PUSH1 0x0 PUSH1 0x40 MLOAD DUP1 DUP4 SUB DUP2 DUP6 DUP8 GAS CALL SWAP3 POP POP POP RETURNDATASIZE DUP1 PUSH1 0x0 DUP2 EQ PUSH2 0x38B1 JUMPI PUSH1 0x40 MLOAD SWAP2 POP PUSH1 0x1F NOT PUSH1 0x3F RETURNDATASIZE ADD AND DUP3 ADD PUSH1 0x40 MSTORE RETURNDATASIZE DUP3 MSTORE RETURNDATASIZE PUSH1 0x0 PUSH1 0x20 DUP5 ADD RETURNDATACOPY PUSH2 0x38B6 JUMP JUMPDEST PUSH1 0x60 SWAP2 POP JUMPDEST POP SWAP2 POP SWAP2 POP PUSH2 0x38C7 DUP8 DUP4 DUP4 DUP8 PUSH2 0x3A0A JUMP JUMPDEST SWAP8 SWAP7 POP POP POP POP POP POP POP JUMP JUMPDEST PUSH1 0x0 PUSH32 0x8B73C3C69BB8FE3D512ECC4CF759CC79239F7B179B0FFACAA9A75D522B39400F PUSH2 0x38FD PUSH2 0x3A83 JUMP JUMPDEST PUSH2 0x3905 PUSH2 0x3ADC JUMP JUMPDEST PUSH1 0x40 DUP1 MLOAD PUSH1 0x20 DUP2 ADD SWAP5 SWAP1 SWAP5 MSTORE DUP4 ADD SWAP2 SWAP1 SWAP2 MSTORE PUSH1 0x60 DUP3 ADD MSTORE CHAINID PUSH1 0x80 DUP3 ADD MSTORE ADDRESS PUSH1 0xA0 DUP3 ADD MSTORE PUSH1 0xC0 ADD PUSH1 0x40 MLOAD PUSH1 0x20 DUP2 DUP4 SUB SUB DUP2 MSTORE SWAP1 PUSH1 0x40 MSTORE DUP1 MLOAD SWAP1 PUSH1 0x20 ADD KECCAK256 SWAP1 POP SWAP1 JUMP JUMPDEST PUSH1 0x0 DUP1 PUSH32 0x7FFFFFFFFFFFFFFFFFFFFFFFFFFFFFFF5D576E7357A4501DDFE92F46681B20A0 DUP4 GT ISZERO PUSH2 0x397D JUMPI POP PUSH1 0x0 SWAP1 POP PUSH1 0x3 PUSH2 0x3A01 JUMP JUMPDEST PUSH1 0x40 DUP1 MLOAD PUSH1 0x0 DUP1 DUP3 MSTORE PUSH1 0x20 DUP3 ADD DUP1 DUP5 MSTORE DUP10 SWAP1 MSTORE PUSH1 0xFF DUP9 AND SWAP3 DUP3 ADD SWAP3 SWAP1 SWAP3 MSTORE PUSH1 0x60 DUP2 ADD DUP7 SWAP1 MSTORE PUSH1 0x80 DUP2 ADD DUP6 SWAP1 MSTORE PUSH1 0x1 SWAP1 PUSH1 0xA0 ADD PUSH1 0x20 PUSH1 0x40 MLOAD PUSH1 0x20 DUP2 SUB SWAP1 DUP1 DUP5 SUB SWAP1 DUP6 GAS STATICCALL ISZERO DUP1 ISZERO PUSH2 0x39D1 JUMPI RETURNDATASIZE PUSH1 0x0 DUP1 RETURNDATACOPY RETURNDATASIZE PUSH1 0x0 REVERT JUMPDEST POP POP PUSH1 0x40 MLOAD PUSH1 0x1F NOT ADD MLOAD SWAP2 POP POP PUSH1 0x1 PUSH1 0x1 PUSH1 0xA0 SHL SUB DUP2 AND PUSH2 0x39FA JUMPI PUSH1 0x0 PUSH1 0x1 SWAP3 POP SWAP3 POP POP PUSH2 0x3A01 JUMP JUMPDEST SWAP2 POP PUSH1 0x0 SWAP1 POP JUMPDEST SWAP5 POP SWAP5 SWAP3 POP POP POP JUMP JUMPDEST PUSH1 0x60 DUP4 ISZERO PUSH2 0x3A79 JUMPI DUP3 MLOAD PUSH1 0x0 SUB PUSH2 0x3A72 JUMPI PUSH1 0x1 PUSH1 0x1 PUSH1 0xA0 SHL SUB DUP6 AND EXTCODESIZE PUSH2 0x3A72 JUMPI PUSH1 0x40 MLOAD PUSH3 0x461BCD PUSH1 0xE5 SHL DUP2 MSTORE PUSH1 0x20 PUSH1 0x4 DUP3 ADD MSTORE PUSH1 0x1D PUSH1 0x24 DUP3 ADD MSTORE PUSH32 0x416464726573733A2063616C6C20746F206E6F6E2D636F6E7472616374000000 PUSH1 0x44 DUP3 ADD MSTORE PUSH1 0x64 ADD PUSH2 0x7E0 JUMP JUMPDEST POP DUP2 PUSH2 0x34DD JUMP JUMPDEST PUSH2 0x34DD DUP4 DUP4 PUSH2 0x3B0D JUMP JUMPDEST PUSH1 0x0 DUP1 PUSH2 0x3A8E PUSH2 0x28A8 JUMP JUMPDEST DUP1 MLOAD SWAP1 SWAP2 POP ISZERO PUSH2 0x3AA5 JUMPI DUP1 MLOAD PUSH1 0x20 SWAP1 SWAP2 ADD KECCAK256 SWAP2 SWAP1 POP JUMP JUMPDEST PUSH1 0xFB SLOAD DUP1 ISZERO PUSH2 0x3AB4 JUMPI SWAP3 SWAP2 POP POP JUMP JUMPDEST PUSH32 0xC5D2460186F7233C927E7DB2DCC703C0E500B653CA82273B7BFAD8045D85A470 SWAP3 POP POP POP SWAP1 JUMP JUMPDEST PUSH1 0x0 DUP1 PUSH2 0x3AE7 PUSH2 0x293A JUMP JUMPDEST DUP1 MLOAD SWAP1 SWAP2 POP ISZERO PUSH2 0x3AFE JUMPI DUP1 MLOAD PUSH1 0x20 SWAP1 SWAP2 ADD KECCAK256 SWAP2 SWAP1 POP JUMP JUMPDEST PUSH1 0xFC SLOAD DUP1 ISZERO PUSH2 0x3AB4 JUMPI SWAP3 SWAP2 POP POP JUMP JUMPDEST DUP2 MLOAD ISZERO PUSH2 0x3B1D JUMPI DUP2 MLOAD DUP1 DUP4 PUSH1 0x20 ADD REVERT JUMPDEST DUP1 PUSH1 0x40 MLOAD PUSH3 0x461BCD PUSH1 0xE5 SHL DUP2 MSTORE PUSH1 0x4 ADD PUSH2 0x7E0 SWAP2 SWAP1 PUSH2 0x41C8 JUMP JUMPDEST PUSH4 0x4E487B71 PUSH1 0xE0 SHL PUSH1 0x0 MSTORE PUSH1 0x41 PUSH1 0x4 MSTORE PUSH1 0x24 PUSH1 0x0 REVERT JUMPDEST PUSH1 0x40 MLOAD PUSH1 0x1F DUP3 ADD PUSH1 0x1F NOT AND DUP2 ADD PUSH8 0xFFFFFFFFFFFFFFFF DUP2 GT DUP3 DUP3 LT OR ISZERO PUSH2 0x3B76 JUMPI PUSH2 0x3B76 PUSH2 0x3B37 JUMP JUMPDEST PUSH1 0x40 MSTORE SWAP2 SWAP1 POP JUMP JUMPDEST PUSH1 0x0 DUP3 PUSH1 0x1F DUP4 ADD SLT PUSH2 0x3B8F JUMPI PUSH1 0x0 DUP1 REVERT JUMPDEST DUP2 CALLDATALOAD PUSH8 0xFFFFFFFFFFFFFFFF DUP2 GT ISZERO PUSH2 0x3BA9 JUMPI PUSH2 0x3BA9 PUSH2 0x3B37 JUMP JUMPDEST DUP1 PUSH1 0x5 SHL PUSH2 0x3BB9 PUSH1 0x20 DUP3 ADD PUSH2 0x3B4D JUMP JUMPDEST SWAP2 DUP3 MSTORE PUSH1 0x20 DUP2 DUP6 ADD DUP2 ADD SWAP3 SWAP1 DUP2 ADD SWAP1 DUP7 DUP5 GT ISZERO PUSH2 0x3BD5 JUMPI PUSH1 0x0 DUP1 REVERT JUMPDEST PUSH1 0x20 DUP7 ADD SWAP3 POP JUMPDEST DUP4 DUP4 LT ISZERO PUSH2 0x3BF7 JUMPI DUP3 CALLDATALOAD DUP3 MSTORE PUSH1 0x20 SWAP3 DUP4 ADD SWAP3 SWAP1 SWAP2 ADD SWAP1 PUSH2 0x3BDC JUMP JUMPDEST SWAP7 SWAP6 POP POP POP POP POP POP JUMP JUMPDEST PUSH1 0x0 DUP1 PUSH1 0x0 PUSH1 0x60 DUP5 DUP7 SUB SLT ISZERO PUSH2 0x3C16 JUMPI PUSH1 0x0 DUP1 REVERT JUMPDEST DUP4 CALLDATALOAD SWAP3 POP PUSH1 0x20 DUP5 ADD CALLDATALOAD PUSH8 0xFFFFFFFFFFFFFFFF DUP2 GT ISZERO PUSH2 0x3C34 JUMPI PUSH1 0x0 DUP1 REVERT JUMPDEST PUSH2 0x3C40 DUP7 DUP3 DUP8 ADD PUSH2 0x3B7E JUMP JUMPDEST SWAP3 POP POP PUSH1 0x40 DUP5 ADD CALLDATALOAD PUSH8 0xFFFFFFFFFFFFFFFF DUP2 GT ISZERO PUSH2 0x3C5D JUMPI PUSH1 0x0 DUP1 REVERT JUMPDEST PUSH2 0x3C69 DUP7 DUP3 DUP8 ADD PUSH2 0x3B7E JUMP JUMPDEST SWAP2 POP POP SWAP3 POP SWAP3 POP SWAP3 JUMP JUMPDEST PUSH1 0x1 PUSH1 0x1 PUSH1 0xA0 SHL SUB DUP2 AND DUP2 EQ PUSH2 0x1009 JUMPI PUSH1 0x0 DUP1 REVERT JUMPDEST PUSH1 0x0 PUSH1 0x20 DUP3 DUP5 SUB SLT ISZERO PUSH2 0x3C9A JUMPI PUSH1 0x0 DUP1 REVERT JUMPDEST DUP2 CALLDATALOAD PUSH2 0x19B4 DUP2 PUSH2 0x3C73 JUMP JUMPDEST PUSH1 0x0 PUSH1 0x20 DUP3 DUP5 SUB SLT ISZERO PUSH2 0x3CB7 JUMPI PUSH1 0x0 DUP1 REVERT JUMPDEST DUP2 CALLDATALOAD PUSH32 0xFFFFFFFF00000000000000000000000000000000000000000000000000000000 DUP2 AND DUP2 EQ PUSH2 0x19B4 JUMPI PUSH1 0x0 DUP1 REVERT JUMPDEST PUSH1 0x0 PUSH1 0x20 DUP3 DUP5 SUB SLT ISZERO PUSH2 0x3CF9 JUMPI PUSH1 0x0 DUP1 REVERT JUMPDEST POP CALLDATALOAD SWAP2 SWAP1 POP JUMP JUMPDEST PUSH1 0x0 DUP1 PUSH1 0x40 DUP4 DUP6 SUB SLT ISZERO PUSH2 0x3D13 JUMPI PUSH1 0x0 DUP1 REVERT JUMPDEST DUP3 CALLDATALOAD SWAP2 POP PUSH1 0x20 DUP4 ADD CALLDATALOAD PUSH2 0x3D25 DUP2 PUSH2 0x3C73 JUMP JUMPDEST DUP1 SWAP2 POP POP SWAP3 POP SWAP3 SWAP1 POP JUMP JUMPDEST PUSH1 0x0 DUP1 PUSH1 0x40 DUP4 DUP6 SUB SLT ISZERO PUSH2 0x3D43 JUMPI PUSH1 0x0 DUP1 REVERT JUMPDEST DUP3 CALLDATALOAD PUSH2 0x3D4E DUP2 PUSH2 0x3C73 JUMP JUMPDEST SWAP5 PUSH1 0x20 SWAP4 SWAP1 SWAP4 ADD CALLDATALOAD SWAP4 POP POP POP JUMP JUMPDEST PUSH1 0x0 DUP1 PUSH1 0x0 DUP1 PUSH1 0x0 DUP1 PUSH1 0xC0 DUP8 DUP10 SUB SLT ISZERO PUSH2 0x3D75 JUMPI PUSH1 0x0 DUP1 REVERT JUMPDEST DUP7 CALLDATALOAD SWAP6 POP PUSH1 0x20 DUP8 ADD CALLDATALOAD SWAP5 POP PUSH1 0x40 DUP8 ADD CALLDATALOAD PUSH2 0x3D8E DUP2 PUSH2 0x3C73 JUMP JUMPDEST SWAP4 POP PUSH1 0x60 DUP8 ADD CALLDATALOAD SWAP3 POP PUSH1 0x80 DUP8 ADD CALLDATALOAD SWAP2 POP PUSH1 0xA0 DUP8 ADD CALLDATALOAD PUSH8 0xFFFFFFFFFFFFFFFF DUP2 GT ISZERO PUSH2 0x3DB8 JUMPI PUSH1 0x0 DUP1 REVERT JUMPDEST DUP8 ADD PUSH1 0x1F DUP2 ADD DUP10 SGT PUSH2 0x3DC9 JUMPI PUSH1 0x0 DUP1 REVERT JUMPDEST DUP1 CALLDATALOAD PUSH8 0xFFFFFFFFFFFFFFFF DUP2 GT ISZERO PUSH2 0x3DE3 JUMPI PUSH2 0x3DE3 PUSH2 0x3B37 JUMP JUMPDEST PUSH2 0x3DF6 PUSH1 0x20 PUSH1 0x1F NOT PUSH1 0x1F DUP5 ADD AND ADD PUSH2 0x3B4D JUMP JUMPDEST DUP2 DUP2 MSTORE DUP11 PUSH1 0x20 DUP4 DUP6 ADD ADD GT ISZERO PUSH2 0x3E0B JUMPI PUSH1 0x0 DUP1 REVERT JUMPDEST DUP2 PUSH1 0x20 DUP5 ADD PUSH1 0x20 DUP4 ADD CALLDATACOPY PUSH1 0x0 PUSH1 0x20 DUP4 DUP4 ADD ADD MSTORE DUP1 SWAP4 POP POP POP POP SWAP3 SWAP6 POP SWAP3 SWAP6 POP SWAP3 SWAP6 JUMP JUMPDEST PUSH1 0x0 JUMPDEST DUP4 DUP2 LT ISZERO PUSH2 0x3E49 JUMPI DUP2 DUP2 ADD MLOAD DUP4 DUP3 ADD MSTORE PUSH1 0x20 ADD PUSH2 0x3E31 JUMP JUMPDEST POP POP PUSH1 0x0 SWAP2 ADD MSTORE JUMP JUMPDEST PUSH1 0x0 DUP2 MLOAD DUP1 DUP5 MSTORE PUSH2 0x3E6A DUP2 PUSH1 0x20 DUP7 ADD PUSH1 0x20 DUP7 ADD PUSH2 0x3E2E JUMP JUMPDEST PUSH1 0x1F ADD PUSH1 0x1F NOT AND SWAP3 SWAP1 SWAP3 ADD PUSH1 0x20 ADD SWAP3 SWAP2 POP POP JUMP JUMPDEST PUSH1 0x0 DUP2 MLOAD DUP1 DUP5 MSTORE PUSH1 0x20 DUP5 ADD SWAP4 POP PUSH1 0x20 DUP4 ADD PUSH1 0x0 JUMPDEST DUP3 DUP2 LT ISZERO PUSH2 0x3EB0 JUMPI DUP2 MLOAD DUP7 MSTORE PUSH1 0x20 SWAP6 DUP7 ADD SWAP6 SWAP1 SWAP2 ADD SWAP1 PUSH1 0x1 ADD PUSH2 0x3E92 JUMP JUMPDEST POP SWAP4 SWAP5 SWAP4 POP POP POP POP JUMP JUMPDEST PUSH32 0xFF00000000000000000000000000000000000000000000000000000000000000 DUP9 AND DUP2 MSTORE PUSH1 0xE0 PUSH1 0x20 DUP3 ADD MSTORE PUSH1 0x0 PUSH2 0x3EF5 PUSH1 0xE0 DUP4 ADD DUP10 PUSH2 0x3E52 JUMP JUMPDEST DUP3 DUP2 SUB PUSH1 0x40 DUP5 ADD MSTORE PUSH2 0x3F07 DUP2 DUP10 PUSH2 0x3E52 JUMP JUMPDEST SWAP1 POP DUP7 PUSH1 0x60 DUP5 ADD MSTORE PUSH1 0x1 PUSH1 0x1 PUSH1 0xA0 SHL SUB DUP7 AND PUSH1 0x80 DUP5 ADD MSTORE DUP5 PUSH1 0xA0 DUP5 ADD MSTORE DUP3 DUP2 SUB PUSH1 0xC0 DUP5 ADD MSTORE PUSH2 0x3F36 DUP2 DUP6 PUSH2 0x3E7E JUMP JUMPDEST SWAP11 SWAP10 POP POP POP POP POP POP POP POP POP POP JUMP JUMPDEST PUSH1 0x0 DUP1 PUSH1 0x40 DUP4 DUP6 SUB SLT ISZERO PUSH2 0x3F57 JUMPI PUSH1 0x0 DUP1 REVERT JUMPDEST POP POP DUP1 CALLDATALOAD SWAP3 PUSH1 0x20 SWAP1 SWAP2 ADD CALLDATALOAD SWAP2 POP JUMP JUMPDEST PUSH4 0x4E487B71 PUSH1 0xE0 SHL PUSH1 0x0 MSTORE PUSH1 0x21 PUSH1 0x4 MSTORE PUSH1 0x24 PUSH1 0x0 REVERT JUMPDEST PUSH1 0x1 PUSH1 0x1 PUSH1 0xA0 SHL SUB DUP10 DUP2 AND DUP3 MSTORE DUP9 AND PUSH1 0x20 DUP3 ADD MSTORE PUSH1 0x40 DUP2 ADD DUP8 SWAP1 MSTORE PUSH1 0x60 DUP2 ADD DUP7 SWAP1 MSTORE PUSH2 0x100 DUP2 ADD PUSH1 0x5 DUP7 LT PUSH2 0x3FC1 JUMPI PUSH4 0x4E487B71 PUSH1 0xE0 SHL PUSH1 0x0 MSTORE PUSH1 0x21 PUSH1 0x4 MSTORE PUSH1 0x24 PUSH1 0x0 REVERT JUMPDEST DUP6 PUSH1 0x80 DUP4 ADD MSTORE DUP5 PUSH1 0xA0 DUP4 ADD MSTORE DUP4 PUSH1 0xC0 DUP4 ADD MSTORE DUP3 PUSH1 0xE0 DUP4 ADD MSTORE SWAP10 SWAP9 POP POP POP POP POP POP POP POP POP JUMP JUMPDEST PUSH1 0x0 DUP1 PUSH1 0x0 DUP1 PUSH1 0x80 DUP6 DUP8 SUB SLT ISZERO PUSH2 0x3FFC JUMPI PUSH1 0x0 DUP1 REVERT JUMPDEST DUP5 CALLDATALOAD PUSH2 0x4007 DUP2 PUSH2 0x3C73 JUMP JUMPDEST SWAP4 POP PUSH1 0x20 DUP6 ADD CALLDATALOAD PUSH2 0x4017 DUP2 PUSH2 0x3C73 JUMP JUMPDEST SWAP3 POP PUSH1 0x40 DUP6 ADD CALLDATALOAD PUSH2 0x4027 DUP2 PUSH2 0x3C73 JUMP JUMPDEST SWAP4 SWAP7 SWAP3 SWAP6 POP SWAP3 SWAP4 PUSH1 0x60 ADD CALLDATALOAD SWAP3 POP POP JUMP JUMPDEST PUSH4 0x4E487B71 PUSH1 0xE0 SHL PUSH1 0x0 MSTORE PUSH1 0x32 PUSH1 0x4 MSTORE PUSH1 0x24 PUSH1 0x0 REVERT JUMPDEST PUSH4 0x4E487B71 PUSH1 0xE0 SHL PUSH1 0x0 MSTORE PUSH1 0x11 PUSH1 0x4 MSTORE PUSH1 0x24 PUSH1 0x0 REVERT JUMPDEST DUP1 DUP3 ADD DUP1 DUP3 GT ISZERO PUSH2 0xE36 JUMPI PUSH2 0xE36 PUSH2 0x404D JUMP JUMPDEST DUP2 DUP2 SUB DUP2 DUP2 GT ISZERO PUSH2 0xE36 JUMPI PUSH2 0xE36 PUSH2 0x404D JUMP JUMPDEST PUSH1 0x0 PUSH1 0x20 DUP3 DUP5 SUB SLT ISZERO PUSH2 0x409B JUMPI PUSH1 0x0 DUP1 REVERT JUMPDEST POP MLOAD SWAP2 SWAP1 POP JUMP JUMPDEST DUP4 DUP2 MSTORE PUSH1 0x60 PUSH1 0x20 DUP3 ADD MSTORE PUSH1 0x0 PUSH2 0x40BB PUSH1 0x60 DUP4 ADD DUP6 PUSH2 0x3E7E JUMP JUMPDEST DUP3 DUP2 SUB PUSH1 0x40 DUP5 ADD MSTORE PUSH2 0x3BF7 DUP2 DUP6 PUSH2 0x3E7E JUMP JUMPDEST PUSH1 0x0 PUSH1 0x20 DUP3 DUP5 SUB SLT ISZERO PUSH2 0x40DF JUMPI PUSH1 0x0 DUP1 REVERT JUMPDEST DUP2 MLOAD PUSH2 0x19B4 DUP2 PUSH2 0x3C73 JUMP JUMPDEST PUSH1 0x0 PUSH1 0x20 DUP3 DUP5 SUB SLT ISZERO PUSH2 0x40FC JUMPI PUSH1 0x0 DUP1 REVERT JUMPDEST DUP2 MLOAD PUSH1 0xFF DUP2 AND DUP2 EQ PUSH2 0x19B4 JUMPI PUSH1 0x0 DUP1 REVERT JUMPDEST PUSH1 0x1 DUP2 DUP2 SHR SWAP1 DUP3 AND DUP1 PUSH2 0x4121 JUMPI PUSH1 0x7F DUP3 AND SWAP2 POP JUMPDEST PUSH1 0x20 DUP3 LT DUP2 SUB PUSH2 0x4141 JUMPI PUSH4 0x4E487B71 PUSH1 0xE0 SHL PUSH1 0x0 MSTORE PUSH1 0x22 PUSH1 0x4 MSTORE PUSH1 0x24 PUSH1 0x0 REVERT JUMPDEST POP SWAP2 SWAP1 POP JUMP JUMPDEST PUSH32 0x416363657373436F6E74726F6C3A206163636F756E7420000000000000000000 DUP2 MSTORE PUSH1 0x0 DUP4 MLOAD PUSH2 0x417F DUP2 PUSH1 0x17 DUP6 ADD PUSH1 0x20 DUP9 ADD PUSH2 0x3E2E JUMP JUMPDEST PUSH32 0x206973206D697373696E6720726F6C6520000000000000000000000000000000 PUSH1 0x17 SWAP2 DUP5 ADD SWAP2 DUP3 ADD MSTORE DUP4 MLOAD PUSH2 0x41BC DUP2 PUSH1 0x28 DUP5 ADD PUSH1 0x20 DUP9 ADD PUSH2 0x3E2E JUMP JUMPDEST ADD PUSH1 0x28 ADD SWAP5 SWAP4 POP POP POP POP JUMP JUMPDEST PUSH1 0x20 DUP2 MSTORE PUSH1 0x0 PUSH2 0x19B4 PUSH1 0x20 DUP4 ADD DUP5 PUSH2 0x3E52 JUMP JUMPDEST PUSH1 0x0 PUSH1 0x20 DUP3 DUP5 SUB SLT ISZERO PUSH2 0x41ED JUMPI PUSH1 0x0 DUP1 REVERT JUMPDEST DUP2 MLOAD DUP1 ISZERO ISZERO DUP2 EQ PUSH2 0x19B4 JUMPI PUSH1 0x0 DUP1 REVERT JUMPDEST PUSH1 0x0 DUP3 MLOAD PUSH2 0x420F DUP2 DUP5 PUSH1 0x20 DUP8 ADD PUSH2 0x3E2E JUMP JUMPDEST SWAP2 SWAP1 SWAP2 ADD SWAP3 SWAP2 POP POP JUMP JUMPDEST PUSH1 0x1F DUP3 GT ISZERO PUSH2 0xF46 JUMPI DUP1 PUSH1 0x0 MSTORE PUSH1 0x20 PUSH1 0x0 KECCAK256 PUSH1 0x1F DUP5 ADD PUSH1 0x5 SHR DUP2 ADD PUSH1 0x20 DUP6 LT ISZERO PUSH2 0x4240 JUMPI POP DUP1 JUMPDEST PUSH1 0x1F DUP5 ADD PUSH1 0x5 SHR DUP3 ADD SWAP2 POP JUMPDEST DUP2 DUP2 LT ISZERO PUSH2 0x2149 JUMPI PUSH1 0x0 DUP2 SSTORE PUSH1 0x1 ADD PUSH2 0x424C JUMP JUMPDEST DUP2 MLOAD PUSH8 0xFFFFFFFFFFFFFFFF DUP2 GT ISZERO PUSH2 0x427A JUMPI PUSH2 0x427A PUSH2 0x3B37 JUMP JUMPDEST PUSH2 0x428E DUP2 PUSH2 0x4288 DUP5 SLOAD PUSH2 0x410D JUMP JUMPDEST DUP5 PUSH2 0x4219 JUMP JUMPDEST PUSH1 0x20 PUSH1 0x1F DUP3 GT PUSH1 0x1 DUP2 EQ PUSH2 0x42C2 JUMPI PUSH1 0x0 DUP4 ISZERO PUSH2 0x42AA JUMPI POP DUP5 DUP3 ADD MLOAD JUMPDEST PUSH1 0x0 NOT PUSH1 0x3 DUP6 SWAP1 SHL SHR NOT AND PUSH1 0x1 DUP5 SWAP1 SHL OR DUP5 SSTORE PUSH2 0x2149 JUMP JUMPDEST PUSH1 0x0 DUP5 DUP2 MSTORE PUSH1 0x20 DUP2 KECCAK256 PUSH1 0x1F NOT DUP6 AND SWAP2 JUMPDEST DUP3 DUP2 LT ISZERO PUSH2 0x42F2 JUMPI DUP8 DUP6 ADD MLOAD DUP3 SSTORE PUSH1 0x20 SWAP5 DUP6 ADD SWAP5 PUSH1 0x1 SWAP1 SWAP3 ADD SWAP2 ADD PUSH2 0x42D2 JUMP JUMPDEST POP DUP5 DUP3 LT ISZERO PUSH2 0x4310 JUMPI DUP7 DUP5 ADD MLOAD PUSH1 0x0 NOT PUSH1 0x3 DUP8 SWAP1 SHL PUSH1 0xF8 AND SHR NOT AND DUP2 SSTORE JUMPDEST POP POP POP POP PUSH1 0x1 SWAP1 DUP2 SHL ADD SWAP1 SSTORE POP JUMP JUMPDEST DUP1 DUP3 MUL DUP2 ISZERO DUP3 DUP3 DIV DUP5 EQ OR PUSH2 0xE36 JUMPI PUSH2 0xE36 PUSH2 0x404D JUMP JUMPDEST PUSH1 0x0 DUP2 PUSH2 0x4345 JUMPI PUSH2 0x4345 PUSH2 0x404D JUMP JUMPDEST POP PUSH1 0x0 NOT ADD SWAP1 JUMP JUMPDEST PUSH4 0x4E487B71 PUSH1 0xE0 SHL PUSH1 0x0 MSTORE PUSH1 0x31 PUSH1 0x4 MSTORE PUSH1 0x24 PUSH1 0x0 REVERT INVALID LOG2 PUSH5 0x6970667358 0x22 SLT KECCAK256 0xA9 KECCAK256 BALANCE PUSH26 0xAA170367385044191DC902DA78DF7CE0778C7691EB6F1ED655C8 RETURNDATACOPY EXP PUSH5 0x736F6C6343 STOP ADDMOD SHR STOP CALLER "},"methodIdentifiers":{"BALANCER_ROLE()":"30d3c534","DEFAULT_ADMIN_ROLE()":"a217fddf","MIN_PAYBACK_RATIO()":"7b9f7d94","PAUSER_ROLE()":"e63ab1e9","SETTER_ROLE()":"a2011b3f","TYPE_HASH()":"64d4c819","UNPAUSER_ROLE()":"fb1bb9de","acceptWithdrawRequest(uint256,uint256[],uint256[])":"01228e15","cancelWithdrawRequest(uint256)":"cce4705b","claimForWithdrawRequest(uint256)":"86da0323","collateralTokenAddress()":"6d9dd201","collateralTokenDecimals()":"b54790d8","currentDeposit()":"e94b2f44","deposit(uint256)":"b6b55f25","depositLimit()":"ecf70858","eip712Domain()":"84b0196e","getRoleAdmin(bytes32)":"248a9ca3","getRoleMember(bytes32,uint256)":"9010d07c","getRoleMemberCount(bytes32)":"ca15c873","grantRole(bytes32,address)":"2f2ff15d","hasRole(bytes32,address)":"91d14854","initialize(address,address,address,uint256)":"cf756fdf","lockedBalance()":"7b80889b","pause()":"8456cb59","paused()":"5c975abb","pendingWithdrawalAmount(address)":"deaf30b2","rejectWithdrawRequest(uint256)":"81548fed","renounceRole(bytes32,address)":"36568abe","requestWithdraw(uint256,uint256,address,uint256,uint256,bytes)":"849fc72b","revokeRole(bytes32,address)":"d547741f","setDepositLimit(uint256)":"bdc8144b","setSigner(address)":"6c19e783","setSolver(address)":"1f879433","setSymmioAddress(address)":"01569e3a","setWithdrawalPeriod(uint256)":"973b294f","signer()":"238ac933","solver()":"49a7a26d","supportsInterface(bytes4)":"01ffc9a7","symmio()":"5849b93d","unpause()":"3f4ba83a","usedNonces(address,uint256)":"6a8a6894","withdrawNotLockedCollateralTokens(address,uint256)":"f36fbab7","withdrawRequests(uint256)":"992a7dfb","withdrawalPeriod()":"bca7093d"}},"storageLayout":{"storage":[{"astId":612,"contract":"contracts/solver/OnChainSymmioVaultV2.sol:OnChainSymmioVaultV2","label":"_initialized","offset":0,"slot":"0","type":"t_uint8"},{"astId":615,"contract":"contracts/solver/OnChainSymmioVaultV2.sol:OnChainSymmioVaultV2","label":"_initializing","offset":1,"slot":"0","type":"t_bool"},{"astId":1367,"contract":"contracts/solver/OnChainSymmioVaultV2.sol:OnChainSymmioVaultV2","label":"__gap","offset":0,"slot":"1","type":"t_array(t_uint256)50_storage"},{"astId":2292,"contract":"contracts/solver/OnChainSymmioVaultV2.sol:OnChainSymmioVaultV2","label":"__gap","offset":0,"slot":"51","type":"t_array(t_uint256)50_storage"},{"astId":174,"contract":"contracts/solver/OnChainSymmioVaultV2.sol:OnChainSymmioVaultV2","label":"_roles","offset":0,"slot":"101","type":"t_mapping(t_bytes32,t_struct(RoleData)169_storage)"},{"astId":481,"contract":"contracts/solver/OnChainSymmioVaultV2.sol:OnChainSymmioVaultV2","label":"__gap","offset":0,"slot":"102","type":"t_array(t_uint256)49_storage"},{"astId":22,"contract":"contracts/solver/OnChainSymmioVaultV2.sol:OnChainSymmioVaultV2","label":"_roleMembers","offset":0,"slot":"151","type":"t_mapping(t_bytes32,t_struct(AddressSet)3602_storage)"},{"astId":144,"contract":"contracts/solver/OnChainSymmioVaultV2.sol:OnChainSymmioVaultV2","label":"__gap","offset":0,"slot":"152","type":"t_array(t_uint256)49_storage"},{"astId":796,"contract":"contracts/solver/OnChainSymmioVaultV2.sol:OnChainSymmioVaultV2","label":"_paused","offset":0,"slot":"201","type":"t_bool"},{"astId":901,"contract":"contracts/solver/OnChainSymmioVaultV2.sol:OnChainSymmioVaultV2","label":"__gap","offset":0,"slot":"202","type":"t_array(t_uint256)49_storage"},{"astId":1982,"contract":"contracts/solver/OnChainSymmioVaultV2.sol:OnChainSymmioVaultV2","label":"_hashedName","offset":0,"slot":"251","type":"t_bytes32"},{"astId":1985,"contract":"contracts/solver/OnChainSymmioVaultV2.sol:OnChainSymmioVaultV2","label":"_hashedVersion","offset":0,"slot":"252","type":"t_bytes32"},{"astId":1987,"contract":"contracts/solver/OnChainSymmioVaultV2.sol:OnChainSymmioVaultV2","label":"_name","offset":0,"slot":"253","type":"t_string_storage"},{"astId":1989,"contract":"contracts/solver/OnChainSymmioVaultV2.sol:OnChainSymmioVaultV2","label":"_version","offset":0,"slot":"254","type":"t_string_storage"},{"astId":2247,"contract":"contracts/solver/OnChainSymmioVaultV2.sol:OnChainSymmioVaultV2","label":"__gap","offset":0,"slot":"255","type":"t_array(t_uint256)48_storage"},{"astId":917,"contract":"contracts/solver/OnChainSymmioVaultV2.sol:OnChainSymmioVaultV2","label":"_status","offset":0,"slot":"303","type":"t_uint256"},{"astId":986,"contract":"contracts/solver/OnChainSymmioVaultV2.sol:OnChainSymmioVaultV2","label":"__gap","offset":0,"slot":"304","type":"t_array(t_uint256)49_storage"},{"astId":6472,"contract":"contracts/solver/OnChainSymmioVaultV2.sol:OnChainSymmioVaultV2","label":"symmio","offset":0,"slot":"353","type":"t_contract(ISymmio)6416"},{"astId":6474,"contract":"contracts/solver/OnChainSymmioVaultV2.sol:OnChainSymmioVaultV2","label":"solver","offset":0,"slot":"354","type":"t_address"},{"astId":6476,"contract":"contracts/solver/OnChainSymmioVaultV2.sol:OnChainSymmioVaultV2","label":"signer","offset":0,"slot":"355","type":"t_address"},{"astId":6478,"contract":"contracts/solver/OnChainSymmioVaultV2.sol:OnChainSymmioVaultV2","label":"collateralTokenAddress","offset":0,"slot":"356","type":"t_address"},{"astId":6480,"contract":"contracts/solver/OnChainSymmioVaultV2.sol:OnChainSymmioVaultV2","label":"lockedBalance","offset":0,"slot":"357","type":"t_uint256"},{"astId":6482,"contract":"contracts/solver/OnChainSymmioVaultV2.sol:OnChainSymmioVaultV2","label":"depositLimit","offset":0,"slot":"358","type":"t_uint256"},{"astId":6484,"contract":"contracts/solver/OnChainSymmioVaultV2.sol:OnChainSymmioVaultV2","label":"currentDeposit","offset":0,"slot":"359","type":"t_uint256"},{"astId":6486,"contract":"contracts/solver/OnChainSymmioVaultV2.sol:OnChainSymmioVaultV2","label":"collateralTokenDecimals","offset":0,"slot":"360","type":"t_uint256"},{"astId":6490,"contract":"contracts/solver/OnChainSymmioVaultV2.sol:OnChainSymmioVaultV2","label":"withdrawRequests","offset":0,"slot":"361","type":"t_array(t_struct(WithdrawRequest)6320_storage)dyn_storage"},{"astId":6492,"contract":"contracts/solver/OnChainSymmioVaultV2.sol:OnChainSymmioVaultV2","label":"withdrawalPeriod","offset":0,"slot":"362","type":"t_uint256"},{"astId":6496,"contract":"contracts/solver/OnChainSymmioVaultV2.sol:OnChainSymmioVaultV2","label":"pendingWithdrawalAmount","offset":0,"slot":"363","type":"t_mapping(t_address,t_uint256)"},{"astId":6502,"contract":"contracts/solver/OnChainSymmioVaultV2.sol:OnChainSymmioVaultV2","label":"usedNonces","offset":0,"slot":"364","type":"t_mapping(t_address,t_mapping(t_uint256,t_bool))"}],"types":{"t_address":{"encoding":"inplace","label":"address","numberOfBytes":"20"},"t_array(t_bytes32)dyn_storage":{"base":"t_bytes32","encoding":"dynamic_array","label":"bytes32[]","numberOfBytes":"32"},"t_array(t_struct(WithdrawRequest)6320_storage)dyn_storage":{"base":"t_struct(WithdrawRequest)6320_storage","encoding":"dynamic_array","label":"struct IOnChainSymmioVault.WithdrawRequest[]","numberOfBytes":"32"},"t_array(t_uint256)48_storage":{"base":"t_uint256","encoding":"inplace","label":"uint256[48]","numberOfBytes":"1536"},"t_array(t_uint256)49_storage":{"base":"t_uint256","encoding":"inplace","label":"uint256[49]","numberOfBytes":"1568"},"t_array(t_uint256)50_storage":{"base":"t_uint256","encoding":"inplace","label":"uint256[50]","numberOfBytes":"1600"},"t_bool":{"encoding":"inplace","label":"bool","numberOfBytes":"1"},"t_bytes32":{"encoding":"inplace","label":"bytes32","numberOfBytes":"32"},"t_contract(ISymmio)6416":{"encoding":"inplace","label":"contract ISymmio","numberOfBytes":"20"},"t_enum(RequestStatus)6326":{"encoding":"inplace","label":"enum IOnChainSymmioVault.RequestStatus","numberOfBytes":"1"},"t_mapping(t_address,t_bool)":{"encoding":"mapping","key":"t_address","label":"mapping(address => bool)","numberOfBytes":"32","value":"t_bool"},"t_mapping(t_address,t_mapping(t_uint256,t_bool))":{"encoding":"mapping","key":"t_address","label":"mapping(address => mapping(uint256 => bool))","numberOfBytes":"32","value":"t_mapping(t_uint256,t_bool)"},"t_mapping(t_address,t_uint256)":{"encoding":"mapping","key":"t_address","label":"mapping(address => uint256)","numberOfBytes":"32","value":"t_uint256"},"t_mapping(t_bytes32,t_struct(AddressSet)3602_storage)":{"encoding":"mapping","key":"t_bytes32","label":"mapping(bytes32 => struct EnumerableSetUpgradeable.AddressSet)","numberOfBytes":"32","value":"t_struct(AddressSet)3602_storage"},"t_mapping(t_bytes32,t_struct(RoleData)169_storage)":{"encoding":"mapping","key":"t_bytes32","label":"mapping(bytes32 => struct AccessControlUpgradeable.RoleData)","numberOfBytes":"32","value":"t_struct(RoleData)169_storage"},"t_mapping(t_bytes32,t_uint256)":{"encoding":"mapping","key":"t_bytes32","label":"mapping(bytes32 => uint256)","numberOfBytes":"32","value":"t_uint256"},"t_mapping(t_uint256,t_bool)":{"encoding":"mapping","key":"t_uint256","label":"mapping(uint256 => bool)","numberOfBytes":"32","value":"t_bool"},"t_string_storage":{"encoding":"bytes","label":"string","numberOfBytes":"32"},"t_struct(AddressSet)3602_storage":{"encoding":"inplace","label":"struct EnumerableSetUpgradeable.AddressSet","members":[{"astId":3601,"contract":"contracts/solver/OnChainSymmioVaultV2.sol:OnChainSymmioVaultV2","label":"_inner","offset":0,"slot":"0","type":"t_struct(Set)3287_storage"}],"numberOfBytes":"64"},"t_struct(RoleData)169_storage":{"encoding":"inplace","label":"struct AccessControlUpgradeable.RoleData","members":[{"astId":166,"contract":"contracts/solver/OnChainSymmioVaultV2.sol:OnChainSymmioVaultV2","label":"members","offset":0,"slot":"0","type":"t_mapping(t_address,t_bool)"},{"astId":168,"contract":"contracts/solver/OnChainSymmioVaultV2.sol:OnChainSymmioVaultV2","label":"adminRole","offset":0,"slot":"1","type":"t_bytes32"}],"numberOfBytes":"64"},"t_struct(Set)3287_storage":{"encoding":"inplace","label":"struct EnumerableSetUpgradeable.Set","members":[{"astId":3282,"contract":"contracts/solver/OnChainSymmioVaultV2.sol:OnChainSymmioVaultV2","label":"_values","offset":0,"slot":"0","type":"t_array(t_bytes32)dyn_storage"},{"astId":3286,"contract":"contracts/solver/OnChainSymmioVaultV2.sol:OnChainSymmioVaultV2","label":"_indexes","offset":0,"slot":"1","type":"t_mapping(t_bytes32,t_uint256)"}],"numberOfBytes":"64"},"t_struct(WithdrawRequest)6320_storage":{"encoding":"inplace","label":"struct IOnChainSymmioVault.WithdrawRequest","members":[{"astId":6304,"contract":"contracts/solver/OnChainSymmioVaultV2.sol:OnChainSymmioVaultV2","label":"receiver","offset":0,"slot":"0","type":"t_address"},{"astId":6306,"contract":"contracts/solver/OnChainSymmioVaultV2.sol:OnChainSymmioVaultV2","label":"sender","offset":0,"slot":"1","type":"t_address"},{"astId":6308,"contract":"contracts/solver/OnChainSymmioVaultV2.sol:OnChainSymmioVaultV2","label":"amount","offset":0,"slot":"2","type":"t_uint256"},{"astId":6310,"contract":"contracts/solver/OnChainSymmioVaultV2.sol:OnChainSymmioVaultV2","label":"minAmountOut","offset":0,"slot":"3","type":"t_uint256"},{"astId":6313,"contract":"contracts/solver/OnChainSymmioVaultV2.sol:OnChainSymmioVaultV2","label":"status","offset":0,"slot":"4","type":"t_enum(RequestStatus)6326"},{"astId":6315,"contract":"contracts/solver/OnChainSymmioVaultV2.sol:OnChainSymmioVaultV2","label":"acceptedAmount","offset":0,"slot":"5","type":"t_uint256"},{"astId":6317,"contract":"contracts/solver/OnChainSymmioVaultV2.sol:OnChainSymmioVaultV2","label":"acceptedWithdrawRequestTimestamp","offset":0,"slot":"6","type":"t_uint256"},{"astId":6319,"contract":"contracts/solver/OnChainSymmioVaultV2.sol:OnChainSymmioVaultV2","label":"claimableAt","offset":0,"slot":"7","type":"t_uint256"}],"numberOfBytes":"256"},"t_uint256":{"encoding":"inplace","label":"uint256","numberOfBytes":"32"},"t_uint8":{"encoding":"inplace","label":"uint8","numberOfBytes":"1"}}}}}}