{"contracts/StakedINTX.sol":{"StakedINTX":{"abi":[{"inputs":[],"stateMutability":"nonpayable","type":"constructor"},{"anonymous":false,"inputs":[{"indexed":true,"internalType":"address","name":"owner","type":"address"},{"indexed":true,"internalType":"address","name":"approved","type":"address"},{"indexed":true,"internalType":"uint256","name":"tokenId","type":"uint256"}],"name":"Approval","type":"event"},{"anonymous":false,"inputs":[{"indexed":true,"internalType":"address","name":"owner","type":"address"},{"indexed":true,"internalType":"address","name":"operator","type":"address"},{"indexed":false,"internalType":"bool","name":"approved","type":"bool"}],"name":"ApprovalForAll","type":"event"},{"anonymous":false,"inputs":[{"indexed":true,"internalType":"address","name":"owner","type":"address"},{"indexed":true,"internalType":"uint256","name":"tokenId","type":"uint256"},{"indexed":false,"internalType":"uint256","name":"amountBurned","type":"uint256"},{"indexed":false,"internalType":"uint256","name":"amountIntxOut","type":"uint256"},{"indexed":false,"internalType":"uint256","name":"amountIntxPenalized","type":"uint256"},{"indexed":false,"internalType":"uint256","name":"totalXINTXNew","type":"uint256"}],"name":"Burn","type":"event"},{"anonymous":false,"inputs":[{"indexed":true,"internalType":"address","name":"owner","type":"address"},{"indexed":false,"internalType":"uint256","name":"amountOut","type":"uint256"},{"indexed":true,"internalType":"uint256[]","name":"tokenIds","type":"uint256[]"}],"name":"Claim","type":"event"},{"anonymous":false,"inputs":[{"indexed":false,"internalType":"uint8","name":"version","type":"uint8"}],"name":"Initialized","type":"event"},{"anonymous":false,"inputs":[{"indexed":true,"internalType":"address","name":"owner","type":"address"},{"indexed":true,"internalType":"uint256","name":"tokenIdFrom","type":"uint256"},{"indexed":false,"internalType":"uint256","name":"tokenIdTo","type":"uint256"},{"indexed":false,"internalType":"uint256","name":"newBalance","type":"uint256"},{"indexed":false,"internalType":"uint256","name":"newLoyalSince","type":"uint256"}],"name":"Merge","type":"event"},{"anonymous":false,"inputs":[{"indexed":true,"internalType":"address","name":"from","type":"address"},{"indexed":true,"internalType":"address","name":"to","type":"address"},{"indexed":true,"internalType":"uint256","name":"tokenId","type":"uint256"},{"indexed":false,"internalType":"uint256","name":"amountMinted","type":"uint256"},{"indexed":false,"internalType":"uint256","name":"amountIntxIn","type":"uint256"},{"indexed":false,"internalType":"uint256","name":"totalXINTXNew","type":"uint256"},{"indexed":false,"internalType":"uint256","name":"newTotalWeight","type":"uint256"}],"name":"Mint","type":"event"},{"anonymous":false,"inputs":[{"indexed":true,"internalType":"address","name":"previousOwner","type":"address"},{"indexed":true,"internalType":"address","name":"newOwner","type":"address"}],"name":"OwnershipTransferStarted","type":"event"},{"anonymous":false,"inputs":[{"indexed":true,"internalType":"address","name":"previousOwner","type":"address"},{"indexed":true,"internalType":"address","name":"newOwner","type":"address"}],"name":"OwnershipTransferred","type":"event"},{"anonymous":false,"inputs":[{"indexed":false,"internalType":"uint256","name":"rewardAdded","type":"uint256"}],"name":"RewardAdded","type":"event"},{"anonymous":false,"inputs":[{"indexed":true,"internalType":"address","name":"owner","type":"address"},{"indexed":true,"internalType":"uint256","name":"tokenIdFrom","type":"uint256"},{"indexed":false,"internalType":"uint256","name":"tokenIdTo","type":"uint256"},{"indexed":false,"internalType":"uint256","name":"balanceSplitted","type":"uint256"}],"name":"Split","type":"event"},{"anonymous":false,"inputs":[{"indexed":true,"internalType":"address","name":"from","type":"address"},{"indexed":true,"internalType":"address","name":"to","type":"address"},{"indexed":true,"internalType":"uint256","name":"tokenId","type":"uint256"}],"name":"Transfer","type":"event"},{"inputs":[],"name":"DURATION","outputs":[{"internalType":"uint256","name":"","type":"uint256"}],"stateMutability":"view","type":"function"},{"inputs":[],"name":"INTX","outputs":[{"internalType":"contract IERC20","name":"","type":"address"}],"stateMutability":"view","type":"function"},{"inputs":[],"name":"P","outputs":[{"internalType":"uint256","name":"","type":"uint256"}],"stateMutability":"view","type":"function"},{"inputs":[],"name":"acceptOwnership","outputs":[],"stateMutability":"nonpayable","type":"function"},{"inputs":[{"internalType":"uint256","name":"_intxAmount","type":"uint256"},{"internalType":"uint256","name":"tokenTo","type":"uint256"}],"name":"add","outputs":[],"stateMutability":"nonpayable","type":"function"},{"inputs":[{"internalType":"uint256","name":"_tokenId","type":"uint256"}],"name":"amountStakedOf","outputs":[{"internalType":"uint256","name":"amount","type":"uint256"}],"stateMutability":"view","type":"function"},{"inputs":[{"internalType":"address","name":"to","type":"address"},{"internalType":"uint256","name":"tokenId","type":"uint256"}],"name":"approve","outputs":[],"stateMutability":"nonpayable","type":"function"},{"inputs":[{"internalType":"address","name":"owner","type":"address"}],"name":"balanceOf","outputs":[{"internalType":"uint256","name":"","type":"uint256"}],"stateMutability":"view","type":"function"},{"inputs":[{"internalType":"uint256","name":"","type":"uint256"}],"name":"balanceOfId","outputs":[{"internalType":"uint256","name":"","type":"uint256"}],"stateMutability":"view","type":"function"},{"inputs":[{"internalType":"uint256","name":"_tokenId","type":"uint256"}],"name":"boostPercentageOf","outputs":[{"internalType":"uint256","name":"boostPercentage","type":"uint256"}],"stateMutability":"view","type":"function"},{"inputs":[{"internalType":"uint256[]","name":"_tokenIds","type":"uint256[]"}],"name":"claim","outputs":[],"stateMutability":"nonpayable","type":"function"},{"inputs":[],"name":"currentExchangeRate","outputs":[{"internalType":"uint256","name":"_exchangeRate","type":"uint256"}],"stateMutability":"view","type":"function"},{"inputs":[{"internalType":"uint256","name":"_tokenId","type":"uint256"}],"name":"earned","outputs":[{"internalType":"uint256","name":"","type":"uint256"}],"stateMutability":"view","type":"function"},{"inputs":[{"internalType":"uint256","name":"tokenId","type":"uint256"}],"name":"getApproved","outputs":[{"internalType":"address","name":"","type":"address"}],"stateMutability":"view","type":"function"},{"inputs":[{"internalType":"uint256","name":"_tokenId","type":"uint256"}],"name":"getPositionInfo","outputs":[{"components":[{"internalType":"uint256","name":"tokenId","type":"uint256"},{"internalType":"address","name":"owner","type":"address"},{"internalType":"uint256","name":"balanceOfId","type":"uint256"},{"internalType":"uint256","name":"amountStakedOf","type":"uint256"},{"internalType":"uint256","name":"withdrawableAmountOf","type":"uint256"},{"internalType":"uint256","name":"loyalSince","type":"uint256"},{"internalType":"uint256","name":"boostPercentageOf","type":"uint256"},{"internalType":"uint256","name":"penaltyPercentageOf","type":"uint256"},{"internalType":"uint256","name":"penaltyAmountOf","type":"uint256"},{"internalType":"uint256","name":"pendingReward","type":"uint256"}],"internalType":"struct StakedINTX.PositionInfo","name":"_positionInfo","type":"tuple"}],"stateMutability":"view","type":"function"},{"inputs":[{"internalType":"uint256[]","name":"_tokenId","type":"uint256[]"}],"name":"getPositionInfo","outputs":[{"components":[{"internalType":"uint256","name":"tokenId","type":"uint256"},{"internalType":"address","name":"owner","type":"address"},{"internalType":"uint256","name":"balanceOfId","type":"uint256"},{"internalType":"uint256","name":"amountStakedOf","type":"uint256"},{"internalType":"uint256","name":"withdrawableAmountOf","type":"uint256"},{"internalType":"uint256","name":"loyalSince","type":"uint256"},{"internalType":"uint256","name":"boostPercentageOf","type":"uint256"},{"internalType":"uint256","name":"penaltyPercentageOf","type":"uint256"},{"internalType":"uint256","name":"penaltyAmountOf","type":"uint256"},{"internalType":"uint256","name":"pendingReward","type":"uint256"}],"internalType":"struct StakedINTX.PositionInfo[]","name":"_positionInfo","type":"tuple[]"}],"stateMutability":"view","type":"function"},{"inputs":[{"internalType":"address","name":"_intx","type":"address"},{"internalType":"address","name":"_usdc","type":"address"}],"name":"initialize","outputs":[],"stateMutability":"nonpayable","type":"function"},{"inputs":[{"internalType":"address","name":"owner","type":"address"},{"internalType":"address","name":"operator","type":"address"}],"name":"isApprovedForAll","outputs":[{"internalType":"bool","name":"","type":"bool"}],"stateMutability":"view","type":"function"},{"inputs":[],"name":"lastTimeRewardApplicable","outputs":[{"internalType":"uint256","name":"","type":"uint256"}],"stateMutability":"view","type":"function"},{"inputs":[],"name":"lastTokenId","outputs":[{"internalType":"uint256","name":"","type":"uint256"}],"stateMutability":"view","type":"function"},{"inputs":[],"name":"lastUpdateTime","outputs":[{"internalType":"uint256","name":"","type":"uint256"}],"stateMutability":"view","type":"function"},{"inputs":[{"internalType":"uint256","name":"","type":"uint256"}],"name":"loyalSince","outputs":[{"internalType":"uint256","name":"","type":"uint256"}],"stateMutability":"view","type":"function"},{"inputs":[],"name":"loyaltyDuration","outputs":[{"internalType":"uint256","name":"","type":"uint256"}],"stateMutability":"view","type":"function"},{"inputs":[],"name":"maxLoyaltyBoost","outputs":[{"internalType":"uint256","name":"","type":"uint256"}],"stateMutability":"view","type":"function"},{"inputs":[],"name":"maxPenalty","outputs":[{"internalType":"uint256","name":"","type":"uint256"}],"stateMutability":"view","type":"function"},{"inputs":[{"internalType":"uint256","name":"_tokenFrom","type":"uint256"},{"internalType":"uint256","name":"tokenTo","type":"uint256"}],"name":"merge","outputs":[],"stateMutability":"nonpayable","type":"function"},{"inputs":[],"name":"minPenalty","outputs":[{"internalType":"uint256","name":"","type":"uint256"}],"stateMutability":"view","type":"function"},{"inputs":[],"name":"name","outputs":[{"internalType":"string","name":"","type":"string"}],"stateMutability":"view","type":"function"},{"inputs":[{"internalType":"uint256","name":"_rewardAmount","type":"uint256"}],"name":"notifyReward","outputs":[],"stateMutability":"nonpayable","type":"function"},{"inputs":[],"name":"owner","outputs":[{"internalType":"address","name":"","type":"address"}],"stateMutability":"view","type":"function"},{"inputs":[{"internalType":"uint256","name":"tokenId","type":"uint256"}],"name":"ownerOf","outputs":[{"internalType":"address","name":"","type":"address"}],"stateMutability":"view","type":"function"},{"inputs":[{"internalType":"uint256","name":"_tokenId","type":"uint256"}],"name":"penaltyAmountOf","outputs":[{"internalType":"uint256","name":"penaltyAmount","type":"uint256"}],"stateMutability":"view","type":"function"},{"inputs":[{"internalType":"uint256","name":"_tokenId","type":"uint256"}],"name":"penaltyPercentageOf","outputs":[{"internalType":"uint256","name":"penaltyPercentage","type":"uint256"}],"stateMutability":"view","type":"function"},{"inputs":[],"name":"pendingOwner","outputs":[{"internalType":"address","name":"","type":"address"}],"stateMutability":"view","type":"function"},{"inputs":[],"name":"periodFinish","outputs":[{"internalType":"uint256","name":"","type":"uint256"}],"stateMutability":"view","type":"function"},{"inputs":[],"name":"renounceOwnership","outputs":[],"stateMutability":"nonpayable","type":"function"},{"inputs":[],"name":"rewardPerWeight","outputs":[{"internalType":"uint256","name":"","type":"uint256"}],"stateMutability":"view","type":"function"},{"inputs":[],"name":"rewardRate","outputs":[{"internalType":"uint256","name":"","type":"uint256"}],"stateMutability":"view","type":"function"},{"inputs":[],"name":"rewardToken","outputs":[{"internalType":"contract IERC20","name":"","type":"address"}],"stateMutability":"view","type":"function"},{"inputs":[{"internalType":"address","name":"from","type":"address"},{"internalType":"address","name":"to","type":"address"},{"internalType":"uint256","name":"tokenId","type":"uint256"}],"name":"safeTransferFrom","outputs":[],"stateMutability":"nonpayable","type":"function"},{"inputs":[{"internalType":"address","name":"from","type":"address"},{"internalType":"address","name":"to","type":"address"},{"internalType":"uint256","name":"tokenId","type":"uint256"},{"internalType":"bytes","name":"data","type":"bytes"}],"name":"safeTransferFrom","outputs":[],"stateMutability":"nonpayable","type":"function"},{"inputs":[{"internalType":"address","name":"operator","type":"address"},{"internalType":"bool","name":"approved","type":"bool"}],"name":"setApprovalForAll","outputs":[],"stateMutability":"nonpayable","type":"function"},{"inputs":[{"internalType":"uint256","name":"_tokenId","type":"uint256"},{"internalType":"uint256[]","name":"_splitWeights","type":"uint256[]"}],"name":"split","outputs":[{"internalType":"uint256[]","name":"_tokenIds","type":"uint256[]"}],"stateMutability":"nonpayable","type":"function"},{"inputs":[{"internalType":"uint256","name":"_intxAmount","type":"uint256"}],"name":"stake","outputs":[{"internalType":"uint256","name":"_tokenId","type":"uint256"}],"stateMutability":"nonpayable","type":"function"},{"inputs":[{"internalType":"address","name":"_to","type":"address"},{"internalType":"uint256","name":"_intxAmount","type":"uint256"}],"name":"stakeFor","outputs":[{"internalType":"uint256","name":"_tokenId","type":"uint256"}],"stateMutability":"nonpayable","type":"function"},{"inputs":[{"internalType":"bytes4","name":"interfaceId","type":"bytes4"}],"name":"supportsInterface","outputs":[{"internalType":"bool","name":"","type":"bool"}],"stateMutability":"view","type":"function"},{"inputs":[],"name":"symbol","outputs":[{"internalType":"string","name":"","type":"string"}],"stateMutability":"view","type":"function"},{"inputs":[{"internalType":"uint256","name":"tokenId","type":"uint256"}],"name":"tokenURI","outputs":[{"internalType":"string","name":"","type":"string"}],"stateMutability":"view","type":"function"},{"inputs":[],"name":"totalXINTX","outputs":[{"internalType":"uint256","name":"","type":"uint256"}],"stateMutability":"view","type":"function"},{"inputs":[{"internalType":"address","name":"from","type":"address"},{"internalType":"address","name":"to","type":"address"},{"internalType":"uint256","name":"tokenId","type":"uint256"}],"name":"transferFrom","outputs":[],"stateMutability":"nonpayable","type":"function"},{"inputs":[{"internalType":"address","name":"newOwner","type":"address"}],"name":"transferOwnership","outputs":[],"stateMutability":"nonpayable","type":"function"},{"inputs":[{"internalType":"uint256","name":"_tokenId","type":"uint256"}],"name":"unstake","outputs":[{"internalType":"uint256","name":"_intxAmountOut","type":"uint256"}],"stateMutability":"nonpayable","type":"function"},{"inputs":[{"internalType":"uint256","name":"_tokenId","type":"uint256"},{"internalType":"uint256","name":"_xIntxAmountWithdraw","type":"uint256"}],"name":"unstakePartially","outputs":[{"internalType":"uint256","name":"_intxAmountOut","type":"uint256"},{"internalType":"uint256","name":"_newTokenId","type":"uint256"}],"stateMutability":"nonpayable","type":"function"},{"inputs":[{"internalType":"uint256[]","name":"_tokenIds","type":"uint256[]"}],"name":"updateWeights","outputs":[],"stateMutability":"nonpayable","type":"function"},{"inputs":[{"internalType":"uint256","name":"_tokenId","type":"uint256"}],"name":"withdrawableAmountOf","outputs":[{"internalType":"uint256","name":"withdrawableAmount","type":"uint256"}],"stateMutability":"view","type":"function"}],"evm":{"bytecode":{"linkReferences":{},"object":"60806040523480156200001157600080fd5b506200001c62000022565b620000e3565b600054610100900460ff16156200008f5760405162461bcd60e51b815260206004820152602760248201527f496e697469616c697a61626c653a20636f6e747261637420697320696e697469604482015266616c697a696e6760c81b606482015260840160405180910390fd5b60005460ff90811614620000e1576000805460ff191660ff9081179091556040519081527f7f26b83ff96e1f2b6a682f133852f6798a09c465da95921460cefb38474024989060200160405180910390a15b565b61457f80620000f36000396000f3fe608060405234801561001057600080fd5b506004361061036d5760003560e01c8063771602f7116101d3578063c87b56dd11610104578063e30c3978116100a2578063f290dfa71161007c578063f290dfa71461074b578063f2fde38b14610773578063f7c618c114610786578063f84ddf0b1461079a57600080fd5b8063e30c3978146106f4578063e985e9c514610705578063ebe2b12b1461074157600080fd5b8063d1a249ab116100de578063d1a249ab146106b0578063d1c2babb146106ba578063d975dfed146106cd578063df2e0b97146106e057600080fd5b8063c87b56dd14610672578063c8f33c9114610685578063cfd0e1251461068f57600080fd5b8063988dc31e11610171578063a22cb4651161014b578063a22cb46514610632578063a368497714610644578063a694fc3a1461064c578063b88d4fde1461065f57600080fd5b8063988dc31e146105eb578063a00ea0c5146105fe578063a1c95e5a1461061157600080fd5b806380faa57d116101ad57806380faa57d146105bb5780638b8fbd92146105c35780638da5cb5b146105d257806395d89b41146105e357600080fd5b8063771602f71461059657806379ba5097146105a95780637b0a47ee146105b157600080fd5b8063485cc955116102ad57806360993b5b1161024b57806369c672471161022557806369c67247146105485780636ba4c1381461056857806370a082311461057b578063715018a61461058e57600080fd5b806360993b5b1461050f5780636352211e14610522578063645bfd9a1461053557600080fd5b80635200e79e116102875780635200e79e146104c8578063520bf08a146104d25780635a48a97f146104dc5780635a5e7e0d146104ef57600080fd5b8063485cc955146104825780634d6ed8c414610495578063519f5099146104a857600080fd5b80632212b8061161031a5780632e17de78116102f45780632e17de78146104365780632ee409081461044957806330f916191461045c57806342842e0e1461046f57600080fd5b80632212b8061461041157806323b872dd1461041b5780632ac3f4501461042e57600080fd5b8063095ea7b31161034b578063095ea7b3146103da5780630eba9849146103ef5780631be052891461040757600080fd5b806301ffc9a71461037257806306fdde031461039a578063081812fc146103af575b600080fd5b610385610380366004613d9c565b6107a4565b60405190151581526020015b60405180910390f35b6103a2610889565b6040516103919190613e09565b6103c26103bd366004613e1c565b61091b565b6040516001600160a01b039091168152602001610391565b6103ed6103e8366004613e4c565b610942565b005b6103f96101325481565b604051908152602001610391565b6103f962093a8081565b6103f96101305481565b6103ed610429366004613e76565b505050565b6103f9610a87565b6103f9610444366004613e1c565b610b4c565b6103f9610457366004613e4c565b610b57565b6103ed61046a366004613efe565b610b6b565b6103ed61047d366004613e76565b610bb0565b6103ed610490366004613f40565b610bcb565b6103f96104a3366004613e1c565b610e9f565b6104bb6104b6366004613e1c565b610f67565b6040516103919190613fea565b6103f96101315481565b6103f961012e5481565b6103f96104ea366004613e1c565b610fcf565b6105026104fd366004613efe565b611014565b6040516103919190613ff9565b6103ed61051d366004613e1c565b611127565b6103c2610530366004613e1c565b611331565b6103f9610543366004613e1c565b611396565b61055b610556366004614048565b6113c1565b6040516103919190614094565b6103ed610576366004613efe565b611400565b6103f96105893660046140cc565b61161d565b6103ed6116b7565b6103ed6105a43660046140e7565b6116c1565b6103ed6116da565b6103f96101355481565b6103f9611765565b6103f9670de0b6b3a764000081565b60c9546001600160a01b03166103c2565b6103a2611779565b6103f96105f9366004613e1c565b611788565b6103f961060c366004613e1c565b6117ae565b6103f961061f366004613e1c565b61013b6020526000908152604090205481565b6103ed610640366004614117565b5050565b6103f96117d4565b6103f961065a366004613e1c565b6117de565b6103ed61066d366004614164565b6117eb565b6103a2610680366004613e1c565b611873565b6103f96101335481565b6103f961069d366004613e1c565b61013a6020526000908152604090205481565b6103f961012f5481565b6103ed6106c83660046140e7565b6118e6565b6103f96106db366004613e1c565b6118f0565b610138546103c2906001600160a01b031681565b60fb546001600160a01b03166103c2565b610385610713366004613f40565b6001600160a01b039182166000908152609c6020908152604080832093909416825291909152205460ff1690565b6103f96101345481565b61075e6107593660046140e7565b611938565b60408051928352602083019190915201610391565b6103ed6107813660046140cc565b611a82565b610139546103c2906001600160a01b031681565b6103f961012d5481565b60007fffffffff0000000000000000000000000000000000000000000000000000000082167f80ac58cd00000000000000000000000000000000000000000000000000000000148061083757507fffffffff0000000000000000000000000000000000000000000000000000000082167f5b5e139f00000000000000000000000000000000000000000000000000000000145b8061088357507f01ffc9a7000000000000000000000000000000000000000000000000000000007fffffffff000000000000000000000000000000000000000000000000000000008316145b92915050565b60606097805461089890614240565b80601f01602080910402602001604051908101604052809291908181526020018280546108c490614240565b80156109115780601f106108e657610100808354040283529160200191610911565b820191906000526020600020905b8154815290600101906020018083116108f457829003601f168201915b5050505050905090565b600061092682611b00565b506000908152609b60205260409020546001600160a01b031690565b600061094d82611331565b9050806001600160a01b0316836001600160a01b0316036109db5760405162461bcd60e51b815260206004820152602160248201527f4552433732313a20617070726f76616c20746f2063757272656e74206f776e6560448201527f720000000000000000000000000000000000000000000000000000000000000060648201526084015b60405180910390fd5b336001600160a01b0382161480610a1557506001600160a01b0381166000908152609c6020908152604080832033845290915290205460ff165b6104295760405162461bcd60e51b815260206004820152603d60248201527f4552433732313a20617070726f76652063616c6c6572206973206e6f7420746f60448201527f6b656e206f776e6572206f7220617070726f76656420666f7220616c6c00000060648201526084016109d2565b600061013754600003610a9c57506101365490565b60006101375411610aef5760405162461bcd60e51b815260206004820152601060248201527f496e636f7272656374207765696768740000000000000000000000000000000060448201526064016109d2565b600061013354610afd611765565b610b079190614290565b9050610137546101355482610b1c91906142a3565b610b2e90670de0b6b3a76400006142a3565b610b3891906142ba565b61013654610b4691906142dc565b91505090565b600061088382611b64565b6000610b64338484611e18565b9392505050565b8060005b81811015610baa57610b98848483818110610b8c57610b8c6142ef565b90506020020135611fd1565b80610ba281614305565b915050610b6f565b50505050565b610429838383604051806020016040528060008152506117eb565b600054610100900460ff1615808015610beb5750600054600160ff909116105b80610c055750303b158015610c05575060005460ff166001145b610c775760405162461bcd60e51b815260206004820152602e60248201527f496e697469616c697a61626c653a20636f6e747261637420697320616c72656160448201527f647920696e697469616c697a656400000000000000000000000000000000000060648201526084016109d2565b600080547fffffffffffffffffffffffffffffffffffffffffffffffffffffffffffffff001660011790558015610cb8576000805461ff0019166101001790555b610cc0612097565b610d346040518060400160405280600b81526020017f5374616b656420494e54580000000000000000000000000000000000000000008152506040518060400160405280600581526020017f58494e545800000000000000000000000000000000000000000000000000000081525061210a565b610d3c61217f565b6001600160a01b038316610d925760405162461bcd60e51b815260206004820152601460248201527f43616e277420757365203078206164647265737300000000000000000000000060448201526064016109d2565b6001600160a01b038216610de85760405162461bcd60e51b815260206004820152601460248201527f43616e277420757365203078206164647265737300000000000000000000000060448201526064016109d2565b61013880546001600160a01b0380861673ffffffffffffffffffffffffffffffffffffffff19928316179092556101398054928516929091169190911790556293a80061012f556722b1c8c1227a0000610130556703782dace9d90000610131556611c37937e08000610132558015610429576000805461ff0019169055604051600181527f7f26b83ff96e1f2b6a682f133852f6798a09c465da95921460cefb38474024989060200160405180910390a1505050565b600080670de0b6b3a7640000610eb4846121f2565b600085815261013b6020526040902054610ece91906142a3565b610ed891906142ba565b600084815261013c602052604081205491925090600290610efa9084906142dc565b610f0491906142ba565b600085815261013e602090815260408083205461013d9092529091205491925090670de0b6b3a764000090610f37610a87565b610f419190614290565b610f4b90846142a3565b610f5591906142ba565b610f5f91906142dc565b949350505050565b610fc66040518061014001604052806000815260200160006001600160a01b0316815260200160008152602001600081526020016000815260200160008152602001600081526020016000815260200160008152602001600081525090565b6108838261228f565b600080610fdb836123d8565b90506000610fe884612406565b9050811561100d57670de0b6b3a764000061100382846142a3565b610f5f91906142ba565b5050919050565b6060818067ffffffffffffffff8111156110305761103061414e565b6040519080825280602002602001820160405280156110c057816020015b6110ad6040518061014001604052806000815260200160006001600160a01b0316815260200160008152602001600081526020016000815260200160008152602001600081526020016000815260200160008152602001600081525090565b81526020019060019003908161104e5790505b50915060005b8181101561111f576110ef8585838181106110e3576110e36142ef565b9050602002013561228f565b838281518110611101576111016142ef565b6020026020010181905250808061111790614305565b9150506110c6565b505092915050565b61112f6124af565b611137612508565b61115033610139546001600160a01b0316903084612562565b611162670de0b6b3a7640000826142a3565b90506101345442106111845761117b62093a80826142ba565b610135556111c9565b600042610134546111959190614290565b9050600061013554826111a891906142a3565b905062093a806111b882856142dc565b6111c291906142ba565b6101355550505b610139546040517f70a08231000000000000000000000000000000000000000000000000000000008152306004820152600091670de0b6b3a7640000916001600160a01b03909116906370a0823190602401602060405180830381865afa158015611238573d6000803e3d6000fd5b505050506040513d601f19601f8201168201806040525081019061125c919061431f565b61126691906142a3565b905061127562093a80826142ba565b6101355411156112c75760405162461bcd60e51b815260206004820152601860248201527f50726f76696465642072657761726420746f6f2068696768000000000000000060448201526064016109d2565b426101338190556112dc9062093a80906142dc565b610134557fde88a922e0d3b88b24e9623efeb464919c6bf9f66857a65e2bfcf2ce87a9433d611313670de0b6b3a7640000846142ba565b60405190815260200160405180910390a15061132e60018055565b50565b6000818152609960205260408120546001600160a01b0316806108835760405162461bcd60e51b815260206004820152601860248201527f4552433732313a20696e76616c696420746f6b656e204944000000000000000060448201526064016109d2565b6000818152609960205260408120546001600160a01b0316156113bc57610883826121f2565b919050565b6060610f5f8484848080602002602001604051908101604052809392919081815260200183836020028082843760009201919091525061261992505050565b33600090815261013f60205260408120548291908190815b8481101561157e57868682818110611432576114326142ef565b90506020020135935061145c846000908152609960205260409020546001600160a01b0316151590565b6114a85760405162461bcd60e51b815260206004820152601c60248201527f5468697320706f736974696f6e20646f65736e27742065786973742e0000000060448201526064016109d2565b6000848152609960205260409020546001600160a01b031692503383146115375760405162461bcd60e51b815260206004820152602760248201527f596f7520617265206e6f7420746865206f776e6572206f66207468697320706f60448201527f736974696f6e2e0000000000000000000000000000000000000000000000000060648201526084016109d2565b61154084611fd1565b600084815261013e602052604090205461155a90836142dc565b600085815261013e602052604081205591508061157681614305565b915050611418565b5033600081815261013f60205260408120556115ba906115a6670de0b6b3a7640000846142ba565b610139546001600160a01b03169190612b6d565b85856040516115ca929190614338565b6040518091039020826001600160a01b03167f916f43dce61aa4c4d8761c25ddcacfe178ea96a18f68d2775354bbc06be75aaa8360405161160d91815260200190565b60405180910390a3505050505050565b60006001600160a01b03821661169b5760405162461bcd60e51b815260206004820152602960248201527f4552433732313a2061646472657373207a65726f206973206e6f74206120766160448201527f6c6964206f776e6572000000000000000000000000000000000000000000000060648201526084016109d2565b506001600160a01b03166000908152609a602052604090205490565b6116bf612508565b565b60006116ce333385611e18565b90506104298183612bb6565b60fb5433906001600160a01b0316811461175c5760405162461bcd60e51b815260206004820152602960248201527f4f776e61626c6532537465703a2063616c6c6572206973206e6f74207468652060448201527f6e6577206f776e6572000000000000000000000000000000000000000000000060648201526084016109d2565b61132e81613001565b60006117744261013454613027565b905090565b60606098805461089890614240565b6000818152609960205260408120546001600160a01b0316156113bc5761088382612406565b6000818152609960205260408120546001600160a01b0316156113bc57610883826123d8565b600061177461303d565b6000610883333384611e18565b6117f53383613080565b6118675760405162461bcd60e51b815260206004820152602d60248201527f4552433732313a2063616c6c6572206973206e6f7420746f6b656e206f776e6560448201527f72206f7220617070726f7665640000000000000000000000000000000000000060648201526084016109d2565b610baa848484846130fe565b606061187e82611b00565b600061189560408051602081019091526000815290565b905060008151116118b55760405180602001604052806000815250610b64565b806118bf84613187565b6040516020016118d092919061437a565b6040516020818303038152906040529392505050565b6106408282612bb6565b6000806118fc836123d8565b9050600061190984612406565b9050811561100d57670de0b6b3a764000061192482846142a3565b61192e91906142ba565b610f5f9083614290565b600082815261013b602052604081205481908381116119bf5760405162461bcd60e51b815260206004820152602e60248201527f596f752063616e2774207061727469616c6c79207769746864726177206d6f7260448201527f65207468616e20796f75206f776e00000000000000000000000000000000000060648201526084016109d2565b60408051600280825260608201835260009260208301908036833701905050905084816000815181106119f4576119f46142ef565b6020908102919091010152611a098583614290565b81600181518110611a1c57611a1c6142ef565b6020026020010181815250506000611a348783612619565b9050611a5981600081518110611a4c57611a4c6142ef565b6020026020010151611b64565b945080600181518110611a6e57611a6e6142ef565b602002602001015193505050509250929050565b611a8a612508565b60fb80546001600160a01b03831673ffffffffffffffffffffffffffffffffffffffff199091168117909155611ac860c9546001600160a01b031690565b6001600160a01b03167f38d16b8cac22d99fc7c124b9cd0de2d3fa1faef420bfe791d8c362d765e2270060405160405180910390a350565b6000818152609960205260409020546001600160a01b031661132e5760405162461bcd60e51b815260206004820152601860248201527f4552433732313a20696e76616c696420746f6b656e204944000000000000000060448201526064016109d2565b6000611b6e6124af565b6000828152609960205260409020546001600160a01b0316611bd25760405162461bcd60e51b815260206004820152601c60248201527f5468697320706f736974696f6e20646f65736e27742065786973742e0000000060448201526064016109d2565b6000828152609960205260409020546001600160a01b0316338114611c395760405162461bcd60e51b815260206004820152601360248201527f4e6f7420796f75722078494e5458204e46542e0000000000000000000000000060448201526064016109d2565b611c4283611fd1565b600083815261013b602052604081205490670de0b6b3a7640000611c65866121f2565b611c6f90846142a3565b611c7991906142ba565b90506000611c8561303d565b90506000611c9382856142a3565b90506000611ca088612406565b611caa90836142a3565b9050670de0b6b3a7640000611cbf8284614290565b611cc991906142ba565b600089815261013a6020908152604080832083905561013b825280832083905561013c825280832083905561013d825280832083905561013e90915290205490975015611d4e57600088815261013e60209081526040808320546001600160a01b038a16845261013f9092528220805491929091611d489084906142dc565b90915550505b600088815261013e6020526040812055611d6788613227565b8461012e6000828254611d7a9190614290565b92505081905550836101376000828254611d949190614290565b909155505061013854611db1906001600160a01b03168789612b6d565b61012e5460408051878152602081018a905280820184905260608101929092525189916001600160a01b038916917f44bd20a79e993bdcc7cbedf54a3b4d19fb78490124b6b90d04fe3242eea579e89181900360800190a35050505050506113bc60018055565b6000611e226124af565b60008211611e725760405162461bcd60e51b815260206004820152601360248201527f43616e2774207374616b65203020696e74582e0000000000000000000000000060448201526064016109d2565b6000611e7c61303d565b61013854909150611e98906001600160a01b0316863086612562565b61012d8054906000611ea983614305565b9190505550611ebb8461012d546132c9565b611ec761012d54611fd1565b600081611edc670de0b6b3a7640000866142a3565b611ee691906142ba565b61012d8054600090815261013a602090815260408083204290559254825261013b905290812082905561012e80549293508392909190611f279084906142dc565b92505081905550806101376000828254611f4191906142dc565b909155505061012d8054600090815261013c6020908152604091829020849055915461012e54610137548351868152948501899052928401526060830191909152906001600160a01b0380881691908916907f52c6b7a228763dc832bef1e2dee48707b24b8f1400a6335b3af6d5def4f5bb219060800160405180910390a461012d5492505050610b6460018055565b611fd9610a87565b61013655611fe5611765565b61013355801561132e57611ff881610e9f565b600082815261013e6020526040812091909155670de0b6b3a764000061201d836121f2565b600084815261013b602052604090205461203791906142a3565b61204191906142ba565b600083815261013c60205260409020546101375491925082916120649190614290565b61206e91906142dc565b61013755600091825261013c60209081526040808420929092556101365461013d909152912055565b600054610100900460ff166121025760405162461bcd60e51b815260206004820152602b60248201527f496e697469616c697a61626c653a20636f6e7472616374206973206e6f74206960448201526a6e697469616c697a696e6760a81b60648201526084016109d2565b6116bf613461565b600054610100900460ff166121755760405162461bcd60e51b815260206004820152602b60248201527f496e697469616c697a61626c653a20636f6e7472616374206973206e6f74206960448201526a6e697469616c697a696e6760a81b60648201526084016109d2565b61064082826134cc565b600054610100900460ff166121ea5760405162461bcd60e51b815260206004820152602b60248201527f496e697469616c697a61626c653a20636f6e7472616374206973206e6f74206960448201526a6e697469616c697a696e6760a81b60648201526084016109d2565b6116bf613550565b600081815261013a60205260408120548082036122125750600092915050565b600061221e8242614290565b905061012f54811115612231575061012f545b670de0b6b3a764000080610130546122499190614290565b61012f5461225f670de0b6b3a7640000856142a3565b61226991906142ba565b61227391906142a3565b61227d91906142ba565b610f5f90670de0b6b3a76400006142dc565b6122ee6040518061014001604052806000815260200160006001600160a01b0316815260200160008152602001600081526020016000815260200160008152602001600081526020016000815260200160008152602001600081525090565b60006122f9836123d8565b9050600061230684612406565b8484526000858152609960209081526040808320546001600160a01b03168288015287835261013b909152908190205490850152606084018390529050670de0b6b3a764000061235682846142a3565b61236091906142ba565b61236a9083614290565b6080840152600084815261013a602052604090205460a084015261238d846121f2565b60c084015260e08301819052670de0b6b3a76400006123ac82846142a3565b6123b691906142ba565b6101008401525050600091825261013e60205260409091205461012082015290565b600081815261013b6020526040812054816123f161303d565b9050670de0b6b3a764000061100382846142a3565b600081815261013a60205260408120548082036124265750600092915050565b60006124328242614290565b905061012f54811115612445575061012f545b670de0b6b3a76400006101315461012f54670de0b6b3a76400008461246a91906142a3565b61247491906142ba565b61247e91906142a3565b61248891906142ba565b610131546124969190614290565b92506101325483101561100d5750506101325492915050565b6002600154036125015760405162461bcd60e51b815260206004820152601f60248201527f5265656e7472616e637947756172643a207265656e7472616e742063616c6c0060448201526064016109d2565b6002600155565b60c9546001600160a01b031633146116bf5760405162461bcd60e51b815260206004820181905260248201527f4f776e61626c653a2063616c6c6572206973206e6f7420746865206f776e657260448201526064016109d2565b6040516001600160a01b0380851660248301528316604482015260648101829052610baa9085907f23b872dd00000000000000000000000000000000000000000000000000000000906084015b60408051601f198184030181529190526020810180517bffffffffffffffffffffffffffffffffffffffffffffffffffffffff167fffffffff00000000000000000000000000000000000000000000000000000000909316929092179091526135c4565b60018055565b60606126236124af565b6000838152609960205260409020546001600160a01b03166126875760405162461bcd60e51b815260206004820152601c60248201527f5468697320706f736974696f6e20646f65736e27742065786973742e0000000060448201526064016109d2565b6000838152609960205260409020546001600160a01b03163381146126ee5760405162461bcd60e51b815260206004820152601360248201527f4e6f7420796f75722078494e5458204e46542e0000000000000000000000000060448201526064016109d2565b8251600181116127665760405162461bcd60e51b815260206004820152602c60248201527f596f752063616e27742073706c697420746869732058494e5458206c6573732060448201527f7468616e20322074696d6573000000000000000000000000000000000000000060648201526084016109d2565b600a8111156127dd5760405162461bcd60e51b815260206004820152602d60248201527f596f752063616e27742073706c697420746869732058494e5458206d6f72652060448201527f7468616e2031302074696d65730000000000000000000000000000000000000060648201526084016109d2565b8067ffffffffffffffff8111156127f6576127f661414e565b60405190808252806020026020018201604052801561281f578160200160208202803683370190505b50925061282b85611fd1565b600085815261013b602090815260408083205461013a83528184205461013d9093529083205461012e80549293928491908690612869908490614290565b9091555050600089815261013c6020526040812054610137805491929091612892908490614290565b90915550600090505b858110156128dc578881815181106128b5576128b56142ef565b6020026020010151856128c891906142dc565b9450806128d481614305565b91505061289b565b5060005b85811015612ac257600085858b84815181106128fe576128fe6142ef565b602002602001015161291091906142a3565b61291a91906142ba565b90506000811161296c5760405162461bcd60e51b815260206004820152601460248201527f43616e27742073706c697420302078494e54582e00000000000000000000000060448201526064016109d2565b61012d805490600061297d83614305565b919050555061298f8861012d546132c9565b61012d548983815181106129a5576129a56142ef565b60209081029190910181019190915261012d8054600090815261013a835260408082208890558254825261013b90935291822083905554670de0b6b3a7640000906129ef906121f2565b6129f990846142a3565b612a0391906142ba565b61012d8054600090815261013c602090815260408083208590559254825261013d905290812086905561012e80549293508492909190612a449084906142dc565b92505081905550806101376000828254612a5e91906142dc565b909155505061012d5460408051918252602082018490528d916001600160a01b038c16917ff66885c33d648fcd0d97e0f2a18e30102169c22763473af0fb716f11b4a17dd6910160405180910390a350508080612aba90614305565b9150506128e0565b50600089815261013a6020908152604080832083905561013b825280832083905561013c825280832083905561013d825280832083905561013e90915290205415612b4557600089815261013e60209081526040808320546001600160a01b038a16845261013f9092528220805491929091612b3f9084906142dc565b90915550505b600089815261013e6020526040812055612b5e89613227565b50505050505061088360018055565b6040516001600160a01b0383166024820152604481018290526104299084907fa9059cbb00000000000000000000000000000000000000000000000000000000906064016125af565b612bbe6124af565b6000828152609960205260409020546001600160a01b0316612c225760405162461bcd60e51b815260206004820152601c60248201527f5468697320706f736974696f6e20646f65736e27742065786973742e0000000060448201526064016109d2565b6000818152609960205260409020546001600160a01b0316612c865760405162461bcd60e51b815260206004820152601c60248201527f5468697320706f736974696f6e20646f65736e27742065786973742e0000000060448201526064016109d2565b6000828152609960205260409020546001600160a01b0316338114612ced5760405162461bcd60e51b815260206004820152601e60248201527f46726f6d204e46542069736e277420796f75722078494e5458204e46542e000060448201526064016109d2565b6000828152609960205260409020546001600160a01b03828116911614612d565760405162461bcd60e51b815260206004820152601760248201527f546f204e46542069736e27742078494e5458204e46542e00000000000000000060448201526064016109d2565b612d5f83611fd1565b612d6882611fd1565b600083815261013b602090815260408083205461013a909252822054909190612d919042614290565b905061012f54811115612da4575061012f545b600084815261013b602090815260408083205461013a909252822054909190612dcd9042614290565b905061012f54811115612de0575061012f545b6000612dec83866142dc565b905060008111612e645760405162461bcd60e51b815260206004820152602360248201527f43616e2774206d616b65206120706f736974696f6e207769746820302078494e60448201527f54582e000000000000000000000000000000000000000000000000000000000060648201526084016109d2565b600081612e7185856142a3565b612e7b91906142ba565b82612e8688886142a3565b612e9091906142ba565b612e9a91906142dc565b600089815261013b602052604090208390559050612eb88142614290565b600089815261013a6020526040812091909155670de0b6b3a7640000612edd8a6121f2565b612ee790856142a3565b612ef191906142ba565b60008a815261013c602081815260408084208590558e845261013a825280842084905561013b825280842084905591815281832083905561013d815281832083905561013e905290205490915015612f815760008a815261013e60209081526040808320546001600160a01b038c16845261013f9092528220805491929091612f7b9084906142dc565b90915550505b60008a815261013e6020526040812055612f9a8a613227565b896001600160a01b0389167f50d7f0ef4f7b59921566f6b835fb032efa0fd0dacccb9361292f89b7aa6bafdd8b86612fd28742614290565b6040805193845260208401929092529082015260600160405180910390a3505050505050505061064060018055565b60fb805473ffffffffffffffffffffffffffffffffffffffff1916905561132e816136ac565b60008183106130365781610b64565b5090919050565b600061012e546000036130575750670de0b6b3a764000090565b61012e54670de0b6b3a764000061306c61370b565b61307691906142a3565b61177491906142ba565b60008061308c83611331565b9050806001600160a01b0316846001600160a01b031614806130d357506001600160a01b038082166000908152609c602090815260408083209388168352929052205460ff165b80610f5f5750836001600160a01b03166130ec8461091b565b6001600160a01b031614949350505050565b613109848484613792565b613115848484846139c8565b610baa5760405162461bcd60e51b815260206004820152603260248201527f4552433732313a207472616e7366657220746f206e6f6e20455243373231526560448201527f63656976657220696d706c656d656e746572000000000000000000000000000060648201526084016109d2565b6060600061319483613b69565b600101905060008167ffffffffffffffff8111156131b4576131b461414e565b6040519080825280601f01601f1916602001820160405280156131de576020820181803683370190505b5090508181016020015b600019017f3031323334353637383961626364656600000000000000000000000000000000600a86061a8153600a85049450846131e857509392505050565b600061323282611331565b905061323d82611331565b6000838152609b60209081526040808320805473ffffffffffffffffffffffffffffffffffffffff199081169091556001600160a01b038516808552609a845282852080546000190190558785526099909352818420805490911690555192935084927fddf252ad1be2c89b69c2b068fc378daa952ba7f163c4a11628f55a4df523b3ef908390a45050565b6001600160a01b03821661331f5760405162461bcd60e51b815260206004820181905260248201527f4552433732313a206d696e7420746f20746865207a65726f206164647265737360448201526064016109d2565b6000818152609960205260409020546001600160a01b0316156133845760405162461bcd60e51b815260206004820152601c60248201527f4552433732313a20746f6b656e20616c7265616479206d696e7465640000000060448201526064016109d2565b6000818152609960205260409020546001600160a01b0316156133e95760405162461bcd60e51b815260206004820152601c60248201527f4552433732313a20746f6b656e20616c7265616479206d696e7465640000000060448201526064016109d2565b6001600160a01b0382166000818152609a60209081526040808320805460010190558483526099909152808220805473ffffffffffffffffffffffffffffffffffffffff19168417905551839291907fddf252ad1be2c89b69c2b068fc378daa952ba7f163c4a11628f55a4df523b3ef908290a45050565b600054610100900460ff166126135760405162461bcd60e51b815260206004820152602b60248201527f496e697469616c697a61626c653a20636f6e7472616374206973206e6f74206960448201526a6e697469616c697a696e6760a81b60648201526084016109d2565b600054610100900460ff166135375760405162461bcd60e51b815260206004820152602b60248201527f496e697469616c697a61626c653a20636f6e7472616374206973206e6f74206960448201526a6e697469616c697a696e6760a81b60648201526084016109d2565b609761354383826143f7565b50609861042982826143f7565b600054610100900460ff166135bb5760405162461bcd60e51b815260206004820152602b60248201527f496e697469616c697a61626c653a20636f6e7472616374206973206e6f74206960448201526a6e697469616c697a696e6760a81b60648201526084016109d2565b6116bf33613001565b6000613619826040518060400160405280602081526020017f5361666545524332303a206c6f772d6c6576656c2063616c6c206661696c6564815250856001600160a01b0316613c4b9092919063ffffffff16565b905080516000148061363a57508080602001905181019061363a91906144b7565b6104295760405162461bcd60e51b815260206004820152602a60248201527f5361666545524332303a204552433230206f7065726174696f6e20646964206e60448201527f6f7420737563636565640000000000000000000000000000000000000000000060648201526084016109d2565b60c980546001600160a01b0383811673ffffffffffffffffffffffffffffffffffffffff19831681179093556040519116919082907f8be0079c531659141344cd1fd0a4f28419497f9722a3daafe3b4186f6b6457e090600090a35050565b610138546040517f70a082310000000000000000000000000000000000000000000000000000000081523060048201526000916001600160a01b0316906370a0823190602401602060405180830381865afa15801561376e573d6000803e3d6000fd5b505050506040513d601f19601f82011682018060405250810190611774919061431f565b826001600160a01b03166137a582611331565b6001600160a01b0316146138215760405162461bcd60e51b815260206004820152602560248201527f4552433732313a207472616e736665722066726f6d20696e636f72726563742060448201527f6f776e657200000000000000000000000000000000000000000000000000000060648201526084016109d2565b6001600160a01b03821661389c5760405162461bcd60e51b8152602060048201526024808201527f4552433732313a207472616e7366657220746f20746865207a65726f2061646460448201527f726573730000000000000000000000000000000000000000000000000000000060648201526084016109d2565b826001600160a01b03166138af82611331565b6001600160a01b03161461392b5760405162461bcd60e51b815260206004820152602560248201527f4552433732313a207472616e736665722066726f6d20696e636f72726563742060448201527f6f776e657200000000000000000000000000000000000000000000000000000060648201526084016109d2565b6000818152609b60209081526040808320805473ffffffffffffffffffffffffffffffffffffffff199081169091556001600160a01b03878116808652609a8552838620805460001901905590871680865283862080546001019055868652609990945282852080549092168417909155905184937fddf252ad1be2c89b69c2b068fc378daa952ba7f163c4a11628f55a4df523b3ef91a4505050565b60006001600160a01b0384163b15613b5e576040517f150b7a020000000000000000000000000000000000000000000000000000000081526001600160a01b0385169063150b7a0290613a259033908990889088906004016144d4565b6020604051808303816000875af1925050508015613a60575060408051601f3d908101601f19168201909252613a5d91810190614510565b60015b613b13573d808015613a8e576040519150601f19603f3d011682016040523d82523d6000602084013e613a93565b606091505b508051600003613b0b5760405162461bcd60e51b815260206004820152603260248201527f4552433732313a207472616e7366657220746f206e6f6e20455243373231526560448201527f63656976657220696d706c656d656e746572000000000000000000000000000060648201526084016109d2565b805181602001fd5b7fffffffff00000000000000000000000000000000000000000000000000000000167f150b7a0200000000000000000000000000000000000000000000000000000000149050610f5f565b506001949350505050565b6000807a184f03e93ff9f4daa797ed6e38ed64bf6a1f0100000000000000008310613bb2577a184f03e93ff9f4daa797ed6e38ed64bf6a1f010000000000000000830492506040015b6d04ee2d6d415b85acef81000000008310613bde576d04ee2d6d415b85acef8100000000830492506020015b662386f26fc100008310613bfc57662386f26fc10000830492506010015b6305f5e1008310613c14576305f5e100830492506008015b6127108310613c2857612710830492506004015b60648310613c3a576064830492506002015b600a83106108835760010192915050565b6060610f5f848460008585600080866001600160a01b03168587604051613c72919061452d565b60006040518083038185875af1925050503d8060008114613caf576040519150601f19603f3d011682016040523d82523d6000602084013e613cb4565b606091505b5091509150613cc587838387613cd0565b979650505050505050565b60608315613d3f578251600003613d38576001600160a01b0385163b613d385760405162461bcd60e51b815260206004820152601d60248201527f416464726573733a2063616c6c20746f206e6f6e2d636f6e747261637400000060448201526064016109d2565b5081610f5f565b610f5f8383815115613d545781518083602001fd5b8060405162461bcd60e51b81526004016109d29190613e09565b7fffffffff000000000000000000000000000000000000000000000000000000008116811461132e57600080fd5b600060208284031215613dae57600080fd5b8135610b6481613d6e565b60005b83811015613dd4578181015183820152602001613dbc565b50506000910152565b60008151808452613df5816020860160208601613db9565b601f01601f19169290920160200192915050565b602081526000610b646020830184613ddd565b600060208284031215613e2e57600080fd5b5035919050565b80356001600160a01b03811681146113bc57600080fd5b60008060408385031215613e5f57600080fd5b613e6883613e35565b946020939093013593505050565b600080600060608486031215613e8b57600080fd5b613e9484613e35565b9250613ea260208501613e35565b9150604084013590509250925092565b60008083601f840112613ec457600080fd5b50813567ffffffffffffffff811115613edc57600080fd5b6020830191508360208260051b8501011115613ef757600080fd5b9250929050565b60008060208385031215613f1157600080fd5b823567ffffffffffffffff811115613f2857600080fd5b613f3485828601613eb2565b90969095509350505050565b60008060408385031215613f5357600080fd5b613f5c83613e35565b9150613f6a60208401613e35565b90509250929050565b805182526020810151613f9160208401826001600160a01b03169052565b5060408101516040830152606081015160608301526080810151608083015260a081015160a083015260c081015160c083015260e081015160e08301526101008082015181840152506101208082015181840152505050565b61014081016108838284613f73565b6020808252825182820181905260009190848201906040850190845b8181101561403c57614028838551613f73565b928401926101409290920191600101614015565b50909695505050505050565b60008060006040848603121561405d57600080fd5b83359250602084013567ffffffffffffffff81111561407b57600080fd5b61408786828701613eb2565b9497909650939450505050565b6020808252825182820181905260009190848201906040850190845b8181101561403c578351835292840192918401916001016140b0565b6000602082840312156140de57600080fd5b610b6482613e35565b600080604083850312156140fa57600080fd5b50508035926020909101359150565b801515811461132e57600080fd5b6000806040838503121561412a57600080fd5b61413383613e35565b9150602083013561414381614109565b809150509250929050565b634e487b7160e01b600052604160045260246000fd5b6000806000806080858703121561417a57600080fd5b61418385613e35565b935061419160208601613e35565b925060408501359150606085013567ffffffffffffffff808211156141b557600080fd5b818701915087601f8301126141c957600080fd5b8135818111156141db576141db61414e565b604051601f8201601f19908116603f011681019083821181831017156142035761420361414e565b816040528281528a602084870101111561421c57600080fd5b82602086016020830137600060208483010152809550505050505092959194509250565b600181811c9082168061425457607f821691505b60208210810361427457634e487b7160e01b600052602260045260246000fd5b50919050565b634e487b7160e01b600052601160045260246000fd5b818103818111156108835761088361427a565b80820281158282048414176108835761088361427a565b6000826142d757634e487b7160e01b600052601260045260246000fd5b500490565b808201808211156108835761088361427a565b634e487b7160e01b600052603260045260246000fd5b600060001982036143185761431861427a565b5060010190565b60006020828403121561433157600080fd5b5051919050565b60007f07ffffffffffffffffffffffffffffffffffffffffffffffffffffffffffffff83111561436757600080fd5b8260051b80858437919091019392505050565b6000835161438c818460208801613db9565b8351908301906143a0818360208801613db9565b01949350505050565b601f82111561042957600081815260208120601f850160051c810160208610156143d05750805b601f850160051c820191505b818110156143ef578281556001016143dc565b505050505050565b815167ffffffffffffffff8111156144115761441161414e565b6144258161441f8454614240565b846143a9565b602080601f83116001811461445a57600084156144425750858301515b600019600386901b1c1916600185901b1785556143ef565b600085815260208120601f198616915b828110156144895788860151825594840194600190910190840161446a565b50858210156144a75787850151600019600388901b60f8161c191681555b5050505050600190811b01905550565b6000602082840312156144c957600080fd5b8151610b6481614109565b60006001600160a01b038087168352808616602084015250836040830152608060608301526145066080830184613ddd565b9695505050505050565b60006020828403121561452257600080fd5b8151610b6481613d6e565b6000825161453f818460208701613db9565b919091019291505056fea2646970667358221220a2787dd03abc6b260aba48498d4dc962576dbbb7083f4f19e372892ced0105cf64736f6c63430008120033","opcodes":"PUSH1 0x80 PUSH1 0x40 MSTORE CALLVALUE DUP1 ISZERO PUSH3 0x11 JUMPI PUSH1 0x0 DUP1 REVERT JUMPDEST POP PUSH3 0x1C PUSH3 0x22 JUMP JUMPDEST PUSH3 0xE3 JUMP JUMPDEST PUSH1 0x0 SLOAD PUSH2 0x100 SWAP1 DIV PUSH1 0xFF AND ISZERO PUSH3 0x8F JUMPI PUSH1 0x40 MLOAD PUSH3 0x461BCD PUSH1 0xE5 SHL DUP2 MSTORE PUSH1 0x20 PUSH1 0x4 DUP3 ADD MSTORE PUSH1 0x27 PUSH1 0x24 DUP3 ADD MSTORE PUSH32 0x496E697469616C697A61626C653A20636F6E747261637420697320696E697469 PUSH1 0x44 DUP3 ADD MSTORE PUSH7 0x616C697A696E67 PUSH1 0xC8 SHL PUSH1 0x64 DUP3 ADD MSTORE PUSH1 0x84 ADD PUSH1 0x40 MLOAD DUP1 SWAP2 SUB SWAP1 REVERT JUMPDEST PUSH1 0x0 SLOAD PUSH1 0xFF SWAP1 DUP2 AND EQ PUSH3 0xE1 JUMPI PUSH1 0x0 DUP1 SLOAD PUSH1 0xFF NOT AND PUSH1 0xFF SWAP1 DUP2 OR SWAP1 SWAP2 SSTORE PUSH1 0x40 MLOAD SWAP1 DUP2 MSTORE PUSH32 0x7F26B83FF96E1F2B6A682F133852F6798A09C465DA95921460CEFB3847402498 SWAP1 PUSH1 0x20 ADD PUSH1 0x40 MLOAD DUP1 SWAP2 SUB SWAP1 LOG1 JUMPDEST JUMP JUMPDEST PUSH2 0x457F DUP1 PUSH3 0xF3 PUSH1 0x0 CODECOPY PUSH1 0x0 RETURN INVALID PUSH1 0x80 PUSH1 0x40 MSTORE CALLVALUE DUP1 ISZERO PUSH2 0x10 JUMPI PUSH1 0x0 DUP1 REVERT JUMPDEST POP PUSH1 0x4 CALLDATASIZE LT PUSH2 0x36D JUMPI PUSH1 0x0 CALLDATALOAD PUSH1 0xE0 SHR DUP1 PUSH4 0x771602F7 GT PUSH2 0x1D3 JUMPI DUP1 PUSH4 0xC87B56DD GT PUSH2 0x104 JUMPI DUP1 PUSH4 0xE30C3978 GT PUSH2 0xA2 JUMPI DUP1 PUSH4 0xF290DFA7 GT PUSH2 0x7C JUMPI DUP1 PUSH4 0xF290DFA7 EQ PUSH2 0x74B JUMPI DUP1 PUSH4 0xF2FDE38B EQ PUSH2 0x773 JUMPI DUP1 PUSH4 0xF7C618C1 EQ PUSH2 0x786 JUMPI DUP1 PUSH4 0xF84DDF0B EQ PUSH2 0x79A JUMPI PUSH1 0x0 DUP1 REVERT JUMPDEST DUP1 PUSH4 0xE30C3978 EQ PUSH2 0x6F4 JUMPI DUP1 PUSH4 0xE985E9C5 EQ PUSH2 0x705 JUMPI DUP1 PUSH4 0xEBE2B12B EQ PUSH2 0x741 JUMPI PUSH1 0x0 DUP1 REVERT JUMPDEST DUP1 PUSH4 0xD1A249AB GT PUSH2 0xDE JUMPI DUP1 PUSH4 0xD1A249AB EQ PUSH2 0x6B0 JUMPI DUP1 PUSH4 0xD1C2BABB EQ PUSH2 0x6BA JUMPI DUP1 PUSH4 0xD975DFED EQ PUSH2 0x6CD JUMPI DUP1 PUSH4 0xDF2E0B97 EQ PUSH2 0x6E0 JUMPI PUSH1 0x0 DUP1 REVERT JUMPDEST DUP1 PUSH4 0xC87B56DD EQ PUSH2 0x672 JUMPI DUP1 PUSH4 0xC8F33C91 EQ PUSH2 0x685 JUMPI DUP1 PUSH4 0xCFD0E125 EQ PUSH2 0x68F JUMPI PUSH1 0x0 DUP1 REVERT JUMPDEST DUP1 PUSH4 0x988DC31E GT PUSH2 0x171 JUMPI DUP1 PUSH4 0xA22CB465 GT PUSH2 0x14B JUMPI DUP1 PUSH4 0xA22CB465 EQ PUSH2 0x632 JUMPI DUP1 PUSH4 0xA3684977 EQ PUSH2 0x644 JUMPI DUP1 PUSH4 0xA694FC3A EQ PUSH2 0x64C JUMPI DUP1 PUSH4 0xB88D4FDE EQ PUSH2 0x65F JUMPI PUSH1 0x0 DUP1 REVERT JUMPDEST DUP1 PUSH4 0x988DC31E EQ PUSH2 0x5EB JUMPI DUP1 PUSH4 0xA00EA0C5 EQ PUSH2 0x5FE JUMPI DUP1 PUSH4 0xA1C95E5A EQ PUSH2 0x611 JUMPI PUSH1 0x0 DUP1 REVERT JUMPDEST DUP1 PUSH4 0x80FAA57D GT PUSH2 0x1AD JUMPI DUP1 PUSH4 0x80FAA57D EQ PUSH2 0x5BB JUMPI DUP1 PUSH4 0x8B8FBD92 EQ PUSH2 0x5C3 JUMPI DUP1 PUSH4 0x8DA5CB5B EQ PUSH2 0x5D2 JUMPI DUP1 PUSH4 0x95D89B41 EQ PUSH2 0x5E3 JUMPI PUSH1 0x0 DUP1 REVERT JUMPDEST DUP1 PUSH4 0x771602F7 EQ PUSH2 0x596 JUMPI DUP1 PUSH4 0x79BA5097 EQ PUSH2 0x5A9 JUMPI DUP1 PUSH4 0x7B0A47EE EQ PUSH2 0x5B1 JUMPI PUSH1 0x0 DUP1 REVERT JUMPDEST DUP1 PUSH4 0x485CC955 GT PUSH2 0x2AD JUMPI DUP1 PUSH4 0x60993B5B GT PUSH2 0x24B JUMPI DUP1 PUSH4 0x69C67247 GT PUSH2 0x225 JUMPI DUP1 PUSH4 0x69C67247 EQ PUSH2 0x548 JUMPI DUP1 PUSH4 0x6BA4C138 EQ PUSH2 0x568 JUMPI DUP1 PUSH4 0x70A08231 EQ PUSH2 0x57B JUMPI DUP1 PUSH4 0x715018A6 EQ PUSH2 0x58E JUMPI PUSH1 0x0 DUP1 REVERT JUMPDEST DUP1 PUSH4 0x60993B5B EQ PUSH2 0x50F JUMPI DUP1 PUSH4 0x6352211E EQ PUSH2 0x522 JUMPI DUP1 PUSH4 0x645BFD9A EQ PUSH2 0x535 JUMPI PUSH1 0x0 DUP1 REVERT JUMPDEST DUP1 PUSH4 0x5200E79E GT PUSH2 0x287 JUMPI DUP1 PUSH4 0x5200E79E EQ PUSH2 0x4C8 JUMPI DUP1 PUSH4 0x520BF08A EQ PUSH2 0x4D2 JUMPI DUP1 PUSH4 0x5A48A97F EQ PUSH2 0x4DC JUMPI DUP1 PUSH4 0x5A5E7E0D EQ PUSH2 0x4EF JUMPI PUSH1 0x0 DUP1 REVERT JUMPDEST DUP1 PUSH4 0x485CC955 EQ PUSH2 0x482 JUMPI DUP1 PUSH4 0x4D6ED8C4 EQ PUSH2 0x495 JUMPI DUP1 PUSH4 0x519F5099 EQ PUSH2 0x4A8 JUMPI PUSH1 0x0 DUP1 REVERT JUMPDEST DUP1 PUSH4 0x2212B806 GT PUSH2 0x31A JUMPI DUP1 PUSH4 0x2E17DE78 GT PUSH2 0x2F4 JUMPI DUP1 PUSH4 0x2E17DE78 EQ PUSH2 0x436 JUMPI DUP1 PUSH4 0x2EE40908 EQ PUSH2 0x449 JUMPI DUP1 PUSH4 0x30F91619 EQ PUSH2 0x45C JUMPI DUP1 PUSH4 0x42842E0E EQ PUSH2 0x46F JUMPI PUSH1 0x0 DUP1 REVERT JUMPDEST DUP1 PUSH4 0x2212B806 EQ PUSH2 0x411 JUMPI DUP1 PUSH4 0x23B872DD EQ PUSH2 0x41B JUMPI DUP1 PUSH4 0x2AC3F450 EQ PUSH2 0x42E JUMPI PUSH1 0x0 DUP1 REVERT JUMPDEST DUP1 PUSH4 0x95EA7B3 GT PUSH2 0x34B JUMPI DUP1 PUSH4 0x95EA7B3 EQ PUSH2 0x3DA JUMPI DUP1 PUSH4 0xEBA9849 EQ PUSH2 0x3EF JUMPI DUP1 PUSH4 0x1BE05289 EQ PUSH2 0x407 JUMPI PUSH1 0x0 DUP1 REVERT JUMPDEST DUP1 PUSH4 0x1FFC9A7 EQ PUSH2 0x372 JUMPI DUP1 PUSH4 0x6FDDE03 EQ PUSH2 0x39A JUMPI DUP1 PUSH4 0x81812FC EQ PUSH2 0x3AF JUMPI JUMPDEST PUSH1 0x0 DUP1 REVERT JUMPDEST PUSH2 0x385 PUSH2 0x380 CALLDATASIZE PUSH1 0x4 PUSH2 0x3D9C JUMP JUMPDEST PUSH2 0x7A4 JUMP JUMPDEST PUSH1 0x40 MLOAD SWAP1 ISZERO ISZERO DUP2 MSTORE PUSH1 0x20 ADD JUMPDEST PUSH1 0x40 MLOAD DUP1 SWAP2 SUB SWAP1 RETURN JUMPDEST PUSH2 0x3A2 PUSH2 0x889 JUMP JUMPDEST PUSH1 0x40 MLOAD PUSH2 0x391 SWAP2 SWAP1 PUSH2 0x3E09 JUMP JUMPDEST PUSH2 0x3C2 PUSH2 0x3BD CALLDATASIZE PUSH1 0x4 PUSH2 0x3E1C JUMP JUMPDEST PUSH2 0x91B JUMP JUMPDEST PUSH1 0x40 MLOAD PUSH1 0x1 PUSH1 0x1 PUSH1 0xA0 SHL SUB SWAP1 SWAP2 AND DUP2 MSTORE PUSH1 0x20 ADD PUSH2 0x391 JUMP JUMPDEST PUSH2 0x3ED PUSH2 0x3E8 CALLDATASIZE PUSH1 0x4 PUSH2 0x3E4C JUMP JUMPDEST PUSH2 0x942 JUMP JUMPDEST STOP JUMPDEST PUSH2 0x3F9 PUSH2 0x132 SLOAD DUP2 JUMP JUMPDEST PUSH1 0x40 MLOAD SWAP1 DUP2 MSTORE PUSH1 0x20 ADD PUSH2 0x391 JUMP JUMPDEST PUSH2 0x3F9 PUSH3 0x93A80 DUP2 JUMP JUMPDEST PUSH2 0x3F9 PUSH2 0x130 SLOAD DUP2 JUMP JUMPDEST PUSH2 0x3ED PUSH2 0x429 CALLDATASIZE PUSH1 0x4 PUSH2 0x3E76 JUMP JUMPDEST POP POP POP JUMP JUMPDEST PUSH2 0x3F9 PUSH2 0xA87 JUMP JUMPDEST PUSH2 0x3F9 PUSH2 0x444 CALLDATASIZE PUSH1 0x4 PUSH2 0x3E1C JUMP JUMPDEST PUSH2 0xB4C JUMP JUMPDEST PUSH2 0x3F9 PUSH2 0x457 CALLDATASIZE PUSH1 0x4 PUSH2 0x3E4C JUMP JUMPDEST PUSH2 0xB57 JUMP JUMPDEST PUSH2 0x3ED PUSH2 0x46A CALLDATASIZE PUSH1 0x4 PUSH2 0x3EFE JUMP JUMPDEST PUSH2 0xB6B JUMP JUMPDEST PUSH2 0x3ED PUSH2 0x47D CALLDATASIZE PUSH1 0x4 PUSH2 0x3E76 JUMP JUMPDEST PUSH2 0xBB0 JUMP JUMPDEST PUSH2 0x3ED PUSH2 0x490 CALLDATASIZE PUSH1 0x4 PUSH2 0x3F40 JUMP JUMPDEST PUSH2 0xBCB JUMP JUMPDEST PUSH2 0x3F9 PUSH2 0x4A3 CALLDATASIZE PUSH1 0x4 PUSH2 0x3E1C JUMP JUMPDEST PUSH2 0xE9F JUMP JUMPDEST PUSH2 0x4BB PUSH2 0x4B6 CALLDATASIZE PUSH1 0x4 PUSH2 0x3E1C JUMP JUMPDEST PUSH2 0xF67 JUMP JUMPDEST PUSH1 0x40 MLOAD PUSH2 0x391 SWAP2 SWAP1 PUSH2 0x3FEA JUMP JUMPDEST PUSH2 0x3F9 PUSH2 0x131 SLOAD DUP2 JUMP JUMPDEST PUSH2 0x3F9 PUSH2 0x12E SLOAD DUP2 JUMP JUMPDEST PUSH2 0x3F9 PUSH2 0x4EA CALLDATASIZE PUSH1 0x4 PUSH2 0x3E1C JUMP JUMPDEST PUSH2 0xFCF JUMP JUMPDEST PUSH2 0x502 PUSH2 0x4FD CALLDATASIZE PUSH1 0x4 PUSH2 0x3EFE JUMP JUMPDEST PUSH2 0x1014 JUMP JUMPDEST PUSH1 0x40 MLOAD PUSH2 0x391 SWAP2 SWAP1 PUSH2 0x3FF9 JUMP JUMPDEST PUSH2 0x3ED PUSH2 0x51D CALLDATASIZE PUSH1 0x4 PUSH2 0x3E1C JUMP JUMPDEST PUSH2 0x1127 JUMP JUMPDEST PUSH2 0x3C2 PUSH2 0x530 CALLDATASIZE PUSH1 0x4 PUSH2 0x3E1C JUMP JUMPDEST PUSH2 0x1331 JUMP JUMPDEST PUSH2 0x3F9 PUSH2 0x543 CALLDATASIZE PUSH1 0x4 PUSH2 0x3E1C JUMP JUMPDEST PUSH2 0x1396 JUMP JUMPDEST PUSH2 0x55B PUSH2 0x556 CALLDATASIZE PUSH1 0x4 PUSH2 0x4048 JUMP JUMPDEST PUSH2 0x13C1 JUMP JUMPDEST PUSH1 0x40 MLOAD PUSH2 0x391 SWAP2 SWAP1 PUSH2 0x4094 JUMP JUMPDEST PUSH2 0x3ED PUSH2 0x576 CALLDATASIZE PUSH1 0x4 PUSH2 0x3EFE JUMP JUMPDEST PUSH2 0x1400 JUMP JUMPDEST PUSH2 0x3F9 PUSH2 0x589 CALLDATASIZE PUSH1 0x4 PUSH2 0x40CC JUMP JUMPDEST PUSH2 0x161D JUMP JUMPDEST PUSH2 0x3ED PUSH2 0x16B7 JUMP JUMPDEST PUSH2 0x3ED PUSH2 0x5A4 CALLDATASIZE PUSH1 0x4 PUSH2 0x40E7 JUMP JUMPDEST PUSH2 0x16C1 JUMP JUMPDEST PUSH2 0x3ED PUSH2 0x16DA JUMP JUMPDEST PUSH2 0x3F9 PUSH2 0x135 SLOAD DUP2 JUMP JUMPDEST PUSH2 0x3F9 PUSH2 0x1765 JUMP JUMPDEST PUSH2 0x3F9 PUSH8 0xDE0B6B3A7640000 DUP2 JUMP JUMPDEST PUSH1 0xC9 SLOAD PUSH1 0x1 PUSH1 0x1 PUSH1 0xA0 SHL SUB AND PUSH2 0x3C2 JUMP JUMPDEST PUSH2 0x3A2 PUSH2 0x1779 JUMP JUMPDEST PUSH2 0x3F9 PUSH2 0x5F9 CALLDATASIZE PUSH1 0x4 PUSH2 0x3E1C JUMP JUMPDEST PUSH2 0x1788 JUMP JUMPDEST PUSH2 0x3F9 PUSH2 0x60C CALLDATASIZE PUSH1 0x4 PUSH2 0x3E1C JUMP JUMPDEST PUSH2 0x17AE JUMP JUMPDEST PUSH2 0x3F9 PUSH2 0x61F CALLDATASIZE PUSH1 0x4 PUSH2 0x3E1C JUMP JUMPDEST PUSH2 0x13B PUSH1 0x20 MSTORE PUSH1 0x0 SWAP1 DUP2 MSTORE PUSH1 0x40 SWAP1 KECCAK256 SLOAD DUP2 JUMP JUMPDEST PUSH2 0x3ED PUSH2 0x640 CALLDATASIZE PUSH1 0x4 PUSH2 0x4117 JUMP JUMPDEST POP POP JUMP JUMPDEST PUSH2 0x3F9 PUSH2 0x17D4 JUMP JUMPDEST PUSH2 0x3F9 PUSH2 0x65A CALLDATASIZE PUSH1 0x4 PUSH2 0x3E1C JUMP JUMPDEST PUSH2 0x17DE JUMP JUMPDEST PUSH2 0x3ED PUSH2 0x66D CALLDATASIZE PUSH1 0x4 PUSH2 0x4164 JUMP JUMPDEST PUSH2 0x17EB JUMP JUMPDEST PUSH2 0x3A2 PUSH2 0x680 CALLDATASIZE PUSH1 0x4 PUSH2 0x3E1C JUMP JUMPDEST PUSH2 0x1873 JUMP JUMPDEST PUSH2 0x3F9 PUSH2 0x133 SLOAD DUP2 JUMP JUMPDEST PUSH2 0x3F9 PUSH2 0x69D CALLDATASIZE PUSH1 0x4 PUSH2 0x3E1C JUMP JUMPDEST PUSH2 0x13A PUSH1 0x20 MSTORE PUSH1 0x0 SWAP1 DUP2 MSTORE PUSH1 0x40 SWAP1 KECCAK256 SLOAD DUP2 JUMP JUMPDEST PUSH2 0x3F9 PUSH2 0x12F SLOAD DUP2 JUMP JUMPDEST PUSH2 0x3ED PUSH2 0x6C8 CALLDATASIZE PUSH1 0x4 PUSH2 0x40E7 JUMP JUMPDEST PUSH2 0x18E6 JUMP JUMPDEST PUSH2 0x3F9 PUSH2 0x6DB CALLDATASIZE PUSH1 0x4 PUSH2 0x3E1C JUMP JUMPDEST PUSH2 0x18F0 JUMP JUMPDEST PUSH2 0x138 SLOAD PUSH2 0x3C2 SWAP1 PUSH1 0x1 PUSH1 0x1 PUSH1 0xA0 SHL SUB AND DUP2 JUMP JUMPDEST PUSH1 0xFB SLOAD PUSH1 0x1 PUSH1 0x1 PUSH1 0xA0 SHL SUB AND PUSH2 0x3C2 JUMP JUMPDEST PUSH2 0x385 PUSH2 0x713 CALLDATASIZE PUSH1 0x4 PUSH2 0x3F40 JUMP JUMPDEST PUSH1 0x1 PUSH1 0x1 PUSH1 0xA0 SHL SUB SWAP2 DUP3 AND PUSH1 0x0 SWAP1 DUP2 MSTORE PUSH1 0x9C PUSH1 0x20 SWAP1 DUP2 MSTORE PUSH1 0x40 DUP1 DUP4 KECCAK256 SWAP4 SWAP1 SWAP5 AND DUP3 MSTORE SWAP2 SWAP1 SWAP2 MSTORE KECCAK256 SLOAD PUSH1 0xFF AND SWAP1 JUMP JUMPDEST PUSH2 0x3F9 PUSH2 0x134 SLOAD DUP2 JUMP JUMPDEST PUSH2 0x75E PUSH2 0x759 CALLDATASIZE PUSH1 0x4 PUSH2 0x40E7 JUMP JUMPDEST PUSH2 0x1938 JUMP JUMPDEST PUSH1 0x40 DUP1 MLOAD SWAP3 DUP4 MSTORE PUSH1 0x20 DUP4 ADD SWAP2 SWAP1 SWAP2 MSTORE ADD PUSH2 0x391 JUMP JUMPDEST PUSH2 0x3ED PUSH2 0x781 CALLDATASIZE PUSH1 0x4 PUSH2 0x40CC JUMP JUMPDEST PUSH2 0x1A82 JUMP JUMPDEST PUSH2 0x139 SLOAD PUSH2 0x3C2 SWAP1 PUSH1 0x1 PUSH1 0x1 PUSH1 0xA0 SHL SUB AND DUP2 JUMP JUMPDEST PUSH2 0x3F9 PUSH2 0x12D SLOAD DUP2 JUMP JUMPDEST PUSH1 0x0 PUSH32 0xFFFFFFFF00000000000000000000000000000000000000000000000000000000 DUP3 AND PUSH32 0x80AC58CD00000000000000000000000000000000000000000000000000000000 EQ DUP1 PUSH2 0x837 JUMPI POP PUSH32 0xFFFFFFFF00000000000000000000000000000000000000000000000000000000 DUP3 AND PUSH32 0x5B5E139F00000000000000000000000000000000000000000000000000000000 EQ JUMPDEST DUP1 PUSH2 0x883 JUMPI POP PUSH32 0x1FFC9A700000000000000000000000000000000000000000000000000000000 PUSH32 0xFFFFFFFF00000000000000000000000000000000000000000000000000000000 DUP4 AND EQ JUMPDEST SWAP3 SWAP2 POP POP JUMP JUMPDEST PUSH1 0x60 PUSH1 0x97 DUP1 SLOAD PUSH2 0x898 SWAP1 PUSH2 0x4240 JUMP JUMPDEST DUP1 PUSH1 0x1F ADD PUSH1 0x20 DUP1 SWAP2 DIV MUL PUSH1 0x20 ADD PUSH1 0x40 MLOAD SWAP1 DUP2 ADD PUSH1 0x40 MSTORE DUP1 SWAP3 SWAP2 SWAP1 DUP2 DUP2 MSTORE PUSH1 0x20 ADD DUP3 DUP1 SLOAD PUSH2 0x8C4 SWAP1 PUSH2 0x4240 JUMP JUMPDEST DUP1 ISZERO PUSH2 0x911 JUMPI DUP1 PUSH1 0x1F LT PUSH2 0x8E6 JUMPI PUSH2 0x100 DUP1 DUP4 SLOAD DIV MUL DUP4 MSTORE SWAP2 PUSH1 0x20 ADD SWAP2 PUSH2 0x911 JUMP JUMPDEST DUP3 ADD SWAP2 SWAP1 PUSH1 0x0 MSTORE PUSH1 0x20 PUSH1 0x0 KECCAK256 SWAP1 JUMPDEST DUP2 SLOAD DUP2 MSTORE SWAP1 PUSH1 0x1 ADD SWAP1 PUSH1 0x20 ADD DUP1 DUP4 GT PUSH2 0x8F4 JUMPI DUP3 SWAP1 SUB PUSH1 0x1F AND DUP3 ADD SWAP2 JUMPDEST POP POP POP POP POP SWAP1 POP SWAP1 JUMP JUMPDEST PUSH1 0x0 PUSH2 0x926 DUP3 PUSH2 0x1B00 JUMP JUMPDEST POP PUSH1 0x0 SWAP1 DUP2 MSTORE PUSH1 0x9B PUSH1 0x20 MSTORE PUSH1 0x40 SWAP1 KECCAK256 SLOAD PUSH1 0x1 PUSH1 0x1 PUSH1 0xA0 SHL SUB AND SWAP1 JUMP JUMPDEST PUSH1 0x0 PUSH2 0x94D DUP3 PUSH2 0x1331 JUMP JUMPDEST SWAP1 POP DUP1 PUSH1 0x1 PUSH1 0x1 PUSH1 0xA0 SHL SUB AND DUP4 PUSH1 0x1 PUSH1 0x1 PUSH1 0xA0 SHL SUB AND SUB PUSH2 0x9DB JUMPI PUSH1 0x40 MLOAD PUSH3 0x461BCD PUSH1 0xE5 SHL DUP2 MSTORE PUSH1 0x20 PUSH1 0x4 DUP3 ADD MSTORE PUSH1 0x21 PUSH1 0x24 DUP3 ADD MSTORE PUSH32 0x4552433732313A20617070726F76616C20746F2063757272656E74206F776E65 PUSH1 0x44 DUP3 ADD MSTORE PUSH32 0x7200000000000000000000000000000000000000000000000000000000000000 PUSH1 0x64 DUP3 ADD MSTORE PUSH1 0x84 ADD JUMPDEST PUSH1 0x40 MLOAD DUP1 SWAP2 SUB SWAP1 REVERT JUMPDEST CALLER PUSH1 0x1 PUSH1 0x1 PUSH1 0xA0 SHL SUB DUP3 AND EQ DUP1 PUSH2 0xA15 JUMPI POP PUSH1 0x1 PUSH1 0x1 PUSH1 0xA0 SHL SUB DUP2 AND PUSH1 0x0 SWAP1 DUP2 MSTORE PUSH1 0x9C PUSH1 0x20 SWAP1 DUP2 MSTORE PUSH1 0x40 DUP1 DUP4 KECCAK256 CALLER DUP5 MSTORE SWAP1 SWAP2 MSTORE SWAP1 KECCAK256 SLOAD PUSH1 0xFF AND JUMPDEST PUSH2 0x429 JUMPI PUSH1 0x40 MLOAD PUSH3 0x461BCD PUSH1 0xE5 SHL DUP2 MSTORE PUSH1 0x20 PUSH1 0x4 DUP3 ADD MSTORE PUSH1 0x3D PUSH1 0x24 DUP3 ADD MSTORE PUSH32 0x4552433732313A20617070726F76652063616C6C6572206973206E6F7420746F PUSH1 0x44 DUP3 ADD MSTORE PUSH32 0x6B656E206F776E6572206F7220617070726F76656420666F7220616C6C000000 PUSH1 0x64 DUP3 ADD MSTORE PUSH1 0x84 ADD PUSH2 0x9D2 JUMP JUMPDEST PUSH1 0x0 PUSH2 0x137 SLOAD PUSH1 0x0 SUB PUSH2 0xA9C JUMPI POP PUSH2 0x136 SLOAD SWAP1 JUMP JUMPDEST PUSH1 0x0 PUSH2 0x137 SLOAD GT PUSH2 0xAEF JUMPI PUSH1 0x40 MLOAD PUSH3 0x461BCD PUSH1 0xE5 SHL DUP2 MSTORE PUSH1 0x20 PUSH1 0x4 DUP3 ADD MSTORE PUSH1 0x10 PUSH1 0x24 DUP3 ADD MSTORE PUSH32 0x496E636F72726563742077656967687400000000000000000000000000000000 PUSH1 0x44 DUP3 ADD MSTORE PUSH1 0x64 ADD PUSH2 0x9D2 JUMP JUMPDEST PUSH1 0x0 PUSH2 0x133 SLOAD PUSH2 0xAFD PUSH2 0x1765 JUMP JUMPDEST PUSH2 0xB07 SWAP2 SWAP1 PUSH2 0x4290 JUMP JUMPDEST SWAP1 POP PUSH2 0x137 SLOAD PUSH2 0x135 SLOAD DUP3 PUSH2 0xB1C SWAP2 SWAP1 PUSH2 0x42A3 JUMP JUMPDEST PUSH2 0xB2E SWAP1 PUSH8 0xDE0B6B3A7640000 PUSH2 0x42A3 JUMP JUMPDEST PUSH2 0xB38 SWAP2 SWAP1 PUSH2 0x42BA JUMP JUMPDEST PUSH2 0x136 SLOAD PUSH2 0xB46 SWAP2 SWAP1 PUSH2 0x42DC JUMP JUMPDEST SWAP2 POP POP SWAP1 JUMP JUMPDEST PUSH1 0x0 PUSH2 0x883 DUP3 PUSH2 0x1B64 JUMP JUMPDEST PUSH1 0x0 PUSH2 0xB64 CALLER DUP5 DUP5 PUSH2 0x1E18 JUMP JUMPDEST SWAP4 SWAP3 POP POP POP JUMP JUMPDEST DUP1 PUSH1 0x0 JUMPDEST DUP2 DUP2 LT ISZERO PUSH2 0xBAA JUMPI PUSH2 0xB98 DUP5 DUP5 DUP4 DUP2 DUP2 LT PUSH2 0xB8C JUMPI PUSH2 0xB8C PUSH2 0x42EF JUMP JUMPDEST SWAP1 POP PUSH1 0x20 MUL ADD CALLDATALOAD PUSH2 0x1FD1 JUMP JUMPDEST DUP1 PUSH2 0xBA2 DUP2 PUSH2 0x4305 JUMP JUMPDEST SWAP2 POP POP PUSH2 0xB6F JUMP JUMPDEST POP POP POP POP JUMP JUMPDEST PUSH2 0x429 DUP4 DUP4 DUP4 PUSH1 0x40 MLOAD DUP1 PUSH1 0x20 ADD PUSH1 0x40 MSTORE DUP1 PUSH1 0x0 DUP2 MSTORE POP PUSH2 0x17EB JUMP JUMPDEST PUSH1 0x0 SLOAD PUSH2 0x100 SWAP1 DIV PUSH1 0xFF AND ISZERO DUP1 DUP1 ISZERO PUSH2 0xBEB JUMPI POP PUSH1 0x0 SLOAD PUSH1 0x1 PUSH1 0xFF SWAP1 SWAP2 AND LT JUMPDEST DUP1 PUSH2 0xC05 JUMPI POP ADDRESS EXTCODESIZE ISZERO DUP1 ISZERO PUSH2 0xC05 JUMPI POP PUSH1 0x0 SLOAD PUSH1 0xFF AND PUSH1 0x1 EQ JUMPDEST PUSH2 0xC77 JUMPI PUSH1 0x40 MLOAD PUSH3 0x461BCD PUSH1 0xE5 SHL DUP2 MSTORE PUSH1 0x20 PUSH1 0x4 DUP3 ADD MSTORE PUSH1 0x2E PUSH1 0x24 DUP3 ADD MSTORE PUSH32 0x496E697469616C697A61626C653A20636F6E747261637420697320616C726561 PUSH1 0x44 DUP3 ADD MSTORE PUSH32 0x647920696E697469616C697A6564000000000000000000000000000000000000 PUSH1 0x64 DUP3 ADD MSTORE PUSH1 0x84 ADD PUSH2 0x9D2 JUMP JUMPDEST PUSH1 0x0 DUP1 SLOAD PUSH32 0xFFFFFFFFFFFFFFFFFFFFFFFFFFFFFFFFFFFFFFFFFFFFFFFFFFFFFFFFFFFFFF00 AND PUSH1 0x1 OR SWAP1 SSTORE DUP1 ISZERO PUSH2 0xCB8 JUMPI PUSH1 0x0 DUP1 SLOAD PUSH2 0xFF00 NOT AND PUSH2 0x100 OR SWAP1 SSTORE JUMPDEST PUSH2 0xCC0 PUSH2 0x2097 JUMP JUMPDEST PUSH2 0xD34 PUSH1 0x40 MLOAD DUP1 PUSH1 0x40 ADD PUSH1 0x40 MSTORE DUP1 PUSH1 0xB DUP2 MSTORE PUSH1 0x20 ADD PUSH32 0x5374616B656420494E5458000000000000000000000000000000000000000000 DUP2 MSTORE POP PUSH1 0x40 MLOAD DUP1 PUSH1 0x40 ADD PUSH1 0x40 MSTORE DUP1 PUSH1 0x5 DUP2 MSTORE PUSH1 0x20 ADD PUSH32 0x58494E5458000000000000000000000000000000000000000000000000000000 DUP2 MSTORE POP PUSH2 0x210A JUMP JUMPDEST PUSH2 0xD3C PUSH2 0x217F JUMP JUMPDEST PUSH1 0x1 PUSH1 0x1 PUSH1 0xA0 SHL SUB DUP4 AND PUSH2 0xD92 JUMPI PUSH1 0x40 MLOAD PUSH3 0x461BCD PUSH1 0xE5 SHL DUP2 MSTORE PUSH1 0x20 PUSH1 0x4 DUP3 ADD MSTORE PUSH1 0x14 PUSH1 0x24 DUP3 ADD MSTORE PUSH32 0x43616E2774207573652030782061646472657373000000000000000000000000 PUSH1 0x44 DUP3 ADD MSTORE PUSH1 0x64 ADD PUSH2 0x9D2 JUMP JUMPDEST PUSH1 0x1 PUSH1 0x1 PUSH1 0xA0 SHL SUB DUP3 AND PUSH2 0xDE8 JUMPI PUSH1 0x40 MLOAD PUSH3 0x461BCD PUSH1 0xE5 SHL DUP2 MSTORE PUSH1 0x20 PUSH1 0x4 DUP3 ADD MSTORE PUSH1 0x14 PUSH1 0x24 DUP3 ADD MSTORE PUSH32 0x43616E2774207573652030782061646472657373000000000000000000000000 PUSH1 0x44 DUP3 ADD MSTORE PUSH1 0x64 ADD PUSH2 0x9D2 JUMP JUMPDEST PUSH2 0x138 DUP1 SLOAD PUSH1 0x1 PUSH1 0x1 PUSH1 0xA0 SHL SUB DUP1 DUP7 AND PUSH20 0xFFFFFFFFFFFFFFFFFFFFFFFFFFFFFFFFFFFFFFFF NOT SWAP3 DUP4 AND OR SWAP1 SWAP3 SSTORE PUSH2 0x139 DUP1 SLOAD SWAP3 DUP6 AND SWAP3 SWAP1 SWAP2 AND SWAP2 SWAP1 SWAP2 OR SWAP1 SSTORE PUSH3 0x93A800 PUSH2 0x12F SSTORE PUSH8 0x22B1C8C1227A0000 PUSH2 0x130 SSTORE PUSH8 0x3782DACE9D90000 PUSH2 0x131 SSTORE PUSH7 0x11C37937E08000 PUSH2 0x132 SSTORE DUP1 ISZERO PUSH2 0x429 JUMPI PUSH1 0x0 DUP1 SLOAD PUSH2 0xFF00 NOT AND SWAP1 SSTORE PUSH1 0x40 MLOAD PUSH1 0x1 DUP2 MSTORE PUSH32 0x7F26B83FF96E1F2B6A682F133852F6798A09C465DA95921460CEFB3847402498 SWAP1 PUSH1 0x20 ADD PUSH1 0x40 MLOAD DUP1 SWAP2 SUB SWAP1 LOG1 POP POP POP JUMP JUMPDEST PUSH1 0x0 DUP1 PUSH8 0xDE0B6B3A7640000 PUSH2 0xEB4 DUP5 PUSH2 0x21F2 JUMP JUMPDEST PUSH1 0x0 DUP6 DUP2 MSTORE PUSH2 0x13B PUSH1 0x20 MSTORE PUSH1 0x40 SWAP1 KECCAK256 SLOAD PUSH2 0xECE SWAP2 SWAP1 PUSH2 0x42A3 JUMP JUMPDEST PUSH2 0xED8 SWAP2 SWAP1 PUSH2 0x42BA JUMP JUMPDEST PUSH1 0x0 DUP5 DUP2 MSTORE PUSH2 0x13C PUSH1 0x20 MSTORE PUSH1 0x40 DUP2 KECCAK256 SLOAD SWAP2 SWAP3 POP SWAP1 PUSH1 0x2 SWAP1 PUSH2 0xEFA SWAP1 DUP5 SWAP1 PUSH2 0x42DC JUMP JUMPDEST PUSH2 0xF04 SWAP2 SWAP1 PUSH2 0x42BA JUMP JUMPDEST PUSH1 0x0 DUP6 DUP2 MSTORE PUSH2 0x13E PUSH1 0x20 SWAP1 DUP2 MSTORE PUSH1 0x40 DUP1 DUP4 KECCAK256 SLOAD PUSH2 0x13D SWAP1 SWAP3 MSTORE SWAP1 SWAP2 KECCAK256 SLOAD SWAP2 SWAP3 POP SWAP1 PUSH8 0xDE0B6B3A7640000 SWAP1 PUSH2 0xF37 PUSH2 0xA87 JUMP JUMPDEST PUSH2 0xF41 SWAP2 SWAP1 PUSH2 0x4290 JUMP JUMPDEST PUSH2 0xF4B SWAP1 DUP5 PUSH2 0x42A3 JUMP JUMPDEST PUSH2 0xF55 SWAP2 SWAP1 PUSH2 0x42BA JUMP JUMPDEST PUSH2 0xF5F SWAP2 SWAP1 PUSH2 0x42DC JUMP JUMPDEST SWAP5 SWAP4 POP POP POP POP JUMP JUMPDEST PUSH2 0xFC6 PUSH1 0x40 MLOAD DUP1 PUSH2 0x140 ADD PUSH1 0x40 MSTORE DUP1 PUSH1 0x0 DUP2 MSTORE PUSH1 0x20 ADD PUSH1 0x0 PUSH1 0x1 PUSH1 0x1 PUSH1 0xA0 SHL SUB AND DUP2 MSTORE PUSH1 0x20 ADD PUSH1 0x0 DUP2 MSTORE PUSH1 0x20 ADD PUSH1 0x0 DUP2 MSTORE PUSH1 0x20 ADD PUSH1 0x0 DUP2 MSTORE PUSH1 0x20 ADD PUSH1 0x0 DUP2 MSTORE PUSH1 0x20 ADD PUSH1 0x0 DUP2 MSTORE PUSH1 0x20 ADD PUSH1 0x0 DUP2 MSTORE PUSH1 0x20 ADD PUSH1 0x0 DUP2 MSTORE PUSH1 0x20 ADD PUSH1 0x0 DUP2 MSTORE POP SWAP1 JUMP JUMPDEST PUSH2 0x883 DUP3 PUSH2 0x228F JUMP JUMPDEST PUSH1 0x0 DUP1 PUSH2 0xFDB DUP4 PUSH2 0x23D8 JUMP JUMPDEST SWAP1 POP PUSH1 0x0 PUSH2 0xFE8 DUP5 PUSH2 0x2406 JUMP JUMPDEST SWAP1 POP DUP2 ISZERO PUSH2 0x100D JUMPI PUSH8 0xDE0B6B3A7640000 PUSH2 0x1003 DUP3 DUP5 PUSH2 0x42A3 JUMP JUMPDEST PUSH2 0xF5F SWAP2 SWAP1 PUSH2 0x42BA JUMP JUMPDEST POP POP SWAP2 SWAP1 POP JUMP JUMPDEST PUSH1 0x60 DUP2 DUP1 PUSH8 0xFFFFFFFFFFFFFFFF DUP2 GT ISZERO PUSH2 0x1030 JUMPI PUSH2 0x1030 PUSH2 0x414E JUMP JUMPDEST PUSH1 0x40 MLOAD SWAP1 DUP1 DUP3 MSTORE DUP1 PUSH1 0x20 MUL PUSH1 0x20 ADD DUP3 ADD PUSH1 0x40 MSTORE DUP1 ISZERO PUSH2 0x10C0 JUMPI DUP2 PUSH1 0x20 ADD JUMPDEST PUSH2 0x10AD PUSH1 0x40 MLOAD DUP1 PUSH2 0x140 ADD PUSH1 0x40 MSTORE DUP1 PUSH1 0x0 DUP2 MSTORE PUSH1 0x20 ADD PUSH1 0x0 PUSH1 0x1 PUSH1 0x1 PUSH1 0xA0 SHL SUB AND DUP2 MSTORE PUSH1 0x20 ADD PUSH1 0x0 DUP2 MSTORE PUSH1 0x20 ADD PUSH1 0x0 DUP2 MSTORE PUSH1 0x20 ADD PUSH1 0x0 DUP2 MSTORE PUSH1 0x20 ADD PUSH1 0x0 DUP2 MSTORE PUSH1 0x20 ADD PUSH1 0x0 DUP2 MSTORE PUSH1 0x20 ADD PUSH1 0x0 DUP2 MSTORE PUSH1 0x20 ADD PUSH1 0x0 DUP2 MSTORE PUSH1 0x20 ADD PUSH1 0x0 DUP2 MSTORE POP SWAP1 JUMP JUMPDEST DUP2 MSTORE PUSH1 0x20 ADD SWAP1 PUSH1 0x1 SWAP1 SUB SWAP1 DUP2 PUSH2 0x104E JUMPI SWAP1 POP JUMPDEST POP SWAP2 POP PUSH1 0x0 JUMPDEST DUP2 DUP2 LT ISZERO PUSH2 0x111F JUMPI PUSH2 0x10EF DUP6 DUP6 DUP4 DUP2 DUP2 LT PUSH2 0x10E3 JUMPI PUSH2 0x10E3 PUSH2 0x42EF JUMP JUMPDEST SWAP1 POP PUSH1 0x20 MUL ADD CALLDATALOAD PUSH2 0x228F JUMP JUMPDEST DUP4 DUP3 DUP2 MLOAD DUP2 LT PUSH2 0x1101 JUMPI PUSH2 0x1101 PUSH2 0x42EF JUMP JUMPDEST PUSH1 0x20 MUL PUSH1 0x20 ADD ADD DUP2 SWAP1 MSTORE POP DUP1 DUP1 PUSH2 0x1117 SWAP1 PUSH2 0x4305 JUMP JUMPDEST SWAP2 POP POP PUSH2 0x10C6 JUMP JUMPDEST POP POP SWAP3 SWAP2 POP POP JUMP JUMPDEST PUSH2 0x112F PUSH2 0x24AF JUMP JUMPDEST PUSH2 0x1137 PUSH2 0x2508 JUMP JUMPDEST PUSH2 0x1150 CALLER PUSH2 0x139 SLOAD PUSH1 0x1 PUSH1 0x1 PUSH1 0xA0 SHL SUB AND SWAP1 ADDRESS DUP5 PUSH2 0x2562 JUMP JUMPDEST PUSH2 0x1162 PUSH8 0xDE0B6B3A7640000 DUP3 PUSH2 0x42A3 JUMP JUMPDEST SWAP1 POP PUSH2 0x134 SLOAD TIMESTAMP LT PUSH2 0x1184 JUMPI PUSH2 0x117B PUSH3 0x93A80 DUP3 PUSH2 0x42BA JUMP JUMPDEST PUSH2 0x135 SSTORE PUSH2 0x11C9 JUMP JUMPDEST PUSH1 0x0 TIMESTAMP PUSH2 0x134 SLOAD PUSH2 0x1195 SWAP2 SWAP1 PUSH2 0x4290 JUMP JUMPDEST SWAP1 POP PUSH1 0x0 PUSH2 0x135 SLOAD DUP3 PUSH2 0x11A8 SWAP2 SWAP1 PUSH2 0x42A3 JUMP JUMPDEST SWAP1 POP PUSH3 0x93A80 PUSH2 0x11B8 DUP3 DUP6 PUSH2 0x42DC JUMP JUMPDEST PUSH2 0x11C2 SWAP2 SWAP1 PUSH2 0x42BA JUMP JUMPDEST PUSH2 0x135 SSTORE POP POP JUMPDEST PUSH2 0x139 SLOAD PUSH1 0x40 MLOAD PUSH32 0x70A0823100000000000000000000000000000000000000000000000000000000 DUP2 MSTORE ADDRESS PUSH1 0x4 DUP3 ADD MSTORE PUSH1 0x0 SWAP2 PUSH8 0xDE0B6B3A7640000 SWAP2 PUSH1 0x1 PUSH1 0x1 PUSH1 0xA0 SHL SUB SWAP1 SWAP2 AND SWAP1 PUSH4 0x70A08231 SWAP1 PUSH1 0x24 ADD PUSH1 0x20 PUSH1 0x40 MLOAD DUP1 DUP4 SUB DUP2 DUP7 GAS STATICCALL ISZERO DUP1 ISZERO PUSH2 0x1238 JUMPI RETURNDATASIZE PUSH1 0x0 DUP1 RETURNDATACOPY RETURNDATASIZE PUSH1 0x0 REVERT JUMPDEST POP POP POP POP PUSH1 0x40 MLOAD RETURNDATASIZE PUSH1 0x1F NOT PUSH1 0x1F DUP3 ADD AND DUP3 ADD DUP1 PUSH1 0x40 MSTORE POP DUP2 ADD SWAP1 PUSH2 0x125C SWAP2 SWAP1 PUSH2 0x431F JUMP JUMPDEST PUSH2 0x1266 SWAP2 SWAP1 PUSH2 0x42A3 JUMP JUMPDEST SWAP1 POP PUSH2 0x1275 PUSH3 0x93A80 DUP3 PUSH2 0x42BA JUMP JUMPDEST PUSH2 0x135 SLOAD GT ISZERO PUSH2 0x12C7 JUMPI PUSH1 0x40 MLOAD PUSH3 0x461BCD PUSH1 0xE5 SHL DUP2 MSTORE PUSH1 0x20 PUSH1 0x4 DUP3 ADD MSTORE PUSH1 0x18 PUSH1 0x24 DUP3 ADD MSTORE PUSH32 0x50726F76696465642072657761726420746F6F20686967680000000000000000 PUSH1 0x44 DUP3 ADD MSTORE PUSH1 0x64 ADD PUSH2 0x9D2 JUMP JUMPDEST TIMESTAMP PUSH2 0x133 DUP2 SWAP1 SSTORE PUSH2 0x12DC SWAP1 PUSH3 0x93A80 SWAP1 PUSH2 0x42DC JUMP JUMPDEST PUSH2 0x134 SSTORE PUSH32 0xDE88A922E0D3B88B24E9623EFEB464919C6BF9F66857A65E2BFCF2CE87A9433D PUSH2 0x1313 PUSH8 0xDE0B6B3A7640000 DUP5 PUSH2 0x42BA JUMP JUMPDEST PUSH1 0x40 MLOAD SWAP1 DUP2 MSTORE PUSH1 0x20 ADD PUSH1 0x40 MLOAD DUP1 SWAP2 SUB SWAP1 LOG1 POP PUSH2 0x132E PUSH1 0x1 DUP1 SSTORE JUMP JUMPDEST POP JUMP JUMPDEST PUSH1 0x0 DUP2 DUP2 MSTORE PUSH1 0x99 PUSH1 0x20 MSTORE PUSH1 0x40 DUP2 KECCAK256 SLOAD PUSH1 0x1 PUSH1 0x1 PUSH1 0xA0 SHL SUB AND DUP1 PUSH2 0x883 JUMPI PUSH1 0x40 MLOAD PUSH3 0x461BCD PUSH1 0xE5 SHL DUP2 MSTORE PUSH1 0x20 PUSH1 0x4 DUP3 ADD MSTORE PUSH1 0x18 PUSH1 0x24 DUP3 ADD MSTORE PUSH32 0x4552433732313A20696E76616C696420746F6B656E2049440000000000000000 PUSH1 0x44 DUP3 ADD MSTORE PUSH1 0x64 ADD PUSH2 0x9D2 JUMP JUMPDEST PUSH1 0x0 DUP2 DUP2 MSTORE PUSH1 0x99 PUSH1 0x20 MSTORE PUSH1 0x40 DUP2 KECCAK256 SLOAD PUSH1 0x1 PUSH1 0x1 PUSH1 0xA0 SHL SUB AND ISZERO PUSH2 0x13BC JUMPI PUSH2 0x883 DUP3 PUSH2 0x21F2 JUMP JUMPDEST SWAP2 SWAP1 POP JUMP JUMPDEST PUSH1 0x60 PUSH2 0xF5F DUP5 DUP5 DUP5 DUP1 DUP1 PUSH1 0x20 MUL PUSH1 0x20 ADD PUSH1 0x40 MLOAD SWAP1 DUP2 ADD PUSH1 0x40 MSTORE DUP1 SWAP4 SWAP3 SWAP2 SWAP1 DUP2 DUP2 MSTORE PUSH1 0x20 ADD DUP4 DUP4 PUSH1 0x20 MUL DUP1 DUP3 DUP5 CALLDATACOPY PUSH1 0x0 SWAP3 ADD SWAP2 SWAP1 SWAP2 MSTORE POP PUSH2 0x2619 SWAP3 POP POP POP JUMP JUMPDEST CALLER PUSH1 0x0 SWAP1 DUP2 MSTORE PUSH2 0x13F PUSH1 0x20 MSTORE PUSH1 0x40 DUP2 KECCAK256 SLOAD DUP3 SWAP2 SWAP1 DUP2 SWAP1 DUP2 JUMPDEST DUP5 DUP2 LT ISZERO PUSH2 0x157E JUMPI DUP7 DUP7 DUP3 DUP2 DUP2 LT PUSH2 0x1432 JUMPI PUSH2 0x1432 PUSH2 0x42EF JUMP JUMPDEST SWAP1 POP PUSH1 0x20 MUL ADD CALLDATALOAD SWAP4 POP PUSH2 0x145C DUP5 PUSH1 0x0 SWAP1 DUP2 MSTORE PUSH1 0x99 PUSH1 0x20 MSTORE PUSH1 0x40 SWAP1 KECCAK256 SLOAD PUSH1 0x1 PUSH1 0x1 PUSH1 0xA0 SHL SUB AND ISZERO ISZERO SWAP1 JUMP JUMPDEST PUSH2 0x14A8 JUMPI PUSH1 0x40 MLOAD PUSH3 0x461BCD PUSH1 0xE5 SHL DUP2 MSTORE PUSH1 0x20 PUSH1 0x4 DUP3 ADD MSTORE PUSH1 0x1C PUSH1 0x24 DUP3 ADD MSTORE PUSH32 0x5468697320706F736974696F6E20646F65736E27742065786973742E00000000 PUSH1 0x44 DUP3 ADD MSTORE PUSH1 0x64 ADD PUSH2 0x9D2 JUMP JUMPDEST PUSH1 0x0 DUP5 DUP2 MSTORE PUSH1 0x99 PUSH1 0x20 MSTORE PUSH1 0x40 SWAP1 KECCAK256 SLOAD PUSH1 0x1 PUSH1 0x1 PUSH1 0xA0 SHL SUB AND SWAP3 POP CALLER DUP4 EQ PUSH2 0x1537 JUMPI PUSH1 0x40 MLOAD PUSH3 0x461BCD PUSH1 0xE5 SHL DUP2 MSTORE PUSH1 0x20 PUSH1 0x4 DUP3 ADD MSTORE PUSH1 0x27 PUSH1 0x24 DUP3 ADD MSTORE PUSH32 0x596F7520617265206E6F7420746865206F776E6572206F66207468697320706F PUSH1 0x44 DUP3 ADD MSTORE PUSH32 0x736974696F6E2E00000000000000000000000000000000000000000000000000 PUSH1 0x64 DUP3 ADD MSTORE PUSH1 0x84 ADD PUSH2 0x9D2 JUMP JUMPDEST PUSH2 0x1540 DUP5 PUSH2 0x1FD1 JUMP JUMPDEST PUSH1 0x0 DUP5 DUP2 MSTORE PUSH2 0x13E PUSH1 0x20 MSTORE PUSH1 0x40 SWAP1 KECCAK256 SLOAD PUSH2 0x155A SWAP1 DUP4 PUSH2 0x42DC JUMP JUMPDEST PUSH1 0x0 DUP6 DUP2 MSTORE PUSH2 0x13E PUSH1 0x20 MSTORE PUSH1 0x40 DUP2 KECCAK256 SSTORE SWAP2 POP DUP1 PUSH2 0x1576 DUP2 PUSH2 0x4305 JUMP JUMPDEST SWAP2 POP POP PUSH2 0x1418 JUMP JUMPDEST POP CALLER PUSH1 0x0 DUP2 DUP2 MSTORE PUSH2 0x13F PUSH1 0x20 MSTORE PUSH1 0x40 DUP2 KECCAK256 SSTORE PUSH2 0x15BA SWAP1 PUSH2 0x15A6 PUSH8 0xDE0B6B3A7640000 DUP5 PUSH2 0x42BA JUMP JUMPDEST PUSH2 0x139 SLOAD PUSH1 0x1 PUSH1 0x1 PUSH1 0xA0 SHL SUB AND SWAP2 SWAP1 PUSH2 0x2B6D JUMP JUMPDEST DUP6 DUP6 PUSH1 0x40 MLOAD PUSH2 0x15CA SWAP3 SWAP2 SWAP1 PUSH2 0x4338 JUMP JUMPDEST PUSH1 0x40 MLOAD DUP1 SWAP2 SUB SWAP1 KECCAK256 DUP3 PUSH1 0x1 PUSH1 0x1 PUSH1 0xA0 SHL SUB AND PUSH32 0x916F43DCE61AA4C4D8761C25DDCACFE178EA96A18F68D2775354BBC06BE75AAA DUP4 PUSH1 0x40 MLOAD PUSH2 0x160D SWAP2 DUP2 MSTORE PUSH1 0x20 ADD SWAP1 JUMP JUMPDEST PUSH1 0x40 MLOAD DUP1 SWAP2 SUB SWAP1 LOG3 POP POP POP POP POP POP JUMP JUMPDEST PUSH1 0x0 PUSH1 0x1 PUSH1 0x1 PUSH1 0xA0 SHL SUB DUP3 AND PUSH2 0x169B JUMPI PUSH1 0x40 MLOAD PUSH3 0x461BCD PUSH1 0xE5 SHL DUP2 MSTORE PUSH1 0x20 PUSH1 0x4 DUP3 ADD MSTORE PUSH1 0x29 PUSH1 0x24 DUP3 ADD MSTORE PUSH32 0x4552433732313A2061646472657373207A65726F206973206E6F742061207661 PUSH1 0x44 DUP3 ADD MSTORE PUSH32 0x6C6964206F776E65720000000000000000000000000000000000000000000000 PUSH1 0x64 DUP3 ADD MSTORE PUSH1 0x84 ADD PUSH2 0x9D2 JUMP JUMPDEST POP PUSH1 0x1 PUSH1 0x1 PUSH1 0xA0 SHL SUB AND PUSH1 0x0 SWAP1 DUP2 MSTORE PUSH1 0x9A PUSH1 0x20 MSTORE PUSH1 0x40 SWAP1 KECCAK256 SLOAD SWAP1 JUMP JUMPDEST PUSH2 0x16BF PUSH2 0x2508 JUMP JUMPDEST JUMP JUMPDEST PUSH1 0x0 PUSH2 0x16CE CALLER CALLER DUP6 PUSH2 0x1E18 JUMP JUMPDEST SWAP1 POP PUSH2 0x429 DUP2 DUP4 PUSH2 0x2BB6 JUMP JUMPDEST PUSH1 0xFB SLOAD CALLER SWAP1 PUSH1 0x1 PUSH1 0x1 PUSH1 0xA0 SHL SUB AND DUP2 EQ PUSH2 0x175C JUMPI PUSH1 0x40 MLOAD PUSH3 0x461BCD PUSH1 0xE5 SHL DUP2 MSTORE PUSH1 0x20 PUSH1 0x4 DUP3 ADD MSTORE PUSH1 0x29 PUSH1 0x24 DUP3 ADD MSTORE PUSH32 0x4F776E61626C6532537465703A2063616C6C6572206973206E6F742074686520 PUSH1 0x44 DUP3 ADD MSTORE PUSH32 0x6E6577206F776E65720000000000000000000000000000000000000000000000 PUSH1 0x64 DUP3 ADD MSTORE PUSH1 0x84 ADD PUSH2 0x9D2 JUMP JUMPDEST PUSH2 0x132E DUP2 PUSH2 0x3001 JUMP JUMPDEST PUSH1 0x0 PUSH2 0x1774 TIMESTAMP PUSH2 0x134 SLOAD PUSH2 0x3027 JUMP JUMPDEST SWAP1 POP SWAP1 JUMP JUMPDEST PUSH1 0x60 PUSH1 0x98 DUP1 SLOAD PUSH2 0x898 SWAP1 PUSH2 0x4240 JUMP JUMPDEST PUSH1 0x0 DUP2 DUP2 MSTORE PUSH1 0x99 PUSH1 0x20 MSTORE PUSH1 0x40 DUP2 KECCAK256 SLOAD PUSH1 0x1 PUSH1 0x1 PUSH1 0xA0 SHL SUB AND ISZERO PUSH2 0x13BC JUMPI PUSH2 0x883 DUP3 PUSH2 0x2406 JUMP JUMPDEST PUSH1 0x0 DUP2 DUP2 MSTORE PUSH1 0x99 PUSH1 0x20 MSTORE PUSH1 0x40 DUP2 KECCAK256 SLOAD PUSH1 0x1 PUSH1 0x1 PUSH1 0xA0 SHL SUB AND ISZERO PUSH2 0x13BC JUMPI PUSH2 0x883 DUP3 PUSH2 0x23D8 JUMP JUMPDEST PUSH1 0x0 PUSH2 0x1774 PUSH2 0x303D JUMP JUMPDEST PUSH1 0x0 PUSH2 0x883 CALLER CALLER DUP5 PUSH2 0x1E18 JUMP JUMPDEST PUSH2 0x17F5 CALLER DUP4 PUSH2 0x3080 JUMP JUMPDEST PUSH2 0x1867 JUMPI PUSH1 0x40 MLOAD PUSH3 0x461BCD PUSH1 0xE5 SHL DUP2 MSTORE PUSH1 0x20 PUSH1 0x4 DUP3 ADD MSTORE PUSH1 0x2D PUSH1 0x24 DUP3 ADD MSTORE PUSH32 0x4552433732313A2063616C6C6572206973206E6F7420746F6B656E206F776E65 PUSH1 0x44 DUP3 ADD MSTORE PUSH32 0x72206F7220617070726F76656400000000000000000000000000000000000000 PUSH1 0x64 DUP3 ADD MSTORE PUSH1 0x84 ADD PUSH2 0x9D2 JUMP JUMPDEST PUSH2 0xBAA DUP5 DUP5 DUP5 DUP5 PUSH2 0x30FE JUMP JUMPDEST PUSH1 0x60 PUSH2 0x187E DUP3 PUSH2 0x1B00 JUMP JUMPDEST PUSH1 0x0 PUSH2 0x1895 PUSH1 0x40 DUP1 MLOAD PUSH1 0x20 DUP2 ADD SWAP1 SWAP2 MSTORE PUSH1 0x0 DUP2 MSTORE SWAP1 JUMP JUMPDEST SWAP1 POP PUSH1 0x0 DUP2 MLOAD GT PUSH2 0x18B5 JUMPI PUSH1 0x40 MLOAD DUP1 PUSH1 0x20 ADD PUSH1 0x40 MSTORE DUP1 PUSH1 0x0 DUP2 MSTORE POP PUSH2 0xB64 JUMP JUMPDEST DUP1 PUSH2 0x18BF DUP5 PUSH2 0x3187 JUMP JUMPDEST PUSH1 0x40 MLOAD PUSH1 0x20 ADD PUSH2 0x18D0 SWAP3 SWAP2 SWAP1 PUSH2 0x437A JUMP JUMPDEST PUSH1 0x40 MLOAD PUSH1 0x20 DUP2 DUP4 SUB SUB DUP2 MSTORE SWAP1 PUSH1 0x40 MSTORE SWAP4 SWAP3 POP POP POP JUMP JUMPDEST PUSH2 0x640 DUP3 DUP3 PUSH2 0x2BB6 JUMP JUMPDEST PUSH1 0x0 DUP1 PUSH2 0x18FC DUP4 PUSH2 0x23D8 JUMP JUMPDEST SWAP1 POP PUSH1 0x0 PUSH2 0x1909 DUP5 PUSH2 0x2406 JUMP JUMPDEST SWAP1 POP DUP2 ISZERO PUSH2 0x100D JUMPI PUSH8 0xDE0B6B3A7640000 PUSH2 0x1924 DUP3 DUP5 PUSH2 0x42A3 JUMP JUMPDEST PUSH2 0x192E SWAP2 SWAP1 PUSH2 0x42BA JUMP JUMPDEST PUSH2 0xF5F SWAP1 DUP4 PUSH2 0x4290 JUMP JUMPDEST PUSH1 0x0 DUP3 DUP2 MSTORE PUSH2 0x13B PUSH1 0x20 MSTORE PUSH1 0x40 DUP2 KECCAK256 SLOAD DUP2 SWAP1 DUP4 DUP2 GT PUSH2 0x19BF JUMPI PUSH1 0x40 MLOAD PUSH3 0x461BCD PUSH1 0xE5 SHL DUP2 MSTORE PUSH1 0x20 PUSH1 0x4 DUP3 ADD MSTORE PUSH1 0x2E PUSH1 0x24 DUP3 ADD MSTORE PUSH32 0x596F752063616E2774207061727469616C6C79207769746864726177206D6F72 PUSH1 0x44 DUP3 ADD MSTORE PUSH32 0x65207468616E20796F75206F776E000000000000000000000000000000000000 PUSH1 0x64 DUP3 ADD MSTORE PUSH1 0x84 ADD PUSH2 0x9D2 JUMP JUMPDEST PUSH1 0x40 DUP1 MLOAD PUSH1 0x2 DUP1 DUP3 MSTORE PUSH1 0x60 DUP3 ADD DUP4 MSTORE PUSH1 0x0 SWAP3 PUSH1 0x20 DUP4 ADD SWAP1 DUP1 CALLDATASIZE DUP4 CALLDATACOPY ADD SWAP1 POP POP SWAP1 POP DUP5 DUP2 PUSH1 0x0 DUP2 MLOAD DUP2 LT PUSH2 0x19F4 JUMPI PUSH2 0x19F4 PUSH2 0x42EF JUMP JUMPDEST PUSH1 0x20 SWAP1 DUP2 MUL SWAP2 SWAP1 SWAP2 ADD ADD MSTORE PUSH2 0x1A09 DUP6 DUP4 PUSH2 0x4290 JUMP JUMPDEST DUP2 PUSH1 0x1 DUP2 MLOAD DUP2 LT PUSH2 0x1A1C JUMPI PUSH2 0x1A1C PUSH2 0x42EF JUMP JUMPDEST PUSH1 0x20 MUL PUSH1 0x20 ADD ADD DUP2 DUP2 MSTORE POP POP PUSH1 0x0 PUSH2 0x1A34 DUP8 DUP4 PUSH2 0x2619 JUMP JUMPDEST SWAP1 POP PUSH2 0x1A59 DUP2 PUSH1 0x0 DUP2 MLOAD DUP2 LT PUSH2 0x1A4C JUMPI PUSH2 0x1A4C PUSH2 0x42EF JUMP JUMPDEST PUSH1 0x20 MUL PUSH1 0x20 ADD ADD MLOAD PUSH2 0x1B64 JUMP JUMPDEST SWAP5 POP DUP1 PUSH1 0x1 DUP2 MLOAD DUP2 LT PUSH2 0x1A6E JUMPI PUSH2 0x1A6E PUSH2 0x42EF JUMP JUMPDEST PUSH1 0x20 MUL PUSH1 0x20 ADD ADD MLOAD SWAP4 POP POP POP POP SWAP3 POP SWAP3 SWAP1 POP JUMP JUMPDEST PUSH2 0x1A8A PUSH2 0x2508 JUMP JUMPDEST PUSH1 0xFB DUP1 SLOAD PUSH1 0x1 PUSH1 0x1 PUSH1 0xA0 SHL SUB DUP4 AND PUSH20 0xFFFFFFFFFFFFFFFFFFFFFFFFFFFFFFFFFFFFFFFF NOT SWAP1 SWAP2 AND DUP2 OR SWAP1 SWAP2 SSTORE PUSH2 0x1AC8 PUSH1 0xC9 SLOAD PUSH1 0x1 PUSH1 0x1 PUSH1 0xA0 SHL SUB AND SWAP1 JUMP JUMPDEST PUSH1 0x1 PUSH1 0x1 PUSH1 0xA0 SHL SUB AND PUSH32 0x38D16B8CAC22D99FC7C124B9CD0DE2D3FA1FAEF420BFE791D8C362D765E22700 PUSH1 0x40 MLOAD PUSH1 0x40 MLOAD DUP1 SWAP2 SUB SWAP1 LOG3 POP JUMP JUMPDEST PUSH1 0x0 DUP2 DUP2 MSTORE PUSH1 0x99 PUSH1 0x20 MSTORE PUSH1 0x40 SWAP1 KECCAK256 SLOAD PUSH1 0x1 PUSH1 0x1 PUSH1 0xA0 SHL SUB AND PUSH2 0x132E JUMPI PUSH1 0x40 MLOAD PUSH3 0x461BCD PUSH1 0xE5 SHL DUP2 MSTORE PUSH1 0x20 PUSH1 0x4 DUP3 ADD MSTORE PUSH1 0x18 PUSH1 0x24 DUP3 ADD MSTORE PUSH32 0x4552433732313A20696E76616C696420746F6B656E2049440000000000000000 PUSH1 0x44 DUP3 ADD MSTORE PUSH1 0x64 ADD PUSH2 0x9D2 JUMP JUMPDEST PUSH1 0x0 PUSH2 0x1B6E PUSH2 0x24AF JUMP JUMPDEST PUSH1 0x0 DUP3 DUP2 MSTORE PUSH1 0x99 PUSH1 0x20 MSTORE PUSH1 0x40 SWAP1 KECCAK256 SLOAD PUSH1 0x1 PUSH1 0x1 PUSH1 0xA0 SHL SUB AND PUSH2 0x1BD2 JUMPI PUSH1 0x40 MLOAD PUSH3 0x461BCD PUSH1 0xE5 SHL DUP2 MSTORE PUSH1 0x20 PUSH1 0x4 DUP3 ADD MSTORE PUSH1 0x1C PUSH1 0x24 DUP3 ADD MSTORE PUSH32 0x5468697320706F736974696F6E20646F65736E27742065786973742E00000000 PUSH1 0x44 DUP3 ADD MSTORE PUSH1 0x64 ADD PUSH2 0x9D2 JUMP JUMPDEST PUSH1 0x0 DUP3 DUP2 MSTORE PUSH1 0x99 PUSH1 0x20 MSTORE PUSH1 0x40 SWAP1 KECCAK256 SLOAD PUSH1 0x1 PUSH1 0x1 PUSH1 0xA0 SHL SUB AND CALLER DUP2 EQ PUSH2 0x1C39 JUMPI PUSH1 0x40 MLOAD PUSH3 0x461BCD PUSH1 0xE5 SHL DUP2 MSTORE PUSH1 0x20 PUSH1 0x4 DUP3 ADD MSTORE PUSH1 0x13 PUSH1 0x24 DUP3 ADD MSTORE PUSH32 0x4E6F7420796F75722078494E5458204E46542E00000000000000000000000000 PUSH1 0x44 DUP3 ADD MSTORE PUSH1 0x64 ADD PUSH2 0x9D2 JUMP JUMPDEST PUSH2 0x1C42 DUP4 PUSH2 0x1FD1 JUMP JUMPDEST PUSH1 0x0 DUP4 DUP2 MSTORE PUSH2 0x13B PUSH1 0x20 MSTORE PUSH1 0x40 DUP2 KECCAK256 SLOAD SWAP1 PUSH8 0xDE0B6B3A7640000 PUSH2 0x1C65 DUP7 PUSH2 0x21F2 JUMP JUMPDEST PUSH2 0x1C6F SWAP1 DUP5 PUSH2 0x42A3 JUMP JUMPDEST PUSH2 0x1C79 SWAP2 SWAP1 PUSH2 0x42BA JUMP JUMPDEST SWAP1 POP PUSH1 0x0 PUSH2 0x1C85 PUSH2 0x303D JUMP JUMPDEST SWAP1 POP PUSH1 0x0 PUSH2 0x1C93 DUP3 DUP6 PUSH2 0x42A3 JUMP JUMPDEST SWAP1 POP PUSH1 0x0 PUSH2 0x1CA0 DUP9 PUSH2 0x2406 JUMP JUMPDEST PUSH2 0x1CAA SWAP1 DUP4 PUSH2 0x42A3 JUMP JUMPDEST SWAP1 POP PUSH8 0xDE0B6B3A7640000 PUSH2 0x1CBF DUP3 DUP5 PUSH2 0x4290 JUMP JUMPDEST PUSH2 0x1CC9 SWAP2 SWAP1 PUSH2 0x42BA JUMP JUMPDEST PUSH1 0x0 DUP10 DUP2 MSTORE PUSH2 0x13A PUSH1 0x20 SWAP1 DUP2 MSTORE PUSH1 0x40 DUP1 DUP4 KECCAK256 DUP4 SWAP1 SSTORE PUSH2 0x13B DUP3 MSTORE DUP1 DUP4 KECCAK256 DUP4 SWAP1 SSTORE PUSH2 0x13C DUP3 MSTORE DUP1 DUP4 KECCAK256 DUP4 SWAP1 SSTORE PUSH2 0x13D DUP3 MSTORE DUP1 DUP4 KECCAK256 DUP4 SWAP1 SSTORE PUSH2 0x13E SWAP1 SWAP2 MSTORE SWAP1 KECCAK256 SLOAD SWAP1 SWAP8 POP ISZERO PUSH2 0x1D4E JUMPI PUSH1 0x0 DUP9 DUP2 MSTORE PUSH2 0x13E PUSH1 0x20 SWAP1 DUP2 MSTORE PUSH1 0x40 DUP1 DUP4 KECCAK256 SLOAD PUSH1 0x1 PUSH1 0x1 PUSH1 0xA0 SHL SUB DUP11 AND DUP5 MSTORE PUSH2 0x13F SWAP1 SWAP3 MSTORE DUP3 KECCAK256 DUP1 SLOAD SWAP2 SWAP3 SWAP1 SWAP2 PUSH2 0x1D48 SWAP1 DUP5 SWAP1 PUSH2 0x42DC JUMP JUMPDEST SWAP1 SWAP2 SSTORE POP POP JUMPDEST PUSH1 0x0 DUP9 DUP2 MSTORE PUSH2 0x13E PUSH1 0x20 MSTORE PUSH1 0x40 DUP2 KECCAK256 SSTORE PUSH2 0x1D67 DUP9 PUSH2 0x3227 JUMP JUMPDEST DUP5 PUSH2 0x12E PUSH1 0x0 DUP3 DUP3 SLOAD PUSH2 0x1D7A SWAP2 SWAP1 PUSH2 0x4290 JUMP JUMPDEST SWAP3 POP POP DUP2 SWAP1 SSTORE POP DUP4 PUSH2 0x137 PUSH1 0x0 DUP3 DUP3 SLOAD PUSH2 0x1D94 SWAP2 SWAP1 PUSH2 0x4290 JUMP JUMPDEST SWAP1 SWAP2 SSTORE POP POP PUSH2 0x138 SLOAD PUSH2 0x1DB1 SWAP1 PUSH1 0x1 PUSH1 0x1 PUSH1 0xA0 SHL SUB AND DUP8 DUP10 PUSH2 0x2B6D JUMP JUMPDEST PUSH2 0x12E SLOAD PUSH1 0x40 DUP1 MLOAD DUP8 DUP2 MSTORE PUSH1 0x20 DUP2 ADD DUP11 SWAP1 MSTORE DUP1 DUP3 ADD DUP5 SWAP1 MSTORE PUSH1 0x60 DUP2 ADD SWAP3 SWAP1 SWAP3 MSTORE MLOAD DUP10 SWAP2 PUSH1 0x1 PUSH1 0x1 PUSH1 0xA0 SHL SUB DUP10 AND SWAP2 PUSH32 0x44BD20A79E993BDCC7CBEDF54A3B4D19FB78490124B6B90D04FE3242EEA579E8 SWAP2 DUP2 SWAP1 SUB PUSH1 0x80 ADD SWAP1 LOG3 POP POP POP POP POP POP PUSH2 0x13BC PUSH1 0x1 DUP1 SSTORE JUMP JUMPDEST PUSH1 0x0 PUSH2 0x1E22 PUSH2 0x24AF JUMP JUMPDEST PUSH1 0x0 DUP3 GT PUSH2 0x1E72 JUMPI PUSH1 0x40 MLOAD PUSH3 0x461BCD PUSH1 0xE5 SHL DUP2 MSTORE PUSH1 0x20 PUSH1 0x4 DUP3 ADD MSTORE PUSH1 0x13 PUSH1 0x24 DUP3 ADD MSTORE PUSH32 0x43616E2774207374616B65203020696E74582E00000000000000000000000000 PUSH1 0x44 DUP3 ADD MSTORE PUSH1 0x64 ADD PUSH2 0x9D2 JUMP JUMPDEST PUSH1 0x0 PUSH2 0x1E7C PUSH2 0x303D JUMP JUMPDEST PUSH2 0x138 SLOAD SWAP1 SWAP2 POP PUSH2 0x1E98 SWAP1 PUSH1 0x1 PUSH1 0x1 PUSH1 0xA0 SHL SUB AND DUP7 ADDRESS DUP7 PUSH2 0x2562 JUMP JUMPDEST PUSH2 0x12D DUP1 SLOAD SWAP1 PUSH1 0x0 PUSH2 0x1EA9 DUP4 PUSH2 0x4305 JUMP JUMPDEST SWAP2 SWAP1 POP SSTORE POP PUSH2 0x1EBB DUP5 PUSH2 0x12D SLOAD PUSH2 0x32C9 JUMP JUMPDEST PUSH2 0x1EC7 PUSH2 0x12D SLOAD PUSH2 0x1FD1 JUMP JUMPDEST PUSH1 0x0 DUP2 PUSH2 0x1EDC PUSH8 0xDE0B6B3A7640000 DUP7 PUSH2 0x42A3 JUMP JUMPDEST PUSH2 0x1EE6 SWAP2 SWAP1 PUSH2 0x42BA JUMP JUMPDEST PUSH2 0x12D DUP1 SLOAD PUSH1 0x0 SWAP1 DUP2 MSTORE PUSH2 0x13A PUSH1 0x20 SWAP1 DUP2 MSTORE PUSH1 0x40 DUP1 DUP4 KECCAK256 TIMESTAMP SWAP1 SSTORE SWAP3 SLOAD DUP3 MSTORE PUSH2 0x13B SWAP1 MSTORE SWAP1 DUP2 KECCAK256 DUP3 SWAP1 SSTORE PUSH2 0x12E DUP1 SLOAD SWAP3 SWAP4 POP DUP4 SWAP3 SWAP1 SWAP2 SWAP1 PUSH2 0x1F27 SWAP1 DUP5 SWAP1 PUSH2 0x42DC JUMP JUMPDEST SWAP3 POP POP DUP2 SWAP1 SSTORE POP DUP1 PUSH2 0x137 PUSH1 0x0 DUP3 DUP3 SLOAD PUSH2 0x1F41 SWAP2 SWAP1 PUSH2 0x42DC JUMP JUMPDEST SWAP1 SWAP2 SSTORE POP POP PUSH2 0x12D DUP1 SLOAD PUSH1 0x0 SWAP1 DUP2 MSTORE PUSH2 0x13C PUSH1 0x20 SWAP1 DUP2 MSTORE PUSH1 0x40 SWAP2 DUP3 SWAP1 KECCAK256 DUP5 SWAP1 SSTORE SWAP2 SLOAD PUSH2 0x12E SLOAD PUSH2 0x137 SLOAD DUP4 MLOAD DUP7 DUP2 MSTORE SWAP5 DUP6 ADD DUP10 SWAP1 MSTORE SWAP3 DUP5 ADD MSTORE PUSH1 0x60 DUP4 ADD SWAP2 SWAP1 SWAP2 MSTORE SWAP1 PUSH1 0x1 PUSH1 0x1 PUSH1 0xA0 SHL SUB DUP1 DUP9 AND SWAP2 SWAP1 DUP10 AND SWAP1 PUSH32 0x52C6B7A228763DC832BEF1E2DEE48707B24B8F1400A6335B3AF6D5DEF4F5BB21 SWAP1 PUSH1 0x80 ADD PUSH1 0x40 MLOAD DUP1 SWAP2 SUB SWAP1 LOG4 PUSH2 0x12D SLOAD SWAP3 POP POP POP PUSH2 0xB64 PUSH1 0x1 DUP1 SSTORE JUMP JUMPDEST PUSH2 0x1FD9 PUSH2 0xA87 JUMP JUMPDEST PUSH2 0x136 SSTORE PUSH2 0x1FE5 PUSH2 0x1765 JUMP JUMPDEST PUSH2 0x133 SSTORE DUP1 ISZERO PUSH2 0x132E JUMPI PUSH2 0x1FF8 DUP2 PUSH2 0xE9F JUMP JUMPDEST PUSH1 0x0 DUP3 DUP2 MSTORE PUSH2 0x13E PUSH1 0x20 MSTORE PUSH1 0x40 DUP2 KECCAK256 SWAP2 SWAP1 SWAP2 SSTORE PUSH8 0xDE0B6B3A7640000 PUSH2 0x201D DUP4 PUSH2 0x21F2 JUMP JUMPDEST PUSH1 0x0 DUP5 DUP2 MSTORE PUSH2 0x13B PUSH1 0x20 MSTORE PUSH1 0x40 SWAP1 KECCAK256 SLOAD PUSH2 0x2037 SWAP2 SWAP1 PUSH2 0x42A3 JUMP JUMPDEST PUSH2 0x2041 SWAP2 SWAP1 PUSH2 0x42BA JUMP JUMPDEST PUSH1 0x0 DUP4 DUP2 MSTORE PUSH2 0x13C PUSH1 0x20 MSTORE PUSH1 0x40 SWAP1 KECCAK256 SLOAD PUSH2 0x137 SLOAD SWAP2 SWAP3 POP DUP3 SWAP2 PUSH2 0x2064 SWAP2 SWAP1 PUSH2 0x4290 JUMP JUMPDEST PUSH2 0x206E SWAP2 SWAP1 PUSH2 0x42DC JUMP JUMPDEST PUSH2 0x137 SSTORE PUSH1 0x0 SWAP2 DUP3 MSTORE PUSH2 0x13C PUSH1 0x20 SWAP1 DUP2 MSTORE PUSH1 0x40 DUP1 DUP5 KECCAK256 SWAP3 SWAP1 SWAP3 SSTORE PUSH2 0x136 SLOAD PUSH2 0x13D SWAP1 SWAP2 MSTORE SWAP2 KECCAK256 SSTORE JUMP JUMPDEST PUSH1 0x0 SLOAD PUSH2 0x100 SWAP1 DIV PUSH1 0xFF AND PUSH2 0x2102 JUMPI PUSH1 0x40 MLOAD PUSH3 0x461BCD PUSH1 0xE5 SHL DUP2 MSTORE PUSH1 0x20 PUSH1 0x4 DUP3 ADD MSTORE PUSH1 0x2B PUSH1 0x24 DUP3 ADD MSTORE PUSH32 0x496E697469616C697A61626C653A20636F6E7472616374206973206E6F742069 PUSH1 0x44 DUP3 ADD MSTORE PUSH11 0x6E697469616C697A696E67 PUSH1 0xA8 SHL PUSH1 0x64 DUP3 ADD MSTORE PUSH1 0x84 ADD PUSH2 0x9D2 JUMP JUMPDEST PUSH2 0x16BF PUSH2 0x3461 JUMP JUMPDEST PUSH1 0x0 SLOAD PUSH2 0x100 SWAP1 DIV PUSH1 0xFF AND PUSH2 0x2175 JUMPI PUSH1 0x40 MLOAD PUSH3 0x461BCD PUSH1 0xE5 SHL DUP2 MSTORE PUSH1 0x20 PUSH1 0x4 DUP3 ADD MSTORE PUSH1 0x2B PUSH1 0x24 DUP3 ADD MSTORE PUSH32 0x496E697469616C697A61626C653A20636F6E7472616374206973206E6F742069 PUSH1 0x44 DUP3 ADD MSTORE PUSH11 0x6E697469616C697A696E67 PUSH1 0xA8 SHL PUSH1 0x64 DUP3 ADD MSTORE PUSH1 0x84 ADD PUSH2 0x9D2 JUMP JUMPDEST PUSH2 0x640 DUP3 DUP3 PUSH2 0x34CC JUMP JUMPDEST PUSH1 0x0 SLOAD PUSH2 0x100 SWAP1 DIV PUSH1 0xFF AND PUSH2 0x21EA JUMPI PUSH1 0x40 MLOAD PUSH3 0x461BCD PUSH1 0xE5 SHL DUP2 MSTORE PUSH1 0x20 PUSH1 0x4 DUP3 ADD MSTORE PUSH1 0x2B PUSH1 0x24 DUP3 ADD MSTORE PUSH32 0x496E697469616C697A61626C653A20636F6E7472616374206973206E6F742069 PUSH1 0x44 DUP3 ADD MSTORE PUSH11 0x6E697469616C697A696E67 PUSH1 0xA8 SHL PUSH1 0x64 DUP3 ADD MSTORE PUSH1 0x84 ADD PUSH2 0x9D2 JUMP JUMPDEST PUSH2 0x16BF PUSH2 0x3550 JUMP JUMPDEST PUSH1 0x0 DUP2 DUP2 MSTORE PUSH2 0x13A PUSH1 0x20 MSTORE PUSH1 0x40 DUP2 KECCAK256 SLOAD DUP1 DUP3 SUB PUSH2 0x2212 JUMPI POP PUSH1 0x0 SWAP3 SWAP2 POP POP JUMP JUMPDEST PUSH1 0x0 PUSH2 0x221E DUP3 TIMESTAMP PUSH2 0x4290 JUMP JUMPDEST SWAP1 POP PUSH2 0x12F SLOAD DUP2 GT ISZERO PUSH2 0x2231 JUMPI POP PUSH2 0x12F SLOAD JUMPDEST PUSH8 0xDE0B6B3A7640000 DUP1 PUSH2 0x130 SLOAD PUSH2 0x2249 SWAP2 SWAP1 PUSH2 0x4290 JUMP JUMPDEST PUSH2 0x12F SLOAD PUSH2 0x225F PUSH8 0xDE0B6B3A7640000 DUP6 PUSH2 0x42A3 JUMP JUMPDEST PUSH2 0x2269 SWAP2 SWAP1 PUSH2 0x42BA JUMP JUMPDEST PUSH2 0x2273 SWAP2 SWAP1 PUSH2 0x42A3 JUMP JUMPDEST PUSH2 0x227D SWAP2 SWAP1 PUSH2 0x42BA JUMP JUMPDEST PUSH2 0xF5F SWAP1 PUSH8 0xDE0B6B3A7640000 PUSH2 0x42DC JUMP JUMPDEST PUSH2 0x22EE PUSH1 0x40 MLOAD DUP1 PUSH2 0x140 ADD PUSH1 0x40 MSTORE DUP1 PUSH1 0x0 DUP2 MSTORE PUSH1 0x20 ADD PUSH1 0x0 PUSH1 0x1 PUSH1 0x1 PUSH1 0xA0 SHL SUB AND DUP2 MSTORE PUSH1 0x20 ADD PUSH1 0x0 DUP2 MSTORE PUSH1 0x20 ADD PUSH1 0x0 DUP2 MSTORE PUSH1 0x20 ADD PUSH1 0x0 DUP2 MSTORE PUSH1 0x20 ADD PUSH1 0x0 DUP2 MSTORE PUSH1 0x20 ADD PUSH1 0x0 DUP2 MSTORE PUSH1 0x20 ADD PUSH1 0x0 DUP2 MSTORE PUSH1 0x20 ADD PUSH1 0x0 DUP2 MSTORE PUSH1 0x20 ADD PUSH1 0x0 DUP2 MSTORE POP SWAP1 JUMP JUMPDEST PUSH1 0x0 PUSH2 0x22F9 DUP4 PUSH2 0x23D8 JUMP JUMPDEST SWAP1 POP PUSH1 0x0 PUSH2 0x2306 DUP5 PUSH2 0x2406 JUMP JUMPDEST DUP5 DUP5 MSTORE PUSH1 0x0 DUP6 DUP2 MSTORE PUSH1 0x99 PUSH1 0x20 SWAP1 DUP2 MSTORE PUSH1 0x40 DUP1 DUP4 KECCAK256 SLOAD PUSH1 0x1 PUSH1 0x1 PUSH1 0xA0 SHL SUB AND DUP3 DUP9 ADD MSTORE DUP8 DUP4 MSTORE PUSH2 0x13B SWAP1 SWAP2 MSTORE SWAP1 DUP2 SWAP1 KECCAK256 SLOAD SWAP1 DUP6 ADD MSTORE PUSH1 0x60 DUP5 ADD DUP4 SWAP1 MSTORE SWAP1 POP PUSH8 0xDE0B6B3A7640000 PUSH2 0x2356 DUP3 DUP5 PUSH2 0x42A3 JUMP JUMPDEST PUSH2 0x2360 SWAP2 SWAP1 PUSH2 0x42BA JUMP JUMPDEST PUSH2 0x236A SWAP1 DUP4 PUSH2 0x4290 JUMP JUMPDEST PUSH1 0x80 DUP5 ADD MSTORE PUSH1 0x0 DUP5 DUP2 MSTORE PUSH2 0x13A PUSH1 0x20 MSTORE PUSH1 0x40 SWAP1 KECCAK256 SLOAD PUSH1 0xA0 DUP5 ADD MSTORE PUSH2 0x238D DUP5 PUSH2 0x21F2 JUMP JUMPDEST PUSH1 0xC0 DUP5 ADD MSTORE PUSH1 0xE0 DUP4 ADD DUP2 SWAP1 MSTORE PUSH8 0xDE0B6B3A7640000 PUSH2 0x23AC DUP3 DUP5 PUSH2 0x42A3 JUMP JUMPDEST PUSH2 0x23B6 SWAP2 SWAP1 PUSH2 0x42BA JUMP JUMPDEST PUSH2 0x100 DUP5 ADD MSTORE POP POP PUSH1 0x0 SWAP2 DUP3 MSTORE PUSH2 0x13E PUSH1 0x20 MSTORE PUSH1 0x40 SWAP1 SWAP2 KECCAK256 SLOAD PUSH2 0x120 DUP3 ADD MSTORE SWAP1 JUMP JUMPDEST PUSH1 0x0 DUP2 DUP2 MSTORE PUSH2 0x13B PUSH1 0x20 MSTORE PUSH1 0x40 DUP2 KECCAK256 SLOAD DUP2 PUSH2 0x23F1 PUSH2 0x303D JUMP JUMPDEST SWAP1 POP PUSH8 0xDE0B6B3A7640000 PUSH2 0x1003 DUP3 DUP5 PUSH2 0x42A3 JUMP JUMPDEST PUSH1 0x0 DUP2 DUP2 MSTORE PUSH2 0x13A PUSH1 0x20 MSTORE PUSH1 0x40 DUP2 KECCAK256 SLOAD DUP1 DUP3 SUB PUSH2 0x2426 JUMPI POP PUSH1 0x0 SWAP3 SWAP2 POP POP JUMP JUMPDEST PUSH1 0x0 PUSH2 0x2432 DUP3 TIMESTAMP PUSH2 0x4290 JUMP JUMPDEST SWAP1 POP PUSH2 0x12F SLOAD DUP2 GT ISZERO PUSH2 0x2445 JUMPI POP PUSH2 0x12F SLOAD JUMPDEST PUSH8 0xDE0B6B3A7640000 PUSH2 0x131 SLOAD PUSH2 0x12F SLOAD PUSH8 0xDE0B6B3A7640000 DUP5 PUSH2 0x246A SWAP2 SWAP1 PUSH2 0x42A3 JUMP JUMPDEST PUSH2 0x2474 SWAP2 SWAP1 PUSH2 0x42BA JUMP JUMPDEST PUSH2 0x247E SWAP2 SWAP1 PUSH2 0x42A3 JUMP JUMPDEST PUSH2 0x2488 SWAP2 SWAP1 PUSH2 0x42BA JUMP JUMPDEST PUSH2 0x131 SLOAD PUSH2 0x2496 SWAP2 SWAP1 PUSH2 0x4290 JUMP JUMPDEST SWAP3 POP PUSH2 0x132 SLOAD DUP4 LT ISZERO PUSH2 0x100D JUMPI POP POP PUSH2 0x132 SLOAD SWAP3 SWAP2 POP POP JUMP JUMPDEST PUSH1 0x2 PUSH1 0x1 SLOAD SUB PUSH2 0x2501 JUMPI PUSH1 0x40 MLOAD PUSH3 0x461BCD PUSH1 0xE5 SHL DUP2 MSTORE PUSH1 0x20 PUSH1 0x4 DUP3 ADD MSTORE PUSH1 0x1F PUSH1 0x24 DUP3 ADD MSTORE PUSH32 0x5265656E7472616E637947756172643A207265656E7472616E742063616C6C00 PUSH1 0x44 DUP3 ADD MSTORE PUSH1 0x64 ADD PUSH2 0x9D2 JUMP JUMPDEST PUSH1 0x2 PUSH1 0x1 SSTORE JUMP JUMPDEST PUSH1 0xC9 SLOAD PUSH1 0x1 PUSH1 0x1 PUSH1 0xA0 SHL SUB AND CALLER EQ PUSH2 0x16BF JUMPI PUSH1 0x40 MLOAD PUSH3 0x461BCD PUSH1 0xE5 SHL DUP2 MSTORE PUSH1 0x20 PUSH1 0x4 DUP3 ADD DUP2 SWAP1 MSTORE PUSH1 0x24 DUP3 ADD MSTORE PUSH32 0x4F776E61626C653A2063616C6C6572206973206E6F7420746865206F776E6572 PUSH1 0x44 DUP3 ADD MSTORE PUSH1 0x64 ADD PUSH2 0x9D2 JUMP JUMPDEST PUSH1 0x40 MLOAD PUSH1 0x1 PUSH1 0x1 PUSH1 0xA0 SHL SUB DUP1 DUP6 AND PUSH1 0x24 DUP4 ADD MSTORE DUP4 AND PUSH1 0x44 DUP3 ADD MSTORE PUSH1 0x64 DUP2 ADD DUP3 SWAP1 MSTORE PUSH2 0xBAA SWAP1 DUP6 SWAP1 PUSH32 0x23B872DD00000000000000000000000000000000000000000000000000000000 SWAP1 PUSH1 0x84 ADD JUMPDEST PUSH1 0x40 DUP1 MLOAD PUSH1 0x1F NOT DUP2 DUP5 SUB ADD DUP2 MSTORE SWAP2 SWAP1 MSTORE PUSH1 0x20 DUP2 ADD DUP1 MLOAD PUSH28 0xFFFFFFFFFFFFFFFFFFFFFFFFFFFFFFFFFFFFFFFFFFFFFFFFFFFFFFFF AND PUSH32 0xFFFFFFFF00000000000000000000000000000000000000000000000000000000 SWAP1 SWAP4 AND SWAP3 SWAP1 SWAP3 OR SWAP1 SWAP2 MSTORE PUSH2 0x35C4 JUMP JUMPDEST PUSH1 0x1 DUP1 SSTORE JUMP JUMPDEST PUSH1 0x60 PUSH2 0x2623 PUSH2 0x24AF JUMP JUMPDEST PUSH1 0x0 DUP4 DUP2 MSTORE PUSH1 0x99 PUSH1 0x20 MSTORE PUSH1 0x40 SWAP1 KECCAK256 SLOAD PUSH1 0x1 PUSH1 0x1 PUSH1 0xA0 SHL SUB AND PUSH2 0x2687 JUMPI PUSH1 0x40 MLOAD PUSH3 0x461BCD PUSH1 0xE5 SHL DUP2 MSTORE PUSH1 0x20 PUSH1 0x4 DUP3 ADD MSTORE PUSH1 0x1C PUSH1 0x24 DUP3 ADD MSTORE PUSH32 0x5468697320706F736974696F6E20646F65736E27742065786973742E00000000 PUSH1 0x44 DUP3 ADD MSTORE PUSH1 0x64 ADD PUSH2 0x9D2 JUMP JUMPDEST PUSH1 0x0 DUP4 DUP2 MSTORE PUSH1 0x99 PUSH1 0x20 MSTORE PUSH1 0x40 SWAP1 KECCAK256 SLOAD PUSH1 0x1 PUSH1 0x1 PUSH1 0xA0 SHL SUB AND CALLER DUP2 EQ PUSH2 0x26EE JUMPI PUSH1 0x40 MLOAD PUSH3 0x461BCD PUSH1 0xE5 SHL DUP2 MSTORE PUSH1 0x20 PUSH1 0x4 DUP3 ADD MSTORE PUSH1 0x13 PUSH1 0x24 DUP3 ADD MSTORE PUSH32 0x4E6F7420796F75722078494E5458204E46542E00000000000000000000000000 PUSH1 0x44 DUP3 ADD MSTORE PUSH1 0x64 ADD PUSH2 0x9D2 JUMP JUMPDEST DUP3 MLOAD PUSH1 0x1 DUP2 GT PUSH2 0x2766 JUMPI PUSH1 0x40 MLOAD PUSH3 0x461BCD PUSH1 0xE5 SHL DUP2 MSTORE PUSH1 0x20 PUSH1 0x4 DUP3 ADD MSTORE PUSH1 0x2C PUSH1 0x24 DUP3 ADD MSTORE PUSH32 0x596F752063616E27742073706C697420746869732058494E5458206C65737320 PUSH1 0x44 DUP3 ADD MSTORE PUSH32 0x7468616E20322074696D65730000000000000000000000000000000000000000 PUSH1 0x64 DUP3 ADD MSTORE PUSH1 0x84 ADD PUSH2 0x9D2 JUMP JUMPDEST PUSH1 0xA DUP2 GT ISZERO PUSH2 0x27DD JUMPI PUSH1 0x40 MLOAD PUSH3 0x461BCD PUSH1 0xE5 SHL DUP2 MSTORE PUSH1 0x20 PUSH1 0x4 DUP3 ADD MSTORE PUSH1 0x2D PUSH1 0x24 DUP3 ADD MSTORE PUSH32 0x596F752063616E27742073706C697420746869732058494E5458206D6F726520 PUSH1 0x44 DUP3 ADD MSTORE PUSH32 0x7468616E2031302074696D657300000000000000000000000000000000000000 PUSH1 0x64 DUP3 ADD MSTORE PUSH1 0x84 ADD PUSH2 0x9D2 JUMP JUMPDEST DUP1 PUSH8 0xFFFFFFFFFFFFFFFF DUP2 GT ISZERO PUSH2 0x27F6 JUMPI PUSH2 0x27F6 PUSH2 0x414E JUMP JUMPDEST PUSH1 0x40 MLOAD SWAP1 DUP1 DUP3 MSTORE DUP1 PUSH1 0x20 MUL PUSH1 0x20 ADD DUP3 ADD PUSH1 0x40 MSTORE DUP1 ISZERO PUSH2 0x281F JUMPI DUP2 PUSH1 0x20 ADD PUSH1 0x20 DUP3 MUL DUP1 CALLDATASIZE DUP4 CALLDATACOPY ADD SWAP1 POP JUMPDEST POP SWAP3 POP PUSH2 0x282B DUP6 PUSH2 0x1FD1 JUMP JUMPDEST PUSH1 0x0 DUP6 DUP2 MSTORE PUSH2 0x13B PUSH1 0x20 SWAP1 DUP2 MSTORE PUSH1 0x40 DUP1 DUP4 KECCAK256 SLOAD PUSH2 0x13A DUP4 MSTORE DUP2 DUP5 KECCAK256 SLOAD PUSH2 0x13D SWAP1 SWAP4 MSTORE SWAP1 DUP4 KECCAK256 SLOAD PUSH2 0x12E DUP1 SLOAD SWAP3 SWAP4 SWAP3 DUP5 SWAP2 SWAP1 DUP7 SWAP1 PUSH2 0x2869 SWAP1 DUP5 SWAP1 PUSH2 0x4290 JUMP JUMPDEST SWAP1 SWAP2 SSTORE POP POP PUSH1 0x0 DUP10 DUP2 MSTORE PUSH2 0x13C PUSH1 0x20 MSTORE PUSH1 0x40 DUP2 KECCAK256 SLOAD PUSH2 0x137 DUP1 SLOAD SWAP2 SWAP3 SWAP1 SWAP2 PUSH2 0x2892 SWAP1 DUP5 SWAP1 PUSH2 0x4290 JUMP JUMPDEST SWAP1 SWAP2 SSTORE POP PUSH1 0x0 SWAP1 POP JUMPDEST DUP6 DUP2 LT ISZERO PUSH2 0x28DC JUMPI DUP9 DUP2 DUP2 MLOAD DUP2 LT PUSH2 0x28B5 JUMPI PUSH2 0x28B5 PUSH2 0x42EF JUMP JUMPDEST PUSH1 0x20 MUL PUSH1 0x20 ADD ADD MLOAD DUP6 PUSH2 0x28C8 SWAP2 SWAP1 PUSH2 0x42DC JUMP JUMPDEST SWAP5 POP DUP1 PUSH2 0x28D4 DUP2 PUSH2 0x4305 JUMP JUMPDEST SWAP2 POP POP PUSH2 0x289B JUMP JUMPDEST POP PUSH1 0x0 JUMPDEST DUP6 DUP2 LT ISZERO PUSH2 0x2AC2 JUMPI PUSH1 0x0 DUP6 DUP6 DUP12 DUP5 DUP2 MLOAD DUP2 LT PUSH2 0x28FE JUMPI PUSH2 0x28FE PUSH2 0x42EF JUMP JUMPDEST PUSH1 0x20 MUL PUSH1 0x20 ADD ADD MLOAD PUSH2 0x2910 SWAP2 SWAP1 PUSH2 0x42A3 JUMP JUMPDEST PUSH2 0x291A SWAP2 SWAP1 PUSH2 0x42BA JUMP JUMPDEST SWAP1 POP PUSH1 0x0 DUP2 GT PUSH2 0x296C JUMPI PUSH1 0x40 MLOAD PUSH3 0x461BCD PUSH1 0xE5 SHL DUP2 MSTORE PUSH1 0x20 PUSH1 0x4 DUP3 ADD MSTORE PUSH1 0x14 PUSH1 0x24 DUP3 ADD MSTORE PUSH32 0x43616E27742073706C697420302078494E54582E000000000000000000000000 PUSH1 0x44 DUP3 ADD MSTORE PUSH1 0x64 ADD PUSH2 0x9D2 JUMP JUMPDEST PUSH2 0x12D DUP1 SLOAD SWAP1 PUSH1 0x0 PUSH2 0x297D DUP4 PUSH2 0x4305 JUMP JUMPDEST SWAP2 SWAP1 POP SSTORE POP PUSH2 0x298F DUP9 PUSH2 0x12D SLOAD PUSH2 0x32C9 JUMP JUMPDEST PUSH2 0x12D SLOAD DUP10 DUP4 DUP2 MLOAD DUP2 LT PUSH2 0x29A5 JUMPI PUSH2 0x29A5 PUSH2 0x42EF JUMP JUMPDEST PUSH1 0x20 SWAP1 DUP2 MUL SWAP2 SWAP1 SWAP2 ADD DUP2 ADD SWAP2 SWAP1 SWAP2 MSTORE PUSH2 0x12D DUP1 SLOAD PUSH1 0x0 SWAP1 DUP2 MSTORE PUSH2 0x13A DUP4 MSTORE PUSH1 0x40 DUP1 DUP3 KECCAK256 DUP9 SWAP1 SSTORE DUP3 SLOAD DUP3 MSTORE PUSH2 0x13B SWAP1 SWAP4 MSTORE SWAP2 DUP3 KECCAK256 DUP4 SWAP1 SSTORE SLOAD PUSH8 0xDE0B6B3A7640000 SWAP1 PUSH2 0x29EF SWAP1 PUSH2 0x21F2 JUMP JUMPDEST PUSH2 0x29F9 SWAP1 DUP5 PUSH2 0x42A3 JUMP JUMPDEST PUSH2 0x2A03 SWAP2 SWAP1 PUSH2 0x42BA JUMP JUMPDEST PUSH2 0x12D DUP1 SLOAD PUSH1 0x0 SWAP1 DUP2 MSTORE PUSH2 0x13C PUSH1 0x20 SWAP1 DUP2 MSTORE PUSH1 0x40 DUP1 DUP4 KECCAK256 DUP6 SWAP1 SSTORE SWAP3 SLOAD DUP3 MSTORE PUSH2 0x13D SWAP1 MSTORE SWAP1 DUP2 KECCAK256 DUP7 SWAP1 SSTORE PUSH2 0x12E DUP1 SLOAD SWAP3 SWAP4 POP DUP5 SWAP3 SWAP1 SWAP2 SWAP1 PUSH2 0x2A44 SWAP1 DUP5 SWAP1 PUSH2 0x42DC JUMP JUMPDEST SWAP3 POP POP DUP2 SWAP1 SSTORE POP DUP1 PUSH2 0x137 PUSH1 0x0 DUP3 DUP3 SLOAD PUSH2 0x2A5E SWAP2 SWAP1 PUSH2 0x42DC JUMP JUMPDEST SWAP1 SWAP2 SSTORE POP POP PUSH2 0x12D SLOAD PUSH1 0x40 DUP1 MLOAD SWAP2 DUP3 MSTORE PUSH1 0x20 DUP3 ADD DUP5 SWAP1 MSTORE DUP14 SWAP2 PUSH1 0x1 PUSH1 0x1 PUSH1 0xA0 SHL SUB DUP13 AND SWAP2 PUSH32 0xF66885C33D648FCD0D97E0F2A18E30102169C22763473AF0FB716F11B4A17DD6 SWAP2 ADD PUSH1 0x40 MLOAD DUP1 SWAP2 SUB SWAP1 LOG3 POP POP DUP1 DUP1 PUSH2 0x2ABA SWAP1 PUSH2 0x4305 JUMP JUMPDEST SWAP2 POP POP PUSH2 0x28E0 JUMP JUMPDEST POP PUSH1 0x0 DUP10 DUP2 MSTORE PUSH2 0x13A PUSH1 0x20 SWAP1 DUP2 MSTORE PUSH1 0x40 DUP1 DUP4 KECCAK256 DUP4 SWAP1 SSTORE PUSH2 0x13B DUP3 MSTORE DUP1 DUP4 KECCAK256 DUP4 SWAP1 SSTORE PUSH2 0x13C DUP3 MSTORE DUP1 DUP4 KECCAK256 DUP4 SWAP1 SSTORE PUSH2 0x13D DUP3 MSTORE DUP1 DUP4 KECCAK256 DUP4 SWAP1 SSTORE PUSH2 0x13E SWAP1 SWAP2 MSTORE SWAP1 KECCAK256 SLOAD ISZERO PUSH2 0x2B45 JUMPI PUSH1 0x0 DUP10 DUP2 MSTORE PUSH2 0x13E PUSH1 0x20 SWAP1 DUP2 MSTORE PUSH1 0x40 DUP1 DUP4 KECCAK256 SLOAD PUSH1 0x1 PUSH1 0x1 PUSH1 0xA0 SHL SUB DUP11 AND DUP5 MSTORE PUSH2 0x13F SWAP1 SWAP3 MSTORE DUP3 KECCAK256 DUP1 SLOAD SWAP2 SWAP3 SWAP1 SWAP2 PUSH2 0x2B3F SWAP1 DUP5 SWAP1 PUSH2 0x42DC JUMP JUMPDEST SWAP1 SWAP2 SSTORE POP POP JUMPDEST PUSH1 0x0 DUP10 DUP2 MSTORE PUSH2 0x13E PUSH1 0x20 MSTORE PUSH1 0x40 DUP2 KECCAK256 SSTORE PUSH2 0x2B5E DUP10 PUSH2 0x3227 JUMP JUMPDEST POP POP POP POP POP POP PUSH2 0x883 PUSH1 0x1 DUP1 SSTORE JUMP JUMPDEST PUSH1 0x40 MLOAD PUSH1 0x1 PUSH1 0x1 PUSH1 0xA0 SHL SUB DUP4 AND PUSH1 0x24 DUP3 ADD MSTORE PUSH1 0x44 DUP2 ADD DUP3 SWAP1 MSTORE PUSH2 0x429 SWAP1 DUP5 SWAP1 PUSH32 0xA9059CBB00000000000000000000000000000000000000000000000000000000 SWAP1 PUSH1 0x64 ADD PUSH2 0x25AF JUMP JUMPDEST PUSH2 0x2BBE PUSH2 0x24AF JUMP JUMPDEST PUSH1 0x0 DUP3 DUP2 MSTORE PUSH1 0x99 PUSH1 0x20 MSTORE PUSH1 0x40 SWAP1 KECCAK256 SLOAD PUSH1 0x1 PUSH1 0x1 PUSH1 0xA0 SHL SUB AND PUSH2 0x2C22 JUMPI PUSH1 0x40 MLOAD PUSH3 0x461BCD PUSH1 0xE5 SHL DUP2 MSTORE PUSH1 0x20 PUSH1 0x4 DUP3 ADD MSTORE PUSH1 0x1C PUSH1 0x24 DUP3 ADD MSTORE PUSH32 0x5468697320706F736974696F6E20646F65736E27742065786973742E00000000 PUSH1 0x44 DUP3 ADD MSTORE PUSH1 0x64 ADD PUSH2 0x9D2 JUMP JUMPDEST PUSH1 0x0 DUP2 DUP2 MSTORE PUSH1 0x99 PUSH1 0x20 MSTORE PUSH1 0x40 SWAP1 KECCAK256 SLOAD PUSH1 0x1 PUSH1 0x1 PUSH1 0xA0 SHL SUB AND PUSH2 0x2C86 JUMPI PUSH1 0x40 MLOAD PUSH3 0x461BCD PUSH1 0xE5 SHL DUP2 MSTORE PUSH1 0x20 PUSH1 0x4 DUP3 ADD MSTORE PUSH1 0x1C PUSH1 0x24 DUP3 ADD MSTORE PUSH32 0x5468697320706F736974696F6E20646F65736E27742065786973742E00000000 PUSH1 0x44 DUP3 ADD MSTORE PUSH1 0x64 ADD PUSH2 0x9D2 JUMP JUMPDEST PUSH1 0x0 DUP3 DUP2 MSTORE PUSH1 0x99 PUSH1 0x20 MSTORE PUSH1 0x40 SWAP1 KECCAK256 SLOAD PUSH1 0x1 PUSH1 0x1 PUSH1 0xA0 SHL SUB AND CALLER DUP2 EQ PUSH2 0x2CED JUMPI PUSH1 0x40 MLOAD PUSH3 0x461BCD PUSH1 0xE5 SHL DUP2 MSTORE PUSH1 0x20 PUSH1 0x4 DUP3 ADD MSTORE PUSH1 0x1E PUSH1 0x24 DUP3 ADD MSTORE PUSH32 0x46726F6D204E46542069736E277420796F75722078494E5458204E46542E0000 PUSH1 0x44 DUP3 ADD MSTORE PUSH1 0x64 ADD PUSH2 0x9D2 JUMP JUMPDEST PUSH1 0x0 DUP3 DUP2 MSTORE PUSH1 0x99 PUSH1 0x20 MSTORE PUSH1 0x40 SWAP1 KECCAK256 SLOAD PUSH1 0x1 PUSH1 0x1 PUSH1 0xA0 SHL SUB DUP3 DUP2 AND SWAP2 AND EQ PUSH2 0x2D56 JUMPI PUSH1 0x40 MLOAD PUSH3 0x461BCD PUSH1 0xE5 SHL DUP2 MSTORE PUSH1 0x20 PUSH1 0x4 DUP3 ADD MSTORE PUSH1 0x17 PUSH1 0x24 DUP3 ADD MSTORE PUSH32 0x546F204E46542069736E27742078494E5458204E46542E000000000000000000 PUSH1 0x44 DUP3 ADD MSTORE PUSH1 0x64 ADD PUSH2 0x9D2 JUMP JUMPDEST PUSH2 0x2D5F DUP4 PUSH2 0x1FD1 JUMP JUMPDEST PUSH2 0x2D68 DUP3 PUSH2 0x1FD1 JUMP JUMPDEST PUSH1 0x0 DUP4 DUP2 MSTORE PUSH2 0x13B PUSH1 0x20 SWAP1 DUP2 MSTORE PUSH1 0x40 DUP1 DUP4 KECCAK256 SLOAD PUSH2 0x13A SWAP1 SWAP3 MSTORE DUP3 KECCAK256 SLOAD SWAP1 SWAP2 SWAP1 PUSH2 0x2D91 SWAP1 TIMESTAMP PUSH2 0x4290 JUMP JUMPDEST SWAP1 POP PUSH2 0x12F SLOAD DUP2 GT ISZERO PUSH2 0x2DA4 JUMPI POP PUSH2 0x12F SLOAD JUMPDEST PUSH1 0x0 DUP5 DUP2 MSTORE PUSH2 0x13B PUSH1 0x20 SWAP1 DUP2 MSTORE PUSH1 0x40 DUP1 DUP4 KECCAK256 SLOAD PUSH2 0x13A SWAP1 SWAP3 MSTORE DUP3 KECCAK256 SLOAD SWAP1 SWAP2 SWAP1 PUSH2 0x2DCD SWAP1 TIMESTAMP PUSH2 0x4290 JUMP JUMPDEST SWAP1 POP PUSH2 0x12F SLOAD DUP2 GT ISZERO PUSH2 0x2DE0 JUMPI POP PUSH2 0x12F SLOAD JUMPDEST PUSH1 0x0 PUSH2 0x2DEC DUP4 DUP7 PUSH2 0x42DC JUMP JUMPDEST SWAP1 POP PUSH1 0x0 DUP2 GT PUSH2 0x2E64 JUMPI PUSH1 0x40 MLOAD PUSH3 0x461BCD PUSH1 0xE5 SHL DUP2 MSTORE PUSH1 0x20 PUSH1 0x4 DUP3 ADD MSTORE PUSH1 0x23 PUSH1 0x24 DUP3 ADD MSTORE PUSH32 0x43616E2774206D616B65206120706F736974696F6E207769746820302078494E PUSH1 0x44 DUP3 ADD MSTORE PUSH32 0x54582E0000000000000000000000000000000000000000000000000000000000 PUSH1 0x64 DUP3 ADD MSTORE PUSH1 0x84 ADD PUSH2 0x9D2 JUMP JUMPDEST PUSH1 0x0 DUP2 PUSH2 0x2E71 DUP6 DUP6 PUSH2 0x42A3 JUMP JUMPDEST PUSH2 0x2E7B SWAP2 SWAP1 PUSH2 0x42BA JUMP JUMPDEST DUP3 PUSH2 0x2E86 DUP9 DUP9 PUSH2 0x42A3 JUMP JUMPDEST PUSH2 0x2E90 SWAP2 SWAP1 PUSH2 0x42BA JUMP JUMPDEST PUSH2 0x2E9A SWAP2 SWAP1 PUSH2 0x42DC JUMP JUMPDEST PUSH1 0x0 DUP10 DUP2 MSTORE PUSH2 0x13B PUSH1 0x20 MSTORE PUSH1 0x40 SWAP1 KECCAK256 DUP4 SWAP1 SSTORE SWAP1 POP PUSH2 0x2EB8 DUP2 TIMESTAMP PUSH2 0x4290 JUMP JUMPDEST PUSH1 0x0 DUP10 DUP2 MSTORE PUSH2 0x13A PUSH1 0x20 MSTORE PUSH1 0x40 DUP2 KECCAK256 SWAP2 SWAP1 SWAP2 SSTORE PUSH8 0xDE0B6B3A7640000 PUSH2 0x2EDD DUP11 PUSH2 0x21F2 JUMP JUMPDEST PUSH2 0x2EE7 SWAP1 DUP6 PUSH2 0x42A3 JUMP JUMPDEST PUSH2 0x2EF1 SWAP2 SWAP1 PUSH2 0x42BA JUMP JUMPDEST PUSH1 0x0 DUP11 DUP2 MSTORE PUSH2 0x13C PUSH1 0x20 DUP2 DUP2 MSTORE PUSH1 0x40 DUP1 DUP5 KECCAK256 DUP6 SWAP1 SSTORE DUP15 DUP5 MSTORE PUSH2 0x13A DUP3 MSTORE DUP1 DUP5 KECCAK256 DUP5 SWAP1 SSTORE PUSH2 0x13B DUP3 MSTORE DUP1 DUP5 KECCAK256 DUP5 SWAP1 SSTORE SWAP2 DUP2 MSTORE DUP2 DUP4 KECCAK256 DUP4 SWAP1 SSTORE PUSH2 0x13D DUP2 MSTORE DUP2 DUP4 KECCAK256 DUP4 SWAP1 SSTORE PUSH2 0x13E SWAP1 MSTORE SWAP1 KECCAK256 SLOAD SWAP1 SWAP2 POP ISZERO PUSH2 0x2F81 JUMPI PUSH1 0x0 DUP11 DUP2 MSTORE PUSH2 0x13E PUSH1 0x20 SWAP1 DUP2 MSTORE PUSH1 0x40 DUP1 DUP4 KECCAK256 SLOAD PUSH1 0x1 PUSH1 0x1 PUSH1 0xA0 SHL SUB DUP13 AND DUP5 MSTORE PUSH2 0x13F SWAP1 SWAP3 MSTORE DUP3 KECCAK256 DUP1 SLOAD SWAP2 SWAP3 SWAP1 SWAP2 PUSH2 0x2F7B SWAP1 DUP5 SWAP1 PUSH2 0x42DC JUMP JUMPDEST SWAP1 SWAP2 SSTORE POP POP JUMPDEST PUSH1 0x0 DUP11 DUP2 MSTORE PUSH2 0x13E PUSH1 0x20 MSTORE PUSH1 0x40 DUP2 KECCAK256 SSTORE PUSH2 0x2F9A DUP11 PUSH2 0x3227 JUMP JUMPDEST DUP10 PUSH1 0x1 PUSH1 0x1 PUSH1 0xA0 SHL SUB DUP10 AND PUSH32 0x50D7F0EF4F7B59921566F6B835FB032EFA0FD0DACCCB9361292F89B7AA6BAFDD DUP12 DUP7 PUSH2 0x2FD2 DUP8 TIMESTAMP PUSH2 0x4290 JUMP JUMPDEST PUSH1 0x40 DUP1 MLOAD SWAP4 DUP5 MSTORE PUSH1 0x20 DUP5 ADD SWAP3 SWAP1 SWAP3 MSTORE SWAP1 DUP3 ADD MSTORE PUSH1 0x60 ADD PUSH1 0x40 MLOAD DUP1 SWAP2 SUB SWAP1 LOG3 POP POP POP POP POP POP POP POP PUSH2 0x640 PUSH1 0x1 DUP1 SSTORE JUMP JUMPDEST PUSH1 0xFB DUP1 SLOAD PUSH20 0xFFFFFFFFFFFFFFFFFFFFFFFFFFFFFFFFFFFFFFFF NOT AND SWAP1 SSTORE PUSH2 0x132E DUP2 PUSH2 0x36AC JUMP JUMPDEST PUSH1 0x0 DUP2 DUP4 LT PUSH2 0x3036 JUMPI DUP2 PUSH2 0xB64 JUMP JUMPDEST POP SWAP1 SWAP2 SWAP1 POP JUMP JUMPDEST PUSH1 0x0 PUSH2 0x12E SLOAD PUSH1 0x0 SUB PUSH2 0x3057 JUMPI POP PUSH8 0xDE0B6B3A7640000 SWAP1 JUMP JUMPDEST PUSH2 0x12E SLOAD PUSH8 0xDE0B6B3A7640000 PUSH2 0x306C PUSH2 0x370B JUMP JUMPDEST PUSH2 0x3076 SWAP2 SWAP1 PUSH2 0x42A3 JUMP JUMPDEST PUSH2 0x1774 SWAP2 SWAP1 PUSH2 0x42BA JUMP JUMPDEST PUSH1 0x0 DUP1 PUSH2 0x308C DUP4 PUSH2 0x1331 JUMP JUMPDEST SWAP1 POP DUP1 PUSH1 0x1 PUSH1 0x1 PUSH1 0xA0 SHL SUB AND DUP5 PUSH1 0x1 PUSH1 0x1 PUSH1 0xA0 SHL SUB AND EQ DUP1 PUSH2 0x30D3 JUMPI POP PUSH1 0x1 PUSH1 0x1 PUSH1 0xA0 SHL SUB DUP1 DUP3 AND PUSH1 0x0 SWAP1 DUP2 MSTORE PUSH1 0x9C PUSH1 0x20 SWAP1 DUP2 MSTORE PUSH1 0x40 DUP1 DUP4 KECCAK256 SWAP4 DUP9 AND DUP4 MSTORE SWAP3 SWAP1 MSTORE KECCAK256 SLOAD PUSH1 0xFF AND JUMPDEST DUP1 PUSH2 0xF5F JUMPI POP DUP4 PUSH1 0x1 PUSH1 0x1 PUSH1 0xA0 SHL SUB AND PUSH2 0x30EC DUP5 PUSH2 0x91B JUMP JUMPDEST PUSH1 0x1 PUSH1 0x1 PUSH1 0xA0 SHL SUB AND EQ SWAP5 SWAP4 POP POP POP POP JUMP JUMPDEST PUSH2 0x3109 DUP5 DUP5 DUP5 PUSH2 0x3792 JUMP JUMPDEST PUSH2 0x3115 DUP5 DUP5 DUP5 DUP5 PUSH2 0x39C8 JUMP JUMPDEST PUSH2 0xBAA JUMPI PUSH1 0x40 MLOAD PUSH3 0x461BCD PUSH1 0xE5 SHL DUP2 MSTORE PUSH1 0x20 PUSH1 0x4 DUP3 ADD MSTORE PUSH1 0x32 PUSH1 0x24 DUP3 ADD MSTORE PUSH32 0x4552433732313A207472616E7366657220746F206E6F6E204552433732315265 PUSH1 0x44 DUP3 ADD MSTORE PUSH32 0x63656976657220696D706C656D656E7465720000000000000000000000000000 PUSH1 0x64 DUP3 ADD MSTORE PUSH1 0x84 ADD PUSH2 0x9D2 JUMP JUMPDEST PUSH1 0x60 PUSH1 0x0 PUSH2 0x3194 DUP4 PUSH2 0x3B69 JUMP JUMPDEST PUSH1 0x1 ADD SWAP1 POP PUSH1 0x0 DUP2 PUSH8 0xFFFFFFFFFFFFFFFF DUP2 GT ISZERO PUSH2 0x31B4 JUMPI PUSH2 0x31B4 PUSH2 0x414E JUMP JUMPDEST PUSH1 0x40 MLOAD SWAP1 DUP1 DUP3 MSTORE DUP1 PUSH1 0x1F ADD PUSH1 0x1F NOT AND PUSH1 0x20 ADD DUP3 ADD PUSH1 0x40 MSTORE DUP1 ISZERO PUSH2 0x31DE JUMPI PUSH1 0x20 DUP3 ADD DUP2 DUP1 CALLDATASIZE DUP4 CALLDATACOPY ADD SWAP1 POP JUMPDEST POP SWAP1 POP DUP2 DUP2 ADD PUSH1 0x20 ADD JUMPDEST PUSH1 0x0 NOT ADD PUSH32 0x3031323334353637383961626364656600000000000000000000000000000000 PUSH1 0xA DUP7 MOD BYTE DUP2 MSTORE8 PUSH1 0xA DUP6 DIV SWAP5 POP DUP5 PUSH2 0x31E8 JUMPI POP SWAP4 SWAP3 POP POP POP JUMP JUMPDEST PUSH1 0x0 PUSH2 0x3232 DUP3 PUSH2 0x1331 JUMP JUMPDEST SWAP1 POP PUSH2 0x323D DUP3 PUSH2 0x1331 JUMP JUMPDEST PUSH1 0x0 DUP4 DUP2 MSTORE PUSH1 0x9B PUSH1 0x20 SWAP1 DUP2 MSTORE PUSH1 0x40 DUP1 DUP4 KECCAK256 DUP1 SLOAD PUSH20 0xFFFFFFFFFFFFFFFFFFFFFFFFFFFFFFFFFFFFFFFF NOT SWAP1 DUP2 AND SWAP1 SWAP2 SSTORE PUSH1 0x1 PUSH1 0x1 PUSH1 0xA0 SHL SUB DUP6 AND DUP1 DUP6 MSTORE PUSH1 0x9A DUP5 MSTORE DUP3 DUP6 KECCAK256 DUP1 SLOAD PUSH1 0x0 NOT ADD SWAP1 SSTORE DUP8 DUP6 MSTORE PUSH1 0x99 SWAP1 SWAP4 MSTORE DUP2 DUP5 KECCAK256 DUP1 SLOAD SWAP1 SWAP2 AND SWAP1 SSTORE MLOAD SWAP3 SWAP4 POP DUP5 SWAP3 PUSH32 0xDDF252AD1BE2C89B69C2B068FC378DAA952BA7F163C4A11628F55A4DF523B3EF SWAP1 DUP4 SWAP1 LOG4 POP POP JUMP JUMPDEST PUSH1 0x1 PUSH1 0x1 PUSH1 0xA0 SHL SUB DUP3 AND PUSH2 0x331F JUMPI PUSH1 0x40 MLOAD PUSH3 0x461BCD PUSH1 0xE5 SHL DUP2 MSTORE PUSH1 0x20 PUSH1 0x4 DUP3 ADD DUP2 SWAP1 MSTORE PUSH1 0x24 DUP3 ADD MSTORE PUSH32 0x4552433732313A206D696E7420746F20746865207A65726F2061646472657373 PUSH1 0x44 DUP3 ADD MSTORE PUSH1 0x64 ADD PUSH2 0x9D2 JUMP JUMPDEST PUSH1 0x0 DUP2 DUP2 MSTORE PUSH1 0x99 PUSH1 0x20 MSTORE PUSH1 0x40 SWAP1 KECCAK256 SLOAD PUSH1 0x1 PUSH1 0x1 PUSH1 0xA0 SHL SUB AND ISZERO PUSH2 0x3384 JUMPI PUSH1 0x40 MLOAD PUSH3 0x461BCD PUSH1 0xE5 SHL DUP2 MSTORE PUSH1 0x20 PUSH1 0x4 DUP3 ADD MSTORE PUSH1 0x1C PUSH1 0x24 DUP3 ADD MSTORE PUSH32 0x4552433732313A20746F6B656E20616C7265616479206D696E74656400000000 PUSH1 0x44 DUP3 ADD MSTORE PUSH1 0x64 ADD PUSH2 0x9D2 JUMP JUMPDEST PUSH1 0x0 DUP2 DUP2 MSTORE PUSH1 0x99 PUSH1 0x20 MSTORE PUSH1 0x40 SWAP1 KECCAK256 SLOAD PUSH1 0x1 PUSH1 0x1 PUSH1 0xA0 SHL SUB AND ISZERO PUSH2 0x33E9 JUMPI PUSH1 0x40 MLOAD PUSH3 0x461BCD PUSH1 0xE5 SHL DUP2 MSTORE PUSH1 0x20 PUSH1 0x4 DUP3 ADD MSTORE PUSH1 0x1C PUSH1 0x24 DUP3 ADD MSTORE PUSH32 0x4552433732313A20746F6B656E20616C7265616479206D696E74656400000000 PUSH1 0x44 DUP3 ADD MSTORE PUSH1 0x64 ADD PUSH2 0x9D2 JUMP JUMPDEST PUSH1 0x1 PUSH1 0x1 PUSH1 0xA0 SHL SUB DUP3 AND PUSH1 0x0 DUP2 DUP2 MSTORE PUSH1 0x9A PUSH1 0x20 SWAP1 DUP2 MSTORE PUSH1 0x40 DUP1 DUP4 KECCAK256 DUP1 SLOAD PUSH1 0x1 ADD SWAP1 SSTORE DUP5 DUP4 MSTORE PUSH1 0x99 SWAP1 SWAP2 MSTORE DUP1 DUP3 KECCAK256 DUP1 SLOAD PUSH20 0xFFFFFFFFFFFFFFFFFFFFFFFFFFFFFFFFFFFFFFFF NOT AND DUP5 OR SWAP1 SSTORE MLOAD DUP4 SWAP3 SWAP2 SWAP1 PUSH32 0xDDF252AD1BE2C89B69C2B068FC378DAA952BA7F163C4A11628F55A4DF523B3EF SWAP1 DUP3 SWAP1 LOG4 POP POP JUMP JUMPDEST PUSH1 0x0 SLOAD PUSH2 0x100 SWAP1 DIV PUSH1 0xFF AND PUSH2 0x2613 JUMPI PUSH1 0x40 MLOAD PUSH3 0x461BCD PUSH1 0xE5 SHL DUP2 MSTORE PUSH1 0x20 PUSH1 0x4 DUP3 ADD MSTORE PUSH1 0x2B PUSH1 0x24 DUP3 ADD MSTORE PUSH32 0x496E697469616C697A61626C653A20636F6E7472616374206973206E6F742069 PUSH1 0x44 DUP3 ADD MSTORE PUSH11 0x6E697469616C697A696E67 PUSH1 0xA8 SHL PUSH1 0x64 DUP3 ADD MSTORE PUSH1 0x84 ADD PUSH2 0x9D2 JUMP JUMPDEST PUSH1 0x0 SLOAD PUSH2 0x100 SWAP1 DIV PUSH1 0xFF AND PUSH2 0x3537 JUMPI PUSH1 0x40 MLOAD PUSH3 0x461BCD PUSH1 0xE5 SHL DUP2 MSTORE PUSH1 0x20 PUSH1 0x4 DUP3 ADD MSTORE PUSH1 0x2B PUSH1 0x24 DUP3 ADD MSTORE PUSH32 0x496E697469616C697A61626C653A20636F6E7472616374206973206E6F742069 PUSH1 0x44 DUP3 ADD MSTORE PUSH11 0x6E697469616C697A696E67 PUSH1 0xA8 SHL PUSH1 0x64 DUP3 ADD MSTORE PUSH1 0x84 ADD PUSH2 0x9D2 JUMP JUMPDEST PUSH1 0x97 PUSH2 0x3543 DUP4 DUP3 PUSH2 0x43F7 JUMP JUMPDEST POP PUSH1 0x98 PUSH2 0x429 DUP3 DUP3 PUSH2 0x43F7 JUMP JUMPDEST PUSH1 0x0 SLOAD PUSH2 0x100 SWAP1 DIV PUSH1 0xFF AND PUSH2 0x35BB JUMPI PUSH1 0x40 MLOAD PUSH3 0x461BCD PUSH1 0xE5 SHL DUP2 MSTORE PUSH1 0x20 PUSH1 0x4 DUP3 ADD MSTORE PUSH1 0x2B PUSH1 0x24 DUP3 ADD MSTORE PUSH32 0x496E697469616C697A61626C653A20636F6E7472616374206973206E6F742069 PUSH1 0x44 DUP3 ADD MSTORE PUSH11 0x6E697469616C697A696E67 PUSH1 0xA8 SHL PUSH1 0x64 DUP3 ADD MSTORE PUSH1 0x84 ADD PUSH2 0x9D2 JUMP JUMPDEST PUSH2 0x16BF CALLER PUSH2 0x3001 JUMP JUMPDEST PUSH1 0x0 PUSH2 0x3619 DUP3 PUSH1 0x40 MLOAD DUP1 PUSH1 0x40 ADD PUSH1 0x40 MSTORE DUP1 PUSH1 0x20 DUP2 MSTORE PUSH1 0x20 ADD PUSH32 0x5361666545524332303A206C6F772D6C6576656C2063616C6C206661696C6564 DUP2 MSTORE POP DUP6 PUSH1 0x1 PUSH1 0x1 PUSH1 0xA0 SHL SUB AND PUSH2 0x3C4B SWAP1 SWAP3 SWAP2 SWAP1 PUSH4 0xFFFFFFFF AND JUMP JUMPDEST SWAP1 POP DUP1 MLOAD PUSH1 0x0 EQ DUP1 PUSH2 0x363A JUMPI POP DUP1 DUP1 PUSH1 0x20 ADD SWAP1 MLOAD DUP2 ADD SWAP1 PUSH2 0x363A SWAP2 SWAP1 PUSH2 0x44B7 JUMP JUMPDEST PUSH2 0x429 JUMPI PUSH1 0x40 MLOAD PUSH3 0x461BCD PUSH1 0xE5 SHL DUP2 MSTORE PUSH1 0x20 PUSH1 0x4 DUP3 ADD MSTORE PUSH1 0x2A PUSH1 0x24 DUP3 ADD MSTORE PUSH32 0x5361666545524332303A204552433230206F7065726174696F6E20646964206E PUSH1 0x44 DUP3 ADD MSTORE PUSH32 0x6F74207375636365656400000000000000000000000000000000000000000000 PUSH1 0x64 DUP3 ADD MSTORE PUSH1 0x84 ADD PUSH2 0x9D2 JUMP JUMPDEST PUSH1 0xC9 DUP1 SLOAD PUSH1 0x1 PUSH1 0x1 PUSH1 0xA0 SHL SUB DUP4 DUP2 AND PUSH20 0xFFFFFFFFFFFFFFFFFFFFFFFFFFFFFFFFFFFFFFFF NOT DUP4 AND DUP2 OR SWAP1 SWAP4 SSTORE PUSH1 0x40 MLOAD SWAP2 AND SWAP2 SWAP1 DUP3 SWAP1 PUSH32 0x8BE0079C531659141344CD1FD0A4F28419497F9722A3DAAFE3B4186F6B6457E0 SWAP1 PUSH1 0x0 SWAP1 LOG3 POP POP JUMP JUMPDEST PUSH2 0x138 SLOAD PUSH1 0x40 MLOAD PUSH32 0x70A0823100000000000000000000000000000000000000000000000000000000 DUP2 MSTORE ADDRESS PUSH1 0x4 DUP3 ADD MSTORE PUSH1 0x0 SWAP2 PUSH1 0x1 PUSH1 0x1 PUSH1 0xA0 SHL SUB AND SWAP1 PUSH4 0x70A08231 SWAP1 PUSH1 0x24 ADD PUSH1 0x20 PUSH1 0x40 MLOAD DUP1 DUP4 SUB DUP2 DUP7 GAS STATICCALL ISZERO DUP1 ISZERO PUSH2 0x376E JUMPI RETURNDATASIZE PUSH1 0x0 DUP1 RETURNDATACOPY RETURNDATASIZE PUSH1 0x0 REVERT JUMPDEST POP POP POP POP PUSH1 0x40 MLOAD RETURNDATASIZE PUSH1 0x1F NOT PUSH1 0x1F DUP3 ADD AND DUP3 ADD DUP1 PUSH1 0x40 MSTORE POP DUP2 ADD SWAP1 PUSH2 0x1774 SWAP2 SWAP1 PUSH2 0x431F JUMP JUMPDEST DUP3 PUSH1 0x1 PUSH1 0x1 PUSH1 0xA0 SHL SUB AND PUSH2 0x37A5 DUP3 PUSH2 0x1331 JUMP JUMPDEST PUSH1 0x1 PUSH1 0x1 PUSH1 0xA0 SHL SUB AND EQ PUSH2 0x3821 JUMPI PUSH1 0x40 MLOAD PUSH3 0x461BCD PUSH1 0xE5 SHL DUP2 MSTORE PUSH1 0x20 PUSH1 0x4 DUP3 ADD MSTORE PUSH1 0x25 PUSH1 0x24 DUP3 ADD MSTORE PUSH32 0x4552433732313A207472616E736665722066726F6D20696E636F727265637420 PUSH1 0x44 DUP3 ADD MSTORE PUSH32 0x6F776E6572000000000000000000000000000000000000000000000000000000 PUSH1 0x64 DUP3 ADD MSTORE PUSH1 0x84 ADD PUSH2 0x9D2 JUMP JUMPDEST PUSH1 0x1 PUSH1 0x1 PUSH1 0xA0 SHL SUB DUP3 AND PUSH2 0x389C JUMPI PUSH1 0x40 MLOAD PUSH3 0x461BCD PUSH1 0xE5 SHL DUP2 MSTORE PUSH1 0x20 PUSH1 0x4 DUP3 ADD MSTORE PUSH1 0x24 DUP1 DUP3 ADD MSTORE PUSH32 0x4552433732313A207472616E7366657220746F20746865207A65726F20616464 PUSH1 0x44 DUP3 ADD MSTORE PUSH32 0x7265737300000000000000000000000000000000000000000000000000000000 PUSH1 0x64 DUP3 ADD MSTORE PUSH1 0x84 ADD PUSH2 0x9D2 JUMP JUMPDEST DUP3 PUSH1 0x1 PUSH1 0x1 PUSH1 0xA0 SHL SUB AND PUSH2 0x38AF DUP3 PUSH2 0x1331 JUMP JUMPDEST PUSH1 0x1 PUSH1 0x1 PUSH1 0xA0 SHL SUB AND EQ PUSH2 0x392B JUMPI PUSH1 0x40 MLOAD PUSH3 0x461BCD PUSH1 0xE5 SHL DUP2 MSTORE PUSH1 0x20 PUSH1 0x4 DUP3 ADD MSTORE PUSH1 0x25 PUSH1 0x24 DUP3 ADD MSTORE PUSH32 0x4552433732313A207472616E736665722066726F6D20696E636F727265637420 PUSH1 0x44 DUP3 ADD MSTORE PUSH32 0x6F776E6572000000000000000000000000000000000000000000000000000000 PUSH1 0x64 DUP3 ADD MSTORE PUSH1 0x84 ADD PUSH2 0x9D2 JUMP JUMPDEST PUSH1 0x0 DUP2 DUP2 MSTORE PUSH1 0x9B PUSH1 0x20 SWAP1 DUP2 MSTORE PUSH1 0x40 DUP1 DUP4 KECCAK256 DUP1 SLOAD PUSH20 0xFFFFFFFFFFFFFFFFFFFFFFFFFFFFFFFFFFFFFFFF NOT SWAP1 DUP2 AND SWAP1 SWAP2 SSTORE PUSH1 0x1 PUSH1 0x1 PUSH1 0xA0 SHL SUB DUP8 DUP2 AND DUP1 DUP7 MSTORE PUSH1 0x9A DUP6 MSTORE DUP4 DUP7 KECCAK256 DUP1 SLOAD PUSH1 0x0 NOT ADD SWAP1 SSTORE SWAP1 DUP8 AND DUP1 DUP7 MSTORE DUP4 DUP7 KECCAK256 DUP1 SLOAD PUSH1 0x1 ADD SWAP1 SSTORE DUP7 DUP7 MSTORE PUSH1 0x99 SWAP1 SWAP5 MSTORE DUP3 DUP6 KECCAK256 DUP1 SLOAD SWAP1 SWAP3 AND DUP5 OR SWAP1 SWAP2 SSTORE SWAP1 MLOAD DUP5 SWAP4 PUSH32 0xDDF252AD1BE2C89B69C2B068FC378DAA952BA7F163C4A11628F55A4DF523B3EF SWAP2 LOG4 POP POP POP JUMP JUMPDEST PUSH1 0x0 PUSH1 0x1 PUSH1 0x1 PUSH1 0xA0 SHL SUB DUP5 AND EXTCODESIZE ISZERO PUSH2 0x3B5E JUMPI PUSH1 0x40 MLOAD PUSH32 0x150B7A0200000000000000000000000000000000000000000000000000000000 DUP2 MSTORE PUSH1 0x1 PUSH1 0x1 PUSH1 0xA0 SHL SUB DUP6 AND SWAP1 PUSH4 0x150B7A02 SWAP1 PUSH2 0x3A25 SWAP1 CALLER SWAP1 DUP10 SWAP1 DUP9 SWAP1 DUP9 SWAP1 PUSH1 0x4 ADD PUSH2 0x44D4 JUMP JUMPDEST PUSH1 0x20 PUSH1 0x40 MLOAD DUP1 DUP4 SUB DUP2 PUSH1 0x0 DUP8 GAS CALL SWAP3 POP POP POP DUP1 ISZERO PUSH2 0x3A60 JUMPI POP PUSH1 0x40 DUP1 MLOAD PUSH1 0x1F RETURNDATASIZE SWAP1 DUP2 ADD PUSH1 0x1F NOT AND DUP3 ADD SWAP1 SWAP3 MSTORE PUSH2 0x3A5D SWAP2 DUP2 ADD SWAP1 PUSH2 0x4510 JUMP JUMPDEST PUSH1 0x1 JUMPDEST PUSH2 0x3B13 JUMPI RETURNDATASIZE DUP1 DUP1 ISZERO PUSH2 0x3A8E JUMPI PUSH1 0x40 MLOAD SWAP2 POP PUSH1 0x1F NOT PUSH1 0x3F RETURNDATASIZE ADD AND DUP3 ADD PUSH1 0x40 MSTORE RETURNDATASIZE DUP3 MSTORE RETURNDATASIZE PUSH1 0x0 PUSH1 0x20 DUP5 ADD RETURNDATACOPY PUSH2 0x3A93 JUMP JUMPDEST PUSH1 0x60 SWAP2 POP JUMPDEST POP DUP1 MLOAD PUSH1 0x0 SUB PUSH2 0x3B0B JUMPI PUSH1 0x40 MLOAD PUSH3 0x461BCD PUSH1 0xE5 SHL DUP2 MSTORE PUSH1 0x20 PUSH1 0x4 DUP3 ADD MSTORE PUSH1 0x32 PUSH1 0x24 DUP3 ADD MSTORE PUSH32 0x4552433732313A207472616E7366657220746F206E6F6E204552433732315265 PUSH1 0x44 DUP3 ADD MSTORE PUSH32 0x63656976657220696D706C656D656E7465720000000000000000000000000000 PUSH1 0x64 DUP3 ADD MSTORE PUSH1 0x84 ADD PUSH2 0x9D2 JUMP JUMPDEST DUP1 MLOAD DUP2 PUSH1 0x20 ADD REVERT JUMPDEST PUSH32 0xFFFFFFFF00000000000000000000000000000000000000000000000000000000 AND PUSH32 0x150B7A0200000000000000000000000000000000000000000000000000000000 EQ SWAP1 POP PUSH2 0xF5F JUMP JUMPDEST POP PUSH1 0x1 SWAP5 SWAP4 POP POP POP POP JUMP JUMPDEST PUSH1 0x0 DUP1 PUSH27 0x184F03E93FF9F4DAA797ED6E38ED64BF6A1F010000000000000000 DUP4 LT PUSH2 0x3BB2 JUMPI PUSH27 0x184F03E93FF9F4DAA797ED6E38ED64BF6A1F010000000000000000 DUP4 DIV SWAP3 POP PUSH1 0x40 ADD JUMPDEST PUSH14 0x4EE2D6D415B85ACEF8100000000 DUP4 LT PUSH2 0x3BDE JUMPI PUSH14 0x4EE2D6D415B85ACEF8100000000 DUP4 DIV SWAP3 POP PUSH1 0x20 ADD JUMPDEST PUSH7 0x2386F26FC10000 DUP4 LT PUSH2 0x3BFC JUMPI PUSH7 0x2386F26FC10000 DUP4 DIV SWAP3 POP PUSH1 0x10 ADD JUMPDEST PUSH4 0x5F5E100 DUP4 LT PUSH2 0x3C14 JUMPI PUSH4 0x5F5E100 DUP4 DIV SWAP3 POP PUSH1 0x8 ADD JUMPDEST PUSH2 0x2710 DUP4 LT PUSH2 0x3C28 JUMPI PUSH2 0x2710 DUP4 DIV SWAP3 POP PUSH1 0x4 ADD JUMPDEST PUSH1 0x64 DUP4 LT PUSH2 0x3C3A JUMPI PUSH1 0x64 DUP4 DIV SWAP3 POP PUSH1 0x2 ADD JUMPDEST PUSH1 0xA DUP4 LT PUSH2 0x883 JUMPI PUSH1 0x1 ADD SWAP3 SWAP2 POP POP JUMP JUMPDEST PUSH1 0x60 PUSH2 0xF5F DUP5 DUP5 PUSH1 0x0 DUP6 DUP6 PUSH1 0x0 DUP1 DUP7 PUSH1 0x1 PUSH1 0x1 PUSH1 0xA0 SHL SUB AND DUP6 DUP8 PUSH1 0x40 MLOAD PUSH2 0x3C72 SWAP2 SWAP1 PUSH2 0x452D JUMP JUMPDEST PUSH1 0x0 PUSH1 0x40 MLOAD DUP1 DUP4 SUB DUP2 DUP6 DUP8 GAS CALL SWAP3 POP POP POP RETURNDATASIZE DUP1 PUSH1 0x0 DUP2 EQ PUSH2 0x3CAF JUMPI PUSH1 0x40 MLOAD SWAP2 POP PUSH1 0x1F NOT PUSH1 0x3F RETURNDATASIZE ADD AND DUP3 ADD PUSH1 0x40 MSTORE RETURNDATASIZE DUP3 MSTORE RETURNDATASIZE PUSH1 0x0 PUSH1 0x20 DUP5 ADD RETURNDATACOPY PUSH2 0x3CB4 JUMP JUMPDEST PUSH1 0x60 SWAP2 POP JUMPDEST POP SWAP2 POP SWAP2 POP PUSH2 0x3CC5 DUP8 DUP4 DUP4 DUP8 PUSH2 0x3CD0 JUMP JUMPDEST SWAP8 SWAP7 POP POP POP POP POP POP POP JUMP JUMPDEST PUSH1 0x60 DUP4 ISZERO PUSH2 0x3D3F JUMPI DUP3 MLOAD PUSH1 0x0 SUB PUSH2 0x3D38 JUMPI PUSH1 0x1 PUSH1 0x1 PUSH1 0xA0 SHL SUB DUP6 AND EXTCODESIZE PUSH2 0x3D38 JUMPI PUSH1 0x40 MLOAD PUSH3 0x461BCD PUSH1 0xE5 SHL DUP2 MSTORE PUSH1 0x20 PUSH1 0x4 DUP3 ADD MSTORE PUSH1 0x1D PUSH1 0x24 DUP3 ADD MSTORE PUSH32 0x416464726573733A2063616C6C20746F206E6F6E2D636F6E7472616374000000 PUSH1 0x44 DUP3 ADD MSTORE PUSH1 0x64 ADD PUSH2 0x9D2 JUMP JUMPDEST POP DUP2 PUSH2 0xF5F JUMP JUMPDEST PUSH2 0xF5F DUP4 DUP4 DUP2 MLOAD ISZERO PUSH2 0x3D54 JUMPI DUP2 MLOAD DUP1 DUP4 PUSH1 0x20 ADD REVERT JUMPDEST DUP1 PUSH1 0x40 MLOAD PUSH3 0x461BCD PUSH1 0xE5 SHL DUP2 MSTORE PUSH1 0x4 ADD PUSH2 0x9D2 SWAP2 SWAP1 PUSH2 0x3E09 JUMP JUMPDEST PUSH32 0xFFFFFFFF00000000000000000000000000000000000000000000000000000000 DUP2 AND DUP2 EQ PUSH2 0x132E JUMPI PUSH1 0x0 DUP1 REVERT JUMPDEST PUSH1 0x0 PUSH1 0x20 DUP3 DUP5 SUB SLT ISZERO PUSH2 0x3DAE JUMPI PUSH1 0x0 DUP1 REVERT JUMPDEST DUP2 CALLDATALOAD PUSH2 0xB64 DUP2 PUSH2 0x3D6E JUMP JUMPDEST PUSH1 0x0 JUMPDEST DUP4 DUP2 LT ISZERO PUSH2 0x3DD4 JUMPI DUP2 DUP2 ADD MLOAD DUP4 DUP3 ADD MSTORE PUSH1 0x20 ADD PUSH2 0x3DBC JUMP JUMPDEST POP POP PUSH1 0x0 SWAP2 ADD MSTORE JUMP JUMPDEST PUSH1 0x0 DUP2 MLOAD DUP1 DUP5 MSTORE PUSH2 0x3DF5 DUP2 PUSH1 0x20 DUP7 ADD PUSH1 0x20 DUP7 ADD PUSH2 0x3DB9 JUMP JUMPDEST PUSH1 0x1F ADD PUSH1 0x1F NOT AND SWAP3 SWAP1 SWAP3 ADD PUSH1 0x20 ADD SWAP3 SWAP2 POP POP JUMP JUMPDEST PUSH1 0x20 DUP2 MSTORE PUSH1 0x0 PUSH2 0xB64 PUSH1 0x20 DUP4 ADD DUP5 PUSH2 0x3DDD JUMP JUMPDEST PUSH1 0x0 PUSH1 0x20 DUP3 DUP5 SUB SLT ISZERO PUSH2 0x3E2E JUMPI PUSH1 0x0 DUP1 REVERT JUMPDEST POP CALLDATALOAD SWAP2 SWAP1 POP JUMP JUMPDEST DUP1 CALLDATALOAD PUSH1 0x1 PUSH1 0x1 PUSH1 0xA0 SHL SUB DUP2 AND DUP2 EQ PUSH2 0x13BC JUMPI PUSH1 0x0 DUP1 REVERT JUMPDEST PUSH1 0x0 DUP1 PUSH1 0x40 DUP4 DUP6 SUB SLT ISZERO PUSH2 0x3E5F JUMPI PUSH1 0x0 DUP1 REVERT JUMPDEST PUSH2 0x3E68 DUP4 PUSH2 0x3E35 JUMP JUMPDEST SWAP5 PUSH1 0x20 SWAP4 SWAP1 SWAP4 ADD CALLDATALOAD SWAP4 POP POP POP JUMP JUMPDEST PUSH1 0x0 DUP1 PUSH1 0x0 PUSH1 0x60 DUP5 DUP7 SUB SLT ISZERO PUSH2 0x3E8B JUMPI PUSH1 0x0 DUP1 REVERT JUMPDEST PUSH2 0x3E94 DUP5 PUSH2 0x3E35 JUMP JUMPDEST SWAP3 POP PUSH2 0x3EA2 PUSH1 0x20 DUP6 ADD PUSH2 0x3E35 JUMP JUMPDEST SWAP2 POP PUSH1 0x40 DUP5 ADD CALLDATALOAD SWAP1 POP SWAP3 POP SWAP3 POP SWAP3 JUMP JUMPDEST PUSH1 0x0 DUP1 DUP4 PUSH1 0x1F DUP5 ADD SLT PUSH2 0x3EC4 JUMPI PUSH1 0x0 DUP1 REVERT JUMPDEST POP DUP2 CALLDATALOAD PUSH8 0xFFFFFFFFFFFFFFFF DUP2 GT ISZERO PUSH2 0x3EDC JUMPI PUSH1 0x0 DUP1 REVERT JUMPDEST PUSH1 0x20 DUP4 ADD SWAP2 POP DUP4 PUSH1 0x20 DUP3 PUSH1 0x5 SHL DUP6 ADD ADD GT ISZERO PUSH2 0x3EF7 JUMPI PUSH1 0x0 DUP1 REVERT JUMPDEST SWAP3 POP SWAP3 SWAP1 POP JUMP JUMPDEST PUSH1 0x0 DUP1 PUSH1 0x20 DUP4 DUP6 SUB SLT ISZERO PUSH2 0x3F11 JUMPI PUSH1 0x0 DUP1 REVERT JUMPDEST DUP3 CALLDATALOAD PUSH8 0xFFFFFFFFFFFFFFFF DUP2 GT ISZERO PUSH2 0x3F28 JUMPI PUSH1 0x0 DUP1 REVERT JUMPDEST PUSH2 0x3F34 DUP6 DUP3 DUP7 ADD PUSH2 0x3EB2 JUMP JUMPDEST SWAP1 SWAP7 SWAP1 SWAP6 POP SWAP4 POP POP POP POP JUMP JUMPDEST PUSH1 0x0 DUP1 PUSH1 0x40 DUP4 DUP6 SUB SLT ISZERO PUSH2 0x3F53 JUMPI PUSH1 0x0 DUP1 REVERT JUMPDEST PUSH2 0x3F5C DUP4 PUSH2 0x3E35 JUMP JUMPDEST SWAP2 POP PUSH2 0x3F6A PUSH1 0x20 DUP5 ADD PUSH2 0x3E35 JUMP JUMPDEST SWAP1 POP SWAP3 POP SWAP3 SWAP1 POP JUMP JUMPDEST DUP1 MLOAD DUP3 MSTORE PUSH1 0x20 DUP2 ADD MLOAD PUSH2 0x3F91 PUSH1 0x20 DUP5 ADD DUP3 PUSH1 0x1 PUSH1 0x1 PUSH1 0xA0 SHL SUB AND SWAP1 MSTORE JUMP JUMPDEST POP PUSH1 0x40 DUP2 ADD MLOAD PUSH1 0x40 DUP4 ADD MSTORE PUSH1 0x60 DUP2 ADD MLOAD PUSH1 0x60 DUP4 ADD MSTORE PUSH1 0x80 DUP2 ADD MLOAD PUSH1 0x80 DUP4 ADD MSTORE PUSH1 0xA0 DUP2 ADD MLOAD PUSH1 0xA0 DUP4 ADD MSTORE PUSH1 0xC0 DUP2 ADD MLOAD PUSH1 0xC0 DUP4 ADD MSTORE PUSH1 0xE0 DUP2 ADD MLOAD PUSH1 0xE0 DUP4 ADD MSTORE PUSH2 0x100 DUP1 DUP3 ADD MLOAD DUP2 DUP5 ADD MSTORE POP PUSH2 0x120 DUP1 DUP3 ADD MLOAD DUP2 DUP5 ADD MSTORE POP POP POP JUMP JUMPDEST PUSH2 0x140 DUP2 ADD PUSH2 0x883 DUP3 DUP5 PUSH2 0x3F73 JUMP JUMPDEST PUSH1 0x20 DUP1 DUP3 MSTORE DUP3 MLOAD DUP3 DUP3 ADD DUP2 SWAP1 MSTORE PUSH1 0x0 SWAP2 SWAP1 DUP5 DUP3 ADD SWAP1 PUSH1 0x40 DUP6 ADD SWAP1 DUP5 JUMPDEST DUP2 DUP2 LT ISZERO PUSH2 0x403C JUMPI PUSH2 0x4028 DUP4 DUP6 MLOAD PUSH2 0x3F73 JUMP JUMPDEST SWAP3 DUP5 ADD SWAP3 PUSH2 0x140 SWAP3 SWAP1 SWAP3 ADD SWAP2 PUSH1 0x1 ADD PUSH2 0x4015 JUMP JUMPDEST POP SWAP1 SWAP7 SWAP6 POP POP POP POP POP POP JUMP JUMPDEST PUSH1 0x0 DUP1 PUSH1 0x0 PUSH1 0x40 DUP5 DUP7 SUB SLT ISZERO PUSH2 0x405D JUMPI PUSH1 0x0 DUP1 REVERT JUMPDEST DUP4 CALLDATALOAD SWAP3 POP PUSH1 0x20 DUP5 ADD CALLDATALOAD PUSH8 0xFFFFFFFFFFFFFFFF DUP2 GT ISZERO PUSH2 0x407B JUMPI PUSH1 0x0 DUP1 REVERT JUMPDEST PUSH2 0x4087 DUP7 DUP3 DUP8 ADD PUSH2 0x3EB2 JUMP JUMPDEST SWAP5 SWAP8 SWAP1 SWAP7 POP SWAP4 SWAP5 POP POP POP POP JUMP JUMPDEST PUSH1 0x20 DUP1 DUP3 MSTORE DUP3 MLOAD DUP3 DUP3 ADD DUP2 SWAP1 MSTORE PUSH1 0x0 SWAP2 SWAP1 DUP5 DUP3 ADD SWAP1 PUSH1 0x40 DUP6 ADD SWAP1 DUP5 JUMPDEST DUP2 DUP2 LT ISZERO PUSH2 0x403C JUMPI DUP4 MLOAD DUP4 MSTORE SWAP3 DUP5 ADD SWAP3 SWAP2 DUP5 ADD SWAP2 PUSH1 0x1 ADD PUSH2 0x40B0 JUMP JUMPDEST PUSH1 0x0 PUSH1 0x20 DUP3 DUP5 SUB SLT ISZERO PUSH2 0x40DE JUMPI PUSH1 0x0 DUP1 REVERT JUMPDEST PUSH2 0xB64 DUP3 PUSH2 0x3E35 JUMP JUMPDEST PUSH1 0x0 DUP1 PUSH1 0x40 DUP4 DUP6 SUB SLT ISZERO PUSH2 0x40FA JUMPI PUSH1 0x0 DUP1 REVERT JUMPDEST POP POP DUP1 CALLDATALOAD SWAP3 PUSH1 0x20 SWAP1 SWAP2 ADD CALLDATALOAD SWAP2 POP JUMP JUMPDEST DUP1 ISZERO ISZERO DUP2 EQ PUSH2 0x132E JUMPI PUSH1 0x0 DUP1 REVERT JUMPDEST PUSH1 0x0 DUP1 PUSH1 0x40 DUP4 DUP6 SUB SLT ISZERO PUSH2 0x412A JUMPI PUSH1 0x0 DUP1 REVERT JUMPDEST PUSH2 0x4133 DUP4 PUSH2 0x3E35 JUMP JUMPDEST SWAP2 POP PUSH1 0x20 DUP4 ADD CALLDATALOAD PUSH2 0x4143 DUP2 PUSH2 0x4109 JUMP JUMPDEST DUP1 SWAP2 POP POP SWAP3 POP SWAP3 SWAP1 POP JUMP JUMPDEST PUSH4 0x4E487B71 PUSH1 0xE0 SHL PUSH1 0x0 MSTORE PUSH1 0x41 PUSH1 0x4 MSTORE PUSH1 0x24 PUSH1 0x0 REVERT JUMPDEST PUSH1 0x0 DUP1 PUSH1 0x0 DUP1 PUSH1 0x80 DUP6 DUP8 SUB SLT ISZERO PUSH2 0x417A JUMPI PUSH1 0x0 DUP1 REVERT JUMPDEST PUSH2 0x4183 DUP6 PUSH2 0x3E35 JUMP JUMPDEST SWAP4 POP PUSH2 0x4191 PUSH1 0x20 DUP7 ADD PUSH2 0x3E35 JUMP JUMPDEST SWAP3 POP PUSH1 0x40 DUP6 ADD CALLDATALOAD SWAP2 POP PUSH1 0x60 DUP6 ADD CALLDATALOAD PUSH8 0xFFFFFFFFFFFFFFFF DUP1 DUP3 GT ISZERO PUSH2 0x41B5 JUMPI PUSH1 0x0 DUP1 REVERT JUMPDEST DUP2 DUP8 ADD SWAP2 POP DUP8 PUSH1 0x1F DUP4 ADD SLT PUSH2 0x41C9 JUMPI PUSH1 0x0 DUP1 REVERT JUMPDEST DUP2 CALLDATALOAD DUP2 DUP2 GT ISZERO PUSH2 0x41DB JUMPI PUSH2 0x41DB PUSH2 0x414E JUMP JUMPDEST PUSH1 0x40 MLOAD PUSH1 0x1F DUP3 ADD PUSH1 0x1F NOT SWAP1 DUP2 AND PUSH1 0x3F ADD AND DUP2 ADD SWAP1 DUP4 DUP3 GT DUP2 DUP4 LT OR ISZERO PUSH2 0x4203 JUMPI PUSH2 0x4203 PUSH2 0x414E JUMP JUMPDEST DUP2 PUSH1 0x40 MSTORE DUP3 DUP2 MSTORE DUP11 PUSH1 0x20 DUP5 DUP8 ADD ADD GT ISZERO PUSH2 0x421C JUMPI PUSH1 0x0 DUP1 REVERT JUMPDEST DUP3 PUSH1 0x20 DUP7 ADD PUSH1 0x20 DUP4 ADD CALLDATACOPY PUSH1 0x0 PUSH1 0x20 DUP5 DUP4 ADD ADD MSTORE DUP1 SWAP6 POP POP POP POP POP POP SWAP3 SWAP6 SWAP2 SWAP5 POP SWAP3 POP JUMP JUMPDEST PUSH1 0x1 DUP2 DUP2 SHR SWAP1 DUP3 AND DUP1 PUSH2 0x4254 JUMPI PUSH1 0x7F DUP3 AND SWAP2 POP JUMPDEST PUSH1 0x20 DUP3 LT DUP2 SUB PUSH2 0x4274 JUMPI PUSH4 0x4E487B71 PUSH1 0xE0 SHL PUSH1 0x0 MSTORE PUSH1 0x22 PUSH1 0x4 MSTORE PUSH1 0x24 PUSH1 0x0 REVERT JUMPDEST POP SWAP2 SWAP1 POP JUMP JUMPDEST PUSH4 0x4E487B71 PUSH1 0xE0 SHL PUSH1 0x0 MSTORE PUSH1 0x11 PUSH1 0x4 MSTORE PUSH1 0x24 PUSH1 0x0 REVERT JUMPDEST DUP2 DUP2 SUB DUP2 DUP2 GT ISZERO PUSH2 0x883 JUMPI PUSH2 0x883 PUSH2 0x427A JUMP JUMPDEST DUP1 DUP3 MUL DUP2 ISZERO DUP3 DUP3 DIV DUP5 EQ OR PUSH2 0x883 JUMPI PUSH2 0x883 PUSH2 0x427A JUMP JUMPDEST PUSH1 0x0 DUP3 PUSH2 0x42D7 JUMPI PUSH4 0x4E487B71 PUSH1 0xE0 SHL PUSH1 0x0 MSTORE PUSH1 0x12 PUSH1 0x4 MSTORE PUSH1 0x24 PUSH1 0x0 REVERT JUMPDEST POP DIV SWAP1 JUMP JUMPDEST DUP1 DUP3 ADD DUP1 DUP3 GT ISZERO PUSH2 0x883 JUMPI PUSH2 0x883 PUSH2 0x427A JUMP JUMPDEST PUSH4 0x4E487B71 PUSH1 0xE0 SHL PUSH1 0x0 MSTORE PUSH1 0x32 PUSH1 0x4 MSTORE PUSH1 0x24 PUSH1 0x0 REVERT JUMPDEST PUSH1 0x0 PUSH1 0x0 NOT DUP3 SUB PUSH2 0x4318 JUMPI PUSH2 0x4318 PUSH2 0x427A JUMP JUMPDEST POP PUSH1 0x1 ADD SWAP1 JUMP JUMPDEST PUSH1 0x0 PUSH1 0x20 DUP3 DUP5 SUB SLT ISZERO PUSH2 0x4331 JUMPI PUSH1 0x0 DUP1 REVERT JUMPDEST POP MLOAD SWAP2 SWAP1 POP JUMP JUMPDEST PUSH1 0x0 PUSH32 0x7FFFFFFFFFFFFFFFFFFFFFFFFFFFFFFFFFFFFFFFFFFFFFFFFFFFFFFFFFFFFFF DUP4 GT ISZERO PUSH2 0x4367 JUMPI PUSH1 0x0 DUP1 REVERT JUMPDEST DUP3 PUSH1 0x5 SHL DUP1 DUP6 DUP5 CALLDATACOPY SWAP2 SWAP1 SWAP2 ADD SWAP4 SWAP3 POP POP POP JUMP JUMPDEST PUSH1 0x0 DUP4 MLOAD PUSH2 0x438C DUP2 DUP5 PUSH1 0x20 DUP9 ADD PUSH2 0x3DB9 JUMP JUMPDEST DUP4 MLOAD SWAP1 DUP4 ADD SWAP1 PUSH2 0x43A0 DUP2 DUP4 PUSH1 0x20 DUP9 ADD PUSH2 0x3DB9 JUMP JUMPDEST ADD SWAP5 SWAP4 POP POP POP POP JUMP JUMPDEST PUSH1 0x1F DUP3 GT ISZERO PUSH2 0x429 JUMPI PUSH1 0x0 DUP2 DUP2 MSTORE PUSH1 0x20 DUP2 KECCAK256 PUSH1 0x1F DUP6 ADD PUSH1 0x5 SHR DUP2 ADD PUSH1 0x20 DUP7 LT ISZERO PUSH2 0x43D0 JUMPI POP DUP1 JUMPDEST PUSH1 0x1F DUP6 ADD PUSH1 0x5 SHR DUP3 ADD SWAP2 POP JUMPDEST DUP2 DUP2 LT ISZERO PUSH2 0x43EF JUMPI DUP3 DUP2 SSTORE PUSH1 0x1 ADD PUSH2 0x43DC JUMP JUMPDEST POP POP POP POP POP POP JUMP JUMPDEST DUP2 MLOAD PUSH8 0xFFFFFFFFFFFFFFFF DUP2 GT ISZERO PUSH2 0x4411 JUMPI PUSH2 0x4411 PUSH2 0x414E JUMP JUMPDEST PUSH2 0x4425 DUP2 PUSH2 0x441F DUP5 SLOAD PUSH2 0x4240 JUMP JUMPDEST DUP5 PUSH2 0x43A9 JUMP JUMPDEST PUSH1 0x20 DUP1 PUSH1 0x1F DUP4 GT PUSH1 0x1 DUP2 EQ PUSH2 0x445A JUMPI PUSH1 0x0 DUP5 ISZERO PUSH2 0x4442 JUMPI POP DUP6 DUP4 ADD MLOAD JUMPDEST PUSH1 0x0 NOT PUSH1 0x3 DUP7 SWAP1 SHL SHR NOT AND PUSH1 0x1 DUP6 SWAP1 SHL OR DUP6 SSTORE PUSH2 0x43EF JUMP JUMPDEST PUSH1 0x0 DUP6 DUP2 MSTORE PUSH1 0x20 DUP2 KECCAK256 PUSH1 0x1F NOT DUP7 AND SWAP2 JUMPDEST DUP3 DUP2 LT ISZERO PUSH2 0x4489 JUMPI DUP9 DUP7 ADD MLOAD DUP3 SSTORE SWAP5 DUP5 ADD SWAP5 PUSH1 0x1 SWAP1 SWAP2 ADD SWAP1 DUP5 ADD PUSH2 0x446A JUMP JUMPDEST POP DUP6 DUP3 LT ISZERO PUSH2 0x44A7 JUMPI DUP8 DUP6 ADD MLOAD PUSH1 0x0 NOT PUSH1 0x3 DUP9 SWAP1 SHL PUSH1 0xF8 AND SHR NOT AND DUP2 SSTORE JUMPDEST POP POP POP POP POP PUSH1 0x1 SWAP1 DUP2 SHL ADD SWAP1 SSTORE POP JUMP JUMPDEST PUSH1 0x0 PUSH1 0x20 DUP3 DUP5 SUB SLT ISZERO PUSH2 0x44C9 JUMPI PUSH1 0x0 DUP1 REVERT JUMPDEST DUP2 MLOAD PUSH2 0xB64 DUP2 PUSH2 0x4109 JUMP JUMPDEST PUSH1 0x0 PUSH1 0x1 PUSH1 0x1 PUSH1 0xA0 SHL SUB DUP1 DUP8 AND DUP4 MSTORE DUP1 DUP7 AND PUSH1 0x20 DUP5 ADD MSTORE POP DUP4 PUSH1 0x40 DUP4 ADD MSTORE PUSH1 0x80 PUSH1 0x60 DUP4 ADD MSTORE PUSH2 0x4506 PUSH1 0x80 DUP4 ADD DUP5 PUSH2 0x3DDD JUMP JUMPDEST SWAP7 SWAP6 POP POP POP POP POP POP JUMP JUMPDEST PUSH1 0x0 PUSH1 0x20 DUP3 DUP5 SUB SLT ISZERO PUSH2 0x4522 JUMPI PUSH1 0x0 DUP1 REVERT JUMPDEST DUP2 MLOAD PUSH2 0xB64 DUP2 PUSH2 0x3D6E JUMP JUMPDEST PUSH1 0x0 DUP3 MLOAD PUSH2 0x453F DUP2 DUP5 PUSH1 0x20 DUP8 ADD PUSH2 0x3DB9 JUMP JUMPDEST SWAP2 SWAP1 SWAP2 ADD SWAP3 SWAP2 POP POP JUMP INVALID LOG2 PUSH5 0x6970667358 0x22 SLT KECCAK256 LOG2 PUSH25 0x7DD03ABC6B260ABA48498D4DC962576DBBB7083F4F19E37289 0x2C 0xED ADD SDIV 0xCF PUSH5 0x736F6C6343 STOP ADDMOD SLT STOP CALLER "},"methodIdentifiers":{"DURATION()":"1be05289","INTX()":"df2e0b97","P()":"8b8fbd92","acceptOwnership()":"79ba5097","add(uint256,uint256)":"771602f7","amountStakedOf(uint256)":"a00ea0c5","approve(address,uint256)":"095ea7b3","balanceOf(address)":"70a08231","balanceOfId(uint256)":"a1c95e5a","boostPercentageOf(uint256)":"645bfd9a","claim(uint256[])":"6ba4c138","currentExchangeRate()":"a3684977","earned(uint256)":"4d6ed8c4","getApproved(uint256)":"081812fc","getPositionInfo(uint256)":"519f5099","getPositionInfo(uint256[])":"5a5e7e0d","initialize(address,address)":"485cc955","isApprovedForAll(address,address)":"e985e9c5","lastTimeRewardApplicable()":"80faa57d","lastTokenId()":"f84ddf0b","lastUpdateTime()":"c8f33c91","loyalSince(uint256)":"cfd0e125","loyaltyDuration()":"d1a249ab","maxLoyaltyBoost()":"2212b806","maxPenalty()":"5200e79e","merge(uint256,uint256)":"d1c2babb","minPenalty()":"0eba9849","name()":"06fdde03","notifyReward(uint256)":"60993b5b","owner()":"8da5cb5b","ownerOf(uint256)":"6352211e","penaltyAmountOf(uint256)":"5a48a97f","penaltyPercentageOf(uint256)":"988dc31e","pendingOwner()":"e30c3978","periodFinish()":"ebe2b12b","renounceOwnership()":"715018a6","rewardPerWeight()":"2ac3f450","rewardRate()":"7b0a47ee","rewardToken()":"f7c618c1","safeTransferFrom(address,address,uint256)":"42842e0e","safeTransferFrom(address,address,uint256,bytes)":"b88d4fde","setApprovalForAll(address,bool)":"a22cb465","split(uint256,uint256[])":"69c67247","stake(uint256)":"a694fc3a","stakeFor(address,uint256)":"2ee40908","supportsInterface(bytes4)":"01ffc9a7","symbol()":"95d89b41","tokenURI(uint256)":"c87b56dd","totalXINTX()":"520bf08a","transferFrom(address,address,uint256)":"23b872dd","transferOwnership(address)":"f2fde38b","unstake(uint256)":"2e17de78","unstakePartially(uint256,uint256)":"f290dfa7","updateWeights(uint256[])":"30f91619","withdrawableAmountOf(uint256)":"d975dfed"}},"storageLayout":{"storage":[{"astId":246,"contract":"contracts/StakedINTX.sol:StakedINTX","label":"_initialized","offset":0,"slot":"0","type":"t_uint8"},{"astId":249,"contract":"contracts/StakedINTX.sol:StakedINTX","label":"_initializing","offset":1,"slot":"0","type":"t_bool"},{"astId":423,"contract":"contracts/StakedINTX.sol:StakedINTX","label":"_status","offset":0,"slot":"1","type":"t_uint256"},{"astId":492,"contract":"contracts/StakedINTX.sol:StakedINTX","label":"__gap","offset":0,"slot":"2","type":"t_array(t_uint256)49_storage"},{"astId":2477,"contract":"contracts/StakedINTX.sol:StakedINTX","label":"__gap","offset":0,"slot":"51","type":"t_array(t_uint256)50_storage"},{"astId":2751,"contract":"contracts/StakedINTX.sol:StakedINTX","label":"__gap","offset":0,"slot":"101","type":"t_array(t_uint256)50_storage"},{"astId":1013,"contract":"contracts/StakedINTX.sol:StakedINTX","label":"_name","offset":0,"slot":"151","type":"t_string_storage"},{"astId":1015,"contract":"contracts/StakedINTX.sol:StakedINTX","label":"_symbol","offset":0,"slot":"152","type":"t_string_storage"},{"astId":1019,"contract":"contracts/StakedINTX.sol:StakedINTX","label":"_owners","offset":0,"slot":"153","type":"t_mapping(t_uint256,t_address)"},{"astId":1023,"contract":"contracts/StakedINTX.sol:StakedINTX","label":"_balances","offset":0,"slot":"154","type":"t_mapping(t_address,t_uint256)"},{"astId":1027,"contract":"contracts/StakedINTX.sol:StakedINTX","label":"_tokenApprovals","offset":0,"slot":"155","type":"t_mapping(t_uint256,t_address)"},{"astId":1033,"contract":"contracts/StakedINTX.sol:StakedINTX","label":"_operatorApprovals","offset":0,"slot":"156","type":"t_mapping(t_address,t_mapping(t_address,t_bool))"},{"astId":1935,"contract":"contracts/StakedINTX.sol:StakedINTX","label":"__gap","offset":0,"slot":"157","type":"t_array(t_uint256)44_storage"},{"astId":118,"contract":"contracts/StakedINTX.sol:StakedINTX","label":"_owner","offset":0,"slot":"201","type":"t_address"},{"astId":238,"contract":"contracts/StakedINTX.sol:StakedINTX","label":"__gap","offset":0,"slot":"202","type":"t_array(t_uint256)49_storage"},{"astId":11,"contract":"contracts/StakedINTX.sol:StakedINTX","label":"_pendingOwner","offset":0,"slot":"251","type":"t_address"},{"astId":105,"contract":"contracts/StakedINTX.sol:StakedINTX","label":"__gap","offset":0,"slot":"252","type":"t_array(t_uint256)49_storage"},{"astId":6535,"contract":"contracts/StakedINTX.sol:StakedINTX","label":"lastTokenId","offset":0,"slot":"301","type":"t_uint256"},{"astId":6537,"contract":"contracts/StakedINTX.sol:StakedINTX","label":"totalXINTX","offset":0,"slot":"302","type":"t_uint256"},{"astId":6539,"contract":"contracts/StakedINTX.sol:StakedINTX","label":"loyaltyDuration","offset":0,"slot":"303","type":"t_uint256"},{"astId":6541,"contract":"contracts/StakedINTX.sol:StakedINTX","label":"maxLoyaltyBoost","offset":0,"slot":"304","type":"t_uint256"},{"astId":6543,"contract":"contracts/StakedINTX.sol:StakedINTX","label":"maxPenalty","offset":0,"slot":"305","type":"t_uint256"},{"astId":6545,"contract":"contracts/StakedINTX.sol:StakedINTX","label":"minPenalty","offset":0,"slot":"306","type":"t_uint256"},{"astId":6547,"contract":"contracts/StakedINTX.sol:StakedINTX","label":"lastUpdateTime","offset":0,"slot":"307","type":"t_uint256"},{"astId":6549,"contract":"contracts/StakedINTX.sol:StakedINTX","label":"periodFinish","offset":0,"slot":"308","type":"t_uint256"},{"astId":6551,"contract":"contracts/StakedINTX.sol:StakedINTX","label":"rewardRate","offset":0,"slot":"309","type":"t_uint256"},{"astId":6553,"contract":"contracts/StakedINTX.sol:StakedINTX","label":"rewardPerWeightStored","offset":0,"slot":"310","type":"t_uint256"},{"astId":6555,"contract":"contracts/StakedINTX.sol:StakedINTX","label":"totalWeight","offset":0,"slot":"311","type":"t_uint256"},{"astId":6558,"contract":"contracts/StakedINTX.sol:StakedINTX","label":"INTX","offset":0,"slot":"312","type":"t_contract(IERC20)3813"},{"astId":6561,"contract":"contracts/StakedINTX.sol:StakedINTX","label":"rewardToken","offset":0,"slot":"313","type":"t_contract(IERC20)3813"},{"astId":6565,"contract":"contracts/StakedINTX.sol:StakedINTX","label":"loyalSince","offset":0,"slot":"314","type":"t_mapping(t_uint256,t_uint256)"},{"astId":6569,"contract":"contracts/StakedINTX.sol:StakedINTX","label":"balanceOfId","offset":0,"slot":"315","type":"t_mapping(t_uint256,t_uint256)"},{"astId":6573,"contract":"contracts/StakedINTX.sol:StakedINTX","label":"_lastWeightOfTokenId","offset":0,"slot":"316","type":"t_mapping(t_uint256,t_uint256)"},{"astId":6577,"contract":"contracts/StakedINTX.sol:StakedINTX","label":"_rewardPerWeightPaid","offset":0,"slot":"317","type":"t_mapping(t_uint256,t_uint256)"},{"astId":6581,"contract":"contracts/StakedINTX.sol:StakedINTX","label":"_rewards","offset":0,"slot":"318","type":"t_mapping(t_uint256,t_uint256)"},{"astId":6585,"contract":"contracts/StakedINTX.sol:StakedINTX","label":"pendingRewards","offset":0,"slot":"319","type":"t_mapping(t_address,t_uint256)"}],"types":{"t_address":{"encoding":"inplace","label":"address","numberOfBytes":"20"},"t_array(t_uint256)44_storage":{"base":"t_uint256","encoding":"inplace","label":"uint256[44]","numberOfBytes":"1408"},"t_array(t_uint256)49_storage":{"base":"t_uint256","encoding":"inplace","label":"uint256[49]","numberOfBytes":"1568"},"t_array(t_uint256)50_storage":{"base":"t_uint256","encoding":"inplace","label":"uint256[50]","numberOfBytes":"1600"},"t_bool":{"encoding":"inplace","label":"bool","numberOfBytes":"1"},"t_contract(IERC20)3813":{"encoding":"inplace","label":"contract IERC20","numberOfBytes":"20"},"t_mapping(t_address,t_bool)":{"encoding":"mapping","key":"t_address","label":"mapping(address => bool)","numberOfBytes":"32","value":"t_bool"},"t_mapping(t_address,t_mapping(t_address,t_bool))":{"encoding":"mapping","key":"t_address","label":"mapping(address => mapping(address => bool))","numberOfBytes":"32","value":"t_mapping(t_address,t_bool)"},"t_mapping(t_address,t_uint256)":{"encoding":"mapping","key":"t_address","label":"mapping(address => uint256)","numberOfBytes":"32","value":"t_uint256"},"t_mapping(t_uint256,t_address)":{"encoding":"mapping","key":"t_uint256","label":"mapping(uint256 => address)","numberOfBytes":"32","value":"t_address"},"t_mapping(t_uint256,t_uint256)":{"encoding":"mapping","key":"t_uint256","label":"mapping(uint256 => uint256)","numberOfBytes":"32","value":"t_uint256"},"t_string_storage":{"encoding":"bytes","label":"string","numberOfBytes":"32"},"t_uint256":{"encoding":"inplace","label":"uint256","numberOfBytes":"32"},"t_uint8":{"encoding":"inplace","label":"uint8","numberOfBytes":"1"}}}}}}