{"contracts/vestings/VestingXINTX.sol":{"VestingXINTX":{"abi":[{"inputs":[],"stateMutability":"nonpayable","type":"constructor"},{"anonymous":false,"inputs":[{"indexed":false,"internalType":"address","name":"changedBy","type":"address"},{"indexed":true,"internalType":"address","name":"_oldAddress","type":"address"},{"indexed":true,"internalType":"address","name":"_newAddress","type":"address"},{"indexed":false,"internalType":"uint256","name":"amountClaimable","type":"uint256"},{"indexed":false,"internalType":"uint256","name":"amountClaimed","type":"uint256"}],"name":"AllocationChanged","type":"event"},{"anonymous":false,"inputs":[{"indexed":true,"internalType":"address","name":"user","type":"address"},{"indexed":false,"internalType":"uint256","name":"amount","type":"uint256"},{"indexed":false,"internalType":"uint256","name":"_tokenId","type":"uint256"}],"name":"Claimed","type":"event"},{"anonymous":false,"inputs":[{"indexed":false,"internalType":"uint8","name":"version","type":"uint8"}],"name":"Initialized","type":"event"},{"anonymous":false,"inputs":[{"indexed":true,"internalType":"address","name":"previousOwner","type":"address"},{"indexed":true,"internalType":"address","name":"newOwner","type":"address"}],"name":"OwnershipTransferStarted","type":"event"},{"anonymous":false,"inputs":[{"indexed":true,"internalType":"address","name":"previousOwner","type":"address"},{"indexed":true,"internalType":"address","name":"newOwner","type":"address"}],"name":"OwnershipTransferred","type":"event"},{"anonymous":false,"inputs":[{"indexed":false,"internalType":"address","name":"operator","type":"address"},{"indexed":false,"internalType":"address[]","name":"users","type":"address[]"},{"indexed":false,"internalType":"uint256[]","name":"amount","type":"uint256[]"},{"indexed":false,"internalType":"uint256","name":"totalAmount","type":"uint256"}],"name":"Seeded","type":"event"},{"inputs":[],"name":"NO_CLAIM_DURATION","outputs":[{"internalType":"uint256","name":"","type":"uint256"}],"stateMutability":"view","type":"function"},{"inputs":[],"name":"PRECISION","outputs":[{"internalType":"uint256","name":"","type":"uint256"}],"stateMutability":"view","type":"function"},{"inputs":[],"name":"START_VESTING","outputs":[{"internalType":"uint256","name":"","type":"uint256"}],"stateMutability":"view","type":"function"},{"inputs":[],"name":"VESTING_DURATION","outputs":[{"internalType":"uint256","name":"","type":"uint256"}],"stateMutability":"view","type":"function"},{"inputs":[],"name":"acceptOwnership","outputs":[],"stateMutability":"nonpayable","type":"function"},{"inputs":[{"internalType":"address","name":"_oldAddress","type":"address"},{"internalType":"address","name":"_newAddress","type":"address"}],"name":"changeReceiver","outputs":[],"stateMutability":"nonpayable","type":"function"},{"inputs":[],"name":"claim","outputs":[],"stateMutability":"nonpayable","type":"function"},{"inputs":[{"internalType":"address","name":"","type":"address"}],"name":"claimableAmount","outputs":[{"internalType":"uint256","name":"","type":"uint256"}],"stateMutability":"view","type":"function"},{"inputs":[{"internalType":"address","name":"_user","type":"address"}],"name":"claimableNow","outputs":[{"internalType":"uint256","name":"amountToReceive","type":"uint256"}],"stateMutability":"view","type":"function"},{"inputs":[{"internalType":"address","name":"_user","type":"address"}],"name":"claimableWithoutCliff","outputs":[{"internalType":"uint256","name":"amountToReceive","type":"uint256"}],"stateMutability":"view","type":"function"},{"inputs":[{"internalType":"address","name":"","type":"address"}],"name":"claimedAmount","outputs":[{"internalType":"uint256","name":"","type":"uint256"}],"stateMutability":"view","type":"function"},{"inputs":[{"internalType":"address","name":"_intx","type":"address"},{"internalType":"address","name":"_xIntx","type":"address"},{"internalType":"uint256","name":"_startVesting","type":"uint256"},{"internalType":"uint256","name":"_vestingDuration","type":"uint256"},{"internalType":"uint256","name":"_noClaimDuration","type":"uint256"}],"name":"initialize","outputs":[],"stateMutability":"nonpayable","type":"function"},{"inputs":[],"name":"intx","outputs":[{"internalType":"contract IERC20","name":"","type":"address"}],"stateMutability":"view","type":"function"},{"inputs":[],"name":"owner","outputs":[{"internalType":"address","name":"","type":"address"}],"stateMutability":"view","type":"function"},{"inputs":[],"name":"pendingOwner","outputs":[{"internalType":"address","name":"","type":"address"}],"stateMutability":"view","type":"function"},{"inputs":[],"name":"renounceOwnership","outputs":[],"stateMutability":"nonpayable","type":"function"},{"inputs":[{"internalType":"address[]","name":"_receivers","type":"address[]"},{"internalType":"uint256[]","name":"_amounts","type":"uint256[]"}],"name":"setAllocations","outputs":[],"stateMutability":"nonpayable","type":"function"},{"inputs":[{"internalType":"address","name":"newOwner","type":"address"}],"name":"transferOwnership","outputs":[],"stateMutability":"nonpayable","type":"function"},{"inputs":[],"name":"xIntx","outputs":[{"internalType":"contract IStakedINTX","name":"","type":"address"}],"stateMutability":"view","type":"function"}],"evm":{"bytecode":{"linkReferences":{},"object":"608060405234801561001057600080fd5b5061001961001e565b6100dd565b600054610100900460ff161561008a5760405162461bcd60e51b815260206004820152602760248201527f496e697469616c697a61626c653a20636f6e747261637420697320696e697469604482015266616c697a696e6760c81b606482015260840160405180910390fd5b60005460ff908116146100db576000805460ff191660ff9081179091556040519081527f7f26b83ff96e1f2b6a682f133852f6798a09c465da95921460cefb38474024989060200160405180910390a15b565b6118d0806100ec6000396000f3fe608060405234801561001057600080fd5b50600436106101515760003560e01c806379ba5097116100cd578063aaf5eb6811610081578063de6aa92b11610066578063de6aa92b14610283578063e30c397814610296578063f2fde38b146102a757600080fd5b8063aaf5eb6814610266578063d13f90b41461027057600080fd5b80638da5cb5b116100b25780638da5cb5b146102395780639a78ea4a1461024a578063aa264c9b1461025d57600080fd5b806379ba509714610211578063898850491461021957600080fd5b80634c69ec93116101245780634e71d92d116101095780634e71d92d146101f85780635124245014610200578063715018a61461020957600080fd5b80634c69ec93146101dc5780634cfc4d30146101ef57600080fd5b806304e86903146101565780631ff64acd1461018957806327a7af891461019e57806346f7d6c9146101c9575b600080fd5b61017661016436600461151b565b60cf6020526000908152604090205481565b6040519081526020015b60405180910390f35b61019c610197366004611589565b6102ba565b005b60cd546101b1906001600160a01b031681565b6040516001600160a01b039091168152602001610180565b60cc546101b1906001600160a01b031681565b61019c6101ea3660046115f5565b6103ef565b61017660ca5481565b61019c6106c9565b61017660cb5481565b61019c610a2c565b61019c610a34565b61017661022736600461151b565b60ce6020526000908152604090205481565b6065546001600160a01b03166101b1565b61017661025836600461151b565b610ac2565b61017660c95481565b610176620186a081565b61019c61027e366004611628565b610b7b565b61017661029136600461151b565b610dba565b6097546001600160a01b03166101b1565b61019c6102b536600461151b565b610def565b6102c2610e6d565b6000838281146102d157600080fd5b60005b8181101561038d578484828181106102ee576102ee611675565b9050602002013560ce600089898581811061030b5761030b611675565b9050602002016020810190610320919061151b565b6001600160a01b03166001600160a01b03168152602001908152602001600020600082825461034f91906116a1565b90915550859050848281811061036757610367611675565b905060200201358361037991906116a1565b925080610385816116ba565b9150506102d4565b506103a63360cc546001600160a01b0316903085610ec7565b7fce2f1e54279c24e5f841f2af4826cb958d82cbec9904631c271ea9f79c0497583387878787876040516103df969594939291906116f2565b60405180910390a1505050505050565b6103f7610e6d565b6001600160a01b038216600090815260ce602052604081205490036104895760405162461bcd60e51b815260206004820152602860248201527f4f6c64206164647265737320646f65736e2774206861766520616e7920616c6c60448201527f6f636174696f6e2e00000000000000000000000000000000000000000000000060648201526084015b60405180910390fd5b6001600160a01b038216600090815260ce602090815260408083205460cf90925290912054106105215760405162461bcd60e51b815260206004820152603260248201527f5468697320757365722068617320616c726561647920636c61696d656420616c60448201527f6c20796f757220616c6c6f636174696f6e2e00000000000000000000000000006064820152608401610480565b6001600160a01b038116156105fb576001600160a01b038116600090815260ce6020526040902054156105bc5760405162461bcd60e51b815260206004820152602d60248201527f546865206e6577206164647265737320616c726561647920686173206120766560448201527f7374696e6720616d6f756e742e000000000000000000000000000000000000006064820152608401610480565b6001600160a01b03808316600081815260ce60209081526040808320549486168084528184209590955592825260cf9052818120549281522055610644565b6001600160a01b038216600090815260cf602090815260408083205460ce90925282205461062991906117a0565b90506106423360cc546001600160a01b03169083610f7e565b505b6001600160a01b03828116600081815260ce6020818152604080842084905560cf80835281852085905595871680855292825280842054958252928390205483513381529182019590955280830194909452905190927fc59ec30f329309b218c044031b6a8c68941c091e893578a4b563ba18f588b4f2919081900360600190a35050565b6106d1610fcc565b33600090815260ce602052604081205490036107555760405162461bcd60e51b815260206004820152602e60248201527f54686973206164647265737320646f65736e2774206861766520616e7920616d60448201527f6f756e7420746f20636c61696d2e0000000000000000000000000000000000006064820152608401610480565b33600090815260ce602090815260408083205460cf90925290912054106107e45760405162461bcd60e51b815260206004820152602c60248201527f596f75206861766520616c726561647920636c61696d656420616c6c20796f7560448201527f7220616c6c6f636174696f6e00000000000000000000000000000000000000006064820152608401610480565b60cb5460c9546107f491906116a1565b421115610a215733600090815260ce602052604081205460c95490919061081b90426117a0565b905060ca5481111561082c575060ca545b60ca5460009061083f620186a0846117b3565b61084991906117ca565b33600090815260cf602052604081205491925090620186a061086b84876117b3565b61087591906117ca565b61087f91906117a0565b90508015610a1c5733600090815260cf6020526040812080548392906108a69084906116a1565b909155505060cc5460cd546040517f095ea7b30000000000000000000000000000000000000000000000000000000081526001600160a01b0391821660048201526024810184905291169063095ea7b3906044016020604051808303816000875af1158015610919573d6000803e3d6000fd5b505050506040513d601f19601f8201168201806040525081019061093d91906117ec565b5060cd546000906001600160a01b0316632ee40908336040517fffffffff0000000000000000000000000000000000000000000000000000000060e084901b1681526001600160a01b039091166004820152602481018590526044016020604051808303816000875af11580156109b8573d6000803e3d6000fd5b505050506040513d601f19601f820116820180604052508101906109dc919061180e565b604080518481526020810183905291925033917f987d620f307ff6b94d58743cb7a7509f24071586a77759b77c2d4e29f75a2f9a910160405180910390a2505b505050505b610a2a60018055565b565b610a2a610e6d565b60975433906001600160a01b03168114610ab65760405162461bcd60e51b815260206004820152602960248201527f4f776e61626c6532537465703a2063616c6c6572206973206e6f74207468652060448201527f6e6577206f776e657200000000000000000000000000000000000000000000006064820152608401610480565b610abf8161102b565b50565b600060cb5460c954610ad491906116a1565b421115610b76576001600160a01b038216600090815260ce602052604081205460c954909190610b0490426117a0565b905060ca54811115610b15575060ca545b60ca54600090610b28620186a0846117b3565b610b3291906117ca565b6001600160a01b038616600090815260cf6020526040902054909150620186a0610b5c83866117b3565b610b6691906117ca565b610b7091906117a0565b93505050505b919050565b600054610100900460ff1615808015610b9b5750600054600160ff909116105b80610bb55750303b158015610bb5575060005460ff166001145b610c275760405162461bcd60e51b815260206004820152602e60248201527f496e697469616c697a61626c653a20636f6e747261637420697320616c72656160448201527f647920696e697469616c697a65640000000000000000000000000000000000006064820152608401610480565b600080547fffffffffffffffffffffffffffffffffffffffffffffffffffffffffffffff001660011790558015610c68576000805461ff0019166101001790555b610c70611051565b610c786110c4565b6001600160a01b038616610cce5760405162461bcd60e51b815260206004820152601460248201527f43616e27742075736520307820616464726573730000000000000000000000006044820152606401610480565b6001600160a01b038516610d245760405162461bcd60e51b815260206004820152601460248201527f43616e27742075736520307820616464726573730000000000000000000000006044820152606401610480565b60cc80546001600160a01b0380891673ffffffffffffffffffffffffffffffffffffffff199283161790925560cd80549288169290911691909117905560c984905560ca83905560cb8290558015610db2576000805461ff0019169055604051600181527f7f26b83ff96e1f2b6a682f133852f6798a09c465da95921460cefb3847402498906020016103df565b505050505050565b600060c954421115610b76576001600160a01b038216600090815260ce602052604081205460c954909190610b0490426117a0565b610df7610e6d565b609780546001600160a01b03831673ffffffffffffffffffffffffffffffffffffffff199091168117909155610e356065546001600160a01b031690565b6001600160a01b03167f38d16b8cac22d99fc7c124b9cd0de2d3fa1faef420bfe791d8c362d765e2270060405160405180910390a350565b6065546001600160a01b03163314610a2a5760405162461bcd60e51b815260206004820181905260248201527f4f776e61626c653a2063616c6c6572206973206e6f7420746865206f776e65726044820152606401610480565b6040516001600160a01b0380851660248301528316604482015260648101829052610f789085907f23b872dd00000000000000000000000000000000000000000000000000000000906084015b60408051601f198184030181529190526020810180517bffffffffffffffffffffffffffffffffffffffffffffffffffffffff167fffffffff0000000000000000000000000000000000000000000000000000000090931692909217909152611137565b50505050565b6040516001600160a01b038316602482015260448101829052610fc79084907fa9059cbb0000000000000000000000000000000000000000000000000000000090606401610f14565b505050565b60026001540361101e5760405162461bcd60e51b815260206004820152601f60248201527f5265656e7472616e637947756172643a207265656e7472616e742063616c6c006044820152606401610480565b6002600155565b60018055565b6097805473ffffffffffffffffffffffffffffffffffffffff19169055610abf8161121f565b600054610100900460ff166110bc5760405162461bcd60e51b815260206004820152602b60248201527f496e697469616c697a61626c653a20636f6e7472616374206973206e6f74206960448201526a6e697469616c697a696e6760a81b6064820152608401610480565b610a2a61127e565b600054610100900460ff1661112f5760405162461bcd60e51b815260206004820152602b60248201527f496e697469616c697a61626c653a20636f6e7472616374206973206e6f74206960448201526a6e697469616c697a696e6760a81b6064820152608401610480565b610a2a6112e9565b600061118c826040518060400160405280602081526020017f5361666545524332303a206c6f772d6c6576656c2063616c6c206661696c6564815250856001600160a01b031661135d9092919063ffffffff16565b90508051600014806111ad5750808060200190518101906111ad91906117ec565b610fc75760405162461bcd60e51b815260206004820152602a60248201527f5361666545524332303a204552433230206f7065726174696f6e20646964206e60448201527f6f742073756363656564000000000000000000000000000000000000000000006064820152608401610480565b606580546001600160a01b0383811673ffffffffffffffffffffffffffffffffffffffff19831681179093556040519116919082907f8be0079c531659141344cd1fd0a4f28419497f9722a3daafe3b4186f6b6457e090600090a35050565b600054610100900460ff166110255760405162461bcd60e51b815260206004820152602b60248201527f496e697469616c697a61626c653a20636f6e7472616374206973206e6f74206960448201526a6e697469616c697a696e6760a81b6064820152608401610480565b600054610100900460ff166113545760405162461bcd60e51b815260206004820152602b60248201527f496e697469616c697a61626c653a20636f6e7472616374206973206e6f74206960448201526a6e697469616c697a696e6760a81b6064820152608401610480565b610a2a3361102b565b606061136c8484600085611374565b949350505050565b6060824710156113ec5760405162461bcd60e51b815260206004820152602660248201527f416464726573733a20696e73756666696369656e742062616c616e636520666f60448201527f722063616c6c00000000000000000000000000000000000000000000000000006064820152608401610480565b600080866001600160a01b03168587604051611408919061184b565b60006040518083038185875af1925050503d8060008114611445576040519150601f19603f3d011682016040523d82523d6000602084013e61144a565b606091505b509150915061145b87838387611466565b979650505050505050565b606083156114d55782516000036114ce576001600160a01b0385163b6114ce5760405162461bcd60e51b815260206004820152601d60248201527f416464726573733a2063616c6c20746f206e6f6e2d636f6e74726163740000006044820152606401610480565b508161136c565b61136c83838151156114ea5781518083602001fd5b8060405162461bcd60e51b81526004016104809190611867565b80356001600160a01b0381168114610b7657600080fd5b60006020828403121561152d57600080fd5b61153682611504565b9392505050565b60008083601f84011261154f57600080fd5b50813567ffffffffffffffff81111561156757600080fd5b6020830191508360208260051b850101111561158257600080fd5b9250929050565b6000806000806040858703121561159f57600080fd5b843567ffffffffffffffff808211156115b757600080fd5b6115c38883890161153d565b909650945060208701359150808211156115dc57600080fd5b506115e98782880161153d565b95989497509550505050565b6000806040838503121561160857600080fd5b61161183611504565b915061161f60208401611504565b90509250929050565b600080600080600060a0868803121561164057600080fd5b61164986611504565b945061165760208701611504565b94979496505050506040830135926060810135926080909101359150565b634e487b7160e01b600052603260045260246000fd5b634e487b7160e01b600052601160045260246000fd5b808201808211156116b4576116b461168b565b92915050565b60007fffffffffffffffffffffffffffffffffffffffffffffffffffffffffffffffff82036116eb576116eb61168b565b5060010190565b6001600160a01b03878116825260806020808401829052908301879052600091889160a08501845b8a81101561173f578361172c86611504565b168252938201939082019060010161171a565b5085810360408701528781527f07ffffffffffffffffffffffffffffffffffffffffffffffffffffffffffffff88111561177857600080fd5b8760051b93508389838301378184820101945050505050826060830152979650505050505050565b818103818111156116b4576116b461168b565b80820281158282048414176116b4576116b461168b565b6000826117e757634e487b7160e01b600052601260045260246000fd5b500490565b6000602082840312156117fe57600080fd5b8151801515811461153657600080fd5b60006020828403121561182057600080fd5b5051919050565b60005b8381101561184257818101518382015260200161182a565b50506000910152565b6000825161185d818460208701611827565b9190910192915050565b6020815260008251806020840152611886816040850160208701611827565b601f01601f1916919091016040019291505056fea2646970667358221220bbb1c67c185c0a4e3c89f321bbbe5eb252e5d1bbf058eae2f724c5a9e17ad1e764736f6c63430008120033","opcodes":"PUSH1 0x80 PUSH1 0x40 MSTORE CALLVALUE DUP1 ISZERO PUSH2 0x10 JUMPI PUSH1 0x0 DUP1 REVERT JUMPDEST POP PUSH2 0x19 PUSH2 0x1E JUMP JUMPDEST PUSH2 0xDD JUMP JUMPDEST PUSH1 0x0 SLOAD PUSH2 0x100 SWAP1 DIV PUSH1 0xFF AND ISZERO PUSH2 0x8A JUMPI PUSH1 0x40 MLOAD PUSH3 0x461BCD PUSH1 0xE5 SHL DUP2 MSTORE PUSH1 0x20 PUSH1 0x4 DUP3 ADD MSTORE PUSH1 0x27 PUSH1 0x24 DUP3 ADD MSTORE PUSH32 0x496E697469616C697A61626C653A20636F6E747261637420697320696E697469 PUSH1 0x44 DUP3 ADD MSTORE PUSH7 0x616C697A696E67 PUSH1 0xC8 SHL PUSH1 0x64 DUP3 ADD MSTORE PUSH1 0x84 ADD PUSH1 0x40 MLOAD DUP1 SWAP2 SUB SWAP1 REVERT JUMPDEST PUSH1 0x0 SLOAD PUSH1 0xFF SWAP1 DUP2 AND EQ PUSH2 0xDB JUMPI PUSH1 0x0 DUP1 SLOAD PUSH1 0xFF NOT AND PUSH1 0xFF SWAP1 DUP2 OR SWAP1 SWAP2 SSTORE PUSH1 0x40 MLOAD SWAP1 DUP2 MSTORE PUSH32 0x7F26B83FF96E1F2B6A682F133852F6798A09C465DA95921460CEFB3847402498 SWAP1 PUSH1 0x20 ADD PUSH1 0x40 MLOAD DUP1 SWAP2 SUB SWAP1 LOG1 JUMPDEST JUMP JUMPDEST PUSH2 0x18D0 DUP1 PUSH2 0xEC PUSH1 0x0 CODECOPY PUSH1 0x0 RETURN INVALID PUSH1 0x80 PUSH1 0x40 MSTORE CALLVALUE DUP1 ISZERO PUSH2 0x10 JUMPI PUSH1 0x0 DUP1 REVERT JUMPDEST POP PUSH1 0x4 CALLDATASIZE LT PUSH2 0x151 JUMPI PUSH1 0x0 CALLDATALOAD PUSH1 0xE0 SHR DUP1 PUSH4 0x79BA5097 GT PUSH2 0xCD JUMPI DUP1 PUSH4 0xAAF5EB68 GT PUSH2 0x81 JUMPI DUP1 PUSH4 0xDE6AA92B GT PUSH2 0x66 JUMPI DUP1 PUSH4 0xDE6AA92B EQ PUSH2 0x283 JUMPI DUP1 PUSH4 0xE30C3978 EQ PUSH2 0x296 JUMPI DUP1 PUSH4 0xF2FDE38B EQ PUSH2 0x2A7 JUMPI PUSH1 0x0 DUP1 REVERT JUMPDEST DUP1 PUSH4 0xAAF5EB68 EQ PUSH2 0x266 JUMPI DUP1 PUSH4 0xD13F90B4 EQ PUSH2 0x270 JUMPI PUSH1 0x0 DUP1 REVERT JUMPDEST DUP1 PUSH4 0x8DA5CB5B GT PUSH2 0xB2 JUMPI DUP1 PUSH4 0x8DA5CB5B EQ PUSH2 0x239 JUMPI DUP1 PUSH4 0x9A78EA4A EQ PUSH2 0x24A JUMPI DUP1 PUSH4 0xAA264C9B EQ PUSH2 0x25D JUMPI PUSH1 0x0 DUP1 REVERT JUMPDEST DUP1 PUSH4 0x79BA5097 EQ PUSH2 0x211 JUMPI DUP1 PUSH4 0x89885049 EQ PUSH2 0x219 JUMPI PUSH1 0x0 DUP1 REVERT JUMPDEST DUP1 PUSH4 0x4C69EC93 GT PUSH2 0x124 JUMPI DUP1 PUSH4 0x4E71D92D GT PUSH2 0x109 JUMPI DUP1 PUSH4 0x4E71D92D EQ PUSH2 0x1F8 JUMPI DUP1 PUSH4 0x51242450 EQ PUSH2 0x200 JUMPI DUP1 PUSH4 0x715018A6 EQ PUSH2 0x209 JUMPI PUSH1 0x0 DUP1 REVERT JUMPDEST DUP1 PUSH4 0x4C69EC93 EQ PUSH2 0x1DC JUMPI DUP1 PUSH4 0x4CFC4D30 EQ PUSH2 0x1EF JUMPI PUSH1 0x0 DUP1 REVERT JUMPDEST DUP1 PUSH4 0x4E86903 EQ PUSH2 0x156 JUMPI DUP1 PUSH4 0x1FF64ACD EQ PUSH2 0x189 JUMPI DUP1 PUSH4 0x27A7AF89 EQ PUSH2 0x19E JUMPI DUP1 PUSH4 0x46F7D6C9 EQ PUSH2 0x1C9 JUMPI JUMPDEST PUSH1 0x0 DUP1 REVERT JUMPDEST PUSH2 0x176 PUSH2 0x164 CALLDATASIZE PUSH1 0x4 PUSH2 0x151B JUMP JUMPDEST PUSH1 0xCF PUSH1 0x20 MSTORE PUSH1 0x0 SWAP1 DUP2 MSTORE PUSH1 0x40 SWAP1 KECCAK256 SLOAD DUP2 JUMP JUMPDEST PUSH1 0x40 MLOAD SWAP1 DUP2 MSTORE PUSH1 0x20 ADD JUMPDEST PUSH1 0x40 MLOAD DUP1 SWAP2 SUB SWAP1 RETURN JUMPDEST PUSH2 0x19C PUSH2 0x197 CALLDATASIZE PUSH1 0x4 PUSH2 0x1589 JUMP JUMPDEST PUSH2 0x2BA JUMP JUMPDEST STOP JUMPDEST PUSH1 0xCD SLOAD PUSH2 0x1B1 SWAP1 PUSH1 0x1 PUSH1 0x1 PUSH1 0xA0 SHL SUB AND DUP2 JUMP JUMPDEST PUSH1 0x40 MLOAD PUSH1 0x1 PUSH1 0x1 PUSH1 0xA0 SHL SUB SWAP1 SWAP2 AND DUP2 MSTORE PUSH1 0x20 ADD PUSH2 0x180 JUMP JUMPDEST PUSH1 0xCC SLOAD PUSH2 0x1B1 SWAP1 PUSH1 0x1 PUSH1 0x1 PUSH1 0xA0 SHL SUB AND DUP2 JUMP JUMPDEST PUSH2 0x19C PUSH2 0x1EA CALLDATASIZE PUSH1 0x4 PUSH2 0x15F5 JUMP JUMPDEST PUSH2 0x3EF JUMP JUMPDEST PUSH2 0x176 PUSH1 0xCA SLOAD DUP2 JUMP JUMPDEST PUSH2 0x19C PUSH2 0x6C9 JUMP JUMPDEST PUSH2 0x176 PUSH1 0xCB SLOAD DUP2 JUMP JUMPDEST PUSH2 0x19C PUSH2 0xA2C JUMP JUMPDEST PUSH2 0x19C PUSH2 0xA34 JUMP JUMPDEST PUSH2 0x176 PUSH2 0x227 CALLDATASIZE PUSH1 0x4 PUSH2 0x151B JUMP JUMPDEST PUSH1 0xCE PUSH1 0x20 MSTORE PUSH1 0x0 SWAP1 DUP2 MSTORE PUSH1 0x40 SWAP1 KECCAK256 SLOAD DUP2 JUMP JUMPDEST PUSH1 0x65 SLOAD PUSH1 0x1 PUSH1 0x1 PUSH1 0xA0 SHL SUB AND PUSH2 0x1B1 JUMP JUMPDEST PUSH2 0x176 PUSH2 0x258 CALLDATASIZE PUSH1 0x4 PUSH2 0x151B JUMP JUMPDEST PUSH2 0xAC2 JUMP JUMPDEST PUSH2 0x176 PUSH1 0xC9 SLOAD DUP2 JUMP JUMPDEST PUSH2 0x176 PUSH3 0x186A0 DUP2 JUMP JUMPDEST PUSH2 0x19C PUSH2 0x27E CALLDATASIZE PUSH1 0x4 PUSH2 0x1628 JUMP JUMPDEST PUSH2 0xB7B JUMP JUMPDEST PUSH2 0x176 PUSH2 0x291 CALLDATASIZE PUSH1 0x4 PUSH2 0x151B JUMP JUMPDEST PUSH2 0xDBA JUMP JUMPDEST PUSH1 0x97 SLOAD PUSH1 0x1 PUSH1 0x1 PUSH1 0xA0 SHL SUB AND PUSH2 0x1B1 JUMP JUMPDEST PUSH2 0x19C PUSH2 0x2B5 CALLDATASIZE PUSH1 0x4 PUSH2 0x151B JUMP JUMPDEST PUSH2 0xDEF JUMP JUMPDEST PUSH2 0x2C2 PUSH2 0xE6D JUMP JUMPDEST PUSH1 0x0 DUP4 DUP3 DUP2 EQ PUSH2 0x2D1 JUMPI PUSH1 0x0 DUP1 REVERT JUMPDEST PUSH1 0x0 JUMPDEST DUP2 DUP2 LT ISZERO PUSH2 0x38D JUMPI DUP5 DUP5 DUP3 DUP2 DUP2 LT PUSH2 0x2EE JUMPI PUSH2 0x2EE PUSH2 0x1675 JUMP JUMPDEST SWAP1 POP PUSH1 0x20 MUL ADD CALLDATALOAD PUSH1 0xCE PUSH1 0x0 DUP10 DUP10 DUP6 DUP2 DUP2 LT PUSH2 0x30B JUMPI PUSH2 0x30B PUSH2 0x1675 JUMP JUMPDEST SWAP1 POP PUSH1 0x20 MUL ADD PUSH1 0x20 DUP2 ADD SWAP1 PUSH2 0x320 SWAP2 SWAP1 PUSH2 0x151B JUMP JUMPDEST PUSH1 0x1 PUSH1 0x1 PUSH1 0xA0 SHL SUB AND PUSH1 0x1 PUSH1 0x1 PUSH1 0xA0 SHL SUB AND DUP2 MSTORE PUSH1 0x20 ADD SWAP1 DUP2 MSTORE PUSH1 0x20 ADD PUSH1 0x0 KECCAK256 PUSH1 0x0 DUP3 DUP3 SLOAD PUSH2 0x34F SWAP2 SWAP1 PUSH2 0x16A1 JUMP JUMPDEST SWAP1 SWAP2 SSTORE POP DUP6 SWAP1 POP DUP5 DUP3 DUP2 DUP2 LT PUSH2 0x367 JUMPI PUSH2 0x367 PUSH2 0x1675 JUMP JUMPDEST SWAP1 POP PUSH1 0x20 MUL ADD CALLDATALOAD DUP4 PUSH2 0x379 SWAP2 SWAP1 PUSH2 0x16A1 JUMP JUMPDEST SWAP3 POP DUP1 PUSH2 0x385 DUP2 PUSH2 0x16BA JUMP JUMPDEST SWAP2 POP POP PUSH2 0x2D4 JUMP JUMPDEST POP PUSH2 0x3A6 CALLER PUSH1 0xCC SLOAD PUSH1 0x1 PUSH1 0x1 PUSH1 0xA0 SHL SUB AND SWAP1 ADDRESS DUP6 PUSH2 0xEC7 JUMP JUMPDEST PUSH32 0xCE2F1E54279C24E5F841F2AF4826CB958D82CBEC9904631C271EA9F79C049758 CALLER DUP8 DUP8 DUP8 DUP8 DUP8 PUSH1 0x40 MLOAD PUSH2 0x3DF SWAP7 SWAP6 SWAP5 SWAP4 SWAP3 SWAP2 SWAP1 PUSH2 0x16F2 JUMP JUMPDEST PUSH1 0x40 MLOAD DUP1 SWAP2 SUB SWAP1 LOG1 POP POP POP POP POP POP JUMP JUMPDEST PUSH2 0x3F7 PUSH2 0xE6D JUMP JUMPDEST PUSH1 0x1 PUSH1 0x1 PUSH1 0xA0 SHL SUB DUP3 AND PUSH1 0x0 SWAP1 DUP2 MSTORE PUSH1 0xCE PUSH1 0x20 MSTORE PUSH1 0x40 DUP2 KECCAK256 SLOAD SWAP1 SUB PUSH2 0x489 JUMPI PUSH1 0x40 MLOAD PUSH3 0x461BCD PUSH1 0xE5 SHL DUP2 MSTORE PUSH1 0x20 PUSH1 0x4 DUP3 ADD MSTORE PUSH1 0x28 PUSH1 0x24 DUP3 ADD MSTORE PUSH32 0x4F6C64206164647265737320646F65736E2774206861766520616E7920616C6C PUSH1 0x44 DUP3 ADD MSTORE PUSH32 0x6F636174696F6E2E000000000000000000000000000000000000000000000000 PUSH1 0x64 DUP3 ADD MSTORE PUSH1 0x84 ADD JUMPDEST PUSH1 0x40 MLOAD DUP1 SWAP2 SUB SWAP1 REVERT JUMPDEST PUSH1 0x1 PUSH1 0x1 PUSH1 0xA0 SHL SUB DUP3 AND PUSH1 0x0 SWAP1 DUP2 MSTORE PUSH1 0xCE PUSH1 0x20 SWAP1 DUP2 MSTORE PUSH1 0x40 DUP1 DUP4 KECCAK256 SLOAD PUSH1 0xCF SWAP1 SWAP3 MSTORE SWAP1 SWAP2 KECCAK256 SLOAD LT PUSH2 0x521 JUMPI PUSH1 0x40 MLOAD PUSH3 0x461BCD PUSH1 0xE5 SHL DUP2 MSTORE PUSH1 0x20 PUSH1 0x4 DUP3 ADD MSTORE PUSH1 0x32 PUSH1 0x24 DUP3 ADD MSTORE PUSH32 0x5468697320757365722068617320616C726561647920636C61696D656420616C PUSH1 0x44 DUP3 ADD MSTORE PUSH32 0x6C20796F757220616C6C6F636174696F6E2E0000000000000000000000000000 PUSH1 0x64 DUP3 ADD MSTORE PUSH1 0x84 ADD PUSH2 0x480 JUMP JUMPDEST PUSH1 0x1 PUSH1 0x1 PUSH1 0xA0 SHL SUB DUP2 AND ISZERO PUSH2 0x5FB JUMPI PUSH1 0x1 PUSH1 0x1 PUSH1 0xA0 SHL SUB DUP2 AND PUSH1 0x0 SWAP1 DUP2 MSTORE PUSH1 0xCE PUSH1 0x20 MSTORE PUSH1 0x40 SWAP1 KECCAK256 SLOAD ISZERO PUSH2 0x5BC JUMPI PUSH1 0x40 MLOAD PUSH3 0x461BCD PUSH1 0xE5 SHL DUP2 MSTORE PUSH1 0x20 PUSH1 0x4 DUP3 ADD MSTORE PUSH1 0x2D PUSH1 0x24 DUP3 ADD MSTORE PUSH32 0x546865206E6577206164647265737320616C7265616479206861732061207665 PUSH1 0x44 DUP3 ADD MSTORE PUSH32 0x7374696E6720616D6F756E742E00000000000000000000000000000000000000 PUSH1 0x64 DUP3 ADD MSTORE PUSH1 0x84 ADD PUSH2 0x480 JUMP JUMPDEST PUSH1 0x1 PUSH1 0x1 PUSH1 0xA0 SHL SUB DUP1 DUP4 AND PUSH1 0x0 DUP2 DUP2 MSTORE PUSH1 0xCE PUSH1 0x20 SWAP1 DUP2 MSTORE PUSH1 0x40 DUP1 DUP4 KECCAK256 SLOAD SWAP5 DUP7 AND DUP1 DUP5 MSTORE DUP2 DUP5 KECCAK256 SWAP6 SWAP1 SWAP6 SSTORE SWAP3 DUP3 MSTORE PUSH1 0xCF SWAP1 MSTORE DUP2 DUP2 KECCAK256 SLOAD SWAP3 DUP2 MSTORE KECCAK256 SSTORE PUSH2 0x644 JUMP JUMPDEST PUSH1 0x1 PUSH1 0x1 PUSH1 0xA0 SHL SUB DUP3 AND PUSH1 0x0 SWAP1 DUP2 MSTORE PUSH1 0xCF PUSH1 0x20 SWAP1 DUP2 MSTORE PUSH1 0x40 DUP1 DUP4 KECCAK256 SLOAD PUSH1 0xCE SWAP1 SWAP3 MSTORE DUP3 KECCAK256 SLOAD PUSH2 0x629 SWAP2 SWAP1 PUSH2 0x17A0 JUMP JUMPDEST SWAP1 POP PUSH2 0x642 CALLER PUSH1 0xCC SLOAD PUSH1 0x1 PUSH1 0x1 PUSH1 0xA0 SHL SUB AND SWAP1 DUP4 PUSH2 0xF7E JUMP JUMPDEST POP JUMPDEST PUSH1 0x1 PUSH1 0x1 PUSH1 0xA0 SHL SUB DUP3 DUP2 AND PUSH1 0x0 DUP2 DUP2 MSTORE PUSH1 0xCE PUSH1 0x20 DUP2 DUP2 MSTORE PUSH1 0x40 DUP1 DUP5 KECCAK256 DUP5 SWAP1 SSTORE PUSH1 0xCF DUP1 DUP4 MSTORE DUP2 DUP6 KECCAK256 DUP6 SWAP1 SSTORE SWAP6 DUP8 AND DUP1 DUP6 MSTORE SWAP3 DUP3 MSTORE DUP1 DUP5 KECCAK256 SLOAD SWAP6 DUP3 MSTORE SWAP3 DUP4 SWAP1 KECCAK256 SLOAD DUP4 MLOAD CALLER DUP2 MSTORE SWAP2 DUP3 ADD SWAP6 SWAP1 SWAP6 MSTORE DUP1 DUP4 ADD SWAP5 SWAP1 SWAP5 MSTORE SWAP1 MLOAD SWAP1 SWAP3 PUSH32 0xC59EC30F329309B218C044031B6A8C68941C091E893578A4B563BA18F588B4F2 SWAP2 SWAP1 DUP2 SWAP1 SUB PUSH1 0x60 ADD SWAP1 LOG3 POP POP JUMP JUMPDEST PUSH2 0x6D1 PUSH2 0xFCC JUMP JUMPDEST CALLER PUSH1 0x0 SWAP1 DUP2 MSTORE PUSH1 0xCE PUSH1 0x20 MSTORE PUSH1 0x40 DUP2 KECCAK256 SLOAD SWAP1 SUB PUSH2 0x755 JUMPI PUSH1 0x40 MLOAD PUSH3 0x461BCD PUSH1 0xE5 SHL DUP2 MSTORE PUSH1 0x20 PUSH1 0x4 DUP3 ADD MSTORE PUSH1 0x2E PUSH1 0x24 DUP3 ADD MSTORE PUSH32 0x54686973206164647265737320646F65736E2774206861766520616E7920616D PUSH1 0x44 DUP3 ADD MSTORE PUSH32 0x6F756E7420746F20636C61696D2E000000000000000000000000000000000000 PUSH1 0x64 DUP3 ADD MSTORE PUSH1 0x84 ADD PUSH2 0x480 JUMP JUMPDEST CALLER PUSH1 0x0 SWAP1 DUP2 MSTORE PUSH1 0xCE PUSH1 0x20 SWAP1 DUP2 MSTORE PUSH1 0x40 DUP1 DUP4 KECCAK256 SLOAD PUSH1 0xCF SWAP1 SWAP3 MSTORE SWAP1 SWAP2 KECCAK256 SLOAD LT PUSH2 0x7E4 JUMPI PUSH1 0x40 MLOAD PUSH3 0x461BCD PUSH1 0xE5 SHL DUP2 MSTORE PUSH1 0x20 PUSH1 0x4 DUP3 ADD MSTORE PUSH1 0x2C PUSH1 0x24 DUP3 ADD MSTORE PUSH32 0x596F75206861766520616C726561647920636C61696D656420616C6C20796F75 PUSH1 0x44 DUP3 ADD MSTORE PUSH32 0x7220616C6C6F636174696F6E0000000000000000000000000000000000000000 PUSH1 0x64 DUP3 ADD MSTORE PUSH1 0x84 ADD PUSH2 0x480 JUMP JUMPDEST PUSH1 0xCB SLOAD PUSH1 0xC9 SLOAD PUSH2 0x7F4 SWAP2 SWAP1 PUSH2 0x16A1 JUMP JUMPDEST TIMESTAMP GT ISZERO PUSH2 0xA21 JUMPI CALLER PUSH1 0x0 SWAP1 DUP2 MSTORE PUSH1 0xCE PUSH1 0x20 MSTORE PUSH1 0x40 DUP2 KECCAK256 SLOAD PUSH1 0xC9 SLOAD SWAP1 SWAP2 SWAP1 PUSH2 0x81B SWAP1 TIMESTAMP PUSH2 0x17A0 JUMP JUMPDEST SWAP1 POP PUSH1 0xCA SLOAD DUP2 GT ISZERO PUSH2 0x82C JUMPI POP PUSH1 0xCA SLOAD JUMPDEST PUSH1 0xCA SLOAD PUSH1 0x0 SWAP1 PUSH2 0x83F PUSH3 0x186A0 DUP5 PUSH2 0x17B3 JUMP JUMPDEST PUSH2 0x849 SWAP2 SWAP1 PUSH2 0x17CA JUMP JUMPDEST CALLER PUSH1 0x0 SWAP1 DUP2 MSTORE PUSH1 0xCF PUSH1 0x20 MSTORE PUSH1 0x40 DUP2 KECCAK256 SLOAD SWAP2 SWAP3 POP SWAP1 PUSH3 0x186A0 PUSH2 0x86B DUP5 DUP8 PUSH2 0x17B3 JUMP JUMPDEST PUSH2 0x875 SWAP2 SWAP1 PUSH2 0x17CA JUMP JUMPDEST PUSH2 0x87F SWAP2 SWAP1 PUSH2 0x17A0 JUMP JUMPDEST SWAP1 POP DUP1 ISZERO PUSH2 0xA1C JUMPI CALLER PUSH1 0x0 SWAP1 DUP2 MSTORE PUSH1 0xCF PUSH1 0x20 MSTORE PUSH1 0x40 DUP2 KECCAK256 DUP1 SLOAD DUP4 SWAP3 SWAP1 PUSH2 0x8A6 SWAP1 DUP5 SWAP1 PUSH2 0x16A1 JUMP JUMPDEST SWAP1 SWAP2 SSTORE POP POP PUSH1 0xCC SLOAD PUSH1 0xCD SLOAD PUSH1 0x40 MLOAD PUSH32 0x95EA7B300000000000000000000000000000000000000000000000000000000 DUP2 MSTORE PUSH1 0x1 PUSH1 0x1 PUSH1 0xA0 SHL SUB SWAP2 DUP3 AND PUSH1 0x4 DUP3 ADD MSTORE PUSH1 0x24 DUP2 ADD DUP5 SWAP1 MSTORE SWAP2 AND SWAP1 PUSH4 0x95EA7B3 SWAP1 PUSH1 0x44 ADD PUSH1 0x20 PUSH1 0x40 MLOAD DUP1 DUP4 SUB DUP2 PUSH1 0x0 DUP8 GAS CALL ISZERO DUP1 ISZERO PUSH2 0x919 JUMPI RETURNDATASIZE PUSH1 0x0 DUP1 RETURNDATACOPY RETURNDATASIZE PUSH1 0x0 REVERT JUMPDEST POP POP POP POP PUSH1 0x40 MLOAD RETURNDATASIZE PUSH1 0x1F NOT PUSH1 0x1F DUP3 ADD AND DUP3 ADD DUP1 PUSH1 0x40 MSTORE POP DUP2 ADD SWAP1 PUSH2 0x93D SWAP2 SWAP1 PUSH2 0x17EC JUMP JUMPDEST POP PUSH1 0xCD SLOAD PUSH1 0x0 SWAP1 PUSH1 0x1 PUSH1 0x1 PUSH1 0xA0 SHL SUB AND PUSH4 0x2EE40908 CALLER PUSH1 0x40 MLOAD PUSH32 0xFFFFFFFF00000000000000000000000000000000000000000000000000000000 PUSH1 0xE0 DUP5 SWAP1 SHL AND DUP2 MSTORE PUSH1 0x1 PUSH1 0x1 PUSH1 0xA0 SHL SUB SWAP1 SWAP2 AND PUSH1 0x4 DUP3 ADD MSTORE PUSH1 0x24 DUP2 ADD DUP6 SWAP1 MSTORE PUSH1 0x44 ADD PUSH1 0x20 PUSH1 0x40 MLOAD DUP1 DUP4 SUB DUP2 PUSH1 0x0 DUP8 GAS CALL ISZERO DUP1 ISZERO PUSH2 0x9B8 JUMPI RETURNDATASIZE PUSH1 0x0 DUP1 RETURNDATACOPY RETURNDATASIZE PUSH1 0x0 REVERT JUMPDEST POP POP POP POP PUSH1 0x40 MLOAD RETURNDATASIZE PUSH1 0x1F NOT PUSH1 0x1F DUP3 ADD AND DUP3 ADD DUP1 PUSH1 0x40 MSTORE POP DUP2 ADD SWAP1 PUSH2 0x9DC SWAP2 SWAP1 PUSH2 0x180E JUMP JUMPDEST PUSH1 0x40 DUP1 MLOAD DUP5 DUP2 MSTORE PUSH1 0x20 DUP2 ADD DUP4 SWAP1 MSTORE SWAP2 SWAP3 POP CALLER SWAP2 PUSH32 0x987D620F307FF6B94D58743CB7A7509F24071586A77759B77C2D4E29F75A2F9A SWAP2 ADD PUSH1 0x40 MLOAD DUP1 SWAP2 SUB SWAP1 LOG2 POP JUMPDEST POP POP POP POP JUMPDEST PUSH2 0xA2A PUSH1 0x1 DUP1 SSTORE JUMP JUMPDEST JUMP JUMPDEST PUSH2 0xA2A PUSH2 0xE6D JUMP JUMPDEST PUSH1 0x97 SLOAD CALLER SWAP1 PUSH1 0x1 PUSH1 0x1 PUSH1 0xA0 SHL SUB AND DUP2 EQ PUSH2 0xAB6 JUMPI PUSH1 0x40 MLOAD PUSH3 0x461BCD PUSH1 0xE5 SHL DUP2 MSTORE PUSH1 0x20 PUSH1 0x4 DUP3 ADD MSTORE PUSH1 0x29 PUSH1 0x24 DUP3 ADD MSTORE PUSH32 0x4F776E61626C6532537465703A2063616C6C6572206973206E6F742074686520 PUSH1 0x44 DUP3 ADD MSTORE PUSH32 0x6E6577206F776E65720000000000000000000000000000000000000000000000 PUSH1 0x64 DUP3 ADD MSTORE PUSH1 0x84 ADD PUSH2 0x480 JUMP JUMPDEST PUSH2 0xABF DUP2 PUSH2 0x102B JUMP JUMPDEST POP JUMP JUMPDEST PUSH1 0x0 PUSH1 0xCB SLOAD PUSH1 0xC9 SLOAD PUSH2 0xAD4 SWAP2 SWAP1 PUSH2 0x16A1 JUMP JUMPDEST TIMESTAMP GT ISZERO PUSH2 0xB76 JUMPI PUSH1 0x1 PUSH1 0x1 PUSH1 0xA0 SHL SUB DUP3 AND PUSH1 0x0 SWAP1 DUP2 MSTORE PUSH1 0xCE PUSH1 0x20 MSTORE PUSH1 0x40 DUP2 KECCAK256 SLOAD PUSH1 0xC9 SLOAD SWAP1 SWAP2 SWAP1 PUSH2 0xB04 SWAP1 TIMESTAMP PUSH2 0x17A0 JUMP JUMPDEST SWAP1 POP PUSH1 0xCA SLOAD DUP2 GT ISZERO PUSH2 0xB15 JUMPI POP PUSH1 0xCA SLOAD JUMPDEST PUSH1 0xCA SLOAD PUSH1 0x0 SWAP1 PUSH2 0xB28 PUSH3 0x186A0 DUP5 PUSH2 0x17B3 JUMP JUMPDEST PUSH2 0xB32 SWAP2 SWAP1 PUSH2 0x17CA JUMP JUMPDEST PUSH1 0x1 PUSH1 0x1 PUSH1 0xA0 SHL SUB DUP7 AND PUSH1 0x0 SWAP1 DUP2 MSTORE PUSH1 0xCF PUSH1 0x20 MSTORE PUSH1 0x40 SWAP1 KECCAK256 SLOAD SWAP1 SWAP2 POP PUSH3 0x186A0 PUSH2 0xB5C DUP4 DUP7 PUSH2 0x17B3 JUMP JUMPDEST PUSH2 0xB66 SWAP2 SWAP1 PUSH2 0x17CA JUMP JUMPDEST PUSH2 0xB70 SWAP2 SWAP1 PUSH2 0x17A0 JUMP JUMPDEST SWAP4 POP POP POP POP JUMPDEST SWAP2 SWAP1 POP JUMP JUMPDEST PUSH1 0x0 SLOAD PUSH2 0x100 SWAP1 DIV PUSH1 0xFF AND ISZERO DUP1 DUP1 ISZERO PUSH2 0xB9B JUMPI POP PUSH1 0x0 SLOAD PUSH1 0x1 PUSH1 0xFF SWAP1 SWAP2 AND LT JUMPDEST DUP1 PUSH2 0xBB5 JUMPI POP ADDRESS EXTCODESIZE ISZERO DUP1 ISZERO PUSH2 0xBB5 JUMPI POP PUSH1 0x0 SLOAD PUSH1 0xFF AND PUSH1 0x1 EQ JUMPDEST PUSH2 0xC27 JUMPI PUSH1 0x40 MLOAD PUSH3 0x461BCD PUSH1 0xE5 SHL DUP2 MSTORE PUSH1 0x20 PUSH1 0x4 DUP3 ADD MSTORE PUSH1 0x2E PUSH1 0x24 DUP3 ADD MSTORE PUSH32 0x496E697469616C697A61626C653A20636F6E747261637420697320616C726561 PUSH1 0x44 DUP3 ADD MSTORE PUSH32 0x647920696E697469616C697A6564000000000000000000000000000000000000 PUSH1 0x64 DUP3 ADD MSTORE PUSH1 0x84 ADD PUSH2 0x480 JUMP JUMPDEST PUSH1 0x0 DUP1 SLOAD PUSH32 0xFFFFFFFFFFFFFFFFFFFFFFFFFFFFFFFFFFFFFFFFFFFFFFFFFFFFFFFFFFFFFF00 AND PUSH1 0x1 OR SWAP1 SSTORE DUP1 ISZERO PUSH2 0xC68 JUMPI PUSH1 0x0 DUP1 SLOAD PUSH2 0xFF00 NOT AND PUSH2 0x100 OR SWAP1 SSTORE JUMPDEST PUSH2 0xC70 PUSH2 0x1051 JUMP JUMPDEST PUSH2 0xC78 PUSH2 0x10C4 JUMP JUMPDEST PUSH1 0x1 PUSH1 0x1 PUSH1 0xA0 SHL SUB DUP7 AND PUSH2 0xCCE JUMPI PUSH1 0x40 MLOAD PUSH3 0x461BCD PUSH1 0xE5 SHL DUP2 MSTORE PUSH1 0x20 PUSH1 0x4 DUP3 ADD MSTORE PUSH1 0x14 PUSH1 0x24 DUP3 ADD MSTORE PUSH32 0x43616E2774207573652030782061646472657373000000000000000000000000 PUSH1 0x44 DUP3 ADD MSTORE PUSH1 0x64 ADD PUSH2 0x480 JUMP JUMPDEST PUSH1 0x1 PUSH1 0x1 PUSH1 0xA0 SHL SUB DUP6 AND PUSH2 0xD24 JUMPI PUSH1 0x40 MLOAD PUSH3 0x461BCD PUSH1 0xE5 SHL DUP2 MSTORE PUSH1 0x20 PUSH1 0x4 DUP3 ADD MSTORE PUSH1 0x14 PUSH1 0x24 DUP3 ADD MSTORE PUSH32 0x43616E2774207573652030782061646472657373000000000000000000000000 PUSH1 0x44 DUP3 ADD MSTORE PUSH1 0x64 ADD PUSH2 0x480 JUMP JUMPDEST PUSH1 0xCC DUP1 SLOAD PUSH1 0x1 PUSH1 0x1 PUSH1 0xA0 SHL SUB DUP1 DUP10 AND PUSH20 0xFFFFFFFFFFFFFFFFFFFFFFFFFFFFFFFFFFFFFFFF NOT SWAP3 DUP4 AND OR SWAP1 SWAP3 SSTORE PUSH1 0xCD DUP1 SLOAD SWAP3 DUP9 AND SWAP3 SWAP1 SWAP2 AND SWAP2 SWAP1 SWAP2 OR SWAP1 SSTORE PUSH1 0xC9 DUP5 SWAP1 SSTORE PUSH1 0xCA DUP4 SWAP1 SSTORE PUSH1 0xCB DUP3 SWAP1 SSTORE DUP1 ISZERO PUSH2 0xDB2 JUMPI PUSH1 0x0 DUP1 SLOAD PUSH2 0xFF00 NOT AND SWAP1 SSTORE PUSH1 0x40 MLOAD PUSH1 0x1 DUP2 MSTORE PUSH32 0x7F26B83FF96E1F2B6A682F133852F6798A09C465DA95921460CEFB3847402498 SWAP1 PUSH1 0x20 ADD PUSH2 0x3DF JUMP JUMPDEST POP POP POP POP POP POP JUMP JUMPDEST PUSH1 0x0 PUSH1 0xC9 SLOAD TIMESTAMP GT ISZERO PUSH2 0xB76 JUMPI PUSH1 0x1 PUSH1 0x1 PUSH1 0xA0 SHL SUB DUP3 AND PUSH1 0x0 SWAP1 DUP2 MSTORE PUSH1 0xCE PUSH1 0x20 MSTORE PUSH1 0x40 DUP2 KECCAK256 SLOAD PUSH1 0xC9 SLOAD SWAP1 SWAP2 SWAP1 PUSH2 0xB04 SWAP1 TIMESTAMP PUSH2 0x17A0 JUMP JUMPDEST PUSH2 0xDF7 PUSH2 0xE6D JUMP JUMPDEST PUSH1 0x97 DUP1 SLOAD PUSH1 0x1 PUSH1 0x1 PUSH1 0xA0 SHL SUB DUP4 AND PUSH20 0xFFFFFFFFFFFFFFFFFFFFFFFFFFFFFFFFFFFFFFFF NOT SWAP1 SWAP2 AND DUP2 OR SWAP1 SWAP2 SSTORE PUSH2 0xE35 PUSH1 0x65 SLOAD PUSH1 0x1 PUSH1 0x1 PUSH1 0xA0 SHL SUB AND SWAP1 JUMP JUMPDEST PUSH1 0x1 PUSH1 0x1 PUSH1 0xA0 SHL SUB AND PUSH32 0x38D16B8CAC22D99FC7C124B9CD0DE2D3FA1FAEF420BFE791D8C362D765E22700 PUSH1 0x40 MLOAD PUSH1 0x40 MLOAD DUP1 SWAP2 SUB SWAP1 LOG3 POP JUMP JUMPDEST PUSH1 0x65 SLOAD PUSH1 0x1 PUSH1 0x1 PUSH1 0xA0 SHL SUB AND CALLER EQ PUSH2 0xA2A JUMPI PUSH1 0x40 MLOAD PUSH3 0x461BCD PUSH1 0xE5 SHL DUP2 MSTORE PUSH1 0x20 PUSH1 0x4 DUP3 ADD DUP2 SWAP1 MSTORE PUSH1 0x24 DUP3 ADD MSTORE PUSH32 0x4F776E61626C653A2063616C6C6572206973206E6F7420746865206F776E6572 PUSH1 0x44 DUP3 ADD MSTORE PUSH1 0x64 ADD PUSH2 0x480 JUMP JUMPDEST PUSH1 0x40 MLOAD PUSH1 0x1 PUSH1 0x1 PUSH1 0xA0 SHL SUB DUP1 DUP6 AND PUSH1 0x24 DUP4 ADD MSTORE DUP4 AND PUSH1 0x44 DUP3 ADD MSTORE PUSH1 0x64 DUP2 ADD DUP3 SWAP1 MSTORE PUSH2 0xF78 SWAP1 DUP6 SWAP1 PUSH32 0x23B872DD00000000000000000000000000000000000000000000000000000000 SWAP1 PUSH1 0x84 ADD JUMPDEST PUSH1 0x40 DUP1 MLOAD PUSH1 0x1F NOT DUP2 DUP5 SUB ADD DUP2 MSTORE SWAP2 SWAP1 MSTORE PUSH1 0x20 DUP2 ADD DUP1 MLOAD PUSH28 0xFFFFFFFFFFFFFFFFFFFFFFFFFFFFFFFFFFFFFFFFFFFFFFFFFFFFFFFF AND PUSH32 0xFFFFFFFF00000000000000000000000000000000000000000000000000000000 SWAP1 SWAP4 AND SWAP3 SWAP1 SWAP3 OR SWAP1 SWAP2 MSTORE PUSH2 0x1137 JUMP JUMPDEST POP POP POP POP JUMP JUMPDEST PUSH1 0x40 MLOAD PUSH1 0x1 PUSH1 0x1 PUSH1 0xA0 SHL SUB DUP4 AND PUSH1 0x24 DUP3 ADD MSTORE PUSH1 0x44 DUP2 ADD DUP3 SWAP1 MSTORE PUSH2 0xFC7 SWAP1 DUP5 SWAP1 PUSH32 0xA9059CBB00000000000000000000000000000000000000000000000000000000 SWAP1 PUSH1 0x64 ADD PUSH2 0xF14 JUMP JUMPDEST POP POP POP JUMP JUMPDEST PUSH1 0x2 PUSH1 0x1 SLOAD SUB PUSH2 0x101E JUMPI PUSH1 0x40 MLOAD PUSH3 0x461BCD PUSH1 0xE5 SHL DUP2 MSTORE PUSH1 0x20 PUSH1 0x4 DUP3 ADD MSTORE PUSH1 0x1F PUSH1 0x24 DUP3 ADD MSTORE PUSH32 0x5265656E7472616E637947756172643A207265656E7472616E742063616C6C00 PUSH1 0x44 DUP3 ADD MSTORE PUSH1 0x64 ADD PUSH2 0x480 JUMP JUMPDEST PUSH1 0x2 PUSH1 0x1 SSTORE JUMP JUMPDEST PUSH1 0x1 DUP1 SSTORE JUMP JUMPDEST PUSH1 0x97 DUP1 SLOAD PUSH20 0xFFFFFFFFFFFFFFFFFFFFFFFFFFFFFFFFFFFFFFFF NOT AND SWAP1 SSTORE PUSH2 0xABF DUP2 PUSH2 0x121F JUMP JUMPDEST PUSH1 0x0 SLOAD PUSH2 0x100 SWAP1 DIV PUSH1 0xFF AND PUSH2 0x10BC JUMPI PUSH1 0x40 MLOAD PUSH3 0x461BCD PUSH1 0xE5 SHL DUP2 MSTORE PUSH1 0x20 PUSH1 0x4 DUP3 ADD MSTORE PUSH1 0x2B PUSH1 0x24 DUP3 ADD MSTORE PUSH32 0x496E697469616C697A61626C653A20636F6E7472616374206973206E6F742069 PUSH1 0x44 DUP3 ADD MSTORE PUSH11 0x6E697469616C697A696E67 PUSH1 0xA8 SHL PUSH1 0x64 DUP3 ADD MSTORE PUSH1 0x84 ADD PUSH2 0x480 JUMP JUMPDEST PUSH2 0xA2A PUSH2 0x127E JUMP JUMPDEST PUSH1 0x0 SLOAD PUSH2 0x100 SWAP1 DIV PUSH1 0xFF AND PUSH2 0x112F JUMPI PUSH1 0x40 MLOAD PUSH3 0x461BCD PUSH1 0xE5 SHL DUP2 MSTORE PUSH1 0x20 PUSH1 0x4 DUP3 ADD MSTORE PUSH1 0x2B PUSH1 0x24 DUP3 ADD MSTORE PUSH32 0x496E697469616C697A61626C653A20636F6E7472616374206973206E6F742069 PUSH1 0x44 DUP3 ADD MSTORE PUSH11 0x6E697469616C697A696E67 PUSH1 0xA8 SHL PUSH1 0x64 DUP3 ADD MSTORE PUSH1 0x84 ADD PUSH2 0x480 JUMP JUMPDEST PUSH2 0xA2A PUSH2 0x12E9 JUMP JUMPDEST PUSH1 0x0 PUSH2 0x118C DUP3 PUSH1 0x40 MLOAD DUP1 PUSH1 0x40 ADD PUSH1 0x40 MSTORE DUP1 PUSH1 0x20 DUP2 MSTORE PUSH1 0x20 ADD PUSH32 0x5361666545524332303A206C6F772D6C6576656C2063616C6C206661696C6564 DUP2 MSTORE POP DUP6 PUSH1 0x1 PUSH1 0x1 PUSH1 0xA0 SHL SUB AND PUSH2 0x135D SWAP1 SWAP3 SWAP2 SWAP1 PUSH4 0xFFFFFFFF AND JUMP JUMPDEST SWAP1 POP DUP1 MLOAD PUSH1 0x0 EQ DUP1 PUSH2 0x11AD JUMPI POP DUP1 DUP1 PUSH1 0x20 ADD SWAP1 MLOAD DUP2 ADD SWAP1 PUSH2 0x11AD SWAP2 SWAP1 PUSH2 0x17EC JUMP JUMPDEST PUSH2 0xFC7 JUMPI PUSH1 0x40 MLOAD PUSH3 0x461BCD PUSH1 0xE5 SHL DUP2 MSTORE PUSH1 0x20 PUSH1 0x4 DUP3 ADD MSTORE PUSH1 0x2A PUSH1 0x24 DUP3 ADD MSTORE PUSH32 0x5361666545524332303A204552433230206F7065726174696F6E20646964206E PUSH1 0x44 DUP3 ADD MSTORE PUSH32 0x6F74207375636365656400000000000000000000000000000000000000000000 PUSH1 0x64 DUP3 ADD MSTORE PUSH1 0x84 ADD PUSH2 0x480 JUMP JUMPDEST PUSH1 0x65 DUP1 SLOAD PUSH1 0x1 PUSH1 0x1 PUSH1 0xA0 SHL SUB DUP4 DUP2 AND PUSH20 0xFFFFFFFFFFFFFFFFFFFFFFFFFFFFFFFFFFFFFFFF NOT DUP4 AND DUP2 OR SWAP1 SWAP4 SSTORE PUSH1 0x40 MLOAD SWAP2 AND SWAP2 SWAP1 DUP3 SWAP1 PUSH32 0x8BE0079C531659141344CD1FD0A4F28419497F9722A3DAAFE3B4186F6B6457E0 SWAP1 PUSH1 0x0 SWAP1 LOG3 POP POP JUMP JUMPDEST PUSH1 0x0 SLOAD PUSH2 0x100 SWAP1 DIV PUSH1 0xFF AND PUSH2 0x1025 JUMPI PUSH1 0x40 MLOAD PUSH3 0x461BCD PUSH1 0xE5 SHL DUP2 MSTORE PUSH1 0x20 PUSH1 0x4 DUP3 ADD MSTORE PUSH1 0x2B PUSH1 0x24 DUP3 ADD MSTORE PUSH32 0x496E697469616C697A61626C653A20636F6E7472616374206973206E6F742069 PUSH1 0x44 DUP3 ADD MSTORE PUSH11 0x6E697469616C697A696E67 PUSH1 0xA8 SHL PUSH1 0x64 DUP3 ADD MSTORE PUSH1 0x84 ADD PUSH2 0x480 JUMP JUMPDEST PUSH1 0x0 SLOAD PUSH2 0x100 SWAP1 DIV PUSH1 0xFF AND PUSH2 0x1354 JUMPI PUSH1 0x40 MLOAD PUSH3 0x461BCD PUSH1 0xE5 SHL DUP2 MSTORE PUSH1 0x20 PUSH1 0x4 DUP3 ADD MSTORE PUSH1 0x2B PUSH1 0x24 DUP3 ADD MSTORE PUSH32 0x496E697469616C697A61626C653A20636F6E7472616374206973206E6F742069 PUSH1 0x44 DUP3 ADD MSTORE PUSH11 0x6E697469616C697A696E67 PUSH1 0xA8 SHL PUSH1 0x64 DUP3 ADD MSTORE PUSH1 0x84 ADD PUSH2 0x480 JUMP JUMPDEST PUSH2 0xA2A CALLER PUSH2 0x102B JUMP JUMPDEST PUSH1 0x60 PUSH2 0x136C DUP5 DUP5 PUSH1 0x0 DUP6 PUSH2 0x1374 JUMP JUMPDEST SWAP5 SWAP4 POP POP POP POP JUMP JUMPDEST PUSH1 0x60 DUP3 SELFBALANCE LT ISZERO PUSH2 0x13EC JUMPI PUSH1 0x40 MLOAD PUSH3 0x461BCD PUSH1 0xE5 SHL DUP2 MSTORE PUSH1 0x20 PUSH1 0x4 DUP3 ADD MSTORE PUSH1 0x26 PUSH1 0x24 DUP3 ADD MSTORE PUSH32 0x416464726573733A20696E73756666696369656E742062616C616E636520666F PUSH1 0x44 DUP3 ADD MSTORE PUSH32 0x722063616C6C0000000000000000000000000000000000000000000000000000 PUSH1 0x64 DUP3 ADD MSTORE PUSH1 0x84 ADD PUSH2 0x480 JUMP JUMPDEST PUSH1 0x0 DUP1 DUP7 PUSH1 0x1 PUSH1 0x1 PUSH1 0xA0 SHL SUB AND DUP6 DUP8 PUSH1 0x40 MLOAD PUSH2 0x1408 SWAP2 SWAP1 PUSH2 0x184B JUMP JUMPDEST PUSH1 0x0 PUSH1 0x40 MLOAD DUP1 DUP4 SUB DUP2 DUP6 DUP8 GAS CALL SWAP3 POP POP POP RETURNDATASIZE DUP1 PUSH1 0x0 DUP2 EQ PUSH2 0x1445 JUMPI PUSH1 0x40 MLOAD SWAP2 POP PUSH1 0x1F NOT PUSH1 0x3F RETURNDATASIZE ADD AND DUP3 ADD PUSH1 0x40 MSTORE RETURNDATASIZE DUP3 MSTORE RETURNDATASIZE PUSH1 0x0 PUSH1 0x20 DUP5 ADD RETURNDATACOPY PUSH2 0x144A JUMP JUMPDEST PUSH1 0x60 SWAP2 POP JUMPDEST POP SWAP2 POP SWAP2 POP PUSH2 0x145B DUP8 DUP4 DUP4 DUP8 PUSH2 0x1466 JUMP JUMPDEST SWAP8 SWAP7 POP POP POP POP POP POP POP JUMP JUMPDEST PUSH1 0x60 DUP4 ISZERO PUSH2 0x14D5 JUMPI DUP3 MLOAD PUSH1 0x0 SUB PUSH2 0x14CE JUMPI PUSH1 0x1 PUSH1 0x1 PUSH1 0xA0 SHL SUB DUP6 AND EXTCODESIZE PUSH2 0x14CE JUMPI PUSH1 0x40 MLOAD PUSH3 0x461BCD PUSH1 0xE5 SHL DUP2 MSTORE PUSH1 0x20 PUSH1 0x4 DUP3 ADD MSTORE PUSH1 0x1D PUSH1 0x24 DUP3 ADD MSTORE PUSH32 0x416464726573733A2063616C6C20746F206E6F6E2D636F6E7472616374000000 PUSH1 0x44 DUP3 ADD MSTORE PUSH1 0x64 ADD PUSH2 0x480 JUMP JUMPDEST POP DUP2 PUSH2 0x136C JUMP JUMPDEST PUSH2 0x136C DUP4 DUP4 DUP2 MLOAD ISZERO PUSH2 0x14EA JUMPI DUP2 MLOAD DUP1 DUP4 PUSH1 0x20 ADD REVERT JUMPDEST DUP1 PUSH1 0x40 MLOAD PUSH3 0x461BCD PUSH1 0xE5 SHL DUP2 MSTORE PUSH1 0x4 ADD PUSH2 0x480 SWAP2 SWAP1 PUSH2 0x1867 JUMP JUMPDEST DUP1 CALLDATALOAD PUSH1 0x1 PUSH1 0x1 PUSH1 0xA0 SHL SUB DUP2 AND DUP2 EQ PUSH2 0xB76 JUMPI PUSH1 0x0 DUP1 REVERT JUMPDEST PUSH1 0x0 PUSH1 0x20 DUP3 DUP5 SUB SLT ISZERO PUSH2 0x152D JUMPI PUSH1 0x0 DUP1 REVERT JUMPDEST PUSH2 0x1536 DUP3 PUSH2 0x1504 JUMP JUMPDEST SWAP4 SWAP3 POP POP POP JUMP JUMPDEST PUSH1 0x0 DUP1 DUP4 PUSH1 0x1F DUP5 ADD SLT PUSH2 0x154F JUMPI PUSH1 0x0 DUP1 REVERT JUMPDEST POP DUP2 CALLDATALOAD PUSH8 0xFFFFFFFFFFFFFFFF DUP2 GT ISZERO PUSH2 0x1567 JUMPI PUSH1 0x0 DUP1 REVERT JUMPDEST PUSH1 0x20 DUP4 ADD SWAP2 POP DUP4 PUSH1 0x20 DUP3 PUSH1 0x5 SHL DUP6 ADD ADD GT ISZERO PUSH2 0x1582 JUMPI PUSH1 0x0 DUP1 REVERT JUMPDEST SWAP3 POP SWAP3 SWAP1 POP JUMP JUMPDEST PUSH1 0x0 DUP1 PUSH1 0x0 DUP1 PUSH1 0x40 DUP6 DUP8 SUB SLT ISZERO PUSH2 0x159F JUMPI PUSH1 0x0 DUP1 REVERT JUMPDEST DUP5 CALLDATALOAD PUSH8 0xFFFFFFFFFFFFFFFF DUP1 DUP3 GT ISZERO PUSH2 0x15B7 JUMPI PUSH1 0x0 DUP1 REVERT JUMPDEST PUSH2 0x15C3 DUP9 DUP4 DUP10 ADD PUSH2 0x153D JUMP JUMPDEST SWAP1 SWAP7 POP SWAP5 POP PUSH1 0x20 DUP8 ADD CALLDATALOAD SWAP2 POP DUP1 DUP3 GT ISZERO PUSH2 0x15DC JUMPI PUSH1 0x0 DUP1 REVERT JUMPDEST POP PUSH2 0x15E9 DUP8 DUP3 DUP9 ADD PUSH2 0x153D JUMP JUMPDEST SWAP6 SWAP9 SWAP5 SWAP8 POP SWAP6 POP POP POP POP JUMP JUMPDEST PUSH1 0x0 DUP1 PUSH1 0x40 DUP4 DUP6 SUB SLT ISZERO PUSH2 0x1608 JUMPI PUSH1 0x0 DUP1 REVERT JUMPDEST PUSH2 0x1611 DUP4 PUSH2 0x1504 JUMP JUMPDEST SWAP2 POP PUSH2 0x161F PUSH1 0x20 DUP5 ADD PUSH2 0x1504 JUMP JUMPDEST SWAP1 POP SWAP3 POP SWAP3 SWAP1 POP JUMP JUMPDEST PUSH1 0x0 DUP1 PUSH1 0x0 DUP1 PUSH1 0x0 PUSH1 0xA0 DUP7 DUP9 SUB SLT ISZERO PUSH2 0x1640 JUMPI PUSH1 0x0 DUP1 REVERT JUMPDEST PUSH2 0x1649 DUP7 PUSH2 0x1504 JUMP JUMPDEST SWAP5 POP PUSH2 0x1657 PUSH1 0x20 DUP8 ADD PUSH2 0x1504 JUMP JUMPDEST SWAP5 SWAP8 SWAP5 SWAP7 POP POP POP POP PUSH1 0x40 DUP4 ADD CALLDATALOAD SWAP3 PUSH1 0x60 DUP2 ADD CALLDATALOAD SWAP3 PUSH1 0x80 SWAP1 SWAP2 ADD CALLDATALOAD SWAP2 POP JUMP JUMPDEST PUSH4 0x4E487B71 PUSH1 0xE0 SHL PUSH1 0x0 MSTORE PUSH1 0x32 PUSH1 0x4 MSTORE PUSH1 0x24 PUSH1 0x0 REVERT JUMPDEST PUSH4 0x4E487B71 PUSH1 0xE0 SHL PUSH1 0x0 MSTORE PUSH1 0x11 PUSH1 0x4 MSTORE PUSH1 0x24 PUSH1 0x0 REVERT JUMPDEST DUP1 DUP3 ADD DUP1 DUP3 GT ISZERO PUSH2 0x16B4 JUMPI PUSH2 0x16B4 PUSH2 0x168B JUMP JUMPDEST SWAP3 SWAP2 POP POP JUMP JUMPDEST PUSH1 0x0 PUSH32 0xFFFFFFFFFFFFFFFFFFFFFFFFFFFFFFFFFFFFFFFFFFFFFFFFFFFFFFFFFFFFFFFF DUP3 SUB PUSH2 0x16EB JUMPI PUSH2 0x16EB PUSH2 0x168B JUMP JUMPDEST POP PUSH1 0x1 ADD SWAP1 JUMP JUMPDEST PUSH1 0x1 PUSH1 0x1 PUSH1 0xA0 SHL SUB DUP8 DUP2 AND DUP3 MSTORE PUSH1 0x80 PUSH1 0x20 DUP1 DUP5 ADD DUP3 SWAP1 MSTORE SWAP1 DUP4 ADD DUP8 SWAP1 MSTORE PUSH1 0x0 SWAP2 DUP9 SWAP2 PUSH1 0xA0 DUP6 ADD DUP5 JUMPDEST DUP11 DUP2 LT ISZERO PUSH2 0x173F JUMPI DUP4 PUSH2 0x172C DUP7 PUSH2 0x1504 JUMP JUMPDEST AND DUP3 MSTORE SWAP4 DUP3 ADD SWAP4 SWAP1 DUP3 ADD SWAP1 PUSH1 0x1 ADD PUSH2 0x171A JUMP JUMPDEST POP DUP6 DUP2 SUB PUSH1 0x40 DUP8 ADD MSTORE DUP8 DUP2 MSTORE PUSH32 0x7FFFFFFFFFFFFFFFFFFFFFFFFFFFFFFFFFFFFFFFFFFFFFFFFFFFFFFFFFFFFFF DUP9 GT ISZERO PUSH2 0x1778 JUMPI PUSH1 0x0 DUP1 REVERT JUMPDEST DUP8 PUSH1 0x5 SHL SWAP4 POP DUP4 DUP10 DUP4 DUP4 ADD CALLDATACOPY DUP2 DUP5 DUP3 ADD ADD SWAP5 POP POP POP POP POP DUP3 PUSH1 0x60 DUP4 ADD MSTORE SWAP8 SWAP7 POP POP POP POP POP POP POP JUMP JUMPDEST DUP2 DUP2 SUB DUP2 DUP2 GT ISZERO PUSH2 0x16B4 JUMPI PUSH2 0x16B4 PUSH2 0x168B JUMP JUMPDEST DUP1 DUP3 MUL DUP2 ISZERO DUP3 DUP3 DIV DUP5 EQ OR PUSH2 0x16B4 JUMPI PUSH2 0x16B4 PUSH2 0x168B JUMP JUMPDEST PUSH1 0x0 DUP3 PUSH2 0x17E7 JUMPI PUSH4 0x4E487B71 PUSH1 0xE0 SHL PUSH1 0x0 MSTORE PUSH1 0x12 PUSH1 0x4 MSTORE PUSH1 0x24 PUSH1 0x0 REVERT JUMPDEST POP DIV SWAP1 JUMP JUMPDEST PUSH1 0x0 PUSH1 0x20 DUP3 DUP5 SUB SLT ISZERO PUSH2 0x17FE JUMPI PUSH1 0x0 DUP1 REVERT JUMPDEST DUP2 MLOAD DUP1 ISZERO ISZERO DUP2 EQ PUSH2 0x1536 JUMPI PUSH1 0x0 DUP1 REVERT JUMPDEST PUSH1 0x0 PUSH1 0x20 DUP3 DUP5 SUB SLT ISZERO PUSH2 0x1820 JUMPI PUSH1 0x0 DUP1 REVERT JUMPDEST POP MLOAD SWAP2 SWAP1 POP JUMP JUMPDEST PUSH1 0x0 JUMPDEST DUP4 DUP2 LT ISZERO PUSH2 0x1842 JUMPI DUP2 DUP2 ADD MLOAD DUP4 DUP3 ADD MSTORE PUSH1 0x20 ADD PUSH2 0x182A JUMP JUMPDEST POP POP PUSH1 0x0 SWAP2 ADD MSTORE JUMP JUMPDEST PUSH1 0x0 DUP3 MLOAD PUSH2 0x185D DUP2 DUP5 PUSH1 0x20 DUP8 ADD PUSH2 0x1827 JUMP JUMPDEST SWAP2 SWAP1 SWAP2 ADD SWAP3 SWAP2 POP POP JUMP JUMPDEST PUSH1 0x20 DUP2 MSTORE PUSH1 0x0 DUP3 MLOAD DUP1 PUSH1 0x20 DUP5 ADD MSTORE PUSH2 0x1886 DUP2 PUSH1 0x40 DUP6 ADD PUSH1 0x20 DUP8 ADD PUSH2 0x1827 JUMP JUMPDEST PUSH1 0x1F ADD PUSH1 0x1F NOT AND SWAP2 SWAP1 SWAP2 ADD PUSH1 0x40 ADD SWAP3 SWAP2 POP POP JUMP INVALID LOG2 PUSH5 0x6970667358 0x22 SLT KECCAK256 0xBB 0xB1 0xC6 PUSH29 0x185C0A4E3C89F321BBBE5EB252E5D1BBF058EAE2F724C5A9E17AD1E764 PUSH20 0x6F6C634300081200330000000000000000000000 "},"methodIdentifiers":{"NO_CLAIM_DURATION()":"51242450","PRECISION()":"aaf5eb68","START_VESTING()":"aa264c9b","VESTING_DURATION()":"4cfc4d30","acceptOwnership()":"79ba5097","changeReceiver(address,address)":"4c69ec93","claim()":"4e71d92d","claimableAmount(address)":"89885049","claimableNow(address)":"9a78ea4a","claimableWithoutCliff(address)":"de6aa92b","claimedAmount(address)":"04e86903","initialize(address,address,uint256,uint256,uint256)":"d13f90b4","intx()":"46f7d6c9","owner()":"8da5cb5b","pendingOwner()":"e30c3978","renounceOwnership()":"715018a6","setAllocations(address[],uint256[])":"1ff64acd","transferOwnership(address)":"f2fde38b","xIntx()":"27a7af89"}},"storageLayout":{"storage":[{"astId":246,"contract":"contracts/vestings/VestingXINTX.sol:VestingXINTX","label":"_initialized","offset":0,"slot":"0","type":"t_uint8"},{"astId":249,"contract":"contracts/vestings/VestingXINTX.sol:VestingXINTX","label":"_initializing","offset":1,"slot":"0","type":"t_bool"},{"astId":423,"contract":"contracts/vestings/VestingXINTX.sol:VestingXINTX","label":"_status","offset":0,"slot":"1","type":"t_uint256"},{"astId":492,"contract":"contracts/vestings/VestingXINTX.sol:VestingXINTX","label":"__gap","offset":0,"slot":"2","type":"t_array(t_uint256)49_storage"},{"astId":1363,"contract":"contracts/vestings/VestingXINTX.sol:VestingXINTX","label":"__gap","offset":0,"slot":"51","type":"t_array(t_uint256)50_storage"},{"astId":118,"contract":"contracts/vestings/VestingXINTX.sol:VestingXINTX","label":"_owner","offset":0,"slot":"101","type":"t_address"},{"astId":238,"contract":"contracts/vestings/VestingXINTX.sol:VestingXINTX","label":"__gap","offset":0,"slot":"102","type":"t_array(t_uint256)49_storage"},{"astId":11,"contract":"contracts/vestings/VestingXINTX.sol:VestingXINTX","label":"_pendingOwner","offset":0,"slot":"151","type":"t_address"},{"astId":105,"contract":"contracts/vestings/VestingXINTX.sol:VestingXINTX","label":"__gap","offset":0,"slot":"152","type":"t_array(t_uint256)49_storage"},{"astId":2616,"contract":"contracts/vestings/VestingXINTX.sol:VestingXINTX","label":"START_VESTING","offset":0,"slot":"201","type":"t_uint256"},{"astId":2618,"contract":"contracts/vestings/VestingXINTX.sol:VestingXINTX","label":"VESTING_DURATION","offset":0,"slot":"202","type":"t_uint256"},{"astId":2620,"contract":"contracts/vestings/VestingXINTX.sol:VestingXINTX","label":"NO_CLAIM_DURATION","offset":0,"slot":"203","type":"t_uint256"},{"astId":2623,"contract":"contracts/vestings/VestingXINTX.sol:VestingXINTX","label":"intx","offset":0,"slot":"204","type":"t_contract(IERC20)1442"},{"astId":2626,"contract":"contracts/vestings/VestingXINTX.sol:VestingXINTX","label":"xIntx","offset":0,"slot":"205","type":"t_contract(IStakedINTX)2603"},{"astId":2630,"contract":"contracts/vestings/VestingXINTX.sol:VestingXINTX","label":"claimableAmount","offset":0,"slot":"206","type":"t_mapping(t_address,t_uint256)"},{"astId":2634,"contract":"contracts/vestings/VestingXINTX.sol:VestingXINTX","label":"claimedAmount","offset":0,"slot":"207","type":"t_mapping(t_address,t_uint256)"}],"types":{"t_address":{"encoding":"inplace","label":"address","numberOfBytes":"20"},"t_array(t_uint256)49_storage":{"base":"t_uint256","encoding":"inplace","label":"uint256[49]","numberOfBytes":"1568"},"t_array(t_uint256)50_storage":{"base":"t_uint256","encoding":"inplace","label":"uint256[50]","numberOfBytes":"1600"},"t_bool":{"encoding":"inplace","label":"bool","numberOfBytes":"1"},"t_contract(IERC20)1442":{"encoding":"inplace","label":"contract IERC20","numberOfBytes":"20"},"t_contract(IStakedINTX)2603":{"encoding":"inplace","label":"contract IStakedINTX","numberOfBytes":"20"},"t_mapping(t_address,t_uint256)":{"encoding":"mapping","key":"t_address","label":"mapping(address => uint256)","numberOfBytes":"32","value":"t_uint256"},"t_uint256":{"encoding":"inplace","label":"uint256","numberOfBytes":"32"},"t_uint8":{"encoding":"inplace","label":"uint8","numberOfBytes":"1"}}}}}}