{"contracts/nouse/PublicSaleINTX.sol":{"PublicSaleINTX":{"abi":[{"inputs":[],"stateMutability":"nonpayable","type":"constructor"},{"anonymous":false,"inputs":[{"indexed":false,"internalType":"address","name":"changedBy","type":"address"},{"indexed":true,"internalType":"address","name":"_oldAddress","type":"address"},{"indexed":true,"internalType":"address","name":"_newAddress","type":"address"}],"name":"AllocationChanged","type":"event"},{"anonymous":false,"inputs":[{"indexed":true,"internalType":"address","name":"user","type":"address"},{"indexed":false,"internalType":"uint256","name":"usdcAmount","type":"uint256"},{"indexed":false,"internalType":"uint256","name":"intxAmount","type":"uint256"},{"indexed":false,"internalType":"uint256","name":"intxAmountTotal","type":"uint256"}],"name":"Bought","type":"event"},{"anonymous":false,"inputs":[{"indexed":true,"internalType":"address","name":"user","type":"address"},{"indexed":false,"internalType":"uint256","name":"amount","type":"uint256"},{"indexed":false,"internalType":"uint256","name":"_tokenId","type":"uint256"}],"name":"Claimed","type":"event"},{"anonymous":false,"inputs":[{"indexed":false,"internalType":"uint8","name":"version","type":"uint8"}],"name":"Initialized","type":"event"},{"anonymous":false,"inputs":[{"indexed":true,"internalType":"address","name":"previousOwner","type":"address"},{"indexed":true,"internalType":"address","name":"newOwner","type":"address"}],"name":"OwnershipTransferStarted","type":"event"},{"anonymous":false,"inputs":[{"indexed":true,"internalType":"address","name":"previousOwner","type":"address"},{"indexed":true,"internalType":"address","name":"newOwner","type":"address"}],"name":"OwnershipTransferred","type":"event"},{"anonymous":false,"inputs":[{"indexed":false,"internalType":"address","name":"operator","type":"address"},{"indexed":false,"internalType":"uint256","name":"amount","type":"uint256"}],"name":"Seeded","type":"event"},{"anonymous":false,"inputs":[{"indexed":false,"internalType":"address","name":"operator","type":"address"},{"indexed":false,"internalType":"address","name":"_to","type":"address"},{"indexed":false,"internalType":"uint256","name":"amount","type":"uint256"}],"name":"Withdraw","type":"event"},{"anonymous":false,"inputs":[{"indexed":false,"internalType":"address","name":"operator","type":"address"},{"indexed":false,"internalType":"address","name":"_to","type":"address"},{"indexed":false,"internalType":"uint256","name":"amount","type":"uint256"}],"name":"WithdrawUnallocatedIntx","type":"event"},{"inputs":[],"name":"PRECISION","outputs":[{"internalType":"uint256","name":"","type":"uint256"}],"stateMutability":"view","type":"function"},{"inputs":[],"name":"START_SALE","outputs":[{"internalType":"uint256","name":"","type":"uint256"}],"stateMutability":"view","type":"function"},{"inputs":[],"name":"START_VESTING","outputs":[{"internalType":"uint256","name":"","type":"uint256"}],"stateMutability":"view","type":"function"},{"inputs":[],"name":"VESTING_DURATION","outputs":[{"internalType":"uint256","name":"","type":"uint256"}],"stateMutability":"view","type":"function"},{"inputs":[],"name":"acceptOwnership","outputs":[],"stateMutability":"nonpayable","type":"function"},{"inputs":[],"name":"allowChange","outputs":[{"internalType":"bool","name":"","type":"bool"}],"stateMutability":"view","type":"function"},{"inputs":[{"internalType":"uint256","name":"_amount","type":"uint256"}],"name":"buy","outputs":[],"stateMutability":"nonpayable","type":"function"},{"inputs":[{"internalType":"address","name":"_newAddress","type":"address"}],"name":"changeReceiver","outputs":[],"stateMutability":"nonpayable","type":"function"},{"inputs":[],"name":"claim","outputs":[],"stateMutability":"nonpayable","type":"function"},{"inputs":[{"internalType":"address","name":"","type":"address"}],"name":"claimableAmount","outputs":[{"internalType":"uint256","name":"","type":"uint256"}],"stateMutability":"view","type":"function"},{"inputs":[{"internalType":"address","name":"","type":"address"}],"name":"claimedAmount","outputs":[{"internalType":"uint256","name":"","type":"uint256"}],"stateMutability":"view","type":"function"},{"inputs":[],"name":"deposit","outputs":[],"stateMutability":"nonpayable","type":"function"},{"inputs":[{"internalType":"address","name":"_intx","type":"address"},{"internalType":"address","name":"_raiseToken","type":"address"},{"internalType":"address","name":"_xIntx","type":"address"},{"internalType":"address","name":"_multisig","type":"address"},{"internalType":"uint256","name":"_startSale","type":"uint256"},{"internalType":"uint256","name":"_saleDuration","type":"uint256"}],"name":"initialize","outputs":[],"stateMutability":"nonpayable","type":"function"},{"inputs":[],"name":"instantPercentage","outputs":[{"internalType":"uint256","name":"","type":"uint256"}],"stateMutability":"view","type":"function"},{"inputs":[],"name":"intx","outputs":[{"internalType":"contract IERC20","name":"","type":"address"}],"stateMutability":"view","type":"function"},{"inputs":[],"name":"minBuy","outputs":[{"internalType":"uint256","name":"","type":"uint256"}],"stateMutability":"view","type":"function"},{"inputs":[],"name":"multisig","outputs":[{"internalType":"address","name":"","type":"address"}],"stateMutability":"view","type":"function"},{"inputs":[],"name":"owner","outputs":[{"internalType":"address","name":"","type":"address"}],"stateMutability":"view","type":"function"},{"inputs":[],"name":"pendingOwner","outputs":[{"internalType":"address","name":"","type":"address"}],"stateMutability":"view","type":"function"},{"inputs":[],"name":"raiseToken","outputs":[{"internalType":"contract IERC20","name":"","type":"address"}],"stateMutability":"view","type":"function"},{"inputs":[],"name":"renounceOwnership","outputs":[],"stateMutability":"nonpayable","type":"function"},{"inputs":[],"name":"seeded","outputs":[{"internalType":"bool","name":"","type":"bool"}],"stateMutability":"view","type":"function"},{"inputs":[],"name":"totalAllocation","outputs":[{"internalType":"uint256","name":"","type":"uint256"}],"stateMutability":"view","type":"function"},{"inputs":[],"name":"totalClaimable","outputs":[{"internalType":"uint256","name":"","type":"uint256"}],"stateMutability":"view","type":"function"},{"inputs":[],"name":"totalRaised","outputs":[{"internalType":"uint256","name":"","type":"uint256"}],"stateMutability":"view","type":"function"},{"inputs":[],"name":"totalToRaise","outputs":[{"internalType":"uint256","name":"","type":"uint256"}],"stateMutability":"view","type":"function"},{"inputs":[{"internalType":"address","name":"newOwner","type":"address"}],"name":"transferOwnership","outputs":[],"stateMutability":"nonpayable","type":"function"},{"inputs":[],"name":"withdraw","outputs":[],"stateMutability":"nonpayable","type":"function"},{"inputs":[],"name":"withdrawUnallocatedIntx","outputs":[],"stateMutability":"nonpayable","type":"function"},{"inputs":[],"name":"xIntx","outputs":[{"internalType":"contract IStakedINTX","name":"","type":"address"}],"stateMutability":"view","type":"function"}],"evm":{"bytecode":{"linkReferences":{},"object":"608060405234801561001057600080fd5b5061001961001e565b6100dd565b600054610100900460ff161561008a5760405162461bcd60e51b815260206004820152602760248201527f496e697469616c697a61626c653a20636f6e747261637420697320696e697469604482015266616c697a696e6760c81b606482015260840160405180910390fd5b60005460ff908116146100db576000805460ff191660ff9081179091556040519081527f7f26b83ff96e1f2b6a682f133852f6798a09c465da95921460cefb38474024989060200160405180910390a15b565b611f5d806100ec6000396000f3fe608060405234801561001057600080fd5b50600436106101da5760003560e01c8063715018a611610104578063aaf5eb68116100a2578063d7c41c7911610071578063d7c41c7914610388578063d96a094a1461039b578063e30c3978146103ae578063f2fde38b146103bf57600080fd5b8063aaf5eb6814610349578063c5c4744c14610352578063d0e30db01461035b578063d5ff56f81461036357600080fd5b8063827d606f116100de578063827d606f14610306578063898850491461030f5780638da5cb5b1461032f578063aa264c9b1461034057600080fd5b8063715018a6146102ed57806379203dc4146102f557806379ba5097146102fe57600080fd5b806346f7d6c91161017c5780634da60aa51161014b5780634da60aa5146102b65780634e71d92d146102c9578063547e3f06146102d15780637107d7a6146102e457600080fd5b806346f7d6c91461027e5780634783c35b146102915780634838ed19146102a45780634cfc4d30146102ad57600080fd5b806327a7af89116101b857806327a7af891461022457806330dfa3b51461024f578063334041a6146102595780633ccfd60b1461027657600080fd5b806304e86903146101df5780631ce48df11461021257806320df16bf1461021b575b600080fd5b6101ff6101ed366004611d2b565b60d86020526000908152604090205481565b6040519081526020015b60405180910390f35b6101ff60cf5481565b6101ff60ca5481565b60d654610237906001600160a01b031681565b6040516001600160a01b039091168152602001610209565b6102576103d2565b005b60d2546102669060ff1681565b6040519015158152602001610209565b610257610505565b60d454610237906001600160a01b031681565b60cd54610237906001600160a01b031681565b6101ff60d35481565b6101ff60cc5481565b60d554610237906001600160a01b031681565b61025761064f565b6102576102df366004611d2b565b6109e2565b6101ff60d15481565b610257610d66565b6101ff60ce5481565b610257610d6e565b6101ff60c95481565b6101ff61031d366004611d2b565b60d76020526000908152604090205481565b6065546001600160a01b0316610237565b6101ff60cb5481565b6101ff61271081565b6101ff60d05481565b610257610dfc565b60cd546102669074010000000000000000000000000000000000000000900460ff1681565b610257610396366004611d4d565b610fa7565b6102576103a9366004611db3565b61130b565b6097546001600160a01b0316610237565b6102576103cd366004611d2b565b6115fa565b6103da611678565b60cb544210156104315760405162461bcd60e51b815260206004820152601660248201527f53616c65206861736e277420656e646564207965742e0000000000000000000060448201526064015b60405180910390fd5b600060d35460ce546104439190611dfb565b9050600081116104955760405162461bcd60e51b815260206004820152601b60248201527f4e6f7420656e6f75676820496e747820746f20776974686472617700000000006044820152606401610428565b60cd5460d4546104b2916001600160a01b039182169116836116d2565b7fa8eedbde77077f55b0c6b1efc969f0dab23c2165782975efb36419cd89965460335b60cd54604080516001600160a01b039384168152929091166020830152810183905260600160405180910390a150565b61050d611678565b60d5546040517f70a082310000000000000000000000000000000000000000000000000000000081523060048201526000916001600160a01b0316906370a0823190602401602060405180830381865afa15801561056f573d6000803e3d6000fd5b505050506040513d601f19601f820116820180604052508101906105939190611e14565b90506000811161060b5760405162461bcd60e51b815260206004820152602160248201527f4e6f7420656e6f756768207261697365546f6b656e20746f207769746864726160448201527f77000000000000000000000000000000000000000000000000000000000000006064820152608401610428565b60cd5460d554610628916001600160a01b039182169116836116d2565b7f9b1bfa7fa9ee420a16e124f794c35ac9f90472acc99140eb2f6447c714cad8eb336104d5565b610657611780565b60cb544210156106a95760405162461bcd60e51b815260206004820152601b60248201527f56657374696e67206861736e27742073746172746564207965742e00000000006044820152606401610428565b33600090815260d76020526040812054900361072d5760405162461bcd60e51b815260206004820152602e60248201527f54686973206164647265737320646f65736e2774206861766520616e7920616d60448201527f6f756e7420746f20636c61696d2e0000000000000000000000000000000000006064820152608401610428565b33600090815260d7602090815260408083205460d890925290912054106107bc5760405162461bcd60e51b815260206004820152602c60248201527f596f75206861766520616c726561647920636c61696d656420616c6c20796f7560448201527f7220616c6c6f636174696f6e00000000000000000000000000000000000000006064820152608401610428565b60cb544211156109d757600061271060c95460d760006107d93390565b6001600160a01b03166001600160a01b03168152602001908152602001600020546108049190611e2d565b61080e9190611e44565b9050600061271060c9546127106108259190611dfb565b33600090815260d7602052604090205461083f9190611e2d565b6108499190611e44565b9050600060cb544261085b9190611dfb565b905060cc5481111561086c575060cc545b60cc5460009061087e61271084611e2d565b6108889190611e44565b33600090815260d86020526040812054919250906127106108a98487611e2d565b6108b39190611e44565b6108bd9087611e7f565b6108c79190611dfb565b905080156109d15733600090815260d86020526040812080548392906108ee908490611e7f565b909155505060d6546000906001600160a01b0316632ee40908336040517fffffffff0000000000000000000000000000000000000000000000000000000060e084901b1681526001600160a01b039091166004820152602481018590526044016020604051808303816000875af115801561096d573d6000803e3d6000fd5b505050506040513d601f19601f820116820180604052508101906109919190611e14565b604080518481526020810183905291925033917f987d620f307ff6b94d58743cb7a7509f24071586a77759b77c2d4e29f75a2f9a910160405180910390a2505b50505050505b6109e060018055565b565b60cb54421015610a345760405162461bcd60e51b815260206004820152601b60248201527f56657374696e67206861736e27742073746172746564207965742e00000000006044820152606401610428565b60cd5474010000000000000000000000000000000000000000900460ff16610aea5760405162461bcd60e51b815260206004820152604660248201527f546869732076657374696e6720636f6e747261637420646f65736e277420616c60448201527f6c6f7720796f7520746f206368616e676520746865207265636569766572206160648201527f6464726573730000000000000000000000000000000000000000000000000000608482015260a401610428565b6001600160a01b038116610b665760405162461bcd60e51b815260206004820152603660248201527f4e657720616c6c6f636174696f6e2072656365697665722063616e277420626560448201527f20746865203078303030302e2e2e2061646472657373000000000000000000006064820152608401610428565b33600081815260d760205260408120549003610bc45760405162461bcd60e51b815260206004820152601e60248201527f596f7520646f6e2774206861766520616e7920616c6c6f636174696f6e2e00006044820152606401610428565b6001600160a01b038216600090815260d7602052604090205415610c505760405162461bcd60e51b815260206004820152602d60248201527f546865206e6577206164647265737320616c726561647920686173206120766560448201527f7374696e6720616d6f756e742e000000000000000000000000000000000000006064820152608401610428565b6001600160a01b038116600090815260d7602090815260408083205460d89092529091205410610ce85760405162461bcd60e51b815260206004820152602d60248201527f596f75206861766520616c726561647920636c61696d656420616c6c20796f7560448201527f7220616c6c6f636174696f6e2e000000000000000000000000000000000000006064820152608401610428565b6001600160a01b03818116600081815260d76020908152604080832080549588168085528285209690965584845260d883528184208054878652838620558585529084905592909255815133815291517f4e87e17c55076158dc051ffe67edb8c0abf946f53612656c46f887ac1f9c486c9281900390910190a35050565b6109e0611678565b60975433906001600160a01b03168114610df05760405162461bcd60e51b815260206004820152602960248201527f4f776e61626c6532537465703a2063616c6c6572206973206e6f74207468652060448201527f6e6577206f776e657200000000000000000000000000000000000000000000006064820152608401610428565b610df9816117df565b50565b610e04611678565b60d25460ff1615610e7d5760405162461bcd60e51b815260206004820152603460248201527f56657374696e6720436f6e747261637420416c7265616479207365656465642060448201527f7769746820696e697469616c20616d6f756e742e0000000000000000000000006064820152608401610428565b610e993360ce5460d4546001600160a01b031691903090611805565b60d45460d6546040517f095ea7b30000000000000000000000000000000000000000000000000000000081526001600160a01b0391821660048201527fffffffffffffffffffffffffffffffffffffffffffffffffffffffffffffffff602482015291169063095ea7b3906044016020604051808303816000875af1158015610f26573d6000803e3d6000fd5b505050506040513d601f19601f82011682018060405250810190610f4a9190611e92565b5060d2805460ff191660011790557f6189b14a5c1490dbeb86a9da875768d98dc98fb398d6b29dd475defaa1ec4ba3610f803390565b60ce54604080516001600160a01b03909316835260208301919091520160405180910390a1565b600054610100900460ff1615808015610fc75750600054600160ff909116105b80610fe15750303b158015610fe1575060005460ff166001145b6110535760405162461bcd60e51b815260206004820152602e60248201527f496e697469616c697a61626c653a20636f6e747261637420697320616c72656160448201527f647920696e697469616c697a65640000000000000000000000000000000000006064820152608401610428565b6000805460ff191660011790558015611076576000805461ff0019166101001790555b61107e61185c565b6110866118cf565b6001600160a01b0387166110dc5760405162461bcd60e51b815260206004820152601460248201527f43616e27742075736520307820616464726573730000000000000000000000006044820152606401610428565b6001600160a01b0386166111325760405162461bcd60e51b815260206004820152601460248201527f43616e27742075736520307820616464726573730000000000000000000000006044820152606401610428565b6001600160a01b0385166111885760405162461bcd60e51b815260206004820152601460248201527f43616e27742075736520307820616464726573730000000000000000000000006044820152606401610428565b6001600160a01b0384166111de5760405162461bcd60e51b815260206004820152601460248201527f43616e27742075736520307820616464726573730000000000000000000000006044820152606401610428565b60d480546001600160a01b03808a1673ffffffffffffffffffffffffffffffffffffffff199283161790925560d5805489841690831617905560d6805488841690831617905560cd80549287169290911691909117905560ca8390556112448284611e7f565b60cb5562eff10060cc5561125b6002612710611e44565b60c9556a01a784379d99db4200000060ce55645d21dba00060cf556298968060d15560cd80547fffffffffffffffffffffff00ffffffffffffffffffffffffffffffffffffffff16740100000000000000000000000000000000000000001790558015611302576000805461ff0019169055604051600181527f7f26b83ff96e1f2b6a682f133852f6798a09c465da95921460cefb38474024989060200160405180910390a15b50505050505050565b60cf5460d054111561135f5760405162461bcd60e51b815260206004820152601a60248201527f416c6c2052616973652068617665206265656e2066696c6c65640000000000006044820152606401610428565b60cb544211156113b15760405162461bcd60e51b815260206004820152600f60248201527f53616c652068617320656e6465642e00000000000000000000000000000000006044820152606401610428565b60ca544210156114035760405162461bcd60e51b815260206004820152601860248201527f53616c65206861736e27742073746172746564207965742e00000000000000006044820152606401610428565b60d15481101561147b5760405162461bcd60e51b815260206004820152602360248201527f596f752063616e277420696e76657374206c657373207468616e20313020555360448201527f44432e00000000000000000000000000000000000000000000000000000000006064820152608401610428565b60d25460ff166114f35760405162461bcd60e51b815260206004820152602860248201527f56657374696e6720436f6e7472616374206861736e2774206265656e2073656560448201527f646564207965742e0000000000000000000000000000000000000000000000006064820152608401610428565b60cf5460d0546115039083611e7f565b111561151c5760d05460cf546115199190611dfb565b90505b6115343360d5546001600160a01b0316903084611805565b8060d060008282546115469190611e7f565b92505081905550600060cf548260ce546115609190611e2d565b61156a9190611e44565b90508060d3600082825461157e9190611e7f565b909155505033600090815260d76020526040812080548392906115a2908490611e7f565b909155505033600081815260d760209081526040918290205482518681529182018590528183015290517fedba86fd2b22962d534e70ad9b0ff8730de46f636146f2bab6a72cbb1ebbcc539181900360600190a25050565b611602611678565b609780546001600160a01b03831673ffffffffffffffffffffffffffffffffffffffff1990911681179091556116406065546001600160a01b031690565b6001600160a01b03167f38d16b8cac22d99fc7c124b9cd0de2d3fa1faef420bfe791d8c362d765e2270060405160405180910390a350565b6065546001600160a01b031633146109e05760405162461bcd60e51b815260206004820181905260248201527f4f776e61626c653a2063616c6c6572206973206e6f7420746865206f776e65726044820152606401610428565b6040516001600160a01b03831660248201526044810182905261177b9084907fa9059cbb00000000000000000000000000000000000000000000000000000000906064015b60408051601f198184030181529190526020810180517bffffffffffffffffffffffffffffffffffffffffffffffffffffffff167fffffffff0000000000000000000000000000000000000000000000000000000090931692909217909152611942565b505050565b6002600154036117d25760405162461bcd60e51b815260206004820152601f60248201527f5265656e7472616e637947756172643a207265656e7472616e742063616c6c006044820152606401610428565b6002600155565b60018055565b6097805473ffffffffffffffffffffffffffffffffffffffff19169055610df981611a2a565b6040516001600160a01b03808516602483015283166044820152606481018290526118569085907f23b872dd0000000000000000000000000000000000000000000000000000000090608401611717565b50505050565b600054610100900460ff166118c75760405162461bcd60e51b815260206004820152602b60248201527f496e697469616c697a61626c653a20636f6e7472616374206973206e6f74206960448201526a6e697469616c697a696e6760a81b6064820152608401610428565b6109e0611a89565b600054610100900460ff1661193a5760405162461bcd60e51b815260206004820152602b60248201527f496e697469616c697a61626c653a20636f6e7472616374206973206e6f74206960448201526a6e697469616c697a696e6760a81b6064820152608401610428565b6109e0611af4565b6000611997826040518060400160405280602081526020017f5361666545524332303a206c6f772d6c6576656c2063616c6c206661696c6564815250856001600160a01b0316611b689092919063ffffffff16565b90508051600014806119b85750808060200190518101906119b89190611e92565b61177b5760405162461bcd60e51b815260206004820152602a60248201527f5361666545524332303a204552433230206f7065726174696f6e20646964206e60448201527f6f742073756363656564000000000000000000000000000000000000000000006064820152608401610428565b606580546001600160a01b0383811673ffffffffffffffffffffffffffffffffffffffff19831681179093556040519116919082907f8be0079c531659141344cd1fd0a4f28419497f9722a3daafe3b4186f6b6457e090600090a35050565b600054610100900460ff166117d95760405162461bcd60e51b815260206004820152602b60248201527f496e697469616c697a61626c653a20636f6e7472616374206973206e6f74206960448201526a6e697469616c697a696e6760a81b6064820152608401610428565b600054610100900460ff16611b5f5760405162461bcd60e51b815260206004820152602b60248201527f496e697469616c697a61626c653a20636f6e7472616374206973206e6f74206960448201526a6e697469616c697a696e6760a81b6064820152608401610428565b6109e0336117df565b6060611b778484600085611b7f565b949350505050565b606082471015611bf75760405162461bcd60e51b815260206004820152602660248201527f416464726573733a20696e73756666696369656e742062616c616e636520666f60448201527f722063616c6c00000000000000000000000000000000000000000000000000006064820152608401610428565b600080866001600160a01b03168587604051611c139190611ed8565b60006040518083038185875af1925050503d8060008114611c50576040519150601f19603f3d011682016040523d82523d6000602084013e611c55565b606091505b5091509150611c6687838387611c71565b979650505050505050565b60608315611ce0578251600003611cd9576001600160a01b0385163b611cd95760405162461bcd60e51b815260206004820152601d60248201527f416464726573733a2063616c6c20746f206e6f6e2d636f6e74726163740000006044820152606401610428565b5081611b77565b611b778383815115611cf55781518083602001fd5b8060405162461bcd60e51b81526004016104289190611ef4565b80356001600160a01b0381168114611d2657600080fd5b919050565b600060208284031215611d3d57600080fd5b611d4682611d0f565b9392505050565b60008060008060008060c08789031215611d6657600080fd5b611d6f87611d0f565b9550611d7d60208801611d0f565b9450611d8b60408801611d0f565b9350611d9960608801611d0f565b92506080870135915060a087013590509295509295509295565b600060208284031215611dc557600080fd5b5035919050565b7f4e487b7100000000000000000000000000000000000000000000000000000000600052601160045260246000fd5b81810381811115611e0e57611e0e611dcc565b92915050565b600060208284031215611e2657600080fd5b5051919050565b8082028115828204841417611e0e57611e0e611dcc565b600082611e7a577f4e487b7100000000000000000000000000000000000000000000000000000000600052601260045260246000fd5b500490565b80820180821115611e0e57611e0e611dcc565b600060208284031215611ea457600080fd5b81518015158114611d4657600080fd5b60005b83811015611ecf578181015183820152602001611eb7565b50506000910152565b60008251611eea818460208701611eb4565b9190910192915050565b6020815260008251806020840152611f13816040850160208701611eb4565b601f01601f1916919091016040019291505056fea2646970667358221220d8f2915bbdf9afe7ffdaf976da8bb9501ce9898b4cd708056c6b0c3cd4dedec264736f6c63430008120033","opcodes":"PUSH1 0x80 PUSH1 0x40 MSTORE CALLVALUE DUP1 ISZERO PUSH2 0x10 JUMPI PUSH1 0x0 DUP1 REVERT JUMPDEST POP PUSH2 0x19 PUSH2 0x1E JUMP JUMPDEST PUSH2 0xDD JUMP JUMPDEST PUSH1 0x0 SLOAD PUSH2 0x100 SWAP1 DIV PUSH1 0xFF AND ISZERO PUSH2 0x8A JUMPI PUSH1 0x40 MLOAD PUSH3 0x461BCD PUSH1 0xE5 SHL DUP2 MSTORE PUSH1 0x20 PUSH1 0x4 DUP3 ADD MSTORE PUSH1 0x27 PUSH1 0x24 DUP3 ADD MSTORE PUSH32 0x496E697469616C697A61626C653A20636F6E747261637420697320696E697469 PUSH1 0x44 DUP3 ADD MSTORE PUSH7 0x616C697A696E67 PUSH1 0xC8 SHL PUSH1 0x64 DUP3 ADD MSTORE PUSH1 0x84 ADD PUSH1 0x40 MLOAD DUP1 SWAP2 SUB SWAP1 REVERT JUMPDEST PUSH1 0x0 SLOAD PUSH1 0xFF SWAP1 DUP2 AND EQ PUSH2 0xDB JUMPI PUSH1 0x0 DUP1 SLOAD PUSH1 0xFF NOT AND PUSH1 0xFF SWAP1 DUP2 OR SWAP1 SWAP2 SSTORE PUSH1 0x40 MLOAD SWAP1 DUP2 MSTORE PUSH32 0x7F26B83FF96E1F2B6A682F133852F6798A09C465DA95921460CEFB3847402498 SWAP1 PUSH1 0x20 ADD PUSH1 0x40 MLOAD DUP1 SWAP2 SUB SWAP1 LOG1 JUMPDEST JUMP JUMPDEST PUSH2 0x1F5D DUP1 PUSH2 0xEC PUSH1 0x0 CODECOPY PUSH1 0x0 RETURN INVALID PUSH1 0x80 PUSH1 0x40 MSTORE CALLVALUE DUP1 ISZERO PUSH2 0x10 JUMPI PUSH1 0x0 DUP1 REVERT JUMPDEST POP PUSH1 0x4 CALLDATASIZE LT PUSH2 0x1DA JUMPI PUSH1 0x0 CALLDATALOAD PUSH1 0xE0 SHR DUP1 PUSH4 0x715018A6 GT PUSH2 0x104 JUMPI DUP1 PUSH4 0xAAF5EB68 GT PUSH2 0xA2 JUMPI DUP1 PUSH4 0xD7C41C79 GT PUSH2 0x71 JUMPI DUP1 PUSH4 0xD7C41C79 EQ PUSH2 0x388 JUMPI DUP1 PUSH4 0xD96A094A EQ PUSH2 0x39B JUMPI DUP1 PUSH4 0xE30C3978 EQ PUSH2 0x3AE JUMPI DUP1 PUSH4 0xF2FDE38B EQ PUSH2 0x3BF JUMPI PUSH1 0x0 DUP1 REVERT JUMPDEST DUP1 PUSH4 0xAAF5EB68 EQ PUSH2 0x349 JUMPI DUP1 PUSH4 0xC5C4744C EQ PUSH2 0x352 JUMPI DUP1 PUSH4 0xD0E30DB0 EQ PUSH2 0x35B JUMPI DUP1 PUSH4 0xD5FF56F8 EQ PUSH2 0x363 JUMPI PUSH1 0x0 DUP1 REVERT JUMPDEST DUP1 PUSH4 0x827D606F GT PUSH2 0xDE JUMPI DUP1 PUSH4 0x827D606F EQ PUSH2 0x306 JUMPI DUP1 PUSH4 0x89885049 EQ PUSH2 0x30F JUMPI DUP1 PUSH4 0x8DA5CB5B EQ PUSH2 0x32F JUMPI DUP1 PUSH4 0xAA264C9B EQ PUSH2 0x340 JUMPI PUSH1 0x0 DUP1 REVERT JUMPDEST DUP1 PUSH4 0x715018A6 EQ PUSH2 0x2ED JUMPI DUP1 PUSH4 0x79203DC4 EQ PUSH2 0x2F5 JUMPI DUP1 PUSH4 0x79BA5097 EQ PUSH2 0x2FE JUMPI PUSH1 0x0 DUP1 REVERT JUMPDEST DUP1 PUSH4 0x46F7D6C9 GT PUSH2 0x17C JUMPI DUP1 PUSH4 0x4DA60AA5 GT PUSH2 0x14B JUMPI DUP1 PUSH4 0x4DA60AA5 EQ PUSH2 0x2B6 JUMPI DUP1 PUSH4 0x4E71D92D EQ PUSH2 0x2C9 JUMPI DUP1 PUSH4 0x547E3F06 EQ PUSH2 0x2D1 JUMPI DUP1 PUSH4 0x7107D7A6 EQ PUSH2 0x2E4 JUMPI PUSH1 0x0 DUP1 REVERT JUMPDEST DUP1 PUSH4 0x46F7D6C9 EQ PUSH2 0x27E JUMPI DUP1 PUSH4 0x4783C35B EQ PUSH2 0x291 JUMPI DUP1 PUSH4 0x4838ED19 EQ PUSH2 0x2A4 JUMPI DUP1 PUSH4 0x4CFC4D30 EQ PUSH2 0x2AD JUMPI PUSH1 0x0 DUP1 REVERT JUMPDEST DUP1 PUSH4 0x27A7AF89 GT PUSH2 0x1B8 JUMPI DUP1 PUSH4 0x27A7AF89 EQ PUSH2 0x224 JUMPI DUP1 PUSH4 0x30DFA3B5 EQ PUSH2 0x24F JUMPI DUP1 PUSH4 0x334041A6 EQ PUSH2 0x259 JUMPI DUP1 PUSH4 0x3CCFD60B EQ PUSH2 0x276 JUMPI PUSH1 0x0 DUP1 REVERT JUMPDEST DUP1 PUSH4 0x4E86903 EQ PUSH2 0x1DF JUMPI DUP1 PUSH4 0x1CE48DF1 EQ PUSH2 0x212 JUMPI DUP1 PUSH4 0x20DF16BF EQ PUSH2 0x21B JUMPI JUMPDEST PUSH1 0x0 DUP1 REVERT JUMPDEST PUSH2 0x1FF PUSH2 0x1ED CALLDATASIZE PUSH1 0x4 PUSH2 0x1D2B JUMP JUMPDEST PUSH1 0xD8 PUSH1 0x20 MSTORE PUSH1 0x0 SWAP1 DUP2 MSTORE PUSH1 0x40 SWAP1 KECCAK256 SLOAD DUP2 JUMP JUMPDEST PUSH1 0x40 MLOAD SWAP1 DUP2 MSTORE PUSH1 0x20 ADD JUMPDEST PUSH1 0x40 MLOAD DUP1 SWAP2 SUB SWAP1 RETURN JUMPDEST PUSH2 0x1FF PUSH1 0xCF SLOAD DUP2 JUMP JUMPDEST PUSH2 0x1FF PUSH1 0xCA SLOAD DUP2 JUMP JUMPDEST PUSH1 0xD6 SLOAD PUSH2 0x237 SWAP1 PUSH1 0x1 PUSH1 0x1 PUSH1 0xA0 SHL SUB AND DUP2 JUMP JUMPDEST PUSH1 0x40 MLOAD PUSH1 0x1 PUSH1 0x1 PUSH1 0xA0 SHL SUB SWAP1 SWAP2 AND DUP2 MSTORE PUSH1 0x20 ADD PUSH2 0x209 JUMP JUMPDEST PUSH2 0x257 PUSH2 0x3D2 JUMP JUMPDEST STOP JUMPDEST PUSH1 0xD2 SLOAD PUSH2 0x266 SWAP1 PUSH1 0xFF AND DUP2 JUMP JUMPDEST PUSH1 0x40 MLOAD SWAP1 ISZERO ISZERO DUP2 MSTORE PUSH1 0x20 ADD PUSH2 0x209 JUMP JUMPDEST PUSH2 0x257 PUSH2 0x505 JUMP JUMPDEST PUSH1 0xD4 SLOAD PUSH2 0x237 SWAP1 PUSH1 0x1 PUSH1 0x1 PUSH1 0xA0 SHL SUB AND DUP2 JUMP JUMPDEST PUSH1 0xCD SLOAD PUSH2 0x237 SWAP1 PUSH1 0x1 PUSH1 0x1 PUSH1 0xA0 SHL SUB AND DUP2 JUMP JUMPDEST PUSH2 0x1FF PUSH1 0xD3 SLOAD DUP2 JUMP JUMPDEST PUSH2 0x1FF PUSH1 0xCC SLOAD DUP2 JUMP JUMPDEST PUSH1 0xD5 SLOAD PUSH2 0x237 SWAP1 PUSH1 0x1 PUSH1 0x1 PUSH1 0xA0 SHL SUB AND DUP2 JUMP JUMPDEST PUSH2 0x257 PUSH2 0x64F JUMP JUMPDEST PUSH2 0x257 PUSH2 0x2DF CALLDATASIZE PUSH1 0x4 PUSH2 0x1D2B JUMP JUMPDEST PUSH2 0x9E2 JUMP JUMPDEST PUSH2 0x1FF PUSH1 0xD1 SLOAD DUP2 JUMP JUMPDEST PUSH2 0x257 PUSH2 0xD66 JUMP JUMPDEST PUSH2 0x1FF PUSH1 0xCE SLOAD DUP2 JUMP JUMPDEST PUSH2 0x257 PUSH2 0xD6E JUMP JUMPDEST PUSH2 0x1FF PUSH1 0xC9 SLOAD DUP2 JUMP JUMPDEST PUSH2 0x1FF PUSH2 0x31D CALLDATASIZE PUSH1 0x4 PUSH2 0x1D2B JUMP JUMPDEST PUSH1 0xD7 PUSH1 0x20 MSTORE PUSH1 0x0 SWAP1 DUP2 MSTORE PUSH1 0x40 SWAP1 KECCAK256 SLOAD DUP2 JUMP JUMPDEST PUSH1 0x65 SLOAD PUSH1 0x1 PUSH1 0x1 PUSH1 0xA0 SHL SUB AND PUSH2 0x237 JUMP JUMPDEST PUSH2 0x1FF PUSH1 0xCB SLOAD DUP2 JUMP JUMPDEST PUSH2 0x1FF PUSH2 0x2710 DUP2 JUMP JUMPDEST PUSH2 0x1FF PUSH1 0xD0 SLOAD DUP2 JUMP JUMPDEST PUSH2 0x257 PUSH2 0xDFC JUMP JUMPDEST PUSH1 0xCD SLOAD PUSH2 0x266 SWAP1 PUSH21 0x10000000000000000000000000000000000000000 SWAP1 DIV PUSH1 0xFF AND DUP2 JUMP JUMPDEST PUSH2 0x257 PUSH2 0x396 CALLDATASIZE PUSH1 0x4 PUSH2 0x1D4D JUMP JUMPDEST PUSH2 0xFA7 JUMP JUMPDEST PUSH2 0x257 PUSH2 0x3A9 CALLDATASIZE PUSH1 0x4 PUSH2 0x1DB3 JUMP JUMPDEST PUSH2 0x130B JUMP JUMPDEST PUSH1 0x97 SLOAD PUSH1 0x1 PUSH1 0x1 PUSH1 0xA0 SHL SUB AND PUSH2 0x237 JUMP JUMPDEST PUSH2 0x257 PUSH2 0x3CD CALLDATASIZE PUSH1 0x4 PUSH2 0x1D2B JUMP JUMPDEST PUSH2 0x15FA JUMP JUMPDEST PUSH2 0x3DA PUSH2 0x1678 JUMP JUMPDEST PUSH1 0xCB SLOAD TIMESTAMP LT ISZERO PUSH2 0x431 JUMPI PUSH1 0x40 MLOAD PUSH3 0x461BCD PUSH1 0xE5 SHL DUP2 MSTORE PUSH1 0x20 PUSH1 0x4 DUP3 ADD MSTORE PUSH1 0x16 PUSH1 0x24 DUP3 ADD MSTORE PUSH32 0x53616C65206861736E277420656E646564207965742E00000000000000000000 PUSH1 0x44 DUP3 ADD MSTORE PUSH1 0x64 ADD JUMPDEST PUSH1 0x40 MLOAD DUP1 SWAP2 SUB SWAP1 REVERT JUMPDEST PUSH1 0x0 PUSH1 0xD3 SLOAD PUSH1 0xCE SLOAD PUSH2 0x443 SWAP2 SWAP1 PUSH2 0x1DFB JUMP JUMPDEST SWAP1 POP PUSH1 0x0 DUP2 GT PUSH2 0x495 JUMPI PUSH1 0x40 MLOAD PUSH3 0x461BCD PUSH1 0xE5 SHL DUP2 MSTORE PUSH1 0x20 PUSH1 0x4 DUP3 ADD MSTORE PUSH1 0x1B PUSH1 0x24 DUP3 ADD MSTORE PUSH32 0x4E6F7420656E6F75676820496E747820746F2077697468647261770000000000 PUSH1 0x44 DUP3 ADD MSTORE PUSH1 0x64 ADD PUSH2 0x428 JUMP JUMPDEST PUSH1 0xCD SLOAD PUSH1 0xD4 SLOAD PUSH2 0x4B2 SWAP2 PUSH1 0x1 PUSH1 0x1 PUSH1 0xA0 SHL SUB SWAP2 DUP3 AND SWAP2 AND DUP4 PUSH2 0x16D2 JUMP JUMPDEST PUSH32 0xA8EEDBDE77077F55B0C6B1EFC969F0DAB23C2165782975EFB36419CD89965460 CALLER JUMPDEST PUSH1 0xCD SLOAD PUSH1 0x40 DUP1 MLOAD PUSH1 0x1 PUSH1 0x1 PUSH1 0xA0 SHL SUB SWAP4 DUP5 AND DUP2 MSTORE SWAP3 SWAP1 SWAP2 AND PUSH1 0x20 DUP4 ADD MSTORE DUP2 ADD DUP4 SWAP1 MSTORE PUSH1 0x60 ADD PUSH1 0x40 MLOAD DUP1 SWAP2 SUB SWAP1 LOG1 POP JUMP JUMPDEST PUSH2 0x50D PUSH2 0x1678 JUMP JUMPDEST PUSH1 0xD5 SLOAD PUSH1 0x40 MLOAD PUSH32 0x70A0823100000000000000000000000000000000000000000000000000000000 DUP2 MSTORE ADDRESS PUSH1 0x4 DUP3 ADD MSTORE PUSH1 0x0 SWAP2 PUSH1 0x1 PUSH1 0x1 PUSH1 0xA0 SHL SUB AND SWAP1 PUSH4 0x70A08231 SWAP1 PUSH1 0x24 ADD PUSH1 0x20 PUSH1 0x40 MLOAD DUP1 DUP4 SUB DUP2 DUP7 GAS STATICCALL ISZERO DUP1 ISZERO PUSH2 0x56F JUMPI RETURNDATASIZE PUSH1 0x0 DUP1 RETURNDATACOPY RETURNDATASIZE PUSH1 0x0 REVERT JUMPDEST POP POP POP POP PUSH1 0x40 MLOAD RETURNDATASIZE PUSH1 0x1F NOT PUSH1 0x1F DUP3 ADD AND DUP3 ADD DUP1 PUSH1 0x40 MSTORE POP DUP2 ADD SWAP1 PUSH2 0x593 SWAP2 SWAP1 PUSH2 0x1E14 JUMP JUMPDEST SWAP1 POP PUSH1 0x0 DUP2 GT PUSH2 0x60B JUMPI PUSH1 0x40 MLOAD PUSH3 0x461BCD PUSH1 0xE5 SHL DUP2 MSTORE PUSH1 0x20 PUSH1 0x4 DUP3 ADD MSTORE PUSH1 0x21 PUSH1 0x24 DUP3 ADD MSTORE PUSH32 0x4E6F7420656E6F756768207261697365546F6B656E20746F2077697468647261 PUSH1 0x44 DUP3 ADD MSTORE PUSH32 0x7700000000000000000000000000000000000000000000000000000000000000 PUSH1 0x64 DUP3 ADD MSTORE PUSH1 0x84 ADD PUSH2 0x428 JUMP JUMPDEST PUSH1 0xCD SLOAD PUSH1 0xD5 SLOAD PUSH2 0x628 SWAP2 PUSH1 0x1 PUSH1 0x1 PUSH1 0xA0 SHL SUB SWAP2 DUP3 AND SWAP2 AND DUP4 PUSH2 0x16D2 JUMP JUMPDEST PUSH32 0x9B1BFA7FA9EE420A16E124F794C35AC9F90472ACC99140EB2F6447C714CAD8EB CALLER PUSH2 0x4D5 JUMP JUMPDEST PUSH2 0x657 PUSH2 0x1780 JUMP JUMPDEST PUSH1 0xCB SLOAD TIMESTAMP LT ISZERO PUSH2 0x6A9 JUMPI PUSH1 0x40 MLOAD PUSH3 0x461BCD PUSH1 0xE5 SHL DUP2 MSTORE PUSH1 0x20 PUSH1 0x4 DUP3 ADD MSTORE PUSH1 0x1B PUSH1 0x24 DUP3 ADD MSTORE PUSH32 0x56657374696E67206861736E27742073746172746564207965742E0000000000 PUSH1 0x44 DUP3 ADD MSTORE PUSH1 0x64 ADD PUSH2 0x428 JUMP JUMPDEST CALLER PUSH1 0x0 SWAP1 DUP2 MSTORE PUSH1 0xD7 PUSH1 0x20 MSTORE PUSH1 0x40 DUP2 KECCAK256 SLOAD SWAP1 SUB PUSH2 0x72D JUMPI PUSH1 0x40 MLOAD PUSH3 0x461BCD PUSH1 0xE5 SHL DUP2 MSTORE PUSH1 0x20 PUSH1 0x4 DUP3 ADD MSTORE PUSH1 0x2E PUSH1 0x24 DUP3 ADD MSTORE PUSH32 0x54686973206164647265737320646F65736E2774206861766520616E7920616D PUSH1 0x44 DUP3 ADD MSTORE PUSH32 0x6F756E7420746F20636C61696D2E000000000000000000000000000000000000 PUSH1 0x64 DUP3 ADD MSTORE PUSH1 0x84 ADD PUSH2 0x428 JUMP JUMPDEST CALLER PUSH1 0x0 SWAP1 DUP2 MSTORE PUSH1 0xD7 PUSH1 0x20 SWAP1 DUP2 MSTORE PUSH1 0x40 DUP1 DUP4 KECCAK256 SLOAD PUSH1 0xD8 SWAP1 SWAP3 MSTORE SWAP1 SWAP2 KECCAK256 SLOAD LT PUSH2 0x7BC JUMPI PUSH1 0x40 MLOAD PUSH3 0x461BCD PUSH1 0xE5 SHL DUP2 MSTORE PUSH1 0x20 PUSH1 0x4 DUP3 ADD MSTORE PUSH1 0x2C PUSH1 0x24 DUP3 ADD MSTORE PUSH32 0x596F75206861766520616C726561647920636C61696D656420616C6C20796F75 PUSH1 0x44 DUP3 ADD MSTORE PUSH32 0x7220616C6C6F636174696F6E0000000000000000000000000000000000000000 PUSH1 0x64 DUP3 ADD MSTORE PUSH1 0x84 ADD PUSH2 0x428 JUMP JUMPDEST PUSH1 0xCB SLOAD TIMESTAMP GT ISZERO PUSH2 0x9D7 JUMPI PUSH1 0x0 PUSH2 0x2710 PUSH1 0xC9 SLOAD PUSH1 0xD7 PUSH1 0x0 PUSH2 0x7D9 CALLER SWAP1 JUMP JUMPDEST PUSH1 0x1 PUSH1 0x1 PUSH1 0xA0 SHL SUB AND PUSH1 0x1 PUSH1 0x1 PUSH1 0xA0 SHL SUB AND DUP2 MSTORE PUSH1 0x20 ADD SWAP1 DUP2 MSTORE PUSH1 0x20 ADD PUSH1 0x0 KECCAK256 SLOAD PUSH2 0x804 SWAP2 SWAP1 PUSH2 0x1E2D JUMP JUMPDEST PUSH2 0x80E SWAP2 SWAP1 PUSH2 0x1E44 JUMP JUMPDEST SWAP1 POP PUSH1 0x0 PUSH2 0x2710 PUSH1 0xC9 SLOAD PUSH2 0x2710 PUSH2 0x825 SWAP2 SWAP1 PUSH2 0x1DFB JUMP JUMPDEST CALLER PUSH1 0x0 SWAP1 DUP2 MSTORE PUSH1 0xD7 PUSH1 0x20 MSTORE PUSH1 0x40 SWAP1 KECCAK256 SLOAD PUSH2 0x83F SWAP2 SWAP1 PUSH2 0x1E2D JUMP JUMPDEST PUSH2 0x849 SWAP2 SWAP1 PUSH2 0x1E44 JUMP JUMPDEST SWAP1 POP PUSH1 0x0 PUSH1 0xCB SLOAD TIMESTAMP PUSH2 0x85B SWAP2 SWAP1 PUSH2 0x1DFB JUMP JUMPDEST SWAP1 POP PUSH1 0xCC SLOAD DUP2 GT ISZERO PUSH2 0x86C JUMPI POP PUSH1 0xCC SLOAD JUMPDEST PUSH1 0xCC SLOAD PUSH1 0x0 SWAP1 PUSH2 0x87E PUSH2 0x2710 DUP5 PUSH2 0x1E2D JUMP JUMPDEST PUSH2 0x888 SWAP2 SWAP1 PUSH2 0x1E44 JUMP JUMPDEST CALLER PUSH1 0x0 SWAP1 DUP2 MSTORE PUSH1 0xD8 PUSH1 0x20 MSTORE PUSH1 0x40 DUP2 KECCAK256 SLOAD SWAP2 SWAP3 POP SWAP1 PUSH2 0x2710 PUSH2 0x8A9 DUP5 DUP8 PUSH2 0x1E2D JUMP JUMPDEST PUSH2 0x8B3 SWAP2 SWAP1 PUSH2 0x1E44 JUMP JUMPDEST PUSH2 0x8BD SWAP1 DUP8 PUSH2 0x1E7F JUMP JUMPDEST PUSH2 0x8C7 SWAP2 SWAP1 PUSH2 0x1DFB JUMP JUMPDEST SWAP1 POP DUP1 ISZERO PUSH2 0x9D1 JUMPI CALLER PUSH1 0x0 SWAP1 DUP2 MSTORE PUSH1 0xD8 PUSH1 0x20 MSTORE PUSH1 0x40 DUP2 KECCAK256 DUP1 SLOAD DUP4 SWAP3 SWAP1 PUSH2 0x8EE SWAP1 DUP5 SWAP1 PUSH2 0x1E7F JUMP JUMPDEST SWAP1 SWAP2 SSTORE POP POP PUSH1 0xD6 SLOAD PUSH1 0x0 SWAP1 PUSH1 0x1 PUSH1 0x1 PUSH1 0xA0 SHL SUB AND PUSH4 0x2EE40908 CALLER PUSH1 0x40 MLOAD PUSH32 0xFFFFFFFF00000000000000000000000000000000000000000000000000000000 PUSH1 0xE0 DUP5 SWAP1 SHL AND DUP2 MSTORE PUSH1 0x1 PUSH1 0x1 PUSH1 0xA0 SHL SUB SWAP1 SWAP2 AND PUSH1 0x4 DUP3 ADD MSTORE PUSH1 0x24 DUP2 ADD DUP6 SWAP1 MSTORE PUSH1 0x44 ADD PUSH1 0x20 PUSH1 0x40 MLOAD DUP1 DUP4 SUB DUP2 PUSH1 0x0 DUP8 GAS CALL ISZERO DUP1 ISZERO PUSH2 0x96D JUMPI RETURNDATASIZE PUSH1 0x0 DUP1 RETURNDATACOPY RETURNDATASIZE PUSH1 0x0 REVERT JUMPDEST POP POP POP POP PUSH1 0x40 MLOAD RETURNDATASIZE PUSH1 0x1F NOT PUSH1 0x1F DUP3 ADD AND DUP3 ADD DUP1 PUSH1 0x40 MSTORE POP DUP2 ADD SWAP1 PUSH2 0x991 SWAP2 SWAP1 PUSH2 0x1E14 JUMP JUMPDEST PUSH1 0x40 DUP1 MLOAD DUP5 DUP2 MSTORE PUSH1 0x20 DUP2 ADD DUP4 SWAP1 MSTORE SWAP2 SWAP3 POP CALLER SWAP2 PUSH32 0x987D620F307FF6B94D58743CB7A7509F24071586A77759B77C2D4E29F75A2F9A SWAP2 ADD PUSH1 0x40 MLOAD DUP1 SWAP2 SUB SWAP1 LOG2 POP JUMPDEST POP POP POP POP POP JUMPDEST PUSH2 0x9E0 PUSH1 0x1 DUP1 SSTORE JUMP JUMPDEST JUMP JUMPDEST PUSH1 0xCB SLOAD TIMESTAMP LT ISZERO PUSH2 0xA34 JUMPI PUSH1 0x40 MLOAD PUSH3 0x461BCD PUSH1 0xE5 SHL DUP2 MSTORE PUSH1 0x20 PUSH1 0x4 DUP3 ADD MSTORE PUSH1 0x1B PUSH1 0x24 DUP3 ADD MSTORE PUSH32 0x56657374696E67206861736E27742073746172746564207965742E0000000000 PUSH1 0x44 DUP3 ADD MSTORE PUSH1 0x64 ADD PUSH2 0x428 JUMP JUMPDEST PUSH1 0xCD SLOAD PUSH21 0x10000000000000000000000000000000000000000 SWAP1 DIV PUSH1 0xFF AND PUSH2 0xAEA JUMPI PUSH1 0x40 MLOAD PUSH3 0x461BCD PUSH1 0xE5 SHL DUP2 MSTORE PUSH1 0x20 PUSH1 0x4 DUP3 ADD MSTORE PUSH1 0x46 PUSH1 0x24 DUP3 ADD MSTORE PUSH32 0x546869732076657374696E6720636F6E747261637420646F65736E277420616C PUSH1 0x44 DUP3 ADD MSTORE PUSH32 0x6C6F7720796F7520746F206368616E6765207468652072656365697665722061 PUSH1 0x64 DUP3 ADD MSTORE PUSH32 0x6464726573730000000000000000000000000000000000000000000000000000 PUSH1 0x84 DUP3 ADD MSTORE PUSH1 0xA4 ADD PUSH2 0x428 JUMP JUMPDEST PUSH1 0x1 PUSH1 0x1 PUSH1 0xA0 SHL SUB DUP2 AND PUSH2 0xB66 JUMPI PUSH1 0x40 MLOAD PUSH3 0x461BCD PUSH1 0xE5 SHL DUP2 MSTORE PUSH1 0x20 PUSH1 0x4 DUP3 ADD MSTORE PUSH1 0x36 PUSH1 0x24 DUP3 ADD MSTORE PUSH32 0x4E657720616C6C6F636174696F6E2072656365697665722063616E2774206265 PUSH1 0x44 DUP3 ADD MSTORE PUSH32 0x20746865203078303030302E2E2E206164647265737300000000000000000000 PUSH1 0x64 DUP3 ADD MSTORE PUSH1 0x84 ADD PUSH2 0x428 JUMP JUMPDEST CALLER PUSH1 0x0 DUP2 DUP2 MSTORE PUSH1 0xD7 PUSH1 0x20 MSTORE PUSH1 0x40 DUP2 KECCAK256 SLOAD SWAP1 SUB PUSH2 0xBC4 JUMPI PUSH1 0x40 MLOAD PUSH3 0x461BCD PUSH1 0xE5 SHL DUP2 MSTORE PUSH1 0x20 PUSH1 0x4 DUP3 ADD MSTORE PUSH1 0x1E PUSH1 0x24 DUP3 ADD MSTORE PUSH32 0x596F7520646F6E2774206861766520616E7920616C6C6F636174696F6E2E0000 PUSH1 0x44 DUP3 ADD MSTORE PUSH1 0x64 ADD PUSH2 0x428 JUMP JUMPDEST PUSH1 0x1 PUSH1 0x1 PUSH1 0xA0 SHL SUB DUP3 AND PUSH1 0x0 SWAP1 DUP2 MSTORE PUSH1 0xD7 PUSH1 0x20 MSTORE PUSH1 0x40 SWAP1 KECCAK256 SLOAD ISZERO PUSH2 0xC50 JUMPI PUSH1 0x40 MLOAD PUSH3 0x461BCD PUSH1 0xE5 SHL DUP2 MSTORE PUSH1 0x20 PUSH1 0x4 DUP3 ADD MSTORE PUSH1 0x2D PUSH1 0x24 DUP3 ADD MSTORE PUSH32 0x546865206E6577206164647265737320616C7265616479206861732061207665 PUSH1 0x44 DUP3 ADD MSTORE PUSH32 0x7374696E6720616D6F756E742E00000000000000000000000000000000000000 PUSH1 0x64 DUP3 ADD MSTORE PUSH1 0x84 ADD PUSH2 0x428 JUMP JUMPDEST PUSH1 0x1 PUSH1 0x1 PUSH1 0xA0 SHL SUB DUP2 AND PUSH1 0x0 SWAP1 DUP2 MSTORE PUSH1 0xD7 PUSH1 0x20 SWAP1 DUP2 MSTORE PUSH1 0x40 DUP1 DUP4 KECCAK256 SLOAD PUSH1 0xD8 SWAP1 SWAP3 MSTORE SWAP1 SWAP2 KECCAK256 SLOAD LT PUSH2 0xCE8 JUMPI PUSH1 0x40 MLOAD PUSH3 0x461BCD PUSH1 0xE5 SHL DUP2 MSTORE PUSH1 0x20 PUSH1 0x4 DUP3 ADD MSTORE PUSH1 0x2D PUSH1 0x24 DUP3 ADD MSTORE PUSH32 0x596F75206861766520616C726561647920636C61696D656420616C6C20796F75 PUSH1 0x44 DUP3 ADD MSTORE PUSH32 0x7220616C6C6F636174696F6E2E00000000000000000000000000000000000000 PUSH1 0x64 DUP3 ADD MSTORE PUSH1 0x84 ADD PUSH2 0x428 JUMP JUMPDEST PUSH1 0x1 PUSH1 0x1 PUSH1 0xA0 SHL SUB DUP2 DUP2 AND PUSH1 0x0 DUP2 DUP2 MSTORE PUSH1 0xD7 PUSH1 0x20 SWAP1 DUP2 MSTORE PUSH1 0x40 DUP1 DUP4 KECCAK256 DUP1 SLOAD SWAP6 DUP9 AND DUP1 DUP6 MSTORE DUP3 DUP6 KECCAK256 SWAP7 SWAP1 SWAP7 SSTORE DUP5 DUP5 MSTORE PUSH1 0xD8 DUP4 MSTORE DUP2 DUP5 KECCAK256 DUP1 SLOAD DUP8 DUP7 MSTORE DUP4 DUP7 KECCAK256 SSTORE DUP6 DUP6 MSTORE SWAP1 DUP5 SWAP1 SSTORE SWAP3 SWAP1 SWAP3 SSTORE DUP2 MLOAD CALLER DUP2 MSTORE SWAP2 MLOAD PUSH32 0x4E87E17C55076158DC051FFE67EDB8C0ABF946F53612656C46F887AC1F9C486C SWAP3 DUP2 SWAP1 SUB SWAP1 SWAP2 ADD SWAP1 LOG3 POP POP JUMP JUMPDEST PUSH2 0x9E0 PUSH2 0x1678 JUMP JUMPDEST PUSH1 0x97 SLOAD CALLER SWAP1 PUSH1 0x1 PUSH1 0x1 PUSH1 0xA0 SHL SUB AND DUP2 EQ PUSH2 0xDF0 JUMPI PUSH1 0x40 MLOAD PUSH3 0x461BCD PUSH1 0xE5 SHL DUP2 MSTORE PUSH1 0x20 PUSH1 0x4 DUP3 ADD MSTORE PUSH1 0x29 PUSH1 0x24 DUP3 ADD MSTORE PUSH32 0x4F776E61626C6532537465703A2063616C6C6572206973206E6F742074686520 PUSH1 0x44 DUP3 ADD MSTORE PUSH32 0x6E6577206F776E65720000000000000000000000000000000000000000000000 PUSH1 0x64 DUP3 ADD MSTORE PUSH1 0x84 ADD PUSH2 0x428 JUMP JUMPDEST PUSH2 0xDF9 DUP2 PUSH2 0x17DF JUMP JUMPDEST POP JUMP JUMPDEST PUSH2 0xE04 PUSH2 0x1678 JUMP JUMPDEST PUSH1 0xD2 SLOAD PUSH1 0xFF AND ISZERO PUSH2 0xE7D JUMPI PUSH1 0x40 MLOAD PUSH3 0x461BCD PUSH1 0xE5 SHL DUP2 MSTORE PUSH1 0x20 PUSH1 0x4 DUP3 ADD MSTORE PUSH1 0x34 PUSH1 0x24 DUP3 ADD MSTORE PUSH32 0x56657374696E6720436F6E747261637420416C72656164792073656564656420 PUSH1 0x44 DUP3 ADD MSTORE PUSH32 0x7769746820696E697469616C20616D6F756E742E000000000000000000000000 PUSH1 0x64 DUP3 ADD MSTORE PUSH1 0x84 ADD PUSH2 0x428 JUMP JUMPDEST PUSH2 0xE99 CALLER PUSH1 0xCE SLOAD PUSH1 0xD4 SLOAD PUSH1 0x1 PUSH1 0x1 PUSH1 0xA0 SHL SUB AND SWAP2 SWAP1 ADDRESS SWAP1 PUSH2 0x1805 JUMP JUMPDEST PUSH1 0xD4 SLOAD PUSH1 0xD6 SLOAD PUSH1 0x40 MLOAD PUSH32 0x95EA7B300000000000000000000000000000000000000000000000000000000 DUP2 MSTORE PUSH1 0x1 PUSH1 0x1 PUSH1 0xA0 SHL SUB SWAP2 DUP3 AND PUSH1 0x4 DUP3 ADD MSTORE PUSH32 0xFFFFFFFFFFFFFFFFFFFFFFFFFFFFFFFFFFFFFFFFFFFFFFFFFFFFFFFFFFFFFFFF PUSH1 0x24 DUP3 ADD MSTORE SWAP2 AND SWAP1 PUSH4 0x95EA7B3 SWAP1 PUSH1 0x44 ADD PUSH1 0x20 PUSH1 0x40 MLOAD DUP1 DUP4 SUB DUP2 PUSH1 0x0 DUP8 GAS CALL ISZERO DUP1 ISZERO PUSH2 0xF26 JUMPI RETURNDATASIZE PUSH1 0x0 DUP1 RETURNDATACOPY RETURNDATASIZE PUSH1 0x0 REVERT JUMPDEST POP POP POP POP PUSH1 0x40 MLOAD RETURNDATASIZE PUSH1 0x1F NOT PUSH1 0x1F DUP3 ADD AND DUP3 ADD DUP1 PUSH1 0x40 MSTORE POP DUP2 ADD SWAP1 PUSH2 0xF4A SWAP2 SWAP1 PUSH2 0x1E92 JUMP JUMPDEST POP PUSH1 0xD2 DUP1 SLOAD PUSH1 0xFF NOT AND PUSH1 0x1 OR SWAP1 SSTORE PUSH32 0x6189B14A5C1490DBEB86A9DA875768D98DC98FB398D6B29DD475DEFAA1EC4BA3 PUSH2 0xF80 CALLER SWAP1 JUMP JUMPDEST PUSH1 0xCE SLOAD PUSH1 0x40 DUP1 MLOAD PUSH1 0x1 PUSH1 0x1 PUSH1 0xA0 SHL SUB SWAP1 SWAP4 AND DUP4 MSTORE PUSH1 0x20 DUP4 ADD SWAP2 SWAP1 SWAP2 MSTORE ADD PUSH1 0x40 MLOAD DUP1 SWAP2 SUB SWAP1 LOG1 JUMP JUMPDEST PUSH1 0x0 SLOAD PUSH2 0x100 SWAP1 DIV PUSH1 0xFF AND ISZERO DUP1 DUP1 ISZERO PUSH2 0xFC7 JUMPI POP PUSH1 0x0 SLOAD PUSH1 0x1 PUSH1 0xFF SWAP1 SWAP2 AND LT JUMPDEST DUP1 PUSH2 0xFE1 JUMPI POP ADDRESS EXTCODESIZE ISZERO DUP1 ISZERO PUSH2 0xFE1 JUMPI POP PUSH1 0x0 SLOAD PUSH1 0xFF AND PUSH1 0x1 EQ JUMPDEST PUSH2 0x1053 JUMPI PUSH1 0x40 MLOAD PUSH3 0x461BCD PUSH1 0xE5 SHL DUP2 MSTORE PUSH1 0x20 PUSH1 0x4 DUP3 ADD MSTORE PUSH1 0x2E PUSH1 0x24 DUP3 ADD MSTORE PUSH32 0x496E697469616C697A61626C653A20636F6E747261637420697320616C726561 PUSH1 0x44 DUP3 ADD MSTORE PUSH32 0x647920696E697469616C697A6564000000000000000000000000000000000000 PUSH1 0x64 DUP3 ADD MSTORE PUSH1 0x84 ADD PUSH2 0x428 JUMP JUMPDEST PUSH1 0x0 DUP1 SLOAD PUSH1 0xFF NOT AND PUSH1 0x1 OR SWAP1 SSTORE DUP1 ISZERO PUSH2 0x1076 JUMPI PUSH1 0x0 DUP1 SLOAD PUSH2 0xFF00 NOT AND PUSH2 0x100 OR SWAP1 SSTORE JUMPDEST PUSH2 0x107E PUSH2 0x185C JUMP JUMPDEST PUSH2 0x1086 PUSH2 0x18CF JUMP JUMPDEST PUSH1 0x1 PUSH1 0x1 PUSH1 0xA0 SHL SUB DUP8 AND PUSH2 0x10DC JUMPI PUSH1 0x40 MLOAD PUSH3 0x461BCD PUSH1 0xE5 SHL DUP2 MSTORE PUSH1 0x20 PUSH1 0x4 DUP3 ADD MSTORE PUSH1 0x14 PUSH1 0x24 DUP3 ADD MSTORE PUSH32 0x43616E2774207573652030782061646472657373000000000000000000000000 PUSH1 0x44 DUP3 ADD MSTORE PUSH1 0x64 ADD PUSH2 0x428 JUMP JUMPDEST PUSH1 0x1 PUSH1 0x1 PUSH1 0xA0 SHL SUB DUP7 AND PUSH2 0x1132 JUMPI PUSH1 0x40 MLOAD PUSH3 0x461BCD PUSH1 0xE5 SHL DUP2 MSTORE PUSH1 0x20 PUSH1 0x4 DUP3 ADD MSTORE PUSH1 0x14 PUSH1 0x24 DUP3 ADD MSTORE PUSH32 0x43616E2774207573652030782061646472657373000000000000000000000000 PUSH1 0x44 DUP3 ADD MSTORE PUSH1 0x64 ADD PUSH2 0x428 JUMP JUMPDEST PUSH1 0x1 PUSH1 0x1 PUSH1 0xA0 SHL SUB DUP6 AND PUSH2 0x1188 JUMPI PUSH1 0x40 MLOAD PUSH3 0x461BCD PUSH1 0xE5 SHL DUP2 MSTORE PUSH1 0x20 PUSH1 0x4 DUP3 ADD MSTORE PUSH1 0x14 PUSH1 0x24 DUP3 ADD MSTORE PUSH32 0x43616E2774207573652030782061646472657373000000000000000000000000 PUSH1 0x44 DUP3 ADD MSTORE PUSH1 0x64 ADD PUSH2 0x428 JUMP JUMPDEST PUSH1 0x1 PUSH1 0x1 PUSH1 0xA0 SHL SUB DUP5 AND PUSH2 0x11DE JUMPI PUSH1 0x40 MLOAD PUSH3 0x461BCD PUSH1 0xE5 SHL DUP2 MSTORE PUSH1 0x20 PUSH1 0x4 DUP3 ADD MSTORE PUSH1 0x14 PUSH1 0x24 DUP3 ADD MSTORE PUSH32 0x43616E2774207573652030782061646472657373000000000000000000000000 PUSH1 0x44 DUP3 ADD MSTORE PUSH1 0x64 ADD PUSH2 0x428 JUMP JUMPDEST PUSH1 0xD4 DUP1 SLOAD PUSH1 0x1 PUSH1 0x1 PUSH1 0xA0 SHL SUB DUP1 DUP11 AND PUSH20 0xFFFFFFFFFFFFFFFFFFFFFFFFFFFFFFFFFFFFFFFF NOT SWAP3 DUP4 AND OR SWAP1 SWAP3 SSTORE PUSH1 0xD5 DUP1 SLOAD DUP10 DUP5 AND SWAP1 DUP4 AND OR SWAP1 SSTORE PUSH1 0xD6 DUP1 SLOAD DUP9 DUP5 AND SWAP1 DUP4 AND OR SWAP1 SSTORE PUSH1 0xCD DUP1 SLOAD SWAP3 DUP8 AND SWAP3 SWAP1 SWAP2 AND SWAP2 SWAP1 SWAP2 OR SWAP1 SSTORE PUSH1 0xCA DUP4 SWAP1 SSTORE PUSH2 0x1244 DUP3 DUP5 PUSH2 0x1E7F JUMP JUMPDEST PUSH1 0xCB SSTORE PUSH3 0xEFF100 PUSH1 0xCC SSTORE PUSH2 0x125B PUSH1 0x2 PUSH2 0x2710 PUSH2 0x1E44 JUMP JUMPDEST PUSH1 0xC9 SSTORE PUSH11 0x1A784379D99DB42000000 PUSH1 0xCE SSTORE PUSH5 0x5D21DBA000 PUSH1 0xCF SSTORE PUSH3 0x989680 PUSH1 0xD1 SSTORE PUSH1 0xCD DUP1 SLOAD PUSH32 0xFFFFFFFFFFFFFFFFFFFFFF00FFFFFFFFFFFFFFFFFFFFFFFFFFFFFFFFFFFFFFFF AND PUSH21 0x10000000000000000000000000000000000000000 OR SWAP1 SSTORE DUP1 ISZERO PUSH2 0x1302 JUMPI PUSH1 0x0 DUP1 SLOAD PUSH2 0xFF00 NOT AND SWAP1 SSTORE PUSH1 0x40 MLOAD PUSH1 0x1 DUP2 MSTORE PUSH32 0x7F26B83FF96E1F2B6A682F133852F6798A09C465DA95921460CEFB3847402498 SWAP1 PUSH1 0x20 ADD PUSH1 0x40 MLOAD DUP1 SWAP2 SUB SWAP1 LOG1 JUMPDEST POP POP POP POP POP POP POP JUMP JUMPDEST PUSH1 0xCF SLOAD PUSH1 0xD0 SLOAD GT ISZERO PUSH2 0x135F JUMPI PUSH1 0x40 MLOAD PUSH3 0x461BCD PUSH1 0xE5 SHL DUP2 MSTORE PUSH1 0x20 PUSH1 0x4 DUP3 ADD MSTORE PUSH1 0x1A PUSH1 0x24 DUP3 ADD MSTORE PUSH32 0x416C6C2052616973652068617665206265656E2066696C6C6564000000000000 PUSH1 0x44 DUP3 ADD MSTORE PUSH1 0x64 ADD PUSH2 0x428 JUMP JUMPDEST PUSH1 0xCB SLOAD TIMESTAMP GT ISZERO PUSH2 0x13B1 JUMPI PUSH1 0x40 MLOAD PUSH3 0x461BCD PUSH1 0xE5 SHL DUP2 MSTORE PUSH1 0x20 PUSH1 0x4 DUP3 ADD MSTORE PUSH1 0xF PUSH1 0x24 DUP3 ADD MSTORE PUSH32 0x53616C652068617320656E6465642E0000000000000000000000000000000000 PUSH1 0x44 DUP3 ADD MSTORE PUSH1 0x64 ADD PUSH2 0x428 JUMP JUMPDEST PUSH1 0xCA SLOAD TIMESTAMP LT ISZERO PUSH2 0x1403 JUMPI PUSH1 0x40 MLOAD PUSH3 0x461BCD PUSH1 0xE5 SHL DUP2 MSTORE PUSH1 0x20 PUSH1 0x4 DUP3 ADD MSTORE PUSH1 0x18 PUSH1 0x24 DUP3 ADD MSTORE PUSH32 0x53616C65206861736E27742073746172746564207965742E0000000000000000 PUSH1 0x44 DUP3 ADD MSTORE PUSH1 0x64 ADD PUSH2 0x428 JUMP JUMPDEST PUSH1 0xD1 SLOAD DUP2 LT ISZERO PUSH2 0x147B JUMPI PUSH1 0x40 MLOAD PUSH3 0x461BCD PUSH1 0xE5 SHL DUP2 MSTORE PUSH1 0x20 PUSH1 0x4 DUP3 ADD MSTORE PUSH1 0x23 PUSH1 0x24 DUP3 ADD MSTORE PUSH32 0x596F752063616E277420696E76657374206C657373207468616E203130205553 PUSH1 0x44 DUP3 ADD MSTORE PUSH32 0x44432E0000000000000000000000000000000000000000000000000000000000 PUSH1 0x64 DUP3 ADD MSTORE PUSH1 0x84 ADD PUSH2 0x428 JUMP JUMPDEST PUSH1 0xD2 SLOAD PUSH1 0xFF AND PUSH2 0x14F3 JUMPI PUSH1 0x40 MLOAD PUSH3 0x461BCD PUSH1 0xE5 SHL DUP2 MSTORE PUSH1 0x20 PUSH1 0x4 DUP3 ADD MSTORE PUSH1 0x28 PUSH1 0x24 DUP3 ADD MSTORE PUSH32 0x56657374696E6720436F6E7472616374206861736E2774206265656E20736565 PUSH1 0x44 DUP3 ADD MSTORE PUSH32 0x646564207965742E000000000000000000000000000000000000000000000000 PUSH1 0x64 DUP3 ADD MSTORE PUSH1 0x84 ADD PUSH2 0x428 JUMP JUMPDEST PUSH1 0xCF SLOAD PUSH1 0xD0 SLOAD PUSH2 0x1503 SWAP1 DUP4 PUSH2 0x1E7F JUMP JUMPDEST GT ISZERO PUSH2 0x151C JUMPI PUSH1 0xD0 SLOAD PUSH1 0xCF SLOAD PUSH2 0x1519 SWAP2 SWAP1 PUSH2 0x1DFB JUMP JUMPDEST SWAP1 POP JUMPDEST PUSH2 0x1534 CALLER PUSH1 0xD5 SLOAD PUSH1 0x1 PUSH1 0x1 PUSH1 0xA0 SHL SUB AND SWAP1 ADDRESS DUP5 PUSH2 0x1805 JUMP JUMPDEST DUP1 PUSH1 0xD0 PUSH1 0x0 DUP3 DUP3 SLOAD PUSH2 0x1546 SWAP2 SWAP1 PUSH2 0x1E7F JUMP JUMPDEST SWAP3 POP POP DUP2 SWAP1 SSTORE POP PUSH1 0x0 PUSH1 0xCF SLOAD DUP3 PUSH1 0xCE SLOAD PUSH2 0x1560 SWAP2 SWAP1 PUSH2 0x1E2D JUMP JUMPDEST PUSH2 0x156A SWAP2 SWAP1 PUSH2 0x1E44 JUMP JUMPDEST SWAP1 POP DUP1 PUSH1 0xD3 PUSH1 0x0 DUP3 DUP3 SLOAD PUSH2 0x157E SWAP2 SWAP1 PUSH2 0x1E7F JUMP JUMPDEST SWAP1 SWAP2 SSTORE POP POP CALLER PUSH1 0x0 SWAP1 DUP2 MSTORE PUSH1 0xD7 PUSH1 0x20 MSTORE PUSH1 0x40 DUP2 KECCAK256 DUP1 SLOAD DUP4 SWAP3 SWAP1 PUSH2 0x15A2 SWAP1 DUP5 SWAP1 PUSH2 0x1E7F JUMP JUMPDEST SWAP1 SWAP2 SSTORE POP POP CALLER PUSH1 0x0 DUP2 DUP2 MSTORE PUSH1 0xD7 PUSH1 0x20 SWAP1 DUP2 MSTORE PUSH1 0x40 SWAP2 DUP3 SWAP1 KECCAK256 SLOAD DUP3 MLOAD DUP7 DUP2 MSTORE SWAP2 DUP3 ADD DUP6 SWAP1 MSTORE DUP2 DUP4 ADD MSTORE SWAP1 MLOAD PUSH32 0xEDBA86FD2B22962D534E70AD9B0FF8730DE46F636146F2BAB6A72CBB1EBBCC53 SWAP2 DUP2 SWAP1 SUB PUSH1 0x60 ADD SWAP1 LOG2 POP POP JUMP JUMPDEST PUSH2 0x1602 PUSH2 0x1678 JUMP JUMPDEST PUSH1 0x97 DUP1 SLOAD PUSH1 0x1 PUSH1 0x1 PUSH1 0xA0 SHL SUB DUP4 AND PUSH20 0xFFFFFFFFFFFFFFFFFFFFFFFFFFFFFFFFFFFFFFFF NOT SWAP1 SWAP2 AND DUP2 OR SWAP1 SWAP2 SSTORE PUSH2 0x1640 PUSH1 0x65 SLOAD PUSH1 0x1 PUSH1 0x1 PUSH1 0xA0 SHL SUB AND SWAP1 JUMP JUMPDEST PUSH1 0x1 PUSH1 0x1 PUSH1 0xA0 SHL SUB AND PUSH32 0x38D16B8CAC22D99FC7C124B9CD0DE2D3FA1FAEF420BFE791D8C362D765E22700 PUSH1 0x40 MLOAD PUSH1 0x40 MLOAD DUP1 SWAP2 SUB SWAP1 LOG3 POP JUMP JUMPDEST PUSH1 0x65 SLOAD PUSH1 0x1 PUSH1 0x1 PUSH1 0xA0 SHL SUB AND CALLER EQ PUSH2 0x9E0 JUMPI PUSH1 0x40 MLOAD PUSH3 0x461BCD PUSH1 0xE5 SHL DUP2 MSTORE PUSH1 0x20 PUSH1 0x4 DUP3 ADD DUP2 SWAP1 MSTORE PUSH1 0x24 DUP3 ADD MSTORE PUSH32 0x4F776E61626C653A2063616C6C6572206973206E6F7420746865206F776E6572 PUSH1 0x44 DUP3 ADD MSTORE PUSH1 0x64 ADD PUSH2 0x428 JUMP JUMPDEST PUSH1 0x40 MLOAD PUSH1 0x1 PUSH1 0x1 PUSH1 0xA0 SHL SUB DUP4 AND PUSH1 0x24 DUP3 ADD MSTORE PUSH1 0x44 DUP2 ADD DUP3 SWAP1 MSTORE PUSH2 0x177B SWAP1 DUP5 SWAP1 PUSH32 0xA9059CBB00000000000000000000000000000000000000000000000000000000 SWAP1 PUSH1 0x64 ADD JUMPDEST PUSH1 0x40 DUP1 MLOAD PUSH1 0x1F NOT DUP2 DUP5 SUB ADD DUP2 MSTORE SWAP2 SWAP1 MSTORE PUSH1 0x20 DUP2 ADD DUP1 MLOAD PUSH28 0xFFFFFFFFFFFFFFFFFFFFFFFFFFFFFFFFFFFFFFFFFFFFFFFFFFFFFFFF AND PUSH32 0xFFFFFFFF00000000000000000000000000000000000000000000000000000000 SWAP1 SWAP4 AND SWAP3 SWAP1 SWAP3 OR SWAP1 SWAP2 MSTORE PUSH2 0x1942 JUMP JUMPDEST POP POP POP JUMP JUMPDEST PUSH1 0x2 PUSH1 0x1 SLOAD SUB PUSH2 0x17D2 JUMPI PUSH1 0x40 MLOAD PUSH3 0x461BCD PUSH1 0xE5 SHL DUP2 MSTORE PUSH1 0x20 PUSH1 0x4 DUP3 ADD MSTORE PUSH1 0x1F PUSH1 0x24 DUP3 ADD MSTORE PUSH32 0x5265656E7472616E637947756172643A207265656E7472616E742063616C6C00 PUSH1 0x44 DUP3 ADD MSTORE PUSH1 0x64 ADD PUSH2 0x428 JUMP JUMPDEST PUSH1 0x2 PUSH1 0x1 SSTORE JUMP JUMPDEST PUSH1 0x1 DUP1 SSTORE JUMP JUMPDEST PUSH1 0x97 DUP1 SLOAD PUSH20 0xFFFFFFFFFFFFFFFFFFFFFFFFFFFFFFFFFFFFFFFF NOT AND SWAP1 SSTORE PUSH2 0xDF9 DUP2 PUSH2 0x1A2A JUMP JUMPDEST PUSH1 0x40 MLOAD PUSH1 0x1 PUSH1 0x1 PUSH1 0xA0 SHL SUB DUP1 DUP6 AND PUSH1 0x24 DUP4 ADD MSTORE DUP4 AND PUSH1 0x44 DUP3 ADD MSTORE PUSH1 0x64 DUP2 ADD DUP3 SWAP1 MSTORE PUSH2 0x1856 SWAP1 DUP6 SWAP1 PUSH32 0x23B872DD00000000000000000000000000000000000000000000000000000000 SWAP1 PUSH1 0x84 ADD PUSH2 0x1717 JUMP JUMPDEST POP POP POP POP JUMP JUMPDEST PUSH1 0x0 SLOAD PUSH2 0x100 SWAP1 DIV PUSH1 0xFF AND PUSH2 0x18C7 JUMPI PUSH1 0x40 MLOAD PUSH3 0x461BCD PUSH1 0xE5 SHL DUP2 MSTORE PUSH1 0x20 PUSH1 0x4 DUP3 ADD MSTORE PUSH1 0x2B PUSH1 0x24 DUP3 ADD MSTORE PUSH32 0x496E697469616C697A61626C653A20636F6E7472616374206973206E6F742069 PUSH1 0x44 DUP3 ADD MSTORE PUSH11 0x6E697469616C697A696E67 PUSH1 0xA8 SHL PUSH1 0x64 DUP3 ADD MSTORE PUSH1 0x84 ADD PUSH2 0x428 JUMP JUMPDEST PUSH2 0x9E0 PUSH2 0x1A89 JUMP JUMPDEST PUSH1 0x0 SLOAD PUSH2 0x100 SWAP1 DIV PUSH1 0xFF AND PUSH2 0x193A JUMPI PUSH1 0x40 MLOAD PUSH3 0x461BCD PUSH1 0xE5 SHL DUP2 MSTORE PUSH1 0x20 PUSH1 0x4 DUP3 ADD MSTORE PUSH1 0x2B PUSH1 0x24 DUP3 ADD MSTORE PUSH32 0x496E697469616C697A61626C653A20636F6E7472616374206973206E6F742069 PUSH1 0x44 DUP3 ADD MSTORE PUSH11 0x6E697469616C697A696E67 PUSH1 0xA8 SHL PUSH1 0x64 DUP3 ADD MSTORE PUSH1 0x84 ADD PUSH2 0x428 JUMP JUMPDEST PUSH2 0x9E0 PUSH2 0x1AF4 JUMP JUMPDEST PUSH1 0x0 PUSH2 0x1997 DUP3 PUSH1 0x40 MLOAD DUP1 PUSH1 0x40 ADD PUSH1 0x40 MSTORE DUP1 PUSH1 0x20 DUP2 MSTORE PUSH1 0x20 ADD PUSH32 0x5361666545524332303A206C6F772D6C6576656C2063616C6C206661696C6564 DUP2 MSTORE POP DUP6 PUSH1 0x1 PUSH1 0x1 PUSH1 0xA0 SHL SUB AND PUSH2 0x1B68 SWAP1 SWAP3 SWAP2 SWAP1 PUSH4 0xFFFFFFFF AND JUMP JUMPDEST SWAP1 POP DUP1 MLOAD PUSH1 0x0 EQ DUP1 PUSH2 0x19B8 JUMPI POP DUP1 DUP1 PUSH1 0x20 ADD SWAP1 MLOAD DUP2 ADD SWAP1 PUSH2 0x19B8 SWAP2 SWAP1 PUSH2 0x1E92 JUMP JUMPDEST PUSH2 0x177B JUMPI PUSH1 0x40 MLOAD PUSH3 0x461BCD PUSH1 0xE5 SHL DUP2 MSTORE PUSH1 0x20 PUSH1 0x4 DUP3 ADD MSTORE PUSH1 0x2A PUSH1 0x24 DUP3 ADD MSTORE PUSH32 0x5361666545524332303A204552433230206F7065726174696F6E20646964206E PUSH1 0x44 DUP3 ADD MSTORE PUSH32 0x6F74207375636365656400000000000000000000000000000000000000000000 PUSH1 0x64 DUP3 ADD MSTORE PUSH1 0x84 ADD PUSH2 0x428 JUMP JUMPDEST PUSH1 0x65 DUP1 SLOAD PUSH1 0x1 PUSH1 0x1 PUSH1 0xA0 SHL SUB DUP4 DUP2 AND PUSH20 0xFFFFFFFFFFFFFFFFFFFFFFFFFFFFFFFFFFFFFFFF NOT DUP4 AND DUP2 OR SWAP1 SWAP4 SSTORE PUSH1 0x40 MLOAD SWAP2 AND SWAP2 SWAP1 DUP3 SWAP1 PUSH32 0x8BE0079C531659141344CD1FD0A4F28419497F9722A3DAAFE3B4186F6B6457E0 SWAP1 PUSH1 0x0 SWAP1 LOG3 POP POP JUMP JUMPDEST PUSH1 0x0 SLOAD PUSH2 0x100 SWAP1 DIV PUSH1 0xFF AND PUSH2 0x17D9 JUMPI PUSH1 0x40 MLOAD PUSH3 0x461BCD PUSH1 0xE5 SHL DUP2 MSTORE PUSH1 0x20 PUSH1 0x4 DUP3 ADD MSTORE PUSH1 0x2B PUSH1 0x24 DUP3 ADD MSTORE PUSH32 0x496E697469616C697A61626C653A20636F6E7472616374206973206E6F742069 PUSH1 0x44 DUP3 ADD MSTORE PUSH11 0x6E697469616C697A696E67 PUSH1 0xA8 SHL PUSH1 0x64 DUP3 ADD MSTORE PUSH1 0x84 ADD PUSH2 0x428 JUMP JUMPDEST PUSH1 0x0 SLOAD PUSH2 0x100 SWAP1 DIV PUSH1 0xFF AND PUSH2 0x1B5F JUMPI PUSH1 0x40 MLOAD PUSH3 0x461BCD PUSH1 0xE5 SHL DUP2 MSTORE PUSH1 0x20 PUSH1 0x4 DUP3 ADD MSTORE PUSH1 0x2B PUSH1 0x24 DUP3 ADD MSTORE PUSH32 0x496E697469616C697A61626C653A20636F6E7472616374206973206E6F742069 PUSH1 0x44 DUP3 ADD MSTORE PUSH11 0x6E697469616C697A696E67 PUSH1 0xA8 SHL PUSH1 0x64 DUP3 ADD MSTORE PUSH1 0x84 ADD PUSH2 0x428 JUMP JUMPDEST PUSH2 0x9E0 CALLER PUSH2 0x17DF JUMP JUMPDEST PUSH1 0x60 PUSH2 0x1B77 DUP5 DUP5 PUSH1 0x0 DUP6 PUSH2 0x1B7F JUMP JUMPDEST SWAP5 SWAP4 POP POP POP POP JUMP JUMPDEST PUSH1 0x60 DUP3 SELFBALANCE LT ISZERO PUSH2 0x1BF7 JUMPI PUSH1 0x40 MLOAD PUSH3 0x461BCD PUSH1 0xE5 SHL DUP2 MSTORE PUSH1 0x20 PUSH1 0x4 DUP3 ADD MSTORE PUSH1 0x26 PUSH1 0x24 DUP3 ADD MSTORE PUSH32 0x416464726573733A20696E73756666696369656E742062616C616E636520666F PUSH1 0x44 DUP3 ADD MSTORE PUSH32 0x722063616C6C0000000000000000000000000000000000000000000000000000 PUSH1 0x64 DUP3 ADD MSTORE PUSH1 0x84 ADD PUSH2 0x428 JUMP JUMPDEST PUSH1 0x0 DUP1 DUP7 PUSH1 0x1 PUSH1 0x1 PUSH1 0xA0 SHL SUB AND DUP6 DUP8 PUSH1 0x40 MLOAD PUSH2 0x1C13 SWAP2 SWAP1 PUSH2 0x1ED8 JUMP JUMPDEST PUSH1 0x0 PUSH1 0x40 MLOAD DUP1 DUP4 SUB DUP2 DUP6 DUP8 GAS CALL SWAP3 POP POP POP RETURNDATASIZE DUP1 PUSH1 0x0 DUP2 EQ PUSH2 0x1C50 JUMPI PUSH1 0x40 MLOAD SWAP2 POP PUSH1 0x1F NOT PUSH1 0x3F RETURNDATASIZE ADD AND DUP3 ADD PUSH1 0x40 MSTORE RETURNDATASIZE DUP3 MSTORE RETURNDATASIZE PUSH1 0x0 PUSH1 0x20 DUP5 ADD RETURNDATACOPY PUSH2 0x1C55 JUMP JUMPDEST PUSH1 0x60 SWAP2 POP JUMPDEST POP SWAP2 POP SWAP2 POP PUSH2 0x1C66 DUP8 DUP4 DUP4 DUP8 PUSH2 0x1C71 JUMP JUMPDEST SWAP8 SWAP7 POP POP POP POP POP POP POP JUMP JUMPDEST PUSH1 0x60 DUP4 ISZERO PUSH2 0x1CE0 JUMPI DUP3 MLOAD PUSH1 0x0 SUB PUSH2 0x1CD9 JUMPI PUSH1 0x1 PUSH1 0x1 PUSH1 0xA0 SHL SUB DUP6 AND EXTCODESIZE PUSH2 0x1CD9 JUMPI PUSH1 0x40 MLOAD PUSH3 0x461BCD PUSH1 0xE5 SHL DUP2 MSTORE PUSH1 0x20 PUSH1 0x4 DUP3 ADD MSTORE PUSH1 0x1D PUSH1 0x24 DUP3 ADD MSTORE PUSH32 0x416464726573733A2063616C6C20746F206E6F6E2D636F6E7472616374000000 PUSH1 0x44 DUP3 ADD MSTORE PUSH1 0x64 ADD PUSH2 0x428 JUMP JUMPDEST POP DUP2 PUSH2 0x1B77 JUMP JUMPDEST PUSH2 0x1B77 DUP4 DUP4 DUP2 MLOAD ISZERO PUSH2 0x1CF5 JUMPI DUP2 MLOAD DUP1 DUP4 PUSH1 0x20 ADD REVERT JUMPDEST DUP1 PUSH1 0x40 MLOAD PUSH3 0x461BCD PUSH1 0xE5 SHL DUP2 MSTORE PUSH1 0x4 ADD PUSH2 0x428 SWAP2 SWAP1 PUSH2 0x1EF4 JUMP JUMPDEST DUP1 CALLDATALOAD PUSH1 0x1 PUSH1 0x1 PUSH1 0xA0 SHL SUB DUP2 AND DUP2 EQ PUSH2 0x1D26 JUMPI PUSH1 0x0 DUP1 REVERT JUMPDEST SWAP2 SWAP1 POP JUMP JUMPDEST PUSH1 0x0 PUSH1 0x20 DUP3 DUP5 SUB SLT ISZERO PUSH2 0x1D3D JUMPI PUSH1 0x0 DUP1 REVERT JUMPDEST PUSH2 0x1D46 DUP3 PUSH2 0x1D0F JUMP JUMPDEST SWAP4 SWAP3 POP POP POP JUMP JUMPDEST PUSH1 0x0 DUP1 PUSH1 0x0 DUP1 PUSH1 0x0 DUP1 PUSH1 0xC0 DUP8 DUP10 SUB SLT ISZERO PUSH2 0x1D66 JUMPI PUSH1 0x0 DUP1 REVERT JUMPDEST PUSH2 0x1D6F DUP8 PUSH2 0x1D0F JUMP JUMPDEST SWAP6 POP PUSH2 0x1D7D PUSH1 0x20 DUP9 ADD PUSH2 0x1D0F JUMP JUMPDEST SWAP5 POP PUSH2 0x1D8B PUSH1 0x40 DUP9 ADD PUSH2 0x1D0F JUMP JUMPDEST SWAP4 POP PUSH2 0x1D99 PUSH1 0x60 DUP9 ADD PUSH2 0x1D0F JUMP JUMPDEST SWAP3 POP PUSH1 0x80 DUP8 ADD CALLDATALOAD SWAP2 POP PUSH1 0xA0 DUP8 ADD CALLDATALOAD SWAP1 POP SWAP3 SWAP6 POP SWAP3 SWAP6 POP SWAP3 SWAP6 JUMP JUMPDEST PUSH1 0x0 PUSH1 0x20 DUP3 DUP5 SUB SLT ISZERO PUSH2 0x1DC5 JUMPI PUSH1 0x0 DUP1 REVERT JUMPDEST POP CALLDATALOAD SWAP2 SWAP1 POP JUMP JUMPDEST PUSH32 0x4E487B7100000000000000000000000000000000000000000000000000000000 PUSH1 0x0 MSTORE PUSH1 0x11 PUSH1 0x4 MSTORE PUSH1 0x24 PUSH1 0x0 REVERT JUMPDEST DUP2 DUP2 SUB DUP2 DUP2 GT ISZERO PUSH2 0x1E0E JUMPI PUSH2 0x1E0E PUSH2 0x1DCC JUMP JUMPDEST SWAP3 SWAP2 POP POP JUMP JUMPDEST PUSH1 0x0 PUSH1 0x20 DUP3 DUP5 SUB SLT ISZERO PUSH2 0x1E26 JUMPI PUSH1 0x0 DUP1 REVERT JUMPDEST POP MLOAD SWAP2 SWAP1 POP JUMP JUMPDEST DUP1 DUP3 MUL DUP2 ISZERO DUP3 DUP3 DIV DUP5 EQ OR PUSH2 0x1E0E JUMPI PUSH2 0x1E0E PUSH2 0x1DCC JUMP JUMPDEST PUSH1 0x0 DUP3 PUSH2 0x1E7A JUMPI PUSH32 0x4E487B7100000000000000000000000000000000000000000000000000000000 PUSH1 0x0 MSTORE PUSH1 0x12 PUSH1 0x4 MSTORE PUSH1 0x24 PUSH1 0x0 REVERT JUMPDEST POP DIV SWAP1 JUMP JUMPDEST DUP1 DUP3 ADD DUP1 DUP3 GT ISZERO PUSH2 0x1E0E JUMPI PUSH2 0x1E0E PUSH2 0x1DCC JUMP JUMPDEST PUSH1 0x0 PUSH1 0x20 DUP3 DUP5 SUB SLT ISZERO PUSH2 0x1EA4 JUMPI PUSH1 0x0 DUP1 REVERT JUMPDEST DUP2 MLOAD DUP1 ISZERO ISZERO DUP2 EQ PUSH2 0x1D46 JUMPI PUSH1 0x0 DUP1 REVERT JUMPDEST PUSH1 0x0 JUMPDEST DUP4 DUP2 LT ISZERO PUSH2 0x1ECF JUMPI DUP2 DUP2 ADD MLOAD DUP4 DUP3 ADD MSTORE PUSH1 0x20 ADD PUSH2 0x1EB7 JUMP JUMPDEST POP POP PUSH1 0x0 SWAP2 ADD MSTORE JUMP JUMPDEST PUSH1 0x0 DUP3 MLOAD PUSH2 0x1EEA DUP2 DUP5 PUSH1 0x20 DUP8 ADD PUSH2 0x1EB4 JUMP JUMPDEST SWAP2 SWAP1 SWAP2 ADD SWAP3 SWAP2 POP POP JUMP JUMPDEST PUSH1 0x20 DUP2 MSTORE PUSH1 0x0 DUP3 MLOAD DUP1 PUSH1 0x20 DUP5 ADD MSTORE PUSH2 0x1F13 DUP2 PUSH1 0x40 DUP6 ADD PUSH1 0x20 DUP8 ADD PUSH2 0x1EB4 JUMP JUMPDEST PUSH1 0x1F ADD PUSH1 0x1F NOT AND SWAP2 SWAP1 SWAP2 ADD PUSH1 0x40 ADD SWAP3 SWAP2 POP POP JUMP INVALID LOG2 PUSH5 0x6970667358 0x22 SLT KECCAK256 0xD8 CALLCODE SWAP2 JUMPDEST 0xBD 0xF9 0xAF 0xE7 SELFDESTRUCT 0xDA 0xF9 PUSH23 0xDA8BB9501CE9898B4CD708056C6B0C3CD4DEDEC264736F PUSH13 0x63430008120033000000000000 "},"methodIdentifiers":{"PRECISION()":"aaf5eb68","START_SALE()":"20df16bf","START_VESTING()":"aa264c9b","VESTING_DURATION()":"4cfc4d30","acceptOwnership()":"79ba5097","allowChange()":"d5ff56f8","buy(uint256)":"d96a094a","changeReceiver(address)":"547e3f06","claim()":"4e71d92d","claimableAmount(address)":"89885049","claimedAmount(address)":"04e86903","deposit()":"d0e30db0","initialize(address,address,address,address,uint256,uint256)":"d7c41c79","instantPercentage()":"827d606f","intx()":"46f7d6c9","minBuy()":"7107d7a6","multisig()":"4783c35b","owner()":"8da5cb5b","pendingOwner()":"e30c3978","raiseToken()":"4da60aa5","renounceOwnership()":"715018a6","seeded()":"334041a6","totalAllocation()":"79203dc4","totalClaimable()":"4838ed19","totalRaised()":"c5c4744c","totalToRaise()":"1ce48df1","transferOwnership(address)":"f2fde38b","withdraw()":"3ccfd60b","withdrawUnallocatedIntx()":"30dfa3b5","xIntx()":"27a7af89"}},"storageLayout":{"storage":[{"astId":246,"contract":"contracts/nouse/PublicSaleINTX.sol:PublicSaleINTX","label":"_initialized","offset":0,"slot":"0","type":"t_uint8"},{"astId":249,"contract":"contracts/nouse/PublicSaleINTX.sol:PublicSaleINTX","label":"_initializing","offset":1,"slot":"0","type":"t_bool"},{"astId":423,"contract":"contracts/nouse/PublicSaleINTX.sol:PublicSaleINTX","label":"_status","offset":0,"slot":"1","type":"t_uint256"},{"astId":492,"contract":"contracts/nouse/PublicSaleINTX.sol:PublicSaleINTX","label":"__gap","offset":0,"slot":"2","type":"t_array(t_uint256)49_storage"},{"astId":1654,"contract":"contracts/nouse/PublicSaleINTX.sol:PublicSaleINTX","label":"__gap","offset":0,"slot":"51","type":"t_array(t_uint256)50_storage"},{"astId":118,"contract":"contracts/nouse/PublicSaleINTX.sol:PublicSaleINTX","label":"_owner","offset":0,"slot":"101","type":"t_address"},{"astId":238,"contract":"contracts/nouse/PublicSaleINTX.sol:PublicSaleINTX","label":"__gap","offset":0,"slot":"102","type":"t_array(t_uint256)49_storage"},{"astId":11,"contract":"contracts/nouse/PublicSaleINTX.sol:PublicSaleINTX","label":"_pendingOwner","offset":0,"slot":"151","type":"t_address"},{"astId":105,"contract":"contracts/nouse/PublicSaleINTX.sol:PublicSaleINTX","label":"__gap","offset":0,"slot":"152","type":"t_array(t_uint256)49_storage"},{"astId":3294,"contract":"contracts/nouse/PublicSaleINTX.sol:PublicSaleINTX","label":"instantPercentage","offset":0,"slot":"201","type":"t_uint256"},{"astId":3296,"contract":"contracts/nouse/PublicSaleINTX.sol:PublicSaleINTX","label":"START_SALE","offset":0,"slot":"202","type":"t_uint256"},{"astId":3298,"contract":"contracts/nouse/PublicSaleINTX.sol:PublicSaleINTX","label":"START_VESTING","offset":0,"slot":"203","type":"t_uint256"},{"astId":3300,"contract":"contracts/nouse/PublicSaleINTX.sol:PublicSaleINTX","label":"VESTING_DURATION","offset":0,"slot":"204","type":"t_uint256"},{"astId":3302,"contract":"contracts/nouse/PublicSaleINTX.sol:PublicSaleINTX","label":"multisig","offset":0,"slot":"205","type":"t_address"},{"astId":3304,"contract":"contracts/nouse/PublicSaleINTX.sol:PublicSaleINTX","label":"allowChange","offset":20,"slot":"205","type":"t_bool"},{"astId":3306,"contract":"contracts/nouse/PublicSaleINTX.sol:PublicSaleINTX","label":"totalAllocation","offset":0,"slot":"206","type":"t_uint256"},{"astId":3308,"contract":"contracts/nouse/PublicSaleINTX.sol:PublicSaleINTX","label":"totalToRaise","offset":0,"slot":"207","type":"t_uint256"},{"astId":3310,"contract":"contracts/nouse/PublicSaleINTX.sol:PublicSaleINTX","label":"totalRaised","offset":0,"slot":"208","type":"t_uint256"},{"astId":3312,"contract":"contracts/nouse/PublicSaleINTX.sol:PublicSaleINTX","label":"minBuy","offset":0,"slot":"209","type":"t_uint256"},{"astId":3314,"contract":"contracts/nouse/PublicSaleINTX.sol:PublicSaleINTX","label":"seeded","offset":0,"slot":"210","type":"t_bool"},{"astId":3316,"contract":"contracts/nouse/PublicSaleINTX.sol:PublicSaleINTX","label":"totalClaimable","offset":0,"slot":"211","type":"t_uint256"},{"astId":3319,"contract":"contracts/nouse/PublicSaleINTX.sol:PublicSaleINTX","label":"intx","offset":0,"slot":"212","type":"t_contract(IERC20)2433"},{"astId":3322,"contract":"contracts/nouse/PublicSaleINTX.sol:PublicSaleINTX","label":"raiseToken","offset":0,"slot":"213","type":"t_contract(IERC20)2433"},{"astId":3325,"contract":"contracts/nouse/PublicSaleINTX.sol:PublicSaleINTX","label":"xIntx","offset":0,"slot":"214","type":"t_contract(IStakedINTX)3281"},{"astId":3329,"contract":"contracts/nouse/PublicSaleINTX.sol:PublicSaleINTX","label":"claimableAmount","offset":0,"slot":"215","type":"t_mapping(t_address,t_uint256)"},{"astId":3333,"contract":"contracts/nouse/PublicSaleINTX.sol:PublicSaleINTX","label":"claimedAmount","offset":0,"slot":"216","type":"t_mapping(t_address,t_uint256)"}],"types":{"t_address":{"encoding":"inplace","label":"address","numberOfBytes":"20"},"t_array(t_uint256)49_storage":{"base":"t_uint256","encoding":"inplace","label":"uint256[49]","numberOfBytes":"1568"},"t_array(t_uint256)50_storage":{"base":"t_uint256","encoding":"inplace","label":"uint256[50]","numberOfBytes":"1600"},"t_bool":{"encoding":"inplace","label":"bool","numberOfBytes":"1"},"t_contract(IERC20)2433":{"encoding":"inplace","label":"contract IERC20","numberOfBytes":"20"},"t_contract(IStakedINTX)3281":{"encoding":"inplace","label":"contract IStakedINTX","numberOfBytes":"20"},"t_mapping(t_address,t_uint256)":{"encoding":"mapping","key":"t_address","label":"mapping(address => uint256)","numberOfBytes":"32","value":"t_uint256"},"t_uint256":{"encoding":"inplace","label":"uint256","numberOfBytes":"32"},"t_uint8":{"encoding":"inplace","label":"uint8","numberOfBytes":"1"}}}}}}