{"contracts/solver/SymmioPartyB.sol":{"SymmioPartyB":{"abi":[{"inputs":[],"stateMutability":"nonpayable","type":"constructor"},{"anonymous":false,"inputs":[{"indexed":false,"internalType":"uint256","name":"quoteId","type":"uint256"},{"indexed":false,"internalType":"uint256","name":"amount","type":"uint256"},{"indexed":false,"internalType":"uint256","name":"price","type":"uint256"},{"indexed":false,"internalType":"bytes","name":"revertData","type":"bytes"}],"name":"ADLSkip","type":"event"},{"anonymous":false,"inputs":[{"indexed":false,"internalType":"address","name":"previousAdmin","type":"address"},{"indexed":false,"internalType":"address","name":"newAdmin","type":"address"}],"name":"AdminChanged","type":"event"},{"anonymous":false,"inputs":[{"indexed":true,"internalType":"address","name":"beacon","type":"address"}],"name":"BeaconUpgraded","type":"event"},{"anonymous":false,"inputs":[{"indexed":false,"internalType":"uint8","name":"version","type":"uint8"}],"name":"Initialized","type":"event"},{"anonymous":false,"inputs":[{"indexed":false,"internalType":"address","name":"account","type":"address"}],"name":"Paused","type":"event"},{"anonymous":false,"inputs":[{"indexed":true,"internalType":"bytes32","name":"role","type":"bytes32"},{"indexed":true,"internalType":"bytes32","name":"previousAdminRole","type":"bytes32"},{"indexed":true,"internalType":"bytes32","name":"newAdminRole","type":"bytes32"}],"name":"RoleAdminChanged","type":"event"},{"anonymous":false,"inputs":[{"indexed":true,"internalType":"bytes32","name":"role","type":"bytes32"},{"indexed":true,"internalType":"address","name":"account","type":"address"},{"indexed":true,"internalType":"address","name":"sender","type":"address"}],"name":"RoleGranted","type":"event"},{"anonymous":false,"inputs":[{"indexed":true,"internalType":"bytes32","name":"role","type":"bytes32"},{"indexed":true,"internalType":"address","name":"account","type":"address"},{"indexed":true,"internalType":"address","name":"sender","type":"address"}],"name":"RoleRevoked","type":"event"},{"anonymous":false,"inputs":[{"indexed":false,"internalType":"address","name":"addr","type":"address"},{"indexed":false,"internalType":"bool","name":"state","type":"bool"}],"name":"SetMulticastWhitelist","type":"event"},{"anonymous":false,"inputs":[{"indexed":false,"internalType":"bytes4","name":"selector","type":"bytes4"},{"indexed":false,"internalType":"bool","name":"state","type":"bool"}],"name":"SetRestrictedSelector","type":"event"},{"anonymous":false,"inputs":[{"indexed":false,"internalType":"address","name":"oldSymmioAddress","type":"address"},{"indexed":false,"internalType":"address","name":"newSymmioAddress","type":"address"}],"name":"SetSymmioAddress","type":"event"},{"anonymous":false,"inputs":[{"indexed":false,"internalType":"address","name":"account","type":"address"}],"name":"Unpaused","type":"event"},{"anonymous":false,"inputs":[{"indexed":true,"internalType":"address","name":"implementation","type":"address"}],"name":"Upgraded","type":"event"},{"inputs":[],"name":"DEFAULT_ADMIN_ROLE","outputs":[{"internalType":"bytes32","name":"","type":"bytes32"}],"stateMutability":"view","type":"function"},{"inputs":[],"name":"MANAGER_ROLE","outputs":[{"internalType":"bytes32","name":"","type":"bytes32"}],"stateMutability":"view","type":"function"},{"inputs":[],"name":"PAUSER_ROLE","outputs":[{"internalType":"bytes32","name":"","type":"bytes32"}],"stateMutability":"view","type":"function"},{"inputs":[],"name":"SETTER_ROLE","outputs":[{"internalType":"bytes32","name":"","type":"bytes32"}],"stateMutability":"view","type":"function"},{"inputs":[],"name":"TRUSTED_ROLE","outputs":[{"internalType":"bytes32","name":"","type":"bytes32"}],"stateMutability":"view","type":"function"},{"inputs":[],"name":"UNPAUSER_ROLE","outputs":[{"internalType":"bytes32","name":"","type":"bytes32"}],"stateMutability":"view","type":"function"},{"inputs":[{"internalType":"address","name":"token","type":"address"},{"internalType":"uint256","name":"amount","type":"uint256"}],"name":"_approve","outputs":[],"stateMutability":"nonpayable","type":"function"},{"inputs":[{"internalType":"bytes[]","name":"_callDatas","type":"bytes[]"}],"name":"_call","outputs":[],"stateMutability":"nonpayable","type":"function"},{"inputs":[{"internalType":"address[]","name":"destAddresses","type":"address[]"},{"internalType":"bytes[]","name":"_callDatas","type":"bytes[]"}],"name":"_multicastCall","outputs":[],"stateMutability":"nonpayable","type":"function"},{"inputs":[{"internalType":"uint256[]","name":"quoteIds","type":"uint256[]"},{"internalType":"uint256[]","name":"amounts","type":"uint256[]"},{"internalType":"uint256[]","name":"prices","type":"uint256[]"}],"name":"adlClose","outputs":[],"stateMutability":"nonpayable","type":"function"},{"inputs":[{"internalType":"bytes32","name":"role","type":"bytes32"}],"name":"getRoleAdmin","outputs":[{"internalType":"bytes32","name":"","type":"bytes32"}],"stateMutability":"view","type":"function"},{"inputs":[{"internalType":"bytes32","name":"role","type":"bytes32"},{"internalType":"address","name":"account","type":"address"}],"name":"grantRole","outputs":[],"stateMutability":"nonpayable","type":"function"},{"inputs":[{"internalType":"bytes32","name":"role","type":"bytes32"},{"internalType":"address","name":"account","type":"address"}],"name":"hasRole","outputs":[{"internalType":"bool","name":"","type":"bool"}],"stateMutability":"view","type":"function"},{"inputs":[{"internalType":"address","name":"admin","type":"address"},{"internalType":"address","name":"symmioAddress_","type":"address"}],"name":"initialize","outputs":[],"stateMutability":"nonpayable","type":"function"},{"inputs":[{"internalType":"bytes32","name":"hash","type":"bytes32"},{"internalType":"bytes","name":"signature","type":"bytes"}],"name":"isValidSignature","outputs":[{"internalType":"bytes4","name":"magicValue","type":"bytes4"}],"stateMutability":"view","type":"function"},{"inputs":[{"internalType":"address","name":"","type":"address"}],"name":"multicastWhitelist","outputs":[{"internalType":"bool","name":"","type":"bool"}],"stateMutability":"view","type":"function"},{"inputs":[],"name":"pause","outputs":[],"stateMutability":"nonpayable","type":"function"},{"inputs":[],"name":"paused","outputs":[{"internalType":"bool","name":"","type":"bool"}],"stateMutability":"view","type":"function"},{"inputs":[],"name":"proxiableUUID","outputs":[{"internalType":"bytes32","name":"","type":"bytes32"}],"stateMutability":"view","type":"function"},{"inputs":[{"internalType":"bytes32","name":"role","type":"bytes32"},{"internalType":"address","name":"account","type":"address"}],"name":"renounceRole","outputs":[],"stateMutability":"nonpayable","type":"function"},{"inputs":[{"internalType":"bytes4","name":"","type":"bytes4"}],"name":"restrictedSelectors","outputs":[{"internalType":"bool","name":"","type":"bool"}],"stateMutability":"view","type":"function"},{"inputs":[{"internalType":"bytes32","name":"role","type":"bytes32"},{"internalType":"address","name":"account","type":"address"}],"name":"revokeRole","outputs":[],"stateMutability":"nonpayable","type":"function"},{"inputs":[{"internalType":"address","name":"addr","type":"address"},{"internalType":"bool","name":"state","type":"bool"}],"name":"setMulticastWhitelist","outputs":[],"stateMutability":"nonpayable","type":"function"},{"inputs":[{"internalType":"bytes4","name":"selector","type":"bytes4"},{"internalType":"bool","name":"state","type":"bool"}],"name":"setRestrictedSelector","outputs":[],"stateMutability":"nonpayable","type":"function"},{"inputs":[{"internalType":"address","name":"_signer","type":"address"}],"name":"setSigner","outputs":[],"stateMutability":"nonpayable","type":"function"},{"inputs":[{"internalType":"address","name":"addr","type":"address"}],"name":"setSymmioAddress","outputs":[],"stateMutability":"nonpayable","type":"function"},{"inputs":[],"name":"signer","outputs":[{"internalType":"address","name":"","type":"address"}],"stateMutability":"view","type":"function"},{"inputs":[{"internalType":"bytes4","name":"interfaceId","type":"bytes4"}],"name":"supportsInterface","outputs":[{"internalType":"bool","name":"","type":"bool"}],"stateMutability":"view","type":"function"},{"inputs":[],"name":"symmioAddress","outputs":[{"internalType":"address","name":"","type":"address"}],"stateMutability":"view","type":"function"},{"inputs":[],"name":"unpause","outputs":[],"stateMutability":"nonpayable","type":"function"},{"inputs":[{"internalType":"address","name":"newImplementation","type":"address"}],"name":"upgradeTo","outputs":[],"stateMutability":"nonpayable","type":"function"},{"inputs":[{"internalType":"address","name":"newImplementation","type":"address"},{"internalType":"bytes","name":"data","type":"bytes"}],"name":"upgradeToAndCall","outputs":[],"stateMutability":"payable","type":"function"},{"inputs":[{"internalType":"address","name":"token","type":"address"},{"internalType":"uint256","name":"amount","type":"uint256"}],"name":"withdrawERC20","outputs":[],"stateMutability":"nonpayable","type":"function"}],"evm":{"bytecode":{"linkReferences":{},"object":"60a06040523060805234801561001457600080fd5b5061001d610022565b6100e1565b600054610100900460ff161561008e5760405162461bcd60e51b815260206004820152602760248201527f496e697469616c697a61626c653a20636f6e747261637420697320696e697469604482015266616c697a696e6760c81b606482015260840160405180910390fd5b60005460ff908116146100df576000805460ff191660ff9081179091556040519081527f7f26b83ff96e1f2b6a682f133852f6798a09c465da95921460cefb38474024989060200160405180910390a15b565b60805161301c610118600039600081816108fd0152818161099301528181610c8601528181610d1c0152610e13015261301c6000f3fe6080604052600436106101fd5760003560e01c8063717bb2621161011d578063a217fddf116100b0578063e63ab1e91161007f578063edddc27311610064578063edddc27314610670578063f504fd59146106a1578063fb1bb9de146106c157600080fd5b8063e63ab1e914610608578063ec87621c1461063c57600080fd5b8063a217fddf14610593578063ca9d9c9d146105a8578063d37a8559146105c8578063d547741f146105e857600080fd5b80638456cb59116100ec5780638456cb59146104e457806391d14854146104f9578063a1db97821461053f578063a2011b3f1461055f57600080fd5b8063717bb262146104635780637278b28f146104835780637b7d7225146104a457806383aba1d3146104c457600080fd5b80633659cfe61161019557806352d1902d1161016457806352d1902d146103e25780635901692e146103f75780635c975abb1461042b5780636c19e7831461044357600080fd5b80633659cfe61461037a5780633f4ba83a1461039a578063485cc955146103af5780634f1ef286146103cf57600080fd5b8063238ac933116101d1578063238ac933146102c3578063248a9ca3146102fc5780632f2ff15d1461033a57806336568abe1461035a57600080fd5b8062fbc3551461020257806301569e3a1461024857806301ffc9a71461026a5780631626ba7e1461028a575b600080fd5b34801561020e57600080fd5b5061023361021d36600461291b565b61012f6020526000908152604090205460ff1681565b60405190151581526020015b60405180910390f35b34801561025457600080fd5b5061026861026336600461291b565b6106f5565b005b34801561027657600080fd5b5061023361028536600461294e565b610779565b34801561029657600080fd5b506102aa6102a5366004612a0f565b6107e2565b6040516001600160e01b0319909116815260200161023f565b3480156102cf57600080fd5b50610130546102e4906001600160a01b031681565b6040516001600160a01b03909116815260200161023f565b34801561030857600080fd5b5061032c610317366004612a56565b60009081526097602052604090206001015490565b60405190815260200161023f565b34801561034657600080fd5b50610268610355366004612a6f565b610838565b34801561036657600080fd5b50610268610375366004612a6f565b610862565b34801561038657600080fd5b5061026861039536600461291b565b6108f3565b3480156103a657600080fd5b50610268610a90565b3480156103bb57600080fd5b506102686103ca366004612a9b565b610ac2565b6102686103dd366004612ac5565b610c7c565b3480156103ee57600080fd5b5061032c610e06565b34801561040357600080fd5b5061032c7f2de84d9fbdf6d06e2cc584295043dbd76046423b9f8bae9426d4fa5e7c03f4a781565b34801561043757600080fd5b5060335460ff16610233565b34801561044f57600080fd5b5061026861045e36600461291b565b610ecb565b34801561046f57600080fd5b5061026861047e366004612b0b565b610f26565b34801561048f57600080fd5b5061012d546102e4906001600160a01b031681565b3480156104b057600080fd5b506102686104bf366004612b42565b611005565b3480156104d057600080fd5b506102686104df366004612b6c565b611114565b3480156104f057600080fd5b5061026861117d565b34801561050557600080fd5b50610233610514366004612a6f565b60009182526097602090815260408084206001600160a01b0393909316845291905290205460ff1690565b34801561054b57600080fd5b5061026861055a366004612b42565b6111af565b34801561056b57600080fd5b5061032c7f61c92169ef077349011ff0b1383c894d86c5f0b41d986366b58a6cf31e93beda81565b34801561059f57600080fd5b5061032c600081565b3480156105b457600080fd5b506102686105c3366004612bcd565b6112af565b3480156105d457600080fd5b506102686105e3366004612c0f565b611349565b3480156105f457600080fd5b50610268610603366004612a6f565b6116ed565b34801561061457600080fd5b5061032c7f65d7a28e3265b37a6474929f336521b332c1681b933f6cb9f3376673440d862a81565b34801561064857600080fd5b5061032c7f241ecf16d79d0f8dbfb92cbc07fe17840425976cf0667f022fe9877caa831b0881565b34801561067c57600080fd5b5061023361068b36600461294e565b61012e6020526000908152604090205460ff1681565b3480156106ad57600080fd5b506102686106bc366004612cb5565b611712565b3480156106cd57600080fd5b5061032c7f427da25fe773164f88948d3e215c94b6554e2ed5e5f203a821c9f2f6131cf75a81565b6000610700816117f8565b61012d54604080516001600160a01b03928316815291841660208301527ff78ccdf5924090b2ab6627ac5da4ec5affed73d47c6bc6c8a4620a0d5ed57bc8910160405180910390a15061012d805473ffffffffffffffffffffffffffffffffffffffff19166001600160a01b0392909216919091179055565b60006001600160e01b031982167f7965db0b0000000000000000000000000000000000000000000000000000000014806107dc57507f01ffc9a7000000000000000000000000000000000000000000000000000000006001600160e01b03198316145b92915050565b610130546000906107fd906001600160a01b03168484611802565b61080f576001600160e01b0319610831565b7f1626ba7e000000000000000000000000000000000000000000000000000000005b9392505050565b600082815260976020526040902060010154610853816117f8565b61085d8383611863565b505050565b6001600160a01b03811633146108e55760405162461bcd60e51b815260206004820152602f60248201527f416363657373436f6e74726f6c3a2063616e206f6e6c792072656e6f756e636560448201527f20726f6c657320666f722073656c66000000000000000000000000000000000060648201526084015b60405180910390fd5b6108ef8282611905565b5050565b6001600160a01b037f00000000000000000000000000000000000000000000000000000000000000001630036109915760405162461bcd60e51b815260206004820152602c60248201527f46756e6374696f6e206d7573742062652063616c6c6564207468726f7567682060448201527f64656c656761746563616c6c000000000000000000000000000000000000000060648201526084016108dc565b7f00000000000000000000000000000000000000000000000000000000000000006001600160a01b03166109ec7f360894a13ba1a3210667c828492db98dca3e2076cc3735a920a3ca505d382bbc546001600160a01b031690565b6001600160a01b031614610a685760405162461bcd60e51b815260206004820152602c60248201527f46756e6374696f6e206d7573742062652063616c6c6564207468726f7567682060448201527f6163746976652070726f7879000000000000000000000000000000000000000060648201526084016108dc565b610a7181611988565b60408051600080825260208201909252610a8d91839190611993565b50565b7f427da25fe773164f88948d3e215c94b6554e2ed5e5f203a821c9f2f6131cf75a610aba816117f8565b610a8d611b33565b600054610100900460ff1615808015610ae25750600054600160ff909116105b80610afc5750303b158015610afc575060005460ff166001145b610b6e5760405162461bcd60e51b815260206004820152602e60248201527f496e697469616c697a61626c653a20636f6e747261637420697320616c72656160448201527f647920696e697469616c697a656400000000000000000000000000000000000060648201526084016108dc565b6000805460ff191660011790558015610b91576000805461ff0019166101001790555b610b99611b85565b610ba1611c0c565b610ba9611c0c565b610bb4600084611863565b610bde7f2de84d9fbdf6d06e2cc584295043dbd76046423b9f8bae9426d4fa5e7c03f4a784611863565b610c087f241ecf16d79d0f8dbfb92cbc07fe17840425976cf0667f022fe9877caa831b0884611863565b61012d805473ffffffffffffffffffffffffffffffffffffffff19166001600160a01b038416179055801561085d576000805461ff0019169055604051600181527f7f26b83ff96e1f2b6a682f133852f6798a09c465da95921460cefb3847402498906020015b60405180910390a1505050565b6001600160a01b037f0000000000000000000000000000000000000000000000000000000000000000163003610d1a5760405162461bcd60e51b815260206004820152602c60248201527f46756e6374696f6e206d7573742062652063616c6c6564207468726f7567682060448201527f64656c656761746563616c6c000000000000000000000000000000000000000060648201526084016108dc565b7f00000000000000000000000000000000000000000000000000000000000000006001600160a01b0316610d757f360894a13ba1a3210667c828492db98dca3e2076cc3735a920a3ca505d382bbc546001600160a01b031690565b6001600160a01b031614610df15760405162461bcd60e51b815260206004820152602c60248201527f46756e6374696f6e206d7573742062652063616c6c6564207468726f7567682060448201527f6163746976652070726f7879000000000000000000000000000000000000000060648201526084016108dc565b610dfa82611988565b6108ef82826001611993565b6000306001600160a01b037f00000000000000000000000000000000000000000000000000000000000000001614610ea65760405162461bcd60e51b815260206004820152603860248201527f555550535570677261646561626c653a206d757374206e6f742062652063616c60448201527f6c6564207468726f7567682064656c656761746563616c6c000000000000000060648201526084016108dc565b507f360894a13ba1a3210667c828492db98dca3e2076cc3735a920a3ca505d382bbc90565b7f61c92169ef077349011ff0b1383c894d86c5f0b41d986366b58a6cf31e93beda610ef5816117f8565b50610130805473ffffffffffffffffffffffffffffffffffffffff19166001600160a01b0392909216919091179055565b7f241ecf16d79d0f8dbfb92cbc07fe17840425976cf0667f022fe9877caa831b08610f50816117f8565b306001600160a01b03841603610fa85760405162461bcd60e51b815260206004820152601d60248201527f53796d6d696f5061727479423a20496e76616c6964206164647265737300000060448201526064016108dc565b6001600160a01b038316600081815261012f6020908152604091829020805460ff19168615159081179091558251938452908301527ff776d871534c4177eb3ea09ad170db249e5c7057ff18ddf26992d18459a904b19101610c6f565b7f2de84d9fbdf6d06e2cc584295043dbd76046423b9f8bae9426d4fa5e7c03f4a761102f816117f8565b611037611c89565b61012d546040517f095ea7b30000000000000000000000000000000000000000000000000000000081526001600160a01b039182166004820152602481018490529084169063095ea7b3906044016020604051808303816000875af11580156110a4573d6000803e3d6000fd5b505050506040513d601f19601f820116820180604052508101906110c89190612d26565b61085d5760405162461bcd60e51b815260206004820152601a60248201527f53796d6d696f5061727479423a204e6f7420617070726f76656400000000000060448201526064016108dc565b600061111f816117f8565b6001600160e01b03198316600081815261012e6020908152604091829020805460ff19168615159081179091558251938452908301527f3b438b04c48041000349f30457a15358332ec96233735f9bc289621aa82fb7759101610c6f565b7f65d7a28e3265b37a6474929f336521b332c1681b933f6cb9f3376673440d862a6111a7816117f8565b610a8d611cdc565b7f241ecf16d79d0f8dbfb92cbc07fe17840425976cf0667f022fe9877caa831b086111d9816117f8565b6040517fa9059cbb000000000000000000000000000000000000000000000000000000008152336004820152602481018390526001600160a01b0384169063a9059cbb906044016020604051808303816000875af115801561123f573d6000803e3d6000fd5b505050506040513d601f19601f820116820180604052508101906112639190612d26565b61085d5760405162461bcd60e51b815260206004820152601d60248201527f53796d6d696f5061727479423a204e6f74207472616e7366657272656400000060448201526064016108dc565b6112b7611c89565b60005b60ff811682111561085d5761012d54611337906001600160a01b0316848460ff85168181106112eb576112eb612d43565b90506020028101906112fd9190612d59565b8080601f016020809104026020016040519081016040528093929190818152602001838380828437600092019190915250611d1992505050565b8061134181612dd4565b9150506112ba565b611351611c89565b84838114801561136057508181145b6113d25760405162461bcd60e51b815260206004820152602360248201527f53796d6d696f5061727479423a204172726179206c656e677468206d69736d6160448201527f746368000000000000000000000000000000000000000000000000000000000060648201526084016108dc565b61012d546001600160a01b031661142b5760405162461bcd60e51b815260206004820152601d60248201527f53796d6d696f5061727479423a20496e76616c6964206164647265737300000060448201526064016108dc565b3360009081527fd3dcd7dc58e3b6c497be50df5a3ad068b6e0acc697d498ce82a40e016edc5e8a602052604090205460ff168061149657503360009081527f2b695040062d682c5f383fc121d3529271110663a7876b561e44e93485577d13602052604090205460ff165b80611514575061012d60009054906101000a90046001600160a01b03166001600160a01b03166367aa6fea6040518163ffffffff1660e01b8152600401602060405180830381865afa1580156114f0573d6000803e3d6000fd5b505050506040513d601f19601f820116820180604052508101906115149190612d26565b6115605760405162461bcd60e51b815260206004820152601c60248201527f53796d6d696f5061727479423a20496e76616c6964206163636573730000000060448201526064016108dc565b60005b818110156116e35761012d546001600160a01b0316632586992989898481811061158f5761158f612d43565b905060200201358888858181106115a8576115a8612d43565b905060200201358787868181106115c1576115c1612d43565b6040516001600160e01b031960e088901b1681526004810195909552602485019390935250602090910201356044820152606401600060405180830381600087803b15801561160f57600080fd5b505af1925050508015611620575060015b6116db573d80801561164e576040519150601f19603f3d011682016040523d82523d6000602084013e611653565b606091505b507fe474d30861954963e2430d1eb30ee3d32920f7afa7ff8fce00044373a259abf089898481811061168757611687612d43565b905060200201358888858181106116a0576116a0612d43565b905060200201358787868181106116b9576116b9612d43565b90506020020135846040516116d19493929190612e43565b60405180910390a1505b600101611563565b5050505050505050565b600082815260976020526040902060010154611708816117f8565b61085d8383611905565b61171a611c89565b82811461178f5760405162461bcd60e51b815260206004820152602360248201527f53796d6d696f5061727479423a204172726179206c656e677468206d69736d6160448201527f746368000000000000000000000000000000000000000000000000000000000060648201526084016108dc565b60005b60ff81168211156117f1576117df85858360ff168181106117b5576117b5612d43565b90506020020160208101906117ca919061291b565b84848460ff168181106112eb576112eb612d43565b806117e981612dd4565b915050611792565b5050505050565b610a8d81336120ed565b60008060006118118585612162565b9092509050600081600481111561182a5761182a612e68565b1480156118485750856001600160a01b0316826001600160a01b0316145b8061185957506118598686866121a7565b9695505050505050565b60008281526097602090815260408083206001600160a01b038516845290915290205460ff166108ef5760008281526097602090815260408083206001600160a01b03851684529091529020805460ff191660011790556118c13390565b6001600160a01b0316816001600160a01b0316837f2f8788117e7eff1d82e926ec794901d17c78024a50270940304540a733656f0d60405160405180910390a45050565b60008281526097602090815260408083206001600160a01b038516845290915290205460ff16156108ef5760008281526097602090815260408083206001600160a01b0385168085529252808320805460ff1916905551339285917ff6391f5c32d9c69d2a47ea670b442974b53935d1edc7fd64eb21e047a839171b9190a45050565b60006108ef816117f8565b7f4910fdfa16fed3260ed0e7147f7cc6da11a60208b5b9406d12a635614ffd91435460ff16156119c65761085d836122c1565b826001600160a01b03166352d1902d6040518163ffffffff1660e01b8152600401602060405180830381865afa925050508015611a20575060408051601f3d908101601f19168201909252611a1d91810190612e7e565b60015b611a925760405162461bcd60e51b815260206004820152602e60248201527f45524331393637557067726164653a206e657720696d706c656d656e7461746960448201527f6f6e206973206e6f74205555505300000000000000000000000000000000000060648201526084016108dc565b7f360894a13ba1a3210667c828492db98dca3e2076cc3735a920a3ca505d382bbc8114611b275760405162461bcd60e51b815260206004820152602960248201527f45524331393637557067726164653a20756e737570706f727465642070726f7860448201527f6961626c6555554944000000000000000000000000000000000000000000000060648201526084016108dc565b5061085d83838361238c565b611b3b6123b1565b6033805460ff191690557f5db9ee0a495bf2e6ff9c91a7834c1ba4fdd244a5e8aa4e537bd38aeae4b073aa335b6040516001600160a01b03909116815260200160405180910390a1565b600054610100900460ff16611c025760405162461bcd60e51b815260206004820152602b60248201527f496e697469616c697a61626c653a20636f6e7472616374206973206e6f74206960448201527f6e697469616c697a696e6700000000000000000000000000000000000000000060648201526084016108dc565b611c0a612403565b565b600054610100900460ff16611c0a5760405162461bcd60e51b815260206004820152602b60248201527f496e697469616c697a61626c653a20636f6e7472616374206973206e6f74206960448201527f6e697469616c697a696e6700000000000000000000000000000000000000000060648201526084016108dc565b60335460ff1615611c0a5760405162461bcd60e51b815260206004820152601060248201527f5061757361626c653a207061757365640000000000000000000000000000000060448201526064016108dc565b611ce4611c89565b6033805460ff191660011790557f62e78cea01bee320cd4e420270b5ea74000d11b0c9f74754ebdbfc544b05a258611b683390565b6001600160a01b038216611d6f5760405162461bcd60e51b815260206004820152601d60248201527f53796d6d696f5061727479423a20496e76616c6964206164647265737300000060448201526064016108dc565b600481511015611dc15760405162461bcd60e51b815260206004820152601f60248201527f53796d6d696f5061727479423a20496e76616c69642063616c6c20646174610060448201526064016108dc565b61012d546001600160a01b0390811690831603611f6c576020818101516001600160e01b03198116600090815261012e90925260409091205460ff1615611e3157611e2c7f241ecf16d79d0f8dbfb92cbc07fe17840425976cf0667f022fe9877caa831b08336120ed565b611f66565b3360009081527fd3dcd7dc58e3b6c497be50df5a3ad068b6e0acc697d498ce82a40e016edc5e8a602052604090205460ff1680611e9c57503360009081527f2b695040062d682c5f383fc121d3529271110663a7876b561e44e93485577d13602052604090205460ff165b80611f1a575061012d60009054906101000a90046001600160a01b03166001600160a01b03166367aa6fea6040518163ffffffff1660e01b8152600401602060405180830381865afa158015611ef6573d6000803e3d6000fd5b505050506040513d601f19601f82011682018060405250810190611f1a9190612d26565b611f665760405162461bcd60e51b815260206004820152601c60248201527f53796d6d696f5061727479423a20496e76616c6964206163636573730000000060448201526064016108dc565b50612025565b6001600160a01b038216600090815261012f602052604090205460ff16611ffb5760405162461bcd60e51b815260206004820152603460248201527f53796d6d696f5061727479423a2044657374696e6174696f6e2061646472657360448201527f73206973206e6f742077686974656c697374656400000000000000000000000060648201526084016108dc565b6120257f2de84d9fbdf6d06e2cc584295043dbd76046423b9f8bae9426d4fa5e7c03f4a7336120ed565b600080836001600160a01b03166000846040516120429190612e97565b60006040518083038185875af1925050503d806000811461207f576040519150601f19603f3d011682016040523d82523d6000602084013e612084565b606091505b5091509150816120e75780516000036120df5760405162461bcd60e51b815260206004820181905260248201527f53796d6d696f5061727479423a20457865637574696f6e20726576657274656460448201526064016108dc565b805160208201fd5b50505050565b60008281526097602090815260408083206001600160a01b038516845290915290205460ff166108ef576121208161248c565b61212b83602061249e565b60405160200161213c929190612eb3565b60408051601f198184030181529082905262461bcd60e51b82526108dc91600401612f34565b60008082516041036121985760208301516040840151606085015160001a61218c878285856126c7565b945094505050506121a0565b506000905060025b9250929050565b6000806000856001600160a01b0316631626ba7e60e01b86866040516024016121d1929190612f47565b60408051601f198184030181529181526020820180517bffffffffffffffffffffffffffffffffffffffffffffffffffffffff166001600160e01b03199094169390931790925290516122249190612e97565b600060405180830381855afa9150503d806000811461225f576040519150601f19603f3d011682016040523d82523d6000602084013e612264565b606091505b509150915081801561227857506020815110155b8015611859575080517f1626ba7e00000000000000000000000000000000000000000000000000000000906122b69083016020908101908401612e7e565b149695505050505050565b6001600160a01b0381163b61233e5760405162461bcd60e51b815260206004820152602d60248201527f455243313936373a206e657720696d706c656d656e746174696f6e206973206e60448201527f6f74206120636f6e74726163740000000000000000000000000000000000000060648201526084016108dc565b7f360894a13ba1a3210667c828492db98dca3e2076cc3735a920a3ca505d382bbc805473ffffffffffffffffffffffffffffffffffffffff19166001600160a01b0392909216919091179055565b6123958361278b565b6000825111806123a25750805b1561085d576120e783836127cb565b60335460ff16611c0a5760405162461bcd60e51b815260206004820152601460248201527f5061757361626c653a206e6f742070617573656400000000000000000000000060448201526064016108dc565b600054610100900460ff166124805760405162461bcd60e51b815260206004820152602b60248201527f496e697469616c697a61626c653a20636f6e7472616374206973206e6f74206960448201527f6e697469616c697a696e6700000000000000000000000000000000000000000060648201526084016108dc565b6033805460ff19169055565b60606107dc6001600160a01b03831660145b606060006124ad836002612f60565b6124b8906002612f77565b67ffffffffffffffff8111156124d0576124d0612969565b6040519080825280601f01601f1916602001820160405280156124fa576020820181803683370190505b5090507f30000000000000000000000000000000000000000000000000000000000000008160008151811061253157612531612d43565b60200101907effffffffffffffffffffffffffffffffffffffffffffffffffffffffffffff1916908160001a9053507f78000000000000000000000000000000000000000000000000000000000000008160018151811061259457612594612d43565b60200101907effffffffffffffffffffffffffffffffffffffffffffffffffffffffffffff1916908160001a90535060006125d0846002612f60565b6125db906001612f77565b90505b6001811115612678577f303132333435363738396162636465660000000000000000000000000000000085600f166010811061261c5761261c612d43565b1a60f81b82828151811061263257612632612d43565b60200101907effffffffffffffffffffffffffffffffffffffffffffffffffffffffffffff1916908160001a90535060049490941c9361267181612f8a565b90506125de565b5083156108315760405162461bcd60e51b815260206004820181905260248201527f537472696e67733a20686578206c656e67746820696e73756666696369656e7460448201526064016108dc565b6000807f7fffffffffffffffffffffffffffffff5d576e7357a4501ddfe92f46681b20a08311156126fe5750600090506003612782565b6040805160008082526020820180845289905260ff881692820192909252606081018690526080810185905260019060a0016020604051602081039080840390855afa158015612752573d6000803e3d6000fd5b5050604051601f1901519150506001600160a01b03811661277b57600060019250925050612782565b9150600090505b94509492505050565b612794816122c1565b6040516001600160a01b038216907fbc7cd75a20ee27fd9adebab32041f755214dbc6bffa90cc0225b39da2e5c2d3b90600090a250565b60606108318383604051806060016040528060278152602001612fc0602791396060600080856001600160a01b0316856040516128089190612e97565b600060405180830381855af49150503d8060008114612843576040519150601f19603f3d011682016040523d82523d6000602084013e612848565b606091505b509150915061185986838387606083156128c35782516000036128bc576001600160a01b0385163b6128bc5760405162461bcd60e51b815260206004820152601d60248201527f416464726573733a2063616c6c20746f206e6f6e2d636f6e747261637400000060448201526064016108dc565b50816128cd565b6128cd83836128d5565b949350505050565b8151156128e55781518083602001fd5b8060405162461bcd60e51b81526004016108dc9190612f34565b80356001600160a01b038116811461291657600080fd5b919050565b60006020828403121561292d57600080fd5b610831826128ff565b80356001600160e01b03198116811461291657600080fd5b60006020828403121561296057600080fd5b61083182612936565b634e487b7160e01b600052604160045260246000fd5b600082601f83011261299057600080fd5b813567ffffffffffffffff8111156129aa576129aa612969565b604051601f19603f601f19601f8501160116810181811067ffffffffffffffff821117156129da576129da612969565b6040528181528382016020018510156129f257600080fd5b816020850160208301376000918101602001919091529392505050565b60008060408385031215612a2257600080fd5b82359150602083013567ffffffffffffffff811115612a4057600080fd5b612a4c8582860161297f565b9150509250929050565b600060208284031215612a6857600080fd5b5035919050565b60008060408385031215612a8257600080fd5b82359150612a92602084016128ff565b90509250929050565b60008060408385031215612aae57600080fd5b612ab7836128ff565b9150612a92602084016128ff565b60008060408385031215612ad857600080fd5b612ae1836128ff565b9150602083013567ffffffffffffffff811115612a4057600080fd5b8015158114610a8d57600080fd5b60008060408385031215612b1e57600080fd5b612b27836128ff565b91506020830135612b3781612afd565b809150509250929050565b60008060408385031215612b5557600080fd5b612b5e836128ff565b946020939093013593505050565b60008060408385031215612b7f57600080fd5b612b2783612936565b60008083601f840112612b9a57600080fd5b50813567ffffffffffffffff811115612bb257600080fd5b6020830191508360208260051b85010111156121a057600080fd5b60008060208385031215612be057600080fd5b823567ffffffffffffffff811115612bf757600080fd5b612c0385828601612b88565b90969095509350505050565b60008060008060008060608789031215612c2857600080fd5b863567ffffffffffffffff811115612c3f57600080fd5b612c4b89828a01612b88565b909750955050602087013567ffffffffffffffff811115612c6b57600080fd5b612c7789828a01612b88565b909550935050604087013567ffffffffffffffff811115612c9757600080fd5b612ca389828a01612b88565b979a9699509497509295939492505050565b60008060008060408587031215612ccb57600080fd5b843567ffffffffffffffff811115612ce257600080fd5b612cee87828801612b88565b909550935050602085013567ffffffffffffffff811115612d0e57600080fd5b612d1a87828801612b88565b95989497509550505050565b600060208284031215612d3857600080fd5b815161083181612afd565b634e487b7160e01b600052603260045260246000fd5b60008083357fffffffffffffffffffffffffffffffffffffffffffffffffffffffffffffffe1843603018112612d8e57600080fd5b83018035915067ffffffffffffffff821115612da957600080fd5b6020019150368190038213156121a057600080fd5b634e487b7160e01b600052601160045260246000fd5b600060ff821660ff8103612dea57612dea612dbe565b60010192915050565b60005b83811015612e0e578181015183820152602001612df6565b50506000910152565b60008151808452612e2f816020860160208601612df3565b601f01601f19169290920160200192915050565b8481528360208201528260408201526080606082015260006118596080830184612e17565b634e487b7160e01b600052602160045260246000fd5b600060208284031215612e9057600080fd5b5051919050565b60008251612ea9818460208701612df3565b9190910192915050565b7f416363657373436f6e74726f6c3a206163636f756e7420000000000000000000815260008351612eeb816017850160208801612df3565b7f206973206d697373696e6720726f6c65200000000000000000000000000000006017918401918201528351612f28816028840160208801612df3565b01602801949350505050565b6020815260006108316020830184612e17565b8281526040602082015260006128cd6040830184612e17565b80820281158282048414176107dc576107dc612dbe565b808201808211156107dc576107dc612dbe565b600081612f9957612f99612dbe565b507fffffffffffffffffffffffffffffffffffffffffffffffffffffffffffffffff019056fe416464726573733a206c6f772d6c6576656c2064656c65676174652063616c6c206661696c6564a264697066735822122083ffa6fa1c2c98524b45c5fe0ec72f0ef37fa32a2f2ae552be600b430859883e64736f6c634300081c0033","opcodes":"PUSH1 0xA0 PUSH1 0x40 MSTORE ADDRESS PUSH1 0x80 MSTORE CALLVALUE DUP1 ISZERO PUSH2 0x14 JUMPI PUSH1 0x0 DUP1 REVERT JUMPDEST POP PUSH2 0x1D PUSH2 0x22 JUMP JUMPDEST PUSH2 0xE1 JUMP JUMPDEST PUSH1 0x0 SLOAD PUSH2 0x100 SWAP1 DIV PUSH1 0xFF AND ISZERO PUSH2 0x8E JUMPI PUSH1 0x40 MLOAD PUSH3 0x461BCD PUSH1 0xE5 SHL DUP2 MSTORE PUSH1 0x20 PUSH1 0x4 DUP3 ADD MSTORE PUSH1 0x27 PUSH1 0x24 DUP3 ADD MSTORE PUSH32 0x496E697469616C697A61626C653A20636F6E747261637420697320696E697469 PUSH1 0x44 DUP3 ADD MSTORE PUSH7 0x616C697A696E67 PUSH1 0xC8 SHL PUSH1 0x64 DUP3 ADD MSTORE PUSH1 0x84 ADD PUSH1 0x40 MLOAD DUP1 SWAP2 SUB SWAP1 REVERT JUMPDEST PUSH1 0x0 SLOAD PUSH1 0xFF SWAP1 DUP2 AND EQ PUSH2 0xDF JUMPI PUSH1 0x0 DUP1 SLOAD PUSH1 0xFF NOT AND PUSH1 0xFF SWAP1 DUP2 OR SWAP1 SWAP2 SSTORE PUSH1 0x40 MLOAD SWAP1 DUP2 MSTORE PUSH32 0x7F26B83FF96E1F2B6A682F133852F6798A09C465DA95921460CEFB3847402498 SWAP1 PUSH1 0x20 ADD PUSH1 0x40 MLOAD DUP1 SWAP2 SUB SWAP1 LOG1 JUMPDEST JUMP JUMPDEST PUSH1 0x80 MLOAD PUSH2 0x301C PUSH2 0x118 PUSH1 0x0 CODECOPY PUSH1 0x0 DUP2 DUP2 PUSH2 0x8FD ADD MSTORE DUP2 DUP2 PUSH2 0x993 ADD MSTORE DUP2 DUP2 PUSH2 0xC86 ADD MSTORE DUP2 DUP2 PUSH2 0xD1C ADD MSTORE PUSH2 0xE13 ADD MSTORE PUSH2 0x301C PUSH1 0x0 RETURN INVALID PUSH1 0x80 PUSH1 0x40 MSTORE PUSH1 0x4 CALLDATASIZE LT PUSH2 0x1FD JUMPI PUSH1 0x0 CALLDATALOAD PUSH1 0xE0 SHR DUP1 PUSH4 0x717BB262 GT PUSH2 0x11D JUMPI DUP1 PUSH4 0xA217FDDF GT PUSH2 0xB0 JUMPI DUP1 PUSH4 0xE63AB1E9 GT PUSH2 0x7F JUMPI DUP1 PUSH4 0xEDDDC273 GT PUSH2 0x64 JUMPI DUP1 PUSH4 0xEDDDC273 EQ PUSH2 0x670 JUMPI DUP1 PUSH4 0xF504FD59 EQ PUSH2 0x6A1 JUMPI DUP1 PUSH4 0xFB1BB9DE EQ PUSH2 0x6C1 JUMPI PUSH1 0x0 DUP1 REVERT JUMPDEST DUP1 PUSH4 0xE63AB1E9 EQ PUSH2 0x608 JUMPI DUP1 PUSH4 0xEC87621C EQ PUSH2 0x63C JUMPI PUSH1 0x0 DUP1 REVERT JUMPDEST DUP1 PUSH4 0xA217FDDF EQ PUSH2 0x593 JUMPI DUP1 PUSH4 0xCA9D9C9D EQ PUSH2 0x5A8 JUMPI DUP1 PUSH4 0xD37A8559 EQ PUSH2 0x5C8 JUMPI DUP1 PUSH4 0xD547741F EQ PUSH2 0x5E8 JUMPI PUSH1 0x0 DUP1 REVERT JUMPDEST DUP1 PUSH4 0x8456CB59 GT PUSH2 0xEC JUMPI DUP1 PUSH4 0x8456CB59 EQ PUSH2 0x4E4 JUMPI DUP1 PUSH4 0x91D14854 EQ PUSH2 0x4F9 JUMPI DUP1 PUSH4 0xA1DB9782 EQ PUSH2 0x53F JUMPI DUP1 PUSH4 0xA2011B3F EQ PUSH2 0x55F JUMPI PUSH1 0x0 DUP1 REVERT JUMPDEST DUP1 PUSH4 0x717BB262 EQ PUSH2 0x463 JUMPI DUP1 PUSH4 0x7278B28F EQ PUSH2 0x483 JUMPI DUP1 PUSH4 0x7B7D7225 EQ PUSH2 0x4A4 JUMPI DUP1 PUSH4 0x83ABA1D3 EQ PUSH2 0x4C4 JUMPI PUSH1 0x0 DUP1 REVERT JUMPDEST DUP1 PUSH4 0x3659CFE6 GT PUSH2 0x195 JUMPI DUP1 PUSH4 0x52D1902D GT PUSH2 0x164 JUMPI DUP1 PUSH4 0x52D1902D EQ PUSH2 0x3E2 JUMPI DUP1 PUSH4 0x5901692E EQ PUSH2 0x3F7 JUMPI DUP1 PUSH4 0x5C975ABB EQ PUSH2 0x42B JUMPI DUP1 PUSH4 0x6C19E783 EQ PUSH2 0x443 JUMPI PUSH1 0x0 DUP1 REVERT JUMPDEST DUP1 PUSH4 0x3659CFE6 EQ PUSH2 0x37A JUMPI DUP1 PUSH4 0x3F4BA83A EQ PUSH2 0x39A JUMPI DUP1 PUSH4 0x485CC955 EQ PUSH2 0x3AF JUMPI DUP1 PUSH4 0x4F1EF286 EQ PUSH2 0x3CF JUMPI PUSH1 0x0 DUP1 REVERT JUMPDEST DUP1 PUSH4 0x238AC933 GT PUSH2 0x1D1 JUMPI DUP1 PUSH4 0x238AC933 EQ PUSH2 0x2C3 JUMPI DUP1 PUSH4 0x248A9CA3 EQ PUSH2 0x2FC JUMPI DUP1 PUSH4 0x2F2FF15D EQ PUSH2 0x33A JUMPI DUP1 PUSH4 0x36568ABE EQ PUSH2 0x35A JUMPI PUSH1 0x0 DUP1 REVERT JUMPDEST DUP1 PUSH3 0xFBC355 EQ PUSH2 0x202 JUMPI DUP1 PUSH4 0x1569E3A EQ PUSH2 0x248 JUMPI DUP1 PUSH4 0x1FFC9A7 EQ PUSH2 0x26A JUMPI DUP1 PUSH4 0x1626BA7E EQ PUSH2 0x28A JUMPI JUMPDEST PUSH1 0x0 DUP1 REVERT JUMPDEST CALLVALUE DUP1 ISZERO PUSH2 0x20E JUMPI PUSH1 0x0 DUP1 REVERT JUMPDEST POP PUSH2 0x233 PUSH2 0x21D CALLDATASIZE PUSH1 0x4 PUSH2 0x291B JUMP JUMPDEST PUSH2 0x12F PUSH1 0x20 MSTORE PUSH1 0x0 SWAP1 DUP2 MSTORE PUSH1 0x40 SWAP1 KECCAK256 SLOAD PUSH1 0xFF AND DUP2 JUMP JUMPDEST PUSH1 0x40 MLOAD SWAP1 ISZERO ISZERO DUP2 MSTORE PUSH1 0x20 ADD JUMPDEST PUSH1 0x40 MLOAD DUP1 SWAP2 SUB SWAP1 RETURN JUMPDEST CALLVALUE DUP1 ISZERO PUSH2 0x254 JUMPI PUSH1 0x0 DUP1 REVERT JUMPDEST POP PUSH2 0x268 PUSH2 0x263 CALLDATASIZE PUSH1 0x4 PUSH2 0x291B JUMP JUMPDEST PUSH2 0x6F5 JUMP JUMPDEST STOP JUMPDEST CALLVALUE DUP1 ISZERO PUSH2 0x276 JUMPI PUSH1 0x0 DUP1 REVERT JUMPDEST POP PUSH2 0x233 PUSH2 0x285 CALLDATASIZE PUSH1 0x4 PUSH2 0x294E JUMP JUMPDEST PUSH2 0x779 JUMP JUMPDEST CALLVALUE DUP1 ISZERO PUSH2 0x296 JUMPI PUSH1 0x0 DUP1 REVERT JUMPDEST POP PUSH2 0x2AA PUSH2 0x2A5 CALLDATASIZE PUSH1 0x4 PUSH2 0x2A0F JUMP JUMPDEST PUSH2 0x7E2 JUMP JUMPDEST PUSH1 0x40 MLOAD PUSH1 0x1 PUSH1 0x1 PUSH1 0xE0 SHL SUB NOT SWAP1 SWAP2 AND DUP2 MSTORE PUSH1 0x20 ADD PUSH2 0x23F JUMP JUMPDEST CALLVALUE DUP1 ISZERO PUSH2 0x2CF JUMPI PUSH1 0x0 DUP1 REVERT JUMPDEST POP PUSH2 0x130 SLOAD PUSH2 0x2E4 SWAP1 PUSH1 0x1 PUSH1 0x1 PUSH1 0xA0 SHL SUB AND DUP2 JUMP JUMPDEST PUSH1 0x40 MLOAD PUSH1 0x1 PUSH1 0x1 PUSH1 0xA0 SHL SUB SWAP1 SWAP2 AND DUP2 MSTORE PUSH1 0x20 ADD PUSH2 0x23F JUMP JUMPDEST CALLVALUE DUP1 ISZERO PUSH2 0x308 JUMPI PUSH1 0x0 DUP1 REVERT JUMPDEST POP PUSH2 0x32C PUSH2 0x317 CALLDATASIZE PUSH1 0x4 PUSH2 0x2A56 JUMP JUMPDEST PUSH1 0x0 SWAP1 DUP2 MSTORE PUSH1 0x97 PUSH1 0x20 MSTORE PUSH1 0x40 SWAP1 KECCAK256 PUSH1 0x1 ADD SLOAD SWAP1 JUMP JUMPDEST PUSH1 0x40 MLOAD SWAP1 DUP2 MSTORE PUSH1 0x20 ADD PUSH2 0x23F JUMP JUMPDEST CALLVALUE DUP1 ISZERO PUSH2 0x346 JUMPI PUSH1 0x0 DUP1 REVERT JUMPDEST POP PUSH2 0x268 PUSH2 0x355 CALLDATASIZE PUSH1 0x4 PUSH2 0x2A6F JUMP JUMPDEST PUSH2 0x838 JUMP JUMPDEST CALLVALUE DUP1 ISZERO PUSH2 0x366 JUMPI PUSH1 0x0 DUP1 REVERT JUMPDEST POP PUSH2 0x268 PUSH2 0x375 CALLDATASIZE PUSH1 0x4 PUSH2 0x2A6F JUMP JUMPDEST PUSH2 0x862 JUMP JUMPDEST CALLVALUE DUP1 ISZERO PUSH2 0x386 JUMPI PUSH1 0x0 DUP1 REVERT JUMPDEST POP PUSH2 0x268 PUSH2 0x395 CALLDATASIZE PUSH1 0x4 PUSH2 0x291B JUMP JUMPDEST PUSH2 0x8F3 JUMP JUMPDEST CALLVALUE DUP1 ISZERO PUSH2 0x3A6 JUMPI PUSH1 0x0 DUP1 REVERT JUMPDEST POP PUSH2 0x268 PUSH2 0xA90 JUMP JUMPDEST CALLVALUE DUP1 ISZERO PUSH2 0x3BB JUMPI PUSH1 0x0 DUP1 REVERT JUMPDEST POP PUSH2 0x268 PUSH2 0x3CA CALLDATASIZE PUSH1 0x4 PUSH2 0x2A9B JUMP JUMPDEST PUSH2 0xAC2 JUMP JUMPDEST PUSH2 0x268 PUSH2 0x3DD CALLDATASIZE PUSH1 0x4 PUSH2 0x2AC5 JUMP JUMPDEST PUSH2 0xC7C JUMP JUMPDEST CALLVALUE DUP1 ISZERO PUSH2 0x3EE JUMPI PUSH1 0x0 DUP1 REVERT JUMPDEST POP PUSH2 0x32C PUSH2 0xE06 JUMP JUMPDEST CALLVALUE DUP1 ISZERO PUSH2 0x403 JUMPI PUSH1 0x0 DUP1 REVERT JUMPDEST POP PUSH2 0x32C PUSH32 0x2DE84D9FBDF6D06E2CC584295043DBD76046423B9F8BAE9426D4FA5E7C03F4A7 DUP2 JUMP JUMPDEST CALLVALUE DUP1 ISZERO PUSH2 0x437 JUMPI PUSH1 0x0 DUP1 REVERT JUMPDEST POP PUSH1 0x33 SLOAD PUSH1 0xFF AND PUSH2 0x233 JUMP JUMPDEST CALLVALUE DUP1 ISZERO PUSH2 0x44F JUMPI PUSH1 0x0 DUP1 REVERT JUMPDEST POP PUSH2 0x268 PUSH2 0x45E CALLDATASIZE PUSH1 0x4 PUSH2 0x291B JUMP JUMPDEST PUSH2 0xECB JUMP JUMPDEST CALLVALUE DUP1 ISZERO PUSH2 0x46F JUMPI PUSH1 0x0 DUP1 REVERT JUMPDEST POP PUSH2 0x268 PUSH2 0x47E CALLDATASIZE PUSH1 0x4 PUSH2 0x2B0B JUMP JUMPDEST PUSH2 0xF26 JUMP JUMPDEST CALLVALUE DUP1 ISZERO PUSH2 0x48F JUMPI PUSH1 0x0 DUP1 REVERT JUMPDEST POP PUSH2 0x12D SLOAD PUSH2 0x2E4 SWAP1 PUSH1 0x1 PUSH1 0x1 PUSH1 0xA0 SHL SUB AND DUP2 JUMP JUMPDEST CALLVALUE DUP1 ISZERO PUSH2 0x4B0 JUMPI PUSH1 0x0 DUP1 REVERT JUMPDEST POP PUSH2 0x268 PUSH2 0x4BF CALLDATASIZE PUSH1 0x4 PUSH2 0x2B42 JUMP JUMPDEST PUSH2 0x1005 JUMP JUMPDEST CALLVALUE DUP1 ISZERO PUSH2 0x4D0 JUMPI PUSH1 0x0 DUP1 REVERT JUMPDEST POP PUSH2 0x268 PUSH2 0x4DF CALLDATASIZE PUSH1 0x4 PUSH2 0x2B6C JUMP JUMPDEST PUSH2 0x1114 JUMP JUMPDEST CALLVALUE DUP1 ISZERO PUSH2 0x4F0 JUMPI PUSH1 0x0 DUP1 REVERT JUMPDEST POP PUSH2 0x268 PUSH2 0x117D JUMP JUMPDEST CALLVALUE DUP1 ISZERO PUSH2 0x505 JUMPI PUSH1 0x0 DUP1 REVERT JUMPDEST POP PUSH2 0x233 PUSH2 0x514 CALLDATASIZE PUSH1 0x4 PUSH2 0x2A6F JUMP JUMPDEST PUSH1 0x0 SWAP2 DUP3 MSTORE PUSH1 0x97 PUSH1 0x20 SWAP1 DUP2 MSTORE PUSH1 0x40 DUP1 DUP5 KECCAK256 PUSH1 0x1 PUSH1 0x1 PUSH1 0xA0 SHL SUB SWAP4 SWAP1 SWAP4 AND DUP5 MSTORE SWAP2 SWAP1 MSTORE SWAP1 KECCAK256 SLOAD PUSH1 0xFF AND SWAP1 JUMP JUMPDEST CALLVALUE DUP1 ISZERO PUSH2 0x54B JUMPI PUSH1 0x0 DUP1 REVERT JUMPDEST POP PUSH2 0x268 PUSH2 0x55A CALLDATASIZE PUSH1 0x4 PUSH2 0x2B42 JUMP JUMPDEST PUSH2 0x11AF JUMP JUMPDEST CALLVALUE DUP1 ISZERO PUSH2 0x56B JUMPI PUSH1 0x0 DUP1 REVERT JUMPDEST POP PUSH2 0x32C PUSH32 0x61C92169EF077349011FF0B1383C894D86C5F0B41D986366B58A6CF31E93BEDA DUP2 JUMP JUMPDEST CALLVALUE DUP1 ISZERO PUSH2 0x59F JUMPI PUSH1 0x0 DUP1 REVERT JUMPDEST POP PUSH2 0x32C PUSH1 0x0 DUP2 JUMP JUMPDEST CALLVALUE DUP1 ISZERO PUSH2 0x5B4 JUMPI PUSH1 0x0 DUP1 REVERT JUMPDEST POP PUSH2 0x268 PUSH2 0x5C3 CALLDATASIZE PUSH1 0x4 PUSH2 0x2BCD JUMP JUMPDEST PUSH2 0x12AF JUMP JUMPDEST CALLVALUE DUP1 ISZERO PUSH2 0x5D4 JUMPI PUSH1 0x0 DUP1 REVERT JUMPDEST POP PUSH2 0x268 PUSH2 0x5E3 CALLDATASIZE PUSH1 0x4 PUSH2 0x2C0F JUMP JUMPDEST PUSH2 0x1349 JUMP JUMPDEST CALLVALUE DUP1 ISZERO PUSH2 0x5F4 JUMPI PUSH1 0x0 DUP1 REVERT JUMPDEST POP PUSH2 0x268 PUSH2 0x603 CALLDATASIZE PUSH1 0x4 PUSH2 0x2A6F JUMP JUMPDEST PUSH2 0x16ED JUMP JUMPDEST CALLVALUE DUP1 ISZERO PUSH2 0x614 JUMPI PUSH1 0x0 DUP1 REVERT JUMPDEST POP PUSH2 0x32C PUSH32 0x65D7A28E3265B37A6474929F336521B332C1681B933F6CB9F3376673440D862A DUP2 JUMP JUMPDEST CALLVALUE DUP1 ISZERO PUSH2 0x648 JUMPI PUSH1 0x0 DUP1 REVERT JUMPDEST POP PUSH2 0x32C PUSH32 0x241ECF16D79D0F8DBFB92CBC07FE17840425976CF0667F022FE9877CAA831B08 DUP2 JUMP JUMPDEST CALLVALUE DUP1 ISZERO PUSH2 0x67C JUMPI PUSH1 0x0 DUP1 REVERT JUMPDEST POP PUSH2 0x233 PUSH2 0x68B CALLDATASIZE PUSH1 0x4 PUSH2 0x294E JUMP JUMPDEST PUSH2 0x12E PUSH1 0x20 MSTORE PUSH1 0x0 SWAP1 DUP2 MSTORE PUSH1 0x40 SWAP1 KECCAK256 SLOAD PUSH1 0xFF AND DUP2 JUMP JUMPDEST CALLVALUE DUP1 ISZERO PUSH2 0x6AD JUMPI PUSH1 0x0 DUP1 REVERT JUMPDEST POP PUSH2 0x268 PUSH2 0x6BC CALLDATASIZE PUSH1 0x4 PUSH2 0x2CB5 JUMP JUMPDEST PUSH2 0x1712 JUMP JUMPDEST CALLVALUE DUP1 ISZERO PUSH2 0x6CD JUMPI PUSH1 0x0 DUP1 REVERT JUMPDEST POP PUSH2 0x32C PUSH32 0x427DA25FE773164F88948D3E215C94B6554E2ED5E5F203A821C9F2F6131CF75A DUP2 JUMP JUMPDEST PUSH1 0x0 PUSH2 0x700 DUP2 PUSH2 0x17F8 JUMP JUMPDEST PUSH2 0x12D SLOAD PUSH1 0x40 DUP1 MLOAD PUSH1 0x1 PUSH1 0x1 PUSH1 0xA0 SHL SUB SWAP3 DUP4 AND DUP2 MSTORE SWAP2 DUP5 AND PUSH1 0x20 DUP4 ADD MSTORE PUSH32 0xF78CCDF5924090B2AB6627AC5DA4EC5AFFED73D47C6BC6C8A4620A0D5ED57BC8 SWAP2 ADD PUSH1 0x40 MLOAD DUP1 SWAP2 SUB SWAP1 LOG1 POP PUSH2 0x12D DUP1 SLOAD PUSH20 0xFFFFFFFFFFFFFFFFFFFFFFFFFFFFFFFFFFFFFFFF NOT AND PUSH1 0x1 PUSH1 0x1 PUSH1 0xA0 SHL SUB SWAP3 SWAP1 SWAP3 AND SWAP2 SWAP1 SWAP2 OR SWAP1 SSTORE JUMP JUMPDEST PUSH1 0x0 PUSH1 0x1 PUSH1 0x1 PUSH1 0xE0 SHL SUB NOT DUP3 AND PUSH32 0x7965DB0B00000000000000000000000000000000000000000000000000000000 EQ DUP1 PUSH2 0x7DC JUMPI POP PUSH32 0x1FFC9A700000000000000000000000000000000000000000000000000000000 PUSH1 0x1 PUSH1 0x1 PUSH1 0xE0 SHL SUB NOT DUP4 AND EQ JUMPDEST SWAP3 SWAP2 POP POP JUMP JUMPDEST PUSH2 0x130 SLOAD PUSH1 0x0 SWAP1 PUSH2 0x7FD SWAP1 PUSH1 0x1 PUSH1 0x1 PUSH1 0xA0 SHL SUB AND DUP5 DUP5 PUSH2 0x1802 JUMP JUMPDEST PUSH2 0x80F JUMPI PUSH1 0x1 PUSH1 0x1 PUSH1 0xE0 SHL SUB NOT PUSH2 0x831 JUMP JUMPDEST PUSH32 0x1626BA7E00000000000000000000000000000000000000000000000000000000 JUMPDEST SWAP4 SWAP3 POP POP POP JUMP JUMPDEST PUSH1 0x0 DUP3 DUP2 MSTORE PUSH1 0x97 PUSH1 0x20 MSTORE PUSH1 0x40 SWAP1 KECCAK256 PUSH1 0x1 ADD SLOAD PUSH2 0x853 DUP2 PUSH2 0x17F8 JUMP JUMPDEST PUSH2 0x85D DUP4 DUP4 PUSH2 0x1863 JUMP JUMPDEST POP POP POP JUMP JUMPDEST PUSH1 0x1 PUSH1 0x1 PUSH1 0xA0 SHL SUB DUP2 AND CALLER EQ PUSH2 0x8E5 JUMPI PUSH1 0x40 MLOAD PUSH3 0x461BCD PUSH1 0xE5 SHL DUP2 MSTORE PUSH1 0x20 PUSH1 0x4 DUP3 ADD MSTORE PUSH1 0x2F PUSH1 0x24 DUP3 ADD MSTORE PUSH32 0x416363657373436F6E74726F6C3A2063616E206F6E6C792072656E6F756E6365 PUSH1 0x44 DUP3 ADD MSTORE PUSH32 0x20726F6C657320666F722073656C660000000000000000000000000000000000 PUSH1 0x64 DUP3 ADD MSTORE PUSH1 0x84 ADD JUMPDEST PUSH1 0x40 MLOAD DUP1 SWAP2 SUB SWAP1 REVERT JUMPDEST PUSH2 0x8EF DUP3 DUP3 PUSH2 0x1905 JUMP JUMPDEST POP POP JUMP JUMPDEST PUSH1 0x1 PUSH1 0x1 PUSH1 0xA0 SHL SUB PUSH32 0x0 AND ADDRESS SUB PUSH2 0x991 JUMPI PUSH1 0x40 MLOAD PUSH3 0x461BCD PUSH1 0xE5 SHL DUP2 MSTORE PUSH1 0x20 PUSH1 0x4 DUP3 ADD MSTORE PUSH1 0x2C PUSH1 0x24 DUP3 ADD MSTORE PUSH32 0x46756E6374696F6E206D7573742062652063616C6C6564207468726F75676820 PUSH1 0x44 DUP3 ADD MSTORE PUSH32 0x64656C656761746563616C6C0000000000000000000000000000000000000000 PUSH1 0x64 DUP3 ADD MSTORE PUSH1 0x84 ADD PUSH2 0x8DC JUMP JUMPDEST PUSH32 0x0 PUSH1 0x1 PUSH1 0x1 PUSH1 0xA0 SHL SUB AND PUSH2 0x9EC PUSH32 0x360894A13BA1A3210667C828492DB98DCA3E2076CC3735A920A3CA505D382BBC SLOAD PUSH1 0x1 PUSH1 0x1 PUSH1 0xA0 SHL SUB AND SWAP1 JUMP JUMPDEST PUSH1 0x1 PUSH1 0x1 PUSH1 0xA0 SHL SUB AND EQ PUSH2 0xA68 JUMPI PUSH1 0x40 MLOAD PUSH3 0x461BCD PUSH1 0xE5 SHL DUP2 MSTORE PUSH1 0x20 PUSH1 0x4 DUP3 ADD MSTORE PUSH1 0x2C PUSH1 0x24 DUP3 ADD MSTORE PUSH32 0x46756E6374696F6E206D7573742062652063616C6C6564207468726F75676820 PUSH1 0x44 DUP3 ADD MSTORE PUSH32 0x6163746976652070726F78790000000000000000000000000000000000000000 PUSH1 0x64 DUP3 ADD MSTORE PUSH1 0x84 ADD PUSH2 0x8DC JUMP JUMPDEST PUSH2 0xA71 DUP2 PUSH2 0x1988 JUMP JUMPDEST PUSH1 0x40 DUP1 MLOAD PUSH1 0x0 DUP1 DUP3 MSTORE PUSH1 0x20 DUP3 ADD SWAP1 SWAP3 MSTORE PUSH2 0xA8D SWAP2 DUP4 SWAP2 SWAP1 PUSH2 0x1993 JUMP JUMPDEST POP JUMP JUMPDEST PUSH32 0x427DA25FE773164F88948D3E215C94B6554E2ED5E5F203A821C9F2F6131CF75A PUSH2 0xABA DUP2 PUSH2 0x17F8 JUMP JUMPDEST PUSH2 0xA8D PUSH2 0x1B33 JUMP JUMPDEST PUSH1 0x0 SLOAD PUSH2 0x100 SWAP1 DIV PUSH1 0xFF AND ISZERO DUP1 DUP1 ISZERO PUSH2 0xAE2 JUMPI POP PUSH1 0x0 SLOAD PUSH1 0x1 PUSH1 0xFF SWAP1 SWAP2 AND LT JUMPDEST DUP1 PUSH2 0xAFC JUMPI POP ADDRESS EXTCODESIZE ISZERO DUP1 ISZERO PUSH2 0xAFC JUMPI POP PUSH1 0x0 SLOAD PUSH1 0xFF AND PUSH1 0x1 EQ JUMPDEST PUSH2 0xB6E JUMPI PUSH1 0x40 MLOAD PUSH3 0x461BCD PUSH1 0xE5 SHL DUP2 MSTORE PUSH1 0x20 PUSH1 0x4 DUP3 ADD MSTORE PUSH1 0x2E PUSH1 0x24 DUP3 ADD MSTORE PUSH32 0x496E697469616C697A61626C653A20636F6E747261637420697320616C726561 PUSH1 0x44 DUP3 ADD MSTORE PUSH32 0x647920696E697469616C697A6564000000000000000000000000000000000000 PUSH1 0x64 DUP3 ADD MSTORE PUSH1 0x84 ADD PUSH2 0x8DC JUMP JUMPDEST PUSH1 0x0 DUP1 SLOAD PUSH1 0xFF NOT AND PUSH1 0x1 OR SWAP1 SSTORE DUP1 ISZERO PUSH2 0xB91 JUMPI PUSH1 0x0 DUP1 SLOAD PUSH2 0xFF00 NOT AND PUSH2 0x100 OR SWAP1 SSTORE JUMPDEST PUSH2 0xB99 PUSH2 0x1B85 JUMP JUMPDEST PUSH2 0xBA1 PUSH2 0x1C0C JUMP JUMPDEST PUSH2 0xBA9 PUSH2 0x1C0C JUMP JUMPDEST PUSH2 0xBB4 PUSH1 0x0 DUP5 PUSH2 0x1863 JUMP JUMPDEST PUSH2 0xBDE PUSH32 0x2DE84D9FBDF6D06E2CC584295043DBD76046423B9F8BAE9426D4FA5E7C03F4A7 DUP5 PUSH2 0x1863 JUMP JUMPDEST PUSH2 0xC08 PUSH32 0x241ECF16D79D0F8DBFB92CBC07FE17840425976CF0667F022FE9877CAA831B08 DUP5 PUSH2 0x1863 JUMP JUMPDEST PUSH2 0x12D DUP1 SLOAD PUSH20 0xFFFFFFFFFFFFFFFFFFFFFFFFFFFFFFFFFFFFFFFF NOT AND PUSH1 0x1 PUSH1 0x1 PUSH1 0xA0 SHL SUB DUP5 AND OR SWAP1 SSTORE DUP1 ISZERO PUSH2 0x85D JUMPI PUSH1 0x0 DUP1 SLOAD PUSH2 0xFF00 NOT AND SWAP1 SSTORE PUSH1 0x40 MLOAD PUSH1 0x1 DUP2 MSTORE PUSH32 0x7F26B83FF96E1F2B6A682F133852F6798A09C465DA95921460CEFB3847402498 SWAP1 PUSH1 0x20 ADD JUMPDEST PUSH1 0x40 MLOAD DUP1 SWAP2 SUB SWAP1 LOG1 POP POP POP JUMP JUMPDEST PUSH1 0x1 PUSH1 0x1 PUSH1 0xA0 SHL SUB PUSH32 0x0 AND ADDRESS SUB PUSH2 0xD1A JUMPI PUSH1 0x40 MLOAD PUSH3 0x461BCD PUSH1 0xE5 SHL DUP2 MSTORE PUSH1 0x20 PUSH1 0x4 DUP3 ADD MSTORE PUSH1 0x2C PUSH1 0x24 DUP3 ADD MSTORE PUSH32 0x46756E6374696F6E206D7573742062652063616C6C6564207468726F75676820 PUSH1 0x44 DUP3 ADD MSTORE PUSH32 0x64656C656761746563616C6C0000000000000000000000000000000000000000 PUSH1 0x64 DUP3 ADD MSTORE PUSH1 0x84 ADD PUSH2 0x8DC JUMP JUMPDEST PUSH32 0x0 PUSH1 0x1 PUSH1 0x1 PUSH1 0xA0 SHL SUB AND PUSH2 0xD75 PUSH32 0x360894A13BA1A3210667C828492DB98DCA3E2076CC3735A920A3CA505D382BBC SLOAD PUSH1 0x1 PUSH1 0x1 PUSH1 0xA0 SHL SUB AND SWAP1 JUMP JUMPDEST PUSH1 0x1 PUSH1 0x1 PUSH1 0xA0 SHL SUB AND EQ PUSH2 0xDF1 JUMPI PUSH1 0x40 MLOAD PUSH3 0x461BCD PUSH1 0xE5 SHL DUP2 MSTORE PUSH1 0x20 PUSH1 0x4 DUP3 ADD MSTORE PUSH1 0x2C PUSH1 0x24 DUP3 ADD MSTORE PUSH32 0x46756E6374696F6E206D7573742062652063616C6C6564207468726F75676820 PUSH1 0x44 DUP3 ADD MSTORE PUSH32 0x6163746976652070726F78790000000000000000000000000000000000000000 PUSH1 0x64 DUP3 ADD MSTORE PUSH1 0x84 ADD PUSH2 0x8DC JUMP JUMPDEST PUSH2 0xDFA DUP3 PUSH2 0x1988 JUMP JUMPDEST PUSH2 0x8EF DUP3 DUP3 PUSH1 0x1 PUSH2 0x1993 JUMP JUMPDEST PUSH1 0x0 ADDRESS PUSH1 0x1 PUSH1 0x1 PUSH1 0xA0 SHL SUB PUSH32 0x0 AND EQ PUSH2 0xEA6 JUMPI PUSH1 0x40 MLOAD PUSH3 0x461BCD PUSH1 0xE5 SHL DUP2 MSTORE PUSH1 0x20 PUSH1 0x4 DUP3 ADD MSTORE PUSH1 0x38 PUSH1 0x24 DUP3 ADD MSTORE PUSH32 0x555550535570677261646561626C653A206D757374206E6F742062652063616C PUSH1 0x44 DUP3 ADD MSTORE PUSH32 0x6C6564207468726F7567682064656C656761746563616C6C0000000000000000 PUSH1 0x64 DUP3 ADD MSTORE PUSH1 0x84 ADD PUSH2 0x8DC JUMP JUMPDEST POP PUSH32 0x360894A13BA1A3210667C828492DB98DCA3E2076CC3735A920A3CA505D382BBC SWAP1 JUMP JUMPDEST PUSH32 0x61C92169EF077349011FF0B1383C894D86C5F0B41D986366B58A6CF31E93BEDA PUSH2 0xEF5 DUP2 PUSH2 0x17F8 JUMP JUMPDEST POP PUSH2 0x130 DUP1 SLOAD PUSH20 0xFFFFFFFFFFFFFFFFFFFFFFFFFFFFFFFFFFFFFFFF NOT AND PUSH1 0x1 PUSH1 0x1 PUSH1 0xA0 SHL SUB SWAP3 SWAP1 SWAP3 AND SWAP2 SWAP1 SWAP2 OR SWAP1 SSTORE JUMP JUMPDEST PUSH32 0x241ECF16D79D0F8DBFB92CBC07FE17840425976CF0667F022FE9877CAA831B08 PUSH2 0xF50 DUP2 PUSH2 0x17F8 JUMP JUMPDEST ADDRESS PUSH1 0x1 PUSH1 0x1 PUSH1 0xA0 SHL SUB DUP5 AND SUB PUSH2 0xFA8 JUMPI PUSH1 0x40 MLOAD PUSH3 0x461BCD PUSH1 0xE5 SHL DUP2 MSTORE PUSH1 0x20 PUSH1 0x4 DUP3 ADD MSTORE PUSH1 0x1D PUSH1 0x24 DUP3 ADD MSTORE PUSH32 0x53796D6D696F5061727479423A20496E76616C69642061646472657373000000 PUSH1 0x44 DUP3 ADD MSTORE PUSH1 0x64 ADD PUSH2 0x8DC JUMP JUMPDEST PUSH1 0x1 PUSH1 0x1 PUSH1 0xA0 SHL SUB DUP4 AND PUSH1 0x0 DUP2 DUP2 MSTORE PUSH2 0x12F PUSH1 0x20 SWAP1 DUP2 MSTORE PUSH1 0x40 SWAP2 DUP3 SWAP1 KECCAK256 DUP1 SLOAD PUSH1 0xFF NOT AND DUP7 ISZERO ISZERO SWAP1 DUP2 OR SWAP1 SWAP2 SSTORE DUP3 MLOAD SWAP4 DUP5 MSTORE SWAP1 DUP4 ADD MSTORE PUSH32 0xF776D871534C4177EB3EA09AD170DB249E5C7057FF18DDF26992D18459A904B1 SWAP2 ADD PUSH2 0xC6F JUMP JUMPDEST PUSH32 0x2DE84D9FBDF6D06E2CC584295043DBD76046423B9F8BAE9426D4FA5E7C03F4A7 PUSH2 0x102F DUP2 PUSH2 0x17F8 JUMP JUMPDEST PUSH2 0x1037 PUSH2 0x1C89 JUMP JUMPDEST PUSH2 0x12D SLOAD PUSH1 0x40 MLOAD PUSH32 0x95EA7B300000000000000000000000000000000000000000000000000000000 DUP2 MSTORE PUSH1 0x1 PUSH1 0x1 PUSH1 0xA0 SHL SUB SWAP2 DUP3 AND PUSH1 0x4 DUP3 ADD MSTORE PUSH1 0x24 DUP2 ADD DUP5 SWAP1 MSTORE SWAP1 DUP5 AND SWAP1 PUSH4 0x95EA7B3 SWAP1 PUSH1 0x44 ADD PUSH1 0x20 PUSH1 0x40 MLOAD DUP1 DUP4 SUB DUP2 PUSH1 0x0 DUP8 GAS CALL ISZERO DUP1 ISZERO PUSH2 0x10A4 JUMPI RETURNDATASIZE PUSH1 0x0 DUP1 RETURNDATACOPY RETURNDATASIZE PUSH1 0x0 REVERT JUMPDEST POP POP POP POP PUSH1 0x40 MLOAD RETURNDATASIZE PUSH1 0x1F NOT PUSH1 0x1F DUP3 ADD AND DUP3 ADD DUP1 PUSH1 0x40 MSTORE POP DUP2 ADD SWAP1 PUSH2 0x10C8 SWAP2 SWAP1 PUSH2 0x2D26 JUMP JUMPDEST PUSH2 0x85D JUMPI PUSH1 0x40 MLOAD PUSH3 0x461BCD PUSH1 0xE5 SHL DUP2 MSTORE PUSH1 0x20 PUSH1 0x4 DUP3 ADD MSTORE PUSH1 0x1A PUSH1 0x24 DUP3 ADD MSTORE PUSH32 0x53796D6D696F5061727479423A204E6F7420617070726F766564000000000000 PUSH1 0x44 DUP3 ADD MSTORE PUSH1 0x64 ADD PUSH2 0x8DC JUMP JUMPDEST PUSH1 0x0 PUSH2 0x111F DUP2 PUSH2 0x17F8 JUMP JUMPDEST PUSH1 0x1 PUSH1 0x1 PUSH1 0xE0 SHL SUB NOT DUP4 AND PUSH1 0x0 DUP2 DUP2 MSTORE PUSH2 0x12E PUSH1 0x20 SWAP1 DUP2 MSTORE PUSH1 0x40 SWAP2 DUP3 SWAP1 KECCAK256 DUP1 SLOAD PUSH1 0xFF NOT AND DUP7 ISZERO ISZERO SWAP1 DUP2 OR SWAP1 SWAP2 SSTORE DUP3 MLOAD SWAP4 DUP5 MSTORE SWAP1 DUP4 ADD MSTORE PUSH32 0x3B438B04C48041000349F30457A15358332EC96233735F9BC289621AA82FB775 SWAP2 ADD PUSH2 0xC6F JUMP JUMPDEST PUSH32 0x65D7A28E3265B37A6474929F336521B332C1681B933F6CB9F3376673440D862A PUSH2 0x11A7 DUP2 PUSH2 0x17F8 JUMP JUMPDEST PUSH2 0xA8D PUSH2 0x1CDC JUMP JUMPDEST PUSH32 0x241ECF16D79D0F8DBFB92CBC07FE17840425976CF0667F022FE9877CAA831B08 PUSH2 0x11D9 DUP2 PUSH2 0x17F8 JUMP JUMPDEST PUSH1 0x40 MLOAD PUSH32 0xA9059CBB00000000000000000000000000000000000000000000000000000000 DUP2 MSTORE CALLER PUSH1 0x4 DUP3 ADD MSTORE PUSH1 0x24 DUP2 ADD DUP4 SWAP1 MSTORE PUSH1 0x1 PUSH1 0x1 PUSH1 0xA0 SHL SUB DUP5 AND SWAP1 PUSH4 0xA9059CBB SWAP1 PUSH1 0x44 ADD PUSH1 0x20 PUSH1 0x40 MLOAD DUP1 DUP4 SUB DUP2 PUSH1 0x0 DUP8 GAS CALL ISZERO DUP1 ISZERO PUSH2 0x123F JUMPI RETURNDATASIZE PUSH1 0x0 DUP1 RETURNDATACOPY RETURNDATASIZE PUSH1 0x0 REVERT JUMPDEST POP POP POP POP PUSH1 0x40 MLOAD RETURNDATASIZE PUSH1 0x1F NOT PUSH1 0x1F DUP3 ADD AND DUP3 ADD DUP1 PUSH1 0x40 MSTORE POP DUP2 ADD SWAP1 PUSH2 0x1263 SWAP2 SWAP1 PUSH2 0x2D26 JUMP JUMPDEST PUSH2 0x85D JUMPI PUSH1 0x40 MLOAD PUSH3 0x461BCD PUSH1 0xE5 SHL DUP2 MSTORE PUSH1 0x20 PUSH1 0x4 DUP3 ADD MSTORE PUSH1 0x1D PUSH1 0x24 DUP3 ADD MSTORE PUSH32 0x53796D6D696F5061727479423A204E6F74207472616E73666572726564000000 PUSH1 0x44 DUP3 ADD MSTORE PUSH1 0x64 ADD PUSH2 0x8DC JUMP JUMPDEST PUSH2 0x12B7 PUSH2 0x1C89 JUMP JUMPDEST PUSH1 0x0 JUMPDEST PUSH1 0xFF DUP2 AND DUP3 GT ISZERO PUSH2 0x85D JUMPI PUSH2 0x12D SLOAD PUSH2 0x1337 SWAP1 PUSH1 0x1 PUSH1 0x1 PUSH1 0xA0 SHL SUB AND DUP5 DUP5 PUSH1 0xFF DUP6 AND DUP2 DUP2 LT PUSH2 0x12EB JUMPI PUSH2 0x12EB PUSH2 0x2D43 JUMP JUMPDEST SWAP1 POP PUSH1 0x20 MUL DUP2 ADD SWAP1 PUSH2 0x12FD SWAP2 SWAP1 PUSH2 0x2D59 JUMP JUMPDEST DUP1 DUP1 PUSH1 0x1F ADD PUSH1 0x20 DUP1 SWAP2 DIV MUL PUSH1 0x20 ADD PUSH1 0x40 MLOAD SWAP1 DUP2 ADD PUSH1 0x40 MSTORE DUP1 SWAP4 SWAP3 SWAP2 SWAP1 DUP2 DUP2 MSTORE PUSH1 0x20 ADD DUP4 DUP4 DUP1 DUP3 DUP5 CALLDATACOPY PUSH1 0x0 SWAP3 ADD SWAP2 SWAP1 SWAP2 MSTORE POP PUSH2 0x1D19 SWAP3 POP POP POP JUMP JUMPDEST DUP1 PUSH2 0x1341 DUP2 PUSH2 0x2DD4 JUMP JUMPDEST SWAP2 POP POP PUSH2 0x12BA JUMP JUMPDEST PUSH2 0x1351 PUSH2 0x1C89 JUMP JUMPDEST DUP5 DUP4 DUP2 EQ DUP1 ISZERO PUSH2 0x1360 JUMPI POP DUP2 DUP2 EQ JUMPDEST PUSH2 0x13D2 JUMPI PUSH1 0x40 MLOAD PUSH3 0x461BCD PUSH1 0xE5 SHL DUP2 MSTORE PUSH1 0x20 PUSH1 0x4 DUP3 ADD MSTORE PUSH1 0x23 PUSH1 0x24 DUP3 ADD MSTORE PUSH32 0x53796D6D696F5061727479423A204172726179206C656E677468206D69736D61 PUSH1 0x44 DUP3 ADD MSTORE PUSH32 0x7463680000000000000000000000000000000000000000000000000000000000 PUSH1 0x64 DUP3 ADD MSTORE PUSH1 0x84 ADD PUSH2 0x8DC JUMP JUMPDEST PUSH2 0x12D SLOAD PUSH1 0x1 PUSH1 0x1 PUSH1 0xA0 SHL SUB AND PUSH2 0x142B JUMPI PUSH1 0x40 MLOAD PUSH3 0x461BCD PUSH1 0xE5 SHL DUP2 MSTORE PUSH1 0x20 PUSH1 0x4 DUP3 ADD MSTORE PUSH1 0x1D PUSH1 0x24 DUP3 ADD MSTORE PUSH32 0x53796D6D696F5061727479423A20496E76616C69642061646472657373000000 PUSH1 0x44 DUP3 ADD MSTORE PUSH1 0x64 ADD PUSH2 0x8DC JUMP JUMPDEST CALLER PUSH1 0x0 SWAP1 DUP2 MSTORE PUSH32 0xD3DCD7DC58E3B6C497BE50DF5A3AD068B6E0ACC697D498CE82A40E016EDC5E8A PUSH1 0x20 MSTORE PUSH1 0x40 SWAP1 KECCAK256 SLOAD PUSH1 0xFF AND DUP1 PUSH2 0x1496 JUMPI POP CALLER PUSH1 0x0 SWAP1 DUP2 MSTORE PUSH32 0x2B695040062D682C5F383FC121D3529271110663A7876B561E44E93485577D13 PUSH1 0x20 MSTORE PUSH1 0x40 SWAP1 KECCAK256 SLOAD PUSH1 0xFF AND JUMPDEST DUP1 PUSH2 0x1514 JUMPI POP PUSH2 0x12D PUSH1 0x0 SWAP1 SLOAD SWAP1 PUSH2 0x100 EXP SWAP1 DIV PUSH1 0x1 PUSH1 0x1 PUSH1 0xA0 SHL SUB AND PUSH1 0x1 PUSH1 0x1 PUSH1 0xA0 SHL SUB AND PUSH4 0x67AA6FEA PUSH1 0x40 MLOAD DUP2 PUSH4 0xFFFFFFFF AND PUSH1 0xE0 SHL DUP2 MSTORE PUSH1 0x4 ADD PUSH1 0x20 PUSH1 0x40 MLOAD DUP1 DUP4 SUB DUP2 DUP7 GAS STATICCALL ISZERO DUP1 ISZERO PUSH2 0x14F0 JUMPI RETURNDATASIZE PUSH1 0x0 DUP1 RETURNDATACOPY RETURNDATASIZE PUSH1 0x0 REVERT JUMPDEST POP POP POP POP PUSH1 0x40 MLOAD RETURNDATASIZE PUSH1 0x1F NOT PUSH1 0x1F DUP3 ADD AND DUP3 ADD DUP1 PUSH1 0x40 MSTORE POP DUP2 ADD SWAP1 PUSH2 0x1514 SWAP2 SWAP1 PUSH2 0x2D26 JUMP JUMPDEST PUSH2 0x1560 JUMPI PUSH1 0x40 MLOAD PUSH3 0x461BCD PUSH1 0xE5 SHL DUP2 MSTORE PUSH1 0x20 PUSH1 0x4 DUP3 ADD MSTORE PUSH1 0x1C PUSH1 0x24 DUP3 ADD MSTORE PUSH32 0x53796D6D696F5061727479423A20496E76616C69642061636365737300000000 PUSH1 0x44 DUP3 ADD MSTORE PUSH1 0x64 ADD PUSH2 0x8DC JUMP JUMPDEST PUSH1 0x0 JUMPDEST DUP2 DUP2 LT ISZERO PUSH2 0x16E3 JUMPI PUSH2 0x12D SLOAD PUSH1 0x1 PUSH1 0x1 PUSH1 0xA0 SHL SUB AND PUSH4 0x25869929 DUP10 DUP10 DUP5 DUP2 DUP2 LT PUSH2 0x158F JUMPI PUSH2 0x158F PUSH2 0x2D43 JUMP JUMPDEST SWAP1 POP PUSH1 0x20 MUL ADD CALLDATALOAD DUP9 DUP9 DUP6 DUP2 DUP2 LT PUSH2 0x15A8 JUMPI PUSH2 0x15A8 PUSH2 0x2D43 JUMP JUMPDEST SWAP1 POP PUSH1 0x20 MUL ADD CALLDATALOAD DUP8 DUP8 DUP7 DUP2 DUP2 LT PUSH2 0x15C1 JUMPI PUSH2 0x15C1 PUSH2 0x2D43 JUMP JUMPDEST PUSH1 0x40 MLOAD PUSH1 0x1 PUSH1 0x1 PUSH1 0xE0 SHL SUB NOT PUSH1 0xE0 DUP9 SWAP1 SHL AND DUP2 MSTORE PUSH1 0x4 DUP2 ADD SWAP6 SWAP1 SWAP6 MSTORE PUSH1 0x24 DUP6 ADD SWAP4 SWAP1 SWAP4 MSTORE POP PUSH1 0x20 SWAP1 SWAP2 MUL ADD CALLDATALOAD PUSH1 0x44 DUP3 ADD MSTORE PUSH1 0x64 ADD PUSH1 0x0 PUSH1 0x40 MLOAD DUP1 DUP4 SUB DUP2 PUSH1 0x0 DUP8 DUP1 EXTCODESIZE ISZERO DUP1 ISZERO PUSH2 0x160F JUMPI PUSH1 0x0 DUP1 REVERT JUMPDEST POP GAS CALL SWAP3 POP POP POP DUP1 ISZERO PUSH2 0x1620 JUMPI POP PUSH1 0x1 JUMPDEST PUSH2 0x16DB JUMPI RETURNDATASIZE DUP1 DUP1 ISZERO PUSH2 0x164E JUMPI PUSH1 0x40 MLOAD SWAP2 POP PUSH1 0x1F NOT PUSH1 0x3F RETURNDATASIZE ADD AND DUP3 ADD PUSH1 0x40 MSTORE RETURNDATASIZE DUP3 MSTORE RETURNDATASIZE PUSH1 0x0 PUSH1 0x20 DUP5 ADD RETURNDATACOPY PUSH2 0x1653 JUMP JUMPDEST PUSH1 0x60 SWAP2 POP JUMPDEST POP PUSH32 0xE474D30861954963E2430D1EB30EE3D32920F7AFA7FF8FCE00044373A259ABF0 DUP10 DUP10 DUP5 DUP2 DUP2 LT PUSH2 0x1687 JUMPI PUSH2 0x1687 PUSH2 0x2D43 JUMP JUMPDEST SWAP1 POP PUSH1 0x20 MUL ADD CALLDATALOAD DUP9 DUP9 DUP6 DUP2 DUP2 LT PUSH2 0x16A0 JUMPI PUSH2 0x16A0 PUSH2 0x2D43 JUMP JUMPDEST SWAP1 POP PUSH1 0x20 MUL ADD CALLDATALOAD DUP8 DUP8 DUP7 DUP2 DUP2 LT PUSH2 0x16B9 JUMPI PUSH2 0x16B9 PUSH2 0x2D43 JUMP JUMPDEST SWAP1 POP PUSH1 0x20 MUL ADD CALLDATALOAD DUP5 PUSH1 0x40 MLOAD PUSH2 0x16D1 SWAP5 SWAP4 SWAP3 SWAP2 SWAP1 PUSH2 0x2E43 JUMP JUMPDEST PUSH1 0x40 MLOAD DUP1 SWAP2 SUB SWAP1 LOG1 POP JUMPDEST PUSH1 0x1 ADD PUSH2 0x1563 JUMP JUMPDEST POP POP POP POP POP POP POP POP JUMP JUMPDEST PUSH1 0x0 DUP3 DUP2 MSTORE PUSH1 0x97 PUSH1 0x20 MSTORE PUSH1 0x40 SWAP1 KECCAK256 PUSH1 0x1 ADD SLOAD PUSH2 0x1708 DUP2 PUSH2 0x17F8 JUMP JUMPDEST PUSH2 0x85D DUP4 DUP4 PUSH2 0x1905 JUMP JUMPDEST PUSH2 0x171A PUSH2 0x1C89 JUMP JUMPDEST DUP3 DUP2 EQ PUSH2 0x178F JUMPI PUSH1 0x40 MLOAD PUSH3 0x461BCD PUSH1 0xE5 SHL DUP2 MSTORE PUSH1 0x20 PUSH1 0x4 DUP3 ADD MSTORE PUSH1 0x23 PUSH1 0x24 DUP3 ADD MSTORE PUSH32 0x53796D6D696F5061727479423A204172726179206C656E677468206D69736D61 PUSH1 0x44 DUP3 ADD MSTORE PUSH32 0x7463680000000000000000000000000000000000000000000000000000000000 PUSH1 0x64 DUP3 ADD MSTORE PUSH1 0x84 ADD PUSH2 0x8DC JUMP JUMPDEST PUSH1 0x0 JUMPDEST PUSH1 0xFF DUP2 AND DUP3 GT ISZERO PUSH2 0x17F1 JUMPI PUSH2 0x17DF DUP6 DUP6 DUP4 PUSH1 0xFF AND DUP2 DUP2 LT PUSH2 0x17B5 JUMPI PUSH2 0x17B5 PUSH2 0x2D43 JUMP JUMPDEST SWAP1 POP PUSH1 0x20 MUL ADD PUSH1 0x20 DUP2 ADD SWAP1 PUSH2 0x17CA SWAP2 SWAP1 PUSH2 0x291B JUMP JUMPDEST DUP5 DUP5 DUP5 PUSH1 0xFF AND DUP2 DUP2 LT PUSH2 0x12EB JUMPI PUSH2 0x12EB PUSH2 0x2D43 JUMP JUMPDEST DUP1 PUSH2 0x17E9 DUP2 PUSH2 0x2DD4 JUMP JUMPDEST SWAP2 POP POP PUSH2 0x1792 JUMP JUMPDEST POP POP POP POP POP JUMP JUMPDEST PUSH2 0xA8D DUP2 CALLER PUSH2 0x20ED JUMP JUMPDEST PUSH1 0x0 DUP1 PUSH1 0x0 PUSH2 0x1811 DUP6 DUP6 PUSH2 0x2162 JUMP JUMPDEST SWAP1 SWAP3 POP SWAP1 POP PUSH1 0x0 DUP2 PUSH1 0x4 DUP2 GT ISZERO PUSH2 0x182A JUMPI PUSH2 0x182A PUSH2 0x2E68 JUMP JUMPDEST EQ DUP1 ISZERO PUSH2 0x1848 JUMPI POP DUP6 PUSH1 0x1 PUSH1 0x1 PUSH1 0xA0 SHL SUB AND DUP3 PUSH1 0x1 PUSH1 0x1 PUSH1 0xA0 SHL SUB AND EQ JUMPDEST DUP1 PUSH2 0x1859 JUMPI POP PUSH2 0x1859 DUP7 DUP7 DUP7 PUSH2 0x21A7 JUMP JUMPDEST SWAP7 SWAP6 POP POP POP POP POP POP JUMP JUMPDEST PUSH1 0x0 DUP3 DUP2 MSTORE PUSH1 0x97 PUSH1 0x20 SWAP1 DUP2 MSTORE PUSH1 0x40 DUP1 DUP4 KECCAK256 PUSH1 0x1 PUSH1 0x1 PUSH1 0xA0 SHL SUB DUP6 AND DUP5 MSTORE SWAP1 SWAP2 MSTORE SWAP1 KECCAK256 SLOAD PUSH1 0xFF AND PUSH2 0x8EF JUMPI PUSH1 0x0 DUP3 DUP2 MSTORE PUSH1 0x97 PUSH1 0x20 SWAP1 DUP2 MSTORE PUSH1 0x40 DUP1 DUP4 KECCAK256 PUSH1 0x1 PUSH1 0x1 PUSH1 0xA0 SHL SUB DUP6 AND DUP5 MSTORE SWAP1 SWAP2 MSTORE SWAP1 KECCAK256 DUP1 SLOAD PUSH1 0xFF NOT AND PUSH1 0x1 OR SWAP1 SSTORE PUSH2 0x18C1 CALLER SWAP1 JUMP JUMPDEST PUSH1 0x1 PUSH1 0x1 PUSH1 0xA0 SHL SUB AND DUP2 PUSH1 0x1 PUSH1 0x1 PUSH1 0xA0 SHL SUB AND DUP4 PUSH32 0x2F8788117E7EFF1D82E926EC794901D17C78024A50270940304540A733656F0D PUSH1 0x40 MLOAD PUSH1 0x40 MLOAD DUP1 SWAP2 SUB SWAP1 LOG4 POP POP JUMP JUMPDEST PUSH1 0x0 DUP3 DUP2 MSTORE PUSH1 0x97 PUSH1 0x20 SWAP1 DUP2 MSTORE PUSH1 0x40 DUP1 DUP4 KECCAK256 PUSH1 0x1 PUSH1 0x1 PUSH1 0xA0 SHL SUB DUP6 AND DUP5 MSTORE SWAP1 SWAP2 MSTORE SWAP1 KECCAK256 SLOAD PUSH1 0xFF AND ISZERO PUSH2 0x8EF JUMPI PUSH1 0x0 DUP3 DUP2 MSTORE PUSH1 0x97 PUSH1 0x20 SWAP1 DUP2 MSTORE PUSH1 0x40 DUP1 DUP4 KECCAK256 PUSH1 0x1 PUSH1 0x1 PUSH1 0xA0 SHL SUB DUP6 AND DUP1 DUP6 MSTORE SWAP3 MSTORE DUP1 DUP4 KECCAK256 DUP1 SLOAD PUSH1 0xFF NOT AND SWAP1 SSTORE MLOAD CALLER SWAP3 DUP6 SWAP2 PUSH32 0xF6391F5C32D9C69D2A47EA670B442974B53935D1EDC7FD64EB21E047A839171B SWAP2 SWAP1 LOG4 POP POP JUMP JUMPDEST PUSH1 0x0 PUSH2 0x8EF DUP2 PUSH2 0x17F8 JUMP JUMPDEST PUSH32 0x4910FDFA16FED3260ED0E7147F7CC6DA11A60208B5B9406D12A635614FFD9143 SLOAD PUSH1 0xFF AND ISZERO PUSH2 0x19C6 JUMPI PUSH2 0x85D DUP4 PUSH2 0x22C1 JUMP JUMPDEST DUP3 PUSH1 0x1 PUSH1 0x1 PUSH1 0xA0 SHL SUB AND PUSH4 0x52D1902D PUSH1 0x40 MLOAD DUP2 PUSH4 0xFFFFFFFF AND PUSH1 0xE0 SHL DUP2 MSTORE PUSH1 0x4 ADD PUSH1 0x20 PUSH1 0x40 MLOAD DUP1 DUP4 SUB DUP2 DUP7 GAS STATICCALL SWAP3 POP POP POP DUP1 ISZERO PUSH2 0x1A20 JUMPI POP PUSH1 0x40 DUP1 MLOAD PUSH1 0x1F RETURNDATASIZE SWAP1 DUP2 ADD PUSH1 0x1F NOT AND DUP3 ADD SWAP1 SWAP3 MSTORE PUSH2 0x1A1D SWAP2 DUP2 ADD SWAP1 PUSH2 0x2E7E JUMP JUMPDEST PUSH1 0x1 JUMPDEST PUSH2 0x1A92 JUMPI PUSH1 0x40 MLOAD PUSH3 0x461BCD PUSH1 0xE5 SHL DUP2 MSTORE PUSH1 0x20 PUSH1 0x4 DUP3 ADD MSTORE PUSH1 0x2E PUSH1 0x24 DUP3 ADD MSTORE PUSH32 0x45524331393637557067726164653A206E657720696D706C656D656E74617469 PUSH1 0x44 DUP3 ADD MSTORE PUSH32 0x6F6E206973206E6F742055555053000000000000000000000000000000000000 PUSH1 0x64 DUP3 ADD MSTORE PUSH1 0x84 ADD PUSH2 0x8DC JUMP JUMPDEST PUSH32 0x360894A13BA1A3210667C828492DB98DCA3E2076CC3735A920A3CA505D382BBC DUP2 EQ PUSH2 0x1B27 JUMPI PUSH1 0x40 MLOAD PUSH3 0x461BCD PUSH1 0xE5 SHL DUP2 MSTORE PUSH1 0x20 PUSH1 0x4 DUP3 ADD MSTORE PUSH1 0x29 PUSH1 0x24 DUP3 ADD MSTORE PUSH32 0x45524331393637557067726164653A20756E737570706F727465642070726F78 PUSH1 0x44 DUP3 ADD MSTORE PUSH32 0x6961626C65555549440000000000000000000000000000000000000000000000 PUSH1 0x64 DUP3 ADD MSTORE PUSH1 0x84 ADD PUSH2 0x8DC JUMP JUMPDEST POP PUSH2 0x85D DUP4 DUP4 DUP4 PUSH2 0x238C JUMP JUMPDEST PUSH2 0x1B3B PUSH2 0x23B1 JUMP JUMPDEST PUSH1 0x33 DUP1 SLOAD PUSH1 0xFF NOT AND SWAP1 SSTORE PUSH32 0x5DB9EE0A495BF2E6FF9C91A7834C1BA4FDD244A5E8AA4E537BD38AEAE4B073AA CALLER JUMPDEST PUSH1 0x40 MLOAD PUSH1 0x1 PUSH1 0x1 PUSH1 0xA0 SHL SUB SWAP1 SWAP2 AND DUP2 MSTORE PUSH1 0x20 ADD PUSH1 0x40 MLOAD DUP1 SWAP2 SUB SWAP1 LOG1 JUMP JUMPDEST PUSH1 0x0 SLOAD PUSH2 0x100 SWAP1 DIV PUSH1 0xFF AND PUSH2 0x1C02 JUMPI PUSH1 0x40 MLOAD PUSH3 0x461BCD PUSH1 0xE5 SHL DUP2 MSTORE PUSH1 0x20 PUSH1 0x4 DUP3 ADD MSTORE PUSH1 0x2B PUSH1 0x24 DUP3 ADD MSTORE PUSH32 0x496E697469616C697A61626C653A20636F6E7472616374206973206E6F742069 PUSH1 0x44 DUP3 ADD MSTORE PUSH32 0x6E697469616C697A696E67000000000000000000000000000000000000000000 PUSH1 0x64 DUP3 ADD MSTORE PUSH1 0x84 ADD PUSH2 0x8DC JUMP JUMPDEST PUSH2 0x1C0A PUSH2 0x2403 JUMP JUMPDEST JUMP JUMPDEST PUSH1 0x0 SLOAD PUSH2 0x100 SWAP1 DIV PUSH1 0xFF AND PUSH2 0x1C0A JUMPI PUSH1 0x40 MLOAD PUSH3 0x461BCD PUSH1 0xE5 SHL DUP2 MSTORE PUSH1 0x20 PUSH1 0x4 DUP3 ADD MSTORE PUSH1 0x2B PUSH1 0x24 DUP3 ADD MSTORE PUSH32 0x496E697469616C697A61626C653A20636F6E7472616374206973206E6F742069 PUSH1 0x44 DUP3 ADD MSTORE PUSH32 0x6E697469616C697A696E67000000000000000000000000000000000000000000 PUSH1 0x64 DUP3 ADD MSTORE PUSH1 0x84 ADD PUSH2 0x8DC JUMP JUMPDEST PUSH1 0x33 SLOAD PUSH1 0xFF AND ISZERO PUSH2 0x1C0A JUMPI PUSH1 0x40 MLOAD PUSH3 0x461BCD PUSH1 0xE5 SHL DUP2 MSTORE PUSH1 0x20 PUSH1 0x4 DUP3 ADD MSTORE PUSH1 0x10 PUSH1 0x24 DUP3 ADD MSTORE PUSH32 0x5061757361626C653A2070617573656400000000000000000000000000000000 PUSH1 0x44 DUP3 ADD MSTORE PUSH1 0x64 ADD PUSH2 0x8DC JUMP JUMPDEST PUSH2 0x1CE4 PUSH2 0x1C89 JUMP JUMPDEST PUSH1 0x33 DUP1 SLOAD PUSH1 0xFF NOT AND PUSH1 0x1 OR SWAP1 SSTORE PUSH32 0x62E78CEA01BEE320CD4E420270B5EA74000D11B0C9F74754EBDBFC544B05A258 PUSH2 0x1B68 CALLER SWAP1 JUMP JUMPDEST PUSH1 0x1 PUSH1 0x1 PUSH1 0xA0 SHL SUB DUP3 AND PUSH2 0x1D6F JUMPI PUSH1 0x40 MLOAD PUSH3 0x461BCD PUSH1 0xE5 SHL DUP2 MSTORE PUSH1 0x20 PUSH1 0x4 DUP3 ADD MSTORE PUSH1 0x1D PUSH1 0x24 DUP3 ADD MSTORE PUSH32 0x53796D6D696F5061727479423A20496E76616C69642061646472657373000000 PUSH1 0x44 DUP3 ADD MSTORE PUSH1 0x64 ADD PUSH2 0x8DC JUMP JUMPDEST PUSH1 0x4 DUP2 MLOAD LT ISZERO PUSH2 0x1DC1 JUMPI PUSH1 0x40 MLOAD PUSH3 0x461BCD PUSH1 0xE5 SHL DUP2 MSTORE PUSH1 0x20 PUSH1 0x4 DUP3 ADD MSTORE PUSH1 0x1F PUSH1 0x24 DUP3 ADD MSTORE PUSH32 0x53796D6D696F5061727479423A20496E76616C69642063616C6C206461746100 PUSH1 0x44 DUP3 ADD MSTORE PUSH1 0x64 ADD PUSH2 0x8DC JUMP JUMPDEST PUSH2 0x12D SLOAD PUSH1 0x1 PUSH1 0x1 PUSH1 0xA0 SHL SUB SWAP1 DUP2 AND SWAP1 DUP4 AND SUB PUSH2 0x1F6C JUMPI PUSH1 0x20 DUP2 DUP2 ADD MLOAD PUSH1 0x1 PUSH1 0x1 PUSH1 0xE0 SHL SUB NOT DUP2 AND PUSH1 0x0 SWAP1 DUP2 MSTORE PUSH2 0x12E SWAP1 SWAP3 MSTORE PUSH1 0x40 SWAP1 SWAP2 KECCAK256 SLOAD PUSH1 0xFF AND ISZERO PUSH2 0x1E31 JUMPI PUSH2 0x1E2C PUSH32 0x241ECF16D79D0F8DBFB92CBC07FE17840425976CF0667F022FE9877CAA831B08 CALLER PUSH2 0x20ED JUMP JUMPDEST PUSH2 0x1F66 JUMP JUMPDEST CALLER PUSH1 0x0 SWAP1 DUP2 MSTORE PUSH32 0xD3DCD7DC58E3B6C497BE50DF5A3AD068B6E0ACC697D498CE82A40E016EDC5E8A PUSH1 0x20 MSTORE PUSH1 0x40 SWAP1 KECCAK256 SLOAD PUSH1 0xFF AND DUP1 PUSH2 0x1E9C JUMPI POP CALLER PUSH1 0x0 SWAP1 DUP2 MSTORE PUSH32 0x2B695040062D682C5F383FC121D3529271110663A7876B561E44E93485577D13 PUSH1 0x20 MSTORE PUSH1 0x40 SWAP1 KECCAK256 SLOAD PUSH1 0xFF AND JUMPDEST DUP1 PUSH2 0x1F1A JUMPI POP PUSH2 0x12D PUSH1 0x0 SWAP1 SLOAD SWAP1 PUSH2 0x100 EXP SWAP1 DIV PUSH1 0x1 PUSH1 0x1 PUSH1 0xA0 SHL SUB AND PUSH1 0x1 PUSH1 0x1 PUSH1 0xA0 SHL SUB AND PUSH4 0x67AA6FEA PUSH1 0x40 MLOAD DUP2 PUSH4 0xFFFFFFFF AND PUSH1 0xE0 SHL DUP2 MSTORE PUSH1 0x4 ADD PUSH1 0x20 PUSH1 0x40 MLOAD DUP1 DUP4 SUB DUP2 DUP7 GAS STATICCALL ISZERO DUP1 ISZERO PUSH2 0x1EF6 JUMPI RETURNDATASIZE PUSH1 0x0 DUP1 RETURNDATACOPY RETURNDATASIZE PUSH1 0x0 REVERT JUMPDEST POP POP POP POP PUSH1 0x40 MLOAD RETURNDATASIZE PUSH1 0x1F NOT PUSH1 0x1F DUP3 ADD AND DUP3 ADD DUP1 PUSH1 0x40 MSTORE POP DUP2 ADD SWAP1 PUSH2 0x1F1A SWAP2 SWAP1 PUSH2 0x2D26 JUMP JUMPDEST PUSH2 0x1F66 JUMPI PUSH1 0x40 MLOAD PUSH3 0x461BCD PUSH1 0xE5 SHL DUP2 MSTORE PUSH1 0x20 PUSH1 0x4 DUP3 ADD MSTORE PUSH1 0x1C PUSH1 0x24 DUP3 ADD MSTORE PUSH32 0x53796D6D696F5061727479423A20496E76616C69642061636365737300000000 PUSH1 0x44 DUP3 ADD MSTORE PUSH1 0x64 ADD PUSH2 0x8DC JUMP JUMPDEST POP PUSH2 0x2025 JUMP JUMPDEST PUSH1 0x1 PUSH1 0x1 PUSH1 0xA0 SHL SUB DUP3 AND PUSH1 0x0 SWAP1 DUP2 MSTORE PUSH2 0x12F PUSH1 0x20 MSTORE PUSH1 0x40 SWAP1 KECCAK256 SLOAD PUSH1 0xFF AND PUSH2 0x1FFB JUMPI PUSH1 0x40 MLOAD PUSH3 0x461BCD PUSH1 0xE5 SHL DUP2 MSTORE PUSH1 0x20 PUSH1 0x4 DUP3 ADD MSTORE PUSH1 0x34 PUSH1 0x24 DUP3 ADD MSTORE PUSH32 0x53796D6D696F5061727479423A2044657374696E6174696F6E20616464726573 PUSH1 0x44 DUP3 ADD MSTORE PUSH32 0x73206973206E6F742077686974656C6973746564000000000000000000000000 PUSH1 0x64 DUP3 ADD MSTORE PUSH1 0x84 ADD PUSH2 0x8DC JUMP JUMPDEST PUSH2 0x2025 PUSH32 0x2DE84D9FBDF6D06E2CC584295043DBD76046423B9F8BAE9426D4FA5E7C03F4A7 CALLER PUSH2 0x20ED JUMP JUMPDEST PUSH1 0x0 DUP1 DUP4 PUSH1 0x1 PUSH1 0x1 PUSH1 0xA0 SHL SUB AND PUSH1 0x0 DUP5 PUSH1 0x40 MLOAD PUSH2 0x2042 SWAP2 SWAP1 PUSH2 0x2E97 JUMP JUMPDEST PUSH1 0x0 PUSH1 0x40 MLOAD DUP1 DUP4 SUB DUP2 DUP6 DUP8 GAS CALL SWAP3 POP POP POP RETURNDATASIZE DUP1 PUSH1 0x0 DUP2 EQ PUSH2 0x207F JUMPI PUSH1 0x40 MLOAD SWAP2 POP PUSH1 0x1F NOT PUSH1 0x3F RETURNDATASIZE ADD AND DUP3 ADD PUSH1 0x40 MSTORE RETURNDATASIZE DUP3 MSTORE RETURNDATASIZE PUSH1 0x0 PUSH1 0x20 DUP5 ADD RETURNDATACOPY PUSH2 0x2084 JUMP JUMPDEST PUSH1 0x60 SWAP2 POP JUMPDEST POP SWAP2 POP SWAP2 POP DUP2 PUSH2 0x20E7 JUMPI DUP1 MLOAD PUSH1 0x0 SUB PUSH2 0x20DF JUMPI PUSH1 0x40 MLOAD PUSH3 0x461BCD PUSH1 0xE5 SHL DUP2 MSTORE PUSH1 0x20 PUSH1 0x4 DUP3 ADD DUP2 SWAP1 MSTORE PUSH1 0x24 DUP3 ADD MSTORE PUSH32 0x53796D6D696F5061727479423A20457865637574696F6E207265766572746564 PUSH1 0x44 DUP3 ADD MSTORE PUSH1 0x64 ADD PUSH2 0x8DC JUMP JUMPDEST DUP1 MLOAD PUSH1 0x20 DUP3 ADD REVERT JUMPDEST POP POP POP POP JUMP JUMPDEST PUSH1 0x0 DUP3 DUP2 MSTORE PUSH1 0x97 PUSH1 0x20 SWAP1 DUP2 MSTORE PUSH1 0x40 DUP1 DUP4 KECCAK256 PUSH1 0x1 PUSH1 0x1 PUSH1 0xA0 SHL SUB DUP6 AND DUP5 MSTORE SWAP1 SWAP2 MSTORE SWAP1 KECCAK256 SLOAD PUSH1 0xFF AND PUSH2 0x8EF JUMPI PUSH2 0x2120 DUP2 PUSH2 0x248C JUMP JUMPDEST PUSH2 0x212B DUP4 PUSH1 0x20 PUSH2 0x249E JUMP JUMPDEST PUSH1 0x40 MLOAD PUSH1 0x20 ADD PUSH2 0x213C SWAP3 SWAP2 SWAP1 PUSH2 0x2EB3 JUMP JUMPDEST PUSH1 0x40 DUP1 MLOAD PUSH1 0x1F NOT DUP2 DUP5 SUB ADD DUP2 MSTORE SWAP1 DUP3 SWAP1 MSTORE PUSH3 0x461BCD PUSH1 0xE5 SHL DUP3 MSTORE PUSH2 0x8DC SWAP2 PUSH1 0x4 ADD PUSH2 0x2F34 JUMP JUMPDEST PUSH1 0x0 DUP1 DUP3 MLOAD PUSH1 0x41 SUB PUSH2 0x2198 JUMPI PUSH1 0x20 DUP4 ADD MLOAD PUSH1 0x40 DUP5 ADD MLOAD PUSH1 0x60 DUP6 ADD MLOAD PUSH1 0x0 BYTE PUSH2 0x218C DUP8 DUP3 DUP6 DUP6 PUSH2 0x26C7 JUMP JUMPDEST SWAP5 POP SWAP5 POP POP POP POP PUSH2 0x21A0 JUMP JUMPDEST POP PUSH1 0x0 SWAP1 POP PUSH1 0x2 JUMPDEST SWAP3 POP SWAP3 SWAP1 POP JUMP JUMPDEST PUSH1 0x0 DUP1 PUSH1 0x0 DUP6 PUSH1 0x1 PUSH1 0x1 PUSH1 0xA0 SHL SUB AND PUSH4 0x1626BA7E PUSH1 0xE0 SHL DUP7 DUP7 PUSH1 0x40 MLOAD PUSH1 0x24 ADD PUSH2 0x21D1 SWAP3 SWAP2 SWAP1 PUSH2 0x2F47 JUMP JUMPDEST PUSH1 0x40 DUP1 MLOAD PUSH1 0x1F NOT DUP2 DUP5 SUB ADD DUP2 MSTORE SWAP2 DUP2 MSTORE PUSH1 0x20 DUP3 ADD DUP1 MLOAD PUSH28 0xFFFFFFFFFFFFFFFFFFFFFFFFFFFFFFFFFFFFFFFFFFFFFFFFFFFFFFFF AND PUSH1 0x1 PUSH1 0x1 PUSH1 0xE0 SHL SUB NOT SWAP1 SWAP5 AND SWAP4 SWAP1 SWAP4 OR SWAP1 SWAP3 MSTORE SWAP1 MLOAD PUSH2 0x2224 SWAP2 SWAP1 PUSH2 0x2E97 JUMP JUMPDEST PUSH1 0x0 PUSH1 0x40 MLOAD DUP1 DUP4 SUB DUP2 DUP6 GAS STATICCALL SWAP2 POP POP RETURNDATASIZE DUP1 PUSH1 0x0 DUP2 EQ PUSH2 0x225F JUMPI PUSH1 0x40 MLOAD SWAP2 POP PUSH1 0x1F NOT PUSH1 0x3F RETURNDATASIZE ADD AND DUP3 ADD PUSH1 0x40 MSTORE RETURNDATASIZE DUP3 MSTORE RETURNDATASIZE PUSH1 0x0 PUSH1 0x20 DUP5 ADD RETURNDATACOPY PUSH2 0x2264 JUMP JUMPDEST PUSH1 0x60 SWAP2 POP JUMPDEST POP SWAP2 POP SWAP2 POP DUP2 DUP1 ISZERO PUSH2 0x2278 JUMPI POP PUSH1 0x20 DUP2 MLOAD LT ISZERO JUMPDEST DUP1 ISZERO PUSH2 0x1859 JUMPI POP DUP1 MLOAD PUSH32 0x1626BA7E00000000000000000000000000000000000000000000000000000000 SWAP1 PUSH2 0x22B6 SWAP1 DUP4 ADD PUSH1 0x20 SWAP1 DUP2 ADD SWAP1 DUP5 ADD PUSH2 0x2E7E JUMP JUMPDEST EQ SWAP7 SWAP6 POP POP POP POP POP POP JUMP JUMPDEST PUSH1 0x1 PUSH1 0x1 PUSH1 0xA0 SHL SUB DUP2 AND EXTCODESIZE PUSH2 0x233E JUMPI PUSH1 0x40 MLOAD PUSH3 0x461BCD PUSH1 0xE5 SHL DUP2 MSTORE PUSH1 0x20 PUSH1 0x4 DUP3 ADD MSTORE PUSH1 0x2D PUSH1 0x24 DUP3 ADD MSTORE PUSH32 0x455243313936373A206E657720696D706C656D656E746174696F6E206973206E PUSH1 0x44 DUP3 ADD MSTORE PUSH32 0x6F74206120636F6E747261637400000000000000000000000000000000000000 PUSH1 0x64 DUP3 ADD MSTORE PUSH1 0x84 ADD PUSH2 0x8DC JUMP JUMPDEST PUSH32 0x360894A13BA1A3210667C828492DB98DCA3E2076CC3735A920A3CA505D382BBC DUP1 SLOAD PUSH20 0xFFFFFFFFFFFFFFFFFFFFFFFFFFFFFFFFFFFFFFFF NOT AND PUSH1 0x1 PUSH1 0x1 PUSH1 0xA0 SHL SUB SWAP3 SWAP1 SWAP3 AND SWAP2 SWAP1 SWAP2 OR SWAP1 SSTORE JUMP JUMPDEST PUSH2 0x2395 DUP4 PUSH2 0x278B JUMP JUMPDEST PUSH1 0x0 DUP3 MLOAD GT DUP1 PUSH2 0x23A2 JUMPI POP DUP1 JUMPDEST ISZERO PUSH2 0x85D JUMPI PUSH2 0x20E7 DUP4 DUP4 PUSH2 0x27CB JUMP JUMPDEST PUSH1 0x33 SLOAD PUSH1 0xFF AND PUSH2 0x1C0A JUMPI PUSH1 0x40 MLOAD PUSH3 0x461BCD PUSH1 0xE5 SHL DUP2 MSTORE PUSH1 0x20 PUSH1 0x4 DUP3 ADD MSTORE PUSH1 0x14 PUSH1 0x24 DUP3 ADD MSTORE PUSH32 0x5061757361626C653A206E6F7420706175736564000000000000000000000000 PUSH1 0x44 DUP3 ADD MSTORE PUSH1 0x64 ADD PUSH2 0x8DC JUMP JUMPDEST PUSH1 0x0 SLOAD PUSH2 0x100 SWAP1 DIV PUSH1 0xFF AND PUSH2 0x2480 JUMPI PUSH1 0x40 MLOAD PUSH3 0x461BCD PUSH1 0xE5 SHL DUP2 MSTORE PUSH1 0x20 PUSH1 0x4 DUP3 ADD MSTORE PUSH1 0x2B PUSH1 0x24 DUP3 ADD MSTORE PUSH32 0x496E697469616C697A61626C653A20636F6E7472616374206973206E6F742069 PUSH1 0x44 DUP3 ADD MSTORE PUSH32 0x6E697469616C697A696E67000000000000000000000000000000000000000000 PUSH1 0x64 DUP3 ADD MSTORE PUSH1 0x84 ADD PUSH2 0x8DC JUMP JUMPDEST PUSH1 0x33 DUP1 SLOAD PUSH1 0xFF NOT AND SWAP1 SSTORE JUMP JUMPDEST PUSH1 0x60 PUSH2 0x7DC PUSH1 0x1 PUSH1 0x1 PUSH1 0xA0 SHL SUB DUP4 AND PUSH1 0x14 JUMPDEST PUSH1 0x60 PUSH1 0x0 PUSH2 0x24AD DUP4 PUSH1 0x2 PUSH2 0x2F60 JUMP JUMPDEST PUSH2 0x24B8 SWAP1 PUSH1 0x2 PUSH2 0x2F77 JUMP JUMPDEST PUSH8 0xFFFFFFFFFFFFFFFF DUP2 GT ISZERO PUSH2 0x24D0 JUMPI PUSH2 0x24D0 PUSH2 0x2969 JUMP JUMPDEST PUSH1 0x40 MLOAD SWAP1 DUP1 DUP3 MSTORE DUP1 PUSH1 0x1F ADD PUSH1 0x1F NOT AND PUSH1 0x20 ADD DUP3 ADD PUSH1 0x40 MSTORE DUP1 ISZERO PUSH2 0x24FA JUMPI PUSH1 0x20 DUP3 ADD DUP2 DUP1 CALLDATASIZE DUP4 CALLDATACOPY ADD SWAP1 POP JUMPDEST POP SWAP1 POP PUSH32 0x3000000000000000000000000000000000000000000000000000000000000000 DUP2 PUSH1 0x0 DUP2 MLOAD DUP2 LT PUSH2 0x2531 JUMPI PUSH2 0x2531 PUSH2 0x2D43 JUMP JUMPDEST PUSH1 0x20 ADD ADD SWAP1 PUSH31 0xFFFFFFFFFFFFFFFFFFFFFFFFFFFFFFFFFFFFFFFFFFFFFFFFFFFFFFFFFFFFFF NOT AND SWAP1 DUP2 PUSH1 0x0 BYTE SWAP1 MSTORE8 POP PUSH32 0x7800000000000000000000000000000000000000000000000000000000000000 DUP2 PUSH1 0x1 DUP2 MLOAD DUP2 LT PUSH2 0x2594 JUMPI PUSH2 0x2594 PUSH2 0x2D43 JUMP JUMPDEST PUSH1 0x20 ADD ADD SWAP1 PUSH31 0xFFFFFFFFFFFFFFFFFFFFFFFFFFFFFFFFFFFFFFFFFFFFFFFFFFFFFFFFFFFFFF NOT AND SWAP1 DUP2 PUSH1 0x0 BYTE SWAP1 MSTORE8 POP PUSH1 0x0 PUSH2 0x25D0 DUP5 PUSH1 0x2 PUSH2 0x2F60 JUMP JUMPDEST PUSH2 0x25DB SWAP1 PUSH1 0x1 PUSH2 0x2F77 JUMP JUMPDEST SWAP1 POP JUMPDEST PUSH1 0x1 DUP2 GT ISZERO PUSH2 0x2678 JUMPI PUSH32 0x3031323334353637383961626364656600000000000000000000000000000000 DUP6 PUSH1 0xF AND PUSH1 0x10 DUP2 LT PUSH2 0x261C JUMPI PUSH2 0x261C PUSH2 0x2D43 JUMP JUMPDEST BYTE PUSH1 0xF8 SHL DUP3 DUP3 DUP2 MLOAD DUP2 LT PUSH2 0x2632 JUMPI PUSH2 0x2632 PUSH2 0x2D43 JUMP JUMPDEST PUSH1 0x20 ADD ADD SWAP1 PUSH31 0xFFFFFFFFFFFFFFFFFFFFFFFFFFFFFFFFFFFFFFFFFFFFFFFFFFFFFFFFFFFFFF NOT AND SWAP1 DUP2 PUSH1 0x0 BYTE SWAP1 MSTORE8 POP PUSH1 0x4 SWAP5 SWAP1 SWAP5 SHR SWAP4 PUSH2 0x2671 DUP2 PUSH2 0x2F8A JUMP JUMPDEST SWAP1 POP PUSH2 0x25DE JUMP JUMPDEST POP DUP4 ISZERO PUSH2 0x831 JUMPI PUSH1 0x40 MLOAD PUSH3 0x461BCD PUSH1 0xE5 SHL DUP2 MSTORE PUSH1 0x20 PUSH1 0x4 DUP3 ADD DUP2 SWAP1 MSTORE PUSH1 0x24 DUP3 ADD MSTORE PUSH32 0x537472696E67733A20686578206C656E67746820696E73756666696369656E74 PUSH1 0x44 DUP3 ADD MSTORE PUSH1 0x64 ADD PUSH2 0x8DC JUMP JUMPDEST PUSH1 0x0 DUP1 PUSH32 0x7FFFFFFFFFFFFFFFFFFFFFFFFFFFFFFF5D576E7357A4501DDFE92F46681B20A0 DUP4 GT ISZERO PUSH2 0x26FE JUMPI POP PUSH1 0x0 SWAP1 POP PUSH1 0x3 PUSH2 0x2782 JUMP JUMPDEST PUSH1 0x40 DUP1 MLOAD PUSH1 0x0 DUP1 DUP3 MSTORE PUSH1 0x20 DUP3 ADD DUP1 DUP5 MSTORE DUP10 SWAP1 MSTORE PUSH1 0xFF DUP9 AND SWAP3 DUP3 ADD SWAP3 SWAP1 SWAP3 MSTORE PUSH1 0x60 DUP2 ADD DUP7 SWAP1 MSTORE PUSH1 0x80 DUP2 ADD DUP6 SWAP1 MSTORE PUSH1 0x1 SWAP1 PUSH1 0xA0 ADD PUSH1 0x20 PUSH1 0x40 MLOAD PUSH1 0x20 DUP2 SUB SWAP1 DUP1 DUP5 SUB SWAP1 DUP6 GAS STATICCALL ISZERO DUP1 ISZERO PUSH2 0x2752 JUMPI RETURNDATASIZE PUSH1 0x0 DUP1 RETURNDATACOPY RETURNDATASIZE PUSH1 0x0 REVERT JUMPDEST POP POP PUSH1 0x40 MLOAD PUSH1 0x1F NOT ADD MLOAD SWAP2 POP POP PUSH1 0x1 PUSH1 0x1 PUSH1 0xA0 SHL SUB DUP2 AND PUSH2 0x277B JUMPI PUSH1 0x0 PUSH1 0x1 SWAP3 POP SWAP3 POP POP PUSH2 0x2782 JUMP JUMPDEST SWAP2 POP PUSH1 0x0 SWAP1 POP JUMPDEST SWAP5 POP SWAP5 SWAP3 POP POP POP JUMP JUMPDEST PUSH2 0x2794 DUP2 PUSH2 0x22C1 JUMP JUMPDEST PUSH1 0x40 MLOAD PUSH1 0x1 PUSH1 0x1 PUSH1 0xA0 SHL SUB DUP3 AND SWAP1 PUSH32 0xBC7CD75A20EE27FD9ADEBAB32041F755214DBC6BFFA90CC0225B39DA2E5C2D3B SWAP1 PUSH1 0x0 SWAP1 LOG2 POP JUMP JUMPDEST PUSH1 0x60 PUSH2 0x831 DUP4 DUP4 PUSH1 0x40 MLOAD DUP1 PUSH1 0x60 ADD PUSH1 0x40 MSTORE DUP1 PUSH1 0x27 DUP2 MSTORE PUSH1 0x20 ADD PUSH2 0x2FC0 PUSH1 0x27 SWAP2 CODECOPY PUSH1 0x60 PUSH1 0x0 DUP1 DUP6 PUSH1 0x1 PUSH1 0x1 PUSH1 0xA0 SHL SUB AND DUP6 PUSH1 0x40 MLOAD PUSH2 0x2808 SWAP2 SWAP1 PUSH2 0x2E97 JUMP JUMPDEST PUSH1 0x0 PUSH1 0x40 MLOAD DUP1 DUP4 SUB DUP2 DUP6 GAS DELEGATECALL SWAP2 POP POP RETURNDATASIZE DUP1 PUSH1 0x0 DUP2 EQ PUSH2 0x2843 JUMPI PUSH1 0x40 MLOAD SWAP2 POP PUSH1 0x1F NOT PUSH1 0x3F RETURNDATASIZE ADD AND DUP3 ADD PUSH1 0x40 MSTORE RETURNDATASIZE DUP3 MSTORE RETURNDATASIZE PUSH1 0x0 PUSH1 0x20 DUP5 ADD RETURNDATACOPY PUSH2 0x2848 JUMP JUMPDEST PUSH1 0x60 SWAP2 POP JUMPDEST POP SWAP2 POP SWAP2 POP PUSH2 0x1859 DUP7 DUP4 DUP4 DUP8 PUSH1 0x60 DUP4 ISZERO PUSH2 0x28C3 JUMPI DUP3 MLOAD PUSH1 0x0 SUB PUSH2 0x28BC JUMPI PUSH1 0x1 PUSH1 0x1 PUSH1 0xA0 SHL SUB DUP6 AND EXTCODESIZE PUSH2 0x28BC JUMPI PUSH1 0x40 MLOAD PUSH3 0x461BCD PUSH1 0xE5 SHL DUP2 MSTORE PUSH1 0x20 PUSH1 0x4 DUP3 ADD MSTORE PUSH1 0x1D PUSH1 0x24 DUP3 ADD MSTORE PUSH32 0x416464726573733A2063616C6C20746F206E6F6E2D636F6E7472616374000000 PUSH1 0x44 DUP3 ADD MSTORE PUSH1 0x64 ADD PUSH2 0x8DC JUMP JUMPDEST POP DUP2 PUSH2 0x28CD JUMP JUMPDEST PUSH2 0x28CD DUP4 DUP4 PUSH2 0x28D5 JUMP JUMPDEST SWAP5 SWAP4 POP POP POP POP JUMP JUMPDEST DUP2 MLOAD ISZERO PUSH2 0x28E5 JUMPI DUP2 MLOAD DUP1 DUP4 PUSH1 0x20 ADD REVERT JUMPDEST DUP1 PUSH1 0x40 MLOAD PUSH3 0x461BCD PUSH1 0xE5 SHL DUP2 MSTORE PUSH1 0x4 ADD PUSH2 0x8DC SWAP2 SWAP1 PUSH2 0x2F34 JUMP JUMPDEST DUP1 CALLDATALOAD PUSH1 0x1 PUSH1 0x1 PUSH1 0xA0 SHL SUB DUP2 AND DUP2 EQ PUSH2 0x2916 JUMPI PUSH1 0x0 DUP1 REVERT JUMPDEST SWAP2 SWAP1 POP JUMP JUMPDEST PUSH1 0x0 PUSH1 0x20 DUP3 DUP5 SUB SLT ISZERO PUSH2 0x292D JUMPI PUSH1 0x0 DUP1 REVERT JUMPDEST PUSH2 0x831 DUP3 PUSH2 0x28FF JUMP JUMPDEST DUP1 CALLDATALOAD PUSH1 0x1 PUSH1 0x1 PUSH1 0xE0 SHL SUB NOT DUP2 AND DUP2 EQ PUSH2 0x2916 JUMPI PUSH1 0x0 DUP1 REVERT JUMPDEST PUSH1 0x0 PUSH1 0x20 DUP3 DUP5 SUB SLT ISZERO PUSH2 0x2960 JUMPI PUSH1 0x0 DUP1 REVERT JUMPDEST PUSH2 0x831 DUP3 PUSH2 0x2936 JUMP JUMPDEST PUSH4 0x4E487B71 PUSH1 0xE0 SHL PUSH1 0x0 MSTORE PUSH1 0x41 PUSH1 0x4 MSTORE PUSH1 0x24 PUSH1 0x0 REVERT JUMPDEST PUSH1 0x0 DUP3 PUSH1 0x1F DUP4 ADD SLT PUSH2 0x2990 JUMPI PUSH1 0x0 DUP1 REVERT JUMPDEST DUP2 CALLDATALOAD PUSH8 0xFFFFFFFFFFFFFFFF DUP2 GT ISZERO PUSH2 0x29AA JUMPI PUSH2 0x29AA PUSH2 0x2969 JUMP JUMPDEST PUSH1 0x40 MLOAD PUSH1 0x1F NOT PUSH1 0x3F PUSH1 0x1F NOT PUSH1 0x1F DUP6 ADD AND ADD AND DUP2 ADD DUP2 DUP2 LT PUSH8 0xFFFFFFFFFFFFFFFF DUP3 GT OR ISZERO PUSH2 0x29DA JUMPI PUSH2 0x29DA PUSH2 0x2969 JUMP JUMPDEST PUSH1 0x40 MSTORE DUP2 DUP2 MSTORE DUP4 DUP3 ADD PUSH1 0x20 ADD DUP6 LT ISZERO PUSH2 0x29F2 JUMPI PUSH1 0x0 DUP1 REVERT JUMPDEST DUP2 PUSH1 0x20 DUP6 ADD PUSH1 0x20 DUP4 ADD CALLDATACOPY PUSH1 0x0 SWAP2 DUP2 ADD PUSH1 0x20 ADD SWAP2 SWAP1 SWAP2 MSTORE SWAP4 SWAP3 POP POP POP JUMP JUMPDEST PUSH1 0x0 DUP1 PUSH1 0x40 DUP4 DUP6 SUB SLT ISZERO PUSH2 0x2A22 JUMPI PUSH1 0x0 DUP1 REVERT JUMPDEST DUP3 CALLDATALOAD SWAP2 POP PUSH1 0x20 DUP4 ADD CALLDATALOAD PUSH8 0xFFFFFFFFFFFFFFFF DUP2 GT ISZERO PUSH2 0x2A40 JUMPI PUSH1 0x0 DUP1 REVERT JUMPDEST PUSH2 0x2A4C DUP6 DUP3 DUP7 ADD PUSH2 0x297F JUMP JUMPDEST SWAP2 POP POP SWAP3 POP SWAP3 SWAP1 POP JUMP JUMPDEST PUSH1 0x0 PUSH1 0x20 DUP3 DUP5 SUB SLT ISZERO PUSH2 0x2A68 JUMPI PUSH1 0x0 DUP1 REVERT JUMPDEST POP CALLDATALOAD SWAP2 SWAP1 POP JUMP JUMPDEST PUSH1 0x0 DUP1 PUSH1 0x40 DUP4 DUP6 SUB SLT ISZERO PUSH2 0x2A82 JUMPI PUSH1 0x0 DUP1 REVERT JUMPDEST DUP3 CALLDATALOAD SWAP2 POP PUSH2 0x2A92 PUSH1 0x20 DUP5 ADD PUSH2 0x28FF JUMP JUMPDEST SWAP1 POP SWAP3 POP SWAP3 SWAP1 POP JUMP JUMPDEST PUSH1 0x0 DUP1 PUSH1 0x40 DUP4 DUP6 SUB SLT ISZERO PUSH2 0x2AAE JUMPI PUSH1 0x0 DUP1 REVERT JUMPDEST PUSH2 0x2AB7 DUP4 PUSH2 0x28FF JUMP JUMPDEST SWAP2 POP PUSH2 0x2A92 PUSH1 0x20 DUP5 ADD PUSH2 0x28FF JUMP JUMPDEST PUSH1 0x0 DUP1 PUSH1 0x40 DUP4 DUP6 SUB SLT ISZERO PUSH2 0x2AD8 JUMPI PUSH1 0x0 DUP1 REVERT JUMPDEST PUSH2 0x2AE1 DUP4 PUSH2 0x28FF JUMP JUMPDEST SWAP2 POP PUSH1 0x20 DUP4 ADD CALLDATALOAD PUSH8 0xFFFFFFFFFFFFFFFF DUP2 GT ISZERO PUSH2 0x2A40 JUMPI PUSH1 0x0 DUP1 REVERT JUMPDEST DUP1 ISZERO ISZERO DUP2 EQ PUSH2 0xA8D JUMPI PUSH1 0x0 DUP1 REVERT JUMPDEST PUSH1 0x0 DUP1 PUSH1 0x40 DUP4 DUP6 SUB SLT ISZERO PUSH2 0x2B1E JUMPI PUSH1 0x0 DUP1 REVERT JUMPDEST PUSH2 0x2B27 DUP4 PUSH2 0x28FF JUMP JUMPDEST SWAP2 POP PUSH1 0x20 DUP4 ADD CALLDATALOAD PUSH2 0x2B37 DUP2 PUSH2 0x2AFD JUMP JUMPDEST DUP1 SWAP2 POP POP SWAP3 POP SWAP3 SWAP1 POP JUMP JUMPDEST PUSH1 0x0 DUP1 PUSH1 0x40 DUP4 DUP6 SUB SLT ISZERO PUSH2 0x2B55 JUMPI PUSH1 0x0 DUP1 REVERT JUMPDEST PUSH2 0x2B5E DUP4 PUSH2 0x28FF JUMP JUMPDEST SWAP5 PUSH1 0x20 SWAP4 SWAP1 SWAP4 ADD CALLDATALOAD SWAP4 POP POP POP JUMP JUMPDEST PUSH1 0x0 DUP1 PUSH1 0x40 DUP4 DUP6 SUB SLT ISZERO PUSH2 0x2B7F JUMPI PUSH1 0x0 DUP1 REVERT JUMPDEST PUSH2 0x2B27 DUP4 PUSH2 0x2936 JUMP JUMPDEST PUSH1 0x0 DUP1 DUP4 PUSH1 0x1F DUP5 ADD SLT PUSH2 0x2B9A JUMPI PUSH1 0x0 DUP1 REVERT JUMPDEST POP DUP2 CALLDATALOAD PUSH8 0xFFFFFFFFFFFFFFFF DUP2 GT ISZERO PUSH2 0x2BB2 JUMPI PUSH1 0x0 DUP1 REVERT JUMPDEST PUSH1 0x20 DUP4 ADD SWAP2 POP DUP4 PUSH1 0x20 DUP3 PUSH1 0x5 SHL DUP6 ADD ADD GT ISZERO PUSH2 0x21A0 JUMPI PUSH1 0x0 DUP1 REVERT JUMPDEST PUSH1 0x0 DUP1 PUSH1 0x20 DUP4 DUP6 SUB SLT ISZERO PUSH2 0x2BE0 JUMPI PUSH1 0x0 DUP1 REVERT JUMPDEST DUP3 CALLDATALOAD PUSH8 0xFFFFFFFFFFFFFFFF DUP2 GT ISZERO PUSH2 0x2BF7 JUMPI PUSH1 0x0 DUP1 REVERT JUMPDEST PUSH2 0x2C03 DUP6 DUP3 DUP7 ADD PUSH2 0x2B88 JUMP JUMPDEST SWAP1 SWAP7 SWAP1 SWAP6 POP SWAP4 POP POP POP POP JUMP JUMPDEST PUSH1 0x0 DUP1 PUSH1 0x0 DUP1 PUSH1 0x0 DUP1 PUSH1 0x60 DUP8 DUP10 SUB SLT ISZERO PUSH2 0x2C28 JUMPI PUSH1 0x0 DUP1 REVERT JUMPDEST DUP7 CALLDATALOAD PUSH8 0xFFFFFFFFFFFFFFFF DUP2 GT ISZERO PUSH2 0x2C3F JUMPI PUSH1 0x0 DUP1 REVERT JUMPDEST PUSH2 0x2C4B DUP10 DUP3 DUP11 ADD PUSH2 0x2B88 JUMP JUMPDEST SWAP1 SWAP8 POP SWAP6 POP POP PUSH1 0x20 DUP8 ADD CALLDATALOAD PUSH8 0xFFFFFFFFFFFFFFFF DUP2 GT ISZERO PUSH2 0x2C6B JUMPI PUSH1 0x0 DUP1 REVERT JUMPDEST PUSH2 0x2C77 DUP10 DUP3 DUP11 ADD PUSH2 0x2B88 JUMP JUMPDEST SWAP1 SWAP6 POP SWAP4 POP POP PUSH1 0x40 DUP8 ADD CALLDATALOAD PUSH8 0xFFFFFFFFFFFFFFFF DUP2 GT ISZERO PUSH2 0x2C97 JUMPI PUSH1 0x0 DUP1 REVERT JUMPDEST PUSH2 0x2CA3 DUP10 DUP3 DUP11 ADD PUSH2 0x2B88 JUMP JUMPDEST SWAP8 SWAP11 SWAP7 SWAP10 POP SWAP5 SWAP8 POP SWAP3 SWAP6 SWAP4 SWAP5 SWAP3 POP POP POP JUMP JUMPDEST PUSH1 0x0 DUP1 PUSH1 0x0 DUP1 PUSH1 0x40 DUP6 DUP8 SUB SLT ISZERO PUSH2 0x2CCB JUMPI PUSH1 0x0 DUP1 REVERT JUMPDEST DUP5 CALLDATALOAD PUSH8 0xFFFFFFFFFFFFFFFF DUP2 GT ISZERO PUSH2 0x2CE2 JUMPI PUSH1 0x0 DUP1 REVERT JUMPDEST PUSH2 0x2CEE DUP8 DUP3 DUP9 ADD PUSH2 0x2B88 JUMP JUMPDEST SWAP1 SWAP6 POP SWAP4 POP POP PUSH1 0x20 DUP6 ADD CALLDATALOAD PUSH8 0xFFFFFFFFFFFFFFFF DUP2 GT ISZERO PUSH2 0x2D0E JUMPI PUSH1 0x0 DUP1 REVERT JUMPDEST PUSH2 0x2D1A DUP8 DUP3 DUP9 ADD PUSH2 0x2B88 JUMP JUMPDEST SWAP6 SWAP9 SWAP5 SWAP8 POP SWAP6 POP POP POP POP JUMP JUMPDEST PUSH1 0x0 PUSH1 0x20 DUP3 DUP5 SUB SLT ISZERO PUSH2 0x2D38 JUMPI PUSH1 0x0 DUP1 REVERT JUMPDEST DUP2 MLOAD PUSH2 0x831 DUP2 PUSH2 0x2AFD JUMP JUMPDEST PUSH4 0x4E487B71 PUSH1 0xE0 SHL PUSH1 0x0 MSTORE PUSH1 0x32 PUSH1 0x4 MSTORE PUSH1 0x24 PUSH1 0x0 REVERT JUMPDEST PUSH1 0x0 DUP1 DUP4 CALLDATALOAD PUSH32 0xFFFFFFFFFFFFFFFFFFFFFFFFFFFFFFFFFFFFFFFFFFFFFFFFFFFFFFFFFFFFFFE1 DUP5 CALLDATASIZE SUB ADD DUP2 SLT PUSH2 0x2D8E JUMPI PUSH1 0x0 DUP1 REVERT JUMPDEST DUP4 ADD DUP1 CALLDATALOAD SWAP2 POP PUSH8 0xFFFFFFFFFFFFFFFF DUP3 GT ISZERO PUSH2 0x2DA9 JUMPI PUSH1 0x0 DUP1 REVERT JUMPDEST PUSH1 0x20 ADD SWAP2 POP CALLDATASIZE DUP2 SWAP1 SUB DUP3 SGT ISZERO PUSH2 0x21A0 JUMPI PUSH1 0x0 DUP1 REVERT JUMPDEST PUSH4 0x4E487B71 PUSH1 0xE0 SHL PUSH1 0x0 MSTORE PUSH1 0x11 PUSH1 0x4 MSTORE PUSH1 0x24 PUSH1 0x0 REVERT JUMPDEST PUSH1 0x0 PUSH1 0xFF DUP3 AND PUSH1 0xFF DUP2 SUB PUSH2 0x2DEA JUMPI PUSH2 0x2DEA PUSH2 0x2DBE JUMP JUMPDEST PUSH1 0x1 ADD SWAP3 SWAP2 POP POP JUMP JUMPDEST PUSH1 0x0 JUMPDEST DUP4 DUP2 LT ISZERO PUSH2 0x2E0E JUMPI DUP2 DUP2 ADD MLOAD DUP4 DUP3 ADD MSTORE PUSH1 0x20 ADD PUSH2 0x2DF6 JUMP JUMPDEST POP POP PUSH1 0x0 SWAP2 ADD MSTORE JUMP JUMPDEST PUSH1 0x0 DUP2 MLOAD DUP1 DUP5 MSTORE PUSH2 0x2E2F DUP2 PUSH1 0x20 DUP7 ADD PUSH1 0x20 DUP7 ADD PUSH2 0x2DF3 JUMP JUMPDEST PUSH1 0x1F ADD PUSH1 0x1F NOT AND SWAP3 SWAP1 SWAP3 ADD PUSH1 0x20 ADD SWAP3 SWAP2 POP POP JUMP JUMPDEST DUP5 DUP2 MSTORE DUP4 PUSH1 0x20 DUP3 ADD MSTORE DUP3 PUSH1 0x40 DUP3 ADD MSTORE PUSH1 0x80 PUSH1 0x60 DUP3 ADD MSTORE PUSH1 0x0 PUSH2 0x1859 PUSH1 0x80 DUP4 ADD DUP5 PUSH2 0x2E17 JUMP JUMPDEST PUSH4 0x4E487B71 PUSH1 0xE0 SHL PUSH1 0x0 MSTORE PUSH1 0x21 PUSH1 0x4 MSTORE PUSH1 0x24 PUSH1 0x0 REVERT JUMPDEST PUSH1 0x0 PUSH1 0x20 DUP3 DUP5 SUB SLT ISZERO PUSH2 0x2E90 JUMPI PUSH1 0x0 DUP1 REVERT JUMPDEST POP MLOAD SWAP2 SWAP1 POP JUMP JUMPDEST PUSH1 0x0 DUP3 MLOAD PUSH2 0x2EA9 DUP2 DUP5 PUSH1 0x20 DUP8 ADD PUSH2 0x2DF3 JUMP JUMPDEST SWAP2 SWAP1 SWAP2 ADD SWAP3 SWAP2 POP POP JUMP JUMPDEST PUSH32 0x416363657373436F6E74726F6C3A206163636F756E7420000000000000000000 DUP2 MSTORE PUSH1 0x0 DUP4 MLOAD PUSH2 0x2EEB DUP2 PUSH1 0x17 DUP6 ADD PUSH1 0x20 DUP9 ADD PUSH2 0x2DF3 JUMP JUMPDEST PUSH32 0x206973206D697373696E6720726F6C6520000000000000000000000000000000 PUSH1 0x17 SWAP2 DUP5 ADD SWAP2 DUP3 ADD MSTORE DUP4 MLOAD PUSH2 0x2F28 DUP2 PUSH1 0x28 DUP5 ADD PUSH1 0x20 DUP9 ADD PUSH2 0x2DF3 JUMP JUMPDEST ADD PUSH1 0x28 ADD SWAP5 SWAP4 POP POP POP POP JUMP JUMPDEST PUSH1 0x20 DUP2 MSTORE PUSH1 0x0 PUSH2 0x831 PUSH1 0x20 DUP4 ADD DUP5 PUSH2 0x2E17 JUMP JUMPDEST DUP3 DUP2 MSTORE PUSH1 0x40 PUSH1 0x20 DUP3 ADD MSTORE PUSH1 0x0 PUSH2 0x28CD PUSH1 0x40 DUP4 ADD DUP5 PUSH2 0x2E17 JUMP JUMPDEST DUP1 DUP3 MUL DUP2 ISZERO DUP3 DUP3 DIV DUP5 EQ OR PUSH2 0x7DC JUMPI PUSH2 0x7DC PUSH2 0x2DBE JUMP JUMPDEST DUP1 DUP3 ADD DUP1 DUP3 GT ISZERO PUSH2 0x7DC JUMPI PUSH2 0x7DC PUSH2 0x2DBE JUMP JUMPDEST PUSH1 0x0 DUP2 PUSH2 0x2F99 JUMPI PUSH2 0x2F99 PUSH2 0x2DBE JUMP JUMPDEST POP PUSH32 0xFFFFFFFFFFFFFFFFFFFFFFFFFFFFFFFFFFFFFFFFFFFFFFFFFFFFFFFFFFFFFFFF ADD SWAP1 JUMP INVALID COINBASE PUSH5 0x6472657373 GASPRICE KECCAK256 PUSH13 0x6F772D6C6576656C2064656C65 PUSH8 0x6174652063616C6C KECCAK256 PUSH7 0x61696C6564A264 PUSH10 0x7066735822122083FFA6 STATICCALL SHR 0x2C SWAP9 MSTORE 0x4B GASLIMIT 0xC5 INVALID 0xE 0xC7 0x2F 0xE RETURN PUSH32 0xA32A2F2AE552BE600B430859883E64736F6C634300081C003300000000000000 "},"methodIdentifiers":{"DEFAULT_ADMIN_ROLE()":"a217fddf","MANAGER_ROLE()":"ec87621c","PAUSER_ROLE()":"e63ab1e9","SETTER_ROLE()":"a2011b3f","TRUSTED_ROLE()":"5901692e","UNPAUSER_ROLE()":"fb1bb9de","_approve(address,uint256)":"7b7d7225","_call(bytes[])":"ca9d9c9d","_multicastCall(address[],bytes[])":"f504fd59","adlClose(uint256[],uint256[],uint256[])":"d37a8559","getRoleAdmin(bytes32)":"248a9ca3","grantRole(bytes32,address)":"2f2ff15d","hasRole(bytes32,address)":"91d14854","initialize(address,address)":"485cc955","isValidSignature(bytes32,bytes)":"1626ba7e","multicastWhitelist(address)":"00fbc355","pause()":"8456cb59","paused()":"5c975abb","proxiableUUID()":"52d1902d","renounceRole(bytes32,address)":"36568abe","restrictedSelectors(bytes4)":"edddc273","revokeRole(bytes32,address)":"d547741f","setMulticastWhitelist(address,bool)":"717bb262","setRestrictedSelector(bytes4,bool)":"83aba1d3","setSigner(address)":"6c19e783","setSymmioAddress(address)":"01569e3a","signer()":"238ac933","supportsInterface(bytes4)":"01ffc9a7","symmioAddress()":"7278b28f","unpause()":"3f4ba83a","upgradeTo(address)":"3659cfe6","upgradeToAndCall(address,bytes)":"4f1ef286","withdrawERC20(address,uint256)":"a1db9782"}},"storageLayout":{"storage":[{"astId":981,"contract":"contracts/solver/SymmioPartyB.sol:SymmioPartyB","label":"_initialized","offset":0,"slot":"0","type":"t_uint8"},{"astId":984,"contract":"contracts/solver/SymmioPartyB.sol:SymmioPartyB","label":"_initializing","offset":1,"slot":"0","type":"t_bool"},{"astId":1951,"contract":"contracts/solver/SymmioPartyB.sol:SymmioPartyB","label":"__gap","offset":0,"slot":"1","type":"t_array(t_uint256)50_storage"},{"astId":1302,"contract":"contracts/solver/SymmioPartyB.sol:SymmioPartyB","label":"_paused","offset":0,"slot":"51","type":"t_bool"},{"astId":1407,"contract":"contracts/solver/SymmioPartyB.sol:SymmioPartyB","label":"__gap","offset":0,"slot":"52","type":"t_array(t_uint256)49_storage"},{"astId":2986,"contract":"contracts/solver/SymmioPartyB.sol:SymmioPartyB","label":"__gap","offset":0,"slot":"101","type":"t_array(t_uint256)50_storage"},{"astId":174,"contract":"contracts/solver/SymmioPartyB.sol:SymmioPartyB","label":"_roles","offset":0,"slot":"151","type":"t_mapping(t_bytes32,t_struct(RoleData)169_storage)"},{"astId":481,"contract":"contracts/solver/SymmioPartyB.sol:SymmioPartyB","label":"__gap","offset":0,"slot":"152","type":"t_array(t_uint256)49_storage"},{"astId":963,"contract":"contracts/solver/SymmioPartyB.sol:SymmioPartyB","label":"__gap","offset":0,"slot":"201","type":"t_array(t_uint256)50_storage"},{"astId":1279,"contract":"contracts/solver/SymmioPartyB.sol:SymmioPartyB","label":"__gap","offset":0,"slot":"251","type":"t_array(t_uint256)50_storage"},{"astId":8348,"contract":"contracts/solver/SymmioPartyB.sol:SymmioPartyB","label":"symmioAddress","offset":0,"slot":"301","type":"t_address"},{"astId":8352,"contract":"contracts/solver/SymmioPartyB.sol:SymmioPartyB","label":"restrictedSelectors","offset":0,"slot":"302","type":"t_mapping(t_bytes4,t_bool)"},{"astId":8356,"contract":"contracts/solver/SymmioPartyB.sol:SymmioPartyB","label":"multicastWhitelist","offset":0,"slot":"303","type":"t_mapping(t_address,t_bool)"},{"astId":8358,"contract":"contracts/solver/SymmioPartyB.sol:SymmioPartyB","label":"signer","offset":0,"slot":"304","type":"t_address"}],"types":{"t_address":{"encoding":"inplace","label":"address","numberOfBytes":"20"},"t_array(t_uint256)49_storage":{"base":"t_uint256","encoding":"inplace","label":"uint256[49]","numberOfBytes":"1568"},"t_array(t_uint256)50_storage":{"base":"t_uint256","encoding":"inplace","label":"uint256[50]","numberOfBytes":"1600"},"t_bool":{"encoding":"inplace","label":"bool","numberOfBytes":"1"},"t_bytes32":{"encoding":"inplace","label":"bytes32","numberOfBytes":"32"},"t_bytes4":{"encoding":"inplace","label":"bytes4","numberOfBytes":"4"},"t_mapping(t_address,t_bool)":{"encoding":"mapping","key":"t_address","label":"mapping(address => bool)","numberOfBytes":"32","value":"t_bool"},"t_mapping(t_bytes32,t_struct(RoleData)169_storage)":{"encoding":"mapping","key":"t_bytes32","label":"mapping(bytes32 => struct AccessControlUpgradeable.RoleData)","numberOfBytes":"32","value":"t_struct(RoleData)169_storage"},"t_mapping(t_bytes4,t_bool)":{"encoding":"mapping","key":"t_bytes4","label":"mapping(bytes4 => bool)","numberOfBytes":"32","value":"t_bool"},"t_struct(RoleData)169_storage":{"encoding":"inplace","label":"struct AccessControlUpgradeable.RoleData","members":[{"astId":166,"contract":"contracts/solver/SymmioPartyB.sol:SymmioPartyB","label":"members","offset":0,"slot":"0","type":"t_mapping(t_address,t_bool)"},{"astId":168,"contract":"contracts/solver/SymmioPartyB.sol:SymmioPartyB","label":"adminRole","offset":0,"slot":"1","type":"t_bytes32"}],"numberOfBytes":"64"},"t_uint256":{"encoding":"inplace","label":"uint256","numberOfBytes":"32"},"t_uint8":{"encoding":"inplace","label":"uint8","numberOfBytes":"1"}}}}}}