{"contracts/PublicSaleINTX.sol":{"PublicSaleINTX":{"abi":[{"inputs":[],"stateMutability":"nonpayable","type":"constructor"},{"anonymous":false,"inputs":[{"indexed":false,"internalType":"address","name":"changedBy","type":"address"},{"indexed":true,"internalType":"address","name":"_oldAddress","type":"address"},{"indexed":true,"internalType":"address","name":"_newAddress","type":"address"}],"name":"AllocationChanged","type":"event"},{"anonymous":false,"inputs":[{"indexed":true,"internalType":"address","name":"user","type":"address"},{"indexed":false,"internalType":"uint256","name":"usdcAmount","type":"uint256"},{"indexed":false,"internalType":"uint256","name":"intxAmount","type":"uint256"},{"indexed":false,"internalType":"uint256","name":"intxAmountTotal","type":"uint256"}],"name":"Bought","type":"event"},{"anonymous":false,"inputs":[{"indexed":true,"internalType":"address","name":"user","type":"address"},{"indexed":false,"internalType":"uint256","name":"amount","type":"uint256"},{"indexed":false,"internalType":"uint256","name":"_tokenId","type":"uint256"}],"name":"Claimed","type":"event"},{"anonymous":false,"inputs":[{"indexed":false,"internalType":"uint8","name":"version","type":"uint8"}],"name":"Initialized","type":"event"},{"anonymous":false,"inputs":[{"indexed":true,"internalType":"address","name":"previousOwner","type":"address"},{"indexed":true,"internalType":"address","name":"newOwner","type":"address"}],"name":"OwnershipTransferStarted","type":"event"},{"anonymous":false,"inputs":[{"indexed":true,"internalType":"address","name":"previousOwner","type":"address"},{"indexed":true,"internalType":"address","name":"newOwner","type":"address"}],"name":"OwnershipTransferred","type":"event"},{"anonymous":false,"inputs":[{"indexed":false,"internalType":"address","name":"operator","type":"address"},{"indexed":false,"internalType":"uint256","name":"amount","type":"uint256"}],"name":"Seeded","type":"event"},{"anonymous":false,"inputs":[{"indexed":false,"internalType":"address","name":"operator","type":"address"},{"indexed":false,"internalType":"address","name":"_to","type":"address"},{"indexed":false,"internalType":"uint256","name":"amount","type":"uint256"}],"name":"Withdraw","type":"event"},{"anonymous":false,"inputs":[{"indexed":false,"internalType":"address","name":"operator","type":"address"},{"indexed":false,"internalType":"address","name":"_to","type":"address"},{"indexed":false,"internalType":"uint256","name":"amount","type":"uint256"}],"name":"WithdrawUnallocatedIntx","type":"event"},{"inputs":[],"name":"PRECISION","outputs":[{"internalType":"uint256","name":"","type":"uint256"}],"stateMutability":"view","type":"function"},{"inputs":[],"name":"START_SALE","outputs":[{"internalType":"uint256","name":"","type":"uint256"}],"stateMutability":"view","type":"function"},{"inputs":[],"name":"START_VESTING","outputs":[{"internalType":"uint256","name":"","type":"uint256"}],"stateMutability":"view","type":"function"},{"inputs":[],"name":"VESTING_DURATION","outputs":[{"internalType":"uint256","name":"","type":"uint256"}],"stateMutability":"view","type":"function"},{"inputs":[],"name":"acceptOwnership","outputs":[],"stateMutability":"nonpayable","type":"function"},{"inputs":[],"name":"allowChange","outputs":[{"internalType":"bool","name":"","type":"bool"}],"stateMutability":"view","type":"function"},{"inputs":[{"internalType":"uint256","name":"_amount","type":"uint256"}],"name":"buy","outputs":[],"stateMutability":"nonpayable","type":"function"},{"inputs":[{"internalType":"address","name":"_newAddress","type":"address"}],"name":"changeReceiver","outputs":[],"stateMutability":"nonpayable","type":"function"},{"inputs":[],"name":"claim","outputs":[],"stateMutability":"nonpayable","type":"function"},{"inputs":[{"internalType":"address","name":"","type":"address"}],"name":"claimableAmount","outputs":[{"internalType":"uint256","name":"","type":"uint256"}],"stateMutability":"view","type":"function"},{"inputs":[{"internalType":"address","name":"","type":"address"}],"name":"claimedAmount","outputs":[{"internalType":"uint256","name":"","type":"uint256"}],"stateMutability":"view","type":"function"},{"inputs":[],"name":"deposit","outputs":[],"stateMutability":"nonpayable","type":"function"},{"inputs":[{"internalType":"address","name":"_intx","type":"address"},{"internalType":"address","name":"_raiseToken","type":"address"},{"internalType":"address","name":"_xIntx","type":"address"},{"internalType":"address","name":"_multisig","type":"address"},{"internalType":"uint256","name":"_startSale","type":"uint256"},{"internalType":"uint256","name":"_startVesting","type":"uint256"}],"name":"initialize","outputs":[],"stateMutability":"nonpayable","type":"function"},{"inputs":[],"name":"instantPercentage","outputs":[{"internalType":"uint256","name":"","type":"uint256"}],"stateMutability":"view","type":"function"},{"inputs":[],"name":"intx","outputs":[{"internalType":"contract IERC20","name":"","type":"address"}],"stateMutability":"view","type":"function"},{"inputs":[],"name":"maxBuy","outputs":[{"internalType":"uint256","name":"","type":"uint256"}],"stateMutability":"view","type":"function"},{"inputs":[],"name":"minBuy","outputs":[{"internalType":"uint256","name":"","type":"uint256"}],"stateMutability":"view","type":"function"},{"inputs":[],"name":"multisig","outputs":[{"internalType":"address","name":"","type":"address"}],"stateMutability":"view","type":"function"},{"inputs":[],"name":"owner","outputs":[{"internalType":"address","name":"","type":"address"}],"stateMutability":"view","type":"function"},{"inputs":[],"name":"pendingOwner","outputs":[{"internalType":"address","name":"","type":"address"}],"stateMutability":"view","type":"function"},{"inputs":[],"name":"raiseToken","outputs":[{"internalType":"contract IERC20","name":"","type":"address"}],"stateMutability":"view","type":"function"},{"inputs":[],"name":"renounceOwnership","outputs":[],"stateMutability":"nonpayable","type":"function"},{"inputs":[],"name":"seeded","outputs":[{"internalType":"bool","name":"","type":"bool"}],"stateMutability":"view","type":"function"},{"inputs":[],"name":"totalAllocation","outputs":[{"internalType":"uint256","name":"","type":"uint256"}],"stateMutability":"view","type":"function"},{"inputs":[],"name":"totalRaised","outputs":[{"internalType":"uint256","name":"","type":"uint256"}],"stateMutability":"view","type":"function"},{"inputs":[],"name":"totalToRaise","outputs":[{"internalType":"uint256","name":"","type":"uint256"}],"stateMutability":"view","type":"function"},{"inputs":[{"internalType":"address","name":"newOwner","type":"address"}],"name":"transferOwnership","outputs":[],"stateMutability":"nonpayable","type":"function"},{"inputs":[],"name":"withdraw","outputs":[],"stateMutability":"nonpayable","type":"function"},{"inputs":[],"name":"withdrawUnallocatedIntx","outputs":[],"stateMutability":"nonpayable","type":"function"},{"inputs":[],"name":"xIntx","outputs":[{"internalType":"contract IStakedINTX","name":"","type":"address"}],"stateMutability":"view","type":"function"}],"evm":{"bytecode":{"linkReferences":{},"object":"608060405234801561001057600080fd5b5061001961001e565b6100dd565b600054610100900460ff161561008a5760405162461bcd60e51b815260206004820152602760248201527f496e697469616c697a61626c653a20636f6e747261637420697320696e697469604482015266616c697a696e6760c81b606482015260840160405180910390fd5b60005460ff908116146100db576000805460ff191660ff9081179091556040519081527f7f26b83ff96e1f2b6a682f133852f6798a09c465da95921460cefb38474024989060200160405180910390a15b565b611d15806100ec6000396000f3fe608060405234801561001057600080fd5b50600436106101da5760003560e01c8063715018a611610104578063aaf5eb68116100a2578063d7c41c7911610071578063d7c41c791461038d578063d96a094a146103a0578063e30c3978146103b3578063f2fde38b146103c457600080fd5b8063aaf5eb681461034e578063c5c4744c14610357578063d0e30db014610360578063d5ff56f81461036857600080fd5b8063827d606f116100de578063827d606f1461030b57806389885049146103145780638da5cb5b14610334578063aa264c9b1461034557600080fd5b8063715018a6146102f257806379203dc4146102fa57806379ba50971461030357600080fd5b806346f7d6c91161017c5780634e71d92d1161014b5780634e71d92d146102c5578063547e3f06146102cd57806370db69d6146102e05780637107d7a6146102e957600080fd5b806346f7d6c91461027e5780634783c35b146102965780634cfc4d30146102a95780634da60aa5146102b257600080fd5b806327a7af89116101b857806327a7af891461022457806330dfa3b51461024f578063334041a6146102595780633ccfd60b1461027657600080fd5b806304e86903146101df5780631ce48df11461021257806320df16bf1461021b575b600080fd5b6101ff6101ed366004611b56565b60d76020526000908152604090205481565b6040519081526020015b60405180910390f35b6101ff60cf5481565b6101ff60ca5481565b60d554610237906001600160a01b031681565b6040516001600160a01b039091168152602001610209565b6102576103d7565b005b60d3546102669060ff1681565b6040519015158152602001610209565b6102576105fe565b60d3546102379061010090046001600160a01b031681565b60cd54610237906001600160a01b031681565b6101ff60cc5481565b60d454610237906001600160a01b031681565b6102576107be565b6102576102db366004611b56565b610b51565b6101ff60d25481565b6101ff60d15481565b610257610ed5565b6101ff60ce5481565b610257610edd565b6101ff60c95481565b6101ff610322366004611b56565b60d66020526000908152604090205481565b6065546001600160a01b0316610237565b6101ff60cb5481565b6101ff61271081565b6101ff60d05481565b610257610f6b565b60cd546102669074010000000000000000000000000000000000000000900460ff1681565b61025761039b366004611b78565b6111a7565b6102576103ae366004611bde565b6113dc565b6097546001600160a01b0316610237565b6102576103d2366004611b56565b6117b9565b6103df611837565b60cb544210156104365760405162461bcd60e51b815260206004820152601660248201527f53616c65206861736e277420656e646564207965742e0000000000000000000060448201526064015b60405180910390fd5b60d3546040517f70a0823100000000000000000000000000000000000000000000000000000000815230600482015260009161010090046001600160a01b0316906370a0823190602401602060405180830381865afa15801561049d573d6000803e3d6000fd5b505050506040513d601f19601f820116820180604052508101906104c19190611bf7565b9050600081116105135760405162461bcd60e51b815260206004820152601b60248201527f4e6f7420656e6f75676820496e747820746f2077697468647261770000000000604482015260640161042d565b60d35460cd546040517fa9059cbb0000000000000000000000000000000000000000000000000000000081526001600160a01b03918216600482015260248101849052610100909204169063a9059cbb906044016020604051808303816000875af1158015610586573d6000803e3d6000fd5b505050506040513d601f19601f820116820180604052508101906105aa9190611c10565b507fa8eedbde77077f55b0c6b1efc969f0dab23c2165782975efb36419cd89965460335b60cd54604080516001600160a01b039384168152929091166020830152810183905260600160405180910390a150565b610606611837565b60d4546040517f70a082310000000000000000000000000000000000000000000000000000000081523060048201526000916001600160a01b0316906370a0823190602401602060405180830381865afa158015610668573d6000803e3d6000fd5b505050506040513d601f19601f8201168201806040525081019061068c9190611bf7565b9050600081116107045760405162461bcd60e51b815260206004820152602160248201527f4e6f7420656e6f756768207261697365546f6b656e20746f207769746864726160448201527f7700000000000000000000000000000000000000000000000000000000000000606482015260840161042d565b60d45460cd546040517fa9059cbb0000000000000000000000000000000000000000000000000000000081526001600160a01b0391821660048201526024810184905291169063a9059cbb906044016020604051808303816000875af1158015610772573d6000803e3d6000fd5b505050506040513d601f19601f820116820180604052508101906107969190611c10565b507f9b1bfa7fa9ee420a16e124f794c35ac9f90472acc99140eb2f6447c714cad8eb336105ce565b6107c6611891565b60cb544210156108185760405162461bcd60e51b815260206004820152601b60248201527f56657374696e67206861736e27742073746172746564207965742e0000000000604482015260640161042d565b33600090815260d66020526040812054900361089c5760405162461bcd60e51b815260206004820152602e60248201527f54686973206164647265737320646f65736e2774206861766520616e7920616d60448201527f6f756e7420746f20636c61696d2e000000000000000000000000000000000000606482015260840161042d565b33600090815260d6602090815260408083205460d7909252909120541061092b5760405162461bcd60e51b815260206004820152602c60248201527f596f75206861766520616c726561647920636c61696d656420616c6c20796f7560448201527f7220616c6c6f636174696f6e0000000000000000000000000000000000000000606482015260840161042d565b60cb54421115610b4657600061271060c95460d660006109483390565b6001600160a01b03166001600160a01b03168152602001908152602001600020546109739190611c61565b61097d9190611c7e565b9050600061271060c9546127106109949190611cb9565b33600090815260d660205260409020546109ae9190611c61565b6109b89190611c7e565b9050600060cb54426109ca9190611cb9565b905060cc548111156109db575060cc545b60cc546000906109ed61271084611c61565b6109f79190611c7e565b33600090815260d7602052604081205491925090612710610a188487611c61565b610a229190611c7e565b610a2c9087611ccc565b610a369190611cb9565b90508015610b405733600090815260d7602052604081208054839290610a5d908490611ccc565b909155505060d5546000906001600160a01b0316632ee40908336040517fffffffff0000000000000000000000000000000000000000000000000000000060e084901b1681526001600160a01b039091166004820152602481018590526044016020604051808303816000875af1158015610adc573d6000803e3d6000fd5b505050506040513d601f19601f82011682018060405250810190610b009190611bf7565b604080518481526020810183905291925033917f987d620f307ff6b94d58743cb7a7509f24071586a77759b77c2d4e29f75a2f9a910160405180910390a2505b50505050505b610b4f60018055565b565b60cb54421015610ba35760405162461bcd60e51b815260206004820152601b60248201527f56657374696e67206861736e27742073746172746564207965742e0000000000604482015260640161042d565b60cd5474010000000000000000000000000000000000000000900460ff16610c595760405162461bcd60e51b815260206004820152604660248201527f546869732076657374696e6720636f6e747261637420646f65736e277420616c60448201527f6c6f7720796f7520746f206368616e676520746865207265636569766572206160648201527f6464726573730000000000000000000000000000000000000000000000000000608482015260a40161042d565b6001600160a01b038116610cd55760405162461bcd60e51b815260206004820152603660248201527f4e657720616c6c6f636174696f6e2072656365697665722063616e277420626560448201527f20746865203078303030302e2e2e206164647265737300000000000000000000606482015260840161042d565b33600081815260d660205260408120549003610d335760405162461bcd60e51b815260206004820152601e60248201527f596f7520646f6e2774206861766520616e7920616c6c6f636174696f6e2e0000604482015260640161042d565b6001600160a01b038216600090815260d6602052604090205415610dbf5760405162461bcd60e51b815260206004820152602d60248201527f546865206e6577206164647265737320616c726561647920686173206120766560448201527f7374696e6720616d6f756e742e00000000000000000000000000000000000000606482015260840161042d565b6001600160a01b038116600090815260d6602090815260408083205460d79092529091205410610e575760405162461bcd60e51b815260206004820152602d60248201527f596f75206861766520616c726561647920636c61696d656420616c6c20796f7560448201527f7220616c6c6f636174696f6e2e00000000000000000000000000000000000000606482015260840161042d565b6001600160a01b03818116600081815260d66020908152604080832080549588168085528285209690965584845260d783528184208054878652838620558585529084905592909255815133815291517f4e87e17c55076158dc051ffe67edb8c0abf946f53612656c46f887ac1f9c486c9281900390910190a35050565b610b4f611837565b60975433906001600160a01b03168114610f5f5760405162461bcd60e51b815260206004820152602960248201527f4f776e61626c6532537465703a2063616c6c6572206973206e6f74207468652060448201527f6e6577206f776e65720000000000000000000000000000000000000000000000606482015260840161042d565b610f68816118f0565b50565b610f73611837565b60d35460ff1615610fec5760405162461bcd60e51b815260206004820152603460248201527f56657374696e6720436f6e747261637420416c7265616479207365656465642060448201527f7769746820696e697469616c20616d6f756e742e000000000000000000000000606482015260840161042d565b60d35461010090046001600160a01b03166323b872dd3360ce546040517fffffffff0000000000000000000000000000000000000000000000000000000060e085901b1681526001600160a01b03909216600483015230602483015260448201526064016020604051808303816000875af115801561106f573d6000803e3d6000fd5b505050506040513d601f19601f820116820180604052508101906110939190611c10565b5060d35460d5546040517f095ea7b30000000000000000000000000000000000000000000000000000000081526001600160a01b0391821660048201527fffffffffffffffffffffffffffffffffffffffffffffffffffffffffffffffff6024820152610100909204169063095ea7b3906044016020604051808303816000875af1158015611126573d6000803e3d6000fd5b505050506040513d601f19601f8201168201806040525081019061114a9190611c10565b5060d3805460ff191660011790557f6189b14a5c1490dbeb86a9da875768d98dc98fb398d6b29dd475defaa1ec4ba36111803390565b60ce54604080516001600160a01b03909316835260208301919091520160405180910390a1565b600054610100900460ff16158080156111c75750600054600160ff909116105b806111e15750303b1580156111e1575060005460ff166001145b6112535760405162461bcd60e51b815260206004820152602e60248201527f496e697469616c697a61626c653a20636f6e747261637420697320616c72656160448201527f647920696e697469616c697a6564000000000000000000000000000000000000606482015260840161042d565b6000805460ff191660011790558015611276576000805461ff0019166101001790555b61127e611916565b611286611989565b60d380547fffffffffffffffffffffff0000000000000000000000000000000000000000ff166101006001600160a01b038a8116919091029190911790915560d4805473ffffffffffffffffffffffffffffffffffffffff199081168984161790915560d58054821688841617905560cd805490911691861691909117905560ca83905560cb82905562eff10060cc556113236002612710611c7e565b60c9556a01a784379d99db4200000060ce55645d21dba00060cf556298968060d1556404a817c80060d25560cd80547fffffffffffffffffffffff00ffffffffffffffffffffffffffffffffffffffff167401000000000000000000000000000000000000000017905580156113d3576000805461ff0019169055604051600181527f7f26b83ff96e1f2b6a682f133852f6798a09c465da95921460cefb38474024989060200160405180910390a15b50505050505050565b60cf5460d05411156114305760405162461bcd60e51b815260206004820152601a60248201527f416c6c2052616973652068617665206265656e2066696c6c6564000000000000604482015260640161042d565b60cb544211156114825760405162461bcd60e51b815260206004820152600f60248201527f53616c652068617320656e6465642e0000000000000000000000000000000000604482015260640161042d565b60ca544210156114d45760405162461bcd60e51b815260206004820152601860248201527f53616c65206861736e27742073746172746564207965742e0000000000000000604482015260640161042d565b60d15481101561154c5760405162461bcd60e51b815260206004820152602360248201527f596f752063616e277420696e76657374206c657373207468616e20313020555360448201527f44432e0000000000000000000000000000000000000000000000000000000000606482015260840161042d565b60d2548111156115c45760405162461bcd60e51b815260206004820152602660248201527f596f752063616e277420696e76657374206d6f7265207468616e20323030303060448201527f20555344432e0000000000000000000000000000000000000000000000000000606482015260840161042d565b60d35460ff1661163c5760405162461bcd60e51b815260206004820152602860248201527f56657374696e6720436f6e7472616374206861736e2774206265656e2073656560448201527f646564207965742e000000000000000000000000000000000000000000000000606482015260840161042d565b60cf5460d05461164c9083611ccc565b11156116655760d05460cf546116629190611cb9565b90505b60d4546001600160a01b03166323b872dd336040517fffffffff0000000000000000000000000000000000000000000000000000000060e084901b1681526001600160a01b039091166004820152306024820152604481018490526064016020604051808303816000875af11580156116e2573d6000803e3d6000fd5b505050506040513d601f19601f820116820180604052508101906117069190611c10565b508060d060008282546117199190611ccc565b92505081905550600060cf548260ce546117339190611c61565b61173d9190611c7e565b33600090815260d66020526040812080549293508392909190611761908490611ccc565b909155505033600081815260d660209081526040918290205482518681529182018590528183015290517fedba86fd2b22962d534e70ad9b0ff8730de46f636146f2bab6a72cbb1ebbcc539181900360600190a25050565b6117c1611837565b609780546001600160a01b03831673ffffffffffffffffffffffffffffffffffffffff1990911681179091556117ff6065546001600160a01b031690565b6001600160a01b03167f38d16b8cac22d99fc7c124b9cd0de2d3fa1faef420bfe791d8c362d765e2270060405160405180910390a350565b6065546001600160a01b03163314610b4f5760405162461bcd60e51b815260206004820181905260248201527f4f776e61626c653a2063616c6c6572206973206e6f7420746865206f776e6572604482015260640161042d565b6002600154036118e35760405162461bcd60e51b815260206004820152601f60248201527f5265656e7472616e637947756172643a207265656e7472616e742063616c6c00604482015260640161042d565b6002600155565b60018055565b6097805473ffffffffffffffffffffffffffffffffffffffff19169055610f68816119fc565b600054610100900460ff166119815760405162461bcd60e51b815260206004820152602b60248201527f496e697469616c697a61626c653a20636f6e7472616374206973206e6f74206960448201526a6e697469616c697a696e6760a81b606482015260840161042d565b610b4f611a5b565b600054610100900460ff166119f45760405162461bcd60e51b815260206004820152602b60248201527f496e697469616c697a61626c653a20636f6e7472616374206973206e6f74206960448201526a6e697469616c697a696e6760a81b606482015260840161042d565b610b4f611ac6565b606580546001600160a01b0383811673ffffffffffffffffffffffffffffffffffffffff19831681179093556040519116919082907f8be0079c531659141344cd1fd0a4f28419497f9722a3daafe3b4186f6b6457e090600090a35050565b600054610100900460ff166118ea5760405162461bcd60e51b815260206004820152602b60248201527f496e697469616c697a61626c653a20636f6e7472616374206973206e6f74206960448201526a6e697469616c697a696e6760a81b606482015260840161042d565b600054610100900460ff16611b315760405162461bcd60e51b815260206004820152602b60248201527f496e697469616c697a61626c653a20636f6e7472616374206973206e6f74206960448201526a6e697469616c697a696e6760a81b606482015260840161042d565b610b4f336118f0565b80356001600160a01b0381168114611b5157600080fd5b919050565b600060208284031215611b6857600080fd5b611b7182611b3a565b9392505050565b60008060008060008060c08789031215611b9157600080fd5b611b9a87611b3a565b9550611ba860208801611b3a565b9450611bb660408801611b3a565b9350611bc460608801611b3a565b92506080870135915060a087013590509295509295509295565b600060208284031215611bf057600080fd5b5035919050565b600060208284031215611c0957600080fd5b5051919050565b600060208284031215611c2257600080fd5b81518015158114611b7157600080fd5b7f4e487b7100000000000000000000000000000000000000000000000000000000600052601160045260246000fd5b8082028115828204841417611c7857611c78611c32565b92915050565b600082611cb4577f4e487b7100000000000000000000000000000000000000000000000000000000600052601260045260246000fd5b500490565b81810381811115611c7857611c78611c32565b80820180821115611c7857611c78611c3256fea264697066735822122077983fb76b773f64139db33c927c9bd5fdc52c9b50f2fe1433737b222d823c5c64736f6c63430008130033","opcodes":"PUSH1 0x80 PUSH1 0x40 MSTORE CALLVALUE DUP1 ISZERO PUSH2 0x10 JUMPI PUSH1 0x0 DUP1 REVERT JUMPDEST POP PUSH2 0x19 PUSH2 0x1E JUMP JUMPDEST PUSH2 0xDD JUMP JUMPDEST PUSH1 0x0 SLOAD PUSH2 0x100 SWAP1 DIV PUSH1 0xFF AND ISZERO PUSH2 0x8A JUMPI PUSH1 0x40 MLOAD PUSH3 0x461BCD PUSH1 0xE5 SHL DUP2 MSTORE PUSH1 0x20 PUSH1 0x4 DUP3 ADD MSTORE PUSH1 0x27 PUSH1 0x24 DUP3 ADD MSTORE PUSH32 0x496E697469616C697A61626C653A20636F6E747261637420697320696E697469 PUSH1 0x44 DUP3 ADD MSTORE PUSH7 0x616C697A696E67 PUSH1 0xC8 SHL PUSH1 0x64 DUP3 ADD MSTORE PUSH1 0x84 ADD PUSH1 0x40 MLOAD DUP1 SWAP2 SUB SWAP1 REVERT JUMPDEST PUSH1 0x0 SLOAD PUSH1 0xFF SWAP1 DUP2 AND EQ PUSH2 0xDB JUMPI PUSH1 0x0 DUP1 SLOAD PUSH1 0xFF NOT AND PUSH1 0xFF SWAP1 DUP2 OR SWAP1 SWAP2 SSTORE PUSH1 0x40 MLOAD SWAP1 DUP2 MSTORE PUSH32 0x7F26B83FF96E1F2B6A682F133852F6798A09C465DA95921460CEFB3847402498 SWAP1 PUSH1 0x20 ADD PUSH1 0x40 MLOAD DUP1 SWAP2 SUB SWAP1 LOG1 JUMPDEST JUMP JUMPDEST PUSH2 0x1D15 DUP1 PUSH2 0xEC PUSH1 0x0 CODECOPY PUSH1 0x0 RETURN INVALID PUSH1 0x80 PUSH1 0x40 MSTORE CALLVALUE DUP1 ISZERO PUSH2 0x10 JUMPI PUSH1 0x0 DUP1 REVERT JUMPDEST POP PUSH1 0x4 CALLDATASIZE LT PUSH2 0x1DA JUMPI PUSH1 0x0 CALLDATALOAD PUSH1 0xE0 SHR DUP1 PUSH4 0x715018A6 GT PUSH2 0x104 JUMPI DUP1 PUSH4 0xAAF5EB68 GT PUSH2 0xA2 JUMPI DUP1 PUSH4 0xD7C41C79 GT PUSH2 0x71 JUMPI DUP1 PUSH4 0xD7C41C79 EQ PUSH2 0x38D JUMPI DUP1 PUSH4 0xD96A094A EQ PUSH2 0x3A0 JUMPI DUP1 PUSH4 0xE30C3978 EQ PUSH2 0x3B3 JUMPI DUP1 PUSH4 0xF2FDE38B EQ PUSH2 0x3C4 JUMPI PUSH1 0x0 DUP1 REVERT JUMPDEST DUP1 PUSH4 0xAAF5EB68 EQ PUSH2 0x34E JUMPI DUP1 PUSH4 0xC5C4744C EQ PUSH2 0x357 JUMPI DUP1 PUSH4 0xD0E30DB0 EQ PUSH2 0x360 JUMPI DUP1 PUSH4 0xD5FF56F8 EQ PUSH2 0x368 JUMPI PUSH1 0x0 DUP1 REVERT JUMPDEST DUP1 PUSH4 0x827D606F GT PUSH2 0xDE JUMPI DUP1 PUSH4 0x827D606F EQ PUSH2 0x30B JUMPI DUP1 PUSH4 0x89885049 EQ PUSH2 0x314 JUMPI DUP1 PUSH4 0x8DA5CB5B EQ PUSH2 0x334 JUMPI DUP1 PUSH4 0xAA264C9B EQ PUSH2 0x345 JUMPI PUSH1 0x0 DUP1 REVERT JUMPDEST DUP1 PUSH4 0x715018A6 EQ PUSH2 0x2F2 JUMPI DUP1 PUSH4 0x79203DC4 EQ PUSH2 0x2FA JUMPI DUP1 PUSH4 0x79BA5097 EQ PUSH2 0x303 JUMPI PUSH1 0x0 DUP1 REVERT JUMPDEST DUP1 PUSH4 0x46F7D6C9 GT PUSH2 0x17C JUMPI DUP1 PUSH4 0x4E71D92D GT PUSH2 0x14B JUMPI DUP1 PUSH4 0x4E71D92D EQ PUSH2 0x2C5 JUMPI DUP1 PUSH4 0x547E3F06 EQ PUSH2 0x2CD JUMPI DUP1 PUSH4 0x70DB69D6 EQ PUSH2 0x2E0 JUMPI DUP1 PUSH4 0x7107D7A6 EQ PUSH2 0x2E9 JUMPI PUSH1 0x0 DUP1 REVERT JUMPDEST DUP1 PUSH4 0x46F7D6C9 EQ PUSH2 0x27E JUMPI DUP1 PUSH4 0x4783C35B EQ PUSH2 0x296 JUMPI DUP1 PUSH4 0x4CFC4D30 EQ PUSH2 0x2A9 JUMPI DUP1 PUSH4 0x4DA60AA5 EQ PUSH2 0x2B2 JUMPI PUSH1 0x0 DUP1 REVERT JUMPDEST DUP1 PUSH4 0x27A7AF89 GT PUSH2 0x1B8 JUMPI DUP1 PUSH4 0x27A7AF89 EQ PUSH2 0x224 JUMPI DUP1 PUSH4 0x30DFA3B5 EQ PUSH2 0x24F JUMPI DUP1 PUSH4 0x334041A6 EQ PUSH2 0x259 JUMPI DUP1 PUSH4 0x3CCFD60B EQ PUSH2 0x276 JUMPI PUSH1 0x0 DUP1 REVERT JUMPDEST DUP1 PUSH4 0x4E86903 EQ PUSH2 0x1DF JUMPI DUP1 PUSH4 0x1CE48DF1 EQ PUSH2 0x212 JUMPI DUP1 PUSH4 0x20DF16BF EQ PUSH2 0x21B JUMPI JUMPDEST PUSH1 0x0 DUP1 REVERT JUMPDEST PUSH2 0x1FF PUSH2 0x1ED CALLDATASIZE PUSH1 0x4 PUSH2 0x1B56 JUMP JUMPDEST PUSH1 0xD7 PUSH1 0x20 MSTORE PUSH1 0x0 SWAP1 DUP2 MSTORE PUSH1 0x40 SWAP1 KECCAK256 SLOAD DUP2 JUMP JUMPDEST PUSH1 0x40 MLOAD SWAP1 DUP2 MSTORE PUSH1 0x20 ADD JUMPDEST PUSH1 0x40 MLOAD DUP1 SWAP2 SUB SWAP1 RETURN JUMPDEST PUSH2 0x1FF PUSH1 0xCF SLOAD DUP2 JUMP JUMPDEST PUSH2 0x1FF PUSH1 0xCA SLOAD DUP2 JUMP JUMPDEST PUSH1 0xD5 SLOAD PUSH2 0x237 SWAP1 PUSH1 0x1 PUSH1 0x1 PUSH1 0xA0 SHL SUB AND DUP2 JUMP JUMPDEST PUSH1 0x40 MLOAD PUSH1 0x1 PUSH1 0x1 PUSH1 0xA0 SHL SUB SWAP1 SWAP2 AND DUP2 MSTORE PUSH1 0x20 ADD PUSH2 0x209 JUMP JUMPDEST PUSH2 0x257 PUSH2 0x3D7 JUMP JUMPDEST STOP JUMPDEST PUSH1 0xD3 SLOAD PUSH2 0x266 SWAP1 PUSH1 0xFF AND DUP2 JUMP JUMPDEST PUSH1 0x40 MLOAD SWAP1 ISZERO ISZERO DUP2 MSTORE PUSH1 0x20 ADD PUSH2 0x209 JUMP JUMPDEST PUSH2 0x257 PUSH2 0x5FE JUMP JUMPDEST PUSH1 0xD3 SLOAD PUSH2 0x237 SWAP1 PUSH2 0x100 SWAP1 DIV PUSH1 0x1 PUSH1 0x1 PUSH1 0xA0 SHL SUB AND DUP2 JUMP JUMPDEST PUSH1 0xCD SLOAD PUSH2 0x237 SWAP1 PUSH1 0x1 PUSH1 0x1 PUSH1 0xA0 SHL SUB AND DUP2 JUMP JUMPDEST PUSH2 0x1FF PUSH1 0xCC SLOAD DUP2 JUMP JUMPDEST PUSH1 0xD4 SLOAD PUSH2 0x237 SWAP1 PUSH1 0x1 PUSH1 0x1 PUSH1 0xA0 SHL SUB AND DUP2 JUMP JUMPDEST PUSH2 0x257 PUSH2 0x7BE JUMP JUMPDEST PUSH2 0x257 PUSH2 0x2DB CALLDATASIZE PUSH1 0x4 PUSH2 0x1B56 JUMP JUMPDEST PUSH2 0xB51 JUMP JUMPDEST PUSH2 0x1FF PUSH1 0xD2 SLOAD DUP2 JUMP JUMPDEST PUSH2 0x1FF PUSH1 0xD1 SLOAD DUP2 JUMP JUMPDEST PUSH2 0x257 PUSH2 0xED5 JUMP JUMPDEST PUSH2 0x1FF PUSH1 0xCE SLOAD DUP2 JUMP JUMPDEST PUSH2 0x257 PUSH2 0xEDD JUMP JUMPDEST PUSH2 0x1FF PUSH1 0xC9 SLOAD DUP2 JUMP JUMPDEST PUSH2 0x1FF PUSH2 0x322 CALLDATASIZE PUSH1 0x4 PUSH2 0x1B56 JUMP JUMPDEST PUSH1 0xD6 PUSH1 0x20 MSTORE PUSH1 0x0 SWAP1 DUP2 MSTORE PUSH1 0x40 SWAP1 KECCAK256 SLOAD DUP2 JUMP JUMPDEST PUSH1 0x65 SLOAD PUSH1 0x1 PUSH1 0x1 PUSH1 0xA0 SHL SUB AND PUSH2 0x237 JUMP JUMPDEST PUSH2 0x1FF PUSH1 0xCB SLOAD DUP2 JUMP JUMPDEST PUSH2 0x1FF PUSH2 0x2710 DUP2 JUMP JUMPDEST PUSH2 0x1FF PUSH1 0xD0 SLOAD DUP2 JUMP JUMPDEST PUSH2 0x257 PUSH2 0xF6B JUMP JUMPDEST PUSH1 0xCD SLOAD PUSH2 0x266 SWAP1 PUSH21 0x10000000000000000000000000000000000000000 SWAP1 DIV PUSH1 0xFF AND DUP2 JUMP JUMPDEST PUSH2 0x257 PUSH2 0x39B CALLDATASIZE PUSH1 0x4 PUSH2 0x1B78 JUMP JUMPDEST PUSH2 0x11A7 JUMP JUMPDEST PUSH2 0x257 PUSH2 0x3AE CALLDATASIZE PUSH1 0x4 PUSH2 0x1BDE JUMP JUMPDEST PUSH2 0x13DC JUMP JUMPDEST PUSH1 0x97 SLOAD PUSH1 0x1 PUSH1 0x1 PUSH1 0xA0 SHL SUB AND PUSH2 0x237 JUMP JUMPDEST PUSH2 0x257 PUSH2 0x3D2 CALLDATASIZE PUSH1 0x4 PUSH2 0x1B56 JUMP JUMPDEST PUSH2 0x17B9 JUMP JUMPDEST PUSH2 0x3DF PUSH2 0x1837 JUMP JUMPDEST PUSH1 0xCB SLOAD TIMESTAMP LT ISZERO PUSH2 0x436 JUMPI PUSH1 0x40 MLOAD PUSH3 0x461BCD PUSH1 0xE5 SHL DUP2 MSTORE PUSH1 0x20 PUSH1 0x4 DUP3 ADD MSTORE PUSH1 0x16 PUSH1 0x24 DUP3 ADD MSTORE PUSH32 0x53616C65206861736E277420656E646564207965742E00000000000000000000 PUSH1 0x44 DUP3 ADD MSTORE PUSH1 0x64 ADD JUMPDEST PUSH1 0x40 MLOAD DUP1 SWAP2 SUB SWAP1 REVERT JUMPDEST PUSH1 0xD3 SLOAD PUSH1 0x40 MLOAD PUSH32 0x70A0823100000000000000000000000000000000000000000000000000000000 DUP2 MSTORE ADDRESS PUSH1 0x4 DUP3 ADD MSTORE PUSH1 0x0 SWAP2 PUSH2 0x100 SWAP1 DIV PUSH1 0x1 PUSH1 0x1 PUSH1 0xA0 SHL SUB AND SWAP1 PUSH4 0x70A08231 SWAP1 PUSH1 0x24 ADD PUSH1 0x20 PUSH1 0x40 MLOAD DUP1 DUP4 SUB DUP2 DUP7 GAS STATICCALL ISZERO DUP1 ISZERO PUSH2 0x49D JUMPI RETURNDATASIZE PUSH1 0x0 DUP1 RETURNDATACOPY RETURNDATASIZE PUSH1 0x0 REVERT JUMPDEST POP POP POP POP PUSH1 0x40 MLOAD RETURNDATASIZE PUSH1 0x1F NOT PUSH1 0x1F DUP3 ADD AND DUP3 ADD DUP1 PUSH1 0x40 MSTORE POP DUP2 ADD SWAP1 PUSH2 0x4C1 SWAP2 SWAP1 PUSH2 0x1BF7 JUMP JUMPDEST SWAP1 POP PUSH1 0x0 DUP2 GT PUSH2 0x513 JUMPI PUSH1 0x40 MLOAD PUSH3 0x461BCD PUSH1 0xE5 SHL DUP2 MSTORE PUSH1 0x20 PUSH1 0x4 DUP3 ADD MSTORE PUSH1 0x1B PUSH1 0x24 DUP3 ADD MSTORE PUSH32 0x4E6F7420656E6F75676820496E747820746F2077697468647261770000000000 PUSH1 0x44 DUP3 ADD MSTORE PUSH1 0x64 ADD PUSH2 0x42D JUMP JUMPDEST PUSH1 0xD3 SLOAD PUSH1 0xCD SLOAD PUSH1 0x40 MLOAD PUSH32 0xA9059CBB00000000000000000000000000000000000000000000000000000000 DUP2 MSTORE PUSH1 0x1 PUSH1 0x1 PUSH1 0xA0 SHL SUB SWAP2 DUP3 AND PUSH1 0x4 DUP3 ADD MSTORE PUSH1 0x24 DUP2 ADD DUP5 SWAP1 MSTORE PUSH2 0x100 SWAP1 SWAP3 DIV AND SWAP1 PUSH4 0xA9059CBB SWAP1 PUSH1 0x44 ADD PUSH1 0x20 PUSH1 0x40 MLOAD DUP1 DUP4 SUB DUP2 PUSH1 0x0 DUP8 GAS CALL ISZERO DUP1 ISZERO PUSH2 0x586 JUMPI RETURNDATASIZE PUSH1 0x0 DUP1 RETURNDATACOPY RETURNDATASIZE PUSH1 0x0 REVERT JUMPDEST POP POP POP POP PUSH1 0x40 MLOAD RETURNDATASIZE PUSH1 0x1F NOT PUSH1 0x1F DUP3 ADD AND DUP3 ADD DUP1 PUSH1 0x40 MSTORE POP DUP2 ADD SWAP1 PUSH2 0x5AA SWAP2 SWAP1 PUSH2 0x1C10 JUMP JUMPDEST POP PUSH32 0xA8EEDBDE77077F55B0C6B1EFC969F0DAB23C2165782975EFB36419CD89965460 CALLER JUMPDEST PUSH1 0xCD SLOAD PUSH1 0x40 DUP1 MLOAD PUSH1 0x1 PUSH1 0x1 PUSH1 0xA0 SHL SUB SWAP4 DUP5 AND DUP2 MSTORE SWAP3 SWAP1 SWAP2 AND PUSH1 0x20 DUP4 ADD MSTORE DUP2 ADD DUP4 SWAP1 MSTORE PUSH1 0x60 ADD PUSH1 0x40 MLOAD DUP1 SWAP2 SUB SWAP1 LOG1 POP JUMP JUMPDEST PUSH2 0x606 PUSH2 0x1837 JUMP JUMPDEST PUSH1 0xD4 SLOAD PUSH1 0x40 MLOAD PUSH32 0x70A0823100000000000000000000000000000000000000000000000000000000 DUP2 MSTORE ADDRESS PUSH1 0x4 DUP3 ADD MSTORE PUSH1 0x0 SWAP2 PUSH1 0x1 PUSH1 0x1 PUSH1 0xA0 SHL SUB AND SWAP1 PUSH4 0x70A08231 SWAP1 PUSH1 0x24 ADD PUSH1 0x20 PUSH1 0x40 MLOAD DUP1 DUP4 SUB DUP2 DUP7 GAS STATICCALL ISZERO DUP1 ISZERO PUSH2 0x668 JUMPI RETURNDATASIZE PUSH1 0x0 DUP1 RETURNDATACOPY RETURNDATASIZE PUSH1 0x0 REVERT JUMPDEST POP POP POP POP PUSH1 0x40 MLOAD RETURNDATASIZE PUSH1 0x1F NOT PUSH1 0x1F DUP3 ADD AND DUP3 ADD DUP1 PUSH1 0x40 MSTORE POP DUP2 ADD SWAP1 PUSH2 0x68C SWAP2 SWAP1 PUSH2 0x1BF7 JUMP JUMPDEST SWAP1 POP PUSH1 0x0 DUP2 GT PUSH2 0x704 JUMPI PUSH1 0x40 MLOAD PUSH3 0x461BCD PUSH1 0xE5 SHL DUP2 MSTORE PUSH1 0x20 PUSH1 0x4 DUP3 ADD MSTORE PUSH1 0x21 PUSH1 0x24 DUP3 ADD MSTORE PUSH32 0x4E6F7420656E6F756768207261697365546F6B656E20746F2077697468647261 PUSH1 0x44 DUP3 ADD MSTORE PUSH32 0x7700000000000000000000000000000000000000000000000000000000000000 PUSH1 0x64 DUP3 ADD MSTORE PUSH1 0x84 ADD PUSH2 0x42D JUMP JUMPDEST PUSH1 0xD4 SLOAD PUSH1 0xCD SLOAD PUSH1 0x40 MLOAD PUSH32 0xA9059CBB00000000000000000000000000000000000000000000000000000000 DUP2 MSTORE PUSH1 0x1 PUSH1 0x1 PUSH1 0xA0 SHL SUB SWAP2 DUP3 AND PUSH1 0x4 DUP3 ADD MSTORE PUSH1 0x24 DUP2 ADD DUP5 SWAP1 MSTORE SWAP2 AND SWAP1 PUSH4 0xA9059CBB SWAP1 PUSH1 0x44 ADD PUSH1 0x20 PUSH1 0x40 MLOAD DUP1 DUP4 SUB DUP2 PUSH1 0x0 DUP8 GAS CALL ISZERO DUP1 ISZERO PUSH2 0x772 JUMPI RETURNDATASIZE PUSH1 0x0 DUP1 RETURNDATACOPY RETURNDATASIZE PUSH1 0x0 REVERT JUMPDEST POP POP POP POP PUSH1 0x40 MLOAD RETURNDATASIZE PUSH1 0x1F NOT PUSH1 0x1F DUP3 ADD AND DUP3 ADD DUP1 PUSH1 0x40 MSTORE POP DUP2 ADD SWAP1 PUSH2 0x796 SWAP2 SWAP1 PUSH2 0x1C10 JUMP JUMPDEST POP PUSH32 0x9B1BFA7FA9EE420A16E124F794C35AC9F90472ACC99140EB2F6447C714CAD8EB CALLER PUSH2 0x5CE JUMP JUMPDEST PUSH2 0x7C6 PUSH2 0x1891 JUMP JUMPDEST PUSH1 0xCB SLOAD TIMESTAMP LT ISZERO PUSH2 0x818 JUMPI PUSH1 0x40 MLOAD PUSH3 0x461BCD PUSH1 0xE5 SHL DUP2 MSTORE PUSH1 0x20 PUSH1 0x4 DUP3 ADD MSTORE PUSH1 0x1B PUSH1 0x24 DUP3 ADD MSTORE PUSH32 0x56657374696E67206861736E27742073746172746564207965742E0000000000 PUSH1 0x44 DUP3 ADD MSTORE PUSH1 0x64 ADD PUSH2 0x42D JUMP JUMPDEST CALLER PUSH1 0x0 SWAP1 DUP2 MSTORE PUSH1 0xD6 PUSH1 0x20 MSTORE PUSH1 0x40 DUP2 KECCAK256 SLOAD SWAP1 SUB PUSH2 0x89C JUMPI PUSH1 0x40 MLOAD PUSH3 0x461BCD PUSH1 0xE5 SHL DUP2 MSTORE PUSH1 0x20 PUSH1 0x4 DUP3 ADD MSTORE PUSH1 0x2E PUSH1 0x24 DUP3 ADD MSTORE PUSH32 0x54686973206164647265737320646F65736E2774206861766520616E7920616D PUSH1 0x44 DUP3 ADD MSTORE PUSH32 0x6F756E7420746F20636C61696D2E000000000000000000000000000000000000 PUSH1 0x64 DUP3 ADD MSTORE PUSH1 0x84 ADD PUSH2 0x42D JUMP JUMPDEST CALLER PUSH1 0x0 SWAP1 DUP2 MSTORE PUSH1 0xD6 PUSH1 0x20 SWAP1 DUP2 MSTORE PUSH1 0x40 DUP1 DUP4 KECCAK256 SLOAD PUSH1 0xD7 SWAP1 SWAP3 MSTORE SWAP1 SWAP2 KECCAK256 SLOAD LT PUSH2 0x92B JUMPI PUSH1 0x40 MLOAD PUSH3 0x461BCD PUSH1 0xE5 SHL DUP2 MSTORE PUSH1 0x20 PUSH1 0x4 DUP3 ADD MSTORE PUSH1 0x2C PUSH1 0x24 DUP3 ADD MSTORE PUSH32 0x596F75206861766520616C726561647920636C61696D656420616C6C20796F75 PUSH1 0x44 DUP3 ADD MSTORE PUSH32 0x7220616C6C6F636174696F6E0000000000000000000000000000000000000000 PUSH1 0x64 DUP3 ADD MSTORE PUSH1 0x84 ADD PUSH2 0x42D JUMP JUMPDEST PUSH1 0xCB SLOAD TIMESTAMP GT ISZERO PUSH2 0xB46 JUMPI PUSH1 0x0 PUSH2 0x2710 PUSH1 0xC9 SLOAD PUSH1 0xD6 PUSH1 0x0 PUSH2 0x948 CALLER SWAP1 JUMP JUMPDEST PUSH1 0x1 PUSH1 0x1 PUSH1 0xA0 SHL SUB AND PUSH1 0x1 PUSH1 0x1 PUSH1 0xA0 SHL SUB AND DUP2 MSTORE PUSH1 0x20 ADD SWAP1 DUP2 MSTORE PUSH1 0x20 ADD PUSH1 0x0 KECCAK256 SLOAD PUSH2 0x973 SWAP2 SWAP1 PUSH2 0x1C61 JUMP JUMPDEST PUSH2 0x97D SWAP2 SWAP1 PUSH2 0x1C7E JUMP JUMPDEST SWAP1 POP PUSH1 0x0 PUSH2 0x2710 PUSH1 0xC9 SLOAD PUSH2 0x2710 PUSH2 0x994 SWAP2 SWAP1 PUSH2 0x1CB9 JUMP JUMPDEST CALLER PUSH1 0x0 SWAP1 DUP2 MSTORE PUSH1 0xD6 PUSH1 0x20 MSTORE PUSH1 0x40 SWAP1 KECCAK256 SLOAD PUSH2 0x9AE SWAP2 SWAP1 PUSH2 0x1C61 JUMP JUMPDEST PUSH2 0x9B8 SWAP2 SWAP1 PUSH2 0x1C7E JUMP JUMPDEST SWAP1 POP PUSH1 0x0 PUSH1 0xCB SLOAD TIMESTAMP PUSH2 0x9CA SWAP2 SWAP1 PUSH2 0x1CB9 JUMP JUMPDEST SWAP1 POP PUSH1 0xCC SLOAD DUP2 GT ISZERO PUSH2 0x9DB JUMPI POP PUSH1 0xCC SLOAD JUMPDEST PUSH1 0xCC SLOAD PUSH1 0x0 SWAP1 PUSH2 0x9ED PUSH2 0x2710 DUP5 PUSH2 0x1C61 JUMP JUMPDEST PUSH2 0x9F7 SWAP2 SWAP1 PUSH2 0x1C7E JUMP JUMPDEST CALLER PUSH1 0x0 SWAP1 DUP2 MSTORE PUSH1 0xD7 PUSH1 0x20 MSTORE PUSH1 0x40 DUP2 KECCAK256 SLOAD SWAP2 SWAP3 POP SWAP1 PUSH2 0x2710 PUSH2 0xA18 DUP5 DUP8 PUSH2 0x1C61 JUMP JUMPDEST PUSH2 0xA22 SWAP2 SWAP1 PUSH2 0x1C7E JUMP JUMPDEST PUSH2 0xA2C SWAP1 DUP8 PUSH2 0x1CCC JUMP JUMPDEST PUSH2 0xA36 SWAP2 SWAP1 PUSH2 0x1CB9 JUMP JUMPDEST SWAP1 POP DUP1 ISZERO PUSH2 0xB40 JUMPI CALLER PUSH1 0x0 SWAP1 DUP2 MSTORE PUSH1 0xD7 PUSH1 0x20 MSTORE PUSH1 0x40 DUP2 KECCAK256 DUP1 SLOAD DUP4 SWAP3 SWAP1 PUSH2 0xA5D SWAP1 DUP5 SWAP1 PUSH2 0x1CCC JUMP JUMPDEST SWAP1 SWAP2 SSTORE POP POP PUSH1 0xD5 SLOAD PUSH1 0x0 SWAP1 PUSH1 0x1 PUSH1 0x1 PUSH1 0xA0 SHL SUB AND PUSH4 0x2EE40908 CALLER PUSH1 0x40 MLOAD PUSH32 0xFFFFFFFF00000000000000000000000000000000000000000000000000000000 PUSH1 0xE0 DUP5 SWAP1 SHL AND DUP2 MSTORE PUSH1 0x1 PUSH1 0x1 PUSH1 0xA0 SHL SUB SWAP1 SWAP2 AND PUSH1 0x4 DUP3 ADD MSTORE PUSH1 0x24 DUP2 ADD DUP6 SWAP1 MSTORE PUSH1 0x44 ADD PUSH1 0x20 PUSH1 0x40 MLOAD DUP1 DUP4 SUB DUP2 PUSH1 0x0 DUP8 GAS CALL ISZERO DUP1 ISZERO PUSH2 0xADC JUMPI RETURNDATASIZE PUSH1 0x0 DUP1 RETURNDATACOPY RETURNDATASIZE PUSH1 0x0 REVERT JUMPDEST POP POP POP POP PUSH1 0x40 MLOAD RETURNDATASIZE PUSH1 0x1F NOT PUSH1 0x1F DUP3 ADD AND DUP3 ADD DUP1 PUSH1 0x40 MSTORE POP DUP2 ADD SWAP1 PUSH2 0xB00 SWAP2 SWAP1 PUSH2 0x1BF7 JUMP JUMPDEST PUSH1 0x40 DUP1 MLOAD DUP5 DUP2 MSTORE PUSH1 0x20 DUP2 ADD DUP4 SWAP1 MSTORE SWAP2 SWAP3 POP CALLER SWAP2 PUSH32 0x987D620F307FF6B94D58743CB7A7509F24071586A77759B77C2D4E29F75A2F9A SWAP2 ADD PUSH1 0x40 MLOAD DUP1 SWAP2 SUB SWAP1 LOG2 POP JUMPDEST POP POP POP POP POP JUMPDEST PUSH2 0xB4F PUSH1 0x1 DUP1 SSTORE JUMP JUMPDEST JUMP JUMPDEST PUSH1 0xCB SLOAD TIMESTAMP LT ISZERO PUSH2 0xBA3 JUMPI PUSH1 0x40 MLOAD PUSH3 0x461BCD PUSH1 0xE5 SHL DUP2 MSTORE PUSH1 0x20 PUSH1 0x4 DUP3 ADD MSTORE PUSH1 0x1B PUSH1 0x24 DUP3 ADD MSTORE PUSH32 0x56657374696E67206861736E27742073746172746564207965742E0000000000 PUSH1 0x44 DUP3 ADD MSTORE PUSH1 0x64 ADD PUSH2 0x42D JUMP JUMPDEST PUSH1 0xCD SLOAD PUSH21 0x10000000000000000000000000000000000000000 SWAP1 DIV PUSH1 0xFF AND PUSH2 0xC59 JUMPI PUSH1 0x40 MLOAD PUSH3 0x461BCD PUSH1 0xE5 SHL DUP2 MSTORE PUSH1 0x20 PUSH1 0x4 DUP3 ADD MSTORE PUSH1 0x46 PUSH1 0x24 DUP3 ADD MSTORE PUSH32 0x546869732076657374696E6720636F6E747261637420646F65736E277420616C PUSH1 0x44 DUP3 ADD MSTORE PUSH32 0x6C6F7720796F7520746F206368616E6765207468652072656365697665722061 PUSH1 0x64 DUP3 ADD MSTORE PUSH32 0x6464726573730000000000000000000000000000000000000000000000000000 PUSH1 0x84 DUP3 ADD MSTORE PUSH1 0xA4 ADD PUSH2 0x42D JUMP JUMPDEST PUSH1 0x1 PUSH1 0x1 PUSH1 0xA0 SHL SUB DUP2 AND PUSH2 0xCD5 JUMPI PUSH1 0x40 MLOAD PUSH3 0x461BCD PUSH1 0xE5 SHL DUP2 MSTORE PUSH1 0x20 PUSH1 0x4 DUP3 ADD MSTORE PUSH1 0x36 PUSH1 0x24 DUP3 ADD MSTORE PUSH32 0x4E657720616C6C6F636174696F6E2072656365697665722063616E2774206265 PUSH1 0x44 DUP3 ADD MSTORE PUSH32 0x20746865203078303030302E2E2E206164647265737300000000000000000000 PUSH1 0x64 DUP3 ADD MSTORE PUSH1 0x84 ADD PUSH2 0x42D JUMP JUMPDEST CALLER PUSH1 0x0 DUP2 DUP2 MSTORE PUSH1 0xD6 PUSH1 0x20 MSTORE PUSH1 0x40 DUP2 KECCAK256 SLOAD SWAP1 SUB PUSH2 0xD33 JUMPI PUSH1 0x40 MLOAD PUSH3 0x461BCD PUSH1 0xE5 SHL DUP2 MSTORE PUSH1 0x20 PUSH1 0x4 DUP3 ADD MSTORE PUSH1 0x1E PUSH1 0x24 DUP3 ADD MSTORE PUSH32 0x596F7520646F6E2774206861766520616E7920616C6C6F636174696F6E2E0000 PUSH1 0x44 DUP3 ADD MSTORE PUSH1 0x64 ADD PUSH2 0x42D JUMP JUMPDEST PUSH1 0x1 PUSH1 0x1 PUSH1 0xA0 SHL SUB DUP3 AND PUSH1 0x0 SWAP1 DUP2 MSTORE PUSH1 0xD6 PUSH1 0x20 MSTORE PUSH1 0x40 SWAP1 KECCAK256 SLOAD ISZERO PUSH2 0xDBF JUMPI PUSH1 0x40 MLOAD PUSH3 0x461BCD PUSH1 0xE5 SHL DUP2 MSTORE PUSH1 0x20 PUSH1 0x4 DUP3 ADD MSTORE PUSH1 0x2D PUSH1 0x24 DUP3 ADD MSTORE PUSH32 0x546865206E6577206164647265737320616C7265616479206861732061207665 PUSH1 0x44 DUP3 ADD MSTORE PUSH32 0x7374696E6720616D6F756E742E00000000000000000000000000000000000000 PUSH1 0x64 DUP3 ADD MSTORE PUSH1 0x84 ADD PUSH2 0x42D JUMP JUMPDEST PUSH1 0x1 PUSH1 0x1 PUSH1 0xA0 SHL SUB DUP2 AND PUSH1 0x0 SWAP1 DUP2 MSTORE PUSH1 0xD6 PUSH1 0x20 SWAP1 DUP2 MSTORE PUSH1 0x40 DUP1 DUP4 KECCAK256 SLOAD PUSH1 0xD7 SWAP1 SWAP3 MSTORE SWAP1 SWAP2 KECCAK256 SLOAD LT PUSH2 0xE57 JUMPI PUSH1 0x40 MLOAD PUSH3 0x461BCD PUSH1 0xE5 SHL DUP2 MSTORE PUSH1 0x20 PUSH1 0x4 DUP3 ADD MSTORE PUSH1 0x2D PUSH1 0x24 DUP3 ADD MSTORE PUSH32 0x596F75206861766520616C726561647920636C61696D656420616C6C20796F75 PUSH1 0x44 DUP3 ADD MSTORE PUSH32 0x7220616C6C6F636174696F6E2E00000000000000000000000000000000000000 PUSH1 0x64 DUP3 ADD MSTORE PUSH1 0x84 ADD PUSH2 0x42D JUMP JUMPDEST PUSH1 0x1 PUSH1 0x1 PUSH1 0xA0 SHL SUB DUP2 DUP2 AND PUSH1 0x0 DUP2 DUP2 MSTORE PUSH1 0xD6 PUSH1 0x20 SWAP1 DUP2 MSTORE PUSH1 0x40 DUP1 DUP4 KECCAK256 DUP1 SLOAD SWAP6 DUP9 AND DUP1 DUP6 MSTORE DUP3 DUP6 KECCAK256 SWAP7 SWAP1 SWAP7 SSTORE DUP5 DUP5 MSTORE PUSH1 0xD7 DUP4 MSTORE DUP2 DUP5 KECCAK256 DUP1 SLOAD DUP8 DUP7 MSTORE DUP4 DUP7 KECCAK256 SSTORE DUP6 DUP6 MSTORE SWAP1 DUP5 SWAP1 SSTORE SWAP3 SWAP1 SWAP3 SSTORE DUP2 MLOAD CALLER DUP2 MSTORE SWAP2 MLOAD PUSH32 0x4E87E17C55076158DC051FFE67EDB8C0ABF946F53612656C46F887AC1F9C486C SWAP3 DUP2 SWAP1 SUB SWAP1 SWAP2 ADD SWAP1 LOG3 POP POP JUMP JUMPDEST PUSH2 0xB4F PUSH2 0x1837 JUMP JUMPDEST PUSH1 0x97 SLOAD CALLER SWAP1 PUSH1 0x1 PUSH1 0x1 PUSH1 0xA0 SHL SUB AND DUP2 EQ PUSH2 0xF5F JUMPI PUSH1 0x40 MLOAD PUSH3 0x461BCD PUSH1 0xE5 SHL DUP2 MSTORE PUSH1 0x20 PUSH1 0x4 DUP3 ADD MSTORE PUSH1 0x29 PUSH1 0x24 DUP3 ADD MSTORE PUSH32 0x4F776E61626C6532537465703A2063616C6C6572206973206E6F742074686520 PUSH1 0x44 DUP3 ADD MSTORE PUSH32 0x6E6577206F776E65720000000000000000000000000000000000000000000000 PUSH1 0x64 DUP3 ADD MSTORE PUSH1 0x84 ADD PUSH2 0x42D JUMP JUMPDEST PUSH2 0xF68 DUP2 PUSH2 0x18F0 JUMP JUMPDEST POP JUMP JUMPDEST PUSH2 0xF73 PUSH2 0x1837 JUMP JUMPDEST PUSH1 0xD3 SLOAD PUSH1 0xFF AND ISZERO PUSH2 0xFEC JUMPI PUSH1 0x40 MLOAD PUSH3 0x461BCD PUSH1 0xE5 SHL DUP2 MSTORE PUSH1 0x20 PUSH1 0x4 DUP3 ADD MSTORE PUSH1 0x34 PUSH1 0x24 DUP3 ADD MSTORE PUSH32 0x56657374696E6720436F6E747261637420416C72656164792073656564656420 PUSH1 0x44 DUP3 ADD MSTORE PUSH32 0x7769746820696E697469616C20616D6F756E742E000000000000000000000000 PUSH1 0x64 DUP3 ADD MSTORE PUSH1 0x84 ADD PUSH2 0x42D JUMP JUMPDEST PUSH1 0xD3 SLOAD PUSH2 0x100 SWAP1 DIV PUSH1 0x1 PUSH1 0x1 PUSH1 0xA0 SHL SUB AND PUSH4 0x23B872DD CALLER PUSH1 0xCE SLOAD PUSH1 0x40 MLOAD PUSH32 0xFFFFFFFF00000000000000000000000000000000000000000000000000000000 PUSH1 0xE0 DUP6 SWAP1 SHL AND DUP2 MSTORE PUSH1 0x1 PUSH1 0x1 PUSH1 0xA0 SHL SUB SWAP1 SWAP3 AND PUSH1 0x4 DUP4 ADD MSTORE ADDRESS PUSH1 0x24 DUP4 ADD MSTORE PUSH1 0x44 DUP3 ADD MSTORE PUSH1 0x64 ADD PUSH1 0x20 PUSH1 0x40 MLOAD DUP1 DUP4 SUB DUP2 PUSH1 0x0 DUP8 GAS CALL ISZERO DUP1 ISZERO PUSH2 0x106F JUMPI RETURNDATASIZE PUSH1 0x0 DUP1 RETURNDATACOPY RETURNDATASIZE PUSH1 0x0 REVERT JUMPDEST POP POP POP POP PUSH1 0x40 MLOAD RETURNDATASIZE PUSH1 0x1F NOT PUSH1 0x1F DUP3 ADD AND DUP3 ADD DUP1 PUSH1 0x40 MSTORE POP DUP2 ADD SWAP1 PUSH2 0x1093 SWAP2 SWAP1 PUSH2 0x1C10 JUMP JUMPDEST POP PUSH1 0xD3 SLOAD PUSH1 0xD5 SLOAD PUSH1 0x40 MLOAD PUSH32 0x95EA7B300000000000000000000000000000000000000000000000000000000 DUP2 MSTORE PUSH1 0x1 PUSH1 0x1 PUSH1 0xA0 SHL SUB SWAP2 DUP3 AND PUSH1 0x4 DUP3 ADD MSTORE PUSH32 0xFFFFFFFFFFFFFFFFFFFFFFFFFFFFFFFFFFFFFFFFFFFFFFFFFFFFFFFFFFFFFFFF PUSH1 0x24 DUP3 ADD MSTORE PUSH2 0x100 SWAP1 SWAP3 DIV AND SWAP1 PUSH4 0x95EA7B3 SWAP1 PUSH1 0x44 ADD PUSH1 0x20 PUSH1 0x40 MLOAD DUP1 DUP4 SUB DUP2 PUSH1 0x0 DUP8 GAS CALL ISZERO DUP1 ISZERO PUSH2 0x1126 JUMPI RETURNDATASIZE PUSH1 0x0 DUP1 RETURNDATACOPY RETURNDATASIZE PUSH1 0x0 REVERT JUMPDEST POP POP POP POP PUSH1 0x40 MLOAD RETURNDATASIZE PUSH1 0x1F NOT PUSH1 0x1F DUP3 ADD AND DUP3 ADD DUP1 PUSH1 0x40 MSTORE POP DUP2 ADD SWAP1 PUSH2 0x114A SWAP2 SWAP1 PUSH2 0x1C10 JUMP JUMPDEST POP PUSH1 0xD3 DUP1 SLOAD PUSH1 0xFF NOT AND PUSH1 0x1 OR SWAP1 SSTORE PUSH32 0x6189B14A5C1490DBEB86A9DA875768D98DC98FB398D6B29DD475DEFAA1EC4BA3 PUSH2 0x1180 CALLER SWAP1 JUMP JUMPDEST PUSH1 0xCE SLOAD PUSH1 0x40 DUP1 MLOAD PUSH1 0x1 PUSH1 0x1 PUSH1 0xA0 SHL SUB SWAP1 SWAP4 AND DUP4 MSTORE PUSH1 0x20 DUP4 ADD SWAP2 SWAP1 SWAP2 MSTORE ADD PUSH1 0x40 MLOAD DUP1 SWAP2 SUB SWAP1 LOG1 JUMP JUMPDEST PUSH1 0x0 SLOAD PUSH2 0x100 SWAP1 DIV PUSH1 0xFF AND ISZERO DUP1 DUP1 ISZERO PUSH2 0x11C7 JUMPI POP PUSH1 0x0 SLOAD PUSH1 0x1 PUSH1 0xFF SWAP1 SWAP2 AND LT JUMPDEST DUP1 PUSH2 0x11E1 JUMPI POP ADDRESS EXTCODESIZE ISZERO DUP1 ISZERO PUSH2 0x11E1 JUMPI POP PUSH1 0x0 SLOAD PUSH1 0xFF AND PUSH1 0x1 EQ JUMPDEST PUSH2 0x1253 JUMPI PUSH1 0x40 MLOAD PUSH3 0x461BCD PUSH1 0xE5 SHL DUP2 MSTORE PUSH1 0x20 PUSH1 0x4 DUP3 ADD MSTORE PUSH1 0x2E PUSH1 0x24 DUP3 ADD MSTORE PUSH32 0x496E697469616C697A61626C653A20636F6E747261637420697320616C726561 PUSH1 0x44 DUP3 ADD MSTORE PUSH32 0x647920696E697469616C697A6564000000000000000000000000000000000000 PUSH1 0x64 DUP3 ADD MSTORE PUSH1 0x84 ADD PUSH2 0x42D JUMP JUMPDEST PUSH1 0x0 DUP1 SLOAD PUSH1 0xFF NOT AND PUSH1 0x1 OR SWAP1 SSTORE DUP1 ISZERO PUSH2 0x1276 JUMPI PUSH1 0x0 DUP1 SLOAD PUSH2 0xFF00 NOT AND PUSH2 0x100 OR SWAP1 SSTORE JUMPDEST PUSH2 0x127E PUSH2 0x1916 JUMP JUMPDEST PUSH2 0x1286 PUSH2 0x1989 JUMP JUMPDEST PUSH1 0xD3 DUP1 SLOAD PUSH32 0xFFFFFFFFFFFFFFFFFFFFFF0000000000000000000000000000000000000000FF AND PUSH2 0x100 PUSH1 0x1 PUSH1 0x1 PUSH1 0xA0 SHL SUB DUP11 DUP2 AND SWAP2 SWAP1 SWAP2 MUL SWAP2 SWAP1 SWAP2 OR SWAP1 SWAP2 SSTORE PUSH1 0xD4 DUP1 SLOAD PUSH20 0xFFFFFFFFFFFFFFFFFFFFFFFFFFFFFFFFFFFFFFFF NOT SWAP1 DUP2 AND DUP10 DUP5 AND OR SWAP1 SWAP2 SSTORE PUSH1 0xD5 DUP1 SLOAD DUP3 AND DUP9 DUP5 AND OR SWAP1 SSTORE PUSH1 0xCD DUP1 SLOAD SWAP1 SWAP2 AND SWAP2 DUP7 AND SWAP2 SWAP1 SWAP2 OR SWAP1 SSTORE PUSH1 0xCA DUP4 SWAP1 SSTORE PUSH1 0xCB DUP3 SWAP1 SSTORE PUSH3 0xEFF100 PUSH1 0xCC SSTORE PUSH2 0x1323 PUSH1 0x2 PUSH2 0x2710 PUSH2 0x1C7E JUMP JUMPDEST PUSH1 0xC9 SSTORE PUSH11 0x1A784379D99DB42000000 PUSH1 0xCE SSTORE PUSH5 0x5D21DBA000 PUSH1 0xCF SSTORE PUSH3 0x989680 PUSH1 0xD1 SSTORE PUSH5 0x4A817C800 PUSH1 0xD2 SSTORE PUSH1 0xCD DUP1 SLOAD PUSH32 0xFFFFFFFFFFFFFFFFFFFFFF00FFFFFFFFFFFFFFFFFFFFFFFFFFFFFFFFFFFFFFFF AND PUSH21 0x10000000000000000000000000000000000000000 OR SWAP1 SSTORE DUP1 ISZERO PUSH2 0x13D3 JUMPI PUSH1 0x0 DUP1 SLOAD PUSH2 0xFF00 NOT AND SWAP1 SSTORE PUSH1 0x40 MLOAD PUSH1 0x1 DUP2 MSTORE PUSH32 0x7F26B83FF96E1F2B6A682F133852F6798A09C465DA95921460CEFB3847402498 SWAP1 PUSH1 0x20 ADD PUSH1 0x40 MLOAD DUP1 SWAP2 SUB SWAP1 LOG1 JUMPDEST POP POP POP POP POP POP POP JUMP JUMPDEST PUSH1 0xCF SLOAD PUSH1 0xD0 SLOAD GT ISZERO PUSH2 0x1430 JUMPI PUSH1 0x40 MLOAD PUSH3 0x461BCD PUSH1 0xE5 SHL DUP2 MSTORE PUSH1 0x20 PUSH1 0x4 DUP3 ADD MSTORE PUSH1 0x1A PUSH1 0x24 DUP3 ADD MSTORE PUSH32 0x416C6C2052616973652068617665206265656E2066696C6C6564000000000000 PUSH1 0x44 DUP3 ADD MSTORE PUSH1 0x64 ADD PUSH2 0x42D JUMP JUMPDEST PUSH1 0xCB SLOAD TIMESTAMP GT ISZERO PUSH2 0x1482 JUMPI PUSH1 0x40 MLOAD PUSH3 0x461BCD PUSH1 0xE5 SHL DUP2 MSTORE PUSH1 0x20 PUSH1 0x4 DUP3 ADD MSTORE PUSH1 0xF PUSH1 0x24 DUP3 ADD MSTORE PUSH32 0x53616C652068617320656E6465642E0000000000000000000000000000000000 PUSH1 0x44 DUP3 ADD MSTORE PUSH1 0x64 ADD PUSH2 0x42D JUMP JUMPDEST PUSH1 0xCA SLOAD TIMESTAMP LT ISZERO PUSH2 0x14D4 JUMPI PUSH1 0x40 MLOAD PUSH3 0x461BCD PUSH1 0xE5 SHL DUP2 MSTORE PUSH1 0x20 PUSH1 0x4 DUP3 ADD MSTORE PUSH1 0x18 PUSH1 0x24 DUP3 ADD MSTORE PUSH32 0x53616C65206861736E27742073746172746564207965742E0000000000000000 PUSH1 0x44 DUP3 ADD MSTORE PUSH1 0x64 ADD PUSH2 0x42D JUMP JUMPDEST PUSH1 0xD1 SLOAD DUP2 LT ISZERO PUSH2 0x154C JUMPI PUSH1 0x40 MLOAD PUSH3 0x461BCD PUSH1 0xE5 SHL DUP2 MSTORE PUSH1 0x20 PUSH1 0x4 DUP3 ADD MSTORE PUSH1 0x23 PUSH1 0x24 DUP3 ADD MSTORE PUSH32 0x596F752063616E277420696E76657374206C657373207468616E203130205553 PUSH1 0x44 DUP3 ADD MSTORE PUSH32 0x44432E0000000000000000000000000000000000000000000000000000000000 PUSH1 0x64 DUP3 ADD MSTORE PUSH1 0x84 ADD PUSH2 0x42D JUMP JUMPDEST PUSH1 0xD2 SLOAD DUP2 GT ISZERO PUSH2 0x15C4 JUMPI PUSH1 0x40 MLOAD PUSH3 0x461BCD PUSH1 0xE5 SHL DUP2 MSTORE PUSH1 0x20 PUSH1 0x4 DUP3 ADD MSTORE PUSH1 0x26 PUSH1 0x24 DUP3 ADD MSTORE PUSH32 0x596F752063616E277420696E76657374206D6F7265207468616E203230303030 PUSH1 0x44 DUP3 ADD MSTORE PUSH32 0x20555344432E0000000000000000000000000000000000000000000000000000 PUSH1 0x64 DUP3 ADD MSTORE PUSH1 0x84 ADD PUSH2 0x42D JUMP JUMPDEST PUSH1 0xD3 SLOAD PUSH1 0xFF AND PUSH2 0x163C JUMPI PUSH1 0x40 MLOAD PUSH3 0x461BCD PUSH1 0xE5 SHL DUP2 MSTORE PUSH1 0x20 PUSH1 0x4 DUP3 ADD MSTORE PUSH1 0x28 PUSH1 0x24 DUP3 ADD MSTORE PUSH32 0x56657374696E6720436F6E7472616374206861736E2774206265656E20736565 PUSH1 0x44 DUP3 ADD MSTORE PUSH32 0x646564207965742E000000000000000000000000000000000000000000000000 PUSH1 0x64 DUP3 ADD MSTORE PUSH1 0x84 ADD PUSH2 0x42D JUMP JUMPDEST PUSH1 0xCF SLOAD PUSH1 0xD0 SLOAD PUSH2 0x164C SWAP1 DUP4 PUSH2 0x1CCC JUMP JUMPDEST GT ISZERO PUSH2 0x1665 JUMPI PUSH1 0xD0 SLOAD PUSH1 0xCF SLOAD PUSH2 0x1662 SWAP2 SWAP1 PUSH2 0x1CB9 JUMP JUMPDEST SWAP1 POP JUMPDEST PUSH1 0xD4 SLOAD PUSH1 0x1 PUSH1 0x1 PUSH1 0xA0 SHL SUB AND PUSH4 0x23B872DD CALLER PUSH1 0x40 MLOAD PUSH32 0xFFFFFFFF00000000000000000000000000000000000000000000000000000000 PUSH1 0xE0 DUP5 SWAP1 SHL AND DUP2 MSTORE PUSH1 0x1 PUSH1 0x1 PUSH1 0xA0 SHL SUB SWAP1 SWAP2 AND PUSH1 0x4 DUP3 ADD MSTORE ADDRESS PUSH1 0x24 DUP3 ADD MSTORE PUSH1 0x44 DUP2 ADD DUP5 SWAP1 MSTORE PUSH1 0x64 ADD PUSH1 0x20 PUSH1 0x40 MLOAD DUP1 DUP4 SUB DUP2 PUSH1 0x0 DUP8 GAS CALL ISZERO DUP1 ISZERO PUSH2 0x16E2 JUMPI RETURNDATASIZE PUSH1 0x0 DUP1 RETURNDATACOPY RETURNDATASIZE PUSH1 0x0 REVERT JUMPDEST POP POP POP POP PUSH1 0x40 MLOAD RETURNDATASIZE PUSH1 0x1F NOT PUSH1 0x1F DUP3 ADD AND DUP3 ADD DUP1 PUSH1 0x40 MSTORE POP DUP2 ADD SWAP1 PUSH2 0x1706 SWAP2 SWAP1 PUSH2 0x1C10 JUMP JUMPDEST POP DUP1 PUSH1 0xD0 PUSH1 0x0 DUP3 DUP3 SLOAD PUSH2 0x1719 SWAP2 SWAP1 PUSH2 0x1CCC JUMP JUMPDEST SWAP3 POP POP DUP2 SWAP1 SSTORE POP PUSH1 0x0 PUSH1 0xCF SLOAD DUP3 PUSH1 0xCE SLOAD PUSH2 0x1733 SWAP2 SWAP1 PUSH2 0x1C61 JUMP JUMPDEST PUSH2 0x173D SWAP2 SWAP1 PUSH2 0x1C7E JUMP JUMPDEST CALLER PUSH1 0x0 SWAP1 DUP2 MSTORE PUSH1 0xD6 PUSH1 0x20 MSTORE PUSH1 0x40 DUP2 KECCAK256 DUP1 SLOAD SWAP3 SWAP4 POP DUP4 SWAP3 SWAP1 SWAP2 SWAP1 PUSH2 0x1761 SWAP1 DUP5 SWAP1 PUSH2 0x1CCC JUMP JUMPDEST SWAP1 SWAP2 SSTORE POP POP CALLER PUSH1 0x0 DUP2 DUP2 MSTORE PUSH1 0xD6 PUSH1 0x20 SWAP1 DUP2 MSTORE PUSH1 0x40 SWAP2 DUP3 SWAP1 KECCAK256 SLOAD DUP3 MLOAD DUP7 DUP2 MSTORE SWAP2 DUP3 ADD DUP6 SWAP1 MSTORE DUP2 DUP4 ADD MSTORE SWAP1 MLOAD PUSH32 0xEDBA86FD2B22962D534E70AD9B0FF8730DE46F636146F2BAB6A72CBB1EBBCC53 SWAP2 DUP2 SWAP1 SUB PUSH1 0x60 ADD SWAP1 LOG2 POP POP JUMP JUMPDEST PUSH2 0x17C1 PUSH2 0x1837 JUMP JUMPDEST PUSH1 0x97 DUP1 SLOAD PUSH1 0x1 PUSH1 0x1 PUSH1 0xA0 SHL SUB DUP4 AND PUSH20 0xFFFFFFFFFFFFFFFFFFFFFFFFFFFFFFFFFFFFFFFF NOT SWAP1 SWAP2 AND DUP2 OR SWAP1 SWAP2 SSTORE PUSH2 0x17FF PUSH1 0x65 SLOAD PUSH1 0x1 PUSH1 0x1 PUSH1 0xA0 SHL SUB AND SWAP1 JUMP JUMPDEST PUSH1 0x1 PUSH1 0x1 PUSH1 0xA0 SHL SUB AND PUSH32 0x38D16B8CAC22D99FC7C124B9CD0DE2D3FA1FAEF420BFE791D8C362D765E22700 PUSH1 0x40 MLOAD PUSH1 0x40 MLOAD DUP1 SWAP2 SUB SWAP1 LOG3 POP JUMP JUMPDEST PUSH1 0x65 SLOAD PUSH1 0x1 PUSH1 0x1 PUSH1 0xA0 SHL SUB AND CALLER EQ PUSH2 0xB4F JUMPI PUSH1 0x40 MLOAD PUSH3 0x461BCD PUSH1 0xE5 SHL DUP2 MSTORE PUSH1 0x20 PUSH1 0x4 DUP3 ADD DUP2 SWAP1 MSTORE PUSH1 0x24 DUP3 ADD MSTORE PUSH32 0x4F776E61626C653A2063616C6C6572206973206E6F7420746865206F776E6572 PUSH1 0x44 DUP3 ADD MSTORE PUSH1 0x64 ADD PUSH2 0x42D JUMP JUMPDEST PUSH1 0x2 PUSH1 0x1 SLOAD SUB PUSH2 0x18E3 JUMPI PUSH1 0x40 MLOAD PUSH3 0x461BCD PUSH1 0xE5 SHL DUP2 MSTORE PUSH1 0x20 PUSH1 0x4 DUP3 ADD MSTORE PUSH1 0x1F PUSH1 0x24 DUP3 ADD MSTORE PUSH32 0x5265656E7472616E637947756172643A207265656E7472616E742063616C6C00 PUSH1 0x44 DUP3 ADD MSTORE PUSH1 0x64 ADD PUSH2 0x42D JUMP JUMPDEST PUSH1 0x2 PUSH1 0x1 SSTORE JUMP JUMPDEST PUSH1 0x1 DUP1 SSTORE JUMP JUMPDEST PUSH1 0x97 DUP1 SLOAD PUSH20 0xFFFFFFFFFFFFFFFFFFFFFFFFFFFFFFFFFFFFFFFF NOT AND SWAP1 SSTORE PUSH2 0xF68 DUP2 PUSH2 0x19FC JUMP JUMPDEST PUSH1 0x0 SLOAD PUSH2 0x100 SWAP1 DIV PUSH1 0xFF AND PUSH2 0x1981 JUMPI PUSH1 0x40 MLOAD PUSH3 0x461BCD PUSH1 0xE5 SHL DUP2 MSTORE PUSH1 0x20 PUSH1 0x4 DUP3 ADD MSTORE PUSH1 0x2B PUSH1 0x24 DUP3 ADD MSTORE PUSH32 0x496E697469616C697A61626C653A20636F6E7472616374206973206E6F742069 PUSH1 0x44 DUP3 ADD MSTORE PUSH11 0x6E697469616C697A696E67 PUSH1 0xA8 SHL PUSH1 0x64 DUP3 ADD MSTORE PUSH1 0x84 ADD PUSH2 0x42D JUMP JUMPDEST PUSH2 0xB4F PUSH2 0x1A5B JUMP JUMPDEST PUSH1 0x0 SLOAD PUSH2 0x100 SWAP1 DIV PUSH1 0xFF AND PUSH2 0x19F4 JUMPI PUSH1 0x40 MLOAD PUSH3 0x461BCD PUSH1 0xE5 SHL DUP2 MSTORE PUSH1 0x20 PUSH1 0x4 DUP3 ADD MSTORE PUSH1 0x2B PUSH1 0x24 DUP3 ADD MSTORE PUSH32 0x496E697469616C697A61626C653A20636F6E7472616374206973206E6F742069 PUSH1 0x44 DUP3 ADD MSTORE PUSH11 0x6E697469616C697A696E67 PUSH1 0xA8 SHL PUSH1 0x64 DUP3 ADD MSTORE PUSH1 0x84 ADD PUSH2 0x42D JUMP JUMPDEST PUSH2 0xB4F PUSH2 0x1AC6 JUMP JUMPDEST PUSH1 0x65 DUP1 SLOAD PUSH1 0x1 PUSH1 0x1 PUSH1 0xA0 SHL SUB DUP4 DUP2 AND PUSH20 0xFFFFFFFFFFFFFFFFFFFFFFFFFFFFFFFFFFFFFFFF NOT DUP4 AND DUP2 OR SWAP1 SWAP4 SSTORE PUSH1 0x40 MLOAD SWAP2 AND SWAP2 SWAP1 DUP3 SWAP1 PUSH32 0x8BE0079C531659141344CD1FD0A4F28419497F9722A3DAAFE3B4186F6B6457E0 SWAP1 PUSH1 0x0 SWAP1 LOG3 POP POP JUMP JUMPDEST PUSH1 0x0 SLOAD PUSH2 0x100 SWAP1 DIV PUSH1 0xFF AND PUSH2 0x18EA JUMPI PUSH1 0x40 MLOAD PUSH3 0x461BCD PUSH1 0xE5 SHL DUP2 MSTORE PUSH1 0x20 PUSH1 0x4 DUP3 ADD MSTORE PUSH1 0x2B PUSH1 0x24 DUP3 ADD MSTORE PUSH32 0x496E697469616C697A61626C653A20636F6E7472616374206973206E6F742069 PUSH1 0x44 DUP3 ADD MSTORE PUSH11 0x6E697469616C697A696E67 PUSH1 0xA8 SHL PUSH1 0x64 DUP3 ADD MSTORE PUSH1 0x84 ADD PUSH2 0x42D JUMP JUMPDEST PUSH1 0x0 SLOAD PUSH2 0x100 SWAP1 DIV PUSH1 0xFF AND PUSH2 0x1B31 JUMPI PUSH1 0x40 MLOAD PUSH3 0x461BCD PUSH1 0xE5 SHL DUP2 MSTORE PUSH1 0x20 PUSH1 0x4 DUP3 ADD MSTORE PUSH1 0x2B PUSH1 0x24 DUP3 ADD MSTORE PUSH32 0x496E697469616C697A61626C653A20636F6E7472616374206973206E6F742069 PUSH1 0x44 DUP3 ADD MSTORE PUSH11 0x6E697469616C697A696E67 PUSH1 0xA8 SHL PUSH1 0x64 DUP3 ADD MSTORE PUSH1 0x84 ADD PUSH2 0x42D JUMP JUMPDEST PUSH2 0xB4F CALLER PUSH2 0x18F0 JUMP JUMPDEST DUP1 CALLDATALOAD PUSH1 0x1 PUSH1 0x1 PUSH1 0xA0 SHL SUB DUP2 AND DUP2 EQ PUSH2 0x1B51 JUMPI PUSH1 0x0 DUP1 REVERT JUMPDEST SWAP2 SWAP1 POP JUMP JUMPDEST PUSH1 0x0 PUSH1 0x20 DUP3 DUP5 SUB SLT ISZERO PUSH2 0x1B68 JUMPI PUSH1 0x0 DUP1 REVERT JUMPDEST PUSH2 0x1B71 DUP3 PUSH2 0x1B3A JUMP JUMPDEST SWAP4 SWAP3 POP POP POP JUMP JUMPDEST PUSH1 0x0 DUP1 PUSH1 0x0 DUP1 PUSH1 0x0 DUP1 PUSH1 0xC0 DUP8 DUP10 SUB SLT ISZERO PUSH2 0x1B91 JUMPI PUSH1 0x0 DUP1 REVERT JUMPDEST PUSH2 0x1B9A DUP8 PUSH2 0x1B3A JUMP JUMPDEST SWAP6 POP PUSH2 0x1BA8 PUSH1 0x20 DUP9 ADD PUSH2 0x1B3A JUMP JUMPDEST SWAP5 POP PUSH2 0x1BB6 PUSH1 0x40 DUP9 ADD PUSH2 0x1B3A JUMP JUMPDEST SWAP4 POP PUSH2 0x1BC4 PUSH1 0x60 DUP9 ADD PUSH2 0x1B3A JUMP JUMPDEST SWAP3 POP PUSH1 0x80 DUP8 ADD CALLDATALOAD SWAP2 POP PUSH1 0xA0 DUP8 ADD CALLDATALOAD SWAP1 POP SWAP3 SWAP6 POP SWAP3 SWAP6 POP SWAP3 SWAP6 JUMP JUMPDEST PUSH1 0x0 PUSH1 0x20 DUP3 DUP5 SUB SLT ISZERO PUSH2 0x1BF0 JUMPI PUSH1 0x0 DUP1 REVERT JUMPDEST POP CALLDATALOAD SWAP2 SWAP1 POP JUMP JUMPDEST PUSH1 0x0 PUSH1 0x20 DUP3 DUP5 SUB SLT ISZERO PUSH2 0x1C09 JUMPI PUSH1 0x0 DUP1 REVERT JUMPDEST POP MLOAD SWAP2 SWAP1 POP JUMP JUMPDEST PUSH1 0x0 PUSH1 0x20 DUP3 DUP5 SUB SLT ISZERO PUSH2 0x1C22 JUMPI PUSH1 0x0 DUP1 REVERT JUMPDEST DUP2 MLOAD DUP1 ISZERO ISZERO DUP2 EQ PUSH2 0x1B71 JUMPI PUSH1 0x0 DUP1 REVERT JUMPDEST PUSH32 0x4E487B7100000000000000000000000000000000000000000000000000000000 PUSH1 0x0 MSTORE PUSH1 0x11 PUSH1 0x4 MSTORE PUSH1 0x24 PUSH1 0x0 REVERT JUMPDEST DUP1 DUP3 MUL DUP2 ISZERO DUP3 DUP3 DIV DUP5 EQ OR PUSH2 0x1C78 JUMPI PUSH2 0x1C78 PUSH2 0x1C32 JUMP JUMPDEST SWAP3 SWAP2 POP POP JUMP JUMPDEST PUSH1 0x0 DUP3 PUSH2 0x1CB4 JUMPI PUSH32 0x4E487B7100000000000000000000000000000000000000000000000000000000 PUSH1 0x0 MSTORE PUSH1 0x12 PUSH1 0x4 MSTORE PUSH1 0x24 PUSH1 0x0 REVERT JUMPDEST POP DIV SWAP1 JUMP JUMPDEST DUP2 DUP2 SUB DUP2 DUP2 GT ISZERO PUSH2 0x1C78 JUMPI PUSH2 0x1C78 PUSH2 0x1C32 JUMP JUMPDEST DUP1 DUP3 ADD DUP1 DUP3 GT ISZERO PUSH2 0x1C78 JUMPI PUSH2 0x1C78 PUSH2 0x1C32 JUMP INVALID LOG2 PUSH5 0x6970667358 0x22 SLT KECCAK256 PUSH24 0x983FB76B773F64139DB33C927C9BD5FDC52C9B50F2FE1433 PUSH20 0x7B222D823C5C64736F6C63430008130033000000 "},"methodIdentifiers":{"PRECISION()":"aaf5eb68","START_SALE()":"20df16bf","START_VESTING()":"aa264c9b","VESTING_DURATION()":"4cfc4d30","acceptOwnership()":"79ba5097","allowChange()":"d5ff56f8","buy(uint256)":"d96a094a","changeReceiver(address)":"547e3f06","claim()":"4e71d92d","claimableAmount(address)":"89885049","claimedAmount(address)":"04e86903","deposit()":"d0e30db0","initialize(address,address,address,address,uint256,uint256)":"d7c41c79","instantPercentage()":"827d606f","intx()":"46f7d6c9","maxBuy()":"70db69d6","minBuy()":"7107d7a6","multisig()":"4783c35b","owner()":"8da5cb5b","pendingOwner()":"e30c3978","raiseToken()":"4da60aa5","renounceOwnership()":"715018a6","seeded()":"334041a6","totalAllocation()":"79203dc4","totalRaised()":"c5c4744c","totalToRaise()":"1ce48df1","transferOwnership(address)":"f2fde38b","withdraw()":"3ccfd60b","withdrawUnallocatedIntx()":"30dfa3b5","xIntx()":"27a7af89"}},"storageLayout":{"storage":[{"astId":244,"contract":"contracts/PublicSaleINTX.sol:PublicSaleINTX","label":"_initialized","offset":0,"slot":"0","type":"t_uint8"},{"astId":247,"contract":"contracts/PublicSaleINTX.sol:PublicSaleINTX","label":"_initializing","offset":1,"slot":"0","type":"t_bool"},{"astId":420,"contract":"contracts/PublicSaleINTX.sol:PublicSaleINTX","label":"_status","offset":0,"slot":"1","type":"t_uint256"},{"astId":489,"contract":"contracts/PublicSaleINTX.sol:PublicSaleINTX","label":"__gap","offset":0,"slot":"2","type":"t_array(t_uint256)49_storage"},{"astId":1974,"contract":"contracts/PublicSaleINTX.sol:PublicSaleINTX","label":"__gap","offset":0,"slot":"51","type":"t_array(t_uint256)50_storage"},{"astId":116,"contract":"contracts/PublicSaleINTX.sol:PublicSaleINTX","label":"_owner","offset":0,"slot":"101","type":"t_address"},{"astId":236,"contract":"contracts/PublicSaleINTX.sol:PublicSaleINTX","label":"__gap","offset":0,"slot":"102","type":"t_array(t_uint256)49_storage"},{"astId":25,"contract":"contracts/PublicSaleINTX.sol:PublicSaleINTX","label":"_pendingOwner","offset":0,"slot":"151","type":"t_address"},{"astId":104,"contract":"contracts/PublicSaleINTX.sol:PublicSaleINTX","label":"__gap","offset":0,"slot":"152","type":"t_array(t_uint256)49_storage"},{"astId":3333,"contract":"contracts/PublicSaleINTX.sol:PublicSaleINTX","label":"instantPercentage","offset":0,"slot":"201","type":"t_uint256"},{"astId":3335,"contract":"contracts/PublicSaleINTX.sol:PublicSaleINTX","label":"START_SALE","offset":0,"slot":"202","type":"t_uint256"},{"astId":3337,"contract":"contracts/PublicSaleINTX.sol:PublicSaleINTX","label":"START_VESTING","offset":0,"slot":"203","type":"t_uint256"},{"astId":3339,"contract":"contracts/PublicSaleINTX.sol:PublicSaleINTX","label":"VESTING_DURATION","offset":0,"slot":"204","type":"t_uint256"},{"astId":3341,"contract":"contracts/PublicSaleINTX.sol:PublicSaleINTX","label":"multisig","offset":0,"slot":"205","type":"t_address"},{"astId":3343,"contract":"contracts/PublicSaleINTX.sol:PublicSaleINTX","label":"allowChange","offset":20,"slot":"205","type":"t_bool"},{"astId":3345,"contract":"contracts/PublicSaleINTX.sol:PublicSaleINTX","label":"totalAllocation","offset":0,"slot":"206","type":"t_uint256"},{"astId":3347,"contract":"contracts/PublicSaleINTX.sol:PublicSaleINTX","label":"totalToRaise","offset":0,"slot":"207","type":"t_uint256"},{"astId":3349,"contract":"contracts/PublicSaleINTX.sol:PublicSaleINTX","label":"totalRaised","offset":0,"slot":"208","type":"t_uint256"},{"astId":3351,"contract":"contracts/PublicSaleINTX.sol:PublicSaleINTX","label":"minBuy","offset":0,"slot":"209","type":"t_uint256"},{"astId":3353,"contract":"contracts/PublicSaleINTX.sol:PublicSaleINTX","label":"maxBuy","offset":0,"slot":"210","type":"t_uint256"},{"astId":3355,"contract":"contracts/PublicSaleINTX.sol:PublicSaleINTX","label":"seeded","offset":0,"slot":"211","type":"t_bool"},{"astId":3358,"contract":"contracts/PublicSaleINTX.sol:PublicSaleINTX","label":"intx","offset":1,"slot":"211","type":"t_contract(IERC20)3309"},{"astId":3361,"contract":"contracts/PublicSaleINTX.sol:PublicSaleINTX","label":"raiseToken","offset":0,"slot":"212","type":"t_contract(IERC20)3309"},{"astId":3364,"contract":"contracts/PublicSaleINTX.sol:PublicSaleINTX","label":"xIntx","offset":0,"slot":"213","type":"t_contract(IStakedINTX)3324"},{"astId":3368,"contract":"contracts/PublicSaleINTX.sol:PublicSaleINTX","label":"claimableAmount","offset":0,"slot":"214","type":"t_mapping(t_address,t_uint256)"},{"astId":3372,"contract":"contracts/PublicSaleINTX.sol:PublicSaleINTX","label":"claimedAmount","offset":0,"slot":"215","type":"t_mapping(t_address,t_uint256)"}],"types":{"t_address":{"encoding":"inplace","label":"address","numberOfBytes":"20"},"t_array(t_uint256)49_storage":{"base":"t_uint256","encoding":"inplace","label":"uint256[49]","numberOfBytes":"1568"},"t_array(t_uint256)50_storage":{"base":"t_uint256","encoding":"inplace","label":"uint256[50]","numberOfBytes":"1600"},"t_bool":{"encoding":"inplace","label":"bool","numberOfBytes":"1"},"t_contract(IERC20)3309":{"encoding":"inplace","label":"contract IERC20","numberOfBytes":"20"},"t_contract(IStakedINTX)3324":{"encoding":"inplace","label":"contract IStakedINTX","numberOfBytes":"20"},"t_mapping(t_address,t_uint256)":{"encoding":"mapping","key":"t_address","label":"mapping(address => uint256)","numberOfBytes":"32","value":"t_uint256"},"t_uint256":{"encoding":"inplace","label":"uint256","numberOfBytes":"32"},"t_uint8":{"encoding":"inplace","label":"uint8","numberOfBytes":"1"}}}}}}