{"contracts/vestings/MntRewardsClaimXINTX.sol":{"MntRewardsClaimXINTX":{"abi":[{"inputs":[],"stateMutability":"nonpayable","type":"constructor"},{"anonymous":false,"inputs":[{"indexed":true,"internalType":"address","name":"user","type":"address"},{"indexed":false,"internalType":"uint256","name":"amount","type":"uint256"},{"indexed":false,"internalType":"uint256","name":"_tokenId","type":"uint256"}],"name":"Claimed","type":"event"},{"anonymous":false,"inputs":[{"indexed":false,"internalType":"uint8","name":"version","type":"uint8"}],"name":"Initialized","type":"event"},{"anonymous":false,"inputs":[{"indexed":true,"internalType":"address","name":"previousOwner","type":"address"},{"indexed":true,"internalType":"address","name":"newOwner","type":"address"}],"name":"OwnershipTransferStarted","type":"event"},{"anonymous":false,"inputs":[{"indexed":true,"internalType":"address","name":"previousOwner","type":"address"},{"indexed":true,"internalType":"address","name":"newOwner","type":"address"}],"name":"OwnershipTransferred","type":"event"},{"anonymous":false,"inputs":[{"indexed":false,"internalType":"address","name":"operator","type":"address"},{"indexed":false,"internalType":"address[]","name":"users","type":"address[]"},{"indexed":false,"internalType":"uint256[]","name":"amount","type":"uint256[]"},{"indexed":false,"internalType":"uint256","name":"totalAmount","type":"uint256"}],"name":"Seeded","type":"event"},{"inputs":[],"name":"FIRST_CLAIM_TS","outputs":[{"internalType":"uint256","name":"","type":"uint256"}],"stateMutability":"view","type":"function"},{"inputs":[],"name":"acceptOwnership","outputs":[],"stateMutability":"nonpayable","type":"function"},{"inputs":[],"name":"claim","outputs":[],"stateMutability":"nonpayable","type":"function"},{"inputs":[{"internalType":"address","name":"","type":"address"}],"name":"claimableAmount","outputs":[{"internalType":"uint256","name":"","type":"uint256"}],"stateMutability":"view","type":"function"},{"inputs":[{"internalType":"address","name":"_user","type":"address"}],"name":"claimableNow","outputs":[{"internalType":"uint256","name":"amountToReceive","type":"uint256"}],"stateMutability":"view","type":"function"},{"inputs":[{"internalType":"address","name":"","type":"address"}],"name":"claimedAmount","outputs":[{"internalType":"uint256","name":"","type":"uint256"}],"stateMutability":"view","type":"function"},{"inputs":[{"internalType":"address","name":"_intx","type":"address"},{"internalType":"address","name":"_xIntx","type":"address"},{"internalType":"uint256","name":"_firstClaimTs","type":"uint256"}],"name":"initialize","outputs":[],"stateMutability":"nonpayable","type":"function"},{"inputs":[],"name":"intx","outputs":[{"internalType":"contract IERC20","name":"","type":"address"}],"stateMutability":"view","type":"function"},{"inputs":[],"name":"owner","outputs":[{"internalType":"address","name":"","type":"address"}],"stateMutability":"view","type":"function"},{"inputs":[],"name":"pendingOwner","outputs":[{"internalType":"address","name":"","type":"address"}],"stateMutability":"view","type":"function"},{"inputs":[],"name":"renounceOwnership","outputs":[],"stateMutability":"nonpayable","type":"function"},{"inputs":[{"internalType":"address[]","name":"_receivers","type":"address[]"},{"internalType":"uint256[]","name":"_amounts","type":"uint256[]"}],"name":"setAllocations","outputs":[],"stateMutability":"nonpayable","type":"function"},{"inputs":[{"internalType":"address","name":"newOwner","type":"address"}],"name":"transferOwnership","outputs":[],"stateMutability":"nonpayable","type":"function"},{"inputs":[],"name":"xIntx","outputs":[{"internalType":"contract IStakedINTX","name":"","type":"address"}],"stateMutability":"view","type":"function"}],"evm":{"bytecode":{"linkReferences":{},"object":"608060405234801561001057600080fd5b5061001961001e565b6100dd565b600054610100900460ff161561008a5760405162461bcd60e51b815260206004820152602760248201527f496e697469616c697a61626c653a20636f6e747261637420697320696e697469604482015266616c697a696e6760c81b606482015260840160405180910390fd5b60005460ff908116146100db576000805460ff191660ff9081179091556040519081527f7f26b83ff96e1f2b6a682f133852f6798a09c465da95921460cefb38474024989060200160405180910390a15b565b6113e4806100ec6000396000f3fe608060405234801561001057600080fd5b50600436106100ea5760003560e01c8063715018a61161008c5780638da5cb5b116100665780638da5cb5b146101c95780639a78ea4a146101da578063e30c3978146101ed578063f2fde38b146101fe57600080fd5b8063715018a61461019957806379ba5097146101a157806389885049146101a957600080fd5b806327a7af89116100c857806327a7af891461014a578063439e28241461017557806346f7d6c91461017e5780634e71d92d1461019157600080fd5b806304e86903146100ef5780631794bb3c146101225780631ff64acd14610137575b600080fd5b61010f6100fd36600461105c565b60cd6020526000908152604090205481565b6040519081526020015b60405180910390f35b61013561013036600461107e565b610211565b005b610135610145366004611106565b61044d565b60cb5461015d906001600160a01b031681565b6040516001600160a01b039091168152602001610119565b61010f60c95481565b60ca5461015d906001600160a01b031681565b610135610582565b61013561088a565b610135610892565b61010f6101b736600461105c565b60cc6020526000908152604090205481565b6065546001600160a01b031661015d565b61010f6101e836600461105c565b610920565b6097546001600160a01b031661015d565b61013561020c36600461105c565b6109a3565b600054610100900460ff16158080156102315750600054600160ff909116105b8061024b5750303b15801561024b575060005460ff166001145b6102c25760405162461bcd60e51b815260206004820152602e60248201527f496e697469616c697a61626c653a20636f6e747261637420697320616c72656160448201527f647920696e697469616c697a656400000000000000000000000000000000000060648201526084015b60405180910390fd5b600080547fffffffffffffffffffffffffffffffffffffffffffffffffffffffffffffff001660011790558015610303576000805461ff0019166101001790555b61030b610a21565b610313610a94565b6001600160a01b0384166103695760405162461bcd60e51b815260206004820152601460248201527f43616e277420757365203078206164647265737300000000000000000000000060448201526064016102b9565b6001600160a01b0383166103bf5760405162461bcd60e51b815260206004820152601460248201527f43616e277420757365203078206164647265737300000000000000000000000060448201526064016102b9565b60ca80546001600160a01b0380871673ffffffffffffffffffffffffffffffffffffffff199283161790925560cb80549286169290911691909117905560c98290558015610447576000805461ff0019169055604051600181527f7f26b83ff96e1f2b6a682f133852f6798a09c465da95921460cefb38474024989060200160405180910390a15b50505050565b610455610b07565b60008382811461046457600080fd5b60005b818110156105205784848281811061048157610481611172565b9050602002013560cc600089898581811061049e5761049e611172565b90506020020160208101906104b3919061105c565b6001600160a01b03166001600160a01b0316815260200190815260200160002060008282546104e291906111d0565b9091555085905084828181106104fa576104fa611172565b905060200201358361050c91906111d0565b925080610518816111e9565b915050610467565b506105393360ca546001600160a01b0316903085610b61565b7fce2f1e54279c24e5f841f2af4826cb958d82cbec9904631c271ea9f79c04975833878787878760405161057296959493929190611221565b60405180910390a1505050505050565b61058a610be9565b33600090815260cc6020526040812054900361060e5760405162461bcd60e51b815260206004820152602e60248201527f54686973206164647265737320646f65736e2774206861766520616e7920616d60448201527f6f756e7420746f20636c61696d2e00000000000000000000000000000000000060648201526084016102b9565b33600090815260cc602090815260408083205460cd909252909120541061069d5760405162461bcd60e51b815260206004820152602c60248201527f596f75206861766520616c726561647920636c61696d656420616c6c20796f7560448201527f7220616c6c6f636174696f6e000000000000000000000000000000000000000060648201526084016102b9565b60004260c95410156106c65733600090815260cc60205260409020546106c390826111d0565b90505b33600090815260cd60205260408120546106e090836112cf565b9050801561087d5733600090815260cd6020526040812080548392906107079084906111d0565b909155505060ca5460cb546040517f095ea7b30000000000000000000000000000000000000000000000000000000081526001600160a01b0391821660048201526024810184905291169063095ea7b3906044016020604051808303816000875af115801561077a573d6000803e3d6000fd5b505050506040513d601f19601f8201168201806040525081019061079e91906112e2565b5060cb546000906001600160a01b0316632ee40908336040517fffffffff0000000000000000000000000000000000000000000000000000000060e084901b1681526001600160a01b039091166004820152602481018590526044016020604051808303816000875af1158015610819573d6000803e3d6000fd5b505050506040513d601f19601f8201168201806040525081019061083d9190611304565b604080518481526020810183905291925033917f987d620f307ff6b94d58743cb7a7509f24071586a77759b77c2d4e29f75a2f9a910160405180910390a2505b505061088860018055565b565b610888610b07565b60975433906001600160a01b031681146109145760405162461bcd60e51b815260206004820152602960248201527f4f776e61626c6532537465703a2063616c6c6572206973206e6f74207468652060448201527f6e6577206f776e6572000000000000000000000000000000000000000000000060648201526084016102b9565b61091d81610c48565b50565b600080600090504260c9541015610957576001600160a01b038316600090815260cc602052604090205461095490826111d0565b90505b6001600160a01b038316600090815260cd602052604090205481111561099d576001600160a01b038316600090815260cd602052604090205461099a90826112cf565b91505b50919050565b6109ab610b07565b609780546001600160a01b03831673ffffffffffffffffffffffffffffffffffffffff1990911681179091556109e96065546001600160a01b031690565b6001600160a01b03167f38d16b8cac22d99fc7c124b9cd0de2d3fa1faef420bfe791d8c362d765e2270060405160405180910390a350565b600054610100900460ff16610a8c5760405162461bcd60e51b815260206004820152602b60248201527f496e697469616c697a61626c653a20636f6e7472616374206973206e6f74206960448201526a6e697469616c697a696e6760a81b60648201526084016102b9565b610888610c6e565b600054610100900460ff16610aff5760405162461bcd60e51b815260206004820152602b60248201527f496e697469616c697a61626c653a20636f6e7472616374206973206e6f74206960448201526a6e697469616c697a696e6760a81b60648201526084016102b9565b610888610cd9565b6065546001600160a01b031633146108885760405162461bcd60e51b815260206004820181905260248201527f4f776e61626c653a2063616c6c6572206973206e6f7420746865206f776e657260448201526064016102b9565b604080516001600160a01b0385811660248301528416604482015260648082018490528251808303909101815260849091019091526020810180517bffffffffffffffffffffffffffffffffffffffffffffffffffffffff167f23b872dd00000000000000000000000000000000000000000000000000000000179052610447908590610d4d565b600260015403610c3b5760405162461bcd60e51b815260206004820152601f60248201527f5265656e7472616e637947756172643a207265656e7472616e742063616c6c0060448201526064016102b9565b6002600155565b60018055565b6097805473ffffffffffffffffffffffffffffffffffffffff1916905561091d81610e3a565b600054610100900460ff16610c425760405162461bcd60e51b815260206004820152602b60248201527f496e697469616c697a61626c653a20636f6e7472616374206973206e6f74206960448201526a6e697469616c697a696e6760a81b60648201526084016102b9565b600054610100900460ff16610d445760405162461bcd60e51b815260206004820152602b60248201527f496e697469616c697a61626c653a20636f6e7472616374206973206e6f74206960448201526a6e697469616c697a696e6760a81b60648201526084016102b9565b61088833610c48565b6000610da2826040518060400160405280602081526020017f5361666545524332303a206c6f772d6c6576656c2063616c6c206661696c6564815250856001600160a01b0316610e999092919063ffffffff16565b9050805160001480610dc3575080806020019051810190610dc391906112e2565b610e355760405162461bcd60e51b815260206004820152602a60248201527f5361666545524332303a204552433230206f7065726174696f6e20646964206e60448201527f6f7420737563636565640000000000000000000000000000000000000000000060648201526084016102b9565b505050565b606580546001600160a01b0383811673ffffffffffffffffffffffffffffffffffffffff19831681179093556040519116919082907f8be0079c531659141344cd1fd0a4f28419497f9722a3daafe3b4186f6b6457e090600090a35050565b6060610ea88484600085610eb0565b949350505050565b606082471015610f285760405162461bcd60e51b815260206004820152602660248201527f416464726573733a20696e73756666696369656e742062616c616e636520666f60448201527f722063616c6c000000000000000000000000000000000000000000000000000060648201526084016102b9565b600080866001600160a01b03168587604051610f449190611341565b60006040518083038185875af1925050503d8060008114610f81576040519150601f19603f3d011682016040523d82523d6000602084013e610f86565b606091505b5091509150610f9787838387610fa2565b979650505050505050565b6060831561101157825160000361100a576001600160a01b0385163b61100a5760405162461bcd60e51b815260206004820152601d60248201527f416464726573733a2063616c6c20746f206e6f6e2d636f6e747261637400000060448201526064016102b9565b5081610ea8565b610ea883838151156110265781518083602001fd5b8060405162461bcd60e51b81526004016102b9919061135d565b80356001600160a01b038116811461105757600080fd5b919050565b60006020828403121561106e57600080fd5b61107782611040565b9392505050565b60008060006060848603121561109357600080fd5b61109c84611040565b92506110aa60208501611040565b9150604084013590509250925092565b60008083601f8401126110cc57600080fd5b50813567ffffffffffffffff8111156110e457600080fd5b6020830191508360208260051b85010111156110ff57600080fd5b9250929050565b6000806000806040858703121561111c57600080fd5b843567ffffffffffffffff8082111561113457600080fd5b611140888389016110ba565b9096509450602087013591508082111561115957600080fd5b50611166878288016110ba565b95989497509550505050565b7f4e487b7100000000000000000000000000000000000000000000000000000000600052603260045260246000fd5b7f4e487b7100000000000000000000000000000000000000000000000000000000600052601160045260246000fd5b808201808211156111e3576111e36111a1565b92915050565b60007fffffffffffffffffffffffffffffffffffffffffffffffffffffffffffffffff820361121a5761121a6111a1565b5060010190565b6001600160a01b03878116825260806020808401829052908301879052600091889160a08501845b8a81101561126e578361125b86611040565b1682529382019390820190600101611249565b5085810360408701528781527f07ffffffffffffffffffffffffffffffffffffffffffffffffffffffffffffff8811156112a757600080fd5b8760051b93508389838301378184820101945050505050826060830152979650505050505050565b818103818111156111e3576111e36111a1565b6000602082840312156112f457600080fd5b8151801515811461107757600080fd5b60006020828403121561131657600080fd5b5051919050565b60005b83811015611338578181015183820152602001611320565b50506000910152565b6000825161135381846020870161131d565b9190910192915050565b602081526000825180602084015261137c81604085016020870161131d565b601f017fffffffffffffffffffffffffffffffffffffffffffffffffffffffffffffffe016919091016040019291505056fea26469706673582212207f88e3ed7eb07874d18a11fafd63329815b1488c96ffa7dab7d366d262c2f03364736f6c63430008120033","opcodes":"PUSH1 0x80 PUSH1 0x40 MSTORE CALLVALUE DUP1 ISZERO PUSH2 0x10 JUMPI PUSH1 0x0 DUP1 REVERT JUMPDEST POP PUSH2 0x19 PUSH2 0x1E JUMP JUMPDEST PUSH2 0xDD JUMP JUMPDEST PUSH1 0x0 SLOAD PUSH2 0x100 SWAP1 DIV PUSH1 0xFF AND ISZERO PUSH2 0x8A JUMPI PUSH1 0x40 MLOAD PUSH3 0x461BCD PUSH1 0xE5 SHL DUP2 MSTORE PUSH1 0x20 PUSH1 0x4 DUP3 ADD MSTORE PUSH1 0x27 PUSH1 0x24 DUP3 ADD MSTORE PUSH32 0x496E697469616C697A61626C653A20636F6E747261637420697320696E697469 PUSH1 0x44 DUP3 ADD MSTORE PUSH7 0x616C697A696E67 PUSH1 0xC8 SHL PUSH1 0x64 DUP3 ADD MSTORE PUSH1 0x84 ADD PUSH1 0x40 MLOAD DUP1 SWAP2 SUB SWAP1 REVERT JUMPDEST PUSH1 0x0 SLOAD PUSH1 0xFF SWAP1 DUP2 AND EQ PUSH2 0xDB JUMPI PUSH1 0x0 DUP1 SLOAD PUSH1 0xFF NOT AND PUSH1 0xFF SWAP1 DUP2 OR SWAP1 SWAP2 SSTORE PUSH1 0x40 MLOAD SWAP1 DUP2 MSTORE PUSH32 0x7F26B83FF96E1F2B6A682F133852F6798A09C465DA95921460CEFB3847402498 SWAP1 PUSH1 0x20 ADD PUSH1 0x40 MLOAD DUP1 SWAP2 SUB SWAP1 LOG1 JUMPDEST JUMP JUMPDEST PUSH2 0x13E4 DUP1 PUSH2 0xEC PUSH1 0x0 CODECOPY PUSH1 0x0 RETURN INVALID PUSH1 0x80 PUSH1 0x40 MSTORE CALLVALUE DUP1 ISZERO PUSH2 0x10 JUMPI PUSH1 0x0 DUP1 REVERT JUMPDEST POP PUSH1 0x4 CALLDATASIZE LT PUSH2 0xEA JUMPI PUSH1 0x0 CALLDATALOAD PUSH1 0xE0 SHR DUP1 PUSH4 0x715018A6 GT PUSH2 0x8C JUMPI DUP1 PUSH4 0x8DA5CB5B GT PUSH2 0x66 JUMPI DUP1 PUSH4 0x8DA5CB5B EQ PUSH2 0x1C9 JUMPI DUP1 PUSH4 0x9A78EA4A EQ PUSH2 0x1DA JUMPI DUP1 PUSH4 0xE30C3978 EQ PUSH2 0x1ED JUMPI DUP1 PUSH4 0xF2FDE38B EQ PUSH2 0x1FE JUMPI PUSH1 0x0 DUP1 REVERT JUMPDEST DUP1 PUSH4 0x715018A6 EQ PUSH2 0x199 JUMPI DUP1 PUSH4 0x79BA5097 EQ PUSH2 0x1A1 JUMPI DUP1 PUSH4 0x89885049 EQ PUSH2 0x1A9 JUMPI PUSH1 0x0 DUP1 REVERT JUMPDEST DUP1 PUSH4 0x27A7AF89 GT PUSH2 0xC8 JUMPI DUP1 PUSH4 0x27A7AF89 EQ PUSH2 0x14A JUMPI DUP1 PUSH4 0x439E2824 EQ PUSH2 0x175 JUMPI DUP1 PUSH4 0x46F7D6C9 EQ PUSH2 0x17E JUMPI DUP1 PUSH4 0x4E71D92D EQ PUSH2 0x191 JUMPI PUSH1 0x0 DUP1 REVERT JUMPDEST DUP1 PUSH4 0x4E86903 EQ PUSH2 0xEF JUMPI DUP1 PUSH4 0x1794BB3C EQ PUSH2 0x122 JUMPI DUP1 PUSH4 0x1FF64ACD EQ PUSH2 0x137 JUMPI JUMPDEST PUSH1 0x0 DUP1 REVERT JUMPDEST PUSH2 0x10F PUSH2 0xFD CALLDATASIZE PUSH1 0x4 PUSH2 0x105C JUMP JUMPDEST PUSH1 0xCD PUSH1 0x20 MSTORE PUSH1 0x0 SWAP1 DUP2 MSTORE PUSH1 0x40 SWAP1 KECCAK256 SLOAD DUP2 JUMP JUMPDEST PUSH1 0x40 MLOAD SWAP1 DUP2 MSTORE PUSH1 0x20 ADD JUMPDEST PUSH1 0x40 MLOAD DUP1 SWAP2 SUB SWAP1 RETURN JUMPDEST PUSH2 0x135 PUSH2 0x130 CALLDATASIZE PUSH1 0x4 PUSH2 0x107E JUMP JUMPDEST PUSH2 0x211 JUMP JUMPDEST STOP JUMPDEST PUSH2 0x135 PUSH2 0x145 CALLDATASIZE PUSH1 0x4 PUSH2 0x1106 JUMP JUMPDEST PUSH2 0x44D JUMP JUMPDEST PUSH1 0xCB SLOAD PUSH2 0x15D SWAP1 PUSH1 0x1 PUSH1 0x1 PUSH1 0xA0 SHL SUB AND DUP2 JUMP JUMPDEST PUSH1 0x40 MLOAD PUSH1 0x1 PUSH1 0x1 PUSH1 0xA0 SHL SUB SWAP1 SWAP2 AND DUP2 MSTORE PUSH1 0x20 ADD PUSH2 0x119 JUMP JUMPDEST PUSH2 0x10F PUSH1 0xC9 SLOAD DUP2 JUMP JUMPDEST PUSH1 0xCA SLOAD PUSH2 0x15D SWAP1 PUSH1 0x1 PUSH1 0x1 PUSH1 0xA0 SHL SUB AND DUP2 JUMP JUMPDEST PUSH2 0x135 PUSH2 0x582 JUMP JUMPDEST PUSH2 0x135 PUSH2 0x88A JUMP JUMPDEST PUSH2 0x135 PUSH2 0x892 JUMP JUMPDEST PUSH2 0x10F PUSH2 0x1B7 CALLDATASIZE PUSH1 0x4 PUSH2 0x105C JUMP JUMPDEST PUSH1 0xCC PUSH1 0x20 MSTORE PUSH1 0x0 SWAP1 DUP2 MSTORE PUSH1 0x40 SWAP1 KECCAK256 SLOAD DUP2 JUMP JUMPDEST PUSH1 0x65 SLOAD PUSH1 0x1 PUSH1 0x1 PUSH1 0xA0 SHL SUB AND PUSH2 0x15D JUMP JUMPDEST PUSH2 0x10F PUSH2 0x1E8 CALLDATASIZE PUSH1 0x4 PUSH2 0x105C JUMP JUMPDEST PUSH2 0x920 JUMP JUMPDEST PUSH1 0x97 SLOAD PUSH1 0x1 PUSH1 0x1 PUSH1 0xA0 SHL SUB AND PUSH2 0x15D JUMP JUMPDEST PUSH2 0x135 PUSH2 0x20C CALLDATASIZE PUSH1 0x4 PUSH2 0x105C JUMP JUMPDEST PUSH2 0x9A3 JUMP JUMPDEST PUSH1 0x0 SLOAD PUSH2 0x100 SWAP1 DIV PUSH1 0xFF AND ISZERO DUP1 DUP1 ISZERO PUSH2 0x231 JUMPI POP PUSH1 0x0 SLOAD PUSH1 0x1 PUSH1 0xFF SWAP1 SWAP2 AND LT JUMPDEST DUP1 PUSH2 0x24B JUMPI POP ADDRESS EXTCODESIZE ISZERO DUP1 ISZERO PUSH2 0x24B JUMPI POP PUSH1 0x0 SLOAD PUSH1 0xFF AND PUSH1 0x1 EQ JUMPDEST PUSH2 0x2C2 JUMPI PUSH1 0x40 MLOAD PUSH3 0x461BCD PUSH1 0xE5 SHL DUP2 MSTORE PUSH1 0x20 PUSH1 0x4 DUP3 ADD MSTORE PUSH1 0x2E PUSH1 0x24 DUP3 ADD MSTORE PUSH32 0x496E697469616C697A61626C653A20636F6E747261637420697320616C726561 PUSH1 0x44 DUP3 ADD MSTORE PUSH32 0x647920696E697469616C697A6564000000000000000000000000000000000000 PUSH1 0x64 DUP3 ADD MSTORE PUSH1 0x84 ADD JUMPDEST PUSH1 0x40 MLOAD DUP1 SWAP2 SUB SWAP1 REVERT JUMPDEST PUSH1 0x0 DUP1 SLOAD PUSH32 0xFFFFFFFFFFFFFFFFFFFFFFFFFFFFFFFFFFFFFFFFFFFFFFFFFFFFFFFFFFFFFF00 AND PUSH1 0x1 OR SWAP1 SSTORE DUP1 ISZERO PUSH2 0x303 JUMPI PUSH1 0x0 DUP1 SLOAD PUSH2 0xFF00 NOT AND PUSH2 0x100 OR SWAP1 SSTORE JUMPDEST PUSH2 0x30B PUSH2 0xA21 JUMP JUMPDEST PUSH2 0x313 PUSH2 0xA94 JUMP JUMPDEST PUSH1 0x1 PUSH1 0x1 PUSH1 0xA0 SHL SUB DUP5 AND PUSH2 0x369 JUMPI PUSH1 0x40 MLOAD PUSH3 0x461BCD PUSH1 0xE5 SHL DUP2 MSTORE PUSH1 0x20 PUSH1 0x4 DUP3 ADD MSTORE PUSH1 0x14 PUSH1 0x24 DUP3 ADD MSTORE PUSH32 0x43616E2774207573652030782061646472657373000000000000000000000000 PUSH1 0x44 DUP3 ADD MSTORE PUSH1 0x64 ADD PUSH2 0x2B9 JUMP JUMPDEST PUSH1 0x1 PUSH1 0x1 PUSH1 0xA0 SHL SUB DUP4 AND PUSH2 0x3BF JUMPI PUSH1 0x40 MLOAD PUSH3 0x461BCD PUSH1 0xE5 SHL DUP2 MSTORE PUSH1 0x20 PUSH1 0x4 DUP3 ADD MSTORE PUSH1 0x14 PUSH1 0x24 DUP3 ADD MSTORE PUSH32 0x43616E2774207573652030782061646472657373000000000000000000000000 PUSH1 0x44 DUP3 ADD MSTORE PUSH1 0x64 ADD PUSH2 0x2B9 JUMP JUMPDEST PUSH1 0xCA DUP1 SLOAD PUSH1 0x1 PUSH1 0x1 PUSH1 0xA0 SHL SUB DUP1 DUP8 AND PUSH20 0xFFFFFFFFFFFFFFFFFFFFFFFFFFFFFFFFFFFFFFFF NOT SWAP3 DUP4 AND OR SWAP1 SWAP3 SSTORE PUSH1 0xCB DUP1 SLOAD SWAP3 DUP7 AND SWAP3 SWAP1 SWAP2 AND SWAP2 SWAP1 SWAP2 OR SWAP1 SSTORE PUSH1 0xC9 DUP3 SWAP1 SSTORE DUP1 ISZERO PUSH2 0x447 JUMPI PUSH1 0x0 DUP1 SLOAD PUSH2 0xFF00 NOT AND SWAP1 SSTORE PUSH1 0x40 MLOAD PUSH1 0x1 DUP2 MSTORE PUSH32 0x7F26B83FF96E1F2B6A682F133852F6798A09C465DA95921460CEFB3847402498 SWAP1 PUSH1 0x20 ADD PUSH1 0x40 MLOAD DUP1 SWAP2 SUB SWAP1 LOG1 JUMPDEST POP POP POP POP JUMP JUMPDEST PUSH2 0x455 PUSH2 0xB07 JUMP JUMPDEST PUSH1 0x0 DUP4 DUP3 DUP2 EQ PUSH2 0x464 JUMPI PUSH1 0x0 DUP1 REVERT JUMPDEST PUSH1 0x0 JUMPDEST DUP2 DUP2 LT ISZERO PUSH2 0x520 JUMPI DUP5 DUP5 DUP3 DUP2 DUP2 LT PUSH2 0x481 JUMPI PUSH2 0x481 PUSH2 0x1172 JUMP JUMPDEST SWAP1 POP PUSH1 0x20 MUL ADD CALLDATALOAD PUSH1 0xCC PUSH1 0x0 DUP10 DUP10 DUP6 DUP2 DUP2 LT PUSH2 0x49E JUMPI PUSH2 0x49E PUSH2 0x1172 JUMP JUMPDEST SWAP1 POP PUSH1 0x20 MUL ADD PUSH1 0x20 DUP2 ADD SWAP1 PUSH2 0x4B3 SWAP2 SWAP1 PUSH2 0x105C JUMP JUMPDEST PUSH1 0x1 PUSH1 0x1 PUSH1 0xA0 SHL SUB AND PUSH1 0x1 PUSH1 0x1 PUSH1 0xA0 SHL SUB AND DUP2 MSTORE PUSH1 0x20 ADD SWAP1 DUP2 MSTORE PUSH1 0x20 ADD PUSH1 0x0 KECCAK256 PUSH1 0x0 DUP3 DUP3 SLOAD PUSH2 0x4E2 SWAP2 SWAP1 PUSH2 0x11D0 JUMP JUMPDEST SWAP1 SWAP2 SSTORE POP DUP6 SWAP1 POP DUP5 DUP3 DUP2 DUP2 LT PUSH2 0x4FA JUMPI PUSH2 0x4FA PUSH2 0x1172 JUMP JUMPDEST SWAP1 POP PUSH1 0x20 MUL ADD CALLDATALOAD DUP4 PUSH2 0x50C SWAP2 SWAP1 PUSH2 0x11D0 JUMP JUMPDEST SWAP3 POP DUP1 PUSH2 0x518 DUP2 PUSH2 0x11E9 JUMP JUMPDEST SWAP2 POP POP PUSH2 0x467 JUMP JUMPDEST POP PUSH2 0x539 CALLER PUSH1 0xCA SLOAD PUSH1 0x1 PUSH1 0x1 PUSH1 0xA0 SHL SUB AND SWAP1 ADDRESS DUP6 PUSH2 0xB61 JUMP JUMPDEST PUSH32 0xCE2F1E54279C24E5F841F2AF4826CB958D82CBEC9904631C271EA9F79C049758 CALLER DUP8 DUP8 DUP8 DUP8 DUP8 PUSH1 0x40 MLOAD PUSH2 0x572 SWAP7 SWAP6 SWAP5 SWAP4 SWAP3 SWAP2 SWAP1 PUSH2 0x1221 JUMP JUMPDEST PUSH1 0x40 MLOAD DUP1 SWAP2 SUB SWAP1 LOG1 POP POP POP POP POP POP JUMP JUMPDEST PUSH2 0x58A PUSH2 0xBE9 JUMP JUMPDEST CALLER PUSH1 0x0 SWAP1 DUP2 MSTORE PUSH1 0xCC PUSH1 0x20 MSTORE PUSH1 0x40 DUP2 KECCAK256 SLOAD SWAP1 SUB PUSH2 0x60E JUMPI PUSH1 0x40 MLOAD PUSH3 0x461BCD PUSH1 0xE5 SHL DUP2 MSTORE PUSH1 0x20 PUSH1 0x4 DUP3 ADD MSTORE PUSH1 0x2E PUSH1 0x24 DUP3 ADD MSTORE PUSH32 0x54686973206164647265737320646F65736E2774206861766520616E7920616D PUSH1 0x44 DUP3 ADD MSTORE PUSH32 0x6F756E7420746F20636C61696D2E000000000000000000000000000000000000 PUSH1 0x64 DUP3 ADD MSTORE PUSH1 0x84 ADD PUSH2 0x2B9 JUMP JUMPDEST CALLER PUSH1 0x0 SWAP1 DUP2 MSTORE PUSH1 0xCC PUSH1 0x20 SWAP1 DUP2 MSTORE PUSH1 0x40 DUP1 DUP4 KECCAK256 SLOAD PUSH1 0xCD SWAP1 SWAP3 MSTORE SWAP1 SWAP2 KECCAK256 SLOAD LT PUSH2 0x69D JUMPI PUSH1 0x40 MLOAD PUSH3 0x461BCD PUSH1 0xE5 SHL DUP2 MSTORE PUSH1 0x20 PUSH1 0x4 DUP3 ADD MSTORE PUSH1 0x2C PUSH1 0x24 DUP3 ADD MSTORE PUSH32 0x596F75206861766520616C726561647920636C61696D656420616C6C20796F75 PUSH1 0x44 DUP3 ADD MSTORE PUSH32 0x7220616C6C6F636174696F6E0000000000000000000000000000000000000000 PUSH1 0x64 DUP3 ADD MSTORE PUSH1 0x84 ADD PUSH2 0x2B9 JUMP JUMPDEST PUSH1 0x0 TIMESTAMP PUSH1 0xC9 SLOAD LT ISZERO PUSH2 0x6C6 JUMPI CALLER PUSH1 0x0 SWAP1 DUP2 MSTORE PUSH1 0xCC PUSH1 0x20 MSTORE PUSH1 0x40 SWAP1 KECCAK256 SLOAD PUSH2 0x6C3 SWAP1 DUP3 PUSH2 0x11D0 JUMP JUMPDEST SWAP1 POP JUMPDEST CALLER PUSH1 0x0 SWAP1 DUP2 MSTORE PUSH1 0xCD PUSH1 0x20 MSTORE PUSH1 0x40 DUP2 KECCAK256 SLOAD PUSH2 0x6E0 SWAP1 DUP4 PUSH2 0x12CF JUMP JUMPDEST SWAP1 POP DUP1 ISZERO PUSH2 0x87D JUMPI CALLER PUSH1 0x0 SWAP1 DUP2 MSTORE PUSH1 0xCD PUSH1 0x20 MSTORE PUSH1 0x40 DUP2 KECCAK256 DUP1 SLOAD DUP4 SWAP3 SWAP1 PUSH2 0x707 SWAP1 DUP5 SWAP1 PUSH2 0x11D0 JUMP JUMPDEST SWAP1 SWAP2 SSTORE POP POP PUSH1 0xCA SLOAD PUSH1 0xCB SLOAD PUSH1 0x40 MLOAD PUSH32 0x95EA7B300000000000000000000000000000000000000000000000000000000 DUP2 MSTORE PUSH1 0x1 PUSH1 0x1 PUSH1 0xA0 SHL SUB SWAP2 DUP3 AND PUSH1 0x4 DUP3 ADD MSTORE PUSH1 0x24 DUP2 ADD DUP5 SWAP1 MSTORE SWAP2 AND SWAP1 PUSH4 0x95EA7B3 SWAP1 PUSH1 0x44 ADD PUSH1 0x20 PUSH1 0x40 MLOAD DUP1 DUP4 SUB DUP2 PUSH1 0x0 DUP8 GAS CALL ISZERO DUP1 ISZERO PUSH2 0x77A JUMPI RETURNDATASIZE PUSH1 0x0 DUP1 RETURNDATACOPY RETURNDATASIZE PUSH1 0x0 REVERT JUMPDEST POP POP POP POP PUSH1 0x40 MLOAD RETURNDATASIZE PUSH1 0x1F NOT PUSH1 0x1F DUP3 ADD AND DUP3 ADD DUP1 PUSH1 0x40 MSTORE POP DUP2 ADD SWAP1 PUSH2 0x79E SWAP2 SWAP1 PUSH2 0x12E2 JUMP JUMPDEST POP PUSH1 0xCB SLOAD PUSH1 0x0 SWAP1 PUSH1 0x1 PUSH1 0x1 PUSH1 0xA0 SHL SUB AND PUSH4 0x2EE40908 CALLER PUSH1 0x40 MLOAD PUSH32 0xFFFFFFFF00000000000000000000000000000000000000000000000000000000 PUSH1 0xE0 DUP5 SWAP1 SHL AND DUP2 MSTORE PUSH1 0x1 PUSH1 0x1 PUSH1 0xA0 SHL SUB SWAP1 SWAP2 AND PUSH1 0x4 DUP3 ADD MSTORE PUSH1 0x24 DUP2 ADD DUP6 SWAP1 MSTORE PUSH1 0x44 ADD PUSH1 0x20 PUSH1 0x40 MLOAD DUP1 DUP4 SUB DUP2 PUSH1 0x0 DUP8 GAS CALL ISZERO DUP1 ISZERO PUSH2 0x819 JUMPI RETURNDATASIZE PUSH1 0x0 DUP1 RETURNDATACOPY RETURNDATASIZE PUSH1 0x0 REVERT JUMPDEST POP POP POP POP PUSH1 0x40 MLOAD RETURNDATASIZE PUSH1 0x1F NOT PUSH1 0x1F DUP3 ADD AND DUP3 ADD DUP1 PUSH1 0x40 MSTORE POP DUP2 ADD SWAP1 PUSH2 0x83D SWAP2 SWAP1 PUSH2 0x1304 JUMP JUMPDEST PUSH1 0x40 DUP1 MLOAD DUP5 DUP2 MSTORE PUSH1 0x20 DUP2 ADD DUP4 SWAP1 MSTORE SWAP2 SWAP3 POP CALLER SWAP2 PUSH32 0x987D620F307FF6B94D58743CB7A7509F24071586A77759B77C2D4E29F75A2F9A SWAP2 ADD PUSH1 0x40 MLOAD DUP1 SWAP2 SUB SWAP1 LOG2 POP JUMPDEST POP POP PUSH2 0x888 PUSH1 0x1 DUP1 SSTORE JUMP JUMPDEST JUMP JUMPDEST PUSH2 0x888 PUSH2 0xB07 JUMP JUMPDEST PUSH1 0x97 SLOAD CALLER SWAP1 PUSH1 0x1 PUSH1 0x1 PUSH1 0xA0 SHL SUB AND DUP2 EQ PUSH2 0x914 JUMPI PUSH1 0x40 MLOAD PUSH3 0x461BCD PUSH1 0xE5 SHL DUP2 MSTORE PUSH1 0x20 PUSH1 0x4 DUP3 ADD MSTORE PUSH1 0x29 PUSH1 0x24 DUP3 ADD MSTORE PUSH32 0x4F776E61626C6532537465703A2063616C6C6572206973206E6F742074686520 PUSH1 0x44 DUP3 ADD MSTORE PUSH32 0x6E6577206F776E65720000000000000000000000000000000000000000000000 PUSH1 0x64 DUP3 ADD MSTORE PUSH1 0x84 ADD PUSH2 0x2B9 JUMP JUMPDEST PUSH2 0x91D DUP2 PUSH2 0xC48 JUMP JUMPDEST POP JUMP JUMPDEST PUSH1 0x0 DUP1 PUSH1 0x0 SWAP1 POP TIMESTAMP PUSH1 0xC9 SLOAD LT ISZERO PUSH2 0x957 JUMPI PUSH1 0x1 PUSH1 0x1 PUSH1 0xA0 SHL SUB DUP4 AND PUSH1 0x0 SWAP1 DUP2 MSTORE PUSH1 0xCC PUSH1 0x20 MSTORE PUSH1 0x40 SWAP1 KECCAK256 SLOAD PUSH2 0x954 SWAP1 DUP3 PUSH2 0x11D0 JUMP JUMPDEST SWAP1 POP JUMPDEST PUSH1 0x1 PUSH1 0x1 PUSH1 0xA0 SHL SUB DUP4 AND PUSH1 0x0 SWAP1 DUP2 MSTORE PUSH1 0xCD PUSH1 0x20 MSTORE PUSH1 0x40 SWAP1 KECCAK256 SLOAD DUP2 GT ISZERO PUSH2 0x99D JUMPI PUSH1 0x1 PUSH1 0x1 PUSH1 0xA0 SHL SUB DUP4 AND PUSH1 0x0 SWAP1 DUP2 MSTORE PUSH1 0xCD PUSH1 0x20 MSTORE PUSH1 0x40 SWAP1 KECCAK256 SLOAD PUSH2 0x99A SWAP1 DUP3 PUSH2 0x12CF JUMP JUMPDEST SWAP2 POP JUMPDEST POP SWAP2 SWAP1 POP JUMP JUMPDEST PUSH2 0x9AB PUSH2 0xB07 JUMP JUMPDEST PUSH1 0x97 DUP1 SLOAD PUSH1 0x1 PUSH1 0x1 PUSH1 0xA0 SHL SUB DUP4 AND PUSH20 0xFFFFFFFFFFFFFFFFFFFFFFFFFFFFFFFFFFFFFFFF NOT SWAP1 SWAP2 AND DUP2 OR SWAP1 SWAP2 SSTORE PUSH2 0x9E9 PUSH1 0x65 SLOAD PUSH1 0x1 PUSH1 0x1 PUSH1 0xA0 SHL SUB AND SWAP1 JUMP JUMPDEST PUSH1 0x1 PUSH1 0x1 PUSH1 0xA0 SHL SUB AND PUSH32 0x38D16B8CAC22D99FC7C124B9CD0DE2D3FA1FAEF420BFE791D8C362D765E22700 PUSH1 0x40 MLOAD PUSH1 0x40 MLOAD DUP1 SWAP2 SUB SWAP1 LOG3 POP JUMP JUMPDEST PUSH1 0x0 SLOAD PUSH2 0x100 SWAP1 DIV PUSH1 0xFF AND PUSH2 0xA8C JUMPI PUSH1 0x40 MLOAD PUSH3 0x461BCD PUSH1 0xE5 SHL DUP2 MSTORE PUSH1 0x20 PUSH1 0x4 DUP3 ADD MSTORE PUSH1 0x2B PUSH1 0x24 DUP3 ADD MSTORE PUSH32 0x496E697469616C697A61626C653A20636F6E7472616374206973206E6F742069 PUSH1 0x44 DUP3 ADD MSTORE PUSH11 0x6E697469616C697A696E67 PUSH1 0xA8 SHL PUSH1 0x64 DUP3 ADD MSTORE PUSH1 0x84 ADD PUSH2 0x2B9 JUMP JUMPDEST PUSH2 0x888 PUSH2 0xC6E JUMP JUMPDEST PUSH1 0x0 SLOAD PUSH2 0x100 SWAP1 DIV PUSH1 0xFF AND PUSH2 0xAFF JUMPI PUSH1 0x40 MLOAD PUSH3 0x461BCD PUSH1 0xE5 SHL DUP2 MSTORE PUSH1 0x20 PUSH1 0x4 DUP3 ADD MSTORE PUSH1 0x2B PUSH1 0x24 DUP3 ADD MSTORE PUSH32 0x496E697469616C697A61626C653A20636F6E7472616374206973206E6F742069 PUSH1 0x44 DUP3 ADD MSTORE PUSH11 0x6E697469616C697A696E67 PUSH1 0xA8 SHL PUSH1 0x64 DUP3 ADD MSTORE PUSH1 0x84 ADD PUSH2 0x2B9 JUMP JUMPDEST PUSH2 0x888 PUSH2 0xCD9 JUMP JUMPDEST PUSH1 0x65 SLOAD PUSH1 0x1 PUSH1 0x1 PUSH1 0xA0 SHL SUB AND CALLER EQ PUSH2 0x888 JUMPI PUSH1 0x40 MLOAD PUSH3 0x461BCD PUSH1 0xE5 SHL DUP2 MSTORE PUSH1 0x20 PUSH1 0x4 DUP3 ADD DUP2 SWAP1 MSTORE PUSH1 0x24 DUP3 ADD MSTORE PUSH32 0x4F776E61626C653A2063616C6C6572206973206E6F7420746865206F776E6572 PUSH1 0x44 DUP3 ADD MSTORE PUSH1 0x64 ADD PUSH2 0x2B9 JUMP JUMPDEST PUSH1 0x40 DUP1 MLOAD PUSH1 0x1 PUSH1 0x1 PUSH1 0xA0 SHL SUB DUP6 DUP2 AND PUSH1 0x24 DUP4 ADD MSTORE DUP5 AND PUSH1 0x44 DUP3 ADD MSTORE PUSH1 0x64 DUP1 DUP3 ADD DUP5 SWAP1 MSTORE DUP3 MLOAD DUP1 DUP4 SUB SWAP1 SWAP2 ADD DUP2 MSTORE PUSH1 0x84 SWAP1 SWAP2 ADD SWAP1 SWAP2 MSTORE PUSH1 0x20 DUP2 ADD DUP1 MLOAD PUSH28 0xFFFFFFFFFFFFFFFFFFFFFFFFFFFFFFFFFFFFFFFFFFFFFFFFFFFFFFFF AND PUSH32 0x23B872DD00000000000000000000000000000000000000000000000000000000 OR SWAP1 MSTORE PUSH2 0x447 SWAP1 DUP6 SWAP1 PUSH2 0xD4D JUMP JUMPDEST PUSH1 0x2 PUSH1 0x1 SLOAD SUB PUSH2 0xC3B JUMPI PUSH1 0x40 MLOAD PUSH3 0x461BCD PUSH1 0xE5 SHL DUP2 MSTORE PUSH1 0x20 PUSH1 0x4 DUP3 ADD MSTORE PUSH1 0x1F PUSH1 0x24 DUP3 ADD MSTORE PUSH32 0x5265656E7472616E637947756172643A207265656E7472616E742063616C6C00 PUSH1 0x44 DUP3 ADD MSTORE PUSH1 0x64 ADD PUSH2 0x2B9 JUMP JUMPDEST PUSH1 0x2 PUSH1 0x1 SSTORE JUMP JUMPDEST PUSH1 0x1 DUP1 SSTORE JUMP JUMPDEST PUSH1 0x97 DUP1 SLOAD PUSH20 0xFFFFFFFFFFFFFFFFFFFFFFFFFFFFFFFFFFFFFFFF NOT AND SWAP1 SSTORE PUSH2 0x91D DUP2 PUSH2 0xE3A JUMP JUMPDEST PUSH1 0x0 SLOAD PUSH2 0x100 SWAP1 DIV PUSH1 0xFF AND PUSH2 0xC42 JUMPI PUSH1 0x40 MLOAD PUSH3 0x461BCD PUSH1 0xE5 SHL DUP2 MSTORE PUSH1 0x20 PUSH1 0x4 DUP3 ADD MSTORE PUSH1 0x2B PUSH1 0x24 DUP3 ADD MSTORE PUSH32 0x496E697469616C697A61626C653A20636F6E7472616374206973206E6F742069 PUSH1 0x44 DUP3 ADD MSTORE PUSH11 0x6E697469616C697A696E67 PUSH1 0xA8 SHL PUSH1 0x64 DUP3 ADD MSTORE PUSH1 0x84 ADD PUSH2 0x2B9 JUMP JUMPDEST PUSH1 0x0 SLOAD PUSH2 0x100 SWAP1 DIV PUSH1 0xFF AND PUSH2 0xD44 JUMPI PUSH1 0x40 MLOAD PUSH3 0x461BCD PUSH1 0xE5 SHL DUP2 MSTORE PUSH1 0x20 PUSH1 0x4 DUP3 ADD MSTORE PUSH1 0x2B PUSH1 0x24 DUP3 ADD MSTORE PUSH32 0x496E697469616C697A61626C653A20636F6E7472616374206973206E6F742069 PUSH1 0x44 DUP3 ADD MSTORE PUSH11 0x6E697469616C697A696E67 PUSH1 0xA8 SHL PUSH1 0x64 DUP3 ADD MSTORE PUSH1 0x84 ADD PUSH2 0x2B9 JUMP JUMPDEST PUSH2 0x888 CALLER PUSH2 0xC48 JUMP JUMPDEST PUSH1 0x0 PUSH2 0xDA2 DUP3 PUSH1 0x40 MLOAD DUP1 PUSH1 0x40 ADD PUSH1 0x40 MSTORE DUP1 PUSH1 0x20 DUP2 MSTORE PUSH1 0x20 ADD PUSH32 0x5361666545524332303A206C6F772D6C6576656C2063616C6C206661696C6564 DUP2 MSTORE POP DUP6 PUSH1 0x1 PUSH1 0x1 PUSH1 0xA0 SHL SUB AND PUSH2 0xE99 SWAP1 SWAP3 SWAP2 SWAP1 PUSH4 0xFFFFFFFF AND JUMP JUMPDEST SWAP1 POP DUP1 MLOAD PUSH1 0x0 EQ DUP1 PUSH2 0xDC3 JUMPI POP DUP1 DUP1 PUSH1 0x20 ADD SWAP1 MLOAD DUP2 ADD SWAP1 PUSH2 0xDC3 SWAP2 SWAP1 PUSH2 0x12E2 JUMP JUMPDEST PUSH2 0xE35 JUMPI PUSH1 0x40 MLOAD PUSH3 0x461BCD PUSH1 0xE5 SHL DUP2 MSTORE PUSH1 0x20 PUSH1 0x4 DUP3 ADD MSTORE PUSH1 0x2A PUSH1 0x24 DUP3 ADD MSTORE PUSH32 0x5361666545524332303A204552433230206F7065726174696F6E20646964206E PUSH1 0x44 DUP3 ADD MSTORE PUSH32 0x6F74207375636365656400000000000000000000000000000000000000000000 PUSH1 0x64 DUP3 ADD MSTORE PUSH1 0x84 ADD PUSH2 0x2B9 JUMP JUMPDEST POP POP POP JUMP JUMPDEST PUSH1 0x65 DUP1 SLOAD PUSH1 0x1 PUSH1 0x1 PUSH1 0xA0 SHL SUB DUP4 DUP2 AND PUSH20 0xFFFFFFFFFFFFFFFFFFFFFFFFFFFFFFFFFFFFFFFF NOT DUP4 AND DUP2 OR SWAP1 SWAP4 SSTORE PUSH1 0x40 MLOAD SWAP2 AND SWAP2 SWAP1 DUP3 SWAP1 PUSH32 0x8BE0079C531659141344CD1FD0A4F28419497F9722A3DAAFE3B4186F6B6457E0 SWAP1 PUSH1 0x0 SWAP1 LOG3 POP POP JUMP JUMPDEST PUSH1 0x60 PUSH2 0xEA8 DUP5 DUP5 PUSH1 0x0 DUP6 PUSH2 0xEB0 JUMP JUMPDEST SWAP5 SWAP4 POP POP POP POP JUMP JUMPDEST PUSH1 0x60 DUP3 SELFBALANCE LT ISZERO PUSH2 0xF28 JUMPI PUSH1 0x40 MLOAD PUSH3 0x461BCD PUSH1 0xE5 SHL DUP2 MSTORE PUSH1 0x20 PUSH1 0x4 DUP3 ADD MSTORE PUSH1 0x26 PUSH1 0x24 DUP3 ADD MSTORE PUSH32 0x416464726573733A20696E73756666696369656E742062616C616E636520666F PUSH1 0x44 DUP3 ADD MSTORE PUSH32 0x722063616C6C0000000000000000000000000000000000000000000000000000 PUSH1 0x64 DUP3 ADD MSTORE PUSH1 0x84 ADD PUSH2 0x2B9 JUMP JUMPDEST PUSH1 0x0 DUP1 DUP7 PUSH1 0x1 PUSH1 0x1 PUSH1 0xA0 SHL SUB AND DUP6 DUP8 PUSH1 0x40 MLOAD PUSH2 0xF44 SWAP2 SWAP1 PUSH2 0x1341 JUMP JUMPDEST PUSH1 0x0 PUSH1 0x40 MLOAD DUP1 DUP4 SUB DUP2 DUP6 DUP8 GAS CALL SWAP3 POP POP POP RETURNDATASIZE DUP1 PUSH1 0x0 DUP2 EQ PUSH2 0xF81 JUMPI PUSH1 0x40 MLOAD SWAP2 POP PUSH1 0x1F NOT PUSH1 0x3F RETURNDATASIZE ADD AND DUP3 ADD PUSH1 0x40 MSTORE RETURNDATASIZE DUP3 MSTORE RETURNDATASIZE PUSH1 0x0 PUSH1 0x20 DUP5 ADD RETURNDATACOPY PUSH2 0xF86 JUMP JUMPDEST PUSH1 0x60 SWAP2 POP JUMPDEST POP SWAP2 POP SWAP2 POP PUSH2 0xF97 DUP8 DUP4 DUP4 DUP8 PUSH2 0xFA2 JUMP JUMPDEST SWAP8 SWAP7 POP POP POP POP POP POP POP JUMP JUMPDEST PUSH1 0x60 DUP4 ISZERO PUSH2 0x1011 JUMPI DUP3 MLOAD PUSH1 0x0 SUB PUSH2 0x100A JUMPI PUSH1 0x1 PUSH1 0x1 PUSH1 0xA0 SHL SUB DUP6 AND EXTCODESIZE PUSH2 0x100A JUMPI PUSH1 0x40 MLOAD PUSH3 0x461BCD PUSH1 0xE5 SHL DUP2 MSTORE PUSH1 0x20 PUSH1 0x4 DUP3 ADD MSTORE PUSH1 0x1D PUSH1 0x24 DUP3 ADD MSTORE PUSH32 0x416464726573733A2063616C6C20746F206E6F6E2D636F6E7472616374000000 PUSH1 0x44 DUP3 ADD MSTORE PUSH1 0x64 ADD PUSH2 0x2B9 JUMP JUMPDEST POP DUP2 PUSH2 0xEA8 JUMP JUMPDEST PUSH2 0xEA8 DUP4 DUP4 DUP2 MLOAD ISZERO PUSH2 0x1026 JUMPI DUP2 MLOAD DUP1 DUP4 PUSH1 0x20 ADD REVERT JUMPDEST DUP1 PUSH1 0x40 MLOAD PUSH3 0x461BCD PUSH1 0xE5 SHL DUP2 MSTORE PUSH1 0x4 ADD PUSH2 0x2B9 SWAP2 SWAP1 PUSH2 0x135D JUMP JUMPDEST DUP1 CALLDATALOAD PUSH1 0x1 PUSH1 0x1 PUSH1 0xA0 SHL SUB DUP2 AND DUP2 EQ PUSH2 0x1057 JUMPI PUSH1 0x0 DUP1 REVERT JUMPDEST SWAP2 SWAP1 POP JUMP JUMPDEST PUSH1 0x0 PUSH1 0x20 DUP3 DUP5 SUB SLT ISZERO PUSH2 0x106E JUMPI PUSH1 0x0 DUP1 REVERT JUMPDEST PUSH2 0x1077 DUP3 PUSH2 0x1040 JUMP JUMPDEST SWAP4 SWAP3 POP POP POP JUMP JUMPDEST PUSH1 0x0 DUP1 PUSH1 0x0 PUSH1 0x60 DUP5 DUP7 SUB SLT ISZERO PUSH2 0x1093 JUMPI PUSH1 0x0 DUP1 REVERT JUMPDEST PUSH2 0x109C DUP5 PUSH2 0x1040 JUMP JUMPDEST SWAP3 POP PUSH2 0x10AA PUSH1 0x20 DUP6 ADD PUSH2 0x1040 JUMP JUMPDEST SWAP2 POP PUSH1 0x40 DUP5 ADD CALLDATALOAD SWAP1 POP SWAP3 POP SWAP3 POP SWAP3 JUMP JUMPDEST PUSH1 0x0 DUP1 DUP4 PUSH1 0x1F DUP5 ADD SLT PUSH2 0x10CC JUMPI PUSH1 0x0 DUP1 REVERT JUMPDEST POP DUP2 CALLDATALOAD PUSH8 0xFFFFFFFFFFFFFFFF DUP2 GT ISZERO PUSH2 0x10E4 JUMPI PUSH1 0x0 DUP1 REVERT JUMPDEST PUSH1 0x20 DUP4 ADD SWAP2 POP DUP4 PUSH1 0x20 DUP3 PUSH1 0x5 SHL DUP6 ADD ADD GT ISZERO PUSH2 0x10FF JUMPI PUSH1 0x0 DUP1 REVERT JUMPDEST SWAP3 POP SWAP3 SWAP1 POP JUMP JUMPDEST PUSH1 0x0 DUP1 PUSH1 0x0 DUP1 PUSH1 0x40 DUP6 DUP8 SUB SLT ISZERO PUSH2 0x111C JUMPI PUSH1 0x0 DUP1 REVERT JUMPDEST DUP5 CALLDATALOAD PUSH8 0xFFFFFFFFFFFFFFFF DUP1 DUP3 GT ISZERO PUSH2 0x1134 JUMPI PUSH1 0x0 DUP1 REVERT JUMPDEST PUSH2 0x1140 DUP9 DUP4 DUP10 ADD PUSH2 0x10BA JUMP JUMPDEST SWAP1 SWAP7 POP SWAP5 POP PUSH1 0x20 DUP8 ADD CALLDATALOAD SWAP2 POP DUP1 DUP3 GT ISZERO PUSH2 0x1159 JUMPI PUSH1 0x0 DUP1 REVERT JUMPDEST POP PUSH2 0x1166 DUP8 DUP3 DUP9 ADD PUSH2 0x10BA JUMP JUMPDEST SWAP6 SWAP9 SWAP5 SWAP8 POP SWAP6 POP POP POP POP JUMP JUMPDEST PUSH32 0x4E487B7100000000000000000000000000000000000000000000000000000000 PUSH1 0x0 MSTORE PUSH1 0x32 PUSH1 0x4 MSTORE PUSH1 0x24 PUSH1 0x0 REVERT JUMPDEST PUSH32 0x4E487B7100000000000000000000000000000000000000000000000000000000 PUSH1 0x0 MSTORE PUSH1 0x11 PUSH1 0x4 MSTORE PUSH1 0x24 PUSH1 0x0 REVERT JUMPDEST DUP1 DUP3 ADD DUP1 DUP3 GT ISZERO PUSH2 0x11E3 JUMPI PUSH2 0x11E3 PUSH2 0x11A1 JUMP JUMPDEST SWAP3 SWAP2 POP POP JUMP JUMPDEST PUSH1 0x0 PUSH32 0xFFFFFFFFFFFFFFFFFFFFFFFFFFFFFFFFFFFFFFFFFFFFFFFFFFFFFFFFFFFFFFFF DUP3 SUB PUSH2 0x121A JUMPI PUSH2 0x121A PUSH2 0x11A1 JUMP JUMPDEST POP PUSH1 0x1 ADD SWAP1 JUMP JUMPDEST PUSH1 0x1 PUSH1 0x1 PUSH1 0xA0 SHL SUB DUP8 DUP2 AND DUP3 MSTORE PUSH1 0x80 PUSH1 0x20 DUP1 DUP5 ADD DUP3 SWAP1 MSTORE SWAP1 DUP4 ADD DUP8 SWAP1 MSTORE PUSH1 0x0 SWAP2 DUP9 SWAP2 PUSH1 0xA0 DUP6 ADD DUP5 JUMPDEST DUP11 DUP2 LT ISZERO PUSH2 0x126E JUMPI DUP4 PUSH2 0x125B DUP7 PUSH2 0x1040 JUMP JUMPDEST AND DUP3 MSTORE SWAP4 DUP3 ADD SWAP4 SWAP1 DUP3 ADD SWAP1 PUSH1 0x1 ADD PUSH2 0x1249 JUMP JUMPDEST POP DUP6 DUP2 SUB PUSH1 0x40 DUP8 ADD MSTORE DUP8 DUP2 MSTORE PUSH32 0x7FFFFFFFFFFFFFFFFFFFFFFFFFFFFFFFFFFFFFFFFFFFFFFFFFFFFFFFFFFFFFF DUP9 GT ISZERO PUSH2 0x12A7 JUMPI PUSH1 0x0 DUP1 REVERT JUMPDEST DUP8 PUSH1 0x5 SHL SWAP4 POP DUP4 DUP10 DUP4 DUP4 ADD CALLDATACOPY DUP2 DUP5 DUP3 ADD ADD SWAP5 POP POP POP POP POP DUP3 PUSH1 0x60 DUP4 ADD MSTORE SWAP8 SWAP7 POP POP POP POP POP POP POP JUMP JUMPDEST DUP2 DUP2 SUB DUP2 DUP2 GT ISZERO PUSH2 0x11E3 JUMPI PUSH2 0x11E3 PUSH2 0x11A1 JUMP JUMPDEST PUSH1 0x0 PUSH1 0x20 DUP3 DUP5 SUB SLT ISZERO PUSH2 0x12F4 JUMPI PUSH1 0x0 DUP1 REVERT JUMPDEST DUP2 MLOAD DUP1 ISZERO ISZERO DUP2 EQ PUSH2 0x1077 JUMPI PUSH1 0x0 DUP1 REVERT JUMPDEST PUSH1 0x0 PUSH1 0x20 DUP3 DUP5 SUB SLT ISZERO PUSH2 0x1316 JUMPI PUSH1 0x0 DUP1 REVERT JUMPDEST POP MLOAD SWAP2 SWAP1 POP JUMP JUMPDEST PUSH1 0x0 JUMPDEST DUP4 DUP2 LT ISZERO PUSH2 0x1338 JUMPI DUP2 DUP2 ADD MLOAD DUP4 DUP3 ADD MSTORE PUSH1 0x20 ADD PUSH2 0x1320 JUMP JUMPDEST POP POP PUSH1 0x0 SWAP2 ADD MSTORE JUMP JUMPDEST PUSH1 0x0 DUP3 MLOAD PUSH2 0x1353 DUP2 DUP5 PUSH1 0x20 DUP8 ADD PUSH2 0x131D JUMP JUMPDEST SWAP2 SWAP1 SWAP2 ADD SWAP3 SWAP2 POP POP JUMP JUMPDEST PUSH1 0x20 DUP2 MSTORE PUSH1 0x0 DUP3 MLOAD DUP1 PUSH1 0x20 DUP5 ADD MSTORE PUSH2 0x137C DUP2 PUSH1 0x40 DUP6 ADD PUSH1 0x20 DUP8 ADD PUSH2 0x131D JUMP JUMPDEST PUSH1 0x1F ADD PUSH32 0xFFFFFFFFFFFFFFFFFFFFFFFFFFFFFFFFFFFFFFFFFFFFFFFFFFFFFFFFFFFFFFE0 AND SWAP2 SWAP1 SWAP2 ADD PUSH1 0x40 ADD SWAP3 SWAP2 POP POP JUMP INVALID LOG2 PUSH5 0x6970667358 0x22 SLT KECCAK256 PUSH32 0x88E3ED7EB07874D18A11FAFD63329815B1488C96FFA7DAB7D366D262C2F03364 PUSH20 0x6F6C634300081200330000000000000000000000 "},"methodIdentifiers":{"FIRST_CLAIM_TS()":"439e2824","acceptOwnership()":"79ba5097","claim()":"4e71d92d","claimableAmount(address)":"89885049","claimableNow(address)":"9a78ea4a","claimedAmount(address)":"04e86903","initialize(address,address,uint256)":"1794bb3c","intx()":"46f7d6c9","owner()":"8da5cb5b","pendingOwner()":"e30c3978","renounceOwnership()":"715018a6","setAllocations(address[],uint256[])":"1ff64acd","transferOwnership(address)":"f2fde38b","xIntx()":"27a7af89"}},"storageLayout":{"storage":[{"astId":246,"contract":"contracts/vestings/MntRewardsClaimXINTX.sol:MntRewardsClaimXINTX","label":"_initialized","offset":0,"slot":"0","type":"t_uint8"},{"astId":249,"contract":"contracts/vestings/MntRewardsClaimXINTX.sol:MntRewardsClaimXINTX","label":"_initializing","offset":1,"slot":"0","type":"t_bool"},{"astId":423,"contract":"contracts/vestings/MntRewardsClaimXINTX.sol:MntRewardsClaimXINTX","label":"_status","offset":0,"slot":"1","type":"t_uint256"},{"astId":492,"contract":"contracts/vestings/MntRewardsClaimXINTX.sol:MntRewardsClaimXINTX","label":"__gap","offset":0,"slot":"2","type":"t_array(t_uint256)49_storage"},{"astId":873,"contract":"contracts/vestings/MntRewardsClaimXINTX.sol:MntRewardsClaimXINTX","label":"__gap","offset":0,"slot":"51","type":"t_array(t_uint256)50_storage"},{"astId":118,"contract":"contracts/vestings/MntRewardsClaimXINTX.sol:MntRewardsClaimXINTX","label":"_owner","offset":0,"slot":"101","type":"t_address"},{"astId":238,"contract":"contracts/vestings/MntRewardsClaimXINTX.sol:MntRewardsClaimXINTX","label":"__gap","offset":0,"slot":"102","type":"t_array(t_uint256)49_storage"},{"astId":11,"contract":"contracts/vestings/MntRewardsClaimXINTX.sol:MntRewardsClaimXINTX","label":"_pendingOwner","offset":0,"slot":"151","type":"t_address"},{"astId":105,"contract":"contracts/vestings/MntRewardsClaimXINTX.sol:MntRewardsClaimXINTX","label":"__gap","offset":0,"slot":"152","type":"t_array(t_uint256)49_storage"},{"astId":1720,"contract":"contracts/vestings/MntRewardsClaimXINTX.sol:MntRewardsClaimXINTX","label":"FIRST_CLAIM_TS","offset":0,"slot":"201","type":"t_uint256"},{"astId":1723,"contract":"contracts/vestings/MntRewardsClaimXINTX.sol:MntRewardsClaimXINTX","label":"intx","offset":0,"slot":"202","type":"t_contract(IERC20)952"},{"astId":1726,"contract":"contracts/vestings/MntRewardsClaimXINTX.sol:MntRewardsClaimXINTX","label":"xIntx","offset":0,"slot":"203","type":"t_contract(IStakedINTX)1710"},{"astId":1730,"contract":"contracts/vestings/MntRewardsClaimXINTX.sol:MntRewardsClaimXINTX","label":"claimableAmount","offset":0,"slot":"204","type":"t_mapping(t_address,t_uint256)"},{"astId":1734,"contract":"contracts/vestings/MntRewardsClaimXINTX.sol:MntRewardsClaimXINTX","label":"claimedAmount","offset":0,"slot":"205","type":"t_mapping(t_address,t_uint256)"}],"types":{"t_address":{"encoding":"inplace","label":"address","numberOfBytes":"20"},"t_array(t_uint256)49_storage":{"base":"t_uint256","encoding":"inplace","label":"uint256[49]","numberOfBytes":"1568"},"t_array(t_uint256)50_storage":{"base":"t_uint256","encoding":"inplace","label":"uint256[50]","numberOfBytes":"1600"},"t_bool":{"encoding":"inplace","label":"bool","numberOfBytes":"1"},"t_contract(IERC20)952":{"encoding":"inplace","label":"contract IERC20","numberOfBytes":"20"},"t_contract(IStakedINTX)1710":{"encoding":"inplace","label":"contract IStakedINTX","numberOfBytes":"20"},"t_mapping(t_address,t_uint256)":{"encoding":"mapping","key":"t_address","label":"mapping(address => uint256)","numberOfBytes":"32","value":"t_uint256"},"t_uint256":{"encoding":"inplace","label":"uint256","numberOfBytes":"32"},"t_uint8":{"encoding":"inplace","label":"uint8","numberOfBytes":"1"}}}}}}