{"contracts/OnChainSymmioVaultV2.sol":{"OnChainSymmioVaultV2":{"abi":[{"inputs":[],"stateMutability":"nonpayable","type":"constructor"},{"anonymous":false,"inputs":[{"indexed":true,"internalType":"address","name":"depositor","type":"address"},{"indexed":false,"internalType":"uint256","name":"amount","type":"uint256"}],"name":"Deposit","type":"event"},{"anonymous":false,"inputs":[{"indexed":false,"internalType":"uint256","name":"depositLimit","type":"uint256"},{"indexed":false,"internalType":"uint256","name":"depositPerUserLimit","type":"uint256"}],"name":"DepositLimitUpdatedEvent","type":"event"},{"anonymous":false,"inputs":[{"indexed":true,"internalType":"address","name":"depositor","type":"address"},{"indexed":true,"internalType":"address","name":"solver","type":"address"},{"indexed":false,"internalType":"uint256","name":"amount","type":"uint256"}],"name":"DepositToSymmio","type":"event"},{"anonymous":false,"inputs":[],"name":"EIP712DomainChanged","type":"event"},{"anonymous":false,"inputs":[{"indexed":false,"internalType":"uint8","name":"version","type":"uint8"}],"name":"Initialized","type":"event"},{"anonymous":false,"inputs":[{"indexed":false,"internalType":"uint256","name":"minimumPaybackRatio","type":"uint256"}],"name":"MinimumPaybackRatioUpdatedEvent","type":"event"},{"anonymous":false,"inputs":[{"indexed":false,"internalType":"address","name":"account","type":"address"}],"name":"Paused","type":"event"},{"anonymous":false,"inputs":[{"indexed":true,"internalType":"bytes32","name":"role","type":"bytes32"},{"indexed":true,"internalType":"bytes32","name":"previousAdminRole","type":"bytes32"},{"indexed":true,"internalType":"bytes32","name":"newAdminRole","type":"bytes32"}],"name":"RoleAdminChanged","type":"event"},{"anonymous":false,"inputs":[{"indexed":true,"internalType":"bytes32","name":"role","type":"bytes32"},{"indexed":true,"internalType":"address","name":"account","type":"address"},{"indexed":true,"internalType":"address","name":"sender","type":"address"}],"name":"RoleGranted","type":"event"},{"anonymous":false,"inputs":[{"indexed":true,"internalType":"bytes32","name":"role","type":"bytes32"},{"indexed":true,"internalType":"address","name":"account","type":"address"},{"indexed":true,"internalType":"address","name":"sender","type":"address"}],"name":"RoleRevoked","type":"event"},{"anonymous":false,"inputs":[{"indexed":true,"internalType":"address","name":"signer","type":"address"}],"name":"SignerUpdatedEvent","type":"event"},{"anonymous":false,"inputs":[{"indexed":true,"internalType":"address","name":"solver","type":"address"}],"name":"SolverUpdatedEvent","type":"event"},{"anonymous":false,"inputs":[{"indexed":true,"internalType":"address","name":"newSymmioAddress","type":"address"}],"name":"SymmioAddressUpdatedEvent","type":"event"},{"anonymous":false,"inputs":[{"indexed":false,"internalType":"address","name":"account","type":"address"}],"name":"Unpaused","type":"event"},{"anonymous":false,"inputs":[{"indexed":true,"internalType":"uint256","name":"requestId","type":"uint256"},{"indexed":true,"internalType":"address","name":"receiver","type":"address"}],"name":"WithdrawClaimedEvent","type":"event"},{"anonymous":false,"inputs":[{"indexed":false,"internalType":"uint256","name":"providedAmount","type":"uint256"},{"indexed":false,"internalType":"uint256[]","name":"acceptedRequestIds","type":"uint256[]"},{"indexed":false,"internalType":"uint256","name":"paybackRatio","type":"uint256"}],"name":"WithdrawRequestAcceptedEvent","type":"event"},{"anonymous":false,"inputs":[{"indexed":true,"internalType":"uint256","name":"requestId","type":"uint256"}],"name":"WithdrawRequestCanceled","type":"event"},{"anonymous":false,"inputs":[{"indexed":true,"internalType":"uint256","name":"requestId","type":"uint256"},{"indexed":true,"internalType":"address","name":"sender","type":"address"},{"indexed":true,"internalType":"address","name":"receiver","type":"address"},{"indexed":false,"internalType":"uint256","name":"amount","type":"uint256"},{"indexed":false,"internalType":"uint256","name":"nonce","type":"uint256"}],"name":"WithdrawRequestEvent","type":"event"},{"anonymous":false,"inputs":[{"indexed":false,"internalType":"uint256","name":"withdrawalPeriod","type":"uint256"}],"name":"WithdrawalPeriodUpdate","type":"event"},{"inputs":[],"name":"BALANCER_ROLE","outputs":[{"internalType":"bytes32","name":"","type":"bytes32"}],"stateMutability":"view","type":"function"},{"inputs":[],"name":"DEFAULT_ADMIN_ROLE","outputs":[{"internalType":"bytes32","name":"","type":"bytes32"}],"stateMutability":"view","type":"function"},{"inputs":[],"name":"MIN_PAYBACK_RATIO","outputs":[{"internalType":"uint256","name":"","type":"uint256"}],"stateMutability":"view","type":"function"},{"inputs":[],"name":"PAUSER_ROLE","outputs":[{"internalType":"bytes32","name":"","type":"bytes32"}],"stateMutability":"view","type":"function"},{"inputs":[],"name":"SETTER_ROLE","outputs":[{"internalType":"bytes32","name":"","type":"bytes32"}],"stateMutability":"view","type":"function"},{"inputs":[],"name":"TYPE_HASH","outputs":[{"internalType":"bytes32","name":"","type":"bytes32"}],"stateMutability":"view","type":"function"},{"inputs":[],"name":"UNPAUSER_ROLE","outputs":[{"internalType":"bytes32","name":"","type":"bytes32"}],"stateMutability":"view","type":"function"},{"inputs":[{"internalType":"uint256","name":"providedAmount","type":"uint256"},{"internalType":"uint256[]","name":"_acceptedRequestIds","type":"uint256[]"},{"internalType":"uint256","name":"_paybackRatio","type":"uint256"}],"name":"acceptWithdrawRequest","outputs":[],"stateMutability":"nonpayable","type":"function"},{"inputs":[{"internalType":"uint256","name":"id","type":"uint256"}],"name":"cancelWithdrawRequest","outputs":[],"stateMutability":"nonpayable","type":"function"},{"inputs":[{"internalType":"uint256","name":"requestId","type":"uint256"}],"name":"claimForWithdrawRequest","outputs":[],"stateMutability":"nonpayable","type":"function"},{"inputs":[],"name":"collateralTokenAddress","outputs":[{"internalType":"address","name":"","type":"address"}],"stateMutability":"view","type":"function"},{"inputs":[],"name":"collateralTokenDecimals","outputs":[{"internalType":"uint256","name":"","type":"uint256"}],"stateMutability":"view","type":"function"},{"inputs":[],"name":"currentDeposit","outputs":[{"internalType":"uint256","name":"","type":"uint256"}],"stateMutability":"view","type":"function"},{"inputs":[{"internalType":"uint256","name":"amount","type":"uint256"}],"name":"deposit","outputs":[],"stateMutability":"nonpayable","type":"function"},{"inputs":[],"name":"depositLimit","outputs":[{"internalType":"uint256","name":"","type":"uint256"}],"stateMutability":"view","type":"function"},{"inputs":[],"name":"depositPerUserLimit","outputs":[{"internalType":"uint256","name":"","type":"uint256"}],"stateMutability":"view","type":"function"},{"inputs":[],"name":"eip712Domain","outputs":[{"internalType":"bytes1","name":"fields","type":"bytes1"},{"internalType":"string","name":"name","type":"string"},{"internalType":"string","name":"version","type":"string"},{"internalType":"uint256","name":"chainId","type":"uint256"},{"internalType":"address","name":"verifyingContract","type":"address"},{"internalType":"bytes32","name":"salt","type":"bytes32"},{"internalType":"uint256[]","name":"extensions","type":"uint256[]"}],"stateMutability":"view","type":"function"},{"inputs":[{"internalType":"bytes32","name":"role","type":"bytes32"}],"name":"getRoleAdmin","outputs":[{"internalType":"bytes32","name":"","type":"bytes32"}],"stateMutability":"view","type":"function"},{"inputs":[{"internalType":"bytes32","name":"role","type":"bytes32"},{"internalType":"uint256","name":"index","type":"uint256"}],"name":"getRoleMember","outputs":[{"internalType":"address","name":"","type":"address"}],"stateMutability":"view","type":"function"},{"inputs":[{"internalType":"bytes32","name":"role","type":"bytes32"}],"name":"getRoleMemberCount","outputs":[{"internalType":"uint256","name":"","type":"uint256"}],"stateMutability":"view","type":"function"},{"inputs":[{"internalType":"bytes32","name":"role","type":"bytes32"},{"internalType":"address","name":"account","type":"address"}],"name":"grantRole","outputs":[],"stateMutability":"nonpayable","type":"function"},{"inputs":[{"internalType":"bytes32","name":"role","type":"bytes32"},{"internalType":"address","name":"account","type":"address"}],"name":"hasRole","outputs":[{"internalType":"bool","name":"","type":"bool"}],"stateMutability":"view","type":"function"},{"inputs":[{"internalType":"address","name":"_symmioAddress","type":"address"},{"internalType":"address","name":"_solver","type":"address"},{"internalType":"address","name":"_signer","type":"address"},{"internalType":"uint256","name":"_minimumPaybackRatio","type":"uint256"},{"internalType":"uint256","name":"_depositLimit","type":"uint256"},{"internalType":"uint256","name":"_depositPerUserLimit","type":"uint256"}],"name":"initialize","outputs":[],"stateMutability":"nonpayable","type":"function"},{"inputs":[],"name":"lockedBalance","outputs":[{"internalType":"uint256","name":"","type":"uint256"}],"stateMutability":"view","type":"function"},{"inputs":[],"name":"minimumPaybackRatio","outputs":[{"internalType":"uint256","name":"","type":"uint256"}],"stateMutability":"view","type":"function"},{"inputs":[],"name":"pause","outputs":[],"stateMutability":"nonpayable","type":"function"},{"inputs":[],"name":"paused","outputs":[{"internalType":"bool","name":"","type":"bool"}],"stateMutability":"view","type":"function"},{"inputs":[{"internalType":"address","name":"","type":"address"}],"name":"pendingWithdrawalAmount","outputs":[{"internalType":"uint256","name":"","type":"uint256"}],"stateMutability":"view","type":"function"},{"inputs":[{"internalType":"bytes32","name":"role","type":"bytes32"},{"internalType":"address","name":"account","type":"address"}],"name":"renounceRole","outputs":[],"stateMutability":"nonpayable","type":"function"},{"inputs":[{"internalType":"uint256","name":"amount","type":"uint256"},{"internalType":"uint256","name":"minAmountOut","type":"uint256"},{"internalType":"address","name":"receiver","type":"address"},{"internalType":"uint256","name":"nonce","type":"uint256"},{"internalType":"uint256","name":"deadline","type":"uint256"},{"internalType":"bytes","name":"signature","type":"bytes"}],"name":"requestWithdraw","outputs":[],"stateMutability":"nonpayable","type":"function"},{"inputs":[{"internalType":"bytes32","name":"role","type":"bytes32"},{"internalType":"address","name":"account","type":"address"}],"name":"revokeRole","outputs":[],"stateMutability":"nonpayable","type":"function"},{"inputs":[{"internalType":"uint256","name":"_depositLimit","type":"uint256"},{"internalType":"uint256","name":"_depositPerUserLimit","type":"uint256"}],"name":"setDepositLimit","outputs":[],"stateMutability":"nonpayable","type":"function"},{"inputs":[{"internalType":"uint256","name":"_minimumPaybackRatio","type":"uint256"}],"name":"setMinimumPaybackRatio","outputs":[],"stateMutability":"nonpayable","type":"function"},{"inputs":[{"internalType":"address","name":"_signer","type":"address"}],"name":"setSigner","outputs":[],"stateMutability":"nonpayable","type":"function"},{"inputs":[{"internalType":"address","name":"_solver","type":"address"}],"name":"setSolver","outputs":[],"stateMutability":"nonpayable","type":"function"},{"inputs":[{"internalType":"address","name":"_symmioAddress","type":"address"}],"name":"setSymmioAddress","outputs":[],"stateMutability":"nonpayable","type":"function"},{"inputs":[{"internalType":"uint256","name":"withdrawalPeriod_","type":"uint256"}],"name":"setWithdrawalPeriod","outputs":[],"stateMutability":"nonpayable","type":"function"},{"inputs":[],"name":"signer","outputs":[{"internalType":"address","name":"","type":"address"}],"stateMutability":"view","type":"function"},{"inputs":[],"name":"solver","outputs":[{"internalType":"address","name":"","type":"address"}],"stateMutability":"view","type":"function"},{"inputs":[{"internalType":"bytes4","name":"interfaceId","type":"bytes4"}],"name":"supportsInterface","outputs":[{"internalType":"bool","name":"","type":"bool"}],"stateMutability":"view","type":"function"},{"inputs":[],"name":"symmio","outputs":[{"internalType":"contract ISymmio","name":"","type":"address"}],"stateMutability":"view","type":"function"},{"inputs":[],"name":"unpause","outputs":[],"stateMutability":"nonpayable","type":"function"},{"inputs":[{"internalType":"address","name":"","type":"address"},{"internalType":"uint256","name":"","type":"uint256"}],"name":"usedNonces","outputs":[{"internalType":"bool","name":"","type":"bool"}],"stateMutability":"view","type":"function"},{"inputs":[{"internalType":"address","name":"receiver","type":"address"},{"internalType":"uint256","name":"amount","type":"uint256"}],"name":"withdrawNotLockedCollateralTokens","outputs":[],"stateMutability":"nonpayable","type":"function"},{"inputs":[{"internalType":"uint256","name":"","type":"uint256"}],"name":"withdrawRequests","outputs":[{"internalType":"address","name":"receiver","type":"address"},{"internalType":"address","name":"sender","type":"address"},{"internalType":"uint256","name":"amount","type":"uint256"},{"internalType":"uint256","name":"minAmountOut","type":"uint256"},{"internalType":"enum IOnChainSymmioVault.RequestStatus","name":"status","type":"uint8"},{"internalType":"uint256","name":"acceptedRatio","type":"uint256"},{"internalType":"uint256","name":"acceptedWithdrawRequestTimestamp","type":"uint256"},{"internalType":"uint256","name":"claimableAt","type":"uint256"}],"stateMutability":"view","type":"function"},{"inputs":[],"name":"withdrawalPeriod","outputs":[{"internalType":"uint256","name":"","type":"uint256"}],"stateMutability":"view","type":"function"}],"evm":{"bytecode":{"linkReferences":{},"object":"6080604052348015600f57600080fd5b506016601a565b60d7565b600054610100900460ff161560855760405162461bcd60e51b815260206004820152602760248201527f496e697469616c697a61626c653a20636f6e747261637420697320696e697469604482015266616c697a696e6760c81b606482015260840160405180910390fd5b60005460ff9081161460d5576000805460ff191660ff9081179091556040519081527f7f26b83ff96e1f2b6a682f133852f6798a09c465da95921460cefb38474024989060200160405180910390a15b565b614514806100e66000396000f3fe608060405234801561001057600080fd5b506004361061030a5760003560e01c80637b9f7d941161019c578063b54790d8116100ee578063deaf30b211610097578063ecf7085811610071578063ecf70858146106ea578063f36fbab7146106f4578063fb1bb9de1461070757600080fd5b8063deaf30b214610698578063e63ab1e9146106b9578063e94b2f44146106e057600080fd5b8063ca15c873116100c8578063ca15c8731461065f578063cce4705b14610672578063d547741f1461068557600080fd5b8063b54790d814610638578063b6b55f2514610642578063bca7093d1461065557600080fd5b80639010d07c11610150578063992a7dfb1161012a578063992a7dfb146105e2578063a2011b3f14610609578063a217fddf1461063057600080fd5b80639010d07c1461058357806391d1485414610596578063973b294f146105cf57600080fd5b8063849fc72b11610181578063849fc72b1461054257806384b0196e1461055557806386da03231461057057600080fd5b80637b9f7d941461052b5780638456cb591461053a57600080fd5b80633f4ba83a116102605780636c19e783116102095780637278bd9b116101e35780637278bd9b14610504578063728cdbca1461050e5780637b80889b1461052157600080fd5b80636c19e783146104ca5780636d9dd201146104dd5780636e74bf96146104f157600080fd5b80635c975abb1161023a5780635c975abb1461046957806364d4c819146104745780636a8a68941461049b57600080fd5b80633f4ba83a1461043957806349a7a26d146104415780635849b93d1461045557600080fd5b8063238ac933116102c257806330d3c5341161029c57806330d3c534146103ec57806336568abe146104135780633e55fde01461042657600080fd5b8063238ac9331461038a578063248a9ca3146103b65780632f2ff15d146103d957600080fd5b80630a608501116102f35780630a6085011461034c5780631813fbe9146103645780631f8794331461037757600080fd5b806301569e3a1461030f57806301ffc9a714610324575b600080fd5b61032261031d366004613cc3565b61072e565b005b610337610332366004613ce0565b6108c9565b60405190151581526020015b60405180910390f35b6103566101685481565b604051908152602001610343565b610322610372366004613d22565b610925565b610322610385366004613cc3565b610999565b6101635461039e906001600160a01b031681565b6040516001600160a01b039091168152602001610343565b6103566103c4366004613d44565b60009081526065602052604090206001015490565b6103226103e7366004613d5d565b610a7e565b6103567f372387bd01807b923229b5bd1e46f8a6b8815b5d5db581db3e993c5168467b2781565b610322610421366004613d5d565b610aa8565b610322610434366004613dd4565b610b34565b6103226111a5565b6101625461039e906001600160a01b031681565b6101615461039e906001600160a01b031681565b60c95460ff16610337565b6103567fb1dd0bed30d3b8ab9fc76313ecb7db14f6b497d5f1f7859fa5cb5811c1ca307381565b6103376104a9366004613e99565b61016e60209081526000928352604080842090915290825290205460ff1681565b6103226104d8366004613cc3565b6111da565b6101645461039e906001600160a01b031681565b6103226104ff366004613d44565b6112bf565b6103566101665481565b61032261051c366004613ec5565b611422565b6103566101655481565b6103566706f05b59d3b2000081565b61032261163b565b610322610550366004613f2a565b61166d565b61055d611a43565b6040516103439796959493929190614088565b61032261057e366004613d44565b611b05565b61039e610591366004613d22565b611d66565b6103376105a4366004613d5d565b60009182526065602090815260408084206001600160a01b0393909316845291905290205460ff1690565b6103226105dd366004613d44565b611d85565b6105f56105f0366004613d44565b611db8565b604051610343989796959493929190614128565b6103567f61c92169ef077349011ff0b1383c894d86c5f0b41d986366b58a6cf31e93beda81565b610356600081565b61035661016a5481565b610322610650366004613d44565b611e1f565b61035661016c5481565b61035661066d366004613d44565b612081565b610322610680366004613d44565b612098565b610322610693366004613d5d565b6122c0565b6103566106a6366004613cc3565b61016d6020526000908152604090205481565b6103567f65d7a28e3265b37a6474929f336521b332c1681b933f6cb9f3376673440d862a81565b6103566101695481565b6103566101675481565b610322610702366004613e99565b6122e5565b6103567f427da25fe773164f88948d3e215c94b6554e2ed5e5f203a821c9f2f6131cf75a81565b7f61c92169ef077349011ff0b1383c894d86c5f0b41d986366b58a6cf31e93beda61075881612535565b6001600160a01b0382166107bf5760405162461bcd60e51b815260206004820152602360248201527f53796d6d696f536f6c7665724465706f7369746f723a205a65726f206164647260448201526265737360e81b60648201526084015b60405180910390fd5b610161805473ffffffffffffffffffffffffffffffffffffffff19166001600160a01b038481169190911790915561016454166107fa61253f565b610164546001600160a01b038281169116148061081e57506001600160a01b038116155b6108905760405162461bcd60e51b815260206004820152603460248201527f53796d6d696f536f6c7665724465706f7369746f723a20436f6c6c617465726160448201527f6c2063616e206e6f74206265206368616e67656400000000000000000000000060648201526084016107b6565b6040516001600160a01b038416907fe5af12e9abb914276d8e0a5a01aa97d26f4c81e3002646f90824c2063953104490600090a2505050565b60007fffffffff0000000000000000000000000000000000000000000000000000000082167f5a05180f00000000000000000000000000000000000000000000000000000000148061091f575061091f82612703565b92915050565b7f61c92169ef077349011ff0b1383c894d86c5f0b41d986366b58a6cf31e93beda61094f81612535565b61016783905561016882905560408051848152602081018490527fedf8b25cd37f67d45bcd7b8a30815ed96124959bc4340442887767a6a07e8050910160405180910390a1505050565b7f61c92169ef077349011ff0b1383c894d86c5f0b41d986366b58a6cf31e93beda6109c381612535565b6001600160a01b038216610a255760405162461bcd60e51b815260206004820152602360248201527f53796d6d696f536f6c7665724465706f7369746f723a205a65726f206164647260448201526265737360e81b60648201526084016107b6565b610162805473ffffffffffffffffffffffffffffffffffffffff19166001600160a01b0384169081179091556040517f73c48e8c0360f51d3049faa15518d29248fbad9e77ad28ad94bcd1712854ca9b90600090a25050565b600082815260656020526040902060010154610a9981612535565b610aa3838361279a565b505050565b6001600160a01b0381163314610b265760405162461bcd60e51b815260206004820152602f60248201527f416363657373436f6e74726f6c3a2063616e206f6e6c792072656e6f756e636560448201527f20726f6c657320666f722073656c66000000000000000000000000000000000060648201526084016107b6565b610b3082826127bc565b5050565b7f372387bd01807b923229b5bd1e46f8a6b8815b5d5db581db3e993c5168467b27610b5e81612535565b610b666127de565b610b7f33610164546001600160a01b0316903087612831565b61016654821015610bf85760405162461bcd60e51b815260206004820152602f60248201527f53796d6d696f536f6c7665724465706f7369746f723a205061796261636b207260448201527f6174696f20697320746f6f206c6f77000000000000000000000000000000000060648201526084016107b6565b670de0b6b3a7640000821115610c765760405162461bcd60e51b815260206004820152603060248201527f53796d6d696f536f6c7665724465706f7369746f723a205061796261636b207260448201527f6174696f20697320746f6f20686967680000000000000000000000000000000060648201526084016107b6565b6101655460005b8451811015611061576000858281518110610c9a57610c9a614192565b6020026020010151905061016b805490508110610d1f5760405162461bcd60e51b815260206004820152602960248201527f53796d6d696f536f6c7665724465706f7369746f723a20496e76616c6964207260448201527f657175657374204944000000000000000000000000000000000000000000000060648201526084016107b6565b600061016b8281548110610d3557610d35614192565b600091825260209091206004600890920201015460ff166003811115610d5d57610d5d614112565b14610dd05760405162461bcd60e51b815260206004820152602f60248201527f53796d6d696f536f6c7665724465706f7369746f723a20496e76616c6964206160448201527f636365707465642072657175657374000000000000000000000000000000000060648201526084016107b6565b6000670de0b6b3a76400008661016b8481548110610df057610df0614192565b906000526020600020906008020160020154610e0c91906141be565b610e1691906141d5565b905061016b8281548110610e2c57610e2c614192565b906000526020600020906008020160030154811015610eb5576040805162461bcd60e51b81526020600482015260248101919091527f53796d6d696f536f6c7665724465706f7369746f723a205061796261636b207260448201527f6174696f20697320746f6f206c6f7720666f722074686973207265717565737460648201526084016107b6565b610ebf81856141f7565b935061016b8281548110610ed557610ed5614192565b9060005260206000209060080201600201546101696000828254610ef9919061420a565b92505081905550600161016b8381548110610f1657610f16614192565b60009182526020909120600460089092020101805460ff19166001836003811115610f4357610f43614112565b02179055508561016b8381548110610f5d57610f5d614192565b9060005260206000209060080201600501819055504261016b8381548110610f8757610f87614192565b600091825260209091206006600890920201015561016c54610fa990426141f7565b61016b8381548110610fbd57610fbd614192565b90600052602060002090600802016007018190555061016b8281548110610fe657610fe6614192565b90600052602060002090600802016002015461016d600061016b858154811061101157611011614192565b60009182526020808320600160089093020191909101546001600160a01b031683528201929092526040018120805490919061104e90849061420a565b909155505060019092019150610c7d9050565b50610164546040517f70a0823100000000000000000000000000000000000000000000000000000000815230600482015282916001600160a01b0316906370a0823190602401602060405180830381865afa1580156110c4573d6000803e3d6000fd5b505050506040513d601f19601f820116820180604052508101906110e8919061421d565b101561115c5760405162461bcd60e51b815260206004820152603460248201527f53796d6d696f536f6c7665724465706f7369746f723a20496e7375666669636960448201527f656e7420636f6e74726163742062616c616e636500000000000000000000000060648201526084016107b6565b6101658190556040517f7e82005417f8fc53c7a47dc803bf0c0c5fb4adfa711e011d4edead5839b0d0249061119690879087908790614236565b60405180910390a15050505050565b7f427da25fe773164f88948d3e215c94b6554e2ed5e5f203a821c9f2f6131cf75a6111cf81612535565b6111d76128e8565b50565b7f61c92169ef077349011ff0b1383c894d86c5f0b41d986366b58a6cf31e93beda61120481612535565b6001600160a01b0382166112665760405162461bcd60e51b815260206004820152602360248201527f53796d6d696f536f6c7665724465706f7369746f723a205a65726f206164647260448201526265737360e81b60648201526084016107b6565b610163805473ffffffffffffffffffffffffffffffffffffffff19166001600160a01b0384169081179091556040517f93d2bd623fe74229d9510c70ec2da10109749943db6d68437555a01b1844beae90600090a25050565b7f61c92169ef077349011ff0b1383c894d86c5f0b41d986366b58a6cf31e93beda6112e981612535565b6706f05b59d3b200008210156113675760405162461bcd60e51b815260206004820152603760248201527f53796d6d696f536f6c7665724465706f7369746f723a204d696e696d756d206260448201527f75796261636b20726174696f20697320746f6f206c6f7700000000000000000060648201526084016107b6565b670de0b6b3a76400008211156113e55760405162461bcd60e51b815260206004820152603860248201527f53796d6d696f536f6c7665724465706f7369746f723a204d696e696d756d206260448201527f75796261636b20726174696f20697320746f6f2068696768000000000000000060648201526084016107b6565b6101668290556040518281527f2ae6ddf10933401b20295006a4f7ed3af82a0ab05354f1fc7db9be3fc75f19d79060200160405180910390a15050565b600054610100900460ff16158080156114425750600054600160ff909116105b8061145c5750303b15801561145c575060005460ff166001145b6114ce5760405162461bcd60e51b815260206004820152602e60248201527f496e697469616c697a61626c653a20636f6e747261637420697320616c72656160448201527f647920696e697469616c697a656400000000000000000000000000000000000060648201526084016107b6565b6000805460ff1916600117905580156114f1576000805461ff0019166101001790555b6114f961293a565b6115016129ad565b611509612a18565b61157d6040518060400160405280601481526020017f4f6e436861696e53796d6d696f5661756c7456320000000000000000000000008152506040518060400160405280600181526020017f3100000000000000000000000000000000000000000000000000000000000000815250612a8b565b61158860003361279a565b6115b27f61c92169ef077349011ff0b1383c894d86c5f0b41d986366b58a6cf31e93beda3361279a565b6115bb8761072e565b6115c58383610925565b6115ce86610999565b6115d7856111da565b6115e0846112bf565b6115ec62093a80612b00565b8015611632576000805461ff0019169055604051600181527f7f26b83ff96e1f2b6a682f133852f6798a09c465da95921460cefb38474024989060200160405180910390a15b50505050505050565b7f65d7a28e3265b37a6474929f336521b332c1681b933f6cb9f3376673440d862a61166581612535565b6111d7612b3c565b6116756127de565b6001600160a01b0384166116f15760405162461bcd60e51b815260206004820152603060248201527f53796d6d696f536f6c7665724465706f7369746f723a205a65726f206164647260448201527f65737320666f722072656365697665720000000000000000000000000000000060648201526084016107b6565b4282116117665760405162461bcd60e51b815260206004820152603560248201527f53796d6d696f536f6c7665724465706f7369746f723a20446561646c696e652060448201527f6d75737420626520696e2074686520667574757265000000000000000000000060648201526084016107b6565b6001600160a01b038416600090815261016e6020908152604080832086845290915290205460ff16156118015760405162461bcd60e51b815260206004820152602960248201527f53796d6d696f536f6c7665724465706f7369746f723a204e6f6e636520616c7260448201527f656164792075736564000000000000000000000000000000000000000000000060648201526084016107b6565b61180f868686868686612b79565b6118815760405162461bcd60e51b815260206004820152602860248201527f53796d6d696f536f6c7665724465706f7369746f723a20496e76616c6964207360448201527f69676e617475726500000000000000000000000000000000000000000000000060648201526084016107b6565b6001600160a01b038416600081815261016e60209081526040808320878452825291829020805460ff191660011790558151610100810190925291815261016b9181016118cb3390565b6001600160a01b031681526020810189905260408101889052606001600081526000602080830182905260408084018390526060938401839052855460018082018855968452928290208551600890940201805473ffffffffffffffffffffffffffffffffffffffff199081166001600160a01b039586161782559286015181880180549094169416939093179091558301516002820155908201516003808301919091556080830151600483018054949593949193909260ff1990921691849081111561199b5761199b614112565b021790555060a0820151600582015560c0820151600682015560e09091015160079091015533600090815261016d6020526040812080548892906119e09084906141f7565b909155505061016b546001600160a01b038516903390611a029060019061420a565b604080518a8152602081018890527f0766e8c55dde32095d8c203180e4f32c7407c445e0a87007877162126d257b25910160405180910390a4505050505050565b60006060806000806000606060fb546000801b148015611a63575060fc54155b611aaf5760405162461bcd60e51b815260206004820152601560248201527f4549503731323a20556e696e697469616c697a6564000000000000000000000060448201526064016107b6565b611ab7612c21565b611abf612cb3565b604080516000808252602082019092527f0f000000000000000000000000000000000000000000000000000000000000009b939a50919850469750309650945092509050565b611b0d6127de565b61016b548110611b855760405162461bcd60e51b815260206004820152602960248201527f53796d6d696f536f6c7665724465706f7369746f723a20496e76616c6964207260448201527f657175657374204944000000000000000000000000000000000000000000000060648201526084016107b6565b600061016b8281548110611b9b57611b9b614192565b6000918252602090912060089091020190506001600482015460ff166003811115611bc857611bc8614112565b14611c3b5760405162461bcd60e51b815260206004820152603760248201527f53796d6d696f536f6c7665724465706f7369746f723a2052657175657374206e60448201527f6f7420726561647920666f72207769746864726177616c00000000000000000060648201526084016107b6565b4281600701541115611cb55760405162461bcd60e51b815260206004820152603960248201527f53796d6d696f536f6c7665724465706f7369746f723a2052657175657374206e60448201527f6f742070617373207769746864726177616c20706572696f640000000000000060648201526084016107b6565b60048101805460ff19166002908117909155600582015490820154600091670de0b6b3a764000091611ce791906141be565b611cf191906141d5565b9050806101656000828254611d06919061420a565b9091555050815461016454611d28916001600160a01b03918216911683612cc2565b81546040516001600160a01b039091169084907f4ce122b005e10b197f4caf028d92e008a684c370ad8f93528e07ded8214240e190600090a3505050565b6000828152609760205260408120611d7e9083612d0b565b9392505050565b7f61c92169ef077349011ff0b1383c894d86c5f0b41d986366b58a6cf31e93beda611daf81612535565b610b3082612b00565b61016b8181548110611dc957600080fd5b6000918252602090912060089091020180546001820154600283015460038401546004850154600586015460068701546007909701546001600160a01b03968716985094909516959294919360ff909116929088565b611e276127de565b611e2f612d17565b60008111611ea55760405162461bcd60e51b815260206004820152603460248201527f53796d6d696f536f6c7665724465706f7369746f723a20416d6f756e74206d7560448201527f73742062652067726561746572207468616e203000000000000000000000000060648201526084016107b6565b610167548161016954611eb891906141f7565b1115611f2c5760405162461bcd60e51b815260206004820152602c60248201527f53796d6d696f536f6c7665724465706f7369746f723a204465706f736974206c60448201527f696d69742072656163686564000000000000000000000000000000000000000060648201526084016107b6565b610164546001600160a01b0316611f4581333085612831565b816101696000828254611f5891906141f7565b909155505060405182815233907fe1fffcc4923d04b559f4d29a8bfc6cda04eb5b0d3c460751c2402c5c5cc9109c9060200160405180910390a261016154611fad906001600160a01b03838116911684612d72565b61016154610162546040517f2f4f21e20000000000000000000000000000000000000000000000000000000081526001600160a01b03918216600482015260248101859052911690632f4f21e290604401600060405180830381600087803b15801561201857600080fd5b505af115801561202c573d6000803e3d6000fd5b5050610162546040518581526001600160a01b0390911692503391507f42a31d51415a86588240e32bf72025c881c4c9aada6e283ce50dc32f5a64717b9060200160405180910390a3506111d7600161012f55565b600081815260976020526040812061091f90612e50565b6120a06127de565b61016b5481106121185760405162461bcd60e51b815260206004820152602960248201527f53796d6d696f536f6c7665724465706f7369746f723a20496e76616c6964207260448201527f657175657374204944000000000000000000000000000000000000000000000060648201526084016107b6565b600061016b828154811061212e5761212e614192565b906000526020600020906008020190506121453390565b60018201546001600160a01b039081169116146121ca5760405162461bcd60e51b815260206004820152603f60248201527f53796d6d696f536f6c7665724465706f7369746f723a204f6e6c79207468652060448201527f73656e646572206f6620726571756573742063616e2063616e63656c2069740060648201526084016107b6565b6000600482015460ff1660038111156121e5576121e5614112565b146122585760405162461bcd60e51b815260206004820152602560248201527f53796d6d696f536f6c7665724465706f7369746f723a20496e76616c6964207360448201527f746174757300000000000000000000000000000000000000000000000000000060648201526084016107b6565b60048101805460ff19166003179055600281015433600090815261016d60205260408120805490919061228c90849061420a565b909155505060405182907f8f3015a84bd69b67997edb78d8928ad670dcb6243df596529ae1e07f93eaf35a90600090a25050565b6000828152606560205260409020600101546122db81612535565b610aa383836127bc565b7f372387bd01807b923229b5bd1e46f8a6b8815b5d5db581db3e993c5168467b2761230f81612535565b6123176127de565b6001600160a01b0383166123935760405162461bcd60e51b815260206004820152603060248201527f53796d6d696f536f6c7665724465706f7369746f723a205a65726f206164647260448201527f65737320666f722072656365697665720000000000000000000000000000000060648201526084016107b6565b600082116124095760405162461bcd60e51b815260206004820152603460248201527f53796d6d696f536f6c7665724465706f7369746f723a20416d6f756e74206d7560448201527f73742062652067726561746572207468616e203000000000000000000000000060648201526084016107b6565b610164546040517f70a082310000000000000000000000000000000000000000000000000000000081523060048201526001600160a01b039091169060009082906370a0823190602401602060405180830381865afa158015612470573d6000803e3d6000fd5b505050506040513d601f19601f82011682018060405250810190612494919061421d565b905061016554816124a5919061420a565b84111561251a5760405162461bcd60e51b815260206004820152602b60248201527f53796d6d696f536f6c7665724465706f7369746f723a20496e7375666669636960448201527f656e742062616c616e636500000000000000000000000000000000000000000060648201526084016107b6565b61252e6001600160a01b0383168686612cc2565b5050505050565b6111d78133612e5a565b61016160009054906101000a90046001600160a01b03166001600160a01b0316635c1548fb6040518163ffffffff1660e01b8152600401602060405180830381865afa158015612593573d6000803e3d6000fd5b505050506040513d601f19601f820116820180604052508101906125b7919061425f565b610164805473ffffffffffffffffffffffffffffffffffffffff19166001600160a01b03929092169182179055604080517f313ce567000000000000000000000000000000000000000000000000000000008152905163313ce567916004808201926020929091908290030181865afa158015612638573d6000803e3d6000fd5b505050506040513d601f19601f8201168201806040525081019061265c919061427c565b60ff1661016a819055601210156127015760405162461bcd60e51b815260206004820152604e60248201527f53796d6d696f536f6c7665724465706f7369746f723a20436f6c6c617465726160448201527f6c20646563696d616c732073686f756c64206265206c6f776572207468616e2060648201527f6f7220657175616c20746f203138000000000000000000000000000000000000608482015260a4016107b6565b565b60007fffffffff0000000000000000000000000000000000000000000000000000000082167f7965db0b00000000000000000000000000000000000000000000000000000000148061091f57507f01ffc9a7000000000000000000000000000000000000000000000000000000007fffffffff0000000000000000000000000000000000000000000000000000000083161461091f565b6127a48282612ecf565b6000828152609760205260409020610aa39082612f71565b6127c68282612f86565b6000828152609760205260409020610aa39082613009565b60c95460ff16156127015760405162461bcd60e51b815260206004820152601060248201527f5061757361626c653a207061757365640000000000000000000000000000000060448201526064016107b6565b6040516001600160a01b03808516602483015283166044820152606481018290526128e29085907f23b872dd00000000000000000000000000000000000000000000000000000000906084015b60408051601f198184030181529190526020810180517bffffffffffffffffffffffffffffffffffffffffffffffffffffffff167fffffffff000000000000000000000000000000000000000000000000000000009093169290921790915261301e565b50505050565b6128f0613106565b60c9805460ff191690557f5db9ee0a495bf2e6ff9c91a7834c1ba4fdd244a5e8aa4e537bd38aeae4b073aa335b6040516001600160a01b03909116815260200160405180910390a1565b600054610100900460ff166129a55760405162461bcd60e51b815260206004820152602b60248201527f496e697469616c697a61626c653a20636f6e7472616374206973206e6f74206960448201526a6e697469616c697a696e6760a81b60648201526084016107b6565b612701613158565b600054610100900460ff166127015760405162461bcd60e51b815260206004820152602b60248201527f496e697469616c697a61626c653a20636f6e7472616374206973206e6f74206960448201526a6e697469616c697a696e6760a81b60648201526084016107b6565b600054610100900460ff16612a835760405162461bcd60e51b815260206004820152602b60248201527f496e697469616c697a61626c653a20636f6e7472616374206973206e6f74206960448201526a6e697469616c697a696e6760a81b60648201526084016107b6565b6127016131c3565b600054610100900460ff16612af65760405162461bcd60e51b815260206004820152602b60248201527f496e697469616c697a61626c653a20636f6e7472616374206973206e6f74206960448201526a6e697469616c697a696e6760a81b60648201526084016107b6565b610b30828261323a565b61016c8190556040518181527f699d7bc1fd2d92f6912f04b6a309ef25ec3937479e80cdc04b75f234a724e9a29060200160405180910390a150565b612b446127de565b60c9805460ff191660011790557f62e78cea01bee320cd4e420270b5ea74000d11b0c9f74754ebdbfc544b05a25861291d3390565b604080517fb1dd0bed30d3b8ab9fc76313ecb7db14f6b497d5f1f7859fa5cb5811c1ca30736020820152908101879052606081018690526001600160a01b038516608082015260a0810184905260c081018390526000908190612bf49060e001604051602081830303815290604052805190602001206132cd565b90506000612c028285613315565b610163546001600160a01b039182169116149998505050505050505050565b606060fd8054612c309061429f565b80601f0160208091040260200160405190810160405280929190818152602001828054612c5c9061429f565b8015612ca95780601f10612c7e57610100808354040283529160200191612ca9565b820191906000526020600020905b815481529060010190602001808311612c8c57829003601f168201915b5050505050905090565b606060fe8054612c309061429f565b6040516001600160a01b038316602482015260448101829052610aa39084907fa9059cbb000000000000000000000000000000000000000000000000000000009060640161287e565b6000611d7e8383613339565b600261012f5403612d6a5760405162461bcd60e51b815260206004820152601f60248201527f5265656e7472616e637947756172643a207265656e7472616e742063616c6c0060448201526064016107b6565b600261012f55565b604080516001600160a01b038416602482015260448082018490528251808303909101815260649091019091526020810180517bffffffffffffffffffffffffffffffffffffffffffffffffffffffff167f095ea7b300000000000000000000000000000000000000000000000000000000179052612df18482613363565b6128e2576040516001600160a01b038416602482015260006044820152612e3e9085907f095ea7b3000000000000000000000000000000000000000000000000000000009060640161287e565b6128e2848261301e565b600161012f55565b600061091f825490565b60008281526065602090815260408083206001600160a01b038516845290915290205460ff16610b3057612e8d8161340a565b612e9883602061341c565b604051602001612ea99291906142d9565b60408051601f198184030181529082905262461bcd60e51b82526107b69160040161435a565b60008281526065602090815260408083206001600160a01b038516845290915290205460ff16610b305760008281526065602090815260408083206001600160a01b03851684529091529020805460ff19166001179055612f2d3390565b6001600160a01b0316816001600160a01b0316837f2f8788117e7eff1d82e926ec794901d17c78024a50270940304540a733656f0d60405160405180910390a45050565b6000611d7e836001600160a01b038416613645565b60008281526065602090815260408083206001600160a01b038516845290915290205460ff1615610b305760008281526065602090815260408083206001600160a01b0385168085529252808320805460ff1916905551339285917ff6391f5c32d9c69d2a47ea670b442974b53935d1edc7fd64eb21e047a839171b9190a45050565b6000611d7e836001600160a01b038416613694565b6000613073826040518060400160405280602081526020017f5361666545524332303a206c6f772d6c6576656c2063616c6c206661696c6564815250856001600160a01b03166137879092919063ffffffff16565b9050805160001480613094575080806020019051810190613094919061436d565b610aa35760405162461bcd60e51b815260206004820152602a60248201527f5361666545524332303a204552433230206f7065726174696f6e20646964206e60448201527f6f7420737563636565640000000000000000000000000000000000000000000060648201526084016107b6565b60c95460ff166127015760405162461bcd60e51b815260206004820152601460248201527f5061757361626c653a206e6f742070617573656400000000000000000000000060448201526064016107b6565b600054610100900460ff16612e485760405162461bcd60e51b815260206004820152602b60248201527f496e697469616c697a61626c653a20636f6e7472616374206973206e6f74206960448201526a6e697469616c697a696e6760a81b60648201526084016107b6565b600054610100900460ff1661322e5760405162461bcd60e51b815260206004820152602b60248201527f496e697469616c697a61626c653a20636f6e7472616374206973206e6f74206960448201526a6e697469616c697a696e6760a81b60648201526084016107b6565b60c9805460ff19169055565b600054610100900460ff166132a55760405162461bcd60e51b815260206004820152602b60248201527f496e697469616c697a61626c653a20636f6e7472616374206973206e6f74206960448201526a6e697469616c697a696e6760a81b60648201526084016107b6565b60fd6132b183826143d6565b5060fe6132be82826143d6565b5050600060fb81905560fc5550565b600061091f6132da61379e565b836040517f19010000000000000000000000000000000000000000000000000000000000008152600281019290925260228201526042902090565b600080600061332485856137ad565b91509150613331816137f2565b509392505050565b600082600001828154811061335057613350614192565b9060005260206000200154905092915050565b6000806000846001600160a01b0316846040516133809190614495565b6000604051808303816000865af19150503d80600081146133bd576040519150601f19603f3d011682016040523d82523d6000602084013e6133c2565b606091505b50915091508180156133ec5750805115806133ec5750808060200190518101906133ec919061436d565b801561340157506001600160a01b0385163b15155b95945050505050565b606061091f6001600160a01b03831660145b6060600061342b8360026141be565b6134369060026141f7565b67ffffffffffffffff81111561344e5761344e613d8d565b6040519080825280601f01601f191660200182016040528015613478576020820181803683370190505b5090507f3000000000000000000000000000000000000000000000000000000000000000816000815181106134af576134af614192565b60200101907effffffffffffffffffffffffffffffffffffffffffffffffffffffffffffff1916908160001a9053507f78000000000000000000000000000000000000000000000000000000000000008160018151811061351257613512614192565b60200101907effffffffffffffffffffffffffffffffffffffffffffffffffffffffffffff1916908160001a905350600061354e8460026141be565b6135599060016141f7565b90505b60018111156135f6577f303132333435363738396162636465660000000000000000000000000000000085600f166010811061359a5761359a614192565b1a60f81b8282815181106135b0576135b0614192565b60200101907effffffffffffffffffffffffffffffffffffffffffffffffffffffffffffff1916908160001a90535060049490941c936135ef816144b1565b905061355c565b508315611d7e5760405162461bcd60e51b815260206004820181905260248201527f537472696e67733a20686578206c656e67746820696e73756666696369656e7460448201526064016107b6565b600081815260018301602052604081205461368c5750815460018181018455600084815260208082209093018490558454848252828601909352604090209190915561091f565b50600061091f565b6000818152600183016020526040812054801561377d5760006136b860018361420a565b85549091506000906136cc9060019061420a565b90508181146137315760008660000182815481106136ec576136ec614192565b906000526020600020015490508087600001848154811061370f5761370f614192565b6000918252602080832090910192909255918252600188019052604090208390555b8554869080613742576137426144c8565b60019003818190600052602060002001600090559055856001016000868152602001908152602001600020600090556001935050505061091f565b600091505061091f565b60606137968484600085613957565b949350505050565b60006137a8613a49565b905090565b60008082516041036137e35760208301516040840151606085015160001a6137d787828585613abd565b945094505050506137eb565b506000905060025b9250929050565b600081600481111561380657613806614112565b0361380e5750565b600181600481111561382257613822614112565b0361386f5760405162461bcd60e51b815260206004820152601860248201527f45434453413a20696e76616c6964207369676e6174757265000000000000000060448201526064016107b6565b600281600481111561388357613883614112565b036138d05760405162461bcd60e51b815260206004820152601f60248201527f45434453413a20696e76616c6964207369676e6174757265206c656e6774680060448201526064016107b6565b60038160048111156138e4576138e4614112565b036111d75760405162461bcd60e51b815260206004820152602260248201527f45434453413a20696e76616c6964207369676e6174757265202773272076616c60448201527f756500000000000000000000000000000000000000000000000000000000000060648201526084016107b6565b6060824710156139cf5760405162461bcd60e51b815260206004820152602660248201527f416464726573733a20696e73756666696369656e742062616c616e636520666f60448201527f722063616c6c000000000000000000000000000000000000000000000000000060648201526084016107b6565b600080866001600160a01b031685876040516139eb9190614495565b60006040518083038185875af1925050503d8060008114613a28576040519150601f19603f3d011682016040523d82523d6000602084013e613a2d565b606091505b5091509150613a3e87838387613b81565b979650505050505050565b60007f8b73c3c69bb8fe3d512ecc4cf759cc79239f7b179b0ffacaa9a75d522b39400f613a74613bfa565b613a7c613c53565b60408051602081019490945283019190915260608201524660808201523060a082015260c00160405160208183030381529060405280519060200120905090565b6000807f7fffffffffffffffffffffffffffffff5d576e7357a4501ddfe92f46681b20a0831115613af45750600090506003613b78565b6040805160008082526020820180845289905260ff881692820192909252606081018690526080810185905260019060a0016020604051602081039080840390855afa158015613b48573d6000803e3d6000fd5b5050604051601f1901519150506001600160a01b038116613b7157600060019250925050613b78565b9150600090505b94509492505050565b60608315613bf0578251600003613be9576001600160a01b0385163b613be95760405162461bcd60e51b815260206004820152601d60248201527f416464726573733a2063616c6c20746f206e6f6e2d636f6e747261637400000060448201526064016107b6565b5081613796565b6137968383613c84565b600080613c05612c21565b805190915015613c1c578051602090910120919050565b60fb548015613c2b5792915050565b7fc5d2460186f7233c927e7db2dcc703c0e500b653ca82273b7bfad8045d85a4709250505090565b600080613c5e612cb3565b805190915015613c75578051602090910120919050565b60fc548015613c2b5792915050565b815115613c945781518083602001fd5b8060405162461bcd60e51b81526004016107b6919061435a565b6001600160a01b03811681146111d757600080fd5b600060208284031215613cd557600080fd5b8135611d7e81613cae565b600060208284031215613cf257600080fd5b81357fffffffff0000000000000000000000000000000000000000000000000000000081168114611d7e57600080fd5b60008060408385031215613d3557600080fd5b50508035926020909101359150565b600060208284031215613d5657600080fd5b5035919050565b60008060408385031215613d7057600080fd5b823591506020830135613d8281613cae565b809150509250929050565b634e487b7160e01b600052604160045260246000fd5b604051601f8201601f1916810167ffffffffffffffff81118282101715613dcc57613dcc613d8d565b604052919050565b600080600060608486031215613de957600080fd5b83359250602084013567ffffffffffffffff811115613e0757600080fd5b8401601f81018613613e1857600080fd5b803567ffffffffffffffff811115613e3257613e32613d8d565b8060051b613e4260208201613da3565b91825260208184018101929081019089841115613e5e57600080fd5b6020850194505b83851015613e8457843580835260209586019590935090910190613e65565b96999698505050506040949094013593505050565b60008060408385031215613eac57600080fd5b8235613eb781613cae565b946020939093013593505050565b60008060008060008060c08789031215613ede57600080fd5b8635613ee981613cae565b95506020870135613ef981613cae565b94506040870135613f0981613cae565b959894975094956060810135955060808101359460a0909101359350915050565b60008060008060008060c08789031215613f4357600080fd5b86359550602087013594506040870135613f5c81613cae565b9350606087013592506080870135915060a087013567ffffffffffffffff811115613f8657600080fd5b8701601f81018913613f9757600080fd5b803567ffffffffffffffff811115613fb157613fb1613d8d565b613fc46020601f19601f84011601613da3565b8181528a6020838501011115613fd957600080fd5b816020840160208301376000602083830101528093505050509295509295509295565b60005b83811015614017578181015183820152602001613fff565b50506000910152565b60008151808452614038816020860160208601613ffc565b601f01601f19169290920160200192915050565b600081518084526020840193506020830160005b8281101561407e578151865260209586019590910190600101614060565b5093949350505050565b7fff000000000000000000000000000000000000000000000000000000000000008816815260e0602082015260006140c360e0830189614020565b82810360408401526140d58189614020565b90508660608401526001600160a01b03861660808401528460a084015282810360c0840152614104818561404c565b9a9950505050505050505050565b634e487b7160e01b600052602160045260246000fd5b6001600160a01b03898116825288166020820152604081018790526060810186905261010081016004861061416d57634e487b7160e01b600052602160045260246000fd5b8560808301528460a08301528360c08301528260e08301529998505050505050505050565b634e487b7160e01b600052603260045260246000fd5b634e487b7160e01b600052601160045260246000fd5b808202811582820484141761091f5761091f6141a8565b6000826141f257634e487b7160e01b600052601260045260246000fd5b500490565b8082018082111561091f5761091f6141a8565b8181038181111561091f5761091f6141a8565b60006020828403121561422f57600080fd5b5051919050565b83815260606020820152600061424f606083018561404c565b9050826040830152949350505050565b60006020828403121561427157600080fd5b8151611d7e81613cae565b60006020828403121561428e57600080fd5b815160ff81168114611d7e57600080fd5b600181811c908216806142b357607f821691505b6020821081036142d357634e487b7160e01b600052602260045260246000fd5b50919050565b7f416363657373436f6e74726f6c3a206163636f756e7420000000000000000000815260008351614311816017850160208801613ffc565b7f206973206d697373696e6720726f6c6520000000000000000000000000000000601791840191820152835161434e816028840160208801613ffc565b01602801949350505050565b602081526000611d7e6020830184614020565b60006020828403121561437f57600080fd5b81518015158114611d7e57600080fd5b601f821115610aa357806000526020600020601f840160051c810160208510156143b65750805b601f840160051c820191505b8181101561252e57600081556001016143c2565b815167ffffffffffffffff8111156143f0576143f0613d8d565b614404816143fe845461429f565b8461438f565b6020601f82116001811461443857600083156144205750848201515b600019600385901b1c1916600184901b17845561252e565b600084815260208120601f198516915b828110156144685787850151825560209485019460019092019101614448565b50848210156144865786840151600019600387901b60f8161c191681555b50505050600190811b01905550565b600082516144a7818460208701613ffc565b9190910192915050565b6000816144c0576144c06141a8565b506000190190565b634e487b7160e01b600052603160045260246000fdfea2646970667358221220de03415812f039b17ce65827f41cfc691f2294913ee055ccce19b4290c31a65e64736f6c634300081c0033","opcodes":"PUSH1 0x80 PUSH1 0x40 MSTORE CALLVALUE DUP1 ISZERO PUSH1 0xF JUMPI PUSH1 0x0 DUP1 REVERT JUMPDEST POP PUSH1 0x16 PUSH1 0x1A JUMP JUMPDEST PUSH1 0xD7 JUMP JUMPDEST PUSH1 0x0 SLOAD PUSH2 0x100 SWAP1 DIV PUSH1 0xFF AND ISZERO PUSH1 0x85 JUMPI PUSH1 0x40 MLOAD PUSH3 0x461BCD PUSH1 0xE5 SHL DUP2 MSTORE PUSH1 0x20 PUSH1 0x4 DUP3 ADD MSTORE PUSH1 0x27 PUSH1 0x24 DUP3 ADD MSTORE PUSH32 0x496E697469616C697A61626C653A20636F6E747261637420697320696E697469 PUSH1 0x44 DUP3 ADD MSTORE PUSH7 0x616C697A696E67 PUSH1 0xC8 SHL PUSH1 0x64 DUP3 ADD MSTORE PUSH1 0x84 ADD PUSH1 0x40 MLOAD DUP1 SWAP2 SUB SWAP1 REVERT JUMPDEST PUSH1 0x0 SLOAD PUSH1 0xFF SWAP1 DUP2 AND EQ PUSH1 0xD5 JUMPI PUSH1 0x0 DUP1 SLOAD PUSH1 0xFF NOT AND PUSH1 0xFF SWAP1 DUP2 OR SWAP1 SWAP2 SSTORE PUSH1 0x40 MLOAD SWAP1 DUP2 MSTORE PUSH32 0x7F26B83FF96E1F2B6A682F133852F6798A09C465DA95921460CEFB3847402498 SWAP1 PUSH1 0x20 ADD PUSH1 0x40 MLOAD DUP1 SWAP2 SUB SWAP1 LOG1 JUMPDEST JUMP JUMPDEST PUSH2 0x4514 DUP1 PUSH2 0xE6 PUSH1 0x0 CODECOPY PUSH1 0x0 RETURN INVALID PUSH1 0x80 PUSH1 0x40 MSTORE CALLVALUE DUP1 ISZERO PUSH2 0x10 JUMPI PUSH1 0x0 DUP1 REVERT JUMPDEST POP PUSH1 0x4 CALLDATASIZE LT PUSH2 0x30A JUMPI PUSH1 0x0 CALLDATALOAD PUSH1 0xE0 SHR DUP1 PUSH4 0x7B9F7D94 GT PUSH2 0x19C JUMPI DUP1 PUSH4 0xB54790D8 GT PUSH2 0xEE JUMPI DUP1 PUSH4 0xDEAF30B2 GT PUSH2 0x97 JUMPI DUP1 PUSH4 0xECF70858 GT PUSH2 0x71 JUMPI DUP1 PUSH4 0xECF70858 EQ PUSH2 0x6EA JUMPI DUP1 PUSH4 0xF36FBAB7 EQ PUSH2 0x6F4 JUMPI DUP1 PUSH4 0xFB1BB9DE EQ PUSH2 0x707 JUMPI PUSH1 0x0 DUP1 REVERT JUMPDEST DUP1 PUSH4 0xDEAF30B2 EQ PUSH2 0x698 JUMPI DUP1 PUSH4 0xE63AB1E9 EQ PUSH2 0x6B9 JUMPI DUP1 PUSH4 0xE94B2F44 EQ PUSH2 0x6E0 JUMPI PUSH1 0x0 DUP1 REVERT JUMPDEST DUP1 PUSH4 0xCA15C873 GT PUSH2 0xC8 JUMPI DUP1 PUSH4 0xCA15C873 EQ PUSH2 0x65F JUMPI DUP1 PUSH4 0xCCE4705B EQ PUSH2 0x672 JUMPI DUP1 PUSH4 0xD547741F EQ PUSH2 0x685 JUMPI PUSH1 0x0 DUP1 REVERT JUMPDEST DUP1 PUSH4 0xB54790D8 EQ PUSH2 0x638 JUMPI DUP1 PUSH4 0xB6B55F25 EQ PUSH2 0x642 JUMPI DUP1 PUSH4 0xBCA7093D EQ PUSH2 0x655 JUMPI PUSH1 0x0 DUP1 REVERT JUMPDEST DUP1 PUSH4 0x9010D07C GT PUSH2 0x150 JUMPI DUP1 PUSH4 0x992A7DFB GT PUSH2 0x12A JUMPI DUP1 PUSH4 0x992A7DFB EQ PUSH2 0x5E2 JUMPI DUP1 PUSH4 0xA2011B3F EQ PUSH2 0x609 JUMPI DUP1 PUSH4 0xA217FDDF EQ PUSH2 0x630 JUMPI PUSH1 0x0 DUP1 REVERT JUMPDEST DUP1 PUSH4 0x9010D07C EQ PUSH2 0x583 JUMPI DUP1 PUSH4 0x91D14854 EQ PUSH2 0x596 JUMPI DUP1 PUSH4 0x973B294F EQ PUSH2 0x5CF JUMPI PUSH1 0x0 DUP1 REVERT JUMPDEST DUP1 PUSH4 0x849FC72B GT PUSH2 0x181 JUMPI DUP1 PUSH4 0x849FC72B EQ PUSH2 0x542 JUMPI DUP1 PUSH4 0x84B0196E EQ PUSH2 0x555 JUMPI DUP1 PUSH4 0x86DA0323 EQ PUSH2 0x570 JUMPI PUSH1 0x0 DUP1 REVERT JUMPDEST DUP1 PUSH4 0x7B9F7D94 EQ PUSH2 0x52B JUMPI DUP1 PUSH4 0x8456CB59 EQ PUSH2 0x53A JUMPI PUSH1 0x0 DUP1 REVERT JUMPDEST DUP1 PUSH4 0x3F4BA83A GT PUSH2 0x260 JUMPI DUP1 PUSH4 0x6C19E783 GT PUSH2 0x209 JUMPI DUP1 PUSH4 0x7278BD9B GT PUSH2 0x1E3 JUMPI DUP1 PUSH4 0x7278BD9B EQ PUSH2 0x504 JUMPI DUP1 PUSH4 0x728CDBCA EQ PUSH2 0x50E JUMPI DUP1 PUSH4 0x7B80889B EQ PUSH2 0x521 JUMPI PUSH1 0x0 DUP1 REVERT JUMPDEST DUP1 PUSH4 0x6C19E783 EQ PUSH2 0x4CA JUMPI DUP1 PUSH4 0x6D9DD201 EQ PUSH2 0x4DD JUMPI DUP1 PUSH4 0x6E74BF96 EQ PUSH2 0x4F1 JUMPI PUSH1 0x0 DUP1 REVERT JUMPDEST DUP1 PUSH4 0x5C975ABB GT PUSH2 0x23A JUMPI DUP1 PUSH4 0x5C975ABB EQ PUSH2 0x469 JUMPI DUP1 PUSH4 0x64D4C819 EQ PUSH2 0x474 JUMPI DUP1 PUSH4 0x6A8A6894 EQ PUSH2 0x49B JUMPI PUSH1 0x0 DUP1 REVERT JUMPDEST DUP1 PUSH4 0x3F4BA83A EQ PUSH2 0x439 JUMPI DUP1 PUSH4 0x49A7A26D EQ PUSH2 0x441 JUMPI DUP1 PUSH4 0x5849B93D EQ PUSH2 0x455 JUMPI PUSH1 0x0 DUP1 REVERT JUMPDEST DUP1 PUSH4 0x238AC933 GT PUSH2 0x2C2 JUMPI DUP1 PUSH4 0x30D3C534 GT PUSH2 0x29C JUMPI DUP1 PUSH4 0x30D3C534 EQ PUSH2 0x3EC JUMPI DUP1 PUSH4 0x36568ABE EQ PUSH2 0x413 JUMPI DUP1 PUSH4 0x3E55FDE0 EQ PUSH2 0x426 JUMPI PUSH1 0x0 DUP1 REVERT JUMPDEST DUP1 PUSH4 0x238AC933 EQ PUSH2 0x38A JUMPI DUP1 PUSH4 0x248A9CA3 EQ PUSH2 0x3B6 JUMPI DUP1 PUSH4 0x2F2FF15D EQ PUSH2 0x3D9 JUMPI PUSH1 0x0 DUP1 REVERT JUMPDEST DUP1 PUSH4 0xA608501 GT PUSH2 0x2F3 JUMPI DUP1 PUSH4 0xA608501 EQ PUSH2 0x34C JUMPI DUP1 PUSH4 0x1813FBE9 EQ PUSH2 0x364 JUMPI DUP1 PUSH4 0x1F879433 EQ PUSH2 0x377 JUMPI PUSH1 0x0 DUP1 REVERT JUMPDEST DUP1 PUSH4 0x1569E3A EQ PUSH2 0x30F JUMPI DUP1 PUSH4 0x1FFC9A7 EQ PUSH2 0x324 JUMPI JUMPDEST PUSH1 0x0 DUP1 REVERT JUMPDEST PUSH2 0x322 PUSH2 0x31D CALLDATASIZE PUSH1 0x4 PUSH2 0x3CC3 JUMP JUMPDEST PUSH2 0x72E JUMP JUMPDEST STOP JUMPDEST PUSH2 0x337 PUSH2 0x332 CALLDATASIZE PUSH1 0x4 PUSH2 0x3CE0 JUMP JUMPDEST PUSH2 0x8C9 JUMP JUMPDEST PUSH1 0x40 MLOAD SWAP1 ISZERO ISZERO DUP2 MSTORE PUSH1 0x20 ADD JUMPDEST PUSH1 0x40 MLOAD DUP1 SWAP2 SUB SWAP1 RETURN JUMPDEST PUSH2 0x356 PUSH2 0x168 SLOAD DUP2 JUMP JUMPDEST PUSH1 0x40 MLOAD SWAP1 DUP2 MSTORE PUSH1 0x20 ADD PUSH2 0x343 JUMP JUMPDEST PUSH2 0x322 PUSH2 0x372 CALLDATASIZE PUSH1 0x4 PUSH2 0x3D22 JUMP JUMPDEST PUSH2 0x925 JUMP JUMPDEST PUSH2 0x322 PUSH2 0x385 CALLDATASIZE PUSH1 0x4 PUSH2 0x3CC3 JUMP JUMPDEST PUSH2 0x999 JUMP JUMPDEST PUSH2 0x163 SLOAD PUSH2 0x39E SWAP1 PUSH1 0x1 PUSH1 0x1 PUSH1 0xA0 SHL SUB AND DUP2 JUMP JUMPDEST PUSH1 0x40 MLOAD PUSH1 0x1 PUSH1 0x1 PUSH1 0xA0 SHL SUB SWAP1 SWAP2 AND DUP2 MSTORE PUSH1 0x20 ADD PUSH2 0x343 JUMP JUMPDEST PUSH2 0x356 PUSH2 0x3C4 CALLDATASIZE PUSH1 0x4 PUSH2 0x3D44 JUMP JUMPDEST PUSH1 0x0 SWAP1 DUP2 MSTORE PUSH1 0x65 PUSH1 0x20 MSTORE PUSH1 0x40 SWAP1 KECCAK256 PUSH1 0x1 ADD SLOAD SWAP1 JUMP JUMPDEST PUSH2 0x322 PUSH2 0x3E7 CALLDATASIZE PUSH1 0x4 PUSH2 0x3D5D JUMP JUMPDEST PUSH2 0xA7E JUMP JUMPDEST PUSH2 0x356 PUSH32 0x372387BD01807B923229B5BD1E46F8A6B8815B5D5DB581DB3E993C5168467B27 DUP2 JUMP JUMPDEST PUSH2 0x322 PUSH2 0x421 CALLDATASIZE PUSH1 0x4 PUSH2 0x3D5D JUMP JUMPDEST PUSH2 0xAA8 JUMP JUMPDEST PUSH2 0x322 PUSH2 0x434 CALLDATASIZE PUSH1 0x4 PUSH2 0x3DD4 JUMP JUMPDEST PUSH2 0xB34 JUMP JUMPDEST PUSH2 0x322 PUSH2 0x11A5 JUMP JUMPDEST PUSH2 0x162 SLOAD PUSH2 0x39E SWAP1 PUSH1 0x1 PUSH1 0x1 PUSH1 0xA0 SHL SUB AND DUP2 JUMP JUMPDEST PUSH2 0x161 SLOAD PUSH2 0x39E SWAP1 PUSH1 0x1 PUSH1 0x1 PUSH1 0xA0 SHL SUB AND DUP2 JUMP JUMPDEST PUSH1 0xC9 SLOAD PUSH1 0xFF AND PUSH2 0x337 JUMP JUMPDEST PUSH2 0x356 PUSH32 0xB1DD0BED30D3B8AB9FC76313ECB7DB14F6B497D5F1F7859FA5CB5811C1CA3073 DUP2 JUMP JUMPDEST PUSH2 0x337 PUSH2 0x4A9 CALLDATASIZE PUSH1 0x4 PUSH2 0x3E99 JUMP JUMPDEST PUSH2 0x16E PUSH1 0x20 SWAP1 DUP2 MSTORE PUSH1 0x0 SWAP3 DUP4 MSTORE PUSH1 0x40 DUP1 DUP5 KECCAK256 SWAP1 SWAP2 MSTORE SWAP1 DUP3 MSTORE SWAP1 KECCAK256 SLOAD PUSH1 0xFF AND DUP2 JUMP JUMPDEST PUSH2 0x322 PUSH2 0x4D8 CALLDATASIZE PUSH1 0x4 PUSH2 0x3CC3 JUMP JUMPDEST PUSH2 0x11DA JUMP JUMPDEST PUSH2 0x164 SLOAD PUSH2 0x39E SWAP1 PUSH1 0x1 PUSH1 0x1 PUSH1 0xA0 SHL SUB AND DUP2 JUMP JUMPDEST PUSH2 0x322 PUSH2 0x4FF CALLDATASIZE PUSH1 0x4 PUSH2 0x3D44 JUMP JUMPDEST PUSH2 0x12BF JUMP JUMPDEST PUSH2 0x356 PUSH2 0x166 SLOAD DUP2 JUMP JUMPDEST PUSH2 0x322 PUSH2 0x51C CALLDATASIZE PUSH1 0x4 PUSH2 0x3EC5 JUMP JUMPDEST PUSH2 0x1422 JUMP JUMPDEST PUSH2 0x356 PUSH2 0x165 SLOAD DUP2 JUMP JUMPDEST PUSH2 0x356 PUSH8 0x6F05B59D3B20000 DUP2 JUMP JUMPDEST PUSH2 0x322 PUSH2 0x163B JUMP JUMPDEST PUSH2 0x322 PUSH2 0x550 CALLDATASIZE PUSH1 0x4 PUSH2 0x3F2A JUMP JUMPDEST PUSH2 0x166D JUMP JUMPDEST PUSH2 0x55D PUSH2 0x1A43 JUMP JUMPDEST PUSH1 0x40 MLOAD PUSH2 0x343 SWAP8 SWAP7 SWAP6 SWAP5 SWAP4 SWAP3 SWAP2 SWAP1 PUSH2 0x4088 JUMP JUMPDEST PUSH2 0x322 PUSH2 0x57E CALLDATASIZE PUSH1 0x4 PUSH2 0x3D44 JUMP JUMPDEST PUSH2 0x1B05 JUMP JUMPDEST PUSH2 0x39E PUSH2 0x591 CALLDATASIZE PUSH1 0x4 PUSH2 0x3D22 JUMP JUMPDEST PUSH2 0x1D66 JUMP JUMPDEST PUSH2 0x337 PUSH2 0x5A4 CALLDATASIZE PUSH1 0x4 PUSH2 0x3D5D JUMP JUMPDEST PUSH1 0x0 SWAP2 DUP3 MSTORE PUSH1 0x65 PUSH1 0x20 SWAP1 DUP2 MSTORE PUSH1 0x40 DUP1 DUP5 KECCAK256 PUSH1 0x1 PUSH1 0x1 PUSH1 0xA0 SHL SUB SWAP4 SWAP1 SWAP4 AND DUP5 MSTORE SWAP2 SWAP1 MSTORE SWAP1 KECCAK256 SLOAD PUSH1 0xFF AND SWAP1 JUMP JUMPDEST PUSH2 0x322 PUSH2 0x5DD CALLDATASIZE PUSH1 0x4 PUSH2 0x3D44 JUMP JUMPDEST PUSH2 0x1D85 JUMP JUMPDEST PUSH2 0x5F5 PUSH2 0x5F0 CALLDATASIZE PUSH1 0x4 PUSH2 0x3D44 JUMP JUMPDEST PUSH2 0x1DB8 JUMP JUMPDEST PUSH1 0x40 MLOAD PUSH2 0x343 SWAP9 SWAP8 SWAP7 SWAP6 SWAP5 SWAP4 SWAP3 SWAP2 SWAP1 PUSH2 0x4128 JUMP JUMPDEST PUSH2 0x356 PUSH32 0x61C92169EF077349011FF0B1383C894D86C5F0B41D986366B58A6CF31E93BEDA DUP2 JUMP JUMPDEST PUSH2 0x356 PUSH1 0x0 DUP2 JUMP JUMPDEST PUSH2 0x356 PUSH2 0x16A SLOAD DUP2 JUMP JUMPDEST PUSH2 0x322 PUSH2 0x650 CALLDATASIZE PUSH1 0x4 PUSH2 0x3D44 JUMP JUMPDEST PUSH2 0x1E1F JUMP JUMPDEST PUSH2 0x356 PUSH2 0x16C SLOAD DUP2 JUMP JUMPDEST PUSH2 0x356 PUSH2 0x66D CALLDATASIZE PUSH1 0x4 PUSH2 0x3D44 JUMP JUMPDEST PUSH2 0x2081 JUMP JUMPDEST PUSH2 0x322 PUSH2 0x680 CALLDATASIZE PUSH1 0x4 PUSH2 0x3D44 JUMP JUMPDEST PUSH2 0x2098 JUMP JUMPDEST PUSH2 0x322 PUSH2 0x693 CALLDATASIZE PUSH1 0x4 PUSH2 0x3D5D JUMP JUMPDEST PUSH2 0x22C0 JUMP JUMPDEST PUSH2 0x356 PUSH2 0x6A6 CALLDATASIZE PUSH1 0x4 PUSH2 0x3CC3 JUMP JUMPDEST PUSH2 0x16D PUSH1 0x20 MSTORE PUSH1 0x0 SWAP1 DUP2 MSTORE PUSH1 0x40 SWAP1 KECCAK256 SLOAD DUP2 JUMP JUMPDEST PUSH2 0x356 PUSH32 0x65D7A28E3265B37A6474929F336521B332C1681B933F6CB9F3376673440D862A DUP2 JUMP JUMPDEST PUSH2 0x356 PUSH2 0x169 SLOAD DUP2 JUMP JUMPDEST PUSH2 0x356 PUSH2 0x167 SLOAD DUP2 JUMP JUMPDEST PUSH2 0x322 PUSH2 0x702 CALLDATASIZE PUSH1 0x4 PUSH2 0x3E99 JUMP JUMPDEST PUSH2 0x22E5 JUMP JUMPDEST PUSH2 0x356 PUSH32 0x427DA25FE773164F88948D3E215C94B6554E2ED5E5F203A821C9F2F6131CF75A DUP2 JUMP JUMPDEST PUSH32 0x61C92169EF077349011FF0B1383C894D86C5F0B41D986366B58A6CF31E93BEDA PUSH2 0x758 DUP2 PUSH2 0x2535 JUMP JUMPDEST PUSH1 0x1 PUSH1 0x1 PUSH1 0xA0 SHL SUB DUP3 AND PUSH2 0x7BF JUMPI PUSH1 0x40 MLOAD PUSH3 0x461BCD PUSH1 0xE5 SHL DUP2 MSTORE PUSH1 0x20 PUSH1 0x4 DUP3 ADD MSTORE PUSH1 0x23 PUSH1 0x24 DUP3 ADD MSTORE PUSH32 0x53796D6D696F536F6C7665724465706F7369746F723A205A65726F2061646472 PUSH1 0x44 DUP3 ADD MSTORE PUSH3 0x657373 PUSH1 0xE8 SHL PUSH1 0x64 DUP3 ADD MSTORE PUSH1 0x84 ADD JUMPDEST PUSH1 0x40 MLOAD DUP1 SWAP2 SUB SWAP1 REVERT JUMPDEST PUSH2 0x161 DUP1 SLOAD PUSH20 0xFFFFFFFFFFFFFFFFFFFFFFFFFFFFFFFFFFFFFFFF NOT AND PUSH1 0x1 PUSH1 0x1 PUSH1 0xA0 SHL SUB DUP5 DUP2 AND SWAP2 SWAP1 SWAP2 OR SWAP1 SWAP2 SSTORE PUSH2 0x164 SLOAD AND PUSH2 0x7FA PUSH2 0x253F JUMP JUMPDEST PUSH2 0x164 SLOAD PUSH1 0x1 PUSH1 0x1 PUSH1 0xA0 SHL SUB DUP3 DUP2 AND SWAP2 AND EQ DUP1 PUSH2 0x81E JUMPI POP PUSH1 0x1 PUSH1 0x1 PUSH1 0xA0 SHL SUB DUP2 AND ISZERO JUMPDEST PUSH2 0x890 JUMPI PUSH1 0x40 MLOAD PUSH3 0x461BCD PUSH1 0xE5 SHL DUP2 MSTORE PUSH1 0x20 PUSH1 0x4 DUP3 ADD MSTORE PUSH1 0x34 PUSH1 0x24 DUP3 ADD MSTORE PUSH32 0x53796D6D696F536F6C7665724465706F7369746F723A20436F6C6C6174657261 PUSH1 0x44 DUP3 ADD MSTORE PUSH32 0x6C2063616E206E6F74206265206368616E676564000000000000000000000000 PUSH1 0x64 DUP3 ADD MSTORE PUSH1 0x84 ADD PUSH2 0x7B6 JUMP JUMPDEST PUSH1 0x40 MLOAD PUSH1 0x1 PUSH1 0x1 PUSH1 0xA0 SHL SUB DUP5 AND SWAP1 PUSH32 0xE5AF12E9ABB914276D8E0A5A01AA97D26F4C81E3002646F90824C20639531044 SWAP1 PUSH1 0x0 SWAP1 LOG2 POP POP POP JUMP JUMPDEST PUSH1 0x0 PUSH32 0xFFFFFFFF00000000000000000000000000000000000000000000000000000000 DUP3 AND PUSH32 0x5A05180F00000000000000000000000000000000000000000000000000000000 EQ DUP1 PUSH2 0x91F JUMPI POP PUSH2 0x91F DUP3 PUSH2 0x2703 JUMP JUMPDEST SWAP3 SWAP2 POP POP JUMP JUMPDEST PUSH32 0x61C92169EF077349011FF0B1383C894D86C5F0B41D986366B58A6CF31E93BEDA PUSH2 0x94F DUP2 PUSH2 0x2535 JUMP JUMPDEST PUSH2 0x167 DUP4 SWAP1 SSTORE PUSH2 0x168 DUP3 SWAP1 SSTORE PUSH1 0x40 DUP1 MLOAD DUP5 DUP2 MSTORE PUSH1 0x20 DUP2 ADD DUP5 SWAP1 MSTORE PUSH32 0xEDF8B25CD37F67D45BCD7B8A30815ED96124959BC4340442887767A6A07E8050 SWAP2 ADD PUSH1 0x40 MLOAD DUP1 SWAP2 SUB SWAP1 LOG1 POP POP POP JUMP JUMPDEST PUSH32 0x61C92169EF077349011FF0B1383C894D86C5F0B41D986366B58A6CF31E93BEDA PUSH2 0x9C3 DUP2 PUSH2 0x2535 JUMP JUMPDEST PUSH1 0x1 PUSH1 0x1 PUSH1 0xA0 SHL SUB DUP3 AND PUSH2 0xA25 JUMPI PUSH1 0x40 MLOAD PUSH3 0x461BCD PUSH1 0xE5 SHL DUP2 MSTORE PUSH1 0x20 PUSH1 0x4 DUP3 ADD MSTORE PUSH1 0x23 PUSH1 0x24 DUP3 ADD MSTORE PUSH32 0x53796D6D696F536F6C7665724465706F7369746F723A205A65726F2061646472 PUSH1 0x44 DUP3 ADD MSTORE PUSH3 0x657373 PUSH1 0xE8 SHL PUSH1 0x64 DUP3 ADD MSTORE PUSH1 0x84 ADD PUSH2 0x7B6 JUMP JUMPDEST PUSH2 0x162 DUP1 SLOAD PUSH20 0xFFFFFFFFFFFFFFFFFFFFFFFFFFFFFFFFFFFFFFFF NOT AND PUSH1 0x1 PUSH1 0x1 PUSH1 0xA0 SHL SUB DUP5 AND SWAP1 DUP2 OR SWAP1 SWAP2 SSTORE PUSH1 0x40 MLOAD PUSH32 0x73C48E8C0360F51D3049FAA15518D29248FBAD9E77AD28AD94BCD1712854CA9B SWAP1 PUSH1 0x0 SWAP1 LOG2 POP POP JUMP JUMPDEST PUSH1 0x0 DUP3 DUP2 MSTORE PUSH1 0x65 PUSH1 0x20 MSTORE PUSH1 0x40 SWAP1 KECCAK256 PUSH1 0x1 ADD SLOAD PUSH2 0xA99 DUP2 PUSH2 0x2535 JUMP JUMPDEST PUSH2 0xAA3 DUP4 DUP4 PUSH2 0x279A JUMP JUMPDEST POP POP POP JUMP JUMPDEST PUSH1 0x1 PUSH1 0x1 PUSH1 0xA0 SHL SUB DUP2 AND CALLER EQ PUSH2 0xB26 JUMPI PUSH1 0x40 MLOAD PUSH3 0x461BCD PUSH1 0xE5 SHL DUP2 MSTORE PUSH1 0x20 PUSH1 0x4 DUP3 ADD MSTORE PUSH1 0x2F PUSH1 0x24 DUP3 ADD MSTORE PUSH32 0x416363657373436F6E74726F6C3A2063616E206F6E6C792072656E6F756E6365 PUSH1 0x44 DUP3 ADD MSTORE PUSH32 0x20726F6C657320666F722073656C660000000000000000000000000000000000 PUSH1 0x64 DUP3 ADD MSTORE PUSH1 0x84 ADD PUSH2 0x7B6 JUMP JUMPDEST PUSH2 0xB30 DUP3 DUP3 PUSH2 0x27BC JUMP JUMPDEST POP POP JUMP JUMPDEST PUSH32 0x372387BD01807B923229B5BD1E46F8A6B8815B5D5DB581DB3E993C5168467B27 PUSH2 0xB5E DUP2 PUSH2 0x2535 JUMP JUMPDEST PUSH2 0xB66 PUSH2 0x27DE JUMP JUMPDEST PUSH2 0xB7F CALLER PUSH2 0x164 SLOAD PUSH1 0x1 PUSH1 0x1 PUSH1 0xA0 SHL SUB AND SWAP1 ADDRESS DUP8 PUSH2 0x2831 JUMP JUMPDEST PUSH2 0x166 SLOAD DUP3 LT ISZERO PUSH2 0xBF8 JUMPI PUSH1 0x40 MLOAD PUSH3 0x461BCD PUSH1 0xE5 SHL DUP2 MSTORE PUSH1 0x20 PUSH1 0x4 DUP3 ADD MSTORE PUSH1 0x2F PUSH1 0x24 DUP3 ADD MSTORE PUSH32 0x53796D6D696F536F6C7665724465706F7369746F723A205061796261636B2072 PUSH1 0x44 DUP3 ADD MSTORE PUSH32 0x6174696F20697320746F6F206C6F770000000000000000000000000000000000 PUSH1 0x64 DUP3 ADD MSTORE PUSH1 0x84 ADD PUSH2 0x7B6 JUMP JUMPDEST PUSH8 0xDE0B6B3A7640000 DUP3 GT ISZERO PUSH2 0xC76 JUMPI PUSH1 0x40 MLOAD PUSH3 0x461BCD PUSH1 0xE5 SHL DUP2 MSTORE PUSH1 0x20 PUSH1 0x4 DUP3 ADD MSTORE PUSH1 0x30 PUSH1 0x24 DUP3 ADD MSTORE PUSH32 0x53796D6D696F536F6C7665724465706F7369746F723A205061796261636B2072 PUSH1 0x44 DUP3 ADD MSTORE PUSH32 0x6174696F20697320746F6F206869676800000000000000000000000000000000 PUSH1 0x64 DUP3 ADD MSTORE PUSH1 0x84 ADD PUSH2 0x7B6 JUMP JUMPDEST PUSH2 0x165 SLOAD PUSH1 0x0 JUMPDEST DUP5 MLOAD DUP2 LT ISZERO PUSH2 0x1061 JUMPI PUSH1 0x0 DUP6 DUP3 DUP2 MLOAD DUP2 LT PUSH2 0xC9A JUMPI PUSH2 0xC9A PUSH2 0x4192 JUMP JUMPDEST PUSH1 0x20 MUL PUSH1 0x20 ADD ADD MLOAD SWAP1 POP PUSH2 0x16B DUP1 SLOAD SWAP1 POP DUP2 LT PUSH2 0xD1F JUMPI PUSH1 0x40 MLOAD PUSH3 0x461BCD PUSH1 0xE5 SHL DUP2 MSTORE PUSH1 0x20 PUSH1 0x4 DUP3 ADD MSTORE PUSH1 0x29 PUSH1 0x24 DUP3 ADD MSTORE PUSH32 0x53796D6D696F536F6C7665724465706F7369746F723A20496E76616C69642072 PUSH1 0x44 DUP3 ADD MSTORE PUSH32 0x6571756573742049440000000000000000000000000000000000000000000000 PUSH1 0x64 DUP3 ADD MSTORE PUSH1 0x84 ADD PUSH2 0x7B6 JUMP JUMPDEST PUSH1 0x0 PUSH2 0x16B DUP3 DUP2 SLOAD DUP2 LT PUSH2 0xD35 JUMPI PUSH2 0xD35 PUSH2 0x4192 JUMP JUMPDEST PUSH1 0x0 SWAP2 DUP3 MSTORE PUSH1 0x20 SWAP1 SWAP2 KECCAK256 PUSH1 0x4 PUSH1 0x8 SWAP1 SWAP3 MUL ADD ADD SLOAD PUSH1 0xFF AND PUSH1 0x3 DUP2 GT ISZERO PUSH2 0xD5D JUMPI PUSH2 0xD5D PUSH2 0x4112 JUMP JUMPDEST EQ PUSH2 0xDD0 JUMPI PUSH1 0x40 MLOAD PUSH3 0x461BCD PUSH1 0xE5 SHL DUP2 MSTORE PUSH1 0x20 PUSH1 0x4 DUP3 ADD MSTORE PUSH1 0x2F PUSH1 0x24 DUP3 ADD MSTORE PUSH32 0x53796D6D696F536F6C7665724465706F7369746F723A20496E76616C69642061 PUSH1 0x44 DUP3 ADD MSTORE PUSH32 0x6363657074656420726571756573740000000000000000000000000000000000 PUSH1 0x64 DUP3 ADD MSTORE PUSH1 0x84 ADD PUSH2 0x7B6 JUMP JUMPDEST PUSH1 0x0 PUSH8 0xDE0B6B3A7640000 DUP7 PUSH2 0x16B DUP5 DUP2 SLOAD DUP2 LT PUSH2 0xDF0 JUMPI PUSH2 0xDF0 PUSH2 0x4192 JUMP JUMPDEST SWAP1 PUSH1 0x0 MSTORE PUSH1 0x20 PUSH1 0x0 KECCAK256 SWAP1 PUSH1 0x8 MUL ADD PUSH1 0x2 ADD SLOAD PUSH2 0xE0C SWAP2 SWAP1 PUSH2 0x41BE JUMP JUMPDEST PUSH2 0xE16 SWAP2 SWAP1 PUSH2 0x41D5 JUMP JUMPDEST SWAP1 POP PUSH2 0x16B DUP3 DUP2 SLOAD DUP2 LT PUSH2 0xE2C JUMPI PUSH2 0xE2C PUSH2 0x4192 JUMP JUMPDEST SWAP1 PUSH1 0x0 MSTORE PUSH1 0x20 PUSH1 0x0 KECCAK256 SWAP1 PUSH1 0x8 MUL ADD PUSH1 0x3 ADD SLOAD DUP2 LT ISZERO PUSH2 0xEB5 JUMPI PUSH1 0x40 DUP1 MLOAD PUSH3 0x461BCD PUSH1 0xE5 SHL DUP2 MSTORE PUSH1 0x20 PUSH1 0x4 DUP3 ADD MSTORE PUSH1 0x24 DUP2 ADD SWAP2 SWAP1 SWAP2 MSTORE PUSH32 0x53796D6D696F536F6C7665724465706F7369746F723A205061796261636B2072 PUSH1 0x44 DUP3 ADD MSTORE PUSH32 0x6174696F20697320746F6F206C6F7720666F7220746869732072657175657374 PUSH1 0x64 DUP3 ADD MSTORE PUSH1 0x84 ADD PUSH2 0x7B6 JUMP JUMPDEST PUSH2 0xEBF DUP2 DUP6 PUSH2 0x41F7 JUMP JUMPDEST SWAP4 POP PUSH2 0x16B DUP3 DUP2 SLOAD DUP2 LT PUSH2 0xED5 JUMPI PUSH2 0xED5 PUSH2 0x4192 JUMP JUMPDEST SWAP1 PUSH1 0x0 MSTORE PUSH1 0x20 PUSH1 0x0 KECCAK256 SWAP1 PUSH1 0x8 MUL ADD PUSH1 0x2 ADD SLOAD PUSH2 0x169 PUSH1 0x0 DUP3 DUP3 SLOAD PUSH2 0xEF9 SWAP2 SWAP1 PUSH2 0x420A JUMP JUMPDEST SWAP3 POP POP DUP2 SWAP1 SSTORE POP PUSH1 0x1 PUSH2 0x16B DUP4 DUP2 SLOAD DUP2 LT PUSH2 0xF16 JUMPI PUSH2 0xF16 PUSH2 0x4192 JUMP JUMPDEST PUSH1 0x0 SWAP2 DUP3 MSTORE PUSH1 0x20 SWAP1 SWAP2 KECCAK256 PUSH1 0x4 PUSH1 0x8 SWAP1 SWAP3 MUL ADD ADD DUP1 SLOAD PUSH1 0xFF NOT AND PUSH1 0x1 DUP4 PUSH1 0x3 DUP2 GT ISZERO PUSH2 0xF43 JUMPI PUSH2 0xF43 PUSH2 0x4112 JUMP JUMPDEST MUL OR SWAP1 SSTORE POP DUP6 PUSH2 0x16B DUP4 DUP2 SLOAD DUP2 LT PUSH2 0xF5D JUMPI PUSH2 0xF5D PUSH2 0x4192 JUMP JUMPDEST SWAP1 PUSH1 0x0 MSTORE PUSH1 0x20 PUSH1 0x0 KECCAK256 SWAP1 PUSH1 0x8 MUL ADD PUSH1 0x5 ADD DUP2 SWAP1 SSTORE POP TIMESTAMP PUSH2 0x16B DUP4 DUP2 SLOAD DUP2 LT PUSH2 0xF87 JUMPI PUSH2 0xF87 PUSH2 0x4192 JUMP JUMPDEST PUSH1 0x0 SWAP2 DUP3 MSTORE PUSH1 0x20 SWAP1 SWAP2 KECCAK256 PUSH1 0x6 PUSH1 0x8 SWAP1 SWAP3 MUL ADD ADD SSTORE PUSH2 0x16C SLOAD PUSH2 0xFA9 SWAP1 TIMESTAMP PUSH2 0x41F7 JUMP JUMPDEST PUSH2 0x16B DUP4 DUP2 SLOAD DUP2 LT PUSH2 0xFBD JUMPI PUSH2 0xFBD PUSH2 0x4192 JUMP JUMPDEST SWAP1 PUSH1 0x0 MSTORE PUSH1 0x20 PUSH1 0x0 KECCAK256 SWAP1 PUSH1 0x8 MUL ADD PUSH1 0x7 ADD DUP2 SWAP1 SSTORE POP PUSH2 0x16B DUP3 DUP2 SLOAD DUP2 LT PUSH2 0xFE6 JUMPI PUSH2 0xFE6 PUSH2 0x4192 JUMP JUMPDEST SWAP1 PUSH1 0x0 MSTORE PUSH1 0x20 PUSH1 0x0 KECCAK256 SWAP1 PUSH1 0x8 MUL ADD PUSH1 0x2 ADD SLOAD PUSH2 0x16D PUSH1 0x0 PUSH2 0x16B DUP6 DUP2 SLOAD DUP2 LT PUSH2 0x1011 JUMPI PUSH2 0x1011 PUSH2 0x4192 JUMP JUMPDEST PUSH1 0x0 SWAP2 DUP3 MSTORE PUSH1 0x20 DUP1 DUP4 KECCAK256 PUSH1 0x1 PUSH1 0x8 SWAP1 SWAP4 MUL ADD SWAP2 SWAP1 SWAP2 ADD SLOAD PUSH1 0x1 PUSH1 0x1 PUSH1 0xA0 SHL SUB AND DUP4 MSTORE DUP3 ADD SWAP3 SWAP1 SWAP3 MSTORE PUSH1 0x40 ADD DUP2 KECCAK256 DUP1 SLOAD SWAP1 SWAP2 SWAP1 PUSH2 0x104E SWAP1 DUP5 SWAP1 PUSH2 0x420A JUMP JUMPDEST SWAP1 SWAP2 SSTORE POP POP PUSH1 0x1 SWAP1 SWAP3 ADD SWAP2 POP PUSH2 0xC7D SWAP1 POP JUMP JUMPDEST POP PUSH2 0x164 SLOAD PUSH1 0x40 MLOAD PUSH32 0x70A0823100000000000000000000000000000000000000000000000000000000 DUP2 MSTORE ADDRESS PUSH1 0x4 DUP3 ADD MSTORE DUP3 SWAP2 PUSH1 0x1 PUSH1 0x1 PUSH1 0xA0 SHL SUB AND SWAP1 PUSH4 0x70A08231 SWAP1 PUSH1 0x24 ADD PUSH1 0x20 PUSH1 0x40 MLOAD DUP1 DUP4 SUB DUP2 DUP7 GAS STATICCALL ISZERO DUP1 ISZERO PUSH2 0x10C4 JUMPI RETURNDATASIZE PUSH1 0x0 DUP1 RETURNDATACOPY RETURNDATASIZE PUSH1 0x0 REVERT JUMPDEST POP POP POP POP PUSH1 0x40 MLOAD RETURNDATASIZE PUSH1 0x1F NOT PUSH1 0x1F DUP3 ADD AND DUP3 ADD DUP1 PUSH1 0x40 MSTORE POP DUP2 ADD SWAP1 PUSH2 0x10E8 SWAP2 SWAP1 PUSH2 0x421D JUMP JUMPDEST LT ISZERO PUSH2 0x115C JUMPI PUSH1 0x40 MLOAD PUSH3 0x461BCD PUSH1 0xE5 SHL DUP2 MSTORE PUSH1 0x20 PUSH1 0x4 DUP3 ADD MSTORE PUSH1 0x34 PUSH1 0x24 DUP3 ADD MSTORE PUSH32 0x53796D6D696F536F6C7665724465706F7369746F723A20496E73756666696369 PUSH1 0x44 DUP3 ADD MSTORE PUSH32 0x656E7420636F6E74726163742062616C616E6365000000000000000000000000 PUSH1 0x64 DUP3 ADD MSTORE PUSH1 0x84 ADD PUSH2 0x7B6 JUMP JUMPDEST PUSH2 0x165 DUP2 SWAP1 SSTORE PUSH1 0x40 MLOAD PUSH32 0x7E82005417F8FC53C7A47DC803BF0C0C5FB4ADFA711E011D4EDEAD5839B0D024 SWAP1 PUSH2 0x1196 SWAP1 DUP8 SWAP1 DUP8 SWAP1 DUP8 SWAP1 PUSH2 0x4236 JUMP JUMPDEST PUSH1 0x40 MLOAD DUP1 SWAP2 SUB SWAP1 LOG1 POP POP POP POP POP JUMP JUMPDEST PUSH32 0x427DA25FE773164F88948D3E215C94B6554E2ED5E5F203A821C9F2F6131CF75A PUSH2 0x11CF DUP2 PUSH2 0x2535 JUMP JUMPDEST PUSH2 0x11D7 PUSH2 0x28E8 JUMP JUMPDEST POP JUMP JUMPDEST PUSH32 0x61C92169EF077349011FF0B1383C894D86C5F0B41D986366B58A6CF31E93BEDA PUSH2 0x1204 DUP2 PUSH2 0x2535 JUMP JUMPDEST PUSH1 0x1 PUSH1 0x1 PUSH1 0xA0 SHL SUB DUP3 AND PUSH2 0x1266 JUMPI PUSH1 0x40 MLOAD PUSH3 0x461BCD PUSH1 0xE5 SHL DUP2 MSTORE PUSH1 0x20 PUSH1 0x4 DUP3 ADD MSTORE PUSH1 0x23 PUSH1 0x24 DUP3 ADD MSTORE PUSH32 0x53796D6D696F536F6C7665724465706F7369746F723A205A65726F2061646472 PUSH1 0x44 DUP3 ADD MSTORE PUSH3 0x657373 PUSH1 0xE8 SHL PUSH1 0x64 DUP3 ADD MSTORE PUSH1 0x84 ADD PUSH2 0x7B6 JUMP JUMPDEST PUSH2 0x163 DUP1 SLOAD PUSH20 0xFFFFFFFFFFFFFFFFFFFFFFFFFFFFFFFFFFFFFFFF NOT AND PUSH1 0x1 PUSH1 0x1 PUSH1 0xA0 SHL SUB DUP5 AND SWAP1 DUP2 OR SWAP1 SWAP2 SSTORE PUSH1 0x40 MLOAD PUSH32 0x93D2BD623FE74229D9510C70EC2DA10109749943DB6D68437555A01B1844BEAE SWAP1 PUSH1 0x0 SWAP1 LOG2 POP POP JUMP JUMPDEST PUSH32 0x61C92169EF077349011FF0B1383C894D86C5F0B41D986366B58A6CF31E93BEDA PUSH2 0x12E9 DUP2 PUSH2 0x2535 JUMP JUMPDEST PUSH8 0x6F05B59D3B20000 DUP3 LT ISZERO PUSH2 0x1367 JUMPI PUSH1 0x40 MLOAD PUSH3 0x461BCD PUSH1 0xE5 SHL DUP2 MSTORE PUSH1 0x20 PUSH1 0x4 DUP3 ADD MSTORE PUSH1 0x37 PUSH1 0x24 DUP3 ADD MSTORE PUSH32 0x53796D6D696F536F6C7665724465706F7369746F723A204D696E696D756D2062 PUSH1 0x44 DUP3 ADD MSTORE PUSH32 0x75796261636B20726174696F20697320746F6F206C6F77000000000000000000 PUSH1 0x64 DUP3 ADD MSTORE PUSH1 0x84 ADD PUSH2 0x7B6 JUMP JUMPDEST PUSH8 0xDE0B6B3A7640000 DUP3 GT ISZERO PUSH2 0x13E5 JUMPI PUSH1 0x40 MLOAD PUSH3 0x461BCD PUSH1 0xE5 SHL DUP2 MSTORE PUSH1 0x20 PUSH1 0x4 DUP3 ADD MSTORE PUSH1 0x38 PUSH1 0x24 DUP3 ADD MSTORE PUSH32 0x53796D6D696F536F6C7665724465706F7369746F723A204D696E696D756D2062 PUSH1 0x44 DUP3 ADD MSTORE PUSH32 0x75796261636B20726174696F20697320746F6F20686967680000000000000000 PUSH1 0x64 DUP3 ADD MSTORE PUSH1 0x84 ADD PUSH2 0x7B6 JUMP JUMPDEST PUSH2 0x166 DUP3 SWAP1 SSTORE PUSH1 0x40 MLOAD DUP3 DUP2 MSTORE PUSH32 0x2AE6DDF10933401B20295006A4F7ED3AF82A0AB05354F1FC7DB9BE3FC75F19D7 SWAP1 PUSH1 0x20 ADD PUSH1 0x40 MLOAD DUP1 SWAP2 SUB SWAP1 LOG1 POP POP JUMP JUMPDEST PUSH1 0x0 SLOAD PUSH2 0x100 SWAP1 DIV PUSH1 0xFF AND ISZERO DUP1 DUP1 ISZERO PUSH2 0x1442 JUMPI POP PUSH1 0x0 SLOAD PUSH1 0x1 PUSH1 0xFF SWAP1 SWAP2 AND LT JUMPDEST DUP1 PUSH2 0x145C JUMPI POP ADDRESS EXTCODESIZE ISZERO DUP1 ISZERO PUSH2 0x145C JUMPI POP PUSH1 0x0 SLOAD PUSH1 0xFF AND PUSH1 0x1 EQ JUMPDEST PUSH2 0x14CE JUMPI PUSH1 0x40 MLOAD PUSH3 0x461BCD PUSH1 0xE5 SHL DUP2 MSTORE PUSH1 0x20 PUSH1 0x4 DUP3 ADD MSTORE PUSH1 0x2E PUSH1 0x24 DUP3 ADD MSTORE PUSH32 0x496E697469616C697A61626C653A20636F6E747261637420697320616C726561 PUSH1 0x44 DUP3 ADD MSTORE PUSH32 0x647920696E697469616C697A6564000000000000000000000000000000000000 PUSH1 0x64 DUP3 ADD MSTORE PUSH1 0x84 ADD PUSH2 0x7B6 JUMP JUMPDEST PUSH1 0x0 DUP1 SLOAD PUSH1 0xFF NOT AND PUSH1 0x1 OR SWAP1 SSTORE DUP1 ISZERO PUSH2 0x14F1 JUMPI PUSH1 0x0 DUP1 SLOAD PUSH2 0xFF00 NOT AND PUSH2 0x100 OR SWAP1 SSTORE JUMPDEST PUSH2 0x14F9 PUSH2 0x293A JUMP JUMPDEST PUSH2 0x1501 PUSH2 0x29AD JUMP JUMPDEST PUSH2 0x1509 PUSH2 0x2A18 JUMP JUMPDEST PUSH2 0x157D PUSH1 0x40 MLOAD DUP1 PUSH1 0x40 ADD PUSH1 0x40 MSTORE DUP1 PUSH1 0x14 DUP2 MSTORE PUSH1 0x20 ADD PUSH32 0x4F6E436861696E53796D6D696F5661756C745632000000000000000000000000 DUP2 MSTORE POP PUSH1 0x40 MLOAD DUP1 PUSH1 0x40 ADD PUSH1 0x40 MSTORE DUP1 PUSH1 0x1 DUP2 MSTORE PUSH1 0x20 ADD PUSH32 0x3100000000000000000000000000000000000000000000000000000000000000 DUP2 MSTORE POP PUSH2 0x2A8B JUMP JUMPDEST PUSH2 0x1588 PUSH1 0x0 CALLER PUSH2 0x279A JUMP JUMPDEST PUSH2 0x15B2 PUSH32 0x61C92169EF077349011FF0B1383C894D86C5F0B41D986366B58A6CF31E93BEDA CALLER PUSH2 0x279A JUMP JUMPDEST PUSH2 0x15BB DUP8 PUSH2 0x72E JUMP JUMPDEST PUSH2 0x15C5 DUP4 DUP4 PUSH2 0x925 JUMP JUMPDEST PUSH2 0x15CE DUP7 PUSH2 0x999 JUMP JUMPDEST PUSH2 0x15D7 DUP6 PUSH2 0x11DA JUMP JUMPDEST PUSH2 0x15E0 DUP5 PUSH2 0x12BF JUMP JUMPDEST PUSH2 0x15EC PUSH3 0x93A80 PUSH2 0x2B00 JUMP JUMPDEST DUP1 ISZERO PUSH2 0x1632 JUMPI PUSH1 0x0 DUP1 SLOAD PUSH2 0xFF00 NOT AND SWAP1 SSTORE PUSH1 0x40 MLOAD PUSH1 0x1 DUP2 MSTORE PUSH32 0x7F26B83FF96E1F2B6A682F133852F6798A09C465DA95921460CEFB3847402498 SWAP1 PUSH1 0x20 ADD PUSH1 0x40 MLOAD DUP1 SWAP2 SUB SWAP1 LOG1 JUMPDEST POP POP POP POP POP POP POP JUMP JUMPDEST PUSH32 0x65D7A28E3265B37A6474929F336521B332C1681B933F6CB9F3376673440D862A PUSH2 0x1665 DUP2 PUSH2 0x2535 JUMP JUMPDEST PUSH2 0x11D7 PUSH2 0x2B3C JUMP JUMPDEST PUSH2 0x1675 PUSH2 0x27DE JUMP JUMPDEST PUSH1 0x1 PUSH1 0x1 PUSH1 0xA0 SHL SUB DUP5 AND PUSH2 0x16F1 JUMPI PUSH1 0x40 MLOAD PUSH3 0x461BCD PUSH1 0xE5 SHL DUP2 MSTORE PUSH1 0x20 PUSH1 0x4 DUP3 ADD MSTORE PUSH1 0x30 PUSH1 0x24 DUP3 ADD MSTORE PUSH32 0x53796D6D696F536F6C7665724465706F7369746F723A205A65726F2061646472 PUSH1 0x44 DUP3 ADD MSTORE PUSH32 0x65737320666F7220726563656976657200000000000000000000000000000000 PUSH1 0x64 DUP3 ADD MSTORE PUSH1 0x84 ADD PUSH2 0x7B6 JUMP JUMPDEST TIMESTAMP DUP3 GT PUSH2 0x1766 JUMPI PUSH1 0x40 MLOAD PUSH3 0x461BCD PUSH1 0xE5 SHL DUP2 MSTORE PUSH1 0x20 PUSH1 0x4 DUP3 ADD MSTORE PUSH1 0x35 PUSH1 0x24 DUP3 ADD MSTORE PUSH32 0x53796D6D696F536F6C7665724465706F7369746F723A20446561646C696E6520 PUSH1 0x44 DUP3 ADD MSTORE PUSH32 0x6D75737420626520696E20746865206675747572650000000000000000000000 PUSH1 0x64 DUP3 ADD MSTORE PUSH1 0x84 ADD PUSH2 0x7B6 JUMP JUMPDEST PUSH1 0x1 PUSH1 0x1 PUSH1 0xA0 SHL SUB DUP5 AND PUSH1 0x0 SWAP1 DUP2 MSTORE PUSH2 0x16E PUSH1 0x20 SWAP1 DUP2 MSTORE PUSH1 0x40 DUP1 DUP4 KECCAK256 DUP7 DUP5 MSTORE SWAP1 SWAP2 MSTORE SWAP1 KECCAK256 SLOAD PUSH1 0xFF AND ISZERO PUSH2 0x1801 JUMPI PUSH1 0x40 MLOAD PUSH3 0x461BCD PUSH1 0xE5 SHL DUP2 MSTORE PUSH1 0x20 PUSH1 0x4 DUP3 ADD MSTORE PUSH1 0x29 PUSH1 0x24 DUP3 ADD MSTORE PUSH32 0x53796D6D696F536F6C7665724465706F7369746F723A204E6F6E636520616C72 PUSH1 0x44 DUP3 ADD MSTORE PUSH32 0x6561647920757365640000000000000000000000000000000000000000000000 PUSH1 0x64 DUP3 ADD MSTORE PUSH1 0x84 ADD PUSH2 0x7B6 JUMP JUMPDEST PUSH2 0x180F DUP7 DUP7 DUP7 DUP7 DUP7 DUP7 PUSH2 0x2B79 JUMP JUMPDEST PUSH2 0x1881 JUMPI PUSH1 0x40 MLOAD PUSH3 0x461BCD PUSH1 0xE5 SHL DUP2 MSTORE PUSH1 0x20 PUSH1 0x4 DUP3 ADD MSTORE PUSH1 0x28 PUSH1 0x24 DUP3 ADD MSTORE PUSH32 0x53796D6D696F536F6C7665724465706F7369746F723A20496E76616C69642073 PUSH1 0x44 DUP3 ADD MSTORE PUSH32 0x69676E6174757265000000000000000000000000000000000000000000000000 PUSH1 0x64 DUP3 ADD MSTORE PUSH1 0x84 ADD PUSH2 0x7B6 JUMP JUMPDEST PUSH1 0x1 PUSH1 0x1 PUSH1 0xA0 SHL SUB DUP5 AND PUSH1 0x0 DUP2 DUP2 MSTORE PUSH2 0x16E PUSH1 0x20 SWAP1 DUP2 MSTORE PUSH1 0x40 DUP1 DUP4 KECCAK256 DUP8 DUP5 MSTORE DUP3 MSTORE SWAP2 DUP3 SWAP1 KECCAK256 DUP1 SLOAD PUSH1 0xFF NOT AND PUSH1 0x1 OR SWAP1 SSTORE DUP2 MLOAD PUSH2 0x100 DUP2 ADD SWAP1 SWAP3 MSTORE SWAP2 DUP2 MSTORE PUSH2 0x16B SWAP2 DUP2 ADD PUSH2 0x18CB CALLER SWAP1 JUMP JUMPDEST PUSH1 0x1 PUSH1 0x1 PUSH1 0xA0 SHL SUB AND DUP2 MSTORE PUSH1 0x20 DUP2 ADD DUP10 SWAP1 MSTORE PUSH1 0x40 DUP2 ADD DUP9 SWAP1 MSTORE PUSH1 0x60 ADD PUSH1 0x0 DUP2 MSTORE PUSH1 0x0 PUSH1 0x20 DUP1 DUP4 ADD DUP3 SWAP1 MSTORE PUSH1 0x40 DUP1 DUP5 ADD DUP4 SWAP1 MSTORE PUSH1 0x60 SWAP4 DUP5 ADD DUP4 SWAP1 MSTORE DUP6 SLOAD PUSH1 0x1 DUP1 DUP3 ADD DUP9 SSTORE SWAP7 DUP5 MSTORE SWAP3 DUP3 SWAP1 KECCAK256 DUP6 MLOAD PUSH1 0x8 SWAP1 SWAP5 MUL ADD DUP1 SLOAD PUSH20 0xFFFFFFFFFFFFFFFFFFFFFFFFFFFFFFFFFFFFFFFF NOT SWAP1 DUP2 AND PUSH1 0x1 PUSH1 0x1 PUSH1 0xA0 SHL SUB SWAP6 DUP7 AND OR DUP3 SSTORE SWAP3 DUP7 ADD MLOAD DUP2 DUP9 ADD DUP1 SLOAD SWAP1 SWAP5 AND SWAP5 AND SWAP4 SWAP1 SWAP4 OR SWAP1 SWAP2 SSTORE DUP4 ADD MLOAD PUSH1 0x2 DUP3 ADD SSTORE SWAP1 DUP3 ADD MLOAD PUSH1 0x3 DUP1 DUP4 ADD SWAP2 SWAP1 SWAP2 SSTORE PUSH1 0x80 DUP4 ADD MLOAD PUSH1 0x4 DUP4 ADD DUP1 SLOAD SWAP5 SWAP6 SWAP4 SWAP5 SWAP2 SWAP4 SWAP1 SWAP3 PUSH1 0xFF NOT SWAP1 SWAP3 AND SWAP2 DUP5 SWAP1 DUP2 GT ISZERO PUSH2 0x199B JUMPI PUSH2 0x199B PUSH2 0x4112 JUMP JUMPDEST MUL OR SWAP1 SSTORE POP PUSH1 0xA0 DUP3 ADD MLOAD PUSH1 0x5 DUP3 ADD SSTORE PUSH1 0xC0 DUP3 ADD MLOAD PUSH1 0x6 DUP3 ADD SSTORE PUSH1 0xE0 SWAP1 SWAP2 ADD MLOAD PUSH1 0x7 SWAP1 SWAP2 ADD SSTORE CALLER PUSH1 0x0 SWAP1 DUP2 MSTORE PUSH2 0x16D PUSH1 0x20 MSTORE PUSH1 0x40 DUP2 KECCAK256 DUP1 SLOAD DUP9 SWAP3 SWAP1 PUSH2 0x19E0 SWAP1 DUP5 SWAP1 PUSH2 0x41F7 JUMP JUMPDEST SWAP1 SWAP2 SSTORE POP POP PUSH2 0x16B SLOAD PUSH1 0x1 PUSH1 0x1 PUSH1 0xA0 SHL SUB DUP6 AND SWAP1 CALLER SWAP1 PUSH2 0x1A02 SWAP1 PUSH1 0x1 SWAP1 PUSH2 0x420A JUMP JUMPDEST PUSH1 0x40 DUP1 MLOAD DUP11 DUP2 MSTORE PUSH1 0x20 DUP2 ADD DUP9 SWAP1 MSTORE PUSH32 0x766E8C55DDE32095D8C203180E4F32C7407C445E0A87007877162126D257B25 SWAP2 ADD PUSH1 0x40 MLOAD DUP1 SWAP2 SUB SWAP1 LOG4 POP POP POP POP POP POP JUMP JUMPDEST PUSH1 0x0 PUSH1 0x60 DUP1 PUSH1 0x0 DUP1 PUSH1 0x0 PUSH1 0x60 PUSH1 0xFB SLOAD PUSH1 0x0 DUP1 SHL EQ DUP1 ISZERO PUSH2 0x1A63 JUMPI POP PUSH1 0xFC SLOAD ISZERO JUMPDEST PUSH2 0x1AAF JUMPI PUSH1 0x40 MLOAD PUSH3 0x461BCD PUSH1 0xE5 SHL DUP2 MSTORE PUSH1 0x20 PUSH1 0x4 DUP3 ADD MSTORE PUSH1 0x15 PUSH1 0x24 DUP3 ADD MSTORE PUSH32 0x4549503731323A20556E696E697469616C697A65640000000000000000000000 PUSH1 0x44 DUP3 ADD MSTORE PUSH1 0x64 ADD PUSH2 0x7B6 JUMP JUMPDEST PUSH2 0x1AB7 PUSH2 0x2C21 JUMP JUMPDEST PUSH2 0x1ABF PUSH2 0x2CB3 JUMP JUMPDEST PUSH1 0x40 DUP1 MLOAD PUSH1 0x0 DUP1 DUP3 MSTORE PUSH1 0x20 DUP3 ADD SWAP1 SWAP3 MSTORE PUSH32 0xF00000000000000000000000000000000000000000000000000000000000000 SWAP12 SWAP4 SWAP11 POP SWAP2 SWAP9 POP CHAINID SWAP8 POP ADDRESS SWAP7 POP SWAP5 POP SWAP3 POP SWAP1 POP JUMP JUMPDEST PUSH2 0x1B0D PUSH2 0x27DE JUMP JUMPDEST PUSH2 0x16B SLOAD DUP2 LT PUSH2 0x1B85 JUMPI PUSH1 0x40 MLOAD PUSH3 0x461BCD PUSH1 0xE5 SHL DUP2 MSTORE PUSH1 0x20 PUSH1 0x4 DUP3 ADD MSTORE PUSH1 0x29 PUSH1 0x24 DUP3 ADD MSTORE PUSH32 0x53796D6D696F536F6C7665724465706F7369746F723A20496E76616C69642072 PUSH1 0x44 DUP3 ADD MSTORE PUSH32 0x6571756573742049440000000000000000000000000000000000000000000000 PUSH1 0x64 DUP3 ADD MSTORE PUSH1 0x84 ADD PUSH2 0x7B6 JUMP JUMPDEST PUSH1 0x0 PUSH2 0x16B DUP3 DUP2 SLOAD DUP2 LT PUSH2 0x1B9B JUMPI PUSH2 0x1B9B PUSH2 0x4192 JUMP JUMPDEST PUSH1 0x0 SWAP2 DUP3 MSTORE PUSH1 0x20 SWAP1 SWAP2 KECCAK256 PUSH1 0x8 SWAP1 SWAP2 MUL ADD SWAP1 POP PUSH1 0x1 PUSH1 0x4 DUP3 ADD SLOAD PUSH1 0xFF AND PUSH1 0x3 DUP2 GT ISZERO PUSH2 0x1BC8 JUMPI PUSH2 0x1BC8 PUSH2 0x4112 JUMP JUMPDEST EQ PUSH2 0x1C3B JUMPI PUSH1 0x40 MLOAD PUSH3 0x461BCD PUSH1 0xE5 SHL DUP2 MSTORE PUSH1 0x20 PUSH1 0x4 DUP3 ADD MSTORE PUSH1 0x37 PUSH1 0x24 DUP3 ADD MSTORE PUSH32 0x53796D6D696F536F6C7665724465706F7369746F723A2052657175657374206E PUSH1 0x44 DUP3 ADD MSTORE PUSH32 0x6F7420726561647920666F72207769746864726177616C000000000000000000 PUSH1 0x64 DUP3 ADD MSTORE PUSH1 0x84 ADD PUSH2 0x7B6 JUMP JUMPDEST TIMESTAMP DUP2 PUSH1 0x7 ADD SLOAD GT ISZERO PUSH2 0x1CB5 JUMPI PUSH1 0x40 MLOAD PUSH3 0x461BCD PUSH1 0xE5 SHL DUP2 MSTORE PUSH1 0x20 PUSH1 0x4 DUP3 ADD MSTORE PUSH1 0x39 PUSH1 0x24 DUP3 ADD MSTORE PUSH32 0x53796D6D696F536F6C7665724465706F7369746F723A2052657175657374206E PUSH1 0x44 DUP3 ADD MSTORE PUSH32 0x6F742070617373207769746864726177616C20706572696F6400000000000000 PUSH1 0x64 DUP3 ADD MSTORE PUSH1 0x84 ADD PUSH2 0x7B6 JUMP JUMPDEST PUSH1 0x4 DUP2 ADD DUP1 SLOAD PUSH1 0xFF NOT AND PUSH1 0x2 SWAP1 DUP2 OR SWAP1 SWAP2 SSTORE PUSH1 0x5 DUP3 ADD SLOAD SWAP1 DUP3 ADD SLOAD PUSH1 0x0 SWAP2 PUSH8 0xDE0B6B3A7640000 SWAP2 PUSH2 0x1CE7 SWAP2 SWAP1 PUSH2 0x41BE JUMP JUMPDEST PUSH2 0x1CF1 SWAP2 SWAP1 PUSH2 0x41D5 JUMP JUMPDEST SWAP1 POP DUP1 PUSH2 0x165 PUSH1 0x0 DUP3 DUP3 SLOAD PUSH2 0x1D06 SWAP2 SWAP1 PUSH2 0x420A JUMP JUMPDEST SWAP1 SWAP2 SSTORE POP POP DUP2 SLOAD PUSH2 0x164 SLOAD PUSH2 0x1D28 SWAP2 PUSH1 0x1 PUSH1 0x1 PUSH1 0xA0 SHL SUB SWAP2 DUP3 AND SWAP2 AND DUP4 PUSH2 0x2CC2 JUMP JUMPDEST DUP2 SLOAD PUSH1 0x40 MLOAD PUSH1 0x1 PUSH1 0x1 PUSH1 0xA0 SHL SUB SWAP1 SWAP2 AND SWAP1 DUP5 SWAP1 PUSH32 0x4CE122B005E10B197F4CAF028D92E008A684C370AD8F93528E07DED8214240E1 SWAP1 PUSH1 0x0 SWAP1 LOG3 POP POP POP JUMP JUMPDEST PUSH1 0x0 DUP3 DUP2 MSTORE PUSH1 0x97 PUSH1 0x20 MSTORE PUSH1 0x40 DUP2 KECCAK256 PUSH2 0x1D7E SWAP1 DUP4 PUSH2 0x2D0B JUMP JUMPDEST SWAP4 SWAP3 POP POP POP JUMP JUMPDEST PUSH32 0x61C92169EF077349011FF0B1383C894D86C5F0B41D986366B58A6CF31E93BEDA PUSH2 0x1DAF DUP2 PUSH2 0x2535 JUMP JUMPDEST PUSH2 0xB30 DUP3 PUSH2 0x2B00 JUMP JUMPDEST PUSH2 0x16B DUP2 DUP2 SLOAD DUP2 LT PUSH2 0x1DC9 JUMPI PUSH1 0x0 DUP1 REVERT JUMPDEST PUSH1 0x0 SWAP2 DUP3 MSTORE PUSH1 0x20 SWAP1 SWAP2 KECCAK256 PUSH1 0x8 SWAP1 SWAP2 MUL ADD DUP1 SLOAD PUSH1 0x1 DUP3 ADD SLOAD PUSH1 0x2 DUP4 ADD SLOAD PUSH1 0x3 DUP5 ADD SLOAD PUSH1 0x4 DUP6 ADD SLOAD PUSH1 0x5 DUP7 ADD SLOAD PUSH1 0x6 DUP8 ADD SLOAD PUSH1 0x7 SWAP1 SWAP8 ADD SLOAD PUSH1 0x1 PUSH1 0x1 PUSH1 0xA0 SHL SUB SWAP7 DUP8 AND SWAP9 POP SWAP5 SWAP1 SWAP6 AND SWAP6 SWAP3 SWAP5 SWAP2 SWAP4 PUSH1 0xFF SWAP1 SWAP2 AND SWAP3 SWAP1 DUP9 JUMP JUMPDEST PUSH2 0x1E27 PUSH2 0x27DE JUMP JUMPDEST PUSH2 0x1E2F PUSH2 0x2D17 JUMP JUMPDEST PUSH1 0x0 DUP2 GT PUSH2 0x1EA5 JUMPI PUSH1 0x40 MLOAD PUSH3 0x461BCD PUSH1 0xE5 SHL DUP2 MSTORE PUSH1 0x20 PUSH1 0x4 DUP3 ADD MSTORE PUSH1 0x34 PUSH1 0x24 DUP3 ADD MSTORE PUSH32 0x53796D6D696F536F6C7665724465706F7369746F723A20416D6F756E74206D75 PUSH1 0x44 DUP3 ADD MSTORE PUSH32 0x73742062652067726561746572207468616E2030000000000000000000000000 PUSH1 0x64 DUP3 ADD MSTORE PUSH1 0x84 ADD PUSH2 0x7B6 JUMP JUMPDEST PUSH2 0x167 SLOAD DUP2 PUSH2 0x169 SLOAD PUSH2 0x1EB8 SWAP2 SWAP1 PUSH2 0x41F7 JUMP JUMPDEST GT ISZERO PUSH2 0x1F2C JUMPI PUSH1 0x40 MLOAD PUSH3 0x461BCD PUSH1 0xE5 SHL DUP2 MSTORE PUSH1 0x20 PUSH1 0x4 DUP3 ADD MSTORE PUSH1 0x2C PUSH1 0x24 DUP3 ADD MSTORE PUSH32 0x53796D6D696F536F6C7665724465706F7369746F723A204465706F736974206C PUSH1 0x44 DUP3 ADD MSTORE PUSH32 0x696D697420726561636865640000000000000000000000000000000000000000 PUSH1 0x64 DUP3 ADD MSTORE PUSH1 0x84 ADD PUSH2 0x7B6 JUMP JUMPDEST PUSH2 0x164 SLOAD PUSH1 0x1 PUSH1 0x1 PUSH1 0xA0 SHL SUB AND PUSH2 0x1F45 DUP2 CALLER ADDRESS DUP6 PUSH2 0x2831 JUMP JUMPDEST DUP2 PUSH2 0x169 PUSH1 0x0 DUP3 DUP3 SLOAD PUSH2 0x1F58 SWAP2 SWAP1 PUSH2 0x41F7 JUMP JUMPDEST SWAP1 SWAP2 SSTORE POP POP PUSH1 0x40 MLOAD DUP3 DUP2 MSTORE CALLER SWAP1 PUSH32 0xE1FFFCC4923D04B559F4D29A8BFC6CDA04EB5B0D3C460751C2402C5C5CC9109C SWAP1 PUSH1 0x20 ADD PUSH1 0x40 MLOAD DUP1 SWAP2 SUB SWAP1 LOG2 PUSH2 0x161 SLOAD PUSH2 0x1FAD SWAP1 PUSH1 0x1 PUSH1 0x1 PUSH1 0xA0 SHL SUB DUP4 DUP2 AND SWAP2 AND DUP5 PUSH2 0x2D72 JUMP JUMPDEST PUSH2 0x161 SLOAD PUSH2 0x162 SLOAD PUSH1 0x40 MLOAD PUSH32 0x2F4F21E200000000000000000000000000000000000000000000000000000000 DUP2 MSTORE PUSH1 0x1 PUSH1 0x1 PUSH1 0xA0 SHL SUB SWAP2 DUP3 AND PUSH1 0x4 DUP3 ADD MSTORE PUSH1 0x24 DUP2 ADD DUP6 SWAP1 MSTORE SWAP2 AND SWAP1 PUSH4 0x2F4F21E2 SWAP1 PUSH1 0x44 ADD PUSH1 0x0 PUSH1 0x40 MLOAD DUP1 DUP4 SUB DUP2 PUSH1 0x0 DUP8 DUP1 EXTCODESIZE ISZERO DUP1 ISZERO PUSH2 0x2018 JUMPI PUSH1 0x0 DUP1 REVERT JUMPDEST POP GAS CALL ISZERO DUP1 ISZERO PUSH2 0x202C JUMPI RETURNDATASIZE PUSH1 0x0 DUP1 RETURNDATACOPY RETURNDATASIZE PUSH1 0x0 REVERT JUMPDEST POP POP PUSH2 0x162 SLOAD PUSH1 0x40 MLOAD DUP6 DUP2 MSTORE PUSH1 0x1 PUSH1 0x1 PUSH1 0xA0 SHL SUB SWAP1 SWAP2 AND SWAP3 POP CALLER SWAP2 POP PUSH32 0x42A31D51415A86588240E32BF72025C881C4C9AADA6E283CE50DC32F5A64717B SWAP1 PUSH1 0x20 ADD PUSH1 0x40 MLOAD DUP1 SWAP2 SUB SWAP1 LOG3 POP PUSH2 0x11D7 PUSH1 0x1 PUSH2 0x12F SSTORE JUMP JUMPDEST PUSH1 0x0 DUP2 DUP2 MSTORE PUSH1 0x97 PUSH1 0x20 MSTORE PUSH1 0x40 DUP2 KECCAK256 PUSH2 0x91F SWAP1 PUSH2 0x2E50 JUMP JUMPDEST PUSH2 0x20A0 PUSH2 0x27DE JUMP JUMPDEST PUSH2 0x16B SLOAD DUP2 LT PUSH2 0x2118 JUMPI PUSH1 0x40 MLOAD PUSH3 0x461BCD PUSH1 0xE5 SHL DUP2 MSTORE PUSH1 0x20 PUSH1 0x4 DUP3 ADD MSTORE PUSH1 0x29 PUSH1 0x24 DUP3 ADD MSTORE PUSH32 0x53796D6D696F536F6C7665724465706F7369746F723A20496E76616C69642072 PUSH1 0x44 DUP3 ADD MSTORE PUSH32 0x6571756573742049440000000000000000000000000000000000000000000000 PUSH1 0x64 DUP3 ADD MSTORE PUSH1 0x84 ADD PUSH2 0x7B6 JUMP JUMPDEST PUSH1 0x0 PUSH2 0x16B DUP3 DUP2 SLOAD DUP2 LT PUSH2 0x212E JUMPI PUSH2 0x212E PUSH2 0x4192 JUMP JUMPDEST SWAP1 PUSH1 0x0 MSTORE PUSH1 0x20 PUSH1 0x0 KECCAK256 SWAP1 PUSH1 0x8 MUL ADD SWAP1 POP PUSH2 0x2145 CALLER SWAP1 JUMP JUMPDEST PUSH1 0x1 DUP3 ADD SLOAD PUSH1 0x1 PUSH1 0x1 PUSH1 0xA0 SHL SUB SWAP1 DUP2 AND SWAP2 AND EQ PUSH2 0x21CA JUMPI PUSH1 0x40 MLOAD PUSH3 0x461BCD PUSH1 0xE5 SHL DUP2 MSTORE PUSH1 0x20 PUSH1 0x4 DUP3 ADD MSTORE PUSH1 0x3F PUSH1 0x24 DUP3 ADD MSTORE PUSH32 0x53796D6D696F536F6C7665724465706F7369746F723A204F6E6C792074686520 PUSH1 0x44 DUP3 ADD MSTORE PUSH32 0x73656E646572206F6620726571756573742063616E2063616E63656C20697400 PUSH1 0x64 DUP3 ADD MSTORE PUSH1 0x84 ADD PUSH2 0x7B6 JUMP JUMPDEST PUSH1 0x0 PUSH1 0x4 DUP3 ADD SLOAD PUSH1 0xFF AND PUSH1 0x3 DUP2 GT ISZERO PUSH2 0x21E5 JUMPI PUSH2 0x21E5 PUSH2 0x4112 JUMP JUMPDEST EQ PUSH2 0x2258 JUMPI PUSH1 0x40 MLOAD PUSH3 0x461BCD PUSH1 0xE5 SHL DUP2 MSTORE PUSH1 0x20 PUSH1 0x4 DUP3 ADD MSTORE PUSH1 0x25 PUSH1 0x24 DUP3 ADD MSTORE PUSH32 0x53796D6D696F536F6C7665724465706F7369746F723A20496E76616C69642073 PUSH1 0x44 DUP3 ADD MSTORE PUSH32 0x7461747573000000000000000000000000000000000000000000000000000000 PUSH1 0x64 DUP3 ADD MSTORE PUSH1 0x84 ADD PUSH2 0x7B6 JUMP JUMPDEST PUSH1 0x4 DUP2 ADD DUP1 SLOAD PUSH1 0xFF NOT AND PUSH1 0x3 OR SWAP1 SSTORE PUSH1 0x2 DUP2 ADD SLOAD CALLER PUSH1 0x0 SWAP1 DUP2 MSTORE PUSH2 0x16D PUSH1 0x20 MSTORE PUSH1 0x40 DUP2 KECCAK256 DUP1 SLOAD SWAP1 SWAP2 SWAP1 PUSH2 0x228C SWAP1 DUP5 SWAP1 PUSH2 0x420A JUMP JUMPDEST SWAP1 SWAP2 SSTORE POP POP PUSH1 0x40 MLOAD DUP3 SWAP1 PUSH32 0x8F3015A84BD69B67997EDB78D8928AD670DCB6243DF596529AE1E07F93EAF35A SWAP1 PUSH1 0x0 SWAP1 LOG2 POP POP JUMP JUMPDEST PUSH1 0x0 DUP3 DUP2 MSTORE PUSH1 0x65 PUSH1 0x20 MSTORE PUSH1 0x40 SWAP1 KECCAK256 PUSH1 0x1 ADD SLOAD PUSH2 0x22DB DUP2 PUSH2 0x2535 JUMP JUMPDEST PUSH2 0xAA3 DUP4 DUP4 PUSH2 0x27BC JUMP JUMPDEST PUSH32 0x372387BD01807B923229B5BD1E46F8A6B8815B5D5DB581DB3E993C5168467B27 PUSH2 0x230F DUP2 PUSH2 0x2535 JUMP JUMPDEST PUSH2 0x2317 PUSH2 0x27DE JUMP JUMPDEST PUSH1 0x1 PUSH1 0x1 PUSH1 0xA0 SHL SUB DUP4 AND PUSH2 0x2393 JUMPI PUSH1 0x40 MLOAD PUSH3 0x461BCD PUSH1 0xE5 SHL DUP2 MSTORE PUSH1 0x20 PUSH1 0x4 DUP3 ADD MSTORE PUSH1 0x30 PUSH1 0x24 DUP3 ADD MSTORE PUSH32 0x53796D6D696F536F6C7665724465706F7369746F723A205A65726F2061646472 PUSH1 0x44 DUP3 ADD MSTORE PUSH32 0x65737320666F7220726563656976657200000000000000000000000000000000 PUSH1 0x64 DUP3 ADD MSTORE PUSH1 0x84 ADD PUSH2 0x7B6 JUMP JUMPDEST PUSH1 0x0 DUP3 GT PUSH2 0x2409 JUMPI PUSH1 0x40 MLOAD PUSH3 0x461BCD PUSH1 0xE5 SHL DUP2 MSTORE PUSH1 0x20 PUSH1 0x4 DUP3 ADD MSTORE PUSH1 0x34 PUSH1 0x24 DUP3 ADD MSTORE PUSH32 0x53796D6D696F536F6C7665724465706F7369746F723A20416D6F756E74206D75 PUSH1 0x44 DUP3 ADD MSTORE PUSH32 0x73742062652067726561746572207468616E2030000000000000000000000000 PUSH1 0x64 DUP3 ADD MSTORE PUSH1 0x84 ADD PUSH2 0x7B6 JUMP JUMPDEST PUSH2 0x164 SLOAD PUSH1 0x40 MLOAD PUSH32 0x70A0823100000000000000000000000000000000000000000000000000000000 DUP2 MSTORE ADDRESS PUSH1 0x4 DUP3 ADD MSTORE PUSH1 0x1 PUSH1 0x1 PUSH1 0xA0 SHL SUB SWAP1 SWAP2 AND SWAP1 PUSH1 0x0 SWAP1 DUP3 SWAP1 PUSH4 0x70A08231 SWAP1 PUSH1 0x24 ADD PUSH1 0x20 PUSH1 0x40 MLOAD DUP1 DUP4 SUB DUP2 DUP7 GAS STATICCALL ISZERO DUP1 ISZERO PUSH2 0x2470 JUMPI RETURNDATASIZE PUSH1 0x0 DUP1 RETURNDATACOPY RETURNDATASIZE PUSH1 0x0 REVERT JUMPDEST POP POP POP POP PUSH1 0x40 MLOAD RETURNDATASIZE PUSH1 0x1F NOT PUSH1 0x1F DUP3 ADD AND DUP3 ADD DUP1 PUSH1 0x40 MSTORE POP DUP2 ADD SWAP1 PUSH2 0x2494 SWAP2 SWAP1 PUSH2 0x421D JUMP JUMPDEST SWAP1 POP PUSH2 0x165 SLOAD DUP2 PUSH2 0x24A5 SWAP2 SWAP1 PUSH2 0x420A JUMP JUMPDEST DUP5 GT ISZERO PUSH2 0x251A JUMPI PUSH1 0x40 MLOAD PUSH3 0x461BCD PUSH1 0xE5 SHL DUP2 MSTORE PUSH1 0x20 PUSH1 0x4 DUP3 ADD MSTORE PUSH1 0x2B PUSH1 0x24 DUP3 ADD MSTORE PUSH32 0x53796D6D696F536F6C7665724465706F7369746F723A20496E73756666696369 PUSH1 0x44 DUP3 ADD MSTORE PUSH32 0x656E742062616C616E6365000000000000000000000000000000000000000000 PUSH1 0x64 DUP3 ADD MSTORE PUSH1 0x84 ADD PUSH2 0x7B6 JUMP JUMPDEST PUSH2 0x252E PUSH1 0x1 PUSH1 0x1 PUSH1 0xA0 SHL SUB DUP4 AND DUP7 DUP7 PUSH2 0x2CC2 JUMP JUMPDEST POP POP POP POP POP JUMP JUMPDEST PUSH2 0x11D7 DUP2 CALLER PUSH2 0x2E5A JUMP JUMPDEST PUSH2 0x161 PUSH1 0x0 SWAP1 SLOAD SWAP1 PUSH2 0x100 EXP SWAP1 DIV PUSH1 0x1 PUSH1 0x1 PUSH1 0xA0 SHL SUB AND PUSH1 0x1 PUSH1 0x1 PUSH1 0xA0 SHL SUB AND PUSH4 0x5C1548FB PUSH1 0x40 MLOAD DUP2 PUSH4 0xFFFFFFFF AND PUSH1 0xE0 SHL DUP2 MSTORE PUSH1 0x4 ADD PUSH1 0x20 PUSH1 0x40 MLOAD DUP1 DUP4 SUB DUP2 DUP7 GAS STATICCALL ISZERO DUP1 ISZERO PUSH2 0x2593 JUMPI RETURNDATASIZE PUSH1 0x0 DUP1 RETURNDATACOPY RETURNDATASIZE PUSH1 0x0 REVERT JUMPDEST POP POP POP POP PUSH1 0x40 MLOAD RETURNDATASIZE PUSH1 0x1F NOT PUSH1 0x1F DUP3 ADD AND DUP3 ADD DUP1 PUSH1 0x40 MSTORE POP DUP2 ADD SWAP1 PUSH2 0x25B7 SWAP2 SWAP1 PUSH2 0x425F JUMP JUMPDEST PUSH2 0x164 DUP1 SLOAD PUSH20 0xFFFFFFFFFFFFFFFFFFFFFFFFFFFFFFFFFFFFFFFF NOT AND PUSH1 0x1 PUSH1 0x1 PUSH1 0xA0 SHL SUB SWAP3 SWAP1 SWAP3 AND SWAP2 DUP3 OR SWAP1 SSTORE PUSH1 0x40 DUP1 MLOAD PUSH32 0x313CE56700000000000000000000000000000000000000000000000000000000 DUP2 MSTORE SWAP1 MLOAD PUSH4 0x313CE567 SWAP2 PUSH1 0x4 DUP1 DUP3 ADD SWAP3 PUSH1 0x20 SWAP3 SWAP1 SWAP2 SWAP1 DUP3 SWAP1 SUB ADD DUP2 DUP7 GAS STATICCALL ISZERO DUP1 ISZERO PUSH2 0x2638 JUMPI RETURNDATASIZE PUSH1 0x0 DUP1 RETURNDATACOPY RETURNDATASIZE PUSH1 0x0 REVERT JUMPDEST POP POP POP POP PUSH1 0x40 MLOAD RETURNDATASIZE PUSH1 0x1F NOT PUSH1 0x1F DUP3 ADD AND DUP3 ADD DUP1 PUSH1 0x40 MSTORE POP DUP2 ADD SWAP1 PUSH2 0x265C SWAP2 SWAP1 PUSH2 0x427C JUMP JUMPDEST PUSH1 0xFF AND PUSH2 0x16A DUP2 SWAP1 SSTORE PUSH1 0x12 LT ISZERO PUSH2 0x2701 JUMPI PUSH1 0x40 MLOAD PUSH3 0x461BCD PUSH1 0xE5 SHL DUP2 MSTORE PUSH1 0x20 PUSH1 0x4 DUP3 ADD MSTORE PUSH1 0x4E PUSH1 0x24 DUP3 ADD MSTORE PUSH32 0x53796D6D696F536F6C7665724465706F7369746F723A20436F6C6C6174657261 PUSH1 0x44 DUP3 ADD MSTORE PUSH32 0x6C20646563696D616C732073686F756C64206265206C6F776572207468616E20 PUSH1 0x64 DUP3 ADD MSTORE PUSH32 0x6F7220657175616C20746F203138000000000000000000000000000000000000 PUSH1 0x84 DUP3 ADD MSTORE PUSH1 0xA4 ADD PUSH2 0x7B6 JUMP JUMPDEST JUMP JUMPDEST PUSH1 0x0 PUSH32 0xFFFFFFFF00000000000000000000000000000000000000000000000000000000 DUP3 AND PUSH32 0x7965DB0B00000000000000000000000000000000000000000000000000000000 EQ DUP1 PUSH2 0x91F JUMPI POP PUSH32 0x1FFC9A700000000000000000000000000000000000000000000000000000000 PUSH32 0xFFFFFFFF00000000000000000000000000000000000000000000000000000000 DUP4 AND EQ PUSH2 0x91F JUMP JUMPDEST PUSH2 0x27A4 DUP3 DUP3 PUSH2 0x2ECF JUMP JUMPDEST PUSH1 0x0 DUP3 DUP2 MSTORE PUSH1 0x97 PUSH1 0x20 MSTORE PUSH1 0x40 SWAP1 KECCAK256 PUSH2 0xAA3 SWAP1 DUP3 PUSH2 0x2F71 JUMP JUMPDEST PUSH2 0x27C6 DUP3 DUP3 PUSH2 0x2F86 JUMP JUMPDEST PUSH1 0x0 DUP3 DUP2 MSTORE PUSH1 0x97 PUSH1 0x20 MSTORE PUSH1 0x40 SWAP1 KECCAK256 PUSH2 0xAA3 SWAP1 DUP3 PUSH2 0x3009 JUMP JUMPDEST PUSH1 0xC9 SLOAD PUSH1 0xFF AND ISZERO PUSH2 0x2701 JUMPI PUSH1 0x40 MLOAD PUSH3 0x461BCD PUSH1 0xE5 SHL DUP2 MSTORE PUSH1 0x20 PUSH1 0x4 DUP3 ADD MSTORE PUSH1 0x10 PUSH1 0x24 DUP3 ADD MSTORE PUSH32 0x5061757361626C653A2070617573656400000000000000000000000000000000 PUSH1 0x44 DUP3 ADD MSTORE PUSH1 0x64 ADD PUSH2 0x7B6 JUMP JUMPDEST PUSH1 0x40 MLOAD PUSH1 0x1 PUSH1 0x1 PUSH1 0xA0 SHL SUB DUP1 DUP6 AND PUSH1 0x24 DUP4 ADD MSTORE DUP4 AND PUSH1 0x44 DUP3 ADD MSTORE PUSH1 0x64 DUP2 ADD DUP3 SWAP1 MSTORE PUSH2 0x28E2 SWAP1 DUP6 SWAP1 PUSH32 0x23B872DD00000000000000000000000000000000000000000000000000000000 SWAP1 PUSH1 0x84 ADD JUMPDEST PUSH1 0x40 DUP1 MLOAD PUSH1 0x1F NOT DUP2 DUP5 SUB ADD DUP2 MSTORE SWAP2 SWAP1 MSTORE PUSH1 0x20 DUP2 ADD DUP1 MLOAD PUSH28 0xFFFFFFFFFFFFFFFFFFFFFFFFFFFFFFFFFFFFFFFFFFFFFFFFFFFFFFFF AND PUSH32 0xFFFFFFFF00000000000000000000000000000000000000000000000000000000 SWAP1 SWAP4 AND SWAP3 SWAP1 SWAP3 OR SWAP1 SWAP2 MSTORE PUSH2 0x301E JUMP JUMPDEST POP POP POP POP JUMP JUMPDEST PUSH2 0x28F0 PUSH2 0x3106 JUMP JUMPDEST PUSH1 0xC9 DUP1 SLOAD PUSH1 0xFF NOT AND SWAP1 SSTORE PUSH32 0x5DB9EE0A495BF2E6FF9C91A7834C1BA4FDD244A5E8AA4E537BD38AEAE4B073AA CALLER JUMPDEST PUSH1 0x40 MLOAD PUSH1 0x1 PUSH1 0x1 PUSH1 0xA0 SHL SUB SWAP1 SWAP2 AND DUP2 MSTORE PUSH1 0x20 ADD PUSH1 0x40 MLOAD DUP1 SWAP2 SUB SWAP1 LOG1 JUMP JUMPDEST PUSH1 0x0 SLOAD PUSH2 0x100 SWAP1 DIV PUSH1 0xFF AND PUSH2 0x29A5 JUMPI PUSH1 0x40 MLOAD PUSH3 0x461BCD PUSH1 0xE5 SHL DUP2 MSTORE PUSH1 0x20 PUSH1 0x4 DUP3 ADD MSTORE PUSH1 0x2B PUSH1 0x24 DUP3 ADD MSTORE PUSH32 0x496E697469616C697A61626C653A20636F6E7472616374206973206E6F742069 PUSH1 0x44 DUP3 ADD MSTORE PUSH11 0x6E697469616C697A696E67 PUSH1 0xA8 SHL PUSH1 0x64 DUP3 ADD MSTORE PUSH1 0x84 ADD PUSH2 0x7B6 JUMP JUMPDEST PUSH2 0x2701 PUSH2 0x3158 JUMP JUMPDEST PUSH1 0x0 SLOAD PUSH2 0x100 SWAP1 DIV PUSH1 0xFF AND PUSH2 0x2701 JUMPI PUSH1 0x40 MLOAD PUSH3 0x461BCD PUSH1 0xE5 SHL DUP2 MSTORE PUSH1 0x20 PUSH1 0x4 DUP3 ADD MSTORE PUSH1 0x2B PUSH1 0x24 DUP3 ADD MSTORE PUSH32 0x496E697469616C697A61626C653A20636F6E7472616374206973206E6F742069 PUSH1 0x44 DUP3 ADD MSTORE PUSH11 0x6E697469616C697A696E67 PUSH1 0xA8 SHL PUSH1 0x64 DUP3 ADD MSTORE PUSH1 0x84 ADD PUSH2 0x7B6 JUMP JUMPDEST PUSH1 0x0 SLOAD PUSH2 0x100 SWAP1 DIV PUSH1 0xFF AND PUSH2 0x2A83 JUMPI PUSH1 0x40 MLOAD PUSH3 0x461BCD PUSH1 0xE5 SHL DUP2 MSTORE PUSH1 0x20 PUSH1 0x4 DUP3 ADD MSTORE PUSH1 0x2B PUSH1 0x24 DUP3 ADD MSTORE PUSH32 0x496E697469616C697A61626C653A20636F6E7472616374206973206E6F742069 PUSH1 0x44 DUP3 ADD MSTORE PUSH11 0x6E697469616C697A696E67 PUSH1 0xA8 SHL PUSH1 0x64 DUP3 ADD MSTORE PUSH1 0x84 ADD PUSH2 0x7B6 JUMP JUMPDEST PUSH2 0x2701 PUSH2 0x31C3 JUMP JUMPDEST PUSH1 0x0 SLOAD PUSH2 0x100 SWAP1 DIV PUSH1 0xFF AND PUSH2 0x2AF6 JUMPI PUSH1 0x40 MLOAD PUSH3 0x461BCD PUSH1 0xE5 SHL DUP2 MSTORE PUSH1 0x20 PUSH1 0x4 DUP3 ADD MSTORE PUSH1 0x2B PUSH1 0x24 DUP3 ADD MSTORE PUSH32 0x496E697469616C697A61626C653A20636F6E7472616374206973206E6F742069 PUSH1 0x44 DUP3 ADD MSTORE PUSH11 0x6E697469616C697A696E67 PUSH1 0xA8 SHL PUSH1 0x64 DUP3 ADD MSTORE PUSH1 0x84 ADD PUSH2 0x7B6 JUMP JUMPDEST PUSH2 0xB30 DUP3 DUP3 PUSH2 0x323A JUMP JUMPDEST PUSH2 0x16C DUP2 SWAP1 SSTORE PUSH1 0x40 MLOAD DUP2 DUP2 MSTORE PUSH32 0x699D7BC1FD2D92F6912F04B6A309EF25EC3937479E80CDC04B75F234A724E9A2 SWAP1 PUSH1 0x20 ADD PUSH1 0x40 MLOAD DUP1 SWAP2 SUB SWAP1 LOG1 POP JUMP JUMPDEST PUSH2 0x2B44 PUSH2 0x27DE JUMP JUMPDEST PUSH1 0xC9 DUP1 SLOAD PUSH1 0xFF NOT AND PUSH1 0x1 OR SWAP1 SSTORE PUSH32 0x62E78CEA01BEE320CD4E420270B5EA74000D11B0C9F74754EBDBFC544B05A258 PUSH2 0x291D CALLER SWAP1 JUMP JUMPDEST PUSH1 0x40 DUP1 MLOAD PUSH32 0xB1DD0BED30D3B8AB9FC76313ECB7DB14F6B497D5F1F7859FA5CB5811C1CA3073 PUSH1 0x20 DUP3 ADD MSTORE SWAP1 DUP2 ADD DUP8 SWAP1 MSTORE PUSH1 0x60 DUP2 ADD DUP7 SWAP1 MSTORE PUSH1 0x1 PUSH1 0x1 PUSH1 0xA0 SHL SUB DUP6 AND PUSH1 0x80 DUP3 ADD MSTORE PUSH1 0xA0 DUP2 ADD DUP5 SWAP1 MSTORE PUSH1 0xC0 DUP2 ADD DUP4 SWAP1 MSTORE PUSH1 0x0 SWAP1 DUP2 SWAP1 PUSH2 0x2BF4 SWAP1 PUSH1 0xE0 ADD PUSH1 0x40 MLOAD PUSH1 0x20 DUP2 DUP4 SUB SUB DUP2 MSTORE SWAP1 PUSH1 0x40 MSTORE DUP1 MLOAD SWAP1 PUSH1 0x20 ADD KECCAK256 PUSH2 0x32CD JUMP JUMPDEST SWAP1 POP PUSH1 0x0 PUSH2 0x2C02 DUP3 DUP6 PUSH2 0x3315 JUMP JUMPDEST PUSH2 0x163 SLOAD PUSH1 0x1 PUSH1 0x1 PUSH1 0xA0 SHL SUB SWAP2 DUP3 AND SWAP2 AND EQ SWAP10 SWAP9 POP POP POP POP POP POP POP POP POP JUMP JUMPDEST PUSH1 0x60 PUSH1 0xFD DUP1 SLOAD PUSH2 0x2C30 SWAP1 PUSH2 0x429F JUMP JUMPDEST DUP1 PUSH1 0x1F ADD PUSH1 0x20 DUP1 SWAP2 DIV MUL PUSH1 0x20 ADD PUSH1 0x40 MLOAD SWAP1 DUP2 ADD PUSH1 0x40 MSTORE DUP1 SWAP3 SWAP2 SWAP1 DUP2 DUP2 MSTORE PUSH1 0x20 ADD DUP3 DUP1 SLOAD PUSH2 0x2C5C SWAP1 PUSH2 0x429F JUMP JUMPDEST DUP1 ISZERO PUSH2 0x2CA9 JUMPI DUP1 PUSH1 0x1F LT PUSH2 0x2C7E JUMPI PUSH2 0x100 DUP1 DUP4 SLOAD DIV MUL DUP4 MSTORE SWAP2 PUSH1 0x20 ADD SWAP2 PUSH2 0x2CA9 JUMP JUMPDEST DUP3 ADD SWAP2 SWAP1 PUSH1 0x0 MSTORE PUSH1 0x20 PUSH1 0x0 KECCAK256 SWAP1 JUMPDEST DUP2 SLOAD DUP2 MSTORE SWAP1 PUSH1 0x1 ADD SWAP1 PUSH1 0x20 ADD DUP1 DUP4 GT PUSH2 0x2C8C JUMPI DUP3 SWAP1 SUB PUSH1 0x1F AND DUP3 ADD SWAP2 JUMPDEST POP POP POP POP POP SWAP1 POP SWAP1 JUMP JUMPDEST PUSH1 0x60 PUSH1 0xFE DUP1 SLOAD PUSH2 0x2C30 SWAP1 PUSH2 0x429F JUMP JUMPDEST PUSH1 0x40 MLOAD PUSH1 0x1 PUSH1 0x1 PUSH1 0xA0 SHL SUB DUP4 AND PUSH1 0x24 DUP3 ADD MSTORE PUSH1 0x44 DUP2 ADD DUP3 SWAP1 MSTORE PUSH2 0xAA3 SWAP1 DUP5 SWAP1 PUSH32 0xA9059CBB00000000000000000000000000000000000000000000000000000000 SWAP1 PUSH1 0x64 ADD PUSH2 0x287E JUMP JUMPDEST PUSH1 0x0 PUSH2 0x1D7E DUP4 DUP4 PUSH2 0x3339 JUMP JUMPDEST PUSH1 0x2 PUSH2 0x12F SLOAD SUB PUSH2 0x2D6A JUMPI PUSH1 0x40 MLOAD PUSH3 0x461BCD PUSH1 0xE5 SHL DUP2 MSTORE PUSH1 0x20 PUSH1 0x4 DUP3 ADD MSTORE PUSH1 0x1F PUSH1 0x24 DUP3 ADD MSTORE PUSH32 0x5265656E7472616E637947756172643A207265656E7472616E742063616C6C00 PUSH1 0x44 DUP3 ADD MSTORE PUSH1 0x64 ADD PUSH2 0x7B6 JUMP JUMPDEST PUSH1 0x2 PUSH2 0x12F SSTORE JUMP JUMPDEST PUSH1 0x40 DUP1 MLOAD PUSH1 0x1 PUSH1 0x1 PUSH1 0xA0 SHL SUB DUP5 AND PUSH1 0x24 DUP3 ADD MSTORE PUSH1 0x44 DUP1 DUP3 ADD DUP5 SWAP1 MSTORE DUP3 MLOAD DUP1 DUP4 SUB SWAP1 SWAP2 ADD DUP2 MSTORE PUSH1 0x64 SWAP1 SWAP2 ADD SWAP1 SWAP2 MSTORE PUSH1 0x20 DUP2 ADD DUP1 MLOAD PUSH28 0xFFFFFFFFFFFFFFFFFFFFFFFFFFFFFFFFFFFFFFFFFFFFFFFFFFFFFFFF AND PUSH32 0x95EA7B300000000000000000000000000000000000000000000000000000000 OR SWAP1 MSTORE PUSH2 0x2DF1 DUP5 DUP3 PUSH2 0x3363 JUMP JUMPDEST PUSH2 0x28E2 JUMPI PUSH1 0x40 MLOAD PUSH1 0x1 PUSH1 0x1 PUSH1 0xA0 SHL SUB DUP5 AND PUSH1 0x24 DUP3 ADD MSTORE PUSH1 0x0 PUSH1 0x44 DUP3 ADD MSTORE PUSH2 0x2E3E SWAP1 DUP6 SWAP1 PUSH32 0x95EA7B300000000000000000000000000000000000000000000000000000000 SWAP1 PUSH1 0x64 ADD PUSH2 0x287E JUMP JUMPDEST PUSH2 0x28E2 DUP5 DUP3 PUSH2 0x301E JUMP JUMPDEST PUSH1 0x1 PUSH2 0x12F SSTORE JUMP JUMPDEST PUSH1 0x0 PUSH2 0x91F DUP3 SLOAD SWAP1 JUMP JUMPDEST PUSH1 0x0 DUP3 DUP2 MSTORE PUSH1 0x65 PUSH1 0x20 SWAP1 DUP2 MSTORE PUSH1 0x40 DUP1 DUP4 KECCAK256 PUSH1 0x1 PUSH1 0x1 PUSH1 0xA0 SHL SUB DUP6 AND DUP5 MSTORE SWAP1 SWAP2 MSTORE SWAP1 KECCAK256 SLOAD PUSH1 0xFF AND PUSH2 0xB30 JUMPI PUSH2 0x2E8D DUP2 PUSH2 0x340A JUMP JUMPDEST PUSH2 0x2E98 DUP4 PUSH1 0x20 PUSH2 0x341C JUMP JUMPDEST PUSH1 0x40 MLOAD PUSH1 0x20 ADD PUSH2 0x2EA9 SWAP3 SWAP2 SWAP1 PUSH2 0x42D9 JUMP JUMPDEST PUSH1 0x40 DUP1 MLOAD PUSH1 0x1F NOT DUP2 DUP5 SUB ADD DUP2 MSTORE SWAP1 DUP3 SWAP1 MSTORE PUSH3 0x461BCD PUSH1 0xE5 SHL DUP3 MSTORE PUSH2 0x7B6 SWAP2 PUSH1 0x4 ADD PUSH2 0x435A JUMP JUMPDEST PUSH1 0x0 DUP3 DUP2 MSTORE PUSH1 0x65 PUSH1 0x20 SWAP1 DUP2 MSTORE PUSH1 0x40 DUP1 DUP4 KECCAK256 PUSH1 0x1 PUSH1 0x1 PUSH1 0xA0 SHL SUB DUP6 AND DUP5 MSTORE SWAP1 SWAP2 MSTORE SWAP1 KECCAK256 SLOAD PUSH1 0xFF AND PUSH2 0xB30 JUMPI PUSH1 0x0 DUP3 DUP2 MSTORE PUSH1 0x65 PUSH1 0x20 SWAP1 DUP2 MSTORE PUSH1 0x40 DUP1 DUP4 KECCAK256 PUSH1 0x1 PUSH1 0x1 PUSH1 0xA0 SHL SUB DUP6 AND DUP5 MSTORE SWAP1 SWAP2 MSTORE SWAP1 KECCAK256 DUP1 SLOAD PUSH1 0xFF NOT AND PUSH1 0x1 OR SWAP1 SSTORE PUSH2 0x2F2D CALLER SWAP1 JUMP JUMPDEST PUSH1 0x1 PUSH1 0x1 PUSH1 0xA0 SHL SUB AND DUP2 PUSH1 0x1 PUSH1 0x1 PUSH1 0xA0 SHL SUB AND DUP4 PUSH32 0x2F8788117E7EFF1D82E926EC794901D17C78024A50270940304540A733656F0D PUSH1 0x40 MLOAD PUSH1 0x40 MLOAD DUP1 SWAP2 SUB SWAP1 LOG4 POP POP JUMP JUMPDEST PUSH1 0x0 PUSH2 0x1D7E DUP4 PUSH1 0x1 PUSH1 0x1 PUSH1 0xA0 SHL SUB DUP5 AND PUSH2 0x3645 JUMP JUMPDEST PUSH1 0x0 DUP3 DUP2 MSTORE PUSH1 0x65 PUSH1 0x20 SWAP1 DUP2 MSTORE PUSH1 0x40 DUP1 DUP4 KECCAK256 PUSH1 0x1 PUSH1 0x1 PUSH1 0xA0 SHL SUB DUP6 AND DUP5 MSTORE SWAP1 SWAP2 MSTORE SWAP1 KECCAK256 SLOAD PUSH1 0xFF AND ISZERO PUSH2 0xB30 JUMPI PUSH1 0x0 DUP3 DUP2 MSTORE PUSH1 0x65 PUSH1 0x20 SWAP1 DUP2 MSTORE PUSH1 0x40 DUP1 DUP4 KECCAK256 PUSH1 0x1 PUSH1 0x1 PUSH1 0xA0 SHL SUB DUP6 AND DUP1 DUP6 MSTORE SWAP3 MSTORE DUP1 DUP4 KECCAK256 DUP1 SLOAD PUSH1 0xFF NOT AND SWAP1 SSTORE MLOAD CALLER SWAP3 DUP6 SWAP2 PUSH32 0xF6391F5C32D9C69D2A47EA670B442974B53935D1EDC7FD64EB21E047A839171B SWAP2 SWAP1 LOG4 POP POP JUMP JUMPDEST PUSH1 0x0 PUSH2 0x1D7E DUP4 PUSH1 0x1 PUSH1 0x1 PUSH1 0xA0 SHL SUB DUP5 AND PUSH2 0x3694 JUMP JUMPDEST PUSH1 0x0 PUSH2 0x3073 DUP3 PUSH1 0x40 MLOAD DUP1 PUSH1 0x40 ADD PUSH1 0x40 MSTORE DUP1 PUSH1 0x20 DUP2 MSTORE PUSH1 0x20 ADD PUSH32 0x5361666545524332303A206C6F772D6C6576656C2063616C6C206661696C6564 DUP2 MSTORE POP DUP6 PUSH1 0x1 PUSH1 0x1 PUSH1 0xA0 SHL SUB AND PUSH2 0x3787 SWAP1 SWAP3 SWAP2 SWAP1 PUSH4 0xFFFFFFFF AND JUMP JUMPDEST SWAP1 POP DUP1 MLOAD PUSH1 0x0 EQ DUP1 PUSH2 0x3094 JUMPI POP DUP1 DUP1 PUSH1 0x20 ADD SWAP1 MLOAD DUP2 ADD SWAP1 PUSH2 0x3094 SWAP2 SWAP1 PUSH2 0x436D JUMP JUMPDEST PUSH2 0xAA3 JUMPI PUSH1 0x40 MLOAD PUSH3 0x461BCD PUSH1 0xE5 SHL DUP2 MSTORE PUSH1 0x20 PUSH1 0x4 DUP3 ADD MSTORE PUSH1 0x2A PUSH1 0x24 DUP3 ADD MSTORE PUSH32 0x5361666545524332303A204552433230206F7065726174696F6E20646964206E PUSH1 0x44 DUP3 ADD MSTORE PUSH32 0x6F74207375636365656400000000000000000000000000000000000000000000 PUSH1 0x64 DUP3 ADD MSTORE PUSH1 0x84 ADD PUSH2 0x7B6 JUMP JUMPDEST PUSH1 0xC9 SLOAD PUSH1 0xFF AND PUSH2 0x2701 JUMPI PUSH1 0x40 MLOAD PUSH3 0x461BCD PUSH1 0xE5 SHL DUP2 MSTORE PUSH1 0x20 PUSH1 0x4 DUP3 ADD MSTORE PUSH1 0x14 PUSH1 0x24 DUP3 ADD MSTORE PUSH32 0x5061757361626C653A206E6F7420706175736564000000000000000000000000 PUSH1 0x44 DUP3 ADD MSTORE PUSH1 0x64 ADD PUSH2 0x7B6 JUMP JUMPDEST PUSH1 0x0 SLOAD PUSH2 0x100 SWAP1 DIV PUSH1 0xFF AND PUSH2 0x2E48 JUMPI PUSH1 0x40 MLOAD PUSH3 0x461BCD PUSH1 0xE5 SHL DUP2 MSTORE PUSH1 0x20 PUSH1 0x4 DUP3 ADD MSTORE PUSH1 0x2B PUSH1 0x24 DUP3 ADD MSTORE PUSH32 0x496E697469616C697A61626C653A20636F6E7472616374206973206E6F742069 PUSH1 0x44 DUP3 ADD MSTORE PUSH11 0x6E697469616C697A696E67 PUSH1 0xA8 SHL PUSH1 0x64 DUP3 ADD MSTORE PUSH1 0x84 ADD PUSH2 0x7B6 JUMP JUMPDEST PUSH1 0x0 SLOAD PUSH2 0x100 SWAP1 DIV PUSH1 0xFF AND PUSH2 0x322E JUMPI PUSH1 0x40 MLOAD PUSH3 0x461BCD PUSH1 0xE5 SHL DUP2 MSTORE PUSH1 0x20 PUSH1 0x4 DUP3 ADD MSTORE PUSH1 0x2B PUSH1 0x24 DUP3 ADD MSTORE PUSH32 0x496E697469616C697A61626C653A20636F6E7472616374206973206E6F742069 PUSH1 0x44 DUP3 ADD MSTORE PUSH11 0x6E697469616C697A696E67 PUSH1 0xA8 SHL PUSH1 0x64 DUP3 ADD MSTORE PUSH1 0x84 ADD PUSH2 0x7B6 JUMP JUMPDEST PUSH1 0xC9 DUP1 SLOAD PUSH1 0xFF NOT AND SWAP1 SSTORE JUMP JUMPDEST PUSH1 0x0 SLOAD PUSH2 0x100 SWAP1 DIV PUSH1 0xFF AND PUSH2 0x32A5 JUMPI PUSH1 0x40 MLOAD PUSH3 0x461BCD PUSH1 0xE5 SHL DUP2 MSTORE PUSH1 0x20 PUSH1 0x4 DUP3 ADD MSTORE PUSH1 0x2B PUSH1 0x24 DUP3 ADD MSTORE PUSH32 0x496E697469616C697A61626C653A20636F6E7472616374206973206E6F742069 PUSH1 0x44 DUP3 ADD MSTORE PUSH11 0x6E697469616C697A696E67 PUSH1 0xA8 SHL PUSH1 0x64 DUP3 ADD MSTORE PUSH1 0x84 ADD PUSH2 0x7B6 JUMP JUMPDEST PUSH1 0xFD PUSH2 0x32B1 DUP4 DUP3 PUSH2 0x43D6 JUMP JUMPDEST POP PUSH1 0xFE PUSH2 0x32BE DUP3 DUP3 PUSH2 0x43D6 JUMP JUMPDEST POP POP PUSH1 0x0 PUSH1 0xFB DUP2 SWAP1 SSTORE PUSH1 0xFC SSTORE POP JUMP JUMPDEST PUSH1 0x0 PUSH2 0x91F PUSH2 0x32DA PUSH2 0x379E JUMP JUMPDEST DUP4 PUSH1 0x40 MLOAD PUSH32 0x1901000000000000000000000000000000000000000000000000000000000000 DUP2 MSTORE PUSH1 0x2 DUP2 ADD SWAP3 SWAP1 SWAP3 MSTORE PUSH1 0x22 DUP3 ADD MSTORE PUSH1 0x42 SWAP1 KECCAK256 SWAP1 JUMP JUMPDEST PUSH1 0x0 DUP1 PUSH1 0x0 PUSH2 0x3324 DUP6 DUP6 PUSH2 0x37AD JUMP JUMPDEST SWAP2 POP SWAP2 POP PUSH2 0x3331 DUP2 PUSH2 0x37F2 JUMP JUMPDEST POP SWAP4 SWAP3 POP POP POP JUMP JUMPDEST PUSH1 0x0 DUP3 PUSH1 0x0 ADD DUP3 DUP2 SLOAD DUP2 LT PUSH2 0x3350 JUMPI PUSH2 0x3350 PUSH2 0x4192 JUMP JUMPDEST SWAP1 PUSH1 0x0 MSTORE PUSH1 0x20 PUSH1 0x0 KECCAK256 ADD SLOAD SWAP1 POP SWAP3 SWAP2 POP POP JUMP JUMPDEST PUSH1 0x0 DUP1 PUSH1 0x0 DUP5 PUSH1 0x1 PUSH1 0x1 PUSH1 0xA0 SHL SUB AND DUP5 PUSH1 0x40 MLOAD PUSH2 0x3380 SWAP2 SWAP1 PUSH2 0x4495 JUMP JUMPDEST PUSH1 0x0 PUSH1 0x40 MLOAD DUP1 DUP4 SUB DUP2 PUSH1 0x0 DUP7 GAS CALL SWAP2 POP POP RETURNDATASIZE DUP1 PUSH1 0x0 DUP2 EQ PUSH2 0x33BD JUMPI PUSH1 0x40 MLOAD SWAP2 POP PUSH1 0x1F NOT PUSH1 0x3F RETURNDATASIZE ADD AND DUP3 ADD PUSH1 0x40 MSTORE RETURNDATASIZE DUP3 MSTORE RETURNDATASIZE PUSH1 0x0 PUSH1 0x20 DUP5 ADD RETURNDATACOPY PUSH2 0x33C2 JUMP JUMPDEST PUSH1 0x60 SWAP2 POP JUMPDEST POP SWAP2 POP SWAP2 POP DUP2 DUP1 ISZERO PUSH2 0x33EC JUMPI POP DUP1 MLOAD ISZERO DUP1 PUSH2 0x33EC JUMPI POP DUP1 DUP1 PUSH1 0x20 ADD SWAP1 MLOAD DUP2 ADD SWAP1 PUSH2 0x33EC SWAP2 SWAP1 PUSH2 0x436D JUMP JUMPDEST DUP1 ISZERO PUSH2 0x3401 JUMPI POP PUSH1 0x1 PUSH1 0x1 PUSH1 0xA0 SHL SUB DUP6 AND EXTCODESIZE ISZERO ISZERO JUMPDEST SWAP6 SWAP5 POP POP POP POP POP JUMP JUMPDEST PUSH1 0x60 PUSH2 0x91F PUSH1 0x1 PUSH1 0x1 PUSH1 0xA0 SHL SUB DUP4 AND PUSH1 0x14 JUMPDEST PUSH1 0x60 PUSH1 0x0 PUSH2 0x342B DUP4 PUSH1 0x2 PUSH2 0x41BE JUMP JUMPDEST PUSH2 0x3436 SWAP1 PUSH1 0x2 PUSH2 0x41F7 JUMP JUMPDEST PUSH8 0xFFFFFFFFFFFFFFFF DUP2 GT ISZERO PUSH2 0x344E JUMPI PUSH2 0x344E PUSH2 0x3D8D JUMP JUMPDEST PUSH1 0x40 MLOAD SWAP1 DUP1 DUP3 MSTORE DUP1 PUSH1 0x1F ADD PUSH1 0x1F NOT AND PUSH1 0x20 ADD DUP3 ADD PUSH1 0x40 MSTORE DUP1 ISZERO PUSH2 0x3478 JUMPI PUSH1 0x20 DUP3 ADD DUP2 DUP1 CALLDATASIZE DUP4 CALLDATACOPY ADD SWAP1 POP JUMPDEST POP SWAP1 POP PUSH32 0x3000000000000000000000000000000000000000000000000000000000000000 DUP2 PUSH1 0x0 DUP2 MLOAD DUP2 LT PUSH2 0x34AF JUMPI PUSH2 0x34AF PUSH2 0x4192 JUMP JUMPDEST PUSH1 0x20 ADD ADD SWAP1 PUSH31 0xFFFFFFFFFFFFFFFFFFFFFFFFFFFFFFFFFFFFFFFFFFFFFFFFFFFFFFFFFFFFFF NOT AND SWAP1 DUP2 PUSH1 0x0 BYTE SWAP1 MSTORE8 POP PUSH32 0x7800000000000000000000000000000000000000000000000000000000000000 DUP2 PUSH1 0x1 DUP2 MLOAD DUP2 LT PUSH2 0x3512 JUMPI PUSH2 0x3512 PUSH2 0x4192 JUMP JUMPDEST PUSH1 0x20 ADD ADD SWAP1 PUSH31 0xFFFFFFFFFFFFFFFFFFFFFFFFFFFFFFFFFFFFFFFFFFFFFFFFFFFFFFFFFFFFFF NOT AND SWAP1 DUP2 PUSH1 0x0 BYTE SWAP1 MSTORE8 POP PUSH1 0x0 PUSH2 0x354E DUP5 PUSH1 0x2 PUSH2 0x41BE JUMP JUMPDEST PUSH2 0x3559 SWAP1 PUSH1 0x1 PUSH2 0x41F7 JUMP JUMPDEST SWAP1 POP JUMPDEST PUSH1 0x1 DUP2 GT ISZERO PUSH2 0x35F6 JUMPI PUSH32 0x3031323334353637383961626364656600000000000000000000000000000000 DUP6 PUSH1 0xF AND PUSH1 0x10 DUP2 LT PUSH2 0x359A JUMPI PUSH2 0x359A PUSH2 0x4192 JUMP JUMPDEST BYTE PUSH1 0xF8 SHL DUP3 DUP3 DUP2 MLOAD DUP2 LT PUSH2 0x35B0 JUMPI PUSH2 0x35B0 PUSH2 0x4192 JUMP JUMPDEST PUSH1 0x20 ADD ADD SWAP1 PUSH31 0xFFFFFFFFFFFFFFFFFFFFFFFFFFFFFFFFFFFFFFFFFFFFFFFFFFFFFFFFFFFFFF NOT AND SWAP1 DUP2 PUSH1 0x0 BYTE SWAP1 MSTORE8 POP PUSH1 0x4 SWAP5 SWAP1 SWAP5 SHR SWAP4 PUSH2 0x35EF DUP2 PUSH2 0x44B1 JUMP JUMPDEST SWAP1 POP PUSH2 0x355C JUMP JUMPDEST POP DUP4 ISZERO PUSH2 0x1D7E JUMPI PUSH1 0x40 MLOAD PUSH3 0x461BCD PUSH1 0xE5 SHL DUP2 MSTORE PUSH1 0x20 PUSH1 0x4 DUP3 ADD DUP2 SWAP1 MSTORE PUSH1 0x24 DUP3 ADD MSTORE PUSH32 0x537472696E67733A20686578206C656E67746820696E73756666696369656E74 PUSH1 0x44 DUP3 ADD MSTORE PUSH1 0x64 ADD PUSH2 0x7B6 JUMP JUMPDEST PUSH1 0x0 DUP2 DUP2 MSTORE PUSH1 0x1 DUP4 ADD PUSH1 0x20 MSTORE PUSH1 0x40 DUP2 KECCAK256 SLOAD PUSH2 0x368C JUMPI POP DUP2 SLOAD PUSH1 0x1 DUP2 DUP2 ADD DUP5 SSTORE PUSH1 0x0 DUP5 DUP2 MSTORE PUSH1 0x20 DUP1 DUP3 KECCAK256 SWAP1 SWAP4 ADD DUP5 SWAP1 SSTORE DUP5 SLOAD DUP5 DUP3 MSTORE DUP3 DUP7 ADD SWAP1 SWAP4 MSTORE PUSH1 0x40 SWAP1 KECCAK256 SWAP2 SWAP1 SWAP2 SSTORE PUSH2 0x91F JUMP JUMPDEST POP PUSH1 0x0 PUSH2 0x91F JUMP JUMPDEST PUSH1 0x0 DUP2 DUP2 MSTORE PUSH1 0x1 DUP4 ADD PUSH1 0x20 MSTORE PUSH1 0x40 DUP2 KECCAK256 SLOAD DUP1 ISZERO PUSH2 0x377D JUMPI PUSH1 0x0 PUSH2 0x36B8 PUSH1 0x1 DUP4 PUSH2 0x420A JUMP JUMPDEST DUP6 SLOAD SWAP1 SWAP2 POP PUSH1 0x0 SWAP1 PUSH2 0x36CC SWAP1 PUSH1 0x1 SWAP1 PUSH2 0x420A JUMP JUMPDEST SWAP1 POP DUP2 DUP2 EQ PUSH2 0x3731 JUMPI PUSH1 0x0 DUP7 PUSH1 0x0 ADD DUP3 DUP2 SLOAD DUP2 LT PUSH2 0x36EC JUMPI PUSH2 0x36EC PUSH2 0x4192 JUMP JUMPDEST SWAP1 PUSH1 0x0 MSTORE PUSH1 0x20 PUSH1 0x0 KECCAK256 ADD SLOAD SWAP1 POP DUP1 DUP8 PUSH1 0x0 ADD DUP5 DUP2 SLOAD DUP2 LT PUSH2 0x370F JUMPI PUSH2 0x370F PUSH2 0x4192 JUMP JUMPDEST PUSH1 0x0 SWAP2 DUP3 MSTORE PUSH1 0x20 DUP1 DUP4 KECCAK256 SWAP1 SWAP2 ADD SWAP3 SWAP1 SWAP3 SSTORE SWAP2 DUP3 MSTORE PUSH1 0x1 DUP9 ADD SWAP1 MSTORE PUSH1 0x40 SWAP1 KECCAK256 DUP4 SWAP1 SSTORE JUMPDEST DUP6 SLOAD DUP7 SWAP1 DUP1 PUSH2 0x3742 JUMPI PUSH2 0x3742 PUSH2 0x44C8 JUMP JUMPDEST PUSH1 0x1 SWAP1 SUB DUP2 DUP2 SWAP1 PUSH1 0x0 MSTORE PUSH1 0x20 PUSH1 0x0 KECCAK256 ADD PUSH1 0x0 SWAP1 SSTORE SWAP1 SSTORE DUP6 PUSH1 0x1 ADD PUSH1 0x0 DUP7 DUP2 MSTORE PUSH1 0x20 ADD SWAP1 DUP2 MSTORE PUSH1 0x20 ADD PUSH1 0x0 KECCAK256 PUSH1 0x0 SWAP1 SSTORE PUSH1 0x1 SWAP4 POP POP POP POP PUSH2 0x91F JUMP JUMPDEST PUSH1 0x0 SWAP2 POP POP PUSH2 0x91F JUMP JUMPDEST PUSH1 0x60 PUSH2 0x3796 DUP5 DUP5 PUSH1 0x0 DUP6 PUSH2 0x3957 JUMP JUMPDEST SWAP5 SWAP4 POP POP POP POP JUMP JUMPDEST PUSH1 0x0 PUSH2 0x37A8 PUSH2 0x3A49 JUMP JUMPDEST SWAP1 POP SWAP1 JUMP JUMPDEST PUSH1 0x0 DUP1 DUP3 MLOAD PUSH1 0x41 SUB PUSH2 0x37E3 JUMPI PUSH1 0x20 DUP4 ADD MLOAD PUSH1 0x40 DUP5 ADD MLOAD PUSH1 0x60 DUP6 ADD MLOAD PUSH1 0x0 BYTE PUSH2 0x37D7 DUP8 DUP3 DUP6 DUP6 PUSH2 0x3ABD JUMP JUMPDEST SWAP5 POP SWAP5 POP POP POP POP PUSH2 0x37EB JUMP JUMPDEST POP PUSH1 0x0 SWAP1 POP PUSH1 0x2 JUMPDEST SWAP3 POP SWAP3 SWAP1 POP JUMP JUMPDEST PUSH1 0x0 DUP2 PUSH1 0x4 DUP2 GT ISZERO PUSH2 0x3806 JUMPI PUSH2 0x3806 PUSH2 0x4112 JUMP JUMPDEST SUB PUSH2 0x380E JUMPI POP JUMP JUMPDEST PUSH1 0x1 DUP2 PUSH1 0x4 DUP2 GT ISZERO PUSH2 0x3822 JUMPI PUSH2 0x3822 PUSH2 0x4112 JUMP JUMPDEST SUB PUSH2 0x386F JUMPI PUSH1 0x40 MLOAD PUSH3 0x461BCD PUSH1 0xE5 SHL DUP2 MSTORE PUSH1 0x20 PUSH1 0x4 DUP3 ADD MSTORE PUSH1 0x18 PUSH1 0x24 DUP3 ADD MSTORE PUSH32 0x45434453413A20696E76616C6964207369676E61747572650000000000000000 PUSH1 0x44 DUP3 ADD MSTORE PUSH1 0x64 ADD PUSH2 0x7B6 JUMP JUMPDEST PUSH1 0x2 DUP2 PUSH1 0x4 DUP2 GT ISZERO PUSH2 0x3883 JUMPI PUSH2 0x3883 PUSH2 0x4112 JUMP JUMPDEST SUB PUSH2 0x38D0 JUMPI PUSH1 0x40 MLOAD PUSH3 0x461BCD PUSH1 0xE5 SHL DUP2 MSTORE PUSH1 0x20 PUSH1 0x4 DUP3 ADD MSTORE PUSH1 0x1F PUSH1 0x24 DUP3 ADD MSTORE PUSH32 0x45434453413A20696E76616C6964207369676E6174757265206C656E67746800 PUSH1 0x44 DUP3 ADD MSTORE PUSH1 0x64 ADD PUSH2 0x7B6 JUMP JUMPDEST PUSH1 0x3 DUP2 PUSH1 0x4 DUP2 GT ISZERO PUSH2 0x38E4 JUMPI PUSH2 0x38E4 PUSH2 0x4112 JUMP JUMPDEST SUB PUSH2 0x11D7 JUMPI PUSH1 0x40 MLOAD PUSH3 0x461BCD PUSH1 0xE5 SHL DUP2 MSTORE PUSH1 0x20 PUSH1 0x4 DUP3 ADD MSTORE PUSH1 0x22 PUSH1 0x24 DUP3 ADD MSTORE PUSH32 0x45434453413A20696E76616C6964207369676E6174757265202773272076616C PUSH1 0x44 DUP3 ADD MSTORE PUSH32 0x7565000000000000000000000000000000000000000000000000000000000000 PUSH1 0x64 DUP3 ADD MSTORE PUSH1 0x84 ADD PUSH2 0x7B6 JUMP JUMPDEST PUSH1 0x60 DUP3 SELFBALANCE LT ISZERO PUSH2 0x39CF JUMPI PUSH1 0x40 MLOAD PUSH3 0x461BCD PUSH1 0xE5 SHL DUP2 MSTORE PUSH1 0x20 PUSH1 0x4 DUP3 ADD MSTORE PUSH1 0x26 PUSH1 0x24 DUP3 ADD MSTORE PUSH32 0x416464726573733A20696E73756666696369656E742062616C616E636520666F PUSH1 0x44 DUP3 ADD MSTORE PUSH32 0x722063616C6C0000000000000000000000000000000000000000000000000000 PUSH1 0x64 DUP3 ADD MSTORE PUSH1 0x84 ADD PUSH2 0x7B6 JUMP JUMPDEST PUSH1 0x0 DUP1 DUP7 PUSH1 0x1 PUSH1 0x1 PUSH1 0xA0 SHL SUB AND DUP6 DUP8 PUSH1 0x40 MLOAD PUSH2 0x39EB SWAP2 SWAP1 PUSH2 0x4495 JUMP JUMPDEST PUSH1 0x0 PUSH1 0x40 MLOAD DUP1 DUP4 SUB DUP2 DUP6 DUP8 GAS CALL SWAP3 POP POP POP RETURNDATASIZE DUP1 PUSH1 0x0 DUP2 EQ PUSH2 0x3A28 JUMPI PUSH1 0x40 MLOAD SWAP2 POP PUSH1 0x1F NOT PUSH1 0x3F RETURNDATASIZE ADD AND DUP3 ADD PUSH1 0x40 MSTORE RETURNDATASIZE DUP3 MSTORE RETURNDATASIZE PUSH1 0x0 PUSH1 0x20 DUP5 ADD RETURNDATACOPY PUSH2 0x3A2D JUMP JUMPDEST PUSH1 0x60 SWAP2 POP JUMPDEST POP SWAP2 POP SWAP2 POP PUSH2 0x3A3E DUP8 DUP4 DUP4 DUP8 PUSH2 0x3B81 JUMP JUMPDEST SWAP8 SWAP7 POP POP POP POP POP POP POP JUMP JUMPDEST PUSH1 0x0 PUSH32 0x8B73C3C69BB8FE3D512ECC4CF759CC79239F7B179B0FFACAA9A75D522B39400F PUSH2 0x3A74 PUSH2 0x3BFA JUMP JUMPDEST PUSH2 0x3A7C PUSH2 0x3C53 JUMP JUMPDEST PUSH1 0x40 DUP1 MLOAD PUSH1 0x20 DUP2 ADD SWAP5 SWAP1 SWAP5 MSTORE DUP4 ADD SWAP2 SWAP1 SWAP2 MSTORE PUSH1 0x60 DUP3 ADD MSTORE CHAINID PUSH1 0x80 DUP3 ADD MSTORE ADDRESS PUSH1 0xA0 DUP3 ADD MSTORE PUSH1 0xC0 ADD PUSH1 0x40 MLOAD PUSH1 0x20 DUP2 DUP4 SUB SUB DUP2 MSTORE SWAP1 PUSH1 0x40 MSTORE DUP1 MLOAD SWAP1 PUSH1 0x20 ADD KECCAK256 SWAP1 POP SWAP1 JUMP JUMPDEST PUSH1 0x0 DUP1 PUSH32 0x7FFFFFFFFFFFFFFFFFFFFFFFFFFFFFFF5D576E7357A4501DDFE92F46681B20A0 DUP4 GT ISZERO PUSH2 0x3AF4 JUMPI POP PUSH1 0x0 SWAP1 POP PUSH1 0x3 PUSH2 0x3B78 JUMP JUMPDEST PUSH1 0x40 DUP1 MLOAD PUSH1 0x0 DUP1 DUP3 MSTORE PUSH1 0x20 DUP3 ADD DUP1 DUP5 MSTORE DUP10 SWAP1 MSTORE PUSH1 0xFF DUP9 AND SWAP3 DUP3 ADD SWAP3 SWAP1 SWAP3 MSTORE PUSH1 0x60 DUP2 ADD DUP7 SWAP1 MSTORE PUSH1 0x80 DUP2 ADD DUP6 SWAP1 MSTORE PUSH1 0x1 SWAP1 PUSH1 0xA0 ADD PUSH1 0x20 PUSH1 0x40 MLOAD PUSH1 0x20 DUP2 SUB SWAP1 DUP1 DUP5 SUB SWAP1 DUP6 GAS STATICCALL ISZERO DUP1 ISZERO PUSH2 0x3B48 JUMPI RETURNDATASIZE PUSH1 0x0 DUP1 RETURNDATACOPY RETURNDATASIZE PUSH1 0x0 REVERT JUMPDEST POP POP PUSH1 0x40 MLOAD PUSH1 0x1F NOT ADD MLOAD SWAP2 POP POP PUSH1 0x1 PUSH1 0x1 PUSH1 0xA0 SHL SUB DUP2 AND PUSH2 0x3B71 JUMPI PUSH1 0x0 PUSH1 0x1 SWAP3 POP SWAP3 POP POP PUSH2 0x3B78 JUMP JUMPDEST SWAP2 POP PUSH1 0x0 SWAP1 POP JUMPDEST SWAP5 POP SWAP5 SWAP3 POP POP POP JUMP JUMPDEST PUSH1 0x60 DUP4 ISZERO PUSH2 0x3BF0 JUMPI DUP3 MLOAD PUSH1 0x0 SUB PUSH2 0x3BE9 JUMPI PUSH1 0x1 PUSH1 0x1 PUSH1 0xA0 SHL SUB DUP6 AND EXTCODESIZE PUSH2 0x3BE9 JUMPI PUSH1 0x40 MLOAD PUSH3 0x461BCD PUSH1 0xE5 SHL DUP2 MSTORE PUSH1 0x20 PUSH1 0x4 DUP3 ADD MSTORE PUSH1 0x1D PUSH1 0x24 DUP3 ADD MSTORE PUSH32 0x416464726573733A2063616C6C20746F206E6F6E2D636F6E7472616374000000 PUSH1 0x44 DUP3 ADD MSTORE PUSH1 0x64 ADD PUSH2 0x7B6 JUMP JUMPDEST POP DUP2 PUSH2 0x3796 JUMP JUMPDEST PUSH2 0x3796 DUP4 DUP4 PUSH2 0x3C84 JUMP JUMPDEST PUSH1 0x0 DUP1 PUSH2 0x3C05 PUSH2 0x2C21 JUMP JUMPDEST DUP1 MLOAD SWAP1 SWAP2 POP ISZERO PUSH2 0x3C1C JUMPI DUP1 MLOAD PUSH1 0x20 SWAP1 SWAP2 ADD KECCAK256 SWAP2 SWAP1 POP JUMP JUMPDEST PUSH1 0xFB SLOAD DUP1 ISZERO PUSH2 0x3C2B JUMPI SWAP3 SWAP2 POP POP JUMP JUMPDEST PUSH32 0xC5D2460186F7233C927E7DB2DCC703C0E500B653CA82273B7BFAD8045D85A470 SWAP3 POP POP POP SWAP1 JUMP JUMPDEST PUSH1 0x0 DUP1 PUSH2 0x3C5E PUSH2 0x2CB3 JUMP JUMPDEST DUP1 MLOAD SWAP1 SWAP2 POP ISZERO PUSH2 0x3C75 JUMPI DUP1 MLOAD PUSH1 0x20 SWAP1 SWAP2 ADD KECCAK256 SWAP2 SWAP1 POP JUMP JUMPDEST PUSH1 0xFC SLOAD DUP1 ISZERO PUSH2 0x3C2B JUMPI SWAP3 SWAP2 POP POP JUMP JUMPDEST DUP2 MLOAD ISZERO PUSH2 0x3C94 JUMPI DUP2 MLOAD DUP1 DUP4 PUSH1 0x20 ADD REVERT JUMPDEST DUP1 PUSH1 0x40 MLOAD PUSH3 0x461BCD PUSH1 0xE5 SHL DUP2 MSTORE PUSH1 0x4 ADD PUSH2 0x7B6 SWAP2 SWAP1 PUSH2 0x435A JUMP JUMPDEST PUSH1 0x1 PUSH1 0x1 PUSH1 0xA0 SHL SUB DUP2 AND DUP2 EQ PUSH2 0x11D7 JUMPI PUSH1 0x0 DUP1 REVERT JUMPDEST PUSH1 0x0 PUSH1 0x20 DUP3 DUP5 SUB SLT ISZERO PUSH2 0x3CD5 JUMPI PUSH1 0x0 DUP1 REVERT JUMPDEST DUP2 CALLDATALOAD PUSH2 0x1D7E DUP2 PUSH2 0x3CAE JUMP JUMPDEST PUSH1 0x0 PUSH1 0x20 DUP3 DUP5 SUB SLT ISZERO PUSH2 0x3CF2 JUMPI PUSH1 0x0 DUP1 REVERT JUMPDEST DUP2 CALLDATALOAD PUSH32 0xFFFFFFFF00000000000000000000000000000000000000000000000000000000 DUP2 AND DUP2 EQ PUSH2 0x1D7E JUMPI PUSH1 0x0 DUP1 REVERT JUMPDEST PUSH1 0x0 DUP1 PUSH1 0x40 DUP4 DUP6 SUB SLT ISZERO PUSH2 0x3D35 JUMPI PUSH1 0x0 DUP1 REVERT JUMPDEST POP POP DUP1 CALLDATALOAD SWAP3 PUSH1 0x20 SWAP1 SWAP2 ADD CALLDATALOAD SWAP2 POP JUMP JUMPDEST PUSH1 0x0 PUSH1 0x20 DUP3 DUP5 SUB SLT ISZERO PUSH2 0x3D56 JUMPI PUSH1 0x0 DUP1 REVERT JUMPDEST POP CALLDATALOAD SWAP2 SWAP1 POP JUMP JUMPDEST PUSH1 0x0 DUP1 PUSH1 0x40 DUP4 DUP6 SUB SLT ISZERO PUSH2 0x3D70 JUMPI PUSH1 0x0 DUP1 REVERT JUMPDEST DUP3 CALLDATALOAD SWAP2 POP PUSH1 0x20 DUP4 ADD CALLDATALOAD PUSH2 0x3D82 DUP2 PUSH2 0x3CAE JUMP JUMPDEST DUP1 SWAP2 POP POP SWAP3 POP SWAP3 SWAP1 POP JUMP JUMPDEST PUSH4 0x4E487B71 PUSH1 0xE0 SHL PUSH1 0x0 MSTORE PUSH1 0x41 PUSH1 0x4 MSTORE PUSH1 0x24 PUSH1 0x0 REVERT JUMPDEST PUSH1 0x40 MLOAD PUSH1 0x1F DUP3 ADD PUSH1 0x1F NOT AND DUP2 ADD PUSH8 0xFFFFFFFFFFFFFFFF DUP2 GT DUP3 DUP3 LT OR ISZERO PUSH2 0x3DCC JUMPI PUSH2 0x3DCC PUSH2 0x3D8D JUMP JUMPDEST PUSH1 0x40 MSTORE SWAP2 SWAP1 POP JUMP JUMPDEST PUSH1 0x0 DUP1 PUSH1 0x0 PUSH1 0x60 DUP5 DUP7 SUB SLT ISZERO PUSH2 0x3DE9 JUMPI PUSH1 0x0 DUP1 REVERT JUMPDEST DUP4 CALLDATALOAD SWAP3 POP PUSH1 0x20 DUP5 ADD CALLDATALOAD PUSH8 0xFFFFFFFFFFFFFFFF DUP2 GT ISZERO PUSH2 0x3E07 JUMPI PUSH1 0x0 DUP1 REVERT JUMPDEST DUP5 ADD PUSH1 0x1F DUP2 ADD DUP7 SGT PUSH2 0x3E18 JUMPI PUSH1 0x0 DUP1 REVERT JUMPDEST DUP1 CALLDATALOAD PUSH8 0xFFFFFFFFFFFFFFFF DUP2 GT ISZERO PUSH2 0x3E32 JUMPI PUSH2 0x3E32 PUSH2 0x3D8D JUMP JUMPDEST DUP1 PUSH1 0x5 SHL PUSH2 0x3E42 PUSH1 0x20 DUP3 ADD PUSH2 0x3DA3 JUMP JUMPDEST SWAP2 DUP3 MSTORE PUSH1 0x20 DUP2 DUP5 ADD DUP2 ADD SWAP3 SWAP1 DUP2 ADD SWAP1 DUP10 DUP5 GT ISZERO PUSH2 0x3E5E JUMPI PUSH1 0x0 DUP1 REVERT JUMPDEST PUSH1 0x20 DUP6 ADD SWAP5 POP JUMPDEST DUP4 DUP6 LT ISZERO PUSH2 0x3E84 JUMPI DUP5 CALLDATALOAD DUP1 DUP4 MSTORE PUSH1 0x20 SWAP6 DUP7 ADD SWAP6 SWAP1 SWAP4 POP SWAP1 SWAP2 ADD SWAP1 PUSH2 0x3E65 JUMP JUMPDEST SWAP7 SWAP10 SWAP7 SWAP9 POP POP POP POP PUSH1 0x40 SWAP5 SWAP1 SWAP5 ADD CALLDATALOAD SWAP4 POP POP POP JUMP JUMPDEST PUSH1 0x0 DUP1 PUSH1 0x40 DUP4 DUP6 SUB SLT ISZERO PUSH2 0x3EAC JUMPI PUSH1 0x0 DUP1 REVERT JUMPDEST DUP3 CALLDATALOAD PUSH2 0x3EB7 DUP2 PUSH2 0x3CAE JUMP JUMPDEST SWAP5 PUSH1 0x20 SWAP4 SWAP1 SWAP4 ADD CALLDATALOAD SWAP4 POP POP POP JUMP JUMPDEST PUSH1 0x0 DUP1 PUSH1 0x0 DUP1 PUSH1 0x0 DUP1 PUSH1 0xC0 DUP8 DUP10 SUB SLT ISZERO PUSH2 0x3EDE JUMPI PUSH1 0x0 DUP1 REVERT JUMPDEST DUP7 CALLDATALOAD PUSH2 0x3EE9 DUP2 PUSH2 0x3CAE JUMP JUMPDEST SWAP6 POP PUSH1 0x20 DUP8 ADD CALLDATALOAD PUSH2 0x3EF9 DUP2 PUSH2 0x3CAE JUMP JUMPDEST SWAP5 POP PUSH1 0x40 DUP8 ADD CALLDATALOAD PUSH2 0x3F09 DUP2 PUSH2 0x3CAE JUMP JUMPDEST SWAP6 SWAP9 SWAP5 SWAP8 POP SWAP5 SWAP6 PUSH1 0x60 DUP2 ADD CALLDATALOAD SWAP6 POP PUSH1 0x80 DUP2 ADD CALLDATALOAD SWAP5 PUSH1 0xA0 SWAP1 SWAP2 ADD CALLDATALOAD SWAP4 POP SWAP2 POP POP JUMP JUMPDEST PUSH1 0x0 DUP1 PUSH1 0x0 DUP1 PUSH1 0x0 DUP1 PUSH1 0xC0 DUP8 DUP10 SUB SLT ISZERO PUSH2 0x3F43 JUMPI PUSH1 0x0 DUP1 REVERT JUMPDEST DUP7 CALLDATALOAD SWAP6 POP PUSH1 0x20 DUP8 ADD CALLDATALOAD SWAP5 POP PUSH1 0x40 DUP8 ADD CALLDATALOAD PUSH2 0x3F5C DUP2 PUSH2 0x3CAE JUMP JUMPDEST SWAP4 POP PUSH1 0x60 DUP8 ADD CALLDATALOAD SWAP3 POP PUSH1 0x80 DUP8 ADD CALLDATALOAD SWAP2 POP PUSH1 0xA0 DUP8 ADD CALLDATALOAD PUSH8 0xFFFFFFFFFFFFFFFF DUP2 GT ISZERO PUSH2 0x3F86 JUMPI PUSH1 0x0 DUP1 REVERT JUMPDEST DUP8 ADD PUSH1 0x1F DUP2 ADD DUP10 SGT PUSH2 0x3F97 JUMPI PUSH1 0x0 DUP1 REVERT JUMPDEST DUP1 CALLDATALOAD PUSH8 0xFFFFFFFFFFFFFFFF DUP2 GT ISZERO PUSH2 0x3FB1 JUMPI PUSH2 0x3FB1 PUSH2 0x3D8D JUMP JUMPDEST PUSH2 0x3FC4 PUSH1 0x20 PUSH1 0x1F NOT PUSH1 0x1F DUP5 ADD AND ADD PUSH2 0x3DA3 JUMP JUMPDEST DUP2 DUP2 MSTORE DUP11 PUSH1 0x20 DUP4 DUP6 ADD ADD GT ISZERO PUSH2 0x3FD9 JUMPI PUSH1 0x0 DUP1 REVERT JUMPDEST DUP2 PUSH1 0x20 DUP5 ADD PUSH1 0x20 DUP4 ADD CALLDATACOPY PUSH1 0x0 PUSH1 0x20 DUP4 DUP4 ADD ADD MSTORE DUP1 SWAP4 POP POP POP POP SWAP3 SWAP6 POP SWAP3 SWAP6 POP SWAP3 SWAP6 JUMP JUMPDEST PUSH1 0x0 JUMPDEST DUP4 DUP2 LT ISZERO PUSH2 0x4017 JUMPI DUP2 DUP2 ADD MLOAD DUP4 DUP3 ADD MSTORE PUSH1 0x20 ADD PUSH2 0x3FFF JUMP JUMPDEST POP POP PUSH1 0x0 SWAP2 ADD MSTORE JUMP JUMPDEST PUSH1 0x0 DUP2 MLOAD DUP1 DUP5 MSTORE PUSH2 0x4038 DUP2 PUSH1 0x20 DUP7 ADD PUSH1 0x20 DUP7 ADD PUSH2 0x3FFC JUMP JUMPDEST PUSH1 0x1F ADD PUSH1 0x1F NOT AND SWAP3 SWAP1 SWAP3 ADD PUSH1 0x20 ADD SWAP3 SWAP2 POP POP JUMP JUMPDEST PUSH1 0x0 DUP2 MLOAD DUP1 DUP5 MSTORE PUSH1 0x20 DUP5 ADD SWAP4 POP PUSH1 0x20 DUP4 ADD PUSH1 0x0 JUMPDEST DUP3 DUP2 LT ISZERO PUSH2 0x407E JUMPI DUP2 MLOAD DUP7 MSTORE PUSH1 0x20 SWAP6 DUP7 ADD SWAP6 SWAP1 SWAP2 ADD SWAP1 PUSH1 0x1 ADD PUSH2 0x4060 JUMP JUMPDEST POP SWAP4 SWAP5 SWAP4 POP POP POP POP JUMP JUMPDEST PUSH32 0xFF00000000000000000000000000000000000000000000000000000000000000 DUP9 AND DUP2 MSTORE PUSH1 0xE0 PUSH1 0x20 DUP3 ADD MSTORE PUSH1 0x0 PUSH2 0x40C3 PUSH1 0xE0 DUP4 ADD DUP10 PUSH2 0x4020 JUMP JUMPDEST DUP3 DUP2 SUB PUSH1 0x40 DUP5 ADD MSTORE PUSH2 0x40D5 DUP2 DUP10 PUSH2 0x4020 JUMP JUMPDEST SWAP1 POP DUP7 PUSH1 0x60 DUP5 ADD MSTORE PUSH1 0x1 PUSH1 0x1 PUSH1 0xA0 SHL SUB DUP7 AND PUSH1 0x80 DUP5 ADD MSTORE DUP5 PUSH1 0xA0 DUP5 ADD MSTORE DUP3 DUP2 SUB PUSH1 0xC0 DUP5 ADD MSTORE PUSH2 0x4104 DUP2 DUP6 PUSH2 0x404C JUMP JUMPDEST SWAP11 SWAP10 POP POP POP POP POP POP POP POP POP POP JUMP JUMPDEST PUSH4 0x4E487B71 PUSH1 0xE0 SHL PUSH1 0x0 MSTORE PUSH1 0x21 PUSH1 0x4 MSTORE PUSH1 0x24 PUSH1 0x0 REVERT JUMPDEST PUSH1 0x1 PUSH1 0x1 PUSH1 0xA0 SHL SUB DUP10 DUP2 AND DUP3 MSTORE DUP9 AND PUSH1 0x20 DUP3 ADD MSTORE PUSH1 0x40 DUP2 ADD DUP8 SWAP1 MSTORE PUSH1 0x60 DUP2 ADD DUP7 SWAP1 MSTORE PUSH2 0x100 DUP2 ADD PUSH1 0x4 DUP7 LT PUSH2 0x416D JUMPI PUSH4 0x4E487B71 PUSH1 0xE0 SHL PUSH1 0x0 MSTORE PUSH1 0x21 PUSH1 0x4 MSTORE PUSH1 0x24 PUSH1 0x0 REVERT JUMPDEST DUP6 PUSH1 0x80 DUP4 ADD MSTORE DUP5 PUSH1 0xA0 DUP4 ADD MSTORE DUP4 PUSH1 0xC0 DUP4 ADD MSTORE DUP3 PUSH1 0xE0 DUP4 ADD MSTORE SWAP10 SWAP9 POP POP POP POP POP POP POP POP POP JUMP JUMPDEST PUSH4 0x4E487B71 PUSH1 0xE0 SHL PUSH1 0x0 MSTORE PUSH1 0x32 PUSH1 0x4 MSTORE PUSH1 0x24 PUSH1 0x0 REVERT JUMPDEST PUSH4 0x4E487B71 PUSH1 0xE0 SHL PUSH1 0x0 MSTORE PUSH1 0x11 PUSH1 0x4 MSTORE PUSH1 0x24 PUSH1 0x0 REVERT JUMPDEST DUP1 DUP3 MUL DUP2 ISZERO DUP3 DUP3 DIV DUP5 EQ OR PUSH2 0x91F JUMPI PUSH2 0x91F PUSH2 0x41A8 JUMP JUMPDEST PUSH1 0x0 DUP3 PUSH2 0x41F2 JUMPI PUSH4 0x4E487B71 PUSH1 0xE0 SHL PUSH1 0x0 MSTORE PUSH1 0x12 PUSH1 0x4 MSTORE PUSH1 0x24 PUSH1 0x0 REVERT JUMPDEST POP DIV SWAP1 JUMP JUMPDEST DUP1 DUP3 ADD DUP1 DUP3 GT ISZERO PUSH2 0x91F JUMPI PUSH2 0x91F PUSH2 0x41A8 JUMP JUMPDEST DUP2 DUP2 SUB DUP2 DUP2 GT ISZERO PUSH2 0x91F JUMPI PUSH2 0x91F PUSH2 0x41A8 JUMP JUMPDEST PUSH1 0x0 PUSH1 0x20 DUP3 DUP5 SUB SLT ISZERO PUSH2 0x422F JUMPI PUSH1 0x0 DUP1 REVERT JUMPDEST POP MLOAD SWAP2 SWAP1 POP JUMP JUMPDEST DUP4 DUP2 MSTORE PUSH1 0x60 PUSH1 0x20 DUP3 ADD MSTORE PUSH1 0x0 PUSH2 0x424F PUSH1 0x60 DUP4 ADD DUP6 PUSH2 0x404C JUMP JUMPDEST SWAP1 POP DUP3 PUSH1 0x40 DUP4 ADD MSTORE SWAP5 SWAP4 POP POP POP POP JUMP JUMPDEST PUSH1 0x0 PUSH1 0x20 DUP3 DUP5 SUB SLT ISZERO PUSH2 0x4271 JUMPI PUSH1 0x0 DUP1 REVERT JUMPDEST DUP2 MLOAD PUSH2 0x1D7E DUP2 PUSH2 0x3CAE JUMP JUMPDEST PUSH1 0x0 PUSH1 0x20 DUP3 DUP5 SUB SLT ISZERO PUSH2 0x428E JUMPI PUSH1 0x0 DUP1 REVERT JUMPDEST DUP2 MLOAD PUSH1 0xFF DUP2 AND DUP2 EQ PUSH2 0x1D7E JUMPI PUSH1 0x0 DUP1 REVERT JUMPDEST PUSH1 0x1 DUP2 DUP2 SHR SWAP1 DUP3 AND DUP1 PUSH2 0x42B3 JUMPI PUSH1 0x7F DUP3 AND SWAP2 POP JUMPDEST PUSH1 0x20 DUP3 LT DUP2 SUB PUSH2 0x42D3 JUMPI PUSH4 0x4E487B71 PUSH1 0xE0 SHL PUSH1 0x0 MSTORE PUSH1 0x22 PUSH1 0x4 MSTORE PUSH1 0x24 PUSH1 0x0 REVERT JUMPDEST POP SWAP2 SWAP1 POP JUMP JUMPDEST PUSH32 0x416363657373436F6E74726F6C3A206163636F756E7420000000000000000000 DUP2 MSTORE PUSH1 0x0 DUP4 MLOAD PUSH2 0x4311 DUP2 PUSH1 0x17 DUP6 ADD PUSH1 0x20 DUP9 ADD PUSH2 0x3FFC JUMP JUMPDEST PUSH32 0x206973206D697373696E6720726F6C6520000000000000000000000000000000 PUSH1 0x17 SWAP2 DUP5 ADD SWAP2 DUP3 ADD MSTORE DUP4 MLOAD PUSH2 0x434E DUP2 PUSH1 0x28 DUP5 ADD PUSH1 0x20 DUP9 ADD PUSH2 0x3FFC JUMP JUMPDEST ADD PUSH1 0x28 ADD SWAP5 SWAP4 POP POP POP POP JUMP JUMPDEST PUSH1 0x20 DUP2 MSTORE PUSH1 0x0 PUSH2 0x1D7E PUSH1 0x20 DUP4 ADD DUP5 PUSH2 0x4020 JUMP JUMPDEST PUSH1 0x0 PUSH1 0x20 DUP3 DUP5 SUB SLT ISZERO PUSH2 0x437F JUMPI PUSH1 0x0 DUP1 REVERT JUMPDEST DUP2 MLOAD DUP1 ISZERO ISZERO DUP2 EQ PUSH2 0x1D7E JUMPI PUSH1 0x0 DUP1 REVERT JUMPDEST PUSH1 0x1F DUP3 GT ISZERO PUSH2 0xAA3 JUMPI DUP1 PUSH1 0x0 MSTORE PUSH1 0x20 PUSH1 0x0 KECCAK256 PUSH1 0x1F DUP5 ADD PUSH1 0x5 SHR DUP2 ADD PUSH1 0x20 DUP6 LT ISZERO PUSH2 0x43B6 JUMPI POP DUP1 JUMPDEST PUSH1 0x1F DUP5 ADD PUSH1 0x5 SHR DUP3 ADD SWAP2 POP JUMPDEST DUP2 DUP2 LT ISZERO PUSH2 0x252E JUMPI PUSH1 0x0 DUP2 SSTORE PUSH1 0x1 ADD PUSH2 0x43C2 JUMP JUMPDEST DUP2 MLOAD PUSH8 0xFFFFFFFFFFFFFFFF DUP2 GT ISZERO PUSH2 0x43F0 JUMPI PUSH2 0x43F0 PUSH2 0x3D8D JUMP JUMPDEST PUSH2 0x4404 DUP2 PUSH2 0x43FE DUP5 SLOAD PUSH2 0x429F JUMP JUMPDEST DUP5 PUSH2 0x438F JUMP JUMPDEST PUSH1 0x20 PUSH1 0x1F DUP3 GT PUSH1 0x1 DUP2 EQ PUSH2 0x4438 JUMPI PUSH1 0x0 DUP4 ISZERO PUSH2 0x4420 JUMPI POP DUP5 DUP3 ADD MLOAD JUMPDEST PUSH1 0x0 NOT PUSH1 0x3 DUP6 SWAP1 SHL SHR NOT AND PUSH1 0x1 DUP5 SWAP1 SHL OR DUP5 SSTORE PUSH2 0x252E JUMP JUMPDEST PUSH1 0x0 DUP5 DUP2 MSTORE PUSH1 0x20 DUP2 KECCAK256 PUSH1 0x1F NOT DUP6 AND SWAP2 JUMPDEST DUP3 DUP2 LT ISZERO PUSH2 0x4468 JUMPI DUP8 DUP6 ADD MLOAD DUP3 SSTORE PUSH1 0x20 SWAP5 DUP6 ADD SWAP5 PUSH1 0x1 SWAP1 SWAP3 ADD SWAP2 ADD PUSH2 0x4448 JUMP JUMPDEST POP DUP5 DUP3 LT ISZERO PUSH2 0x4486 JUMPI DUP7 DUP5 ADD MLOAD PUSH1 0x0 NOT PUSH1 0x3 DUP8 SWAP1 SHL PUSH1 0xF8 AND SHR NOT AND DUP2 SSTORE JUMPDEST POP POP POP POP PUSH1 0x1 SWAP1 DUP2 SHL ADD SWAP1 SSTORE POP JUMP JUMPDEST PUSH1 0x0 DUP3 MLOAD PUSH2 0x44A7 DUP2 DUP5 PUSH1 0x20 DUP8 ADD PUSH2 0x3FFC JUMP JUMPDEST SWAP2 SWAP1 SWAP2 ADD SWAP3 SWAP2 POP POP JUMP JUMPDEST PUSH1 0x0 DUP2 PUSH2 0x44C0 JUMPI PUSH2 0x44C0 PUSH2 0x41A8 JUMP JUMPDEST POP PUSH1 0x0 NOT ADD SWAP1 JUMP JUMPDEST PUSH4 0x4E487B71 PUSH1 0xE0 SHL PUSH1 0x0 MSTORE PUSH1 0x31 PUSH1 0x4 MSTORE PUSH1 0x24 PUSH1 0x0 REVERT INVALID LOG2 PUSH5 0x6970667358 0x22 SLT KECCAK256 0xDE SUB COINBASE PC SLT CREATE CODECOPY 0xB1 PUSH29 0xE65827F41CFC691F2294913EE055CCCE19B4290C31A65E64736F6C6343 STOP ADDMOD SHR STOP CALLER "},"methodIdentifiers":{"BALANCER_ROLE()":"30d3c534","DEFAULT_ADMIN_ROLE()":"a217fddf","MIN_PAYBACK_RATIO()":"7b9f7d94","PAUSER_ROLE()":"e63ab1e9","SETTER_ROLE()":"a2011b3f","TYPE_HASH()":"64d4c819","UNPAUSER_ROLE()":"fb1bb9de","acceptWithdrawRequest(uint256,uint256[],uint256)":"3e55fde0","cancelWithdrawRequest(uint256)":"cce4705b","claimForWithdrawRequest(uint256)":"86da0323","collateralTokenAddress()":"6d9dd201","collateralTokenDecimals()":"b54790d8","currentDeposit()":"e94b2f44","deposit(uint256)":"b6b55f25","depositLimit()":"ecf70858","depositPerUserLimit()":"0a608501","eip712Domain()":"84b0196e","getRoleAdmin(bytes32)":"248a9ca3","getRoleMember(bytes32,uint256)":"9010d07c","getRoleMemberCount(bytes32)":"ca15c873","grantRole(bytes32,address)":"2f2ff15d","hasRole(bytes32,address)":"91d14854","initialize(address,address,address,uint256,uint256,uint256)":"728cdbca","lockedBalance()":"7b80889b","minimumPaybackRatio()":"7278bd9b","pause()":"8456cb59","paused()":"5c975abb","pendingWithdrawalAmount(address)":"deaf30b2","renounceRole(bytes32,address)":"36568abe","requestWithdraw(uint256,uint256,address,uint256,uint256,bytes)":"849fc72b","revokeRole(bytes32,address)":"d547741f","setDepositLimit(uint256,uint256)":"1813fbe9","setMinimumPaybackRatio(uint256)":"6e74bf96","setSigner(address)":"6c19e783","setSolver(address)":"1f879433","setSymmioAddress(address)":"01569e3a","setWithdrawalPeriod(uint256)":"973b294f","signer()":"238ac933","solver()":"49a7a26d","supportsInterface(bytes4)":"01ffc9a7","symmio()":"5849b93d","unpause()":"3f4ba83a","usedNonces(address,uint256)":"6a8a6894","withdrawNotLockedCollateralTokens(address,uint256)":"f36fbab7","withdrawRequests(uint256)":"992a7dfb","withdrawalPeriod()":"bca7093d"}},"storageLayout":{"storage":[{"astId":612,"contract":"contracts/OnChainSymmioVaultV2.sol:OnChainSymmioVaultV2","label":"_initialized","offset":0,"slot":"0","type":"t_uint8"},{"astId":615,"contract":"contracts/OnChainSymmioVaultV2.sol:OnChainSymmioVaultV2","label":"_initializing","offset":1,"slot":"0","type":"t_bool"},{"astId":1367,"contract":"contracts/OnChainSymmioVaultV2.sol:OnChainSymmioVaultV2","label":"__gap","offset":0,"slot":"1","type":"t_array(t_uint256)50_storage"},{"astId":2292,"contract":"contracts/OnChainSymmioVaultV2.sol:OnChainSymmioVaultV2","label":"__gap","offset":0,"slot":"51","type":"t_array(t_uint256)50_storage"},{"astId":174,"contract":"contracts/OnChainSymmioVaultV2.sol:OnChainSymmioVaultV2","label":"_roles","offset":0,"slot":"101","type":"t_mapping(t_bytes32,t_struct(RoleData)169_storage)"},{"astId":481,"contract":"contracts/OnChainSymmioVaultV2.sol:OnChainSymmioVaultV2","label":"__gap","offset":0,"slot":"102","type":"t_array(t_uint256)49_storage"},{"astId":22,"contract":"contracts/OnChainSymmioVaultV2.sol:OnChainSymmioVaultV2","label":"_roleMembers","offset":0,"slot":"151","type":"t_mapping(t_bytes32,t_struct(AddressSet)3602_storage)"},{"astId":144,"contract":"contracts/OnChainSymmioVaultV2.sol:OnChainSymmioVaultV2","label":"__gap","offset":0,"slot":"152","type":"t_array(t_uint256)49_storage"},{"astId":796,"contract":"contracts/OnChainSymmioVaultV2.sol:OnChainSymmioVaultV2","label":"_paused","offset":0,"slot":"201","type":"t_bool"},{"astId":901,"contract":"contracts/OnChainSymmioVaultV2.sol:OnChainSymmioVaultV2","label":"__gap","offset":0,"slot":"202","type":"t_array(t_uint256)49_storage"},{"astId":1982,"contract":"contracts/OnChainSymmioVaultV2.sol:OnChainSymmioVaultV2","label":"_hashedName","offset":0,"slot":"251","type":"t_bytes32"},{"astId":1985,"contract":"contracts/OnChainSymmioVaultV2.sol:OnChainSymmioVaultV2","label":"_hashedVersion","offset":0,"slot":"252","type":"t_bytes32"},{"astId":1987,"contract":"contracts/OnChainSymmioVaultV2.sol:OnChainSymmioVaultV2","label":"_name","offset":0,"slot":"253","type":"t_string_storage"},{"astId":1989,"contract":"contracts/OnChainSymmioVaultV2.sol:OnChainSymmioVaultV2","label":"_version","offset":0,"slot":"254","type":"t_string_storage"},{"astId":2247,"contract":"contracts/OnChainSymmioVaultV2.sol:OnChainSymmioVaultV2","label":"__gap","offset":0,"slot":"255","type":"t_array(t_uint256)48_storage"},{"astId":917,"contract":"contracts/OnChainSymmioVaultV2.sol:OnChainSymmioVaultV2","label":"_status","offset":0,"slot":"303","type":"t_uint256"},{"astId":986,"contract":"contracts/OnChainSymmioVaultV2.sol:OnChainSymmioVaultV2","label":"__gap","offset":0,"slot":"304","type":"t_array(t_uint256)49_storage"},{"astId":6356,"contract":"contracts/OnChainSymmioVaultV2.sol:OnChainSymmioVaultV2","label":"symmio","offset":0,"slot":"353","type":"t_contract(ISymmio)7427"},{"astId":6358,"contract":"contracts/OnChainSymmioVaultV2.sol:OnChainSymmioVaultV2","label":"solver","offset":0,"slot":"354","type":"t_address"},{"astId":6360,"contract":"contracts/OnChainSymmioVaultV2.sol:OnChainSymmioVaultV2","label":"signer","offset":0,"slot":"355","type":"t_address"},{"astId":6362,"contract":"contracts/OnChainSymmioVaultV2.sol:OnChainSymmioVaultV2","label":"collateralTokenAddress","offset":0,"slot":"356","type":"t_address"},{"astId":6364,"contract":"contracts/OnChainSymmioVaultV2.sol:OnChainSymmioVaultV2","label":"lockedBalance","offset":0,"slot":"357","type":"t_uint256"},{"astId":6366,"contract":"contracts/OnChainSymmioVaultV2.sol:OnChainSymmioVaultV2","label":"minimumPaybackRatio","offset":0,"slot":"358","type":"t_uint256"},{"astId":6368,"contract":"contracts/OnChainSymmioVaultV2.sol:OnChainSymmioVaultV2","label":"depositLimit","offset":0,"slot":"359","type":"t_uint256"},{"astId":6370,"contract":"contracts/OnChainSymmioVaultV2.sol:OnChainSymmioVaultV2","label":"depositPerUserLimit","offset":0,"slot":"360","type":"t_uint256"},{"astId":6372,"contract":"contracts/OnChainSymmioVaultV2.sol:OnChainSymmioVaultV2","label":"currentDeposit","offset":0,"slot":"361","type":"t_uint256"},{"astId":6374,"contract":"contracts/OnChainSymmioVaultV2.sol:OnChainSymmioVaultV2","label":"collateralTokenDecimals","offset":0,"slot":"362","type":"t_uint256"},{"astId":6378,"contract":"contracts/OnChainSymmioVaultV2.sol:OnChainSymmioVaultV2","label":"withdrawRequests","offset":0,"slot":"363","type":"t_array(t_struct(WithdrawRequest)7335_storage)dyn_storage"},{"astId":6380,"contract":"contracts/OnChainSymmioVaultV2.sol:OnChainSymmioVaultV2","label":"withdrawalPeriod","offset":0,"slot":"364","type":"t_uint256"},{"astId":6384,"contract":"contracts/OnChainSymmioVaultV2.sol:OnChainSymmioVaultV2","label":"pendingWithdrawalAmount","offset":0,"slot":"365","type":"t_mapping(t_address,t_uint256)"},{"astId":6390,"contract":"contracts/OnChainSymmioVaultV2.sol:OnChainSymmioVaultV2","label":"usedNonces","offset":0,"slot":"366","type":"t_mapping(t_address,t_mapping(t_uint256,t_bool))"}],"types":{"t_address":{"encoding":"inplace","label":"address","numberOfBytes":"20"},"t_array(t_bytes32)dyn_storage":{"base":"t_bytes32","encoding":"dynamic_array","label":"bytes32[]","numberOfBytes":"32"},"t_array(t_struct(WithdrawRequest)7335_storage)dyn_storage":{"base":"t_struct(WithdrawRequest)7335_storage","encoding":"dynamic_array","label":"struct IOnChainSymmioVault.WithdrawRequest[]","numberOfBytes":"32"},"t_array(t_uint256)48_storage":{"base":"t_uint256","encoding":"inplace","label":"uint256[48]","numberOfBytes":"1536"},"t_array(t_uint256)49_storage":{"base":"t_uint256","encoding":"inplace","label":"uint256[49]","numberOfBytes":"1568"},"t_array(t_uint256)50_storage":{"base":"t_uint256","encoding":"inplace","label":"uint256[50]","numberOfBytes":"1600"},"t_bool":{"encoding":"inplace","label":"bool","numberOfBytes":"1"},"t_bytes32":{"encoding":"inplace","label":"bytes32","numberOfBytes":"32"},"t_contract(ISymmio)7427":{"encoding":"inplace","label":"contract ISymmio","numberOfBytes":"20"},"t_enum(RequestStatus)7340":{"encoding":"inplace","label":"enum IOnChainSymmioVault.RequestStatus","numberOfBytes":"1"},"t_mapping(t_address,t_bool)":{"encoding":"mapping","key":"t_address","label":"mapping(address => bool)","numberOfBytes":"32","value":"t_bool"},"t_mapping(t_address,t_mapping(t_uint256,t_bool))":{"encoding":"mapping","key":"t_address","label":"mapping(address => mapping(uint256 => bool))","numberOfBytes":"32","value":"t_mapping(t_uint256,t_bool)"},"t_mapping(t_address,t_uint256)":{"encoding":"mapping","key":"t_address","label":"mapping(address => uint256)","numberOfBytes":"32","value":"t_uint256"},"t_mapping(t_bytes32,t_struct(AddressSet)3602_storage)":{"encoding":"mapping","key":"t_bytes32","label":"mapping(bytes32 => struct EnumerableSetUpgradeable.AddressSet)","numberOfBytes":"32","value":"t_struct(AddressSet)3602_storage"},"t_mapping(t_bytes32,t_struct(RoleData)169_storage)":{"encoding":"mapping","key":"t_bytes32","label":"mapping(bytes32 => struct AccessControlUpgradeable.RoleData)","numberOfBytes":"32","value":"t_struct(RoleData)169_storage"},"t_mapping(t_bytes32,t_uint256)":{"encoding":"mapping","key":"t_bytes32","label":"mapping(bytes32 => uint256)","numberOfBytes":"32","value":"t_uint256"},"t_mapping(t_uint256,t_bool)":{"encoding":"mapping","key":"t_uint256","label":"mapping(uint256 => bool)","numberOfBytes":"32","value":"t_bool"},"t_string_storage":{"encoding":"bytes","label":"string","numberOfBytes":"32"},"t_struct(AddressSet)3602_storage":{"encoding":"inplace","label":"struct EnumerableSetUpgradeable.AddressSet","members":[{"astId":3601,"contract":"contracts/OnChainSymmioVaultV2.sol:OnChainSymmioVaultV2","label":"_inner","offset":0,"slot":"0","type":"t_struct(Set)3287_storage"}],"numberOfBytes":"64"},"t_struct(RoleData)169_storage":{"encoding":"inplace","label":"struct AccessControlUpgradeable.RoleData","members":[{"astId":166,"contract":"contracts/OnChainSymmioVaultV2.sol:OnChainSymmioVaultV2","label":"members","offset":0,"slot":"0","type":"t_mapping(t_address,t_bool)"},{"astId":168,"contract":"contracts/OnChainSymmioVaultV2.sol:OnChainSymmioVaultV2","label":"adminRole","offset":0,"slot":"1","type":"t_bytes32"}],"numberOfBytes":"64"},"t_struct(Set)3287_storage":{"encoding":"inplace","label":"struct EnumerableSetUpgradeable.Set","members":[{"astId":3282,"contract":"contracts/OnChainSymmioVaultV2.sol:OnChainSymmioVaultV2","label":"_values","offset":0,"slot":"0","type":"t_array(t_bytes32)dyn_storage"},{"astId":3286,"contract":"contracts/OnChainSymmioVaultV2.sol:OnChainSymmioVaultV2","label":"_indexes","offset":0,"slot":"1","type":"t_mapping(t_bytes32,t_uint256)"}],"numberOfBytes":"64"},"t_struct(WithdrawRequest)7335_storage":{"encoding":"inplace","label":"struct IOnChainSymmioVault.WithdrawRequest","members":[{"astId":7319,"contract":"contracts/OnChainSymmioVaultV2.sol:OnChainSymmioVaultV2","label":"receiver","offset":0,"slot":"0","type":"t_address"},{"astId":7321,"contract":"contracts/OnChainSymmioVaultV2.sol:OnChainSymmioVaultV2","label":"sender","offset":0,"slot":"1","type":"t_address"},{"astId":7323,"contract":"contracts/OnChainSymmioVaultV2.sol:OnChainSymmioVaultV2","label":"amount","offset":0,"slot":"2","type":"t_uint256"},{"astId":7325,"contract":"contracts/OnChainSymmioVaultV2.sol:OnChainSymmioVaultV2","label":"minAmountOut","offset":0,"slot":"3","type":"t_uint256"},{"astId":7328,"contract":"contracts/OnChainSymmioVaultV2.sol:OnChainSymmioVaultV2","label":"status","offset":0,"slot":"4","type":"t_enum(RequestStatus)7340"},{"astId":7330,"contract":"contracts/OnChainSymmioVaultV2.sol:OnChainSymmioVaultV2","label":"acceptedRatio","offset":0,"slot":"5","type":"t_uint256"},{"astId":7332,"contract":"contracts/OnChainSymmioVaultV2.sol:OnChainSymmioVaultV2","label":"acceptedWithdrawRequestTimestamp","offset":0,"slot":"6","type":"t_uint256"},{"astId":7334,"contract":"contracts/OnChainSymmioVaultV2.sol:OnChainSymmioVaultV2","label":"claimableAt","offset":0,"slot":"7","type":"t_uint256"}],"numberOfBytes":"256"},"t_uint256":{"encoding":"inplace","label":"uint256","numberOfBytes":"32"},"t_uint8":{"encoding":"inplace","label":"uint8","numberOfBytes":"1"}}}}}}