{"contracts/OnChainSymmioVaultV2.sol":{"OnChainSymmioVaultV2":{"abi":[{"inputs":[],"stateMutability":"nonpayable","type":"constructor"},{"anonymous":false,"inputs":[{"indexed":true,"internalType":"address","name":"depositor","type":"address"},{"indexed":false,"internalType":"uint256","name":"amount","type":"uint256"}],"name":"Deposit","type":"event"},{"anonymous":false,"inputs":[{"indexed":false,"internalType":"uint256","name":"depositLimit","type":"uint256"}],"name":"DepositLimitUpdatedEvent","type":"event"},{"anonymous":false,"inputs":[{"indexed":true,"internalType":"address","name":"depositor","type":"address"},{"indexed":true,"internalType":"address","name":"solver","type":"address"},{"indexed":false,"internalType":"uint256","name":"amount","type":"uint256"}],"name":"DepositToSymmio","type":"event"},{"anonymous":false,"inputs":[],"name":"EIP712DomainChanged","type":"event"},{"anonymous":false,"inputs":[{"indexed":false,"internalType":"uint8","name":"version","type":"uint8"}],"name":"Initialized","type":"event"},{"anonymous":false,"inputs":[{"indexed":false,"internalType":"uint256","name":"minimumPaybackRatio","type":"uint256"}],"name":"MinimumPaybackRatioUpdatedEvent","type":"event"},{"anonymous":false,"inputs":[{"indexed":false,"internalType":"address","name":"account","type":"address"}],"name":"Paused","type":"event"},{"anonymous":false,"inputs":[{"indexed":true,"internalType":"bytes32","name":"role","type":"bytes32"},{"indexed":true,"internalType":"bytes32","name":"previousAdminRole","type":"bytes32"},{"indexed":true,"internalType":"bytes32","name":"newAdminRole","type":"bytes32"}],"name":"RoleAdminChanged","type":"event"},{"anonymous":false,"inputs":[{"indexed":true,"internalType":"bytes32","name":"role","type":"bytes32"},{"indexed":true,"internalType":"address","name":"account","type":"address"},{"indexed":true,"internalType":"address","name":"sender","type":"address"}],"name":"RoleGranted","type":"event"},{"anonymous":false,"inputs":[{"indexed":true,"internalType":"bytes32","name":"role","type":"bytes32"},{"indexed":true,"internalType":"address","name":"account","type":"address"},{"indexed":true,"internalType":"address","name":"sender","type":"address"}],"name":"RoleRevoked","type":"event"},{"anonymous":false,"inputs":[{"indexed":true,"internalType":"address","name":"signer","type":"address"}],"name":"SignerUpdatedEvent","type":"event"},{"anonymous":false,"inputs":[{"indexed":true,"internalType":"address","name":"solver","type":"address"}],"name":"SolverUpdatedEvent","type":"event"},{"anonymous":false,"inputs":[{"indexed":true,"internalType":"address","name":"newSymmioAddress","type":"address"}],"name":"SymmioAddressUpdatedEvent","type":"event"},{"anonymous":false,"inputs":[{"indexed":false,"internalType":"address","name":"account","type":"address"}],"name":"Unpaused","type":"event"},{"anonymous":false,"inputs":[{"indexed":true,"internalType":"uint256","name":"requestId","type":"uint256"},{"indexed":true,"internalType":"address","name":"receiver","type":"address"}],"name":"WithdrawClaimedEvent","type":"event"},{"anonymous":false,"inputs":[{"indexed":false,"internalType":"uint256","name":"providedAmount","type":"uint256"},{"indexed":false,"internalType":"uint256[]","name":"acceptedRequestIds","type":"uint256[]"},{"indexed":false,"internalType":"uint256","name":"paybackRatio","type":"uint256"}],"name":"WithdrawRequestAcceptedEvent","type":"event"},{"anonymous":false,"inputs":[{"indexed":true,"internalType":"uint256","name":"requestId","type":"uint256"}],"name":"WithdrawRequestCanceled","type":"event"},{"anonymous":false,"inputs":[{"indexed":true,"internalType":"uint256","name":"requestId","type":"uint256"},{"indexed":true,"internalType":"address","name":"sender","type":"address"},{"indexed":true,"internalType":"address","name":"receiver","type":"address"},{"indexed":false,"internalType":"uint256","name":"amount","type":"uint256"},{"indexed":false,"internalType":"uint256","name":"nonce","type":"uint256"}],"name":"WithdrawRequestEvent","type":"event"},{"anonymous":false,"inputs":[{"indexed":true,"internalType":"uint256","name":"requestId","type":"uint256"}],"name":"WithdrawRequestRejected","type":"event"},{"anonymous":false,"inputs":[{"indexed":false,"internalType":"uint256","name":"withdrawalPeriod","type":"uint256"}],"name":"WithdrawalPeriodUpdate","type":"event"},{"inputs":[],"name":"BALANCER_ROLE","outputs":[{"internalType":"bytes32","name":"","type":"bytes32"}],"stateMutability":"view","type":"function"},{"inputs":[],"name":"DEFAULT_ADMIN_ROLE","outputs":[{"internalType":"bytes32","name":"","type":"bytes32"}],"stateMutability":"view","type":"function"},{"inputs":[],"name":"MIN_PAYBACK_RATIO","outputs":[{"internalType":"uint256","name":"","type":"uint256"}],"stateMutability":"view","type":"function"},{"inputs":[],"name":"PAUSER_ROLE","outputs":[{"internalType":"bytes32","name":"","type":"bytes32"}],"stateMutability":"view","type":"function"},{"inputs":[],"name":"SETTER_ROLE","outputs":[{"internalType":"bytes32","name":"","type":"bytes32"}],"stateMutability":"view","type":"function"},{"inputs":[],"name":"TYPE_HASH","outputs":[{"internalType":"bytes32","name":"","type":"bytes32"}],"stateMutability":"view","type":"function"},{"inputs":[],"name":"UNPAUSER_ROLE","outputs":[{"internalType":"bytes32","name":"","type":"bytes32"}],"stateMutability":"view","type":"function"},{"inputs":[{"internalType":"uint256","name":"providedAmount","type":"uint256"},{"internalType":"uint256[]","name":"_acceptedRequestIds","type":"uint256[]"},{"internalType":"uint256","name":"_paybackRatio","type":"uint256"}],"name":"acceptWithdrawRequest","outputs":[],"stateMutability":"nonpayable","type":"function"},{"inputs":[{"internalType":"uint256","name":"id","type":"uint256"}],"name":"cancelWithdrawRequest","outputs":[],"stateMutability":"nonpayable","type":"function"},{"inputs":[{"internalType":"uint256","name":"requestId","type":"uint256"}],"name":"claimForWithdrawRequest","outputs":[],"stateMutability":"nonpayable","type":"function"},{"inputs":[],"name":"collateralTokenAddress","outputs":[{"internalType":"address","name":"","type":"address"}],"stateMutability":"view","type":"function"},{"inputs":[],"name":"collateralTokenDecimals","outputs":[{"internalType":"uint256","name":"","type":"uint256"}],"stateMutability":"view","type":"function"},{"inputs":[],"name":"currentDeposit","outputs":[{"internalType":"uint256","name":"","type":"uint256"}],"stateMutability":"view","type":"function"},{"inputs":[{"internalType":"uint256","name":"amount","type":"uint256"}],"name":"deposit","outputs":[],"stateMutability":"nonpayable","type":"function"},{"inputs":[],"name":"depositLimit","outputs":[{"internalType":"uint256","name":"","type":"uint256"}],"stateMutability":"view","type":"function"},{"inputs":[],"name":"eip712Domain","outputs":[{"internalType":"bytes1","name":"fields","type":"bytes1"},{"internalType":"string","name":"name","type":"string"},{"internalType":"string","name":"version","type":"string"},{"internalType":"uint256","name":"chainId","type":"uint256"},{"internalType":"address","name":"verifyingContract","type":"address"},{"internalType":"bytes32","name":"salt","type":"bytes32"},{"internalType":"uint256[]","name":"extensions","type":"uint256[]"}],"stateMutability":"view","type":"function"},{"inputs":[{"internalType":"bytes32","name":"role","type":"bytes32"}],"name":"getRoleAdmin","outputs":[{"internalType":"bytes32","name":"","type":"bytes32"}],"stateMutability":"view","type":"function"},{"inputs":[{"internalType":"bytes32","name":"role","type":"bytes32"},{"internalType":"uint256","name":"index","type":"uint256"}],"name":"getRoleMember","outputs":[{"internalType":"address","name":"","type":"address"}],"stateMutability":"view","type":"function"},{"inputs":[{"internalType":"bytes32","name":"role","type":"bytes32"}],"name":"getRoleMemberCount","outputs":[{"internalType":"uint256","name":"","type":"uint256"}],"stateMutability":"view","type":"function"},{"inputs":[{"internalType":"bytes32","name":"role","type":"bytes32"},{"internalType":"address","name":"account","type":"address"}],"name":"grantRole","outputs":[],"stateMutability":"nonpayable","type":"function"},{"inputs":[{"internalType":"bytes32","name":"role","type":"bytes32"},{"internalType":"address","name":"account","type":"address"}],"name":"hasRole","outputs":[{"internalType":"bool","name":"","type":"bool"}],"stateMutability":"view","type":"function"},{"inputs":[{"internalType":"address","name":"_symmioAddress","type":"address"},{"internalType":"address","name":"_solver","type":"address"},{"internalType":"address","name":"_signer","type":"address"},{"internalType":"uint256","name":"_minimumPaybackRatio","type":"uint256"},{"internalType":"uint256","name":"_depositLimit","type":"uint256"}],"name":"initialize","outputs":[],"stateMutability":"nonpayable","type":"function"},{"inputs":[],"name":"lockedBalance","outputs":[{"internalType":"uint256","name":"","type":"uint256"}],"stateMutability":"view","type":"function"},{"inputs":[],"name":"minimumPaybackRatio","outputs":[{"internalType":"uint256","name":"","type":"uint256"}],"stateMutability":"view","type":"function"},{"inputs":[],"name":"pause","outputs":[],"stateMutability":"nonpayable","type":"function"},{"inputs":[],"name":"paused","outputs":[{"internalType":"bool","name":"","type":"bool"}],"stateMutability":"view","type":"function"},{"inputs":[{"internalType":"address","name":"","type":"address"}],"name":"pendingWithdrawalAmount","outputs":[{"internalType":"uint256","name":"","type":"uint256"}],"stateMutability":"view","type":"function"},{"inputs":[{"internalType":"uint256","name":"id","type":"uint256"}],"name":"rejectWithdrawRequest","outputs":[],"stateMutability":"nonpayable","type":"function"},{"inputs":[{"internalType":"bytes32","name":"role","type":"bytes32"},{"internalType":"address","name":"account","type":"address"}],"name":"renounceRole","outputs":[],"stateMutability":"nonpayable","type":"function"},{"inputs":[{"internalType":"uint256","name":"amount","type":"uint256"},{"internalType":"uint256","name":"minAmountOut","type":"uint256"},{"internalType":"address","name":"receiver","type":"address"},{"internalType":"uint256","name":"nonce","type":"uint256"},{"internalType":"uint256","name":"deadline","type":"uint256"},{"internalType":"bytes","name":"signature","type":"bytes"}],"name":"requestWithdraw","outputs":[],"stateMutability":"nonpayable","type":"function"},{"inputs":[{"internalType":"bytes32","name":"role","type":"bytes32"},{"internalType":"address","name":"account","type":"address"}],"name":"revokeRole","outputs":[],"stateMutability":"nonpayable","type":"function"},{"inputs":[{"internalType":"uint256","name":"_depositLimit","type":"uint256"}],"name":"setDepositLimit","outputs":[],"stateMutability":"nonpayable","type":"function"},{"inputs":[{"internalType":"uint256","name":"_minimumPaybackRatio","type":"uint256"}],"name":"setMinimumPaybackRatio","outputs":[],"stateMutability":"nonpayable","type":"function"},{"inputs":[{"internalType":"address","name":"_signer","type":"address"}],"name":"setSigner","outputs":[],"stateMutability":"nonpayable","type":"function"},{"inputs":[{"internalType":"address","name":"_solver","type":"address"}],"name":"setSolver","outputs":[],"stateMutability":"nonpayable","type":"function"},{"inputs":[{"internalType":"address","name":"_symmioAddress","type":"address"}],"name":"setSymmioAddress","outputs":[],"stateMutability":"nonpayable","type":"function"},{"inputs":[{"internalType":"uint256","name":"withdrawalPeriod_","type":"uint256"}],"name":"setWithdrawalPeriod","outputs":[],"stateMutability":"nonpayable","type":"function"},{"inputs":[],"name":"signer","outputs":[{"internalType":"address","name":"","type":"address"}],"stateMutability":"view","type":"function"},{"inputs":[],"name":"solver","outputs":[{"internalType":"address","name":"","type":"address"}],"stateMutability":"view","type":"function"},{"inputs":[{"internalType":"bytes4","name":"interfaceId","type":"bytes4"}],"name":"supportsInterface","outputs":[{"internalType":"bool","name":"","type":"bool"}],"stateMutability":"view","type":"function"},{"inputs":[],"name":"symmio","outputs":[{"internalType":"contract ISymmio","name":"","type":"address"}],"stateMutability":"view","type":"function"},{"inputs":[],"name":"unpause","outputs":[],"stateMutability":"nonpayable","type":"function"},{"inputs":[{"internalType":"address","name":"","type":"address"},{"internalType":"uint256","name":"","type":"uint256"}],"name":"usedNonces","outputs":[{"internalType":"bool","name":"","type":"bool"}],"stateMutability":"view","type":"function"},{"inputs":[{"internalType":"address","name":"receiver","type":"address"},{"internalType":"uint256","name":"amount","type":"uint256"}],"name":"withdrawNotLockedCollateralTokens","outputs":[],"stateMutability":"nonpayable","type":"function"},{"inputs":[{"internalType":"uint256","name":"","type":"uint256"}],"name":"withdrawRequests","outputs":[{"internalType":"address","name":"receiver","type":"address"},{"internalType":"address","name":"sender","type":"address"},{"internalType":"uint256","name":"amount","type":"uint256"},{"internalType":"uint256","name":"minAmountOut","type":"uint256"},{"internalType":"enum IOnChainSymmioVault.RequestStatus","name":"status","type":"uint8"},{"internalType":"uint256","name":"acceptedRatio","type":"uint256"},{"internalType":"uint256","name":"acceptedWithdrawRequestTimestamp","type":"uint256"},{"internalType":"uint256","name":"claimableAt","type":"uint256"}],"stateMutability":"view","type":"function"},{"inputs":[],"name":"withdrawalPeriod","outputs":[{"internalType":"uint256","name":"","type":"uint256"}],"stateMutability":"view","type":"function"}],"evm":{"bytecode":{"linkReferences":{},"object":"6080604052348015600f57600080fd5b506016601a565b60d7565b600054610100900460ff161560855760405162461bcd60e51b815260206004820152602760248201527f496e697469616c697a61626c653a20636f6e747261637420697320696e697469604482015266616c697a696e6760c81b606482015260840160405180910390fd5b60005460ff9081161460d5576000805460ff191660ff9081179091556040519081527f7f26b83ff96e1f2b6a682f133852f6798a09c465da95921460cefb38474024989060200160405180910390a15b565b614680806100e66000396000f3fe608060405234801561001057600080fd5b506004361061030a5760003560e01c8063849fc72b1161019c578063b6b55f25116100ee578063deaf30b211610097578063ecf7085811610071578063ecf70858146106f3578063f36fbab7146106fd578063fb1bb9de1461071057600080fd5b8063deaf30b2146106a1578063e63ab1e9146106c2578063e94b2f44146106e957600080fd5b8063ca15c873116100c8578063ca15c87314610668578063cce4705b1461067b578063d547741f1461068e57600080fd5b8063b6b55f2514610638578063bca7093d1461064b578063bdc8144b1461065557600080fd5b8063973b294f11610150578063a217fddf1161012a578063a217fddf14610613578063a6b63eb81461061b578063b54790d81461062e57600080fd5b8063973b294f146105b2578063992a7dfb146105c5578063a2011b3f146105ec57600080fd5b806386da03231161018157806386da0323146105535780639010d07c1461056657806391d148541461057957600080fd5b8063849fc72b1461052557806384b0196e1461053857600080fd5b80635849b93d116102605780636e74bf96116102095780637b9f7d94116101e35780637b9f7d94146104fb57806381548fed1461050a5780638456cb591461051d57600080fd5b80636e74bf96146104d45780637278bd9b146104e75780637b80889b146104f157600080fd5b80636a8a68941161023a5780636a8a68941461047e5780636c19e783146104ad5780636d9dd201146104c057600080fd5b80635849b93d146104385780635c975abb1461044c57806364d4c8191461045757600080fd5b80632f2ff15d116102c25780633e55fde01161029c5780633e55fde0146104095780633f4ba83a1461041c57806349a7a26d1461042457600080fd5b80632f2ff15d146103bc57806330d3c534146103cf57806336568abe146103f657600080fd5b80631f879433116102f35780631f8794331461034c578063238ac9331461035f578063248a9ca31461038b57600080fd5b806301569e3a1461030f57806301ffc9a714610324575b600080fd5b61032261031d366004613e39565b610737565b005b610337610332366004613e56565b6108d2565b60405190151581526020015b60405180910390f35b61032261035a366004613e39565b61092e565b61016354610373906001600160a01b031681565b6040516001600160a01b039091168152602001610343565b6103ae610399366004613e98565b60009081526065602052604090206001015490565b604051908152602001610343565b6103226103ca366004613eb1565b610a13565b6103ae7f372387bd01807b923229b5bd1e46f8a6b8815b5d5db581db3e993c5168467b2781565b610322610404366004613eb1565b610a3d565b610322610417366004613f28565b610ac9565b61032261112b565b61016254610373906001600160a01b031681565b61016154610373906001600160a01b031681565b60c95460ff16610337565b6103ae7fb1dd0bed30d3b8ab9fc76313ecb7db14f6b497d5f1f7859fa5cb5811c1ca307381565b61033761048c366004613fed565b61016d60209081526000928352604080842090915290825290205460ff1681565b6103226104bb366004613e39565b611160565b61016454610373906001600160a01b031681565b6103226104e2366004613e98565b611245565b6103ae6101665481565b6103ae6101655481565b6103ae6706f05b59d3b2000081565b610322610518366004613e98565b6113a9565b610322611569565b610322610533366004614019565b61159b565b61054061196c565b6040516103439796959493929190614177565b610322610561366004613e98565b611a2e565b610373610574366004614201565b611c7b565b610337610587366004613eb1565b60009182526065602090815260408084206001600160a01b0393909316845291905290205460ff1690565b6103226105c0366004613e98565b611c9a565b6105d86105d3366004613e98565b611ccd565b604051610343989796959493929190614239565b6103ae7f61c92169ef077349011ff0b1383c894d86c5f0b41d986366b58a6cf31e93beda81565b6103ae600081565b6103226106293660046142a3565b611d34565b6103ae6101695481565b610322610646366004613e98565b611f49565b6103ae61016b5481565b610322610663366004613e98565b6121ab565b6103ae610676366004613e98565b61220b565b610322610689366004613e98565b612222565b61032261069c366004613eb1565b612436565b6103ae6106af366004613e39565b61016c6020526000908152604090205481565b6103ae7f65d7a28e3265b37a6474929f336521b332c1681b933f6cb9f3376673440d862a81565b6103ae6101685481565b6103ae6101675481565b61032261070b366004613fed565b61245b565b6103ae7f427da25fe773164f88948d3e215c94b6554e2ed5e5f203a821c9f2f6131cf75a81565b7f61c92169ef077349011ff0b1383c894d86c5f0b41d986366b58a6cf31e93beda610761816126ab565b6001600160a01b0382166107c85760405162461bcd60e51b815260206004820152602360248201527f53796d6d696f536f6c7665724465706f7369746f723a205a65726f206164647260448201526265737360e81b60648201526084015b60405180910390fd5b610161805473ffffffffffffffffffffffffffffffffffffffff19166001600160a01b038481169190911790915561016454166108036126b5565b610164546001600160a01b038281169116148061082757506001600160a01b038116155b6108995760405162461bcd60e51b815260206004820152603460248201527f53796d6d696f536f6c7665724465706f7369746f723a20436f6c6c617465726160448201527f6c2063616e206e6f74206265206368616e67656400000000000000000000000060648201526084016107bf565b6040516001600160a01b038416907fe5af12e9abb914276d8e0a5a01aa97d26f4c81e3002646f90824c2063953104490600090a2505050565b60007fffffffff0000000000000000000000000000000000000000000000000000000082167f5a05180f000000000000000000000000000000000000000000000000000000001480610928575061092882612879565b92915050565b7f61c92169ef077349011ff0b1383c894d86c5f0b41d986366b58a6cf31e93beda610958816126ab565b6001600160a01b0382166109ba5760405162461bcd60e51b815260206004820152602360248201527f53796d6d696f536f6c7665724465706f7369746f723a205a65726f206164647260448201526265737360e81b60648201526084016107bf565b610162805473ffffffffffffffffffffffffffffffffffffffff19166001600160a01b0384169081179091556040517f73c48e8c0360f51d3049faa15518d29248fbad9e77ad28ad94bcd1712854ca9b90600090a25050565b600082815260656020526040902060010154610a2e816126ab565b610a388383612910565b505050565b6001600160a01b0381163314610abb5760405162461bcd60e51b815260206004820152602f60248201527f416363657373436f6e74726f6c3a2063616e206f6e6c792072656e6f756e636560448201527f20726f6c657320666f722073656c66000000000000000000000000000000000060648201526084016107bf565b610ac58282612932565b5050565b7f372387bd01807b923229b5bd1e46f8a6b8815b5d5db581db3e993c5168467b27610af3816126ab565b610afb612954565b610b1433610164546001600160a01b03169030876129a7565b61016654821015610b8d5760405162461bcd60e51b815260206004820152602f60248201527f53796d6d696f536f6c7665724465706f7369746f723a205061796261636b207260448201527f6174696f20697320746f6f206c6f77000000000000000000000000000000000060648201526084016107bf565b670de0b6b3a7640000821115610c0b5760405162461bcd60e51b815260206004820152603060248201527f53796d6d696f536f6c7665724465706f7369746f723a205061796261636b207260448201527f6174696f20697320746f6f20686967680000000000000000000000000000000060648201526084016107bf565b6101655460005b8451811015610fe7576000858281518110610c2f57610c2f6142fe565b6020026020010151905061016a805490508110610ca05760405162461bcd60e51b815260206004820152602960248201527f53796d6d696f536f6c7665724465706f7369746f723a20496e76616c69642072604482015268195c5d595cdd08125160ba1b60648201526084016107bf565b600061016a8281548110610cb657610cb66142fe565b60009182526020909120600460089092020181015460ff1690811115610cde57610cde614223565b14610d515760405162461bcd60e51b815260206004820152602f60248201527f53796d6d696f536f6c7665724465706f7369746f723a20496e76616c6964206160448201527f636365707465642072657175657374000000000000000000000000000000000060648201526084016107bf565b6000670de0b6b3a76400008661016a8481548110610d7157610d716142fe565b906000526020600020906008020160020154610d8d919061432a565b610d979190614341565b905061016a8281548110610dad57610dad6142fe565b906000526020600020906008020160030154811015610e36576040805162461bcd60e51b81526020600482015260248101919091527f53796d6d696f536f6c7665724465706f7369746f723a205061796261636b207260448201527f6174696f20697320746f6f206c6f7720666f722074686973207265717565737460648201526084016107bf565b610e408185614363565b935061016a8281548110610e5657610e566142fe565b9060005260206000209060080201600201546101686000828254610e7a9190614376565b92505081905550600161016a8381548110610e9757610e976142fe565b906000526020600020906008020160040160006101000a81548160ff02191690836004811115610ec957610ec9614223565b02179055508561016a8381548110610ee357610ee36142fe565b9060005260206000209060080201600501819055504261016a8381548110610f0d57610f0d6142fe565b600091825260209091206006600890920201015561016b54610f2f9042614363565b61016a8381548110610f4357610f436142fe565b90600052602060002090600802016007018190555061016a8281548110610f6c57610f6c6142fe565b90600052602060002090600802016002015461016c600061016a8581548110610f9757610f976142fe565b60009182526020808320600160089093020191909101546001600160a01b0316835282019290925260400181208054909190610fd4908490614376565b909155505060019092019150610c129050565b50610164546040517f70a0823100000000000000000000000000000000000000000000000000000000815230600482015282916001600160a01b0316906370a0823190602401602060405180830381865afa15801561104a573d6000803e3d6000fd5b505050506040513d601f19601f8201168201806040525081019061106e9190614389565b10156110e25760405162461bcd60e51b815260206004820152603460248201527f53796d6d696f536f6c7665724465706f7369746f723a20496e7375666669636960448201527f656e7420636f6e74726163742062616c616e636500000000000000000000000060648201526084016107bf565b6101658190556040517f7e82005417f8fc53c7a47dc803bf0c0c5fb4adfa711e011d4edead5839b0d0249061111c908790879087906143a2565b60405180910390a15050505050565b7f427da25fe773164f88948d3e215c94b6554e2ed5e5f203a821c9f2f6131cf75a611155816126ab565b61115d612a5e565b50565b7f61c92169ef077349011ff0b1383c894d86c5f0b41d986366b58a6cf31e93beda61118a816126ab565b6001600160a01b0382166111ec5760405162461bcd60e51b815260206004820152602360248201527f53796d6d696f536f6c7665724465706f7369746f723a205a65726f206164647260448201526265737360e81b60648201526084016107bf565b610163805473ffffffffffffffffffffffffffffffffffffffff19166001600160a01b0384169081179091556040517f93d2bd623fe74229d9510c70ec2da10109749943db6d68437555a01b1844beae90600090a25050565b7f61c92169ef077349011ff0b1383c894d86c5f0b41d986366b58a6cf31e93beda61126f816126ab565b6706f05b59d3b200008210156112ed5760405162461bcd60e51b815260206004820152603760248201527f53796d6d696f536f6c7665724465706f7369746f723a204d696e696d756d206260448201527f75796261636b20726174696f20697320746f6f206c6f7700000000000000000060648201526084016107bf565b670de0b6b3a764000082111561136b5760405162461bcd60e51b815260206004820152603860248201527f53796d6d696f536f6c7665724465706f7369746f723a204d696e696d756d206260448201527f75796261636b20726174696f20697320746f6f2068696768000000000000000060648201526084016107bf565b6101668290556040518281527f2ae6ddf10933401b20295006a4f7ed3af82a0ab05354f1fc7db9be3fc75f19d7906020015b60405180910390a15050565b7f372387bd01807b923229b5bd1e46f8a6b8815b5d5db581db3e993c5168467b276113d3816126ab565b6113db612954565b61016a54821061143f5760405162461bcd60e51b815260206004820152602960248201527f53796d6d696f536f6c7665724465706f7369746f723a20496e76616c69642072604482015268195c5d595cdd08125160ba1b60648201526084016107bf565b600061016a8381548110611455576114556142fe565b600091825260208220600890910201915060048083015460ff169081111561147f5761147f614223565b146114f25760405162461bcd60e51b815260206004820152602560248201527f53796d6d696f536f6c7665724465706f7369746f723a20496e76616c6964207360448201527f746174757300000000000000000000000000000000000000000000000000000060648201526084016107bf565b6004818101805460ff19169091179055600281015460018201546001600160a01b0316600090815261016c602052604081208054909190611534908490614376565b909155505060405183907ff12d2a5d8b37ba59b2fa12dedca1d420ee1c5da121eb1878497bc1d29076b5c090600090a2505050565b7f65d7a28e3265b37a6474929f336521b332c1681b933f6cb9f3376673440d862a611593816126ab565b61115d612ab0565b6115a3612954565b6001600160a01b03841661161f5760405162461bcd60e51b815260206004820152603060248201527f53796d6d696f536f6c7665724465706f7369746f723a205a65726f206164647260448201527f65737320666f722072656365697665720000000000000000000000000000000060648201526084016107bf565b4282116116945760405162461bcd60e51b815260206004820152603560248201527f53796d6d696f536f6c7665724465706f7369746f723a20446561646c696e652060448201527f6d75737420626520696e2074686520667574757265000000000000000000000060648201526084016107bf565b6001600160a01b038416600090815261016d6020908152604080832086845290915290205460ff161561172f5760405162461bcd60e51b815260206004820152602960248201527f53796d6d696f536f6c7665724465706f7369746f723a204e6f6e636520616c7260448201527f656164792075736564000000000000000000000000000000000000000000000060648201526084016107bf565b61173d868686868686612aed565b6117af5760405162461bcd60e51b815260206004820152602860248201527f53796d6d696f536f6c7665724465706f7369746f723a20496e76616c6964207360448201527f69676e617475726500000000000000000000000000000000000000000000000060648201526084016107bf565b6001600160a01b038416600081815261016d60209081526040808320878452825291829020805460ff191660011790558151610100810190925291815261016a9181016117f93390565b6001600160a01b031681526020810189905260408101889052606001600081526000602080830182905260408084018390526060938401839052855460018082018855968452928290208551600890940201805473ffffffffffffffffffffffffffffffffffffffff199081166001600160a01b039586161782559286015181880180549094169416939093179091558301516002820155908201516003820155608082015160048083018054949593949293909260ff19169184908111156118c4576118c4614223565b021790555060a0820151600582015560c0820151600682015560e09091015160079091015533600090815261016c602052604081208054889290611909908490614363565b909155505061016a546001600160a01b03851690339061192b90600190614376565b604080518a8152602081018890527f0766e8c55dde32095d8c203180e4f32c7407c445e0a87007877162126d257b25910160405180910390a4505050505050565b60006060806000806000606060fb546000801b14801561198c575060fc54155b6119d85760405162461bcd60e51b815260206004820152601560248201527f4549503731323a20556e696e697469616c697a6564000000000000000000000060448201526064016107bf565b6119e0612b95565b6119e8612c27565b604080516000808252602082019092527f0f000000000000000000000000000000000000000000000000000000000000009b939a50919850469750309650945092509050565b611a36612954565b61016a548110611a9a5760405162461bcd60e51b815260206004820152602960248201527f53796d6d696f536f6c7665724465706f7369746f723a20496e76616c69642072604482015268195c5d595cdd08125160ba1b60648201526084016107bf565b600061016a8281548110611ab057611ab06142fe565b600091825260209091206008909102019050600160048083015460ff1690811115611add57611add614223565b14611b505760405162461bcd60e51b815260206004820152603760248201527f53796d6d696f536f6c7665724465706f7369746f723a2052657175657374206e60448201527f6f7420726561647920666f72207769746864726177616c00000000000000000060648201526084016107bf565b4281600701541115611bca5760405162461bcd60e51b815260206004820152603960248201527f53796d6d696f536f6c7665724465706f7369746f723a2052657175657374206e60448201527f6f742070617373207769746864726177616c20706572696f640000000000000060648201526084016107bf565b60048101805460ff19166002908117909155600582015490820154600091670de0b6b3a764000091611bfc919061432a565b611c069190614341565b9050806101656000828254611c1b9190614376565b9091555050815461016454611c3d916001600160a01b03918216911683612c36565b81546040516001600160a01b039091169084907f4ce122b005e10b197f4caf028d92e008a684c370ad8f93528e07ded8214240e190600090a3505050565b6000828152609760205260408120611c939083612c7f565b9392505050565b7f61c92169ef077349011ff0b1383c894d86c5f0b41d986366b58a6cf31e93beda611cc4816126ab565b610ac582612c8b565b61016a8181548110611cde57600080fd5b6000918252602090912060089091020180546001820154600283015460038401546004850154600586015460068701546007909701546001600160a01b03968716985094909516959294919360ff909116929088565b600054610100900460ff1615808015611d545750600054600160ff909116105b80611d6e5750303b158015611d6e575060005460ff166001145b611de05760405162461bcd60e51b815260206004820152602e60248201527f496e697469616c697a61626c653a20636f6e747261637420697320616c72656160448201527f647920696e697469616c697a656400000000000000000000000000000000000060648201526084016107bf565b6000805460ff191660011790558015611e03576000805461ff0019166101001790555b611e0b612cc7565b611e13612d3a565b611e1b612da5565b611e8f6040518060400160405280601481526020017f4f6e436861696e53796d6d696f5661756c7456320000000000000000000000008152506040518060400160405280600181526020017f3100000000000000000000000000000000000000000000000000000000000000815250612e18565b611e9a600033612910565b611ec47f61c92169ef077349011ff0b1383c894d86c5f0b41d986366b58a6cf31e93beda33612910565b611ecd86610737565b611ed68561092e565b611edf826121ab565b611ee884611160565b611ef183611245565b611efb6064612c8b565b8015611f41576000805461ff0019169055604051600181527f7f26b83ff96e1f2b6a682f133852f6798a09c465da95921460cefb38474024989060200160405180910390a15b505050505050565b611f51612954565b611f59612e8d565b60008111611fcf5760405162461bcd60e51b815260206004820152603460248201527f53796d6d696f536f6c7665724465706f7369746f723a20416d6f756e74206d7560448201527f73742062652067726561746572207468616e203000000000000000000000000060648201526084016107bf565b610167548161016854611fe29190614363565b11156120565760405162461bcd60e51b815260206004820152602c60248201527f53796d6d696f536f6c7665724465706f7369746f723a204465706f736974206c60448201527f696d69742072656163686564000000000000000000000000000000000000000060648201526084016107bf565b610164546001600160a01b031661206f813330856129a7565b8161016860008282546120829190614363565b909155505060405182815233907fe1fffcc4923d04b559f4d29a8bfc6cda04eb5b0d3c460751c2402c5c5cc9109c9060200160405180910390a2610161546120d7906001600160a01b03838116911684612ee8565b61016154610162546040517f2f4f21e20000000000000000000000000000000000000000000000000000000081526001600160a01b03918216600482015260248101859052911690632f4f21e290604401600060405180830381600087803b15801561214257600080fd5b505af1158015612156573d6000803e3d6000fd5b5050610162546040518581526001600160a01b0390911692503391507f42a31d51415a86588240e32bf72025c881c4c9aada6e283ce50dc32f5a64717b9060200160405180910390a35061115d600161012f55565b7f61c92169ef077349011ff0b1383c894d86c5f0b41d986366b58a6cf31e93beda6121d5816126ab565b6101678290556040518281527fa1b2ac18b42a8ccd9c95e39420259ed780b3f6d890e5ecd36af7a4dc570348ff9060200161139d565b600081815260976020526040812061092890612fc6565b61222a612954565b61016a54811061228e5760405162461bcd60e51b815260206004820152602960248201527f53796d6d696f536f6c7665724465706f7369746f723a20496e76616c69642072604482015268195c5d595cdd08125160ba1b60648201526084016107bf565b600061016a82815481106122a4576122a46142fe565b906000526020600020906008020190506122bb3390565b60018201546001600160a01b039081169116146123405760405162461bcd60e51b815260206004820152603f60248201527f53796d6d696f536f6c7665724465706f7369746f723a204f6e6c79207468652060448201527f73656e646572206f6620726571756573742063616e2063616e63656c2069740060648201526084016107bf565b600060048083015460ff169081111561235b5761235b614223565b146123ce5760405162461bcd60e51b815260206004820152602560248201527f53796d6d696f536f6c7665724465706f7369746f723a20496e76616c6964207360448201527f746174757300000000000000000000000000000000000000000000000000000060648201526084016107bf565b60048101805460ff19166003179055600281015433600090815261016c602052604081208054909190612402908490614376565b909155505060405182907f8f3015a84bd69b67997edb78d8928ad670dcb6243df596529ae1e07f93eaf35a90600090a25050565b600082815260656020526040902060010154612451816126ab565b610a388383612932565b7f372387bd01807b923229b5bd1e46f8a6b8815b5d5db581db3e993c5168467b27612485816126ab565b61248d612954565b6001600160a01b0383166125095760405162461bcd60e51b815260206004820152603060248201527f53796d6d696f536f6c7665724465706f7369746f723a205a65726f206164647260448201527f65737320666f722072656365697665720000000000000000000000000000000060648201526084016107bf565b6000821161257f5760405162461bcd60e51b815260206004820152603460248201527f53796d6d696f536f6c7665724465706f7369746f723a20416d6f756e74206d7560448201527f73742062652067726561746572207468616e203000000000000000000000000060648201526084016107bf565b610164546040517f70a082310000000000000000000000000000000000000000000000000000000081523060048201526001600160a01b039091169060009082906370a0823190602401602060405180830381865afa1580156125e6573d6000803e3d6000fd5b505050506040513d601f19601f8201168201806040525081019061260a9190614389565b9050610165548161261b9190614376565b8411156126905760405162461bcd60e51b815260206004820152602b60248201527f53796d6d696f536f6c7665724465706f7369746f723a20496e7375666669636960448201527f656e742062616c616e636500000000000000000000000000000000000000000060648201526084016107bf565b6126a46001600160a01b0383168686612c36565b5050505050565b61115d8133612fd0565b61016160009054906101000a90046001600160a01b03166001600160a01b0316635c1548fb6040518163ffffffff1660e01b8152600401602060405180830381865afa158015612709573d6000803e3d6000fd5b505050506040513d601f19601f8201168201806040525081019061272d91906143cb565b610164805473ffffffffffffffffffffffffffffffffffffffff19166001600160a01b03929092169182179055604080517f313ce567000000000000000000000000000000000000000000000000000000008152905163313ce567916004808201926020929091908290030181865afa1580156127ae573d6000803e3d6000fd5b505050506040513d601f19601f820116820180604052508101906127d291906143e8565b60ff16610169819055601210156128775760405162461bcd60e51b815260206004820152604e60248201527f53796d6d696f536f6c7665724465706f7369746f723a20436f6c6c617465726160448201527f6c20646563696d616c732073686f756c64206265206c6f776572207468616e2060648201527f6f7220657175616c20746f203138000000000000000000000000000000000000608482015260a4016107bf565b565b60007fffffffff0000000000000000000000000000000000000000000000000000000082167f7965db0b00000000000000000000000000000000000000000000000000000000148061092857507f01ffc9a7000000000000000000000000000000000000000000000000000000007fffffffff00000000000000000000000000000000000000000000000000000000831614610928565b61291a8282613045565b6000828152609760205260409020610a3890826130e7565b61293c82826130fc565b6000828152609760205260409020610a38908261317f565b60c95460ff16156128775760405162461bcd60e51b815260206004820152601060248201527f5061757361626c653a207061757365640000000000000000000000000000000060448201526064016107bf565b6040516001600160a01b0380851660248301528316604482015260648101829052612a589085907f23b872dd00000000000000000000000000000000000000000000000000000000906084015b60408051601f198184030181529190526020810180517bffffffffffffffffffffffffffffffffffffffffffffffffffffffff167fffffffff0000000000000000000000000000000000000000000000000000000090931692909217909152613194565b50505050565b612a6661327c565b60c9805460ff191690557f5db9ee0a495bf2e6ff9c91a7834c1ba4fdd244a5e8aa4e537bd38aeae4b073aa335b6040516001600160a01b03909116815260200160405180910390a1565b612ab8612954565b60c9805460ff191660011790557f62e78cea01bee320cd4e420270b5ea74000d11b0c9f74754ebdbfc544b05a258612a933390565b604080517fb1dd0bed30d3b8ab9fc76313ecb7db14f6b497d5f1f7859fa5cb5811c1ca30736020820152908101879052606081018690526001600160a01b038516608082015260a0810184905260c081018390526000908190612b689060e001604051602081830303815290604052805190602001206132ce565b90506000612b768285613316565b610163546001600160a01b039182169116149998505050505050505050565b606060fd8054612ba49061440b565b80601f0160208091040260200160405190810160405280929190818152602001828054612bd09061440b565b8015612c1d5780601f10612bf257610100808354040283529160200191612c1d565b820191906000526020600020905b815481529060010190602001808311612c0057829003601f168201915b5050505050905090565b606060fe8054612ba49061440b565b6040516001600160a01b038316602482015260448101829052610a389084907fa9059cbb00000000000000000000000000000000000000000000000000000000906064016129f4565b6000611c93838361333a565b61016b8190556040518181527f699d7bc1fd2d92f6912f04b6a309ef25ec3937479e80cdc04b75f234a724e9a29060200160405180910390a150565b600054610100900460ff16612d325760405162461bcd60e51b815260206004820152602b60248201527f496e697469616c697a61626c653a20636f6e7472616374206973206e6f74206960448201526a6e697469616c697a696e6760a81b60648201526084016107bf565b612877613364565b600054610100900460ff166128775760405162461bcd60e51b815260206004820152602b60248201527f496e697469616c697a61626c653a20636f6e7472616374206973206e6f74206960448201526a6e697469616c697a696e6760a81b60648201526084016107bf565b600054610100900460ff16612e105760405162461bcd60e51b815260206004820152602b60248201527f496e697469616c697a61626c653a20636f6e7472616374206973206e6f74206960448201526a6e697469616c697a696e6760a81b60648201526084016107bf565b6128776133cf565b600054610100900460ff16612e835760405162461bcd60e51b815260206004820152602b60248201527f496e697469616c697a61626c653a20636f6e7472616374206973206e6f74206960448201526a6e697469616c697a696e6760a81b60648201526084016107bf565b610ac58282613446565b600261012f5403612ee05760405162461bcd60e51b815260206004820152601f60248201527f5265656e7472616e637947756172643a207265656e7472616e742063616c6c0060448201526064016107bf565b600261012f55565b604080516001600160a01b038416602482015260448082018490528251808303909101815260649091019091526020810180517bffffffffffffffffffffffffffffffffffffffffffffffffffffffff167f095ea7b300000000000000000000000000000000000000000000000000000000179052612f6784826134d9565b612a58576040516001600160a01b038416602482015260006044820152612fb49085907f095ea7b300000000000000000000000000000000000000000000000000000000906064016129f4565b612a588482613194565b600161012f55565b6000610928825490565b60008281526065602090815260408083206001600160a01b038516845290915290205460ff16610ac55761300381613580565b61300e836020613592565b60405160200161301f929190614445565b60408051601f198184030181529082905262461bcd60e51b82526107bf916004016144c6565b60008281526065602090815260408083206001600160a01b038516845290915290205460ff16610ac55760008281526065602090815260408083206001600160a01b03851684529091529020805460ff191660011790556130a33390565b6001600160a01b0316816001600160a01b0316837f2f8788117e7eff1d82e926ec794901d17c78024a50270940304540a733656f0d60405160405180910390a45050565b6000611c93836001600160a01b0384166137bb565b60008281526065602090815260408083206001600160a01b038516845290915290205460ff1615610ac55760008281526065602090815260408083206001600160a01b0385168085529252808320805460ff1916905551339285917ff6391f5c32d9c69d2a47ea670b442974b53935d1edc7fd64eb21e047a839171b9190a45050565b6000611c93836001600160a01b03841661380a565b60006131e9826040518060400160405280602081526020017f5361666545524332303a206c6f772d6c6576656c2063616c6c206661696c6564815250856001600160a01b03166138fd9092919063ffffffff16565b905080516000148061320a57508080602001905181019061320a91906144d9565b610a385760405162461bcd60e51b815260206004820152602a60248201527f5361666545524332303a204552433230206f7065726174696f6e20646964206e60448201527f6f7420737563636565640000000000000000000000000000000000000000000060648201526084016107bf565b60c95460ff166128775760405162461bcd60e51b815260206004820152601460248201527f5061757361626c653a206e6f742070617573656400000000000000000000000060448201526064016107bf565b60006109286132db613914565b836040517f19010000000000000000000000000000000000000000000000000000000000008152600281019290925260228201526042902090565b60008060006133258585613923565b9150915061333281613968565b509392505050565b6000826000018281548110613351576133516142fe565b9060005260206000200154905092915050565b600054610100900460ff16612fbe5760405162461bcd60e51b815260206004820152602b60248201527f496e697469616c697a61626c653a20636f6e7472616374206973206e6f74206960448201526a6e697469616c697a696e6760a81b60648201526084016107bf565b600054610100900460ff1661343a5760405162461bcd60e51b815260206004820152602b60248201527f496e697469616c697a61626c653a20636f6e7472616374206973206e6f74206960448201526a6e697469616c697a696e6760a81b60648201526084016107bf565b60c9805460ff19169055565b600054610100900460ff166134b15760405162461bcd60e51b815260206004820152602b60248201527f496e697469616c697a61626c653a20636f6e7472616374206973206e6f74206960448201526a6e697469616c697a696e6760a81b60648201526084016107bf565b60fd6134bd8382614542565b5060fe6134ca8282614542565b5050600060fb81905560fc5550565b6000806000846001600160a01b0316846040516134f69190614601565b6000604051808303816000865af19150503d8060008114613533576040519150601f19603f3d011682016040523d82523d6000602084013e613538565b606091505b509150915081801561356257508051158061356257508080602001905181019061356291906144d9565b801561357757506001600160a01b0385163b15155b95945050505050565b60606109286001600160a01b03831660145b606060006135a183600261432a565b6135ac906002614363565b67ffffffffffffffff8111156135c4576135c4613ee1565b6040519080825280601f01601f1916602001820160405280156135ee576020820181803683370190505b5090507f300000000000000000000000000000000000000000000000000000000000000081600081518110613625576136256142fe565b60200101907effffffffffffffffffffffffffffffffffffffffffffffffffffffffffffff1916908160001a9053507f780000000000000000000000000000000000000000000000000000000000000081600181518110613688576136886142fe565b60200101907effffffffffffffffffffffffffffffffffffffffffffffffffffffffffffff1916908160001a90535060006136c484600261432a565b6136cf906001614363565b90505b600181111561376c577f303132333435363738396162636465660000000000000000000000000000000085600f1660108110613710576137106142fe565b1a60f81b828281518110613726576137266142fe565b60200101907effffffffffffffffffffffffffffffffffffffffffffffffffffffffffffff1916908160001a90535060049490941c936137658161461d565b90506136d2565b508315611c935760405162461bcd60e51b815260206004820181905260248201527f537472696e67733a20686578206c656e67746820696e73756666696369656e7460448201526064016107bf565b600081815260018301602052604081205461380257508154600181810184556000848152602080822090930184905584548482528286019093526040902091909155610928565b506000610928565b600081815260018301602052604081205480156138f357600061382e600183614376565b855490915060009061384290600190614376565b90508181146138a7576000866000018281548110613862576138626142fe565b9060005260206000200154905080876000018481548110613885576138856142fe565b6000918252602080832090910192909255918252600188019052604090208390555b85548690806138b8576138b8614634565b600190038181906000526020600020016000905590558560010160008681526020019081526020016000206000905560019350505050610928565b6000915050610928565b606061390c8484600085613acd565b949350505050565b600061391e613bbf565b905090565b60008082516041036139595760208301516040840151606085015160001a61394d87828585613c33565b94509450505050613961565b506000905060025b9250929050565b600081600481111561397c5761397c614223565b036139845750565b600181600481111561399857613998614223565b036139e55760405162461bcd60e51b815260206004820152601860248201527f45434453413a20696e76616c6964207369676e6174757265000000000000000060448201526064016107bf565b60028160048111156139f9576139f9614223565b03613a465760405162461bcd60e51b815260206004820152601f60248201527f45434453413a20696e76616c6964207369676e6174757265206c656e6774680060448201526064016107bf565b6003816004811115613a5a57613a5a614223565b0361115d5760405162461bcd60e51b815260206004820152602260248201527f45434453413a20696e76616c6964207369676e6174757265202773272076616c60448201527f756500000000000000000000000000000000000000000000000000000000000060648201526084016107bf565b606082471015613b455760405162461bcd60e51b815260206004820152602660248201527f416464726573733a20696e73756666696369656e742062616c616e636520666f60448201527f722063616c6c000000000000000000000000000000000000000000000000000060648201526084016107bf565b600080866001600160a01b03168587604051613b619190614601565b60006040518083038185875af1925050503d8060008114613b9e576040519150601f19603f3d011682016040523d82523d6000602084013e613ba3565b606091505b5091509150613bb487838387613cf7565b979650505050505050565b60007f8b73c3c69bb8fe3d512ecc4cf759cc79239f7b179b0ffacaa9a75d522b39400f613bea613d70565b613bf2613dc9565b60408051602081019490945283019190915260608201524660808201523060a082015260c00160405160208183030381529060405280519060200120905090565b6000807f7fffffffffffffffffffffffffffffff5d576e7357a4501ddfe92f46681b20a0831115613c6a5750600090506003613cee565b6040805160008082526020820180845289905260ff881692820192909252606081018690526080810185905260019060a0016020604051602081039080840390855afa158015613cbe573d6000803e3d6000fd5b5050604051601f1901519150506001600160a01b038116613ce757600060019250925050613cee565b9150600090505b94509492505050565b60608315613d66578251600003613d5f576001600160a01b0385163b613d5f5760405162461bcd60e51b815260206004820152601d60248201527f416464726573733a2063616c6c20746f206e6f6e2d636f6e747261637400000060448201526064016107bf565b508161390c565b61390c8383613dfa565b600080613d7b612b95565b805190915015613d92578051602090910120919050565b60fb548015613da15792915050565b7fc5d2460186f7233c927e7db2dcc703c0e500b653ca82273b7bfad8045d85a4709250505090565b600080613dd4612c27565b805190915015613deb578051602090910120919050565b60fc548015613da15792915050565b815115613e0a5781518083602001fd5b8060405162461bcd60e51b81526004016107bf91906144c6565b6001600160a01b038116811461115d57600080fd5b600060208284031215613e4b57600080fd5b8135611c9381613e24565b600060208284031215613e6857600080fd5b81357fffffffff0000000000000000000000000000000000000000000000000000000081168114611c9357600080fd5b600060208284031215613eaa57600080fd5b5035919050565b60008060408385031215613ec457600080fd5b823591506020830135613ed681613e24565b809150509250929050565b634e487b7160e01b600052604160045260246000fd5b604051601f8201601f1916810167ffffffffffffffff81118282101715613f2057613f20613ee1565b604052919050565b600080600060608486031215613f3d57600080fd5b83359250602084013567ffffffffffffffff811115613f5b57600080fd5b8401601f81018613613f6c57600080fd5b803567ffffffffffffffff811115613f8657613f86613ee1565b8060051b613f9660208201613ef7565b91825260208184018101929081019089841115613fb257600080fd5b6020850194505b83851015613fd857843580835260209586019590935090910190613fb9565b96999698505050506040949094013593505050565b6000806040838503121561400057600080fd5b823561400b81613e24565b946020939093013593505050565b60008060008060008060c0878903121561403257600080fd5b8635955060208701359450604087013561404b81613e24565b9350606087013592506080870135915060a087013567ffffffffffffffff81111561407557600080fd5b8701601f8101891361408657600080fd5b803567ffffffffffffffff8111156140a0576140a0613ee1565b6140b36020601f19601f84011601613ef7565b8181528a60208385010111156140c857600080fd5b816020840160208301376000602083830101528093505050509295509295509295565b60005b838110156141065781810151838201526020016140ee565b50506000910152565b600081518084526141278160208601602086016140eb565b601f01601f19169290920160200192915050565b600081518084526020840193506020830160005b8281101561416d57815186526020958601959091019060010161414f565b5093949350505050565b7fff000000000000000000000000000000000000000000000000000000000000008816815260e0602082015260006141b260e083018961410f565b82810360408401526141c4818961410f565b90508660608401526001600160a01b03861660808401528460a084015282810360c08401526141f3818561413b565b9a9950505050505050505050565b6000806040838503121561421457600080fd5b50508035926020909101359150565b634e487b7160e01b600052602160045260246000fd5b6001600160a01b03898116825288166020820152604081018790526060810186905261010081016005861061427e57634e487b7160e01b600052602160045260246000fd5b8560808301528460a08301528360c08301528260e08301529998505050505050505050565b600080600080600060a086880312156142bb57600080fd5b85356142c681613e24565b945060208601356142d681613e24565b935060408601356142e681613e24565b94979396509394606081013594506080013592915050565b634e487b7160e01b600052603260045260246000fd5b634e487b7160e01b600052601160045260246000fd5b808202811582820484141761092857610928614314565b60008261435e57634e487b7160e01b600052601260045260246000fd5b500490565b8082018082111561092857610928614314565b8181038181111561092857610928614314565b60006020828403121561439b57600080fd5b5051919050565b8381526060602082015260006143bb606083018561413b565b9050826040830152949350505050565b6000602082840312156143dd57600080fd5b8151611c9381613e24565b6000602082840312156143fa57600080fd5b815160ff81168114611c9357600080fd5b600181811c9082168061441f57607f821691505b60208210810361443f57634e487b7160e01b600052602260045260246000fd5b50919050565b7f416363657373436f6e74726f6c3a206163636f756e742000000000000000000081526000835161447d8160178501602088016140eb565b7f206973206d697373696e6720726f6c652000000000000000000000000000000060179184019182015283516144ba8160288401602088016140eb565b01602801949350505050565b602081526000611c93602083018461410f565b6000602082840312156144eb57600080fd5b81518015158114611c9357600080fd5b601f821115610a3857806000526020600020601f840160051c810160208510156145225750805b601f840160051c820191505b818110156126a4576000815560010161452e565b815167ffffffffffffffff81111561455c5761455c613ee1565b6145708161456a845461440b565b846144fb565b6020601f8211600181146145a4576000831561458c5750848201515b600019600385901b1c1916600184901b1784556126a4565b600084815260208120601f198516915b828110156145d457878501518255602094850194600190920191016145b4565b50848210156145f25786840151600019600387901b60f8161c191681555b50505050600190811b01905550565b600082516146138184602087016140eb565b9190910192915050565b60008161462c5761462c614314565b506000190190565b634e487b7160e01b600052603160045260246000fdfea2646970667358221220ebb744437e723d0c7f87fe5ad97814c063bbcb1a061ef6c8204da6bab77f47a964736f6c634300081c0033","opcodes":"PUSH1 0x80 PUSH1 0x40 MSTORE CALLVALUE DUP1 ISZERO PUSH1 0xF JUMPI PUSH1 0x0 DUP1 REVERT JUMPDEST POP PUSH1 0x16 PUSH1 0x1A JUMP JUMPDEST PUSH1 0xD7 JUMP JUMPDEST PUSH1 0x0 SLOAD PUSH2 0x100 SWAP1 DIV PUSH1 0xFF AND ISZERO PUSH1 0x85 JUMPI PUSH1 0x40 MLOAD PUSH3 0x461BCD PUSH1 0xE5 SHL DUP2 MSTORE PUSH1 0x20 PUSH1 0x4 DUP3 ADD MSTORE PUSH1 0x27 PUSH1 0x24 DUP3 ADD MSTORE PUSH32 0x496E697469616C697A61626C653A20636F6E747261637420697320696E697469 PUSH1 0x44 DUP3 ADD MSTORE PUSH7 0x616C697A696E67 PUSH1 0xC8 SHL PUSH1 0x64 DUP3 ADD MSTORE PUSH1 0x84 ADD PUSH1 0x40 MLOAD DUP1 SWAP2 SUB SWAP1 REVERT JUMPDEST PUSH1 0x0 SLOAD PUSH1 0xFF SWAP1 DUP2 AND EQ PUSH1 0xD5 JUMPI PUSH1 0x0 DUP1 SLOAD PUSH1 0xFF NOT AND PUSH1 0xFF SWAP1 DUP2 OR SWAP1 SWAP2 SSTORE PUSH1 0x40 MLOAD SWAP1 DUP2 MSTORE PUSH32 0x7F26B83FF96E1F2B6A682F133852F6798A09C465DA95921460CEFB3847402498 SWAP1 PUSH1 0x20 ADD PUSH1 0x40 MLOAD DUP1 SWAP2 SUB SWAP1 LOG1 JUMPDEST JUMP JUMPDEST PUSH2 0x4680 DUP1 PUSH2 0xE6 PUSH1 0x0 CODECOPY PUSH1 0x0 RETURN INVALID PUSH1 0x80 PUSH1 0x40 MSTORE CALLVALUE DUP1 ISZERO PUSH2 0x10 JUMPI PUSH1 0x0 DUP1 REVERT JUMPDEST POP PUSH1 0x4 CALLDATASIZE LT PUSH2 0x30A JUMPI PUSH1 0x0 CALLDATALOAD PUSH1 0xE0 SHR DUP1 PUSH4 0x849FC72B GT PUSH2 0x19C JUMPI DUP1 PUSH4 0xB6B55F25 GT PUSH2 0xEE JUMPI DUP1 PUSH4 0xDEAF30B2 GT PUSH2 0x97 JUMPI DUP1 PUSH4 0xECF70858 GT PUSH2 0x71 JUMPI DUP1 PUSH4 0xECF70858 EQ PUSH2 0x6F3 JUMPI DUP1 PUSH4 0xF36FBAB7 EQ PUSH2 0x6FD JUMPI DUP1 PUSH4 0xFB1BB9DE EQ PUSH2 0x710 JUMPI PUSH1 0x0 DUP1 REVERT JUMPDEST DUP1 PUSH4 0xDEAF30B2 EQ PUSH2 0x6A1 JUMPI DUP1 PUSH4 0xE63AB1E9 EQ PUSH2 0x6C2 JUMPI DUP1 PUSH4 0xE94B2F44 EQ PUSH2 0x6E9 JUMPI PUSH1 0x0 DUP1 REVERT JUMPDEST DUP1 PUSH4 0xCA15C873 GT PUSH2 0xC8 JUMPI DUP1 PUSH4 0xCA15C873 EQ PUSH2 0x668 JUMPI DUP1 PUSH4 0xCCE4705B EQ PUSH2 0x67B JUMPI DUP1 PUSH4 0xD547741F EQ PUSH2 0x68E JUMPI PUSH1 0x0 DUP1 REVERT JUMPDEST DUP1 PUSH4 0xB6B55F25 EQ PUSH2 0x638 JUMPI DUP1 PUSH4 0xBCA7093D EQ PUSH2 0x64B JUMPI DUP1 PUSH4 0xBDC8144B EQ PUSH2 0x655 JUMPI PUSH1 0x0 DUP1 REVERT JUMPDEST DUP1 PUSH4 0x973B294F GT PUSH2 0x150 JUMPI DUP1 PUSH4 0xA217FDDF GT PUSH2 0x12A JUMPI DUP1 PUSH4 0xA217FDDF EQ PUSH2 0x613 JUMPI DUP1 PUSH4 0xA6B63EB8 EQ PUSH2 0x61B JUMPI DUP1 PUSH4 0xB54790D8 EQ PUSH2 0x62E JUMPI PUSH1 0x0 DUP1 REVERT JUMPDEST DUP1 PUSH4 0x973B294F EQ PUSH2 0x5B2 JUMPI DUP1 PUSH4 0x992A7DFB EQ PUSH2 0x5C5 JUMPI DUP1 PUSH4 0xA2011B3F EQ PUSH2 0x5EC JUMPI PUSH1 0x0 DUP1 REVERT JUMPDEST DUP1 PUSH4 0x86DA0323 GT PUSH2 0x181 JUMPI DUP1 PUSH4 0x86DA0323 EQ PUSH2 0x553 JUMPI DUP1 PUSH4 0x9010D07C EQ PUSH2 0x566 JUMPI DUP1 PUSH4 0x91D14854 EQ PUSH2 0x579 JUMPI PUSH1 0x0 DUP1 REVERT JUMPDEST DUP1 PUSH4 0x849FC72B EQ PUSH2 0x525 JUMPI DUP1 PUSH4 0x84B0196E EQ PUSH2 0x538 JUMPI PUSH1 0x0 DUP1 REVERT JUMPDEST DUP1 PUSH4 0x5849B93D GT PUSH2 0x260 JUMPI DUP1 PUSH4 0x6E74BF96 GT PUSH2 0x209 JUMPI DUP1 PUSH4 0x7B9F7D94 GT PUSH2 0x1E3 JUMPI DUP1 PUSH4 0x7B9F7D94 EQ PUSH2 0x4FB JUMPI DUP1 PUSH4 0x81548FED EQ PUSH2 0x50A JUMPI DUP1 PUSH4 0x8456CB59 EQ PUSH2 0x51D JUMPI PUSH1 0x0 DUP1 REVERT JUMPDEST DUP1 PUSH4 0x6E74BF96 EQ PUSH2 0x4D4 JUMPI DUP1 PUSH4 0x7278BD9B EQ PUSH2 0x4E7 JUMPI DUP1 PUSH4 0x7B80889B EQ PUSH2 0x4F1 JUMPI PUSH1 0x0 DUP1 REVERT JUMPDEST DUP1 PUSH4 0x6A8A6894 GT PUSH2 0x23A JUMPI DUP1 PUSH4 0x6A8A6894 EQ PUSH2 0x47E JUMPI DUP1 PUSH4 0x6C19E783 EQ PUSH2 0x4AD JUMPI DUP1 PUSH4 0x6D9DD201 EQ PUSH2 0x4C0 JUMPI PUSH1 0x0 DUP1 REVERT JUMPDEST DUP1 PUSH4 0x5849B93D EQ PUSH2 0x438 JUMPI DUP1 PUSH4 0x5C975ABB EQ PUSH2 0x44C JUMPI DUP1 PUSH4 0x64D4C819 EQ PUSH2 0x457 JUMPI PUSH1 0x0 DUP1 REVERT JUMPDEST DUP1 PUSH4 0x2F2FF15D GT PUSH2 0x2C2 JUMPI DUP1 PUSH4 0x3E55FDE0 GT PUSH2 0x29C JUMPI DUP1 PUSH4 0x3E55FDE0 EQ PUSH2 0x409 JUMPI DUP1 PUSH4 0x3F4BA83A EQ PUSH2 0x41C JUMPI DUP1 PUSH4 0x49A7A26D EQ PUSH2 0x424 JUMPI PUSH1 0x0 DUP1 REVERT JUMPDEST DUP1 PUSH4 0x2F2FF15D EQ PUSH2 0x3BC JUMPI DUP1 PUSH4 0x30D3C534 EQ PUSH2 0x3CF JUMPI DUP1 PUSH4 0x36568ABE EQ PUSH2 0x3F6 JUMPI PUSH1 0x0 DUP1 REVERT JUMPDEST DUP1 PUSH4 0x1F879433 GT PUSH2 0x2F3 JUMPI DUP1 PUSH4 0x1F879433 EQ PUSH2 0x34C JUMPI DUP1 PUSH4 0x238AC933 EQ PUSH2 0x35F JUMPI DUP1 PUSH4 0x248A9CA3 EQ PUSH2 0x38B JUMPI PUSH1 0x0 DUP1 REVERT JUMPDEST DUP1 PUSH4 0x1569E3A EQ PUSH2 0x30F JUMPI DUP1 PUSH4 0x1FFC9A7 EQ PUSH2 0x324 JUMPI JUMPDEST PUSH1 0x0 DUP1 REVERT JUMPDEST PUSH2 0x322 PUSH2 0x31D CALLDATASIZE PUSH1 0x4 PUSH2 0x3E39 JUMP JUMPDEST PUSH2 0x737 JUMP JUMPDEST STOP JUMPDEST PUSH2 0x337 PUSH2 0x332 CALLDATASIZE PUSH1 0x4 PUSH2 0x3E56 JUMP JUMPDEST PUSH2 0x8D2 JUMP JUMPDEST PUSH1 0x40 MLOAD SWAP1 ISZERO ISZERO DUP2 MSTORE PUSH1 0x20 ADD JUMPDEST PUSH1 0x40 MLOAD DUP1 SWAP2 SUB SWAP1 RETURN JUMPDEST PUSH2 0x322 PUSH2 0x35A CALLDATASIZE PUSH1 0x4 PUSH2 0x3E39 JUMP JUMPDEST PUSH2 0x92E JUMP JUMPDEST PUSH2 0x163 SLOAD PUSH2 0x373 SWAP1 PUSH1 0x1 PUSH1 0x1 PUSH1 0xA0 SHL SUB AND DUP2 JUMP JUMPDEST PUSH1 0x40 MLOAD PUSH1 0x1 PUSH1 0x1 PUSH1 0xA0 SHL SUB SWAP1 SWAP2 AND DUP2 MSTORE PUSH1 0x20 ADD PUSH2 0x343 JUMP JUMPDEST PUSH2 0x3AE PUSH2 0x399 CALLDATASIZE PUSH1 0x4 PUSH2 0x3E98 JUMP JUMPDEST PUSH1 0x0 SWAP1 DUP2 MSTORE PUSH1 0x65 PUSH1 0x20 MSTORE PUSH1 0x40 SWAP1 KECCAK256 PUSH1 0x1 ADD SLOAD SWAP1 JUMP JUMPDEST PUSH1 0x40 MLOAD SWAP1 DUP2 MSTORE PUSH1 0x20 ADD PUSH2 0x343 JUMP JUMPDEST PUSH2 0x322 PUSH2 0x3CA CALLDATASIZE PUSH1 0x4 PUSH2 0x3EB1 JUMP JUMPDEST PUSH2 0xA13 JUMP JUMPDEST PUSH2 0x3AE PUSH32 0x372387BD01807B923229B5BD1E46F8A6B8815B5D5DB581DB3E993C5168467B27 DUP2 JUMP JUMPDEST PUSH2 0x322 PUSH2 0x404 CALLDATASIZE PUSH1 0x4 PUSH2 0x3EB1 JUMP JUMPDEST PUSH2 0xA3D JUMP JUMPDEST PUSH2 0x322 PUSH2 0x417 CALLDATASIZE PUSH1 0x4 PUSH2 0x3F28 JUMP JUMPDEST PUSH2 0xAC9 JUMP JUMPDEST PUSH2 0x322 PUSH2 0x112B JUMP JUMPDEST PUSH2 0x162 SLOAD PUSH2 0x373 SWAP1 PUSH1 0x1 PUSH1 0x1 PUSH1 0xA0 SHL SUB AND DUP2 JUMP JUMPDEST PUSH2 0x161 SLOAD PUSH2 0x373 SWAP1 PUSH1 0x1 PUSH1 0x1 PUSH1 0xA0 SHL SUB AND DUP2 JUMP JUMPDEST PUSH1 0xC9 SLOAD PUSH1 0xFF AND PUSH2 0x337 JUMP JUMPDEST PUSH2 0x3AE PUSH32 0xB1DD0BED30D3B8AB9FC76313ECB7DB14F6B497D5F1F7859FA5CB5811C1CA3073 DUP2 JUMP JUMPDEST PUSH2 0x337 PUSH2 0x48C CALLDATASIZE PUSH1 0x4 PUSH2 0x3FED JUMP JUMPDEST PUSH2 0x16D PUSH1 0x20 SWAP1 DUP2 MSTORE PUSH1 0x0 SWAP3 DUP4 MSTORE PUSH1 0x40 DUP1 DUP5 KECCAK256 SWAP1 SWAP2 MSTORE SWAP1 DUP3 MSTORE SWAP1 KECCAK256 SLOAD PUSH1 0xFF AND DUP2 JUMP JUMPDEST PUSH2 0x322 PUSH2 0x4BB CALLDATASIZE PUSH1 0x4 PUSH2 0x3E39 JUMP JUMPDEST PUSH2 0x1160 JUMP JUMPDEST PUSH2 0x164 SLOAD PUSH2 0x373 SWAP1 PUSH1 0x1 PUSH1 0x1 PUSH1 0xA0 SHL SUB AND DUP2 JUMP JUMPDEST PUSH2 0x322 PUSH2 0x4E2 CALLDATASIZE PUSH1 0x4 PUSH2 0x3E98 JUMP JUMPDEST PUSH2 0x1245 JUMP JUMPDEST PUSH2 0x3AE PUSH2 0x166 SLOAD DUP2 JUMP JUMPDEST PUSH2 0x3AE PUSH2 0x165 SLOAD DUP2 JUMP JUMPDEST PUSH2 0x3AE PUSH8 0x6F05B59D3B20000 DUP2 JUMP JUMPDEST PUSH2 0x322 PUSH2 0x518 CALLDATASIZE PUSH1 0x4 PUSH2 0x3E98 JUMP JUMPDEST PUSH2 0x13A9 JUMP JUMPDEST PUSH2 0x322 PUSH2 0x1569 JUMP JUMPDEST PUSH2 0x322 PUSH2 0x533 CALLDATASIZE PUSH1 0x4 PUSH2 0x4019 JUMP JUMPDEST PUSH2 0x159B JUMP JUMPDEST PUSH2 0x540 PUSH2 0x196C JUMP JUMPDEST PUSH1 0x40 MLOAD PUSH2 0x343 SWAP8 SWAP7 SWAP6 SWAP5 SWAP4 SWAP3 SWAP2 SWAP1 PUSH2 0x4177 JUMP JUMPDEST PUSH2 0x322 PUSH2 0x561 CALLDATASIZE PUSH1 0x4 PUSH2 0x3E98 JUMP JUMPDEST PUSH2 0x1A2E JUMP JUMPDEST PUSH2 0x373 PUSH2 0x574 CALLDATASIZE PUSH1 0x4 PUSH2 0x4201 JUMP JUMPDEST PUSH2 0x1C7B JUMP JUMPDEST PUSH2 0x337 PUSH2 0x587 CALLDATASIZE PUSH1 0x4 PUSH2 0x3EB1 JUMP JUMPDEST PUSH1 0x0 SWAP2 DUP3 MSTORE PUSH1 0x65 PUSH1 0x20 SWAP1 DUP2 MSTORE PUSH1 0x40 DUP1 DUP5 KECCAK256 PUSH1 0x1 PUSH1 0x1 PUSH1 0xA0 SHL SUB SWAP4 SWAP1 SWAP4 AND DUP5 MSTORE SWAP2 SWAP1 MSTORE SWAP1 KECCAK256 SLOAD PUSH1 0xFF AND SWAP1 JUMP JUMPDEST PUSH2 0x322 PUSH2 0x5C0 CALLDATASIZE PUSH1 0x4 PUSH2 0x3E98 JUMP JUMPDEST PUSH2 0x1C9A JUMP JUMPDEST PUSH2 0x5D8 PUSH2 0x5D3 CALLDATASIZE PUSH1 0x4 PUSH2 0x3E98 JUMP JUMPDEST PUSH2 0x1CCD JUMP JUMPDEST PUSH1 0x40 MLOAD PUSH2 0x343 SWAP9 SWAP8 SWAP7 SWAP6 SWAP5 SWAP4 SWAP3 SWAP2 SWAP1 PUSH2 0x4239 JUMP JUMPDEST PUSH2 0x3AE PUSH32 0x61C92169EF077349011FF0B1383C894D86C5F0B41D986366B58A6CF31E93BEDA DUP2 JUMP JUMPDEST PUSH2 0x3AE PUSH1 0x0 DUP2 JUMP JUMPDEST PUSH2 0x322 PUSH2 0x629 CALLDATASIZE PUSH1 0x4 PUSH2 0x42A3 JUMP JUMPDEST PUSH2 0x1D34 JUMP JUMPDEST PUSH2 0x3AE PUSH2 0x169 SLOAD DUP2 JUMP JUMPDEST PUSH2 0x322 PUSH2 0x646 CALLDATASIZE PUSH1 0x4 PUSH2 0x3E98 JUMP JUMPDEST PUSH2 0x1F49 JUMP JUMPDEST PUSH2 0x3AE PUSH2 0x16B SLOAD DUP2 JUMP JUMPDEST PUSH2 0x322 PUSH2 0x663 CALLDATASIZE PUSH1 0x4 PUSH2 0x3E98 JUMP JUMPDEST PUSH2 0x21AB JUMP JUMPDEST PUSH2 0x3AE PUSH2 0x676 CALLDATASIZE PUSH1 0x4 PUSH2 0x3E98 JUMP JUMPDEST PUSH2 0x220B JUMP JUMPDEST PUSH2 0x322 PUSH2 0x689 CALLDATASIZE PUSH1 0x4 PUSH2 0x3E98 JUMP JUMPDEST PUSH2 0x2222 JUMP JUMPDEST PUSH2 0x322 PUSH2 0x69C CALLDATASIZE PUSH1 0x4 PUSH2 0x3EB1 JUMP JUMPDEST PUSH2 0x2436 JUMP JUMPDEST PUSH2 0x3AE PUSH2 0x6AF CALLDATASIZE PUSH1 0x4 PUSH2 0x3E39 JUMP JUMPDEST PUSH2 0x16C PUSH1 0x20 MSTORE PUSH1 0x0 SWAP1 DUP2 MSTORE PUSH1 0x40 SWAP1 KECCAK256 SLOAD DUP2 JUMP JUMPDEST PUSH2 0x3AE PUSH32 0x65D7A28E3265B37A6474929F336521B332C1681B933F6CB9F3376673440D862A DUP2 JUMP JUMPDEST PUSH2 0x3AE PUSH2 0x168 SLOAD DUP2 JUMP JUMPDEST PUSH2 0x3AE PUSH2 0x167 SLOAD DUP2 JUMP JUMPDEST PUSH2 0x322 PUSH2 0x70B CALLDATASIZE PUSH1 0x4 PUSH2 0x3FED JUMP JUMPDEST PUSH2 0x245B JUMP JUMPDEST PUSH2 0x3AE PUSH32 0x427DA25FE773164F88948D3E215C94B6554E2ED5E5F203A821C9F2F6131CF75A DUP2 JUMP JUMPDEST PUSH32 0x61C92169EF077349011FF0B1383C894D86C5F0B41D986366B58A6CF31E93BEDA PUSH2 0x761 DUP2 PUSH2 0x26AB JUMP JUMPDEST PUSH1 0x1 PUSH1 0x1 PUSH1 0xA0 SHL SUB DUP3 AND PUSH2 0x7C8 JUMPI PUSH1 0x40 MLOAD PUSH3 0x461BCD PUSH1 0xE5 SHL DUP2 MSTORE PUSH1 0x20 PUSH1 0x4 DUP3 ADD MSTORE PUSH1 0x23 PUSH1 0x24 DUP3 ADD MSTORE PUSH32 0x53796D6D696F536F6C7665724465706F7369746F723A205A65726F2061646472 PUSH1 0x44 DUP3 ADD MSTORE PUSH3 0x657373 PUSH1 0xE8 SHL PUSH1 0x64 DUP3 ADD MSTORE PUSH1 0x84 ADD JUMPDEST PUSH1 0x40 MLOAD DUP1 SWAP2 SUB SWAP1 REVERT JUMPDEST PUSH2 0x161 DUP1 SLOAD PUSH20 0xFFFFFFFFFFFFFFFFFFFFFFFFFFFFFFFFFFFFFFFF NOT AND PUSH1 0x1 PUSH1 0x1 PUSH1 0xA0 SHL SUB DUP5 DUP2 AND SWAP2 SWAP1 SWAP2 OR SWAP1 SWAP2 SSTORE PUSH2 0x164 SLOAD AND PUSH2 0x803 PUSH2 0x26B5 JUMP JUMPDEST PUSH2 0x164 SLOAD PUSH1 0x1 PUSH1 0x1 PUSH1 0xA0 SHL SUB DUP3 DUP2 AND SWAP2 AND EQ DUP1 PUSH2 0x827 JUMPI POP PUSH1 0x1 PUSH1 0x1 PUSH1 0xA0 SHL SUB DUP2 AND ISZERO JUMPDEST PUSH2 0x899 JUMPI PUSH1 0x40 MLOAD PUSH3 0x461BCD PUSH1 0xE5 SHL DUP2 MSTORE PUSH1 0x20 PUSH1 0x4 DUP3 ADD MSTORE PUSH1 0x34 PUSH1 0x24 DUP3 ADD MSTORE PUSH32 0x53796D6D696F536F6C7665724465706F7369746F723A20436F6C6C6174657261 PUSH1 0x44 DUP3 ADD MSTORE PUSH32 0x6C2063616E206E6F74206265206368616E676564000000000000000000000000 PUSH1 0x64 DUP3 ADD MSTORE PUSH1 0x84 ADD PUSH2 0x7BF JUMP JUMPDEST PUSH1 0x40 MLOAD PUSH1 0x1 PUSH1 0x1 PUSH1 0xA0 SHL SUB DUP5 AND SWAP1 PUSH32 0xE5AF12E9ABB914276D8E0A5A01AA97D26F4C81E3002646F90824C20639531044 SWAP1 PUSH1 0x0 SWAP1 LOG2 POP POP POP JUMP JUMPDEST PUSH1 0x0 PUSH32 0xFFFFFFFF00000000000000000000000000000000000000000000000000000000 DUP3 AND PUSH32 0x5A05180F00000000000000000000000000000000000000000000000000000000 EQ DUP1 PUSH2 0x928 JUMPI POP PUSH2 0x928 DUP3 PUSH2 0x2879 JUMP JUMPDEST SWAP3 SWAP2 POP POP JUMP JUMPDEST PUSH32 0x61C92169EF077349011FF0B1383C894D86C5F0B41D986366B58A6CF31E93BEDA PUSH2 0x958 DUP2 PUSH2 0x26AB JUMP JUMPDEST PUSH1 0x1 PUSH1 0x1 PUSH1 0xA0 SHL SUB DUP3 AND PUSH2 0x9BA JUMPI PUSH1 0x40 MLOAD PUSH3 0x461BCD PUSH1 0xE5 SHL DUP2 MSTORE PUSH1 0x20 PUSH1 0x4 DUP3 ADD MSTORE PUSH1 0x23 PUSH1 0x24 DUP3 ADD MSTORE PUSH32 0x53796D6D696F536F6C7665724465706F7369746F723A205A65726F2061646472 PUSH1 0x44 DUP3 ADD MSTORE PUSH3 0x657373 PUSH1 0xE8 SHL PUSH1 0x64 DUP3 ADD MSTORE PUSH1 0x84 ADD PUSH2 0x7BF JUMP JUMPDEST PUSH2 0x162 DUP1 SLOAD PUSH20 0xFFFFFFFFFFFFFFFFFFFFFFFFFFFFFFFFFFFFFFFF NOT AND PUSH1 0x1 PUSH1 0x1 PUSH1 0xA0 SHL SUB DUP5 AND SWAP1 DUP2 OR SWAP1 SWAP2 SSTORE PUSH1 0x40 MLOAD PUSH32 0x73C48E8C0360F51D3049FAA15518D29248FBAD9E77AD28AD94BCD1712854CA9B SWAP1 PUSH1 0x0 SWAP1 LOG2 POP POP JUMP JUMPDEST PUSH1 0x0 DUP3 DUP2 MSTORE PUSH1 0x65 PUSH1 0x20 MSTORE PUSH1 0x40 SWAP1 KECCAK256 PUSH1 0x1 ADD SLOAD PUSH2 0xA2E DUP2 PUSH2 0x26AB JUMP JUMPDEST PUSH2 0xA38 DUP4 DUP4 PUSH2 0x2910 JUMP JUMPDEST POP POP POP JUMP JUMPDEST PUSH1 0x1 PUSH1 0x1 PUSH1 0xA0 SHL SUB DUP2 AND CALLER EQ PUSH2 0xABB JUMPI PUSH1 0x40 MLOAD PUSH3 0x461BCD PUSH1 0xE5 SHL DUP2 MSTORE PUSH1 0x20 PUSH1 0x4 DUP3 ADD MSTORE PUSH1 0x2F PUSH1 0x24 DUP3 ADD MSTORE PUSH32 0x416363657373436F6E74726F6C3A2063616E206F6E6C792072656E6F756E6365 PUSH1 0x44 DUP3 ADD MSTORE PUSH32 0x20726F6C657320666F722073656C660000000000000000000000000000000000 PUSH1 0x64 DUP3 ADD MSTORE PUSH1 0x84 ADD PUSH2 0x7BF JUMP JUMPDEST PUSH2 0xAC5 DUP3 DUP3 PUSH2 0x2932 JUMP JUMPDEST POP POP JUMP JUMPDEST PUSH32 0x372387BD01807B923229B5BD1E46F8A6B8815B5D5DB581DB3E993C5168467B27 PUSH2 0xAF3 DUP2 PUSH2 0x26AB JUMP JUMPDEST PUSH2 0xAFB PUSH2 0x2954 JUMP JUMPDEST PUSH2 0xB14 CALLER PUSH2 0x164 SLOAD PUSH1 0x1 PUSH1 0x1 PUSH1 0xA0 SHL SUB AND SWAP1 ADDRESS DUP8 PUSH2 0x29A7 JUMP JUMPDEST PUSH2 0x166 SLOAD DUP3 LT ISZERO PUSH2 0xB8D JUMPI PUSH1 0x40 MLOAD PUSH3 0x461BCD PUSH1 0xE5 SHL DUP2 MSTORE PUSH1 0x20 PUSH1 0x4 DUP3 ADD MSTORE PUSH1 0x2F PUSH1 0x24 DUP3 ADD MSTORE PUSH32 0x53796D6D696F536F6C7665724465706F7369746F723A205061796261636B2072 PUSH1 0x44 DUP3 ADD MSTORE PUSH32 0x6174696F20697320746F6F206C6F770000000000000000000000000000000000 PUSH1 0x64 DUP3 ADD MSTORE PUSH1 0x84 ADD PUSH2 0x7BF JUMP JUMPDEST PUSH8 0xDE0B6B3A7640000 DUP3 GT ISZERO PUSH2 0xC0B JUMPI PUSH1 0x40 MLOAD PUSH3 0x461BCD PUSH1 0xE5 SHL DUP2 MSTORE PUSH1 0x20 PUSH1 0x4 DUP3 ADD MSTORE PUSH1 0x30 PUSH1 0x24 DUP3 ADD MSTORE PUSH32 0x53796D6D696F536F6C7665724465706F7369746F723A205061796261636B2072 PUSH1 0x44 DUP3 ADD MSTORE PUSH32 0x6174696F20697320746F6F206869676800000000000000000000000000000000 PUSH1 0x64 DUP3 ADD MSTORE PUSH1 0x84 ADD PUSH2 0x7BF JUMP JUMPDEST PUSH2 0x165 SLOAD PUSH1 0x0 JUMPDEST DUP5 MLOAD DUP2 LT ISZERO PUSH2 0xFE7 JUMPI PUSH1 0x0 DUP6 DUP3 DUP2 MLOAD DUP2 LT PUSH2 0xC2F JUMPI PUSH2 0xC2F PUSH2 0x42FE JUMP JUMPDEST PUSH1 0x20 MUL PUSH1 0x20 ADD ADD MLOAD SWAP1 POP PUSH2 0x16A DUP1 SLOAD SWAP1 POP DUP2 LT PUSH2 0xCA0 JUMPI PUSH1 0x40 MLOAD PUSH3 0x461BCD PUSH1 0xE5 SHL DUP2 MSTORE PUSH1 0x20 PUSH1 0x4 DUP3 ADD MSTORE PUSH1 0x29 PUSH1 0x24 DUP3 ADD MSTORE PUSH32 0x53796D6D696F536F6C7665724465706F7369746F723A20496E76616C69642072 PUSH1 0x44 DUP3 ADD MSTORE PUSH9 0x195C5D595CDD081251 PUSH1 0xBA SHL PUSH1 0x64 DUP3 ADD MSTORE PUSH1 0x84 ADD PUSH2 0x7BF JUMP JUMPDEST PUSH1 0x0 PUSH2 0x16A DUP3 DUP2 SLOAD DUP2 LT PUSH2 0xCB6 JUMPI PUSH2 0xCB6 PUSH2 0x42FE JUMP JUMPDEST PUSH1 0x0 SWAP2 DUP3 MSTORE PUSH1 0x20 SWAP1 SWAP2 KECCAK256 PUSH1 0x4 PUSH1 0x8 SWAP1 SWAP3 MUL ADD DUP2 ADD SLOAD PUSH1 0xFF AND SWAP1 DUP2 GT ISZERO PUSH2 0xCDE JUMPI PUSH2 0xCDE PUSH2 0x4223 JUMP JUMPDEST EQ PUSH2 0xD51 JUMPI PUSH1 0x40 MLOAD PUSH3 0x461BCD PUSH1 0xE5 SHL DUP2 MSTORE PUSH1 0x20 PUSH1 0x4 DUP3 ADD MSTORE PUSH1 0x2F PUSH1 0x24 DUP3 ADD MSTORE PUSH32 0x53796D6D696F536F6C7665724465706F7369746F723A20496E76616C69642061 PUSH1 0x44 DUP3 ADD MSTORE PUSH32 0x6363657074656420726571756573740000000000000000000000000000000000 PUSH1 0x64 DUP3 ADD MSTORE PUSH1 0x84 ADD PUSH2 0x7BF JUMP JUMPDEST PUSH1 0x0 PUSH8 0xDE0B6B3A7640000 DUP7 PUSH2 0x16A DUP5 DUP2 SLOAD DUP2 LT PUSH2 0xD71 JUMPI PUSH2 0xD71 PUSH2 0x42FE JUMP JUMPDEST SWAP1 PUSH1 0x0 MSTORE PUSH1 0x20 PUSH1 0x0 KECCAK256 SWAP1 PUSH1 0x8 MUL ADD PUSH1 0x2 ADD SLOAD PUSH2 0xD8D SWAP2 SWAP1 PUSH2 0x432A JUMP JUMPDEST PUSH2 0xD97 SWAP2 SWAP1 PUSH2 0x4341 JUMP JUMPDEST SWAP1 POP PUSH2 0x16A DUP3 DUP2 SLOAD DUP2 LT PUSH2 0xDAD JUMPI PUSH2 0xDAD PUSH2 0x42FE JUMP JUMPDEST SWAP1 PUSH1 0x0 MSTORE PUSH1 0x20 PUSH1 0x0 KECCAK256 SWAP1 PUSH1 0x8 MUL ADD PUSH1 0x3 ADD SLOAD DUP2 LT ISZERO PUSH2 0xE36 JUMPI PUSH1 0x40 DUP1 MLOAD PUSH3 0x461BCD PUSH1 0xE5 SHL DUP2 MSTORE PUSH1 0x20 PUSH1 0x4 DUP3 ADD MSTORE PUSH1 0x24 DUP2 ADD SWAP2 SWAP1 SWAP2 MSTORE PUSH32 0x53796D6D696F536F6C7665724465706F7369746F723A205061796261636B2072 PUSH1 0x44 DUP3 ADD MSTORE PUSH32 0x6174696F20697320746F6F206C6F7720666F7220746869732072657175657374 PUSH1 0x64 DUP3 ADD MSTORE PUSH1 0x84 ADD PUSH2 0x7BF JUMP JUMPDEST PUSH2 0xE40 DUP2 DUP6 PUSH2 0x4363 JUMP JUMPDEST SWAP4 POP PUSH2 0x16A DUP3 DUP2 SLOAD DUP2 LT PUSH2 0xE56 JUMPI PUSH2 0xE56 PUSH2 0x42FE JUMP JUMPDEST SWAP1 PUSH1 0x0 MSTORE PUSH1 0x20 PUSH1 0x0 KECCAK256 SWAP1 PUSH1 0x8 MUL ADD PUSH1 0x2 ADD SLOAD PUSH2 0x168 PUSH1 0x0 DUP3 DUP3 SLOAD PUSH2 0xE7A SWAP2 SWAP1 PUSH2 0x4376 JUMP JUMPDEST SWAP3 POP POP DUP2 SWAP1 SSTORE POP PUSH1 0x1 PUSH2 0x16A DUP4 DUP2 SLOAD DUP2 LT PUSH2 0xE97 JUMPI PUSH2 0xE97 PUSH2 0x42FE JUMP JUMPDEST SWAP1 PUSH1 0x0 MSTORE PUSH1 0x20 PUSH1 0x0 KECCAK256 SWAP1 PUSH1 0x8 MUL ADD PUSH1 0x4 ADD PUSH1 0x0 PUSH2 0x100 EXP DUP2 SLOAD DUP2 PUSH1 0xFF MUL NOT AND SWAP1 DUP4 PUSH1 0x4 DUP2 GT ISZERO PUSH2 0xEC9 JUMPI PUSH2 0xEC9 PUSH2 0x4223 JUMP JUMPDEST MUL OR SWAP1 SSTORE POP DUP6 PUSH2 0x16A DUP4 DUP2 SLOAD DUP2 LT PUSH2 0xEE3 JUMPI PUSH2 0xEE3 PUSH2 0x42FE JUMP JUMPDEST SWAP1 PUSH1 0x0 MSTORE PUSH1 0x20 PUSH1 0x0 KECCAK256 SWAP1 PUSH1 0x8 MUL ADD PUSH1 0x5 ADD DUP2 SWAP1 SSTORE POP TIMESTAMP PUSH2 0x16A DUP4 DUP2 SLOAD DUP2 LT PUSH2 0xF0D JUMPI PUSH2 0xF0D PUSH2 0x42FE JUMP JUMPDEST PUSH1 0x0 SWAP2 DUP3 MSTORE PUSH1 0x20 SWAP1 SWAP2 KECCAK256 PUSH1 0x6 PUSH1 0x8 SWAP1 SWAP3 MUL ADD ADD SSTORE PUSH2 0x16B SLOAD PUSH2 0xF2F SWAP1 TIMESTAMP PUSH2 0x4363 JUMP JUMPDEST PUSH2 0x16A DUP4 DUP2 SLOAD DUP2 LT PUSH2 0xF43 JUMPI PUSH2 0xF43 PUSH2 0x42FE JUMP JUMPDEST SWAP1 PUSH1 0x0 MSTORE PUSH1 0x20 PUSH1 0x0 KECCAK256 SWAP1 PUSH1 0x8 MUL ADD PUSH1 0x7 ADD DUP2 SWAP1 SSTORE POP PUSH2 0x16A DUP3 DUP2 SLOAD DUP2 LT PUSH2 0xF6C JUMPI PUSH2 0xF6C PUSH2 0x42FE JUMP JUMPDEST SWAP1 PUSH1 0x0 MSTORE PUSH1 0x20 PUSH1 0x0 KECCAK256 SWAP1 PUSH1 0x8 MUL ADD PUSH1 0x2 ADD SLOAD PUSH2 0x16C PUSH1 0x0 PUSH2 0x16A DUP6 DUP2 SLOAD DUP2 LT PUSH2 0xF97 JUMPI PUSH2 0xF97 PUSH2 0x42FE JUMP JUMPDEST PUSH1 0x0 SWAP2 DUP3 MSTORE PUSH1 0x20 DUP1 DUP4 KECCAK256 PUSH1 0x1 PUSH1 0x8 SWAP1 SWAP4 MUL ADD SWAP2 SWAP1 SWAP2 ADD SLOAD PUSH1 0x1 PUSH1 0x1 PUSH1 0xA0 SHL SUB AND DUP4 MSTORE DUP3 ADD SWAP3 SWAP1 SWAP3 MSTORE PUSH1 0x40 ADD DUP2 KECCAK256 DUP1 SLOAD SWAP1 SWAP2 SWAP1 PUSH2 0xFD4 SWAP1 DUP5 SWAP1 PUSH2 0x4376 JUMP JUMPDEST SWAP1 SWAP2 SSTORE POP POP PUSH1 0x1 SWAP1 SWAP3 ADD SWAP2 POP PUSH2 0xC12 SWAP1 POP JUMP JUMPDEST POP PUSH2 0x164 SLOAD PUSH1 0x40 MLOAD PUSH32 0x70A0823100000000000000000000000000000000000000000000000000000000 DUP2 MSTORE ADDRESS PUSH1 0x4 DUP3 ADD MSTORE DUP3 SWAP2 PUSH1 0x1 PUSH1 0x1 PUSH1 0xA0 SHL SUB AND SWAP1 PUSH4 0x70A08231 SWAP1 PUSH1 0x24 ADD PUSH1 0x20 PUSH1 0x40 MLOAD DUP1 DUP4 SUB DUP2 DUP7 GAS STATICCALL ISZERO DUP1 ISZERO PUSH2 0x104A JUMPI RETURNDATASIZE PUSH1 0x0 DUP1 RETURNDATACOPY RETURNDATASIZE PUSH1 0x0 REVERT JUMPDEST POP POP POP POP PUSH1 0x40 MLOAD RETURNDATASIZE PUSH1 0x1F NOT PUSH1 0x1F DUP3 ADD AND DUP3 ADD DUP1 PUSH1 0x40 MSTORE POP DUP2 ADD SWAP1 PUSH2 0x106E SWAP2 SWAP1 PUSH2 0x4389 JUMP JUMPDEST LT ISZERO PUSH2 0x10E2 JUMPI PUSH1 0x40 MLOAD PUSH3 0x461BCD PUSH1 0xE5 SHL DUP2 MSTORE PUSH1 0x20 PUSH1 0x4 DUP3 ADD MSTORE PUSH1 0x34 PUSH1 0x24 DUP3 ADD MSTORE PUSH32 0x53796D6D696F536F6C7665724465706F7369746F723A20496E73756666696369 PUSH1 0x44 DUP3 ADD MSTORE PUSH32 0x656E7420636F6E74726163742062616C616E6365000000000000000000000000 PUSH1 0x64 DUP3 ADD MSTORE PUSH1 0x84 ADD PUSH2 0x7BF JUMP JUMPDEST PUSH2 0x165 DUP2 SWAP1 SSTORE PUSH1 0x40 MLOAD PUSH32 0x7E82005417F8FC53C7A47DC803BF0C0C5FB4ADFA711E011D4EDEAD5839B0D024 SWAP1 PUSH2 0x111C SWAP1 DUP8 SWAP1 DUP8 SWAP1 DUP8 SWAP1 PUSH2 0x43A2 JUMP JUMPDEST PUSH1 0x40 MLOAD DUP1 SWAP2 SUB SWAP1 LOG1 POP POP POP POP POP JUMP JUMPDEST PUSH32 0x427DA25FE773164F88948D3E215C94B6554E2ED5E5F203A821C9F2F6131CF75A PUSH2 0x1155 DUP2 PUSH2 0x26AB JUMP JUMPDEST PUSH2 0x115D PUSH2 0x2A5E JUMP JUMPDEST POP JUMP JUMPDEST PUSH32 0x61C92169EF077349011FF0B1383C894D86C5F0B41D986366B58A6CF31E93BEDA PUSH2 0x118A DUP2 PUSH2 0x26AB JUMP JUMPDEST PUSH1 0x1 PUSH1 0x1 PUSH1 0xA0 SHL SUB DUP3 AND PUSH2 0x11EC JUMPI PUSH1 0x40 MLOAD PUSH3 0x461BCD PUSH1 0xE5 SHL DUP2 MSTORE PUSH1 0x20 PUSH1 0x4 DUP3 ADD MSTORE PUSH1 0x23 PUSH1 0x24 DUP3 ADD MSTORE PUSH32 0x53796D6D696F536F6C7665724465706F7369746F723A205A65726F2061646472 PUSH1 0x44 DUP3 ADD MSTORE PUSH3 0x657373 PUSH1 0xE8 SHL PUSH1 0x64 DUP3 ADD MSTORE PUSH1 0x84 ADD PUSH2 0x7BF JUMP JUMPDEST PUSH2 0x163 DUP1 SLOAD PUSH20 0xFFFFFFFFFFFFFFFFFFFFFFFFFFFFFFFFFFFFFFFF NOT AND PUSH1 0x1 PUSH1 0x1 PUSH1 0xA0 SHL SUB DUP5 AND SWAP1 DUP2 OR SWAP1 SWAP2 SSTORE PUSH1 0x40 MLOAD PUSH32 0x93D2BD623FE74229D9510C70EC2DA10109749943DB6D68437555A01B1844BEAE SWAP1 PUSH1 0x0 SWAP1 LOG2 POP POP JUMP JUMPDEST PUSH32 0x61C92169EF077349011FF0B1383C894D86C5F0B41D986366B58A6CF31E93BEDA PUSH2 0x126F DUP2 PUSH2 0x26AB JUMP JUMPDEST PUSH8 0x6F05B59D3B20000 DUP3 LT ISZERO PUSH2 0x12ED JUMPI PUSH1 0x40 MLOAD PUSH3 0x461BCD PUSH1 0xE5 SHL DUP2 MSTORE PUSH1 0x20 PUSH1 0x4 DUP3 ADD MSTORE PUSH1 0x37 PUSH1 0x24 DUP3 ADD MSTORE PUSH32 0x53796D6D696F536F6C7665724465706F7369746F723A204D696E696D756D2062 PUSH1 0x44 DUP3 ADD MSTORE PUSH32 0x75796261636B20726174696F20697320746F6F206C6F77000000000000000000 PUSH1 0x64 DUP3 ADD MSTORE PUSH1 0x84 ADD PUSH2 0x7BF JUMP JUMPDEST PUSH8 0xDE0B6B3A7640000 DUP3 GT ISZERO PUSH2 0x136B JUMPI PUSH1 0x40 MLOAD PUSH3 0x461BCD PUSH1 0xE5 SHL DUP2 MSTORE PUSH1 0x20 PUSH1 0x4 DUP3 ADD MSTORE PUSH1 0x38 PUSH1 0x24 DUP3 ADD MSTORE PUSH32 0x53796D6D696F536F6C7665724465706F7369746F723A204D696E696D756D2062 PUSH1 0x44 DUP3 ADD MSTORE PUSH32 0x75796261636B20726174696F20697320746F6F20686967680000000000000000 PUSH1 0x64 DUP3 ADD MSTORE PUSH1 0x84 ADD PUSH2 0x7BF JUMP JUMPDEST PUSH2 0x166 DUP3 SWAP1 SSTORE PUSH1 0x40 MLOAD DUP3 DUP2 MSTORE PUSH32 0x2AE6DDF10933401B20295006A4F7ED3AF82A0AB05354F1FC7DB9BE3FC75F19D7 SWAP1 PUSH1 0x20 ADD JUMPDEST PUSH1 0x40 MLOAD DUP1 SWAP2 SUB SWAP1 LOG1 POP POP JUMP JUMPDEST PUSH32 0x372387BD01807B923229B5BD1E46F8A6B8815B5D5DB581DB3E993C5168467B27 PUSH2 0x13D3 DUP2 PUSH2 0x26AB JUMP JUMPDEST PUSH2 0x13DB PUSH2 0x2954 JUMP JUMPDEST PUSH2 0x16A SLOAD DUP3 LT PUSH2 0x143F JUMPI PUSH1 0x40 MLOAD PUSH3 0x461BCD PUSH1 0xE5 SHL DUP2 MSTORE PUSH1 0x20 PUSH1 0x4 DUP3 ADD MSTORE PUSH1 0x29 PUSH1 0x24 DUP3 ADD MSTORE PUSH32 0x53796D6D696F536F6C7665724465706F7369746F723A20496E76616C69642072 PUSH1 0x44 DUP3 ADD MSTORE PUSH9 0x195C5D595CDD081251 PUSH1 0xBA SHL PUSH1 0x64 DUP3 ADD MSTORE PUSH1 0x84 ADD PUSH2 0x7BF JUMP JUMPDEST PUSH1 0x0 PUSH2 0x16A DUP4 DUP2 SLOAD DUP2 LT PUSH2 0x1455 JUMPI PUSH2 0x1455 PUSH2 0x42FE JUMP JUMPDEST PUSH1 0x0 SWAP2 DUP3 MSTORE PUSH1 0x20 DUP3 KECCAK256 PUSH1 0x8 SWAP1 SWAP2 MUL ADD SWAP2 POP PUSH1 0x4 DUP1 DUP4 ADD SLOAD PUSH1 0xFF AND SWAP1 DUP2 GT ISZERO PUSH2 0x147F JUMPI PUSH2 0x147F PUSH2 0x4223 JUMP JUMPDEST EQ PUSH2 0x14F2 JUMPI PUSH1 0x40 MLOAD PUSH3 0x461BCD PUSH1 0xE5 SHL DUP2 MSTORE PUSH1 0x20 PUSH1 0x4 DUP3 ADD MSTORE PUSH1 0x25 PUSH1 0x24 DUP3 ADD MSTORE PUSH32 0x53796D6D696F536F6C7665724465706F7369746F723A20496E76616C69642073 PUSH1 0x44 DUP3 ADD MSTORE PUSH32 0x7461747573000000000000000000000000000000000000000000000000000000 PUSH1 0x64 DUP3 ADD MSTORE PUSH1 0x84 ADD PUSH2 0x7BF JUMP JUMPDEST PUSH1 0x4 DUP2 DUP2 ADD DUP1 SLOAD PUSH1 0xFF NOT AND SWAP1 SWAP2 OR SWAP1 SSTORE PUSH1 0x2 DUP2 ADD SLOAD PUSH1 0x1 DUP3 ADD SLOAD PUSH1 0x1 PUSH1 0x1 PUSH1 0xA0 SHL SUB AND PUSH1 0x0 SWAP1 DUP2 MSTORE PUSH2 0x16C PUSH1 0x20 MSTORE PUSH1 0x40 DUP2 KECCAK256 DUP1 SLOAD SWAP1 SWAP2 SWAP1 PUSH2 0x1534 SWAP1 DUP5 SWAP1 PUSH2 0x4376 JUMP JUMPDEST SWAP1 SWAP2 SSTORE POP POP PUSH1 0x40 MLOAD DUP4 SWAP1 PUSH32 0xF12D2A5D8B37BA59B2FA12DEDCA1D420EE1C5DA121EB1878497BC1D29076B5C0 SWAP1 PUSH1 0x0 SWAP1 LOG2 POP POP POP JUMP JUMPDEST PUSH32 0x65D7A28E3265B37A6474929F336521B332C1681B933F6CB9F3376673440D862A PUSH2 0x1593 DUP2 PUSH2 0x26AB JUMP JUMPDEST PUSH2 0x115D PUSH2 0x2AB0 JUMP JUMPDEST PUSH2 0x15A3 PUSH2 0x2954 JUMP JUMPDEST PUSH1 0x1 PUSH1 0x1 PUSH1 0xA0 SHL SUB DUP5 AND PUSH2 0x161F JUMPI PUSH1 0x40 MLOAD PUSH3 0x461BCD PUSH1 0xE5 SHL DUP2 MSTORE PUSH1 0x20 PUSH1 0x4 DUP3 ADD MSTORE PUSH1 0x30 PUSH1 0x24 DUP3 ADD MSTORE PUSH32 0x53796D6D696F536F6C7665724465706F7369746F723A205A65726F2061646472 PUSH1 0x44 DUP3 ADD MSTORE PUSH32 0x65737320666F7220726563656976657200000000000000000000000000000000 PUSH1 0x64 DUP3 ADD MSTORE PUSH1 0x84 ADD PUSH2 0x7BF JUMP JUMPDEST TIMESTAMP DUP3 GT PUSH2 0x1694 JUMPI PUSH1 0x40 MLOAD PUSH3 0x461BCD PUSH1 0xE5 SHL DUP2 MSTORE PUSH1 0x20 PUSH1 0x4 DUP3 ADD MSTORE PUSH1 0x35 PUSH1 0x24 DUP3 ADD MSTORE PUSH32 0x53796D6D696F536F6C7665724465706F7369746F723A20446561646C696E6520 PUSH1 0x44 DUP3 ADD MSTORE PUSH32 0x6D75737420626520696E20746865206675747572650000000000000000000000 PUSH1 0x64 DUP3 ADD MSTORE PUSH1 0x84 ADD PUSH2 0x7BF JUMP JUMPDEST PUSH1 0x1 PUSH1 0x1 PUSH1 0xA0 SHL SUB DUP5 AND PUSH1 0x0 SWAP1 DUP2 MSTORE PUSH2 0x16D PUSH1 0x20 SWAP1 DUP2 MSTORE PUSH1 0x40 DUP1 DUP4 KECCAK256 DUP7 DUP5 MSTORE SWAP1 SWAP2 MSTORE SWAP1 KECCAK256 SLOAD PUSH1 0xFF AND ISZERO PUSH2 0x172F JUMPI PUSH1 0x40 MLOAD PUSH3 0x461BCD PUSH1 0xE5 SHL DUP2 MSTORE PUSH1 0x20 PUSH1 0x4 DUP3 ADD MSTORE PUSH1 0x29 PUSH1 0x24 DUP3 ADD MSTORE PUSH32 0x53796D6D696F536F6C7665724465706F7369746F723A204E6F6E636520616C72 PUSH1 0x44 DUP3 ADD MSTORE PUSH32 0x6561647920757365640000000000000000000000000000000000000000000000 PUSH1 0x64 DUP3 ADD MSTORE PUSH1 0x84 ADD PUSH2 0x7BF JUMP JUMPDEST PUSH2 0x173D DUP7 DUP7 DUP7 DUP7 DUP7 DUP7 PUSH2 0x2AED JUMP JUMPDEST PUSH2 0x17AF JUMPI PUSH1 0x40 MLOAD PUSH3 0x461BCD PUSH1 0xE5 SHL DUP2 MSTORE PUSH1 0x20 PUSH1 0x4 DUP3 ADD MSTORE PUSH1 0x28 PUSH1 0x24 DUP3 ADD MSTORE PUSH32 0x53796D6D696F536F6C7665724465706F7369746F723A20496E76616C69642073 PUSH1 0x44 DUP3 ADD MSTORE PUSH32 0x69676E6174757265000000000000000000000000000000000000000000000000 PUSH1 0x64 DUP3 ADD MSTORE PUSH1 0x84 ADD PUSH2 0x7BF JUMP JUMPDEST PUSH1 0x1 PUSH1 0x1 PUSH1 0xA0 SHL SUB DUP5 AND PUSH1 0x0 DUP2 DUP2 MSTORE PUSH2 0x16D PUSH1 0x20 SWAP1 DUP2 MSTORE PUSH1 0x40 DUP1 DUP4 KECCAK256 DUP8 DUP5 MSTORE DUP3 MSTORE SWAP2 DUP3 SWAP1 KECCAK256 DUP1 SLOAD PUSH1 0xFF NOT AND PUSH1 0x1 OR SWAP1 SSTORE DUP2 MLOAD PUSH2 0x100 DUP2 ADD SWAP1 SWAP3 MSTORE SWAP2 DUP2 MSTORE PUSH2 0x16A SWAP2 DUP2 ADD PUSH2 0x17F9 CALLER SWAP1 JUMP JUMPDEST PUSH1 0x1 PUSH1 0x1 PUSH1 0xA0 SHL SUB AND DUP2 MSTORE PUSH1 0x20 DUP2 ADD DUP10 SWAP1 MSTORE PUSH1 0x40 DUP2 ADD DUP9 SWAP1 MSTORE PUSH1 0x60 ADD PUSH1 0x0 DUP2 MSTORE PUSH1 0x0 PUSH1 0x20 DUP1 DUP4 ADD DUP3 SWAP1 MSTORE PUSH1 0x40 DUP1 DUP5 ADD DUP4 SWAP1 MSTORE PUSH1 0x60 SWAP4 DUP5 ADD DUP4 SWAP1 MSTORE DUP6 SLOAD PUSH1 0x1 DUP1 DUP3 ADD DUP9 SSTORE SWAP7 DUP5 MSTORE SWAP3 DUP3 SWAP1 KECCAK256 DUP6 MLOAD PUSH1 0x8 SWAP1 SWAP5 MUL ADD DUP1 SLOAD PUSH20 0xFFFFFFFFFFFFFFFFFFFFFFFFFFFFFFFFFFFFFFFF NOT SWAP1 DUP2 AND PUSH1 0x1 PUSH1 0x1 PUSH1 0xA0 SHL SUB SWAP6 DUP7 AND OR DUP3 SSTORE SWAP3 DUP7 ADD MLOAD DUP2 DUP9 ADD DUP1 SLOAD SWAP1 SWAP5 AND SWAP5 AND SWAP4 SWAP1 SWAP4 OR SWAP1 SWAP2 SSTORE DUP4 ADD MLOAD PUSH1 0x2 DUP3 ADD SSTORE SWAP1 DUP3 ADD MLOAD PUSH1 0x3 DUP3 ADD SSTORE PUSH1 0x80 DUP3 ADD MLOAD PUSH1 0x4 DUP1 DUP4 ADD DUP1 SLOAD SWAP5 SWAP6 SWAP4 SWAP5 SWAP3 SWAP4 SWAP1 SWAP3 PUSH1 0xFF NOT AND SWAP2 DUP5 SWAP1 DUP2 GT ISZERO PUSH2 0x18C4 JUMPI PUSH2 0x18C4 PUSH2 0x4223 JUMP JUMPDEST MUL OR SWAP1 SSTORE POP PUSH1 0xA0 DUP3 ADD MLOAD PUSH1 0x5 DUP3 ADD SSTORE PUSH1 0xC0 DUP3 ADD MLOAD PUSH1 0x6 DUP3 ADD SSTORE PUSH1 0xE0 SWAP1 SWAP2 ADD MLOAD PUSH1 0x7 SWAP1 SWAP2 ADD SSTORE CALLER PUSH1 0x0 SWAP1 DUP2 MSTORE PUSH2 0x16C PUSH1 0x20 MSTORE PUSH1 0x40 DUP2 KECCAK256 DUP1 SLOAD DUP9 SWAP3 SWAP1 PUSH2 0x1909 SWAP1 DUP5 SWAP1 PUSH2 0x4363 JUMP JUMPDEST SWAP1 SWAP2 SSTORE POP POP PUSH2 0x16A SLOAD PUSH1 0x1 PUSH1 0x1 PUSH1 0xA0 SHL SUB DUP6 AND SWAP1 CALLER SWAP1 PUSH2 0x192B SWAP1 PUSH1 0x1 SWAP1 PUSH2 0x4376 JUMP JUMPDEST PUSH1 0x40 DUP1 MLOAD DUP11 DUP2 MSTORE PUSH1 0x20 DUP2 ADD DUP9 SWAP1 MSTORE PUSH32 0x766E8C55DDE32095D8C203180E4F32C7407C445E0A87007877162126D257B25 SWAP2 ADD PUSH1 0x40 MLOAD DUP1 SWAP2 SUB SWAP1 LOG4 POP POP POP POP POP POP JUMP JUMPDEST PUSH1 0x0 PUSH1 0x60 DUP1 PUSH1 0x0 DUP1 PUSH1 0x0 PUSH1 0x60 PUSH1 0xFB SLOAD PUSH1 0x0 DUP1 SHL EQ DUP1 ISZERO PUSH2 0x198C JUMPI POP PUSH1 0xFC SLOAD ISZERO JUMPDEST PUSH2 0x19D8 JUMPI PUSH1 0x40 MLOAD PUSH3 0x461BCD PUSH1 0xE5 SHL DUP2 MSTORE PUSH1 0x20 PUSH1 0x4 DUP3 ADD MSTORE PUSH1 0x15 PUSH1 0x24 DUP3 ADD MSTORE PUSH32 0x4549503731323A20556E696E697469616C697A65640000000000000000000000 PUSH1 0x44 DUP3 ADD MSTORE PUSH1 0x64 ADD PUSH2 0x7BF JUMP JUMPDEST PUSH2 0x19E0 PUSH2 0x2B95 JUMP JUMPDEST PUSH2 0x19E8 PUSH2 0x2C27 JUMP JUMPDEST PUSH1 0x40 DUP1 MLOAD PUSH1 0x0 DUP1 DUP3 MSTORE PUSH1 0x20 DUP3 ADD SWAP1 SWAP3 MSTORE PUSH32 0xF00000000000000000000000000000000000000000000000000000000000000 SWAP12 SWAP4 SWAP11 POP SWAP2 SWAP9 POP CHAINID SWAP8 POP ADDRESS SWAP7 POP SWAP5 POP SWAP3 POP SWAP1 POP JUMP JUMPDEST PUSH2 0x1A36 PUSH2 0x2954 JUMP JUMPDEST PUSH2 0x16A SLOAD DUP2 LT PUSH2 0x1A9A JUMPI PUSH1 0x40 MLOAD PUSH3 0x461BCD PUSH1 0xE5 SHL DUP2 MSTORE PUSH1 0x20 PUSH1 0x4 DUP3 ADD MSTORE PUSH1 0x29 PUSH1 0x24 DUP3 ADD MSTORE PUSH32 0x53796D6D696F536F6C7665724465706F7369746F723A20496E76616C69642072 PUSH1 0x44 DUP3 ADD MSTORE PUSH9 0x195C5D595CDD081251 PUSH1 0xBA SHL PUSH1 0x64 DUP3 ADD MSTORE PUSH1 0x84 ADD PUSH2 0x7BF JUMP JUMPDEST PUSH1 0x0 PUSH2 0x16A DUP3 DUP2 SLOAD DUP2 LT PUSH2 0x1AB0 JUMPI PUSH2 0x1AB0 PUSH2 0x42FE JUMP JUMPDEST PUSH1 0x0 SWAP2 DUP3 MSTORE PUSH1 0x20 SWAP1 SWAP2 KECCAK256 PUSH1 0x8 SWAP1 SWAP2 MUL ADD SWAP1 POP PUSH1 0x1 PUSH1 0x4 DUP1 DUP4 ADD SLOAD PUSH1 0xFF AND SWAP1 DUP2 GT ISZERO PUSH2 0x1ADD JUMPI PUSH2 0x1ADD PUSH2 0x4223 JUMP JUMPDEST EQ PUSH2 0x1B50 JUMPI PUSH1 0x40 MLOAD PUSH3 0x461BCD PUSH1 0xE5 SHL DUP2 MSTORE PUSH1 0x20 PUSH1 0x4 DUP3 ADD MSTORE PUSH1 0x37 PUSH1 0x24 DUP3 ADD MSTORE PUSH32 0x53796D6D696F536F6C7665724465706F7369746F723A2052657175657374206E PUSH1 0x44 DUP3 ADD MSTORE PUSH32 0x6F7420726561647920666F72207769746864726177616C000000000000000000 PUSH1 0x64 DUP3 ADD MSTORE PUSH1 0x84 ADD PUSH2 0x7BF JUMP JUMPDEST TIMESTAMP DUP2 PUSH1 0x7 ADD SLOAD GT ISZERO PUSH2 0x1BCA JUMPI PUSH1 0x40 MLOAD PUSH3 0x461BCD PUSH1 0xE5 SHL DUP2 MSTORE PUSH1 0x20 PUSH1 0x4 DUP3 ADD MSTORE PUSH1 0x39 PUSH1 0x24 DUP3 ADD MSTORE PUSH32 0x53796D6D696F536F6C7665724465706F7369746F723A2052657175657374206E PUSH1 0x44 DUP3 ADD MSTORE PUSH32 0x6F742070617373207769746864726177616C20706572696F6400000000000000 PUSH1 0x64 DUP3 ADD MSTORE PUSH1 0x84 ADD PUSH2 0x7BF JUMP JUMPDEST PUSH1 0x4 DUP2 ADD DUP1 SLOAD PUSH1 0xFF NOT AND PUSH1 0x2 SWAP1 DUP2 OR SWAP1 SWAP2 SSTORE PUSH1 0x5 DUP3 ADD SLOAD SWAP1 DUP3 ADD SLOAD PUSH1 0x0 SWAP2 PUSH8 0xDE0B6B3A7640000 SWAP2 PUSH2 0x1BFC SWAP2 SWAP1 PUSH2 0x432A JUMP JUMPDEST PUSH2 0x1C06 SWAP2 SWAP1 PUSH2 0x4341 JUMP JUMPDEST SWAP1 POP DUP1 PUSH2 0x165 PUSH1 0x0 DUP3 DUP3 SLOAD PUSH2 0x1C1B SWAP2 SWAP1 PUSH2 0x4376 JUMP JUMPDEST SWAP1 SWAP2 SSTORE POP POP DUP2 SLOAD PUSH2 0x164 SLOAD PUSH2 0x1C3D SWAP2 PUSH1 0x1 PUSH1 0x1 PUSH1 0xA0 SHL SUB SWAP2 DUP3 AND SWAP2 AND DUP4 PUSH2 0x2C36 JUMP JUMPDEST DUP2 SLOAD PUSH1 0x40 MLOAD PUSH1 0x1 PUSH1 0x1 PUSH1 0xA0 SHL SUB SWAP1 SWAP2 AND SWAP1 DUP5 SWAP1 PUSH32 0x4CE122B005E10B197F4CAF028D92E008A684C370AD8F93528E07DED8214240E1 SWAP1 PUSH1 0x0 SWAP1 LOG3 POP POP POP JUMP JUMPDEST PUSH1 0x0 DUP3 DUP2 MSTORE PUSH1 0x97 PUSH1 0x20 MSTORE PUSH1 0x40 DUP2 KECCAK256 PUSH2 0x1C93 SWAP1 DUP4 PUSH2 0x2C7F JUMP JUMPDEST SWAP4 SWAP3 POP POP POP JUMP JUMPDEST PUSH32 0x61C92169EF077349011FF0B1383C894D86C5F0B41D986366B58A6CF31E93BEDA PUSH2 0x1CC4 DUP2 PUSH2 0x26AB JUMP JUMPDEST PUSH2 0xAC5 DUP3 PUSH2 0x2C8B JUMP JUMPDEST PUSH2 0x16A DUP2 DUP2 SLOAD DUP2 LT PUSH2 0x1CDE JUMPI PUSH1 0x0 DUP1 REVERT JUMPDEST PUSH1 0x0 SWAP2 DUP3 MSTORE PUSH1 0x20 SWAP1 SWAP2 KECCAK256 PUSH1 0x8 SWAP1 SWAP2 MUL ADD DUP1 SLOAD PUSH1 0x1 DUP3 ADD SLOAD PUSH1 0x2 DUP4 ADD SLOAD PUSH1 0x3 DUP5 ADD SLOAD PUSH1 0x4 DUP6 ADD SLOAD PUSH1 0x5 DUP7 ADD SLOAD PUSH1 0x6 DUP8 ADD SLOAD PUSH1 0x7 SWAP1 SWAP8 ADD SLOAD PUSH1 0x1 PUSH1 0x1 PUSH1 0xA0 SHL SUB SWAP7 DUP8 AND SWAP9 POP SWAP5 SWAP1 SWAP6 AND SWAP6 SWAP3 SWAP5 SWAP2 SWAP4 PUSH1 0xFF SWAP1 SWAP2 AND SWAP3 SWAP1 DUP9 JUMP JUMPDEST PUSH1 0x0 SLOAD PUSH2 0x100 SWAP1 DIV PUSH1 0xFF AND ISZERO DUP1 DUP1 ISZERO PUSH2 0x1D54 JUMPI POP PUSH1 0x0 SLOAD PUSH1 0x1 PUSH1 0xFF SWAP1 SWAP2 AND LT JUMPDEST DUP1 PUSH2 0x1D6E JUMPI POP ADDRESS EXTCODESIZE ISZERO DUP1 ISZERO PUSH2 0x1D6E JUMPI POP PUSH1 0x0 SLOAD PUSH1 0xFF AND PUSH1 0x1 EQ JUMPDEST PUSH2 0x1DE0 JUMPI PUSH1 0x40 MLOAD PUSH3 0x461BCD PUSH1 0xE5 SHL DUP2 MSTORE PUSH1 0x20 PUSH1 0x4 DUP3 ADD MSTORE PUSH1 0x2E PUSH1 0x24 DUP3 ADD MSTORE PUSH32 0x496E697469616C697A61626C653A20636F6E747261637420697320616C726561 PUSH1 0x44 DUP3 ADD MSTORE PUSH32 0x647920696E697469616C697A6564000000000000000000000000000000000000 PUSH1 0x64 DUP3 ADD MSTORE PUSH1 0x84 ADD PUSH2 0x7BF JUMP JUMPDEST PUSH1 0x0 DUP1 SLOAD PUSH1 0xFF NOT AND PUSH1 0x1 OR SWAP1 SSTORE DUP1 ISZERO PUSH2 0x1E03 JUMPI PUSH1 0x0 DUP1 SLOAD PUSH2 0xFF00 NOT AND PUSH2 0x100 OR SWAP1 SSTORE JUMPDEST PUSH2 0x1E0B PUSH2 0x2CC7 JUMP JUMPDEST PUSH2 0x1E13 PUSH2 0x2D3A JUMP JUMPDEST PUSH2 0x1E1B PUSH2 0x2DA5 JUMP JUMPDEST PUSH2 0x1E8F PUSH1 0x40 MLOAD DUP1 PUSH1 0x40 ADD PUSH1 0x40 MSTORE DUP1 PUSH1 0x14 DUP2 MSTORE PUSH1 0x20 ADD PUSH32 0x4F6E436861696E53796D6D696F5661756C745632000000000000000000000000 DUP2 MSTORE POP PUSH1 0x40 MLOAD DUP1 PUSH1 0x40 ADD PUSH1 0x40 MSTORE DUP1 PUSH1 0x1 DUP2 MSTORE PUSH1 0x20 ADD PUSH32 0x3100000000000000000000000000000000000000000000000000000000000000 DUP2 MSTORE POP PUSH2 0x2E18 JUMP JUMPDEST PUSH2 0x1E9A PUSH1 0x0 CALLER PUSH2 0x2910 JUMP JUMPDEST PUSH2 0x1EC4 PUSH32 0x61C92169EF077349011FF0B1383C894D86C5F0B41D986366B58A6CF31E93BEDA CALLER PUSH2 0x2910 JUMP JUMPDEST PUSH2 0x1ECD DUP7 PUSH2 0x737 JUMP JUMPDEST PUSH2 0x1ED6 DUP6 PUSH2 0x92E JUMP JUMPDEST PUSH2 0x1EDF DUP3 PUSH2 0x21AB JUMP JUMPDEST PUSH2 0x1EE8 DUP5 PUSH2 0x1160 JUMP JUMPDEST PUSH2 0x1EF1 DUP4 PUSH2 0x1245 JUMP JUMPDEST PUSH2 0x1EFB PUSH1 0x64 PUSH2 0x2C8B JUMP JUMPDEST DUP1 ISZERO PUSH2 0x1F41 JUMPI PUSH1 0x0 DUP1 SLOAD PUSH2 0xFF00 NOT AND SWAP1 SSTORE PUSH1 0x40 MLOAD PUSH1 0x1 DUP2 MSTORE PUSH32 0x7F26B83FF96E1F2B6A682F133852F6798A09C465DA95921460CEFB3847402498 SWAP1 PUSH1 0x20 ADD PUSH1 0x40 MLOAD DUP1 SWAP2 SUB SWAP1 LOG1 JUMPDEST POP POP POP POP POP POP JUMP JUMPDEST PUSH2 0x1F51 PUSH2 0x2954 JUMP JUMPDEST PUSH2 0x1F59 PUSH2 0x2E8D JUMP JUMPDEST PUSH1 0x0 DUP2 GT PUSH2 0x1FCF JUMPI PUSH1 0x40 MLOAD PUSH3 0x461BCD PUSH1 0xE5 SHL DUP2 MSTORE PUSH1 0x20 PUSH1 0x4 DUP3 ADD MSTORE PUSH1 0x34 PUSH1 0x24 DUP3 ADD MSTORE PUSH32 0x53796D6D696F536F6C7665724465706F7369746F723A20416D6F756E74206D75 PUSH1 0x44 DUP3 ADD MSTORE PUSH32 0x73742062652067726561746572207468616E2030000000000000000000000000 PUSH1 0x64 DUP3 ADD MSTORE PUSH1 0x84 ADD PUSH2 0x7BF JUMP JUMPDEST PUSH2 0x167 SLOAD DUP2 PUSH2 0x168 SLOAD PUSH2 0x1FE2 SWAP2 SWAP1 PUSH2 0x4363 JUMP JUMPDEST GT ISZERO PUSH2 0x2056 JUMPI PUSH1 0x40 MLOAD PUSH3 0x461BCD PUSH1 0xE5 SHL DUP2 MSTORE PUSH1 0x20 PUSH1 0x4 DUP3 ADD MSTORE PUSH1 0x2C PUSH1 0x24 DUP3 ADD MSTORE PUSH32 0x53796D6D696F536F6C7665724465706F7369746F723A204465706F736974206C PUSH1 0x44 DUP3 ADD MSTORE PUSH32 0x696D697420726561636865640000000000000000000000000000000000000000 PUSH1 0x64 DUP3 ADD MSTORE PUSH1 0x84 ADD PUSH2 0x7BF JUMP JUMPDEST PUSH2 0x164 SLOAD PUSH1 0x1 PUSH1 0x1 PUSH1 0xA0 SHL SUB AND PUSH2 0x206F DUP2 CALLER ADDRESS DUP6 PUSH2 0x29A7 JUMP JUMPDEST DUP2 PUSH2 0x168 PUSH1 0x0 DUP3 DUP3 SLOAD PUSH2 0x2082 SWAP2 SWAP1 PUSH2 0x4363 JUMP JUMPDEST SWAP1 SWAP2 SSTORE POP POP PUSH1 0x40 MLOAD DUP3 DUP2 MSTORE CALLER SWAP1 PUSH32 0xE1FFFCC4923D04B559F4D29A8BFC6CDA04EB5B0D3C460751C2402C5C5CC9109C SWAP1 PUSH1 0x20 ADD PUSH1 0x40 MLOAD DUP1 SWAP2 SUB SWAP1 LOG2 PUSH2 0x161 SLOAD PUSH2 0x20D7 SWAP1 PUSH1 0x1 PUSH1 0x1 PUSH1 0xA0 SHL SUB DUP4 DUP2 AND SWAP2 AND DUP5 PUSH2 0x2EE8 JUMP JUMPDEST PUSH2 0x161 SLOAD PUSH2 0x162 SLOAD PUSH1 0x40 MLOAD PUSH32 0x2F4F21E200000000000000000000000000000000000000000000000000000000 DUP2 MSTORE PUSH1 0x1 PUSH1 0x1 PUSH1 0xA0 SHL SUB SWAP2 DUP3 AND PUSH1 0x4 DUP3 ADD MSTORE PUSH1 0x24 DUP2 ADD DUP6 SWAP1 MSTORE SWAP2 AND SWAP1 PUSH4 0x2F4F21E2 SWAP1 PUSH1 0x44 ADD PUSH1 0x0 PUSH1 0x40 MLOAD DUP1 DUP4 SUB DUP2 PUSH1 0x0 DUP8 DUP1 EXTCODESIZE ISZERO DUP1 ISZERO PUSH2 0x2142 JUMPI PUSH1 0x0 DUP1 REVERT JUMPDEST POP GAS CALL ISZERO DUP1 ISZERO PUSH2 0x2156 JUMPI RETURNDATASIZE PUSH1 0x0 DUP1 RETURNDATACOPY RETURNDATASIZE PUSH1 0x0 REVERT JUMPDEST POP POP PUSH2 0x162 SLOAD PUSH1 0x40 MLOAD DUP6 DUP2 MSTORE PUSH1 0x1 PUSH1 0x1 PUSH1 0xA0 SHL SUB SWAP1 SWAP2 AND SWAP3 POP CALLER SWAP2 POP PUSH32 0x42A31D51415A86588240E32BF72025C881C4C9AADA6E283CE50DC32F5A64717B SWAP1 PUSH1 0x20 ADD PUSH1 0x40 MLOAD DUP1 SWAP2 SUB SWAP1 LOG3 POP PUSH2 0x115D PUSH1 0x1 PUSH2 0x12F SSTORE JUMP JUMPDEST PUSH32 0x61C92169EF077349011FF0B1383C894D86C5F0B41D986366B58A6CF31E93BEDA PUSH2 0x21D5 DUP2 PUSH2 0x26AB JUMP JUMPDEST PUSH2 0x167 DUP3 SWAP1 SSTORE PUSH1 0x40 MLOAD DUP3 DUP2 MSTORE PUSH32 0xA1B2AC18B42A8CCD9C95E39420259ED780B3F6D890E5ECD36AF7A4DC570348FF SWAP1 PUSH1 0x20 ADD PUSH2 0x139D JUMP JUMPDEST PUSH1 0x0 DUP2 DUP2 MSTORE PUSH1 0x97 PUSH1 0x20 MSTORE PUSH1 0x40 DUP2 KECCAK256 PUSH2 0x928 SWAP1 PUSH2 0x2FC6 JUMP JUMPDEST PUSH2 0x222A PUSH2 0x2954 JUMP JUMPDEST PUSH2 0x16A SLOAD DUP2 LT PUSH2 0x228E JUMPI PUSH1 0x40 MLOAD PUSH3 0x461BCD PUSH1 0xE5 SHL DUP2 MSTORE PUSH1 0x20 PUSH1 0x4 DUP3 ADD MSTORE PUSH1 0x29 PUSH1 0x24 DUP3 ADD MSTORE PUSH32 0x53796D6D696F536F6C7665724465706F7369746F723A20496E76616C69642072 PUSH1 0x44 DUP3 ADD MSTORE PUSH9 0x195C5D595CDD081251 PUSH1 0xBA SHL PUSH1 0x64 DUP3 ADD MSTORE PUSH1 0x84 ADD PUSH2 0x7BF JUMP JUMPDEST PUSH1 0x0 PUSH2 0x16A DUP3 DUP2 SLOAD DUP2 LT PUSH2 0x22A4 JUMPI PUSH2 0x22A4 PUSH2 0x42FE JUMP JUMPDEST SWAP1 PUSH1 0x0 MSTORE PUSH1 0x20 PUSH1 0x0 KECCAK256 SWAP1 PUSH1 0x8 MUL ADD SWAP1 POP PUSH2 0x22BB CALLER SWAP1 JUMP JUMPDEST PUSH1 0x1 DUP3 ADD SLOAD PUSH1 0x1 PUSH1 0x1 PUSH1 0xA0 SHL SUB SWAP1 DUP2 AND SWAP2 AND EQ PUSH2 0x2340 JUMPI PUSH1 0x40 MLOAD PUSH3 0x461BCD PUSH1 0xE5 SHL DUP2 MSTORE PUSH1 0x20 PUSH1 0x4 DUP3 ADD MSTORE PUSH1 0x3F PUSH1 0x24 DUP3 ADD MSTORE PUSH32 0x53796D6D696F536F6C7665724465706F7369746F723A204F6E6C792074686520 PUSH1 0x44 DUP3 ADD MSTORE PUSH32 0x73656E646572206F6620726571756573742063616E2063616E63656C20697400 PUSH1 0x64 DUP3 ADD MSTORE PUSH1 0x84 ADD PUSH2 0x7BF JUMP JUMPDEST PUSH1 0x0 PUSH1 0x4 DUP1 DUP4 ADD SLOAD PUSH1 0xFF AND SWAP1 DUP2 GT ISZERO PUSH2 0x235B JUMPI PUSH2 0x235B PUSH2 0x4223 JUMP JUMPDEST EQ PUSH2 0x23CE JUMPI PUSH1 0x40 MLOAD PUSH3 0x461BCD PUSH1 0xE5 SHL DUP2 MSTORE PUSH1 0x20 PUSH1 0x4 DUP3 ADD MSTORE PUSH1 0x25 PUSH1 0x24 DUP3 ADD MSTORE PUSH32 0x53796D6D696F536F6C7665724465706F7369746F723A20496E76616C69642073 PUSH1 0x44 DUP3 ADD MSTORE PUSH32 0x7461747573000000000000000000000000000000000000000000000000000000 PUSH1 0x64 DUP3 ADD MSTORE PUSH1 0x84 ADD PUSH2 0x7BF JUMP JUMPDEST PUSH1 0x4 DUP2 ADD DUP1 SLOAD PUSH1 0xFF NOT AND PUSH1 0x3 OR SWAP1 SSTORE PUSH1 0x2 DUP2 ADD SLOAD CALLER PUSH1 0x0 SWAP1 DUP2 MSTORE PUSH2 0x16C PUSH1 0x20 MSTORE PUSH1 0x40 DUP2 KECCAK256 DUP1 SLOAD SWAP1 SWAP2 SWAP1 PUSH2 0x2402 SWAP1 DUP5 SWAP1 PUSH2 0x4376 JUMP JUMPDEST SWAP1 SWAP2 SSTORE POP POP PUSH1 0x40 MLOAD DUP3 SWAP1 PUSH32 0x8F3015A84BD69B67997EDB78D8928AD670DCB6243DF596529AE1E07F93EAF35A SWAP1 PUSH1 0x0 SWAP1 LOG2 POP POP JUMP JUMPDEST PUSH1 0x0 DUP3 DUP2 MSTORE PUSH1 0x65 PUSH1 0x20 MSTORE PUSH1 0x40 SWAP1 KECCAK256 PUSH1 0x1 ADD SLOAD PUSH2 0x2451 DUP2 PUSH2 0x26AB JUMP JUMPDEST PUSH2 0xA38 DUP4 DUP4 PUSH2 0x2932 JUMP JUMPDEST PUSH32 0x372387BD01807B923229B5BD1E46F8A6B8815B5D5DB581DB3E993C5168467B27 PUSH2 0x2485 DUP2 PUSH2 0x26AB JUMP JUMPDEST PUSH2 0x248D PUSH2 0x2954 JUMP JUMPDEST PUSH1 0x1 PUSH1 0x1 PUSH1 0xA0 SHL SUB DUP4 AND PUSH2 0x2509 JUMPI PUSH1 0x40 MLOAD PUSH3 0x461BCD PUSH1 0xE5 SHL DUP2 MSTORE PUSH1 0x20 PUSH1 0x4 DUP3 ADD MSTORE PUSH1 0x30 PUSH1 0x24 DUP3 ADD MSTORE PUSH32 0x53796D6D696F536F6C7665724465706F7369746F723A205A65726F2061646472 PUSH1 0x44 DUP3 ADD MSTORE PUSH32 0x65737320666F7220726563656976657200000000000000000000000000000000 PUSH1 0x64 DUP3 ADD MSTORE PUSH1 0x84 ADD PUSH2 0x7BF JUMP JUMPDEST PUSH1 0x0 DUP3 GT PUSH2 0x257F JUMPI PUSH1 0x40 MLOAD PUSH3 0x461BCD PUSH1 0xE5 SHL DUP2 MSTORE PUSH1 0x20 PUSH1 0x4 DUP3 ADD MSTORE PUSH1 0x34 PUSH1 0x24 DUP3 ADD MSTORE PUSH32 0x53796D6D696F536F6C7665724465706F7369746F723A20416D6F756E74206D75 PUSH1 0x44 DUP3 ADD MSTORE PUSH32 0x73742062652067726561746572207468616E2030000000000000000000000000 PUSH1 0x64 DUP3 ADD MSTORE PUSH1 0x84 ADD PUSH2 0x7BF JUMP JUMPDEST PUSH2 0x164 SLOAD PUSH1 0x40 MLOAD PUSH32 0x70A0823100000000000000000000000000000000000000000000000000000000 DUP2 MSTORE ADDRESS PUSH1 0x4 DUP3 ADD MSTORE PUSH1 0x1 PUSH1 0x1 PUSH1 0xA0 SHL SUB SWAP1 SWAP2 AND SWAP1 PUSH1 0x0 SWAP1 DUP3 SWAP1 PUSH4 0x70A08231 SWAP1 PUSH1 0x24 ADD PUSH1 0x20 PUSH1 0x40 MLOAD DUP1 DUP4 SUB DUP2 DUP7 GAS STATICCALL ISZERO DUP1 ISZERO PUSH2 0x25E6 JUMPI RETURNDATASIZE PUSH1 0x0 DUP1 RETURNDATACOPY RETURNDATASIZE PUSH1 0x0 REVERT JUMPDEST POP POP POP POP PUSH1 0x40 MLOAD RETURNDATASIZE PUSH1 0x1F NOT PUSH1 0x1F DUP3 ADD AND DUP3 ADD DUP1 PUSH1 0x40 MSTORE POP DUP2 ADD SWAP1 PUSH2 0x260A SWAP2 SWAP1 PUSH2 0x4389 JUMP JUMPDEST SWAP1 POP PUSH2 0x165 SLOAD DUP2 PUSH2 0x261B SWAP2 SWAP1 PUSH2 0x4376 JUMP JUMPDEST DUP5 GT ISZERO PUSH2 0x2690 JUMPI PUSH1 0x40 MLOAD PUSH3 0x461BCD PUSH1 0xE5 SHL DUP2 MSTORE PUSH1 0x20 PUSH1 0x4 DUP3 ADD MSTORE PUSH1 0x2B PUSH1 0x24 DUP3 ADD MSTORE PUSH32 0x53796D6D696F536F6C7665724465706F7369746F723A20496E73756666696369 PUSH1 0x44 DUP3 ADD MSTORE PUSH32 0x656E742062616C616E6365000000000000000000000000000000000000000000 PUSH1 0x64 DUP3 ADD MSTORE PUSH1 0x84 ADD PUSH2 0x7BF JUMP JUMPDEST PUSH2 0x26A4 PUSH1 0x1 PUSH1 0x1 PUSH1 0xA0 SHL SUB DUP4 AND DUP7 DUP7 PUSH2 0x2C36 JUMP JUMPDEST POP POP POP POP POP JUMP JUMPDEST PUSH2 0x115D DUP2 CALLER PUSH2 0x2FD0 JUMP JUMPDEST PUSH2 0x161 PUSH1 0x0 SWAP1 SLOAD SWAP1 PUSH2 0x100 EXP SWAP1 DIV PUSH1 0x1 PUSH1 0x1 PUSH1 0xA0 SHL SUB AND PUSH1 0x1 PUSH1 0x1 PUSH1 0xA0 SHL SUB AND PUSH4 0x5C1548FB PUSH1 0x40 MLOAD DUP2 PUSH4 0xFFFFFFFF AND PUSH1 0xE0 SHL DUP2 MSTORE PUSH1 0x4 ADD PUSH1 0x20 PUSH1 0x40 MLOAD DUP1 DUP4 SUB DUP2 DUP7 GAS STATICCALL ISZERO DUP1 ISZERO PUSH2 0x2709 JUMPI RETURNDATASIZE PUSH1 0x0 DUP1 RETURNDATACOPY RETURNDATASIZE PUSH1 0x0 REVERT JUMPDEST POP POP POP POP PUSH1 0x40 MLOAD RETURNDATASIZE PUSH1 0x1F NOT PUSH1 0x1F DUP3 ADD AND DUP3 ADD DUP1 PUSH1 0x40 MSTORE POP DUP2 ADD SWAP1 PUSH2 0x272D SWAP2 SWAP1 PUSH2 0x43CB JUMP JUMPDEST PUSH2 0x164 DUP1 SLOAD PUSH20 0xFFFFFFFFFFFFFFFFFFFFFFFFFFFFFFFFFFFFFFFF NOT AND PUSH1 0x1 PUSH1 0x1 PUSH1 0xA0 SHL SUB SWAP3 SWAP1 SWAP3 AND SWAP2 DUP3 OR SWAP1 SSTORE PUSH1 0x40 DUP1 MLOAD PUSH32 0x313CE56700000000000000000000000000000000000000000000000000000000 DUP2 MSTORE SWAP1 MLOAD PUSH4 0x313CE567 SWAP2 PUSH1 0x4 DUP1 DUP3 ADD SWAP3 PUSH1 0x20 SWAP3 SWAP1 SWAP2 SWAP1 DUP3 SWAP1 SUB ADD DUP2 DUP7 GAS STATICCALL ISZERO DUP1 ISZERO PUSH2 0x27AE JUMPI RETURNDATASIZE PUSH1 0x0 DUP1 RETURNDATACOPY RETURNDATASIZE PUSH1 0x0 REVERT JUMPDEST POP POP POP POP PUSH1 0x40 MLOAD RETURNDATASIZE PUSH1 0x1F NOT PUSH1 0x1F DUP3 ADD AND DUP3 ADD DUP1 PUSH1 0x40 MSTORE POP DUP2 ADD SWAP1 PUSH2 0x27D2 SWAP2 SWAP1 PUSH2 0x43E8 JUMP JUMPDEST PUSH1 0xFF AND PUSH2 0x169 DUP2 SWAP1 SSTORE PUSH1 0x12 LT ISZERO PUSH2 0x2877 JUMPI PUSH1 0x40 MLOAD PUSH3 0x461BCD PUSH1 0xE5 SHL DUP2 MSTORE PUSH1 0x20 PUSH1 0x4 DUP3 ADD MSTORE PUSH1 0x4E PUSH1 0x24 DUP3 ADD MSTORE PUSH32 0x53796D6D696F536F6C7665724465706F7369746F723A20436F6C6C6174657261 PUSH1 0x44 DUP3 ADD MSTORE PUSH32 0x6C20646563696D616C732073686F756C64206265206C6F776572207468616E20 PUSH1 0x64 DUP3 ADD MSTORE PUSH32 0x6F7220657175616C20746F203138000000000000000000000000000000000000 PUSH1 0x84 DUP3 ADD MSTORE PUSH1 0xA4 ADD PUSH2 0x7BF JUMP JUMPDEST JUMP JUMPDEST PUSH1 0x0 PUSH32 0xFFFFFFFF00000000000000000000000000000000000000000000000000000000 DUP3 AND PUSH32 0x7965DB0B00000000000000000000000000000000000000000000000000000000 EQ DUP1 PUSH2 0x928 JUMPI POP PUSH32 0x1FFC9A700000000000000000000000000000000000000000000000000000000 PUSH32 0xFFFFFFFF00000000000000000000000000000000000000000000000000000000 DUP4 AND EQ PUSH2 0x928 JUMP JUMPDEST PUSH2 0x291A DUP3 DUP3 PUSH2 0x3045 JUMP JUMPDEST PUSH1 0x0 DUP3 DUP2 MSTORE PUSH1 0x97 PUSH1 0x20 MSTORE PUSH1 0x40 SWAP1 KECCAK256 PUSH2 0xA38 SWAP1 DUP3 PUSH2 0x30E7 JUMP JUMPDEST PUSH2 0x293C DUP3 DUP3 PUSH2 0x30FC JUMP JUMPDEST PUSH1 0x0 DUP3 DUP2 MSTORE PUSH1 0x97 PUSH1 0x20 MSTORE PUSH1 0x40 SWAP1 KECCAK256 PUSH2 0xA38 SWAP1 DUP3 PUSH2 0x317F JUMP JUMPDEST PUSH1 0xC9 SLOAD PUSH1 0xFF AND ISZERO PUSH2 0x2877 JUMPI PUSH1 0x40 MLOAD PUSH3 0x461BCD PUSH1 0xE5 SHL DUP2 MSTORE PUSH1 0x20 PUSH1 0x4 DUP3 ADD MSTORE PUSH1 0x10 PUSH1 0x24 DUP3 ADD MSTORE PUSH32 0x5061757361626C653A2070617573656400000000000000000000000000000000 PUSH1 0x44 DUP3 ADD MSTORE PUSH1 0x64 ADD PUSH2 0x7BF JUMP JUMPDEST PUSH1 0x40 MLOAD PUSH1 0x1 PUSH1 0x1 PUSH1 0xA0 SHL SUB DUP1 DUP6 AND PUSH1 0x24 DUP4 ADD MSTORE DUP4 AND PUSH1 0x44 DUP3 ADD MSTORE PUSH1 0x64 DUP2 ADD DUP3 SWAP1 MSTORE PUSH2 0x2A58 SWAP1 DUP6 SWAP1 PUSH32 0x23B872DD00000000000000000000000000000000000000000000000000000000 SWAP1 PUSH1 0x84 ADD JUMPDEST PUSH1 0x40 DUP1 MLOAD PUSH1 0x1F NOT DUP2 DUP5 SUB ADD DUP2 MSTORE SWAP2 SWAP1 MSTORE PUSH1 0x20 DUP2 ADD DUP1 MLOAD PUSH28 0xFFFFFFFFFFFFFFFFFFFFFFFFFFFFFFFFFFFFFFFFFFFFFFFFFFFFFFFF AND PUSH32 0xFFFFFFFF00000000000000000000000000000000000000000000000000000000 SWAP1 SWAP4 AND SWAP3 SWAP1 SWAP3 OR SWAP1 SWAP2 MSTORE PUSH2 0x3194 JUMP JUMPDEST POP POP POP POP JUMP JUMPDEST PUSH2 0x2A66 PUSH2 0x327C JUMP JUMPDEST PUSH1 0xC9 DUP1 SLOAD PUSH1 0xFF NOT AND SWAP1 SSTORE PUSH32 0x5DB9EE0A495BF2E6FF9C91A7834C1BA4FDD244A5E8AA4E537BD38AEAE4B073AA CALLER JUMPDEST PUSH1 0x40 MLOAD PUSH1 0x1 PUSH1 0x1 PUSH1 0xA0 SHL SUB SWAP1 SWAP2 AND DUP2 MSTORE PUSH1 0x20 ADD PUSH1 0x40 MLOAD DUP1 SWAP2 SUB SWAP1 LOG1 JUMP JUMPDEST PUSH2 0x2AB8 PUSH2 0x2954 JUMP JUMPDEST PUSH1 0xC9 DUP1 SLOAD PUSH1 0xFF NOT AND PUSH1 0x1 OR SWAP1 SSTORE PUSH32 0x62E78CEA01BEE320CD4E420270B5EA74000D11B0C9F74754EBDBFC544B05A258 PUSH2 0x2A93 CALLER SWAP1 JUMP JUMPDEST PUSH1 0x40 DUP1 MLOAD PUSH32 0xB1DD0BED30D3B8AB9FC76313ECB7DB14F6B497D5F1F7859FA5CB5811C1CA3073 PUSH1 0x20 DUP3 ADD MSTORE SWAP1 DUP2 ADD DUP8 SWAP1 MSTORE PUSH1 0x60 DUP2 ADD DUP7 SWAP1 MSTORE PUSH1 0x1 PUSH1 0x1 PUSH1 0xA0 SHL SUB DUP6 AND PUSH1 0x80 DUP3 ADD MSTORE PUSH1 0xA0 DUP2 ADD DUP5 SWAP1 MSTORE PUSH1 0xC0 DUP2 ADD DUP4 SWAP1 MSTORE PUSH1 0x0 SWAP1 DUP2 SWAP1 PUSH2 0x2B68 SWAP1 PUSH1 0xE0 ADD PUSH1 0x40 MLOAD PUSH1 0x20 DUP2 DUP4 SUB SUB DUP2 MSTORE SWAP1 PUSH1 0x40 MSTORE DUP1 MLOAD SWAP1 PUSH1 0x20 ADD KECCAK256 PUSH2 0x32CE JUMP JUMPDEST SWAP1 POP PUSH1 0x0 PUSH2 0x2B76 DUP3 DUP6 PUSH2 0x3316 JUMP JUMPDEST PUSH2 0x163 SLOAD PUSH1 0x1 PUSH1 0x1 PUSH1 0xA0 SHL SUB SWAP2 DUP3 AND SWAP2 AND EQ SWAP10 SWAP9 POP POP POP POP POP POP POP POP POP JUMP JUMPDEST PUSH1 0x60 PUSH1 0xFD DUP1 SLOAD PUSH2 0x2BA4 SWAP1 PUSH2 0x440B JUMP JUMPDEST DUP1 PUSH1 0x1F ADD PUSH1 0x20 DUP1 SWAP2 DIV MUL PUSH1 0x20 ADD PUSH1 0x40 MLOAD SWAP1 DUP2 ADD PUSH1 0x40 MSTORE DUP1 SWAP3 SWAP2 SWAP1 DUP2 DUP2 MSTORE PUSH1 0x20 ADD DUP3 DUP1 SLOAD PUSH2 0x2BD0 SWAP1 PUSH2 0x440B JUMP JUMPDEST DUP1 ISZERO PUSH2 0x2C1D JUMPI DUP1 PUSH1 0x1F LT PUSH2 0x2BF2 JUMPI PUSH2 0x100 DUP1 DUP4 SLOAD DIV MUL DUP4 MSTORE SWAP2 PUSH1 0x20 ADD SWAP2 PUSH2 0x2C1D JUMP JUMPDEST DUP3 ADD SWAP2 SWAP1 PUSH1 0x0 MSTORE PUSH1 0x20 PUSH1 0x0 KECCAK256 SWAP1 JUMPDEST DUP2 SLOAD DUP2 MSTORE SWAP1 PUSH1 0x1 ADD SWAP1 PUSH1 0x20 ADD DUP1 DUP4 GT PUSH2 0x2C00 JUMPI DUP3 SWAP1 SUB PUSH1 0x1F AND DUP3 ADD SWAP2 JUMPDEST POP POP POP POP POP SWAP1 POP SWAP1 JUMP JUMPDEST PUSH1 0x60 PUSH1 0xFE DUP1 SLOAD PUSH2 0x2BA4 SWAP1 PUSH2 0x440B JUMP JUMPDEST PUSH1 0x40 MLOAD PUSH1 0x1 PUSH1 0x1 PUSH1 0xA0 SHL SUB DUP4 AND PUSH1 0x24 DUP3 ADD MSTORE PUSH1 0x44 DUP2 ADD DUP3 SWAP1 MSTORE PUSH2 0xA38 SWAP1 DUP5 SWAP1 PUSH32 0xA9059CBB00000000000000000000000000000000000000000000000000000000 SWAP1 PUSH1 0x64 ADD PUSH2 0x29F4 JUMP JUMPDEST PUSH1 0x0 PUSH2 0x1C93 DUP4 DUP4 PUSH2 0x333A JUMP JUMPDEST PUSH2 0x16B DUP2 SWAP1 SSTORE PUSH1 0x40 MLOAD DUP2 DUP2 MSTORE PUSH32 0x699D7BC1FD2D92F6912F04B6A309EF25EC3937479E80CDC04B75F234A724E9A2 SWAP1 PUSH1 0x20 ADD PUSH1 0x40 MLOAD DUP1 SWAP2 SUB SWAP1 LOG1 POP JUMP JUMPDEST PUSH1 0x0 SLOAD PUSH2 0x100 SWAP1 DIV PUSH1 0xFF AND PUSH2 0x2D32 JUMPI PUSH1 0x40 MLOAD PUSH3 0x461BCD PUSH1 0xE5 SHL DUP2 MSTORE PUSH1 0x20 PUSH1 0x4 DUP3 ADD MSTORE PUSH1 0x2B PUSH1 0x24 DUP3 ADD MSTORE PUSH32 0x496E697469616C697A61626C653A20636F6E7472616374206973206E6F742069 PUSH1 0x44 DUP3 ADD MSTORE PUSH11 0x6E697469616C697A696E67 PUSH1 0xA8 SHL PUSH1 0x64 DUP3 ADD MSTORE PUSH1 0x84 ADD PUSH2 0x7BF JUMP JUMPDEST PUSH2 0x2877 PUSH2 0x3364 JUMP JUMPDEST PUSH1 0x0 SLOAD PUSH2 0x100 SWAP1 DIV PUSH1 0xFF AND PUSH2 0x2877 JUMPI PUSH1 0x40 MLOAD PUSH3 0x461BCD PUSH1 0xE5 SHL DUP2 MSTORE PUSH1 0x20 PUSH1 0x4 DUP3 ADD MSTORE PUSH1 0x2B PUSH1 0x24 DUP3 ADD MSTORE PUSH32 0x496E697469616C697A61626C653A20636F6E7472616374206973206E6F742069 PUSH1 0x44 DUP3 ADD MSTORE PUSH11 0x6E697469616C697A696E67 PUSH1 0xA8 SHL PUSH1 0x64 DUP3 ADD MSTORE PUSH1 0x84 ADD PUSH2 0x7BF JUMP JUMPDEST PUSH1 0x0 SLOAD PUSH2 0x100 SWAP1 DIV PUSH1 0xFF AND PUSH2 0x2E10 JUMPI PUSH1 0x40 MLOAD PUSH3 0x461BCD PUSH1 0xE5 SHL DUP2 MSTORE PUSH1 0x20 PUSH1 0x4 DUP3 ADD MSTORE PUSH1 0x2B PUSH1 0x24 DUP3 ADD MSTORE PUSH32 0x496E697469616C697A61626C653A20636F6E7472616374206973206E6F742069 PUSH1 0x44 DUP3 ADD MSTORE PUSH11 0x6E697469616C697A696E67 PUSH1 0xA8 SHL PUSH1 0x64 DUP3 ADD MSTORE PUSH1 0x84 ADD PUSH2 0x7BF JUMP JUMPDEST PUSH2 0x2877 PUSH2 0x33CF JUMP JUMPDEST PUSH1 0x0 SLOAD PUSH2 0x100 SWAP1 DIV PUSH1 0xFF AND PUSH2 0x2E83 JUMPI PUSH1 0x40 MLOAD PUSH3 0x461BCD PUSH1 0xE5 SHL DUP2 MSTORE PUSH1 0x20 PUSH1 0x4 DUP3 ADD MSTORE PUSH1 0x2B PUSH1 0x24 DUP3 ADD MSTORE PUSH32 0x496E697469616C697A61626C653A20636F6E7472616374206973206E6F742069 PUSH1 0x44 DUP3 ADD MSTORE PUSH11 0x6E697469616C697A696E67 PUSH1 0xA8 SHL PUSH1 0x64 DUP3 ADD MSTORE PUSH1 0x84 ADD PUSH2 0x7BF JUMP JUMPDEST PUSH2 0xAC5 DUP3 DUP3 PUSH2 0x3446 JUMP JUMPDEST PUSH1 0x2 PUSH2 0x12F SLOAD SUB PUSH2 0x2EE0 JUMPI PUSH1 0x40 MLOAD PUSH3 0x461BCD PUSH1 0xE5 SHL DUP2 MSTORE PUSH1 0x20 PUSH1 0x4 DUP3 ADD MSTORE PUSH1 0x1F PUSH1 0x24 DUP3 ADD MSTORE PUSH32 0x5265656E7472616E637947756172643A207265656E7472616E742063616C6C00 PUSH1 0x44 DUP3 ADD MSTORE PUSH1 0x64 ADD PUSH2 0x7BF JUMP JUMPDEST PUSH1 0x2 PUSH2 0x12F SSTORE JUMP JUMPDEST PUSH1 0x40 DUP1 MLOAD PUSH1 0x1 PUSH1 0x1 PUSH1 0xA0 SHL SUB DUP5 AND PUSH1 0x24 DUP3 ADD MSTORE PUSH1 0x44 DUP1 DUP3 ADD DUP5 SWAP1 MSTORE DUP3 MLOAD DUP1 DUP4 SUB SWAP1 SWAP2 ADD DUP2 MSTORE PUSH1 0x64 SWAP1 SWAP2 ADD SWAP1 SWAP2 MSTORE PUSH1 0x20 DUP2 ADD DUP1 MLOAD PUSH28 0xFFFFFFFFFFFFFFFFFFFFFFFFFFFFFFFFFFFFFFFFFFFFFFFFFFFFFFFF AND PUSH32 0x95EA7B300000000000000000000000000000000000000000000000000000000 OR SWAP1 MSTORE PUSH2 0x2F67 DUP5 DUP3 PUSH2 0x34D9 JUMP JUMPDEST PUSH2 0x2A58 JUMPI PUSH1 0x40 MLOAD PUSH1 0x1 PUSH1 0x1 PUSH1 0xA0 SHL SUB DUP5 AND PUSH1 0x24 DUP3 ADD MSTORE PUSH1 0x0 PUSH1 0x44 DUP3 ADD MSTORE PUSH2 0x2FB4 SWAP1 DUP6 SWAP1 PUSH32 0x95EA7B300000000000000000000000000000000000000000000000000000000 SWAP1 PUSH1 0x64 ADD PUSH2 0x29F4 JUMP JUMPDEST PUSH2 0x2A58 DUP5 DUP3 PUSH2 0x3194 JUMP JUMPDEST PUSH1 0x1 PUSH2 0x12F SSTORE JUMP JUMPDEST PUSH1 0x0 PUSH2 0x928 DUP3 SLOAD SWAP1 JUMP JUMPDEST PUSH1 0x0 DUP3 DUP2 MSTORE PUSH1 0x65 PUSH1 0x20 SWAP1 DUP2 MSTORE PUSH1 0x40 DUP1 DUP4 KECCAK256 PUSH1 0x1 PUSH1 0x1 PUSH1 0xA0 SHL SUB DUP6 AND DUP5 MSTORE SWAP1 SWAP2 MSTORE SWAP1 KECCAK256 SLOAD PUSH1 0xFF AND PUSH2 0xAC5 JUMPI PUSH2 0x3003 DUP2 PUSH2 0x3580 JUMP JUMPDEST PUSH2 0x300E DUP4 PUSH1 0x20 PUSH2 0x3592 JUMP JUMPDEST PUSH1 0x40 MLOAD PUSH1 0x20 ADD PUSH2 0x301F SWAP3 SWAP2 SWAP1 PUSH2 0x4445 JUMP JUMPDEST PUSH1 0x40 DUP1 MLOAD PUSH1 0x1F NOT DUP2 DUP5 SUB ADD DUP2 MSTORE SWAP1 DUP3 SWAP1 MSTORE PUSH3 0x461BCD PUSH1 0xE5 SHL DUP3 MSTORE PUSH2 0x7BF SWAP2 PUSH1 0x4 ADD PUSH2 0x44C6 JUMP JUMPDEST PUSH1 0x0 DUP3 DUP2 MSTORE PUSH1 0x65 PUSH1 0x20 SWAP1 DUP2 MSTORE PUSH1 0x40 DUP1 DUP4 KECCAK256 PUSH1 0x1 PUSH1 0x1 PUSH1 0xA0 SHL SUB DUP6 AND DUP5 MSTORE SWAP1 SWAP2 MSTORE SWAP1 KECCAK256 SLOAD PUSH1 0xFF AND PUSH2 0xAC5 JUMPI PUSH1 0x0 DUP3 DUP2 MSTORE PUSH1 0x65 PUSH1 0x20 SWAP1 DUP2 MSTORE PUSH1 0x40 DUP1 DUP4 KECCAK256 PUSH1 0x1 PUSH1 0x1 PUSH1 0xA0 SHL SUB DUP6 AND DUP5 MSTORE SWAP1 SWAP2 MSTORE SWAP1 KECCAK256 DUP1 SLOAD PUSH1 0xFF NOT AND PUSH1 0x1 OR SWAP1 SSTORE PUSH2 0x30A3 CALLER SWAP1 JUMP JUMPDEST PUSH1 0x1 PUSH1 0x1 PUSH1 0xA0 SHL SUB AND DUP2 PUSH1 0x1 PUSH1 0x1 PUSH1 0xA0 SHL SUB AND DUP4 PUSH32 0x2F8788117E7EFF1D82E926EC794901D17C78024A50270940304540A733656F0D PUSH1 0x40 MLOAD PUSH1 0x40 MLOAD DUP1 SWAP2 SUB SWAP1 LOG4 POP POP JUMP JUMPDEST PUSH1 0x0 PUSH2 0x1C93 DUP4 PUSH1 0x1 PUSH1 0x1 PUSH1 0xA0 SHL SUB DUP5 AND PUSH2 0x37BB JUMP JUMPDEST PUSH1 0x0 DUP3 DUP2 MSTORE PUSH1 0x65 PUSH1 0x20 SWAP1 DUP2 MSTORE PUSH1 0x40 DUP1 DUP4 KECCAK256 PUSH1 0x1 PUSH1 0x1 PUSH1 0xA0 SHL SUB DUP6 AND DUP5 MSTORE SWAP1 SWAP2 MSTORE SWAP1 KECCAK256 SLOAD PUSH1 0xFF AND ISZERO PUSH2 0xAC5 JUMPI PUSH1 0x0 DUP3 DUP2 MSTORE PUSH1 0x65 PUSH1 0x20 SWAP1 DUP2 MSTORE PUSH1 0x40 DUP1 DUP4 KECCAK256 PUSH1 0x1 PUSH1 0x1 PUSH1 0xA0 SHL SUB DUP6 AND DUP1 DUP6 MSTORE SWAP3 MSTORE DUP1 DUP4 KECCAK256 DUP1 SLOAD PUSH1 0xFF NOT AND SWAP1 SSTORE MLOAD CALLER SWAP3 DUP6 SWAP2 PUSH32 0xF6391F5C32D9C69D2A47EA670B442974B53935D1EDC7FD64EB21E047A839171B SWAP2 SWAP1 LOG4 POP POP JUMP JUMPDEST PUSH1 0x0 PUSH2 0x1C93 DUP4 PUSH1 0x1 PUSH1 0x1 PUSH1 0xA0 SHL SUB DUP5 AND PUSH2 0x380A JUMP JUMPDEST PUSH1 0x0 PUSH2 0x31E9 DUP3 PUSH1 0x40 MLOAD DUP1 PUSH1 0x40 ADD PUSH1 0x40 MSTORE DUP1 PUSH1 0x20 DUP2 MSTORE PUSH1 0x20 ADD PUSH32 0x5361666545524332303A206C6F772D6C6576656C2063616C6C206661696C6564 DUP2 MSTORE POP DUP6 PUSH1 0x1 PUSH1 0x1 PUSH1 0xA0 SHL SUB AND PUSH2 0x38FD SWAP1 SWAP3 SWAP2 SWAP1 PUSH4 0xFFFFFFFF AND JUMP JUMPDEST SWAP1 POP DUP1 MLOAD PUSH1 0x0 EQ DUP1 PUSH2 0x320A JUMPI POP DUP1 DUP1 PUSH1 0x20 ADD SWAP1 MLOAD DUP2 ADD SWAP1 PUSH2 0x320A SWAP2 SWAP1 PUSH2 0x44D9 JUMP JUMPDEST PUSH2 0xA38 JUMPI PUSH1 0x40 MLOAD PUSH3 0x461BCD PUSH1 0xE5 SHL DUP2 MSTORE PUSH1 0x20 PUSH1 0x4 DUP3 ADD MSTORE PUSH1 0x2A PUSH1 0x24 DUP3 ADD MSTORE PUSH32 0x5361666545524332303A204552433230206F7065726174696F6E20646964206E PUSH1 0x44 DUP3 ADD MSTORE PUSH32 0x6F74207375636365656400000000000000000000000000000000000000000000 PUSH1 0x64 DUP3 ADD MSTORE PUSH1 0x84 ADD PUSH2 0x7BF JUMP JUMPDEST PUSH1 0xC9 SLOAD PUSH1 0xFF AND PUSH2 0x2877 JUMPI PUSH1 0x40 MLOAD PUSH3 0x461BCD PUSH1 0xE5 SHL DUP2 MSTORE PUSH1 0x20 PUSH1 0x4 DUP3 ADD MSTORE PUSH1 0x14 PUSH1 0x24 DUP3 ADD MSTORE PUSH32 0x5061757361626C653A206E6F7420706175736564000000000000000000000000 PUSH1 0x44 DUP3 ADD MSTORE PUSH1 0x64 ADD PUSH2 0x7BF JUMP JUMPDEST PUSH1 0x0 PUSH2 0x928 PUSH2 0x32DB PUSH2 0x3914 JUMP JUMPDEST DUP4 PUSH1 0x40 MLOAD PUSH32 0x1901000000000000000000000000000000000000000000000000000000000000 DUP2 MSTORE PUSH1 0x2 DUP2 ADD SWAP3 SWAP1 SWAP3 MSTORE PUSH1 0x22 DUP3 ADD MSTORE PUSH1 0x42 SWAP1 KECCAK256 SWAP1 JUMP JUMPDEST PUSH1 0x0 DUP1 PUSH1 0x0 PUSH2 0x3325 DUP6 DUP6 PUSH2 0x3923 JUMP JUMPDEST SWAP2 POP SWAP2 POP PUSH2 0x3332 DUP2 PUSH2 0x3968 JUMP JUMPDEST POP SWAP4 SWAP3 POP POP POP JUMP JUMPDEST PUSH1 0x0 DUP3 PUSH1 0x0 ADD DUP3 DUP2 SLOAD DUP2 LT PUSH2 0x3351 JUMPI PUSH2 0x3351 PUSH2 0x42FE JUMP JUMPDEST SWAP1 PUSH1 0x0 MSTORE PUSH1 0x20 PUSH1 0x0 KECCAK256 ADD SLOAD SWAP1 POP SWAP3 SWAP2 POP POP JUMP JUMPDEST PUSH1 0x0 SLOAD PUSH2 0x100 SWAP1 DIV PUSH1 0xFF AND PUSH2 0x2FBE JUMPI PUSH1 0x40 MLOAD PUSH3 0x461BCD PUSH1 0xE5 SHL DUP2 MSTORE PUSH1 0x20 PUSH1 0x4 DUP3 ADD MSTORE PUSH1 0x2B PUSH1 0x24 DUP3 ADD MSTORE PUSH32 0x496E697469616C697A61626C653A20636F6E7472616374206973206E6F742069 PUSH1 0x44 DUP3 ADD MSTORE PUSH11 0x6E697469616C697A696E67 PUSH1 0xA8 SHL PUSH1 0x64 DUP3 ADD MSTORE PUSH1 0x84 ADD PUSH2 0x7BF JUMP JUMPDEST PUSH1 0x0 SLOAD PUSH2 0x100 SWAP1 DIV PUSH1 0xFF AND PUSH2 0x343A JUMPI PUSH1 0x40 MLOAD PUSH3 0x461BCD PUSH1 0xE5 SHL DUP2 MSTORE PUSH1 0x20 PUSH1 0x4 DUP3 ADD MSTORE PUSH1 0x2B PUSH1 0x24 DUP3 ADD MSTORE PUSH32 0x496E697469616C697A61626C653A20636F6E7472616374206973206E6F742069 PUSH1 0x44 DUP3 ADD MSTORE PUSH11 0x6E697469616C697A696E67 PUSH1 0xA8 SHL PUSH1 0x64 DUP3 ADD MSTORE PUSH1 0x84 ADD PUSH2 0x7BF JUMP JUMPDEST PUSH1 0xC9 DUP1 SLOAD PUSH1 0xFF NOT AND SWAP1 SSTORE JUMP JUMPDEST PUSH1 0x0 SLOAD PUSH2 0x100 SWAP1 DIV PUSH1 0xFF AND PUSH2 0x34B1 JUMPI PUSH1 0x40 MLOAD PUSH3 0x461BCD PUSH1 0xE5 SHL DUP2 MSTORE PUSH1 0x20 PUSH1 0x4 DUP3 ADD MSTORE PUSH1 0x2B PUSH1 0x24 DUP3 ADD MSTORE PUSH32 0x496E697469616C697A61626C653A20636F6E7472616374206973206E6F742069 PUSH1 0x44 DUP3 ADD MSTORE PUSH11 0x6E697469616C697A696E67 PUSH1 0xA8 SHL PUSH1 0x64 DUP3 ADD MSTORE PUSH1 0x84 ADD PUSH2 0x7BF JUMP JUMPDEST PUSH1 0xFD PUSH2 0x34BD DUP4 DUP3 PUSH2 0x4542 JUMP JUMPDEST POP PUSH1 0xFE PUSH2 0x34CA DUP3 DUP3 PUSH2 0x4542 JUMP JUMPDEST POP POP PUSH1 0x0 PUSH1 0xFB DUP2 SWAP1 SSTORE PUSH1 0xFC SSTORE POP JUMP JUMPDEST PUSH1 0x0 DUP1 PUSH1 0x0 DUP5 PUSH1 0x1 PUSH1 0x1 PUSH1 0xA0 SHL SUB AND DUP5 PUSH1 0x40 MLOAD PUSH2 0x34F6 SWAP2 SWAP1 PUSH2 0x4601 JUMP JUMPDEST PUSH1 0x0 PUSH1 0x40 MLOAD DUP1 DUP4 SUB DUP2 PUSH1 0x0 DUP7 GAS CALL SWAP2 POP POP RETURNDATASIZE DUP1 PUSH1 0x0 DUP2 EQ PUSH2 0x3533 JUMPI PUSH1 0x40 MLOAD SWAP2 POP PUSH1 0x1F NOT PUSH1 0x3F RETURNDATASIZE ADD AND DUP3 ADD PUSH1 0x40 MSTORE RETURNDATASIZE DUP3 MSTORE RETURNDATASIZE PUSH1 0x0 PUSH1 0x20 DUP5 ADD RETURNDATACOPY PUSH2 0x3538 JUMP JUMPDEST PUSH1 0x60 SWAP2 POP JUMPDEST POP SWAP2 POP SWAP2 POP DUP2 DUP1 ISZERO PUSH2 0x3562 JUMPI POP DUP1 MLOAD ISZERO DUP1 PUSH2 0x3562 JUMPI POP DUP1 DUP1 PUSH1 0x20 ADD SWAP1 MLOAD DUP2 ADD SWAP1 PUSH2 0x3562 SWAP2 SWAP1 PUSH2 0x44D9 JUMP JUMPDEST DUP1 ISZERO PUSH2 0x3577 JUMPI POP PUSH1 0x1 PUSH1 0x1 PUSH1 0xA0 SHL SUB DUP6 AND EXTCODESIZE ISZERO ISZERO JUMPDEST SWAP6 SWAP5 POP POP POP POP POP JUMP JUMPDEST PUSH1 0x60 PUSH2 0x928 PUSH1 0x1 PUSH1 0x1 PUSH1 0xA0 SHL SUB DUP4 AND PUSH1 0x14 JUMPDEST PUSH1 0x60 PUSH1 0x0 PUSH2 0x35A1 DUP4 PUSH1 0x2 PUSH2 0x432A JUMP JUMPDEST PUSH2 0x35AC SWAP1 PUSH1 0x2 PUSH2 0x4363 JUMP JUMPDEST PUSH8 0xFFFFFFFFFFFFFFFF DUP2 GT ISZERO PUSH2 0x35C4 JUMPI PUSH2 0x35C4 PUSH2 0x3EE1 JUMP JUMPDEST PUSH1 0x40 MLOAD SWAP1 DUP1 DUP3 MSTORE DUP1 PUSH1 0x1F ADD PUSH1 0x1F NOT AND PUSH1 0x20 ADD DUP3 ADD PUSH1 0x40 MSTORE DUP1 ISZERO PUSH2 0x35EE JUMPI PUSH1 0x20 DUP3 ADD DUP2 DUP1 CALLDATASIZE DUP4 CALLDATACOPY ADD SWAP1 POP JUMPDEST POP SWAP1 POP PUSH32 0x3000000000000000000000000000000000000000000000000000000000000000 DUP2 PUSH1 0x0 DUP2 MLOAD DUP2 LT PUSH2 0x3625 JUMPI PUSH2 0x3625 PUSH2 0x42FE JUMP JUMPDEST PUSH1 0x20 ADD ADD SWAP1 PUSH31 0xFFFFFFFFFFFFFFFFFFFFFFFFFFFFFFFFFFFFFFFFFFFFFFFFFFFFFFFFFFFFFF NOT AND SWAP1 DUP2 PUSH1 0x0 BYTE SWAP1 MSTORE8 POP PUSH32 0x7800000000000000000000000000000000000000000000000000000000000000 DUP2 PUSH1 0x1 DUP2 MLOAD DUP2 LT PUSH2 0x3688 JUMPI PUSH2 0x3688 PUSH2 0x42FE JUMP JUMPDEST PUSH1 0x20 ADD ADD SWAP1 PUSH31 0xFFFFFFFFFFFFFFFFFFFFFFFFFFFFFFFFFFFFFFFFFFFFFFFFFFFFFFFFFFFFFF NOT AND SWAP1 DUP2 PUSH1 0x0 BYTE SWAP1 MSTORE8 POP PUSH1 0x0 PUSH2 0x36C4 DUP5 PUSH1 0x2 PUSH2 0x432A JUMP JUMPDEST PUSH2 0x36CF SWAP1 PUSH1 0x1 PUSH2 0x4363 JUMP JUMPDEST SWAP1 POP JUMPDEST PUSH1 0x1 DUP2 GT ISZERO PUSH2 0x376C JUMPI PUSH32 0x3031323334353637383961626364656600000000000000000000000000000000 DUP6 PUSH1 0xF AND PUSH1 0x10 DUP2 LT PUSH2 0x3710 JUMPI PUSH2 0x3710 PUSH2 0x42FE JUMP JUMPDEST BYTE PUSH1 0xF8 SHL DUP3 DUP3 DUP2 MLOAD DUP2 LT PUSH2 0x3726 JUMPI PUSH2 0x3726 PUSH2 0x42FE JUMP JUMPDEST PUSH1 0x20 ADD ADD SWAP1 PUSH31 0xFFFFFFFFFFFFFFFFFFFFFFFFFFFFFFFFFFFFFFFFFFFFFFFFFFFFFFFFFFFFFF NOT AND SWAP1 DUP2 PUSH1 0x0 BYTE SWAP1 MSTORE8 POP PUSH1 0x4 SWAP5 SWAP1 SWAP5 SHR SWAP4 PUSH2 0x3765 DUP2 PUSH2 0x461D JUMP JUMPDEST SWAP1 POP PUSH2 0x36D2 JUMP JUMPDEST POP DUP4 ISZERO PUSH2 0x1C93 JUMPI PUSH1 0x40 MLOAD PUSH3 0x461BCD PUSH1 0xE5 SHL DUP2 MSTORE PUSH1 0x20 PUSH1 0x4 DUP3 ADD DUP2 SWAP1 MSTORE PUSH1 0x24 DUP3 ADD MSTORE PUSH32 0x537472696E67733A20686578206C656E67746820696E73756666696369656E74 PUSH1 0x44 DUP3 ADD MSTORE PUSH1 0x64 ADD PUSH2 0x7BF JUMP JUMPDEST PUSH1 0x0 DUP2 DUP2 MSTORE PUSH1 0x1 DUP4 ADD PUSH1 0x20 MSTORE PUSH1 0x40 DUP2 KECCAK256 SLOAD PUSH2 0x3802 JUMPI POP DUP2 SLOAD PUSH1 0x1 DUP2 DUP2 ADD DUP5 SSTORE PUSH1 0x0 DUP5 DUP2 MSTORE PUSH1 0x20 DUP1 DUP3 KECCAK256 SWAP1 SWAP4 ADD DUP5 SWAP1 SSTORE DUP5 SLOAD DUP5 DUP3 MSTORE DUP3 DUP7 ADD SWAP1 SWAP4 MSTORE PUSH1 0x40 SWAP1 KECCAK256 SWAP2 SWAP1 SWAP2 SSTORE PUSH2 0x928 JUMP JUMPDEST POP PUSH1 0x0 PUSH2 0x928 JUMP JUMPDEST PUSH1 0x0 DUP2 DUP2 MSTORE PUSH1 0x1 DUP4 ADD PUSH1 0x20 MSTORE PUSH1 0x40 DUP2 KECCAK256 SLOAD DUP1 ISZERO PUSH2 0x38F3 JUMPI PUSH1 0x0 PUSH2 0x382E PUSH1 0x1 DUP4 PUSH2 0x4376 JUMP JUMPDEST DUP6 SLOAD SWAP1 SWAP2 POP PUSH1 0x0 SWAP1 PUSH2 0x3842 SWAP1 PUSH1 0x1 SWAP1 PUSH2 0x4376 JUMP JUMPDEST SWAP1 POP DUP2 DUP2 EQ PUSH2 0x38A7 JUMPI PUSH1 0x0 DUP7 PUSH1 0x0 ADD DUP3 DUP2 SLOAD DUP2 LT PUSH2 0x3862 JUMPI PUSH2 0x3862 PUSH2 0x42FE JUMP JUMPDEST SWAP1 PUSH1 0x0 MSTORE PUSH1 0x20 PUSH1 0x0 KECCAK256 ADD SLOAD SWAP1 POP DUP1 DUP8 PUSH1 0x0 ADD DUP5 DUP2 SLOAD DUP2 LT PUSH2 0x3885 JUMPI PUSH2 0x3885 PUSH2 0x42FE JUMP JUMPDEST PUSH1 0x0 SWAP2 DUP3 MSTORE PUSH1 0x20 DUP1 DUP4 KECCAK256 SWAP1 SWAP2 ADD SWAP3 SWAP1 SWAP3 SSTORE SWAP2 DUP3 MSTORE PUSH1 0x1 DUP9 ADD SWAP1 MSTORE PUSH1 0x40 SWAP1 KECCAK256 DUP4 SWAP1 SSTORE JUMPDEST DUP6 SLOAD DUP7 SWAP1 DUP1 PUSH2 0x38B8 JUMPI PUSH2 0x38B8 PUSH2 0x4634 JUMP JUMPDEST PUSH1 0x1 SWAP1 SUB DUP2 DUP2 SWAP1 PUSH1 0x0 MSTORE PUSH1 0x20 PUSH1 0x0 KECCAK256 ADD PUSH1 0x0 SWAP1 SSTORE SWAP1 SSTORE DUP6 PUSH1 0x1 ADD PUSH1 0x0 DUP7 DUP2 MSTORE PUSH1 0x20 ADD SWAP1 DUP2 MSTORE PUSH1 0x20 ADD PUSH1 0x0 KECCAK256 PUSH1 0x0 SWAP1 SSTORE PUSH1 0x1 SWAP4 POP POP POP POP PUSH2 0x928 JUMP JUMPDEST PUSH1 0x0 SWAP2 POP POP PUSH2 0x928 JUMP JUMPDEST PUSH1 0x60 PUSH2 0x390C DUP5 DUP5 PUSH1 0x0 DUP6 PUSH2 0x3ACD JUMP JUMPDEST SWAP5 SWAP4 POP POP POP POP JUMP JUMPDEST PUSH1 0x0 PUSH2 0x391E PUSH2 0x3BBF JUMP JUMPDEST SWAP1 POP SWAP1 JUMP JUMPDEST PUSH1 0x0 DUP1 DUP3 MLOAD PUSH1 0x41 SUB PUSH2 0x3959 JUMPI PUSH1 0x20 DUP4 ADD MLOAD PUSH1 0x40 DUP5 ADD MLOAD PUSH1 0x60 DUP6 ADD MLOAD PUSH1 0x0 BYTE PUSH2 0x394D DUP8 DUP3 DUP6 DUP6 PUSH2 0x3C33 JUMP JUMPDEST SWAP5 POP SWAP5 POP POP POP POP PUSH2 0x3961 JUMP JUMPDEST POP PUSH1 0x0 SWAP1 POP PUSH1 0x2 JUMPDEST SWAP3 POP SWAP3 SWAP1 POP JUMP JUMPDEST PUSH1 0x0 DUP2 PUSH1 0x4 DUP2 GT ISZERO PUSH2 0x397C JUMPI PUSH2 0x397C PUSH2 0x4223 JUMP JUMPDEST SUB PUSH2 0x3984 JUMPI POP JUMP JUMPDEST PUSH1 0x1 DUP2 PUSH1 0x4 DUP2 GT ISZERO PUSH2 0x3998 JUMPI PUSH2 0x3998 PUSH2 0x4223 JUMP JUMPDEST SUB PUSH2 0x39E5 JUMPI PUSH1 0x40 MLOAD PUSH3 0x461BCD PUSH1 0xE5 SHL DUP2 MSTORE PUSH1 0x20 PUSH1 0x4 DUP3 ADD MSTORE PUSH1 0x18 PUSH1 0x24 DUP3 ADD MSTORE PUSH32 0x45434453413A20696E76616C6964207369676E61747572650000000000000000 PUSH1 0x44 DUP3 ADD MSTORE PUSH1 0x64 ADD PUSH2 0x7BF JUMP JUMPDEST PUSH1 0x2 DUP2 PUSH1 0x4 DUP2 GT ISZERO PUSH2 0x39F9 JUMPI PUSH2 0x39F9 PUSH2 0x4223 JUMP JUMPDEST SUB PUSH2 0x3A46 JUMPI PUSH1 0x40 MLOAD PUSH3 0x461BCD PUSH1 0xE5 SHL DUP2 MSTORE PUSH1 0x20 PUSH1 0x4 DUP3 ADD MSTORE PUSH1 0x1F PUSH1 0x24 DUP3 ADD MSTORE PUSH32 0x45434453413A20696E76616C6964207369676E6174757265206C656E67746800 PUSH1 0x44 DUP3 ADD MSTORE PUSH1 0x64 ADD PUSH2 0x7BF JUMP JUMPDEST PUSH1 0x3 DUP2 PUSH1 0x4 DUP2 GT ISZERO PUSH2 0x3A5A JUMPI PUSH2 0x3A5A PUSH2 0x4223 JUMP JUMPDEST SUB PUSH2 0x115D JUMPI PUSH1 0x40 MLOAD PUSH3 0x461BCD PUSH1 0xE5 SHL DUP2 MSTORE PUSH1 0x20 PUSH1 0x4 DUP3 ADD MSTORE PUSH1 0x22 PUSH1 0x24 DUP3 ADD MSTORE PUSH32 0x45434453413A20696E76616C6964207369676E6174757265202773272076616C PUSH1 0x44 DUP3 ADD MSTORE PUSH32 0x7565000000000000000000000000000000000000000000000000000000000000 PUSH1 0x64 DUP3 ADD MSTORE PUSH1 0x84 ADD PUSH2 0x7BF JUMP JUMPDEST PUSH1 0x60 DUP3 SELFBALANCE LT ISZERO PUSH2 0x3B45 JUMPI PUSH1 0x40 MLOAD PUSH3 0x461BCD PUSH1 0xE5 SHL DUP2 MSTORE PUSH1 0x20 PUSH1 0x4 DUP3 ADD MSTORE PUSH1 0x26 PUSH1 0x24 DUP3 ADD MSTORE PUSH32 0x416464726573733A20696E73756666696369656E742062616C616E636520666F PUSH1 0x44 DUP3 ADD MSTORE PUSH32 0x722063616C6C0000000000000000000000000000000000000000000000000000 PUSH1 0x64 DUP3 ADD MSTORE PUSH1 0x84 ADD PUSH2 0x7BF JUMP JUMPDEST PUSH1 0x0 DUP1 DUP7 PUSH1 0x1 PUSH1 0x1 PUSH1 0xA0 SHL SUB AND DUP6 DUP8 PUSH1 0x40 MLOAD PUSH2 0x3B61 SWAP2 SWAP1 PUSH2 0x4601 JUMP JUMPDEST PUSH1 0x0 PUSH1 0x40 MLOAD DUP1 DUP4 SUB DUP2 DUP6 DUP8 GAS CALL SWAP3 POP POP POP RETURNDATASIZE DUP1 PUSH1 0x0 DUP2 EQ PUSH2 0x3B9E JUMPI PUSH1 0x40 MLOAD SWAP2 POP PUSH1 0x1F NOT PUSH1 0x3F RETURNDATASIZE ADD AND DUP3 ADD PUSH1 0x40 MSTORE RETURNDATASIZE DUP3 MSTORE RETURNDATASIZE PUSH1 0x0 PUSH1 0x20 DUP5 ADD RETURNDATACOPY PUSH2 0x3BA3 JUMP JUMPDEST PUSH1 0x60 SWAP2 POP JUMPDEST POP SWAP2 POP SWAP2 POP PUSH2 0x3BB4 DUP8 DUP4 DUP4 DUP8 PUSH2 0x3CF7 JUMP JUMPDEST SWAP8 SWAP7 POP POP POP POP POP POP POP JUMP JUMPDEST PUSH1 0x0 PUSH32 0x8B73C3C69BB8FE3D512ECC4CF759CC79239F7B179B0FFACAA9A75D522B39400F PUSH2 0x3BEA PUSH2 0x3D70 JUMP JUMPDEST PUSH2 0x3BF2 PUSH2 0x3DC9 JUMP JUMPDEST PUSH1 0x40 DUP1 MLOAD PUSH1 0x20 DUP2 ADD SWAP5 SWAP1 SWAP5 MSTORE DUP4 ADD SWAP2 SWAP1 SWAP2 MSTORE PUSH1 0x60 DUP3 ADD MSTORE CHAINID PUSH1 0x80 DUP3 ADD MSTORE ADDRESS PUSH1 0xA0 DUP3 ADD MSTORE PUSH1 0xC0 ADD PUSH1 0x40 MLOAD PUSH1 0x20 DUP2 DUP4 SUB SUB DUP2 MSTORE SWAP1 PUSH1 0x40 MSTORE DUP1 MLOAD SWAP1 PUSH1 0x20 ADD KECCAK256 SWAP1 POP SWAP1 JUMP JUMPDEST PUSH1 0x0 DUP1 PUSH32 0x7FFFFFFFFFFFFFFFFFFFFFFFFFFFFFFF5D576E7357A4501DDFE92F46681B20A0 DUP4 GT ISZERO PUSH2 0x3C6A JUMPI POP PUSH1 0x0 SWAP1 POP PUSH1 0x3 PUSH2 0x3CEE JUMP JUMPDEST PUSH1 0x40 DUP1 MLOAD PUSH1 0x0 DUP1 DUP3 MSTORE PUSH1 0x20 DUP3 ADD DUP1 DUP5 MSTORE DUP10 SWAP1 MSTORE PUSH1 0xFF DUP9 AND SWAP3 DUP3 ADD SWAP3 SWAP1 SWAP3 MSTORE PUSH1 0x60 DUP2 ADD DUP7 SWAP1 MSTORE PUSH1 0x80 DUP2 ADD DUP6 SWAP1 MSTORE PUSH1 0x1 SWAP1 PUSH1 0xA0 ADD PUSH1 0x20 PUSH1 0x40 MLOAD PUSH1 0x20 DUP2 SUB SWAP1 DUP1 DUP5 SUB SWAP1 DUP6 GAS STATICCALL ISZERO DUP1 ISZERO PUSH2 0x3CBE JUMPI RETURNDATASIZE PUSH1 0x0 DUP1 RETURNDATACOPY RETURNDATASIZE PUSH1 0x0 REVERT JUMPDEST POP POP PUSH1 0x40 MLOAD PUSH1 0x1F NOT ADD MLOAD SWAP2 POP POP PUSH1 0x1 PUSH1 0x1 PUSH1 0xA0 SHL SUB DUP2 AND PUSH2 0x3CE7 JUMPI PUSH1 0x0 PUSH1 0x1 SWAP3 POP SWAP3 POP POP PUSH2 0x3CEE JUMP JUMPDEST SWAP2 POP PUSH1 0x0 SWAP1 POP JUMPDEST SWAP5 POP SWAP5 SWAP3 POP POP POP JUMP JUMPDEST PUSH1 0x60 DUP4 ISZERO PUSH2 0x3D66 JUMPI DUP3 MLOAD PUSH1 0x0 SUB PUSH2 0x3D5F JUMPI PUSH1 0x1 PUSH1 0x1 PUSH1 0xA0 SHL SUB DUP6 AND EXTCODESIZE PUSH2 0x3D5F JUMPI PUSH1 0x40 MLOAD PUSH3 0x461BCD PUSH1 0xE5 SHL DUP2 MSTORE PUSH1 0x20 PUSH1 0x4 DUP3 ADD MSTORE PUSH1 0x1D PUSH1 0x24 DUP3 ADD MSTORE PUSH32 0x416464726573733A2063616C6C20746F206E6F6E2D636F6E7472616374000000 PUSH1 0x44 DUP3 ADD MSTORE PUSH1 0x64 ADD PUSH2 0x7BF JUMP JUMPDEST POP DUP2 PUSH2 0x390C JUMP JUMPDEST PUSH2 0x390C DUP4 DUP4 PUSH2 0x3DFA JUMP JUMPDEST PUSH1 0x0 DUP1 PUSH2 0x3D7B PUSH2 0x2B95 JUMP JUMPDEST DUP1 MLOAD SWAP1 SWAP2 POP ISZERO PUSH2 0x3D92 JUMPI DUP1 MLOAD PUSH1 0x20 SWAP1 SWAP2 ADD KECCAK256 SWAP2 SWAP1 POP JUMP JUMPDEST PUSH1 0xFB SLOAD DUP1 ISZERO PUSH2 0x3DA1 JUMPI SWAP3 SWAP2 POP POP JUMP JUMPDEST PUSH32 0xC5D2460186F7233C927E7DB2DCC703C0E500B653CA82273B7BFAD8045D85A470 SWAP3 POP POP POP SWAP1 JUMP JUMPDEST PUSH1 0x0 DUP1 PUSH2 0x3DD4 PUSH2 0x2C27 JUMP JUMPDEST DUP1 MLOAD SWAP1 SWAP2 POP ISZERO PUSH2 0x3DEB JUMPI DUP1 MLOAD PUSH1 0x20 SWAP1 SWAP2 ADD KECCAK256 SWAP2 SWAP1 POP JUMP JUMPDEST PUSH1 0xFC SLOAD DUP1 ISZERO PUSH2 0x3DA1 JUMPI SWAP3 SWAP2 POP POP JUMP JUMPDEST DUP2 MLOAD ISZERO PUSH2 0x3E0A JUMPI DUP2 MLOAD DUP1 DUP4 PUSH1 0x20 ADD REVERT JUMPDEST DUP1 PUSH1 0x40 MLOAD PUSH3 0x461BCD PUSH1 0xE5 SHL DUP2 MSTORE PUSH1 0x4 ADD PUSH2 0x7BF SWAP2 SWAP1 PUSH2 0x44C6 JUMP JUMPDEST PUSH1 0x1 PUSH1 0x1 PUSH1 0xA0 SHL SUB DUP2 AND DUP2 EQ PUSH2 0x115D JUMPI PUSH1 0x0 DUP1 REVERT JUMPDEST PUSH1 0x0 PUSH1 0x20 DUP3 DUP5 SUB SLT ISZERO PUSH2 0x3E4B JUMPI PUSH1 0x0 DUP1 REVERT JUMPDEST DUP2 CALLDATALOAD PUSH2 0x1C93 DUP2 PUSH2 0x3E24 JUMP JUMPDEST PUSH1 0x0 PUSH1 0x20 DUP3 DUP5 SUB SLT ISZERO PUSH2 0x3E68 JUMPI PUSH1 0x0 DUP1 REVERT JUMPDEST DUP2 CALLDATALOAD PUSH32 0xFFFFFFFF00000000000000000000000000000000000000000000000000000000 DUP2 AND DUP2 EQ PUSH2 0x1C93 JUMPI PUSH1 0x0 DUP1 REVERT JUMPDEST PUSH1 0x0 PUSH1 0x20 DUP3 DUP5 SUB SLT ISZERO PUSH2 0x3EAA JUMPI PUSH1 0x0 DUP1 REVERT JUMPDEST POP CALLDATALOAD SWAP2 SWAP1 POP JUMP JUMPDEST PUSH1 0x0 DUP1 PUSH1 0x40 DUP4 DUP6 SUB SLT ISZERO PUSH2 0x3EC4 JUMPI PUSH1 0x0 DUP1 REVERT JUMPDEST DUP3 CALLDATALOAD SWAP2 POP PUSH1 0x20 DUP4 ADD CALLDATALOAD PUSH2 0x3ED6 DUP2 PUSH2 0x3E24 JUMP JUMPDEST DUP1 SWAP2 POP POP SWAP3 POP SWAP3 SWAP1 POP JUMP JUMPDEST PUSH4 0x4E487B71 PUSH1 0xE0 SHL PUSH1 0x0 MSTORE PUSH1 0x41 PUSH1 0x4 MSTORE PUSH1 0x24 PUSH1 0x0 REVERT JUMPDEST PUSH1 0x40 MLOAD PUSH1 0x1F DUP3 ADD PUSH1 0x1F NOT AND DUP2 ADD PUSH8 0xFFFFFFFFFFFFFFFF DUP2 GT DUP3 DUP3 LT OR ISZERO PUSH2 0x3F20 JUMPI PUSH2 0x3F20 PUSH2 0x3EE1 JUMP JUMPDEST PUSH1 0x40 MSTORE SWAP2 SWAP1 POP JUMP JUMPDEST PUSH1 0x0 DUP1 PUSH1 0x0 PUSH1 0x60 DUP5 DUP7 SUB SLT ISZERO PUSH2 0x3F3D JUMPI PUSH1 0x0 DUP1 REVERT JUMPDEST DUP4 CALLDATALOAD SWAP3 POP PUSH1 0x20 DUP5 ADD CALLDATALOAD PUSH8 0xFFFFFFFFFFFFFFFF DUP2 GT ISZERO PUSH2 0x3F5B JUMPI PUSH1 0x0 DUP1 REVERT JUMPDEST DUP5 ADD PUSH1 0x1F DUP2 ADD DUP7 SGT PUSH2 0x3F6C JUMPI PUSH1 0x0 DUP1 REVERT JUMPDEST DUP1 CALLDATALOAD PUSH8 0xFFFFFFFFFFFFFFFF DUP2 GT ISZERO PUSH2 0x3F86 JUMPI PUSH2 0x3F86 PUSH2 0x3EE1 JUMP JUMPDEST DUP1 PUSH1 0x5 SHL PUSH2 0x3F96 PUSH1 0x20 DUP3 ADD PUSH2 0x3EF7 JUMP JUMPDEST SWAP2 DUP3 MSTORE PUSH1 0x20 DUP2 DUP5 ADD DUP2 ADD SWAP3 SWAP1 DUP2 ADD SWAP1 DUP10 DUP5 GT ISZERO PUSH2 0x3FB2 JUMPI PUSH1 0x0 DUP1 REVERT JUMPDEST PUSH1 0x20 DUP6 ADD SWAP5 POP JUMPDEST DUP4 DUP6 LT ISZERO PUSH2 0x3FD8 JUMPI DUP5 CALLDATALOAD DUP1 DUP4 MSTORE PUSH1 0x20 SWAP6 DUP7 ADD SWAP6 SWAP1 SWAP4 POP SWAP1 SWAP2 ADD SWAP1 PUSH2 0x3FB9 JUMP JUMPDEST SWAP7 SWAP10 SWAP7 SWAP9 POP POP POP POP PUSH1 0x40 SWAP5 SWAP1 SWAP5 ADD CALLDATALOAD SWAP4 POP POP POP JUMP JUMPDEST PUSH1 0x0 DUP1 PUSH1 0x40 DUP4 DUP6 SUB SLT ISZERO PUSH2 0x4000 JUMPI PUSH1 0x0 DUP1 REVERT JUMPDEST DUP3 CALLDATALOAD PUSH2 0x400B DUP2 PUSH2 0x3E24 JUMP JUMPDEST SWAP5 PUSH1 0x20 SWAP4 SWAP1 SWAP4 ADD CALLDATALOAD SWAP4 POP POP POP JUMP JUMPDEST PUSH1 0x0 DUP1 PUSH1 0x0 DUP1 PUSH1 0x0 DUP1 PUSH1 0xC0 DUP8 DUP10 SUB SLT ISZERO PUSH2 0x4032 JUMPI PUSH1 0x0 DUP1 REVERT JUMPDEST DUP7 CALLDATALOAD SWAP6 POP PUSH1 0x20 DUP8 ADD CALLDATALOAD SWAP5 POP PUSH1 0x40 DUP8 ADD CALLDATALOAD PUSH2 0x404B DUP2 PUSH2 0x3E24 JUMP JUMPDEST SWAP4 POP PUSH1 0x60 DUP8 ADD CALLDATALOAD SWAP3 POP PUSH1 0x80 DUP8 ADD CALLDATALOAD SWAP2 POP PUSH1 0xA0 DUP8 ADD CALLDATALOAD PUSH8 0xFFFFFFFFFFFFFFFF DUP2 GT ISZERO PUSH2 0x4075 JUMPI PUSH1 0x0 DUP1 REVERT JUMPDEST DUP8 ADD PUSH1 0x1F DUP2 ADD DUP10 SGT PUSH2 0x4086 JUMPI PUSH1 0x0 DUP1 REVERT JUMPDEST DUP1 CALLDATALOAD PUSH8 0xFFFFFFFFFFFFFFFF DUP2 GT ISZERO PUSH2 0x40A0 JUMPI PUSH2 0x40A0 PUSH2 0x3EE1 JUMP JUMPDEST PUSH2 0x40B3 PUSH1 0x20 PUSH1 0x1F NOT PUSH1 0x1F DUP5 ADD AND ADD PUSH2 0x3EF7 JUMP JUMPDEST DUP2 DUP2 MSTORE DUP11 PUSH1 0x20 DUP4 DUP6 ADD ADD GT ISZERO PUSH2 0x40C8 JUMPI PUSH1 0x0 DUP1 REVERT JUMPDEST DUP2 PUSH1 0x20 DUP5 ADD PUSH1 0x20 DUP4 ADD CALLDATACOPY PUSH1 0x0 PUSH1 0x20 DUP4 DUP4 ADD ADD MSTORE DUP1 SWAP4 POP POP POP POP SWAP3 SWAP6 POP SWAP3 SWAP6 POP SWAP3 SWAP6 JUMP JUMPDEST PUSH1 0x0 JUMPDEST DUP4 DUP2 LT ISZERO PUSH2 0x4106 JUMPI DUP2 DUP2 ADD MLOAD DUP4 DUP3 ADD MSTORE PUSH1 0x20 ADD PUSH2 0x40EE JUMP JUMPDEST POP POP PUSH1 0x0 SWAP2 ADD MSTORE JUMP JUMPDEST PUSH1 0x0 DUP2 MLOAD DUP1 DUP5 MSTORE PUSH2 0x4127 DUP2 PUSH1 0x20 DUP7 ADD PUSH1 0x20 DUP7 ADD PUSH2 0x40EB JUMP JUMPDEST PUSH1 0x1F ADD PUSH1 0x1F NOT AND SWAP3 SWAP1 SWAP3 ADD PUSH1 0x20 ADD SWAP3 SWAP2 POP POP JUMP JUMPDEST PUSH1 0x0 DUP2 MLOAD DUP1 DUP5 MSTORE PUSH1 0x20 DUP5 ADD SWAP4 POP PUSH1 0x20 DUP4 ADD PUSH1 0x0 JUMPDEST DUP3 DUP2 LT ISZERO PUSH2 0x416D JUMPI DUP2 MLOAD DUP7 MSTORE PUSH1 0x20 SWAP6 DUP7 ADD SWAP6 SWAP1 SWAP2 ADD SWAP1 PUSH1 0x1 ADD PUSH2 0x414F JUMP JUMPDEST POP SWAP4 SWAP5 SWAP4 POP POP POP POP JUMP JUMPDEST PUSH32 0xFF00000000000000000000000000000000000000000000000000000000000000 DUP9 AND DUP2 MSTORE PUSH1 0xE0 PUSH1 0x20 DUP3 ADD MSTORE PUSH1 0x0 PUSH2 0x41B2 PUSH1 0xE0 DUP4 ADD DUP10 PUSH2 0x410F JUMP JUMPDEST DUP3 DUP2 SUB PUSH1 0x40 DUP5 ADD MSTORE PUSH2 0x41C4 DUP2 DUP10 PUSH2 0x410F JUMP JUMPDEST SWAP1 POP DUP7 PUSH1 0x60 DUP5 ADD MSTORE PUSH1 0x1 PUSH1 0x1 PUSH1 0xA0 SHL SUB DUP7 AND PUSH1 0x80 DUP5 ADD MSTORE DUP5 PUSH1 0xA0 DUP5 ADD MSTORE DUP3 DUP2 SUB PUSH1 0xC0 DUP5 ADD MSTORE PUSH2 0x41F3 DUP2 DUP6 PUSH2 0x413B JUMP JUMPDEST SWAP11 SWAP10 POP POP POP POP POP POP POP POP POP POP JUMP JUMPDEST PUSH1 0x0 DUP1 PUSH1 0x40 DUP4 DUP6 SUB SLT ISZERO PUSH2 0x4214 JUMPI PUSH1 0x0 DUP1 REVERT JUMPDEST POP POP DUP1 CALLDATALOAD SWAP3 PUSH1 0x20 SWAP1 SWAP2 ADD CALLDATALOAD SWAP2 POP JUMP JUMPDEST PUSH4 0x4E487B71 PUSH1 0xE0 SHL PUSH1 0x0 MSTORE PUSH1 0x21 PUSH1 0x4 MSTORE PUSH1 0x24 PUSH1 0x0 REVERT JUMPDEST PUSH1 0x1 PUSH1 0x1 PUSH1 0xA0 SHL SUB DUP10 DUP2 AND DUP3 MSTORE DUP9 AND PUSH1 0x20 DUP3 ADD MSTORE PUSH1 0x40 DUP2 ADD DUP8 SWAP1 MSTORE PUSH1 0x60 DUP2 ADD DUP7 SWAP1 MSTORE PUSH2 0x100 DUP2 ADD PUSH1 0x5 DUP7 LT PUSH2 0x427E JUMPI PUSH4 0x4E487B71 PUSH1 0xE0 SHL PUSH1 0x0 MSTORE PUSH1 0x21 PUSH1 0x4 MSTORE PUSH1 0x24 PUSH1 0x0 REVERT JUMPDEST DUP6 PUSH1 0x80 DUP4 ADD MSTORE DUP5 PUSH1 0xA0 DUP4 ADD MSTORE DUP4 PUSH1 0xC0 DUP4 ADD MSTORE DUP3 PUSH1 0xE0 DUP4 ADD MSTORE SWAP10 SWAP9 POP POP POP POP POP POP POP POP POP JUMP JUMPDEST PUSH1 0x0 DUP1 PUSH1 0x0 DUP1 PUSH1 0x0 PUSH1 0xA0 DUP7 DUP9 SUB SLT ISZERO PUSH2 0x42BB JUMPI PUSH1 0x0 DUP1 REVERT JUMPDEST DUP6 CALLDATALOAD PUSH2 0x42C6 DUP2 PUSH2 0x3E24 JUMP JUMPDEST SWAP5 POP PUSH1 0x20 DUP7 ADD CALLDATALOAD PUSH2 0x42D6 DUP2 PUSH2 0x3E24 JUMP JUMPDEST SWAP4 POP PUSH1 0x40 DUP7 ADD CALLDATALOAD PUSH2 0x42E6 DUP2 PUSH2 0x3E24 JUMP JUMPDEST SWAP5 SWAP8 SWAP4 SWAP7 POP SWAP4 SWAP5 PUSH1 0x60 DUP2 ADD CALLDATALOAD SWAP5 POP PUSH1 0x80 ADD CALLDATALOAD SWAP3 SWAP2 POP POP JUMP JUMPDEST PUSH4 0x4E487B71 PUSH1 0xE0 SHL PUSH1 0x0 MSTORE PUSH1 0x32 PUSH1 0x4 MSTORE PUSH1 0x24 PUSH1 0x0 REVERT JUMPDEST PUSH4 0x4E487B71 PUSH1 0xE0 SHL PUSH1 0x0 MSTORE PUSH1 0x11 PUSH1 0x4 MSTORE PUSH1 0x24 PUSH1 0x0 REVERT JUMPDEST DUP1 DUP3 MUL DUP2 ISZERO DUP3 DUP3 DIV DUP5 EQ OR PUSH2 0x928 JUMPI PUSH2 0x928 PUSH2 0x4314 JUMP JUMPDEST PUSH1 0x0 DUP3 PUSH2 0x435E JUMPI PUSH4 0x4E487B71 PUSH1 0xE0 SHL PUSH1 0x0 MSTORE PUSH1 0x12 PUSH1 0x4 MSTORE PUSH1 0x24 PUSH1 0x0 REVERT JUMPDEST POP DIV SWAP1 JUMP JUMPDEST DUP1 DUP3 ADD DUP1 DUP3 GT ISZERO PUSH2 0x928 JUMPI PUSH2 0x928 PUSH2 0x4314 JUMP JUMPDEST DUP2 DUP2 SUB DUP2 DUP2 GT ISZERO PUSH2 0x928 JUMPI PUSH2 0x928 PUSH2 0x4314 JUMP JUMPDEST PUSH1 0x0 PUSH1 0x20 DUP3 DUP5 SUB SLT ISZERO PUSH2 0x439B JUMPI PUSH1 0x0 DUP1 REVERT JUMPDEST POP MLOAD SWAP2 SWAP1 POP JUMP JUMPDEST DUP4 DUP2 MSTORE PUSH1 0x60 PUSH1 0x20 DUP3 ADD MSTORE PUSH1 0x0 PUSH2 0x43BB PUSH1 0x60 DUP4 ADD DUP6 PUSH2 0x413B JUMP JUMPDEST SWAP1 POP DUP3 PUSH1 0x40 DUP4 ADD MSTORE SWAP5 SWAP4 POP POP POP POP JUMP JUMPDEST PUSH1 0x0 PUSH1 0x20 DUP3 DUP5 SUB SLT ISZERO PUSH2 0x43DD JUMPI PUSH1 0x0 DUP1 REVERT JUMPDEST DUP2 MLOAD PUSH2 0x1C93 DUP2 PUSH2 0x3E24 JUMP JUMPDEST PUSH1 0x0 PUSH1 0x20 DUP3 DUP5 SUB SLT ISZERO PUSH2 0x43FA JUMPI PUSH1 0x0 DUP1 REVERT JUMPDEST DUP2 MLOAD PUSH1 0xFF DUP2 AND DUP2 EQ PUSH2 0x1C93 JUMPI PUSH1 0x0 DUP1 REVERT JUMPDEST PUSH1 0x1 DUP2 DUP2 SHR SWAP1 DUP3 AND DUP1 PUSH2 0x441F JUMPI PUSH1 0x7F DUP3 AND SWAP2 POP JUMPDEST PUSH1 0x20 DUP3 LT DUP2 SUB PUSH2 0x443F JUMPI PUSH4 0x4E487B71 PUSH1 0xE0 SHL PUSH1 0x0 MSTORE PUSH1 0x22 PUSH1 0x4 MSTORE PUSH1 0x24 PUSH1 0x0 REVERT JUMPDEST POP SWAP2 SWAP1 POP JUMP JUMPDEST PUSH32 0x416363657373436F6E74726F6C3A206163636F756E7420000000000000000000 DUP2 MSTORE PUSH1 0x0 DUP4 MLOAD PUSH2 0x447D DUP2 PUSH1 0x17 DUP6 ADD PUSH1 0x20 DUP9 ADD PUSH2 0x40EB JUMP JUMPDEST PUSH32 0x206973206D697373696E6720726F6C6520000000000000000000000000000000 PUSH1 0x17 SWAP2 DUP5 ADD SWAP2 DUP3 ADD MSTORE DUP4 MLOAD PUSH2 0x44BA DUP2 PUSH1 0x28 DUP5 ADD PUSH1 0x20 DUP9 ADD PUSH2 0x40EB JUMP JUMPDEST ADD PUSH1 0x28 ADD SWAP5 SWAP4 POP POP POP POP JUMP JUMPDEST PUSH1 0x20 DUP2 MSTORE PUSH1 0x0 PUSH2 0x1C93 PUSH1 0x20 DUP4 ADD DUP5 PUSH2 0x410F JUMP JUMPDEST PUSH1 0x0 PUSH1 0x20 DUP3 DUP5 SUB SLT ISZERO PUSH2 0x44EB JUMPI PUSH1 0x0 DUP1 REVERT JUMPDEST DUP2 MLOAD DUP1 ISZERO ISZERO DUP2 EQ PUSH2 0x1C93 JUMPI PUSH1 0x0 DUP1 REVERT JUMPDEST PUSH1 0x1F DUP3 GT ISZERO PUSH2 0xA38 JUMPI DUP1 PUSH1 0x0 MSTORE PUSH1 0x20 PUSH1 0x0 KECCAK256 PUSH1 0x1F DUP5 ADD PUSH1 0x5 SHR DUP2 ADD PUSH1 0x20 DUP6 LT ISZERO PUSH2 0x4522 JUMPI POP DUP1 JUMPDEST PUSH1 0x1F DUP5 ADD PUSH1 0x5 SHR DUP3 ADD SWAP2 POP JUMPDEST DUP2 DUP2 LT ISZERO PUSH2 0x26A4 JUMPI PUSH1 0x0 DUP2 SSTORE PUSH1 0x1 ADD PUSH2 0x452E JUMP JUMPDEST DUP2 MLOAD PUSH8 0xFFFFFFFFFFFFFFFF DUP2 GT ISZERO PUSH2 0x455C JUMPI PUSH2 0x455C PUSH2 0x3EE1 JUMP JUMPDEST PUSH2 0x4570 DUP2 PUSH2 0x456A DUP5 SLOAD PUSH2 0x440B JUMP JUMPDEST DUP5 PUSH2 0x44FB JUMP JUMPDEST PUSH1 0x20 PUSH1 0x1F DUP3 GT PUSH1 0x1 DUP2 EQ PUSH2 0x45A4 JUMPI PUSH1 0x0 DUP4 ISZERO PUSH2 0x458C JUMPI POP DUP5 DUP3 ADD MLOAD JUMPDEST PUSH1 0x0 NOT PUSH1 0x3 DUP6 SWAP1 SHL SHR NOT AND PUSH1 0x1 DUP5 SWAP1 SHL OR DUP5 SSTORE PUSH2 0x26A4 JUMP JUMPDEST PUSH1 0x0 DUP5 DUP2 MSTORE PUSH1 0x20 DUP2 KECCAK256 PUSH1 0x1F NOT DUP6 AND SWAP2 JUMPDEST DUP3 DUP2 LT ISZERO PUSH2 0x45D4 JUMPI DUP8 DUP6 ADD MLOAD DUP3 SSTORE PUSH1 0x20 SWAP5 DUP6 ADD SWAP5 PUSH1 0x1 SWAP1 SWAP3 ADD SWAP2 ADD PUSH2 0x45B4 JUMP JUMPDEST POP DUP5 DUP3 LT ISZERO PUSH2 0x45F2 JUMPI DUP7 DUP5 ADD MLOAD PUSH1 0x0 NOT PUSH1 0x3 DUP8 SWAP1 SHL PUSH1 0xF8 AND SHR NOT AND DUP2 SSTORE JUMPDEST POP POP POP POP PUSH1 0x1 SWAP1 DUP2 SHL ADD SWAP1 SSTORE POP JUMP JUMPDEST PUSH1 0x0 DUP3 MLOAD PUSH2 0x4613 DUP2 DUP5 PUSH1 0x20 DUP8 ADD PUSH2 0x40EB JUMP JUMPDEST SWAP2 SWAP1 SWAP2 ADD SWAP3 SWAP2 POP POP JUMP JUMPDEST PUSH1 0x0 DUP2 PUSH2 0x462C JUMPI PUSH2 0x462C PUSH2 0x4314 JUMP JUMPDEST POP PUSH1 0x0 NOT ADD SWAP1 JUMP JUMPDEST PUSH4 0x4E487B71 PUSH1 0xE0 SHL PUSH1 0x0 MSTORE PUSH1 0x31 PUSH1 0x4 MSTORE PUSH1 0x24 PUSH1 0x0 REVERT INVALID LOG2 PUSH5 0x6970667358 0x22 SLT KECCAK256 0xEB 0xB7 PREVRANDAO NUMBER PUSH31 0x723D0C7F87FE5AD97814C063BBCB1A061EF6C8204DA6BAB77F47A964736F6C PUSH4 0x4300081C STOP CALLER "},"methodIdentifiers":{"BALANCER_ROLE()":"30d3c534","DEFAULT_ADMIN_ROLE()":"a217fddf","MIN_PAYBACK_RATIO()":"7b9f7d94","PAUSER_ROLE()":"e63ab1e9","SETTER_ROLE()":"a2011b3f","TYPE_HASH()":"64d4c819","UNPAUSER_ROLE()":"fb1bb9de","acceptWithdrawRequest(uint256,uint256[],uint256)":"3e55fde0","cancelWithdrawRequest(uint256)":"cce4705b","claimForWithdrawRequest(uint256)":"86da0323","collateralTokenAddress()":"6d9dd201","collateralTokenDecimals()":"b54790d8","currentDeposit()":"e94b2f44","deposit(uint256)":"b6b55f25","depositLimit()":"ecf70858","eip712Domain()":"84b0196e","getRoleAdmin(bytes32)":"248a9ca3","getRoleMember(bytes32,uint256)":"9010d07c","getRoleMemberCount(bytes32)":"ca15c873","grantRole(bytes32,address)":"2f2ff15d","hasRole(bytes32,address)":"91d14854","initialize(address,address,address,uint256,uint256)":"a6b63eb8","lockedBalance()":"7b80889b","minimumPaybackRatio()":"7278bd9b","pause()":"8456cb59","paused()":"5c975abb","pendingWithdrawalAmount(address)":"deaf30b2","rejectWithdrawRequest(uint256)":"81548fed","renounceRole(bytes32,address)":"36568abe","requestWithdraw(uint256,uint256,address,uint256,uint256,bytes)":"849fc72b","revokeRole(bytes32,address)":"d547741f","setDepositLimit(uint256)":"bdc8144b","setMinimumPaybackRatio(uint256)":"6e74bf96","setSigner(address)":"6c19e783","setSolver(address)":"1f879433","setSymmioAddress(address)":"01569e3a","setWithdrawalPeriod(uint256)":"973b294f","signer()":"238ac933","solver()":"49a7a26d","supportsInterface(bytes4)":"01ffc9a7","symmio()":"5849b93d","unpause()":"3f4ba83a","usedNonces(address,uint256)":"6a8a6894","withdrawNotLockedCollateralTokens(address,uint256)":"f36fbab7","withdrawRequests(uint256)":"992a7dfb","withdrawalPeriod()":"bca7093d"}},"storageLayout":{"storage":[{"astId":612,"contract":"contracts/OnChainSymmioVaultV2.sol:OnChainSymmioVaultV2","label":"_initialized","offset":0,"slot":"0","type":"t_uint8"},{"astId":615,"contract":"contracts/OnChainSymmioVaultV2.sol:OnChainSymmioVaultV2","label":"_initializing","offset":1,"slot":"0","type":"t_bool"},{"astId":1367,"contract":"contracts/OnChainSymmioVaultV2.sol:OnChainSymmioVaultV2","label":"__gap","offset":0,"slot":"1","type":"t_array(t_uint256)50_storage"},{"astId":2292,"contract":"contracts/OnChainSymmioVaultV2.sol:OnChainSymmioVaultV2","label":"__gap","offset":0,"slot":"51","type":"t_array(t_uint256)50_storage"},{"astId":174,"contract":"contracts/OnChainSymmioVaultV2.sol:OnChainSymmioVaultV2","label":"_roles","offset":0,"slot":"101","type":"t_mapping(t_bytes32,t_struct(RoleData)169_storage)"},{"astId":481,"contract":"contracts/OnChainSymmioVaultV2.sol:OnChainSymmioVaultV2","label":"__gap","offset":0,"slot":"102","type":"t_array(t_uint256)49_storage"},{"astId":22,"contract":"contracts/OnChainSymmioVaultV2.sol:OnChainSymmioVaultV2","label":"_roleMembers","offset":0,"slot":"151","type":"t_mapping(t_bytes32,t_struct(AddressSet)3602_storage)"},{"astId":144,"contract":"contracts/OnChainSymmioVaultV2.sol:OnChainSymmioVaultV2","label":"__gap","offset":0,"slot":"152","type":"t_array(t_uint256)49_storage"},{"astId":796,"contract":"contracts/OnChainSymmioVaultV2.sol:OnChainSymmioVaultV2","label":"_paused","offset":0,"slot":"201","type":"t_bool"},{"astId":901,"contract":"contracts/OnChainSymmioVaultV2.sol:OnChainSymmioVaultV2","label":"__gap","offset":0,"slot":"202","type":"t_array(t_uint256)49_storage"},{"astId":1982,"contract":"contracts/OnChainSymmioVaultV2.sol:OnChainSymmioVaultV2","label":"_hashedName","offset":0,"slot":"251","type":"t_bytes32"},{"astId":1985,"contract":"contracts/OnChainSymmioVaultV2.sol:OnChainSymmioVaultV2","label":"_hashedVersion","offset":0,"slot":"252","type":"t_bytes32"},{"astId":1987,"contract":"contracts/OnChainSymmioVaultV2.sol:OnChainSymmioVaultV2","label":"_name","offset":0,"slot":"253","type":"t_string_storage"},{"astId":1989,"contract":"contracts/OnChainSymmioVaultV2.sol:OnChainSymmioVaultV2","label":"_version","offset":0,"slot":"254","type":"t_string_storage"},{"astId":2247,"contract":"contracts/OnChainSymmioVaultV2.sol:OnChainSymmioVaultV2","label":"__gap","offset":0,"slot":"255","type":"t_array(t_uint256)48_storage"},{"astId":917,"contract":"contracts/OnChainSymmioVaultV2.sol:OnChainSymmioVaultV2","label":"_status","offset":0,"slot":"303","type":"t_uint256"},{"astId":986,"contract":"contracts/OnChainSymmioVaultV2.sol:OnChainSymmioVaultV2","label":"__gap","offset":0,"slot":"304","type":"t_array(t_uint256)49_storage"},{"astId":6356,"contract":"contracts/OnChainSymmioVaultV2.sol:OnChainSymmioVaultV2","label":"symmio","offset":0,"slot":"353","type":"t_contract(ISymmio)7472"},{"astId":6358,"contract":"contracts/OnChainSymmioVaultV2.sol:OnChainSymmioVaultV2","label":"solver","offset":0,"slot":"354","type":"t_address"},{"astId":6360,"contract":"contracts/OnChainSymmioVaultV2.sol:OnChainSymmioVaultV2","label":"signer","offset":0,"slot":"355","type":"t_address"},{"astId":6362,"contract":"contracts/OnChainSymmioVaultV2.sol:OnChainSymmioVaultV2","label":"collateralTokenAddress","offset":0,"slot":"356","type":"t_address"},{"astId":6364,"contract":"contracts/OnChainSymmioVaultV2.sol:OnChainSymmioVaultV2","label":"lockedBalance","offset":0,"slot":"357","type":"t_uint256"},{"astId":6366,"contract":"contracts/OnChainSymmioVaultV2.sol:OnChainSymmioVaultV2","label":"minimumPaybackRatio","offset":0,"slot":"358","type":"t_uint256"},{"astId":6368,"contract":"contracts/OnChainSymmioVaultV2.sol:OnChainSymmioVaultV2","label":"depositLimit","offset":0,"slot":"359","type":"t_uint256"},{"astId":6370,"contract":"contracts/OnChainSymmioVaultV2.sol:OnChainSymmioVaultV2","label":"currentDeposit","offset":0,"slot":"360","type":"t_uint256"},{"astId":6372,"contract":"contracts/OnChainSymmioVaultV2.sol:OnChainSymmioVaultV2","label":"collateralTokenDecimals","offset":0,"slot":"361","type":"t_uint256"},{"astId":6376,"contract":"contracts/OnChainSymmioVaultV2.sol:OnChainSymmioVaultV2","label":"withdrawRequests","offset":0,"slot":"362","type":"t_array(t_struct(WithdrawRequest)7377_storage)dyn_storage"},{"astId":6378,"contract":"contracts/OnChainSymmioVaultV2.sol:OnChainSymmioVaultV2","label":"withdrawalPeriod","offset":0,"slot":"363","type":"t_uint256"},{"astId":6382,"contract":"contracts/OnChainSymmioVaultV2.sol:OnChainSymmioVaultV2","label":"pendingWithdrawalAmount","offset":0,"slot":"364","type":"t_mapping(t_address,t_uint256)"},{"astId":6388,"contract":"contracts/OnChainSymmioVaultV2.sol:OnChainSymmioVaultV2","label":"usedNonces","offset":0,"slot":"365","type":"t_mapping(t_address,t_mapping(t_uint256,t_bool))"}],"types":{"t_address":{"encoding":"inplace","label":"address","numberOfBytes":"20"},"t_array(t_bytes32)dyn_storage":{"base":"t_bytes32","encoding":"dynamic_array","label":"bytes32[]","numberOfBytes":"32"},"t_array(t_struct(WithdrawRequest)7377_storage)dyn_storage":{"base":"t_struct(WithdrawRequest)7377_storage","encoding":"dynamic_array","label":"struct IOnChainSymmioVault.WithdrawRequest[]","numberOfBytes":"32"},"t_array(t_uint256)48_storage":{"base":"t_uint256","encoding":"inplace","label":"uint256[48]","numberOfBytes":"1536"},"t_array(t_uint256)49_storage":{"base":"t_uint256","encoding":"inplace","label":"uint256[49]","numberOfBytes":"1568"},"t_array(t_uint256)50_storage":{"base":"t_uint256","encoding":"inplace","label":"uint256[50]","numberOfBytes":"1600"},"t_bool":{"encoding":"inplace","label":"bool","numberOfBytes":"1"},"t_bytes32":{"encoding":"inplace","label":"bytes32","numberOfBytes":"32"},"t_contract(ISymmio)7472":{"encoding":"inplace","label":"contract ISymmio","numberOfBytes":"20"},"t_enum(RequestStatus)7383":{"encoding":"inplace","label":"enum IOnChainSymmioVault.RequestStatus","numberOfBytes":"1"},"t_mapping(t_address,t_bool)":{"encoding":"mapping","key":"t_address","label":"mapping(address => bool)","numberOfBytes":"32","value":"t_bool"},"t_mapping(t_address,t_mapping(t_uint256,t_bool))":{"encoding":"mapping","key":"t_address","label":"mapping(address => mapping(uint256 => bool))","numberOfBytes":"32","value":"t_mapping(t_uint256,t_bool)"},"t_mapping(t_address,t_uint256)":{"encoding":"mapping","key":"t_address","label":"mapping(address => uint256)","numberOfBytes":"32","value":"t_uint256"},"t_mapping(t_bytes32,t_struct(AddressSet)3602_storage)":{"encoding":"mapping","key":"t_bytes32","label":"mapping(bytes32 => struct EnumerableSetUpgradeable.AddressSet)","numberOfBytes":"32","value":"t_struct(AddressSet)3602_storage"},"t_mapping(t_bytes32,t_struct(RoleData)169_storage)":{"encoding":"mapping","key":"t_bytes32","label":"mapping(bytes32 => struct AccessControlUpgradeable.RoleData)","numberOfBytes":"32","value":"t_struct(RoleData)169_storage"},"t_mapping(t_bytes32,t_uint256)":{"encoding":"mapping","key":"t_bytes32","label":"mapping(bytes32 => uint256)","numberOfBytes":"32","value":"t_uint256"},"t_mapping(t_uint256,t_bool)":{"encoding":"mapping","key":"t_uint256","label":"mapping(uint256 => bool)","numberOfBytes":"32","value":"t_bool"},"t_string_storage":{"encoding":"bytes","label":"string","numberOfBytes":"32"},"t_struct(AddressSet)3602_storage":{"encoding":"inplace","label":"struct EnumerableSetUpgradeable.AddressSet","members":[{"astId":3601,"contract":"contracts/OnChainSymmioVaultV2.sol:OnChainSymmioVaultV2","label":"_inner","offset":0,"slot":"0","type":"t_struct(Set)3287_storage"}],"numberOfBytes":"64"},"t_struct(RoleData)169_storage":{"encoding":"inplace","label":"struct AccessControlUpgradeable.RoleData","members":[{"astId":166,"contract":"contracts/OnChainSymmioVaultV2.sol:OnChainSymmioVaultV2","label":"members","offset":0,"slot":"0","type":"t_mapping(t_address,t_bool)"},{"astId":168,"contract":"contracts/OnChainSymmioVaultV2.sol:OnChainSymmioVaultV2","label":"adminRole","offset":0,"slot":"1","type":"t_bytes32"}],"numberOfBytes":"64"},"t_struct(Set)3287_storage":{"encoding":"inplace","label":"struct EnumerableSetUpgradeable.Set","members":[{"astId":3282,"contract":"contracts/OnChainSymmioVaultV2.sol:OnChainSymmioVaultV2","label":"_values","offset":0,"slot":"0","type":"t_array(t_bytes32)dyn_storage"},{"astId":3286,"contract":"contracts/OnChainSymmioVaultV2.sol:OnChainSymmioVaultV2","label":"_indexes","offset":0,"slot":"1","type":"t_mapping(t_bytes32,t_uint256)"}],"numberOfBytes":"64"},"t_struct(WithdrawRequest)7377_storage":{"encoding":"inplace","label":"struct IOnChainSymmioVault.WithdrawRequest","members":[{"astId":7361,"contract":"contracts/OnChainSymmioVaultV2.sol:OnChainSymmioVaultV2","label":"receiver","offset":0,"slot":"0","type":"t_address"},{"astId":7363,"contract":"contracts/OnChainSymmioVaultV2.sol:OnChainSymmioVaultV2","label":"sender","offset":0,"slot":"1","type":"t_address"},{"astId":7365,"contract":"contracts/OnChainSymmioVaultV2.sol:OnChainSymmioVaultV2","label":"amount","offset":0,"slot":"2","type":"t_uint256"},{"astId":7367,"contract":"contracts/OnChainSymmioVaultV2.sol:OnChainSymmioVaultV2","label":"minAmountOut","offset":0,"slot":"3","type":"t_uint256"},{"astId":7370,"contract":"contracts/OnChainSymmioVaultV2.sol:OnChainSymmioVaultV2","label":"status","offset":0,"slot":"4","type":"t_enum(RequestStatus)7383"},{"astId":7372,"contract":"contracts/OnChainSymmioVaultV2.sol:OnChainSymmioVaultV2","label":"acceptedRatio","offset":0,"slot":"5","type":"t_uint256"},{"astId":7374,"contract":"contracts/OnChainSymmioVaultV2.sol:OnChainSymmioVaultV2","label":"acceptedWithdrawRequestTimestamp","offset":0,"slot":"6","type":"t_uint256"},{"astId":7376,"contract":"contracts/OnChainSymmioVaultV2.sol:OnChainSymmioVaultV2","label":"claimableAt","offset":0,"slot":"7","type":"t_uint256"}],"numberOfBytes":"256"},"t_uint256":{"encoding":"inplace","label":"uint256","numberOfBytes":"32"},"t_uint8":{"encoding":"inplace","label":"uint8","numberOfBytes":"1"}}}}}}