{"contracts/VestingXINTX.sol":{"VestingXINTX":{"abi":[{"inputs":[],"stateMutability":"nonpayable","type":"constructor"},{"anonymous":false,"inputs":[{"indexed":false,"internalType":"uint8","name":"version","type":"uint8"}],"name":"Initialized","type":"event"},{"anonymous":false,"inputs":[{"indexed":true,"internalType":"address","name":"previousOwner","type":"address"},{"indexed":true,"internalType":"address","name":"newOwner","type":"address"}],"name":"OwnershipTransferred","type":"event"},{"inputs":[],"name":"PRECISION","outputs":[{"internalType":"uint256","name":"","type":"uint256"}],"stateMutability":"view","type":"function"},{"inputs":[],"name":"START_VESTING","outputs":[{"internalType":"uint256","name":"","type":"uint256"}],"stateMutability":"view","type":"function"},{"inputs":[],"name":"VESTING_DURATION","outputs":[{"internalType":"uint256","name":"","type":"uint256"}],"stateMutability":"view","type":"function"},{"inputs":[{"internalType":"address","name":"","type":"address"}],"name":"claimableAmount","outputs":[{"internalType":"uint256","name":"","type":"uint256"}],"stateMutability":"view","type":"function"},{"inputs":[{"internalType":"address","name":"","type":"address"}],"name":"claimedAmount","outputs":[{"internalType":"bool","name":"","type":"bool"}],"stateMutability":"view","type":"function"},{"inputs":[{"internalType":"uint256","name":"_intxAmount","type":"uint256"}],"name":"deposit","outputs":[],"stateMutability":"nonpayable","type":"function"},{"inputs":[{"internalType":"address","name":"_intx","type":"address"},{"internalType":"address","name":"_xIntx","type":"address"},{"internalType":"uint256","name":"_startVesting","type":"uint256"},{"internalType":"uint256","name":"_vestingDuration","type":"uint256"},{"internalType":"address[]","name":"_receivers","type":"address[]"},{"internalType":"uint256[]","name":"_amounts","type":"uint256[]"}],"name":"initialize","outputs":[],"stateMutability":"nonpayable","type":"function"},{"inputs":[],"name":"intx","outputs":[{"internalType":"contract IERC20","name":"","type":"address"}],"stateMutability":"view","type":"function"},{"inputs":[],"name":"owner","outputs":[{"internalType":"address","name":"","type":"address"}],"stateMutability":"view","type":"function"},{"inputs":[],"name":"renounceOwnership","outputs":[],"stateMutability":"nonpayable","type":"function"},{"inputs":[],"name":"totalAllocation","outputs":[{"internalType":"uint256","name":"","type":"uint256"}],"stateMutability":"view","type":"function"},{"inputs":[{"internalType":"address","name":"newOwner","type":"address"}],"name":"transferOwnership","outputs":[],"stateMutability":"nonpayable","type":"function"},{"inputs":[],"name":"xIntx","outputs":[{"internalType":"contract IStakedINTX","name":"","type":"address"}],"stateMutability":"view","type":"function"}],"evm":{"bytecode":{"linkReferences":{},"object":"608060405234801561001057600080fd5b5061001961001e565b6100dd565b600054610100900460ff161561008a5760405162461bcd60e51b815260206004820152602760248201527f496e697469616c697a61626c653a20636f6e747261637420697320696e697469604482015266616c697a696e6760c81b606482015260840160405180910390fd5b60005460ff908116146100db576000805460ff191660ff9081179091556040519081527f7f26b83ff96e1f2b6a682f133852f6798a09c465da95921460cefb38474024989060200160405180910390a15b565b610b7b806100ec6000396000f3fe608060405234801561001057600080fd5b50600436106100df5760003560e01c806379203dc41161008c578063aa264c9b11610066578063aa264c9b146101cd578063aaf5eb68146101d6578063b6b55f25146101df578063f2fde38b146101f257600080fd5b806379203dc414610193578063898850491461019c5780638da5cb5b146101bc57600080fd5b806346f7d6c9116100bd57806346f7d6c91461015c5780634cfc4d3014610174578063715018a61461018b57600080fd5b806304e86903146100e457806322bf40e41461011c57806327a7af8914610131575b600080fd5b6101076100f2366004610967565b609d6020526000908152604090205460ff1681565b60405190151581526020015b60405180910390f35b61012f61012a3660046109d5565b610205565b005b609b54610144906001600160a01b031681565b6040516001600160a01b039091168152602001610113565b609a546101449061010090046001600160a01b031681565b61017d60985481565b604051908152602001610113565b61012f610455565b61017d60995481565b61017d6101aa366004610967565b609c6020526000908152604090205481565b6065546001600160a01b0316610144565b61017d60975481565b61017d61271081565b61012f6101ed366004610a79565b610469565b61012f610200366004610967565b61062c565b600054610100900460ff16158080156102255750600054600160ff909116105b8061023f5750303b15801561023f575060005460ff166001145b6102b65760405162461bcd60e51b815260206004820152602e60248201527f496e697469616c697a61626c653a20636f6e747261637420697320616c72656160448201527f647920696e697469616c697a656400000000000000000000000000000000000060648201526084015b60405180910390fd5b6000805460ff1916600117905580156102d9576000805461ff0019166101001790555b6102e16106bc565b6102e961072f565b609a80547fffffffffffffffffffffff0000000000000000000000000000000000000000ff166101006001600160a01b038c81169190910291909117909155609b80547fffffffffffffffffffffffff000000000000000000000000000000000000000016918a169190911790556097879055609886905581841461036d57600080fd5b60005b848110156104035783838281811061038a5761038a610a92565b90506020020135609c60008888858181106103a7576103a7610a92565b90506020020160208101906103bc9190610967565b6001600160a01b03166001600160a01b0316815260200190815260200160002060008282546103eb9190610af0565b909155508190506103fb81610b09565b915050610370565b50801561044a576000805461ff0019169055604051600181527f7f26b83ff96e1f2b6a682f133852f6798a09c465da95921460cefb38474024989060200160405180910390a15b505050505050505050565b61045d6107a2565b61046760006107fc565b565b6104716107a2565b609a5460ff16156104ea5760405162461bcd60e51b815260206004820152603460248201527f56657374696e6720436f6e747261637420416c7265616479207365656465642060448201527f7769746820696e697469616c20616d6f756e742e00000000000000000000000060648201526084016102ad565b609a546040517f23b872dd000000000000000000000000000000000000000000000000000000008152336004820152306024820152604481018390526101009091046001600160a01b0316906323b872dd906064016020604051808303816000875af115801561055e573d6000803e3d6000fd5b505050506040513d601f19601f820116820180604052508101906105829190610b23565b50609a54609b546040517f095ea7b30000000000000000000000000000000000000000000000000000000081526001600160a01b0391821660048201526000196024820152610100909204169063095ea7b3906044016020604051808303816000875af11580156105f7573d6000803e3d6000fd5b505050506040513d601f19601f8201168201806040525081019061061b9190610b23565b5050609a805460ff19166001179055565b6106346107a2565b6001600160a01b0381166106b05760405162461bcd60e51b815260206004820152602660248201527f4f776e61626c653a206e6577206f776e657220697320746865207a65726f206160448201527f646472657373000000000000000000000000000000000000000000000000000060648201526084016102ad565b6106b9816107fc565b50565b600054610100900460ff166107275760405162461bcd60e51b815260206004820152602b60248201527f496e697469616c697a61626c653a20636f6e7472616374206973206e6f74206960448201526a6e697469616c697a696e6760a81b60648201526084016102ad565b610467610866565b600054610100900460ff1661079a5760405162461bcd60e51b815260206004820152602b60248201527f496e697469616c697a61626c653a20636f6e7472616374206973206e6f74206960448201526a6e697469616c697a696e6760a81b60648201526084016102ad565b6104676108d7565b6065546001600160a01b031633146104675760405162461bcd60e51b815260206004820181905260248201527f4f776e61626c653a2063616c6c6572206973206e6f7420746865206f776e657260448201526064016102ad565b606580546001600160a01b038381167fffffffffffffffffffffffff0000000000000000000000000000000000000000831681179093556040519116919082907f8be0079c531659141344cd1fd0a4f28419497f9722a3daafe3b4186f6b6457e090600090a35050565b600054610100900460ff166108d15760405162461bcd60e51b815260206004820152602b60248201527f496e697469616c697a61626c653a20636f6e7472616374206973206e6f74206960448201526a6e697469616c697a696e6760a81b60648201526084016102ad565b60018055565b600054610100900460ff166109425760405162461bcd60e51b815260206004820152602b60248201527f496e697469616c697a61626c653a20636f6e7472616374206973206e6f74206960448201526a6e697469616c697a696e6760a81b60648201526084016102ad565b610467336107fc565b80356001600160a01b038116811461096257600080fd5b919050565b60006020828403121561097957600080fd5b6109828261094b565b9392505050565b60008083601f84011261099b57600080fd5b50813567ffffffffffffffff8111156109b357600080fd5b6020830191508360208260051b85010111156109ce57600080fd5b9250929050565b60008060008060008060008060c0898b0312156109f157600080fd5b6109fa8961094b565b9750610a0860208a0161094b565b96506040890135955060608901359450608089013567ffffffffffffffff80821115610a3357600080fd5b610a3f8c838d01610989565b909650945060a08b0135915080821115610a5857600080fd5b50610a658b828c01610989565b999c989b5096995094979396929594505050565b600060208284031215610a8b57600080fd5b5035919050565b7f4e487b7100000000000000000000000000000000000000000000000000000000600052603260045260246000fd5b7f4e487b7100000000000000000000000000000000000000000000000000000000600052601160045260246000fd5b80820180821115610b0357610b03610ac1565b92915050565b60006000198203610b1c57610b1c610ac1565b5060010190565b600060208284031215610b3557600080fd5b8151801515811461098257600080fdfea26469706673582212207448a901ba4f72d45697570af5c446281044d41242dbb79cb13054a048c83bb764736f6c63430008130033","opcodes":"PUSH1 0x80 PUSH1 0x40 MSTORE CALLVALUE DUP1 ISZERO PUSH2 0x10 JUMPI PUSH1 0x0 DUP1 REVERT JUMPDEST POP PUSH2 0x19 PUSH2 0x1E JUMP JUMPDEST PUSH2 0xDD JUMP JUMPDEST PUSH1 0x0 SLOAD PUSH2 0x100 SWAP1 DIV PUSH1 0xFF AND ISZERO PUSH2 0x8A JUMPI PUSH1 0x40 MLOAD PUSH3 0x461BCD PUSH1 0xE5 SHL DUP2 MSTORE PUSH1 0x20 PUSH1 0x4 DUP3 ADD MSTORE PUSH1 0x27 PUSH1 0x24 DUP3 ADD MSTORE PUSH32 0x496E697469616C697A61626C653A20636F6E747261637420697320696E697469 PUSH1 0x44 DUP3 ADD MSTORE PUSH7 0x616C697A696E67 PUSH1 0xC8 SHL PUSH1 0x64 DUP3 ADD MSTORE PUSH1 0x84 ADD PUSH1 0x40 MLOAD DUP1 SWAP2 SUB SWAP1 REVERT JUMPDEST PUSH1 0x0 SLOAD PUSH1 0xFF SWAP1 DUP2 AND EQ PUSH2 0xDB JUMPI PUSH1 0x0 DUP1 SLOAD PUSH1 0xFF NOT AND PUSH1 0xFF SWAP1 DUP2 OR SWAP1 SWAP2 SSTORE PUSH1 0x40 MLOAD SWAP1 DUP2 MSTORE PUSH32 0x7F26B83FF96E1F2B6A682F133852F6798A09C465DA95921460CEFB3847402498 SWAP1 PUSH1 0x20 ADD PUSH1 0x40 MLOAD DUP1 SWAP2 SUB SWAP1 LOG1 JUMPDEST JUMP JUMPDEST PUSH2 0xB7B DUP1 PUSH2 0xEC PUSH1 0x0 CODECOPY PUSH1 0x0 RETURN INVALID PUSH1 0x80 PUSH1 0x40 MSTORE CALLVALUE DUP1 ISZERO PUSH2 0x10 JUMPI PUSH1 0x0 DUP1 REVERT JUMPDEST POP PUSH1 0x4 CALLDATASIZE LT PUSH2 0xDF JUMPI PUSH1 0x0 CALLDATALOAD PUSH1 0xE0 SHR DUP1 PUSH4 0x79203DC4 GT PUSH2 0x8C JUMPI DUP1 PUSH4 0xAA264C9B GT PUSH2 0x66 JUMPI DUP1 PUSH4 0xAA264C9B EQ PUSH2 0x1CD JUMPI DUP1 PUSH4 0xAAF5EB68 EQ PUSH2 0x1D6 JUMPI DUP1 PUSH4 0xB6B55F25 EQ PUSH2 0x1DF JUMPI DUP1 PUSH4 0xF2FDE38B EQ PUSH2 0x1F2 JUMPI PUSH1 0x0 DUP1 REVERT JUMPDEST DUP1 PUSH4 0x79203DC4 EQ PUSH2 0x193 JUMPI DUP1 PUSH4 0x89885049 EQ PUSH2 0x19C JUMPI DUP1 PUSH4 0x8DA5CB5B EQ PUSH2 0x1BC JUMPI PUSH1 0x0 DUP1 REVERT JUMPDEST DUP1 PUSH4 0x46F7D6C9 GT PUSH2 0xBD JUMPI DUP1 PUSH4 0x46F7D6C9 EQ PUSH2 0x15C JUMPI DUP1 PUSH4 0x4CFC4D30 EQ PUSH2 0x174 JUMPI DUP1 PUSH4 0x715018A6 EQ PUSH2 0x18B JUMPI PUSH1 0x0 DUP1 REVERT JUMPDEST DUP1 PUSH4 0x4E86903 EQ PUSH2 0xE4 JUMPI DUP1 PUSH4 0x22BF40E4 EQ PUSH2 0x11C JUMPI DUP1 PUSH4 0x27A7AF89 EQ PUSH2 0x131 JUMPI JUMPDEST PUSH1 0x0 DUP1 REVERT JUMPDEST PUSH2 0x107 PUSH2 0xF2 CALLDATASIZE PUSH1 0x4 PUSH2 0x967 JUMP JUMPDEST PUSH1 0x9D PUSH1 0x20 MSTORE PUSH1 0x0 SWAP1 DUP2 MSTORE PUSH1 0x40 SWAP1 KECCAK256 SLOAD PUSH1 0xFF AND DUP2 JUMP JUMPDEST PUSH1 0x40 MLOAD SWAP1 ISZERO ISZERO DUP2 MSTORE PUSH1 0x20 ADD JUMPDEST PUSH1 0x40 MLOAD DUP1 SWAP2 SUB SWAP1 RETURN JUMPDEST PUSH2 0x12F PUSH2 0x12A CALLDATASIZE PUSH1 0x4 PUSH2 0x9D5 JUMP JUMPDEST PUSH2 0x205 JUMP JUMPDEST STOP JUMPDEST PUSH1 0x9B SLOAD PUSH2 0x144 SWAP1 PUSH1 0x1 PUSH1 0x1 PUSH1 0xA0 SHL SUB AND DUP2 JUMP JUMPDEST PUSH1 0x40 MLOAD PUSH1 0x1 PUSH1 0x1 PUSH1 0xA0 SHL SUB SWAP1 SWAP2 AND DUP2 MSTORE PUSH1 0x20 ADD PUSH2 0x113 JUMP JUMPDEST PUSH1 0x9A SLOAD PUSH2 0x144 SWAP1 PUSH2 0x100 SWAP1 DIV PUSH1 0x1 PUSH1 0x1 PUSH1 0xA0 SHL SUB AND DUP2 JUMP JUMPDEST PUSH2 0x17D PUSH1 0x98 SLOAD DUP2 JUMP JUMPDEST PUSH1 0x40 MLOAD SWAP1 DUP2 MSTORE PUSH1 0x20 ADD PUSH2 0x113 JUMP JUMPDEST PUSH2 0x12F PUSH2 0x455 JUMP JUMPDEST PUSH2 0x17D PUSH1 0x99 SLOAD DUP2 JUMP JUMPDEST PUSH2 0x17D PUSH2 0x1AA CALLDATASIZE PUSH1 0x4 PUSH2 0x967 JUMP JUMPDEST PUSH1 0x9C PUSH1 0x20 MSTORE PUSH1 0x0 SWAP1 DUP2 MSTORE PUSH1 0x40 SWAP1 KECCAK256 SLOAD DUP2 JUMP JUMPDEST PUSH1 0x65 SLOAD PUSH1 0x1 PUSH1 0x1 PUSH1 0xA0 SHL SUB AND PUSH2 0x144 JUMP JUMPDEST PUSH2 0x17D PUSH1 0x97 SLOAD DUP2 JUMP JUMPDEST PUSH2 0x17D PUSH2 0x2710 DUP2 JUMP JUMPDEST PUSH2 0x12F PUSH2 0x1ED CALLDATASIZE PUSH1 0x4 PUSH2 0xA79 JUMP JUMPDEST PUSH2 0x469 JUMP JUMPDEST PUSH2 0x12F PUSH2 0x200 CALLDATASIZE PUSH1 0x4 PUSH2 0x967 JUMP JUMPDEST PUSH2 0x62C JUMP JUMPDEST PUSH1 0x0 SLOAD PUSH2 0x100 SWAP1 DIV PUSH1 0xFF AND ISZERO DUP1 DUP1 ISZERO PUSH2 0x225 JUMPI POP PUSH1 0x0 SLOAD PUSH1 0x1 PUSH1 0xFF SWAP1 SWAP2 AND LT JUMPDEST DUP1 PUSH2 0x23F JUMPI POP ADDRESS EXTCODESIZE ISZERO DUP1 ISZERO PUSH2 0x23F JUMPI POP PUSH1 0x0 SLOAD PUSH1 0xFF AND PUSH1 0x1 EQ JUMPDEST PUSH2 0x2B6 JUMPI PUSH1 0x40 MLOAD PUSH3 0x461BCD PUSH1 0xE5 SHL DUP2 MSTORE PUSH1 0x20 PUSH1 0x4 DUP3 ADD MSTORE PUSH1 0x2E PUSH1 0x24 DUP3 ADD MSTORE PUSH32 0x496E697469616C697A61626C653A20636F6E747261637420697320616C726561 PUSH1 0x44 DUP3 ADD MSTORE PUSH32 0x647920696E697469616C697A6564000000000000000000000000000000000000 PUSH1 0x64 DUP3 ADD MSTORE PUSH1 0x84 ADD JUMPDEST PUSH1 0x40 MLOAD DUP1 SWAP2 SUB SWAP1 REVERT JUMPDEST PUSH1 0x0 DUP1 SLOAD PUSH1 0xFF NOT AND PUSH1 0x1 OR SWAP1 SSTORE DUP1 ISZERO PUSH2 0x2D9 JUMPI PUSH1 0x0 DUP1 SLOAD PUSH2 0xFF00 NOT AND PUSH2 0x100 OR SWAP1 SSTORE JUMPDEST PUSH2 0x2E1 PUSH2 0x6BC JUMP JUMPDEST PUSH2 0x2E9 PUSH2 0x72F JUMP JUMPDEST PUSH1 0x9A DUP1 SLOAD PUSH32 0xFFFFFFFFFFFFFFFFFFFFFF0000000000000000000000000000000000000000FF AND PUSH2 0x100 PUSH1 0x1 PUSH1 0x1 PUSH1 0xA0 SHL SUB DUP13 DUP2 AND SWAP2 SWAP1 SWAP2 MUL SWAP2 SWAP1 SWAP2 OR SWAP1 SWAP2 SSTORE PUSH1 0x9B DUP1 SLOAD PUSH32 0xFFFFFFFFFFFFFFFFFFFFFFFF0000000000000000000000000000000000000000 AND SWAP2 DUP11 AND SWAP2 SWAP1 SWAP2 OR SWAP1 SSTORE PUSH1 0x97 DUP8 SWAP1 SSTORE PUSH1 0x98 DUP7 SWAP1 SSTORE DUP2 DUP5 EQ PUSH2 0x36D JUMPI PUSH1 0x0 DUP1 REVERT JUMPDEST PUSH1 0x0 JUMPDEST DUP5 DUP2 LT ISZERO PUSH2 0x403 JUMPI DUP4 DUP4 DUP3 DUP2 DUP2 LT PUSH2 0x38A JUMPI PUSH2 0x38A PUSH2 0xA92 JUMP JUMPDEST SWAP1 POP PUSH1 0x20 MUL ADD CALLDATALOAD PUSH1 0x9C PUSH1 0x0 DUP9 DUP9 DUP6 DUP2 DUP2 LT PUSH2 0x3A7 JUMPI PUSH2 0x3A7 PUSH2 0xA92 JUMP JUMPDEST SWAP1 POP PUSH1 0x20 MUL ADD PUSH1 0x20 DUP2 ADD SWAP1 PUSH2 0x3BC SWAP2 SWAP1 PUSH2 0x967 JUMP JUMPDEST PUSH1 0x1 PUSH1 0x1 PUSH1 0xA0 SHL SUB AND PUSH1 0x1 PUSH1 0x1 PUSH1 0xA0 SHL SUB AND DUP2 MSTORE PUSH1 0x20 ADD SWAP1 DUP2 MSTORE PUSH1 0x20 ADD PUSH1 0x0 KECCAK256 PUSH1 0x0 DUP3 DUP3 SLOAD PUSH2 0x3EB SWAP2 SWAP1 PUSH2 0xAF0 JUMP JUMPDEST SWAP1 SWAP2 SSTORE POP DUP2 SWAP1 POP PUSH2 0x3FB DUP2 PUSH2 0xB09 JUMP JUMPDEST SWAP2 POP POP PUSH2 0x370 JUMP JUMPDEST POP DUP1 ISZERO PUSH2 0x44A JUMPI PUSH1 0x0 DUP1 SLOAD PUSH2 0xFF00 NOT AND SWAP1 SSTORE PUSH1 0x40 MLOAD PUSH1 0x1 DUP2 MSTORE PUSH32 0x7F26B83FF96E1F2B6A682F133852F6798A09C465DA95921460CEFB3847402498 SWAP1 PUSH1 0x20 ADD PUSH1 0x40 MLOAD DUP1 SWAP2 SUB SWAP1 LOG1 JUMPDEST POP POP POP POP POP POP POP POP POP JUMP JUMPDEST PUSH2 0x45D PUSH2 0x7A2 JUMP JUMPDEST PUSH2 0x467 PUSH1 0x0 PUSH2 0x7FC JUMP JUMPDEST JUMP JUMPDEST PUSH2 0x471 PUSH2 0x7A2 JUMP JUMPDEST PUSH1 0x9A SLOAD PUSH1 0xFF AND ISZERO PUSH2 0x4EA JUMPI PUSH1 0x40 MLOAD PUSH3 0x461BCD PUSH1 0xE5 SHL DUP2 MSTORE PUSH1 0x20 PUSH1 0x4 DUP3 ADD MSTORE PUSH1 0x34 PUSH1 0x24 DUP3 ADD MSTORE PUSH32 0x56657374696E6720436F6E747261637420416C72656164792073656564656420 PUSH1 0x44 DUP3 ADD MSTORE PUSH32 0x7769746820696E697469616C20616D6F756E742E000000000000000000000000 PUSH1 0x64 DUP3 ADD MSTORE PUSH1 0x84 ADD PUSH2 0x2AD JUMP JUMPDEST PUSH1 0x9A SLOAD PUSH1 0x40 MLOAD PUSH32 0x23B872DD00000000000000000000000000000000000000000000000000000000 DUP2 MSTORE CALLER PUSH1 0x4 DUP3 ADD MSTORE ADDRESS PUSH1 0x24 DUP3 ADD MSTORE PUSH1 0x44 DUP2 ADD DUP4 SWAP1 MSTORE PUSH2 0x100 SWAP1 SWAP2 DIV PUSH1 0x1 PUSH1 0x1 PUSH1 0xA0 SHL SUB AND SWAP1 PUSH4 0x23B872DD SWAP1 PUSH1 0x64 ADD PUSH1 0x20 PUSH1 0x40 MLOAD DUP1 DUP4 SUB DUP2 PUSH1 0x0 DUP8 GAS CALL ISZERO DUP1 ISZERO PUSH2 0x55E JUMPI RETURNDATASIZE PUSH1 0x0 DUP1 RETURNDATACOPY RETURNDATASIZE PUSH1 0x0 REVERT JUMPDEST POP POP POP POP PUSH1 0x40 MLOAD RETURNDATASIZE PUSH1 0x1F NOT PUSH1 0x1F DUP3 ADD AND DUP3 ADD DUP1 PUSH1 0x40 MSTORE POP DUP2 ADD SWAP1 PUSH2 0x582 SWAP2 SWAP1 PUSH2 0xB23 JUMP JUMPDEST POP PUSH1 0x9A SLOAD PUSH1 0x9B SLOAD PUSH1 0x40 MLOAD PUSH32 0x95EA7B300000000000000000000000000000000000000000000000000000000 DUP2 MSTORE PUSH1 0x1 PUSH1 0x1 PUSH1 0xA0 SHL SUB SWAP2 DUP3 AND PUSH1 0x4 DUP3 ADD MSTORE PUSH1 0x0 NOT PUSH1 0x24 DUP3 ADD MSTORE PUSH2 0x100 SWAP1 SWAP3 DIV AND SWAP1 PUSH4 0x95EA7B3 SWAP1 PUSH1 0x44 ADD PUSH1 0x20 PUSH1 0x40 MLOAD DUP1 DUP4 SUB DUP2 PUSH1 0x0 DUP8 GAS CALL ISZERO DUP1 ISZERO PUSH2 0x5F7 JUMPI RETURNDATASIZE PUSH1 0x0 DUP1 RETURNDATACOPY RETURNDATASIZE PUSH1 0x0 REVERT JUMPDEST POP POP POP POP PUSH1 0x40 MLOAD RETURNDATASIZE PUSH1 0x1F NOT PUSH1 0x1F DUP3 ADD AND DUP3 ADD DUP1 PUSH1 0x40 MSTORE POP DUP2 ADD SWAP1 PUSH2 0x61B SWAP2 SWAP1 PUSH2 0xB23 JUMP JUMPDEST POP POP PUSH1 0x9A DUP1 SLOAD PUSH1 0xFF NOT AND PUSH1 0x1 OR SWAP1 SSTORE JUMP JUMPDEST PUSH2 0x634 PUSH2 0x7A2 JUMP JUMPDEST PUSH1 0x1 PUSH1 0x1 PUSH1 0xA0 SHL SUB DUP2 AND PUSH2 0x6B0 JUMPI PUSH1 0x40 MLOAD PUSH3 0x461BCD PUSH1 0xE5 SHL DUP2 MSTORE PUSH1 0x20 PUSH1 0x4 DUP3 ADD MSTORE PUSH1 0x26 PUSH1 0x24 DUP3 ADD MSTORE PUSH32 0x4F776E61626C653A206E6577206F776E657220697320746865207A65726F2061 PUSH1 0x44 DUP3 ADD MSTORE PUSH32 0x6464726573730000000000000000000000000000000000000000000000000000 PUSH1 0x64 DUP3 ADD MSTORE PUSH1 0x84 ADD PUSH2 0x2AD JUMP JUMPDEST PUSH2 0x6B9 DUP2 PUSH2 0x7FC JUMP JUMPDEST POP JUMP JUMPDEST PUSH1 0x0 SLOAD PUSH2 0x100 SWAP1 DIV PUSH1 0xFF AND PUSH2 0x727 JUMPI PUSH1 0x40 MLOAD PUSH3 0x461BCD PUSH1 0xE5 SHL DUP2 MSTORE PUSH1 0x20 PUSH1 0x4 DUP3 ADD MSTORE PUSH1 0x2B PUSH1 0x24 DUP3 ADD MSTORE PUSH32 0x496E697469616C697A61626C653A20636F6E7472616374206973206E6F742069 PUSH1 0x44 DUP3 ADD MSTORE PUSH11 0x6E697469616C697A696E67 PUSH1 0xA8 SHL PUSH1 0x64 DUP3 ADD MSTORE PUSH1 0x84 ADD PUSH2 0x2AD JUMP JUMPDEST PUSH2 0x467 PUSH2 0x866 JUMP JUMPDEST PUSH1 0x0 SLOAD PUSH2 0x100 SWAP1 DIV PUSH1 0xFF AND PUSH2 0x79A JUMPI PUSH1 0x40 MLOAD PUSH3 0x461BCD PUSH1 0xE5 SHL DUP2 MSTORE PUSH1 0x20 PUSH1 0x4 DUP3 ADD MSTORE PUSH1 0x2B PUSH1 0x24 DUP3 ADD MSTORE PUSH32 0x496E697469616C697A61626C653A20636F6E7472616374206973206E6F742069 PUSH1 0x44 DUP3 ADD MSTORE PUSH11 0x6E697469616C697A696E67 PUSH1 0xA8 SHL PUSH1 0x64 DUP3 ADD MSTORE PUSH1 0x84 ADD PUSH2 0x2AD JUMP JUMPDEST PUSH2 0x467 PUSH2 0x8D7 JUMP JUMPDEST PUSH1 0x65 SLOAD PUSH1 0x1 PUSH1 0x1 PUSH1 0xA0 SHL SUB AND CALLER EQ PUSH2 0x467 JUMPI PUSH1 0x40 MLOAD PUSH3 0x461BCD PUSH1 0xE5 SHL DUP2 MSTORE PUSH1 0x20 PUSH1 0x4 DUP3 ADD DUP2 SWAP1 MSTORE PUSH1 0x24 DUP3 ADD MSTORE PUSH32 0x4F776E61626C653A2063616C6C6572206973206E6F7420746865206F776E6572 PUSH1 0x44 DUP3 ADD MSTORE PUSH1 0x64 ADD PUSH2 0x2AD JUMP JUMPDEST PUSH1 0x65 DUP1 SLOAD PUSH1 0x1 PUSH1 0x1 PUSH1 0xA0 SHL SUB DUP4 DUP2 AND PUSH32 0xFFFFFFFFFFFFFFFFFFFFFFFF0000000000000000000000000000000000000000 DUP4 AND DUP2 OR SWAP1 SWAP4 SSTORE PUSH1 0x40 MLOAD SWAP2 AND SWAP2 SWAP1 DUP3 SWAP1 PUSH32 0x8BE0079C531659141344CD1FD0A4F28419497F9722A3DAAFE3B4186F6B6457E0 SWAP1 PUSH1 0x0 SWAP1 LOG3 POP POP JUMP JUMPDEST PUSH1 0x0 SLOAD PUSH2 0x100 SWAP1 DIV PUSH1 0xFF AND PUSH2 0x8D1 JUMPI PUSH1 0x40 MLOAD PUSH3 0x461BCD PUSH1 0xE5 SHL DUP2 MSTORE PUSH1 0x20 PUSH1 0x4 DUP3 ADD MSTORE PUSH1 0x2B PUSH1 0x24 DUP3 ADD MSTORE PUSH32 0x496E697469616C697A61626C653A20636F6E7472616374206973206E6F742069 PUSH1 0x44 DUP3 ADD MSTORE PUSH11 0x6E697469616C697A696E67 PUSH1 0xA8 SHL PUSH1 0x64 DUP3 ADD MSTORE PUSH1 0x84 ADD PUSH2 0x2AD JUMP JUMPDEST PUSH1 0x1 DUP1 SSTORE JUMP JUMPDEST PUSH1 0x0 SLOAD PUSH2 0x100 SWAP1 DIV PUSH1 0xFF AND PUSH2 0x942 JUMPI PUSH1 0x40 MLOAD PUSH3 0x461BCD PUSH1 0xE5 SHL DUP2 MSTORE PUSH1 0x20 PUSH1 0x4 DUP3 ADD MSTORE PUSH1 0x2B PUSH1 0x24 DUP3 ADD MSTORE PUSH32 0x496E697469616C697A61626C653A20636F6E7472616374206973206E6F742069 PUSH1 0x44 DUP3 ADD MSTORE PUSH11 0x6E697469616C697A696E67 PUSH1 0xA8 SHL PUSH1 0x64 DUP3 ADD MSTORE PUSH1 0x84 ADD PUSH2 0x2AD JUMP JUMPDEST PUSH2 0x467 CALLER PUSH2 0x7FC JUMP JUMPDEST DUP1 CALLDATALOAD PUSH1 0x1 PUSH1 0x1 PUSH1 0xA0 SHL SUB DUP2 AND DUP2 EQ PUSH2 0x962 JUMPI PUSH1 0x0 DUP1 REVERT JUMPDEST SWAP2 SWAP1 POP JUMP JUMPDEST PUSH1 0x0 PUSH1 0x20 DUP3 DUP5 SUB SLT ISZERO PUSH2 0x979 JUMPI PUSH1 0x0 DUP1 REVERT JUMPDEST PUSH2 0x982 DUP3 PUSH2 0x94B JUMP JUMPDEST SWAP4 SWAP3 POP POP POP JUMP JUMPDEST PUSH1 0x0 DUP1 DUP4 PUSH1 0x1F DUP5 ADD SLT PUSH2 0x99B JUMPI PUSH1 0x0 DUP1 REVERT JUMPDEST POP DUP2 CALLDATALOAD PUSH8 0xFFFFFFFFFFFFFFFF DUP2 GT ISZERO PUSH2 0x9B3 JUMPI PUSH1 0x0 DUP1 REVERT JUMPDEST PUSH1 0x20 DUP4 ADD SWAP2 POP DUP4 PUSH1 0x20 DUP3 PUSH1 0x5 SHL DUP6 ADD ADD GT ISZERO PUSH2 0x9CE JUMPI PUSH1 0x0 DUP1 REVERT JUMPDEST SWAP3 POP SWAP3 SWAP1 POP JUMP JUMPDEST PUSH1 0x0 DUP1 PUSH1 0x0 DUP1 PUSH1 0x0 DUP1 PUSH1 0x0 DUP1 PUSH1 0xC0 DUP10 DUP12 SUB SLT ISZERO PUSH2 0x9F1 JUMPI PUSH1 0x0 DUP1 REVERT JUMPDEST PUSH2 0x9FA DUP10 PUSH2 0x94B JUMP JUMPDEST SWAP8 POP PUSH2 0xA08 PUSH1 0x20 DUP11 ADD PUSH2 0x94B JUMP JUMPDEST SWAP7 POP PUSH1 0x40 DUP10 ADD CALLDATALOAD SWAP6 POP PUSH1 0x60 DUP10 ADD CALLDATALOAD SWAP5 POP PUSH1 0x80 DUP10 ADD CALLDATALOAD PUSH8 0xFFFFFFFFFFFFFFFF DUP1 DUP3 GT ISZERO PUSH2 0xA33 JUMPI PUSH1 0x0 DUP1 REVERT JUMPDEST PUSH2 0xA3F DUP13 DUP4 DUP14 ADD PUSH2 0x989 JUMP JUMPDEST SWAP1 SWAP7 POP SWAP5 POP PUSH1 0xA0 DUP12 ADD CALLDATALOAD SWAP2 POP DUP1 DUP3 GT ISZERO PUSH2 0xA58 JUMPI PUSH1 0x0 DUP1 REVERT JUMPDEST POP PUSH2 0xA65 DUP12 DUP3 DUP13 ADD PUSH2 0x989 JUMP JUMPDEST SWAP10 SWAP13 SWAP9 SWAP12 POP SWAP7 SWAP10 POP SWAP5 SWAP8 SWAP4 SWAP7 SWAP3 SWAP6 SWAP5 POP POP POP JUMP JUMPDEST PUSH1 0x0 PUSH1 0x20 DUP3 DUP5 SUB SLT ISZERO PUSH2 0xA8B JUMPI PUSH1 0x0 DUP1 REVERT JUMPDEST POP CALLDATALOAD SWAP2 SWAP1 POP JUMP JUMPDEST PUSH32 0x4E487B7100000000000000000000000000000000000000000000000000000000 PUSH1 0x0 MSTORE PUSH1 0x32 PUSH1 0x4 MSTORE PUSH1 0x24 PUSH1 0x0 REVERT JUMPDEST PUSH32 0x4E487B7100000000000000000000000000000000000000000000000000000000 PUSH1 0x0 MSTORE PUSH1 0x11 PUSH1 0x4 MSTORE PUSH1 0x24 PUSH1 0x0 REVERT JUMPDEST DUP1 DUP3 ADD DUP1 DUP3 GT ISZERO PUSH2 0xB03 JUMPI PUSH2 0xB03 PUSH2 0xAC1 JUMP JUMPDEST SWAP3 SWAP2 POP POP JUMP JUMPDEST PUSH1 0x0 PUSH1 0x0 NOT DUP3 SUB PUSH2 0xB1C JUMPI PUSH2 0xB1C PUSH2 0xAC1 JUMP JUMPDEST POP PUSH1 0x1 ADD SWAP1 JUMP JUMPDEST PUSH1 0x0 PUSH1 0x20 DUP3 DUP5 SUB SLT ISZERO PUSH2 0xB35 JUMPI PUSH1 0x0 DUP1 REVERT JUMPDEST DUP2 MLOAD DUP1 ISZERO ISZERO DUP2 EQ PUSH2 0x982 JUMPI PUSH1 0x0 DUP1 REVERT INVALID LOG2 PUSH5 0x6970667358 0x22 SLT KECCAK256 PUSH21 0x48A901BA4F72D45697570AF5C446281044D41242DB 0xB7 SWAP13 0xB1 ADDRESS SLOAD LOG0 BASEFEE 0xC8 EXTCODESIZE 0xB7 PUSH5 0x736F6C6343 STOP ADDMOD SGT STOP CALLER "},"methodIdentifiers":{"PRECISION()":"aaf5eb68","START_VESTING()":"aa264c9b","VESTING_DURATION()":"4cfc4d30","claimableAmount(address)":"89885049","claimedAmount(address)":"04e86903","deposit(uint256)":"b6b55f25","initialize(address,address,uint256,uint256,address[],uint256[])":"22bf40e4","intx()":"46f7d6c9","owner()":"8da5cb5b","renounceOwnership()":"715018a6","totalAllocation()":"79203dc4","transferOwnership(address)":"f2fde38b","xIntx()":"27a7af89"}},"storageLayout":{"storage":[{"astId":138,"contract":"contracts/VestingXINTX.sol:VestingXINTX","label":"_initialized","offset":0,"slot":"0","type":"t_uint8"},{"astId":141,"contract":"contracts/VestingXINTX.sol:VestingXINTX","label":"_initializing","offset":1,"slot":"0","type":"t_bool"},{"astId":314,"contract":"contracts/VestingXINTX.sol:VestingXINTX","label":"_status","offset":0,"slot":"1","type":"t_uint256"},{"astId":383,"contract":"contracts/VestingXINTX.sol:VestingXINTX","label":"__gap","offset":0,"slot":"2","type":"t_array(t_uint256)49_storage"},{"astId":2273,"contract":"contracts/VestingXINTX.sol:VestingXINTX","label":"__gap","offset":0,"slot":"51","type":"t_array(t_uint256)50_storage"},{"astId":10,"contract":"contracts/VestingXINTX.sol:VestingXINTX","label":"_owner","offset":0,"slot":"101","type":"t_address"},{"astId":130,"contract":"contracts/VestingXINTX.sol:VestingXINTX","label":"__gap","offset":0,"slot":"102","type":"t_array(t_uint256)49_storage"},{"astId":5085,"contract":"contracts/VestingXINTX.sol:VestingXINTX","label":"START_VESTING","offset":0,"slot":"151","type":"t_uint256"},{"astId":5087,"contract":"contracts/VestingXINTX.sol:VestingXINTX","label":"VESTING_DURATION","offset":0,"slot":"152","type":"t_uint256"},{"astId":5089,"contract":"contracts/VestingXINTX.sol:VestingXINTX","label":"totalAllocation","offset":0,"slot":"153","type":"t_uint256"},{"astId":5091,"contract":"contracts/VestingXINTX.sol:VestingXINTX","label":"seeded","offset":0,"slot":"154","type":"t_bool"},{"astId":5094,"contract":"contracts/VestingXINTX.sol:VestingXINTX","label":"intx","offset":1,"slot":"154","type":"t_contract(IERC20)3608"},{"astId":5097,"contract":"contracts/VestingXINTX.sol:VestingXINTX","label":"xIntx","offset":0,"slot":"155","type":"t_contract(IStakedINTX)5076"},{"astId":5101,"contract":"contracts/VestingXINTX.sol:VestingXINTX","label":"claimableAmount","offset":0,"slot":"156","type":"t_mapping(t_address,t_uint256)"},{"astId":5105,"contract":"contracts/VestingXINTX.sol:VestingXINTX","label":"claimedAmount","offset":0,"slot":"157","type":"t_mapping(t_address,t_bool)"}],"types":{"t_address":{"encoding":"inplace","label":"address","numberOfBytes":"20"},"t_array(t_uint256)49_storage":{"base":"t_uint256","encoding":"inplace","label":"uint256[49]","numberOfBytes":"1568"},"t_array(t_uint256)50_storage":{"base":"t_uint256","encoding":"inplace","label":"uint256[50]","numberOfBytes":"1600"},"t_bool":{"encoding":"inplace","label":"bool","numberOfBytes":"1"},"t_contract(IERC20)3608":{"encoding":"inplace","label":"contract IERC20","numberOfBytes":"20"},"t_contract(IStakedINTX)5076":{"encoding":"inplace","label":"contract IStakedINTX","numberOfBytes":"20"},"t_mapping(t_address,t_bool)":{"encoding":"mapping","key":"t_address","label":"mapping(address => bool)","numberOfBytes":"32","value":"t_bool"},"t_mapping(t_address,t_uint256)":{"encoding":"mapping","key":"t_address","label":"mapping(address => uint256)","numberOfBytes":"32","value":"t_uint256"},"t_uint256":{"encoding":"inplace","label":"uint256","numberOfBytes":"32"},"t_uint8":{"encoding":"inplace","label":"uint8","numberOfBytes":"1"}}}}}}