{"contracts/StakedINTX.sol":{"StakedINTX":{"abi":[{"inputs":[],"stateMutability":"nonpayable","type":"constructor"},{"anonymous":false,"inputs":[{"indexed":true,"internalType":"address","name":"owner","type":"address"},{"indexed":true,"internalType":"address","name":"approved","type":"address"},{"indexed":true,"internalType":"uint256","name":"tokenId","type":"uint256"}],"name":"Approval","type":"event"},{"anonymous":false,"inputs":[{"indexed":true,"internalType":"address","name":"owner","type":"address"},{"indexed":true,"internalType":"address","name":"operator","type":"address"},{"indexed":false,"internalType":"bool","name":"approved","type":"bool"}],"name":"ApprovalForAll","type":"event"},{"anonymous":false,"inputs":[{"indexed":true,"internalType":"address","name":"owner","type":"address"},{"indexed":true,"internalType":"uint256","name":"tokenId","type":"uint256"},{"indexed":false,"internalType":"uint256","name":"amountBurned","type":"uint256"},{"indexed":false,"internalType":"uint256","name":"amountIntxOut","type":"uint256"},{"indexed":false,"internalType":"uint256","name":"amountIntxPenalized","type":"uint256"},{"indexed":false,"internalType":"uint256","name":"totalXINTXNew","type":"uint256"}],"name":"Burn","type":"event"},{"anonymous":false,"inputs":[{"indexed":false,"internalType":"uint8","name":"version","type":"uint8"}],"name":"Initialized","type":"event"},{"anonymous":false,"inputs":[{"indexed":true,"internalType":"address","name":"owner","type":"address"},{"indexed":true,"internalType":"uint256","name":"tokenIdFrom","type":"uint256"},{"indexed":false,"internalType":"uint256","name":"tokenIdTo","type":"uint256"},{"indexed":false,"internalType":"uint256","name":"newBalance","type":"uint256"},{"indexed":false,"internalType":"uint256","name":"newLoyalSince","type":"uint256"}],"name":"Merge","type":"event"},{"anonymous":false,"inputs":[{"indexed":true,"internalType":"address","name":"from","type":"address"},{"indexed":true,"internalType":"address","name":"to","type":"address"},{"indexed":true,"internalType":"uint256","name":"tokenId","type":"uint256"},{"indexed":false,"internalType":"uint256","name":"amountMinted","type":"uint256"},{"indexed":false,"internalType":"uint256","name":"amountIntxIn","type":"uint256"},{"indexed":false,"internalType":"uint256","name":"totalXINTXNew","type":"uint256"},{"indexed":false,"internalType":"uint256","name":"newTotalWeight","type":"uint256"}],"name":"Mint","type":"event"},{"anonymous":false,"inputs":[{"indexed":true,"internalType":"address","name":"previousOwner","type":"address"},{"indexed":true,"internalType":"address","name":"newOwner","type":"address"}],"name":"OwnershipTransferred","type":"event"},{"anonymous":false,"inputs":[{"indexed":false,"internalType":"uint256","name":"rewardAdded","type":"uint256"}],"name":"RewardAdded","type":"event"},{"anonymous":false,"inputs":[{"indexed":true,"internalType":"address","name":"owner","type":"address"},{"indexed":true,"internalType":"uint256","name":"tokenIdFrom","type":"uint256"},{"indexed":false,"internalType":"uint256","name":"tokenIdTo","type":"uint256"},{"indexed":false,"internalType":"uint256","name":"balanceSplitted","type":"uint256"}],"name":"Split","type":"event"},{"anonymous":false,"inputs":[{"indexed":true,"internalType":"address","name":"from","type":"address"},{"indexed":true,"internalType":"address","name":"to","type":"address"},{"indexed":true,"internalType":"uint256","name":"tokenId","type":"uint256"}],"name":"Transfer","type":"event"},{"inputs":[],"name":"DURATION","outputs":[{"internalType":"uint256","name":"","type":"uint256"}],"stateMutability":"view","type":"function"},{"inputs":[],"name":"INTX","outputs":[{"internalType":"contract IERC20","name":"","type":"address"}],"stateMutability":"view","type":"function"},{"inputs":[],"name":"P","outputs":[{"internalType":"uint256","name":"","type":"uint256"}],"stateMutability":"view","type":"function"},{"inputs":[{"internalType":"uint256","name":"_tokenId","type":"uint256"}],"name":"amountStakedOf","outputs":[{"internalType":"uint256","name":"amount","type":"uint256"}],"stateMutability":"view","type":"function"},{"inputs":[{"internalType":"address","name":"to","type":"address"},{"internalType":"uint256","name":"tokenId","type":"uint256"}],"name":"approve","outputs":[],"stateMutability":"nonpayable","type":"function"},{"inputs":[{"internalType":"address","name":"owner","type":"address"}],"name":"balanceOf","outputs":[{"internalType":"uint256","name":"","type":"uint256"}],"stateMutability":"view","type":"function"},{"inputs":[{"internalType":"uint256","name":"","type":"uint256"}],"name":"balanceOfId","outputs":[{"internalType":"uint256","name":"","type":"uint256"}],"stateMutability":"view","type":"function"},{"inputs":[{"internalType":"uint256","name":"_tokenId","type":"uint256"}],"name":"boostPercentageOf","outputs":[{"internalType":"uint256","name":"boostPercentage","type":"uint256"}],"stateMutability":"view","type":"function"},{"inputs":[{"internalType":"uint256","name":"_tokenId","type":"uint256"}],"name":"earned","outputs":[{"internalType":"uint256","name":"","type":"uint256"}],"stateMutability":"view","type":"function"},{"inputs":[{"internalType":"uint256","name":"tokenId","type":"uint256"}],"name":"getApproved","outputs":[{"internalType":"address","name":"","type":"address"}],"stateMutability":"view","type":"function"},{"inputs":[{"internalType":"address","name":"_intx","type":"address"},{"internalType":"address","name":"_usdc","type":"address"}],"name":"initialize","outputs":[],"stateMutability":"nonpayable","type":"function"},{"inputs":[{"internalType":"address","name":"owner","type":"address"},{"internalType":"address","name":"operator","type":"address"}],"name":"isApprovedForAll","outputs":[{"internalType":"bool","name":"","type":"bool"}],"stateMutability":"view","type":"function"},{"inputs":[],"name":"lastTimeRewardApplicable","outputs":[{"internalType":"uint256","name":"","type":"uint256"}],"stateMutability":"view","type":"function"},{"inputs":[],"name":"lastTokenId","outputs":[{"internalType":"uint256","name":"","type":"uint256"}],"stateMutability":"view","type":"function"},{"inputs":[],"name":"lastUpdateTime","outputs":[{"internalType":"uint256","name":"","type":"uint256"}],"stateMutability":"view","type":"function"},{"inputs":[{"internalType":"uint256","name":"","type":"uint256"}],"name":"loyalSince","outputs":[{"internalType":"uint256","name":"","type":"uint256"}],"stateMutability":"view","type":"function"},{"inputs":[],"name":"loyaltyDuration","outputs":[{"internalType":"uint256","name":"","type":"uint256"}],"stateMutability":"view","type":"function"},{"inputs":[],"name":"maxLoyaltyBoost","outputs":[{"internalType":"uint256","name":"","type":"uint256"}],"stateMutability":"view","type":"function"},{"inputs":[],"name":"maxPenalty","outputs":[{"internalType":"uint256","name":"","type":"uint256"}],"stateMutability":"view","type":"function"},{"inputs":[],"name":"minPenalty","outputs":[{"internalType":"uint256","name":"","type":"uint256"}],"stateMutability":"view","type":"function"},{"inputs":[],"name":"name","outputs":[{"internalType":"string","name":"","type":"string"}],"stateMutability":"view","type":"function"},{"inputs":[{"internalType":"uint256","name":"_rewardAmount","type":"uint256"}],"name":"notifyReward","outputs":[],"stateMutability":"nonpayable","type":"function"},{"inputs":[],"name":"owner","outputs":[{"internalType":"address","name":"","type":"address"}],"stateMutability":"view","type":"function"},{"inputs":[{"internalType":"uint256","name":"tokenId","type":"uint256"}],"name":"ownerOf","outputs":[{"internalType":"address","name":"","type":"address"}],"stateMutability":"view","type":"function"},{"inputs":[{"internalType":"uint256","name":"_tokenId","type":"uint256"}],"name":"penaltyAmountOf","outputs":[{"internalType":"uint256","name":"penaltyAmount","type":"uint256"}],"stateMutability":"view","type":"function"},{"inputs":[{"internalType":"uint256","name":"_tokenId","type":"uint256"}],"name":"penaltyPercentageOf","outputs":[{"internalType":"uint256","name":"penaltyPercentage","type":"uint256"}],"stateMutability":"view","type":"function"},{"inputs":[],"name":"periodFinish","outputs":[{"internalType":"uint256","name":"","type":"uint256"}],"stateMutability":"view","type":"function"},{"inputs":[],"name":"renounceOwnership","outputs":[],"stateMutability":"nonpayable","type":"function"},{"inputs":[],"name":"rewardPerWeight","outputs":[{"internalType":"uint256","name":"","type":"uint256"}],"stateMutability":"view","type":"function"},{"inputs":[],"name":"rewardRate","outputs":[{"internalType":"uint256","name":"","type":"uint256"}],"stateMutability":"view","type":"function"},{"inputs":[],"name":"rewardToken","outputs":[{"internalType":"contract IERC20","name":"","type":"address"}],"stateMutability":"view","type":"function"},{"inputs":[{"internalType":"address","name":"from","type":"address"},{"internalType":"address","name":"to","type":"address"},{"internalType":"uint256","name":"tokenId","type":"uint256"}],"name":"safeTransferFrom","outputs":[],"stateMutability":"nonpayable","type":"function"},{"inputs":[{"internalType":"address","name":"from","type":"address"},{"internalType":"address","name":"to","type":"address"},{"internalType":"uint256","name":"tokenId","type":"uint256"},{"internalType":"bytes","name":"data","type":"bytes"}],"name":"safeTransferFrom","outputs":[],"stateMutability":"nonpayable","type":"function"},{"inputs":[{"internalType":"address","name":"operator","type":"address"},{"internalType":"bool","name":"approved","type":"bool"}],"name":"setApprovalForAll","outputs":[],"stateMutability":"nonpayable","type":"function"},{"inputs":[{"internalType":"uint256","name":"_intxAmount","type":"uint256"}],"name":"stake","outputs":[{"internalType":"uint256","name":"_tokenId","type":"uint256"}],"stateMutability":"nonpayable","type":"function"},{"inputs":[{"internalType":"address","name":"_to","type":"address"},{"internalType":"uint256","name":"_intxAmount","type":"uint256"}],"name":"stakeFor","outputs":[{"internalType":"uint256","name":"_tokenId","type":"uint256"}],"stateMutability":"nonpayable","type":"function"},{"inputs":[{"internalType":"bytes4","name":"interfaceId","type":"bytes4"}],"name":"supportsInterface","outputs":[{"internalType":"bool","name":"","type":"bool"}],"stateMutability":"view","type":"function"},{"inputs":[],"name":"symbol","outputs":[{"internalType":"string","name":"","type":"string"}],"stateMutability":"view","type":"function"},{"inputs":[{"internalType":"uint256","name":"index","type":"uint256"}],"name":"tokenByIndex","outputs":[{"internalType":"uint256","name":"","type":"uint256"}],"stateMutability":"view","type":"function"},{"inputs":[{"internalType":"address","name":"owner","type":"address"},{"internalType":"uint256","name":"index","type":"uint256"}],"name":"tokenOfOwnerByIndex","outputs":[{"internalType":"uint256","name":"","type":"uint256"}],"stateMutability":"view","type":"function"},{"inputs":[{"internalType":"uint256","name":"tokenId","type":"uint256"}],"name":"tokenURI","outputs":[{"internalType":"string","name":"","type":"string"}],"stateMutability":"view","type":"function"},{"inputs":[],"name":"totalSupply","outputs":[{"internalType":"uint256","name":"","type":"uint256"}],"stateMutability":"view","type":"function"},{"inputs":[],"name":"totalXINTX","outputs":[{"internalType":"uint256","name":"","type":"uint256"}],"stateMutability":"view","type":"function"},{"inputs":[{"internalType":"address","name":"from","type":"address"},{"internalType":"address","name":"to","type":"address"},{"internalType":"uint256","name":"tokenId","type":"uint256"}],"name":"transferFrom","outputs":[],"stateMutability":"nonpayable","type":"function"},{"inputs":[{"internalType":"address","name":"newOwner","type":"address"}],"name":"transferOwnership","outputs":[],"stateMutability":"nonpayable","type":"function"},{"inputs":[{"internalType":"uint256","name":"_tokenId","type":"uint256"}],"name":"unstake","outputs":[{"internalType":"uint256","name":"_intxAmountOut","type":"uint256"}],"stateMutability":"nonpayable","type":"function"},{"inputs":[{"internalType":"uint256","name":"_tokenId","type":"uint256"}],"name":"withdrawableAmountOf","outputs":[{"internalType":"uint256","name":"withdrawableAmount","type":"uint256"}],"stateMutability":"view","type":"function"}],"evm":{"bytecode":{"linkReferences":{},"object":"60806040523480156200001157600080fd5b506200001c62000022565b620000e3565b600054610100900460ff16156200008f5760405162461bcd60e51b815260206004820152602760248201527f496e697469616c697a61626c653a20636f6e747261637420697320696e697469604482015266616c697a696e6760c81b606482015260840160405180910390fd5b60005460ff90811614620000e1576000805460ff191660ff9081179091556040519081527f7f26b83ff96e1f2b6a682f133852f6798a09c465da95921460cefb38474024989060200160405180910390a15b565b61337f80620000f36000396000f3fe608060405234801561001057600080fd5b50600436106103155760003560e01c806370a08231116101a7578063b88d4fde116100ee578063df2e0b9711610097578063f2fde38b11610071578063f2fde38b14610655578063f7c618c114610668578063f84ddf0b1461067c57600080fd5b8063df2e0b97146105fb578063e985e9c51461060f578063ebe2b12b1461064b57600080fd5b8063cfd0e125116100c8578063cfd0e125146105bd578063d1a249ab146105de578063d975dfed146105e857600080fd5b8063b88d4fde1461058d578063c87b56dd146105a0578063c8f33c91146105b357600080fd5b806395d89b4111610150578063a1c95e5a1161012a578063a1c95e5a14610546578063a22cb46514610567578063a694fc3a1461057a57600080fd5b806395d89b4114610518578063988dc31e14610520578063a00ea0c51461053357600080fd5b806380faa57d1161018157806380faa57d146104f05780638b8fbd92146104f85780638da5cb5b1461050757600080fd5b806370a08231146104cb578063715018a6146104de5780637b0a47ee146104e657600080fd5b80632ee409081161026b5780635200e79e1161021457806360993b5b116101ee57806360993b5b146104925780636352211e146104a5578063645bfd9a146104b857600080fd5b80635200e79e1461046b578063520bf08a146104755780635a48a97f1461047f57600080fd5b8063485cc95511610245578063485cc955146104325780634d6ed8c4146104455780634f6ccce71461045857600080fd5b80632ee40908146103f95780632f745c591461040c57806342842e0e1461041f57600080fd5b806318160ddd116102cd57806323b872dd116102a757806323b872dd146103cb5780632ac3f450146103de5780632e17de78146103e657600080fd5b806318160ddd146103af5780631be05289146103b75780632212b806146103c157600080fd5b8063081812fc116102fe578063081812fc14610357578063095ea7b3146103825780630eba98491461039757600080fd5b806301ffc9a71461031a57806306fdde0314610342575b600080fd5b61032d610328366004612ded565b610686565b60405190151581526020015b60405180910390f35b61034a6106ca565b6040516103399190612e5a565b61036a610365366004612e6d565b61075c565b6040516001600160a01b039091168152602001610339565b610395610390366004612e9d565b610783565b005b6103a16101325481565b604051908152602001610339565b60cb546103a1565b6103a162093a8081565b6103a16101305481565b6103956103d9366004612ec7565b6108b9565b6103a1610940565b6103a16103f4366004612e6d565b610a05565b6103a1610407366004612e9d565b610a10565b6103a161041a366004612e9d565b610a24565b61039561042d366004612ec7565b610acc565b610395610440366004612f03565b610ae7565b6103a1610453366004612e6d565b610cf1565b6103a1610466366004612e6d565b610db9565b6103a16101315481565b6103a161012e5481565b6103a161048d366004612e6d565b610e5d565b6103956104a0366004612e6d565b610ea2565b61036a6104b3366004612e6d565b6110ec565b6103a16104c6366004612e6d565b611151565b6103a16104d9366004612f36565b61117c565b610395611216565b6103a16101355481565b6103a161122a565b6103a1670de0b6b3a764000081565b60fb546001600160a01b031661036a565b61034a61123e565b6103a161052e366004612e6d565b61124d565b6103a1610541366004612e6d565b611273565b6103a1610554366004612e6d565b61013b6020526000908152604090205481565b610395610575366004612f5f565b611299565b6103a1610588366004612e6d565b6112a8565b61039561059b366004612fac565b6112b5565b61034a6105ae366004612e6d565b611343565b6103a16101335481565b6103a16105cb366004612e6d565b61013a6020526000908152604090205481565b6103a161012f5481565b6103a16105f6366004612e6d565b6113b6565b6101385461036a906001600160a01b031681565b61032d61061d366004612f03565b6001600160a01b039182166000908152609c6020908152604080832093909416825291909152205460ff1690565b6103a16101345481565b610395610663366004612f36565b6113fe565b6101395461036a906001600160a01b031681565b6103a161012d5481565b60006001600160e01b031982167f780e9d630000000000000000000000000000000000000000000000000000000014806106c457506106c48261148b565b92915050565b6060609780546106d990613088565b80601f016020809104026020016040519081016040528092919081815260200182805461070590613088565b80156107525780601f1061072757610100808354040283529160200191610752565b820191906000526020600020905b81548152906001019060200180831161073557829003601f168201915b5050505050905090565b600061076782611526565b506000908152609b60205260409020546001600160a01b031690565b600061078e826110ec565b9050806001600160a01b0316836001600160a01b03160361081c5760405162461bcd60e51b815260206004820152602160248201527f4552433732313a20617070726f76616c20746f2063757272656e74206f776e6560448201527f720000000000000000000000000000000000000000000000000000000000000060648201526084015b60405180910390fd5b336001600160a01b03821614806108385750610838813361061d565b6108aa5760405162461bcd60e51b815260206004820152603d60248201527f4552433732313a20617070726f76652063616c6c6572206973206e6f7420746f60448201527f6b656e206f776e6572206f7220617070726f76656420666f7220616c6c0000006064820152608401610813565b6108b4838361158a565b505050565b6108c33382611605565b6109355760405162461bcd60e51b815260206004820152602d60248201527f4552433732313a2063616c6c6572206973206e6f7420746f6b656e206f776e6560448201527f72206f7220617070726f766564000000000000000000000000000000000000006064820152608401610813565b6108b4838383611683565b60006101375460000361095557506101365490565b600061013754116109a85760405162461bcd60e51b815260206004820152601060248201527f496e636f727265637420776569676874000000000000000000000000000000006044820152606401610813565b6000610133546109b661122a565b6109c091906130d8565b90506101375461013554826109d591906130eb565b6109e790670de0b6b3a76400006130eb565b6109f19190613102565b610136546109ff9190613124565b91505090565b60006106c4826118c6565b6000610a1d338484611bfe565b9392505050565b6000610a2f8361117c565b8210610aa35760405162461bcd60e51b815260206004820152602b60248201527f455243373231456e756d657261626c653a206f776e657220696e646578206f7560448201527f74206f6620626f756e64730000000000000000000000000000000000000000006064820152608401610813565b506001600160a01b0391909116600090815260c960209081526040808320938352929052205490565b6108b4838383604051806020016040528060008152506112b5565b600054610100900460ff1615808015610b075750600054600160ff909116105b80610b215750303b158015610b21575060005460ff166001145b610b935760405162461bcd60e51b815260206004820152602e60248201527f496e697469616c697a61626c653a20636f6e747261637420697320616c72656160448201527f647920696e697469616c697a65640000000000000000000000000000000000006064820152608401610813565b6000805460ff191660011790558015610bb6576000805461ff0019166101001790555b610bbe611e29565b610c326040518060400160405280600b81526020017f5374616b656420494e54580000000000000000000000000000000000000000008152506040518060400160405280600581526020017f58494e5458000000000000000000000000000000000000000000000000000000815250611e9c565b610c3a611f11565b61013880546001600160a01b0380861673ffffffffffffffffffffffffffffffffffffffff19928316179092556101398054928516929091169190911790556293a80061012f556722b1c8c1227a0000610130556703782dace9d90000610131556611c37937e080006101325580156108b4576000805461ff0019169055604051600181527f7f26b83ff96e1f2b6a682f133852f6798a09c465da95921460cefb38474024989060200160405180910390a1505050565b600080670de0b6b3a7640000610d0684611f84565b600085815261013b6020526040902054610d2091906130eb565b610d2a9190613102565b600084815261013c602052604081205491925090600290610d4c908490613124565b610d569190613102565b600085815261013e602090815260408083205461013d9092529091205491925090670de0b6b3a764000090610d89610940565b610d9391906130d8565b610d9d90846130eb565b610da79190613102565b610db19190613124565b949350505050565b6000610dc460cb5490565b8210610e385760405162461bcd60e51b815260206004820152602c60248201527f455243373231456e756d657261626c653a20676c6f62616c20696e646578206f60448201527f7574206f6620626f756e647300000000000000000000000000000000000000006064820152608401610813565b60cb8281548110610e4b57610e4b613137565b90600052602060002001549050919050565b600080610e6983612021565b90506000610e768461204f565b90508115610e9b57670de0b6b3a7640000610e9182846130eb565b610db19190613102565b5050919050565b610eaa6120f8565b610139546001600160a01b03166323b872dd336040516001600160e01b031960e084901b1681526001600160a01b039091166004820152306024820152604481018490526064016020604051808303816000875af1158015610f10573d6000803e3d6000fd5b505050506040513d601f19601f82011682018060405250810190610f34919061314d565b50610134544210610f5557610f4c62093a8082613102565b61013555610f9a565b60004261013454610f6691906130d8565b905060006101355482610f7991906130eb565b905062093a80610f898285613124565b610f939190613102565b6101355550505b610139546040517f70a082310000000000000000000000000000000000000000000000000000000081523060048201526000916001600160a01b0316906370a0823190602401602060405180830381865afa158015610ffd573d6000803e3d6000fd5b505050506040513d601f19601f82011682018060405250810190611021919061316a565b905061103062093a8082613102565b6101355411156110825760405162461bcd60e51b815260206004820152601860248201527f50726f76696465642072657761726420746f6f206869676800000000000000006044820152606401610813565b426101338190556110979062093a8090613124565b610134557fde88a922e0d3b88b24e9623efeb464919c6bf9f66857a65e2bfcf2ce87a9433d6110ce670de0b6b3a764000084613102565b60405190815260200160405180910390a1506110e960018055565b50565b6000818152609960205260408120546001600160a01b0316806106c45760405162461bcd60e51b815260206004820152601860248201527f4552433732313a20696e76616c696420746f6b656e20494400000000000000006044820152606401610813565b6000818152609960205260408120546001600160a01b031615611177576106c482611f84565b919050565b60006001600160a01b0382166111fa5760405162461bcd60e51b815260206004820152602960248201527f4552433732313a2061646472657373207a65726f206973206e6f74206120766160448201527f6c6964206f776e657200000000000000000000000000000000000000000000006064820152608401610813565b506001600160a01b03166000908152609a602052604090205490565b61121e612157565b61122860006121b1565b565b60006112394261013454612210565b905090565b6060609880546106d990613088565b6000818152609960205260408120546001600160a01b031615611177576106c48261204f565b6000818152609960205260408120546001600160a01b031615611177576106c482612021565b6112a4338383612226565b5050565b60006106c4333384611bfe565b6112bf3383611605565b6113315760405162461bcd60e51b815260206004820152602d60248201527f4552433732313a2063616c6c6572206973206e6f7420746f6b656e206f776e6560448201527f72206f7220617070726f766564000000000000000000000000000000000000006064820152608401610813565b61133d848484846122f4565b50505050565b606061134e82611526565b600061136560408051602081019091526000815290565b905060008151116113855760405180602001604052806000815250610a1d565b8061138f8461237d565b6040516020016113a0929190613183565b6040516020818303038152906040529392505050565b6000806113c283612021565b905060006113cf8461204f565b90508115610e9b57670de0b6b3a76400006113ea82846130eb565b6113f49190613102565b610db190836130d8565b611406612157565b6001600160a01b0381166114825760405162461bcd60e51b815260206004820152602660248201527f4f776e61626c653a206e6577206f776e657220697320746865207a65726f206160448201527f64647265737300000000000000000000000000000000000000000000000000006064820152608401610813565b6110e9816121b1565b60006001600160e01b031982167f80ac58cd0000000000000000000000000000000000000000000000000000000014806114ee57506001600160e01b031982167f5b5e139f00000000000000000000000000000000000000000000000000000000145b806106c457507f01ffc9a7000000000000000000000000000000000000000000000000000000006001600160e01b03198316146106c4565b6000818152609960205260409020546001600160a01b03166110e95760405162461bcd60e51b815260206004820152601860248201527f4552433732313a20696e76616c696420746f6b656e20494400000000000000006044820152606401610813565b6000818152609b60205260409020805473ffffffffffffffffffffffffffffffffffffffff19166001600160a01b03841690811790915581906115cc826110ec565b6001600160a01b03167f8c5be1e5ebec7d5bd14f71427d1e84f3dd0314c0f7b2291e5b200ac8c7c3b92560405160405180910390a45050565b600080611611836110ec565b9050806001600160a01b0316846001600160a01b0316148061165857506001600160a01b038082166000908152609c602090815260408083209388168352929052205460ff165b80610db15750836001600160a01b03166116718461075c565b6001600160a01b031614949350505050565b826001600160a01b0316611696826110ec565b6001600160a01b0316146117125760405162461bcd60e51b815260206004820152602560248201527f4552433732313a207472616e736665722066726f6d20696e636f72726563742060448201527f6f776e65720000000000000000000000000000000000000000000000000000006064820152608401610813565b6001600160a01b03821661178d5760405162461bcd60e51b8152602060048201526024808201527f4552433732313a207472616e7366657220746f20746865207a65726f2061646460448201527f72657373000000000000000000000000000000000000000000000000000000006064820152608401610813565b61179a838383600161241d565b826001600160a01b03166117ad826110ec565b6001600160a01b0316146118295760405162461bcd60e51b815260206004820152602560248201527f4552433732313a207472616e736665722066726f6d20696e636f72726563742060448201527f6f776e65720000000000000000000000000000000000000000000000000000006064820152608401610813565b6000818152609b60209081526040808320805473ffffffffffffffffffffffffffffffffffffffff199081169091556001600160a01b03878116808652609a8552838620805460001901905590871680865283862080546001019055868652609990945282852080549092168417909155905184937fddf252ad1be2c89b69c2b068fc378daa952ba7f163c4a11628f55a4df523b3ef91a4505050565b60006118d06120f8565b6000828152609960205260409020546001600160a01b03166119345760405162461bcd60e51b815260206004820152601c60248201527f5468697320706f736974696f6e20646f65736e27742065786973742e000000006044820152606401610813565b6000828152609960205260409020546001600160a01b031633811461199b5760405162461bcd60e51b815260206004820152601360248201527f4e6f7420796f75722078494e5458204e46542e000000000000000000000000006044820152606401610813565b600083815261013b602052604081205490670de0b6b3a76400006119be86611f84565b6119c890846130eb565b6119d29190613102565b905060006119de612559565b90506000670de0b6b3a76400006119f583866130eb565b6119ff9190613102565b90506000670de0b6b3a7640000611a158961204f565b611a1f90846130eb565b611a299190613102565b9050611a3581836130d8565b600089815261013a6020908152604080832083905561013b825280832083905561013c825280832083905561013d825280832083905561013e90915290205490975015611aba57600088815261013e60209081526040808320546001600160a01b038a16845261013f9092528220805491929091611ab4908490613124565b90915550505b600088815261013e6020526040812055611ad38861259c565b8461012e6000828254611ae691906130d8565b92505081905550836101376000828254611b0091906130d8565b9091555050610138546040517fa9059cbb0000000000000000000000000000000000000000000000000000000081526001600160a01b038881166004830152602482018a90529091169063a9059cbb906044016020604051808303816000875af1158015611b72573d6000803e3d6000fd5b505050506040513d601f19601f82011682018060405250810190611b96919061314d565b5061012e5460408051878152602081018a905280820184905260608101929092525189916001600160a01b038916917f44bd20a79e993bdcc7cbedf54a3b4d19fb78490124b6b90d04fe3242eea579e89181900360800190a350505050505061117760018055565b6000611c086120f8565b60008211611c585760405162461bcd60e51b815260206004820152601360248201527f43616e2774207374616b65203020696e74582e000000000000000000000000006044820152606401610813565b6000611c62612559565b610138546040517f23b872dd0000000000000000000000000000000000000000000000000000000081526001600160a01b038881166004830152306024830152604482018790529293509116906323b872dd906064016020604051808303816000875af1158015611cd7573d6000803e3d6000fd5b505050506040513d601f19601f82011682018060405250810190611cfb919061314d565b5061012d8054906000611d0d836131b2565b9190505550611d1f8461012d5461264c565b600081611d34670de0b6b3a7640000866130eb565b611d3e9190613102565b61012d8054600090815261013a602090815260408083204290559254825261013b905290812082905561012e80549293508392909190611d7f908490613124565b92505081905550806101376000828254611d999190613124565b909155505061012d8054600090815261013c6020908152604091829020849055915461012e54610137548351868152948501899052928401526060830191909152906001600160a01b0380881691908916907f52c6b7a228763dc832bef1e2dee48707b24b8f1400a6335b3af6d5def4f5bb219060800160405180910390a461012d5492505050610a1d60018055565b600054610100900460ff16611e945760405162461bcd60e51b815260206004820152602b60248201527f496e697469616c697a61626c653a20636f6e7472616374206973206e6f74206960448201526a6e697469616c697a696e6760a81b6064820152608401610813565b6112286127f2565b600054610100900460ff16611f075760405162461bcd60e51b815260206004820152602b60248201527f496e697469616c697a61626c653a20636f6e7472616374206973206e6f74206960448201526a6e697469616c697a696e6760a81b6064820152608401610813565b6112a4828261285d565b600054610100900460ff16611f7c5760405162461bcd60e51b815260206004820152602b60248201527f496e697469616c697a61626c653a20636f6e7472616374206973206e6f74206960448201526a6e697469616c697a696e6760a81b6064820152608401610813565b6112286128e1565b600081815261013a6020526040812054808203611fa45750600092915050565b6000611fb082426130d8565b905061012f54811115611fc3575061012f545b670de0b6b3a76400008061013054611fdb91906130d8565b61012f54611ff1670de0b6b3a7640000856130eb565b611ffb9190613102565b61200591906130eb565b61200f9190613102565b610db190670de0b6b3a7640000613124565b600081815261013b60205260408120548161203a612559565b9050670de0b6b3a7640000610e9182846130eb565b600081815261013a602052604081205480820361206f5750600092915050565b600061207b82426130d8565b905061012f5481111561208e575061012f545b670de0b6b3a76400006101315461012f54670de0b6b3a7640000846120b391906130eb565b6120bd9190613102565b6120c791906130eb565b6120d19190613102565b610131546120df91906130d8565b925061013254831015610e9b5750506101325492915050565b60026001540361214a5760405162461bcd60e51b815260206004820152601f60248201527f5265656e7472616e637947756172643a207265656e7472616e742063616c6c006044820152606401610813565b6002600155565b60018055565b60fb546001600160a01b031633146112285760405162461bcd60e51b815260206004820181905260248201527f4f776e61626c653a2063616c6c6572206973206e6f7420746865206f776e65726044820152606401610813565b60fb80546001600160a01b0383811673ffffffffffffffffffffffffffffffffffffffff19831681179093556040519116919082907f8be0079c531659141344cd1fd0a4f28419497f9722a3daafe3b4186f6b6457e090600090a35050565b600081831061221f5781610a1d565b5090919050565b816001600160a01b0316836001600160a01b0316036122875760405162461bcd60e51b815260206004820152601960248201527f4552433732313a20617070726f766520746f2063616c6c6572000000000000006044820152606401610813565b6001600160a01b038381166000818152609c6020908152604080832094871680845294825291829020805460ff191686151590811790915591519182527f17307eab39ab6107e8899845ad3d59bd9653f200f220920489ca2b5937696c31910160405180910390a3505050565b6122ff848484611683565b61230b84848484612955565b61133d5760405162461bcd60e51b815260206004820152603260248201527f4552433732313a207472616e7366657220746f206e6f6e20455243373231526560448201527f63656976657220696d706c656d656e74657200000000000000000000000000006064820152608401610813565b6060600061238a83612ade565b600101905060008167ffffffffffffffff8111156123aa576123aa612f96565b6040519080825280601f01601f1916602001820160405280156123d4576020820181803683370190505b5090508181016020015b600019017f3031323334353637383961626364656600000000000000000000000000000000600a86061a8153600a85049450846123de57509392505050565b60018111156124945760405162461bcd60e51b815260206004820152603560248201527f455243373231456e756d657261626c653a20636f6e736563757469766520747260448201527f616e7366657273206e6f7420737570706f7274656400000000000000000000006064820152608401610813565b816001600160a01b0385166124f0576124eb8160cb8054600083815260cc60205260408120829055600182018355919091527fa7ce836d032b2bf62b7e2097a8e0a6d8aeb35405ad15271e96d3b0188a1d06fb0155565b612513565b836001600160a01b0316856001600160a01b031614612513576125138582612bc0565b6001600160a01b03841661252f5761252a81612c5d565b612552565b846001600160a01b0316846001600160a01b031614612552576125528482612d0c565b5050505050565b600061012e546000036125735750670de0b6b3a764000090565b61012e54670de0b6b3a7640000612588612d50565b61259291906130eb565b6112399190613102565b60006125a7826110ec565b90506125b781600084600161241d565b6125c0826110ec565b6000838152609b60209081526040808320805473ffffffffffffffffffffffffffffffffffffffff199081169091556001600160a01b038516808552609a845282852080546000190190558785526099909352818420805490911690555192935084927fddf252ad1be2c89b69c2b068fc378daa952ba7f163c4a11628f55a4df523b3ef908390a45050565b6001600160a01b0382166126a25760405162461bcd60e51b815260206004820181905260248201527f4552433732313a206d696e7420746f20746865207a65726f20616464726573736044820152606401610813565b6000818152609960205260409020546001600160a01b0316156127075760405162461bcd60e51b815260206004820152601c60248201527f4552433732313a20746f6b656e20616c7265616479206d696e746564000000006044820152606401610813565b61271560008383600161241d565b6000818152609960205260409020546001600160a01b03161561277a5760405162461bcd60e51b815260206004820152601c60248201527f4552433732313a20746f6b656e20616c7265616479206d696e746564000000006044820152606401610813565b6001600160a01b0382166000818152609a60209081526040808320805460010190558483526099909152808220805473ffffffffffffffffffffffffffffffffffffffff19168417905551839291907fddf252ad1be2c89b69c2b068fc378daa952ba7f163c4a11628f55a4df523b3ef908290a45050565b600054610100900460ff166121515760405162461bcd60e51b815260206004820152602b60248201527f496e697469616c697a61626c653a20636f6e7472616374206973206e6f74206960448201526a6e697469616c697a696e6760a81b6064820152608401610813565b600054610100900460ff166128c85760405162461bcd60e51b815260206004820152602b60248201527f496e697469616c697a61626c653a20636f6e7472616374206973206e6f74206960448201526a6e697469616c697a696e6760a81b6064820152608401610813565b60976128d4838261321a565b5060986108b4828261321a565b600054610100900460ff1661294c5760405162461bcd60e51b815260206004820152602b60248201527f496e697469616c697a61626c653a20636f6e7472616374206973206e6f74206960448201526a6e697469616c697a696e6760a81b6064820152608401610813565b611228336121b1565b60006001600160a01b0384163b15612ad3576040517f150b7a020000000000000000000000000000000000000000000000000000000081526001600160a01b0385169063150b7a02906129b29033908990889088906004016132da565b6020604051808303816000875af19250505080156129ed575060408051601f3d908101601f191682019092526129ea91810190613316565b60015b612aa0573d808015612a1b576040519150601f19603f3d011682016040523d82523d6000602084013e612a20565b606091505b508051600003612a985760405162461bcd60e51b815260206004820152603260248201527f4552433732313a207472616e7366657220746f206e6f6e20455243373231526560448201527f63656976657220696d706c656d656e74657200000000000000000000000000006064820152608401610813565b805181602001fd5b6001600160e01b0319167f150b7a0200000000000000000000000000000000000000000000000000000000149050610db1565b506001949350505050565b6000807a184f03e93ff9f4daa797ed6e38ed64bf6a1f0100000000000000008310612b27577a184f03e93ff9f4daa797ed6e38ed64bf6a1f010000000000000000830492506040015b6d04ee2d6d415b85acef81000000008310612b53576d04ee2d6d415b85acef8100000000830492506020015b662386f26fc100008310612b7157662386f26fc10000830492506010015b6305f5e1008310612b89576305f5e100830492506008015b6127108310612b9d57612710830492506004015b60648310612baf576064830492506002015b600a83106106c45760010192915050565b60006001612bcd8461117c565b612bd791906130d8565b600083815260ca6020526040902054909150808214612c2a576001600160a01b038416600090815260c960209081526040808320858452825280832054848452818420819055835260ca90915290208190555b50600091825260ca602090815260408084208490556001600160a01b03909416835260c981528383209183525290812055565b60cb54600090612c6f906001906130d8565b600083815260cc602052604081205460cb8054939450909284908110612c9757612c97613137565b906000526020600020015490508060cb8381548110612cb857612cb8613137565b600091825260208083209091019290925582815260cc909152604080822084905585825281205560cb805480612cf057612cf0613333565b6001900381819060005260206000200160009055905550505050565b6000612d178361117c565b6001600160a01b03909316600090815260c960209081526040808320868452825280832085905593825260ca9052919091209190915550565b610138546040517f70a082310000000000000000000000000000000000000000000000000000000081523060048201526000916001600160a01b0316906370a0823190602401602060405180830381865afa158015612db3573d6000803e3d6000fd5b505050506040513d601f19601f82011682018060405250810190611239919061316a565b6001600160e01b0319811681146110e957600080fd5b600060208284031215612dff57600080fd5b8135610a1d81612dd7565b60005b83811015612e25578181015183820152602001612e0d565b50506000910152565b60008151808452612e46816020860160208601612e0a565b601f01601f19169290920160200192915050565b602081526000610a1d6020830184612e2e565b600060208284031215612e7f57600080fd5b5035919050565b80356001600160a01b038116811461117757600080fd5b60008060408385031215612eb057600080fd5b612eb983612e86565b946020939093013593505050565b600080600060608486031215612edc57600080fd5b612ee584612e86565b9250612ef360208501612e86565b9150604084013590509250925092565b60008060408385031215612f1657600080fd5b612f1f83612e86565b9150612f2d60208401612e86565b90509250929050565b600060208284031215612f4857600080fd5b610a1d82612e86565b80151581146110e957600080fd5b60008060408385031215612f7257600080fd5b612f7b83612e86565b91506020830135612f8b81612f51565b809150509250929050565b634e487b7160e01b600052604160045260246000fd5b60008060008060808587031215612fc257600080fd5b612fcb85612e86565b9350612fd960208601612e86565b925060408501359150606085013567ffffffffffffffff80821115612ffd57600080fd5b818701915087601f83011261301157600080fd5b81358181111561302357613023612f96565b604051601f8201601f19908116603f0116810190838211818310171561304b5761304b612f96565b816040528281528a602084870101111561306457600080fd5b82602086016020830137600060208483010152809550505050505092959194509250565b600181811c9082168061309c57607f821691505b6020821081036130bc57634e487b7160e01b600052602260045260246000fd5b50919050565b634e487b7160e01b600052601160045260246000fd5b818103818111156106c4576106c46130c2565b80820281158282048414176106c4576106c46130c2565b60008261311f57634e487b7160e01b600052601260045260246000fd5b500490565b808201808211156106c4576106c46130c2565b634e487b7160e01b600052603260045260246000fd5b60006020828403121561315f57600080fd5b8151610a1d81612f51565b60006020828403121561317c57600080fd5b5051919050565b60008351613195818460208801612e0a565b8351908301906131a9818360208801612e0a565b01949350505050565b600060001982036131c5576131c56130c2565b5060010190565b601f8211156108b457600081815260208120601f850160051c810160208610156131f35750805b601f850160051c820191505b81811015613212578281556001016131ff565b505050505050565b815167ffffffffffffffff81111561323457613234612f96565b613248816132428454613088565b846131cc565b602080601f83116001811461327d57600084156132655750858301515b600019600386901b1c1916600185901b178555613212565b600085815260208120601f198616915b828110156132ac5788860151825594840194600190910190840161328d565b50858210156132ca5787850151600019600388901b60f8161c191681555b5050505050600190811b01905550565b60006001600160a01b0380871683528086166020840152508360408301526080606083015261330c6080830184612e2e565b9695505050505050565b60006020828403121561332857600080fd5b8151610a1d81612dd7565b634e487b7160e01b600052603160045260246000fdfea264697066735822122027b14644b40fc050ba4d3cb03ef3762f8d4db7f8424fa8344306594594563b7364736f6c63430008130033","opcodes":"PUSH1 0x80 PUSH1 0x40 MSTORE CALLVALUE DUP1 ISZERO PUSH3 0x11 JUMPI PUSH1 0x0 DUP1 REVERT JUMPDEST POP PUSH3 0x1C PUSH3 0x22 JUMP JUMPDEST PUSH3 0xE3 JUMP JUMPDEST PUSH1 0x0 SLOAD PUSH2 0x100 SWAP1 DIV PUSH1 0xFF AND ISZERO PUSH3 0x8F JUMPI PUSH1 0x40 MLOAD PUSH3 0x461BCD PUSH1 0xE5 SHL DUP2 MSTORE PUSH1 0x20 PUSH1 0x4 DUP3 ADD MSTORE PUSH1 0x27 PUSH1 0x24 DUP3 ADD MSTORE PUSH32 0x496E697469616C697A61626C653A20636F6E747261637420697320696E697469 PUSH1 0x44 DUP3 ADD MSTORE PUSH7 0x616C697A696E67 PUSH1 0xC8 SHL PUSH1 0x64 DUP3 ADD MSTORE PUSH1 0x84 ADD PUSH1 0x40 MLOAD DUP1 SWAP2 SUB SWAP1 REVERT JUMPDEST PUSH1 0x0 SLOAD PUSH1 0xFF SWAP1 DUP2 AND EQ PUSH3 0xE1 JUMPI PUSH1 0x0 DUP1 SLOAD PUSH1 0xFF NOT AND PUSH1 0xFF SWAP1 DUP2 OR SWAP1 SWAP2 SSTORE PUSH1 0x40 MLOAD SWAP1 DUP2 MSTORE PUSH32 0x7F26B83FF96E1F2B6A682F133852F6798A09C465DA95921460CEFB3847402498 SWAP1 PUSH1 0x20 ADD PUSH1 0x40 MLOAD DUP1 SWAP2 SUB SWAP1 LOG1 JUMPDEST JUMP JUMPDEST PUSH2 0x337F DUP1 PUSH3 0xF3 PUSH1 0x0 CODECOPY PUSH1 0x0 RETURN INVALID PUSH1 0x80 PUSH1 0x40 MSTORE CALLVALUE DUP1 ISZERO PUSH2 0x10 JUMPI PUSH1 0x0 DUP1 REVERT JUMPDEST POP PUSH1 0x4 CALLDATASIZE LT PUSH2 0x315 JUMPI PUSH1 0x0 CALLDATALOAD PUSH1 0xE0 SHR DUP1 PUSH4 0x70A08231 GT PUSH2 0x1A7 JUMPI DUP1 PUSH4 0xB88D4FDE GT PUSH2 0xEE JUMPI DUP1 PUSH4 0xDF2E0B97 GT PUSH2 0x97 JUMPI DUP1 PUSH4 0xF2FDE38B GT PUSH2 0x71 JUMPI DUP1 PUSH4 0xF2FDE38B EQ PUSH2 0x655 JUMPI DUP1 PUSH4 0xF7C618C1 EQ PUSH2 0x668 JUMPI DUP1 PUSH4 0xF84DDF0B EQ PUSH2 0x67C JUMPI PUSH1 0x0 DUP1 REVERT JUMPDEST DUP1 PUSH4 0xDF2E0B97 EQ PUSH2 0x5FB JUMPI DUP1 PUSH4 0xE985E9C5 EQ PUSH2 0x60F JUMPI DUP1 PUSH4 0xEBE2B12B EQ PUSH2 0x64B JUMPI PUSH1 0x0 DUP1 REVERT JUMPDEST DUP1 PUSH4 0xCFD0E125 GT PUSH2 0xC8 JUMPI DUP1 PUSH4 0xCFD0E125 EQ PUSH2 0x5BD JUMPI DUP1 PUSH4 0xD1A249AB EQ PUSH2 0x5DE JUMPI DUP1 PUSH4 0xD975DFED EQ PUSH2 0x5E8 JUMPI PUSH1 0x0 DUP1 REVERT JUMPDEST DUP1 PUSH4 0xB88D4FDE EQ PUSH2 0x58D JUMPI DUP1 PUSH4 0xC87B56DD EQ PUSH2 0x5A0 JUMPI DUP1 PUSH4 0xC8F33C91 EQ PUSH2 0x5B3 JUMPI PUSH1 0x0 DUP1 REVERT JUMPDEST DUP1 PUSH4 0x95D89B41 GT PUSH2 0x150 JUMPI DUP1 PUSH4 0xA1C95E5A GT PUSH2 0x12A JUMPI DUP1 PUSH4 0xA1C95E5A EQ PUSH2 0x546 JUMPI DUP1 PUSH4 0xA22CB465 EQ PUSH2 0x567 JUMPI DUP1 PUSH4 0xA694FC3A EQ PUSH2 0x57A JUMPI PUSH1 0x0 DUP1 REVERT JUMPDEST DUP1 PUSH4 0x95D89B41 EQ PUSH2 0x518 JUMPI DUP1 PUSH4 0x988DC31E EQ PUSH2 0x520 JUMPI DUP1 PUSH4 0xA00EA0C5 EQ PUSH2 0x533 JUMPI PUSH1 0x0 DUP1 REVERT JUMPDEST DUP1 PUSH4 0x80FAA57D GT PUSH2 0x181 JUMPI DUP1 PUSH4 0x80FAA57D EQ PUSH2 0x4F0 JUMPI DUP1 PUSH4 0x8B8FBD92 EQ PUSH2 0x4F8 JUMPI DUP1 PUSH4 0x8DA5CB5B EQ PUSH2 0x507 JUMPI PUSH1 0x0 DUP1 REVERT JUMPDEST DUP1 PUSH4 0x70A08231 EQ PUSH2 0x4CB JUMPI DUP1 PUSH4 0x715018A6 EQ PUSH2 0x4DE JUMPI DUP1 PUSH4 0x7B0A47EE EQ PUSH2 0x4E6 JUMPI PUSH1 0x0 DUP1 REVERT JUMPDEST DUP1 PUSH4 0x2EE40908 GT PUSH2 0x26B JUMPI DUP1 PUSH4 0x5200E79E GT PUSH2 0x214 JUMPI DUP1 PUSH4 0x60993B5B GT PUSH2 0x1EE JUMPI DUP1 PUSH4 0x60993B5B EQ PUSH2 0x492 JUMPI DUP1 PUSH4 0x6352211E EQ PUSH2 0x4A5 JUMPI DUP1 PUSH4 0x645BFD9A EQ PUSH2 0x4B8 JUMPI PUSH1 0x0 DUP1 REVERT JUMPDEST DUP1 PUSH4 0x5200E79E EQ PUSH2 0x46B JUMPI DUP1 PUSH4 0x520BF08A EQ PUSH2 0x475 JUMPI DUP1 PUSH4 0x5A48A97F EQ PUSH2 0x47F JUMPI PUSH1 0x0 DUP1 REVERT JUMPDEST DUP1 PUSH4 0x485CC955 GT PUSH2 0x245 JUMPI DUP1 PUSH4 0x485CC955 EQ PUSH2 0x432 JUMPI DUP1 PUSH4 0x4D6ED8C4 EQ PUSH2 0x445 JUMPI DUP1 PUSH4 0x4F6CCCE7 EQ PUSH2 0x458 JUMPI PUSH1 0x0 DUP1 REVERT JUMPDEST DUP1 PUSH4 0x2EE40908 EQ PUSH2 0x3F9 JUMPI DUP1 PUSH4 0x2F745C59 EQ PUSH2 0x40C JUMPI DUP1 PUSH4 0x42842E0E EQ PUSH2 0x41F JUMPI PUSH1 0x0 DUP1 REVERT JUMPDEST DUP1 PUSH4 0x18160DDD GT PUSH2 0x2CD JUMPI DUP1 PUSH4 0x23B872DD GT PUSH2 0x2A7 JUMPI DUP1 PUSH4 0x23B872DD EQ PUSH2 0x3CB JUMPI DUP1 PUSH4 0x2AC3F450 EQ PUSH2 0x3DE JUMPI DUP1 PUSH4 0x2E17DE78 EQ PUSH2 0x3E6 JUMPI PUSH1 0x0 DUP1 REVERT JUMPDEST DUP1 PUSH4 0x18160DDD EQ PUSH2 0x3AF JUMPI DUP1 PUSH4 0x1BE05289 EQ PUSH2 0x3B7 JUMPI DUP1 PUSH4 0x2212B806 EQ PUSH2 0x3C1 JUMPI PUSH1 0x0 DUP1 REVERT JUMPDEST DUP1 PUSH4 0x81812FC GT PUSH2 0x2FE JUMPI DUP1 PUSH4 0x81812FC EQ PUSH2 0x357 JUMPI DUP1 PUSH4 0x95EA7B3 EQ PUSH2 0x382 JUMPI DUP1 PUSH4 0xEBA9849 EQ PUSH2 0x397 JUMPI PUSH1 0x0 DUP1 REVERT JUMPDEST DUP1 PUSH4 0x1FFC9A7 EQ PUSH2 0x31A JUMPI DUP1 PUSH4 0x6FDDE03 EQ PUSH2 0x342 JUMPI JUMPDEST PUSH1 0x0 DUP1 REVERT JUMPDEST PUSH2 0x32D PUSH2 0x328 CALLDATASIZE PUSH1 0x4 PUSH2 0x2DED JUMP JUMPDEST PUSH2 0x686 JUMP JUMPDEST PUSH1 0x40 MLOAD SWAP1 ISZERO ISZERO DUP2 MSTORE PUSH1 0x20 ADD JUMPDEST PUSH1 0x40 MLOAD DUP1 SWAP2 SUB SWAP1 RETURN JUMPDEST PUSH2 0x34A PUSH2 0x6CA JUMP JUMPDEST PUSH1 0x40 MLOAD PUSH2 0x339 SWAP2 SWAP1 PUSH2 0x2E5A JUMP JUMPDEST PUSH2 0x36A PUSH2 0x365 CALLDATASIZE PUSH1 0x4 PUSH2 0x2E6D JUMP JUMPDEST PUSH2 0x75C JUMP JUMPDEST PUSH1 0x40 MLOAD PUSH1 0x1 PUSH1 0x1 PUSH1 0xA0 SHL SUB SWAP1 SWAP2 AND DUP2 MSTORE PUSH1 0x20 ADD PUSH2 0x339 JUMP JUMPDEST PUSH2 0x395 PUSH2 0x390 CALLDATASIZE PUSH1 0x4 PUSH2 0x2E9D JUMP JUMPDEST PUSH2 0x783 JUMP JUMPDEST STOP JUMPDEST PUSH2 0x3A1 PUSH2 0x132 SLOAD DUP2 JUMP JUMPDEST PUSH1 0x40 MLOAD SWAP1 DUP2 MSTORE PUSH1 0x20 ADD PUSH2 0x339 JUMP JUMPDEST PUSH1 0xCB SLOAD PUSH2 0x3A1 JUMP JUMPDEST PUSH2 0x3A1 PUSH3 0x93A80 DUP2 JUMP JUMPDEST PUSH2 0x3A1 PUSH2 0x130 SLOAD DUP2 JUMP JUMPDEST PUSH2 0x395 PUSH2 0x3D9 CALLDATASIZE PUSH1 0x4 PUSH2 0x2EC7 JUMP JUMPDEST PUSH2 0x8B9 JUMP JUMPDEST PUSH2 0x3A1 PUSH2 0x940 JUMP JUMPDEST PUSH2 0x3A1 PUSH2 0x3F4 CALLDATASIZE PUSH1 0x4 PUSH2 0x2E6D JUMP JUMPDEST PUSH2 0xA05 JUMP JUMPDEST PUSH2 0x3A1 PUSH2 0x407 CALLDATASIZE PUSH1 0x4 PUSH2 0x2E9D JUMP JUMPDEST PUSH2 0xA10 JUMP JUMPDEST PUSH2 0x3A1 PUSH2 0x41A CALLDATASIZE PUSH1 0x4 PUSH2 0x2E9D JUMP JUMPDEST PUSH2 0xA24 JUMP JUMPDEST PUSH2 0x395 PUSH2 0x42D CALLDATASIZE PUSH1 0x4 PUSH2 0x2EC7 JUMP JUMPDEST PUSH2 0xACC JUMP JUMPDEST PUSH2 0x395 PUSH2 0x440 CALLDATASIZE PUSH1 0x4 PUSH2 0x2F03 JUMP JUMPDEST PUSH2 0xAE7 JUMP JUMPDEST PUSH2 0x3A1 PUSH2 0x453 CALLDATASIZE PUSH1 0x4 PUSH2 0x2E6D JUMP JUMPDEST PUSH2 0xCF1 JUMP JUMPDEST PUSH2 0x3A1 PUSH2 0x466 CALLDATASIZE PUSH1 0x4 PUSH2 0x2E6D JUMP JUMPDEST PUSH2 0xDB9 JUMP JUMPDEST PUSH2 0x3A1 PUSH2 0x131 SLOAD DUP2 JUMP JUMPDEST PUSH2 0x3A1 PUSH2 0x12E SLOAD DUP2 JUMP JUMPDEST PUSH2 0x3A1 PUSH2 0x48D CALLDATASIZE PUSH1 0x4 PUSH2 0x2E6D JUMP JUMPDEST PUSH2 0xE5D JUMP JUMPDEST PUSH2 0x395 PUSH2 0x4A0 CALLDATASIZE PUSH1 0x4 PUSH2 0x2E6D JUMP JUMPDEST PUSH2 0xEA2 JUMP JUMPDEST PUSH2 0x36A PUSH2 0x4B3 CALLDATASIZE PUSH1 0x4 PUSH2 0x2E6D JUMP JUMPDEST PUSH2 0x10EC JUMP JUMPDEST PUSH2 0x3A1 PUSH2 0x4C6 CALLDATASIZE PUSH1 0x4 PUSH2 0x2E6D JUMP JUMPDEST PUSH2 0x1151 JUMP JUMPDEST PUSH2 0x3A1 PUSH2 0x4D9 CALLDATASIZE PUSH1 0x4 PUSH2 0x2F36 JUMP JUMPDEST PUSH2 0x117C JUMP JUMPDEST PUSH2 0x395 PUSH2 0x1216 JUMP JUMPDEST PUSH2 0x3A1 PUSH2 0x135 SLOAD DUP2 JUMP JUMPDEST PUSH2 0x3A1 PUSH2 0x122A JUMP JUMPDEST PUSH2 0x3A1 PUSH8 0xDE0B6B3A7640000 DUP2 JUMP JUMPDEST PUSH1 0xFB SLOAD PUSH1 0x1 PUSH1 0x1 PUSH1 0xA0 SHL SUB AND PUSH2 0x36A JUMP JUMPDEST PUSH2 0x34A PUSH2 0x123E JUMP JUMPDEST PUSH2 0x3A1 PUSH2 0x52E CALLDATASIZE PUSH1 0x4 PUSH2 0x2E6D JUMP JUMPDEST PUSH2 0x124D JUMP JUMPDEST PUSH2 0x3A1 PUSH2 0x541 CALLDATASIZE PUSH1 0x4 PUSH2 0x2E6D JUMP JUMPDEST PUSH2 0x1273 JUMP JUMPDEST PUSH2 0x3A1 PUSH2 0x554 CALLDATASIZE PUSH1 0x4 PUSH2 0x2E6D JUMP JUMPDEST PUSH2 0x13B PUSH1 0x20 MSTORE PUSH1 0x0 SWAP1 DUP2 MSTORE PUSH1 0x40 SWAP1 KECCAK256 SLOAD DUP2 JUMP JUMPDEST PUSH2 0x395 PUSH2 0x575 CALLDATASIZE PUSH1 0x4 PUSH2 0x2F5F JUMP JUMPDEST PUSH2 0x1299 JUMP JUMPDEST PUSH2 0x3A1 PUSH2 0x588 CALLDATASIZE PUSH1 0x4 PUSH2 0x2E6D JUMP JUMPDEST PUSH2 0x12A8 JUMP JUMPDEST PUSH2 0x395 PUSH2 0x59B CALLDATASIZE PUSH1 0x4 PUSH2 0x2FAC JUMP JUMPDEST PUSH2 0x12B5 JUMP JUMPDEST PUSH2 0x34A PUSH2 0x5AE CALLDATASIZE PUSH1 0x4 PUSH2 0x2E6D JUMP JUMPDEST PUSH2 0x1343 JUMP JUMPDEST PUSH2 0x3A1 PUSH2 0x133 SLOAD DUP2 JUMP JUMPDEST PUSH2 0x3A1 PUSH2 0x5CB CALLDATASIZE PUSH1 0x4 PUSH2 0x2E6D JUMP JUMPDEST PUSH2 0x13A PUSH1 0x20 MSTORE PUSH1 0x0 SWAP1 DUP2 MSTORE PUSH1 0x40 SWAP1 KECCAK256 SLOAD DUP2 JUMP JUMPDEST PUSH2 0x3A1 PUSH2 0x12F SLOAD DUP2 JUMP JUMPDEST PUSH2 0x3A1 PUSH2 0x5F6 CALLDATASIZE PUSH1 0x4 PUSH2 0x2E6D JUMP JUMPDEST PUSH2 0x13B6 JUMP JUMPDEST PUSH2 0x138 SLOAD PUSH2 0x36A SWAP1 PUSH1 0x1 PUSH1 0x1 PUSH1 0xA0 SHL SUB AND DUP2 JUMP JUMPDEST PUSH2 0x32D PUSH2 0x61D CALLDATASIZE PUSH1 0x4 PUSH2 0x2F03 JUMP JUMPDEST PUSH1 0x1 PUSH1 0x1 PUSH1 0xA0 SHL SUB SWAP2 DUP3 AND PUSH1 0x0 SWAP1 DUP2 MSTORE PUSH1 0x9C PUSH1 0x20 SWAP1 DUP2 MSTORE PUSH1 0x40 DUP1 DUP4 KECCAK256 SWAP4 SWAP1 SWAP5 AND DUP3 MSTORE SWAP2 SWAP1 SWAP2 MSTORE KECCAK256 SLOAD PUSH1 0xFF AND SWAP1 JUMP JUMPDEST PUSH2 0x3A1 PUSH2 0x134 SLOAD DUP2 JUMP JUMPDEST PUSH2 0x395 PUSH2 0x663 CALLDATASIZE PUSH1 0x4 PUSH2 0x2F36 JUMP JUMPDEST PUSH2 0x13FE JUMP JUMPDEST PUSH2 0x139 SLOAD PUSH2 0x36A SWAP1 PUSH1 0x1 PUSH1 0x1 PUSH1 0xA0 SHL SUB AND DUP2 JUMP JUMPDEST PUSH2 0x3A1 PUSH2 0x12D SLOAD DUP2 JUMP JUMPDEST PUSH1 0x0 PUSH1 0x1 PUSH1 0x1 PUSH1 0xE0 SHL SUB NOT DUP3 AND PUSH32 0x780E9D6300000000000000000000000000000000000000000000000000000000 EQ DUP1 PUSH2 0x6C4 JUMPI POP PUSH2 0x6C4 DUP3 PUSH2 0x148B JUMP JUMPDEST SWAP3 SWAP2 POP POP JUMP JUMPDEST PUSH1 0x60 PUSH1 0x97 DUP1 SLOAD PUSH2 0x6D9 SWAP1 PUSH2 0x3088 JUMP JUMPDEST DUP1 PUSH1 0x1F ADD PUSH1 0x20 DUP1 SWAP2 DIV MUL PUSH1 0x20 ADD PUSH1 0x40 MLOAD SWAP1 DUP2 ADD PUSH1 0x40 MSTORE DUP1 SWAP3 SWAP2 SWAP1 DUP2 DUP2 MSTORE PUSH1 0x20 ADD DUP3 DUP1 SLOAD PUSH2 0x705 SWAP1 PUSH2 0x3088 JUMP JUMPDEST DUP1 ISZERO PUSH2 0x752 JUMPI DUP1 PUSH1 0x1F LT PUSH2 0x727 JUMPI PUSH2 0x100 DUP1 DUP4 SLOAD DIV MUL DUP4 MSTORE SWAP2 PUSH1 0x20 ADD SWAP2 PUSH2 0x752 JUMP JUMPDEST DUP3 ADD SWAP2 SWAP1 PUSH1 0x0 MSTORE PUSH1 0x20 PUSH1 0x0 KECCAK256 SWAP1 JUMPDEST DUP2 SLOAD DUP2 MSTORE SWAP1 PUSH1 0x1 ADD SWAP1 PUSH1 0x20 ADD DUP1 DUP4 GT PUSH2 0x735 JUMPI DUP3 SWAP1 SUB PUSH1 0x1F AND DUP3 ADD SWAP2 JUMPDEST POP POP POP POP POP SWAP1 POP SWAP1 JUMP JUMPDEST PUSH1 0x0 PUSH2 0x767 DUP3 PUSH2 0x1526 JUMP JUMPDEST POP PUSH1 0x0 SWAP1 DUP2 MSTORE PUSH1 0x9B PUSH1 0x20 MSTORE PUSH1 0x40 SWAP1 KECCAK256 SLOAD PUSH1 0x1 PUSH1 0x1 PUSH1 0xA0 SHL SUB AND SWAP1 JUMP JUMPDEST PUSH1 0x0 PUSH2 0x78E DUP3 PUSH2 0x10EC JUMP JUMPDEST SWAP1 POP DUP1 PUSH1 0x1 PUSH1 0x1 PUSH1 0xA0 SHL SUB AND DUP4 PUSH1 0x1 PUSH1 0x1 PUSH1 0xA0 SHL SUB AND SUB PUSH2 0x81C JUMPI PUSH1 0x40 MLOAD PUSH3 0x461BCD PUSH1 0xE5 SHL DUP2 MSTORE PUSH1 0x20 PUSH1 0x4 DUP3 ADD MSTORE PUSH1 0x21 PUSH1 0x24 DUP3 ADD MSTORE PUSH32 0x4552433732313A20617070726F76616C20746F2063757272656E74206F776E65 PUSH1 0x44 DUP3 ADD MSTORE PUSH32 0x7200000000000000000000000000000000000000000000000000000000000000 PUSH1 0x64 DUP3 ADD MSTORE PUSH1 0x84 ADD JUMPDEST PUSH1 0x40 MLOAD DUP1 SWAP2 SUB SWAP1 REVERT JUMPDEST CALLER PUSH1 0x1 PUSH1 0x1 PUSH1 0xA0 SHL SUB DUP3 AND EQ DUP1 PUSH2 0x838 JUMPI POP PUSH2 0x838 DUP2 CALLER PUSH2 0x61D JUMP JUMPDEST PUSH2 0x8AA JUMPI PUSH1 0x40 MLOAD PUSH3 0x461BCD PUSH1 0xE5 SHL DUP2 MSTORE PUSH1 0x20 PUSH1 0x4 DUP3 ADD MSTORE PUSH1 0x3D PUSH1 0x24 DUP3 ADD MSTORE PUSH32 0x4552433732313A20617070726F76652063616C6C6572206973206E6F7420746F PUSH1 0x44 DUP3 ADD MSTORE PUSH32 0x6B656E206F776E6572206F7220617070726F76656420666F7220616C6C000000 PUSH1 0x64 DUP3 ADD MSTORE PUSH1 0x84 ADD PUSH2 0x813 JUMP JUMPDEST PUSH2 0x8B4 DUP4 DUP4 PUSH2 0x158A JUMP JUMPDEST POP POP POP JUMP JUMPDEST PUSH2 0x8C3 CALLER DUP3 PUSH2 0x1605 JUMP JUMPDEST PUSH2 0x935 JUMPI PUSH1 0x40 MLOAD PUSH3 0x461BCD PUSH1 0xE5 SHL DUP2 MSTORE PUSH1 0x20 PUSH1 0x4 DUP3 ADD MSTORE PUSH1 0x2D PUSH1 0x24 DUP3 ADD MSTORE PUSH32 0x4552433732313A2063616C6C6572206973206E6F7420746F6B656E206F776E65 PUSH1 0x44 DUP3 ADD MSTORE PUSH32 0x72206F7220617070726F76656400000000000000000000000000000000000000 PUSH1 0x64 DUP3 ADD MSTORE PUSH1 0x84 ADD PUSH2 0x813 JUMP JUMPDEST PUSH2 0x8B4 DUP4 DUP4 DUP4 PUSH2 0x1683 JUMP JUMPDEST PUSH1 0x0 PUSH2 0x137 SLOAD PUSH1 0x0 SUB PUSH2 0x955 JUMPI POP PUSH2 0x136 SLOAD SWAP1 JUMP JUMPDEST PUSH1 0x0 PUSH2 0x137 SLOAD GT PUSH2 0x9A8 JUMPI PUSH1 0x40 MLOAD PUSH3 0x461BCD PUSH1 0xE5 SHL DUP2 MSTORE PUSH1 0x20 PUSH1 0x4 DUP3 ADD MSTORE PUSH1 0x10 PUSH1 0x24 DUP3 ADD MSTORE PUSH32 0x496E636F72726563742077656967687400000000000000000000000000000000 PUSH1 0x44 DUP3 ADD MSTORE PUSH1 0x64 ADD PUSH2 0x813 JUMP JUMPDEST PUSH1 0x0 PUSH2 0x133 SLOAD PUSH2 0x9B6 PUSH2 0x122A JUMP JUMPDEST PUSH2 0x9C0 SWAP2 SWAP1 PUSH2 0x30D8 JUMP JUMPDEST SWAP1 POP PUSH2 0x137 SLOAD PUSH2 0x135 SLOAD DUP3 PUSH2 0x9D5 SWAP2 SWAP1 PUSH2 0x30EB JUMP JUMPDEST PUSH2 0x9E7 SWAP1 PUSH8 0xDE0B6B3A7640000 PUSH2 0x30EB JUMP JUMPDEST PUSH2 0x9F1 SWAP2 SWAP1 PUSH2 0x3102 JUMP JUMPDEST PUSH2 0x136 SLOAD PUSH2 0x9FF SWAP2 SWAP1 PUSH2 0x3124 JUMP JUMPDEST SWAP2 POP POP SWAP1 JUMP JUMPDEST PUSH1 0x0 PUSH2 0x6C4 DUP3 PUSH2 0x18C6 JUMP JUMPDEST PUSH1 0x0 PUSH2 0xA1D CALLER DUP5 DUP5 PUSH2 0x1BFE JUMP JUMPDEST SWAP4 SWAP3 POP POP POP JUMP JUMPDEST PUSH1 0x0 PUSH2 0xA2F DUP4 PUSH2 0x117C JUMP JUMPDEST DUP3 LT PUSH2 0xAA3 JUMPI PUSH1 0x40 MLOAD PUSH3 0x461BCD PUSH1 0xE5 SHL DUP2 MSTORE PUSH1 0x20 PUSH1 0x4 DUP3 ADD MSTORE PUSH1 0x2B PUSH1 0x24 DUP3 ADD MSTORE PUSH32 0x455243373231456E756D657261626C653A206F776E657220696E646578206F75 PUSH1 0x44 DUP3 ADD MSTORE PUSH32 0x74206F6620626F756E6473000000000000000000000000000000000000000000 PUSH1 0x64 DUP3 ADD MSTORE PUSH1 0x84 ADD PUSH2 0x813 JUMP JUMPDEST POP PUSH1 0x1 PUSH1 0x1 PUSH1 0xA0 SHL SUB SWAP2 SWAP1 SWAP2 AND PUSH1 0x0 SWAP1 DUP2 MSTORE PUSH1 0xC9 PUSH1 0x20 SWAP1 DUP2 MSTORE PUSH1 0x40 DUP1 DUP4 KECCAK256 SWAP4 DUP4 MSTORE SWAP3 SWAP1 MSTORE KECCAK256 SLOAD SWAP1 JUMP JUMPDEST PUSH2 0x8B4 DUP4 DUP4 DUP4 PUSH1 0x40 MLOAD DUP1 PUSH1 0x20 ADD PUSH1 0x40 MSTORE DUP1 PUSH1 0x0 DUP2 MSTORE POP PUSH2 0x12B5 JUMP JUMPDEST PUSH1 0x0 SLOAD PUSH2 0x100 SWAP1 DIV PUSH1 0xFF AND ISZERO DUP1 DUP1 ISZERO PUSH2 0xB07 JUMPI POP PUSH1 0x0 SLOAD PUSH1 0x1 PUSH1 0xFF SWAP1 SWAP2 AND LT JUMPDEST DUP1 PUSH2 0xB21 JUMPI POP ADDRESS EXTCODESIZE ISZERO DUP1 ISZERO PUSH2 0xB21 JUMPI POP PUSH1 0x0 SLOAD PUSH1 0xFF AND PUSH1 0x1 EQ JUMPDEST PUSH2 0xB93 JUMPI PUSH1 0x40 MLOAD PUSH3 0x461BCD PUSH1 0xE5 SHL DUP2 MSTORE PUSH1 0x20 PUSH1 0x4 DUP3 ADD MSTORE PUSH1 0x2E PUSH1 0x24 DUP3 ADD MSTORE PUSH32 0x496E697469616C697A61626C653A20636F6E747261637420697320616C726561 PUSH1 0x44 DUP3 ADD MSTORE PUSH32 0x647920696E697469616C697A6564000000000000000000000000000000000000 PUSH1 0x64 DUP3 ADD MSTORE PUSH1 0x84 ADD PUSH2 0x813 JUMP JUMPDEST PUSH1 0x0 DUP1 SLOAD PUSH1 0xFF NOT AND PUSH1 0x1 OR SWAP1 SSTORE DUP1 ISZERO PUSH2 0xBB6 JUMPI PUSH1 0x0 DUP1 SLOAD PUSH2 0xFF00 NOT AND PUSH2 0x100 OR SWAP1 SSTORE JUMPDEST PUSH2 0xBBE PUSH2 0x1E29 JUMP JUMPDEST PUSH2 0xC32 PUSH1 0x40 MLOAD DUP1 PUSH1 0x40 ADD PUSH1 0x40 MSTORE DUP1 PUSH1 0xB DUP2 MSTORE PUSH1 0x20 ADD PUSH32 0x5374616B656420494E5458000000000000000000000000000000000000000000 DUP2 MSTORE POP PUSH1 0x40 MLOAD DUP1 PUSH1 0x40 ADD PUSH1 0x40 MSTORE DUP1 PUSH1 0x5 DUP2 MSTORE PUSH1 0x20 ADD PUSH32 0x58494E5458000000000000000000000000000000000000000000000000000000 DUP2 MSTORE POP PUSH2 0x1E9C JUMP JUMPDEST PUSH2 0xC3A PUSH2 0x1F11 JUMP JUMPDEST PUSH2 0x138 DUP1 SLOAD PUSH1 0x1 PUSH1 0x1 PUSH1 0xA0 SHL SUB DUP1 DUP7 AND PUSH20 0xFFFFFFFFFFFFFFFFFFFFFFFFFFFFFFFFFFFFFFFF NOT SWAP3 DUP4 AND OR SWAP1 SWAP3 SSTORE PUSH2 0x139 DUP1 SLOAD SWAP3 DUP6 AND SWAP3 SWAP1 SWAP2 AND SWAP2 SWAP1 SWAP2 OR SWAP1 SSTORE PUSH3 0x93A800 PUSH2 0x12F SSTORE PUSH8 0x22B1C8C1227A0000 PUSH2 0x130 SSTORE PUSH8 0x3782DACE9D90000 PUSH2 0x131 SSTORE PUSH7 0x11C37937E08000 PUSH2 0x132 SSTORE DUP1 ISZERO PUSH2 0x8B4 JUMPI PUSH1 0x0 DUP1 SLOAD PUSH2 0xFF00 NOT AND SWAP1 SSTORE PUSH1 0x40 MLOAD PUSH1 0x1 DUP2 MSTORE PUSH32 0x7F26B83FF96E1F2B6A682F133852F6798A09C465DA95921460CEFB3847402498 SWAP1 PUSH1 0x20 ADD PUSH1 0x40 MLOAD DUP1 SWAP2 SUB SWAP1 LOG1 POP POP POP JUMP JUMPDEST PUSH1 0x0 DUP1 PUSH8 0xDE0B6B3A7640000 PUSH2 0xD06 DUP5 PUSH2 0x1F84 JUMP JUMPDEST PUSH1 0x0 DUP6 DUP2 MSTORE PUSH2 0x13B PUSH1 0x20 MSTORE PUSH1 0x40 SWAP1 KECCAK256 SLOAD PUSH2 0xD20 SWAP2 SWAP1 PUSH2 0x30EB JUMP JUMPDEST PUSH2 0xD2A SWAP2 SWAP1 PUSH2 0x3102 JUMP JUMPDEST PUSH1 0x0 DUP5 DUP2 MSTORE PUSH2 0x13C PUSH1 0x20 MSTORE PUSH1 0x40 DUP2 KECCAK256 SLOAD SWAP2 SWAP3 POP SWAP1 PUSH1 0x2 SWAP1 PUSH2 0xD4C SWAP1 DUP5 SWAP1 PUSH2 0x3124 JUMP JUMPDEST PUSH2 0xD56 SWAP2 SWAP1 PUSH2 0x3102 JUMP JUMPDEST PUSH1 0x0 DUP6 DUP2 MSTORE PUSH2 0x13E PUSH1 0x20 SWAP1 DUP2 MSTORE PUSH1 0x40 DUP1 DUP4 KECCAK256 SLOAD PUSH2 0x13D SWAP1 SWAP3 MSTORE SWAP1 SWAP2 KECCAK256 SLOAD SWAP2 SWAP3 POP SWAP1 PUSH8 0xDE0B6B3A7640000 SWAP1 PUSH2 0xD89 PUSH2 0x940 JUMP JUMPDEST PUSH2 0xD93 SWAP2 SWAP1 PUSH2 0x30D8 JUMP JUMPDEST PUSH2 0xD9D SWAP1 DUP5 PUSH2 0x30EB JUMP JUMPDEST PUSH2 0xDA7 SWAP2 SWAP1 PUSH2 0x3102 JUMP JUMPDEST PUSH2 0xDB1 SWAP2 SWAP1 PUSH2 0x3124 JUMP JUMPDEST SWAP5 SWAP4 POP POP POP POP JUMP JUMPDEST PUSH1 0x0 PUSH2 0xDC4 PUSH1 0xCB SLOAD SWAP1 JUMP JUMPDEST DUP3 LT PUSH2 0xE38 JUMPI PUSH1 0x40 MLOAD PUSH3 0x461BCD PUSH1 0xE5 SHL DUP2 MSTORE PUSH1 0x20 PUSH1 0x4 DUP3 ADD MSTORE PUSH1 0x2C PUSH1 0x24 DUP3 ADD MSTORE PUSH32 0x455243373231456E756D657261626C653A20676C6F62616C20696E646578206F PUSH1 0x44 DUP3 ADD MSTORE PUSH32 0x7574206F6620626F756E64730000000000000000000000000000000000000000 PUSH1 0x64 DUP3 ADD MSTORE PUSH1 0x84 ADD PUSH2 0x813 JUMP JUMPDEST PUSH1 0xCB DUP3 DUP2 SLOAD DUP2 LT PUSH2 0xE4B JUMPI PUSH2 0xE4B PUSH2 0x3137 JUMP JUMPDEST SWAP1 PUSH1 0x0 MSTORE PUSH1 0x20 PUSH1 0x0 KECCAK256 ADD SLOAD SWAP1 POP SWAP2 SWAP1 POP JUMP JUMPDEST PUSH1 0x0 DUP1 PUSH2 0xE69 DUP4 PUSH2 0x2021 JUMP JUMPDEST SWAP1 POP PUSH1 0x0 PUSH2 0xE76 DUP5 PUSH2 0x204F JUMP JUMPDEST SWAP1 POP DUP2 ISZERO PUSH2 0xE9B JUMPI PUSH8 0xDE0B6B3A7640000 PUSH2 0xE91 DUP3 DUP5 PUSH2 0x30EB JUMP JUMPDEST PUSH2 0xDB1 SWAP2 SWAP1 PUSH2 0x3102 JUMP JUMPDEST POP POP SWAP2 SWAP1 POP JUMP JUMPDEST PUSH2 0xEAA PUSH2 0x20F8 JUMP JUMPDEST PUSH2 0x139 SLOAD PUSH1 0x1 PUSH1 0x1 PUSH1 0xA0 SHL SUB AND PUSH4 0x23B872DD CALLER PUSH1 0x40 MLOAD PUSH1 0x1 PUSH1 0x1 PUSH1 0xE0 SHL SUB NOT PUSH1 0xE0 DUP5 SWAP1 SHL AND DUP2 MSTORE PUSH1 0x1 PUSH1 0x1 PUSH1 0xA0 SHL SUB SWAP1 SWAP2 AND PUSH1 0x4 DUP3 ADD MSTORE ADDRESS PUSH1 0x24 DUP3 ADD MSTORE PUSH1 0x44 DUP2 ADD DUP5 SWAP1 MSTORE PUSH1 0x64 ADD PUSH1 0x20 PUSH1 0x40 MLOAD DUP1 DUP4 SUB DUP2 PUSH1 0x0 DUP8 GAS CALL ISZERO DUP1 ISZERO PUSH2 0xF10 JUMPI RETURNDATASIZE PUSH1 0x0 DUP1 RETURNDATACOPY RETURNDATASIZE PUSH1 0x0 REVERT JUMPDEST POP POP POP POP PUSH1 0x40 MLOAD RETURNDATASIZE PUSH1 0x1F NOT PUSH1 0x1F DUP3 ADD AND DUP3 ADD DUP1 PUSH1 0x40 MSTORE POP DUP2 ADD SWAP1 PUSH2 0xF34 SWAP2 SWAP1 PUSH2 0x314D JUMP JUMPDEST POP PUSH2 0x134 SLOAD TIMESTAMP LT PUSH2 0xF55 JUMPI PUSH2 0xF4C PUSH3 0x93A80 DUP3 PUSH2 0x3102 JUMP JUMPDEST PUSH2 0x135 SSTORE PUSH2 0xF9A JUMP JUMPDEST PUSH1 0x0 TIMESTAMP PUSH2 0x134 SLOAD PUSH2 0xF66 SWAP2 SWAP1 PUSH2 0x30D8 JUMP JUMPDEST SWAP1 POP PUSH1 0x0 PUSH2 0x135 SLOAD DUP3 PUSH2 0xF79 SWAP2 SWAP1 PUSH2 0x30EB JUMP JUMPDEST SWAP1 POP PUSH3 0x93A80 PUSH2 0xF89 DUP3 DUP6 PUSH2 0x3124 JUMP JUMPDEST PUSH2 0xF93 SWAP2 SWAP1 PUSH2 0x3102 JUMP JUMPDEST PUSH2 0x135 SSTORE POP POP JUMPDEST PUSH2 0x139 SLOAD PUSH1 0x40 MLOAD PUSH32 0x70A0823100000000000000000000000000000000000000000000000000000000 DUP2 MSTORE ADDRESS PUSH1 0x4 DUP3 ADD MSTORE PUSH1 0x0 SWAP2 PUSH1 0x1 PUSH1 0x1 PUSH1 0xA0 SHL SUB AND SWAP1 PUSH4 0x70A08231 SWAP1 PUSH1 0x24 ADD PUSH1 0x20 PUSH1 0x40 MLOAD DUP1 DUP4 SUB DUP2 DUP7 GAS STATICCALL ISZERO DUP1 ISZERO PUSH2 0xFFD JUMPI RETURNDATASIZE PUSH1 0x0 DUP1 RETURNDATACOPY RETURNDATASIZE PUSH1 0x0 REVERT JUMPDEST POP POP POP POP PUSH1 0x40 MLOAD RETURNDATASIZE PUSH1 0x1F NOT PUSH1 0x1F DUP3 ADD AND DUP3 ADD DUP1 PUSH1 0x40 MSTORE POP DUP2 ADD SWAP1 PUSH2 0x1021 SWAP2 SWAP1 PUSH2 0x316A JUMP JUMPDEST SWAP1 POP PUSH2 0x1030 PUSH3 0x93A80 DUP3 PUSH2 0x3102 JUMP JUMPDEST PUSH2 0x135 SLOAD GT ISZERO PUSH2 0x1082 JUMPI PUSH1 0x40 MLOAD PUSH3 0x461BCD PUSH1 0xE5 SHL DUP2 MSTORE PUSH1 0x20 PUSH1 0x4 DUP3 ADD MSTORE PUSH1 0x18 PUSH1 0x24 DUP3 ADD MSTORE PUSH32 0x50726F76696465642072657761726420746F6F20686967680000000000000000 PUSH1 0x44 DUP3 ADD MSTORE PUSH1 0x64 ADD PUSH2 0x813 JUMP JUMPDEST TIMESTAMP PUSH2 0x133 DUP2 SWAP1 SSTORE PUSH2 0x1097 SWAP1 PUSH3 0x93A80 SWAP1 PUSH2 0x3124 JUMP JUMPDEST PUSH2 0x134 SSTORE PUSH32 0xDE88A922E0D3B88B24E9623EFEB464919C6BF9F66857A65E2BFCF2CE87A9433D PUSH2 0x10CE PUSH8 0xDE0B6B3A7640000 DUP5 PUSH2 0x3102 JUMP JUMPDEST PUSH1 0x40 MLOAD SWAP1 DUP2 MSTORE PUSH1 0x20 ADD PUSH1 0x40 MLOAD DUP1 SWAP2 SUB SWAP1 LOG1 POP PUSH2 0x10E9 PUSH1 0x1 DUP1 SSTORE JUMP JUMPDEST POP JUMP JUMPDEST PUSH1 0x0 DUP2 DUP2 MSTORE PUSH1 0x99 PUSH1 0x20 MSTORE PUSH1 0x40 DUP2 KECCAK256 SLOAD PUSH1 0x1 PUSH1 0x1 PUSH1 0xA0 SHL SUB AND DUP1 PUSH2 0x6C4 JUMPI PUSH1 0x40 MLOAD PUSH3 0x461BCD PUSH1 0xE5 SHL DUP2 MSTORE PUSH1 0x20 PUSH1 0x4 DUP3 ADD MSTORE PUSH1 0x18 PUSH1 0x24 DUP3 ADD MSTORE PUSH32 0x4552433732313A20696E76616C696420746F6B656E2049440000000000000000 PUSH1 0x44 DUP3 ADD MSTORE PUSH1 0x64 ADD PUSH2 0x813 JUMP JUMPDEST PUSH1 0x0 DUP2 DUP2 MSTORE PUSH1 0x99 PUSH1 0x20 MSTORE PUSH1 0x40 DUP2 KECCAK256 SLOAD PUSH1 0x1 PUSH1 0x1 PUSH1 0xA0 SHL SUB AND ISZERO PUSH2 0x1177 JUMPI PUSH2 0x6C4 DUP3 PUSH2 0x1F84 JUMP JUMPDEST SWAP2 SWAP1 POP JUMP JUMPDEST PUSH1 0x0 PUSH1 0x1 PUSH1 0x1 PUSH1 0xA0 SHL SUB DUP3 AND PUSH2 0x11FA JUMPI PUSH1 0x40 MLOAD PUSH3 0x461BCD PUSH1 0xE5 SHL DUP2 MSTORE PUSH1 0x20 PUSH1 0x4 DUP3 ADD MSTORE PUSH1 0x29 PUSH1 0x24 DUP3 ADD MSTORE PUSH32 0x4552433732313A2061646472657373207A65726F206973206E6F742061207661 PUSH1 0x44 DUP3 ADD MSTORE PUSH32 0x6C6964206F776E65720000000000000000000000000000000000000000000000 PUSH1 0x64 DUP3 ADD MSTORE PUSH1 0x84 ADD PUSH2 0x813 JUMP JUMPDEST POP PUSH1 0x1 PUSH1 0x1 PUSH1 0xA0 SHL SUB AND PUSH1 0x0 SWAP1 DUP2 MSTORE PUSH1 0x9A PUSH1 0x20 MSTORE PUSH1 0x40 SWAP1 KECCAK256 SLOAD SWAP1 JUMP JUMPDEST PUSH2 0x121E PUSH2 0x2157 JUMP JUMPDEST PUSH2 0x1228 PUSH1 0x0 PUSH2 0x21B1 JUMP JUMPDEST JUMP JUMPDEST PUSH1 0x0 PUSH2 0x1239 TIMESTAMP PUSH2 0x134 SLOAD PUSH2 0x2210 JUMP JUMPDEST SWAP1 POP SWAP1 JUMP JUMPDEST PUSH1 0x60 PUSH1 0x98 DUP1 SLOAD PUSH2 0x6D9 SWAP1 PUSH2 0x3088 JUMP JUMPDEST PUSH1 0x0 DUP2 DUP2 MSTORE PUSH1 0x99 PUSH1 0x20 MSTORE PUSH1 0x40 DUP2 KECCAK256 SLOAD PUSH1 0x1 PUSH1 0x1 PUSH1 0xA0 SHL SUB AND ISZERO PUSH2 0x1177 JUMPI PUSH2 0x6C4 DUP3 PUSH2 0x204F JUMP JUMPDEST PUSH1 0x0 DUP2 DUP2 MSTORE PUSH1 0x99 PUSH1 0x20 MSTORE PUSH1 0x40 DUP2 KECCAK256 SLOAD PUSH1 0x1 PUSH1 0x1 PUSH1 0xA0 SHL SUB AND ISZERO PUSH2 0x1177 JUMPI PUSH2 0x6C4 DUP3 PUSH2 0x2021 JUMP JUMPDEST PUSH2 0x12A4 CALLER DUP4 DUP4 PUSH2 0x2226 JUMP JUMPDEST POP POP JUMP JUMPDEST PUSH1 0x0 PUSH2 0x6C4 CALLER CALLER DUP5 PUSH2 0x1BFE JUMP JUMPDEST PUSH2 0x12BF CALLER DUP4 PUSH2 0x1605 JUMP JUMPDEST PUSH2 0x1331 JUMPI PUSH1 0x40 MLOAD PUSH3 0x461BCD PUSH1 0xE5 SHL DUP2 MSTORE PUSH1 0x20 PUSH1 0x4 DUP3 ADD MSTORE PUSH1 0x2D PUSH1 0x24 DUP3 ADD MSTORE PUSH32 0x4552433732313A2063616C6C6572206973206E6F7420746F6B656E206F776E65 PUSH1 0x44 DUP3 ADD MSTORE PUSH32 0x72206F7220617070726F76656400000000000000000000000000000000000000 PUSH1 0x64 DUP3 ADD MSTORE PUSH1 0x84 ADD PUSH2 0x813 JUMP JUMPDEST PUSH2 0x133D DUP5 DUP5 DUP5 DUP5 PUSH2 0x22F4 JUMP JUMPDEST POP POP POP POP JUMP JUMPDEST PUSH1 0x60 PUSH2 0x134E DUP3 PUSH2 0x1526 JUMP JUMPDEST PUSH1 0x0 PUSH2 0x1365 PUSH1 0x40 DUP1 MLOAD PUSH1 0x20 DUP2 ADD SWAP1 SWAP2 MSTORE PUSH1 0x0 DUP2 MSTORE SWAP1 JUMP JUMPDEST SWAP1 POP PUSH1 0x0 DUP2 MLOAD GT PUSH2 0x1385 JUMPI PUSH1 0x40 MLOAD DUP1 PUSH1 0x20 ADD PUSH1 0x40 MSTORE DUP1 PUSH1 0x0 DUP2 MSTORE POP PUSH2 0xA1D JUMP JUMPDEST DUP1 PUSH2 0x138F DUP5 PUSH2 0x237D JUMP JUMPDEST PUSH1 0x40 MLOAD PUSH1 0x20 ADD PUSH2 0x13A0 SWAP3 SWAP2 SWAP1 PUSH2 0x3183 JUMP JUMPDEST PUSH1 0x40 MLOAD PUSH1 0x20 DUP2 DUP4 SUB SUB DUP2 MSTORE SWAP1 PUSH1 0x40 MSTORE SWAP4 SWAP3 POP POP POP JUMP JUMPDEST PUSH1 0x0 DUP1 PUSH2 0x13C2 DUP4 PUSH2 0x2021 JUMP JUMPDEST SWAP1 POP PUSH1 0x0 PUSH2 0x13CF DUP5 PUSH2 0x204F JUMP JUMPDEST SWAP1 POP DUP2 ISZERO PUSH2 0xE9B JUMPI PUSH8 0xDE0B6B3A7640000 PUSH2 0x13EA DUP3 DUP5 PUSH2 0x30EB JUMP JUMPDEST PUSH2 0x13F4 SWAP2 SWAP1 PUSH2 0x3102 JUMP JUMPDEST PUSH2 0xDB1 SWAP1 DUP4 PUSH2 0x30D8 JUMP JUMPDEST PUSH2 0x1406 PUSH2 0x2157 JUMP JUMPDEST PUSH1 0x1 PUSH1 0x1 PUSH1 0xA0 SHL SUB DUP2 AND PUSH2 0x1482 JUMPI PUSH1 0x40 MLOAD PUSH3 0x461BCD PUSH1 0xE5 SHL DUP2 MSTORE PUSH1 0x20 PUSH1 0x4 DUP3 ADD MSTORE PUSH1 0x26 PUSH1 0x24 DUP3 ADD MSTORE PUSH32 0x4F776E61626C653A206E6577206F776E657220697320746865207A65726F2061 PUSH1 0x44 DUP3 ADD MSTORE PUSH32 0x6464726573730000000000000000000000000000000000000000000000000000 PUSH1 0x64 DUP3 ADD MSTORE PUSH1 0x84 ADD PUSH2 0x813 JUMP JUMPDEST PUSH2 0x10E9 DUP2 PUSH2 0x21B1 JUMP JUMPDEST PUSH1 0x0 PUSH1 0x1 PUSH1 0x1 PUSH1 0xE0 SHL SUB NOT DUP3 AND PUSH32 0x80AC58CD00000000000000000000000000000000000000000000000000000000 EQ DUP1 PUSH2 0x14EE JUMPI POP PUSH1 0x1 PUSH1 0x1 PUSH1 0xE0 SHL SUB NOT DUP3 AND PUSH32 0x5B5E139F00000000000000000000000000000000000000000000000000000000 EQ JUMPDEST DUP1 PUSH2 0x6C4 JUMPI POP PUSH32 0x1FFC9A700000000000000000000000000000000000000000000000000000000 PUSH1 0x1 PUSH1 0x1 PUSH1 0xE0 SHL SUB NOT DUP4 AND EQ PUSH2 0x6C4 JUMP JUMPDEST PUSH1 0x0 DUP2 DUP2 MSTORE PUSH1 0x99 PUSH1 0x20 MSTORE PUSH1 0x40 SWAP1 KECCAK256 SLOAD PUSH1 0x1 PUSH1 0x1 PUSH1 0xA0 SHL SUB AND PUSH2 0x10E9 JUMPI PUSH1 0x40 MLOAD PUSH3 0x461BCD PUSH1 0xE5 SHL DUP2 MSTORE PUSH1 0x20 PUSH1 0x4 DUP3 ADD MSTORE PUSH1 0x18 PUSH1 0x24 DUP3 ADD MSTORE PUSH32 0x4552433732313A20696E76616C696420746F6B656E2049440000000000000000 PUSH1 0x44 DUP3 ADD MSTORE PUSH1 0x64 ADD PUSH2 0x813 JUMP JUMPDEST PUSH1 0x0 DUP2 DUP2 MSTORE PUSH1 0x9B PUSH1 0x20 MSTORE PUSH1 0x40 SWAP1 KECCAK256 DUP1 SLOAD PUSH20 0xFFFFFFFFFFFFFFFFFFFFFFFFFFFFFFFFFFFFFFFF NOT AND PUSH1 0x1 PUSH1 0x1 PUSH1 0xA0 SHL SUB DUP5 AND SWAP1 DUP2 OR SWAP1 SWAP2 SSTORE DUP2 SWAP1 PUSH2 0x15CC DUP3 PUSH2 0x10EC JUMP JUMPDEST PUSH1 0x1 PUSH1 0x1 PUSH1 0xA0 SHL SUB AND PUSH32 0x8C5BE1E5EBEC7D5BD14F71427D1E84F3DD0314C0F7B2291E5B200AC8C7C3B925 PUSH1 0x40 MLOAD PUSH1 0x40 MLOAD DUP1 SWAP2 SUB SWAP1 LOG4 POP POP JUMP JUMPDEST PUSH1 0x0 DUP1 PUSH2 0x1611 DUP4 PUSH2 0x10EC JUMP JUMPDEST SWAP1 POP DUP1 PUSH1 0x1 PUSH1 0x1 PUSH1 0xA0 SHL SUB AND DUP5 PUSH1 0x1 PUSH1 0x1 PUSH1 0xA0 SHL SUB AND EQ DUP1 PUSH2 0x1658 JUMPI POP PUSH1 0x1 PUSH1 0x1 PUSH1 0xA0 SHL SUB DUP1 DUP3 AND PUSH1 0x0 SWAP1 DUP2 MSTORE PUSH1 0x9C PUSH1 0x20 SWAP1 DUP2 MSTORE PUSH1 0x40 DUP1 DUP4 KECCAK256 SWAP4 DUP9 AND DUP4 MSTORE SWAP3 SWAP1 MSTORE KECCAK256 SLOAD PUSH1 0xFF AND JUMPDEST DUP1 PUSH2 0xDB1 JUMPI POP DUP4 PUSH1 0x1 PUSH1 0x1 PUSH1 0xA0 SHL SUB AND PUSH2 0x1671 DUP5 PUSH2 0x75C JUMP JUMPDEST PUSH1 0x1 PUSH1 0x1 PUSH1 0xA0 SHL SUB AND EQ SWAP5 SWAP4 POP POP POP POP JUMP JUMPDEST DUP3 PUSH1 0x1 PUSH1 0x1 PUSH1 0xA0 SHL SUB AND PUSH2 0x1696 DUP3 PUSH2 0x10EC JUMP JUMPDEST PUSH1 0x1 PUSH1 0x1 PUSH1 0xA0 SHL SUB AND EQ PUSH2 0x1712 JUMPI PUSH1 0x40 MLOAD PUSH3 0x461BCD PUSH1 0xE5 SHL DUP2 MSTORE PUSH1 0x20 PUSH1 0x4 DUP3 ADD MSTORE PUSH1 0x25 PUSH1 0x24 DUP3 ADD MSTORE PUSH32 0x4552433732313A207472616E736665722066726F6D20696E636F727265637420 PUSH1 0x44 DUP3 ADD MSTORE PUSH32 0x6F776E6572000000000000000000000000000000000000000000000000000000 PUSH1 0x64 DUP3 ADD MSTORE PUSH1 0x84 ADD PUSH2 0x813 JUMP JUMPDEST PUSH1 0x1 PUSH1 0x1 PUSH1 0xA0 SHL SUB DUP3 AND PUSH2 0x178D JUMPI PUSH1 0x40 MLOAD PUSH3 0x461BCD PUSH1 0xE5 SHL DUP2 MSTORE PUSH1 0x20 PUSH1 0x4 DUP3 ADD MSTORE PUSH1 0x24 DUP1 DUP3 ADD MSTORE PUSH32 0x4552433732313A207472616E7366657220746F20746865207A65726F20616464 PUSH1 0x44 DUP3 ADD MSTORE PUSH32 0x7265737300000000000000000000000000000000000000000000000000000000 PUSH1 0x64 DUP3 ADD MSTORE PUSH1 0x84 ADD PUSH2 0x813 JUMP JUMPDEST PUSH2 0x179A DUP4 DUP4 DUP4 PUSH1 0x1 PUSH2 0x241D JUMP JUMPDEST DUP3 PUSH1 0x1 PUSH1 0x1 PUSH1 0xA0 SHL SUB AND PUSH2 0x17AD DUP3 PUSH2 0x10EC JUMP JUMPDEST PUSH1 0x1 PUSH1 0x1 PUSH1 0xA0 SHL SUB AND EQ PUSH2 0x1829 JUMPI PUSH1 0x40 MLOAD PUSH3 0x461BCD PUSH1 0xE5 SHL DUP2 MSTORE PUSH1 0x20 PUSH1 0x4 DUP3 ADD MSTORE PUSH1 0x25 PUSH1 0x24 DUP3 ADD MSTORE PUSH32 0x4552433732313A207472616E736665722066726F6D20696E636F727265637420 PUSH1 0x44 DUP3 ADD MSTORE PUSH32 0x6F776E6572000000000000000000000000000000000000000000000000000000 PUSH1 0x64 DUP3 ADD MSTORE PUSH1 0x84 ADD PUSH2 0x813 JUMP JUMPDEST PUSH1 0x0 DUP2 DUP2 MSTORE PUSH1 0x9B PUSH1 0x20 SWAP1 DUP2 MSTORE PUSH1 0x40 DUP1 DUP4 KECCAK256 DUP1 SLOAD PUSH20 0xFFFFFFFFFFFFFFFFFFFFFFFFFFFFFFFFFFFFFFFF NOT SWAP1 DUP2 AND SWAP1 SWAP2 SSTORE PUSH1 0x1 PUSH1 0x1 PUSH1 0xA0 SHL SUB DUP8 DUP2 AND DUP1 DUP7 MSTORE PUSH1 0x9A DUP6 MSTORE DUP4 DUP7 KECCAK256 DUP1 SLOAD PUSH1 0x0 NOT ADD SWAP1 SSTORE SWAP1 DUP8 AND DUP1 DUP7 MSTORE DUP4 DUP7 KECCAK256 DUP1 SLOAD PUSH1 0x1 ADD SWAP1 SSTORE DUP7 DUP7 MSTORE PUSH1 0x99 SWAP1 SWAP5 MSTORE DUP3 DUP6 KECCAK256 DUP1 SLOAD SWAP1 SWAP3 AND DUP5 OR SWAP1 SWAP2 SSTORE SWAP1 MLOAD DUP5 SWAP4 PUSH32 0xDDF252AD1BE2C89B69C2B068FC378DAA952BA7F163C4A11628F55A4DF523B3EF SWAP2 LOG4 POP POP POP JUMP JUMPDEST PUSH1 0x0 PUSH2 0x18D0 PUSH2 0x20F8 JUMP JUMPDEST PUSH1 0x0 DUP3 DUP2 MSTORE PUSH1 0x99 PUSH1 0x20 MSTORE PUSH1 0x40 SWAP1 KECCAK256 SLOAD PUSH1 0x1 PUSH1 0x1 PUSH1 0xA0 SHL SUB AND PUSH2 0x1934 JUMPI PUSH1 0x40 MLOAD PUSH3 0x461BCD PUSH1 0xE5 SHL DUP2 MSTORE PUSH1 0x20 PUSH1 0x4 DUP3 ADD MSTORE PUSH1 0x1C PUSH1 0x24 DUP3 ADD MSTORE PUSH32 0x5468697320706F736974696F6E20646F65736E27742065786973742E00000000 PUSH1 0x44 DUP3 ADD MSTORE PUSH1 0x64 ADD PUSH2 0x813 JUMP JUMPDEST PUSH1 0x0 DUP3 DUP2 MSTORE PUSH1 0x99 PUSH1 0x20 MSTORE PUSH1 0x40 SWAP1 KECCAK256 SLOAD PUSH1 0x1 PUSH1 0x1 PUSH1 0xA0 SHL SUB AND CALLER DUP2 EQ PUSH2 0x199B JUMPI PUSH1 0x40 MLOAD PUSH3 0x461BCD PUSH1 0xE5 SHL DUP2 MSTORE PUSH1 0x20 PUSH1 0x4 DUP3 ADD MSTORE PUSH1 0x13 PUSH1 0x24 DUP3 ADD MSTORE PUSH32 0x4E6F7420796F75722078494E5458204E46542E00000000000000000000000000 PUSH1 0x44 DUP3 ADD MSTORE PUSH1 0x64 ADD PUSH2 0x813 JUMP JUMPDEST PUSH1 0x0 DUP4 DUP2 MSTORE PUSH2 0x13B PUSH1 0x20 MSTORE PUSH1 0x40 DUP2 KECCAK256 SLOAD SWAP1 PUSH8 0xDE0B6B3A7640000 PUSH2 0x19BE DUP7 PUSH2 0x1F84 JUMP JUMPDEST PUSH2 0x19C8 SWAP1 DUP5 PUSH2 0x30EB JUMP JUMPDEST PUSH2 0x19D2 SWAP2 SWAP1 PUSH2 0x3102 JUMP JUMPDEST SWAP1 POP PUSH1 0x0 PUSH2 0x19DE PUSH2 0x2559 JUMP JUMPDEST SWAP1 POP PUSH1 0x0 PUSH8 0xDE0B6B3A7640000 PUSH2 0x19F5 DUP4 DUP7 PUSH2 0x30EB JUMP JUMPDEST PUSH2 0x19FF SWAP2 SWAP1 PUSH2 0x3102 JUMP JUMPDEST SWAP1 POP PUSH1 0x0 PUSH8 0xDE0B6B3A7640000 PUSH2 0x1A15 DUP10 PUSH2 0x204F JUMP JUMPDEST PUSH2 0x1A1F SWAP1 DUP5 PUSH2 0x30EB JUMP JUMPDEST PUSH2 0x1A29 SWAP2 SWAP1 PUSH2 0x3102 JUMP JUMPDEST SWAP1 POP PUSH2 0x1A35 DUP2 DUP4 PUSH2 0x30D8 JUMP JUMPDEST PUSH1 0x0 DUP10 DUP2 MSTORE PUSH2 0x13A PUSH1 0x20 SWAP1 DUP2 MSTORE PUSH1 0x40 DUP1 DUP4 KECCAK256 DUP4 SWAP1 SSTORE PUSH2 0x13B DUP3 MSTORE DUP1 DUP4 KECCAK256 DUP4 SWAP1 SSTORE PUSH2 0x13C DUP3 MSTORE DUP1 DUP4 KECCAK256 DUP4 SWAP1 SSTORE PUSH2 0x13D DUP3 MSTORE DUP1 DUP4 KECCAK256 DUP4 SWAP1 SSTORE PUSH2 0x13E SWAP1 SWAP2 MSTORE SWAP1 KECCAK256 SLOAD SWAP1 SWAP8 POP ISZERO PUSH2 0x1ABA JUMPI PUSH1 0x0 DUP9 DUP2 MSTORE PUSH2 0x13E PUSH1 0x20 SWAP1 DUP2 MSTORE PUSH1 0x40 DUP1 DUP4 KECCAK256 SLOAD PUSH1 0x1 PUSH1 0x1 PUSH1 0xA0 SHL SUB DUP11 AND DUP5 MSTORE PUSH2 0x13F SWAP1 SWAP3 MSTORE DUP3 KECCAK256 DUP1 SLOAD SWAP2 SWAP3 SWAP1 SWAP2 PUSH2 0x1AB4 SWAP1 DUP5 SWAP1 PUSH2 0x3124 JUMP JUMPDEST SWAP1 SWAP2 SSTORE POP POP JUMPDEST PUSH1 0x0 DUP9 DUP2 MSTORE PUSH2 0x13E PUSH1 0x20 MSTORE PUSH1 0x40 DUP2 KECCAK256 SSTORE PUSH2 0x1AD3 DUP9 PUSH2 0x259C JUMP JUMPDEST DUP5 PUSH2 0x12E PUSH1 0x0 DUP3 DUP3 SLOAD PUSH2 0x1AE6 SWAP2 SWAP1 PUSH2 0x30D8 JUMP JUMPDEST SWAP3 POP POP DUP2 SWAP1 SSTORE POP DUP4 PUSH2 0x137 PUSH1 0x0 DUP3 DUP3 SLOAD PUSH2 0x1B00 SWAP2 SWAP1 PUSH2 0x30D8 JUMP JUMPDEST SWAP1 SWAP2 SSTORE POP POP PUSH2 0x138 SLOAD PUSH1 0x40 MLOAD PUSH32 0xA9059CBB00000000000000000000000000000000000000000000000000000000 DUP2 MSTORE PUSH1 0x1 PUSH1 0x1 PUSH1 0xA0 SHL SUB DUP9 DUP2 AND PUSH1 0x4 DUP4 ADD MSTORE PUSH1 0x24 DUP3 ADD DUP11 SWAP1 MSTORE SWAP1 SWAP2 AND SWAP1 PUSH4 0xA9059CBB SWAP1 PUSH1 0x44 ADD PUSH1 0x20 PUSH1 0x40 MLOAD DUP1 DUP4 SUB DUP2 PUSH1 0x0 DUP8 GAS CALL ISZERO DUP1 ISZERO PUSH2 0x1B72 JUMPI RETURNDATASIZE PUSH1 0x0 DUP1 RETURNDATACOPY RETURNDATASIZE PUSH1 0x0 REVERT JUMPDEST POP POP POP POP PUSH1 0x40 MLOAD RETURNDATASIZE PUSH1 0x1F NOT PUSH1 0x1F DUP3 ADD AND DUP3 ADD DUP1 PUSH1 0x40 MSTORE POP DUP2 ADD SWAP1 PUSH2 0x1B96 SWAP2 SWAP1 PUSH2 0x314D JUMP JUMPDEST POP PUSH2 0x12E SLOAD PUSH1 0x40 DUP1 MLOAD DUP8 DUP2 MSTORE PUSH1 0x20 DUP2 ADD DUP11 SWAP1 MSTORE DUP1 DUP3 ADD DUP5 SWAP1 MSTORE PUSH1 0x60 DUP2 ADD SWAP3 SWAP1 SWAP3 MSTORE MLOAD DUP10 SWAP2 PUSH1 0x1 PUSH1 0x1 PUSH1 0xA0 SHL SUB DUP10 AND SWAP2 PUSH32 0x44BD20A79E993BDCC7CBEDF54A3B4D19FB78490124B6B90D04FE3242EEA579E8 SWAP2 DUP2 SWAP1 SUB PUSH1 0x80 ADD SWAP1 LOG3 POP POP POP POP POP POP PUSH2 0x1177 PUSH1 0x1 DUP1 SSTORE JUMP JUMPDEST PUSH1 0x0 PUSH2 0x1C08 PUSH2 0x20F8 JUMP JUMPDEST PUSH1 0x0 DUP3 GT PUSH2 0x1C58 JUMPI PUSH1 0x40 MLOAD PUSH3 0x461BCD PUSH1 0xE5 SHL DUP2 MSTORE PUSH1 0x20 PUSH1 0x4 DUP3 ADD MSTORE PUSH1 0x13 PUSH1 0x24 DUP3 ADD MSTORE PUSH32 0x43616E2774207374616B65203020696E74582E00000000000000000000000000 PUSH1 0x44 DUP3 ADD MSTORE PUSH1 0x64 ADD PUSH2 0x813 JUMP JUMPDEST PUSH1 0x0 PUSH2 0x1C62 PUSH2 0x2559 JUMP JUMPDEST PUSH2 0x138 SLOAD PUSH1 0x40 MLOAD PUSH32 0x23B872DD00000000000000000000000000000000000000000000000000000000 DUP2 MSTORE PUSH1 0x1 PUSH1 0x1 PUSH1 0xA0 SHL SUB DUP9 DUP2 AND PUSH1 0x4 DUP4 ADD MSTORE ADDRESS PUSH1 0x24 DUP4 ADD MSTORE PUSH1 0x44 DUP3 ADD DUP8 SWAP1 MSTORE SWAP3 SWAP4 POP SWAP2 AND SWAP1 PUSH4 0x23B872DD SWAP1 PUSH1 0x64 ADD PUSH1 0x20 PUSH1 0x40 MLOAD DUP1 DUP4 SUB DUP2 PUSH1 0x0 DUP8 GAS CALL ISZERO DUP1 ISZERO PUSH2 0x1CD7 JUMPI RETURNDATASIZE PUSH1 0x0 DUP1 RETURNDATACOPY RETURNDATASIZE PUSH1 0x0 REVERT JUMPDEST POP POP POP POP PUSH1 0x40 MLOAD RETURNDATASIZE PUSH1 0x1F NOT PUSH1 0x1F DUP3 ADD AND DUP3 ADD DUP1 PUSH1 0x40 MSTORE POP DUP2 ADD SWAP1 PUSH2 0x1CFB SWAP2 SWAP1 PUSH2 0x314D JUMP JUMPDEST POP PUSH2 0x12D DUP1 SLOAD SWAP1 PUSH1 0x0 PUSH2 0x1D0D DUP4 PUSH2 0x31B2 JUMP JUMPDEST SWAP2 SWAP1 POP SSTORE POP PUSH2 0x1D1F DUP5 PUSH2 0x12D SLOAD PUSH2 0x264C JUMP JUMPDEST PUSH1 0x0 DUP2 PUSH2 0x1D34 PUSH8 0xDE0B6B3A7640000 DUP7 PUSH2 0x30EB JUMP JUMPDEST PUSH2 0x1D3E SWAP2 SWAP1 PUSH2 0x3102 JUMP JUMPDEST PUSH2 0x12D DUP1 SLOAD PUSH1 0x0 SWAP1 DUP2 MSTORE PUSH2 0x13A PUSH1 0x20 SWAP1 DUP2 MSTORE PUSH1 0x40 DUP1 DUP4 KECCAK256 TIMESTAMP SWAP1 SSTORE SWAP3 SLOAD DUP3 MSTORE PUSH2 0x13B SWAP1 MSTORE SWAP1 DUP2 KECCAK256 DUP3 SWAP1 SSTORE PUSH2 0x12E DUP1 SLOAD SWAP3 SWAP4 POP DUP4 SWAP3 SWAP1 SWAP2 SWAP1 PUSH2 0x1D7F SWAP1 DUP5 SWAP1 PUSH2 0x3124 JUMP JUMPDEST SWAP3 POP POP DUP2 SWAP1 SSTORE POP DUP1 PUSH2 0x137 PUSH1 0x0 DUP3 DUP3 SLOAD PUSH2 0x1D99 SWAP2 SWAP1 PUSH2 0x3124 JUMP JUMPDEST SWAP1 SWAP2 SSTORE POP POP PUSH2 0x12D DUP1 SLOAD PUSH1 0x0 SWAP1 DUP2 MSTORE PUSH2 0x13C PUSH1 0x20 SWAP1 DUP2 MSTORE PUSH1 0x40 SWAP2 DUP3 SWAP1 KECCAK256 DUP5 SWAP1 SSTORE SWAP2 SLOAD PUSH2 0x12E SLOAD PUSH2 0x137 SLOAD DUP4 MLOAD DUP7 DUP2 MSTORE SWAP5 DUP6 ADD DUP10 SWAP1 MSTORE SWAP3 DUP5 ADD MSTORE PUSH1 0x60 DUP4 ADD SWAP2 SWAP1 SWAP2 MSTORE SWAP1 PUSH1 0x1 PUSH1 0x1 PUSH1 0xA0 SHL SUB DUP1 DUP9 AND SWAP2 SWAP1 DUP10 AND SWAP1 PUSH32 0x52C6B7A228763DC832BEF1E2DEE48707B24B8F1400A6335B3AF6D5DEF4F5BB21 SWAP1 PUSH1 0x80 ADD PUSH1 0x40 MLOAD DUP1 SWAP2 SUB SWAP1 LOG4 PUSH2 0x12D SLOAD SWAP3 POP POP POP PUSH2 0xA1D PUSH1 0x1 DUP1 SSTORE JUMP JUMPDEST PUSH1 0x0 SLOAD PUSH2 0x100 SWAP1 DIV PUSH1 0xFF AND PUSH2 0x1E94 JUMPI PUSH1 0x40 MLOAD PUSH3 0x461BCD PUSH1 0xE5 SHL DUP2 MSTORE PUSH1 0x20 PUSH1 0x4 DUP3 ADD MSTORE PUSH1 0x2B PUSH1 0x24 DUP3 ADD MSTORE PUSH32 0x496E697469616C697A61626C653A20636F6E7472616374206973206E6F742069 PUSH1 0x44 DUP3 ADD MSTORE PUSH11 0x6E697469616C697A696E67 PUSH1 0xA8 SHL PUSH1 0x64 DUP3 ADD MSTORE PUSH1 0x84 ADD PUSH2 0x813 JUMP JUMPDEST PUSH2 0x1228 PUSH2 0x27F2 JUMP JUMPDEST PUSH1 0x0 SLOAD PUSH2 0x100 SWAP1 DIV PUSH1 0xFF AND PUSH2 0x1F07 JUMPI PUSH1 0x40 MLOAD PUSH3 0x461BCD PUSH1 0xE5 SHL DUP2 MSTORE PUSH1 0x20 PUSH1 0x4 DUP3 ADD MSTORE PUSH1 0x2B PUSH1 0x24 DUP3 ADD MSTORE PUSH32 0x496E697469616C697A61626C653A20636F6E7472616374206973206E6F742069 PUSH1 0x44 DUP3 ADD MSTORE PUSH11 0x6E697469616C697A696E67 PUSH1 0xA8 SHL PUSH1 0x64 DUP3 ADD MSTORE PUSH1 0x84 ADD PUSH2 0x813 JUMP JUMPDEST PUSH2 0x12A4 DUP3 DUP3 PUSH2 0x285D JUMP JUMPDEST PUSH1 0x0 SLOAD PUSH2 0x100 SWAP1 DIV PUSH1 0xFF AND PUSH2 0x1F7C JUMPI PUSH1 0x40 MLOAD PUSH3 0x461BCD PUSH1 0xE5 SHL DUP2 MSTORE PUSH1 0x20 PUSH1 0x4 DUP3 ADD MSTORE PUSH1 0x2B PUSH1 0x24 DUP3 ADD MSTORE PUSH32 0x496E697469616C697A61626C653A20636F6E7472616374206973206E6F742069 PUSH1 0x44 DUP3 ADD MSTORE PUSH11 0x6E697469616C697A696E67 PUSH1 0xA8 SHL PUSH1 0x64 DUP3 ADD MSTORE PUSH1 0x84 ADD PUSH2 0x813 JUMP JUMPDEST PUSH2 0x1228 PUSH2 0x28E1 JUMP JUMPDEST PUSH1 0x0 DUP2 DUP2 MSTORE PUSH2 0x13A PUSH1 0x20 MSTORE PUSH1 0x40 DUP2 KECCAK256 SLOAD DUP1 DUP3 SUB PUSH2 0x1FA4 JUMPI POP PUSH1 0x0 SWAP3 SWAP2 POP POP JUMP JUMPDEST PUSH1 0x0 PUSH2 0x1FB0 DUP3 TIMESTAMP PUSH2 0x30D8 JUMP JUMPDEST SWAP1 POP PUSH2 0x12F SLOAD DUP2 GT ISZERO PUSH2 0x1FC3 JUMPI POP PUSH2 0x12F SLOAD JUMPDEST PUSH8 0xDE0B6B3A7640000 DUP1 PUSH2 0x130 SLOAD PUSH2 0x1FDB SWAP2 SWAP1 PUSH2 0x30D8 JUMP JUMPDEST PUSH2 0x12F SLOAD PUSH2 0x1FF1 PUSH8 0xDE0B6B3A7640000 DUP6 PUSH2 0x30EB JUMP JUMPDEST PUSH2 0x1FFB SWAP2 SWAP1 PUSH2 0x3102 JUMP JUMPDEST PUSH2 0x2005 SWAP2 SWAP1 PUSH2 0x30EB JUMP JUMPDEST PUSH2 0x200F SWAP2 SWAP1 PUSH2 0x3102 JUMP JUMPDEST PUSH2 0xDB1 SWAP1 PUSH8 0xDE0B6B3A7640000 PUSH2 0x3124 JUMP JUMPDEST PUSH1 0x0 DUP2 DUP2 MSTORE PUSH2 0x13B PUSH1 0x20 MSTORE PUSH1 0x40 DUP2 KECCAK256 SLOAD DUP2 PUSH2 0x203A PUSH2 0x2559 JUMP JUMPDEST SWAP1 POP PUSH8 0xDE0B6B3A7640000 PUSH2 0xE91 DUP3 DUP5 PUSH2 0x30EB JUMP JUMPDEST PUSH1 0x0 DUP2 DUP2 MSTORE PUSH2 0x13A PUSH1 0x20 MSTORE PUSH1 0x40 DUP2 KECCAK256 SLOAD DUP1 DUP3 SUB PUSH2 0x206F JUMPI POP PUSH1 0x0 SWAP3 SWAP2 POP POP JUMP JUMPDEST PUSH1 0x0 PUSH2 0x207B DUP3 TIMESTAMP PUSH2 0x30D8 JUMP JUMPDEST SWAP1 POP PUSH2 0x12F SLOAD DUP2 GT ISZERO PUSH2 0x208E JUMPI POP PUSH2 0x12F SLOAD JUMPDEST PUSH8 0xDE0B6B3A7640000 PUSH2 0x131 SLOAD PUSH2 0x12F SLOAD PUSH8 0xDE0B6B3A7640000 DUP5 PUSH2 0x20B3 SWAP2 SWAP1 PUSH2 0x30EB JUMP JUMPDEST PUSH2 0x20BD SWAP2 SWAP1 PUSH2 0x3102 JUMP JUMPDEST PUSH2 0x20C7 SWAP2 SWAP1 PUSH2 0x30EB JUMP JUMPDEST PUSH2 0x20D1 SWAP2 SWAP1 PUSH2 0x3102 JUMP JUMPDEST PUSH2 0x131 SLOAD PUSH2 0x20DF SWAP2 SWAP1 PUSH2 0x30D8 JUMP JUMPDEST SWAP3 POP PUSH2 0x132 SLOAD DUP4 LT ISZERO PUSH2 0xE9B JUMPI POP POP PUSH2 0x132 SLOAD SWAP3 SWAP2 POP POP JUMP JUMPDEST PUSH1 0x2 PUSH1 0x1 SLOAD SUB PUSH2 0x214A JUMPI PUSH1 0x40 MLOAD PUSH3 0x461BCD PUSH1 0xE5 SHL DUP2 MSTORE PUSH1 0x20 PUSH1 0x4 DUP3 ADD MSTORE PUSH1 0x1F PUSH1 0x24 DUP3 ADD MSTORE PUSH32 0x5265656E7472616E637947756172643A207265656E7472616E742063616C6C00 PUSH1 0x44 DUP3 ADD MSTORE PUSH1 0x64 ADD PUSH2 0x813 JUMP JUMPDEST PUSH1 0x2 PUSH1 0x1 SSTORE JUMP JUMPDEST PUSH1 0x1 DUP1 SSTORE JUMP JUMPDEST PUSH1 0xFB SLOAD PUSH1 0x1 PUSH1 0x1 PUSH1 0xA0 SHL SUB AND CALLER EQ PUSH2 0x1228 JUMPI PUSH1 0x40 MLOAD PUSH3 0x461BCD PUSH1 0xE5 SHL DUP2 MSTORE PUSH1 0x20 PUSH1 0x4 DUP3 ADD DUP2 SWAP1 MSTORE PUSH1 0x24 DUP3 ADD MSTORE PUSH32 0x4F776E61626C653A2063616C6C6572206973206E6F7420746865206F776E6572 PUSH1 0x44 DUP3 ADD MSTORE PUSH1 0x64 ADD PUSH2 0x813 JUMP JUMPDEST PUSH1 0xFB DUP1 SLOAD PUSH1 0x1 PUSH1 0x1 PUSH1 0xA0 SHL SUB DUP4 DUP2 AND PUSH20 0xFFFFFFFFFFFFFFFFFFFFFFFFFFFFFFFFFFFFFFFF NOT DUP4 AND DUP2 OR SWAP1 SWAP4 SSTORE PUSH1 0x40 MLOAD SWAP2 AND SWAP2 SWAP1 DUP3 SWAP1 PUSH32 0x8BE0079C531659141344CD1FD0A4F28419497F9722A3DAAFE3B4186F6B6457E0 SWAP1 PUSH1 0x0 SWAP1 LOG3 POP POP JUMP JUMPDEST PUSH1 0x0 DUP2 DUP4 LT PUSH2 0x221F JUMPI DUP2 PUSH2 0xA1D JUMP JUMPDEST POP SWAP1 SWAP2 SWAP1 POP JUMP JUMPDEST DUP2 PUSH1 0x1 PUSH1 0x1 PUSH1 0xA0 SHL SUB AND DUP4 PUSH1 0x1 PUSH1 0x1 PUSH1 0xA0 SHL SUB AND SUB PUSH2 0x2287 JUMPI PUSH1 0x40 MLOAD PUSH3 0x461BCD PUSH1 0xE5 SHL DUP2 MSTORE PUSH1 0x20 PUSH1 0x4 DUP3 ADD MSTORE PUSH1 0x19 PUSH1 0x24 DUP3 ADD MSTORE PUSH32 0x4552433732313A20617070726F766520746F2063616C6C657200000000000000 PUSH1 0x44 DUP3 ADD MSTORE PUSH1 0x64 ADD PUSH2 0x813 JUMP JUMPDEST PUSH1 0x1 PUSH1 0x1 PUSH1 0xA0 SHL SUB DUP4 DUP2 AND PUSH1 0x0 DUP2 DUP2 MSTORE PUSH1 0x9C PUSH1 0x20 SWAP1 DUP2 MSTORE PUSH1 0x40 DUP1 DUP4 KECCAK256 SWAP5 DUP8 AND DUP1 DUP5 MSTORE SWAP5 DUP3 MSTORE SWAP2 DUP3 SWAP1 KECCAK256 DUP1 SLOAD PUSH1 0xFF NOT AND DUP7 ISZERO ISZERO SWAP1 DUP2 OR SWAP1 SWAP2 SSTORE SWAP2 MLOAD SWAP2 DUP3 MSTORE PUSH32 0x17307EAB39AB6107E8899845AD3D59BD9653F200F220920489CA2B5937696C31 SWAP2 ADD PUSH1 0x40 MLOAD DUP1 SWAP2 SUB SWAP1 LOG3 POP POP POP JUMP JUMPDEST PUSH2 0x22FF DUP5 DUP5 DUP5 PUSH2 0x1683 JUMP JUMPDEST PUSH2 0x230B DUP5 DUP5 DUP5 DUP5 PUSH2 0x2955 JUMP JUMPDEST PUSH2 0x133D JUMPI PUSH1 0x40 MLOAD PUSH3 0x461BCD PUSH1 0xE5 SHL DUP2 MSTORE PUSH1 0x20 PUSH1 0x4 DUP3 ADD MSTORE PUSH1 0x32 PUSH1 0x24 DUP3 ADD MSTORE PUSH32 0x4552433732313A207472616E7366657220746F206E6F6E204552433732315265 PUSH1 0x44 DUP3 ADD MSTORE PUSH32 0x63656976657220696D706C656D656E7465720000000000000000000000000000 PUSH1 0x64 DUP3 ADD MSTORE PUSH1 0x84 ADD PUSH2 0x813 JUMP JUMPDEST PUSH1 0x60 PUSH1 0x0 PUSH2 0x238A DUP4 PUSH2 0x2ADE JUMP JUMPDEST PUSH1 0x1 ADD SWAP1 POP PUSH1 0x0 DUP2 PUSH8 0xFFFFFFFFFFFFFFFF DUP2 GT ISZERO PUSH2 0x23AA JUMPI PUSH2 0x23AA PUSH2 0x2F96 JUMP JUMPDEST PUSH1 0x40 MLOAD SWAP1 DUP1 DUP3 MSTORE DUP1 PUSH1 0x1F ADD PUSH1 0x1F NOT AND PUSH1 0x20 ADD DUP3 ADD PUSH1 0x40 MSTORE DUP1 ISZERO PUSH2 0x23D4 JUMPI PUSH1 0x20 DUP3 ADD DUP2 DUP1 CALLDATASIZE DUP4 CALLDATACOPY ADD SWAP1 POP JUMPDEST POP SWAP1 POP DUP2 DUP2 ADD PUSH1 0x20 ADD JUMPDEST PUSH1 0x0 NOT ADD PUSH32 0x3031323334353637383961626364656600000000000000000000000000000000 PUSH1 0xA DUP7 MOD BYTE DUP2 MSTORE8 PUSH1 0xA DUP6 DIV SWAP5 POP DUP5 PUSH2 0x23DE JUMPI POP SWAP4 SWAP3 POP POP POP JUMP JUMPDEST PUSH1 0x1 DUP2 GT ISZERO PUSH2 0x2494 JUMPI PUSH1 0x40 MLOAD PUSH3 0x461BCD PUSH1 0xE5 SHL DUP2 MSTORE PUSH1 0x20 PUSH1 0x4 DUP3 ADD MSTORE PUSH1 0x35 PUSH1 0x24 DUP3 ADD MSTORE PUSH32 0x455243373231456E756D657261626C653A20636F6E7365637574697665207472 PUSH1 0x44 DUP3 ADD MSTORE PUSH32 0x616E7366657273206E6F7420737570706F727465640000000000000000000000 PUSH1 0x64 DUP3 ADD MSTORE PUSH1 0x84 ADD PUSH2 0x813 JUMP JUMPDEST DUP2 PUSH1 0x1 PUSH1 0x1 PUSH1 0xA0 SHL SUB DUP6 AND PUSH2 0x24F0 JUMPI PUSH2 0x24EB DUP2 PUSH1 0xCB DUP1 SLOAD PUSH1 0x0 DUP4 DUP2 MSTORE PUSH1 0xCC PUSH1 0x20 MSTORE PUSH1 0x40 DUP2 KECCAK256 DUP3 SWAP1 SSTORE PUSH1 0x1 DUP3 ADD DUP4 SSTORE SWAP2 SWAP1 SWAP2 MSTORE PUSH32 0xA7CE836D032B2BF62B7E2097A8E0A6D8AEB35405AD15271E96D3B0188A1D06FB ADD SSTORE JUMP JUMPDEST PUSH2 0x2513 JUMP JUMPDEST DUP4 PUSH1 0x1 PUSH1 0x1 PUSH1 0xA0 SHL SUB AND DUP6 PUSH1 0x1 PUSH1 0x1 PUSH1 0xA0 SHL SUB AND EQ PUSH2 0x2513 JUMPI PUSH2 0x2513 DUP6 DUP3 PUSH2 0x2BC0 JUMP JUMPDEST PUSH1 0x1 PUSH1 0x1 PUSH1 0xA0 SHL SUB DUP5 AND PUSH2 0x252F JUMPI PUSH2 0x252A DUP2 PUSH2 0x2C5D JUMP JUMPDEST PUSH2 0x2552 JUMP JUMPDEST DUP5 PUSH1 0x1 PUSH1 0x1 PUSH1 0xA0 SHL SUB AND DUP5 PUSH1 0x1 PUSH1 0x1 PUSH1 0xA0 SHL SUB AND EQ PUSH2 0x2552 JUMPI PUSH2 0x2552 DUP5 DUP3 PUSH2 0x2D0C JUMP JUMPDEST POP POP POP POP POP JUMP JUMPDEST PUSH1 0x0 PUSH2 0x12E SLOAD PUSH1 0x0 SUB PUSH2 0x2573 JUMPI POP PUSH8 0xDE0B6B3A7640000 SWAP1 JUMP JUMPDEST PUSH2 0x12E SLOAD PUSH8 0xDE0B6B3A7640000 PUSH2 0x2588 PUSH2 0x2D50 JUMP JUMPDEST PUSH2 0x2592 SWAP2 SWAP1 PUSH2 0x30EB JUMP JUMPDEST PUSH2 0x1239 SWAP2 SWAP1 PUSH2 0x3102 JUMP JUMPDEST PUSH1 0x0 PUSH2 0x25A7 DUP3 PUSH2 0x10EC JUMP JUMPDEST SWAP1 POP PUSH2 0x25B7 DUP2 PUSH1 0x0 DUP5 PUSH1 0x1 PUSH2 0x241D JUMP JUMPDEST PUSH2 0x25C0 DUP3 PUSH2 0x10EC JUMP JUMPDEST PUSH1 0x0 DUP4 DUP2 MSTORE PUSH1 0x9B PUSH1 0x20 SWAP1 DUP2 MSTORE PUSH1 0x40 DUP1 DUP4 KECCAK256 DUP1 SLOAD PUSH20 0xFFFFFFFFFFFFFFFFFFFFFFFFFFFFFFFFFFFFFFFF NOT SWAP1 DUP2 AND SWAP1 SWAP2 SSTORE PUSH1 0x1 PUSH1 0x1 PUSH1 0xA0 SHL SUB DUP6 AND DUP1 DUP6 MSTORE PUSH1 0x9A DUP5 MSTORE DUP3 DUP6 KECCAK256 DUP1 SLOAD PUSH1 0x0 NOT ADD SWAP1 SSTORE DUP8 DUP6 MSTORE PUSH1 0x99 SWAP1 SWAP4 MSTORE DUP2 DUP5 KECCAK256 DUP1 SLOAD SWAP1 SWAP2 AND SWAP1 SSTORE MLOAD SWAP3 SWAP4 POP DUP5 SWAP3 PUSH32 0xDDF252AD1BE2C89B69C2B068FC378DAA952BA7F163C4A11628F55A4DF523B3EF SWAP1 DUP4 SWAP1 LOG4 POP POP JUMP JUMPDEST PUSH1 0x1 PUSH1 0x1 PUSH1 0xA0 SHL SUB DUP3 AND PUSH2 0x26A2 JUMPI PUSH1 0x40 MLOAD PUSH3 0x461BCD PUSH1 0xE5 SHL DUP2 MSTORE PUSH1 0x20 PUSH1 0x4 DUP3 ADD DUP2 SWAP1 MSTORE PUSH1 0x24 DUP3 ADD MSTORE PUSH32 0x4552433732313A206D696E7420746F20746865207A65726F2061646472657373 PUSH1 0x44 DUP3 ADD MSTORE PUSH1 0x64 ADD PUSH2 0x813 JUMP JUMPDEST PUSH1 0x0 DUP2 DUP2 MSTORE PUSH1 0x99 PUSH1 0x20 MSTORE PUSH1 0x40 SWAP1 KECCAK256 SLOAD PUSH1 0x1 PUSH1 0x1 PUSH1 0xA0 SHL SUB AND ISZERO PUSH2 0x2707 JUMPI PUSH1 0x40 MLOAD PUSH3 0x461BCD PUSH1 0xE5 SHL DUP2 MSTORE PUSH1 0x20 PUSH1 0x4 DUP3 ADD MSTORE PUSH1 0x1C PUSH1 0x24 DUP3 ADD MSTORE PUSH32 0x4552433732313A20746F6B656E20616C7265616479206D696E74656400000000 PUSH1 0x44 DUP3 ADD MSTORE PUSH1 0x64 ADD PUSH2 0x813 JUMP JUMPDEST PUSH2 0x2715 PUSH1 0x0 DUP4 DUP4 PUSH1 0x1 PUSH2 0x241D JUMP JUMPDEST PUSH1 0x0 DUP2 DUP2 MSTORE PUSH1 0x99 PUSH1 0x20 MSTORE PUSH1 0x40 SWAP1 KECCAK256 SLOAD PUSH1 0x1 PUSH1 0x1 PUSH1 0xA0 SHL SUB AND ISZERO PUSH2 0x277A JUMPI PUSH1 0x40 MLOAD PUSH3 0x461BCD PUSH1 0xE5 SHL DUP2 MSTORE PUSH1 0x20 PUSH1 0x4 DUP3 ADD MSTORE PUSH1 0x1C PUSH1 0x24 DUP3 ADD MSTORE PUSH32 0x4552433732313A20746F6B656E20616C7265616479206D696E74656400000000 PUSH1 0x44 DUP3 ADD MSTORE PUSH1 0x64 ADD PUSH2 0x813 JUMP JUMPDEST PUSH1 0x1 PUSH1 0x1 PUSH1 0xA0 SHL SUB DUP3 AND PUSH1 0x0 DUP2 DUP2 MSTORE PUSH1 0x9A PUSH1 0x20 SWAP1 DUP2 MSTORE PUSH1 0x40 DUP1 DUP4 KECCAK256 DUP1 SLOAD PUSH1 0x1 ADD SWAP1 SSTORE DUP5 DUP4 MSTORE PUSH1 0x99 SWAP1 SWAP2 MSTORE DUP1 DUP3 KECCAK256 DUP1 SLOAD PUSH20 0xFFFFFFFFFFFFFFFFFFFFFFFFFFFFFFFFFFFFFFFF NOT AND DUP5 OR SWAP1 SSTORE MLOAD DUP4 SWAP3 SWAP2 SWAP1 PUSH32 0xDDF252AD1BE2C89B69C2B068FC378DAA952BA7F163C4A11628F55A4DF523B3EF SWAP1 DUP3 SWAP1 LOG4 POP POP JUMP JUMPDEST PUSH1 0x0 SLOAD PUSH2 0x100 SWAP1 DIV PUSH1 0xFF AND PUSH2 0x2151 JUMPI PUSH1 0x40 MLOAD PUSH3 0x461BCD PUSH1 0xE5 SHL DUP2 MSTORE PUSH1 0x20 PUSH1 0x4 DUP3 ADD MSTORE PUSH1 0x2B PUSH1 0x24 DUP3 ADD MSTORE PUSH32 0x496E697469616C697A61626C653A20636F6E7472616374206973206E6F742069 PUSH1 0x44 DUP3 ADD MSTORE PUSH11 0x6E697469616C697A696E67 PUSH1 0xA8 SHL PUSH1 0x64 DUP3 ADD MSTORE PUSH1 0x84 ADD PUSH2 0x813 JUMP JUMPDEST PUSH1 0x0 SLOAD PUSH2 0x100 SWAP1 DIV PUSH1 0xFF AND PUSH2 0x28C8 JUMPI PUSH1 0x40 MLOAD PUSH3 0x461BCD PUSH1 0xE5 SHL DUP2 MSTORE PUSH1 0x20 PUSH1 0x4 DUP3 ADD MSTORE PUSH1 0x2B PUSH1 0x24 DUP3 ADD MSTORE PUSH32 0x496E697469616C697A61626C653A20636F6E7472616374206973206E6F742069 PUSH1 0x44 DUP3 ADD MSTORE PUSH11 0x6E697469616C697A696E67 PUSH1 0xA8 SHL PUSH1 0x64 DUP3 ADD MSTORE PUSH1 0x84 ADD PUSH2 0x813 JUMP JUMPDEST PUSH1 0x97 PUSH2 0x28D4 DUP4 DUP3 PUSH2 0x321A JUMP JUMPDEST POP PUSH1 0x98 PUSH2 0x8B4 DUP3 DUP3 PUSH2 0x321A JUMP JUMPDEST PUSH1 0x0 SLOAD PUSH2 0x100 SWAP1 DIV PUSH1 0xFF AND PUSH2 0x294C JUMPI PUSH1 0x40 MLOAD PUSH3 0x461BCD PUSH1 0xE5 SHL DUP2 MSTORE PUSH1 0x20 PUSH1 0x4 DUP3 ADD MSTORE PUSH1 0x2B PUSH1 0x24 DUP3 ADD MSTORE PUSH32 0x496E697469616C697A61626C653A20636F6E7472616374206973206E6F742069 PUSH1 0x44 DUP3 ADD MSTORE PUSH11 0x6E697469616C697A696E67 PUSH1 0xA8 SHL PUSH1 0x64 DUP3 ADD MSTORE PUSH1 0x84 ADD PUSH2 0x813 JUMP JUMPDEST PUSH2 0x1228 CALLER PUSH2 0x21B1 JUMP JUMPDEST PUSH1 0x0 PUSH1 0x1 PUSH1 0x1 PUSH1 0xA0 SHL SUB DUP5 AND EXTCODESIZE ISZERO PUSH2 0x2AD3 JUMPI PUSH1 0x40 MLOAD PUSH32 0x150B7A0200000000000000000000000000000000000000000000000000000000 DUP2 MSTORE PUSH1 0x1 PUSH1 0x1 PUSH1 0xA0 SHL SUB DUP6 AND SWAP1 PUSH4 0x150B7A02 SWAP1 PUSH2 0x29B2 SWAP1 CALLER SWAP1 DUP10 SWAP1 DUP9 SWAP1 DUP9 SWAP1 PUSH1 0x4 ADD PUSH2 0x32DA JUMP JUMPDEST PUSH1 0x20 PUSH1 0x40 MLOAD DUP1 DUP4 SUB DUP2 PUSH1 0x0 DUP8 GAS CALL SWAP3 POP POP POP DUP1 ISZERO PUSH2 0x29ED JUMPI POP PUSH1 0x40 DUP1 MLOAD PUSH1 0x1F RETURNDATASIZE SWAP1 DUP2 ADD PUSH1 0x1F NOT AND DUP3 ADD SWAP1 SWAP3 MSTORE PUSH2 0x29EA SWAP2 DUP2 ADD SWAP1 PUSH2 0x3316 JUMP JUMPDEST PUSH1 0x1 JUMPDEST PUSH2 0x2AA0 JUMPI RETURNDATASIZE DUP1 DUP1 ISZERO PUSH2 0x2A1B JUMPI PUSH1 0x40 MLOAD SWAP2 POP PUSH1 0x1F NOT PUSH1 0x3F RETURNDATASIZE ADD AND DUP3 ADD PUSH1 0x40 MSTORE RETURNDATASIZE DUP3 MSTORE RETURNDATASIZE PUSH1 0x0 PUSH1 0x20 DUP5 ADD RETURNDATACOPY PUSH2 0x2A20 JUMP JUMPDEST PUSH1 0x60 SWAP2 POP JUMPDEST POP DUP1 MLOAD PUSH1 0x0 SUB PUSH2 0x2A98 JUMPI PUSH1 0x40 MLOAD PUSH3 0x461BCD PUSH1 0xE5 SHL DUP2 MSTORE PUSH1 0x20 PUSH1 0x4 DUP3 ADD MSTORE PUSH1 0x32 PUSH1 0x24 DUP3 ADD MSTORE PUSH32 0x4552433732313A207472616E7366657220746F206E6F6E204552433732315265 PUSH1 0x44 DUP3 ADD MSTORE PUSH32 0x63656976657220696D706C656D656E7465720000000000000000000000000000 PUSH1 0x64 DUP3 ADD MSTORE PUSH1 0x84 ADD PUSH2 0x813 JUMP JUMPDEST DUP1 MLOAD DUP2 PUSH1 0x20 ADD REVERT JUMPDEST PUSH1 0x1 PUSH1 0x1 PUSH1 0xE0 SHL SUB NOT AND PUSH32 0x150B7A0200000000000000000000000000000000000000000000000000000000 EQ SWAP1 POP PUSH2 0xDB1 JUMP JUMPDEST POP PUSH1 0x1 SWAP5 SWAP4 POP POP POP POP JUMP JUMPDEST PUSH1 0x0 DUP1 PUSH27 0x184F03E93FF9F4DAA797ED6E38ED64BF6A1F010000000000000000 DUP4 LT PUSH2 0x2B27 JUMPI PUSH27 0x184F03E93FF9F4DAA797ED6E38ED64BF6A1F010000000000000000 DUP4 DIV SWAP3 POP PUSH1 0x40 ADD JUMPDEST PUSH14 0x4EE2D6D415B85ACEF8100000000 DUP4 LT PUSH2 0x2B53 JUMPI PUSH14 0x4EE2D6D415B85ACEF8100000000 DUP4 DIV SWAP3 POP PUSH1 0x20 ADD JUMPDEST PUSH7 0x2386F26FC10000 DUP4 LT PUSH2 0x2B71 JUMPI PUSH7 0x2386F26FC10000 DUP4 DIV SWAP3 POP PUSH1 0x10 ADD JUMPDEST PUSH4 0x5F5E100 DUP4 LT PUSH2 0x2B89 JUMPI PUSH4 0x5F5E100 DUP4 DIV SWAP3 POP PUSH1 0x8 ADD JUMPDEST PUSH2 0x2710 DUP4 LT PUSH2 0x2B9D JUMPI PUSH2 0x2710 DUP4 DIV SWAP3 POP PUSH1 0x4 ADD JUMPDEST PUSH1 0x64 DUP4 LT PUSH2 0x2BAF JUMPI PUSH1 0x64 DUP4 DIV SWAP3 POP PUSH1 0x2 ADD JUMPDEST PUSH1 0xA DUP4 LT PUSH2 0x6C4 JUMPI PUSH1 0x1 ADD SWAP3 SWAP2 POP POP JUMP JUMPDEST PUSH1 0x0 PUSH1 0x1 PUSH2 0x2BCD DUP5 PUSH2 0x117C JUMP JUMPDEST PUSH2 0x2BD7 SWAP2 SWAP1 PUSH2 0x30D8 JUMP JUMPDEST PUSH1 0x0 DUP4 DUP2 MSTORE PUSH1 0xCA PUSH1 0x20 MSTORE PUSH1 0x40 SWAP1 KECCAK256 SLOAD SWAP1 SWAP2 POP DUP1 DUP3 EQ PUSH2 0x2C2A JUMPI PUSH1 0x1 PUSH1 0x1 PUSH1 0xA0 SHL SUB DUP5 AND PUSH1 0x0 SWAP1 DUP2 MSTORE PUSH1 0xC9 PUSH1 0x20 SWAP1 DUP2 MSTORE PUSH1 0x40 DUP1 DUP4 KECCAK256 DUP6 DUP5 MSTORE DUP3 MSTORE DUP1 DUP4 KECCAK256 SLOAD DUP5 DUP5 MSTORE DUP2 DUP5 KECCAK256 DUP2 SWAP1 SSTORE DUP4 MSTORE PUSH1 0xCA SWAP1 SWAP2 MSTORE SWAP1 KECCAK256 DUP2 SWAP1 SSTORE JUMPDEST POP PUSH1 0x0 SWAP2 DUP3 MSTORE PUSH1 0xCA PUSH1 0x20 SWAP1 DUP2 MSTORE PUSH1 0x40 DUP1 DUP5 KECCAK256 DUP5 SWAP1 SSTORE PUSH1 0x1 PUSH1 0x1 PUSH1 0xA0 SHL SUB SWAP1 SWAP5 AND DUP4 MSTORE PUSH1 0xC9 DUP2 MSTORE DUP4 DUP4 KECCAK256 SWAP2 DUP4 MSTORE MSTORE SWAP1 DUP2 KECCAK256 SSTORE JUMP JUMPDEST PUSH1 0xCB SLOAD PUSH1 0x0 SWAP1 PUSH2 0x2C6F SWAP1 PUSH1 0x1 SWAP1 PUSH2 0x30D8 JUMP JUMPDEST PUSH1 0x0 DUP4 DUP2 MSTORE PUSH1 0xCC PUSH1 0x20 MSTORE PUSH1 0x40 DUP2 KECCAK256 SLOAD PUSH1 0xCB DUP1 SLOAD SWAP4 SWAP5 POP SWAP1 SWAP3 DUP5 SWAP1 DUP2 LT PUSH2 0x2C97 JUMPI PUSH2 0x2C97 PUSH2 0x3137 JUMP JUMPDEST SWAP1 PUSH1 0x0 MSTORE PUSH1 0x20 PUSH1 0x0 KECCAK256 ADD SLOAD SWAP1 POP DUP1 PUSH1 0xCB DUP4 DUP2 SLOAD DUP2 LT PUSH2 0x2CB8 JUMPI PUSH2 0x2CB8 PUSH2 0x3137 JUMP JUMPDEST PUSH1 0x0 SWAP2 DUP3 MSTORE PUSH1 0x20 DUP1 DUP4 KECCAK256 SWAP1 SWAP2 ADD SWAP3 SWAP1 SWAP3 SSTORE DUP3 DUP2 MSTORE PUSH1 0xCC SWAP1 SWAP2 MSTORE PUSH1 0x40 DUP1 DUP3 KECCAK256 DUP5 SWAP1 SSTORE DUP6 DUP3 MSTORE DUP2 KECCAK256 SSTORE PUSH1 0xCB DUP1 SLOAD DUP1 PUSH2 0x2CF0 JUMPI PUSH2 0x2CF0 PUSH2 0x3333 JUMP JUMPDEST PUSH1 0x1 SWAP1 SUB DUP2 DUP2 SWAP1 PUSH1 0x0 MSTORE PUSH1 0x20 PUSH1 0x0 KECCAK256 ADD PUSH1 0x0 SWAP1 SSTORE SWAP1 SSTORE POP POP POP POP JUMP JUMPDEST PUSH1 0x0 PUSH2 0x2D17 DUP4 PUSH2 0x117C JUMP JUMPDEST PUSH1 0x1 PUSH1 0x1 PUSH1 0xA0 SHL SUB SWAP1 SWAP4 AND PUSH1 0x0 SWAP1 DUP2 MSTORE PUSH1 0xC9 PUSH1 0x20 SWAP1 DUP2 MSTORE PUSH1 0x40 DUP1 DUP4 KECCAK256 DUP7 DUP5 MSTORE DUP3 MSTORE DUP1 DUP4 KECCAK256 DUP6 SWAP1 SSTORE SWAP4 DUP3 MSTORE PUSH1 0xCA SWAP1 MSTORE SWAP2 SWAP1 SWAP2 KECCAK256 SWAP2 SWAP1 SWAP2 SSTORE POP JUMP JUMPDEST PUSH2 0x138 SLOAD PUSH1 0x40 MLOAD PUSH32 0x70A0823100000000000000000000000000000000000000000000000000000000 DUP2 MSTORE ADDRESS PUSH1 0x4 DUP3 ADD MSTORE PUSH1 0x0 SWAP2 PUSH1 0x1 PUSH1 0x1 PUSH1 0xA0 SHL SUB AND SWAP1 PUSH4 0x70A08231 SWAP1 PUSH1 0x24 ADD PUSH1 0x20 PUSH1 0x40 MLOAD DUP1 DUP4 SUB DUP2 DUP7 GAS STATICCALL ISZERO DUP1 ISZERO PUSH2 0x2DB3 JUMPI RETURNDATASIZE PUSH1 0x0 DUP1 RETURNDATACOPY RETURNDATASIZE PUSH1 0x0 REVERT JUMPDEST POP POP POP POP PUSH1 0x40 MLOAD RETURNDATASIZE PUSH1 0x1F NOT PUSH1 0x1F DUP3 ADD AND DUP3 ADD DUP1 PUSH1 0x40 MSTORE POP DUP2 ADD SWAP1 PUSH2 0x1239 SWAP2 SWAP1 PUSH2 0x316A JUMP JUMPDEST PUSH1 0x1 PUSH1 0x1 PUSH1 0xE0 SHL SUB NOT DUP2 AND DUP2 EQ PUSH2 0x10E9 JUMPI PUSH1 0x0 DUP1 REVERT JUMPDEST PUSH1 0x0 PUSH1 0x20 DUP3 DUP5 SUB SLT ISZERO PUSH2 0x2DFF JUMPI PUSH1 0x0 DUP1 REVERT JUMPDEST DUP2 CALLDATALOAD PUSH2 0xA1D DUP2 PUSH2 0x2DD7 JUMP JUMPDEST PUSH1 0x0 JUMPDEST DUP4 DUP2 LT ISZERO PUSH2 0x2E25 JUMPI DUP2 DUP2 ADD MLOAD DUP4 DUP3 ADD MSTORE PUSH1 0x20 ADD PUSH2 0x2E0D JUMP JUMPDEST POP POP PUSH1 0x0 SWAP2 ADD MSTORE JUMP JUMPDEST PUSH1 0x0 DUP2 MLOAD DUP1 DUP5 MSTORE PUSH2 0x2E46 DUP2 PUSH1 0x20 DUP7 ADD PUSH1 0x20 DUP7 ADD PUSH2 0x2E0A JUMP JUMPDEST PUSH1 0x1F ADD PUSH1 0x1F NOT AND SWAP3 SWAP1 SWAP3 ADD PUSH1 0x20 ADD SWAP3 SWAP2 POP POP JUMP JUMPDEST PUSH1 0x20 DUP2 MSTORE PUSH1 0x0 PUSH2 0xA1D PUSH1 0x20 DUP4 ADD DUP5 PUSH2 0x2E2E JUMP JUMPDEST PUSH1 0x0 PUSH1 0x20 DUP3 DUP5 SUB SLT ISZERO PUSH2 0x2E7F JUMPI PUSH1 0x0 DUP1 REVERT JUMPDEST POP CALLDATALOAD SWAP2 SWAP1 POP JUMP JUMPDEST DUP1 CALLDATALOAD PUSH1 0x1 PUSH1 0x1 PUSH1 0xA0 SHL SUB DUP2 AND DUP2 EQ PUSH2 0x1177 JUMPI PUSH1 0x0 DUP1 REVERT JUMPDEST PUSH1 0x0 DUP1 PUSH1 0x40 DUP4 DUP6 SUB SLT ISZERO PUSH2 0x2EB0 JUMPI PUSH1 0x0 DUP1 REVERT JUMPDEST PUSH2 0x2EB9 DUP4 PUSH2 0x2E86 JUMP JUMPDEST SWAP5 PUSH1 0x20 SWAP4 SWAP1 SWAP4 ADD CALLDATALOAD SWAP4 POP POP POP JUMP JUMPDEST PUSH1 0x0 DUP1 PUSH1 0x0 PUSH1 0x60 DUP5 DUP7 SUB SLT ISZERO PUSH2 0x2EDC JUMPI PUSH1 0x0 DUP1 REVERT JUMPDEST PUSH2 0x2EE5 DUP5 PUSH2 0x2E86 JUMP JUMPDEST SWAP3 POP PUSH2 0x2EF3 PUSH1 0x20 DUP6 ADD PUSH2 0x2E86 JUMP JUMPDEST SWAP2 POP PUSH1 0x40 DUP5 ADD CALLDATALOAD SWAP1 POP SWAP3 POP SWAP3 POP SWAP3 JUMP JUMPDEST PUSH1 0x0 DUP1 PUSH1 0x40 DUP4 DUP6 SUB SLT ISZERO PUSH2 0x2F16 JUMPI PUSH1 0x0 DUP1 REVERT JUMPDEST PUSH2 0x2F1F DUP4 PUSH2 0x2E86 JUMP JUMPDEST SWAP2 POP PUSH2 0x2F2D PUSH1 0x20 DUP5 ADD PUSH2 0x2E86 JUMP JUMPDEST SWAP1 POP SWAP3 POP SWAP3 SWAP1 POP JUMP JUMPDEST PUSH1 0x0 PUSH1 0x20 DUP3 DUP5 SUB SLT ISZERO PUSH2 0x2F48 JUMPI PUSH1 0x0 DUP1 REVERT JUMPDEST PUSH2 0xA1D DUP3 PUSH2 0x2E86 JUMP JUMPDEST DUP1 ISZERO ISZERO DUP2 EQ PUSH2 0x10E9 JUMPI PUSH1 0x0 DUP1 REVERT JUMPDEST PUSH1 0x0 DUP1 PUSH1 0x40 DUP4 DUP6 SUB SLT ISZERO PUSH2 0x2F72 JUMPI PUSH1 0x0 DUP1 REVERT JUMPDEST PUSH2 0x2F7B DUP4 PUSH2 0x2E86 JUMP JUMPDEST SWAP2 POP PUSH1 0x20 DUP4 ADD CALLDATALOAD PUSH2 0x2F8B DUP2 PUSH2 0x2F51 JUMP JUMPDEST DUP1 SWAP2 POP POP SWAP3 POP SWAP3 SWAP1 POP JUMP JUMPDEST PUSH4 0x4E487B71 PUSH1 0xE0 SHL PUSH1 0x0 MSTORE PUSH1 0x41 PUSH1 0x4 MSTORE PUSH1 0x24 PUSH1 0x0 REVERT JUMPDEST PUSH1 0x0 DUP1 PUSH1 0x0 DUP1 PUSH1 0x80 DUP6 DUP8 SUB SLT ISZERO PUSH2 0x2FC2 JUMPI PUSH1 0x0 DUP1 REVERT JUMPDEST PUSH2 0x2FCB DUP6 PUSH2 0x2E86 JUMP JUMPDEST SWAP4 POP PUSH2 0x2FD9 PUSH1 0x20 DUP7 ADD PUSH2 0x2E86 JUMP JUMPDEST SWAP3 POP PUSH1 0x40 DUP6 ADD CALLDATALOAD SWAP2 POP PUSH1 0x60 DUP6 ADD CALLDATALOAD PUSH8 0xFFFFFFFFFFFFFFFF DUP1 DUP3 GT ISZERO PUSH2 0x2FFD JUMPI PUSH1 0x0 DUP1 REVERT JUMPDEST DUP2 DUP8 ADD SWAP2 POP DUP8 PUSH1 0x1F DUP4 ADD SLT PUSH2 0x3011 JUMPI PUSH1 0x0 DUP1 REVERT JUMPDEST DUP2 CALLDATALOAD DUP2 DUP2 GT ISZERO PUSH2 0x3023 JUMPI PUSH2 0x3023 PUSH2 0x2F96 JUMP JUMPDEST PUSH1 0x40 MLOAD PUSH1 0x1F DUP3 ADD PUSH1 0x1F NOT SWAP1 DUP2 AND PUSH1 0x3F ADD AND DUP2 ADD SWAP1 DUP4 DUP3 GT DUP2 DUP4 LT OR ISZERO PUSH2 0x304B JUMPI PUSH2 0x304B PUSH2 0x2F96 JUMP JUMPDEST DUP2 PUSH1 0x40 MSTORE DUP3 DUP2 MSTORE DUP11 PUSH1 0x20 DUP5 DUP8 ADD ADD GT ISZERO PUSH2 0x3064 JUMPI PUSH1 0x0 DUP1 REVERT JUMPDEST DUP3 PUSH1 0x20 DUP7 ADD PUSH1 0x20 DUP4 ADD CALLDATACOPY PUSH1 0x0 PUSH1 0x20 DUP5 DUP4 ADD ADD MSTORE DUP1 SWAP6 POP POP POP POP POP POP SWAP3 SWAP6 SWAP2 SWAP5 POP SWAP3 POP JUMP JUMPDEST PUSH1 0x1 DUP2 DUP2 SHR SWAP1 DUP3 AND DUP1 PUSH2 0x309C JUMPI PUSH1 0x7F DUP3 AND SWAP2 POP JUMPDEST PUSH1 0x20 DUP3 LT DUP2 SUB PUSH2 0x30BC JUMPI PUSH4 0x4E487B71 PUSH1 0xE0 SHL PUSH1 0x0 MSTORE PUSH1 0x22 PUSH1 0x4 MSTORE PUSH1 0x24 PUSH1 0x0 REVERT JUMPDEST POP SWAP2 SWAP1 POP JUMP JUMPDEST PUSH4 0x4E487B71 PUSH1 0xE0 SHL PUSH1 0x0 MSTORE PUSH1 0x11 PUSH1 0x4 MSTORE PUSH1 0x24 PUSH1 0x0 REVERT JUMPDEST DUP2 DUP2 SUB DUP2 DUP2 GT ISZERO PUSH2 0x6C4 JUMPI PUSH2 0x6C4 PUSH2 0x30C2 JUMP JUMPDEST DUP1 DUP3 MUL DUP2 ISZERO DUP3 DUP3 DIV DUP5 EQ OR PUSH2 0x6C4 JUMPI PUSH2 0x6C4 PUSH2 0x30C2 JUMP JUMPDEST PUSH1 0x0 DUP3 PUSH2 0x311F JUMPI PUSH4 0x4E487B71 PUSH1 0xE0 SHL PUSH1 0x0 MSTORE PUSH1 0x12 PUSH1 0x4 MSTORE PUSH1 0x24 PUSH1 0x0 REVERT JUMPDEST POP DIV SWAP1 JUMP JUMPDEST DUP1 DUP3 ADD DUP1 DUP3 GT ISZERO PUSH2 0x6C4 JUMPI PUSH2 0x6C4 PUSH2 0x30C2 JUMP JUMPDEST PUSH4 0x4E487B71 PUSH1 0xE0 SHL PUSH1 0x0 MSTORE PUSH1 0x32 PUSH1 0x4 MSTORE PUSH1 0x24 PUSH1 0x0 REVERT JUMPDEST PUSH1 0x0 PUSH1 0x20 DUP3 DUP5 SUB SLT ISZERO PUSH2 0x315F JUMPI PUSH1 0x0 DUP1 REVERT JUMPDEST DUP2 MLOAD PUSH2 0xA1D DUP2 PUSH2 0x2F51 JUMP JUMPDEST PUSH1 0x0 PUSH1 0x20 DUP3 DUP5 SUB SLT ISZERO PUSH2 0x317C JUMPI PUSH1 0x0 DUP1 REVERT JUMPDEST POP MLOAD SWAP2 SWAP1 POP JUMP JUMPDEST PUSH1 0x0 DUP4 MLOAD PUSH2 0x3195 DUP2 DUP5 PUSH1 0x20 DUP9 ADD PUSH2 0x2E0A JUMP JUMPDEST DUP4 MLOAD SWAP1 DUP4 ADD SWAP1 PUSH2 0x31A9 DUP2 DUP4 PUSH1 0x20 DUP9 ADD PUSH2 0x2E0A JUMP JUMPDEST ADD SWAP5 SWAP4 POP POP POP POP JUMP JUMPDEST PUSH1 0x0 PUSH1 0x0 NOT DUP3 SUB PUSH2 0x31C5 JUMPI PUSH2 0x31C5 PUSH2 0x30C2 JUMP JUMPDEST POP PUSH1 0x1 ADD SWAP1 JUMP JUMPDEST PUSH1 0x1F DUP3 GT ISZERO PUSH2 0x8B4 JUMPI PUSH1 0x0 DUP2 DUP2 MSTORE PUSH1 0x20 DUP2 KECCAK256 PUSH1 0x1F DUP6 ADD PUSH1 0x5 SHR DUP2 ADD PUSH1 0x20 DUP7 LT ISZERO PUSH2 0x31F3 JUMPI POP DUP1 JUMPDEST PUSH1 0x1F DUP6 ADD PUSH1 0x5 SHR DUP3 ADD SWAP2 POP JUMPDEST DUP2 DUP2 LT ISZERO PUSH2 0x3212 JUMPI DUP3 DUP2 SSTORE PUSH1 0x1 ADD PUSH2 0x31FF JUMP JUMPDEST POP POP POP POP POP POP JUMP JUMPDEST DUP2 MLOAD PUSH8 0xFFFFFFFFFFFFFFFF DUP2 GT ISZERO PUSH2 0x3234 JUMPI PUSH2 0x3234 PUSH2 0x2F96 JUMP JUMPDEST PUSH2 0x3248 DUP2 PUSH2 0x3242 DUP5 SLOAD PUSH2 0x3088 JUMP JUMPDEST DUP5 PUSH2 0x31CC JUMP JUMPDEST PUSH1 0x20 DUP1 PUSH1 0x1F DUP4 GT PUSH1 0x1 DUP2 EQ PUSH2 0x327D JUMPI PUSH1 0x0 DUP5 ISZERO PUSH2 0x3265 JUMPI POP DUP6 DUP4 ADD MLOAD JUMPDEST PUSH1 0x0 NOT PUSH1 0x3 DUP7 SWAP1 SHL SHR NOT AND PUSH1 0x1 DUP6 SWAP1 SHL OR DUP6 SSTORE PUSH2 0x3212 JUMP JUMPDEST PUSH1 0x0 DUP6 DUP2 MSTORE PUSH1 0x20 DUP2 KECCAK256 PUSH1 0x1F NOT DUP7 AND SWAP2 JUMPDEST DUP3 DUP2 LT ISZERO PUSH2 0x32AC JUMPI DUP9 DUP7 ADD MLOAD DUP3 SSTORE SWAP5 DUP5 ADD SWAP5 PUSH1 0x1 SWAP1 SWAP2 ADD SWAP1 DUP5 ADD PUSH2 0x328D JUMP JUMPDEST POP DUP6 DUP3 LT ISZERO PUSH2 0x32CA JUMPI DUP8 DUP6 ADD MLOAD PUSH1 0x0 NOT PUSH1 0x3 DUP9 SWAP1 SHL PUSH1 0xF8 AND SHR NOT AND DUP2 SSTORE JUMPDEST POP POP POP POP POP PUSH1 0x1 SWAP1 DUP2 SHL ADD SWAP1 SSTORE POP JUMP JUMPDEST PUSH1 0x0 PUSH1 0x1 PUSH1 0x1 PUSH1 0xA0 SHL SUB DUP1 DUP8 AND DUP4 MSTORE DUP1 DUP7 AND PUSH1 0x20 DUP5 ADD MSTORE POP DUP4 PUSH1 0x40 DUP4 ADD MSTORE PUSH1 0x80 PUSH1 0x60 DUP4 ADD MSTORE PUSH2 0x330C PUSH1 0x80 DUP4 ADD DUP5 PUSH2 0x2E2E JUMP JUMPDEST SWAP7 SWAP6 POP POP POP POP POP POP JUMP JUMPDEST PUSH1 0x0 PUSH1 0x20 DUP3 DUP5 SUB SLT ISZERO PUSH2 0x3328 JUMPI PUSH1 0x0 DUP1 REVERT JUMPDEST DUP2 MLOAD PUSH2 0xA1D DUP2 PUSH2 0x2DD7 JUMP JUMPDEST PUSH4 0x4E487B71 PUSH1 0xE0 SHL PUSH1 0x0 MSTORE PUSH1 0x31 PUSH1 0x4 MSTORE PUSH1 0x24 PUSH1 0x0 REVERT INVALID LOG2 PUSH5 0x6970667358 0x22 SLT KECCAK256 0x27 0xB1 CHAINID PREVRANDAO 0xB4 0xF 0xC0 POP 0xBA 0x4D EXTCODECOPY 0xB0 RETURNDATACOPY RETURN PUSH23 0x2F8D4DB7F8424FA8344306594594563B7364736F6C6343 STOP ADDMOD SGT STOP CALLER "},"methodIdentifiers":{"DURATION()":"1be05289","INTX()":"df2e0b97","P()":"8b8fbd92","amountStakedOf(uint256)":"a00ea0c5","approve(address,uint256)":"095ea7b3","balanceOf(address)":"70a08231","balanceOfId(uint256)":"a1c95e5a","boostPercentageOf(uint256)":"645bfd9a","earned(uint256)":"4d6ed8c4","getApproved(uint256)":"081812fc","initialize(address,address)":"485cc955","isApprovedForAll(address,address)":"e985e9c5","lastTimeRewardApplicable()":"80faa57d","lastTokenId()":"f84ddf0b","lastUpdateTime()":"c8f33c91","loyalSince(uint256)":"cfd0e125","loyaltyDuration()":"d1a249ab","maxLoyaltyBoost()":"2212b806","maxPenalty()":"5200e79e","minPenalty()":"0eba9849","name()":"06fdde03","notifyReward(uint256)":"60993b5b","owner()":"8da5cb5b","ownerOf(uint256)":"6352211e","penaltyAmountOf(uint256)":"5a48a97f","penaltyPercentageOf(uint256)":"988dc31e","periodFinish()":"ebe2b12b","renounceOwnership()":"715018a6","rewardPerWeight()":"2ac3f450","rewardRate()":"7b0a47ee","rewardToken()":"f7c618c1","safeTransferFrom(address,address,uint256)":"42842e0e","safeTransferFrom(address,address,uint256,bytes)":"b88d4fde","setApprovalForAll(address,bool)":"a22cb465","stake(uint256)":"a694fc3a","stakeFor(address,uint256)":"2ee40908","supportsInterface(bytes4)":"01ffc9a7","symbol()":"95d89b41","tokenByIndex(uint256)":"4f6ccce7","tokenOfOwnerByIndex(address,uint256)":"2f745c59","tokenURI(uint256)":"c87b56dd","totalSupply()":"18160ddd","totalXINTX()":"520bf08a","transferFrom(address,address,uint256)":"23b872dd","transferOwnership(address)":"f2fde38b","unstake(uint256)":"2e17de78","withdrawableAmountOf(uint256)":"d975dfed"}},"storageLayout":{"storage":[{"astId":138,"contract":"contracts/StakedINTX.sol:StakedINTX","label":"_initialized","offset":0,"slot":"0","type":"t_uint8"},{"astId":141,"contract":"contracts/StakedINTX.sol:StakedINTX","label":"_initializing","offset":1,"slot":"0","type":"t_bool"},{"astId":314,"contract":"contracts/StakedINTX.sol:StakedINTX","label":"_status","offset":0,"slot":"1","type":"t_uint256"},{"astId":383,"contract":"contracts/StakedINTX.sol:StakedINTX","label":"__gap","offset":0,"slot":"2","type":"t_array(t_uint256)49_storage"},{"astId":2273,"contract":"contracts/StakedINTX.sol:StakedINTX","label":"__gap","offset":0,"slot":"51","type":"t_array(t_uint256)50_storage"},{"astId":2546,"contract":"contracts/StakedINTX.sol:StakedINTX","label":"__gap","offset":0,"slot":"101","type":"t_array(t_uint256)50_storage"},{"astId":413,"contract":"contracts/StakedINTX.sol:StakedINTX","label":"_name","offset":0,"slot":"151","type":"t_string_storage"},{"astId":415,"contract":"contracts/StakedINTX.sol:StakedINTX","label":"_symbol","offset":0,"slot":"152","type":"t_string_storage"},{"astId":419,"contract":"contracts/StakedINTX.sol:StakedINTX","label":"_owners","offset":0,"slot":"153","type":"t_mapping(t_uint256,t_address)"},{"astId":423,"contract":"contracts/StakedINTX.sol:StakedINTX","label":"_balances","offset":0,"slot":"154","type":"t_mapping(t_address,t_uint256)"},{"astId":427,"contract":"contracts/StakedINTX.sol:StakedINTX","label":"_tokenApprovals","offset":0,"slot":"155","type":"t_mapping(t_uint256,t_address)"},{"astId":433,"contract":"contracts/StakedINTX.sol:StakedINTX","label":"_operatorApprovals","offset":0,"slot":"156","type":"t_mapping(t_address,t_mapping(t_address,t_bool))"},{"astId":1335,"contract":"contracts/StakedINTX.sol:StakedINTX","label":"__gap","offset":0,"slot":"157","type":"t_array(t_uint256)44_storage"},{"astId":1500,"contract":"contracts/StakedINTX.sol:StakedINTX","label":"_ownedTokens","offset":0,"slot":"201","type":"t_mapping(t_address,t_mapping(t_uint256,t_uint256))"},{"astId":1504,"contract":"contracts/StakedINTX.sol:StakedINTX","label":"_ownedTokensIndex","offset":0,"slot":"202","type":"t_mapping(t_uint256,t_uint256)"},{"astId":1507,"contract":"contracts/StakedINTX.sol:StakedINTX","label":"_allTokens","offset":0,"slot":"203","type":"t_array(t_uint256)dyn_storage"},{"astId":1511,"contract":"contracts/StakedINTX.sol:StakedINTX","label":"_allTokensIndex","offset":0,"slot":"204","type":"t_mapping(t_uint256,t_uint256)"},{"astId":1843,"contract":"contracts/StakedINTX.sol:StakedINTX","label":"__gap","offset":0,"slot":"205","type":"t_array(t_uint256)46_storage"},{"astId":10,"contract":"contracts/StakedINTX.sol:StakedINTX","label":"_owner","offset":0,"slot":"251","type":"t_address"},{"astId":130,"contract":"contracts/StakedINTX.sol:StakedINTX","label":"__gap","offset":0,"slot":"252","type":"t_array(t_uint256)49_storage"},{"astId":4301,"contract":"contracts/StakedINTX.sol:StakedINTX","label":"lastTokenId","offset":0,"slot":"301","type":"t_uint256"},{"astId":4303,"contract":"contracts/StakedINTX.sol:StakedINTX","label":"totalXINTX","offset":0,"slot":"302","type":"t_uint256"},{"astId":4305,"contract":"contracts/StakedINTX.sol:StakedINTX","label":"loyaltyDuration","offset":0,"slot":"303","type":"t_uint256"},{"astId":4307,"contract":"contracts/StakedINTX.sol:StakedINTX","label":"maxLoyaltyBoost","offset":0,"slot":"304","type":"t_uint256"},{"astId":4309,"contract":"contracts/StakedINTX.sol:StakedINTX","label":"maxPenalty","offset":0,"slot":"305","type":"t_uint256"},{"astId":4311,"contract":"contracts/StakedINTX.sol:StakedINTX","label":"minPenalty","offset":0,"slot":"306","type":"t_uint256"},{"astId":4313,"contract":"contracts/StakedINTX.sol:StakedINTX","label":"lastUpdateTime","offset":0,"slot":"307","type":"t_uint256"},{"astId":4315,"contract":"contracts/StakedINTX.sol:StakedINTX","label":"periodFinish","offset":0,"slot":"308","type":"t_uint256"},{"astId":4317,"contract":"contracts/StakedINTX.sol:StakedINTX","label":"rewardRate","offset":0,"slot":"309","type":"t_uint256"},{"astId":4319,"contract":"contracts/StakedINTX.sol:StakedINTX","label":"rewardPerWeightStored","offset":0,"slot":"310","type":"t_uint256"},{"astId":4321,"contract":"contracts/StakedINTX.sol:StakedINTX","label":"totalWeight","offset":0,"slot":"311","type":"t_uint256"},{"astId":4324,"contract":"contracts/StakedINTX.sol:StakedINTX","label":"INTX","offset":0,"slot":"312","type":"t_contract(IERC20)3608"},{"astId":4327,"contract":"contracts/StakedINTX.sol:StakedINTX","label":"rewardToken","offset":0,"slot":"313","type":"t_contract(IERC20)3608"},{"astId":4331,"contract":"contracts/StakedINTX.sol:StakedINTX","label":"loyalSince","offset":0,"slot":"314","type":"t_mapping(t_uint256,t_uint256)"},{"astId":4335,"contract":"contracts/StakedINTX.sol:StakedINTX","label":"balanceOfId","offset":0,"slot":"315","type":"t_mapping(t_uint256,t_uint256)"},{"astId":4339,"contract":"contracts/StakedINTX.sol:StakedINTX","label":"_lastWeightOfTokenId","offset":0,"slot":"316","type":"t_mapping(t_uint256,t_uint256)"},{"astId":4343,"contract":"contracts/StakedINTX.sol:StakedINTX","label":"_rewardPerWeightPaid","offset":0,"slot":"317","type":"t_mapping(t_uint256,t_uint256)"},{"astId":4347,"contract":"contracts/StakedINTX.sol:StakedINTX","label":"_rewards","offset":0,"slot":"318","type":"t_mapping(t_uint256,t_uint256)"},{"astId":4351,"contract":"contracts/StakedINTX.sol:StakedINTX","label":"pendingRewards","offset":0,"slot":"319","type":"t_mapping(t_address,t_uint256)"}],"types":{"t_address":{"encoding":"inplace","label":"address","numberOfBytes":"20"},"t_array(t_uint256)44_storage":{"base":"t_uint256","encoding":"inplace","label":"uint256[44]","numberOfBytes":"1408"},"t_array(t_uint256)46_storage":{"base":"t_uint256","encoding":"inplace","label":"uint256[46]","numberOfBytes":"1472"},"t_array(t_uint256)49_storage":{"base":"t_uint256","encoding":"inplace","label":"uint256[49]","numberOfBytes":"1568"},"t_array(t_uint256)50_storage":{"base":"t_uint256","encoding":"inplace","label":"uint256[50]","numberOfBytes":"1600"},"t_array(t_uint256)dyn_storage":{"base":"t_uint256","encoding":"dynamic_array","label":"uint256[]","numberOfBytes":"32"},"t_bool":{"encoding":"inplace","label":"bool","numberOfBytes":"1"},"t_contract(IERC20)3608":{"encoding":"inplace","label":"contract IERC20","numberOfBytes":"20"},"t_mapping(t_address,t_bool)":{"encoding":"mapping","key":"t_address","label":"mapping(address => bool)","numberOfBytes":"32","value":"t_bool"},"t_mapping(t_address,t_mapping(t_address,t_bool))":{"encoding":"mapping","key":"t_address","label":"mapping(address => mapping(address => bool))","numberOfBytes":"32","value":"t_mapping(t_address,t_bool)"},"t_mapping(t_address,t_mapping(t_uint256,t_uint256))":{"encoding":"mapping","key":"t_address","label":"mapping(address => mapping(uint256 => uint256))","numberOfBytes":"32","value":"t_mapping(t_uint256,t_uint256)"},"t_mapping(t_address,t_uint256)":{"encoding":"mapping","key":"t_address","label":"mapping(address => uint256)","numberOfBytes":"32","value":"t_uint256"},"t_mapping(t_uint256,t_address)":{"encoding":"mapping","key":"t_uint256","label":"mapping(uint256 => address)","numberOfBytes":"32","value":"t_address"},"t_mapping(t_uint256,t_uint256)":{"encoding":"mapping","key":"t_uint256","label":"mapping(uint256 => uint256)","numberOfBytes":"32","value":"t_uint256"},"t_string_storage":{"encoding":"bytes","label":"string","numberOfBytes":"32"},"t_uint256":{"encoding":"inplace","label":"uint256","numberOfBytes":"32"},"t_uint8":{"encoding":"inplace","label":"uint8","numberOfBytes":"1"}}}}}}