{"contracts/vestings/VestingXINTX.sol":{"VestingXINTX":{"abi":[{"inputs":[],"stateMutability":"nonpayable","type":"constructor"},{"anonymous":false,"inputs":[{"indexed":false,"internalType":"address","name":"changedBy","type":"address"},{"indexed":true,"internalType":"address","name":"_oldAddress","type":"address"},{"indexed":true,"internalType":"address","name":"_newAddress","type":"address"},{"indexed":false,"internalType":"uint256","name":"amountClaimable","type":"uint256"},{"indexed":false,"internalType":"uint256","name":"amountClaimed","type":"uint256"}],"name":"AllocationChanged","type":"event"},{"anonymous":false,"inputs":[{"indexed":true,"internalType":"address","name":"user","type":"address"},{"indexed":false,"internalType":"uint256","name":"amount","type":"uint256"},{"indexed":false,"internalType":"uint256","name":"_tokenId","type":"uint256"}],"name":"Claimed","type":"event"},{"anonymous":false,"inputs":[{"indexed":false,"internalType":"uint8","name":"version","type":"uint8"}],"name":"Initialized","type":"event"},{"anonymous":false,"inputs":[{"indexed":true,"internalType":"address","name":"previousOwner","type":"address"},{"indexed":true,"internalType":"address","name":"newOwner","type":"address"}],"name":"OwnershipTransferStarted","type":"event"},{"anonymous":false,"inputs":[{"indexed":true,"internalType":"address","name":"previousOwner","type":"address"},{"indexed":true,"internalType":"address","name":"newOwner","type":"address"}],"name":"OwnershipTransferred","type":"event"},{"anonymous":false,"inputs":[{"indexed":false,"internalType":"address","name":"operator","type":"address"},{"indexed":false,"internalType":"address[]","name":"users","type":"address[]"},{"indexed":false,"internalType":"uint256[]","name":"amount","type":"uint256[]"}],"name":"RemoveSeed","type":"event"},{"anonymous":false,"inputs":[{"indexed":false,"internalType":"address","name":"operator","type":"address"},{"indexed":false,"internalType":"address[]","name":"users","type":"address[]"},{"indexed":false,"internalType":"uint256[]","name":"amount","type":"uint256[]"},{"indexed":false,"internalType":"uint256","name":"totalAmount","type":"uint256"}],"name":"Seeded","type":"event"},{"inputs":[],"name":"NO_CLAIM_DURATION","outputs":[{"internalType":"uint256","name":"","type":"uint256"}],"stateMutability":"view","type":"function"},{"inputs":[],"name":"PRECISION","outputs":[{"internalType":"uint256","name":"","type":"uint256"}],"stateMutability":"view","type":"function"},{"inputs":[],"name":"START_VESTING","outputs":[{"internalType":"uint256","name":"","type":"uint256"}],"stateMutability":"view","type":"function"},{"inputs":[],"name":"VESTING_DURATION","outputs":[{"internalType":"uint256","name":"","type":"uint256"}],"stateMutability":"view","type":"function"},{"inputs":[],"name":"acceptOwnership","outputs":[],"stateMutability":"nonpayable","type":"function"},{"inputs":[{"internalType":"address","name":"_oldAddress","type":"address"},{"internalType":"address","name":"_newAddress","type":"address"}],"name":"changeReceiver","outputs":[],"stateMutability":"nonpayable","type":"function"},{"inputs":[],"name":"claim","outputs":[],"stateMutability":"nonpayable","type":"function"},{"inputs":[{"internalType":"address","name":"","type":"address"}],"name":"claimableAmount","outputs":[{"internalType":"uint256","name":"","type":"uint256"}],"stateMutability":"view","type":"function"},{"inputs":[{"internalType":"address","name":"_user","type":"address"}],"name":"claimableNow","outputs":[{"internalType":"uint256","name":"amountToReceive","type":"uint256"}],"stateMutability":"view","type":"function"},{"inputs":[{"internalType":"address","name":"_user","type":"address"}],"name":"claimableWithoutCliff","outputs":[{"internalType":"uint256","name":"amountToReceive","type":"uint256"}],"stateMutability":"view","type":"function"},{"inputs":[{"internalType":"address","name":"","type":"address"}],"name":"claimedAmount","outputs":[{"internalType":"uint256","name":"","type":"uint256"}],"stateMutability":"view","type":"function"},{"inputs":[{"internalType":"address","name":"_intx","type":"address"},{"internalType":"address","name":"_xIntx","type":"address"},{"internalType":"uint256","name":"_startVesting","type":"uint256"},{"internalType":"uint256","name":"_vestingDuration","type":"uint256"},{"internalType":"uint256","name":"_noClaimDuration","type":"uint256"}],"name":"initialize","outputs":[],"stateMutability":"nonpayable","type":"function"},{"inputs":[],"name":"intx","outputs":[{"internalType":"contract IERC20","name":"","type":"address"}],"stateMutability":"view","type":"function"},{"inputs":[],"name":"owner","outputs":[{"internalType":"address","name":"","type":"address"}],"stateMutability":"view","type":"function"},{"inputs":[],"name":"pendingOwner","outputs":[{"internalType":"address","name":"","type":"address"}],"stateMutability":"view","type":"function"},{"inputs":[{"internalType":"address[]","name":"_receivers","type":"address[]"},{"internalType":"uint256[]","name":"_amounts","type":"uint256[]"}],"name":"removeAllocations","outputs":[],"stateMutability":"nonpayable","type":"function"},{"inputs":[],"name":"renounceOwnership","outputs":[],"stateMutability":"nonpayable","type":"function"},{"inputs":[{"internalType":"address[]","name":"_receivers","type":"address[]"},{"internalType":"uint256[]","name":"_amounts","type":"uint256[]"}],"name":"setAllocations","outputs":[],"stateMutability":"nonpayable","type":"function"},{"inputs":[{"internalType":"address","name":"newOwner","type":"address"}],"name":"transferOwnership","outputs":[],"stateMutability":"nonpayable","type":"function"},{"inputs":[],"name":"xIntx","outputs":[{"internalType":"contract IStakedINTX","name":"","type":"address"}],"stateMutability":"view","type":"function"}],"evm":{"bytecode":{"linkReferences":{},"object":"608060405234801561001057600080fd5b5061001961001e565b6100dd565b600054610100900460ff161561008a5760405162461bcd60e51b815260206004820152602760248201527f496e697469616c697a61626c653a20636f6e747261637420697320696e697469604482015266616c697a696e6760c81b606482015260840160405180910390fd5b60005460ff908116146100db576000805460ff191660ff9081179091556040519081527f7f26b83ff96e1f2b6a682f133852f6798a09c465da95921460cefb38474024989060200160405180910390a15b565b611a90806100ec6000396000f3fe608060405234801561001057600080fd5b506004361061016c5760003560e01c806389885049116100cd578063aaf5eb6811610081578063de6aa92b11610066578063de6aa92b146102b1578063e30c3978146102c4578063f2fde38b146102d557600080fd5b8063aaf5eb6814610294578063d13f90b41461029e57600080fd5b80639a78ea4a116100b25780639a78ea4a14610265578063a37c1c5a14610278578063aa264c9b1461028b57600080fd5b806389885049146102345780638da5cb5b1461025457600080fd5b80634cfc4d30116101245780635124245011610109578063512424501461021b578063715018a61461022457806379ba50971461022c57600080fd5b80634cfc4d301461020a5780634e71d92d1461021357600080fd5b806327a7af891161015557806327a7af89146101b957806346f7d6c9146101e45780634c69ec93146101f757600080fd5b806304e86903146101715780631ff64acd146101a4575b600080fd5b61019161017f36600461166b565b60cf6020526000908152604090205481565b6040519081526020015b60405180910390f35b6101b76101b23660046116d9565b6102e8565b005b60cd546101cc906001600160a01b031681565b6040516001600160a01b03909116815260200161019b565b60cc546101cc906001600160a01b031681565b6101b7610205366004611745565b61041d565b61019160ca5481565b6101b76106f7565b61019160cb5481565b6101b7610a5a565b6101b7610a62565b61019161024236600461166b565b60ce6020526000908152604090205481565b6065546001600160a01b03166101cc565b61019161027336600461166b565b610af0565b6101b76102863660046116d9565b610ba9565b61019160c95481565b610191620186a081565b6101b76102ac366004611778565b610ccb565b6101916102bf36600461166b565b610f0a565b6097546001600160a01b03166101cc565b6101b76102e336600461166b565b610f3f565b6102f0610fbd565b6000838281146102ff57600080fd5b60005b818110156103bb5784848281811061031c5761031c6117c5565b9050602002013560ce6000898985818110610339576103396117c5565b905060200201602081019061034e919061166b565b6001600160a01b03166001600160a01b03168152602001908152602001600020600082825461037d91906117f1565b909155508590508482818110610395576103956117c5565b90506020020135836103a791906117f1565b9250806103b38161180a565b915050610302565b506103d43360cc546001600160a01b0316903085611017565b7fce2f1e54279c24e5f841f2af4826cb958d82cbec9904631c271ea9f79c04975833878787878760405161040d969594939291906118d4565b60405180910390a1505050505050565b610425610fbd565b6001600160a01b038216600090815260ce602052604081205490036104b75760405162461bcd60e51b815260206004820152602860248201527f4f6c64206164647265737320646f65736e2774206861766520616e7920616c6c60448201527f6f636174696f6e2e00000000000000000000000000000000000000000000000060648201526084015b60405180910390fd5b6001600160a01b038216600090815260ce602090815260408083205460cf909252909120541061054f5760405162461bcd60e51b815260206004820152603260248201527f5468697320757365722068617320616c726561647920636c61696d656420616c60448201527f6c20796f757220616c6c6f636174696f6e2e000000000000000000000000000060648201526084016104ae565b6001600160a01b03811615610629576001600160a01b038116600090815260ce6020526040902054156105ea5760405162461bcd60e51b815260206004820152602d60248201527f546865206e6577206164647265737320616c726561647920686173206120766560448201527f7374696e6720616d6f756e742e0000000000000000000000000000000000000060648201526084016104ae565b6001600160a01b03808316600081815260ce60209081526040808320549486168084528184209590955592825260cf9052818120549281522055610672565b6001600160a01b038216600090815260cf602090815260408083205460ce909252822054610657919061191e565b90506106703360cc546001600160a01b031690836110ce565b505b6001600160a01b03828116600081815260ce6020818152604080842084905560cf80835281852085905595871680855292825280842054958252928390205483513381529182019590955280830194909452905190927fc59ec30f329309b218c044031b6a8c68941c091e893578a4b563ba18f588b4f2919081900360600190a35050565b6106ff61111c565b33600090815260ce602052604081205490036107835760405162461bcd60e51b815260206004820152602e60248201527f54686973206164647265737320646f65736e2774206861766520616e7920616d60448201527f6f756e7420746f20636c61696d2e00000000000000000000000000000000000060648201526084016104ae565b33600090815260ce602090815260408083205460cf90925290912054106108125760405162461bcd60e51b815260206004820152602c60248201527f596f75206861766520616c726561647920636c61696d656420616c6c20796f7560448201527f7220616c6c6f636174696f6e000000000000000000000000000000000000000060648201526084016104ae565b60cb5460c95461082291906117f1565b421115610a4f5733600090815260ce602052604081205460c954909190610849904261191e565b905060ca5481111561085a575060ca545b60ca5460009061086d620186a084611931565b6108779190611948565b33600090815260cf602052604081205491925090620186a06108998487611931565b6108a39190611948565b6108ad919061191e565b90508015610a4a5733600090815260cf6020526040812080548392906108d49084906117f1565b909155505060cc5460cd546040517f095ea7b30000000000000000000000000000000000000000000000000000000081526001600160a01b0391821660048201526024810184905291169063095ea7b3906044016020604051808303816000875af1158015610947573d6000803e3d6000fd5b505050506040513d601f19601f8201168201806040525081019061096b919061196a565b5060cd546000906001600160a01b0316632ee40908336040517fffffffff0000000000000000000000000000000000000000000000000000000060e084901b1681526001600160a01b039091166004820152602481018590526044016020604051808303816000875af11580156109e6573d6000803e3d6000fd5b505050506040513d601f19601f82011682018060405250810190610a0a919061198c565b604080518481526020810183905291925033917f987d620f307ff6b94d58743cb7a7509f24071586a77759b77c2d4e29f75a2f9a910160405180910390a2505b505050505b610a5860018055565b565b610a58610fbd565b60975433906001600160a01b03168114610ae45760405162461bcd60e51b815260206004820152602960248201527f4f776e61626c6532537465703a2063616c6c6572206973206e6f74207468652060448201527f6e6577206f776e6572000000000000000000000000000000000000000000000060648201526084016104ae565b610aed8161117b565b50565b600060cb5460c954610b0291906117f1565b421115610ba4576001600160a01b038216600090815260ce602052604081205460c954909190610b32904261191e565b905060ca54811115610b43575060ca545b60ca54600090610b56620186a084611931565b610b609190611948565b6001600160a01b038616600090815260cf6020526040902054909150620186a0610b8a8386611931565b610b949190611948565b610b9e919061191e565b93505050505b919050565b610bb1610fbd565b600083828114610bc057600080fd5b60005b81811015610c7c57848482818110610bdd57610bdd6117c5565b9050602002013560ce6000898985818110610bfa57610bfa6117c5565b9050602002016020810190610c0f919061166b565b6001600160a01b03166001600160a01b031681526020019081526020016000206000828254610c3e919061191e565b909155508590508482818110610c5657610c566117c5565b9050602002013583610c6891906117f1565b925080610c748161180a565b915050610bc3565b50610c943360cc546001600160a01b031690846110ce565b7f4f25cd81512105d97bd46364551eb94e032e6bc294d33ec5779144af3dadb766338787878760405161040d9594939291906119a5565b600054610100900460ff1615808015610ceb5750600054600160ff909116105b80610d055750303b158015610d05575060005460ff166001145b610d775760405162461bcd60e51b815260206004820152602e60248201527f496e697469616c697a61626c653a20636f6e747261637420697320616c72656160448201527f647920696e697469616c697a656400000000000000000000000000000000000060648201526084016104ae565b600080547fffffffffffffffffffffffffffffffffffffffffffffffffffffffffffffff001660011790558015610db8576000805461ff0019166101001790555b610dc06111a1565b610dc8611214565b6001600160a01b038616610e1e5760405162461bcd60e51b815260206004820152601460248201527f43616e277420757365203078206164647265737300000000000000000000000060448201526064016104ae565b6001600160a01b038516610e745760405162461bcd60e51b815260206004820152601460248201527f43616e277420757365203078206164647265737300000000000000000000000060448201526064016104ae565b60cc80546001600160a01b0380891673ffffffffffffffffffffffffffffffffffffffff199283161790925560cd80549288169290911691909117905560c984905560ca83905560cb8290558015610f02576000805461ff0019169055604051600181527f7f26b83ff96e1f2b6a682f133852f6798a09c465da95921460cefb38474024989060200161040d565b505050505050565b600060c954421115610ba4576001600160a01b038216600090815260ce602052604081205460c954909190610b32904261191e565b610f47610fbd565b609780546001600160a01b03831673ffffffffffffffffffffffffffffffffffffffff199091168117909155610f856065546001600160a01b031690565b6001600160a01b03167f38d16b8cac22d99fc7c124b9cd0de2d3fa1faef420bfe791d8c362d765e2270060405160405180910390a350565b6065546001600160a01b03163314610a585760405162461bcd60e51b815260206004820181905260248201527f4f776e61626c653a2063616c6c6572206973206e6f7420746865206f776e657260448201526064016104ae565b6040516001600160a01b03808516602483015283166044820152606481018290526110c89085907f23b872dd00000000000000000000000000000000000000000000000000000000906084015b60408051601f198184030181529190526020810180517bffffffffffffffffffffffffffffffffffffffffffffffffffffffff167fffffffff0000000000000000000000000000000000000000000000000000000090931692909217909152611287565b50505050565b6040516001600160a01b0383166024820152604481018290526111179084907fa9059cbb0000000000000000000000000000000000000000000000000000000090606401611064565b505050565b60026001540361116e5760405162461bcd60e51b815260206004820152601f60248201527f5265656e7472616e637947756172643a207265656e7472616e742063616c6c0060448201526064016104ae565b6002600155565b60018055565b6097805473ffffffffffffffffffffffffffffffffffffffff19169055610aed8161136f565b600054610100900460ff1661120c5760405162461bcd60e51b815260206004820152602b60248201527f496e697469616c697a61626c653a20636f6e7472616374206973206e6f74206960448201526a6e697469616c697a696e6760a81b60648201526084016104ae565b610a586113ce565b600054610100900460ff1661127f5760405162461bcd60e51b815260206004820152602b60248201527f496e697469616c697a61626c653a20636f6e7472616374206973206e6f74206960448201526a6e697469616c697a696e6760a81b60648201526084016104ae565b610a58611439565b60006112dc826040518060400160405280602081526020017f5361666545524332303a206c6f772d6c6576656c2063616c6c206661696c6564815250856001600160a01b03166114ad9092919063ffffffff16565b90508051600014806112fd5750808060200190518101906112fd919061196a565b6111175760405162461bcd60e51b815260206004820152602a60248201527f5361666545524332303a204552433230206f7065726174696f6e20646964206e60448201527f6f7420737563636565640000000000000000000000000000000000000000000060648201526084016104ae565b606580546001600160a01b0383811673ffffffffffffffffffffffffffffffffffffffff19831681179093556040519116919082907f8be0079c531659141344cd1fd0a4f28419497f9722a3daafe3b4186f6b6457e090600090a35050565b600054610100900460ff166111755760405162461bcd60e51b815260206004820152602b60248201527f496e697469616c697a61626c653a20636f6e7472616374206973206e6f74206960448201526a6e697469616c697a696e6760a81b60648201526084016104ae565b600054610100900460ff166114a45760405162461bcd60e51b815260206004820152602b60248201527f496e697469616c697a61626c653a20636f6e7472616374206973206e6f74206960448201526a6e697469616c697a696e6760a81b60648201526084016104ae565b610a583361117b565b60606114bc84846000856114c4565b949350505050565b60608247101561153c5760405162461bcd60e51b815260206004820152602660248201527f416464726573733a20696e73756666696369656e742062616c616e636520666f60448201527f722063616c6c000000000000000000000000000000000000000000000000000060648201526084016104ae565b600080866001600160a01b031685876040516115589190611a0b565b60006040518083038185875af1925050503d8060008114611595576040519150601f19603f3d011682016040523d82523d6000602084013e61159a565b606091505b50915091506115ab878383876115b6565b979650505050505050565b6060831561162557825160000361161e576001600160a01b0385163b61161e5760405162461bcd60e51b815260206004820152601d60248201527f416464726573733a2063616c6c20746f206e6f6e2d636f6e747261637400000060448201526064016104ae565b50816114bc565b6114bc838381511561163a5781518083602001fd5b8060405162461bcd60e51b81526004016104ae9190611a27565b80356001600160a01b0381168114610ba457600080fd5b60006020828403121561167d57600080fd5b61168682611654565b9392505050565b60008083601f84011261169f57600080fd5b50813567ffffffffffffffff8111156116b757600080fd5b6020830191508360208260051b85010111156116d257600080fd5b9250929050565b600080600080604085870312156116ef57600080fd5b843567ffffffffffffffff8082111561170757600080fd5b6117138883890161168d565b9096509450602087013591508082111561172c57600080fd5b506117398782880161168d565b95989497509550505050565b6000806040838503121561175857600080fd5b61176183611654565b915061176f60208401611654565b90509250929050565b600080600080600060a0868803121561179057600080fd5b61179986611654565b94506117a760208701611654565b94979496505050506040830135926060810135926080909101359150565b634e487b7160e01b600052603260045260246000fd5b634e487b7160e01b600052601160045260246000fd5b80820180821115611804576118046117db565b92915050565b60007fffffffffffffffffffffffffffffffffffffffffffffffffffffffffffffffff820361183b5761183b6117db565b5060010190565b8183526000602080850194508260005b8581101561187e576001600160a01b0361186b83611654565b1687529582019590820190600101611852565b509495945050505050565b81835260007f07ffffffffffffffffffffffffffffffffffffffffffffffffffffffffffffff8311156118bb57600080fd5b8260051b80836020870137939093016020019392505050565b6001600160a01b03871681526080602082015260006118f7608083018789611842565b828103604084015261190a818688611889565b915050826060830152979650505050505050565b81810381811115611804576118046117db565b8082028115828204841417611804576118046117db565b60008261196557634e487b7160e01b600052601260045260246000fd5b500490565b60006020828403121561197c57600080fd5b8151801515811461168657600080fd5b60006020828403121561199e57600080fd5b5051919050565b6001600160a01b03861681526060602082015260006119c8606083018688611842565b82810360408401526119db818587611889565b98975050505050505050565b60005b83811015611a025781810151838201526020016119ea565b50506000910152565b60008251611a1d8184602087016119e7565b9190910192915050565b6020815260008251806020840152611a468160408501602087016119e7565b601f01601f1916919091016040019291505056fea2646970667358221220a1edcf76acf2521dc1a450daca4d2f49f9f602b3f7fdbb56148d86a503ac170664736f6c63430008120033","opcodes":"PUSH1 0x80 PUSH1 0x40 MSTORE CALLVALUE DUP1 ISZERO PUSH2 0x10 JUMPI PUSH1 0x0 DUP1 REVERT JUMPDEST POP PUSH2 0x19 PUSH2 0x1E JUMP JUMPDEST PUSH2 0xDD JUMP JUMPDEST PUSH1 0x0 SLOAD PUSH2 0x100 SWAP1 DIV PUSH1 0xFF AND ISZERO PUSH2 0x8A JUMPI PUSH1 0x40 MLOAD PUSH3 0x461BCD PUSH1 0xE5 SHL DUP2 MSTORE PUSH1 0x20 PUSH1 0x4 DUP3 ADD MSTORE PUSH1 0x27 PUSH1 0x24 DUP3 ADD MSTORE PUSH32 0x496E697469616C697A61626C653A20636F6E747261637420697320696E697469 PUSH1 0x44 DUP3 ADD MSTORE PUSH7 0x616C697A696E67 PUSH1 0xC8 SHL PUSH1 0x64 DUP3 ADD MSTORE PUSH1 0x84 ADD PUSH1 0x40 MLOAD DUP1 SWAP2 SUB SWAP1 REVERT JUMPDEST PUSH1 0x0 SLOAD PUSH1 0xFF SWAP1 DUP2 AND EQ PUSH2 0xDB JUMPI PUSH1 0x0 DUP1 SLOAD PUSH1 0xFF NOT AND PUSH1 0xFF SWAP1 DUP2 OR SWAP1 SWAP2 SSTORE PUSH1 0x40 MLOAD SWAP1 DUP2 MSTORE PUSH32 0x7F26B83FF96E1F2B6A682F133852F6798A09C465DA95921460CEFB3847402498 SWAP1 PUSH1 0x20 ADD PUSH1 0x40 MLOAD DUP1 SWAP2 SUB SWAP1 LOG1 JUMPDEST JUMP JUMPDEST PUSH2 0x1A90 DUP1 PUSH2 0xEC PUSH1 0x0 CODECOPY PUSH1 0x0 RETURN INVALID PUSH1 0x80 PUSH1 0x40 MSTORE CALLVALUE DUP1 ISZERO PUSH2 0x10 JUMPI PUSH1 0x0 DUP1 REVERT JUMPDEST POP PUSH1 0x4 CALLDATASIZE LT PUSH2 0x16C JUMPI PUSH1 0x0 CALLDATALOAD PUSH1 0xE0 SHR DUP1 PUSH4 0x89885049 GT PUSH2 0xCD JUMPI DUP1 PUSH4 0xAAF5EB68 GT PUSH2 0x81 JUMPI DUP1 PUSH4 0xDE6AA92B GT PUSH2 0x66 JUMPI DUP1 PUSH4 0xDE6AA92B EQ PUSH2 0x2B1 JUMPI DUP1 PUSH4 0xE30C3978 EQ PUSH2 0x2C4 JUMPI DUP1 PUSH4 0xF2FDE38B EQ PUSH2 0x2D5 JUMPI PUSH1 0x0 DUP1 REVERT JUMPDEST DUP1 PUSH4 0xAAF5EB68 EQ PUSH2 0x294 JUMPI DUP1 PUSH4 0xD13F90B4 EQ PUSH2 0x29E JUMPI PUSH1 0x0 DUP1 REVERT JUMPDEST DUP1 PUSH4 0x9A78EA4A GT PUSH2 0xB2 JUMPI DUP1 PUSH4 0x9A78EA4A EQ PUSH2 0x265 JUMPI DUP1 PUSH4 0xA37C1C5A EQ PUSH2 0x278 JUMPI DUP1 PUSH4 0xAA264C9B EQ PUSH2 0x28B JUMPI PUSH1 0x0 DUP1 REVERT JUMPDEST DUP1 PUSH4 0x89885049 EQ PUSH2 0x234 JUMPI DUP1 PUSH4 0x8DA5CB5B EQ PUSH2 0x254 JUMPI PUSH1 0x0 DUP1 REVERT JUMPDEST DUP1 PUSH4 0x4CFC4D30 GT PUSH2 0x124 JUMPI DUP1 PUSH4 0x51242450 GT PUSH2 0x109 JUMPI DUP1 PUSH4 0x51242450 EQ PUSH2 0x21B JUMPI DUP1 PUSH4 0x715018A6 EQ PUSH2 0x224 JUMPI DUP1 PUSH4 0x79BA5097 EQ PUSH2 0x22C JUMPI PUSH1 0x0 DUP1 REVERT JUMPDEST DUP1 PUSH4 0x4CFC4D30 EQ PUSH2 0x20A JUMPI DUP1 PUSH4 0x4E71D92D EQ PUSH2 0x213 JUMPI PUSH1 0x0 DUP1 REVERT JUMPDEST DUP1 PUSH4 0x27A7AF89 GT PUSH2 0x155 JUMPI DUP1 PUSH4 0x27A7AF89 EQ PUSH2 0x1B9 JUMPI DUP1 PUSH4 0x46F7D6C9 EQ PUSH2 0x1E4 JUMPI DUP1 PUSH4 0x4C69EC93 EQ PUSH2 0x1F7 JUMPI PUSH1 0x0 DUP1 REVERT JUMPDEST DUP1 PUSH4 0x4E86903 EQ PUSH2 0x171 JUMPI DUP1 PUSH4 0x1FF64ACD EQ PUSH2 0x1A4 JUMPI JUMPDEST PUSH1 0x0 DUP1 REVERT JUMPDEST PUSH2 0x191 PUSH2 0x17F CALLDATASIZE PUSH1 0x4 PUSH2 0x166B JUMP JUMPDEST PUSH1 0xCF PUSH1 0x20 MSTORE PUSH1 0x0 SWAP1 DUP2 MSTORE PUSH1 0x40 SWAP1 KECCAK256 SLOAD DUP2 JUMP JUMPDEST PUSH1 0x40 MLOAD SWAP1 DUP2 MSTORE PUSH1 0x20 ADD JUMPDEST PUSH1 0x40 MLOAD DUP1 SWAP2 SUB SWAP1 RETURN JUMPDEST PUSH2 0x1B7 PUSH2 0x1B2 CALLDATASIZE PUSH1 0x4 PUSH2 0x16D9 JUMP JUMPDEST PUSH2 0x2E8 JUMP JUMPDEST STOP JUMPDEST PUSH1 0xCD SLOAD PUSH2 0x1CC SWAP1 PUSH1 0x1 PUSH1 0x1 PUSH1 0xA0 SHL SUB AND DUP2 JUMP JUMPDEST PUSH1 0x40 MLOAD PUSH1 0x1 PUSH1 0x1 PUSH1 0xA0 SHL SUB SWAP1 SWAP2 AND DUP2 MSTORE PUSH1 0x20 ADD PUSH2 0x19B JUMP JUMPDEST PUSH1 0xCC SLOAD PUSH2 0x1CC SWAP1 PUSH1 0x1 PUSH1 0x1 PUSH1 0xA0 SHL SUB AND DUP2 JUMP JUMPDEST PUSH2 0x1B7 PUSH2 0x205 CALLDATASIZE PUSH1 0x4 PUSH2 0x1745 JUMP JUMPDEST PUSH2 0x41D JUMP JUMPDEST PUSH2 0x191 PUSH1 0xCA SLOAD DUP2 JUMP JUMPDEST PUSH2 0x1B7 PUSH2 0x6F7 JUMP JUMPDEST PUSH2 0x191 PUSH1 0xCB SLOAD DUP2 JUMP JUMPDEST PUSH2 0x1B7 PUSH2 0xA5A JUMP JUMPDEST PUSH2 0x1B7 PUSH2 0xA62 JUMP JUMPDEST PUSH2 0x191 PUSH2 0x242 CALLDATASIZE PUSH1 0x4 PUSH2 0x166B JUMP JUMPDEST PUSH1 0xCE PUSH1 0x20 MSTORE PUSH1 0x0 SWAP1 DUP2 MSTORE PUSH1 0x40 SWAP1 KECCAK256 SLOAD DUP2 JUMP JUMPDEST PUSH1 0x65 SLOAD PUSH1 0x1 PUSH1 0x1 PUSH1 0xA0 SHL SUB AND PUSH2 0x1CC JUMP JUMPDEST PUSH2 0x191 PUSH2 0x273 CALLDATASIZE PUSH1 0x4 PUSH2 0x166B JUMP JUMPDEST PUSH2 0xAF0 JUMP JUMPDEST PUSH2 0x1B7 PUSH2 0x286 CALLDATASIZE PUSH1 0x4 PUSH2 0x16D9 JUMP JUMPDEST PUSH2 0xBA9 JUMP JUMPDEST PUSH2 0x191 PUSH1 0xC9 SLOAD DUP2 JUMP JUMPDEST PUSH2 0x191 PUSH3 0x186A0 DUP2 JUMP JUMPDEST PUSH2 0x1B7 PUSH2 0x2AC CALLDATASIZE PUSH1 0x4 PUSH2 0x1778 JUMP JUMPDEST PUSH2 0xCCB JUMP JUMPDEST PUSH2 0x191 PUSH2 0x2BF CALLDATASIZE PUSH1 0x4 PUSH2 0x166B JUMP JUMPDEST PUSH2 0xF0A JUMP JUMPDEST PUSH1 0x97 SLOAD PUSH1 0x1 PUSH1 0x1 PUSH1 0xA0 SHL SUB AND PUSH2 0x1CC JUMP JUMPDEST PUSH2 0x1B7 PUSH2 0x2E3 CALLDATASIZE PUSH1 0x4 PUSH2 0x166B JUMP JUMPDEST PUSH2 0xF3F JUMP JUMPDEST PUSH2 0x2F0 PUSH2 0xFBD JUMP JUMPDEST PUSH1 0x0 DUP4 DUP3 DUP2 EQ PUSH2 0x2FF JUMPI PUSH1 0x0 DUP1 REVERT JUMPDEST PUSH1 0x0 JUMPDEST DUP2 DUP2 LT ISZERO PUSH2 0x3BB JUMPI DUP5 DUP5 DUP3 DUP2 DUP2 LT PUSH2 0x31C JUMPI PUSH2 0x31C PUSH2 0x17C5 JUMP JUMPDEST SWAP1 POP PUSH1 0x20 MUL ADD CALLDATALOAD PUSH1 0xCE PUSH1 0x0 DUP10 DUP10 DUP6 DUP2 DUP2 LT PUSH2 0x339 JUMPI PUSH2 0x339 PUSH2 0x17C5 JUMP JUMPDEST SWAP1 POP PUSH1 0x20 MUL ADD PUSH1 0x20 DUP2 ADD SWAP1 PUSH2 0x34E SWAP2 SWAP1 PUSH2 0x166B JUMP JUMPDEST PUSH1 0x1 PUSH1 0x1 PUSH1 0xA0 SHL SUB AND PUSH1 0x1 PUSH1 0x1 PUSH1 0xA0 SHL SUB AND DUP2 MSTORE PUSH1 0x20 ADD SWAP1 DUP2 MSTORE PUSH1 0x20 ADD PUSH1 0x0 KECCAK256 PUSH1 0x0 DUP3 DUP3 SLOAD PUSH2 0x37D SWAP2 SWAP1 PUSH2 0x17F1 JUMP JUMPDEST SWAP1 SWAP2 SSTORE POP DUP6 SWAP1 POP DUP5 DUP3 DUP2 DUP2 LT PUSH2 0x395 JUMPI PUSH2 0x395 PUSH2 0x17C5 JUMP JUMPDEST SWAP1 POP PUSH1 0x20 MUL ADD CALLDATALOAD DUP4 PUSH2 0x3A7 SWAP2 SWAP1 PUSH2 0x17F1 JUMP JUMPDEST SWAP3 POP DUP1 PUSH2 0x3B3 DUP2 PUSH2 0x180A JUMP JUMPDEST SWAP2 POP POP PUSH2 0x302 JUMP JUMPDEST POP PUSH2 0x3D4 CALLER PUSH1 0xCC SLOAD PUSH1 0x1 PUSH1 0x1 PUSH1 0xA0 SHL SUB AND SWAP1 ADDRESS DUP6 PUSH2 0x1017 JUMP JUMPDEST PUSH32 0xCE2F1E54279C24E5F841F2AF4826CB958D82CBEC9904631C271EA9F79C049758 CALLER DUP8 DUP8 DUP8 DUP8 DUP8 PUSH1 0x40 MLOAD PUSH2 0x40D SWAP7 SWAP6 SWAP5 SWAP4 SWAP3 SWAP2 SWAP1 PUSH2 0x18D4 JUMP JUMPDEST PUSH1 0x40 MLOAD DUP1 SWAP2 SUB SWAP1 LOG1 POP POP POP POP POP POP JUMP JUMPDEST PUSH2 0x425 PUSH2 0xFBD JUMP JUMPDEST PUSH1 0x1 PUSH1 0x1 PUSH1 0xA0 SHL SUB DUP3 AND PUSH1 0x0 SWAP1 DUP2 MSTORE PUSH1 0xCE PUSH1 0x20 MSTORE PUSH1 0x40 DUP2 KECCAK256 SLOAD SWAP1 SUB PUSH2 0x4B7 JUMPI PUSH1 0x40 MLOAD PUSH3 0x461BCD PUSH1 0xE5 SHL DUP2 MSTORE PUSH1 0x20 PUSH1 0x4 DUP3 ADD MSTORE PUSH1 0x28 PUSH1 0x24 DUP3 ADD MSTORE PUSH32 0x4F6C64206164647265737320646F65736E2774206861766520616E7920616C6C PUSH1 0x44 DUP3 ADD MSTORE PUSH32 0x6F636174696F6E2E000000000000000000000000000000000000000000000000 PUSH1 0x64 DUP3 ADD MSTORE PUSH1 0x84 ADD JUMPDEST PUSH1 0x40 MLOAD DUP1 SWAP2 SUB SWAP1 REVERT JUMPDEST PUSH1 0x1 PUSH1 0x1 PUSH1 0xA0 SHL SUB DUP3 AND PUSH1 0x0 SWAP1 DUP2 MSTORE PUSH1 0xCE PUSH1 0x20 SWAP1 DUP2 MSTORE PUSH1 0x40 DUP1 DUP4 KECCAK256 SLOAD PUSH1 0xCF SWAP1 SWAP3 MSTORE SWAP1 SWAP2 KECCAK256 SLOAD LT PUSH2 0x54F JUMPI PUSH1 0x40 MLOAD PUSH3 0x461BCD PUSH1 0xE5 SHL DUP2 MSTORE PUSH1 0x20 PUSH1 0x4 DUP3 ADD MSTORE PUSH1 0x32 PUSH1 0x24 DUP3 ADD MSTORE PUSH32 0x5468697320757365722068617320616C726561647920636C61696D656420616C PUSH1 0x44 DUP3 ADD MSTORE PUSH32 0x6C20796F757220616C6C6F636174696F6E2E0000000000000000000000000000 PUSH1 0x64 DUP3 ADD MSTORE PUSH1 0x84 ADD PUSH2 0x4AE JUMP JUMPDEST PUSH1 0x1 PUSH1 0x1 PUSH1 0xA0 SHL SUB DUP2 AND ISZERO PUSH2 0x629 JUMPI PUSH1 0x1 PUSH1 0x1 PUSH1 0xA0 SHL SUB DUP2 AND PUSH1 0x0 SWAP1 DUP2 MSTORE PUSH1 0xCE PUSH1 0x20 MSTORE PUSH1 0x40 SWAP1 KECCAK256 SLOAD ISZERO PUSH2 0x5EA JUMPI PUSH1 0x40 MLOAD PUSH3 0x461BCD PUSH1 0xE5 SHL DUP2 MSTORE PUSH1 0x20 PUSH1 0x4 DUP3 ADD MSTORE PUSH1 0x2D PUSH1 0x24 DUP3 ADD MSTORE PUSH32 0x546865206E6577206164647265737320616C7265616479206861732061207665 PUSH1 0x44 DUP3 ADD MSTORE PUSH32 0x7374696E6720616D6F756E742E00000000000000000000000000000000000000 PUSH1 0x64 DUP3 ADD MSTORE PUSH1 0x84 ADD PUSH2 0x4AE JUMP JUMPDEST PUSH1 0x1 PUSH1 0x1 PUSH1 0xA0 SHL SUB DUP1 DUP4 AND PUSH1 0x0 DUP2 DUP2 MSTORE PUSH1 0xCE PUSH1 0x20 SWAP1 DUP2 MSTORE PUSH1 0x40 DUP1 DUP4 KECCAK256 SLOAD SWAP5 DUP7 AND DUP1 DUP5 MSTORE DUP2 DUP5 KECCAK256 SWAP6 SWAP1 SWAP6 SSTORE SWAP3 DUP3 MSTORE PUSH1 0xCF SWAP1 MSTORE DUP2 DUP2 KECCAK256 SLOAD SWAP3 DUP2 MSTORE KECCAK256 SSTORE PUSH2 0x672 JUMP JUMPDEST PUSH1 0x1 PUSH1 0x1 PUSH1 0xA0 SHL SUB DUP3 AND PUSH1 0x0 SWAP1 DUP2 MSTORE PUSH1 0xCF PUSH1 0x20 SWAP1 DUP2 MSTORE PUSH1 0x40 DUP1 DUP4 KECCAK256 SLOAD PUSH1 0xCE SWAP1 SWAP3 MSTORE DUP3 KECCAK256 SLOAD PUSH2 0x657 SWAP2 SWAP1 PUSH2 0x191E JUMP JUMPDEST SWAP1 POP PUSH2 0x670 CALLER PUSH1 0xCC SLOAD PUSH1 0x1 PUSH1 0x1 PUSH1 0xA0 SHL SUB AND SWAP1 DUP4 PUSH2 0x10CE JUMP JUMPDEST POP JUMPDEST PUSH1 0x1 PUSH1 0x1 PUSH1 0xA0 SHL SUB DUP3 DUP2 AND PUSH1 0x0 DUP2 DUP2 MSTORE PUSH1 0xCE PUSH1 0x20 DUP2 DUP2 MSTORE PUSH1 0x40 DUP1 DUP5 KECCAK256 DUP5 SWAP1 SSTORE PUSH1 0xCF DUP1 DUP4 MSTORE DUP2 DUP6 KECCAK256 DUP6 SWAP1 SSTORE SWAP6 DUP8 AND DUP1 DUP6 MSTORE SWAP3 DUP3 MSTORE DUP1 DUP5 KECCAK256 SLOAD SWAP6 DUP3 MSTORE SWAP3 DUP4 SWAP1 KECCAK256 SLOAD DUP4 MLOAD CALLER DUP2 MSTORE SWAP2 DUP3 ADD SWAP6 SWAP1 SWAP6 MSTORE DUP1 DUP4 ADD SWAP5 SWAP1 SWAP5 MSTORE SWAP1 MLOAD SWAP1 SWAP3 PUSH32 0xC59EC30F329309B218C044031B6A8C68941C091E893578A4B563BA18F588B4F2 SWAP2 SWAP1 DUP2 SWAP1 SUB PUSH1 0x60 ADD SWAP1 LOG3 POP POP JUMP JUMPDEST PUSH2 0x6FF PUSH2 0x111C JUMP JUMPDEST CALLER PUSH1 0x0 SWAP1 DUP2 MSTORE PUSH1 0xCE PUSH1 0x20 MSTORE PUSH1 0x40 DUP2 KECCAK256 SLOAD SWAP1 SUB PUSH2 0x783 JUMPI PUSH1 0x40 MLOAD PUSH3 0x461BCD PUSH1 0xE5 SHL DUP2 MSTORE PUSH1 0x20 PUSH1 0x4 DUP3 ADD MSTORE PUSH1 0x2E PUSH1 0x24 DUP3 ADD MSTORE PUSH32 0x54686973206164647265737320646F65736E2774206861766520616E7920616D PUSH1 0x44 DUP3 ADD MSTORE PUSH32 0x6F756E7420746F20636C61696D2E000000000000000000000000000000000000 PUSH1 0x64 DUP3 ADD MSTORE PUSH1 0x84 ADD PUSH2 0x4AE JUMP JUMPDEST CALLER PUSH1 0x0 SWAP1 DUP2 MSTORE PUSH1 0xCE PUSH1 0x20 SWAP1 DUP2 MSTORE PUSH1 0x40 DUP1 DUP4 KECCAK256 SLOAD PUSH1 0xCF SWAP1 SWAP3 MSTORE SWAP1 SWAP2 KECCAK256 SLOAD LT PUSH2 0x812 JUMPI PUSH1 0x40 MLOAD PUSH3 0x461BCD PUSH1 0xE5 SHL DUP2 MSTORE PUSH1 0x20 PUSH1 0x4 DUP3 ADD MSTORE PUSH1 0x2C PUSH1 0x24 DUP3 ADD MSTORE PUSH32 0x596F75206861766520616C726561647920636C61696D656420616C6C20796F75 PUSH1 0x44 DUP3 ADD MSTORE PUSH32 0x7220616C6C6F636174696F6E0000000000000000000000000000000000000000 PUSH1 0x64 DUP3 ADD MSTORE PUSH1 0x84 ADD PUSH2 0x4AE JUMP JUMPDEST PUSH1 0xCB SLOAD PUSH1 0xC9 SLOAD PUSH2 0x822 SWAP2 SWAP1 PUSH2 0x17F1 JUMP JUMPDEST TIMESTAMP GT ISZERO PUSH2 0xA4F JUMPI CALLER PUSH1 0x0 SWAP1 DUP2 MSTORE PUSH1 0xCE PUSH1 0x20 MSTORE PUSH1 0x40 DUP2 KECCAK256 SLOAD PUSH1 0xC9 SLOAD SWAP1 SWAP2 SWAP1 PUSH2 0x849 SWAP1 TIMESTAMP PUSH2 0x191E JUMP JUMPDEST SWAP1 POP PUSH1 0xCA SLOAD DUP2 GT ISZERO PUSH2 0x85A JUMPI POP PUSH1 0xCA SLOAD JUMPDEST PUSH1 0xCA SLOAD PUSH1 0x0 SWAP1 PUSH2 0x86D PUSH3 0x186A0 DUP5 PUSH2 0x1931 JUMP JUMPDEST PUSH2 0x877 SWAP2 SWAP1 PUSH2 0x1948 JUMP JUMPDEST CALLER PUSH1 0x0 SWAP1 DUP2 MSTORE PUSH1 0xCF PUSH1 0x20 MSTORE PUSH1 0x40 DUP2 KECCAK256 SLOAD SWAP2 SWAP3 POP SWAP1 PUSH3 0x186A0 PUSH2 0x899 DUP5 DUP8 PUSH2 0x1931 JUMP JUMPDEST PUSH2 0x8A3 SWAP2 SWAP1 PUSH2 0x1948 JUMP JUMPDEST PUSH2 0x8AD SWAP2 SWAP1 PUSH2 0x191E JUMP JUMPDEST SWAP1 POP DUP1 ISZERO PUSH2 0xA4A JUMPI CALLER PUSH1 0x0 SWAP1 DUP2 MSTORE PUSH1 0xCF PUSH1 0x20 MSTORE PUSH1 0x40 DUP2 KECCAK256 DUP1 SLOAD DUP4 SWAP3 SWAP1 PUSH2 0x8D4 SWAP1 DUP5 SWAP1 PUSH2 0x17F1 JUMP JUMPDEST SWAP1 SWAP2 SSTORE POP POP PUSH1 0xCC SLOAD PUSH1 0xCD SLOAD PUSH1 0x40 MLOAD PUSH32 0x95EA7B300000000000000000000000000000000000000000000000000000000 DUP2 MSTORE PUSH1 0x1 PUSH1 0x1 PUSH1 0xA0 SHL SUB SWAP2 DUP3 AND PUSH1 0x4 DUP3 ADD MSTORE PUSH1 0x24 DUP2 ADD DUP5 SWAP1 MSTORE SWAP2 AND SWAP1 PUSH4 0x95EA7B3 SWAP1 PUSH1 0x44 ADD PUSH1 0x20 PUSH1 0x40 MLOAD DUP1 DUP4 SUB DUP2 PUSH1 0x0 DUP8 GAS CALL ISZERO DUP1 ISZERO PUSH2 0x947 JUMPI RETURNDATASIZE PUSH1 0x0 DUP1 RETURNDATACOPY RETURNDATASIZE PUSH1 0x0 REVERT JUMPDEST POP POP POP POP PUSH1 0x40 MLOAD RETURNDATASIZE PUSH1 0x1F NOT PUSH1 0x1F DUP3 ADD AND DUP3 ADD DUP1 PUSH1 0x40 MSTORE POP DUP2 ADD SWAP1 PUSH2 0x96B SWAP2 SWAP1 PUSH2 0x196A JUMP JUMPDEST POP PUSH1 0xCD SLOAD PUSH1 0x0 SWAP1 PUSH1 0x1 PUSH1 0x1 PUSH1 0xA0 SHL SUB AND PUSH4 0x2EE40908 CALLER PUSH1 0x40 MLOAD PUSH32 0xFFFFFFFF00000000000000000000000000000000000000000000000000000000 PUSH1 0xE0 DUP5 SWAP1 SHL AND DUP2 MSTORE PUSH1 0x1 PUSH1 0x1 PUSH1 0xA0 SHL SUB SWAP1 SWAP2 AND PUSH1 0x4 DUP3 ADD MSTORE PUSH1 0x24 DUP2 ADD DUP6 SWAP1 MSTORE PUSH1 0x44 ADD PUSH1 0x20 PUSH1 0x40 MLOAD DUP1 DUP4 SUB DUP2 PUSH1 0x0 DUP8 GAS CALL ISZERO DUP1 ISZERO PUSH2 0x9E6 JUMPI RETURNDATASIZE PUSH1 0x0 DUP1 RETURNDATACOPY RETURNDATASIZE PUSH1 0x0 REVERT JUMPDEST POP POP POP POP PUSH1 0x40 MLOAD RETURNDATASIZE PUSH1 0x1F NOT PUSH1 0x1F DUP3 ADD AND DUP3 ADD DUP1 PUSH1 0x40 MSTORE POP DUP2 ADD SWAP1 PUSH2 0xA0A SWAP2 SWAP1 PUSH2 0x198C JUMP JUMPDEST PUSH1 0x40 DUP1 MLOAD DUP5 DUP2 MSTORE PUSH1 0x20 DUP2 ADD DUP4 SWAP1 MSTORE SWAP2 SWAP3 POP CALLER SWAP2 PUSH32 0x987D620F307FF6B94D58743CB7A7509F24071586A77759B77C2D4E29F75A2F9A SWAP2 ADD PUSH1 0x40 MLOAD DUP1 SWAP2 SUB SWAP1 LOG2 POP JUMPDEST POP POP POP POP JUMPDEST PUSH2 0xA58 PUSH1 0x1 DUP1 SSTORE JUMP JUMPDEST JUMP JUMPDEST PUSH2 0xA58 PUSH2 0xFBD JUMP JUMPDEST PUSH1 0x97 SLOAD CALLER SWAP1 PUSH1 0x1 PUSH1 0x1 PUSH1 0xA0 SHL SUB AND DUP2 EQ PUSH2 0xAE4 JUMPI PUSH1 0x40 MLOAD PUSH3 0x461BCD PUSH1 0xE5 SHL DUP2 MSTORE PUSH1 0x20 PUSH1 0x4 DUP3 ADD MSTORE PUSH1 0x29 PUSH1 0x24 DUP3 ADD MSTORE PUSH32 0x4F776E61626C6532537465703A2063616C6C6572206973206E6F742074686520 PUSH1 0x44 DUP3 ADD MSTORE PUSH32 0x6E6577206F776E65720000000000000000000000000000000000000000000000 PUSH1 0x64 DUP3 ADD MSTORE PUSH1 0x84 ADD PUSH2 0x4AE JUMP JUMPDEST PUSH2 0xAED DUP2 PUSH2 0x117B JUMP JUMPDEST POP JUMP JUMPDEST PUSH1 0x0 PUSH1 0xCB SLOAD PUSH1 0xC9 SLOAD PUSH2 0xB02 SWAP2 SWAP1 PUSH2 0x17F1 JUMP JUMPDEST TIMESTAMP GT ISZERO PUSH2 0xBA4 JUMPI PUSH1 0x1 PUSH1 0x1 PUSH1 0xA0 SHL SUB DUP3 AND PUSH1 0x0 SWAP1 DUP2 MSTORE PUSH1 0xCE PUSH1 0x20 MSTORE PUSH1 0x40 DUP2 KECCAK256 SLOAD PUSH1 0xC9 SLOAD SWAP1 SWAP2 SWAP1 PUSH2 0xB32 SWAP1 TIMESTAMP PUSH2 0x191E JUMP JUMPDEST SWAP1 POP PUSH1 0xCA SLOAD DUP2 GT ISZERO PUSH2 0xB43 JUMPI POP PUSH1 0xCA SLOAD JUMPDEST PUSH1 0xCA SLOAD PUSH1 0x0 SWAP1 PUSH2 0xB56 PUSH3 0x186A0 DUP5 PUSH2 0x1931 JUMP JUMPDEST PUSH2 0xB60 SWAP2 SWAP1 PUSH2 0x1948 JUMP JUMPDEST PUSH1 0x1 PUSH1 0x1 PUSH1 0xA0 SHL SUB DUP7 AND PUSH1 0x0 SWAP1 DUP2 MSTORE PUSH1 0xCF PUSH1 0x20 MSTORE PUSH1 0x40 SWAP1 KECCAK256 SLOAD SWAP1 SWAP2 POP PUSH3 0x186A0 PUSH2 0xB8A DUP4 DUP7 PUSH2 0x1931 JUMP JUMPDEST PUSH2 0xB94 SWAP2 SWAP1 PUSH2 0x1948 JUMP JUMPDEST PUSH2 0xB9E SWAP2 SWAP1 PUSH2 0x191E JUMP JUMPDEST SWAP4 POP POP POP POP JUMPDEST SWAP2 SWAP1 POP JUMP JUMPDEST PUSH2 0xBB1 PUSH2 0xFBD JUMP JUMPDEST PUSH1 0x0 DUP4 DUP3 DUP2 EQ PUSH2 0xBC0 JUMPI PUSH1 0x0 DUP1 REVERT JUMPDEST PUSH1 0x0 JUMPDEST DUP2 DUP2 LT ISZERO PUSH2 0xC7C JUMPI DUP5 DUP5 DUP3 DUP2 DUP2 LT PUSH2 0xBDD JUMPI PUSH2 0xBDD PUSH2 0x17C5 JUMP JUMPDEST SWAP1 POP PUSH1 0x20 MUL ADD CALLDATALOAD PUSH1 0xCE PUSH1 0x0 DUP10 DUP10 DUP6 DUP2 DUP2 LT PUSH2 0xBFA JUMPI PUSH2 0xBFA PUSH2 0x17C5 JUMP JUMPDEST SWAP1 POP PUSH1 0x20 MUL ADD PUSH1 0x20 DUP2 ADD SWAP1 PUSH2 0xC0F SWAP2 SWAP1 PUSH2 0x166B JUMP JUMPDEST PUSH1 0x1 PUSH1 0x1 PUSH1 0xA0 SHL SUB AND PUSH1 0x1 PUSH1 0x1 PUSH1 0xA0 SHL SUB AND DUP2 MSTORE PUSH1 0x20 ADD SWAP1 DUP2 MSTORE PUSH1 0x20 ADD PUSH1 0x0 KECCAK256 PUSH1 0x0 DUP3 DUP3 SLOAD PUSH2 0xC3E SWAP2 SWAP1 PUSH2 0x191E JUMP JUMPDEST SWAP1 SWAP2 SSTORE POP DUP6 SWAP1 POP DUP5 DUP3 DUP2 DUP2 LT PUSH2 0xC56 JUMPI PUSH2 0xC56 PUSH2 0x17C5 JUMP JUMPDEST SWAP1 POP PUSH1 0x20 MUL ADD CALLDATALOAD DUP4 PUSH2 0xC68 SWAP2 SWAP1 PUSH2 0x17F1 JUMP JUMPDEST SWAP3 POP DUP1 PUSH2 0xC74 DUP2 PUSH2 0x180A JUMP JUMPDEST SWAP2 POP POP PUSH2 0xBC3 JUMP JUMPDEST POP PUSH2 0xC94 CALLER PUSH1 0xCC SLOAD PUSH1 0x1 PUSH1 0x1 PUSH1 0xA0 SHL SUB AND SWAP1 DUP5 PUSH2 0x10CE JUMP JUMPDEST PUSH32 0x4F25CD81512105D97BD46364551EB94E032E6BC294D33EC5779144AF3DADB766 CALLER DUP8 DUP8 DUP8 DUP8 PUSH1 0x40 MLOAD PUSH2 0x40D SWAP6 SWAP5 SWAP4 SWAP3 SWAP2 SWAP1 PUSH2 0x19A5 JUMP JUMPDEST PUSH1 0x0 SLOAD PUSH2 0x100 SWAP1 DIV PUSH1 0xFF AND ISZERO DUP1 DUP1 ISZERO PUSH2 0xCEB JUMPI POP PUSH1 0x0 SLOAD PUSH1 0x1 PUSH1 0xFF SWAP1 SWAP2 AND LT JUMPDEST DUP1 PUSH2 0xD05 JUMPI POP ADDRESS EXTCODESIZE ISZERO DUP1 ISZERO PUSH2 0xD05 JUMPI POP PUSH1 0x0 SLOAD PUSH1 0xFF AND PUSH1 0x1 EQ JUMPDEST PUSH2 0xD77 JUMPI PUSH1 0x40 MLOAD PUSH3 0x461BCD PUSH1 0xE5 SHL DUP2 MSTORE PUSH1 0x20 PUSH1 0x4 DUP3 ADD MSTORE PUSH1 0x2E PUSH1 0x24 DUP3 ADD MSTORE PUSH32 0x496E697469616C697A61626C653A20636F6E747261637420697320616C726561 PUSH1 0x44 DUP3 ADD MSTORE PUSH32 0x647920696E697469616C697A6564000000000000000000000000000000000000 PUSH1 0x64 DUP3 ADD MSTORE PUSH1 0x84 ADD PUSH2 0x4AE JUMP JUMPDEST PUSH1 0x0 DUP1 SLOAD PUSH32 0xFFFFFFFFFFFFFFFFFFFFFFFFFFFFFFFFFFFFFFFFFFFFFFFFFFFFFFFFFFFFFF00 AND PUSH1 0x1 OR SWAP1 SSTORE DUP1 ISZERO PUSH2 0xDB8 JUMPI PUSH1 0x0 DUP1 SLOAD PUSH2 0xFF00 NOT AND PUSH2 0x100 OR SWAP1 SSTORE JUMPDEST PUSH2 0xDC0 PUSH2 0x11A1 JUMP JUMPDEST PUSH2 0xDC8 PUSH2 0x1214 JUMP JUMPDEST PUSH1 0x1 PUSH1 0x1 PUSH1 0xA0 SHL SUB DUP7 AND PUSH2 0xE1E JUMPI PUSH1 0x40 MLOAD PUSH3 0x461BCD PUSH1 0xE5 SHL DUP2 MSTORE PUSH1 0x20 PUSH1 0x4 DUP3 ADD MSTORE PUSH1 0x14 PUSH1 0x24 DUP3 ADD MSTORE PUSH32 0x43616E2774207573652030782061646472657373000000000000000000000000 PUSH1 0x44 DUP3 ADD MSTORE PUSH1 0x64 ADD PUSH2 0x4AE JUMP JUMPDEST PUSH1 0x1 PUSH1 0x1 PUSH1 0xA0 SHL SUB DUP6 AND PUSH2 0xE74 JUMPI PUSH1 0x40 MLOAD PUSH3 0x461BCD PUSH1 0xE5 SHL DUP2 MSTORE PUSH1 0x20 PUSH1 0x4 DUP3 ADD MSTORE PUSH1 0x14 PUSH1 0x24 DUP3 ADD MSTORE PUSH32 0x43616E2774207573652030782061646472657373000000000000000000000000 PUSH1 0x44 DUP3 ADD MSTORE PUSH1 0x64 ADD PUSH2 0x4AE JUMP JUMPDEST PUSH1 0xCC DUP1 SLOAD PUSH1 0x1 PUSH1 0x1 PUSH1 0xA0 SHL SUB DUP1 DUP10 AND PUSH20 0xFFFFFFFFFFFFFFFFFFFFFFFFFFFFFFFFFFFFFFFF NOT SWAP3 DUP4 AND OR SWAP1 SWAP3 SSTORE PUSH1 0xCD DUP1 SLOAD SWAP3 DUP9 AND SWAP3 SWAP1 SWAP2 AND SWAP2 SWAP1 SWAP2 OR SWAP1 SSTORE PUSH1 0xC9 DUP5 SWAP1 SSTORE PUSH1 0xCA DUP4 SWAP1 SSTORE PUSH1 0xCB DUP3 SWAP1 SSTORE DUP1 ISZERO PUSH2 0xF02 JUMPI PUSH1 0x0 DUP1 SLOAD PUSH2 0xFF00 NOT AND SWAP1 SSTORE PUSH1 0x40 MLOAD PUSH1 0x1 DUP2 MSTORE PUSH32 0x7F26B83FF96E1F2B6A682F133852F6798A09C465DA95921460CEFB3847402498 SWAP1 PUSH1 0x20 ADD PUSH2 0x40D JUMP JUMPDEST POP POP POP POP POP POP JUMP JUMPDEST PUSH1 0x0 PUSH1 0xC9 SLOAD TIMESTAMP GT ISZERO PUSH2 0xBA4 JUMPI PUSH1 0x1 PUSH1 0x1 PUSH1 0xA0 SHL SUB DUP3 AND PUSH1 0x0 SWAP1 DUP2 MSTORE PUSH1 0xCE PUSH1 0x20 MSTORE PUSH1 0x40 DUP2 KECCAK256 SLOAD PUSH1 0xC9 SLOAD SWAP1 SWAP2 SWAP1 PUSH2 0xB32 SWAP1 TIMESTAMP PUSH2 0x191E JUMP JUMPDEST PUSH2 0xF47 PUSH2 0xFBD JUMP JUMPDEST PUSH1 0x97 DUP1 SLOAD PUSH1 0x1 PUSH1 0x1 PUSH1 0xA0 SHL SUB DUP4 AND PUSH20 0xFFFFFFFFFFFFFFFFFFFFFFFFFFFFFFFFFFFFFFFF NOT SWAP1 SWAP2 AND DUP2 OR SWAP1 SWAP2 SSTORE PUSH2 0xF85 PUSH1 0x65 SLOAD PUSH1 0x1 PUSH1 0x1 PUSH1 0xA0 SHL SUB AND SWAP1 JUMP JUMPDEST PUSH1 0x1 PUSH1 0x1 PUSH1 0xA0 SHL SUB AND PUSH32 0x38D16B8CAC22D99FC7C124B9CD0DE2D3FA1FAEF420BFE791D8C362D765E22700 PUSH1 0x40 MLOAD PUSH1 0x40 MLOAD DUP1 SWAP2 SUB SWAP1 LOG3 POP JUMP JUMPDEST PUSH1 0x65 SLOAD PUSH1 0x1 PUSH1 0x1 PUSH1 0xA0 SHL SUB AND CALLER EQ PUSH2 0xA58 JUMPI PUSH1 0x40 MLOAD PUSH3 0x461BCD PUSH1 0xE5 SHL DUP2 MSTORE PUSH1 0x20 PUSH1 0x4 DUP3 ADD DUP2 SWAP1 MSTORE PUSH1 0x24 DUP3 ADD MSTORE PUSH32 0x4F776E61626C653A2063616C6C6572206973206E6F7420746865206F776E6572 PUSH1 0x44 DUP3 ADD MSTORE PUSH1 0x64 ADD PUSH2 0x4AE JUMP JUMPDEST PUSH1 0x40 MLOAD PUSH1 0x1 PUSH1 0x1 PUSH1 0xA0 SHL SUB DUP1 DUP6 AND PUSH1 0x24 DUP4 ADD MSTORE DUP4 AND PUSH1 0x44 DUP3 ADD MSTORE PUSH1 0x64 DUP2 ADD DUP3 SWAP1 MSTORE PUSH2 0x10C8 SWAP1 DUP6 SWAP1 PUSH32 0x23B872DD00000000000000000000000000000000000000000000000000000000 SWAP1 PUSH1 0x84 ADD JUMPDEST PUSH1 0x40 DUP1 MLOAD PUSH1 0x1F NOT DUP2 DUP5 SUB ADD DUP2 MSTORE SWAP2 SWAP1 MSTORE PUSH1 0x20 DUP2 ADD DUP1 MLOAD PUSH28 0xFFFFFFFFFFFFFFFFFFFFFFFFFFFFFFFFFFFFFFFFFFFFFFFFFFFFFFFF AND PUSH32 0xFFFFFFFF00000000000000000000000000000000000000000000000000000000 SWAP1 SWAP4 AND SWAP3 SWAP1 SWAP3 OR SWAP1 SWAP2 MSTORE PUSH2 0x1287 JUMP JUMPDEST POP POP POP POP JUMP JUMPDEST PUSH1 0x40 MLOAD PUSH1 0x1 PUSH1 0x1 PUSH1 0xA0 SHL SUB DUP4 AND PUSH1 0x24 DUP3 ADD MSTORE PUSH1 0x44 DUP2 ADD DUP3 SWAP1 MSTORE PUSH2 0x1117 SWAP1 DUP5 SWAP1 PUSH32 0xA9059CBB00000000000000000000000000000000000000000000000000000000 SWAP1 PUSH1 0x64 ADD PUSH2 0x1064 JUMP JUMPDEST POP POP POP JUMP JUMPDEST PUSH1 0x2 PUSH1 0x1 SLOAD SUB PUSH2 0x116E JUMPI PUSH1 0x40 MLOAD PUSH3 0x461BCD PUSH1 0xE5 SHL DUP2 MSTORE PUSH1 0x20 PUSH1 0x4 DUP3 ADD MSTORE PUSH1 0x1F PUSH1 0x24 DUP3 ADD MSTORE PUSH32 0x5265656E7472616E637947756172643A207265656E7472616E742063616C6C00 PUSH1 0x44 DUP3 ADD MSTORE PUSH1 0x64 ADD PUSH2 0x4AE JUMP JUMPDEST PUSH1 0x2 PUSH1 0x1 SSTORE JUMP JUMPDEST PUSH1 0x1 DUP1 SSTORE JUMP JUMPDEST PUSH1 0x97 DUP1 SLOAD PUSH20 0xFFFFFFFFFFFFFFFFFFFFFFFFFFFFFFFFFFFFFFFF NOT AND SWAP1 SSTORE PUSH2 0xAED DUP2 PUSH2 0x136F JUMP JUMPDEST PUSH1 0x0 SLOAD PUSH2 0x100 SWAP1 DIV PUSH1 0xFF AND PUSH2 0x120C JUMPI PUSH1 0x40 MLOAD PUSH3 0x461BCD PUSH1 0xE5 SHL DUP2 MSTORE PUSH1 0x20 PUSH1 0x4 DUP3 ADD MSTORE PUSH1 0x2B PUSH1 0x24 DUP3 ADD MSTORE PUSH32 0x496E697469616C697A61626C653A20636F6E7472616374206973206E6F742069 PUSH1 0x44 DUP3 ADD MSTORE PUSH11 0x6E697469616C697A696E67 PUSH1 0xA8 SHL PUSH1 0x64 DUP3 ADD MSTORE PUSH1 0x84 ADD PUSH2 0x4AE JUMP JUMPDEST PUSH2 0xA58 PUSH2 0x13CE JUMP JUMPDEST PUSH1 0x0 SLOAD PUSH2 0x100 SWAP1 DIV PUSH1 0xFF AND PUSH2 0x127F JUMPI PUSH1 0x40 MLOAD PUSH3 0x461BCD PUSH1 0xE5 SHL DUP2 MSTORE PUSH1 0x20 PUSH1 0x4 DUP3 ADD MSTORE PUSH1 0x2B PUSH1 0x24 DUP3 ADD MSTORE PUSH32 0x496E697469616C697A61626C653A20636F6E7472616374206973206E6F742069 PUSH1 0x44 DUP3 ADD MSTORE PUSH11 0x6E697469616C697A696E67 PUSH1 0xA8 SHL PUSH1 0x64 DUP3 ADD MSTORE PUSH1 0x84 ADD PUSH2 0x4AE JUMP JUMPDEST PUSH2 0xA58 PUSH2 0x1439 JUMP JUMPDEST PUSH1 0x0 PUSH2 0x12DC DUP3 PUSH1 0x40 MLOAD DUP1 PUSH1 0x40 ADD PUSH1 0x40 MSTORE DUP1 PUSH1 0x20 DUP2 MSTORE PUSH1 0x20 ADD PUSH32 0x5361666545524332303A206C6F772D6C6576656C2063616C6C206661696C6564 DUP2 MSTORE POP DUP6 PUSH1 0x1 PUSH1 0x1 PUSH1 0xA0 SHL SUB AND PUSH2 0x14AD SWAP1 SWAP3 SWAP2 SWAP1 PUSH4 0xFFFFFFFF AND JUMP JUMPDEST SWAP1 POP DUP1 MLOAD PUSH1 0x0 EQ DUP1 PUSH2 0x12FD JUMPI POP DUP1 DUP1 PUSH1 0x20 ADD SWAP1 MLOAD DUP2 ADD SWAP1 PUSH2 0x12FD SWAP2 SWAP1 PUSH2 0x196A JUMP JUMPDEST PUSH2 0x1117 JUMPI PUSH1 0x40 MLOAD PUSH3 0x461BCD PUSH1 0xE5 SHL DUP2 MSTORE PUSH1 0x20 PUSH1 0x4 DUP3 ADD MSTORE PUSH1 0x2A PUSH1 0x24 DUP3 ADD MSTORE PUSH32 0x5361666545524332303A204552433230206F7065726174696F6E20646964206E PUSH1 0x44 DUP3 ADD MSTORE PUSH32 0x6F74207375636365656400000000000000000000000000000000000000000000 PUSH1 0x64 DUP3 ADD MSTORE PUSH1 0x84 ADD PUSH2 0x4AE JUMP JUMPDEST PUSH1 0x65 DUP1 SLOAD PUSH1 0x1 PUSH1 0x1 PUSH1 0xA0 SHL SUB DUP4 DUP2 AND PUSH20 0xFFFFFFFFFFFFFFFFFFFFFFFFFFFFFFFFFFFFFFFF NOT DUP4 AND DUP2 OR SWAP1 SWAP4 SSTORE PUSH1 0x40 MLOAD SWAP2 AND SWAP2 SWAP1 DUP3 SWAP1 PUSH32 0x8BE0079C531659141344CD1FD0A4F28419497F9722A3DAAFE3B4186F6B6457E0 SWAP1 PUSH1 0x0 SWAP1 LOG3 POP POP JUMP JUMPDEST PUSH1 0x0 SLOAD PUSH2 0x100 SWAP1 DIV PUSH1 0xFF AND PUSH2 0x1175 JUMPI PUSH1 0x40 MLOAD PUSH3 0x461BCD PUSH1 0xE5 SHL DUP2 MSTORE PUSH1 0x20 PUSH1 0x4 DUP3 ADD MSTORE PUSH1 0x2B PUSH1 0x24 DUP3 ADD MSTORE PUSH32 0x496E697469616C697A61626C653A20636F6E7472616374206973206E6F742069 PUSH1 0x44 DUP3 ADD MSTORE PUSH11 0x6E697469616C697A696E67 PUSH1 0xA8 SHL PUSH1 0x64 DUP3 ADD MSTORE PUSH1 0x84 ADD PUSH2 0x4AE JUMP JUMPDEST PUSH1 0x0 SLOAD PUSH2 0x100 SWAP1 DIV PUSH1 0xFF AND PUSH2 0x14A4 JUMPI PUSH1 0x40 MLOAD PUSH3 0x461BCD PUSH1 0xE5 SHL DUP2 MSTORE PUSH1 0x20 PUSH1 0x4 DUP3 ADD MSTORE PUSH1 0x2B PUSH1 0x24 DUP3 ADD MSTORE PUSH32 0x496E697469616C697A61626C653A20636F6E7472616374206973206E6F742069 PUSH1 0x44 DUP3 ADD MSTORE PUSH11 0x6E697469616C697A696E67 PUSH1 0xA8 SHL PUSH1 0x64 DUP3 ADD MSTORE PUSH1 0x84 ADD PUSH2 0x4AE JUMP JUMPDEST PUSH2 0xA58 CALLER PUSH2 0x117B JUMP JUMPDEST PUSH1 0x60 PUSH2 0x14BC DUP5 DUP5 PUSH1 0x0 DUP6 PUSH2 0x14C4 JUMP JUMPDEST SWAP5 SWAP4 POP POP POP POP JUMP JUMPDEST PUSH1 0x60 DUP3 SELFBALANCE LT ISZERO PUSH2 0x153C JUMPI PUSH1 0x40 MLOAD PUSH3 0x461BCD PUSH1 0xE5 SHL DUP2 MSTORE PUSH1 0x20 PUSH1 0x4 DUP3 ADD MSTORE PUSH1 0x26 PUSH1 0x24 DUP3 ADD MSTORE PUSH32 0x416464726573733A20696E73756666696369656E742062616C616E636520666F PUSH1 0x44 DUP3 ADD MSTORE PUSH32 0x722063616C6C0000000000000000000000000000000000000000000000000000 PUSH1 0x64 DUP3 ADD MSTORE PUSH1 0x84 ADD PUSH2 0x4AE JUMP JUMPDEST PUSH1 0x0 DUP1 DUP7 PUSH1 0x1 PUSH1 0x1 PUSH1 0xA0 SHL SUB AND DUP6 DUP8 PUSH1 0x40 MLOAD PUSH2 0x1558 SWAP2 SWAP1 PUSH2 0x1A0B JUMP JUMPDEST PUSH1 0x0 PUSH1 0x40 MLOAD DUP1 DUP4 SUB DUP2 DUP6 DUP8 GAS CALL SWAP3 POP POP POP RETURNDATASIZE DUP1 PUSH1 0x0 DUP2 EQ PUSH2 0x1595 JUMPI PUSH1 0x40 MLOAD SWAP2 POP PUSH1 0x1F NOT PUSH1 0x3F RETURNDATASIZE ADD AND DUP3 ADD PUSH1 0x40 MSTORE RETURNDATASIZE DUP3 MSTORE RETURNDATASIZE PUSH1 0x0 PUSH1 0x20 DUP5 ADD RETURNDATACOPY PUSH2 0x159A JUMP JUMPDEST PUSH1 0x60 SWAP2 POP JUMPDEST POP SWAP2 POP SWAP2 POP PUSH2 0x15AB DUP8 DUP4 DUP4 DUP8 PUSH2 0x15B6 JUMP JUMPDEST SWAP8 SWAP7 POP POP POP POP POP POP POP JUMP JUMPDEST PUSH1 0x60 DUP4 ISZERO PUSH2 0x1625 JUMPI DUP3 MLOAD PUSH1 0x0 SUB PUSH2 0x161E JUMPI PUSH1 0x1 PUSH1 0x1 PUSH1 0xA0 SHL SUB DUP6 AND EXTCODESIZE PUSH2 0x161E JUMPI PUSH1 0x40 MLOAD PUSH3 0x461BCD PUSH1 0xE5 SHL DUP2 MSTORE PUSH1 0x20 PUSH1 0x4 DUP3 ADD MSTORE PUSH1 0x1D PUSH1 0x24 DUP3 ADD MSTORE PUSH32 0x416464726573733A2063616C6C20746F206E6F6E2D636F6E7472616374000000 PUSH1 0x44 DUP3 ADD MSTORE PUSH1 0x64 ADD PUSH2 0x4AE JUMP JUMPDEST POP DUP2 PUSH2 0x14BC JUMP JUMPDEST PUSH2 0x14BC DUP4 DUP4 DUP2 MLOAD ISZERO PUSH2 0x163A JUMPI DUP2 MLOAD DUP1 DUP4 PUSH1 0x20 ADD REVERT JUMPDEST DUP1 PUSH1 0x40 MLOAD PUSH3 0x461BCD PUSH1 0xE5 SHL DUP2 MSTORE PUSH1 0x4 ADD PUSH2 0x4AE SWAP2 SWAP1 PUSH2 0x1A27 JUMP JUMPDEST DUP1 CALLDATALOAD PUSH1 0x1 PUSH1 0x1 PUSH1 0xA0 SHL SUB DUP2 AND DUP2 EQ PUSH2 0xBA4 JUMPI PUSH1 0x0 DUP1 REVERT JUMPDEST PUSH1 0x0 PUSH1 0x20 DUP3 DUP5 SUB SLT ISZERO PUSH2 0x167D JUMPI PUSH1 0x0 DUP1 REVERT JUMPDEST PUSH2 0x1686 DUP3 PUSH2 0x1654 JUMP JUMPDEST SWAP4 SWAP3 POP POP POP JUMP JUMPDEST PUSH1 0x0 DUP1 DUP4 PUSH1 0x1F DUP5 ADD SLT PUSH2 0x169F JUMPI PUSH1 0x0 DUP1 REVERT JUMPDEST POP DUP2 CALLDATALOAD PUSH8 0xFFFFFFFFFFFFFFFF DUP2 GT ISZERO PUSH2 0x16B7 JUMPI PUSH1 0x0 DUP1 REVERT JUMPDEST PUSH1 0x20 DUP4 ADD SWAP2 POP DUP4 PUSH1 0x20 DUP3 PUSH1 0x5 SHL DUP6 ADD ADD GT ISZERO PUSH2 0x16D2 JUMPI PUSH1 0x0 DUP1 REVERT JUMPDEST SWAP3 POP SWAP3 SWAP1 POP JUMP JUMPDEST PUSH1 0x0 DUP1 PUSH1 0x0 DUP1 PUSH1 0x40 DUP6 DUP8 SUB SLT ISZERO PUSH2 0x16EF JUMPI PUSH1 0x0 DUP1 REVERT JUMPDEST DUP5 CALLDATALOAD PUSH8 0xFFFFFFFFFFFFFFFF DUP1 DUP3 GT ISZERO PUSH2 0x1707 JUMPI PUSH1 0x0 DUP1 REVERT JUMPDEST PUSH2 0x1713 DUP9 DUP4 DUP10 ADD PUSH2 0x168D JUMP JUMPDEST SWAP1 SWAP7 POP SWAP5 POP PUSH1 0x20 DUP8 ADD CALLDATALOAD SWAP2 POP DUP1 DUP3 GT ISZERO PUSH2 0x172C JUMPI PUSH1 0x0 DUP1 REVERT JUMPDEST POP PUSH2 0x1739 DUP8 DUP3 DUP9 ADD PUSH2 0x168D JUMP JUMPDEST SWAP6 SWAP9 SWAP5 SWAP8 POP SWAP6 POP POP POP POP JUMP JUMPDEST PUSH1 0x0 DUP1 PUSH1 0x40 DUP4 DUP6 SUB SLT ISZERO PUSH2 0x1758 JUMPI PUSH1 0x0 DUP1 REVERT JUMPDEST PUSH2 0x1761 DUP4 PUSH2 0x1654 JUMP JUMPDEST SWAP2 POP PUSH2 0x176F PUSH1 0x20 DUP5 ADD PUSH2 0x1654 JUMP JUMPDEST SWAP1 POP SWAP3 POP SWAP3 SWAP1 POP JUMP JUMPDEST PUSH1 0x0 DUP1 PUSH1 0x0 DUP1 PUSH1 0x0 PUSH1 0xA0 DUP7 DUP9 SUB SLT ISZERO PUSH2 0x1790 JUMPI PUSH1 0x0 DUP1 REVERT JUMPDEST PUSH2 0x1799 DUP7 PUSH2 0x1654 JUMP JUMPDEST SWAP5 POP PUSH2 0x17A7 PUSH1 0x20 DUP8 ADD PUSH2 0x1654 JUMP JUMPDEST SWAP5 SWAP8 SWAP5 SWAP7 POP POP POP POP PUSH1 0x40 DUP4 ADD CALLDATALOAD SWAP3 PUSH1 0x60 DUP2 ADD CALLDATALOAD SWAP3 PUSH1 0x80 SWAP1 SWAP2 ADD CALLDATALOAD SWAP2 POP JUMP JUMPDEST PUSH4 0x4E487B71 PUSH1 0xE0 SHL PUSH1 0x0 MSTORE PUSH1 0x32 PUSH1 0x4 MSTORE PUSH1 0x24 PUSH1 0x0 REVERT JUMPDEST PUSH4 0x4E487B71 PUSH1 0xE0 SHL PUSH1 0x0 MSTORE PUSH1 0x11 PUSH1 0x4 MSTORE PUSH1 0x24 PUSH1 0x0 REVERT JUMPDEST DUP1 DUP3 ADD DUP1 DUP3 GT ISZERO PUSH2 0x1804 JUMPI PUSH2 0x1804 PUSH2 0x17DB JUMP JUMPDEST SWAP3 SWAP2 POP POP JUMP JUMPDEST PUSH1 0x0 PUSH32 0xFFFFFFFFFFFFFFFFFFFFFFFFFFFFFFFFFFFFFFFFFFFFFFFFFFFFFFFFFFFFFFFF DUP3 SUB PUSH2 0x183B JUMPI PUSH2 0x183B PUSH2 0x17DB JUMP JUMPDEST POP PUSH1 0x1 ADD SWAP1 JUMP JUMPDEST DUP2 DUP4 MSTORE PUSH1 0x0 PUSH1 0x20 DUP1 DUP6 ADD SWAP5 POP DUP3 PUSH1 0x0 JUMPDEST DUP6 DUP2 LT ISZERO PUSH2 0x187E JUMPI PUSH1 0x1 PUSH1 0x1 PUSH1 0xA0 SHL SUB PUSH2 0x186B DUP4 PUSH2 0x1654 JUMP JUMPDEST AND DUP8 MSTORE SWAP6 DUP3 ADD SWAP6 SWAP1 DUP3 ADD SWAP1 PUSH1 0x1 ADD PUSH2 0x1852 JUMP JUMPDEST POP SWAP5 SWAP6 SWAP5 POP POP POP POP POP JUMP JUMPDEST DUP2 DUP4 MSTORE PUSH1 0x0 PUSH32 0x7FFFFFFFFFFFFFFFFFFFFFFFFFFFFFFFFFFFFFFFFFFFFFFFFFFFFFFFFFFFFFF DUP4 GT ISZERO PUSH2 0x18BB JUMPI PUSH1 0x0 DUP1 REVERT JUMPDEST DUP3 PUSH1 0x5 SHL DUP1 DUP4 PUSH1 0x20 DUP8 ADD CALLDATACOPY SWAP4 SWAP1 SWAP4 ADD PUSH1 0x20 ADD SWAP4 SWAP3 POP POP POP JUMP JUMPDEST PUSH1 0x1 PUSH1 0x1 PUSH1 0xA0 SHL SUB DUP8 AND DUP2 MSTORE PUSH1 0x80 PUSH1 0x20 DUP3 ADD MSTORE PUSH1 0x0 PUSH2 0x18F7 PUSH1 0x80 DUP4 ADD DUP8 DUP10 PUSH2 0x1842 JUMP JUMPDEST DUP3 DUP2 SUB PUSH1 0x40 DUP5 ADD MSTORE PUSH2 0x190A DUP2 DUP7 DUP9 PUSH2 0x1889 JUMP JUMPDEST SWAP2 POP POP DUP3 PUSH1 0x60 DUP4 ADD MSTORE SWAP8 SWAP7 POP POP POP POP POP POP POP JUMP JUMPDEST DUP2 DUP2 SUB DUP2 DUP2 GT ISZERO PUSH2 0x1804 JUMPI PUSH2 0x1804 PUSH2 0x17DB JUMP JUMPDEST DUP1 DUP3 MUL DUP2 ISZERO DUP3 DUP3 DIV DUP5 EQ OR PUSH2 0x1804 JUMPI PUSH2 0x1804 PUSH2 0x17DB JUMP JUMPDEST PUSH1 0x0 DUP3 PUSH2 0x1965 JUMPI PUSH4 0x4E487B71 PUSH1 0xE0 SHL PUSH1 0x0 MSTORE PUSH1 0x12 PUSH1 0x4 MSTORE PUSH1 0x24 PUSH1 0x0 REVERT JUMPDEST POP DIV SWAP1 JUMP JUMPDEST PUSH1 0x0 PUSH1 0x20 DUP3 DUP5 SUB SLT ISZERO PUSH2 0x197C JUMPI PUSH1 0x0 DUP1 REVERT JUMPDEST DUP2 MLOAD DUP1 ISZERO ISZERO DUP2 EQ PUSH2 0x1686 JUMPI PUSH1 0x0 DUP1 REVERT JUMPDEST PUSH1 0x0 PUSH1 0x20 DUP3 DUP5 SUB SLT ISZERO PUSH2 0x199E JUMPI PUSH1 0x0 DUP1 REVERT JUMPDEST POP MLOAD SWAP2 SWAP1 POP JUMP JUMPDEST PUSH1 0x1 PUSH1 0x1 PUSH1 0xA0 SHL SUB DUP7 AND DUP2 MSTORE PUSH1 0x60 PUSH1 0x20 DUP3 ADD MSTORE PUSH1 0x0 PUSH2 0x19C8 PUSH1 0x60 DUP4 ADD DUP7 DUP9 PUSH2 0x1842 JUMP JUMPDEST DUP3 DUP2 SUB PUSH1 0x40 DUP5 ADD MSTORE PUSH2 0x19DB DUP2 DUP6 DUP8 PUSH2 0x1889 JUMP JUMPDEST SWAP9 SWAP8 POP POP POP POP POP POP POP POP JUMP JUMPDEST PUSH1 0x0 JUMPDEST DUP4 DUP2 LT ISZERO PUSH2 0x1A02 JUMPI DUP2 DUP2 ADD MLOAD DUP4 DUP3 ADD MSTORE PUSH1 0x20 ADD PUSH2 0x19EA JUMP JUMPDEST POP POP PUSH1 0x0 SWAP2 ADD MSTORE JUMP JUMPDEST PUSH1 0x0 DUP3 MLOAD PUSH2 0x1A1D DUP2 DUP5 PUSH1 0x20 DUP8 ADD PUSH2 0x19E7 JUMP JUMPDEST SWAP2 SWAP1 SWAP2 ADD SWAP3 SWAP2 POP POP JUMP JUMPDEST PUSH1 0x20 DUP2 MSTORE PUSH1 0x0 DUP3 MLOAD DUP1 PUSH1 0x20 DUP5 ADD MSTORE PUSH2 0x1A46 DUP2 PUSH1 0x40 DUP6 ADD PUSH1 0x20 DUP8 ADD PUSH2 0x19E7 JUMP JUMPDEST PUSH1 0x1F ADD PUSH1 0x1F NOT AND SWAP2 SWAP1 SWAP2 ADD PUSH1 0x40 ADD SWAP3 SWAP2 POP POP JUMP INVALID LOG2 PUSH5 0x6970667358 0x22 SLT KECCAK256 LOG1 0xED 0xCF PUSH23 0xACF2521DC1A450DACA4D2F49F9F602B3F7FDBB56148D86 0xA5 SUB 0xAC OR MOD PUSH5 0x736F6C6343 STOP ADDMOD SLT STOP CALLER "},"methodIdentifiers":{"NO_CLAIM_DURATION()":"51242450","PRECISION()":"aaf5eb68","START_VESTING()":"aa264c9b","VESTING_DURATION()":"4cfc4d30","acceptOwnership()":"79ba5097","changeReceiver(address,address)":"4c69ec93","claim()":"4e71d92d","claimableAmount(address)":"89885049","claimableNow(address)":"9a78ea4a","claimableWithoutCliff(address)":"de6aa92b","claimedAmount(address)":"04e86903","initialize(address,address,uint256,uint256,uint256)":"d13f90b4","intx()":"46f7d6c9","owner()":"8da5cb5b","pendingOwner()":"e30c3978","removeAllocations(address[],uint256[])":"a37c1c5a","renounceOwnership()":"715018a6","setAllocations(address[],uint256[])":"1ff64acd","transferOwnership(address)":"f2fde38b","xIntx()":"27a7af89"}},"storageLayout":{"storage":[{"astId":246,"contract":"contracts/vestings/VestingXINTX.sol:VestingXINTX","label":"_initialized","offset":0,"slot":"0","type":"t_uint8"},{"astId":249,"contract":"contracts/vestings/VestingXINTX.sol:VestingXINTX","label":"_initializing","offset":1,"slot":"0","type":"t_bool"},{"astId":423,"contract":"contracts/vestings/VestingXINTX.sol:VestingXINTX","label":"_status","offset":0,"slot":"1","type":"t_uint256"},{"astId":492,"contract":"contracts/vestings/VestingXINTX.sol:VestingXINTX","label":"__gap","offset":0,"slot":"2","type":"t_array(t_uint256)49_storage"},{"astId":873,"contract":"contracts/vestings/VestingXINTX.sol:VestingXINTX","label":"__gap","offset":0,"slot":"51","type":"t_array(t_uint256)50_storage"},{"astId":118,"contract":"contracts/vestings/VestingXINTX.sol:VestingXINTX","label":"_owner","offset":0,"slot":"101","type":"t_address"},{"astId":238,"contract":"contracts/vestings/VestingXINTX.sol:VestingXINTX","label":"__gap","offset":0,"slot":"102","type":"t_array(t_uint256)49_storage"},{"astId":11,"contract":"contracts/vestings/VestingXINTX.sol:VestingXINTX","label":"_pendingOwner","offset":0,"slot":"151","type":"t_address"},{"astId":105,"contract":"contracts/vestings/VestingXINTX.sol:VestingXINTX","label":"__gap","offset":0,"slot":"152","type":"t_array(t_uint256)49_storage"},{"astId":1723,"contract":"contracts/vestings/VestingXINTX.sol:VestingXINTX","label":"START_VESTING","offset":0,"slot":"201","type":"t_uint256"},{"astId":1725,"contract":"contracts/vestings/VestingXINTX.sol:VestingXINTX","label":"VESTING_DURATION","offset":0,"slot":"202","type":"t_uint256"},{"astId":1727,"contract":"contracts/vestings/VestingXINTX.sol:VestingXINTX","label":"NO_CLAIM_DURATION","offset":0,"slot":"203","type":"t_uint256"},{"astId":1730,"contract":"contracts/vestings/VestingXINTX.sol:VestingXINTX","label":"intx","offset":0,"slot":"204","type":"t_contract(IERC20)952"},{"astId":1733,"contract":"contracts/vestings/VestingXINTX.sol:VestingXINTX","label":"xIntx","offset":0,"slot":"205","type":"t_contract(IStakedINTX)1710"},{"astId":1737,"contract":"contracts/vestings/VestingXINTX.sol:VestingXINTX","label":"claimableAmount","offset":0,"slot":"206","type":"t_mapping(t_address,t_uint256)"},{"astId":1741,"contract":"contracts/vestings/VestingXINTX.sol:VestingXINTX","label":"claimedAmount","offset":0,"slot":"207","type":"t_mapping(t_address,t_uint256)"}],"types":{"t_address":{"encoding":"inplace","label":"address","numberOfBytes":"20"},"t_array(t_uint256)49_storage":{"base":"t_uint256","encoding":"inplace","label":"uint256[49]","numberOfBytes":"1568"},"t_array(t_uint256)50_storage":{"base":"t_uint256","encoding":"inplace","label":"uint256[50]","numberOfBytes":"1600"},"t_bool":{"encoding":"inplace","label":"bool","numberOfBytes":"1"},"t_contract(IERC20)952":{"encoding":"inplace","label":"contract IERC20","numberOfBytes":"20"},"t_contract(IStakedINTX)1710":{"encoding":"inplace","label":"contract IStakedINTX","numberOfBytes":"20"},"t_mapping(t_address,t_uint256)":{"encoding":"mapping","key":"t_address","label":"mapping(address => uint256)","numberOfBytes":"32","value":"t_uint256"},"t_uint256":{"encoding":"inplace","label":"uint256","numberOfBytes":"32"},"t_uint8":{"encoding":"inplace","label":"uint8","numberOfBytes":"1"}}}}}}