{
  "_format": "hh-sol-artifact-1",
  "contractName": "SymmExecutorUpgradeable",
  "sourceName": "contracts/SymmExecutorUpgradeable.sol",
  "abi": [
    {
      "inputs": [],
      "stateMutability": "nonpayable",
      "type": "constructor"
    },
    {
      "anonymous": false,
      "inputs": [
        {
          "indexed": false,
          "internalType": "uint8",
          "name": "version",
          "type": "uint8"
        }
      ],
      "name": "Initialized",
      "type": "event"
    },
    {
      "anonymous": false,
      "inputs": [
        {
          "indexed": true,
          "internalType": "address",
          "name": "previousOwner",
          "type": "address"
        },
        {
          "indexed": true,
          "internalType": "address",
          "name": "newOwner",
          "type": "address"
        }
      ],
      "name": "OwnershipTransferred",
      "type": "event"
    },
    {
      "anonymous": false,
      "inputs": [
        {
          "indexed": false,
          "internalType": "address",
          "name": "account",
          "type": "address"
        }
      ],
      "name": "Paused",
      "type": "event"
    },
    {
      "anonymous": false,
      "inputs": [
        {
          "indexed": false,
          "internalType": "address",
          "name": "account",
          "type": "address"
        }
      ],
      "name": "Unpaused",
      "type": "event"
    },
    {
      "anonymous": false,
      "inputs": [
        {
          "indexed": true,
          "internalType": "address",
          "name": "keeper",
          "type": "address"
        },
        {
          "indexed": true,
          "internalType": "address",
          "name": "account",
          "type": "address"
        },
        {
          "indexed": false,
          "internalType": "bytes[]",
          "name": "_callDatas",
          "type": "bytes[]"
        }
      ],
      "name": "executed",
      "type": "event"
    },
    {
      "anonymous": false,
      "inputs": [
        {
          "indexed": true,
          "internalType": "address",
          "name": "keeper",
          "type": "address"
        }
      ],
      "name": "keeperAdded",
      "type": "event"
    },
    {
      "anonymous": false,
      "inputs": [
        {
          "indexed": true,
          "internalType": "address",
          "name": "keeper",
          "type": "address"
        }
      ],
      "name": "keeperRemoved",
      "type": "event"
    },
    {
      "inputs": [
        {
          "internalType": "address",
          "name": "account",
          "type": "address"
        },
        {
          "internalType": "bytes[]",
          "name": "_callDatas",
          "type": "bytes[]"
        }
      ],
      "name": "_call",
      "outputs": [],
      "stateMutability": "nonpayable",
      "type": "function"
    },
    {
      "inputs": [
        {
          "internalType": "contract MultiAccount",
          "name": "_multiAccount",
          "type": "address"
        },
        {
          "internalType": "address",
          "name": "account",
          "type": "address"
        },
        {
          "internalType": "bytes[]",
          "name": "_callDatas",
          "type": "bytes[]"
        }
      ],
      "name": "_call2",
      "outputs": [],
      "stateMutability": "nonpayable",
      "type": "function"
    },
    {
      "inputs": [
        {
          "internalType": "address",
          "name": "_who",
          "type": "address"
        }
      ],
      "name": "addKeeper",
      "outputs": [],
      "stateMutability": "nonpayable",
      "type": "function"
    },
    {
      "inputs": [
        {
          "internalType": "address",
          "name": "account",
          "type": "address"
        }
      ],
      "name": "hasDelegated",
      "outputs": [
        {
          "internalType": "bool",
          "name": "",
          "type": "bool"
        }
      ],
      "stateMutability": "view",
      "type": "function"
    },
    {
      "inputs": [
        {
          "internalType": "address",
          "name": "_multiAccount",
          "type": "address"
        }
      ],
      "name": "initialize",
      "outputs": [],
      "stateMutability": "nonpayable",
      "type": "function"
    },
    {
      "inputs": [
        {
          "internalType": "address",
          "name": "",
          "type": "address"
        }
      ],
      "name": "isKeeper",
      "outputs": [
        {
          "internalType": "bool",
          "name": "",
          "type": "bool"
        }
      ],
      "stateMutability": "view",
      "type": "function"
    },
    {
      "inputs": [],
      "name": "multiAccount",
      "outputs": [
        {
          "internalType": "contract MultiAccount",
          "name": "",
          "type": "address"
        }
      ],
      "stateMutability": "view",
      "type": "function"
    },
    {
      "inputs": [],
      "name": "owner",
      "outputs": [
        {
          "internalType": "address",
          "name": "",
          "type": "address"
        }
      ],
      "stateMutability": "view",
      "type": "function"
    },
    {
      "inputs": [],
      "name": "pauseExecution",
      "outputs": [],
      "stateMutability": "nonpayable",
      "type": "function"
    },
    {
      "inputs": [],
      "name": "paused",
      "outputs": [
        {
          "internalType": "bool",
          "name": "",
          "type": "bool"
        }
      ],
      "stateMutability": "view",
      "type": "function"
    },
    {
      "inputs": [
        {
          "internalType": "address",
          "name": "_who",
          "type": "address"
        }
      ],
      "name": "removeKeeper",
      "outputs": [],
      "stateMutability": "nonpayable",
      "type": "function"
    },
    {
      "inputs": [],
      "name": "renounceOwnership",
      "outputs": [],
      "stateMutability": "nonpayable",
      "type": "function"
    },
    {
      "inputs": [],
      "name": "requestToClosePositionSelector",
      "outputs": [
        {
          "internalType": "bytes4",
          "name": "",
          "type": "bytes4"
        }
      ],
      "stateMutability": "view",
      "type": "function"
    },
    {
      "inputs": [
        {
          "internalType": "address",
          "name": "newOwner",
          "type": "address"
        }
      ],
      "name": "transferOwnership",
      "outputs": [],
      "stateMutability": "nonpayable",
      "type": "function"
    },
    {
      "inputs": [],
      "name": "unpauseExecution",
      "outputs": [],
      "stateMutability": "nonpayable",
      "type": "function"
    }
  ],
  "bytecode": "0x608060405234801561001057600080fd5b5061001961001e565b6100dd565b600054610100900460ff161561008a5760405162461bcd60e51b815260206004820152602760248201527f496e697469616c697a61626c653a20636f6e747261637420697320696e697469604482015266616c697a696e6760c81b606482015260840160405180910390fd5b60005460ff908116146100db576000805460ff191660ff9081179091556040519081527f7f26b83ff96e1f2b6a682f133852f6798a09c465da95921460cefb38474024989060200160405180910390a15b565b6110d1806100ec6000396000f3fe608060405234801561001057600080fd5b50600436106100f55760003560e01c8063859806cc11610097578063bd367d8e11610066578063bd367d8e146101fd578063c4d66de814610210578063f2fde38b14610223578063f304ee401461023657600080fd5b8063859806cc146101aa5780638da5cb5b146101b257806390ae9337146101d7578063b70a73b0146101ea57600080fd5b80634140f0dd116100d35780634140f0dd1461012a5780635c975abb146101685780636ba42aaa1461017f578063715018a6146101a257600080fd5b806314ae9f2e146100fa5780631f041ec61461010f5780634032b72b14610117575b600080fd5b61010d610108366004610d4f565b610249565b005b61010d610307565b61010d610125366004610d4f565b610319565b6101326103fc565b6040517fffffffff0000000000000000000000000000000000000000000000000000000090911681526020015b60405180910390f35b60655460ff165b604051901515815260200161015f565b61016f61018d366004610d4f565b60986020526000908152604090205460ff1681565b61010d61041f565b61010d610431565b6033546001600160a01b03165b6040516001600160a01b03909116815260200161015f565b61016f6101e5366004610d4f565b610441565b6097546101bf906001600160a01b031681565b61010d61020b366004610ec8565b610512565b61010d61021e366004610d4f565b61064b565b61010d610231366004610d4f565b6107a7565b61010d610244366004610f18565b610837565b61025161096d565b6001600160a01b03811660009081526098602052604090205460ff166102be5760405162461bcd60e51b815260206004820152601c60248201527f5468697320616464726573732069736e27742061206b65657065722e0000000060448201526064015b60405180910390fd5b6001600160a01b038116600081815260986020526040808220805460ff19169055517f3432fdb95490c1eb51a3dec1d387050691e75694ce0da51d8b9a3a20e158ac779190a250565b61030f61096d565b6103176109c7565b565b61032161096d565b6001600160a01b03811660009081526098602052604090205460ff16156103b05760405162461bcd60e51b815260206004820152602160248201527f54686973206164647265737320697320616c72656164792061206b656570657260448201527f2e0000000000000000000000000000000000000000000000000000000000000060648201526084016102b5565b6001600160a01b038116600081815260986020526040808220805460ff19166001179055517faa189952d1f77049b9948cfc6db230ce8dbbafc83f4dbcf01f16a202bc5cfdd49190a250565b6040518060600160405280603d815260200161105f603d91398051906020012081565b61042761096d565b6103176000610a21565b61043961096d565b610317610a8b565b6097546040805160608101909152603d8082526000926001600160a01b03169163b9c9b3f2918591309161105f6020830139805160209091012060405160e085901b7fffffffff0000000000000000000000000000000000000000000000000000000090811682526001600160a01b039485166004830152929093166024840152166044820152606401602060405180830381865afa1580156104e8573d6000803e3d6000fd5b505050506040513d601f19601f8201168201806040525081019061050c9190610f7a565b92915050565b3360009081526098602052604090205460ff166105715760405162461bcd60e51b815260206004820152601b60248201527f5468697320616464726573732069736e27742061206b6565706572000000000060448201526064016102b5565b610579610ac4565b6097546040517fbd367d8e0000000000000000000000000000000000000000000000000000000081526001600160a01b039091169063bd367d8e906105c49085908590600401611021565b600060405180830381600087803b1580156105de57600080fd5b505af11580156105f2573d6000803e3d6000fd5b50505050816001600160a01b03166106073390565b6001600160a01b03167f0ca3106c6105c4bc8d63601e43325f0f1bf9f13a3af8aa1d4d812d358d473c708360405161063f919061104b565b60405180910390a35050565b600054610100900460ff161580801561066b5750600054600160ff909116105b806106855750303b158015610685575060005460ff166001145b6106f75760405162461bcd60e51b815260206004820152602e60248201527f496e697469616c697a61626c653a20636f6e747261637420697320616c72656160448201527f647920696e697469616c697a656400000000000000000000000000000000000060648201526084016102b5565b6000805460ff19166001179055801561071a576000805461ff0019166101001790555b610722610b17565b61072a610b8a565b609780547fffffffffffffffffffffffff0000000000000000000000000000000000000000166001600160a01b03841617905580156107a3576000805461ff0019169055604051600181527f7f26b83ff96e1f2b6a682f133852f6798a09c465da95921460cefb38474024989060200160405180910390a15b5050565b6107af61096d565b6001600160a01b03811661082b5760405162461bcd60e51b815260206004820152602660248201527f4f776e61626c653a206e6577206f776e657220697320746865207a65726f206160448201527f646472657373000000000000000000000000000000000000000000000000000060648201526084016102b5565b61083481610a21565b50565b3360009081526098602052604090205460ff166108965760405162461bcd60e51b815260206004820152601b60248201527f5468697320616464726573732069736e27742061206b6565706572000000000060448201526064016102b5565b61089e610ac4565b6040517fbd367d8e0000000000000000000000000000000000000000000000000000000081526001600160a01b0384169063bd367d8e906108e59085908590600401611021565b600060405180830381600087803b1580156108ff57600080fd5b505af1158015610913573d6000803e3d6000fd5b50505050816001600160a01b03166109283390565b6001600160a01b03167f0ca3106c6105c4bc8d63601e43325f0f1bf9f13a3af8aa1d4d812d358d473c7083604051610960919061104b565b60405180910390a3505050565b6033546001600160a01b031633146103175760405162461bcd60e51b815260206004820181905260248201527f4f776e61626c653a2063616c6c6572206973206e6f7420746865206f776e657260448201526064016102b5565b6109cf610ac4565b6065805460ff191660011790557f62e78cea01bee320cd4e420270b5ea74000d11b0c9f74754ebdbfc544b05a258610a043390565b6040516001600160a01b03909116815260200160405180910390a1565b603380546001600160a01b038381167fffffffffffffffffffffffff0000000000000000000000000000000000000000831681179093556040519116919082907f8be0079c531659141344cd1fd0a4f28419497f9722a3daafe3b4186f6b6457e090600090a35050565b610a93610bfd565b6065805460ff191690557f5db9ee0a495bf2e6ff9c91a7834c1ba4fdd244a5e8aa4e537bd38aeae4b073aa33610a04565b60655460ff16156103175760405162461bcd60e51b815260206004820152601060248201527f5061757361626c653a207061757365640000000000000000000000000000000060448201526064016102b5565b600054610100900460ff16610b825760405162461bcd60e51b815260206004820152602b60248201527f496e697469616c697a61626c653a20636f6e7472616374206973206e6f74206960448201526a6e697469616c697a696e6760a81b60648201526084016102b5565b610317610c4f565b600054610100900460ff16610bf55760405162461bcd60e51b815260206004820152602b60248201527f496e697469616c697a61626c653a20636f6e7472616374206973206e6f74206960448201526a6e697469616c697a696e6760a81b60648201526084016102b5565b610317610cc3565b60655460ff166103175760405162461bcd60e51b815260206004820152601460248201527f5061757361626c653a206e6f742070617573656400000000000000000000000060448201526064016102b5565b600054610100900460ff16610cba5760405162461bcd60e51b815260206004820152602b60248201527f496e697469616c697a61626c653a20636f6e7472616374206973206e6f74206960448201526a6e697469616c697a696e6760a81b60648201526084016102b5565b61031733610a21565b600054610100900460ff16610d2e5760405162461bcd60e51b815260206004820152602b60248201527f496e697469616c697a61626c653a20636f6e7472616374206973206e6f74206960448201526a6e697469616c697a696e6760a81b60648201526084016102b5565b6065805460ff19169055565b6001600160a01b038116811461083457600080fd5b600060208284031215610d6157600080fd5b8135610d6c81610d3a565b9392505050565b7f4e487b7100000000000000000000000000000000000000000000000000000000600052604160045260246000fd5b604051601f8201601f1916810167ffffffffffffffff81118282101715610dcb57610dcb610d73565b604052919050565b6000601f8381840112610de557600080fd5b8235602067ffffffffffffffff80831115610e0257610e02610d73565b8260051b610e11838201610da2565b9384528681018301938381019089861115610e2b57600080fd5b84890192505b85831015610ebb57823584811115610e495760008081fd5b8901603f81018b13610e5b5760008081fd5b85810135604086821115610e7157610e71610d73565b610e8288601f198c85011601610da2565b8281528d82848601011115610e975760008081fd5b828285018a8301376000928101890192909252508352509184019190840190610e31565b9998505050505050505050565b60008060408385031215610edb57600080fd5b8235610ee681610d3a565b9150602083013567ffffffffffffffff811115610f0257600080fd5b610f0e85828601610dd3565b9150509250929050565b600080600060608486031215610f2d57600080fd5b8335610f3881610d3a565b92506020840135610f4881610d3a565b9150604084013567ffffffffffffffff811115610f6457600080fd5b610f7086828701610dd3565b9150509250925092565b600060208284031215610f8c57600080fd5b81518015158114610d6c57600080fd5b600081518084526020808501808196508360051b810191508286016000805b86811015611013578385038a5282518051808752835b81811015610fec578281018901518882018a01528801610fd1565b5086810188018490529a87019a601f01601f19169095018601945091850191600101610fbb565b509298975050505050505050565b6001600160a01b03831681526040602082015260006110436040830184610f9c565b949350505050565b602081526000610d6c6020830184610f9c56fe72657175657374546f436c6f7365506f736974696f6e2875696e743235362c75696e743235362c75696e743235362c75696e74382c75696e7432353629a26469706673582212202c8fefbf287e53ecc854980ade34716deae06252ca9b7f33bf6f3c9e640715b164736f6c63430008120033",
  "linkReferences": {},
  "deployedLinkReferences": {}
}