{
  "_format": "hh-sol-artifact-1",
  "contractName": "SymmExecutorUpgradeable",
  "sourceName": "contracts/SymmExecutorUpgradeable.sol",
  "abi": [
    {
      "inputs": [],
      "stateMutability": "nonpayable",
      "type": "constructor"
    },
    {
      "anonymous": false,
      "inputs": [
        {
          "indexed": false,
          "internalType": "uint8",
          "name": "version",
          "type": "uint8"
        }
      ],
      "name": "Initialized",
      "type": "event"
    },
    {
      "anonymous": false,
      "inputs": [
        {
          "indexed": true,
          "internalType": "address",
          "name": "previousOwner",
          "type": "address"
        },
        {
          "indexed": true,
          "internalType": "address",
          "name": "newOwner",
          "type": "address"
        }
      ],
      "name": "OwnershipTransferred",
      "type": "event"
    },
    {
      "anonymous": false,
      "inputs": [
        {
          "indexed": false,
          "internalType": "address",
          "name": "account",
          "type": "address"
        }
      ],
      "name": "Paused",
      "type": "event"
    },
    {
      "anonymous": false,
      "inputs": [
        {
          "indexed": false,
          "internalType": "address",
          "name": "account",
          "type": "address"
        }
      ],
      "name": "Unpaused",
      "type": "event"
    },
    {
      "anonymous": false,
      "inputs": [
        {
          "indexed": true,
          "internalType": "address",
          "name": "keeper",
          "type": "address"
        },
        {
          "indexed": true,
          "internalType": "address",
          "name": "account",
          "type": "address"
        },
        {
          "indexed": false,
          "internalType": "bytes[]",
          "name": "_callDatas",
          "type": "bytes[]"
        }
      ],
      "name": "executed",
      "type": "event"
    },
    {
      "anonymous": false,
      "inputs": [
        {
          "indexed": true,
          "internalType": "address",
          "name": "keeper",
          "type": "address"
        }
      ],
      "name": "keeperAdded",
      "type": "event"
    },
    {
      "anonymous": false,
      "inputs": [
        {
          "indexed": true,
          "internalType": "address",
          "name": "keeper",
          "type": "address"
        }
      ],
      "name": "keeperRemoved",
      "type": "event"
    },
    {
      "inputs": [
        {
          "internalType": "address",
          "name": "account",
          "type": "address"
        },
        {
          "internalType": "bytes[]",
          "name": "_callDatas",
          "type": "bytes[]"
        }
      ],
      "name": "_call",
      "outputs": [],
      "stateMutability": "nonpayable",
      "type": "function"
    },
    {
      "inputs": [
        {
          "internalType": "contract MultiAccount",
          "name": "_multiAccount",
          "type": "address"
        },
        {
          "internalType": "address",
          "name": "account",
          "type": "address"
        },
        {
          "internalType": "bytes[]",
          "name": "_callDatas",
          "type": "bytes[]"
        }
      ],
      "name": "_call2",
      "outputs": [],
      "stateMutability": "nonpayable",
      "type": "function"
    },
    {
      "inputs": [
        {
          "internalType": "address",
          "name": "_who",
          "type": "address"
        }
      ],
      "name": "addKeeper",
      "outputs": [],
      "stateMutability": "nonpayable",
      "type": "function"
    },
    {
      "inputs": [
        {
          "internalType": "address",
          "name": "account",
          "type": "address"
        },
        {
          "internalType": "bytes4",
          "name": "selector",
          "type": "bytes4"
        }
      ],
      "name": "hasDelegated",
      "outputs": [
        {
          "internalType": "bool",
          "name": "",
          "type": "bool"
        }
      ],
      "stateMutability": "view",
      "type": "function"
    },
    {
      "inputs": [
        {
          "internalType": "address",
          "name": "account",
          "type": "address"
        }
      ],
      "name": "hasDelegated",
      "outputs": [
        {
          "internalType": "bool",
          "name": "",
          "type": "bool"
        }
      ],
      "stateMutability": "view",
      "type": "function"
    },
    {
      "inputs": [
        {
          "internalType": "address",
          "name": "account",
          "type": "address"
        },
        {
          "internalType": "bytes4[]",
          "name": "selector",
          "type": "bytes4[]"
        }
      ],
      "name": "hasDelegated",
      "outputs": [
        {
          "internalType": "bool[]",
          "name": "_hasDelegated",
          "type": "bool[]"
        }
      ],
      "stateMutability": "view",
      "type": "function"
    },
    {
      "inputs": [
        {
          "internalType": "address",
          "name": "_multiAccount",
          "type": "address"
        }
      ],
      "name": "initialize",
      "outputs": [],
      "stateMutability": "nonpayable",
      "type": "function"
    },
    {
      "inputs": [
        {
          "internalType": "address",
          "name": "",
          "type": "address"
        }
      ],
      "name": "isKeeper",
      "outputs": [
        {
          "internalType": "bool",
          "name": "",
          "type": "bool"
        }
      ],
      "stateMutability": "view",
      "type": "function"
    },
    {
      "inputs": [],
      "name": "multiAccount",
      "outputs": [
        {
          "internalType": "contract MultiAccount",
          "name": "",
          "type": "address"
        }
      ],
      "stateMutability": "view",
      "type": "function"
    },
    {
      "inputs": [],
      "name": "owner",
      "outputs": [
        {
          "internalType": "address",
          "name": "",
          "type": "address"
        }
      ],
      "stateMutability": "view",
      "type": "function"
    },
    {
      "inputs": [],
      "name": "pauseExecution",
      "outputs": [],
      "stateMutability": "nonpayable",
      "type": "function"
    },
    {
      "inputs": [],
      "name": "paused",
      "outputs": [
        {
          "internalType": "bool",
          "name": "",
          "type": "bool"
        }
      ],
      "stateMutability": "view",
      "type": "function"
    },
    {
      "inputs": [
        {
          "internalType": "address",
          "name": "_who",
          "type": "address"
        }
      ],
      "name": "removeKeeper",
      "outputs": [],
      "stateMutability": "nonpayable",
      "type": "function"
    },
    {
      "inputs": [],
      "name": "renounceOwnership",
      "outputs": [],
      "stateMutability": "nonpayable",
      "type": "function"
    },
    {
      "inputs": [],
      "name": "requestToClosePositionSelector",
      "outputs": [
        {
          "internalType": "bytes4",
          "name": "",
          "type": "bytes4"
        }
      ],
      "stateMutability": "view",
      "type": "function"
    },
    {
      "inputs": [
        {
          "internalType": "address",
          "name": "newOwner",
          "type": "address"
        }
      ],
      "name": "transferOwnership",
      "outputs": [],
      "stateMutability": "nonpayable",
      "type": "function"
    },
    {
      "inputs": [],
      "name": "unpauseExecution",
      "outputs": [],
      "stateMutability": "nonpayable",
      "type": "function"
    }
  ],
  "bytecode": "0x608060405234801561001057600080fd5b5061001961001e565b6100dd565b600054610100900460ff161561008a5760405162461bcd60e51b815260206004820152602760248201527f496e697469616c697a61626c653a20636f6e747261637420697320696e697469604482015266616c697a696e6760c81b606482015260840160405180910390fd5b60005460ff908116146100db576000805460ff191660ff9081179091556040519081527f7f26b83ff96e1f2b6a682f133852f6798a09c465da95921460cefb38474024989060200160405180910390a15b565b6114d5806100ec6000396000f3fe608060405234801561001057600080fd5b506004361061011b5760003560e01c8063859806cc116100b2578063bd367d8e11610081578063c73cd7ec11610066578063c73cd7ec14610260578063f2fde38b14610280578063f304ee401461029357600080fd5b8063bd367d8e1461023a578063c4d66de81461024d57600080fd5b8063859806cc146101e75780638da5cb5b146101ef57806390ae933714610214578063b70a73b01461022757600080fd5b80634140f0dd116100ee5780634140f0dd146101785780635c975abb146101b15780636ba42aaa146101bc578063715018a6146101df57600080fd5b80630741ec4d1461012057806314ae9f2e146101485780631f041ec61461015d5780634032b72b14610165575b600080fd5b61013361012e366004610ff9565b6102a6565b60405190151581526020015b60405180910390f35b61015b61015636600461102e565b610363565b005b61015b610421565b61015b61017336600461102e565b610433565b610180610516565b6040517fffffffff00000000000000000000000000000000000000000000000000000000909116815260200161013f565b60655460ff16610133565b6101336101ca36600461102e565b60986020526000908152604090205460ff1681565b61015b610539565b61015b61054b565b6033546001600160a01b03165b6040516001600160a01b03909116815260200161013f565b61013361022236600461102e565b61055b565b6097546101fc906001600160a01b031681565b61015b610248366004611187565b61062c565b61015b61025b36600461102e565b610765565b61027361026e3660046111d7565b6108c1565b60405161013f919061125f565b61015b61028e36600461102e565b610a1c565b61015b6102a13660046112a5565b610aac565b6097546040517fb9c9b3f20000000000000000000000000000000000000000000000000000000081526001600160a01b0384811660048301523060248301527fffffffff0000000000000000000000000000000000000000000000000000000084166044830152600092169063b9c9b3f290606401602060405180830381865afa158015610338573d6000803e3d6000fd5b505050506040513d601f19601f8201168201806040525081019061035c9190611307565b9392505050565b61036b610be2565b6001600160a01b03811660009081526098602052604090205460ff166103d85760405162461bcd60e51b815260206004820152601c60248201527f5468697320616464726573732069736e27742061206b65657065722e0000000060448201526064015b60405180910390fd5b6001600160a01b038116600081815260986020526040808220805460ff19169055517f3432fdb95490c1eb51a3dec1d387050691e75694ce0da51d8b9a3a20e158ac779190a250565b610429610be2565b610431610c3c565b565b61043b610be2565b6001600160a01b03811660009081526098602052604090205460ff16156104ca5760405162461bcd60e51b815260206004820152602160248201527f54686973206164647265737320697320616c72656164792061206b656570657260448201527f2e0000000000000000000000000000000000000000000000000000000000000060648201526084016103cf565b6001600160a01b038116600081815260986020526040808220805460ff19166001179055517faa189952d1f77049b9948cfc6db230ce8dbbafc83f4dbcf01f16a202bc5cfdd49190a250565b6040518060600160405280603d8152602001611463603d91398051906020012081565b610541610be2565b6104316000610c96565b610553610be2565b610431610d00565b6097546040805160608101909152603d8082526000926001600160a01b03169163b9c9b3f291859130916114636020830139805160209091012060405160e085901b7fffffffff0000000000000000000000000000000000000000000000000000000090811682526001600160a01b039485166004830152929093166024840152166044820152606401602060405180830381865afa158015610602573d6000803e3d6000fd5b505050506040513d601f19601f820116820180604052508101906106269190611307565b92915050565b3360009081526098602052604090205460ff1661068b5760405162461bcd60e51b815260206004820152601b60248201527f5468697320616464726573732069736e27742061206b6565706572000000000060448201526064016103cf565b610693610d39565b6097546040517fbd367d8e0000000000000000000000000000000000000000000000000000000081526001600160a01b039091169063bd367d8e906106de90859085906004016113ae565b600060405180830381600087803b1580156106f857600080fd5b505af115801561070c573d6000803e3d6000fd5b50505050816001600160a01b03166107213390565b6001600160a01b03167f0ca3106c6105c4bc8d63601e43325f0f1bf9f13a3af8aa1d4d812d358d473c708360405161075991906113d8565b60405180910390a35050565b600054610100900460ff16158080156107855750600054600160ff909116105b8061079f5750303b15801561079f575060005460ff166001145b6108115760405162461bcd60e51b815260206004820152602e60248201527f496e697469616c697a61626c653a20636f6e747261637420697320616c72656160448201527f647920696e697469616c697a656400000000000000000000000000000000000060648201526084016103cf565b6000805460ff191660011790558015610834576000805461ff0019166101001790555b61083c610d8c565b610844610dff565b609780547fffffffffffffffffffffffff0000000000000000000000000000000000000000166001600160a01b03841617905580156108bd576000805461ff0019169055604051600181527f7f26b83ff96e1f2b6a682f133852f6798a09c465da95921460cefb38474024989060200160405180910390a15b5050565b6060818067ffffffffffffffff8111156108dd576108dd61104b565b604051908082528060200260200182016040528015610906578160200160208202803683370190505b50915060005b81811015610a13576097546001600160a01b031663b9c9b3f28730888886818110610939576109396113eb565b905060200201602081019061094e9190611401565b60405160e085901b7fffffffff0000000000000000000000000000000000000000000000000000000090811682526001600160a01b039485166004830152929093166024840152166044820152606401602060405180830381865afa1580156109bb573d6000803e3d6000fd5b505050506040513d601f19601f820116820180604052508101906109df9190611307565b8382815181106109f1576109f16113eb565b9115156020928302919091019091015280610a0b8161141c565b91505061090c565b50509392505050565b610a24610be2565b6001600160a01b038116610aa05760405162461bcd60e51b815260206004820152602660248201527f4f776e61626c653a206e6577206f776e657220697320746865207a65726f206160448201527f646472657373000000000000000000000000000000000000000000000000000060648201526084016103cf565b610aa981610c96565b50565b3360009081526098602052604090205460ff16610b0b5760405162461bcd60e51b815260206004820152601b60248201527f5468697320616464726573732069736e27742061206b6565706572000000000060448201526064016103cf565b610b13610d39565b6040517fbd367d8e0000000000000000000000000000000000000000000000000000000081526001600160a01b0384169063bd367d8e90610b5a90859085906004016113ae565b600060405180830381600087803b158015610b7457600080fd5b505af1158015610b88573d6000803e3d6000fd5b50505050816001600160a01b0316610b9d3390565b6001600160a01b03167f0ca3106c6105c4bc8d63601e43325f0f1bf9f13a3af8aa1d4d812d358d473c7083604051610bd591906113d8565b60405180910390a3505050565b6033546001600160a01b031633146104315760405162461bcd60e51b815260206004820181905260248201527f4f776e61626c653a2063616c6c6572206973206e6f7420746865206f776e657260448201526064016103cf565b610c44610d39565b6065805460ff191660011790557f62e78cea01bee320cd4e420270b5ea74000d11b0c9f74754ebdbfc544b05a258610c793390565b6040516001600160a01b03909116815260200160405180910390a1565b603380546001600160a01b038381167fffffffffffffffffffffffff0000000000000000000000000000000000000000831681179093556040519116919082907f8be0079c531659141344cd1fd0a4f28419497f9722a3daafe3b4186f6b6457e090600090a35050565b610d08610e72565b6065805460ff191690557f5db9ee0a495bf2e6ff9c91a7834c1ba4fdd244a5e8aa4e537bd38aeae4b073aa33610c79565b60655460ff16156104315760405162461bcd60e51b815260206004820152601060248201527f5061757361626c653a207061757365640000000000000000000000000000000060448201526064016103cf565b600054610100900460ff16610df75760405162461bcd60e51b815260206004820152602b60248201527f496e697469616c697a61626c653a20636f6e7472616374206973206e6f74206960448201526a6e697469616c697a696e6760a81b60648201526084016103cf565b610431610ec4565b600054610100900460ff16610e6a5760405162461bcd60e51b815260206004820152602b60248201527f496e697469616c697a61626c653a20636f6e7472616374206973206e6f74206960448201526a6e697469616c697a696e6760a81b60648201526084016103cf565b610431610f38565b60655460ff166104315760405162461bcd60e51b815260206004820152601460248201527f5061757361626c653a206e6f742070617573656400000000000000000000000060448201526064016103cf565b600054610100900460ff16610f2f5760405162461bcd60e51b815260206004820152602b60248201527f496e697469616c697a61626c653a20636f6e7472616374206973206e6f74206960448201526a6e697469616c697a696e6760a81b60648201526084016103cf565b61043133610c96565b600054610100900460ff16610fa35760405162461bcd60e51b815260206004820152602b60248201527f496e697469616c697a61626c653a20636f6e7472616374206973206e6f74206960448201526a6e697469616c697a696e6760a81b60648201526084016103cf565b6065805460ff19169055565b6001600160a01b0381168114610aa957600080fd5b80357fffffffff0000000000000000000000000000000000000000000000000000000081168114610ff457600080fd5b919050565b6000806040838503121561100c57600080fd5b823561101781610faf565b915061102560208401610fc4565b90509250929050565b60006020828403121561104057600080fd5b813561035c81610faf565b634e487b7160e01b600052604160045260246000fd5b604051601f8201601f1916810167ffffffffffffffff8111828210171561108a5761108a61104b565b604052919050565b6000601f83818401126110a457600080fd5b8235602067ffffffffffffffff808311156110c1576110c161104b565b8260051b6110d0838201611061565b93845286810183019383810190898611156110ea57600080fd5b84890192505b8583101561117a578235848111156111085760008081fd5b8901603f81018b1361111a5760008081fd5b858101356040868211156111305761113061104b565b61114188601f198c85011601611061565b8281528d828486010111156111565760008081fd5b828285018a83013760009281018901929092525083525091840191908401906110f0565b9998505050505050505050565b6000806040838503121561119a57600080fd5b82356111a581610faf565b9150602083013567ffffffffffffffff8111156111c157600080fd5b6111cd85828601611092565b9150509250929050565b6000806000604084860312156111ec57600080fd5b83356111f781610faf565b9250602084013567ffffffffffffffff8082111561121457600080fd5b818601915086601f83011261122857600080fd5b81358181111561123757600080fd5b8760208260051b850101111561124c57600080fd5b6020830194508093505050509250925092565b6020808252825182820181905260009190848201906040850190845b8181101561129957835115158352928401929184019160010161127b565b50909695505050505050565b6000806000606084860312156112ba57600080fd5b83356112c581610faf565b925060208401356112d581610faf565b9150604084013567ffffffffffffffff8111156112f157600080fd5b6112fd86828701611092565b9150509250925092565b60006020828403121561131957600080fd5b8151801515811461035c57600080fd5b600081518084526020808501808196508360051b810191508286016000805b868110156113a0578385038a5282518051808752835b81811015611379578281018901518882018a0152880161135e565b5086810188018490529a87019a601f01601f19169095018601945091850191600101611348565b509298975050505050505050565b6001600160a01b03831681526040602082015260006113d06040830184611329565b949350505050565b60208152600061035c6020830184611329565b634e487b7160e01b600052603260045260246000fd5b60006020828403121561141357600080fd5b61035c82610fc4565b60007fffffffffffffffffffffffffffffffffffffffffffffffffffffffffffffffff820361145b57634e487b7160e01b600052601160045260246000fd5b506001019056fe72657175657374546f436c6f7365506f736974696f6e2875696e743235362c75696e743235362c75696e743235362c75696e74382c75696e7432353629a264697066735822122048cbcc61663fa2f9d55ee80b57ea98c31930f99cb769435a1365e479a2baa70464736f6c63430008120033",
  "linkReferences": {},
  "deployedLinkReferences": {}
}