{
  "_format": "hh-sol-artifact-1",
  "contractName": "SymmExecutorUpgradeable",
  "sourceName": "contracts/SymmExecutorUpgradeable.sol",
  "abi": [
    {
      "inputs": [],
      "stateMutability": "nonpayable",
      "type": "constructor"
    },
    {
      "inputs": [],
      "name": "EnforcedPause",
      "type": "error"
    },
    {
      "inputs": [],
      "name": "ExpectedPause",
      "type": "error"
    },
    {
      "inputs": [],
      "name": "InvalidInitialization",
      "type": "error"
    },
    {
      "inputs": [],
      "name": "NotInitializing",
      "type": "error"
    },
    {
      "inputs": [
        {
          "internalType": "address",
          "name": "owner",
          "type": "address"
        }
      ],
      "name": "OwnableInvalidOwner",
      "type": "error"
    },
    {
      "inputs": [
        {
          "internalType": "address",
          "name": "account",
          "type": "address"
        }
      ],
      "name": "OwnableUnauthorizedAccount",
      "type": "error"
    },
    {
      "anonymous": false,
      "inputs": [
        {
          "indexed": false,
          "internalType": "uint64",
          "name": "version",
          "type": "uint64"
        }
      ],
      "name": "Initialized",
      "type": "event"
    },
    {
      "anonymous": false,
      "inputs": [
        {
          "indexed": true,
          "internalType": "address",
          "name": "previousOwner",
          "type": "address"
        },
        {
          "indexed": true,
          "internalType": "address",
          "name": "newOwner",
          "type": "address"
        }
      ],
      "name": "OwnershipTransferred",
      "type": "event"
    },
    {
      "anonymous": false,
      "inputs": [
        {
          "indexed": false,
          "internalType": "address",
          "name": "account",
          "type": "address"
        }
      ],
      "name": "Paused",
      "type": "event"
    },
    {
      "anonymous": false,
      "inputs": [
        {
          "indexed": false,
          "internalType": "address",
          "name": "account",
          "type": "address"
        }
      ],
      "name": "Unpaused",
      "type": "event"
    },
    {
      "anonymous": false,
      "inputs": [
        {
          "indexed": true,
          "internalType": "address",
          "name": "keeper",
          "type": "address"
        },
        {
          "indexed": true,
          "internalType": "address",
          "name": "account",
          "type": "address"
        },
        {
          "indexed": false,
          "internalType": "bytes[]",
          "name": "_callDatas",
          "type": "bytes[]"
        }
      ],
      "name": "executed",
      "type": "event"
    },
    {
      "anonymous": false,
      "inputs": [
        {
          "indexed": true,
          "internalType": "address",
          "name": "keeper",
          "type": "address"
        }
      ],
      "name": "keeperAdded",
      "type": "event"
    },
    {
      "anonymous": false,
      "inputs": [
        {
          "indexed": true,
          "internalType": "address",
          "name": "keeper",
          "type": "address"
        }
      ],
      "name": "keeperRemoved",
      "type": "event"
    },
    {
      "inputs": [
        {
          "internalType": "address",
          "name": "account",
          "type": "address"
        },
        {
          "internalType": "bytes[]",
          "name": "_callDatas",
          "type": "bytes[]"
        }
      ],
      "name": "_call",
      "outputs": [],
      "stateMutability": "nonpayable",
      "type": "function"
    },
    {
      "inputs": [
        {
          "internalType": "contract MultiAccount",
          "name": "_multiAccount",
          "type": "address"
        },
        {
          "internalType": "address",
          "name": "account",
          "type": "address"
        },
        {
          "internalType": "bytes[]",
          "name": "_callDatas",
          "type": "bytes[]"
        }
      ],
      "name": "_call2",
      "outputs": [],
      "stateMutability": "nonpayable",
      "type": "function"
    },
    {
      "inputs": [
        {
          "internalType": "address",
          "name": "_who",
          "type": "address"
        }
      ],
      "name": "addKeeper",
      "outputs": [],
      "stateMutability": "nonpayable",
      "type": "function"
    },
    {
      "inputs": [
        {
          "internalType": "address",
          "name": "account",
          "type": "address"
        },
        {
          "internalType": "bytes4",
          "name": "selector",
          "type": "bytes4"
        }
      ],
      "name": "hasDelegated",
      "outputs": [
        {
          "internalType": "bool",
          "name": "",
          "type": "bool"
        }
      ],
      "stateMutability": "view",
      "type": "function"
    },
    {
      "inputs": [
        {
          "internalType": "address",
          "name": "account",
          "type": "address"
        }
      ],
      "name": "hasDelegated",
      "outputs": [
        {
          "internalType": "bool",
          "name": "",
          "type": "bool"
        }
      ],
      "stateMutability": "view",
      "type": "function"
    },
    {
      "inputs": [
        {
          "internalType": "address",
          "name": "account",
          "type": "address"
        },
        {
          "internalType": "bytes4[]",
          "name": "selector",
          "type": "bytes4[]"
        }
      ],
      "name": "hasDelegated",
      "outputs": [
        {
          "internalType": "bool[]",
          "name": "_hasDelegated",
          "type": "bool[]"
        }
      ],
      "stateMutability": "view",
      "type": "function"
    },
    {
      "inputs": [
        {
          "internalType": "address",
          "name": "_multiAccount",
          "type": "address"
        }
      ],
      "name": "initialize",
      "outputs": [],
      "stateMutability": "nonpayable",
      "type": "function"
    },
    {
      "inputs": [
        {
          "internalType": "address",
          "name": "",
          "type": "address"
        }
      ],
      "name": "isKeeper",
      "outputs": [
        {
          "internalType": "bool",
          "name": "",
          "type": "bool"
        }
      ],
      "stateMutability": "view",
      "type": "function"
    },
    {
      "inputs": [],
      "name": "multiAccount",
      "outputs": [
        {
          "internalType": "contract MultiAccount",
          "name": "",
          "type": "address"
        }
      ],
      "stateMutability": "view",
      "type": "function"
    },
    {
      "inputs": [],
      "name": "owner",
      "outputs": [
        {
          "internalType": "address",
          "name": "",
          "type": "address"
        }
      ],
      "stateMutability": "view",
      "type": "function"
    },
    {
      "inputs": [],
      "name": "pauseExecution",
      "outputs": [],
      "stateMutability": "nonpayable",
      "type": "function"
    },
    {
      "inputs": [],
      "name": "paused",
      "outputs": [
        {
          "internalType": "bool",
          "name": "",
          "type": "bool"
        }
      ],
      "stateMutability": "view",
      "type": "function"
    },
    {
      "inputs": [
        {
          "internalType": "address",
          "name": "_who",
          "type": "address"
        }
      ],
      "name": "removeKeeper",
      "outputs": [],
      "stateMutability": "nonpayable",
      "type": "function"
    },
    {
      "inputs": [],
      "name": "renounceOwnership",
      "outputs": [],
      "stateMutability": "nonpayable",
      "type": "function"
    },
    {
      "inputs": [],
      "name": "requestToClosePositionSelector",
      "outputs": [
        {
          "internalType": "bytes4",
          "name": "",
          "type": "bytes4"
        }
      ],
      "stateMutability": "view",
      "type": "function"
    },
    {
      "inputs": [
        {
          "internalType": "address",
          "name": "newOwner",
          "type": "address"
        }
      ],
      "name": "transferOwnership",
      "outputs": [],
      "stateMutability": "nonpayable",
      "type": "function"
    },
    {
      "inputs": [],
      "name": "unpauseExecution",
      "outputs": [],
      "stateMutability": "nonpayable",
      "type": "function"
    }
  ],
  "bytecode": "0x6080604052348015600f57600080fd5b506016601a565b60ca565b7ff0c57e16840df040f15088dc2f81fe391c3923bec73e23a9662efc9c229c6a00805468010000000000000000900460ff161560695760405163f92ee8a960e01b815260040160405180910390fd5b80546001600160401b039081161460c75780546001600160401b0319166001600160401b0390811782556040519081527fc7f505b2f371ae2175ee4913f4499e1f2633a7b5936321eed1cdaeb6115181d29060200160405180910390a15b50565b61145b806100d96000396000f3fe608060405234801561001057600080fd5b506004361061011b5760003560e01c8063859806cc116100b2578063bd367d8e11610081578063c73cd7ec11610066578063c73cd7ec1461029e578063f2fde38b146102be578063f304ee40146102d157600080fd5b8063bd367d8e14610278578063c4d66de81461028b57600080fd5b8063859806cc146102065780638da5cb5b1461020e57806390ae933714610252578063b70a73b01461026557600080fd5b80634140f0dd116100ee5780634140f0dd146101785780635c975abb146101b15780636ba42aaa146101db578063715018a6146101fe57600080fd5b80630741ec4d1461012057806314ae9f2e146101485780631f041ec61461015d5780634032b72b14610165575b600080fd5b61013361012e366004610f72565b6102e4565b60405190151581526020015b60405180910390f35b61015b610156366004610fa7565b6103a1565b005b61015b61045f565b61015b610173366004610fa7565b610471565b610180610557565b6040517fffffffff00000000000000000000000000000000000000000000000000000000909116815260200161013f565b7fcd5ed15c6e187e77e9aee88184c21f4f2182ab5827cb3b7e07fbedcd63f033005460ff16610133565b6101336101e9366004610fa7565b60016020526000908152604090205460ff1681565b61015b61057a565b61015b61058c565b7f9016d09d72d40fdae2fd8ceac6b6234c7706214fd39c1cd1e609a0528c199300546001600160a01b03165b6040516001600160a01b03909116815260200161013f565b610133610260366004610fa7565b61059c565b60005461023a906001600160a01b031681565b61015b61028636600461112b565b61066e565b61015b610299366004610fa7565b6107a7565b6102b16102ac36600461117b565b610922565b60405161013f9190611205565b61015b6102cc366004610fa7565b610a73565b61015b6102df36600461124a565b610aca565b600080546040517fb9c9b3f20000000000000000000000000000000000000000000000000000000081526001600160a01b0385811660048301523060248301527fffffffff00000000000000000000000000000000000000000000000000000000851660448301529091169063b9c9b3f290606401602060405180830381865afa158015610376573d6000803e3d6000fd5b505050506040513d601f19601f8201168201806040525081019061039a91906112ac565b9392505050565b6103a9610c00565b6001600160a01b03811660009081526001602052604090205460ff166104165760405162461bcd60e51b815260206004820152601c60248201527f5468697320616464726573732069736e27742061206b65657065722e0000000060448201526064015b60405180910390fd5b6001600160a01b038116600081815260016020526040808220805460ff19169055517f3432fdb95490c1eb51a3dec1d387050691e75694ce0da51d8b9a3a20e158ac779190a250565b610467610c00565b61046f610c74565b565b610479610c00565b6001600160a01b03811660009081526001602052604090205460ff16156105085760405162461bcd60e51b815260206004820152602160248201527f54686973206164647265737320697320616c72656164792061206b656570657260448201527f2e00000000000000000000000000000000000000000000000000000000000000606482015260840161040d565b6001600160a01b0381166000818152600160208190526040808320805460ff1916909217909155517faa189952d1f77049b9948cfc6db230ce8dbbafc83f4dbcf01f16a202bc5cfdd49190a250565b6040518060600160405280603d81526020016113e9603d91398051906020012081565b610582610c00565b61046f6000610ce9565b610594610c00565b61046f610d72565b600080546040805160608101909152603d8082526001600160a01b039092169163b9c9b3f29185913091906113e96020830139805160209091012060405160e085901b7fffffffff0000000000000000000000000000000000000000000000000000000090811682526001600160a01b039485166004830152929093166024840152166044820152606401602060405180830381865afa158015610644573d6000803e3d6000fd5b505050506040513d601f19601f8201168201806040525081019061066891906112ac565b92915050565b3360009081526001602052604090205460ff166106cd5760405162461bcd60e51b815260206004820152601b60248201527f5468697320616464726573732069736e27742061206b65657065720000000000604482015260640161040d565b6106d5610dca565b6000546040517fbd367d8e0000000000000000000000000000000000000000000000000000000081526001600160a01b039091169063bd367d8e906107209085908590600401611361565b600060405180830381600087803b15801561073a57600080fd5b505af115801561074e573d6000803e3d6000fd5b50505050816001600160a01b03166107633390565b6001600160a01b03167f0ca3106c6105c4bc8d63601e43325f0f1bf9f13a3af8aa1d4d812d358d473c708360405161079b919061138b565b60405180910390a35050565b60006107b1610e26565b805490915060ff68010000000000000000820416159067ffffffffffffffff166000811580156107de5750825b905060008267ffffffffffffffff1660011480156107fb5750303b155b905081158015610809575080155b15610840576040517ff92ee8a900000000000000000000000000000000000000000000000000000000815260040160405180910390fd5b84547fffffffffffffffffffffffffffffffffffffffffffffffff0000000000000000166001178555831561088b57845468ff00000000000000001916680100000000000000001785555b61089433610e4f565b61089c610e60565b600080547fffffffffffffffffffffffff0000000000000000000000000000000000000000166001600160a01b038816179055831561091a57845468ff000000000000000019168555604051600181527fc7f505b2f371ae2175ee4913f4499e1f2633a7b5936321eed1cdaeb6115181d29060200160405180910390a15b505050505050565b6060818067ffffffffffffffff81111561093e5761093e610fc4565b604051908082528060200260200182016040528015610967578160200160208202803683370190505b50915060005b81811015610a6a576000546001600160a01b031663b9c9b3f2873088888681811061099a5761099a61139e565b90506020020160208101906109af91906113cd565b60405160e085901b7fffffffff0000000000000000000000000000000000000000000000000000000090811682526001600160a01b039485166004830152929093166024840152166044820152606401602060405180830381865afa158015610a1c573d6000803e3d6000fd5b505050506040513d601f19601f82011682018060405250810190610a4091906112ac565b838281518110610a5257610a5261139e565b9115156020928302919091019091015260010161096d565b50509392505050565b610a7b610c00565b6001600160a01b038116610abe576040517f1e4fbdf70000000000000000000000000000000000000000000000000000000081526000600482015260240161040d565b610ac781610ce9565b50565b3360009081526001602052604090205460ff16610b295760405162461bcd60e51b815260206004820152601b60248201527f5468697320616464726573732069736e27742061206b65657065720000000000604482015260640161040d565b610b31610dca565b6040517fbd367d8e0000000000000000000000000000000000000000000000000000000081526001600160a01b0384169063bd367d8e90610b789085908590600401611361565b600060405180830381600087803b158015610b9257600080fd5b505af1158015610ba6573d6000803e3d6000fd5b50505050816001600160a01b0316610bbb3390565b6001600160a01b03167f0ca3106c6105c4bc8d63601e43325f0f1bf9f13a3af8aa1d4d812d358d473c7083604051610bf3919061138b565b60405180910390a3505050565b33610c327f9016d09d72d40fdae2fd8ceac6b6234c7706214fd39c1cd1e609a0528c199300546001600160a01b031690565b6001600160a01b03161461046f576040517f118cdaa700000000000000000000000000000000000000000000000000000000815233600482015260240161040d565b610c7c610dca565b7fcd5ed15c6e187e77e9aee88184c21f4f2182ab5827cb3b7e07fbedcd63f03300805460ff191660011781557f62e78cea01bee320cd4e420270b5ea74000d11b0c9f74754ebdbfc544b05a258335b6040516001600160a01b03909116815260200160405180910390a150565b7f9016d09d72d40fdae2fd8ceac6b6234c7706214fd39c1cd1e609a0528c19930080547fffffffffffffffffffffffff000000000000000000000000000000000000000081166001600160a01b03848116918217845560405192169182907f8be0079c531659141344cd1fd0a4f28419497f9722a3daafe3b4186f6b6457e090600090a3505050565b610d7a610e68565b7fcd5ed15c6e187e77e9aee88184c21f4f2182ab5827cb3b7e07fbedcd63f03300805460ff191681557f5db9ee0a495bf2e6ff9c91a7834c1ba4fdd244a5e8aa4e537bd38aeae4b073aa33610ccb565b7fcd5ed15c6e187e77e9aee88184c21f4f2182ab5827cb3b7e07fbedcd63f033005460ff161561046f576040517fd93c066500000000000000000000000000000000000000000000000000000000815260040160405180910390fd5b6000807ff0c57e16840df040f15088dc2f81fe391c3923bec73e23a9662efc9c229c6a00610668565b610e57610ec3565b610ac781610f01565b61046f610ec3565b7fcd5ed15c6e187e77e9aee88184c21f4f2182ab5827cb3b7e07fbedcd63f033005460ff1661046f576040517f8dfc202b00000000000000000000000000000000000000000000000000000000815260040160405180910390fd5b610ecb610f09565b61046f576040517fd7e6bcf800000000000000000000000000000000000000000000000000000000815260040160405180910390fd5b610a7b610ec3565b6000610f13610e26565b5468010000000000000000900460ff16919050565b6001600160a01b0381168114610ac757600080fd5b80357fffffffff0000000000000000000000000000000000000000000000000000000081168114610f6d57600080fd5b919050565b60008060408385031215610f8557600080fd5b8235610f9081610f28565b9150610f9e60208401610f3d565b90509250929050565b600060208284031215610fb957600080fd5b813561039a81610f28565b7f4e487b7100000000000000000000000000000000000000000000000000000000600052604160045260246000fd5b604051601f8201601f1916810167ffffffffffffffff8111828210171561101c5761101c610fc4565b604052919050565b600082601f83011261103557600080fd5b813567ffffffffffffffff81111561104f5761104f610fc4565b8060051b61105f60208201610ff3565b9182526020818501810192908101908684111561107b57600080fd5b6020860192505b8383101561112157823567ffffffffffffffff8111156110a157600080fd5b8601603f810188136110b257600080fd5b602081013567ffffffffffffffff8111156110cf576110cf610fc4565b6110e26020601f19601f84011601610ff3565b8181526040838301018a10156110f757600080fd5b81604084016020830137600060208383010152808552505050602082019150602083019250611082565b9695505050505050565b6000806040838503121561113e57600080fd5b823561114981610f28565b9150602083013567ffffffffffffffff81111561116557600080fd5b61117185828601611024565b9150509250929050565b60008060006040848603121561119057600080fd5b833561119b81610f28565b9250602084013567ffffffffffffffff8111156111b757600080fd5b8401601f810186136111c857600080fd5b803567ffffffffffffffff8111156111df57600080fd5b8660208260051b84010111156111f457600080fd5b939660209190910195509293505050565b602080825282518282018190526000918401906040840190835b8181101561123f578351151583526020938401939092019160010161121f565b509095945050505050565b60008060006060848603121561125f57600080fd5b833561126a81610f28565b9250602084013561127a81610f28565b9150604084013567ffffffffffffffff81111561129657600080fd5b6112a286828701611024565b9150509250925092565b6000602082840312156112be57600080fd5b8151801515811461039a57600080fd5b600082825180855260208501945060208160051b8301016020850160005b8381101561135557601f198584030188528151805180855260005b8181101561132357602081840181015187830182015201611307565b506000602082870101526020601f19601f830116860101945050506020820191506020880197506001810190506112ec565b50909695505050505050565b6001600160a01b038316815260406020820152600061138360408301846112ce565b949350505050565b60208152600061039a60208301846112ce565b7f4e487b7100000000000000000000000000000000000000000000000000000000600052603260045260246000fd5b6000602082840312156113df57600080fd5b61039a82610f3d56fe72657175657374546f436c6f7365506f736974696f6e2875696e743235362c75696e743235362c75696e743235362c75696e74382c75696e7432353629a2646970667358221220556d6f20964baea1a108be17b82774bedc98e245401d430a091f4c0ca22e4d8f64736f6c634300081c0033",
  "linkReferences": {},
  "deployedLinkReferences": {}
}