{
  "_format": "hh-sol-artifact-1",
  "contractName": "SymmExecutorUpgradeable",
  "sourceName": "contracts/SymmExecutorUpgradeable.sol",
  "abi": [
    {
      "inputs": [],
      "stateMutability": "nonpayable",
      "type": "constructor"
    },
    {
      "anonymous": false,
      "inputs": [
        {
          "indexed": false,
          "internalType": "uint8",
          "name": "version",
          "type": "uint8"
        }
      ],
      "name": "Initialized",
      "type": "event"
    },
    {
      "anonymous": false,
      "inputs": [
        {
          "indexed": true,
          "internalType": "address",
          "name": "previousOwner",
          "type": "address"
        },
        {
          "indexed": true,
          "internalType": "address",
          "name": "newOwner",
          "type": "address"
        }
      ],
      "name": "OwnershipTransferred",
      "type": "event"
    },
    {
      "anonymous": false,
      "inputs": [
        {
          "indexed": false,
          "internalType": "address",
          "name": "account",
          "type": "address"
        }
      ],
      "name": "Paused",
      "type": "event"
    },
    {
      "anonymous": false,
      "inputs": [
        {
          "indexed": false,
          "internalType": "address",
          "name": "account",
          "type": "address"
        }
      ],
      "name": "Unpaused",
      "type": "event"
    },
    {
      "anonymous": false,
      "inputs": [
        {
          "indexed": true,
          "internalType": "address",
          "name": "keeper",
          "type": "address"
        },
        {
          "indexed": true,
          "internalType": "address",
          "name": "account",
          "type": "address"
        },
        {
          "indexed": false,
          "internalType": "bytes[]",
          "name": "_callDatas",
          "type": "bytes[]"
        }
      ],
      "name": "executed",
      "type": "event"
    },
    {
      "anonymous": false,
      "inputs": [
        {
          "indexed": true,
          "internalType": "address",
          "name": "keeper",
          "type": "address"
        }
      ],
      "name": "keeperAdded",
      "type": "event"
    },
    {
      "anonymous": false,
      "inputs": [
        {
          "indexed": true,
          "internalType": "address",
          "name": "keeper",
          "type": "address"
        }
      ],
      "name": "keeperRemoved",
      "type": "event"
    },
    {
      "inputs": [
        {
          "internalType": "address",
          "name": "account",
          "type": "address"
        },
        {
          "internalType": "bytes[]",
          "name": "_callDatas",
          "type": "bytes[]"
        }
      ],
      "name": "_call",
      "outputs": [],
      "stateMutability": "nonpayable",
      "type": "function"
    },
    {
      "inputs": [
        {
          "internalType": "address",
          "name": "_who",
          "type": "address"
        }
      ],
      "name": "addKeeper",
      "outputs": [],
      "stateMutability": "nonpayable",
      "type": "function"
    },
    {
      "inputs": [
        {
          "internalType": "address",
          "name": "account",
          "type": "address"
        }
      ],
      "name": "hasDelegated",
      "outputs": [
        {
          "internalType": "bool",
          "name": "",
          "type": "bool"
        }
      ],
      "stateMutability": "view",
      "type": "function"
    },
    {
      "inputs": [
        {
          "internalType": "address",
          "name": "_multiAccount",
          "type": "address"
        }
      ],
      "name": "initialize",
      "outputs": [],
      "stateMutability": "nonpayable",
      "type": "function"
    },
    {
      "inputs": [
        {
          "internalType": "address",
          "name": "",
          "type": "address"
        }
      ],
      "name": "isKeeper",
      "outputs": [
        {
          "internalType": "bool",
          "name": "",
          "type": "bool"
        }
      ],
      "stateMutability": "view",
      "type": "function"
    },
    {
      "inputs": [],
      "name": "multiAccount",
      "outputs": [
        {
          "internalType": "contract MultiAccount",
          "name": "",
          "type": "address"
        }
      ],
      "stateMutability": "view",
      "type": "function"
    },
    {
      "inputs": [],
      "name": "owner",
      "outputs": [
        {
          "internalType": "address",
          "name": "",
          "type": "address"
        }
      ],
      "stateMutability": "view",
      "type": "function"
    },
    {
      "inputs": [],
      "name": "pauseExecution",
      "outputs": [],
      "stateMutability": "nonpayable",
      "type": "function"
    },
    {
      "inputs": [],
      "name": "paused",
      "outputs": [
        {
          "internalType": "bool",
          "name": "",
          "type": "bool"
        }
      ],
      "stateMutability": "view",
      "type": "function"
    },
    {
      "inputs": [
        {
          "internalType": "address",
          "name": "_who",
          "type": "address"
        }
      ],
      "name": "removeKeeper",
      "outputs": [],
      "stateMutability": "nonpayable",
      "type": "function"
    },
    {
      "inputs": [],
      "name": "renounceOwnership",
      "outputs": [],
      "stateMutability": "nonpayable",
      "type": "function"
    },
    {
      "inputs": [],
      "name": "requestToClosePositionSelector",
      "outputs": [
        {
          "internalType": "bytes4",
          "name": "",
          "type": "bytes4"
        }
      ],
      "stateMutability": "view",
      "type": "function"
    },
    {
      "inputs": [
        {
          "internalType": "address",
          "name": "newOwner",
          "type": "address"
        }
      ],
      "name": "transferOwnership",
      "outputs": [],
      "stateMutability": "nonpayable",
      "type": "function"
    },
    {
      "inputs": [],
      "name": "unpauseExecution",
      "outputs": [],
      "stateMutability": "nonpayable",
      "type": "function"
    }
  ],
  "bytecode": "0x608060405234801561001057600080fd5b5061001961001e565b6100dd565b600054610100900460ff161561008a5760405162461bcd60e51b815260206004820152602760248201527f496e697469616c697a61626c653a20636f6e747261637420697320696e697469604482015266616c697a696e6760c81b606482015260840160405180910390fd5b60005460ff908116146100db576000805460ff191660ff9081179091556040519081527f7f26b83ff96e1f2b6a682f133852f6798a09c465da95921460cefb38474024989060200160405180910390a15b565b610f06806100ec6000396000f3fe608060405234801561001057600080fd5b50600436106100ea5760003560e01c8063859806cc1161008c578063b70a73b011610066578063b70a73b0146101df578063bd367d8e146101f2578063c4d66de814610205578063f2fde38b1461021857600080fd5b8063859806cc1461019f5780638da5cb5b146101a757806390ae9337146101cc57600080fd5b80634140f0dd116100c85780634140f0dd1461011f5780635c975abb1461015d5780636ba42aaa14610174578063715018a61461019757600080fd5b806314ae9f2e146100ef5780631f041ec6146101045780634032b72b1461010c575b600080fd5b6101026100fd366004610c02565b61022b565b005b6101026102e9565b61010261011a366004610c02565b6102fb565b6101276103de565b6040517fffffffff0000000000000000000000000000000000000000000000000000000090911681526020015b60405180910390f35b60655460ff165b6040519015158152602001610154565b610164610182366004610c02565b60986020526000908152604090205460ff1681565b610102610401565b610102610413565b6033546001600160a01b03165b6040516001600160a01b039091168152602001610154565b6101646101da366004610c02565b610423565b6097546101b4906001600160a01b031681565b610102610200366004610c84565b6104f4565b610102610213366004610c02565b61062d565b610102610226366004610c02565b610789565b610233610819565b6001600160a01b03811660009081526098602052604090205460ff166102a05760405162461bcd60e51b815260206004820152601c60248201527f5468697320616464726573732069736e27742061206b65657065722e0000000060448201526064015b60405180910390fd5b6001600160a01b038116600081815260986020526040808220805460ff19169055517f3432fdb95490c1eb51a3dec1d387050691e75694ce0da51d8b9a3a20e158ac779190a250565b6102f1610819565b6102f9610873565b565b610303610819565b6001600160a01b03811660009081526098602052604090205460ff16156103925760405162461bcd60e51b815260206004820152602160248201527f54686973206164647265737320697320616c72656164792061206b656570657260448201527f2e000000000000000000000000000000000000000000000000000000000000006064820152608401610297565b6001600160a01b038116600081815260986020526040808220805460ff19166001179055517faa189952d1f77049b9948cfc6db230ce8dbbafc83f4dbcf01f16a202bc5cfdd49190a250565b6040518060600160405280603d8152602001610e94603d91398051906020012081565b610409610819565b6102f960006108cd565b61041b610819565b6102f9610937565b6097546040805160608101909152603d8082526000926001600160a01b03169163b9c9b3f29185913091610e946020830139805160209091012060405160e085901b7fffffffff0000000000000000000000000000000000000000000000000000000090811682526001600160a01b039485166004830152929093166024840152166044820152606401602060405180830381865afa1580156104ca573d6000803e3d6000fd5b505050506040513d601f19601f820116820180604052508101906104ee9190610daf565b92915050565b3360009081526098602052604090205460ff166105535760405162461bcd60e51b815260206004820152601b60248201527f5468697320616464726573732069736e27742061206b656570657200000000006044820152606401610297565b61055b610970565b6097546040517fbd367d8e0000000000000000000000000000000000000000000000000000000081526001600160a01b039091169063bd367d8e906105a69085908590600401610e56565b600060405180830381600087803b1580156105c057600080fd5b505af11580156105d4573d6000803e3d6000fd5b50505050816001600160a01b03166105e93390565b6001600160a01b03167f0ca3106c6105c4bc8d63601e43325f0f1bf9f13a3af8aa1d4d812d358d473c70836040516106219190610e80565b60405180910390a35050565b600054610100900460ff161580801561064d5750600054600160ff909116105b806106675750303b158015610667575060005460ff166001145b6106d95760405162461bcd60e51b815260206004820152602e60248201527f496e697469616c697a61626c653a20636f6e747261637420697320616c72656160448201527f647920696e697469616c697a65640000000000000000000000000000000000006064820152608401610297565b6000805460ff1916600117905580156106fc576000805461ff0019166101001790555b6107046109c3565b61070c610a36565b609780547fffffffffffffffffffffffff0000000000000000000000000000000000000000166001600160a01b0384161790558015610785576000805461ff0019169055604051600181527f7f26b83ff96e1f2b6a682f133852f6798a09c465da95921460cefb38474024989060200160405180910390a15b5050565b610791610819565b6001600160a01b03811661080d5760405162461bcd60e51b815260206004820152602660248201527f4f776e61626c653a206e6577206f776e657220697320746865207a65726f206160448201527f64647265737300000000000000000000000000000000000000000000000000006064820152608401610297565b610816816108cd565b50565b6033546001600160a01b031633146102f95760405162461bcd60e51b815260206004820181905260248201527f4f776e61626c653a2063616c6c6572206973206e6f7420746865206f776e65726044820152606401610297565b61087b610970565b6065805460ff191660011790557f62e78cea01bee320cd4e420270b5ea74000d11b0c9f74754ebdbfc544b05a2586108b03390565b6040516001600160a01b03909116815260200160405180910390a1565b603380546001600160a01b038381167fffffffffffffffffffffffff0000000000000000000000000000000000000000831681179093556040519116919082907f8be0079c531659141344cd1fd0a4f28419497f9722a3daafe3b4186f6b6457e090600090a35050565b61093f610aa9565b6065805460ff191690557f5db9ee0a495bf2e6ff9c91a7834c1ba4fdd244a5e8aa4e537bd38aeae4b073aa336108b0565b60655460ff16156102f95760405162461bcd60e51b815260206004820152601060248201527f5061757361626c653a20706175736564000000000000000000000000000000006044820152606401610297565b600054610100900460ff16610a2e5760405162461bcd60e51b815260206004820152602b60248201527f496e697469616c697a61626c653a20636f6e7472616374206973206e6f74206960448201526a6e697469616c697a696e6760a81b6064820152608401610297565b6102f9610afb565b600054610100900460ff16610aa15760405162461bcd60e51b815260206004820152602b60248201527f496e697469616c697a61626c653a20636f6e7472616374206973206e6f74206960448201526a6e697469616c697a696e6760a81b6064820152608401610297565b6102f9610b6f565b60655460ff166102f95760405162461bcd60e51b815260206004820152601460248201527f5061757361626c653a206e6f74207061757365640000000000000000000000006044820152606401610297565b600054610100900460ff16610b665760405162461bcd60e51b815260206004820152602b60248201527f496e697469616c697a61626c653a20636f6e7472616374206973206e6f74206960448201526a6e697469616c697a696e6760a81b6064820152608401610297565b6102f9336108cd565b600054610100900460ff16610bda5760405162461bcd60e51b815260206004820152602b60248201527f496e697469616c697a61626c653a20636f6e7472616374206973206e6f74206960448201526a6e697469616c697a696e6760a81b6064820152608401610297565b6065805460ff19169055565b80356001600160a01b0381168114610bfd57600080fd5b919050565b600060208284031215610c1457600080fd5b610c1d82610be6565b9392505050565b7f4e487b7100000000000000000000000000000000000000000000000000000000600052604160045260246000fd5b604051601f8201601f1916810167ffffffffffffffff81118282101715610c7c57610c7c610c24565b604052919050565b6000806040808486031215610c9857600080fd5b610ca184610be6565b925060208085013567ffffffffffffffff80821115610cbf57600080fd5b8187019150601f8881840112610cd457600080fd5b823582811115610ce657610ce6610c24565b8060051b610cf5868201610c53565b918252848101860191868101908c841115610d0f57600080fd5b87870192505b83831015610d9c57823586811115610d2d5760008081fd5b8701603f81018e13610d3f5760008081fd5b8881013587811115610d5357610d53610c24565b610d648a601f198984011601610c53565b8181528f8c838501011115610d795760008081fd5b818c84018c83013760009181018b01919091528352509187019190870190610d15565b8099505050505050505050509250929050565b600060208284031215610dc157600080fd5b81518015158114610c1d57600080fd5b600081518084526020808501808196508360051b810191508286016000805b86811015610e48578385038a5282518051808752835b81811015610e21578281018901518882018a01528801610e06565b5086810188018490529a87019a601f01601f19169095018601945091850191600101610df0565b509298975050505050505050565b6001600160a01b0383168152604060208201526000610e786040830184610dd1565b949350505050565b602081526000610c1d6020830184610dd156fe72657175657374546f436c6f7365506f736974696f6e2875696e743235362c75696e743235362c75696e743235362c75696e74382c75696e7432353629a26469706673582212207d637d1ed021c27427f7dded7ce5926918adf44dc75594249a72dd97ec1ca73664736f6c63430008120033",
  "linkReferences": {},
  "deployedLinkReferences": {}
}