{
  "_format": "hh-sol-artifact-1",
  "contractName": "SnapshotAPI",
  "sourceName": "contracts/apis/SnapshotAPI.sol",
  "abi": [
    {
      "inputs": [
        {
          "internalType": "uint256[][]",
          "name": "tokenIds_",
          "type": "uint256[][]"
        }
      ],
      "name": "checkINTXBalanceOfTokenIds",
      "outputs": [
        {
          "internalType": "uint256[]",
          "name": "intxBalances",
          "type": "uint256[]"
        }
      ],
      "stateMutability": "view",
      "type": "function"
    },
    {
      "inputs": [
        {
          "internalType": "address[]",
          "name": "users_",
          "type": "address[]"
        }
      ],
      "name": "checkSnapshotBalanceINTX",
      "outputs": [
        {
          "internalType": "uint256[]",
          "name": "",
          "type": "uint256[]"
        }
      ],
      "stateMutability": "pure",
      "type": "function"
    },
    {
      "inputs": [],
      "name": "xINTX",
      "outputs": [
        {
          "internalType": "address",
          "name": "",
          "type": "address"
        }
      ],
      "stateMutability": "view",
      "type": "function"
    }
  ],
  "bytecode": "0x608060405234801561001057600080fd5b506106ad806100206000396000f3fe608060405234801561001057600080fd5b50600436106100415760003560e01c80634d5d248214610046578063aa851d871461008b578063f4438d6d146100ab575b600080fd5b610061732554727881c5fb22965c6fcb7c6042b36784536281565b60405173ffffffffffffffffffffffffffffffffffffffff90911681526020015b60405180910390f35b61009e6100993660046104cb565b6100be565b604051610082919061050d565b61009e6100b93660046104cb565b6102c9565b6060732554727881c5fb22965c6fcb7c6042b3678453628260008167ffffffffffffffff8111156100f1576100f1610551565b60405190808252806020026020018201604052801561011a578160200160208202803683370190505b50905060005b828110156102bd57600080600089898581811061013f5761013f610567565b9050602002016020810190610154919061057d565b6040517f8988504900000000000000000000000000000000000000000000000000000000815273ffffffffffffffffffffffffffffffffffffffff808316600483015291945090881690638988504990602401602060405180830381865afa1580156101c4573d6000803e3d6000fd5b505050506040513d601f19601f820116820180604052508101906101e891906105ba565b6040517f04e8690300000000000000000000000000000000000000000000000000000000815273ffffffffffffffffffffffffffffffffffffffff8581166004830152919350908816906304e8690390602401602060405180830381865afa158015610258573d6000803e3d6000fd5b505050506040513d601f19601f8201168201806040525081019061027c91906105ba565b905061028881836105e9565b85858151811061029a5761029a610567565b6020026020010181815250505050508060016102b691906105fc565b9050610120565b50925050505b92915050565b606081732554727881c5fb22965c6fcb7c6042b3678453628167ffffffffffffffff8111156102fa576102fa610551565b604051908082528060200260200182016040528015610323578160200160208202803683370190505b50925060008080805b858110156104735788888281811061034657610346610567565b9050602002810190610358919061060f565b905093506000915060005b868110156104425789898381811061037d5761037d610567565b905060200281019061038f919061060f565b8281811061039f5761039f610567565b9050602002013593508573ffffffffffffffffffffffffffffffffffffffff1663a00ea0c5856040518263ffffffff1660e01b81526004016103e391815260200190565b602060405180830381865afa158015610400573d6000803e3d6000fd5b505050506040513d601f19601f8201168201806040525081019061042491906105ba565b61042e90846105fc565b925061043b6001826105fc565b9050610363565b508187828151811061045657610456610567565b602090810291909101015261046c6001826105fc565b905061032c565b50505050505092915050565b60008083601f84011261049157600080fd5b50813567ffffffffffffffff8111156104a957600080fd5b6020830191508360208260051b85010111156104c457600080fd5b9250929050565b600080602083850312156104de57600080fd5b823567ffffffffffffffff8111156104f557600080fd5b6105018582860161047f565b90969095509350505050565b6020808252825182820181905260009190848201906040850190845b8181101561054557835183529284019291840191600101610529565b50909695505050505050565b634e487b7160e01b600052604160045260246000fd5b634e487b7160e01b600052603260045260246000fd5b60006020828403121561058f57600080fd5b813573ffffffffffffffffffffffffffffffffffffffff811681146105b357600080fd5b9392505050565b6000602082840312156105cc57600080fd5b5051919050565b634e487b7160e01b600052601160045260246000fd5b818103818111156102c3576102c36105d3565b808201808211156102c3576102c36105d3565b60008083357fffffffffffffffffffffffffffffffffffffffffffffffffffffffffffffffe184360301811261064457600080fd5b83018035915067ffffffffffffffff82111561065f57600080fd5b6020019150600581901b36038213156104c457600080fdfea26469706673582212201ea0100a1e750488f5e787463071e426ba2c7326977dfecfd1e8f8fbdb345eaf64736f6c63430008120033",
  "linkReferences": {},
  "deployedLinkReferences": {}
}