{
  "_format": "hh-sol-artifact-1",
  "contractName": "StakedINTX",
  "sourceName": "contracts/StakedINTX.sol",
  "abi": [
    {
      "inputs": [],
      "stateMutability": "nonpayable",
      "type": "constructor"
    },
    {
      "anonymous": false,
      "inputs": [
        {
          "indexed": true,
          "internalType": "address",
          "name": "owner",
          "type": "address"
        },
        {
          "indexed": true,
          "internalType": "address",
          "name": "approved",
          "type": "address"
        },
        {
          "indexed": true,
          "internalType": "uint256",
          "name": "tokenId",
          "type": "uint256"
        }
      ],
      "name": "Approval",
      "type": "event"
    },
    {
      "anonymous": false,
      "inputs": [
        {
          "indexed": true,
          "internalType": "address",
          "name": "owner",
          "type": "address"
        },
        {
          "indexed": true,
          "internalType": "address",
          "name": "operator",
          "type": "address"
        },
        {
          "indexed": false,
          "internalType": "bool",
          "name": "approved",
          "type": "bool"
        }
      ],
      "name": "ApprovalForAll",
      "type": "event"
    },
    {
      "anonymous": false,
      "inputs": [
        {
          "indexed": true,
          "internalType": "address",
          "name": "owner",
          "type": "address"
        },
        {
          "indexed": true,
          "internalType": "uint256",
          "name": "tokenId",
          "type": "uint256"
        },
        {
          "indexed": false,
          "internalType": "uint256",
          "name": "amountBurned",
          "type": "uint256"
        },
        {
          "indexed": false,
          "internalType": "uint256",
          "name": "amountIntxOut",
          "type": "uint256"
        },
        {
          "indexed": false,
          "internalType": "uint256",
          "name": "amountIntxPenalized",
          "type": "uint256"
        },
        {
          "indexed": false,
          "internalType": "uint256",
          "name": "totalXINTXNew",
          "type": "uint256"
        }
      ],
      "name": "Burn",
      "type": "event"
    },
    {
      "anonymous": false,
      "inputs": [
        {
          "indexed": false,
          "internalType": "uint8",
          "name": "version",
          "type": "uint8"
        }
      ],
      "name": "Initialized",
      "type": "event"
    },
    {
      "anonymous": false,
      "inputs": [
        {
          "indexed": true,
          "internalType": "address",
          "name": "owner",
          "type": "address"
        },
        {
          "indexed": true,
          "internalType": "uint256",
          "name": "tokenIdFrom",
          "type": "uint256"
        },
        {
          "indexed": false,
          "internalType": "uint256",
          "name": "tokenIdTo",
          "type": "uint256"
        },
        {
          "indexed": false,
          "internalType": "uint256",
          "name": "newBalance",
          "type": "uint256"
        },
        {
          "indexed": false,
          "internalType": "uint256",
          "name": "newLoyalSince",
          "type": "uint256"
        }
      ],
      "name": "Merge",
      "type": "event"
    },
    {
      "anonymous": false,
      "inputs": [
        {
          "indexed": true,
          "internalType": "address",
          "name": "from",
          "type": "address"
        },
        {
          "indexed": true,
          "internalType": "address",
          "name": "to",
          "type": "address"
        },
        {
          "indexed": true,
          "internalType": "uint256",
          "name": "tokenId",
          "type": "uint256"
        },
        {
          "indexed": false,
          "internalType": "uint256",
          "name": "amountMinted",
          "type": "uint256"
        },
        {
          "indexed": false,
          "internalType": "uint256",
          "name": "amountIntxIn",
          "type": "uint256"
        },
        {
          "indexed": false,
          "internalType": "uint256",
          "name": "totalXINTXNew",
          "type": "uint256"
        },
        {
          "indexed": false,
          "internalType": "uint256",
          "name": "newTotalWeight",
          "type": "uint256"
        }
      ],
      "name": "Mint",
      "type": "event"
    },
    {
      "anonymous": false,
      "inputs": [
        {
          "indexed": true,
          "internalType": "address",
          "name": "previousOwner",
          "type": "address"
        },
        {
          "indexed": true,
          "internalType": "address",
          "name": "newOwner",
          "type": "address"
        }
      ],
      "name": "OwnershipTransferred",
      "type": "event"
    },
    {
      "anonymous": false,
      "inputs": [
        {
          "indexed": false,
          "internalType": "uint256",
          "name": "rewardAdded",
          "type": "uint256"
        }
      ],
      "name": "RewardAdded",
      "type": "event"
    },
    {
      "anonymous": false,
      "inputs": [
        {
          "indexed": true,
          "internalType": "address",
          "name": "owner",
          "type": "address"
        },
        {
          "indexed": true,
          "internalType": "uint256",
          "name": "tokenIdFrom",
          "type": "uint256"
        },
        {
          "indexed": false,
          "internalType": "uint256",
          "name": "tokenIdTo",
          "type": "uint256"
        },
        {
          "indexed": false,
          "internalType": "uint256",
          "name": "balanceSplitted",
          "type": "uint256"
        }
      ],
      "name": "Split",
      "type": "event"
    },
    {
      "anonymous": false,
      "inputs": [
        {
          "indexed": true,
          "internalType": "address",
          "name": "from",
          "type": "address"
        },
        {
          "indexed": true,
          "internalType": "address",
          "name": "to",
          "type": "address"
        },
        {
          "indexed": true,
          "internalType": "uint256",
          "name": "tokenId",
          "type": "uint256"
        }
      ],
      "name": "Transfer",
      "type": "event"
    },
    {
      "inputs": [],
      "name": "DURATION",
      "outputs": [
        {
          "internalType": "uint256",
          "name": "",
          "type": "uint256"
        }
      ],
      "stateMutability": "view",
      "type": "function"
    },
    {
      "inputs": [],
      "name": "INTX",
      "outputs": [
        {
          "internalType": "contract IERC20",
          "name": "",
          "type": "address"
        }
      ],
      "stateMutability": "view",
      "type": "function"
    },
    {
      "inputs": [],
      "name": "P",
      "outputs": [
        {
          "internalType": "uint256",
          "name": "",
          "type": "uint256"
        }
      ],
      "stateMutability": "view",
      "type": "function"
    },
    {
      "inputs": [],
      "name": "WEEK",
      "outputs": [
        {
          "internalType": "uint256",
          "name": "",
          "type": "uint256"
        }
      ],
      "stateMutability": "view",
      "type": "function"
    },
    {
      "inputs": [
        {
          "internalType": "uint256",
          "name": "_tokenId",
          "type": "uint256"
        }
      ],
      "name": "amountStakedOf",
      "outputs": [
        {
          "internalType": "uint256",
          "name": "amount",
          "type": "uint256"
        }
      ],
      "stateMutability": "view",
      "type": "function"
    },
    {
      "inputs": [
        {
          "internalType": "address",
          "name": "to",
          "type": "address"
        },
        {
          "internalType": "uint256",
          "name": "tokenId",
          "type": "uint256"
        }
      ],
      "name": "approve",
      "outputs": [],
      "stateMutability": "nonpayable",
      "type": "function"
    },
    {
      "inputs": [
        {
          "internalType": "address",
          "name": "owner",
          "type": "address"
        }
      ],
      "name": "balanceOf",
      "outputs": [
        {
          "internalType": "uint256",
          "name": "",
          "type": "uint256"
        }
      ],
      "stateMutability": "view",
      "type": "function"
    },
    {
      "inputs": [
        {
          "internalType": "uint256",
          "name": "",
          "type": "uint256"
        }
      ],
      "name": "balanceOfId",
      "outputs": [
        {
          "internalType": "uint256",
          "name": "",
          "type": "uint256"
        }
      ],
      "stateMutability": "view",
      "type": "function"
    },
    {
      "inputs": [
        {
          "internalType": "uint256",
          "name": "_tokenId",
          "type": "uint256"
        }
      ],
      "name": "boostPercentageOf",
      "outputs": [
        {
          "internalType": "uint256",
          "name": "boostPercentage",
          "type": "uint256"
        }
      ],
      "stateMutability": "view",
      "type": "function"
    },
    {
      "inputs": [
        {
          "internalType": "uint256",
          "name": "_tokenId",
          "type": "uint256"
        }
      ],
      "name": "earned",
      "outputs": [
        {
          "internalType": "uint256",
          "name": "",
          "type": "uint256"
        }
      ],
      "stateMutability": "view",
      "type": "function"
    },
    {
      "inputs": [
        {
          "internalType": "uint256",
          "name": "tokenId",
          "type": "uint256"
        }
      ],
      "name": "getApproved",
      "outputs": [
        {
          "internalType": "address",
          "name": "",
          "type": "address"
        }
      ],
      "stateMutability": "view",
      "type": "function"
    },
    {
      "inputs": [
        {
          "internalType": "address",
          "name": "_intx",
          "type": "address"
        },
        {
          "internalType": "address",
          "name": "_usdc",
          "type": "address"
        }
      ],
      "name": "initialize",
      "outputs": [],
      "stateMutability": "nonpayable",
      "type": "function"
    },
    {
      "inputs": [
        {
          "internalType": "address",
          "name": "owner",
          "type": "address"
        },
        {
          "internalType": "address",
          "name": "operator",
          "type": "address"
        }
      ],
      "name": "isApprovedForAll",
      "outputs": [
        {
          "internalType": "bool",
          "name": "",
          "type": "bool"
        }
      ],
      "stateMutability": "view",
      "type": "function"
    },
    {
      "inputs": [],
      "name": "lastTimeRewardApplicable",
      "outputs": [
        {
          "internalType": "uint256",
          "name": "",
          "type": "uint256"
        }
      ],
      "stateMutability": "view",
      "type": "function"
    },
    {
      "inputs": [],
      "name": "lastTokenId",
      "outputs": [
        {
          "internalType": "uint256",
          "name": "",
          "type": "uint256"
        }
      ],
      "stateMutability": "view",
      "type": "function"
    },
    {
      "inputs": [],
      "name": "lastUpdateTime",
      "outputs": [
        {
          "internalType": "uint256",
          "name": "",
          "type": "uint256"
        }
      ],
      "stateMutability": "view",
      "type": "function"
    },
    {
      "inputs": [
        {
          "internalType": "uint256",
          "name": "",
          "type": "uint256"
        }
      ],
      "name": "loyalSince",
      "outputs": [
        {
          "internalType": "uint256",
          "name": "",
          "type": "uint256"
        }
      ],
      "stateMutability": "view",
      "type": "function"
    },
    {
      "inputs": [],
      "name": "loyaltyDuration",
      "outputs": [
        {
          "internalType": "uint256",
          "name": "",
          "type": "uint256"
        }
      ],
      "stateMutability": "view",
      "type": "function"
    },
    {
      "inputs": [],
      "name": "maxLoyaltyBoost",
      "outputs": [
        {
          "internalType": "uint256",
          "name": "",
          "type": "uint256"
        }
      ],
      "stateMutability": "view",
      "type": "function"
    },
    {
      "inputs": [],
      "name": "maxPenalty",
      "outputs": [
        {
          "internalType": "uint256",
          "name": "",
          "type": "uint256"
        }
      ],
      "stateMutability": "view",
      "type": "function"
    },
    {
      "inputs": [],
      "name": "minPenalty",
      "outputs": [
        {
          "internalType": "uint256",
          "name": "",
          "type": "uint256"
        }
      ],
      "stateMutability": "view",
      "type": "function"
    },
    {
      "inputs": [],
      "name": "name",
      "outputs": [
        {
          "internalType": "string",
          "name": "",
          "type": "string"
        }
      ],
      "stateMutability": "view",
      "type": "function"
    },
    {
      "inputs": [
        {
          "internalType": "uint256",
          "name": "_rewardAmount",
          "type": "uint256"
        }
      ],
      "name": "notifyReward",
      "outputs": [],
      "stateMutability": "nonpayable",
      "type": "function"
    },
    {
      "inputs": [],
      "name": "owner",
      "outputs": [
        {
          "internalType": "address",
          "name": "",
          "type": "address"
        }
      ],
      "stateMutability": "view",
      "type": "function"
    },
    {
      "inputs": [
        {
          "internalType": "uint256",
          "name": "tokenId",
          "type": "uint256"
        }
      ],
      "name": "ownerOf",
      "outputs": [
        {
          "internalType": "address",
          "name": "",
          "type": "address"
        }
      ],
      "stateMutability": "view",
      "type": "function"
    },
    {
      "inputs": [
        {
          "internalType": "uint256",
          "name": "_tokenId",
          "type": "uint256"
        }
      ],
      "name": "penaltyPercentageOf",
      "outputs": [
        {
          "internalType": "uint256",
          "name": "penaltyPercentage",
          "type": "uint256"
        }
      ],
      "stateMutability": "view",
      "type": "function"
    },
    {
      "inputs": [],
      "name": "periodFinish",
      "outputs": [
        {
          "internalType": "uint256",
          "name": "",
          "type": "uint256"
        }
      ],
      "stateMutability": "view",
      "type": "function"
    },
    {
      "inputs": [],
      "name": "renounceOwnership",
      "outputs": [],
      "stateMutability": "nonpayable",
      "type": "function"
    },
    {
      "inputs": [],
      "name": "rewardPerWeight",
      "outputs": [
        {
          "internalType": "uint256",
          "name": "",
          "type": "uint256"
        }
      ],
      "stateMutability": "view",
      "type": "function"
    },
    {
      "inputs": [],
      "name": "rewardRate",
      "outputs": [
        {
          "internalType": "uint256",
          "name": "",
          "type": "uint256"
        }
      ],
      "stateMutability": "view",
      "type": "function"
    },
    {
      "inputs": [],
      "name": "rewardToken",
      "outputs": [
        {
          "internalType": "contract IERC20",
          "name": "",
          "type": "address"
        }
      ],
      "stateMutability": "view",
      "type": "function"
    },
    {
      "inputs": [
        {
          "internalType": "address",
          "name": "from",
          "type": "address"
        },
        {
          "internalType": "address",
          "name": "to",
          "type": "address"
        },
        {
          "internalType": "uint256",
          "name": "tokenId",
          "type": "uint256"
        }
      ],
      "name": "safeTransferFrom",
      "outputs": [],
      "stateMutability": "nonpayable",
      "type": "function"
    },
    {
      "inputs": [
        {
          "internalType": "address",
          "name": "from",
          "type": "address"
        },
        {
          "internalType": "address",
          "name": "to",
          "type": "address"
        },
        {
          "internalType": "uint256",
          "name": "tokenId",
          "type": "uint256"
        },
        {
          "internalType": "bytes",
          "name": "data",
          "type": "bytes"
        }
      ],
      "name": "safeTransferFrom",
      "outputs": [],
      "stateMutability": "nonpayable",
      "type": "function"
    },
    {
      "inputs": [
        {
          "internalType": "address",
          "name": "operator",
          "type": "address"
        },
        {
          "internalType": "bool",
          "name": "approved",
          "type": "bool"
        }
      ],
      "name": "setApprovalForAll",
      "outputs": [],
      "stateMutability": "nonpayable",
      "type": "function"
    },
    {
      "inputs": [
        {
          "internalType": "uint256",
          "name": "_intxAmount",
          "type": "uint256"
        }
      ],
      "name": "stake",
      "outputs": [],
      "stateMutability": "nonpayable",
      "type": "function"
    },
    {
      "inputs": [
        {
          "internalType": "address",
          "name": "_to",
          "type": "address"
        },
        {
          "internalType": "uint256",
          "name": "_intxAmount",
          "type": "uint256"
        }
      ],
      "name": "stakeFor",
      "outputs": [],
      "stateMutability": "nonpayable",
      "type": "function"
    },
    {
      "inputs": [
        {
          "internalType": "bytes4",
          "name": "interfaceId",
          "type": "bytes4"
        }
      ],
      "name": "supportsInterface",
      "outputs": [
        {
          "internalType": "bool",
          "name": "",
          "type": "bool"
        }
      ],
      "stateMutability": "view",
      "type": "function"
    },
    {
      "inputs": [],
      "name": "symbol",
      "outputs": [
        {
          "internalType": "string",
          "name": "",
          "type": "string"
        }
      ],
      "stateMutability": "view",
      "type": "function"
    },
    {
      "inputs": [
        {
          "internalType": "uint256",
          "name": "index",
          "type": "uint256"
        }
      ],
      "name": "tokenByIndex",
      "outputs": [
        {
          "internalType": "uint256",
          "name": "",
          "type": "uint256"
        }
      ],
      "stateMutability": "view",
      "type": "function"
    },
    {
      "inputs": [
        {
          "internalType": "address",
          "name": "owner",
          "type": "address"
        },
        {
          "internalType": "uint256",
          "name": "index",
          "type": "uint256"
        }
      ],
      "name": "tokenOfOwnerByIndex",
      "outputs": [
        {
          "internalType": "uint256",
          "name": "",
          "type": "uint256"
        }
      ],
      "stateMutability": "view",
      "type": "function"
    },
    {
      "inputs": [
        {
          "internalType": "uint256",
          "name": "tokenId",
          "type": "uint256"
        }
      ],
      "name": "tokenURI",
      "outputs": [
        {
          "internalType": "string",
          "name": "",
          "type": "string"
        }
      ],
      "stateMutability": "view",
      "type": "function"
    },
    {
      "inputs": [],
      "name": "totalSupply",
      "outputs": [
        {
          "internalType": "uint256",
          "name": "",
          "type": "uint256"
        }
      ],
      "stateMutability": "view",
      "type": "function"
    },
    {
      "inputs": [],
      "name": "totalXINTX",
      "outputs": [
        {
          "internalType": "uint256",
          "name": "",
          "type": "uint256"
        }
      ],
      "stateMutability": "view",
      "type": "function"
    },
    {
      "inputs": [
        {
          "internalType": "address",
          "name": "from",
          "type": "address"
        },
        {
          "internalType": "address",
          "name": "to",
          "type": "address"
        },
        {
          "internalType": "uint256",
          "name": "tokenId",
          "type": "uint256"
        }
      ],
      "name": "transferFrom",
      "outputs": [],
      "stateMutability": "nonpayable",
      "type": "function"
    },
    {
      "inputs": [
        {
          "internalType": "address",
          "name": "newOwner",
          "type": "address"
        }
      ],
      "name": "transferOwnership",
      "outputs": [],
      "stateMutability": "nonpayable",
      "type": "function"
    }
  ],
  "bytecode": "0x60806040523480156200001157600080fd5b506200001c62000022565b620000e3565b600054610100900460ff16156200008f5760405162461bcd60e51b815260206004820152602760248201527f496e697469616c697a61626c653a20636f6e747261637420697320696e697469604482015266616c697a696e6760c81b606482015260840160405180910390fd5b60005460ff90811614620000e1576000805460ff191660ff9081179091556040519081527f7f26b83ff96e1f2b6a682f133852f6798a09c465da95921460cefb38474024989060200160405180910390a15b565b612e9280620000f36000396000f3fe608060405234801561001057600080fd5b50600436106102ff5760003560e01c8063715018a61161019c578063b88d4fde116100ee578063e985e9c511610097578063f4359ce511610071578063f4359ce5146103a1578063f7c618c114610619578063f84ddf0b1461062d57600080fd5b8063e985e9c5146105c0578063ebe2b12b146105fc578063f2fde38b1461060657600080fd5b8063cfd0e125116100c8578063cfd0e12514610581578063d1a249ab146105a2578063df2e0b97146105ac57600080fd5b8063b88d4fde14610551578063c87b56dd14610564578063c8f33c911461057757600080fd5b806395d89b4111610150578063a1c95e5a1161012a578063a1c95e5a1461050a578063a22cb4651461052b578063a694fc3a1461053e57600080fd5b806395d89b41146104dc578063988dc31e146104e4578063a00ea0c5146104f757600080fd5b806380faa57d1161018157806380faa57d146104b45780638b8fbd92146104bc5780638da5cb5b146104cb57600080fd5b8063715018a6146104a25780637b0a47ee146104aa57600080fd5b80632f745c59116102555780635200e79e116102095780636352211e116101e35780636352211e14610469578063645bfd9a1461047c57806370a082311461048f57600080fd5b80635200e79e14610442578063520bf08a1461044c57806360993b5b1461045657600080fd5b8063485cc9551161023a578063485cc955146104095780634d6ed8c41461041c5780634f6ccce71461042f57600080fd5b80632f745c59146103e357806342842e0e146103f657600080fd5b806318160ddd116102b757806323b872dd1161029157806323b872dd146103b55780632ac3f450146103c85780632ee40908146103d057600080fd5b806318160ddd146103995780631be05289146103a15780632212b806146103ab57600080fd5b8063081812fc116102e8578063081812fc14610341578063095ea7b31461036c5780630eba98491461038157600080fd5b806301ffc9a71461030457806306fdde031461032c575b600080fd5b610317610312366004612900565b610637565b60405190151581526020015b60405180910390f35b61033461067b565b604051610323919061296d565b61035461034f366004612980565b61070d565b6040516001600160a01b039091168152602001610323565b61037f61037a3660046129b0565b610734565b005b61038b6101325481565b604051908152602001610323565b60cb5461038b565b61038b62093a8081565b61038b6101305481565b61037f6103c33660046129da565b61086a565b61038b6108f1565b61037f6103de3660046129b0565b6109b6565b61038b6103f13660046129b0565b6109c5565b61037f6104043660046129da565b610a6d565b61037f610417366004612a16565b610a88565b61038b61042a366004612980565b610c9c565b61038b61043d366004612980565b610d64565b61038b6101315481565b61038b61012e5481565b61037f610464366004612980565b610e08565b610354610477366004612980565b611052565b61038b61048a366004612980565b6110b7565b61038b61049d366004612a49565b6110e2565b61037f61117c565b61038b6101355481565b61038b611190565b61038b670de0b6b3a764000081565b60fb546001600160a01b0316610354565b6103346111a4565b61038b6104f2366004612980565b6111b3565b61038b610505366004612980565b6111d9565b61038b610518366004612980565b61013b6020526000908152604090205481565b61037f610539366004612a72565b6111ff565b61037f61054c366004612980565b61120a565b61037f61055f366004612abf565b611215565b610334610572366004612980565b6112a3565b61038b6101335481565b61038b61058f366004612980565b61013a6020526000908152604090205481565b61038b61012f5481565b61013854610354906001600160a01b031681565b6103176105ce366004612a16565b6001600160a01b039182166000908152609c6020908152604080832093909416825291909152205460ff1690565b61038b6101345481565b61037f610614366004612a49565b611317565b61013954610354906001600160a01b031681565b61038b61012d5481565b60006001600160e01b031982167f780e9d630000000000000000000000000000000000000000000000000000000014806106755750610675826113a4565b92915050565b60606097805461068a90612b9b565b80601f01602080910402602001604051908101604052809291908181526020018280546106b690612b9b565b80156107035780601f106106d857610100808354040283529160200191610703565b820191906000526020600020905b8154815290600101906020018083116106e657829003601f168201915b5050505050905090565b60006107188261143f565b506000908152609b60205260409020546001600160a01b031690565b600061073f82611052565b9050806001600160a01b0316836001600160a01b0316036107cd5760405162461bcd60e51b815260206004820152602160248201527f4552433732313a20617070726f76616c20746f2063757272656e74206f776e6560448201527f720000000000000000000000000000000000000000000000000000000000000060648201526084015b60405180910390fd5b336001600160a01b03821614806107e957506107e981336105ce565b61085b5760405162461bcd60e51b815260206004820152603d60248201527f4552433732313a20617070726f76652063616c6c6572206973206e6f7420746f60448201527f6b656e206f776e6572206f7220617070726f76656420666f7220616c6c00000060648201526084016107c4565b61086583836114a3565b505050565b610874338261151e565b6108e65760405162461bcd60e51b815260206004820152602d60248201527f4552433732313a2063616c6c6572206973206e6f7420746f6b656e206f776e6560448201527f72206f7220617070726f7665640000000000000000000000000000000000000060648201526084016107c4565b61086583838361159c565b60006101375460000361090657506101365490565b600061013754116109595760405162461bcd60e51b815260206004820152601060248201527f496e636f7272656374207765696768740000000000000000000000000000000060448201526064016107c4565b600061013354610967611190565b6109719190612beb565b90506101375461013554826109869190612bfe565b61099890670de0b6b3a7640000612bfe565b6109a29190612c15565b610136546109b09190612c37565b91505090565b6109c13383836117df565b5050565b60006109d0836110e2565b8210610a445760405162461bcd60e51b815260206004820152602b60248201527f455243373231456e756d657261626c653a206f776e657220696e646578206f7560448201527f74206f6620626f756e647300000000000000000000000000000000000000000060648201526084016107c4565b506001600160a01b0391909116600090815260c960209081526040808320938352929052205490565b61086583838360405180602001604052806000815250611215565b600054610100900460ff1615808015610aa85750600054600160ff909116105b80610ac25750303b158015610ac2575060005460ff166001145b610b345760405162461bcd60e51b815260206004820152602e60248201527f496e697469616c697a61626c653a20636f6e747261637420697320616c72656160448201527f647920696e697469616c697a656400000000000000000000000000000000000060648201526084016107c4565b6000805460ff191660011790558015610b57576000805461ff0019166101001790555b610b5f611a02565b610bd36040518060400160405280600b81526020017f5374616b656420494e54580000000000000000000000000000000000000000008152506040518060400160405280600581526020017f58494e5458000000000000000000000000000000000000000000000000000000815250611a75565b610bdb611aea565b61013880546001600160a01b0380861673ffffffffffffffffffffffffffffffffffffffff1992831617909255610139805492851692909116919091179055610c2862093a806010612bfe565b61012f556722b1c8c1227a0000610130556703782dace9d90000610131556611c37937e08000610132558015610865576000805461ff0019169055604051600181527f7f26b83ff96e1f2b6a682f133852f6798a09c465da95921460cefb38474024989060200160405180910390a1505050565b600080670de0b6b3a7640000610cb184611b5d565b600085815261013b6020526040902054610ccb9190612bfe565b610cd59190612c15565b600084815261013c602052604081205491925090600290610cf7908490612c37565b610d019190612c15565b600085815261013e602090815260408083205461013d9092529091205491925090670de0b6b3a764000090610d346108f1565b610d3e9190612beb565b610d489084612bfe565b610d529190612c15565b610d5c9190612c37565b949350505050565b6000610d6f60cb5490565b8210610de35760405162461bcd60e51b815260206004820152602c60248201527f455243373231456e756d657261626c653a20676c6f62616c20696e646578206f60448201527f7574206f6620626f756e6473000000000000000000000000000000000000000060648201526084016107c4565b60cb8281548110610df657610df6612c4a565b90600052602060002001549050919050565b610e10611be9565b610139546001600160a01b03166323b872dd336040516001600160e01b031960e084901b1681526001600160a01b039091166004820152306024820152604481018490526064016020604051808303816000875af1158015610e76573d6000803e3d6000fd5b505050506040513d601f19601f82011682018060405250810190610e9a9190612c60565b50610134544210610ebb57610eb262093a8082612c15565b61013555610f00565b60004261013454610ecc9190612beb565b905060006101355482610edf9190612bfe565b905062093a80610eef8285612c37565b610ef99190612c15565b6101355550505b610139546040517f70a082310000000000000000000000000000000000000000000000000000000081523060048201526000916001600160a01b0316906370a0823190602401602060405180830381865afa158015610f63573d6000803e3d6000fd5b505050506040513d601f19601f82011682018060405250810190610f879190612c7d565b9050610f9662093a8082612c15565b610135541115610fe85760405162461bcd60e51b815260206004820152601860248201527f50726f76696465642072657761726420746f6f2068696768000000000000000060448201526064016107c4565b42610133819055610ffd9062093a8090612c37565b610134557fde88a922e0d3b88b24e9623efeb464919c6bf9f66857a65e2bfcf2ce87a9433d611034670de0b6b3a764000084612c15565b60405190815260200160405180910390a15061104f60018055565b50565b6000818152609960205260408120546001600160a01b0316806106755760405162461bcd60e51b815260206004820152601860248201527f4552433732313a20696e76616c696420746f6b656e204944000000000000000060448201526064016107c4565b6000818152609960205260408120546001600160a01b0316156110dd5761067582611b5d565b919050565b60006001600160a01b0382166111605760405162461bcd60e51b815260206004820152602960248201527f4552433732313a2061646472657373207a65726f206973206e6f74206120766160448201527f6c6964206f776e6572000000000000000000000000000000000000000000000060648201526084016107c4565b506001600160a01b03166000908152609a602052604090205490565b611184611c48565b61118e6000611ca2565b565b600061119f4261013454611d01565b905090565b60606098805461068a90612b9b565b6000818152609960205260408120546001600160a01b0316156110dd5761067582611d17565b6000818152609960205260408120546001600160a01b0316156110dd5761067582611db1565b6109c1338383611de9565b61104f3333836117df565b61121f338361151e565b6112915760405162461bcd60e51b815260206004820152602d60248201527f4552433732313a2063616c6c6572206973206e6f7420746f6b656e206f776e6560448201527f72206f7220617070726f7665640000000000000000000000000000000000000060648201526084016107c4565b61129d84848484611eb7565b50505050565b60606112ae8261143f565b60006112c560408051602081019091526000815290565b905060008151116112e55760405180602001604052806000815250611310565b806112ef84611f40565b604051602001611300929190612c96565b6040516020818303038152906040525b9392505050565b61131f611c48565b6001600160a01b03811661139b5760405162461bcd60e51b815260206004820152602660248201527f4f776e61626c653a206e6577206f776e657220697320746865207a65726f206160448201527f646472657373000000000000000000000000000000000000000000000000000060648201526084016107c4565b61104f81611ca2565b60006001600160e01b031982167f80ac58cd00000000000000000000000000000000000000000000000000000000148061140757506001600160e01b031982167f5b5e139f00000000000000000000000000000000000000000000000000000000145b8061067557507f01ffc9a7000000000000000000000000000000000000000000000000000000006001600160e01b0319831614610675565b6000818152609960205260409020546001600160a01b031661104f5760405162461bcd60e51b815260206004820152601860248201527f4552433732313a20696e76616c696420746f6b656e204944000000000000000060448201526064016107c4565b6000818152609b60205260409020805473ffffffffffffffffffffffffffffffffffffffff19166001600160a01b03841690811790915581906114e582611052565b6001600160a01b03167f8c5be1e5ebec7d5bd14f71427d1e84f3dd0314c0f7b2291e5b200ac8c7c3b92560405160405180910390a45050565b60008061152a83611052565b9050806001600160a01b0316846001600160a01b0316148061157157506001600160a01b038082166000908152609c602090815260408083209388168352929052205460ff165b80610d5c5750836001600160a01b031661158a8461070d565b6001600160a01b031614949350505050565b826001600160a01b03166115af82611052565b6001600160a01b03161461162b5760405162461bcd60e51b815260206004820152602560248201527f4552433732313a207472616e736665722066726f6d20696e636f72726563742060448201527f6f776e657200000000000000000000000000000000000000000000000000000060648201526084016107c4565b6001600160a01b0382166116a65760405162461bcd60e51b8152602060048201526024808201527f4552433732313a207472616e7366657220746f20746865207a65726f2061646460448201527f726573730000000000000000000000000000000000000000000000000000000060648201526084016107c4565b6116b38383836001611fe0565b826001600160a01b03166116c682611052565b6001600160a01b0316146117425760405162461bcd60e51b815260206004820152602560248201527f4552433732313a207472616e736665722066726f6d20696e636f72726563742060448201527f6f776e657200000000000000000000000000000000000000000000000000000060648201526084016107c4565b6000818152609b60209081526040808320805473ffffffffffffffffffffffffffffffffffffffff199081169091556001600160a01b03878116808652609a8552838620805460001901905590871680865283862080546001019055868652609990945282852080549092168417909155905184937fddf252ad1be2c89b69c2b068fc378daa952ba7f163c4a11628f55a4df523b3ef91a4505050565b6117e7611be9565b600081116118375760405162461bcd60e51b815260206004820152601360248201527f43616e2774207374616b65203020696e74582e0000000000000000000000000060448201526064016107c4565b600061184161211c565b610138546040517f23b872dd0000000000000000000000000000000000000000000000000000000081526001600160a01b038781166004830152306024830152604482018690529293509116906323b872dd906064016020604051808303816000875af11580156118b6573d6000803e3d6000fd5b505050506040513d601f19601f820116820180604052508101906118da9190612c60565b5061012d80549060006118ec83612cc5565b91905055506118fe8361012d5461215f565b600081611913670de0b6b3a764000085612bfe565b61191d9190612c15565b61012d8054600090815261013a602090815260408083204290559254825261013b905290812082905561012e8054929350839290919061195e908490612c37565b925050819055508061013760008282546119789190612c37565b909155505061012d8054600090815261013c6020908152604091829020849055915461012e54610137548351868152948501889052928401526060830191909152906001600160a01b0380871691908816907f52c6b7a228763dc832bef1e2dee48707b24b8f1400a6335b3af6d5def4f5bb219060800160405180910390a4505061086560018055565b600054610100900460ff16611a6d5760405162461bcd60e51b815260206004820152602b60248201527f496e697469616c697a61626c653a20636f6e7472616374206973206e6f74206960448201526a6e697469616c697a696e6760a81b60648201526084016107c4565b61118e612305565b600054610100900460ff16611ae05760405162461bcd60e51b815260206004820152602b60248201527f496e697469616c697a61626c653a20636f6e7472616374206973206e6f74206960448201526a6e697469616c697a696e6760a81b60648201526084016107c4565b6109c18282612370565b600054610100900460ff16611b555760405162461bcd60e51b815260206004820152602b60248201527f496e697469616c697a61626c653a20636f6e7472616374206973206e6f74206960448201526a6e697469616c697a696e6760a81b60648201526084016107c4565b61118e6123f4565b600081815261013a602052604081205481611b788242612beb565b905061012f54811115611b8b575061012f545b670de0b6b3a76400008061013054611ba39190612beb565b61012f54611bb9670de0b6b3a764000085612bfe565b611bc39190612c15565b611bcd9190612bfe565b611bd79190612c15565b610d5c90670de0b6b3a7640000612c37565b600260015403611c3b5760405162461bcd60e51b815260206004820152601f60248201527f5265656e7472616e637947756172643a207265656e7472616e742063616c6c0060448201526064016107c4565b6002600155565b60018055565b60fb546001600160a01b0316331461118e5760405162461bcd60e51b815260206004820181905260248201527f4f776e61626c653a2063616c6c6572206973206e6f7420746865206f776e657260448201526064016107c4565b60fb80546001600160a01b0383811673ffffffffffffffffffffffffffffffffffffffff19831681179093556040519116919082907f8be0079c531659141344cd1fd0a4f28419497f9722a3daafe3b4186f6b6457e090600090a35050565b6000818310611d105781611310565b5090919050565b600081815261013a602052604081205481611d328242612beb565b905061012f54811115611d45575061012f545b670de0b6b3a76400006101315461012f54670de0b6b3a764000084611d6a9190612bfe565b611d749190612c15565b611d7e9190612bfe565b611d889190612c15565b61013154611d969190612beb565b925061013254831015611daa576101325492505b5050919050565b600081815261013b602052604081205481611dca61211c565b9050670de0b6b3a7640000611ddf8284612bfe565b610d5c9190612c15565b816001600160a01b0316836001600160a01b031603611e4a5760405162461bcd60e51b815260206004820152601960248201527f4552433732313a20617070726f766520746f2063616c6c65720000000000000060448201526064016107c4565b6001600160a01b038381166000818152609c6020908152604080832094871680845294825291829020805460ff191686151590811790915591519182527f17307eab39ab6107e8899845ad3d59bd9653f200f220920489ca2b5937696c31910160405180910390a3505050565b611ec284848461159c565b611ece84848484612468565b61129d5760405162461bcd60e51b815260206004820152603260248201527f4552433732313a207472616e7366657220746f206e6f6e20455243373231526560448201527f63656976657220696d706c656d656e746572000000000000000000000000000060648201526084016107c4565b60606000611f4d836125f1565b600101905060008167ffffffffffffffff811115611f6d57611f6d612aa9565b6040519080825280601f01601f191660200182016040528015611f97576020820181803683370190505b5090508181016020015b600019017f3031323334353637383961626364656600000000000000000000000000000000600a86061a8153600a8504945084611fa157509392505050565b60018111156120575760405162461bcd60e51b815260206004820152603560248201527f455243373231456e756d657261626c653a20636f6e736563757469766520747260448201527f616e7366657273206e6f7420737570706f72746564000000000000000000000060648201526084016107c4565b816001600160a01b0385166120b3576120ae8160cb8054600083815260cc60205260408120829055600182018355919091527fa7ce836d032b2bf62b7e2097a8e0a6d8aeb35405ad15271e96d3b0188a1d06fb0155565b6120d6565b836001600160a01b0316856001600160a01b0316146120d6576120d685826126d3565b6001600160a01b0384166120f2576120ed81612770565b612115565b846001600160a01b0316846001600160a01b03161461211557612115848261281f565b5050505050565b600061012e546000036121365750670de0b6b3a764000090565b61012e54670de0b6b3a764000061214b612863565b6121559190612bfe565b61119f9190612c15565b6001600160a01b0382166121b55760405162461bcd60e51b815260206004820181905260248201527f4552433732313a206d696e7420746f20746865207a65726f206164647265737360448201526064016107c4565b6000818152609960205260409020546001600160a01b03161561221a5760405162461bcd60e51b815260206004820152601c60248201527f4552433732313a20746f6b656e20616c7265616479206d696e7465640000000060448201526064016107c4565b612228600083836001611fe0565b6000818152609960205260409020546001600160a01b03161561228d5760405162461bcd60e51b815260206004820152601c60248201527f4552433732313a20746f6b656e20616c7265616479206d696e7465640000000060448201526064016107c4565b6001600160a01b0382166000818152609a60209081526040808320805460010190558483526099909152808220805473ffffffffffffffffffffffffffffffffffffffff19168417905551839291907fddf252ad1be2c89b69c2b068fc378daa952ba7f163c4a11628f55a4df523b3ef908290a45050565b600054610100900460ff16611c425760405162461bcd60e51b815260206004820152602b60248201527f496e697469616c697a61626c653a20636f6e7472616374206973206e6f74206960448201526a6e697469616c697a696e6760a81b60648201526084016107c4565b600054610100900460ff166123db5760405162461bcd60e51b815260206004820152602b60248201527f496e697469616c697a61626c653a20636f6e7472616374206973206e6f74206960448201526a6e697469616c697a696e6760a81b60648201526084016107c4565b60976123e78382612d2d565b5060986108658282612d2d565b600054610100900460ff1661245f5760405162461bcd60e51b815260206004820152602b60248201527f496e697469616c697a61626c653a20636f6e7472616374206973206e6f74206960448201526a6e697469616c697a696e6760a81b60648201526084016107c4565b61118e33611ca2565b60006001600160a01b0384163b156125e6576040517f150b7a020000000000000000000000000000000000000000000000000000000081526001600160a01b0385169063150b7a02906124c5903390899088908890600401612ded565b6020604051808303816000875af1925050508015612500575060408051601f3d908101601f191682019092526124fd91810190612e29565b60015b6125b3573d80801561252e576040519150601f19603f3d011682016040523d82523d6000602084013e612533565b606091505b5080516000036125ab5760405162461bcd60e51b815260206004820152603260248201527f4552433732313a207472616e7366657220746f206e6f6e20455243373231526560448201527f63656976657220696d706c656d656e746572000000000000000000000000000060648201526084016107c4565b805181602001fd5b6001600160e01b0319167f150b7a0200000000000000000000000000000000000000000000000000000000149050610d5c565b506001949350505050565b6000807a184f03e93ff9f4daa797ed6e38ed64bf6a1f010000000000000000831061263a577a184f03e93ff9f4daa797ed6e38ed64bf6a1f010000000000000000830492506040015b6d04ee2d6d415b85acef81000000008310612666576d04ee2d6d415b85acef8100000000830492506020015b662386f26fc10000831061268457662386f26fc10000830492506010015b6305f5e100831061269c576305f5e100830492506008015b61271083106126b057612710830492506004015b606483106126c2576064830492506002015b600a83106106755760010192915050565b600060016126e0846110e2565b6126ea9190612beb565b600083815260ca602052604090205490915080821461273d576001600160a01b038416600090815260c960209081526040808320858452825280832054848452818420819055835260ca90915290208190555b50600091825260ca602090815260408084208490556001600160a01b03909416835260c981528383209183525290812055565b60cb5460009061278290600190612beb565b600083815260cc602052604081205460cb80549394509092849081106127aa576127aa612c4a565b906000526020600020015490508060cb83815481106127cb576127cb612c4a565b600091825260208083209091019290925582815260cc909152604080822084905585825281205560cb80548061280357612803612e46565b6001900381819060005260206000200160009055905550505050565b600061282a836110e2565b6001600160a01b03909316600090815260c960209081526040808320868452825280832085905593825260ca9052919091209190915550565b610138546040517f70a082310000000000000000000000000000000000000000000000000000000081523060048201526000916001600160a01b0316906370a0823190602401602060405180830381865afa1580156128c6573d6000803e3d6000fd5b505050506040513d601f19601f8201168201806040525081019061119f9190612c7d565b6001600160e01b03198116811461104f57600080fd5b60006020828403121561291257600080fd5b8135611310816128ea565b60005b83811015612938578181015183820152602001612920565b50506000910152565b6000815180845261295981602086016020860161291d565b601f01601f19169290920160200192915050565b6020815260006113106020830184612941565b60006020828403121561299257600080fd5b5035919050565b80356001600160a01b03811681146110dd57600080fd5b600080604083850312156129c357600080fd5b6129cc83612999565b946020939093013593505050565b6000806000606084860312156129ef57600080fd5b6129f884612999565b9250612a0660208501612999565b9150604084013590509250925092565b60008060408385031215612a2957600080fd5b612a3283612999565b9150612a4060208401612999565b90509250929050565b600060208284031215612a5b57600080fd5b61131082612999565b801515811461104f57600080fd5b60008060408385031215612a8557600080fd5b612a8e83612999565b91506020830135612a9e81612a64565b809150509250929050565b634e487b7160e01b600052604160045260246000fd5b60008060008060808587031215612ad557600080fd5b612ade85612999565b9350612aec60208601612999565b925060408501359150606085013567ffffffffffffffff80821115612b1057600080fd5b818701915087601f830112612b2457600080fd5b813581811115612b3657612b36612aa9565b604051601f8201601f19908116603f01168101908382118183101715612b5e57612b5e612aa9565b816040528281528a6020848701011115612b7757600080fd5b82602086016020830137600060208483010152809550505050505092959194509250565b600181811c90821680612baf57607f821691505b602082108103612bcf57634e487b7160e01b600052602260045260246000fd5b50919050565b634e487b7160e01b600052601160045260246000fd5b8181038181111561067557610675612bd5565b808202811582820484141761067557610675612bd5565b600082612c3257634e487b7160e01b600052601260045260246000fd5b500490565b8082018082111561067557610675612bd5565b634e487b7160e01b600052603260045260246000fd5b600060208284031215612c7257600080fd5b815161131081612a64565b600060208284031215612c8f57600080fd5b5051919050565b60008351612ca881846020880161291d565b835190830190612cbc81836020880161291d565b01949350505050565b60006000198203612cd857612cd8612bd5565b5060010190565b601f82111561086557600081815260208120601f850160051c81016020861015612d065750805b601f850160051c820191505b81811015612d2557828155600101612d12565b505050505050565b815167ffffffffffffffff811115612d4757612d47612aa9565b612d5b81612d558454612b9b565b84612cdf565b602080601f831160018114612d905760008415612d785750858301515b600019600386901b1c1916600185901b178555612d25565b600085815260208120601f198616915b82811015612dbf57888601518255948401946001909101908401612da0565b5085821015612ddd5787850151600019600388901b60f8161c191681555b5050505050600190811b01905550565b60006001600160a01b03808716835280861660208401525083604083015260806060830152612e1f6080830184612941565b9695505050505050565b600060208284031215612e3b57600080fd5b8151611310816128ea565b634e487b7160e01b600052603160045260246000fdfea2646970667358221220288582f8e33e9580a577388bafda4117ff2baccdbc53e8e2282fe9ce06dec16364736f6c63430008130033",
  "linkReferences": {},
  "deployedLinkReferences": {}
}