{
  "_format": "hh-sol-artifact-1",
  "contractName": "StakedINTX",
  "sourceName": "contracts/StakedINTX.sol",
  "abi": [
    {
      "inputs": [],
      "stateMutability": "nonpayable",
      "type": "constructor"
    },
    {
      "anonymous": false,
      "inputs": [
        {
          "indexed": true,
          "internalType": "address",
          "name": "owner",
          "type": "address"
        },
        {
          "indexed": true,
          "internalType": "address",
          "name": "approved",
          "type": "address"
        },
        {
          "indexed": true,
          "internalType": "uint256",
          "name": "tokenId",
          "type": "uint256"
        }
      ],
      "name": "Approval",
      "type": "event"
    },
    {
      "anonymous": false,
      "inputs": [
        {
          "indexed": true,
          "internalType": "address",
          "name": "owner",
          "type": "address"
        },
        {
          "indexed": true,
          "internalType": "address",
          "name": "operator",
          "type": "address"
        },
        {
          "indexed": false,
          "internalType": "bool",
          "name": "approved",
          "type": "bool"
        }
      ],
      "name": "ApprovalForAll",
      "type": "event"
    },
    {
      "anonymous": false,
      "inputs": [
        {
          "indexed": true,
          "internalType": "address",
          "name": "owner",
          "type": "address"
        },
        {
          "indexed": true,
          "internalType": "uint256",
          "name": "tokenId",
          "type": "uint256"
        },
        {
          "indexed": false,
          "internalType": "uint256",
          "name": "amountBurned",
          "type": "uint256"
        },
        {
          "indexed": false,
          "internalType": "uint256",
          "name": "amountIntxOut",
          "type": "uint256"
        },
        {
          "indexed": false,
          "internalType": "uint256",
          "name": "amountIntxPenalized",
          "type": "uint256"
        },
        {
          "indexed": false,
          "internalType": "uint256",
          "name": "totalXINTXNew",
          "type": "uint256"
        }
      ],
      "name": "Burn",
      "type": "event"
    },
    {
      "anonymous": false,
      "inputs": [
        {
          "indexed": false,
          "internalType": "uint8",
          "name": "version",
          "type": "uint8"
        }
      ],
      "name": "Initialized",
      "type": "event"
    },
    {
      "anonymous": false,
      "inputs": [
        {
          "indexed": true,
          "internalType": "address",
          "name": "owner",
          "type": "address"
        },
        {
          "indexed": true,
          "internalType": "uint256",
          "name": "tokenIdFrom",
          "type": "uint256"
        },
        {
          "indexed": false,
          "internalType": "uint256",
          "name": "tokenIdTo",
          "type": "uint256"
        },
        {
          "indexed": false,
          "internalType": "uint256",
          "name": "newBalance",
          "type": "uint256"
        },
        {
          "indexed": false,
          "internalType": "uint256",
          "name": "newLoyalSince",
          "type": "uint256"
        }
      ],
      "name": "Merge",
      "type": "event"
    },
    {
      "anonymous": false,
      "inputs": [
        {
          "indexed": true,
          "internalType": "address",
          "name": "from",
          "type": "address"
        },
        {
          "indexed": true,
          "internalType": "address",
          "name": "to",
          "type": "address"
        },
        {
          "indexed": true,
          "internalType": "uint256",
          "name": "tokenId",
          "type": "uint256"
        },
        {
          "indexed": false,
          "internalType": "uint256",
          "name": "amountMinted",
          "type": "uint256"
        },
        {
          "indexed": false,
          "internalType": "uint256",
          "name": "amountIntxIn",
          "type": "uint256"
        },
        {
          "indexed": false,
          "internalType": "uint256",
          "name": "totalXINTXNew",
          "type": "uint256"
        },
        {
          "indexed": false,
          "internalType": "uint256",
          "name": "newTotalWeight",
          "type": "uint256"
        }
      ],
      "name": "Mint",
      "type": "event"
    },
    {
      "anonymous": false,
      "inputs": [
        {
          "indexed": true,
          "internalType": "address",
          "name": "previousOwner",
          "type": "address"
        },
        {
          "indexed": true,
          "internalType": "address",
          "name": "newOwner",
          "type": "address"
        }
      ],
      "name": "OwnershipTransferred",
      "type": "event"
    },
    {
      "anonymous": false,
      "inputs": [
        {
          "indexed": false,
          "internalType": "uint256",
          "name": "rewardAdded",
          "type": "uint256"
        }
      ],
      "name": "RewardAdded",
      "type": "event"
    },
    {
      "anonymous": false,
      "inputs": [
        {
          "indexed": true,
          "internalType": "address",
          "name": "owner",
          "type": "address"
        },
        {
          "indexed": true,
          "internalType": "uint256",
          "name": "tokenIdFrom",
          "type": "uint256"
        },
        {
          "indexed": false,
          "internalType": "uint256",
          "name": "tokenIdTo",
          "type": "uint256"
        },
        {
          "indexed": false,
          "internalType": "uint256",
          "name": "balanceSplitted",
          "type": "uint256"
        }
      ],
      "name": "Split",
      "type": "event"
    },
    {
      "anonymous": false,
      "inputs": [
        {
          "indexed": true,
          "internalType": "address",
          "name": "from",
          "type": "address"
        },
        {
          "indexed": true,
          "internalType": "address",
          "name": "to",
          "type": "address"
        },
        {
          "indexed": true,
          "internalType": "uint256",
          "name": "tokenId",
          "type": "uint256"
        }
      ],
      "name": "Transfer",
      "type": "event"
    },
    {
      "inputs": [],
      "name": "DURATION",
      "outputs": [
        {
          "internalType": "uint256",
          "name": "",
          "type": "uint256"
        }
      ],
      "stateMutability": "view",
      "type": "function"
    },
    {
      "inputs": [],
      "name": "INTX",
      "outputs": [
        {
          "internalType": "contract IERC20",
          "name": "",
          "type": "address"
        }
      ],
      "stateMutability": "view",
      "type": "function"
    },
    {
      "inputs": [],
      "name": "P",
      "outputs": [
        {
          "internalType": "uint256",
          "name": "",
          "type": "uint256"
        }
      ],
      "stateMutability": "view",
      "type": "function"
    },
    {
      "inputs": [],
      "name": "WEEK",
      "outputs": [
        {
          "internalType": "uint256",
          "name": "",
          "type": "uint256"
        }
      ],
      "stateMutability": "view",
      "type": "function"
    },
    {
      "inputs": [
        {
          "internalType": "uint256",
          "name": "_tokenId",
          "type": "uint256"
        }
      ],
      "name": "amountStakedOf",
      "outputs": [
        {
          "internalType": "uint256",
          "name": "amount",
          "type": "uint256"
        }
      ],
      "stateMutability": "view",
      "type": "function"
    },
    {
      "inputs": [
        {
          "internalType": "address",
          "name": "to",
          "type": "address"
        },
        {
          "internalType": "uint256",
          "name": "tokenId",
          "type": "uint256"
        }
      ],
      "name": "approve",
      "outputs": [],
      "stateMutability": "nonpayable",
      "type": "function"
    },
    {
      "inputs": [
        {
          "internalType": "address",
          "name": "owner",
          "type": "address"
        }
      ],
      "name": "balanceOf",
      "outputs": [
        {
          "internalType": "uint256",
          "name": "",
          "type": "uint256"
        }
      ],
      "stateMutability": "view",
      "type": "function"
    },
    {
      "inputs": [
        {
          "internalType": "uint256",
          "name": "",
          "type": "uint256"
        }
      ],
      "name": "balanceOfId",
      "outputs": [
        {
          "internalType": "uint256",
          "name": "",
          "type": "uint256"
        }
      ],
      "stateMutability": "view",
      "type": "function"
    },
    {
      "inputs": [
        {
          "internalType": "uint256",
          "name": "_tokenId",
          "type": "uint256"
        }
      ],
      "name": "boostPercentageOf",
      "outputs": [
        {
          "internalType": "uint256",
          "name": "boostPercentage",
          "type": "uint256"
        }
      ],
      "stateMutability": "view",
      "type": "function"
    },
    {
      "inputs": [
        {
          "internalType": "uint256",
          "name": "_tokenId",
          "type": "uint256"
        }
      ],
      "name": "earned",
      "outputs": [
        {
          "internalType": "uint256",
          "name": "",
          "type": "uint256"
        }
      ],
      "stateMutability": "view",
      "type": "function"
    },
    {
      "inputs": [
        {
          "internalType": "uint256",
          "name": "tokenId",
          "type": "uint256"
        }
      ],
      "name": "getApproved",
      "outputs": [
        {
          "internalType": "address",
          "name": "",
          "type": "address"
        }
      ],
      "stateMutability": "view",
      "type": "function"
    },
    {
      "inputs": [
        {
          "internalType": "address",
          "name": "_intx",
          "type": "address"
        },
        {
          "internalType": "address",
          "name": "_usdc",
          "type": "address"
        }
      ],
      "name": "initialize",
      "outputs": [],
      "stateMutability": "nonpayable",
      "type": "function"
    },
    {
      "inputs": [
        {
          "internalType": "address",
          "name": "owner",
          "type": "address"
        },
        {
          "internalType": "address",
          "name": "operator",
          "type": "address"
        }
      ],
      "name": "isApprovedForAll",
      "outputs": [
        {
          "internalType": "bool",
          "name": "",
          "type": "bool"
        }
      ],
      "stateMutability": "view",
      "type": "function"
    },
    {
      "inputs": [],
      "name": "lastTimeRewardApplicable",
      "outputs": [
        {
          "internalType": "uint256",
          "name": "",
          "type": "uint256"
        }
      ],
      "stateMutability": "view",
      "type": "function"
    },
    {
      "inputs": [],
      "name": "lastTokenId",
      "outputs": [
        {
          "internalType": "uint256",
          "name": "",
          "type": "uint256"
        }
      ],
      "stateMutability": "view",
      "type": "function"
    },
    {
      "inputs": [],
      "name": "lastUpdateTime",
      "outputs": [
        {
          "internalType": "uint256",
          "name": "",
          "type": "uint256"
        }
      ],
      "stateMutability": "view",
      "type": "function"
    },
    {
      "inputs": [
        {
          "internalType": "uint256",
          "name": "",
          "type": "uint256"
        }
      ],
      "name": "loyalSince",
      "outputs": [
        {
          "internalType": "uint256",
          "name": "",
          "type": "uint256"
        }
      ],
      "stateMutability": "view",
      "type": "function"
    },
    {
      "inputs": [],
      "name": "loyaltyDuration",
      "outputs": [
        {
          "internalType": "uint256",
          "name": "",
          "type": "uint256"
        }
      ],
      "stateMutability": "view",
      "type": "function"
    },
    {
      "inputs": [],
      "name": "maxLoyaltyBoost",
      "outputs": [
        {
          "internalType": "uint256",
          "name": "",
          "type": "uint256"
        }
      ],
      "stateMutability": "view",
      "type": "function"
    },
    {
      "inputs": [],
      "name": "maxPenalty",
      "outputs": [
        {
          "internalType": "uint256",
          "name": "",
          "type": "uint256"
        }
      ],
      "stateMutability": "view",
      "type": "function"
    },
    {
      "inputs": [],
      "name": "minPenalty",
      "outputs": [
        {
          "internalType": "uint256",
          "name": "",
          "type": "uint256"
        }
      ],
      "stateMutability": "view",
      "type": "function"
    },
    {
      "inputs": [],
      "name": "name",
      "outputs": [
        {
          "internalType": "string",
          "name": "",
          "type": "string"
        }
      ],
      "stateMutability": "view",
      "type": "function"
    },
    {
      "inputs": [
        {
          "internalType": "uint256",
          "name": "_rewardAmount",
          "type": "uint256"
        }
      ],
      "name": "notifyReward",
      "outputs": [],
      "stateMutability": "nonpayable",
      "type": "function"
    },
    {
      "inputs": [],
      "name": "owner",
      "outputs": [
        {
          "internalType": "address",
          "name": "",
          "type": "address"
        }
      ],
      "stateMutability": "view",
      "type": "function"
    },
    {
      "inputs": [
        {
          "internalType": "uint256",
          "name": "tokenId",
          "type": "uint256"
        }
      ],
      "name": "ownerOf",
      "outputs": [
        {
          "internalType": "address",
          "name": "",
          "type": "address"
        }
      ],
      "stateMutability": "view",
      "type": "function"
    },
    {
      "inputs": [
        {
          "internalType": "uint256",
          "name": "_tokenId",
          "type": "uint256"
        }
      ],
      "name": "penaltyAmountOf",
      "outputs": [
        {
          "internalType": "uint256",
          "name": "penaltyAmount",
          "type": "uint256"
        }
      ],
      "stateMutability": "view",
      "type": "function"
    },
    {
      "inputs": [
        {
          "internalType": "uint256",
          "name": "_tokenId",
          "type": "uint256"
        }
      ],
      "name": "penaltyPercentageOf",
      "outputs": [
        {
          "internalType": "uint256",
          "name": "penaltyPercentage",
          "type": "uint256"
        }
      ],
      "stateMutability": "view",
      "type": "function"
    },
    {
      "inputs": [],
      "name": "periodFinish",
      "outputs": [
        {
          "internalType": "uint256",
          "name": "",
          "type": "uint256"
        }
      ],
      "stateMutability": "view",
      "type": "function"
    },
    {
      "inputs": [],
      "name": "renounceOwnership",
      "outputs": [],
      "stateMutability": "nonpayable",
      "type": "function"
    },
    {
      "inputs": [],
      "name": "rewardPerWeight",
      "outputs": [
        {
          "internalType": "uint256",
          "name": "",
          "type": "uint256"
        }
      ],
      "stateMutability": "view",
      "type": "function"
    },
    {
      "inputs": [],
      "name": "rewardRate",
      "outputs": [
        {
          "internalType": "uint256",
          "name": "",
          "type": "uint256"
        }
      ],
      "stateMutability": "view",
      "type": "function"
    },
    {
      "inputs": [],
      "name": "rewardToken",
      "outputs": [
        {
          "internalType": "contract IERC20",
          "name": "",
          "type": "address"
        }
      ],
      "stateMutability": "view",
      "type": "function"
    },
    {
      "inputs": [
        {
          "internalType": "address",
          "name": "from",
          "type": "address"
        },
        {
          "internalType": "address",
          "name": "to",
          "type": "address"
        },
        {
          "internalType": "uint256",
          "name": "tokenId",
          "type": "uint256"
        }
      ],
      "name": "safeTransferFrom",
      "outputs": [],
      "stateMutability": "nonpayable",
      "type": "function"
    },
    {
      "inputs": [
        {
          "internalType": "address",
          "name": "from",
          "type": "address"
        },
        {
          "internalType": "address",
          "name": "to",
          "type": "address"
        },
        {
          "internalType": "uint256",
          "name": "tokenId",
          "type": "uint256"
        },
        {
          "internalType": "bytes",
          "name": "data",
          "type": "bytes"
        }
      ],
      "name": "safeTransferFrom",
      "outputs": [],
      "stateMutability": "nonpayable",
      "type": "function"
    },
    {
      "inputs": [
        {
          "internalType": "address",
          "name": "operator",
          "type": "address"
        },
        {
          "internalType": "bool",
          "name": "approved",
          "type": "bool"
        }
      ],
      "name": "setApprovalForAll",
      "outputs": [],
      "stateMutability": "nonpayable",
      "type": "function"
    },
    {
      "inputs": [
        {
          "internalType": "uint256",
          "name": "_intxAmount",
          "type": "uint256"
        }
      ],
      "name": "stake",
      "outputs": [],
      "stateMutability": "nonpayable",
      "type": "function"
    },
    {
      "inputs": [
        {
          "internalType": "address",
          "name": "_to",
          "type": "address"
        },
        {
          "internalType": "uint256",
          "name": "_intxAmount",
          "type": "uint256"
        }
      ],
      "name": "stakeFor",
      "outputs": [],
      "stateMutability": "nonpayable",
      "type": "function"
    },
    {
      "inputs": [
        {
          "internalType": "bytes4",
          "name": "interfaceId",
          "type": "bytes4"
        }
      ],
      "name": "supportsInterface",
      "outputs": [
        {
          "internalType": "bool",
          "name": "",
          "type": "bool"
        }
      ],
      "stateMutability": "view",
      "type": "function"
    },
    {
      "inputs": [],
      "name": "symbol",
      "outputs": [
        {
          "internalType": "string",
          "name": "",
          "type": "string"
        }
      ],
      "stateMutability": "view",
      "type": "function"
    },
    {
      "inputs": [
        {
          "internalType": "uint256",
          "name": "index",
          "type": "uint256"
        }
      ],
      "name": "tokenByIndex",
      "outputs": [
        {
          "internalType": "uint256",
          "name": "",
          "type": "uint256"
        }
      ],
      "stateMutability": "view",
      "type": "function"
    },
    {
      "inputs": [
        {
          "internalType": "address",
          "name": "owner",
          "type": "address"
        },
        {
          "internalType": "uint256",
          "name": "index",
          "type": "uint256"
        }
      ],
      "name": "tokenOfOwnerByIndex",
      "outputs": [
        {
          "internalType": "uint256",
          "name": "",
          "type": "uint256"
        }
      ],
      "stateMutability": "view",
      "type": "function"
    },
    {
      "inputs": [
        {
          "internalType": "uint256",
          "name": "tokenId",
          "type": "uint256"
        }
      ],
      "name": "tokenURI",
      "outputs": [
        {
          "internalType": "string",
          "name": "",
          "type": "string"
        }
      ],
      "stateMutability": "view",
      "type": "function"
    },
    {
      "inputs": [],
      "name": "totalSupply",
      "outputs": [
        {
          "internalType": "uint256",
          "name": "",
          "type": "uint256"
        }
      ],
      "stateMutability": "view",
      "type": "function"
    },
    {
      "inputs": [],
      "name": "totalXINTX",
      "outputs": [
        {
          "internalType": "uint256",
          "name": "",
          "type": "uint256"
        }
      ],
      "stateMutability": "view",
      "type": "function"
    },
    {
      "inputs": [
        {
          "internalType": "address",
          "name": "from",
          "type": "address"
        },
        {
          "internalType": "address",
          "name": "to",
          "type": "address"
        },
        {
          "internalType": "uint256",
          "name": "tokenId",
          "type": "uint256"
        }
      ],
      "name": "transferFrom",
      "outputs": [],
      "stateMutability": "nonpayable",
      "type": "function"
    },
    {
      "inputs": [
        {
          "internalType": "address",
          "name": "newOwner",
          "type": "address"
        }
      ],
      "name": "transferOwnership",
      "outputs": [],
      "stateMutability": "nonpayable",
      "type": "function"
    },
    {
      "inputs": [
        {
          "internalType": "uint256",
          "name": "_tokenId",
          "type": "uint256"
        }
      ],
      "name": "withdrawableAmountOf",
      "outputs": [
        {
          "internalType": "uint256",
          "name": "withdrawableAmount",
          "type": "uint256"
        }
      ],
      "stateMutability": "view",
      "type": "function"
    }
  ],
  "bytecode": "0x60806040523480156200001157600080fd5b506200001c62000022565b620000e3565b600054610100900460ff16156200008f5760405162461bcd60e51b815260206004820152602760248201527f496e697469616c697a61626c653a20636f6e747261637420697320696e697469604482015266616c697a696e6760c81b606482015260840160405180910390fd5b60005460ff90811614620000e1576000805460ff191660ff9081179091556040519081527f7f26b83ff96e1f2b6a682f133852f6798a09c465da95921460cefb38474024989060200160405180910390a15b565b612f4f80620000f36000396000f3fe608060405234801561001057600080fd5b50600436106103155760003560e01c8063715018a6116101a7578063c87b56dd116100ee578063e985e9c511610097578063f4359ce511610071578063f4359ce5146103b7578063f7c618c114610655578063f84ddf0b1461066957600080fd5b8063e985e9c5146105fc578063ebe2b12b14610638578063f2fde38b1461064257600080fd5b8063d1a249ab116100c8578063d1a249ab146105cb578063d975dfed146105d5578063df2e0b97146105e857600080fd5b8063c87b56dd1461058d578063c8f33c91146105a0578063cfd0e125146105aa57600080fd5b8063988dc31e11610150578063a22cb4651161012a578063a22cb46514610554578063a694fc3a14610567578063b88d4fde1461057a57600080fd5b8063988dc31e1461050d578063a00ea0c514610520578063a1c95e5a1461053357600080fd5b80638b8fbd92116101815780638b8fbd92146104e55780638da5cb5b146104f457806395d89b411461050557600080fd5b8063715018a6146104cb5780637b0a47ee146104d357806380faa57d146104dd57600080fd5b80632f745c591161026b578063520bf08a116102145780636352211e116101ee5780636352211e14610492578063645bfd9a146104a557806370a08231146104b857600080fd5b8063520bf08a146104625780635a48a97f1461046c57806360993b5b1461047f57600080fd5b80634d6ed8c4116102455780634d6ed8c4146104325780634f6ccce7146104455780635200e79e1461045857600080fd5b80632f745c59146103f957806342842e0e1461040c578063485cc9551461041f57600080fd5b806318160ddd116102cd57806323b872dd116102a757806323b872dd146103cb5780632ac3f450146103de5780632ee40908146103e657600080fd5b806318160ddd146103af5780631be05289146103b75780632212b806146103c157600080fd5b8063081812fc116102fe578063081812fc14610357578063095ea7b3146103825780630eba98491461039757600080fd5b806301ffc9a71461031a57806306fdde0314610342575b600080fd5b61032d6103283660046129bd565b610673565b60405190151581526020015b60405180910390f35b61034a6106b7565b6040516103399190612a2a565b61036a610365366004612a3d565b610749565b6040516001600160a01b039091168152602001610339565b610395610390366004612a6d565b610770565b005b6103a16101325481565b604051908152602001610339565b60cb546103a1565b6103a162093a8081565b6103a16101305481565b6103956103d9366004612a97565b6108a6565b6103a161092d565b6103956103f4366004612a6d565b6109f2565b6103a1610407366004612a6d565b610a01565b61039561041a366004612a97565b610aa9565b61039561042d366004612ad3565b610ac4565b6103a1610440366004612a3d565b610cd8565b6103a1610453366004612a3d565b610da0565b6103a16101315481565b6103a161012e5481565b6103a161047a366004612a3d565b610e44565b61039561048d366004612a3d565b610e89565b61036a6104a0366004612a3d565b6110d3565b6103a16104b3366004612a3d565b611138565b6103a16104c6366004612b06565b611163565b6103956111fd565b6103a16101355481565b6103a1611211565b6103a1670de0b6b3a764000081565b60fb546001600160a01b031661036a565b61034a611225565b6103a161051b366004612a3d565b611234565b6103a161052e366004612a3d565b61125a565b6103a1610541366004612a3d565b61013b6020526000908152604090205481565b610395610562366004612b2f565b611280565b610395610575366004612a3d565b61128b565b610395610588366004612b7c565b611296565b61034a61059b366004612a3d565b611324565b6103a16101335481565b6103a16105b8366004612a3d565b61013a6020526000908152604090205481565b6103a161012f5481565b6103a16105e3366004612a3d565b611398565b6101385461036a906001600160a01b031681565b61032d61060a366004612ad3565b6001600160a01b039182166000908152609c6020908152604080832093909416825291909152205460ff1690565b6103a16101345481565b610395610650366004612b06565b6113e0565b6101395461036a906001600160a01b031681565b6103a161012d5481565b60006001600160e01b031982167f780e9d630000000000000000000000000000000000000000000000000000000014806106b157506106b18261146d565b92915050565b6060609780546106c690612c58565b80601f01602080910402602001604051908101604052809291908181526020018280546106f290612c58565b801561073f5780601f106107145761010080835404028352916020019161073f565b820191906000526020600020905b81548152906001019060200180831161072257829003601f168201915b5050505050905090565b600061075482611508565b506000908152609b60205260409020546001600160a01b031690565b600061077b826110d3565b9050806001600160a01b0316836001600160a01b0316036108095760405162461bcd60e51b815260206004820152602160248201527f4552433732313a20617070726f76616c20746f2063757272656e74206f776e6560448201527f720000000000000000000000000000000000000000000000000000000000000060648201526084015b60405180910390fd5b336001600160a01b03821614806108255750610825813361060a565b6108975760405162461bcd60e51b815260206004820152603d60248201527f4552433732313a20617070726f76652063616c6c6572206973206e6f7420746f60448201527f6b656e206f776e6572206f7220617070726f76656420666f7220616c6c0000006064820152608401610800565b6108a1838361156c565b505050565b6108b033826115e7565b6109225760405162461bcd60e51b815260206004820152602d60248201527f4552433732313a2063616c6c6572206973206e6f7420746f6b656e206f776e6560448201527f72206f7220617070726f766564000000000000000000000000000000000000006064820152608401610800565b6108a1838383611665565b60006101375460000361094257506101365490565b600061013754116109955760405162461bcd60e51b815260206004820152601060248201527f496e636f727265637420776569676874000000000000000000000000000000006044820152606401610800565b6000610133546109a3611211565b6109ad9190612ca8565b90506101375461013554826109c29190612cbb565b6109d490670de0b6b3a7640000612cbb565b6109de9190612cd2565b610136546109ec9190612cf4565b91505090565b6109fd3383836118a8565b5050565b6000610a0c83611163565b8210610a805760405162461bcd60e51b815260206004820152602b60248201527f455243373231456e756d657261626c653a206f776e657220696e646578206f7560448201527f74206f6620626f756e64730000000000000000000000000000000000000000006064820152608401610800565b506001600160a01b0391909116600090815260c960209081526040808320938352929052205490565b6108a183838360405180602001604052806000815250611296565b600054610100900460ff1615808015610ae45750600054600160ff909116105b80610afe5750303b158015610afe575060005460ff166001145b610b705760405162461bcd60e51b815260206004820152602e60248201527f496e697469616c697a61626c653a20636f6e747261637420697320616c72656160448201527f647920696e697469616c697a65640000000000000000000000000000000000006064820152608401610800565b6000805460ff191660011790558015610b93576000805461ff0019166101001790555b610b9b611acb565b610c0f6040518060400160405280600b81526020017f5374616b656420494e54580000000000000000000000000000000000000000008152506040518060400160405280600581526020017f58494e5458000000000000000000000000000000000000000000000000000000815250611b3e565b610c17611bb3565b61013880546001600160a01b0380861673ffffffffffffffffffffffffffffffffffffffff1992831617909255610139805492851692909116919091179055610c6462093a806010612cbb565b61012f556722b1c8c1227a0000610130556703782dace9d90000610131556611c37937e080006101325580156108a1576000805461ff0019169055604051600181527f7f26b83ff96e1f2b6a682f133852f6798a09c465da95921460cefb38474024989060200160405180910390a1505050565b600080670de0b6b3a7640000610ced84611c26565b600085815261013b6020526040902054610d079190612cbb565b610d119190612cd2565b600084815261013c602052604081205491925090600290610d33908490612cf4565b610d3d9190612cd2565b600085815261013e602090815260408083205461013d9092529091205491925090670de0b6b3a764000090610d7061092d565b610d7a9190612ca8565b610d849084612cbb565b610d8e9190612cd2565b610d989190612cf4565b949350505050565b6000610dab60cb5490565b8210610e1f5760405162461bcd60e51b815260206004820152602c60248201527f455243373231456e756d657261626c653a20676c6f62616c20696e646578206f60448201527f7574206f6620626f756e647300000000000000000000000000000000000000006064820152608401610800565b60cb8281548110610e3257610e32612d07565b90600052602060002001549050919050565b600080610e5083611cb2565b90506000610e5d84611ce0565b90508115610e8257670de0b6b3a7640000610e788284612cbb565b610d989190612cd2565b5050919050565b610e91611d78565b610139546001600160a01b03166323b872dd336040516001600160e01b031960e084901b1681526001600160a01b039091166004820152306024820152604481018490526064016020604051808303816000875af1158015610ef7573d6000803e3d6000fd5b505050506040513d601f19601f82011682018060405250810190610f1b9190612d1d565b50610134544210610f3c57610f3362093a8082612cd2565b61013555610f81565b60004261013454610f4d9190612ca8565b905060006101355482610f609190612cbb565b905062093a80610f708285612cf4565b610f7a9190612cd2565b6101355550505b610139546040517f70a082310000000000000000000000000000000000000000000000000000000081523060048201526000916001600160a01b0316906370a0823190602401602060405180830381865afa158015610fe4573d6000803e3d6000fd5b505050506040513d601f19601f820116820180604052508101906110089190612d3a565b905061101762093a8082612cd2565b6101355411156110695760405162461bcd60e51b815260206004820152601860248201527f50726f76696465642072657761726420746f6f206869676800000000000000006044820152606401610800565b4261013381905561107e9062093a8090612cf4565b610134557fde88a922e0d3b88b24e9623efeb464919c6bf9f66857a65e2bfcf2ce87a9433d6110b5670de0b6b3a764000084612cd2565b60405190815260200160405180910390a1506110d060018055565b50565b6000818152609960205260408120546001600160a01b0316806106b15760405162461bcd60e51b815260206004820152601860248201527f4552433732313a20696e76616c696420746f6b656e20494400000000000000006044820152606401610800565b6000818152609960205260408120546001600160a01b03161561115e576106b182611c26565b919050565b60006001600160a01b0382166111e15760405162461bcd60e51b815260206004820152602960248201527f4552433732313a2061646472657373207a65726f206973206e6f74206120766160448201527f6c6964206f776e657200000000000000000000000000000000000000000000006064820152608401610800565b506001600160a01b03166000908152609a602052604090205490565b611205611dd7565b61120f6000611e31565b565b60006112204261013454611e90565b905090565b6060609880546106c690612c58565b6000818152609960205260408120546001600160a01b03161561115e576106b182611ce0565b6000818152609960205260408120546001600160a01b03161561115e576106b182611cb2565b6109fd338383611ea6565b6110d03333836118a8565b6112a033836115e7565b6113125760405162461bcd60e51b815260206004820152602d60248201527f4552433732313a2063616c6c6572206973206e6f7420746f6b656e206f776e6560448201527f72206f7220617070726f766564000000000000000000000000000000000000006064820152608401610800565b61131e84848484611f74565b50505050565b606061132f82611508565b600061134660408051602081019091526000815290565b905060008151116113665760405180602001604052806000815250611391565b8061137084611ffd565b604051602001611381929190612d53565b6040516020818303038152906040525b9392505050565b6000806113a483611cb2565b905060006113b184611ce0565b90508115610e8257670de0b6b3a76400006113cc8284612cbb565b6113d69190612cd2565b610d989083612ca8565b6113e8611dd7565b6001600160a01b0381166114645760405162461bcd60e51b815260206004820152602660248201527f4f776e61626c653a206e6577206f776e657220697320746865207a65726f206160448201527f64647265737300000000000000000000000000000000000000000000000000006064820152608401610800565b6110d081611e31565b60006001600160e01b031982167f80ac58cd0000000000000000000000000000000000000000000000000000000014806114d057506001600160e01b031982167f5b5e139f00000000000000000000000000000000000000000000000000000000145b806106b157507f01ffc9a7000000000000000000000000000000000000000000000000000000006001600160e01b03198316146106b1565b6000818152609960205260409020546001600160a01b03166110d05760405162461bcd60e51b815260206004820152601860248201527f4552433732313a20696e76616c696420746f6b656e20494400000000000000006044820152606401610800565b6000818152609b60205260409020805473ffffffffffffffffffffffffffffffffffffffff19166001600160a01b03841690811790915581906115ae826110d3565b6001600160a01b03167f8c5be1e5ebec7d5bd14f71427d1e84f3dd0314c0f7b2291e5b200ac8c7c3b92560405160405180910390a45050565b6000806115f3836110d3565b9050806001600160a01b0316846001600160a01b0316148061163a57506001600160a01b038082166000908152609c602090815260408083209388168352929052205460ff165b80610d985750836001600160a01b031661165384610749565b6001600160a01b031614949350505050565b826001600160a01b0316611678826110d3565b6001600160a01b0316146116f45760405162461bcd60e51b815260206004820152602560248201527f4552433732313a207472616e736665722066726f6d20696e636f72726563742060448201527f6f776e65720000000000000000000000000000000000000000000000000000006064820152608401610800565b6001600160a01b03821661176f5760405162461bcd60e51b8152602060048201526024808201527f4552433732313a207472616e7366657220746f20746865207a65726f2061646460448201527f72657373000000000000000000000000000000000000000000000000000000006064820152608401610800565b61177c838383600161209d565b826001600160a01b031661178f826110d3565b6001600160a01b03161461180b5760405162461bcd60e51b815260206004820152602560248201527f4552433732313a207472616e736665722066726f6d20696e636f72726563742060448201527f6f776e65720000000000000000000000000000000000000000000000000000006064820152608401610800565b6000818152609b60209081526040808320805473ffffffffffffffffffffffffffffffffffffffff199081169091556001600160a01b03878116808652609a8552838620805460001901905590871680865283862080546001019055868652609990945282852080549092168417909155905184937fddf252ad1be2c89b69c2b068fc378daa952ba7f163c4a11628f55a4df523b3ef91a4505050565b6118b0611d78565b600081116119005760405162461bcd60e51b815260206004820152601360248201527f43616e2774207374616b65203020696e74582e000000000000000000000000006044820152606401610800565b600061190a6121d9565b610138546040517f23b872dd0000000000000000000000000000000000000000000000000000000081526001600160a01b038781166004830152306024830152604482018690529293509116906323b872dd906064016020604051808303816000875af115801561197f573d6000803e3d6000fd5b505050506040513d601f19601f820116820180604052508101906119a39190612d1d565b5061012d80549060006119b583612d82565b91905055506119c78361012d5461221c565b6000816119dc670de0b6b3a764000085612cbb565b6119e69190612cd2565b61012d8054600090815261013a602090815260408083204290559254825261013b905290812082905561012e80549293508392909190611a27908490612cf4565b92505081905550806101376000828254611a419190612cf4565b909155505061012d8054600090815261013c6020908152604091829020849055915461012e54610137548351868152948501889052928401526060830191909152906001600160a01b0380871691908816907f52c6b7a228763dc832bef1e2dee48707b24b8f1400a6335b3af6d5def4f5bb219060800160405180910390a450506108a160018055565b600054610100900460ff16611b365760405162461bcd60e51b815260206004820152602b60248201527f496e697469616c697a61626c653a20636f6e7472616374206973206e6f74206960448201526a6e697469616c697a696e6760a81b6064820152608401610800565b61120f6123c2565b600054610100900460ff16611ba95760405162461bcd60e51b815260206004820152602b60248201527f496e697469616c697a61626c653a20636f6e7472616374206973206e6f74206960448201526a6e697469616c697a696e6760a81b6064820152608401610800565b6109fd828261242d565b600054610100900460ff16611c1e5760405162461bcd60e51b815260206004820152602b60248201527f496e697469616c697a61626c653a20636f6e7472616374206973206e6f74206960448201526a6e697469616c697a696e6760a81b6064820152608401610800565b61120f6124b1565b600081815261013a602052604081205481611c418242612ca8565b905061012f54811115611c54575061012f545b670de0b6b3a76400008061013054611c6c9190612ca8565b61012f54611c82670de0b6b3a764000085612cbb565b611c8c9190612cd2565b611c969190612cbb565b611ca09190612cd2565b610d9890670de0b6b3a7640000612cf4565b600081815261013b602052604081205481611ccb6121d9565b9050670de0b6b3a7640000610e788284612cbb565b600081815261013a602052604081205481611cfb8242612ca8565b905061012f54811115611d0e575061012f545b670de0b6b3a76400006101315461012f54670de0b6b3a764000084611d339190612cbb565b611d3d9190612cd2565b611d479190612cbb565b611d519190612cd2565b61013154611d5f9190612ca8565b925061013254831015610e825750506101325492915050565b600260015403611dca5760405162461bcd60e51b815260206004820152601f60248201527f5265656e7472616e637947756172643a207265656e7472616e742063616c6c006044820152606401610800565b6002600155565b60018055565b60fb546001600160a01b0316331461120f5760405162461bcd60e51b815260206004820181905260248201527f4f776e61626c653a2063616c6c6572206973206e6f7420746865206f776e65726044820152606401610800565b60fb80546001600160a01b0383811673ffffffffffffffffffffffffffffffffffffffff19831681179093556040519116919082907f8be0079c531659141344cd1fd0a4f28419497f9722a3daafe3b4186f6b6457e090600090a35050565b6000818310611e9f5781611391565b5090919050565b816001600160a01b0316836001600160a01b031603611f075760405162461bcd60e51b815260206004820152601960248201527f4552433732313a20617070726f766520746f2063616c6c6572000000000000006044820152606401610800565b6001600160a01b038381166000818152609c6020908152604080832094871680845294825291829020805460ff191686151590811790915591519182527f17307eab39ab6107e8899845ad3d59bd9653f200f220920489ca2b5937696c31910160405180910390a3505050565b611f7f848484611665565b611f8b84848484612525565b61131e5760405162461bcd60e51b815260206004820152603260248201527f4552433732313a207472616e7366657220746f206e6f6e20455243373231526560448201527f63656976657220696d706c656d656e74657200000000000000000000000000006064820152608401610800565b6060600061200a836126ae565b600101905060008167ffffffffffffffff81111561202a5761202a612b66565b6040519080825280601f01601f191660200182016040528015612054576020820181803683370190505b5090508181016020015b600019017f3031323334353637383961626364656600000000000000000000000000000000600a86061a8153600a850494508461205e57509392505050565b60018111156121145760405162461bcd60e51b815260206004820152603560248201527f455243373231456e756d657261626c653a20636f6e736563757469766520747260448201527f616e7366657273206e6f7420737570706f7274656400000000000000000000006064820152608401610800565b816001600160a01b0385166121705761216b8160cb8054600083815260cc60205260408120829055600182018355919091527fa7ce836d032b2bf62b7e2097a8e0a6d8aeb35405ad15271e96d3b0188a1d06fb0155565b612193565b836001600160a01b0316856001600160a01b031614612193576121938582612790565b6001600160a01b0384166121af576121aa8161282d565b6121d2565b846001600160a01b0316846001600160a01b0316146121d2576121d284826128dc565b5050505050565b600061012e546000036121f35750670de0b6b3a764000090565b61012e54670de0b6b3a7640000612208612920565b6122129190612cbb565b6112209190612cd2565b6001600160a01b0382166122725760405162461bcd60e51b815260206004820181905260248201527f4552433732313a206d696e7420746f20746865207a65726f20616464726573736044820152606401610800565b6000818152609960205260409020546001600160a01b0316156122d75760405162461bcd60e51b815260206004820152601c60248201527f4552433732313a20746f6b656e20616c7265616479206d696e746564000000006044820152606401610800565b6122e560008383600161209d565b6000818152609960205260409020546001600160a01b03161561234a5760405162461bcd60e51b815260206004820152601c60248201527f4552433732313a20746f6b656e20616c7265616479206d696e746564000000006044820152606401610800565b6001600160a01b0382166000818152609a60209081526040808320805460010190558483526099909152808220805473ffffffffffffffffffffffffffffffffffffffff19168417905551839291907fddf252ad1be2c89b69c2b068fc378daa952ba7f163c4a11628f55a4df523b3ef908290a45050565b600054610100900460ff16611dd15760405162461bcd60e51b815260206004820152602b60248201527f496e697469616c697a61626c653a20636f6e7472616374206973206e6f74206960448201526a6e697469616c697a696e6760a81b6064820152608401610800565b600054610100900460ff166124985760405162461bcd60e51b815260206004820152602b60248201527f496e697469616c697a61626c653a20636f6e7472616374206973206e6f74206960448201526a6e697469616c697a696e6760a81b6064820152608401610800565b60976124a48382612dea565b5060986108a18282612dea565b600054610100900460ff1661251c5760405162461bcd60e51b815260206004820152602b60248201527f496e697469616c697a61626c653a20636f6e7472616374206973206e6f74206960448201526a6e697469616c697a696e6760a81b6064820152608401610800565b61120f33611e31565b60006001600160a01b0384163b156126a3576040517f150b7a020000000000000000000000000000000000000000000000000000000081526001600160a01b0385169063150b7a0290612582903390899088908890600401612eaa565b6020604051808303816000875af19250505080156125bd575060408051601f3d908101601f191682019092526125ba91810190612ee6565b60015b612670573d8080156125eb576040519150601f19603f3d011682016040523d82523d6000602084013e6125f0565b606091505b5080516000036126685760405162461bcd60e51b815260206004820152603260248201527f4552433732313a207472616e7366657220746f206e6f6e20455243373231526560448201527f63656976657220696d706c656d656e74657200000000000000000000000000006064820152608401610800565b805181602001fd5b6001600160e01b0319167f150b7a0200000000000000000000000000000000000000000000000000000000149050610d98565b506001949350505050565b6000807a184f03e93ff9f4daa797ed6e38ed64bf6a1f01000000000000000083106126f7577a184f03e93ff9f4daa797ed6e38ed64bf6a1f010000000000000000830492506040015b6d04ee2d6d415b85acef81000000008310612723576d04ee2d6d415b85acef8100000000830492506020015b662386f26fc10000831061274157662386f26fc10000830492506010015b6305f5e1008310612759576305f5e100830492506008015b612710831061276d57612710830492506004015b6064831061277f576064830492506002015b600a83106106b15760010192915050565b6000600161279d84611163565b6127a79190612ca8565b600083815260ca60205260409020549091508082146127fa576001600160a01b038416600090815260c960209081526040808320858452825280832054848452818420819055835260ca90915290208190555b50600091825260ca602090815260408084208490556001600160a01b03909416835260c981528383209183525290812055565b60cb5460009061283f90600190612ca8565b600083815260cc602052604081205460cb805493945090928490811061286757612867612d07565b906000526020600020015490508060cb838154811061288857612888612d07565b600091825260208083209091019290925582815260cc909152604080822084905585825281205560cb8054806128c0576128c0612f03565b6001900381819060005260206000200160009055905550505050565b60006128e783611163565b6001600160a01b03909316600090815260c960209081526040808320868452825280832085905593825260ca9052919091209190915550565b610138546040517f70a082310000000000000000000000000000000000000000000000000000000081523060048201526000916001600160a01b0316906370a0823190602401602060405180830381865afa158015612983573d6000803e3d6000fd5b505050506040513d601f19601f820116820180604052508101906112209190612d3a565b6001600160e01b0319811681146110d057600080fd5b6000602082840312156129cf57600080fd5b8135611391816129a7565b60005b838110156129f55781810151838201526020016129dd565b50506000910152565b60008151808452612a168160208601602086016129da565b601f01601f19169290920160200192915050565b60208152600061139160208301846129fe565b600060208284031215612a4f57600080fd5b5035919050565b80356001600160a01b038116811461115e57600080fd5b60008060408385031215612a8057600080fd5b612a8983612a56565b946020939093013593505050565b600080600060608486031215612aac57600080fd5b612ab584612a56565b9250612ac360208501612a56565b9150604084013590509250925092565b60008060408385031215612ae657600080fd5b612aef83612a56565b9150612afd60208401612a56565b90509250929050565b600060208284031215612b1857600080fd5b61139182612a56565b80151581146110d057600080fd5b60008060408385031215612b4257600080fd5b612b4b83612a56565b91506020830135612b5b81612b21565b809150509250929050565b634e487b7160e01b600052604160045260246000fd5b60008060008060808587031215612b9257600080fd5b612b9b85612a56565b9350612ba960208601612a56565b925060408501359150606085013567ffffffffffffffff80821115612bcd57600080fd5b818701915087601f830112612be157600080fd5b813581811115612bf357612bf3612b66565b604051601f8201601f19908116603f01168101908382118183101715612c1b57612c1b612b66565b816040528281528a6020848701011115612c3457600080fd5b82602086016020830137600060208483010152809550505050505092959194509250565b600181811c90821680612c6c57607f821691505b602082108103612c8c57634e487b7160e01b600052602260045260246000fd5b50919050565b634e487b7160e01b600052601160045260246000fd5b818103818111156106b1576106b1612c92565b80820281158282048414176106b1576106b1612c92565b600082612cef57634e487b7160e01b600052601260045260246000fd5b500490565b808201808211156106b1576106b1612c92565b634e487b7160e01b600052603260045260246000fd5b600060208284031215612d2f57600080fd5b815161139181612b21565b600060208284031215612d4c57600080fd5b5051919050565b60008351612d658184602088016129da565b835190830190612d798183602088016129da565b01949350505050565b60006000198203612d9557612d95612c92565b5060010190565b601f8211156108a157600081815260208120601f850160051c81016020861015612dc35750805b601f850160051c820191505b81811015612de257828155600101612dcf565b505050505050565b815167ffffffffffffffff811115612e0457612e04612b66565b612e1881612e128454612c58565b84612d9c565b602080601f831160018114612e4d5760008415612e355750858301515b600019600386901b1c1916600185901b178555612de2565b600085815260208120601f198616915b82811015612e7c57888601518255948401946001909101908401612e5d565b5085821015612e9a5787850151600019600388901b60f8161c191681555b5050505050600190811b01905550565b60006001600160a01b03808716835280861660208401525083604083015260806060830152612edc60808301846129fe565b9695505050505050565b600060208284031215612ef857600080fd5b8151611391816129a7565b634e487b7160e01b600052603160045260246000fdfea264697066735822122090a806b2651f3d81d4f95146bb6b95ae67dfd9b3b9964d7d8dc6141263bd068964736f6c63430008130033",
  "linkReferences": {},
  "deployedLinkReferences": {}
}