{
  "_format": "hh-sol-artifact-1",
  "contractName": "StakedINTX",
  "sourceName": "contracts/StakedINTX.sol",
  "abi": [
    {
      "inputs": [],
      "stateMutability": "nonpayable",
      "type": "constructor"
    },
    {
      "anonymous": false,
      "inputs": [
        {
          "indexed": true,
          "internalType": "address",
          "name": "owner",
          "type": "address"
        },
        {
          "indexed": true,
          "internalType": "address",
          "name": "approved",
          "type": "address"
        },
        {
          "indexed": true,
          "internalType": "uint256",
          "name": "tokenId",
          "type": "uint256"
        }
      ],
      "name": "Approval",
      "type": "event"
    },
    {
      "anonymous": false,
      "inputs": [
        {
          "indexed": true,
          "internalType": "address",
          "name": "owner",
          "type": "address"
        },
        {
          "indexed": true,
          "internalType": "address",
          "name": "operator",
          "type": "address"
        },
        {
          "indexed": false,
          "internalType": "bool",
          "name": "approved",
          "type": "bool"
        }
      ],
      "name": "ApprovalForAll",
      "type": "event"
    },
    {
      "anonymous": false,
      "inputs": [
        {
          "indexed": true,
          "internalType": "address",
          "name": "owner",
          "type": "address"
        },
        {
          "indexed": true,
          "internalType": "uint256",
          "name": "tokenId",
          "type": "uint256"
        },
        {
          "indexed": false,
          "internalType": "uint256",
          "name": "amountBurned",
          "type": "uint256"
        },
        {
          "indexed": false,
          "internalType": "uint256",
          "name": "amountIntxOut",
          "type": "uint256"
        },
        {
          "indexed": false,
          "internalType": "uint256",
          "name": "amountIntxPenalized",
          "type": "uint256"
        },
        {
          "indexed": false,
          "internalType": "uint256",
          "name": "totalXINTXNew",
          "type": "uint256"
        }
      ],
      "name": "Burn",
      "type": "event"
    },
    {
      "anonymous": false,
      "inputs": [
        {
          "indexed": true,
          "internalType": "address",
          "name": "owner",
          "type": "address"
        },
        {
          "indexed": false,
          "internalType": "uint256",
          "name": "amountOut",
          "type": "uint256"
        },
        {
          "indexed": true,
          "internalType": "uint256[]",
          "name": "tokenIds",
          "type": "uint256[]"
        }
      ],
      "name": "Claim",
      "type": "event"
    },
    {
      "anonymous": false,
      "inputs": [
        {
          "indexed": false,
          "internalType": "uint8",
          "name": "version",
          "type": "uint8"
        }
      ],
      "name": "Initialized",
      "type": "event"
    },
    {
      "anonymous": false,
      "inputs": [
        {
          "indexed": true,
          "internalType": "address",
          "name": "owner",
          "type": "address"
        },
        {
          "indexed": true,
          "internalType": "uint256",
          "name": "tokenIdFrom",
          "type": "uint256"
        },
        {
          "indexed": false,
          "internalType": "uint256",
          "name": "tokenIdTo",
          "type": "uint256"
        },
        {
          "indexed": false,
          "internalType": "uint256",
          "name": "newBalance",
          "type": "uint256"
        },
        {
          "indexed": false,
          "internalType": "uint256",
          "name": "newLoyalSince",
          "type": "uint256"
        }
      ],
      "name": "Merge",
      "type": "event"
    },
    {
      "anonymous": false,
      "inputs": [
        {
          "indexed": true,
          "internalType": "address",
          "name": "from",
          "type": "address"
        },
        {
          "indexed": true,
          "internalType": "address",
          "name": "to",
          "type": "address"
        },
        {
          "indexed": true,
          "internalType": "uint256",
          "name": "tokenId",
          "type": "uint256"
        },
        {
          "indexed": false,
          "internalType": "uint256",
          "name": "amountMinted",
          "type": "uint256"
        },
        {
          "indexed": false,
          "internalType": "uint256",
          "name": "amountIntxIn",
          "type": "uint256"
        },
        {
          "indexed": false,
          "internalType": "uint256",
          "name": "totalXINTXNew",
          "type": "uint256"
        },
        {
          "indexed": false,
          "internalType": "uint256",
          "name": "newTotalWeight",
          "type": "uint256"
        }
      ],
      "name": "Mint",
      "type": "event"
    },
    {
      "anonymous": false,
      "inputs": [
        {
          "indexed": true,
          "internalType": "address",
          "name": "previousOwner",
          "type": "address"
        },
        {
          "indexed": true,
          "internalType": "address",
          "name": "newOwner",
          "type": "address"
        }
      ],
      "name": "OwnershipTransferStarted",
      "type": "event"
    },
    {
      "anonymous": false,
      "inputs": [
        {
          "indexed": true,
          "internalType": "address",
          "name": "previousOwner",
          "type": "address"
        },
        {
          "indexed": true,
          "internalType": "address",
          "name": "newOwner",
          "type": "address"
        }
      ],
      "name": "OwnershipTransferred",
      "type": "event"
    },
    {
      "anonymous": false,
      "inputs": [
        {
          "indexed": false,
          "internalType": "uint256",
          "name": "rewardAdded",
          "type": "uint256"
        }
      ],
      "name": "RewardAdded",
      "type": "event"
    },
    {
      "anonymous": false,
      "inputs": [
        {
          "indexed": true,
          "internalType": "address",
          "name": "owner",
          "type": "address"
        },
        {
          "indexed": true,
          "internalType": "uint256",
          "name": "tokenIdFrom",
          "type": "uint256"
        },
        {
          "indexed": false,
          "internalType": "uint256",
          "name": "tokenIdTo",
          "type": "uint256"
        },
        {
          "indexed": false,
          "internalType": "uint256",
          "name": "balanceSplitted",
          "type": "uint256"
        }
      ],
      "name": "Split",
      "type": "event"
    },
    {
      "anonymous": false,
      "inputs": [
        {
          "indexed": true,
          "internalType": "address",
          "name": "from",
          "type": "address"
        },
        {
          "indexed": true,
          "internalType": "address",
          "name": "to",
          "type": "address"
        },
        {
          "indexed": true,
          "internalType": "uint256",
          "name": "tokenId",
          "type": "uint256"
        }
      ],
      "name": "Transfer",
      "type": "event"
    },
    {
      "inputs": [],
      "name": "DURATION",
      "outputs": [
        {
          "internalType": "uint256",
          "name": "",
          "type": "uint256"
        }
      ],
      "stateMutability": "view",
      "type": "function"
    },
    {
      "inputs": [],
      "name": "INTX",
      "outputs": [
        {
          "internalType": "contract IERC20",
          "name": "",
          "type": "address"
        }
      ],
      "stateMutability": "view",
      "type": "function"
    },
    {
      "inputs": [],
      "name": "P",
      "outputs": [
        {
          "internalType": "uint256",
          "name": "",
          "type": "uint256"
        }
      ],
      "stateMutability": "view",
      "type": "function"
    },
    {
      "inputs": [],
      "name": "acceptOwnership",
      "outputs": [],
      "stateMutability": "nonpayable",
      "type": "function"
    },
    {
      "inputs": [
        {
          "internalType": "uint256",
          "name": "_intxAmount",
          "type": "uint256"
        },
        {
          "internalType": "uint256",
          "name": "tokenTo",
          "type": "uint256"
        }
      ],
      "name": "add",
      "outputs": [],
      "stateMutability": "nonpayable",
      "type": "function"
    },
    {
      "inputs": [
        {
          "internalType": "uint256",
          "name": "_tokenId",
          "type": "uint256"
        }
      ],
      "name": "amountStakedOf",
      "outputs": [
        {
          "internalType": "uint256",
          "name": "amount",
          "type": "uint256"
        }
      ],
      "stateMutability": "view",
      "type": "function"
    },
    {
      "inputs": [
        {
          "internalType": "address",
          "name": "to",
          "type": "address"
        },
        {
          "internalType": "uint256",
          "name": "tokenId",
          "type": "uint256"
        }
      ],
      "name": "approve",
      "outputs": [],
      "stateMutability": "nonpayable",
      "type": "function"
    },
    {
      "inputs": [
        {
          "internalType": "address",
          "name": "owner",
          "type": "address"
        }
      ],
      "name": "balanceOf",
      "outputs": [
        {
          "internalType": "uint256",
          "name": "",
          "type": "uint256"
        }
      ],
      "stateMutability": "view",
      "type": "function"
    },
    {
      "inputs": [
        {
          "internalType": "uint256",
          "name": "",
          "type": "uint256"
        }
      ],
      "name": "balanceOfId",
      "outputs": [
        {
          "internalType": "uint256",
          "name": "",
          "type": "uint256"
        }
      ],
      "stateMutability": "view",
      "type": "function"
    },
    {
      "inputs": [
        {
          "internalType": "uint256",
          "name": "_tokenId",
          "type": "uint256"
        }
      ],
      "name": "boostPercentageOf",
      "outputs": [
        {
          "internalType": "uint256",
          "name": "boostPercentage",
          "type": "uint256"
        }
      ],
      "stateMutability": "view",
      "type": "function"
    },
    {
      "inputs": [
        {
          "internalType": "uint256[]",
          "name": "_tokenIds",
          "type": "uint256[]"
        }
      ],
      "name": "claim",
      "outputs": [],
      "stateMutability": "nonpayable",
      "type": "function"
    },
    {
      "inputs": [],
      "name": "currentExchangeRate",
      "outputs": [
        {
          "internalType": "uint256",
          "name": "_exchangeRate",
          "type": "uint256"
        }
      ],
      "stateMutability": "view",
      "type": "function"
    },
    {
      "inputs": [
        {
          "internalType": "uint256",
          "name": "_tokenId",
          "type": "uint256"
        }
      ],
      "name": "earned",
      "outputs": [
        {
          "internalType": "uint256",
          "name": "",
          "type": "uint256"
        }
      ],
      "stateMutability": "view",
      "type": "function"
    },
    {
      "inputs": [
        {
          "internalType": "uint256",
          "name": "tokenId",
          "type": "uint256"
        }
      ],
      "name": "getApproved",
      "outputs": [
        {
          "internalType": "address",
          "name": "",
          "type": "address"
        }
      ],
      "stateMutability": "view",
      "type": "function"
    },
    {
      "inputs": [
        {
          "internalType": "uint256",
          "name": "_tokenId",
          "type": "uint256"
        }
      ],
      "name": "getPositionInfo",
      "outputs": [
        {
          "components": [
            {
              "internalType": "uint256",
              "name": "tokenId",
              "type": "uint256"
            },
            {
              "internalType": "address",
              "name": "owner",
              "type": "address"
            },
            {
              "internalType": "uint256",
              "name": "balanceOfId",
              "type": "uint256"
            },
            {
              "internalType": "uint256",
              "name": "amountStakedOf",
              "type": "uint256"
            },
            {
              "internalType": "uint256",
              "name": "withdrawableAmountOf",
              "type": "uint256"
            },
            {
              "internalType": "uint256",
              "name": "loyalSince",
              "type": "uint256"
            },
            {
              "internalType": "uint256",
              "name": "boostPercentageOf",
              "type": "uint256"
            },
            {
              "internalType": "uint256",
              "name": "penaltyPercentageOf",
              "type": "uint256"
            },
            {
              "internalType": "uint256",
              "name": "penaltyAmountOf",
              "type": "uint256"
            },
            {
              "internalType": "uint256",
              "name": "pendingReward",
              "type": "uint256"
            }
          ],
          "internalType": "struct StakedINTX.PositionInfo",
          "name": "_positionInfo",
          "type": "tuple"
        }
      ],
      "stateMutability": "view",
      "type": "function"
    },
    {
      "inputs": [
        {
          "internalType": "uint256[]",
          "name": "_tokenId",
          "type": "uint256[]"
        }
      ],
      "name": "getPositionsInfo",
      "outputs": [
        {
          "components": [
            {
              "internalType": "uint256",
              "name": "tokenId",
              "type": "uint256"
            },
            {
              "internalType": "address",
              "name": "owner",
              "type": "address"
            },
            {
              "internalType": "uint256",
              "name": "balanceOfId",
              "type": "uint256"
            },
            {
              "internalType": "uint256",
              "name": "amountStakedOf",
              "type": "uint256"
            },
            {
              "internalType": "uint256",
              "name": "withdrawableAmountOf",
              "type": "uint256"
            },
            {
              "internalType": "uint256",
              "name": "loyalSince",
              "type": "uint256"
            },
            {
              "internalType": "uint256",
              "name": "boostPercentageOf",
              "type": "uint256"
            },
            {
              "internalType": "uint256",
              "name": "penaltyPercentageOf",
              "type": "uint256"
            },
            {
              "internalType": "uint256",
              "name": "penaltyAmountOf",
              "type": "uint256"
            },
            {
              "internalType": "uint256",
              "name": "pendingReward",
              "type": "uint256"
            }
          ],
          "internalType": "struct StakedINTX.PositionInfo[]",
          "name": "_positionInfo",
          "type": "tuple[]"
        }
      ],
      "stateMutability": "view",
      "type": "function"
    },
    {
      "inputs": [
        {
          "internalType": "address",
          "name": "_intx",
          "type": "address"
        },
        {
          "internalType": "address",
          "name": "_usdc",
          "type": "address"
        }
      ],
      "name": "initialize",
      "outputs": [],
      "stateMutability": "nonpayable",
      "type": "function"
    },
    {
      "inputs": [
        {
          "internalType": "address",
          "name": "owner",
          "type": "address"
        },
        {
          "internalType": "address",
          "name": "operator",
          "type": "address"
        }
      ],
      "name": "isApprovedForAll",
      "outputs": [
        {
          "internalType": "bool",
          "name": "",
          "type": "bool"
        }
      ],
      "stateMutability": "view",
      "type": "function"
    },
    {
      "inputs": [],
      "name": "lastTimeRewardApplicable",
      "outputs": [
        {
          "internalType": "uint256",
          "name": "",
          "type": "uint256"
        }
      ],
      "stateMutability": "view",
      "type": "function"
    },
    {
      "inputs": [],
      "name": "lastTokenId",
      "outputs": [
        {
          "internalType": "uint256",
          "name": "",
          "type": "uint256"
        }
      ],
      "stateMutability": "view",
      "type": "function"
    },
    {
      "inputs": [],
      "name": "lastUpdateTime",
      "outputs": [
        {
          "internalType": "uint256",
          "name": "",
          "type": "uint256"
        }
      ],
      "stateMutability": "view",
      "type": "function"
    },
    {
      "inputs": [
        {
          "internalType": "uint256",
          "name": "",
          "type": "uint256"
        }
      ],
      "name": "loyalSince",
      "outputs": [
        {
          "internalType": "uint256",
          "name": "",
          "type": "uint256"
        }
      ],
      "stateMutability": "view",
      "type": "function"
    },
    {
      "inputs": [],
      "name": "loyaltyDuration",
      "outputs": [
        {
          "internalType": "uint256",
          "name": "",
          "type": "uint256"
        }
      ],
      "stateMutability": "view",
      "type": "function"
    },
    {
      "inputs": [],
      "name": "maxLoyaltyBoost",
      "outputs": [
        {
          "internalType": "uint256",
          "name": "",
          "type": "uint256"
        }
      ],
      "stateMutability": "view",
      "type": "function"
    },
    {
      "inputs": [],
      "name": "maxPenalty",
      "outputs": [
        {
          "internalType": "uint256",
          "name": "",
          "type": "uint256"
        }
      ],
      "stateMutability": "view",
      "type": "function"
    },
    {
      "inputs": [
        {
          "internalType": "uint256",
          "name": "_tokenFrom",
          "type": "uint256"
        },
        {
          "internalType": "uint256",
          "name": "tokenTo",
          "type": "uint256"
        }
      ],
      "name": "merge",
      "outputs": [],
      "stateMutability": "nonpayable",
      "type": "function"
    },
    {
      "inputs": [],
      "name": "minPenalty",
      "outputs": [
        {
          "internalType": "uint256",
          "name": "",
          "type": "uint256"
        }
      ],
      "stateMutability": "view",
      "type": "function"
    },
    {
      "inputs": [],
      "name": "name",
      "outputs": [
        {
          "internalType": "string",
          "name": "",
          "type": "string"
        }
      ],
      "stateMutability": "view",
      "type": "function"
    },
    {
      "inputs": [
        {
          "internalType": "uint256",
          "name": "_rewardAmount",
          "type": "uint256"
        }
      ],
      "name": "notifyReward",
      "outputs": [],
      "stateMutability": "nonpayable",
      "type": "function"
    },
    {
      "inputs": [],
      "name": "owner",
      "outputs": [
        {
          "internalType": "address",
          "name": "",
          "type": "address"
        }
      ],
      "stateMutability": "view",
      "type": "function"
    },
    {
      "inputs": [
        {
          "internalType": "uint256",
          "name": "tokenId",
          "type": "uint256"
        }
      ],
      "name": "ownerOf",
      "outputs": [
        {
          "internalType": "address",
          "name": "",
          "type": "address"
        }
      ],
      "stateMutability": "view",
      "type": "function"
    },
    {
      "inputs": [
        {
          "internalType": "uint256",
          "name": "_tokenId",
          "type": "uint256"
        }
      ],
      "name": "penaltyAmountOf",
      "outputs": [
        {
          "internalType": "uint256",
          "name": "penaltyAmount",
          "type": "uint256"
        }
      ],
      "stateMutability": "view",
      "type": "function"
    },
    {
      "inputs": [
        {
          "internalType": "uint256",
          "name": "_tokenId",
          "type": "uint256"
        }
      ],
      "name": "penaltyPercentageOf",
      "outputs": [
        {
          "internalType": "uint256",
          "name": "penaltyPercentage",
          "type": "uint256"
        }
      ],
      "stateMutability": "view",
      "type": "function"
    },
    {
      "inputs": [],
      "name": "pendingOwner",
      "outputs": [
        {
          "internalType": "address",
          "name": "",
          "type": "address"
        }
      ],
      "stateMutability": "view",
      "type": "function"
    },
    {
      "inputs": [],
      "name": "periodFinish",
      "outputs": [
        {
          "internalType": "uint256",
          "name": "",
          "type": "uint256"
        }
      ],
      "stateMutability": "view",
      "type": "function"
    },
    {
      "inputs": [],
      "name": "renounceOwnership",
      "outputs": [],
      "stateMutability": "nonpayable",
      "type": "function"
    },
    {
      "inputs": [],
      "name": "rewardPerWeight",
      "outputs": [
        {
          "internalType": "uint256",
          "name": "",
          "type": "uint256"
        }
      ],
      "stateMutability": "view",
      "type": "function"
    },
    {
      "inputs": [],
      "name": "rewardRate",
      "outputs": [
        {
          "internalType": "uint256",
          "name": "",
          "type": "uint256"
        }
      ],
      "stateMutability": "view",
      "type": "function"
    },
    {
      "inputs": [],
      "name": "rewardToken",
      "outputs": [
        {
          "internalType": "contract IERC20",
          "name": "",
          "type": "address"
        }
      ],
      "stateMutability": "view",
      "type": "function"
    },
    {
      "inputs": [
        {
          "internalType": "address",
          "name": "from",
          "type": "address"
        },
        {
          "internalType": "address",
          "name": "to",
          "type": "address"
        },
        {
          "internalType": "uint256",
          "name": "tokenId",
          "type": "uint256"
        }
      ],
      "name": "safeTransferFrom",
      "outputs": [],
      "stateMutability": "nonpayable",
      "type": "function"
    },
    {
      "inputs": [
        {
          "internalType": "address",
          "name": "from",
          "type": "address"
        },
        {
          "internalType": "address",
          "name": "to",
          "type": "address"
        },
        {
          "internalType": "uint256",
          "name": "tokenId",
          "type": "uint256"
        },
        {
          "internalType": "bytes",
          "name": "data",
          "type": "bytes"
        }
      ],
      "name": "safeTransferFrom",
      "outputs": [],
      "stateMutability": "nonpayable",
      "type": "function"
    },
    {
      "inputs": [
        {
          "internalType": "address",
          "name": "operator",
          "type": "address"
        },
        {
          "internalType": "bool",
          "name": "approved",
          "type": "bool"
        }
      ],
      "name": "setApprovalForAll",
      "outputs": [],
      "stateMutability": "nonpayable",
      "type": "function"
    },
    {
      "inputs": [
        {
          "internalType": "uint256",
          "name": "_tokenId",
          "type": "uint256"
        },
        {
          "internalType": "uint256[]",
          "name": "_splitWeights",
          "type": "uint256[]"
        }
      ],
      "name": "split",
      "outputs": [
        {
          "internalType": "uint256[]",
          "name": "_tokenIds",
          "type": "uint256[]"
        }
      ],
      "stateMutability": "nonpayable",
      "type": "function"
    },
    {
      "inputs": [
        {
          "internalType": "uint256",
          "name": "_intxAmount",
          "type": "uint256"
        }
      ],
      "name": "stake",
      "outputs": [
        {
          "internalType": "uint256",
          "name": "_tokenId",
          "type": "uint256"
        }
      ],
      "stateMutability": "nonpayable",
      "type": "function"
    },
    {
      "inputs": [
        {
          "internalType": "address",
          "name": "_to",
          "type": "address"
        },
        {
          "internalType": "uint256",
          "name": "_intxAmount",
          "type": "uint256"
        }
      ],
      "name": "stakeFor",
      "outputs": [
        {
          "internalType": "uint256",
          "name": "_tokenId",
          "type": "uint256"
        }
      ],
      "stateMutability": "nonpayable",
      "type": "function"
    },
    {
      "inputs": [
        {
          "internalType": "bytes4",
          "name": "interfaceId",
          "type": "bytes4"
        }
      ],
      "name": "supportsInterface",
      "outputs": [
        {
          "internalType": "bool",
          "name": "",
          "type": "bool"
        }
      ],
      "stateMutability": "view",
      "type": "function"
    },
    {
      "inputs": [],
      "name": "symbol",
      "outputs": [
        {
          "internalType": "string",
          "name": "",
          "type": "string"
        }
      ],
      "stateMutability": "view",
      "type": "function"
    },
    {
      "inputs": [
        {
          "internalType": "uint256",
          "name": "tokenId",
          "type": "uint256"
        }
      ],
      "name": "tokenURI",
      "outputs": [
        {
          "internalType": "string",
          "name": "",
          "type": "string"
        }
      ],
      "stateMutability": "view",
      "type": "function"
    },
    {
      "inputs": [],
      "name": "totalXINTX",
      "outputs": [
        {
          "internalType": "uint256",
          "name": "",
          "type": "uint256"
        }
      ],
      "stateMutability": "view",
      "type": "function"
    },
    {
      "inputs": [
        {
          "internalType": "address",
          "name": "from",
          "type": "address"
        },
        {
          "internalType": "address",
          "name": "to",
          "type": "address"
        },
        {
          "internalType": "uint256",
          "name": "tokenId",
          "type": "uint256"
        }
      ],
      "name": "transferFrom",
      "outputs": [],
      "stateMutability": "nonpayable",
      "type": "function"
    },
    {
      "inputs": [
        {
          "internalType": "address",
          "name": "newOwner",
          "type": "address"
        }
      ],
      "name": "transferOwnership",
      "outputs": [],
      "stateMutability": "nonpayable",
      "type": "function"
    },
    {
      "inputs": [
        {
          "internalType": "uint256",
          "name": "_tokenId",
          "type": "uint256"
        }
      ],
      "name": "unstake",
      "outputs": [
        {
          "internalType": "uint256",
          "name": "_intxAmountOut",
          "type": "uint256"
        }
      ],
      "stateMutability": "nonpayable",
      "type": "function"
    },
    {
      "inputs": [
        {
          "internalType": "uint256",
          "name": "_tokenId",
          "type": "uint256"
        },
        {
          "internalType": "uint256",
          "name": "_xIntxAmountWithdraw",
          "type": "uint256"
        }
      ],
      "name": "unstakePartially",
      "outputs": [
        {
          "internalType": "uint256",
          "name": "_intxAmountOut",
          "type": "uint256"
        },
        {
          "internalType": "uint256",
          "name": "_newTokenId",
          "type": "uint256"
        }
      ],
      "stateMutability": "nonpayable",
      "type": "function"
    },
    {
      "inputs": [
        {
          "internalType": "uint256[]",
          "name": "_tokenIds",
          "type": "uint256[]"
        }
      ],
      "name": "updateWeights",
      "outputs": [],
      "stateMutability": "nonpayable",
      "type": "function"
    },
    {
      "inputs": [
        {
          "internalType": "uint256",
          "name": "_tokenId",
          "type": "uint256"
        }
      ],
      "name": "withdrawableAmountOf",
      "outputs": [
        {
          "internalType": "uint256",
          "name": "withdrawableAmount",
          "type": "uint256"
        }
      ],
      "stateMutability": "view",
      "type": "function"
    }
  ],
  "bytecode": "0x60806040523480156200001157600080fd5b506200001c62000022565b620000e3565b600054610100900460ff16156200008f5760405162461bcd60e51b815260206004820152602760248201527f496e697469616c697a61626c653a20636f6e747261637420697320696e697469604482015266616c697a696e6760c81b606482015260840160405180910390fd5b60005460ff90811614620000e1576000805460ff191660ff9081179091556040519081527f7f26b83ff96e1f2b6a682f133852f6798a09c465da95921460cefb38474024989060200160405180910390a15b565b61457f80620000f36000396000f3fe608060405234801561001057600080fd5b506004361061036d5760003560e01c806379ba5097116101d3578063c87b56dd11610104578063e30c3978116100a2578063f290dfa71161007c578063f290dfa71461074b578063f2fde38b14610773578063f7c618c114610786578063f84ddf0b1461079a57600080fd5b8063e30c3978146106f4578063e985e9c514610705578063ebe2b12b1461074157600080fd5b8063d1a249ab116100de578063d1a249ab146106b0578063d1c2babb146106ba578063d975dfed146106cd578063df2e0b97146106e057600080fd5b8063c87b56dd14610672578063c8f33c9114610685578063cfd0e1251461068f57600080fd5b8063988dc31e11610171578063a22cb4651161014b578063a22cb46514610632578063a368497714610644578063a694fc3a1461064c578063b88d4fde1461065f57600080fd5b8063988dc31e146105eb578063a00ea0c5146105fe578063a1c95e5a1461061157600080fd5b80638b8fbd92116101ad5780638b8fbd92146105a35780638da5cb5b146105b25780638fca5a59146105c357806395d89b41146105e357600080fd5b806379ba5097146105895780637b0a47ee1461059157806380faa57d1461059b57600080fd5b8063485cc955116102ad5780636352211e1161024b5780636ba4c138116102255780636ba4c1381461054857806370a082311461055b578063715018a61461056e578063771602f71461057657600080fd5b80636352211e14610502578063645bfd9a1461051557806369c672471461052857600080fd5b80635200e79e116102875780635200e79e146104c8578063520bf08a146104d25780635a48a97f146104dc57806360993b5b146104ef57600080fd5b8063485cc955146104825780634d6ed8c414610495578063519f5099146104a857600080fd5b80632212b8061161031a5780632e17de78116102f45780632e17de78146104365780632ee409081461044957806330f916191461045c57806342842e0e1461046f57600080fd5b80632212b8061461041157806323b872dd1461041b5780632ac3f4501461042e57600080fd5b8063095ea7b31161034b578063095ea7b3146103da5780630eba9849146103ef5780631be052891461040757600080fd5b806301ffc9a71461037257806306fdde031461039a578063081812fc146103af575b600080fd5b610385610380366004613d9c565b6107a4565b60405190151581526020015b60405180910390f35b6103a2610889565b6040516103919190613e09565b6103c26103bd366004613e1c565b61091b565b6040516001600160a01b039091168152602001610391565b6103ed6103e8366004613e4c565b610942565b005b6103f96101325481565b604051908152602001610391565b6103f962093a8081565b6103f96101305481565b6103ed610429366004613e76565b505050565b6103f9610a87565b6103f9610444366004613e1c565b610b4c565b6103f9610457366004613e4c565b610b57565b6103ed61046a366004613efe565b610b6b565b6103ed61047d366004613e76565b610bb0565b6103ed610490366004613f40565b610bcb565b6103f96104a3366004613e1c565b610e9f565b6104bb6104b6366004613e1c565b610f67565b6040516103919190613fea565b6103f96101315481565b6103f961012e5481565b6103f96104ea366004613e1c565b610fcf565b6103ed6104fd366004613e1c565b611014565b6103c2610510366004613e1c565b61121e565b6103f9610523366004613e1c565b611283565b61053b610536366004613ff9565b6112ae565b6040516103919190614045565b6103ed610556366004613efe565b6112ed565b6103f9610569366004614089565b61150a565b6103ed6115a4565b6103ed6105843660046140a4565b6115ae565b6103ed6115c7565b6103f96101355481565b6103f9611652565b6103f9670de0b6b3a764000081565b60c9546001600160a01b03166103c2565b6105d66105d1366004613efe565b611666565b60405161039191906140c6565b6103a2611779565b6103f96105f9366004613e1c565b611788565b6103f961060c366004613e1c565b6117ae565b6103f961061f366004613e1c565b61013b6020526000908152604090205481565b6103ed610640366004614117565b5050565b6103f96117d4565b6103f961065a366004613e1c565b6117de565b6103ed61066d366004614164565b6117eb565b6103a2610680366004613e1c565b611873565b6103f96101335481565b6103f961069d366004613e1c565b61013a6020526000908152604090205481565b6103f961012f5481565b6103ed6106c83660046140a4565b6118e6565b6103f96106db366004613e1c565b6118f0565b610138546103c2906001600160a01b031681565b60fb546001600160a01b03166103c2565b610385610713366004613f40565b6001600160a01b039182166000908152609c6020908152604080832093909416825291909152205460ff1690565b6103f96101345481565b61075e6107593660046140a4565b611938565b60408051928352602083019190915201610391565b6103ed610781366004614089565b611a82565b610139546103c2906001600160a01b031681565b6103f961012d5481565b60007fffffffff0000000000000000000000000000000000000000000000000000000082167f80ac58cd00000000000000000000000000000000000000000000000000000000148061083757507fffffffff0000000000000000000000000000000000000000000000000000000082167f5b5e139f00000000000000000000000000000000000000000000000000000000145b8061088357507f01ffc9a7000000000000000000000000000000000000000000000000000000007fffffffff000000000000000000000000000000000000000000000000000000008316145b92915050565b60606097805461089890614240565b80601f01602080910402602001604051908101604052809291908181526020018280546108c490614240565b80156109115780601f106108e657610100808354040283529160200191610911565b820191906000526020600020905b8154815290600101906020018083116108f457829003601f168201915b5050505050905090565b600061092682611b00565b506000908152609b60205260409020546001600160a01b031690565b600061094d8261121e565b9050806001600160a01b0316836001600160a01b0316036109db5760405162461bcd60e51b815260206004820152602160248201527f4552433732313a20617070726f76616c20746f2063757272656e74206f776e6560448201527f720000000000000000000000000000000000000000000000000000000000000060648201526084015b60405180910390fd5b336001600160a01b0382161480610a1557506001600160a01b0381166000908152609c6020908152604080832033845290915290205460ff165b6104295760405162461bcd60e51b815260206004820152603d60248201527f4552433732313a20617070726f76652063616c6c6572206973206e6f7420746f60448201527f6b656e206f776e6572206f7220617070726f76656420666f7220616c6c00000060648201526084016109d2565b600061013754600003610a9c57506101365490565b60006101375411610aef5760405162461bcd60e51b815260206004820152601060248201527f496e636f7272656374207765696768740000000000000000000000000000000060448201526064016109d2565b600061013354610afd611652565b610b079190614290565b9050610137546101355482610b1c91906142a3565b610b2e90670de0b6b3a76400006142a3565b610b3891906142ba565b61013654610b4691906142dc565b91505090565b600061088382611b64565b6000610b64338484611e18565b9392505050565b8060005b81811015610baa57610b98848483818110610b8c57610b8c6142ef565b90506020020135611fd1565b80610ba281614305565b915050610b6f565b50505050565b610429838383604051806020016040528060008152506117eb565b600054610100900460ff1615808015610beb5750600054600160ff909116105b80610c055750303b158015610c05575060005460ff166001145b610c775760405162461bcd60e51b815260206004820152602e60248201527f496e697469616c697a61626c653a20636f6e747261637420697320616c72656160448201527f647920696e697469616c697a656400000000000000000000000000000000000060648201526084016109d2565b600080547fffffffffffffffffffffffffffffffffffffffffffffffffffffffffffffff001660011790558015610cb8576000805461ff0019166101001790555b610cc0612097565b610d346040518060400160405280600b81526020017f5374616b656420494e54580000000000000000000000000000000000000000008152506040518060400160405280600581526020017f58494e545800000000000000000000000000000000000000000000000000000081525061210a565b610d3c61217f565b6001600160a01b038316610d925760405162461bcd60e51b815260206004820152601460248201527f43616e277420757365203078206164647265737300000000000000000000000060448201526064016109d2565b6001600160a01b038216610de85760405162461bcd60e51b815260206004820152601460248201527f43616e277420757365203078206164647265737300000000000000000000000060448201526064016109d2565b61013880546001600160a01b0380861673ffffffffffffffffffffffffffffffffffffffff19928316179092556101398054928516929091169190911790556293a80061012f556722b1c8c1227a0000610130556703782dace9d90000610131556611c37937e08000610132558015610429576000805461ff0019169055604051600181527f7f26b83ff96e1f2b6a682f133852f6798a09c465da95921460cefb38474024989060200160405180910390a1505050565b600080670de0b6b3a7640000610eb4846121f2565b600085815261013b6020526040902054610ece91906142a3565b610ed891906142ba565b600084815261013c602052604081205491925090600290610efa9084906142dc565b610f0491906142ba565b600085815261013e602090815260408083205461013d9092529091205491925090670de0b6b3a764000090610f37610a87565b610f419190614290565b610f4b90846142a3565b610f5591906142ba565b610f5f91906142dc565b949350505050565b610fc66040518061014001604052806000815260200160006001600160a01b0316815260200160008152602001600081526020016000815260200160008152602001600081526020016000815260200160008152602001600081525090565b6108838261228f565b600080610fdb836123d8565b90506000610fe884612406565b9050811561100d57670de0b6b3a764000061100382846142a3565b610f5f91906142ba565b5050919050565b61101c6124af565b611024612508565b61103d33610139546001600160a01b0316903084612562565b61104f670de0b6b3a7640000826142a3565b90506101345442106110715761106862093a80826142ba565b610135556110b6565b600042610134546110829190614290565b90506000610135548261109591906142a3565b905062093a806110a582856142dc565b6110af91906142ba565b6101355550505b610139546040517f70a08231000000000000000000000000000000000000000000000000000000008152306004820152600091670de0b6b3a7640000916001600160a01b03909116906370a0823190602401602060405180830381865afa158015611125573d6000803e3d6000fd5b505050506040513d601f19601f82011682018060405250810190611149919061431f565b61115391906142a3565b905061116262093a80826142ba565b6101355411156111b45760405162461bcd60e51b815260206004820152601860248201527f50726f76696465642072657761726420746f6f2068696768000000000000000060448201526064016109d2565b426101338190556111c99062093a80906142dc565b610134557fde88a922e0d3b88b24e9623efeb464919c6bf9f66857a65e2bfcf2ce87a9433d611200670de0b6b3a7640000846142ba565b60405190815260200160405180910390a15061121b60018055565b50565b6000818152609960205260408120546001600160a01b0316806108835760405162461bcd60e51b815260206004820152601860248201527f4552433732313a20696e76616c696420746f6b656e204944000000000000000060448201526064016109d2565b6000818152609960205260408120546001600160a01b0316156112a957610883826121f2565b919050565b6060610f5f8484848080602002602001604051908101604052809392919081815260200183836020028082843760009201919091525061261992505050565b33600090815261013f60205260408120548291908190815b8481101561146b5786868281811061131f5761131f6142ef565b905060200201359350611349846000908152609960205260409020546001600160a01b0316151590565b6113955760405162461bcd60e51b815260206004820152601c60248201527f5468697320706f736974696f6e20646f65736e27742065786973742e0000000060448201526064016109d2565b6000848152609960205260409020546001600160a01b031692503383146114245760405162461bcd60e51b815260206004820152602760248201527f596f7520617265206e6f7420746865206f776e6572206f66207468697320706f60448201527f736974696f6e2e0000000000000000000000000000000000000000000000000060648201526084016109d2565b61142d84611fd1565b600084815261013e602052604090205461144790836142dc565b600085815261013e602052604081205591508061146381614305565b915050611305565b5033600081815261013f60205260408120556114a790611493670de0b6b3a7640000846142ba565b610139546001600160a01b03169190612b6d565b85856040516114b7929190614338565b6040518091039020826001600160a01b03167f916f43dce61aa4c4d8761c25ddcacfe178ea96a18f68d2775354bbc06be75aaa836040516114fa91815260200190565b60405180910390a3505050505050565b60006001600160a01b0382166115885760405162461bcd60e51b815260206004820152602960248201527f4552433732313a2061646472657373207a65726f206973206e6f74206120766160448201527f6c6964206f776e6572000000000000000000000000000000000000000000000060648201526084016109d2565b506001600160a01b03166000908152609a602052604090205490565b6115ac612508565b565b60006115bb333385611e18565b90506104298183612bb6565b60fb5433906001600160a01b031681146116495760405162461bcd60e51b815260206004820152602960248201527f4f776e61626c6532537465703a2063616c6c6572206973206e6f74207468652060448201527f6e6577206f776e6572000000000000000000000000000000000000000000000060648201526084016109d2565b61121b81613001565b60006116614261013454613027565b905090565b6060818067ffffffffffffffff8111156116825761168261414e565b60405190808252806020026020018201604052801561171257816020015b6116ff6040518061014001604052806000815260200160006001600160a01b0316815260200160008152602001600081526020016000815260200160008152602001600081526020016000815260200160008152602001600081525090565b8152602001906001900390816116a05790505b50915060005b8181101561177157611741858583818110611735576117356142ef565b9050602002013561228f565b838281518110611753576117536142ef565b6020026020010181905250808061176990614305565b915050611718565b505092915050565b60606098805461089890614240565b6000818152609960205260408120546001600160a01b0316156112a95761088382612406565b6000818152609960205260408120546001600160a01b0316156112a957610883826123d8565b600061166161303d565b6000610883333384611e18565b6117f53383613080565b6118675760405162461bcd60e51b815260206004820152602d60248201527f4552433732313a2063616c6c6572206973206e6f7420746f6b656e206f776e6560448201527f72206f7220617070726f7665640000000000000000000000000000000000000060648201526084016109d2565b610baa848484846130fe565b606061187e82611b00565b600061189560408051602081019091526000815290565b905060008151116118b55760405180602001604052806000815250610b64565b806118bf84613187565b6040516020016118d092919061437a565b6040516020818303038152906040529392505050565b6106408282612bb6565b6000806118fc836123d8565b9050600061190984612406565b9050811561100d57670de0b6b3a764000061192482846142a3565b61192e91906142ba565b610f5f9083614290565b600082815261013b602052604081205481908381116119bf5760405162461bcd60e51b815260206004820152602e60248201527f596f752063616e2774207061727469616c6c79207769746864726177206d6f7260448201527f65207468616e20796f75206f776e00000000000000000000000000000000000060648201526084016109d2565b60408051600280825260608201835260009260208301908036833701905050905084816000815181106119f4576119f46142ef565b6020908102919091010152611a098583614290565b81600181518110611a1c57611a1c6142ef565b6020026020010181815250506000611a348783612619565b9050611a5981600081518110611a4c57611a4c6142ef565b6020026020010151611b64565b945080600181518110611a6e57611a6e6142ef565b602002602001015193505050509250929050565b611a8a612508565b60fb80546001600160a01b03831673ffffffffffffffffffffffffffffffffffffffff199091168117909155611ac860c9546001600160a01b031690565b6001600160a01b03167f38d16b8cac22d99fc7c124b9cd0de2d3fa1faef420bfe791d8c362d765e2270060405160405180910390a350565b6000818152609960205260409020546001600160a01b031661121b5760405162461bcd60e51b815260206004820152601860248201527f4552433732313a20696e76616c696420746f6b656e204944000000000000000060448201526064016109d2565b6000611b6e6124af565b6000828152609960205260409020546001600160a01b0316611bd25760405162461bcd60e51b815260206004820152601c60248201527f5468697320706f736974696f6e20646f65736e27742065786973742e0000000060448201526064016109d2565b6000828152609960205260409020546001600160a01b0316338114611c395760405162461bcd60e51b815260206004820152601360248201527f4e6f7420796f75722078494e5458204e46542e0000000000000000000000000060448201526064016109d2565b611c4283611fd1565b600083815261013b602052604081205490670de0b6b3a7640000611c65866121f2565b611c6f90846142a3565b611c7991906142ba565b90506000611c8561303d565b90506000611c9382856142a3565b90506000611ca088612406565b611caa90836142a3565b9050670de0b6b3a7640000611cbf8284614290565b611cc991906142ba565b600089815261013a6020908152604080832083905561013b825280832083905561013c825280832083905561013d825280832083905561013e90915290205490975015611d4e57600088815261013e60209081526040808320546001600160a01b038a16845261013f9092528220805491929091611d489084906142dc565b90915550505b600088815261013e6020526040812055611d6788613227565b8461012e6000828254611d7a9190614290565b92505081905550836101376000828254611d949190614290565b909155505061013854611db1906001600160a01b03168789612b6d565b61012e5460408051878152602081018a905280820184905260608101929092525189916001600160a01b038916917f44bd20a79e993bdcc7cbedf54a3b4d19fb78490124b6b90d04fe3242eea579e89181900360800190a35050505050506112a960018055565b6000611e226124af565b60008211611e725760405162461bcd60e51b815260206004820152601360248201527f43616e2774207374616b65203020696e74582e0000000000000000000000000060448201526064016109d2565b6000611e7c61303d565b61013854909150611e98906001600160a01b0316863086612562565b61012d8054906000611ea983614305565b9190505550611ebb8461012d546132c9565b611ec761012d54611fd1565b600081611edc670de0b6b3a7640000866142a3565b611ee691906142ba565b61012d8054600090815261013a602090815260408083204290559254825261013b905290812082905561012e80549293508392909190611f279084906142dc565b92505081905550806101376000828254611f4191906142dc565b909155505061012d8054600090815261013c6020908152604091829020849055915461012e54610137548351868152948501899052928401526060830191909152906001600160a01b0380881691908916907f52c6b7a228763dc832bef1e2dee48707b24b8f1400a6335b3af6d5def4f5bb219060800160405180910390a461012d5492505050610b6460018055565b611fd9610a87565b61013655611fe5611652565b61013355801561121b57611ff881610e9f565b600082815261013e6020526040812091909155670de0b6b3a764000061201d836121f2565b600084815261013b602052604090205461203791906142a3565b61204191906142ba565b600083815261013c60205260409020546101375491925082916120649190614290565b61206e91906142dc565b61013755600091825261013c60209081526040808420929092556101365461013d909152912055565b600054610100900460ff166121025760405162461bcd60e51b815260206004820152602b60248201527f496e697469616c697a61626c653a20636f6e7472616374206973206e6f74206960448201526a6e697469616c697a696e6760a81b60648201526084016109d2565b6115ac613461565b600054610100900460ff166121755760405162461bcd60e51b815260206004820152602b60248201527f496e697469616c697a61626c653a20636f6e7472616374206973206e6f74206960448201526a6e697469616c697a696e6760a81b60648201526084016109d2565b61064082826134cc565b600054610100900460ff166121ea5760405162461bcd60e51b815260206004820152602b60248201527f496e697469616c697a61626c653a20636f6e7472616374206973206e6f74206960448201526a6e697469616c697a696e6760a81b60648201526084016109d2565b6115ac613550565b600081815261013a60205260408120548082036122125750600092915050565b600061221e8242614290565b905061012f54811115612231575061012f545b670de0b6b3a764000080610130546122499190614290565b61012f5461225f670de0b6b3a7640000856142a3565b61226991906142ba565b61227391906142a3565b61227d91906142ba565b610f5f90670de0b6b3a76400006142dc565b6122ee6040518061014001604052806000815260200160006001600160a01b0316815260200160008152602001600081526020016000815260200160008152602001600081526020016000815260200160008152602001600081525090565b60006122f9836123d8565b9050600061230684612406565b8484526000858152609960209081526040808320546001600160a01b03168288015287835261013b909152908190205490850152606084018390529050670de0b6b3a764000061235682846142a3565b61236091906142ba565b61236a9083614290565b6080840152600084815261013a602052604090205460a084015261238d846121f2565b60c084015260e08301819052670de0b6b3a76400006123ac82846142a3565b6123b691906142ba565b6101008401525050600091825261013e60205260409091205461012082015290565b600081815261013b6020526040812054816123f161303d565b9050670de0b6b3a764000061100382846142a3565b600081815261013a60205260408120548082036124265750600092915050565b60006124328242614290565b905061012f54811115612445575061012f545b670de0b6b3a76400006101315461012f54670de0b6b3a76400008461246a91906142a3565b61247491906142ba565b61247e91906142a3565b61248891906142ba565b610131546124969190614290565b92506101325483101561100d5750506101325492915050565b6002600154036125015760405162461bcd60e51b815260206004820152601f60248201527f5265656e7472616e637947756172643a207265656e7472616e742063616c6c0060448201526064016109d2565b6002600155565b60c9546001600160a01b031633146115ac5760405162461bcd60e51b815260206004820181905260248201527f4f776e61626c653a2063616c6c6572206973206e6f7420746865206f776e657260448201526064016109d2565b6040516001600160a01b0380851660248301528316604482015260648101829052610baa9085907f23b872dd00000000000000000000000000000000000000000000000000000000906084015b60408051601f198184030181529190526020810180517bffffffffffffffffffffffffffffffffffffffffffffffffffffffff167fffffffff00000000000000000000000000000000000000000000000000000000909316929092179091526135c4565b60018055565b60606126236124af565b6000838152609960205260409020546001600160a01b03166126875760405162461bcd60e51b815260206004820152601c60248201527f5468697320706f736974696f6e20646f65736e27742065786973742e0000000060448201526064016109d2565b6000838152609960205260409020546001600160a01b03163381146126ee5760405162461bcd60e51b815260206004820152601360248201527f4e6f7420796f75722078494e5458204e46542e0000000000000000000000000060448201526064016109d2565b8251600181116127665760405162461bcd60e51b815260206004820152602c60248201527f596f752063616e27742073706c697420746869732058494e5458206c6573732060448201527f7468616e20322074696d6573000000000000000000000000000000000000000060648201526084016109d2565b600a8111156127dd5760405162461bcd60e51b815260206004820152602d60248201527f596f752063616e27742073706c697420746869732058494e5458206d6f72652060448201527f7468616e2031302074696d65730000000000000000000000000000000000000060648201526084016109d2565b8067ffffffffffffffff8111156127f6576127f661414e565b60405190808252806020026020018201604052801561281f578160200160208202803683370190505b50925061282b85611fd1565b600085815261013b602090815260408083205461013a83528184205461013d9093529083205461012e80549293928491908690612869908490614290565b9091555050600089815261013c6020526040812054610137805491929091612892908490614290565b90915550600090505b858110156128dc578881815181106128b5576128b56142ef565b6020026020010151856128c891906142dc565b9450806128d481614305565b91505061289b565b5060005b85811015612ac257600085858b84815181106128fe576128fe6142ef565b602002602001015161291091906142a3565b61291a91906142ba565b90506000811161296c5760405162461bcd60e51b815260206004820152601460248201527f43616e27742073706c697420302078494e54582e00000000000000000000000060448201526064016109d2565b61012d805490600061297d83614305565b919050555061298f8861012d546132c9565b61012d548983815181106129a5576129a56142ef565b60209081029190910181019190915261012d8054600090815261013a835260408082208890558254825261013b90935291822083905554670de0b6b3a7640000906129ef906121f2565b6129f990846142a3565b612a0391906142ba565b61012d8054600090815261013c602090815260408083208590559254825261013d905290812086905561012e80549293508492909190612a449084906142dc565b92505081905550806101376000828254612a5e91906142dc565b909155505061012d5460408051918252602082018490528d916001600160a01b038c16917ff66885c33d648fcd0d97e0f2a18e30102169c22763473af0fb716f11b4a17dd6910160405180910390a350508080612aba90614305565b9150506128e0565b50600089815261013a6020908152604080832083905561013b825280832083905561013c825280832083905561013d825280832083905561013e90915290205415612b4557600089815261013e60209081526040808320546001600160a01b038a16845261013f9092528220805491929091612b3f9084906142dc565b90915550505b600089815261013e6020526040812055612b5e89613227565b50505050505061088360018055565b6040516001600160a01b0383166024820152604481018290526104299084907fa9059cbb00000000000000000000000000000000000000000000000000000000906064016125af565b612bbe6124af565b6000828152609960205260409020546001600160a01b0316612c225760405162461bcd60e51b815260206004820152601c60248201527f5468697320706f736974696f6e20646f65736e27742065786973742e0000000060448201526064016109d2565b6000818152609960205260409020546001600160a01b0316612c865760405162461bcd60e51b815260206004820152601c60248201527f5468697320706f736974696f6e20646f65736e27742065786973742e0000000060448201526064016109d2565b6000828152609960205260409020546001600160a01b0316338114612ced5760405162461bcd60e51b815260206004820152601e60248201527f46726f6d204e46542069736e277420796f75722078494e5458204e46542e000060448201526064016109d2565b6000828152609960205260409020546001600160a01b03828116911614612d565760405162461bcd60e51b815260206004820152601760248201527f546f204e46542069736e27742078494e5458204e46542e00000000000000000060448201526064016109d2565b612d5f83611fd1565b612d6882611fd1565b600083815261013b602090815260408083205461013a909252822054909190612d919042614290565b905061012f54811115612da4575061012f545b600084815261013b602090815260408083205461013a909252822054909190612dcd9042614290565b905061012f54811115612de0575061012f545b6000612dec83866142dc565b905060008111612e645760405162461bcd60e51b815260206004820152602360248201527f43616e2774206d616b65206120706f736974696f6e207769746820302078494e60448201527f54582e000000000000000000000000000000000000000000000000000000000060648201526084016109d2565b600081612e7185856142a3565b612e7b91906142ba565b82612e8688886142a3565b612e9091906142ba565b612e9a91906142dc565b600089815261013b602052604090208390559050612eb88142614290565b600089815261013a6020526040812091909155670de0b6b3a7640000612edd8a6121f2565b612ee790856142a3565b612ef191906142ba565b60008a815261013c602081815260408084208590558e845261013a825280842084905561013b825280842084905591815281832083905561013d815281832083905561013e905290205490915015612f815760008a815261013e60209081526040808320546001600160a01b038c16845261013f9092528220805491929091612f7b9084906142dc565b90915550505b60008a815261013e6020526040812055612f9a8a613227565b896001600160a01b0389167f50d7f0ef4f7b59921566f6b835fb032efa0fd0dacccb9361292f89b7aa6bafdd8b86612fd28742614290565b6040805193845260208401929092529082015260600160405180910390a3505050505050505061064060018055565b60fb805473ffffffffffffffffffffffffffffffffffffffff1916905561121b816136ac565b60008183106130365781610b64565b5090919050565b600061012e546000036130575750670de0b6b3a764000090565b61012e54670de0b6b3a764000061306c61370b565b61307691906142a3565b61166191906142ba565b60008061308c8361121e565b9050806001600160a01b0316846001600160a01b031614806130d357506001600160a01b038082166000908152609c602090815260408083209388168352929052205460ff165b80610f5f5750836001600160a01b03166130ec8461091b565b6001600160a01b031614949350505050565b613109848484613792565b613115848484846139c8565b610baa5760405162461bcd60e51b815260206004820152603260248201527f4552433732313a207472616e7366657220746f206e6f6e20455243373231526560448201527f63656976657220696d706c656d656e746572000000000000000000000000000060648201526084016109d2565b6060600061319483613b69565b600101905060008167ffffffffffffffff8111156131b4576131b461414e565b6040519080825280601f01601f1916602001820160405280156131de576020820181803683370190505b5090508181016020015b600019017f3031323334353637383961626364656600000000000000000000000000000000600a86061a8153600a85049450846131e857509392505050565b60006132328261121e565b905061323d8261121e565b6000838152609b60209081526040808320805473ffffffffffffffffffffffffffffffffffffffff199081169091556001600160a01b038516808552609a845282852080546000190190558785526099909352818420805490911690555192935084927fddf252ad1be2c89b69c2b068fc378daa952ba7f163c4a11628f55a4df523b3ef908390a45050565b6001600160a01b03821661331f5760405162461bcd60e51b815260206004820181905260248201527f4552433732313a206d696e7420746f20746865207a65726f206164647265737360448201526064016109d2565b6000818152609960205260409020546001600160a01b0316156133845760405162461bcd60e51b815260206004820152601c60248201527f4552433732313a20746f6b656e20616c7265616479206d696e7465640000000060448201526064016109d2565b6000818152609960205260409020546001600160a01b0316156133e95760405162461bcd60e51b815260206004820152601c60248201527f4552433732313a20746f6b656e20616c7265616479206d696e7465640000000060448201526064016109d2565b6001600160a01b0382166000818152609a60209081526040808320805460010190558483526099909152808220805473ffffffffffffffffffffffffffffffffffffffff19168417905551839291907fddf252ad1be2c89b69c2b068fc378daa952ba7f163c4a11628f55a4df523b3ef908290a45050565b600054610100900460ff166126135760405162461bcd60e51b815260206004820152602b60248201527f496e697469616c697a61626c653a20636f6e7472616374206973206e6f74206960448201526a6e697469616c697a696e6760a81b60648201526084016109d2565b600054610100900460ff166135375760405162461bcd60e51b815260206004820152602b60248201527f496e697469616c697a61626c653a20636f6e7472616374206973206e6f74206960448201526a6e697469616c697a696e6760a81b60648201526084016109d2565b609761354383826143f7565b50609861042982826143f7565b600054610100900460ff166135bb5760405162461bcd60e51b815260206004820152602b60248201527f496e697469616c697a61626c653a20636f6e7472616374206973206e6f74206960448201526a6e697469616c697a696e6760a81b60648201526084016109d2565b6115ac33613001565b6000613619826040518060400160405280602081526020017f5361666545524332303a206c6f772d6c6576656c2063616c6c206661696c6564815250856001600160a01b0316613c4b9092919063ffffffff16565b905080516000148061363a57508080602001905181019061363a91906144b7565b6104295760405162461bcd60e51b815260206004820152602a60248201527f5361666545524332303a204552433230206f7065726174696f6e20646964206e60448201527f6f7420737563636565640000000000000000000000000000000000000000000060648201526084016109d2565b60c980546001600160a01b0383811673ffffffffffffffffffffffffffffffffffffffff19831681179093556040519116919082907f8be0079c531659141344cd1fd0a4f28419497f9722a3daafe3b4186f6b6457e090600090a35050565b610138546040517f70a082310000000000000000000000000000000000000000000000000000000081523060048201526000916001600160a01b0316906370a0823190602401602060405180830381865afa15801561376e573d6000803e3d6000fd5b505050506040513d601f19601f82011682018060405250810190611661919061431f565b826001600160a01b03166137a58261121e565b6001600160a01b0316146138215760405162461bcd60e51b815260206004820152602560248201527f4552433732313a207472616e736665722066726f6d20696e636f72726563742060448201527f6f776e657200000000000000000000000000000000000000000000000000000060648201526084016109d2565b6001600160a01b03821661389c5760405162461bcd60e51b8152602060048201526024808201527f4552433732313a207472616e7366657220746f20746865207a65726f2061646460448201527f726573730000000000000000000000000000000000000000000000000000000060648201526084016109d2565b826001600160a01b03166138af8261121e565b6001600160a01b03161461392b5760405162461bcd60e51b815260206004820152602560248201527f4552433732313a207472616e736665722066726f6d20696e636f72726563742060448201527f6f776e657200000000000000000000000000000000000000000000000000000060648201526084016109d2565b6000818152609b60209081526040808320805473ffffffffffffffffffffffffffffffffffffffff199081169091556001600160a01b03878116808652609a8552838620805460001901905590871680865283862080546001019055868652609990945282852080549092168417909155905184937fddf252ad1be2c89b69c2b068fc378daa952ba7f163c4a11628f55a4df523b3ef91a4505050565b60006001600160a01b0384163b15613b5e576040517f150b7a020000000000000000000000000000000000000000000000000000000081526001600160a01b0385169063150b7a0290613a259033908990889088906004016144d4565b6020604051808303816000875af1925050508015613a60575060408051601f3d908101601f19168201909252613a5d91810190614510565b60015b613b13573d808015613a8e576040519150601f19603f3d011682016040523d82523d6000602084013e613a93565b606091505b508051600003613b0b5760405162461bcd60e51b815260206004820152603260248201527f4552433732313a207472616e7366657220746f206e6f6e20455243373231526560448201527f63656976657220696d706c656d656e746572000000000000000000000000000060648201526084016109d2565b805181602001fd5b7fffffffff00000000000000000000000000000000000000000000000000000000167f150b7a0200000000000000000000000000000000000000000000000000000000149050610f5f565b506001949350505050565b6000807a184f03e93ff9f4daa797ed6e38ed64bf6a1f0100000000000000008310613bb2577a184f03e93ff9f4daa797ed6e38ed64bf6a1f010000000000000000830492506040015b6d04ee2d6d415b85acef81000000008310613bde576d04ee2d6d415b85acef8100000000830492506020015b662386f26fc100008310613bfc57662386f26fc10000830492506010015b6305f5e1008310613c14576305f5e100830492506008015b6127108310613c2857612710830492506004015b60648310613c3a576064830492506002015b600a83106108835760010192915050565b6060610f5f848460008585600080866001600160a01b03168587604051613c72919061452d565b60006040518083038185875af1925050503d8060008114613caf576040519150601f19603f3d011682016040523d82523d6000602084013e613cb4565b606091505b5091509150613cc587838387613cd0565b979650505050505050565b60608315613d3f578251600003613d38576001600160a01b0385163b613d385760405162461bcd60e51b815260206004820152601d60248201527f416464726573733a2063616c6c20746f206e6f6e2d636f6e747261637400000060448201526064016109d2565b5081610f5f565b610f5f8383815115613d545781518083602001fd5b8060405162461bcd60e51b81526004016109d29190613e09565b7fffffffff000000000000000000000000000000000000000000000000000000008116811461121b57600080fd5b600060208284031215613dae57600080fd5b8135610b6481613d6e565b60005b83811015613dd4578181015183820152602001613dbc565b50506000910152565b60008151808452613df5816020860160208601613db9565b601f01601f19169290920160200192915050565b602081526000610b646020830184613ddd565b600060208284031215613e2e57600080fd5b5035919050565b80356001600160a01b03811681146112a957600080fd5b60008060408385031215613e5f57600080fd5b613e6883613e35565b946020939093013593505050565b600080600060608486031215613e8b57600080fd5b613e9484613e35565b9250613ea260208501613e35565b9150604084013590509250925092565b60008083601f840112613ec457600080fd5b50813567ffffffffffffffff811115613edc57600080fd5b6020830191508360208260051b8501011115613ef757600080fd5b9250929050565b60008060208385031215613f1157600080fd5b823567ffffffffffffffff811115613f2857600080fd5b613f3485828601613eb2565b90969095509350505050565b60008060408385031215613f5357600080fd5b613f5c83613e35565b9150613f6a60208401613e35565b90509250929050565b805182526020810151613f9160208401826001600160a01b03169052565b5060408101516040830152606081015160608301526080810151608083015260a081015160a083015260c081015160c083015260e081015160e08301526101008082015181840152506101208082015181840152505050565b61014081016108838284613f73565b60008060006040848603121561400e57600080fd5b83359250602084013567ffffffffffffffff81111561402c57600080fd5b61403886828701613eb2565b9497909650939450505050565b6020808252825182820181905260009190848201906040850190845b8181101561407d57835183529284019291840191600101614061565b50909695505050505050565b60006020828403121561409b57600080fd5b610b6482613e35565b600080604083850312156140b757600080fd5b50508035926020909101359150565b6020808252825182820181905260009190848201906040850190845b8181101561407d576140f5838551613f73565b9284019261014092909201916001016140e2565b801515811461121b57600080fd5b6000806040838503121561412a57600080fd5b61413383613e35565b9150602083013561414381614109565b809150509250929050565b634e487b7160e01b600052604160045260246000fd5b6000806000806080858703121561417a57600080fd5b61418385613e35565b935061419160208601613e35565b925060408501359150606085013567ffffffffffffffff808211156141b557600080fd5b818701915087601f8301126141c957600080fd5b8135818111156141db576141db61414e565b604051601f8201601f19908116603f011681019083821181831017156142035761420361414e565b816040528281528a602084870101111561421c57600080fd5b82602086016020830137600060208483010152809550505050505092959194509250565b600181811c9082168061425457607f821691505b60208210810361427457634e487b7160e01b600052602260045260246000fd5b50919050565b634e487b7160e01b600052601160045260246000fd5b818103818111156108835761088361427a565b80820281158282048414176108835761088361427a565b6000826142d757634e487b7160e01b600052601260045260246000fd5b500490565b808201808211156108835761088361427a565b634e487b7160e01b600052603260045260246000fd5b600060001982036143185761431861427a565b5060010190565b60006020828403121561433157600080fd5b5051919050565b60007f07ffffffffffffffffffffffffffffffffffffffffffffffffffffffffffffff83111561436757600080fd5b8260051b80858437919091019392505050565b6000835161438c818460208801613db9565b8351908301906143a0818360208801613db9565b01949350505050565b601f82111561042957600081815260208120601f850160051c810160208610156143d05750805b601f850160051c820191505b818110156143ef578281556001016143dc565b505050505050565b815167ffffffffffffffff8111156144115761441161414e565b6144258161441f8454614240565b846143a9565b602080601f83116001811461445a57600084156144425750858301515b600019600386901b1c1916600185901b1785556143ef565b600085815260208120601f198616915b828110156144895788860151825594840194600190910190840161446a565b50858210156144a75787850151600019600388901b60f8161c191681555b5050505050600190811b01905550565b6000602082840312156144c957600080fd5b8151610b6481614109565b60006001600160a01b038087168352808616602084015250836040830152608060608301526145066080830184613ddd565b9695505050505050565b60006020828403121561452257600080fd5b8151610b6481613d6e565b6000825161453f818460208701613db9565b919091019291505056fea2646970667358221220796988fa3007c1731d73fa6d61460d87e82bbe1508a38dabad53fbb4dbd41f0964736f6c63430008120033",
  "linkReferences": {},
  "deployedLinkReferences": {}
}