{
  "_format": "hh-sol-artifact-1",
  "contractName": "StakedINTX",
  "sourceName": "contracts/StakedINTX.sol",
  "abi": [
    {
      "inputs": [],
      "stateMutability": "nonpayable",
      "type": "constructor"
    },
    {
      "anonymous": false,
      "inputs": [
        {
          "indexed": true,
          "internalType": "address",
          "name": "owner",
          "type": "address"
        },
        {
          "indexed": true,
          "internalType": "address",
          "name": "approved",
          "type": "address"
        },
        {
          "indexed": true,
          "internalType": "uint256",
          "name": "tokenId",
          "type": "uint256"
        }
      ],
      "name": "Approval",
      "type": "event"
    },
    {
      "anonymous": false,
      "inputs": [
        {
          "indexed": true,
          "internalType": "address",
          "name": "owner",
          "type": "address"
        },
        {
          "indexed": true,
          "internalType": "address",
          "name": "operator",
          "type": "address"
        },
        {
          "indexed": false,
          "internalType": "bool",
          "name": "approved",
          "type": "bool"
        }
      ],
      "name": "ApprovalForAll",
      "type": "event"
    },
    {
      "anonymous": false,
      "inputs": [
        {
          "indexed": true,
          "internalType": "address",
          "name": "owner",
          "type": "address"
        },
        {
          "indexed": true,
          "internalType": "uint256",
          "name": "tokenId",
          "type": "uint256"
        },
        {
          "indexed": false,
          "internalType": "uint256",
          "name": "amountBurned",
          "type": "uint256"
        },
        {
          "indexed": false,
          "internalType": "uint256",
          "name": "amountIntxOut",
          "type": "uint256"
        },
        {
          "indexed": false,
          "internalType": "uint256",
          "name": "amountIntxPenalized",
          "type": "uint256"
        },
        {
          "indexed": false,
          "internalType": "uint256",
          "name": "totalXINTXNew",
          "type": "uint256"
        }
      ],
      "name": "Burn",
      "type": "event"
    },
    {
      "anonymous": false,
      "inputs": [
        {
          "indexed": true,
          "internalType": "address",
          "name": "owner",
          "type": "address"
        },
        {
          "indexed": false,
          "internalType": "uint256",
          "name": "amountOut",
          "type": "uint256"
        },
        {
          "indexed": true,
          "internalType": "uint256[]",
          "name": "tokenIds",
          "type": "uint256[]"
        }
      ],
      "name": "Claim",
      "type": "event"
    },
    {
      "anonymous": false,
      "inputs": [
        {
          "indexed": false,
          "internalType": "uint8",
          "name": "version",
          "type": "uint8"
        }
      ],
      "name": "Initialized",
      "type": "event"
    },
    {
      "anonymous": false,
      "inputs": [
        {
          "indexed": true,
          "internalType": "address",
          "name": "owner",
          "type": "address"
        },
        {
          "indexed": true,
          "internalType": "uint256",
          "name": "tokenIdFrom",
          "type": "uint256"
        },
        {
          "indexed": false,
          "internalType": "uint256",
          "name": "tokenIdTo",
          "type": "uint256"
        },
        {
          "indexed": false,
          "internalType": "uint256",
          "name": "newBalance",
          "type": "uint256"
        },
        {
          "indexed": false,
          "internalType": "uint256",
          "name": "newLoyalSince",
          "type": "uint256"
        }
      ],
      "name": "Merge",
      "type": "event"
    },
    {
      "anonymous": false,
      "inputs": [
        {
          "indexed": true,
          "internalType": "address",
          "name": "from",
          "type": "address"
        },
        {
          "indexed": true,
          "internalType": "address",
          "name": "to",
          "type": "address"
        },
        {
          "indexed": true,
          "internalType": "uint256",
          "name": "tokenId",
          "type": "uint256"
        },
        {
          "indexed": false,
          "internalType": "uint256",
          "name": "amountMinted",
          "type": "uint256"
        },
        {
          "indexed": false,
          "internalType": "uint256",
          "name": "amountIntxIn",
          "type": "uint256"
        },
        {
          "indexed": false,
          "internalType": "uint256",
          "name": "totalXINTXNew",
          "type": "uint256"
        },
        {
          "indexed": false,
          "internalType": "uint256",
          "name": "newTotalWeight",
          "type": "uint256"
        }
      ],
      "name": "Mint",
      "type": "event"
    },
    {
      "anonymous": false,
      "inputs": [
        {
          "indexed": true,
          "internalType": "address",
          "name": "previousOwner",
          "type": "address"
        },
        {
          "indexed": true,
          "internalType": "address",
          "name": "newOwner",
          "type": "address"
        }
      ],
      "name": "OwnershipTransferStarted",
      "type": "event"
    },
    {
      "anonymous": false,
      "inputs": [
        {
          "indexed": true,
          "internalType": "address",
          "name": "previousOwner",
          "type": "address"
        },
        {
          "indexed": true,
          "internalType": "address",
          "name": "newOwner",
          "type": "address"
        }
      ],
      "name": "OwnershipTransferred",
      "type": "event"
    },
    {
      "anonymous": false,
      "inputs": [
        {
          "indexed": false,
          "internalType": "address",
          "name": "account",
          "type": "address"
        }
      ],
      "name": "Paused",
      "type": "event"
    },
    {
      "anonymous": false,
      "inputs": [
        {
          "indexed": false,
          "internalType": "uint256",
          "name": "rewardAdded",
          "type": "uint256"
        }
      ],
      "name": "RewardAdded",
      "type": "event"
    },
    {
      "anonymous": false,
      "inputs": [
        {
          "indexed": true,
          "internalType": "address",
          "name": "owner",
          "type": "address"
        },
        {
          "indexed": true,
          "internalType": "uint256",
          "name": "tokenIdFrom",
          "type": "uint256"
        },
        {
          "indexed": false,
          "internalType": "uint256",
          "name": "tokenIdTo",
          "type": "uint256"
        },
        {
          "indexed": false,
          "internalType": "uint256",
          "name": "balanceSplitted",
          "type": "uint256"
        }
      ],
      "name": "Split",
      "type": "event"
    },
    {
      "anonymous": false,
      "inputs": [
        {
          "indexed": false,
          "internalType": "uint256",
          "name": "intxBalance",
          "type": "uint256"
        },
        {
          "indexed": false,
          "internalType": "uint256",
          "name": "totalXINTX",
          "type": "uint256"
        },
        {
          "indexed": false,
          "internalType": "uint256",
          "name": "totalWeight",
          "type": "uint256"
        }
      ],
      "name": "StatusEvent",
      "type": "event"
    },
    {
      "anonymous": false,
      "inputs": [
        {
          "indexed": true,
          "internalType": "address",
          "name": "from",
          "type": "address"
        },
        {
          "indexed": true,
          "internalType": "address",
          "name": "to",
          "type": "address"
        },
        {
          "indexed": true,
          "internalType": "uint256",
          "name": "tokenId",
          "type": "uint256"
        }
      ],
      "name": "Transfer",
      "type": "event"
    },
    {
      "anonymous": false,
      "inputs": [
        {
          "indexed": false,
          "internalType": "address",
          "name": "account",
          "type": "address"
        }
      ],
      "name": "Unpaused",
      "type": "event"
    },
    {
      "inputs": [],
      "name": "DURATION",
      "outputs": [
        {
          "internalType": "uint256",
          "name": "",
          "type": "uint256"
        }
      ],
      "stateMutability": "view",
      "type": "function"
    },
    {
      "inputs": [],
      "name": "INTX",
      "outputs": [
        {
          "internalType": "contract IERC20",
          "name": "",
          "type": "address"
        }
      ],
      "stateMutability": "view",
      "type": "function"
    },
    {
      "inputs": [],
      "name": "P",
      "outputs": [
        {
          "internalType": "uint256",
          "name": "",
          "type": "uint256"
        }
      ],
      "stateMutability": "view",
      "type": "function"
    },
    {
      "inputs": [],
      "name": "acceptOwnership",
      "outputs": [],
      "stateMutability": "nonpayable",
      "type": "function"
    },
    {
      "inputs": [
        {
          "internalType": "uint256",
          "name": "_intxAmount",
          "type": "uint256"
        },
        {
          "internalType": "uint256",
          "name": "tokenTo",
          "type": "uint256"
        }
      ],
      "name": "add",
      "outputs": [],
      "stateMutability": "nonpayable",
      "type": "function"
    },
    {
      "inputs": [
        {
          "internalType": "uint256",
          "name": "_tokenId",
          "type": "uint256"
        }
      ],
      "name": "amountStakedOf",
      "outputs": [
        {
          "internalType": "uint256",
          "name": "amount",
          "type": "uint256"
        }
      ],
      "stateMutability": "view",
      "type": "function"
    },
    {
      "inputs": [
        {
          "internalType": "address",
          "name": "to",
          "type": "address"
        },
        {
          "internalType": "uint256",
          "name": "tokenId",
          "type": "uint256"
        }
      ],
      "name": "approve",
      "outputs": [],
      "stateMutability": "nonpayable",
      "type": "function"
    },
    {
      "inputs": [
        {
          "internalType": "address",
          "name": "owner",
          "type": "address"
        }
      ],
      "name": "balanceOf",
      "outputs": [
        {
          "internalType": "uint256",
          "name": "",
          "type": "uint256"
        }
      ],
      "stateMutability": "view",
      "type": "function"
    },
    {
      "inputs": [
        {
          "internalType": "uint256",
          "name": "",
          "type": "uint256"
        }
      ],
      "name": "balanceOfId",
      "outputs": [
        {
          "internalType": "uint256",
          "name": "",
          "type": "uint256"
        }
      ],
      "stateMutability": "view",
      "type": "function"
    },
    {
      "inputs": [
        {
          "internalType": "uint256",
          "name": "_tokenId",
          "type": "uint256"
        }
      ],
      "name": "boostPercentageOf",
      "outputs": [
        {
          "internalType": "uint256",
          "name": "boostPercentage",
          "type": "uint256"
        }
      ],
      "stateMutability": "view",
      "type": "function"
    },
    {
      "inputs": [
        {
          "internalType": "uint256[]",
          "name": "_tokenIds",
          "type": "uint256[]"
        }
      ],
      "name": "claim",
      "outputs": [],
      "stateMutability": "nonpayable",
      "type": "function"
    },
    {
      "inputs": [],
      "name": "currentExchangeRate",
      "outputs": [
        {
          "internalType": "uint256",
          "name": "_exchangeRate",
          "type": "uint256"
        }
      ],
      "stateMutability": "view",
      "type": "function"
    },
    {
      "inputs": [
        {
          "internalType": "uint256[]",
          "name": "_tokenIds",
          "type": "uint256[]"
        }
      ],
      "name": "earned",
      "outputs": [
        {
          "internalType": "uint256",
          "name": "totalReward",
          "type": "uint256"
        },
        {
          "internalType": "uint256[]",
          "name": "claimableAmounts",
          "type": "uint256[]"
        }
      ],
      "stateMutability": "view",
      "type": "function"
    },
    {
      "inputs": [
        {
          "internalType": "uint256",
          "name": "_tokenId",
          "type": "uint256"
        }
      ],
      "name": "earned",
      "outputs": [
        {
          "internalType": "uint256",
          "name": "",
          "type": "uint256"
        }
      ],
      "stateMutability": "view",
      "type": "function"
    },
    {
      "inputs": [
        {
          "internalType": "uint256",
          "name": "tokenId",
          "type": "uint256"
        }
      ],
      "name": "getApproved",
      "outputs": [
        {
          "internalType": "address",
          "name": "",
          "type": "address"
        }
      ],
      "stateMutability": "view",
      "type": "function"
    },
    {
      "inputs": [
        {
          "internalType": "uint256",
          "name": "_tokenId",
          "type": "uint256"
        }
      ],
      "name": "getPositionInfo",
      "outputs": [
        {
          "components": [
            {
              "internalType": "uint256",
              "name": "tokenId",
              "type": "uint256"
            },
            {
              "internalType": "address",
              "name": "owner",
              "type": "address"
            },
            {
              "internalType": "uint256",
              "name": "balanceOfId",
              "type": "uint256"
            },
            {
              "internalType": "uint256",
              "name": "amountStakedOf",
              "type": "uint256"
            },
            {
              "internalType": "uint256",
              "name": "withdrawableAmountOf",
              "type": "uint256"
            },
            {
              "internalType": "uint256",
              "name": "loyalSince",
              "type": "uint256"
            },
            {
              "internalType": "uint256",
              "name": "boostPercentageOf",
              "type": "uint256"
            },
            {
              "internalType": "uint256",
              "name": "penaltyPercentageOf",
              "type": "uint256"
            },
            {
              "internalType": "uint256",
              "name": "penaltyAmountOf",
              "type": "uint256"
            },
            {
              "internalType": "uint256",
              "name": "pendingReward",
              "type": "uint256"
            },
            {
              "internalType": "uint256",
              "name": "lastWeightKnown",
              "type": "uint256"
            }
          ],
          "internalType": "struct StakedINTX.PositionInfo",
          "name": "_positionInfo",
          "type": "tuple"
        }
      ],
      "stateMutability": "view",
      "type": "function"
    },
    {
      "inputs": [
        {
          "internalType": "uint256[]",
          "name": "_tokenId",
          "type": "uint256[]"
        }
      ],
      "name": "getPositionsInfo",
      "outputs": [
        {
          "components": [
            {
              "internalType": "uint256",
              "name": "tokenId",
              "type": "uint256"
            },
            {
              "internalType": "address",
              "name": "owner",
              "type": "address"
            },
            {
              "internalType": "uint256",
              "name": "balanceOfId",
              "type": "uint256"
            },
            {
              "internalType": "uint256",
              "name": "amountStakedOf",
              "type": "uint256"
            },
            {
              "internalType": "uint256",
              "name": "withdrawableAmountOf",
              "type": "uint256"
            },
            {
              "internalType": "uint256",
              "name": "loyalSince",
              "type": "uint256"
            },
            {
              "internalType": "uint256",
              "name": "boostPercentageOf",
              "type": "uint256"
            },
            {
              "internalType": "uint256",
              "name": "penaltyPercentageOf",
              "type": "uint256"
            },
            {
              "internalType": "uint256",
              "name": "penaltyAmountOf",
              "type": "uint256"
            },
            {
              "internalType": "uint256",
              "name": "pendingReward",
              "type": "uint256"
            },
            {
              "internalType": "uint256",
              "name": "lastWeightKnown",
              "type": "uint256"
            }
          ],
          "internalType": "struct StakedINTX.PositionInfo[]",
          "name": "_positionInfo",
          "type": "tuple[]"
        }
      ],
      "stateMutability": "view",
      "type": "function"
    },
    {
      "inputs": [
        {
          "internalType": "address",
          "name": "_intx",
          "type": "address"
        },
        {
          "internalType": "address",
          "name": "_usdt",
          "type": "address"
        }
      ],
      "name": "initialize",
      "outputs": [],
      "stateMutability": "nonpayable",
      "type": "function"
    },
    {
      "inputs": [
        {
          "internalType": "address",
          "name": "owner",
          "type": "address"
        },
        {
          "internalType": "address",
          "name": "operator",
          "type": "address"
        }
      ],
      "name": "isApprovedForAll",
      "outputs": [
        {
          "internalType": "bool",
          "name": "",
          "type": "bool"
        }
      ],
      "stateMutability": "view",
      "type": "function"
    },
    {
      "inputs": [
        {
          "internalType": "uint256",
          "name": "_tokenId",
          "type": "uint256"
        }
      ],
      "name": "isRestrictedToken",
      "outputs": [
        {
          "internalType": "bool",
          "name": "isRestricted",
          "type": "bool"
        }
      ],
      "stateMutability": "view",
      "type": "function"
    },
    {
      "inputs": [],
      "name": "lastTimeRewardApplicable",
      "outputs": [
        {
          "internalType": "uint256",
          "name": "",
          "type": "uint256"
        }
      ],
      "stateMutability": "view",
      "type": "function"
    },
    {
      "inputs": [],
      "name": "lastTokenId",
      "outputs": [
        {
          "internalType": "uint256",
          "name": "",
          "type": "uint256"
        }
      ],
      "stateMutability": "view",
      "type": "function"
    },
    {
      "inputs": [],
      "name": "lastUpdateTime",
      "outputs": [
        {
          "internalType": "uint256",
          "name": "",
          "type": "uint256"
        }
      ],
      "stateMutability": "view",
      "type": "function"
    },
    {
      "inputs": [
        {
          "internalType": "uint256",
          "name": "",
          "type": "uint256"
        }
      ],
      "name": "loyalSince",
      "outputs": [
        {
          "internalType": "uint256",
          "name": "",
          "type": "uint256"
        }
      ],
      "stateMutability": "view",
      "type": "function"
    },
    {
      "inputs": [],
      "name": "loyaltyDuration",
      "outputs": [
        {
          "internalType": "uint256",
          "name": "",
          "type": "uint256"
        }
      ],
      "stateMutability": "view",
      "type": "function"
    },
    {
      "inputs": [],
      "name": "maxLoyaltyBoost",
      "outputs": [
        {
          "internalType": "uint256",
          "name": "",
          "type": "uint256"
        }
      ],
      "stateMutability": "view",
      "type": "function"
    },
    {
      "inputs": [],
      "name": "maxPenalty",
      "outputs": [
        {
          "internalType": "uint256",
          "name": "",
          "type": "uint256"
        }
      ],
      "stateMutability": "view",
      "type": "function"
    },
    {
      "inputs": [
        {
          "internalType": "uint256",
          "name": "_tokenFrom",
          "type": "uint256"
        },
        {
          "internalType": "uint256",
          "name": "tokenTo",
          "type": "uint256"
        }
      ],
      "name": "merge",
      "outputs": [],
      "stateMutability": "nonpayable",
      "type": "function"
    },
    {
      "inputs": [],
      "name": "minPenalty",
      "outputs": [
        {
          "internalType": "uint256",
          "name": "",
          "type": "uint256"
        }
      ],
      "stateMutability": "view",
      "type": "function"
    },
    {
      "inputs": [],
      "name": "name",
      "outputs": [
        {
          "internalType": "string",
          "name": "",
          "type": "string"
        }
      ],
      "stateMutability": "view",
      "type": "function"
    },
    {
      "inputs": [
        {
          "internalType": "uint256",
          "name": "_rewardAmount",
          "type": "uint256"
        }
      ],
      "name": "notifyReward",
      "outputs": [],
      "stateMutability": "nonpayable",
      "type": "function"
    },
    {
      "inputs": [],
      "name": "owner",
      "outputs": [
        {
          "internalType": "address",
          "name": "",
          "type": "address"
        }
      ],
      "stateMutability": "view",
      "type": "function"
    },
    {
      "inputs": [
        {
          "internalType": "uint256",
          "name": "tokenId",
          "type": "uint256"
        }
      ],
      "name": "ownerOf",
      "outputs": [
        {
          "internalType": "address",
          "name": "",
          "type": "address"
        }
      ],
      "stateMutability": "view",
      "type": "function"
    },
    {
      "inputs": [],
      "name": "paused",
      "outputs": [
        {
          "internalType": "bool",
          "name": "",
          "type": "bool"
        }
      ],
      "stateMutability": "view",
      "type": "function"
    },
    {
      "inputs": [
        {
          "internalType": "uint256",
          "name": "_tokenId",
          "type": "uint256"
        }
      ],
      "name": "penaltyAmountOf",
      "outputs": [
        {
          "internalType": "uint256",
          "name": "penaltyAmount",
          "type": "uint256"
        }
      ],
      "stateMutability": "view",
      "type": "function"
    },
    {
      "inputs": [
        {
          "internalType": "uint256",
          "name": "_tokenId",
          "type": "uint256"
        }
      ],
      "name": "penaltyPercentageOf",
      "outputs": [
        {
          "internalType": "uint256",
          "name": "penaltyPercentage",
          "type": "uint256"
        }
      ],
      "stateMutability": "view",
      "type": "function"
    },
    {
      "inputs": [],
      "name": "pendingOwner",
      "outputs": [
        {
          "internalType": "address",
          "name": "",
          "type": "address"
        }
      ],
      "stateMutability": "view",
      "type": "function"
    },
    {
      "inputs": [
        {
          "internalType": "address",
          "name": "",
          "type": "address"
        }
      ],
      "name": "pendingRewards",
      "outputs": [
        {
          "internalType": "uint256",
          "name": "",
          "type": "uint256"
        }
      ],
      "stateMutability": "view",
      "type": "function"
    },
    {
      "inputs": [],
      "name": "periodFinish",
      "outputs": [
        {
          "internalType": "uint256",
          "name": "",
          "type": "uint256"
        }
      ],
      "stateMutability": "view",
      "type": "function"
    },
    {
      "inputs": [],
      "name": "renounceOwnership",
      "outputs": [],
      "stateMutability": "nonpayable",
      "type": "function"
    },
    {
      "inputs": [
        {
          "internalType": "uint256",
          "name": "",
          "type": "uint256"
        }
      ],
      "name": "restrictedToken",
      "outputs": [
        {
          "internalType": "uint8",
          "name": "",
          "type": "uint8"
        }
      ],
      "stateMutability": "view",
      "type": "function"
    },
    {
      "inputs": [],
      "name": "rewardPerWeight",
      "outputs": [
        {
          "internalType": "uint256",
          "name": "",
          "type": "uint256"
        }
      ],
      "stateMutability": "view",
      "type": "function"
    },
    {
      "inputs": [],
      "name": "rewardPerWeightStored",
      "outputs": [
        {
          "internalType": "uint256",
          "name": "",
          "type": "uint256"
        }
      ],
      "stateMutability": "view",
      "type": "function"
    },
    {
      "inputs": [],
      "name": "rewardRate",
      "outputs": [
        {
          "internalType": "uint256",
          "name": "",
          "type": "uint256"
        }
      ],
      "stateMutability": "view",
      "type": "function"
    },
    {
      "inputs": [],
      "name": "rewardToken",
      "outputs": [
        {
          "internalType": "contract IERC20",
          "name": "",
          "type": "address"
        }
      ],
      "stateMutability": "view",
      "type": "function"
    },
    {
      "inputs": [
        {
          "internalType": "address",
          "name": "from",
          "type": "address"
        },
        {
          "internalType": "address",
          "name": "to",
          "type": "address"
        },
        {
          "internalType": "uint256",
          "name": "tokenId",
          "type": "uint256"
        }
      ],
      "name": "safeTransferFrom",
      "outputs": [],
      "stateMutability": "nonpayable",
      "type": "function"
    },
    {
      "inputs": [
        {
          "internalType": "address",
          "name": "from",
          "type": "address"
        },
        {
          "internalType": "address",
          "name": "to",
          "type": "address"
        },
        {
          "internalType": "uint256",
          "name": "tokenId",
          "type": "uint256"
        },
        {
          "internalType": "bytes",
          "name": "data",
          "type": "bytes"
        }
      ],
      "name": "safeTransferFrom",
      "outputs": [],
      "stateMutability": "nonpayable",
      "type": "function"
    },
    {
      "inputs": [
        {
          "internalType": "address",
          "name": "operator",
          "type": "address"
        },
        {
          "internalType": "bool",
          "name": "approved",
          "type": "bool"
        }
      ],
      "name": "setApprovalForAll",
      "outputs": [],
      "stateMutability": "nonpayable",
      "type": "function"
    },
    {
      "inputs": [
        {
          "internalType": "address",
          "name": "_teamVestingContract",
          "type": "address"
        }
      ],
      "name": "setTeamVestingContract",
      "outputs": [],
      "stateMutability": "nonpayable",
      "type": "function"
    },
    {
      "inputs": [
        {
          "internalType": "uint256",
          "name": "_tokenId",
          "type": "uint256"
        },
        {
          "internalType": "uint256[]",
          "name": "_splitWeights",
          "type": "uint256[]"
        }
      ],
      "name": "split",
      "outputs": [
        {
          "internalType": "uint256[]",
          "name": "_tokenIds",
          "type": "uint256[]"
        }
      ],
      "stateMutability": "nonpayable",
      "type": "function"
    },
    {
      "inputs": [
        {
          "internalType": "uint256",
          "name": "_intxAmount",
          "type": "uint256"
        }
      ],
      "name": "stake",
      "outputs": [
        {
          "internalType": "uint256",
          "name": "_tokenId",
          "type": "uint256"
        }
      ],
      "stateMutability": "nonpayable",
      "type": "function"
    },
    {
      "inputs": [
        {
          "internalType": "address",
          "name": "_to",
          "type": "address"
        },
        {
          "internalType": "uint256",
          "name": "_intxAmount",
          "type": "uint256"
        }
      ],
      "name": "stakeFor",
      "outputs": [
        {
          "internalType": "uint256",
          "name": "_tokenId",
          "type": "uint256"
        }
      ],
      "stateMutability": "nonpayable",
      "type": "function"
    },
    {
      "inputs": [
        {
          "internalType": "bytes4",
          "name": "interfaceId",
          "type": "bytes4"
        }
      ],
      "name": "supportsInterface",
      "outputs": [
        {
          "internalType": "bool",
          "name": "",
          "type": "bool"
        }
      ],
      "stateMutability": "view",
      "type": "function"
    },
    {
      "inputs": [],
      "name": "symbol",
      "outputs": [
        {
          "internalType": "string",
          "name": "",
          "type": "string"
        }
      ],
      "stateMutability": "view",
      "type": "function"
    },
    {
      "inputs": [],
      "name": "teamVestingContract",
      "outputs": [
        {
          "internalType": "address",
          "name": "",
          "type": "address"
        }
      ],
      "stateMutability": "view",
      "type": "function"
    },
    {
      "inputs": [
        {
          "internalType": "uint256",
          "name": "tokenId",
          "type": "uint256"
        }
      ],
      "name": "tokenURI",
      "outputs": [
        {
          "internalType": "string",
          "name": "",
          "type": "string"
        }
      ],
      "stateMutability": "view",
      "type": "function"
    },
    {
      "inputs": [],
      "name": "totalWeight",
      "outputs": [
        {
          "internalType": "uint256",
          "name": "",
          "type": "uint256"
        }
      ],
      "stateMutability": "view",
      "type": "function"
    },
    {
      "inputs": [],
      "name": "totalXINTX",
      "outputs": [
        {
          "internalType": "uint256",
          "name": "",
          "type": "uint256"
        }
      ],
      "stateMutability": "view",
      "type": "function"
    },
    {
      "inputs": [
        {
          "internalType": "address",
          "name": "from",
          "type": "address"
        },
        {
          "internalType": "address",
          "name": "to",
          "type": "address"
        },
        {
          "internalType": "uint256",
          "name": "tokenId",
          "type": "uint256"
        }
      ],
      "name": "transferFrom",
      "outputs": [],
      "stateMutability": "nonpayable",
      "type": "function"
    },
    {
      "inputs": [
        {
          "internalType": "address",
          "name": "newOwner",
          "type": "address"
        }
      ],
      "name": "transferOwnership",
      "outputs": [],
      "stateMutability": "nonpayable",
      "type": "function"
    },
    {
      "inputs": [],
      "name": "unpause",
      "outputs": [],
      "stateMutability": "nonpayable",
      "type": "function"
    },
    {
      "inputs": [
        {
          "internalType": "uint256",
          "name": "_tokenId",
          "type": "uint256"
        }
      ],
      "name": "unstake",
      "outputs": [
        {
          "internalType": "uint256",
          "name": "_intxAmountOut",
          "type": "uint256"
        }
      ],
      "stateMutability": "nonpayable",
      "type": "function"
    },
    {
      "inputs": [
        {
          "internalType": "uint256",
          "name": "_tokenId",
          "type": "uint256"
        },
        {
          "internalType": "uint256",
          "name": "_xIntxAmountWithdraw",
          "type": "uint256"
        }
      ],
      "name": "unstakePartially",
      "outputs": [
        {
          "internalType": "uint256",
          "name": "_intxAmountOut",
          "type": "uint256"
        },
        {
          "internalType": "uint256",
          "name": "_newTokenId",
          "type": "uint256"
        }
      ],
      "stateMutability": "nonpayable",
      "type": "function"
    },
    {
      "inputs": [
        {
          "internalType": "uint256[]",
          "name": "_tokenIds",
          "type": "uint256[]"
        }
      ],
      "name": "updateWeights",
      "outputs": [],
      "stateMutability": "nonpayable",
      "type": "function"
    },
    {
      "inputs": [
        {
          "internalType": "uint256",
          "name": "_tokenId",
          "type": "uint256"
        }
      ],
      "name": "withdrawableAmountOf",
      "outputs": [
        {
          "internalType": "uint256",
          "name": "withdrawableAmount",
          "type": "uint256"
        }
      ],
      "stateMutability": "view",
      "type": "function"
    }
  ],
  "bytecode": "0x60806040523480156200001157600080fd5b506200001c62000022565b620000e3565b600054610100900460ff16156200008f5760405162461bcd60e51b815260206004820152602760248201527f496e697469616c697a61626c653a20636f6e747261637420697320696e697469604482015266616c697a696e6760c81b606482015260840160405180910390fd5b60005460ff90811614620000e1576000805460ff191660ff9081179091556040519081527f7f26b83ff96e1f2b6a682f133852f6798a09c465da95921460cefb38474024989060200160405180910390a15b565b614fe980620000f36000396000f3fe608060405234801561001057600080fd5b50600436106103eb5760003560e01c8063771602f71161021a578063b88d4fde11610135578063df2e0b97116100c8578063ef7297de11610097578063f2fde38b1161007c578063f2fde38b146108cc578063f7c618c1146108df578063f84ddf0b146108f357600080fd5b8063ef7297de14610890578063f290dfa7146108a457600080fd5b8063df2e0b9714610825578063e30c397814610839578063e985e9c51461084a578063ebe2b12b1461088657600080fd5b8063cfd0e12511610104578063cfd0e125146107d4578063d1a249ab146107f5578063d1c2babb146107ff578063d975dfed1461081257600080fd5b8063b88d4fde14610791578063c205f341146107a4578063c87b56dd146107b7578063c8f33c91146107ca57600080fd5b806396c82e57116101ad578063a22cb4651161017c578063a22cb46514610750578063a345280a14610763578063a368497714610776578063a694fc3a1461077e57600080fd5b806396c82e57146106ff578063988dc31e14610709578063a00ea0c51461071c578063a1c95e5a1461072f57600080fd5b80638b8fbd92116101e95780638b8fbd92146106b75780638da5cb5b146106c65780638fca5a59146106d757806395d89b41146106f757600080fd5b8063771602f71461068a57806379ba50971461069d5780637b0a47ee146106a557806380faa57d146106af57600080fd5b806342842e0e1161030a5780635c975abb1161029d57806369c672471161026c57806369c672471461063c5780636ba4c1381461065c57806370a082311461066f578063715018a61461068257600080fd5b80635c975abb146105f757806360993b5b146106035780636352211e14610616578063645bfd9a1461062957600080fd5b8063519f5099116102d9578063519f5099146105b05780635200e79e146105d0578063520bf08a146105da5780635a48a97f146105e457600080fd5b806342842e0e14610556578063485cc955146105695780634d62f5901461057c5780634d6ed8c41461059d57600080fd5b806323b872dd1161038257806330f916191161035157806330f916191461051057806331d7a262146105235780633228dd59146105445780633f4ba83a1461054e57600080fd5b806323b872dd146104cf5780632ac3f450146104e25780632e17de78146104ea5780632ee40908146104fd57600080fd5b8063095ea7b3116103be578063095ea7b31461048e5780630eba9849146104a35780631be05289146104bb5780632212b806146104c557600080fd5b806301ffc9a7146103f057806306fdde0314610418578063081812fc1461042d57806308d9788d14610458575b600080fd5b6104036103fe3660046147d3565b6108fd565b60405190151581526020015b60405180910390f35b6104206109e2565b60405161040f9190614840565b61044061043b366004614853565b610a74565b6040516001600160a01b03909116815260200161040f565b61047c610466366004614853565b6101726020526000908152604090205460ff1681565b60405160ff909116815260200161040f565b6104a161049c366004614883565b610a9b565b005b6104ad6101645481565b60405190815260200161040f565b6104ad62093a8081565b6104ad6101625481565b6104a16104dd3660046148ad565b610bd1565b6104ad610c58565b6104ad6104f8366004614853565b610d24565b6104ad61050b366004614883565b610dba565b6104a161051e366004614935565b610e00565b6104ad610531366004614977565b6101716020526000908152604090205481565b6104ad6101685481565b6104a1610e48565b6104a16105643660046148ad565b610e62565b6104a1610577366004614992565b610e7d565b61058f61058a366004614935565b611143565b60405161040f929190614a00565b6104ad6105ab366004614853565b611203565b6105c36105be366004614853565b611274565b60405161040f9190614a9c565b6104ad6101635481565b6104ad6101605481565b6104ad6105f2366004614853565b6112e3565b61012d5460ff16610403565b6104a1610611366004614853565b61132b565b610440610624366004614853565b61150c565b6104ad610637366004614853565b611571565b61064f61064a366004614aab565b611597565b60405161040f9190614af7565b6104a161066a366004614935565b61165c565b6104ad61067d366004614977565b611871565b6104a161190b565b6104a1610698366004614b0a565b611913565b6104a16119d6565b6104ad6101675481565b6104ad611a61565b6104ad670de0b6b3a764000081565b60c9546001600160a01b0316610440565b6106ea6106e5366004614935565b611a75565b60405161040f9190614b2c565b610420611b8f565b6104ad6101695481565b6104ad610717366004614853565b611b9e565b6104ad61072a366004614853565b611bc4565b6104ad61073d366004614853565b61016d6020526000908152604090205481565b6104a161075e366004614b89565b611bea565b610403610771366004614853565b611bf9565b6104ad611c27565b6104ad61078c366004614853565b611c31565b6104a161079f366004614bd6565b611c3e565b6104a16107b2366004614977565b611ccc565b6104206107c5366004614853565b611d04565b6104ad6101655481565b6104ad6107e2366004614853565b61016c6020526000908152604090205481565b6104ad6101615481565b6104a161080d366004614b0a565b611d77565b6104ad610820366004614853565b611e1a565b61016a54610440906001600160a01b031681565b60fb546001600160a01b0316610440565b610403610858366004614992565b6001600160a01b039182166000908152609c6020908152604080832093909416825291909152205460ff1690565b6104ad6101665481565b61017354610440906001600160a01b031681565b6108b76108b2366004614b0a565b611e62565b6040805192835260208301919091520161040f565b6104a16108da366004614977565b612031565b61016b54610440906001600160a01b031681565b6104ad61015f5481565b60007fffffffff0000000000000000000000000000000000000000000000000000000082167f80ac58cd00000000000000000000000000000000000000000000000000000000148061099057507fffffffff0000000000000000000000000000000000000000000000000000000082167f5b5e139f00000000000000000000000000000000000000000000000000000000145b806109dc57507f01ffc9a7000000000000000000000000000000000000000000000000000000007fffffffff000000000000000000000000000000000000000000000000000000008316145b92915050565b6060609780546109f190614cb2565b80601f0160208091040260200160405190810160405280929190818152602001828054610a1d90614cb2565b8015610a6a5780601f10610a3f57610100808354040283529160200191610a6a565b820191906000526020600020905b815481529060010190602001808311610a4d57829003601f168201915b5050505050905090565b6000610a7f826120af565b506000908152609b60205260409020546001600160a01b031690565b6000610aa68261150c565b9050806001600160a01b0316836001600160a01b031603610b345760405162461bcd60e51b815260206004820152602160248201527f4552433732313a20617070726f76616c20746f2063757272656e74206f776e6560448201527f720000000000000000000000000000000000000000000000000000000000000060648201526084015b60405180910390fd5b336001600160a01b0382161480610b505750610b508133610858565b610bc25760405162461bcd60e51b815260206004820152603d60248201527f4552433732313a20617070726f76652063616c6c6572206973206e6f7420746f60448201527f6b656e206f776e6572206f7220617070726f76656420666f7220616c6c0000006064820152608401610b2b565b610bcc8383612113565b505050565b610bdb338261218e565b610c4d5760405162461bcd60e51b815260206004820152602d60248201527f4552433732313a2063616c6c6572206973206e6f7420746f6b656e206f776e6560448201527f72206f7220617070726f766564000000000000000000000000000000000000006064820152608401610b2b565b610bcc83838361220d565b600061016954600003610c6d57506101685490565b60006101695411610cc05760405162461bcd60e51b815260206004820152601060248201527f496e636f727265637420776569676874000000000000000000000000000000006044820152606401610b2b565b600061016554610cce611a61565b610cd89190614d02565b9050610169546101675482610ced9190614d15565b610d06906ec097ce7bc90715b34b9f1000000000614d15565b610d109190614d2c565b61016854610d1e9190614d4e565b91505090565b6000610d2f82611bf9565b15610da25760405162461bcd60e51b815260206004820152603a60248201527f5468697320746f6b656e20697320726573747269637465642c20796f7520636160448201527f6e277420756e7374616b652f7472616e736665722f73706c69740000000000006064820152608401610b2b565b610dab8261229e565b9050610db561256d565b919050565b6000610dc73384846125bf565b610173549091506001600160a01b03163303610df857600081815261017260205260409020805460ff191660011790555b6109dc61256d565b8060005b81811015610e3f57610e2d848483818110610e2157610e21614d61565b90506020020135612778565b80610e3781614d77565b915050610e04565b50610bcc61256d565b610e5061283e565b610e58612898565b610e606128eb565b565b610bcc83838360405180602001604052806000815250611c3e565b600054610100900460ff1615808015610e9d5750600054600160ff909116105b80610eb75750303b158015610eb7575060005460ff166001145b610f295760405162461bcd60e51b815260206004820152602e60248201527f496e697469616c697a61626c653a20636f6e747261637420697320616c72656160448201527f647920696e697469616c697a65640000000000000000000000000000000000006064820152608401610b2b565b6000805460ff191660011790558015610f4c576000805461ff0019166101001790555b610f54612939565b610fc86040518060400160405280600b81526020017f5374616b656420494e54580000000000000000000000000000000000000000008152506040518060400160405280600581526020017f58494e54580000000000000000000000000000000000000000000000000000008152506129ac565b610fd0612a21565b610fd8612a94565b6001600160a01b03831661102e5760405162461bcd60e51b815260206004820152601460248201527f43616e27742075736520307820616464726573730000000000000000000000006044820152606401610b2b565b6001600160a01b0382166110845760405162461bcd60e51b815260206004820152601460248201527f43616e27742075736520307820616464726573730000000000000000000000006044820152606401610b2b565b61016a80546001600160a01b0380861673ffffffffffffffffffffffffffffffffffffffff199283161790925561016b8054928516929091169190911790556293a800610161556722b1c8c1227a0000610162556703782dace9d9000061016355662386f26fc10000610164556110f9612b07565b8015610bcc576000805461ff0019169055604051600181527f7f26b83ff96e1f2b6a682f133852f6798a09c465da95921460cefb38474024989060200160405180910390a1505050565b60006060828067ffffffffffffffff81111561116157611161614bc0565b60405190808252806020026020018201604052801561118a578160200160208202803683370190505b50915060005b818110156111fa5760006111bb8787848181106111af576111af614d61565b90506020020135611203565b90506111c78186614d4e565b9450808483815181106111dc576111dc614d61565b602090810291909101015250806111f281614d77565b915050611190565b50509250929050565b600081815261016e602090815260408083205461017083528184205461016f909352908320549091906ec097ce7bc90715b34b9f100000000090611245610c58565b61124f9190614d02565b6112599084614d15565b6112639190614d2c565b61126d9190614d4e565b9392505050565b6112da6040518061016001604052806000815260200160006001600160a01b031681526020016000815260200160008152602001600081526020016000815260200160008152602001600081526020016000815260200160008152602001600081525090565b6109dc82612b45565b6000806112ef83612caa565b905060006112fc84612cd8565b9050811561132457670de0b6b3a76400006113178284614d15565b6113219190614d2c565b92505b5050919050565b611333612d81565b61133b61283e565b6113456000612778565b61135e3361016b546001600160a01b0316903084612dda565b61016654421061137e5761137562093a8082614d2c565b610167556113c3565b6000426101665461138f9190614d02565b9050600061016754826113a29190614d15565b905062093a806113b28285614d4e565b6113bc9190614d2c565b6101675550505b61016b546040517f70a082310000000000000000000000000000000000000000000000000000000081523060048201526000916001600160a01b0316906370a0823190602401602060405180830381865afa158015611426573d6000803e3d6000fd5b505050506040513d601f19601f8201168201806040525081019061144a9190614d91565b905061145962093a8082614d2c565b6101675411156114ab5760405162461bcd60e51b815260206004820152601860248201527f50726f76696465642072657761726420746f6f206869676800000000000000006044820152606401610b2b565b426101658190556114c09062093a8090614d4e565b610166556040518281527fde88a922e0d3b88b24e9623efeb464919c6bf9f66857a65e2bfcf2ce87a9433d9060200160405180910390a16114ff61256d565b5061150960018055565b50565b6000818152609960205260408120546001600160a01b0316806109dc5760405162461bcd60e51b815260206004820152601860248201527f4552433732313a20696e76616c696420746f6b656e20494400000000000000006044820152606401610b2b565b6000818152609960205260408120546001600160a01b031615610db5576109dc82612e91565b60606115a284611bf9565b156116155760405162461bcd60e51b815260206004820152603a60248201527f5468697320746f6b656e20697320726573747269637465642c20796f7520636160448201527f6e277420756e7374616b652f7472616e736665722f73706c69740000000000006064820152608401610b2b565b61165284848480806020026020016040519081016040528093929190818152602001838360200280828437600092019190915250612f2e92505050565b905061126d61256d565b33600090815261017160205260408120548291908190815b848110156117da5786868281811061168e5761168e614d61565b9050602002013593506116b8846000908152609960205260409020546001600160a01b0316151590565b6117045760405162461bcd60e51b815260206004820152601c60248201527f5468697320706f736974696f6e20646f65736e27742065786973742e000000006044820152606401610b2b565b6000848152609960205260409020546001600160a01b031692503383146117935760405162461bcd60e51b815260206004820152602760248201527f596f7520617265206e6f7420746865206f776e6572206f66207468697320706f60448201527f736974696f6e2e000000000000000000000000000000000000000000000000006064820152608401610b2b565b61179c84612778565b600084815261017060205260409020546117b69083614d4e565b600085815261017060205260408120559150806117d281614d77565b915050611674565b50336000818152610171602052604081205561016b54611806916001600160a01b039091169083613482565b8585604051611816929190614daa565b6040518091039020826001600160a01b03167f916f43dce61aa4c4d8761c25ddcacfe178ea96a18f68d2775354bbc06be75aaa8360405161185991815260200190565b60405180910390a361186961256d565b505050505050565b60006001600160a01b0382166118ef5760405162461bcd60e51b815260206004820152602960248201527f4552433732313a2061646472657373207a65726f206973206e6f74206120766160448201527f6c6964206f776e657200000000000000000000000000000000000000000000006064820152608401610b2b565b506001600160a01b03166000908152609a602052604090205490565b610e6061283e565b61191c81611bf9565b156119b55760405162461bcd60e51b815260206004820152605260248201527f5468697320746f6b656e20697320726573747269637465642c20796f7520636160448201527f6e27742061646420696e747820746f2069742c206372656174652061206e657760648201527f20706f736974696f6e20696e73746561642e0000000000000000000000000000608482015260a401610b2b565b60006119c23333856125bf565b90506119ce81836134cb565b610bcc61256d565b60fb5433906001600160a01b03168114611a585760405162461bcd60e51b815260206004820152602960248201527f4f776e61626c6532537465703a2063616c6c6572206973206e6f74207468652060448201527f6e6577206f776e657200000000000000000000000000000000000000000000006064820152608401610b2b565b6115098161391c565b6000611a704261016654613942565b905090565b6060818067ffffffffffffffff811115611a9157611a91614bc0565b604051908082528060200260200182016040528015611b2857816020015b611b156040518061016001604052806000815260200160006001600160a01b031681526020016000815260200160008152602001600081526020016000815260200160008152602001600081526020016000815260200160008152602001600081525090565b815260200190600190039081611aaf5790505b50915060005b81811015611b8757611b57858583818110611b4b57611b4b614d61565b90506020020135612b45565b838281518110611b6957611b69614d61565b60200260200101819052508080611b7f90614d77565b915050611b2e565b505092915050565b6060609880546109f190614cb2565b6000818152609960205260408120546001600160a01b031615610db5576109dc82612cd8565b6000818152609960205260408120546001600160a01b031615610db5576109dc82612caa565b611bf5338383613958565b5050565b6000818152610172602052604081205460ff16600103610db5576368383020421015610db557506001919050565b6000611a70613a26565b6000610dab3333846125bf565b611c48338361218e565b611cba5760405162461bcd60e51b815260206004820152602d60248201527f4552433732313a2063616c6c6572206973206e6f7420746f6b656e206f776e6560448201527f72206f7220617070726f766564000000000000000000000000000000000000006064820152608401610b2b565b611cc684848484613a69565b50505050565b611cd461283e565b610173805473ffffffffffffffffffffffffffffffffffffffff19166001600160a01b0392909216919091179055565b6060611d0f826120af565b6000611d2660408051602081019091526000815290565b90506000815111611d46576040518060200160405280600081525061126d565b80611d5084613af2565b604051602001611d61929190614dec565b6040516020818303038152906040529392505050565b600081815261017260205260408082205484835291205460ff908116911614611e085760405162461bcd60e51b815260206004820152602c60248201527f596f752063616e2774206d6572676520746f6b656e732077697468206469666660448201527f6572656e742074797065732e00000000000000000000000000000000000000006064820152608401610b2b565b611e1282826134cb565b611bf561256d565b600080611e2683612caa565b90506000611e3384612cd8565b9050811561132457670de0b6b3a7640000611e4e8284614d15565b611e589190614d2c565b6113219083614d02565b600080611e6e84611bf9565b15611ee15760405162461bcd60e51b815260206004820152603a60248201527f5468697320746f6b656e20697320726573747269637465642c20796f7520636160448201527f6e277420756e7374616b652f7472616e736665722f73706c69740000000000006064820152608401610b2b565b600084815261016d6020526040902054838111611f665760405162461bcd60e51b815260206004820152602e60248201527f596f752063616e2774207061727469616c6c79207769746864726177206d6f7260448201527f65207468616e20796f75206f776e0000000000000000000000000000000000006064820152608401610b2b565b6040805160028082526060820183526000926020830190803683370190505090508481600081518110611f9b57611f9b614d61565b6020908102919091010152611fb08583614d02565b81600181518110611fc357611fc3614d61565b6020026020010181815250506000611fdb8783612f2e565b905061200081600081518110611ff357611ff3614d61565b602002602001015161229e565b94508060018151811061201557612015614d61565b6020026020010151935061202761256d565b5050509250929050565b61203961283e565b60fb80546001600160a01b03831673ffffffffffffffffffffffffffffffffffffffff19909116811790915561207760c9546001600160a01b031690565b6001600160a01b03167f38d16b8cac22d99fc7c124b9cd0de2d3fa1faef420bfe791d8c362d765e2270060405160405180910390a350565b6000818152609960205260409020546001600160a01b03166115095760405162461bcd60e51b815260206004820152601860248201527f4552433732313a20696e76616c696420746f6b656e20494400000000000000006044820152606401610b2b565b6000818152609b60205260409020805473ffffffffffffffffffffffffffffffffffffffff19166001600160a01b03841690811790915581906121558261150c565b6001600160a01b03167f8c5be1e5ebec7d5bd14f71427d1e84f3dd0314c0f7b2291e5b200ac8c7c3b92560405160405180910390a45050565b60008061219a8361150c565b9050806001600160a01b0316846001600160a01b031614806121e157506001600160a01b038082166000908152609c602090815260408083209388168352929052205460ff165b806122055750836001600160a01b03166121fa84610a74565b6001600160a01b0316145b949350505050565b612215613b92565b61221e81611bf9565b15612293576040805162461bcd60e51b81526020600482015260248101919091527f5468697320746f6b656e20697320726573747269637465642c20796f7520636160448201527f6e277420756e7374616b652f7472616e736665722f6d657267652f73706c69746064820152608401610b2b565b610bcc838383613be6565b60006122a8612d81565b6122b0613b92565b6000828152609960205260409020546001600160a01b03166123145760405162461bcd60e51b815260206004820152601c60248201527f5468697320706f736974696f6e20646f65736e27742065786973742e000000006044820152606401610b2b565b6000828152609960205260409020546001600160a01b031633811461237b5760405162461bcd60e51b815260206004820152601360248201527f4e6f7420796f75722078494e5458204e46542e000000000000000000000000006044820152606401610b2b565b61238483612778565b600083815261016d602052604081205490670de0b6b3a76400006123a786612e91565b6123b19084614d15565b6123bb9190614d2c565b905060006123c7613a26565b90506000670de0b6b3a76400006123de8386614d15565b6123e89190614d2c565b90506000670de0b6b3a76400006123fe89612cd8565b6124089084614d15565b6124129190614d2c565b905061241e8183614d02565b600089815261017060205260409020549097501561247457600088815261017060209081526040808320546001600160a01b038a168452610171909252822080549192909161246e908490614d4e565b90915550505b600088815261016c6020908152604080832083905561016d825280832083905561016e825280832083905561016f82528083208390556101709091528120556124bc88613e1c565b8461016060008282546124cf9190614d02565b925050819055508361016960008282546124e99190614d02565b909155505061016a54612506906001600160a01b03168789613482565b6101605460408051878152602081018a905280820184905260608101929092525189916001600160a01b038916917f44bd20a79e993bdcc7cbedf54a3b4d19fb78490124b6b90d04fe3242eea579e89181900360800190a3505050505050610db560018055565b7f107ded4700c40c119c1250039eb39b50e8a49f47e8de2028d5efe1d7bc5b4ebd612596613ebe565b6101605461016954604080519384526020840192909252908201526060015b60405180910390a1565b60006125c9612d81565b600082116126195760405162461bcd60e51b815260206004820152601360248201527f43616e2774207374616b65203020696e74582e000000000000000000000000006044820152606401610b2b565b6000612623613a26565b61016a5490915061263f906001600160a01b0316863086612dda565b61015f805490600061265083614d77565b91905055506126628461015f54613f45565b61266e61015f54612778565b600081612683670de0b6b3a764000086614d15565b61268d9190614d2c565b61015f8054600090815261016c602090815260408083204290559254825261016d9052908120829055610160805492935083929091906126ce908490614d4e565b925050819055508061016960008282546126e89190614d4e565b909155505061015f8054600090815261016e6020908152604091829020849055915461016054610169548351868152948501899052928401526060830191909152906001600160a01b0380881691908916907f52c6b7a228763dc832bef1e2dee48707b24b8f1400a6335b3af6d5def4f5bb219060800160405180910390a461015f549250505061126d60018055565b612780610c58565b6101685561278c611a61565b6101655580156115095761279f81611203565b60008281526101706020526040812091909155670de0b6b3a76400006127c483612e91565b600084815261016d60205260409020546127de9190614d15565b6127e89190614d2c565b600083815261016e602052604090205461016954919250829161280b9190614d02565b6128159190614d4e565b61016955600091825261016e60209081526040808420929092556101685461016f909152912055565b60c9546001600160a01b03163314610e605760405162461bcd60e51b815260206004820181905260248201527f4f776e61626c653a2063616c6c6572206973206e6f7420746865206f776e65726044820152606401610b2b565b61012d5460ff16610e605760405162461bcd60e51b815260206004820152601460248201527f5061757361626c653a206e6f74207061757365640000000000000000000000006044820152606401610b2b565b6128f3612898565b61012d805460ff191690557f5db9ee0a495bf2e6ff9c91a7834c1ba4fdd244a5e8aa4e537bd38aeae4b073aa335b6040516001600160a01b0390911681526020016125b5565b600054610100900460ff166129a45760405162461bcd60e51b815260206004820152602b60248201527f496e697469616c697a61626c653a20636f6e7472616374206973206e6f74206960448201526a6e697469616c697a696e6760a81b6064820152608401610b2b565b610e606140dd565b600054610100900460ff16612a175760405162461bcd60e51b815260206004820152602b60248201527f496e697469616c697a61626c653a20636f6e7472616374206973206e6f74206960448201526a6e697469616c697a696e6760a81b6064820152608401610b2b565b611bf58282614148565b600054610100900460ff16612a8c5760405162461bcd60e51b815260206004820152602b60248201527f496e697469616c697a61626c653a20636f6e7472616374206973206e6f74206960448201526a6e697469616c697a696e6760a81b6064820152608401610b2b565b610e606141cc565b600054610100900460ff16612aff5760405162461bcd60e51b815260206004820152602b60248201527f496e697469616c697a61626c653a20636f6e7472616374206973206e6f74206960448201526a6e697469616c697a696e6760a81b6064820152608401610b2b565b610e60614240565b612b0f613b92565b61012d805460ff191660011790557f62e78cea01bee320cd4e420270b5ea74000d11b0c9f74754ebdbfc544b05a2586129213390565b612bab6040518061016001604052806000815260200160006001600160a01b031681526020016000815260200160008152602001600081526020016000815260200160008152602001600081526020016000815260200160008152602001600081525090565b6000612bb683612caa565b90506000612bc384612cd8565b8484526000858152609960209081526040808320546001600160a01b03168288015287835261016d909152908190205490850152606084018390529050670de0b6b3a7640000612c138284614d15565b612c1d9190614d2c565b612c279083614d02565b6080840152600084815261016c602052604090205460a0840152612c4a84612e91565b60c084015260e08301819052670de0b6b3a7640000612c698284614d15565b612c739190614d2c565b61010084015250506000828152610170602090815260408083205461012085015293825261016e9052919091205461014082015290565b600081815261016d602052604081205481612cc3613a26565b9050670de0b6b3a76400006113178284614d15565b600081815261016c6020526040812054808203612cf85750600092915050565b6000612d048242614d02565b905061016154811115612d175750610161545b670de0b6b3a76400006101635461016154670de0b6b3a764000084612d3c9190614d15565b612d469190614d2c565b612d509190614d15565b612d5a9190614d2c565b61016354612d689190614d02565b9250610164548310156113245750506101645492915050565b600260015403612dd35760405162461bcd60e51b815260206004820152601f60248201527f5265656e7472616e637947756172643a207265656e7472616e742063616c6c006044820152606401610b2b565b6002600155565b6040516001600160a01b0380851660248301528316604482015260648101829052611cc69085907f23b872dd00000000000000000000000000000000000000000000000000000000906084015b60408051601f198184030181529190526020810180517bffffffffffffffffffffffffffffffffffffffffffffffffffffffff167fffffffff00000000000000000000000000000000000000000000000000000000909316929092179091526142b8565b60018055565b600081815261016c6020526040812054808203612eb15750600092915050565b6000612ebd8242614d02565b905061016154811115612ed05750610161545b670de0b6b3a76400008061016254612ee89190614d02565b61016154612efe670de0b6b3a764000085614d15565b612f089190614d2c565b612f129190614d15565b612f1c9190614d2c565b61132190670de0b6b3a7640000614d4e565b6060612f38612d81565b6000838152609960205260409020546001600160a01b0316612f9c5760405162461bcd60e51b815260206004820152601c60248201527f5468697320706f736974696f6e20646f65736e27742065786973742e000000006044820152606401610b2b565b6000838152609960205260409020546001600160a01b03163381146130035760405162461bcd60e51b815260206004820152601360248201527f4e6f7420796f75722078494e5458204e46542e000000000000000000000000006044820152606401610b2b565b82516001811161307b5760405162461bcd60e51b815260206004820152602c60248201527f596f752063616e27742073706c697420746869732058494e5458206c6573732060448201527f7468616e20322074696d657300000000000000000000000000000000000000006064820152608401610b2b565b600a8111156130f25760405162461bcd60e51b815260206004820152602d60248201527f596f752063616e27742073706c697420746869732058494e5458206d6f72652060448201527f7468616e2031302074696d6573000000000000000000000000000000000000006064820152608401610b2b565b8067ffffffffffffffff81111561310b5761310b614bc0565b604051908082528060200260200182016040528015613134578160200160208202803683370190505b50925061314085612778565b600085815261016d602090815260408083205461016c83528184205461016f909352908320546101608054929392849190869061317e908490614d02565b9091555050600089815261016e60205260408120546101698054919290916131a7908490614d02565b90915550600090505b858110156131f1578881815181106131ca576131ca614d61565b6020026020010151856131dd9190614d4e565b9450806131e981614d77565b9150506131b0565b5060005b858110156133d757600085858b848151811061321357613213614d61565b60200260200101516132259190614d15565b61322f9190614d2c565b9050600081116132815760405162461bcd60e51b815260206004820152601460248201527f43616e27742073706c697420302078494e54582e0000000000000000000000006044820152606401610b2b565b61015f805490600061329283614d77565b91905055506132a48861015f54613f45565b61015f548983815181106132ba576132ba614d61565b60209081029190910181019190915261015f8054600090815261016c835260408082208890558254825261016d90935291822083905554670de0b6b3a76400009061330490612e91565b61330e9084614d15565b6133189190614d2c565b61015f8054600090815261016e602090815260408083208590559254825261016f905290812086905561016080549293508492909190613359908490614d4e565b925050819055508061016960008282546133739190614d4e565b909155505061015f5460408051918252602082018490528d916001600160a01b038c16917ff66885c33d648fcd0d97e0f2a18e30102169c22763473af0fb716f11b4a17dd6910160405180910390a3505080806133cf90614d77565b9150506131f5565b50600089815261017060205260409020541561342b57600089815261017060209081526040808320546001600160a01b038a1684526101719092528220805491929091613425908490614d4e565b90915550505b600089815261016c6020908152604080832083905561016d825280832083905561016e825280832083905561016f825280832083905561017090915281205561347389613e1c565b5050505050506109dc60018055565b6040516001600160a01b038316602482015260448101829052610bcc9084907fa9059cbb0000000000000000000000000000000000000000000000000000000090606401612e27565b6134d3612d81565b6000828152609960205260409020546001600160a01b03166135375760405162461bcd60e51b815260206004820152601c60248201527f5468697320706f736974696f6e20646f65736e27742065786973742e000000006044820152606401610b2b565b6000818152609960205260409020546001600160a01b031661359b5760405162461bcd60e51b815260206004820152601c60248201527f5468697320706f736974696f6e20646f65736e27742065786973742e000000006044820152606401610b2b565b6000828152609960205260409020546001600160a01b03163381146136025760405162461bcd60e51b815260206004820152601e60248201527f46726f6d204e46542069736e277420796f75722078494e5458204e46542e00006044820152606401610b2b565b6000828152609960205260409020546001600160a01b0382811691161461366b5760405162461bcd60e51b815260206004820152601760248201527f546f204e46542069736e27742078494e5458204e46542e0000000000000000006044820152606401610b2b565b61367483612778565b61367d82612778565b600083815261016d602090815260408083205461016c9092528220549091906136a69042614d02565b9050610161548111156136b95750610161545b600084815261016d602090815260408083205461016c9092528220549091906136e29042614d02565b9050610161548111156136f55750610161545b60006137018386614d4e565b9050600081116137795760405162461bcd60e51b815260206004820152602360248201527f43616e2774206d616b65206120706f736974696f6e207769746820302078494e60448201527f54582e00000000000000000000000000000000000000000000000000000000006064820152608401610b2b565b6000816137868585614d15565b6137909190614d2c565b8261379b8888614d15565b6137a59190614d2c565b6137af9190614d4e565b600089815261016d6020526040902083905590506137cd8142614d02565b600089815261016c6020526040812091909155670de0b6b3a76400006137f28a612e91565b6137fc9085614d15565b6138069190614d2c565b60008a815261016e602090815260408083208490558d83526101709091529020549091501561386d5760008a815261017060209081526040808320546001600160a01b038c1684526101719092528220805491929091613867908490614d4e565b90915550505b60008a815261016c6020908152604080832083905561016d825280832083905561016e825280832083905561016f82528083208390556101709091528120556138b58a613e1c565b896001600160a01b0389167f50d7f0ef4f7b59921566f6b835fb032efa0fd0dacccb9361292f89b7aa6bafdd8b866138ed8742614d02565b6040805193845260208401929092529082015260600160405180910390a35050505050505050611bf560018055565b60fb805473ffffffffffffffffffffffffffffffffffffffff19169055611509816143a0565b6000818310613951578161126d565b5090919050565b816001600160a01b0316836001600160a01b0316036139b95760405162461bcd60e51b815260206004820152601960248201527f4552433732313a20617070726f766520746f2063616c6c6572000000000000006044820152606401610b2b565b6001600160a01b038381166000818152609c6020908152604080832094871680845294825291829020805460ff191686151590811790915591519182527f17307eab39ab6107e8899845ad3d59bd9653f200f220920489ca2b5937696c31910160405180910390a3505050565b600061016054600003613a405750670de0b6b3a764000090565b61016054670de0b6b3a7640000613a55613ebe565b613a5f9190614d15565b611a709190614d2c565b613a7484848461220d565b613a80848484846143ff565b611cc65760405162461bcd60e51b815260206004820152603260248201527f4552433732313a207472616e7366657220746f206e6f6e20455243373231526560448201527f63656976657220696d706c656d656e74657200000000000000000000000000006064820152608401610b2b565b60606000613aff836145a0565b600101905060008167ffffffffffffffff811115613b1f57613b1f614bc0565b6040519080825280601f01601f191660200182016040528015613b49576020820181803683370190505b5090508181016020015b600019017f3031323334353637383961626364656600000000000000000000000000000000600a86061a8153600a8504945084613b5357509392505050565b61012d5460ff1615610e605760405162461bcd60e51b815260206004820152601060248201527f5061757361626c653a20706175736564000000000000000000000000000000006044820152606401610b2b565b826001600160a01b0316613bf98261150c565b6001600160a01b031614613c755760405162461bcd60e51b815260206004820152602560248201527f4552433732313a207472616e736665722066726f6d20696e636f72726563742060448201527f6f776e65720000000000000000000000000000000000000000000000000000006064820152608401610b2b565b6001600160a01b038216613cf05760405162461bcd60e51b8152602060048201526024808201527f4552433732313a207472616e7366657220746f20746865207a65726f2061646460448201527f72657373000000000000000000000000000000000000000000000000000000006064820152608401610b2b565b826001600160a01b0316613d038261150c565b6001600160a01b031614613d7f5760405162461bcd60e51b815260206004820152602560248201527f4552433732313a207472616e736665722066726f6d20696e636f72726563742060448201527f6f776e65720000000000000000000000000000000000000000000000000000006064820152608401610b2b565b6000818152609b60209081526040808320805473ffffffffffffffffffffffffffffffffffffffff199081169091556001600160a01b03878116808652609a8552838620805460001901905590871680865283862080546001019055868652609990945282852080549092168417909155905184937fddf252ad1be2c89b69c2b068fc378daa952ba7f163c4a11628f55a4df523b3ef91a4505050565b6000613e278261150c565b9050613e328261150c565b6000838152609b60209081526040808320805473ffffffffffffffffffffffffffffffffffffffff199081169091556001600160a01b038516808552609a845282852080546000190190558785526099909352818420805490911690555192935084927fddf252ad1be2c89b69c2b068fc378daa952ba7f163c4a11628f55a4df523b3ef908390a45050565b61016a546040517f70a082310000000000000000000000000000000000000000000000000000000081523060048201526000916001600160a01b0316906370a0823190602401602060405180830381865afa158015613f21573d6000803e3d6000fd5b505050506040513d601f19601f82011682018060405250810190611a709190614d91565b6001600160a01b038216613f9b5760405162461bcd60e51b815260206004820181905260248201527f4552433732313a206d696e7420746f20746865207a65726f20616464726573736044820152606401610b2b565b6000818152609960205260409020546001600160a01b0316156140005760405162461bcd60e51b815260206004820152601c60248201527f4552433732313a20746f6b656e20616c7265616479206d696e746564000000006044820152606401610b2b565b6000818152609960205260409020546001600160a01b0316156140655760405162461bcd60e51b815260206004820152601c60248201527f4552433732313a20746f6b656e20616c7265616479206d696e746564000000006044820152606401610b2b565b6001600160a01b0382166000818152609a60209081526040808320805460010190558483526099909152808220805473ffffffffffffffffffffffffffffffffffffffff19168417905551839291907fddf252ad1be2c89b69c2b068fc378daa952ba7f163c4a11628f55a4df523b3ef908290a45050565b600054610100900460ff16612e8b5760405162461bcd60e51b815260206004820152602b60248201527f496e697469616c697a61626c653a20636f6e7472616374206973206e6f74206960448201526a6e697469616c697a696e6760a81b6064820152608401610b2b565b600054610100900460ff166141b35760405162461bcd60e51b815260206004820152602b60248201527f496e697469616c697a61626c653a20636f6e7472616374206973206e6f74206960448201526a6e697469616c697a696e6760a81b6064820152608401610b2b565b60976141bf8382614e61565b506098610bcc8282614e61565b600054610100900460ff166142375760405162461bcd60e51b815260206004820152602b60248201527f496e697469616c697a61626c653a20636f6e7472616374206973206e6f74206960448201526a6e697469616c697a696e6760a81b6064820152608401610b2b565b610e603361391c565b600054610100900460ff166142ab5760405162461bcd60e51b815260206004820152602b60248201527f496e697469616c697a61626c653a20636f6e7472616374206973206e6f74206960448201526a6e697469616c697a696e6760a81b6064820152608401610b2b565b61012d805460ff19169055565b600061430d826040518060400160405280602081526020017f5361666545524332303a206c6f772d6c6576656c2063616c6c206661696c6564815250856001600160a01b03166146829092919063ffffffff16565b905080516000148061432e57508080602001905181019061432e9190614f21565b610bcc5760405162461bcd60e51b815260206004820152602a60248201527f5361666545524332303a204552433230206f7065726174696f6e20646964206e60448201527f6f742073756363656564000000000000000000000000000000000000000000006064820152608401610b2b565b60c980546001600160a01b0383811673ffffffffffffffffffffffffffffffffffffffff19831681179093556040519116919082907f8be0079c531659141344cd1fd0a4f28419497f9722a3daafe3b4186f6b6457e090600090a35050565b60006001600160a01b0384163b15614595576040517f150b7a020000000000000000000000000000000000000000000000000000000081526001600160a01b0385169063150b7a029061445c903390899088908890600401614f3e565b6020604051808303816000875af1925050508015614497575060408051601f3d908101601f1916820190925261449491810190614f7a565b60015b61454a573d8080156144c5576040519150601f19603f3d011682016040523d82523d6000602084013e6144ca565b606091505b5080516000036145425760405162461bcd60e51b815260206004820152603260248201527f4552433732313a207472616e7366657220746f206e6f6e20455243373231526560448201527f63656976657220696d706c656d656e74657200000000000000000000000000006064820152608401610b2b565b805181602001fd5b7fffffffff00000000000000000000000000000000000000000000000000000000167f150b7a0200000000000000000000000000000000000000000000000000000000149050612205565b506001949350505050565b6000807a184f03e93ff9f4daa797ed6e38ed64bf6a1f01000000000000000083106145e9577a184f03e93ff9f4daa797ed6e38ed64bf6a1f010000000000000000830492506040015b6d04ee2d6d415b85acef81000000008310614615576d04ee2d6d415b85acef8100000000830492506020015b662386f26fc10000831061463357662386f26fc10000830492506010015b6305f5e100831061464b576305f5e100830492506008015b612710831061465f57612710830492506004015b60648310614671576064830492506002015b600a83106109dc5760010192915050565b6060612205848460008585600080866001600160a01b031685876040516146a99190614f97565b60006040518083038185875af1925050503d80600081146146e6576040519150601f19603f3d011682016040523d82523d6000602084013e6146eb565b606091505b50915091506146fc87838387614707565b979650505050505050565b6060831561477657825160000361476f576001600160a01b0385163b61476f5760405162461bcd60e51b815260206004820152601d60248201527f416464726573733a2063616c6c20746f206e6f6e2d636f6e74726163740000006044820152606401610b2b565b5081612205565b612205838381511561478b5781518083602001fd5b8060405162461bcd60e51b8152600401610b2b9190614840565b7fffffffff000000000000000000000000000000000000000000000000000000008116811461150957600080fd5b6000602082840312156147e557600080fd5b813561126d816147a5565b60005b8381101561480b5781810151838201526020016147f3565b50506000910152565b6000815180845261482c8160208601602086016147f0565b601f01601f19169290920160200192915050565b60208152600061126d6020830184614814565b60006020828403121561486557600080fd5b5035919050565b80356001600160a01b0381168114610db557600080fd5b6000806040838503121561489657600080fd5b61489f8361486c565b946020939093013593505050565b6000806000606084860312156148c257600080fd5b6148cb8461486c565b92506148d96020850161486c565b9150604084013590509250925092565b60008083601f8401126148fb57600080fd5b50813567ffffffffffffffff81111561491357600080fd5b6020830191508360208260051b850101111561492e57600080fd5b9250929050565b6000806020838503121561494857600080fd5b823567ffffffffffffffff81111561495f57600080fd5b61496b858286016148e9565b90969095509350505050565b60006020828403121561498957600080fd5b61126d8261486c565b600080604083850312156149a557600080fd5b6149ae8361486c565b91506149bc6020840161486c565b90509250929050565b600081518084526020808501945080840160005b838110156149f5578151875295820195908201906001016149d9565b509495945050505050565b82815260406020820152600061220560408301846149c5565b805182526020810151614a3760208401826001600160a01b03169052565b5060408101516040830152606081015160608301526080810151608083015260a081015160a083015260c081015160c083015260e081015160e08301526101008082015181840152506101208082015181840152506101408082015181840152505050565b61016081016109dc8284614a19565b600080600060408486031215614ac057600080fd5b83359250602084013567ffffffffffffffff811115614ade57600080fd5b614aea868287016148e9565b9497909650939450505050565b60208152600061126d60208301846149c5565b60008060408385031215614b1d57600080fd5b50508035926020909101359150565b6020808252825182820181905260009190848201906040850190845b81811015614b6f57614b5b838551614a19565b928401926101609290920191600101614b48565b50909695505050505050565b801515811461150957600080fd5b60008060408385031215614b9c57600080fd5b614ba58361486c565b91506020830135614bb581614b7b565b809150509250929050565b634e487b7160e01b600052604160045260246000fd5b60008060008060808587031215614bec57600080fd5b614bf58561486c565b9350614c036020860161486c565b925060408501359150606085013567ffffffffffffffff80821115614c2757600080fd5b818701915087601f830112614c3b57600080fd5b813581811115614c4d57614c4d614bc0565b604051601f8201601f19908116603f01168101908382118183101715614c7557614c75614bc0565b816040528281528a6020848701011115614c8e57600080fd5b82602086016020830137600060208483010152809550505050505092959194509250565b600181811c90821680614cc657607f821691505b602082108103614ce657634e487b7160e01b600052602260045260246000fd5b50919050565b634e487b7160e01b600052601160045260246000fd5b818103818111156109dc576109dc614cec565b80820281158282048414176109dc576109dc614cec565b600082614d4957634e487b7160e01b600052601260045260246000fd5b500490565b808201808211156109dc576109dc614cec565b634e487b7160e01b600052603260045260246000fd5b60006000198203614d8a57614d8a614cec565b5060010190565b600060208284031215614da357600080fd5b5051919050565b60007f07ffffffffffffffffffffffffffffffffffffffffffffffffffffffffffffff831115614dd957600080fd5b8260051b80858437919091019392505050565b60008351614dfe8184602088016147f0565b835190830190614e128183602088016147f0565b01949350505050565b601f821115610bcc57600081815260208120601f850160051c81016020861015614e425750805b601f850160051c820191505b8181101561186957828155600101614e4e565b815167ffffffffffffffff811115614e7b57614e7b614bc0565b614e8f81614e898454614cb2565b84614e1b565b602080601f831160018114614ec45760008415614eac5750858301515b600019600386901b1c1916600185901b178555611869565b600085815260208120601f198616915b82811015614ef357888601518255948401946001909101908401614ed4565b5085821015614f115787850151600019600388901b60f8161c191681555b5050505050600190811b01905550565b600060208284031215614f3357600080fd5b815161126d81614b7b565b60006001600160a01b03808716835280861660208401525083604083015260806060830152614f706080830184614814565b9695505050505050565b600060208284031215614f8c57600080fd5b815161126d816147a5565b60008251614fa98184602087016147f0565b919091019291505056fea264697066735822122083f58eb38fd6f88ae3bf65ca0832f016a5750456569f01eac4e7a7855f24bb2564736f6c63430008120033",
  "linkReferences": {},
  "deployedLinkReferences": {}
}