{
  "_format": "hh-sol-artifact-1",
  "contractName": "StakedINTX",
  "sourceName": "contracts/StakedINTX.sol",
  "abi": [
    {
      "inputs": [],
      "stateMutability": "nonpayable",
      "type": "constructor"
    },
    {
      "anonymous": false,
      "inputs": [
        {
          "indexed": false,
          "internalType": "uint256",
          "name": "intxAdded",
          "type": "uint256"
        },
        {
          "indexed": false,
          "internalType": "uint256",
          "name": "oldExchangeRate",
          "type": "uint256"
        },
        {
          "indexed": false,
          "internalType": "uint256",
          "name": "newExchangeRate",
          "type": "uint256"
        }
      ],
      "name": "AddToBackingRatio",
      "type": "event"
    },
    {
      "anonymous": false,
      "inputs": [
        {
          "indexed": true,
          "internalType": "address",
          "name": "owner",
          "type": "address"
        },
        {
          "indexed": true,
          "internalType": "address",
          "name": "approved",
          "type": "address"
        },
        {
          "indexed": true,
          "internalType": "uint256",
          "name": "tokenId",
          "type": "uint256"
        }
      ],
      "name": "Approval",
      "type": "event"
    },
    {
      "anonymous": false,
      "inputs": [
        {
          "indexed": true,
          "internalType": "address",
          "name": "owner",
          "type": "address"
        },
        {
          "indexed": true,
          "internalType": "address",
          "name": "operator",
          "type": "address"
        },
        {
          "indexed": false,
          "internalType": "bool",
          "name": "approved",
          "type": "bool"
        }
      ],
      "name": "ApprovalForAll",
      "type": "event"
    },
    {
      "anonymous": false,
      "inputs": [
        {
          "indexed": true,
          "internalType": "address",
          "name": "owner",
          "type": "address"
        },
        {
          "indexed": true,
          "internalType": "uint256",
          "name": "tokenId",
          "type": "uint256"
        },
        {
          "indexed": false,
          "internalType": "uint256",
          "name": "amountBurned",
          "type": "uint256"
        },
        {
          "indexed": false,
          "internalType": "uint256",
          "name": "amountIntxOut",
          "type": "uint256"
        },
        {
          "indexed": false,
          "internalType": "uint256",
          "name": "amountIntxPenalized",
          "type": "uint256"
        },
        {
          "indexed": false,
          "internalType": "uint256",
          "name": "totalXINTXNew",
          "type": "uint256"
        }
      ],
      "name": "Burn",
      "type": "event"
    },
    {
      "anonymous": false,
      "inputs": [
        {
          "indexed": true,
          "internalType": "address",
          "name": "owner",
          "type": "address"
        },
        {
          "indexed": false,
          "internalType": "uint256",
          "name": "amountOut",
          "type": "uint256"
        },
        {
          "indexed": true,
          "internalType": "uint256[]",
          "name": "tokenIds",
          "type": "uint256[]"
        }
      ],
      "name": "Claim",
      "type": "event"
    },
    {
      "anonymous": false,
      "inputs": [
        {
          "indexed": false,
          "internalType": "uint8",
          "name": "version",
          "type": "uint8"
        }
      ],
      "name": "Initialized",
      "type": "event"
    },
    {
      "anonymous": false,
      "inputs": [
        {
          "indexed": true,
          "internalType": "address",
          "name": "owner",
          "type": "address"
        },
        {
          "indexed": true,
          "internalType": "uint256",
          "name": "tokenIdFrom",
          "type": "uint256"
        },
        {
          "indexed": false,
          "internalType": "uint256",
          "name": "tokenIdTo",
          "type": "uint256"
        },
        {
          "indexed": false,
          "internalType": "uint256",
          "name": "newBalance",
          "type": "uint256"
        },
        {
          "indexed": false,
          "internalType": "uint256",
          "name": "newLoyalSince",
          "type": "uint256"
        }
      ],
      "name": "Merge",
      "type": "event"
    },
    {
      "anonymous": false,
      "inputs": [
        {
          "indexed": true,
          "internalType": "address",
          "name": "from",
          "type": "address"
        },
        {
          "indexed": true,
          "internalType": "address",
          "name": "to",
          "type": "address"
        },
        {
          "indexed": true,
          "internalType": "uint256",
          "name": "tokenId",
          "type": "uint256"
        },
        {
          "indexed": false,
          "internalType": "uint256",
          "name": "amountMinted",
          "type": "uint256"
        },
        {
          "indexed": false,
          "internalType": "uint256",
          "name": "amountIntxIn",
          "type": "uint256"
        },
        {
          "indexed": false,
          "internalType": "uint256",
          "name": "totalXINTXNew",
          "type": "uint256"
        },
        {
          "indexed": false,
          "internalType": "uint256",
          "name": "newTotalWeight",
          "type": "uint256"
        }
      ],
      "name": "Mint",
      "type": "event"
    },
    {
      "anonymous": false,
      "inputs": [
        {
          "indexed": true,
          "internalType": "address",
          "name": "previousOwner",
          "type": "address"
        },
        {
          "indexed": true,
          "internalType": "address",
          "name": "newOwner",
          "type": "address"
        }
      ],
      "name": "OwnershipTransferStarted",
      "type": "event"
    },
    {
      "anonymous": false,
      "inputs": [
        {
          "indexed": true,
          "internalType": "address",
          "name": "previousOwner",
          "type": "address"
        },
        {
          "indexed": true,
          "internalType": "address",
          "name": "newOwner",
          "type": "address"
        }
      ],
      "name": "OwnershipTransferred",
      "type": "event"
    },
    {
      "anonymous": false,
      "inputs": [
        {
          "indexed": false,
          "internalType": "address",
          "name": "account",
          "type": "address"
        }
      ],
      "name": "Paused",
      "type": "event"
    },
    {
      "anonymous": false,
      "inputs": [
        {
          "indexed": false,
          "internalType": "uint256",
          "name": "rewardAdded",
          "type": "uint256"
        }
      ],
      "name": "RewardAdded",
      "type": "event"
    },
    {
      "anonymous": false,
      "inputs": [
        {
          "indexed": true,
          "internalType": "address",
          "name": "owner",
          "type": "address"
        },
        {
          "indexed": true,
          "internalType": "uint256",
          "name": "tokenIdFrom",
          "type": "uint256"
        },
        {
          "indexed": false,
          "internalType": "uint256",
          "name": "tokenIdTo",
          "type": "uint256"
        },
        {
          "indexed": false,
          "internalType": "uint256",
          "name": "balanceSplitted",
          "type": "uint256"
        }
      ],
      "name": "Split",
      "type": "event"
    },
    {
      "anonymous": false,
      "inputs": [
        {
          "indexed": false,
          "internalType": "uint256",
          "name": "intxBalance",
          "type": "uint256"
        },
        {
          "indexed": false,
          "internalType": "uint256",
          "name": "totalXINTX",
          "type": "uint256"
        },
        {
          "indexed": false,
          "internalType": "uint256",
          "name": "totalWeight",
          "type": "uint256"
        }
      ],
      "name": "StatusEvent",
      "type": "event"
    },
    {
      "anonymous": false,
      "inputs": [
        {
          "indexed": true,
          "internalType": "address",
          "name": "from",
          "type": "address"
        },
        {
          "indexed": true,
          "internalType": "address",
          "name": "to",
          "type": "address"
        },
        {
          "indexed": true,
          "internalType": "uint256",
          "name": "tokenId",
          "type": "uint256"
        }
      ],
      "name": "Transfer",
      "type": "event"
    },
    {
      "anonymous": false,
      "inputs": [
        {
          "indexed": false,
          "internalType": "address",
          "name": "account",
          "type": "address"
        }
      ],
      "name": "Unpaused",
      "type": "event"
    },
    {
      "inputs": [],
      "name": "DURATION",
      "outputs": [
        {
          "internalType": "uint256",
          "name": "",
          "type": "uint256"
        }
      ],
      "stateMutability": "view",
      "type": "function"
    },
    {
      "inputs": [],
      "name": "INTX",
      "outputs": [
        {
          "internalType": "contract IERC20",
          "name": "",
          "type": "address"
        }
      ],
      "stateMutability": "view",
      "type": "function"
    },
    {
      "inputs": [],
      "name": "P",
      "outputs": [
        {
          "internalType": "uint256",
          "name": "",
          "type": "uint256"
        }
      ],
      "stateMutability": "view",
      "type": "function"
    },
    {
      "inputs": [],
      "name": "acceptOwnership",
      "outputs": [],
      "stateMutability": "nonpayable",
      "type": "function"
    },
    {
      "inputs": [
        {
          "internalType": "uint256",
          "name": "_intxAmount",
          "type": "uint256"
        },
        {
          "internalType": "uint256",
          "name": "tokenTo",
          "type": "uint256"
        }
      ],
      "name": "add",
      "outputs": [],
      "stateMutability": "nonpayable",
      "type": "function"
    },
    {
      "inputs": [
        {
          "internalType": "uint256",
          "name": "_intxAmount",
          "type": "uint256"
        }
      ],
      "name": "addToBackingRatio",
      "outputs": [],
      "stateMutability": "nonpayable",
      "type": "function"
    },
    {
      "inputs": [
        {
          "internalType": "uint256",
          "name": "_tokenId",
          "type": "uint256"
        }
      ],
      "name": "amountStakedOf",
      "outputs": [
        {
          "internalType": "uint256",
          "name": "amount",
          "type": "uint256"
        }
      ],
      "stateMutability": "view",
      "type": "function"
    },
    {
      "inputs": [
        {
          "internalType": "address",
          "name": "to",
          "type": "address"
        },
        {
          "internalType": "uint256",
          "name": "tokenId",
          "type": "uint256"
        }
      ],
      "name": "approve",
      "outputs": [],
      "stateMutability": "nonpayable",
      "type": "function"
    },
    {
      "inputs": [
        {
          "internalType": "address",
          "name": "owner",
          "type": "address"
        }
      ],
      "name": "balanceOf",
      "outputs": [
        {
          "internalType": "uint256",
          "name": "",
          "type": "uint256"
        }
      ],
      "stateMutability": "view",
      "type": "function"
    },
    {
      "inputs": [
        {
          "internalType": "uint256",
          "name": "",
          "type": "uint256"
        }
      ],
      "name": "balanceOfId",
      "outputs": [
        {
          "internalType": "uint256",
          "name": "",
          "type": "uint256"
        }
      ],
      "stateMutability": "view",
      "type": "function"
    },
    {
      "inputs": [
        {
          "internalType": "uint256",
          "name": "_tokenId",
          "type": "uint256"
        }
      ],
      "name": "boostPercentageOf",
      "outputs": [
        {
          "internalType": "uint256",
          "name": "boostPercentage",
          "type": "uint256"
        }
      ],
      "stateMutability": "view",
      "type": "function"
    },
    {
      "inputs": [
        {
          "internalType": "uint256[]",
          "name": "_tokenIds",
          "type": "uint256[]"
        }
      ],
      "name": "claim",
      "outputs": [],
      "stateMutability": "nonpayable",
      "type": "function"
    },
    {
      "inputs": [],
      "name": "currentExchangeRate",
      "outputs": [
        {
          "internalType": "uint256",
          "name": "_exchangeRate",
          "type": "uint256"
        }
      ],
      "stateMutability": "view",
      "type": "function"
    },
    {
      "inputs": [
        {
          "internalType": "uint256[]",
          "name": "_tokenIds",
          "type": "uint256[]"
        }
      ],
      "name": "earned",
      "outputs": [
        {
          "internalType": "uint256",
          "name": "totalReward",
          "type": "uint256"
        },
        {
          "internalType": "uint256[]",
          "name": "claimableAmounts",
          "type": "uint256[]"
        }
      ],
      "stateMutability": "view",
      "type": "function"
    },
    {
      "inputs": [
        {
          "internalType": "uint256",
          "name": "_tokenId",
          "type": "uint256"
        }
      ],
      "name": "earned",
      "outputs": [
        {
          "internalType": "uint256",
          "name": "",
          "type": "uint256"
        }
      ],
      "stateMutability": "view",
      "type": "function"
    },
    {
      "inputs": [
        {
          "internalType": "uint256",
          "name": "tokenId",
          "type": "uint256"
        }
      ],
      "name": "getApproved",
      "outputs": [
        {
          "internalType": "address",
          "name": "",
          "type": "address"
        }
      ],
      "stateMutability": "view",
      "type": "function"
    },
    {
      "inputs": [
        {
          "internalType": "uint256",
          "name": "_tokenId",
          "type": "uint256"
        }
      ],
      "name": "getPositionInfo",
      "outputs": [
        {
          "components": [
            {
              "internalType": "uint256",
              "name": "tokenId",
              "type": "uint256"
            },
            {
              "internalType": "address",
              "name": "owner",
              "type": "address"
            },
            {
              "internalType": "uint256",
              "name": "balanceOfId",
              "type": "uint256"
            },
            {
              "internalType": "uint256",
              "name": "amountStakedOf",
              "type": "uint256"
            },
            {
              "internalType": "uint256",
              "name": "withdrawableAmountOf",
              "type": "uint256"
            },
            {
              "internalType": "uint256",
              "name": "loyalSince",
              "type": "uint256"
            },
            {
              "internalType": "uint256",
              "name": "boostPercentageOf",
              "type": "uint256"
            },
            {
              "internalType": "uint256",
              "name": "penaltyPercentageOf",
              "type": "uint256"
            },
            {
              "internalType": "uint256",
              "name": "penaltyAmountOf",
              "type": "uint256"
            },
            {
              "internalType": "uint256",
              "name": "pendingReward",
              "type": "uint256"
            },
            {
              "internalType": "uint256",
              "name": "lastWeightKnown",
              "type": "uint256"
            }
          ],
          "internalType": "struct StakedINTX.PositionInfo",
          "name": "_positionInfo",
          "type": "tuple"
        }
      ],
      "stateMutability": "view",
      "type": "function"
    },
    {
      "inputs": [
        {
          "internalType": "uint256[]",
          "name": "_tokenId",
          "type": "uint256[]"
        }
      ],
      "name": "getPositionsInfo",
      "outputs": [
        {
          "components": [
            {
              "internalType": "uint256",
              "name": "tokenId",
              "type": "uint256"
            },
            {
              "internalType": "address",
              "name": "owner",
              "type": "address"
            },
            {
              "internalType": "uint256",
              "name": "balanceOfId",
              "type": "uint256"
            },
            {
              "internalType": "uint256",
              "name": "amountStakedOf",
              "type": "uint256"
            },
            {
              "internalType": "uint256",
              "name": "withdrawableAmountOf",
              "type": "uint256"
            },
            {
              "internalType": "uint256",
              "name": "loyalSince",
              "type": "uint256"
            },
            {
              "internalType": "uint256",
              "name": "boostPercentageOf",
              "type": "uint256"
            },
            {
              "internalType": "uint256",
              "name": "penaltyPercentageOf",
              "type": "uint256"
            },
            {
              "internalType": "uint256",
              "name": "penaltyAmountOf",
              "type": "uint256"
            },
            {
              "internalType": "uint256",
              "name": "pendingReward",
              "type": "uint256"
            },
            {
              "internalType": "uint256",
              "name": "lastWeightKnown",
              "type": "uint256"
            }
          ],
          "internalType": "struct StakedINTX.PositionInfo[]",
          "name": "_positionInfo",
          "type": "tuple[]"
        }
      ],
      "stateMutability": "view",
      "type": "function"
    },
    {
      "inputs": [
        {
          "internalType": "address",
          "name": "_intx",
          "type": "address"
        },
        {
          "internalType": "address",
          "name": "_usdt",
          "type": "address"
        }
      ],
      "name": "initialize",
      "outputs": [],
      "stateMutability": "nonpayable",
      "type": "function"
    },
    {
      "inputs": [
        {
          "internalType": "address",
          "name": "owner",
          "type": "address"
        },
        {
          "internalType": "address",
          "name": "operator",
          "type": "address"
        }
      ],
      "name": "isApprovedForAll",
      "outputs": [
        {
          "internalType": "bool",
          "name": "",
          "type": "bool"
        }
      ],
      "stateMutability": "view",
      "type": "function"
    },
    {
      "inputs": [
        {
          "internalType": "uint256",
          "name": "_tokenId",
          "type": "uint256"
        }
      ],
      "name": "isRestrictedToken",
      "outputs": [
        {
          "internalType": "bool",
          "name": "isRestricted",
          "type": "bool"
        }
      ],
      "stateMutability": "view",
      "type": "function"
    },
    {
      "inputs": [],
      "name": "lastTimeRewardApplicable",
      "outputs": [
        {
          "internalType": "uint256",
          "name": "",
          "type": "uint256"
        }
      ],
      "stateMutability": "view",
      "type": "function"
    },
    {
      "inputs": [],
      "name": "lastTokenId",
      "outputs": [
        {
          "internalType": "uint256",
          "name": "",
          "type": "uint256"
        }
      ],
      "stateMutability": "view",
      "type": "function"
    },
    {
      "inputs": [],
      "name": "lastUpdateTime",
      "outputs": [
        {
          "internalType": "uint256",
          "name": "",
          "type": "uint256"
        }
      ],
      "stateMutability": "view",
      "type": "function"
    },
    {
      "inputs": [
        {
          "internalType": "uint256",
          "name": "",
          "type": "uint256"
        }
      ],
      "name": "loyalSince",
      "outputs": [
        {
          "internalType": "uint256",
          "name": "",
          "type": "uint256"
        }
      ],
      "stateMutability": "view",
      "type": "function"
    },
    {
      "inputs": [],
      "name": "loyaltyDuration",
      "outputs": [
        {
          "internalType": "uint256",
          "name": "",
          "type": "uint256"
        }
      ],
      "stateMutability": "view",
      "type": "function"
    },
    {
      "inputs": [],
      "name": "maxLoyaltyBoost",
      "outputs": [
        {
          "internalType": "uint256",
          "name": "",
          "type": "uint256"
        }
      ],
      "stateMutability": "view",
      "type": "function"
    },
    {
      "inputs": [],
      "name": "maxPenalty",
      "outputs": [
        {
          "internalType": "uint256",
          "name": "",
          "type": "uint256"
        }
      ],
      "stateMutability": "view",
      "type": "function"
    },
    {
      "inputs": [
        {
          "internalType": "uint256",
          "name": "_tokenFrom",
          "type": "uint256"
        },
        {
          "internalType": "uint256",
          "name": "tokenTo",
          "type": "uint256"
        }
      ],
      "name": "merge",
      "outputs": [],
      "stateMutability": "nonpayable",
      "type": "function"
    },
    {
      "inputs": [],
      "name": "minPenalty",
      "outputs": [
        {
          "internalType": "uint256",
          "name": "",
          "type": "uint256"
        }
      ],
      "stateMutability": "view",
      "type": "function"
    },
    {
      "inputs": [],
      "name": "name",
      "outputs": [
        {
          "internalType": "string",
          "name": "",
          "type": "string"
        }
      ],
      "stateMutability": "view",
      "type": "function"
    },
    {
      "inputs": [
        {
          "internalType": "uint256",
          "name": "_rewardAmount",
          "type": "uint256"
        }
      ],
      "name": "notifyReward",
      "outputs": [],
      "stateMutability": "nonpayable",
      "type": "function"
    },
    {
      "inputs": [],
      "name": "owner",
      "outputs": [
        {
          "internalType": "address",
          "name": "",
          "type": "address"
        }
      ],
      "stateMutability": "view",
      "type": "function"
    },
    {
      "inputs": [
        {
          "internalType": "uint256",
          "name": "tokenId",
          "type": "uint256"
        }
      ],
      "name": "ownerOf",
      "outputs": [
        {
          "internalType": "address",
          "name": "",
          "type": "address"
        }
      ],
      "stateMutability": "view",
      "type": "function"
    },
    {
      "inputs": [],
      "name": "paused",
      "outputs": [
        {
          "internalType": "bool",
          "name": "",
          "type": "bool"
        }
      ],
      "stateMutability": "view",
      "type": "function"
    },
    {
      "inputs": [
        {
          "internalType": "uint256",
          "name": "_tokenId",
          "type": "uint256"
        }
      ],
      "name": "penaltyAmountOf",
      "outputs": [
        {
          "internalType": "uint256",
          "name": "penaltyAmount",
          "type": "uint256"
        }
      ],
      "stateMutability": "view",
      "type": "function"
    },
    {
      "inputs": [
        {
          "internalType": "uint256",
          "name": "_tokenId",
          "type": "uint256"
        }
      ],
      "name": "penaltyPercentageOf",
      "outputs": [
        {
          "internalType": "uint256",
          "name": "penaltyPercentage",
          "type": "uint256"
        }
      ],
      "stateMutability": "view",
      "type": "function"
    },
    {
      "inputs": [],
      "name": "pendingOwner",
      "outputs": [
        {
          "internalType": "address",
          "name": "",
          "type": "address"
        }
      ],
      "stateMutability": "view",
      "type": "function"
    },
    {
      "inputs": [
        {
          "internalType": "address",
          "name": "",
          "type": "address"
        }
      ],
      "name": "pendingRewards",
      "outputs": [
        {
          "internalType": "uint256",
          "name": "",
          "type": "uint256"
        }
      ],
      "stateMutability": "view",
      "type": "function"
    },
    {
      "inputs": [],
      "name": "periodFinish",
      "outputs": [
        {
          "internalType": "uint256",
          "name": "",
          "type": "uint256"
        }
      ],
      "stateMutability": "view",
      "type": "function"
    },
    {
      "inputs": [],
      "name": "renounceOwnership",
      "outputs": [],
      "stateMutability": "nonpayable",
      "type": "function"
    },
    {
      "inputs": [
        {
          "internalType": "uint256",
          "name": "",
          "type": "uint256"
        }
      ],
      "name": "restrictedToken",
      "outputs": [
        {
          "internalType": "uint8",
          "name": "",
          "type": "uint8"
        }
      ],
      "stateMutability": "view",
      "type": "function"
    },
    {
      "inputs": [],
      "name": "rewardPerWeight",
      "outputs": [
        {
          "internalType": "uint256",
          "name": "",
          "type": "uint256"
        }
      ],
      "stateMutability": "view",
      "type": "function"
    },
    {
      "inputs": [],
      "name": "rewardPerWeightStored",
      "outputs": [
        {
          "internalType": "uint256",
          "name": "",
          "type": "uint256"
        }
      ],
      "stateMutability": "view",
      "type": "function"
    },
    {
      "inputs": [],
      "name": "rewardRate",
      "outputs": [
        {
          "internalType": "uint256",
          "name": "",
          "type": "uint256"
        }
      ],
      "stateMutability": "view",
      "type": "function"
    },
    {
      "inputs": [],
      "name": "rewardToken",
      "outputs": [
        {
          "internalType": "contract IERC20",
          "name": "",
          "type": "address"
        }
      ],
      "stateMutability": "view",
      "type": "function"
    },
    {
      "inputs": [
        {
          "internalType": "address",
          "name": "from",
          "type": "address"
        },
        {
          "internalType": "address",
          "name": "to",
          "type": "address"
        },
        {
          "internalType": "uint256",
          "name": "tokenId",
          "type": "uint256"
        }
      ],
      "name": "safeTransferFrom",
      "outputs": [],
      "stateMutability": "nonpayable",
      "type": "function"
    },
    {
      "inputs": [
        {
          "internalType": "address",
          "name": "from",
          "type": "address"
        },
        {
          "internalType": "address",
          "name": "to",
          "type": "address"
        },
        {
          "internalType": "uint256",
          "name": "tokenId",
          "type": "uint256"
        },
        {
          "internalType": "bytes",
          "name": "data",
          "type": "bytes"
        }
      ],
      "name": "safeTransferFrom",
      "outputs": [],
      "stateMutability": "nonpayable",
      "type": "function"
    },
    {
      "inputs": [
        {
          "internalType": "address",
          "name": "operator",
          "type": "address"
        },
        {
          "internalType": "bool",
          "name": "approved",
          "type": "bool"
        }
      ],
      "name": "setApprovalForAll",
      "outputs": [],
      "stateMutability": "nonpayable",
      "type": "function"
    },
    {
      "inputs": [
        {
          "internalType": "address",
          "name": "_teamVestingContract",
          "type": "address"
        }
      ],
      "name": "setTeamVestingContract",
      "outputs": [],
      "stateMutability": "nonpayable",
      "type": "function"
    },
    {
      "inputs": [
        {
          "internalType": "uint256",
          "name": "_tokenId",
          "type": "uint256"
        },
        {
          "internalType": "uint256[]",
          "name": "_splitWeights",
          "type": "uint256[]"
        }
      ],
      "name": "split",
      "outputs": [
        {
          "internalType": "uint256[]",
          "name": "_tokenIds",
          "type": "uint256[]"
        }
      ],
      "stateMutability": "nonpayable",
      "type": "function"
    },
    {
      "inputs": [
        {
          "internalType": "uint256",
          "name": "_intxAmount",
          "type": "uint256"
        }
      ],
      "name": "stake",
      "outputs": [
        {
          "internalType": "uint256",
          "name": "_tokenId",
          "type": "uint256"
        }
      ],
      "stateMutability": "nonpayable",
      "type": "function"
    },
    {
      "inputs": [
        {
          "internalType": "address",
          "name": "_to",
          "type": "address"
        },
        {
          "internalType": "uint256",
          "name": "_intxAmount",
          "type": "uint256"
        }
      ],
      "name": "stakeFor",
      "outputs": [
        {
          "internalType": "uint256",
          "name": "_tokenId",
          "type": "uint256"
        }
      ],
      "stateMutability": "nonpayable",
      "type": "function"
    },
    {
      "inputs": [
        {
          "internalType": "bytes4",
          "name": "interfaceId",
          "type": "bytes4"
        }
      ],
      "name": "supportsInterface",
      "outputs": [
        {
          "internalType": "bool",
          "name": "",
          "type": "bool"
        }
      ],
      "stateMutability": "view",
      "type": "function"
    },
    {
      "inputs": [],
      "name": "symbol",
      "outputs": [
        {
          "internalType": "string",
          "name": "",
          "type": "string"
        }
      ],
      "stateMutability": "view",
      "type": "function"
    },
    {
      "inputs": [],
      "name": "teamVestingContract",
      "outputs": [
        {
          "internalType": "address",
          "name": "",
          "type": "address"
        }
      ],
      "stateMutability": "view",
      "type": "function"
    },
    {
      "inputs": [
        {
          "internalType": "uint256",
          "name": "tokenId",
          "type": "uint256"
        }
      ],
      "name": "tokenURI",
      "outputs": [
        {
          "internalType": "string",
          "name": "",
          "type": "string"
        }
      ],
      "stateMutability": "view",
      "type": "function"
    },
    {
      "inputs": [],
      "name": "totalWeight",
      "outputs": [
        {
          "internalType": "uint256",
          "name": "",
          "type": "uint256"
        }
      ],
      "stateMutability": "view",
      "type": "function"
    },
    {
      "inputs": [],
      "name": "totalXINTX",
      "outputs": [
        {
          "internalType": "uint256",
          "name": "",
          "type": "uint256"
        }
      ],
      "stateMutability": "view",
      "type": "function"
    },
    {
      "inputs": [
        {
          "internalType": "address",
          "name": "from",
          "type": "address"
        },
        {
          "internalType": "address",
          "name": "to",
          "type": "address"
        },
        {
          "internalType": "uint256",
          "name": "tokenId",
          "type": "uint256"
        }
      ],
      "name": "transferFrom",
      "outputs": [],
      "stateMutability": "nonpayable",
      "type": "function"
    },
    {
      "inputs": [
        {
          "internalType": "address",
          "name": "newOwner",
          "type": "address"
        }
      ],
      "name": "transferOwnership",
      "outputs": [],
      "stateMutability": "nonpayable",
      "type": "function"
    },
    {
      "inputs": [],
      "name": "unpause",
      "outputs": [],
      "stateMutability": "nonpayable",
      "type": "function"
    },
    {
      "inputs": [
        {
          "internalType": "uint256",
          "name": "_tokenId",
          "type": "uint256"
        }
      ],
      "name": "unstake",
      "outputs": [
        {
          "internalType": "uint256",
          "name": "_intxAmountOut",
          "type": "uint256"
        }
      ],
      "stateMutability": "nonpayable",
      "type": "function"
    },
    {
      "inputs": [
        {
          "internalType": "uint256",
          "name": "_tokenId",
          "type": "uint256"
        },
        {
          "internalType": "uint256",
          "name": "_xIntxAmountWithdraw",
          "type": "uint256"
        }
      ],
      "name": "unstakePartially",
      "outputs": [
        {
          "internalType": "uint256",
          "name": "_intxAmountOut",
          "type": "uint256"
        },
        {
          "internalType": "uint256",
          "name": "_newTokenId",
          "type": "uint256"
        }
      ],
      "stateMutability": "nonpayable",
      "type": "function"
    },
    {
      "inputs": [
        {
          "internalType": "uint256[]",
          "name": "_tokenIds",
          "type": "uint256[]"
        }
      ],
      "name": "updateWeights",
      "outputs": [],
      "stateMutability": "nonpayable",
      "type": "function"
    },
    {
      "inputs": [
        {
          "internalType": "uint256",
          "name": "_tokenId",
          "type": "uint256"
        }
      ],
      "name": "withdrawableAmountOf",
      "outputs": [
        {
          "internalType": "uint256",
          "name": "withdrawableAmount",
          "type": "uint256"
        }
      ],
      "stateMutability": "view",
      "type": "function"
    }
  ],
  "bytecode": "0x60806040523480156200001157600080fd5b506200001c62000022565b620000e3565b600054610100900460ff16156200008f5760405162461bcd60e51b815260206004820152602760248201527f496e697469616c697a61626c653a20636f6e747261637420697320696e697469604482015266616c697a696e6760c81b606482015260840160405180910390fd5b60005460ff90811614620000e1576000805460ff191660ff9081179091556040519081527f7f26b83ff96e1f2b6a682f133852f6798a09c465da95921460cefb38474024989060200160405180910390a15b565b61509780620000f36000396000f3fe608060405234801561001057600080fd5b50600436106104065760003560e01c806379ba50971161021a578063c205f34111610135578063e30c3978116100c8578063f290dfa711610097578063f3058d4e1161007c578063f3058d4e146108fa578063f7c618c11461090d578063f84ddf0b1461092157600080fd5b8063f290dfa7146108bf578063f2fde38b146108e757600080fd5b8063e30c397814610854578063e985e9c514610865578063ebe2b12b146108a1578063ef7297de146108ab57600080fd5b8063d1a249ab11610104578063d1a249ab14610810578063d1c2babb1461081a578063d975dfed1461082d578063df2e0b971461084057600080fd5b8063c205f341146107bf578063c87b56dd146107d2578063c8f33c91146107e5578063cfd0e125146107ef57600080fd5b8063988dc31e116101ad578063a345280a1161017c578063a345280a1461077e578063a368497714610791578063a694fc3a14610799578063b88d4fde146107ac57600080fd5b8063988dc31e14610724578063a00ea0c514610737578063a1c95e5a1461074a578063a22cb4651461076b57600080fd5b80638da5cb5b116101e95780638da5cb5b146106e15780638fca5a59146106f257806395d89b411461071257806396c82e571461071a57600080fd5b806379ba5097146106b85780637b0a47ee146106c057806380faa57d146106ca5780638b8fbd92146106d257600080fd5b806342842e0e116103255780635c975abb116102b857806369c672471161028757806370a082311161026c57806370a082311461068a578063715018a61461069d578063771602f7146106a557600080fd5b806369c67247146106575780636ba4c1381461067757600080fd5b80635c975abb1461061257806360993b5b1461061e5780636352211e14610631578063645bfd9a1461064457600080fd5b8063519f5099116102f4578063519f5099146105cb5780635200e79e146105eb578063520bf08a146105f55780635a48a97f146105ff57600080fd5b806342842e0e14610571578063485cc955146105845780634d62f590146105975780634d6ed8c4146105b857600080fd5b806323b872dd1161039d57806330f916191161036c57806330f916191461052b57806331d7a2621461053e5780633228dd591461055f5780633f4ba83a1461056957600080fd5b806323b872dd146104ea5780632ac3f450146104fd5780632e17de78146105055780632ee409081461051857600080fd5b8063095ea7b3116103d9578063095ea7b3146104a95780630eba9849146104be5780631be05289146104d65780632212b806146104e057600080fd5b806301ffc9a71461040b57806306fdde0314610433578063081812fc1461044857806308d9788d14610473575b600080fd5b61041e610419366004614881565b61092b565b60405190151581526020015b60405180910390f35b61043b610a10565b60405161042a91906148ee565b61045b610456366004614901565b610aa2565b6040516001600160a01b03909116815260200161042a565b610497610481366004614901565b6101726020526000908152604090205460ff1681565b60405160ff909116815260200161042a565b6104bc6104b7366004614931565b610ac9565b005b6104c86101645481565b60405190815260200161042a565b6104c862093a8081565b6104c86101625481565b6104bc6104f836600461495b565b610bff565b6104c8610c86565b6104c8610513366004614901565b610d52565b6104c8610526366004614931565b610de8565b6104bc6105393660046149e3565b610e2e565b6104c861054c366004614a25565b6101716020526000908152604090205481565b6104c86101685481565b6104bc610e76565b6104bc61057f36600461495b565b610e90565b6104bc610592366004614a40565b610eab565b6105aa6105a53660046149e3565b611171565b60405161042a929190614aae565b6104c86105c6366004614901565b611231565b6105de6105d9366004614901565b6112a2565b60405161042a9190614b4a565b6104c86101635481565b6104c86101605481565b6104c861060d366004614901565b611311565b61012d5460ff1661041e565b6104bc61062c366004614901565b611359565b61045b61063f366004614901565b61153a565b6104c8610652366004614901565b61159f565b61066a610665366004614b59565b6115c5565b60405161042a9190614ba5565b6104bc6106853660046149e3565b61168a565b6104c8610698366004614a25565b61189f565b6104bc611939565b6104bc6106b3366004614bb8565b611941565b6104bc611a04565b6104c86101675481565b6104c8611a8f565b6104c8670de0b6b3a764000081565b60c9546001600160a01b031661045b565b6107056107003660046149e3565b611aa3565b60405161042a9190614bda565b61043b611bbd565b6104c86101695481565b6104c8610732366004614901565b611bcc565b6104c8610745366004614901565b611bf2565b6104c8610758366004614901565b61016d6020526000908152604090205481565b6104bc610779366004614c37565b611c18565b61041e61078c366004614901565b611c27565b6104c8611c55565b6104c86107a7366004614901565b611c5f565b6104bc6107ba366004614c84565b611c6c565b6104bc6107cd366004614a25565b611cfa565b61043b6107e0366004614901565b611d32565b6104c86101655481565b6104c86107fd366004614901565b61016c6020526000908152604090205481565b6104c86101615481565b6104bc610828366004614bb8565b611da5565b6104c861083b366004614901565b611e48565b61016a5461045b906001600160a01b031681565b60fb546001600160a01b031661045b565b61041e610873366004614a40565b6001600160a01b039182166000908152609c6020908152604080832093909416825291909152205460ff1690565b6104c86101665481565b6101735461045b906001600160a01b031681565b6108d26108cd366004614bb8565b611e90565b6040805192835260208301919091520161042a565b6104bc6108f5366004614a25565b61205f565b6104bc610908366004614901565b6120dd565b61016b5461045b906001600160a01b031681565b6104c861015f5481565b60007fffffffff0000000000000000000000000000000000000000000000000000000082167f80ac58cd0000000000000000000000000000000000000000000000000000000014806109be57507fffffffff0000000000000000000000000000000000000000000000000000000082167f5b5e139f00000000000000000000000000000000000000000000000000000000145b80610a0a57507f01ffc9a7000000000000000000000000000000000000000000000000000000007fffffffff000000000000000000000000000000000000000000000000000000008316145b92915050565b606060978054610a1f90614d60565b80601f0160208091040260200160405190810160405280929190818152602001828054610a4b90614d60565b8015610a985780601f10610a6d57610100808354040283529160200191610a98565b820191906000526020600020905b815481529060010190602001808311610a7b57829003601f168201915b5050505050905090565b6000610aad8261215d565b506000908152609b60205260409020546001600160a01b031690565b6000610ad48261153a565b9050806001600160a01b0316836001600160a01b031603610b625760405162461bcd60e51b815260206004820152602160248201527f4552433732313a20617070726f76616c20746f2063757272656e74206f776e6560448201527f720000000000000000000000000000000000000000000000000000000000000060648201526084015b60405180910390fd5b336001600160a01b0382161480610b7e5750610b7e8133610873565b610bf05760405162461bcd60e51b815260206004820152603d60248201527f4552433732313a20617070726f76652063616c6c6572206973206e6f7420746f60448201527f6b656e206f776e6572206f7220617070726f76656420666f7220616c6c0000006064820152608401610b59565b610bfa83836121c1565b505050565b610c09338261223c565b610c7b5760405162461bcd60e51b815260206004820152602d60248201527f4552433732313a2063616c6c6572206973206e6f7420746f6b656e206f776e6560448201527f72206f7220617070726f766564000000000000000000000000000000000000006064820152608401610b59565b610bfa8383836122bb565b600061016954600003610c9b57506101685490565b60006101695411610cee5760405162461bcd60e51b815260206004820152601060248201527f496e636f727265637420776569676874000000000000000000000000000000006044820152606401610b59565b600061016554610cfc611a8f565b610d069190614db0565b9050610169546101675482610d1b9190614dc3565b610d34906ec097ce7bc90715b34b9f1000000000614dc3565b610d3e9190614dda565b61016854610d4c9190614dfc565b91505090565b6000610d5d82611c27565b15610dd05760405162461bcd60e51b815260206004820152603a60248201527f5468697320746f6b656e20697320726573747269637465642c20796f7520636160448201527f6e277420756e7374616b652f7472616e736665722f73706c69740000000000006064820152608401610b59565b610dd98261234c565b9050610de361261b565b919050565b6000610df533848461266d565b610173549091506001600160a01b03163303610e2657600081815261017260205260409020805460ff191660011790555b610a0a61261b565b8060005b81811015610e6d57610e5b848483818110610e4f57610e4f614e0f565b90506020020135612826565b80610e6581614e25565b915050610e32565b50610bfa61261b565b610e7e6128ec565b610e86612946565b610e8e612999565b565b610bfa83838360405180602001604052806000815250611c6c565b600054610100900460ff1615808015610ecb5750600054600160ff909116105b80610ee55750303b158015610ee5575060005460ff166001145b610f575760405162461bcd60e51b815260206004820152602e60248201527f496e697469616c697a61626c653a20636f6e747261637420697320616c72656160448201527f647920696e697469616c697a65640000000000000000000000000000000000006064820152608401610b59565b6000805460ff191660011790558015610f7a576000805461ff0019166101001790555b610f826129e7565b610ff66040518060400160405280600b81526020017f5374616b656420494e54580000000000000000000000000000000000000000008152506040518060400160405280600581526020017f58494e5458000000000000000000000000000000000000000000000000000000815250612a5a565b610ffe612acf565b611006612b42565b6001600160a01b03831661105c5760405162461bcd60e51b815260206004820152601460248201527f43616e27742075736520307820616464726573730000000000000000000000006044820152606401610b59565b6001600160a01b0382166110b25760405162461bcd60e51b815260206004820152601460248201527f43616e27742075736520307820616464726573730000000000000000000000006044820152606401610b59565b61016a80546001600160a01b0380861673ffffffffffffffffffffffffffffffffffffffff199283161790925561016b8054928516929091169190911790556293a800610161556722b1c8c1227a0000610162556703782dace9d9000061016355662386f26fc1000061016455611127612bb5565b8015610bfa576000805461ff0019169055604051600181527f7f26b83ff96e1f2b6a682f133852f6798a09c465da95921460cefb38474024989060200160405180910390a1505050565b60006060828067ffffffffffffffff81111561118f5761118f614c6e565b6040519080825280602002602001820160405280156111b8578160200160208202803683370190505b50915060005b818110156112285760006111e98787848181106111dd576111dd614e0f565b90506020020135611231565b90506111f58186614dfc565b94508084838151811061120a5761120a614e0f565b6020908102919091010152508061122081614e25565b9150506111be565b50509250929050565b600081815261016e602090815260408083205461017083528184205461016f909352908320549091906ec097ce7bc90715b34b9f100000000090611273610c86565b61127d9190614db0565b6112879084614dc3565b6112919190614dda565b61129b9190614dfc565b9392505050565b6113086040518061016001604052806000815260200160006001600160a01b031681526020016000815260200160008152602001600081526020016000815260200160008152602001600081526020016000815260200160008152602001600081525090565b610a0a82612bf3565b60008061131d83612d58565b9050600061132a84612d86565b9050811561135257670de0b6b3a76400006113458284614dc3565b61134f9190614dda565b92505b5050919050565b611361612e2f565b6113696128ec565b6113736000612826565b61138c3361016b546001600160a01b0316903084612e88565b6101665442106113ac576113a362093a8082614dda565b610167556113f1565b600042610166546113bd9190614db0565b9050600061016754826113d09190614dc3565b905062093a806113e08285614dfc565b6113ea9190614dda565b6101675550505b61016b546040517f70a082310000000000000000000000000000000000000000000000000000000081523060048201526000916001600160a01b0316906370a0823190602401602060405180830381865afa158015611454573d6000803e3d6000fd5b505050506040513d601f19601f820116820180604052508101906114789190614e3f565b905061148762093a8082614dda565b6101675411156114d95760405162461bcd60e51b815260206004820152601860248201527f50726f76696465642072657761726420746f6f206869676800000000000000006044820152606401610b59565b426101658190556114ee9062093a8090614dfc565b610166556040518281527fde88a922e0d3b88b24e9623efeb464919c6bf9f66857a65e2bfcf2ce87a9433d9060200160405180910390a161152d61261b565b5061153760018055565b50565b6000818152609960205260408120546001600160a01b031680610a0a5760405162461bcd60e51b815260206004820152601860248201527f4552433732313a20696e76616c696420746f6b656e20494400000000000000006044820152606401610b59565b6000818152609960205260408120546001600160a01b031615610de357610a0a82612f3f565b60606115d084611c27565b156116435760405162461bcd60e51b815260206004820152603a60248201527f5468697320746f6b656e20697320726573747269637465642c20796f7520636160448201527f6e277420756e7374616b652f7472616e736665722f73706c69740000000000006064820152608401610b59565b61168084848480806020026020016040519081016040528093929190818152602001838360200280828437600092019190915250612fdc92505050565b905061129b61261b565b33600090815261017160205260408120548291908190815b84811015611808578686828181106116bc576116bc614e0f565b9050602002013593506116e6846000908152609960205260409020546001600160a01b0316151590565b6117325760405162461bcd60e51b815260206004820152601c60248201527f5468697320706f736974696f6e20646f65736e27742065786973742e000000006044820152606401610b59565b6000848152609960205260409020546001600160a01b031692503383146117c15760405162461bcd60e51b815260206004820152602760248201527f596f7520617265206e6f7420746865206f776e6572206f66207468697320706f60448201527f736974696f6e2e000000000000000000000000000000000000000000000000006064820152608401610b59565b6117ca84612826565b600084815261017060205260409020546117e49083614dfc565b6000858152610170602052604081205591508061180081614e25565b9150506116a2565b50336000818152610171602052604081205561016b54611834916001600160a01b039091169083613530565b8585604051611844929190614e58565b6040518091039020826001600160a01b03167f916f43dce61aa4c4d8761c25ddcacfe178ea96a18f68d2775354bbc06be75aaa8360405161188791815260200190565b60405180910390a361189761261b565b505050505050565b60006001600160a01b03821661191d5760405162461bcd60e51b815260206004820152602960248201527f4552433732313a2061646472657373207a65726f206973206e6f74206120766160448201527f6c6964206f776e657200000000000000000000000000000000000000000000006064820152608401610b59565b506001600160a01b03166000908152609a602052604090205490565b610e8e6128ec565b61194a81611c27565b156119e35760405162461bcd60e51b815260206004820152605260248201527f5468697320746f6b656e20697320726573747269637465642c20796f7520636160448201527f6e27742061646420696e747820746f2069742c206372656174652061206e657760648201527f20706f736974696f6e20696e73746561642e0000000000000000000000000000608482015260a401610b59565b60006119f033338561266d565b90506119fc8183613579565b610bfa61261b565b60fb5433906001600160a01b03168114611a865760405162461bcd60e51b815260206004820152602960248201527f4f776e61626c6532537465703a2063616c6c6572206973206e6f74207468652060448201527f6e6577206f776e657200000000000000000000000000000000000000000000006064820152608401610b59565b611537816139ca565b6000611a9e42610166546139f0565b905090565b6060818067ffffffffffffffff811115611abf57611abf614c6e565b604051908082528060200260200182016040528015611b5657816020015b611b436040518061016001604052806000815260200160006001600160a01b031681526020016000815260200160008152602001600081526020016000815260200160008152602001600081526020016000815260200160008152602001600081525090565b815260200190600190039081611add5790505b50915060005b81811015611bb557611b85858583818110611b7957611b79614e0f565b90506020020135612bf3565b838281518110611b9757611b97614e0f565b60200260200101819052508080611bad90614e25565b915050611b5c565b505092915050565b606060988054610a1f90614d60565b6000818152609960205260408120546001600160a01b031615610de357610a0a82612d86565b6000818152609960205260408120546001600160a01b031615610de357610a0a82612d58565b611c23338383613a06565b5050565b6000818152610172602052604081205460ff16600103610de3576368383020421015610de357506001919050565b6000611a9e613ad4565b6000610dd933338461266d565b611c76338361223c565b611ce85760405162461bcd60e51b815260206004820152602d60248201527f4552433732313a2063616c6c6572206973206e6f7420746f6b656e206f776e6560448201527f72206f7220617070726f766564000000000000000000000000000000000000006064820152608401610b59565b611cf484848484613b17565b50505050565b611d026128ec565b610173805473ffffffffffffffffffffffffffffffffffffffff19166001600160a01b0392909216919091179055565b6060611d3d8261215d565b6000611d5460408051602081019091526000815290565b90506000815111611d74576040518060200160405280600081525061129b565b80611d7e84613ba0565b604051602001611d8f929190614e9a565b6040516020818303038152906040529392505050565b600081815261017260205260408082205484835291205460ff908116911614611e365760405162461bcd60e51b815260206004820152602c60248201527f596f752063616e2774206d6572676520746f6b656e732077697468206469666660448201527f6572656e742074797065732e00000000000000000000000000000000000000006064820152608401610b59565b611e408282613579565b611c2361261b565b600080611e5483612d58565b90506000611e6184612d86565b9050811561135257670de0b6b3a7640000611e7c8284614dc3565b611e869190614dda565b61134f9083614db0565b600080611e9c84611c27565b15611f0f5760405162461bcd60e51b815260206004820152603a60248201527f5468697320746f6b656e20697320726573747269637465642c20796f7520636160448201527f6e277420756e7374616b652f7472616e736665722f73706c69740000000000006064820152608401610b59565b600084815261016d6020526040902054838111611f945760405162461bcd60e51b815260206004820152602e60248201527f596f752063616e2774207061727469616c6c79207769746864726177206d6f7260448201527f65207468616e20796f75206f776e0000000000000000000000000000000000006064820152608401610b59565b6040805160028082526060820183526000926020830190803683370190505090508481600081518110611fc957611fc9614e0f565b6020908102919091010152611fde8583614db0565b81600181518110611ff157611ff1614e0f565b60200260200101818152505060006120098783612fdc565b905061202e8160008151811061202157612021614e0f565b602002602001015161234c565b94508060018151811061204357612043614e0f565b6020026020010151935061205561261b565b5050509250929050565b6120676128ec565b60fb80546001600160a01b03831673ffffffffffffffffffffffffffffffffffffffff1990911681179091556120a560c9546001600160a01b031690565b6001600160a01b03167f38d16b8cac22d99fc7c124b9cd0de2d3fa1faef420bfe791d8c362d765e2270060405160405180910390a350565b6120e76000612826565b60006120f1613ad4565b905061210c3361016a546001600160a01b0316903085612e88565b7fd6f85071f759d68953f2d6e2c919755921656cd303fba98e49af3074585bd7518282612137613ad4565b6040805193845260208401929092529082015260600160405180910390a1611c2361261b565b6000818152609960205260409020546001600160a01b03166115375760405162461bcd60e51b815260206004820152601860248201527f4552433732313a20696e76616c696420746f6b656e20494400000000000000006044820152606401610b59565b6000818152609b60205260409020805473ffffffffffffffffffffffffffffffffffffffff19166001600160a01b03841690811790915581906122038261153a565b6001600160a01b03167f8c5be1e5ebec7d5bd14f71427d1e84f3dd0314c0f7b2291e5b200ac8c7c3b92560405160405180910390a45050565b6000806122488361153a565b9050806001600160a01b0316846001600160a01b0316148061228f57506001600160a01b038082166000908152609c602090815260408083209388168352929052205460ff165b806122b35750836001600160a01b03166122a884610aa2565b6001600160a01b0316145b949350505050565b6122c3613c40565b6122cc81611c27565b15612341576040805162461bcd60e51b81526020600482015260248101919091527f5468697320746f6b656e20697320726573747269637465642c20796f7520636160448201527f6e277420756e7374616b652f7472616e736665722f6d657267652f73706c69746064820152608401610b59565b610bfa838383613c94565b6000612356612e2f565b61235e613c40565b6000828152609960205260409020546001600160a01b03166123c25760405162461bcd60e51b815260206004820152601c60248201527f5468697320706f736974696f6e20646f65736e27742065786973742e000000006044820152606401610b59565b6000828152609960205260409020546001600160a01b03163381146124295760405162461bcd60e51b815260206004820152601360248201527f4e6f7420796f75722078494e5458204e46542e000000000000000000000000006044820152606401610b59565b61243283612826565b600083815261016d602052604081205490670de0b6b3a764000061245586612f3f565b61245f9084614dc3565b6124699190614dda565b90506000612475613ad4565b90506000670de0b6b3a764000061248c8386614dc3565b6124969190614dda565b90506000670de0b6b3a76400006124ac89612d86565b6124b69084614dc3565b6124c09190614dda565b90506124cc8183614db0565b600089815261017060205260409020549097501561252257600088815261017060209081526040808320546001600160a01b038a168452610171909252822080549192909161251c908490614dfc565b90915550505b600088815261016c6020908152604080832083905561016d825280832083905561016e825280832083905561016f825280832083905561017090915281205561256a88613eca565b84610160600082825461257d9190614db0565b925050819055508361016960008282546125979190614db0565b909155505061016a546125b4906001600160a01b03168789613530565b6101605460408051878152602081018a905280820184905260608101929092525189916001600160a01b038916917f44bd20a79e993bdcc7cbedf54a3b4d19fb78490124b6b90d04fe3242eea579e89181900360800190a3505050505050610de360018055565b7f107ded4700c40c119c1250039eb39b50e8a49f47e8de2028d5efe1d7bc5b4ebd612644613f6c565b6101605461016954604080519384526020840192909252908201526060015b60405180910390a1565b6000612677612e2f565b600082116126c75760405162461bcd60e51b815260206004820152601360248201527f43616e2774207374616b65203020696e74582e000000000000000000000000006044820152606401610b59565b60006126d1613ad4565b61016a549091506126ed906001600160a01b0316863086612e88565b61015f80549060006126fe83614e25565b91905055506127108461015f54613ff3565b61271c61015f54612826565b600081612731670de0b6b3a764000086614dc3565b61273b9190614dda565b61015f8054600090815261016c602090815260408083204290559254825261016d90529081208290556101608054929350839290919061277c908490614dfc565b925050819055508061016960008282546127969190614dfc565b909155505061015f8054600090815261016e6020908152604091829020849055915461016054610169548351868152948501899052928401526060830191909152906001600160a01b0380881691908916907f52c6b7a228763dc832bef1e2dee48707b24b8f1400a6335b3af6d5def4f5bb219060800160405180910390a461015f549250505061129b60018055565b61282e610c86565b6101685561283a611a8f565b6101655580156115375761284d81611231565b60008281526101706020526040812091909155670de0b6b3a764000061287283612f3f565b600084815261016d602052604090205461288c9190614dc3565b6128969190614dda565b600083815261016e60205260409020546101695491925082916128b99190614db0565b6128c39190614dfc565b61016955600091825261016e60209081526040808420929092556101685461016f909152912055565b60c9546001600160a01b03163314610e8e5760405162461bcd60e51b815260206004820181905260248201527f4f776e61626c653a2063616c6c6572206973206e6f7420746865206f776e65726044820152606401610b59565b61012d5460ff16610e8e5760405162461bcd60e51b815260206004820152601460248201527f5061757361626c653a206e6f74207061757365640000000000000000000000006044820152606401610b59565b6129a1612946565b61012d805460ff191690557f5db9ee0a495bf2e6ff9c91a7834c1ba4fdd244a5e8aa4e537bd38aeae4b073aa335b6040516001600160a01b039091168152602001612663565b600054610100900460ff16612a525760405162461bcd60e51b815260206004820152602b60248201527f496e697469616c697a61626c653a20636f6e7472616374206973206e6f74206960448201526a6e697469616c697a696e6760a81b6064820152608401610b59565b610e8e61418b565b600054610100900460ff16612ac55760405162461bcd60e51b815260206004820152602b60248201527f496e697469616c697a61626c653a20636f6e7472616374206973206e6f74206960448201526a6e697469616c697a696e6760a81b6064820152608401610b59565b611c2382826141f6565b600054610100900460ff16612b3a5760405162461bcd60e51b815260206004820152602b60248201527f496e697469616c697a61626c653a20636f6e7472616374206973206e6f74206960448201526a6e697469616c697a696e6760a81b6064820152608401610b59565b610e8e61427a565b600054610100900460ff16612bad5760405162461bcd60e51b815260206004820152602b60248201527f496e697469616c697a61626c653a20636f6e7472616374206973206e6f74206960448201526a6e697469616c697a696e6760a81b6064820152608401610b59565b610e8e6142ee565b612bbd613c40565b61012d805460ff191660011790557f62e78cea01bee320cd4e420270b5ea74000d11b0c9f74754ebdbfc544b05a2586129cf3390565b612c596040518061016001604052806000815260200160006001600160a01b031681526020016000815260200160008152602001600081526020016000815260200160008152602001600081526020016000815260200160008152602001600081525090565b6000612c6483612d58565b90506000612c7184612d86565b8484526000858152609960209081526040808320546001600160a01b03168288015287835261016d909152908190205490850152606084018390529050670de0b6b3a7640000612cc18284614dc3565b612ccb9190614dda565b612cd59083614db0565b6080840152600084815261016c602052604090205460a0840152612cf884612f3f565b60c084015260e08301819052670de0b6b3a7640000612d178284614dc3565b612d219190614dda565b61010084015250506000828152610170602090815260408083205461012085015293825261016e9052919091205461014082015290565b600081815261016d602052604081205481612d71613ad4565b9050670de0b6b3a76400006113458284614dc3565b600081815261016c6020526040812054808203612da65750600092915050565b6000612db28242614db0565b905061016154811115612dc55750610161545b670de0b6b3a76400006101635461016154670de0b6b3a764000084612dea9190614dc3565b612df49190614dda565b612dfe9190614dc3565b612e089190614dda565b61016354612e169190614db0565b9250610164548310156113525750506101645492915050565b600260015403612e815760405162461bcd60e51b815260206004820152601f60248201527f5265656e7472616e637947756172643a207265656e7472616e742063616c6c006044820152606401610b59565b6002600155565b6040516001600160a01b0380851660248301528316604482015260648101829052611cf49085907f23b872dd00000000000000000000000000000000000000000000000000000000906084015b60408051601f198184030181529190526020810180517bffffffffffffffffffffffffffffffffffffffffffffffffffffffff167fffffffff0000000000000000000000000000000000000000000000000000000090931692909217909152614366565b60018055565b600081815261016c6020526040812054808203612f5f5750600092915050565b6000612f6b8242614db0565b905061016154811115612f7e5750610161545b670de0b6b3a76400008061016254612f969190614db0565b61016154612fac670de0b6b3a764000085614dc3565b612fb69190614dda565b612fc09190614dc3565b612fca9190614dda565b61134f90670de0b6b3a7640000614dfc565b6060612fe6612e2f565b6000838152609960205260409020546001600160a01b031661304a5760405162461bcd60e51b815260206004820152601c60248201527f5468697320706f736974696f6e20646f65736e27742065786973742e000000006044820152606401610b59565b6000838152609960205260409020546001600160a01b03163381146130b15760405162461bcd60e51b815260206004820152601360248201527f4e6f7420796f75722078494e5458204e46542e000000000000000000000000006044820152606401610b59565b8251600181116131295760405162461bcd60e51b815260206004820152602c60248201527f596f752063616e27742073706c697420746869732058494e5458206c6573732060448201527f7468616e20322074696d657300000000000000000000000000000000000000006064820152608401610b59565b600a8111156131a05760405162461bcd60e51b815260206004820152602d60248201527f596f752063616e27742073706c697420746869732058494e5458206d6f72652060448201527f7468616e2031302074696d6573000000000000000000000000000000000000006064820152608401610b59565b8067ffffffffffffffff8111156131b9576131b9614c6e565b6040519080825280602002602001820160405280156131e2578160200160208202803683370190505b5092506131ee85612826565b600085815261016d602090815260408083205461016c83528184205461016f909352908320546101608054929392849190869061322c908490614db0565b9091555050600089815261016e6020526040812054610169805491929091613255908490614db0565b90915550600090505b8581101561329f5788818151811061327857613278614e0f565b60200260200101518561328b9190614dfc565b94508061329781614e25565b91505061325e565b5060005b8581101561348557600085858b84815181106132c1576132c1614e0f565b60200260200101516132d39190614dc3565b6132dd9190614dda565b90506000811161332f5760405162461bcd60e51b815260206004820152601460248201527f43616e27742073706c697420302078494e54582e0000000000000000000000006044820152606401610b59565b61015f805490600061334083614e25565b91905055506133528861015f54613ff3565b61015f5489838151811061336857613368614e0f565b60209081029190910181019190915261015f8054600090815261016c835260408082208890558254825261016d90935291822083905554670de0b6b3a7640000906133b290612f3f565b6133bc9084614dc3565b6133c69190614dda565b61015f8054600090815261016e602090815260408083208590559254825261016f905290812086905561016080549293508492909190613407908490614dfc565b925050819055508061016960008282546134219190614dfc565b909155505061015f5460408051918252602082018490528d916001600160a01b038c16917ff66885c33d648fcd0d97e0f2a18e30102169c22763473af0fb716f11b4a17dd6910160405180910390a35050808061347d90614e25565b9150506132a3565b5060008981526101706020526040902054156134d957600089815261017060209081526040808320546001600160a01b038a16845261017190925282208054919290916134d3908490614dfc565b90915550505b600089815261016c6020908152604080832083905561016d825280832083905561016e825280832083905561016f825280832083905561017090915281205561352189613eca565b505050505050610a0a60018055565b6040516001600160a01b038316602482015260448101829052610bfa9084907fa9059cbb0000000000000000000000000000000000000000000000000000000090606401612ed5565b613581612e2f565b6000828152609960205260409020546001600160a01b03166135e55760405162461bcd60e51b815260206004820152601c60248201527f5468697320706f736974696f6e20646f65736e27742065786973742e000000006044820152606401610b59565b6000818152609960205260409020546001600160a01b03166136495760405162461bcd60e51b815260206004820152601c60248201527f5468697320706f736974696f6e20646f65736e27742065786973742e000000006044820152606401610b59565b6000828152609960205260409020546001600160a01b03163381146136b05760405162461bcd60e51b815260206004820152601e60248201527f46726f6d204e46542069736e277420796f75722078494e5458204e46542e00006044820152606401610b59565b6000828152609960205260409020546001600160a01b038281169116146137195760405162461bcd60e51b815260206004820152601760248201527f546f204e46542069736e27742078494e5458204e46542e0000000000000000006044820152606401610b59565b61372283612826565b61372b82612826565b600083815261016d602090815260408083205461016c9092528220549091906137549042614db0565b9050610161548111156137675750610161545b600084815261016d602090815260408083205461016c9092528220549091906137909042614db0565b9050610161548111156137a35750610161545b60006137af8386614dfc565b9050600081116138275760405162461bcd60e51b815260206004820152602360248201527f43616e2774206d616b65206120706f736974696f6e207769746820302078494e60448201527f54582e00000000000000000000000000000000000000000000000000000000006064820152608401610b59565b6000816138348585614dc3565b61383e9190614dda565b826138498888614dc3565b6138539190614dda565b61385d9190614dfc565b600089815261016d60205260409020839055905061387b8142614db0565b600089815261016c6020526040812091909155670de0b6b3a76400006138a08a612f3f565b6138aa9085614dc3565b6138b49190614dda565b60008a815261016e602090815260408083208490558d83526101709091529020549091501561391b5760008a815261017060209081526040808320546001600160a01b038c1684526101719092528220805491929091613915908490614dfc565b90915550505b60008a815261016c6020908152604080832083905561016d825280832083905561016e825280832083905561016f82528083208390556101709091528120556139638a613eca565b896001600160a01b0389167f50d7f0ef4f7b59921566f6b835fb032efa0fd0dacccb9361292f89b7aa6bafdd8b8661399b8742614db0565b6040805193845260208401929092529082015260600160405180910390a35050505050505050611c2360018055565b60fb805473ffffffffffffffffffffffffffffffffffffffff191690556115378161444e565b60008183106139ff578161129b565b5090919050565b816001600160a01b0316836001600160a01b031603613a675760405162461bcd60e51b815260206004820152601960248201527f4552433732313a20617070726f766520746f2063616c6c6572000000000000006044820152606401610b59565b6001600160a01b038381166000818152609c6020908152604080832094871680845294825291829020805460ff191686151590811790915591519182527f17307eab39ab6107e8899845ad3d59bd9653f200f220920489ca2b5937696c31910160405180910390a3505050565b600061016054600003613aee5750670de0b6b3a764000090565b61016054670de0b6b3a7640000613b03613f6c565b613b0d9190614dc3565b611a9e9190614dda565b613b228484846122bb565b613b2e848484846144ad565b611cf45760405162461bcd60e51b815260206004820152603260248201527f4552433732313a207472616e7366657220746f206e6f6e20455243373231526560448201527f63656976657220696d706c656d656e74657200000000000000000000000000006064820152608401610b59565b60606000613bad8361464e565b600101905060008167ffffffffffffffff811115613bcd57613bcd614c6e565b6040519080825280601f01601f191660200182016040528015613bf7576020820181803683370190505b5090508181016020015b600019017f3031323334353637383961626364656600000000000000000000000000000000600a86061a8153600a8504945084613c0157509392505050565b61012d5460ff1615610e8e5760405162461bcd60e51b815260206004820152601060248201527f5061757361626c653a20706175736564000000000000000000000000000000006044820152606401610b59565b826001600160a01b0316613ca78261153a565b6001600160a01b031614613d235760405162461bcd60e51b815260206004820152602560248201527f4552433732313a207472616e736665722066726f6d20696e636f72726563742060448201527f6f776e65720000000000000000000000000000000000000000000000000000006064820152608401610b59565b6001600160a01b038216613d9e5760405162461bcd60e51b8152602060048201526024808201527f4552433732313a207472616e7366657220746f20746865207a65726f2061646460448201527f72657373000000000000000000000000000000000000000000000000000000006064820152608401610b59565b826001600160a01b0316613db18261153a565b6001600160a01b031614613e2d5760405162461bcd60e51b815260206004820152602560248201527f4552433732313a207472616e736665722066726f6d20696e636f72726563742060448201527f6f776e65720000000000000000000000000000000000000000000000000000006064820152608401610b59565b6000818152609b60209081526040808320805473ffffffffffffffffffffffffffffffffffffffff199081169091556001600160a01b03878116808652609a8552838620805460001901905590871680865283862080546001019055868652609990945282852080549092168417909155905184937fddf252ad1be2c89b69c2b068fc378daa952ba7f163c4a11628f55a4df523b3ef91a4505050565b6000613ed58261153a565b9050613ee08261153a565b6000838152609b60209081526040808320805473ffffffffffffffffffffffffffffffffffffffff199081169091556001600160a01b038516808552609a845282852080546000190190558785526099909352818420805490911690555192935084927fddf252ad1be2c89b69c2b068fc378daa952ba7f163c4a11628f55a4df523b3ef908390a45050565b61016a546040517f70a082310000000000000000000000000000000000000000000000000000000081523060048201526000916001600160a01b0316906370a0823190602401602060405180830381865afa158015613fcf573d6000803e3d6000fd5b505050506040513d601f19601f82011682018060405250810190611a9e9190614e3f565b6001600160a01b0382166140495760405162461bcd60e51b815260206004820181905260248201527f4552433732313a206d696e7420746f20746865207a65726f20616464726573736044820152606401610b59565b6000818152609960205260409020546001600160a01b0316156140ae5760405162461bcd60e51b815260206004820152601c60248201527f4552433732313a20746f6b656e20616c7265616479206d696e746564000000006044820152606401610b59565b6000818152609960205260409020546001600160a01b0316156141135760405162461bcd60e51b815260206004820152601c60248201527f4552433732313a20746f6b656e20616c7265616479206d696e746564000000006044820152606401610b59565b6001600160a01b0382166000818152609a60209081526040808320805460010190558483526099909152808220805473ffffffffffffffffffffffffffffffffffffffff19168417905551839291907fddf252ad1be2c89b69c2b068fc378daa952ba7f163c4a11628f55a4df523b3ef908290a45050565b600054610100900460ff16612f395760405162461bcd60e51b815260206004820152602b60248201527f496e697469616c697a61626c653a20636f6e7472616374206973206e6f74206960448201526a6e697469616c697a696e6760a81b6064820152608401610b59565b600054610100900460ff166142615760405162461bcd60e51b815260206004820152602b60248201527f496e697469616c697a61626c653a20636f6e7472616374206973206e6f74206960448201526a6e697469616c697a696e6760a81b6064820152608401610b59565b609761426d8382614f0f565b506098610bfa8282614f0f565b600054610100900460ff166142e55760405162461bcd60e51b815260206004820152602b60248201527f496e697469616c697a61626c653a20636f6e7472616374206973206e6f74206960448201526a6e697469616c697a696e6760a81b6064820152608401610b59565b610e8e336139ca565b600054610100900460ff166143595760405162461bcd60e51b815260206004820152602b60248201527f496e697469616c697a61626c653a20636f6e7472616374206973206e6f74206960448201526a6e697469616c697a696e6760a81b6064820152608401610b59565b61012d805460ff19169055565b60006143bb826040518060400160405280602081526020017f5361666545524332303a206c6f772d6c6576656c2063616c6c206661696c6564815250856001600160a01b03166147309092919063ffffffff16565b90508051600014806143dc5750808060200190518101906143dc9190614fcf565b610bfa5760405162461bcd60e51b815260206004820152602a60248201527f5361666545524332303a204552433230206f7065726174696f6e20646964206e60448201527f6f742073756363656564000000000000000000000000000000000000000000006064820152608401610b59565b60c980546001600160a01b0383811673ffffffffffffffffffffffffffffffffffffffff19831681179093556040519116919082907f8be0079c531659141344cd1fd0a4f28419497f9722a3daafe3b4186f6b6457e090600090a35050565b60006001600160a01b0384163b15614643576040517f150b7a020000000000000000000000000000000000000000000000000000000081526001600160a01b0385169063150b7a029061450a903390899088908890600401614fec565b6020604051808303816000875af1925050508015614545575060408051601f3d908101601f1916820190925261454291810190615028565b60015b6145f8573d808015614573576040519150601f19603f3d011682016040523d82523d6000602084013e614578565b606091505b5080516000036145f05760405162461bcd60e51b815260206004820152603260248201527f4552433732313a207472616e7366657220746f206e6f6e20455243373231526560448201527f63656976657220696d706c656d656e74657200000000000000000000000000006064820152608401610b59565b805181602001fd5b7fffffffff00000000000000000000000000000000000000000000000000000000167f150b7a02000000000000000000000000000000000000000000000000000000001490506122b3565b506001949350505050565b6000807a184f03e93ff9f4daa797ed6e38ed64bf6a1f0100000000000000008310614697577a184f03e93ff9f4daa797ed6e38ed64bf6a1f010000000000000000830492506040015b6d04ee2d6d415b85acef810000000083106146c3576d04ee2d6d415b85acef8100000000830492506020015b662386f26fc1000083106146e157662386f26fc10000830492506010015b6305f5e10083106146f9576305f5e100830492506008015b612710831061470d57612710830492506004015b6064831061471f576064830492506002015b600a8310610a0a5760010192915050565b60606122b3848460008585600080866001600160a01b031685876040516147579190615045565b60006040518083038185875af1925050503d8060008114614794576040519150601f19603f3d011682016040523d82523d6000602084013e614799565b606091505b50915091506147aa878383876147b5565b979650505050505050565b6060831561482457825160000361481d576001600160a01b0385163b61481d5760405162461bcd60e51b815260206004820152601d60248201527f416464726573733a2063616c6c20746f206e6f6e2d636f6e74726163740000006044820152606401610b59565b50816122b3565b6122b383838151156148395781518083602001fd5b8060405162461bcd60e51b8152600401610b5991906148ee565b7fffffffff000000000000000000000000000000000000000000000000000000008116811461153757600080fd5b60006020828403121561489357600080fd5b813561129b81614853565b60005b838110156148b95781810151838201526020016148a1565b50506000910152565b600081518084526148da81602086016020860161489e565b601f01601f19169290920160200192915050565b60208152600061129b60208301846148c2565b60006020828403121561491357600080fd5b5035919050565b80356001600160a01b0381168114610de357600080fd5b6000806040838503121561494457600080fd5b61494d8361491a565b946020939093013593505050565b60008060006060848603121561497057600080fd5b6149798461491a565b92506149876020850161491a565b9150604084013590509250925092565b60008083601f8401126149a957600080fd5b50813567ffffffffffffffff8111156149c157600080fd5b6020830191508360208260051b85010111156149dc57600080fd5b9250929050565b600080602083850312156149f657600080fd5b823567ffffffffffffffff811115614a0d57600080fd5b614a1985828601614997565b90969095509350505050565b600060208284031215614a3757600080fd5b61129b8261491a565b60008060408385031215614a5357600080fd5b614a5c8361491a565b9150614a6a6020840161491a565b90509250929050565b600081518084526020808501945080840160005b83811015614aa357815187529582019590820190600101614a87565b509495945050505050565b8281526040602082015260006122b36040830184614a73565b805182526020810151614ae560208401826001600160a01b03169052565b5060408101516040830152606081015160608301526080810151608083015260a081015160a083015260c081015160c083015260e081015160e08301526101008082015181840152506101208082015181840152506101408082015181840152505050565b6101608101610a0a8284614ac7565b600080600060408486031215614b6e57600080fd5b83359250602084013567ffffffffffffffff811115614b8c57600080fd5b614b9886828701614997565b9497909650939450505050565b60208152600061129b6020830184614a73565b60008060408385031215614bcb57600080fd5b50508035926020909101359150565b6020808252825182820181905260009190848201906040850190845b81811015614c1d57614c09838551614ac7565b928401926101609290920191600101614bf6565b50909695505050505050565b801515811461153757600080fd5b60008060408385031215614c4a57600080fd5b614c538361491a565b91506020830135614c6381614c29565b809150509250929050565b634e487b7160e01b600052604160045260246000fd5b60008060008060808587031215614c9a57600080fd5b614ca38561491a565b9350614cb16020860161491a565b925060408501359150606085013567ffffffffffffffff80821115614cd557600080fd5b818701915087601f830112614ce957600080fd5b813581811115614cfb57614cfb614c6e565b604051601f8201601f19908116603f01168101908382118183101715614d2357614d23614c6e565b816040528281528a6020848701011115614d3c57600080fd5b82602086016020830137600060208483010152809550505050505092959194509250565b600181811c90821680614d7457607f821691505b602082108103614d9457634e487b7160e01b600052602260045260246000fd5b50919050565b634e487b7160e01b600052601160045260246000fd5b81810381811115610a0a57610a0a614d9a565b8082028115828204841417610a0a57610a0a614d9a565b600082614df757634e487b7160e01b600052601260045260246000fd5b500490565b80820180821115610a0a57610a0a614d9a565b634e487b7160e01b600052603260045260246000fd5b60006000198203614e3857614e38614d9a565b5060010190565b600060208284031215614e5157600080fd5b5051919050565b60007f07ffffffffffffffffffffffffffffffffffffffffffffffffffffffffffffff831115614e8757600080fd5b8260051b80858437919091019392505050565b60008351614eac81846020880161489e565b835190830190614ec081836020880161489e565b01949350505050565b601f821115610bfa57600081815260208120601f850160051c81016020861015614ef05750805b601f850160051c820191505b8181101561189757828155600101614efc565b815167ffffffffffffffff811115614f2957614f29614c6e565b614f3d81614f378454614d60565b84614ec9565b602080601f831160018114614f725760008415614f5a5750858301515b600019600386901b1c1916600185901b178555611897565b600085815260208120601f198616915b82811015614fa157888601518255948401946001909101908401614f82565b5085821015614fbf5787850151600019600388901b60f8161c191681555b5050505050600190811b01905550565b600060208284031215614fe157600080fd5b815161129b81614c29565b60006001600160a01b0380871683528086166020840152508360408301526080606083015261501e60808301846148c2565b9695505050505050565b60006020828403121561503a57600080fd5b815161129b81614853565b6000825161505781846020870161489e565b919091019291505056fea26469706673582212209a1c5f5c19d7ba373989c1f202587f518b4889cf86c6fd746d309fce1fef9f8764736f6c63430008120033",
  "linkReferences": {},
  "deployedLinkReferences": {}
}