{
  "_format": "hh-sol-artifact-1",
  "contractName": "StakedINTX",
  "sourceName": "contracts/StakedINTX.sol",
  "abi": [
    {
      "inputs": [],
      "stateMutability": "nonpayable",
      "type": "constructor"
    },
    {
      "anonymous": false,
      "inputs": [
        {
          "indexed": true,
          "internalType": "address",
          "name": "owner",
          "type": "address"
        },
        {
          "indexed": true,
          "internalType": "address",
          "name": "approved",
          "type": "address"
        },
        {
          "indexed": true,
          "internalType": "uint256",
          "name": "tokenId",
          "type": "uint256"
        }
      ],
      "name": "Approval",
      "type": "event"
    },
    {
      "anonymous": false,
      "inputs": [
        {
          "indexed": true,
          "internalType": "address",
          "name": "owner",
          "type": "address"
        },
        {
          "indexed": true,
          "internalType": "address",
          "name": "operator",
          "type": "address"
        },
        {
          "indexed": false,
          "internalType": "bool",
          "name": "approved",
          "type": "bool"
        }
      ],
      "name": "ApprovalForAll",
      "type": "event"
    },
    {
      "anonymous": false,
      "inputs": [
        {
          "indexed": true,
          "internalType": "address",
          "name": "owner",
          "type": "address"
        },
        {
          "indexed": true,
          "internalType": "uint256",
          "name": "tokenId",
          "type": "uint256"
        },
        {
          "indexed": false,
          "internalType": "uint256",
          "name": "amountBurned",
          "type": "uint256"
        },
        {
          "indexed": false,
          "internalType": "uint256",
          "name": "amountIntxOut",
          "type": "uint256"
        },
        {
          "indexed": false,
          "internalType": "uint256",
          "name": "amountIntxPenalized",
          "type": "uint256"
        },
        {
          "indexed": false,
          "internalType": "uint256",
          "name": "totalXINTXNew",
          "type": "uint256"
        }
      ],
      "name": "Burn",
      "type": "event"
    },
    {
      "anonymous": false,
      "inputs": [
        {
          "indexed": true,
          "internalType": "address",
          "name": "owner",
          "type": "address"
        },
        {
          "indexed": false,
          "internalType": "uint256",
          "name": "amountOut",
          "type": "uint256"
        },
        {
          "indexed": true,
          "internalType": "uint256[]",
          "name": "tokenIds",
          "type": "uint256[]"
        }
      ],
      "name": "Claim",
      "type": "event"
    },
    {
      "anonymous": false,
      "inputs": [
        {
          "indexed": false,
          "internalType": "uint8",
          "name": "version",
          "type": "uint8"
        }
      ],
      "name": "Initialized",
      "type": "event"
    },
    {
      "anonymous": false,
      "inputs": [
        {
          "indexed": true,
          "internalType": "address",
          "name": "owner",
          "type": "address"
        },
        {
          "indexed": true,
          "internalType": "uint256",
          "name": "tokenIdFrom",
          "type": "uint256"
        },
        {
          "indexed": false,
          "internalType": "uint256",
          "name": "tokenIdTo",
          "type": "uint256"
        },
        {
          "indexed": false,
          "internalType": "uint256",
          "name": "newBalance",
          "type": "uint256"
        },
        {
          "indexed": false,
          "internalType": "uint256",
          "name": "newLoyalSince",
          "type": "uint256"
        }
      ],
      "name": "Merge",
      "type": "event"
    },
    {
      "anonymous": false,
      "inputs": [
        {
          "indexed": true,
          "internalType": "address",
          "name": "from",
          "type": "address"
        },
        {
          "indexed": true,
          "internalType": "address",
          "name": "to",
          "type": "address"
        },
        {
          "indexed": true,
          "internalType": "uint256",
          "name": "tokenId",
          "type": "uint256"
        },
        {
          "indexed": false,
          "internalType": "uint256",
          "name": "amountMinted",
          "type": "uint256"
        },
        {
          "indexed": false,
          "internalType": "uint256",
          "name": "amountIntxIn",
          "type": "uint256"
        },
        {
          "indexed": false,
          "internalType": "uint256",
          "name": "totalXINTXNew",
          "type": "uint256"
        },
        {
          "indexed": false,
          "internalType": "uint256",
          "name": "newTotalWeight",
          "type": "uint256"
        }
      ],
      "name": "Mint",
      "type": "event"
    },
    {
      "anonymous": false,
      "inputs": [
        {
          "indexed": true,
          "internalType": "address",
          "name": "previousOwner",
          "type": "address"
        },
        {
          "indexed": true,
          "internalType": "address",
          "name": "newOwner",
          "type": "address"
        }
      ],
      "name": "OwnershipTransferStarted",
      "type": "event"
    },
    {
      "anonymous": false,
      "inputs": [
        {
          "indexed": true,
          "internalType": "address",
          "name": "previousOwner",
          "type": "address"
        },
        {
          "indexed": true,
          "internalType": "address",
          "name": "newOwner",
          "type": "address"
        }
      ],
      "name": "OwnershipTransferred",
      "type": "event"
    },
    {
      "anonymous": false,
      "inputs": [
        {
          "indexed": false,
          "internalType": "uint256",
          "name": "rewardAdded",
          "type": "uint256"
        }
      ],
      "name": "RewardAdded",
      "type": "event"
    },
    {
      "anonymous": false,
      "inputs": [
        {
          "indexed": true,
          "internalType": "address",
          "name": "owner",
          "type": "address"
        },
        {
          "indexed": true,
          "internalType": "uint256",
          "name": "tokenIdFrom",
          "type": "uint256"
        },
        {
          "indexed": false,
          "internalType": "uint256",
          "name": "tokenIdTo",
          "type": "uint256"
        },
        {
          "indexed": false,
          "internalType": "uint256",
          "name": "balanceSplitted",
          "type": "uint256"
        }
      ],
      "name": "Split",
      "type": "event"
    },
    {
      "anonymous": false,
      "inputs": [
        {
          "indexed": true,
          "internalType": "address",
          "name": "from",
          "type": "address"
        },
        {
          "indexed": true,
          "internalType": "address",
          "name": "to",
          "type": "address"
        },
        {
          "indexed": true,
          "internalType": "uint256",
          "name": "tokenId",
          "type": "uint256"
        }
      ],
      "name": "Transfer",
      "type": "event"
    },
    {
      "anonymous": false,
      "inputs": [
        {
          "indexed": false,
          "internalType": "uint256",
          "name": "intxBalance",
          "type": "uint256"
        },
        {
          "indexed": false,
          "internalType": "uint256",
          "name": "totalXINTX",
          "type": "uint256"
        },
        {
          "indexed": false,
          "internalType": "uint256",
          "name": "totalWeight",
          "type": "uint256"
        }
      ],
      "name": "statusEvent",
      "type": "event"
    },
    {
      "inputs": [],
      "name": "DURATION",
      "outputs": [
        {
          "internalType": "uint256",
          "name": "",
          "type": "uint256"
        }
      ],
      "stateMutability": "view",
      "type": "function"
    },
    {
      "inputs": [],
      "name": "INTX",
      "outputs": [
        {
          "internalType": "contract IERC20",
          "name": "",
          "type": "address"
        }
      ],
      "stateMutability": "view",
      "type": "function"
    },
    {
      "inputs": [],
      "name": "P",
      "outputs": [
        {
          "internalType": "uint256",
          "name": "",
          "type": "uint256"
        }
      ],
      "stateMutability": "view",
      "type": "function"
    },
    {
      "inputs": [],
      "name": "acceptOwnership",
      "outputs": [],
      "stateMutability": "nonpayable",
      "type": "function"
    },
    {
      "inputs": [
        {
          "internalType": "uint256",
          "name": "_intxAmount",
          "type": "uint256"
        },
        {
          "internalType": "uint256",
          "name": "tokenTo",
          "type": "uint256"
        }
      ],
      "name": "add",
      "outputs": [],
      "stateMutability": "nonpayable",
      "type": "function"
    },
    {
      "inputs": [
        {
          "internalType": "uint256",
          "name": "_tokenId",
          "type": "uint256"
        }
      ],
      "name": "amountStakedOf",
      "outputs": [
        {
          "internalType": "uint256",
          "name": "amount",
          "type": "uint256"
        }
      ],
      "stateMutability": "view",
      "type": "function"
    },
    {
      "inputs": [
        {
          "internalType": "address",
          "name": "to",
          "type": "address"
        },
        {
          "internalType": "uint256",
          "name": "tokenId",
          "type": "uint256"
        }
      ],
      "name": "approve",
      "outputs": [],
      "stateMutability": "nonpayable",
      "type": "function"
    },
    {
      "inputs": [
        {
          "internalType": "address",
          "name": "owner",
          "type": "address"
        }
      ],
      "name": "balanceOf",
      "outputs": [
        {
          "internalType": "uint256",
          "name": "",
          "type": "uint256"
        }
      ],
      "stateMutability": "view",
      "type": "function"
    },
    {
      "inputs": [
        {
          "internalType": "uint256",
          "name": "",
          "type": "uint256"
        }
      ],
      "name": "balanceOfId",
      "outputs": [
        {
          "internalType": "uint256",
          "name": "",
          "type": "uint256"
        }
      ],
      "stateMutability": "view",
      "type": "function"
    },
    {
      "inputs": [
        {
          "internalType": "uint256",
          "name": "_tokenId",
          "type": "uint256"
        }
      ],
      "name": "boostPercentageOf",
      "outputs": [
        {
          "internalType": "uint256",
          "name": "boostPercentage",
          "type": "uint256"
        }
      ],
      "stateMutability": "view",
      "type": "function"
    },
    {
      "inputs": [
        {
          "internalType": "uint256[]",
          "name": "_tokenIds",
          "type": "uint256[]"
        }
      ],
      "name": "claim",
      "outputs": [],
      "stateMutability": "nonpayable",
      "type": "function"
    },
    {
      "inputs": [],
      "name": "currentExchangeRate",
      "outputs": [
        {
          "internalType": "uint256",
          "name": "_exchangeRate",
          "type": "uint256"
        }
      ],
      "stateMutability": "view",
      "type": "function"
    },
    {
      "inputs": [
        {
          "internalType": "uint256[]",
          "name": "_tokenIds",
          "type": "uint256[]"
        }
      ],
      "name": "earned",
      "outputs": [
        {
          "internalType": "uint256",
          "name": "totalReward",
          "type": "uint256"
        },
        {
          "internalType": "uint256[]",
          "name": "claimableAmounts",
          "type": "uint256[]"
        }
      ],
      "stateMutability": "view",
      "type": "function"
    },
    {
      "inputs": [
        {
          "internalType": "uint256",
          "name": "_tokenId",
          "type": "uint256"
        }
      ],
      "name": "earned",
      "outputs": [
        {
          "internalType": "uint256",
          "name": "",
          "type": "uint256"
        }
      ],
      "stateMutability": "view",
      "type": "function"
    },
    {
      "inputs": [
        {
          "internalType": "uint256",
          "name": "tokenId",
          "type": "uint256"
        }
      ],
      "name": "getApproved",
      "outputs": [
        {
          "internalType": "address",
          "name": "",
          "type": "address"
        }
      ],
      "stateMutability": "view",
      "type": "function"
    },
    {
      "inputs": [
        {
          "internalType": "uint256",
          "name": "_tokenId",
          "type": "uint256"
        }
      ],
      "name": "getPositionInfo",
      "outputs": [
        {
          "components": [
            {
              "internalType": "uint256",
              "name": "tokenId",
              "type": "uint256"
            },
            {
              "internalType": "address",
              "name": "owner",
              "type": "address"
            },
            {
              "internalType": "uint256",
              "name": "balanceOfId",
              "type": "uint256"
            },
            {
              "internalType": "uint256",
              "name": "amountStakedOf",
              "type": "uint256"
            },
            {
              "internalType": "uint256",
              "name": "withdrawableAmountOf",
              "type": "uint256"
            },
            {
              "internalType": "uint256",
              "name": "loyalSince",
              "type": "uint256"
            },
            {
              "internalType": "uint256",
              "name": "boostPercentageOf",
              "type": "uint256"
            },
            {
              "internalType": "uint256",
              "name": "penaltyPercentageOf",
              "type": "uint256"
            },
            {
              "internalType": "uint256",
              "name": "penaltyAmountOf",
              "type": "uint256"
            },
            {
              "internalType": "uint256",
              "name": "pendingReward",
              "type": "uint256"
            }
          ],
          "internalType": "struct StakedINTX.PositionInfo",
          "name": "_positionInfo",
          "type": "tuple"
        }
      ],
      "stateMutability": "view",
      "type": "function"
    },
    {
      "inputs": [
        {
          "internalType": "uint256[]",
          "name": "_tokenId",
          "type": "uint256[]"
        }
      ],
      "name": "getPositionsInfo",
      "outputs": [
        {
          "components": [
            {
              "internalType": "uint256",
              "name": "tokenId",
              "type": "uint256"
            },
            {
              "internalType": "address",
              "name": "owner",
              "type": "address"
            },
            {
              "internalType": "uint256",
              "name": "balanceOfId",
              "type": "uint256"
            },
            {
              "internalType": "uint256",
              "name": "amountStakedOf",
              "type": "uint256"
            },
            {
              "internalType": "uint256",
              "name": "withdrawableAmountOf",
              "type": "uint256"
            },
            {
              "internalType": "uint256",
              "name": "loyalSince",
              "type": "uint256"
            },
            {
              "internalType": "uint256",
              "name": "boostPercentageOf",
              "type": "uint256"
            },
            {
              "internalType": "uint256",
              "name": "penaltyPercentageOf",
              "type": "uint256"
            },
            {
              "internalType": "uint256",
              "name": "penaltyAmountOf",
              "type": "uint256"
            },
            {
              "internalType": "uint256",
              "name": "pendingReward",
              "type": "uint256"
            }
          ],
          "internalType": "struct StakedINTX.PositionInfo[]",
          "name": "_positionInfo",
          "type": "tuple[]"
        }
      ],
      "stateMutability": "view",
      "type": "function"
    },
    {
      "inputs": [
        {
          "internalType": "address",
          "name": "_intx",
          "type": "address"
        },
        {
          "internalType": "address",
          "name": "_usdc",
          "type": "address"
        }
      ],
      "name": "initialize",
      "outputs": [],
      "stateMutability": "nonpayable",
      "type": "function"
    },
    {
      "inputs": [
        {
          "internalType": "address",
          "name": "owner",
          "type": "address"
        },
        {
          "internalType": "address",
          "name": "operator",
          "type": "address"
        }
      ],
      "name": "isApprovedForAll",
      "outputs": [
        {
          "internalType": "bool",
          "name": "",
          "type": "bool"
        }
      ],
      "stateMutability": "view",
      "type": "function"
    },
    {
      "inputs": [],
      "name": "lastTimeRewardApplicable",
      "outputs": [
        {
          "internalType": "uint256",
          "name": "",
          "type": "uint256"
        }
      ],
      "stateMutability": "view",
      "type": "function"
    },
    {
      "inputs": [],
      "name": "lastTokenId",
      "outputs": [
        {
          "internalType": "uint256",
          "name": "",
          "type": "uint256"
        }
      ],
      "stateMutability": "view",
      "type": "function"
    },
    {
      "inputs": [],
      "name": "lastUpdateTime",
      "outputs": [
        {
          "internalType": "uint256",
          "name": "",
          "type": "uint256"
        }
      ],
      "stateMutability": "view",
      "type": "function"
    },
    {
      "inputs": [
        {
          "internalType": "uint256",
          "name": "",
          "type": "uint256"
        }
      ],
      "name": "loyalSince",
      "outputs": [
        {
          "internalType": "uint256",
          "name": "",
          "type": "uint256"
        }
      ],
      "stateMutability": "view",
      "type": "function"
    },
    {
      "inputs": [],
      "name": "loyaltyDuration",
      "outputs": [
        {
          "internalType": "uint256",
          "name": "",
          "type": "uint256"
        }
      ],
      "stateMutability": "view",
      "type": "function"
    },
    {
      "inputs": [],
      "name": "maxLoyaltyBoost",
      "outputs": [
        {
          "internalType": "uint256",
          "name": "",
          "type": "uint256"
        }
      ],
      "stateMutability": "view",
      "type": "function"
    },
    {
      "inputs": [],
      "name": "maxPenalty",
      "outputs": [
        {
          "internalType": "uint256",
          "name": "",
          "type": "uint256"
        }
      ],
      "stateMutability": "view",
      "type": "function"
    },
    {
      "inputs": [
        {
          "internalType": "uint256",
          "name": "_tokenFrom",
          "type": "uint256"
        },
        {
          "internalType": "uint256",
          "name": "tokenTo",
          "type": "uint256"
        }
      ],
      "name": "merge",
      "outputs": [],
      "stateMutability": "nonpayable",
      "type": "function"
    },
    {
      "inputs": [],
      "name": "minPenalty",
      "outputs": [
        {
          "internalType": "uint256",
          "name": "",
          "type": "uint256"
        }
      ],
      "stateMutability": "view",
      "type": "function"
    },
    {
      "inputs": [],
      "name": "name",
      "outputs": [
        {
          "internalType": "string",
          "name": "",
          "type": "string"
        }
      ],
      "stateMutability": "view",
      "type": "function"
    },
    {
      "inputs": [
        {
          "internalType": "uint256",
          "name": "_rewardAmount",
          "type": "uint256"
        }
      ],
      "name": "notifyReward",
      "outputs": [],
      "stateMutability": "nonpayable",
      "type": "function"
    },
    {
      "inputs": [],
      "name": "owner",
      "outputs": [
        {
          "internalType": "address",
          "name": "",
          "type": "address"
        }
      ],
      "stateMutability": "view",
      "type": "function"
    },
    {
      "inputs": [
        {
          "internalType": "uint256",
          "name": "tokenId",
          "type": "uint256"
        }
      ],
      "name": "ownerOf",
      "outputs": [
        {
          "internalType": "address",
          "name": "",
          "type": "address"
        }
      ],
      "stateMutability": "view",
      "type": "function"
    },
    {
      "inputs": [
        {
          "internalType": "uint256",
          "name": "_tokenId",
          "type": "uint256"
        }
      ],
      "name": "penaltyAmountOf",
      "outputs": [
        {
          "internalType": "uint256",
          "name": "penaltyAmount",
          "type": "uint256"
        }
      ],
      "stateMutability": "view",
      "type": "function"
    },
    {
      "inputs": [
        {
          "internalType": "uint256",
          "name": "_tokenId",
          "type": "uint256"
        }
      ],
      "name": "penaltyPercentageOf",
      "outputs": [
        {
          "internalType": "uint256",
          "name": "penaltyPercentage",
          "type": "uint256"
        }
      ],
      "stateMutability": "view",
      "type": "function"
    },
    {
      "inputs": [],
      "name": "pendingOwner",
      "outputs": [
        {
          "internalType": "address",
          "name": "",
          "type": "address"
        }
      ],
      "stateMutability": "view",
      "type": "function"
    },
    {
      "inputs": [
        {
          "internalType": "address",
          "name": "",
          "type": "address"
        }
      ],
      "name": "pendingRewards",
      "outputs": [
        {
          "internalType": "uint256",
          "name": "",
          "type": "uint256"
        }
      ],
      "stateMutability": "view",
      "type": "function"
    },
    {
      "inputs": [],
      "name": "periodFinish",
      "outputs": [
        {
          "internalType": "uint256",
          "name": "",
          "type": "uint256"
        }
      ],
      "stateMutability": "view",
      "type": "function"
    },
    {
      "inputs": [],
      "name": "renounceOwnership",
      "outputs": [],
      "stateMutability": "nonpayable",
      "type": "function"
    },
    {
      "inputs": [],
      "name": "rewardPerWeight",
      "outputs": [
        {
          "internalType": "uint256",
          "name": "",
          "type": "uint256"
        }
      ],
      "stateMutability": "view",
      "type": "function"
    },
    {
      "inputs": [],
      "name": "rewardRate",
      "outputs": [
        {
          "internalType": "uint256",
          "name": "",
          "type": "uint256"
        }
      ],
      "stateMutability": "view",
      "type": "function"
    },
    {
      "inputs": [],
      "name": "rewardToken",
      "outputs": [
        {
          "internalType": "contract IERC20",
          "name": "",
          "type": "address"
        }
      ],
      "stateMutability": "view",
      "type": "function"
    },
    {
      "inputs": [
        {
          "internalType": "address",
          "name": "from",
          "type": "address"
        },
        {
          "internalType": "address",
          "name": "to",
          "type": "address"
        },
        {
          "internalType": "uint256",
          "name": "tokenId",
          "type": "uint256"
        }
      ],
      "name": "safeTransferFrom",
      "outputs": [],
      "stateMutability": "nonpayable",
      "type": "function"
    },
    {
      "inputs": [
        {
          "internalType": "address",
          "name": "from",
          "type": "address"
        },
        {
          "internalType": "address",
          "name": "to",
          "type": "address"
        },
        {
          "internalType": "uint256",
          "name": "tokenId",
          "type": "uint256"
        },
        {
          "internalType": "bytes",
          "name": "data",
          "type": "bytes"
        }
      ],
      "name": "safeTransferFrom",
      "outputs": [],
      "stateMutability": "nonpayable",
      "type": "function"
    },
    {
      "inputs": [
        {
          "internalType": "address",
          "name": "operator",
          "type": "address"
        },
        {
          "internalType": "bool",
          "name": "approved",
          "type": "bool"
        }
      ],
      "name": "setApprovalForAll",
      "outputs": [],
      "stateMutability": "nonpayable",
      "type": "function"
    },
    {
      "inputs": [
        {
          "internalType": "uint256",
          "name": "_tokenId",
          "type": "uint256"
        },
        {
          "internalType": "uint256[]",
          "name": "_splitWeights",
          "type": "uint256[]"
        }
      ],
      "name": "split",
      "outputs": [
        {
          "internalType": "uint256[]",
          "name": "_tokenIds",
          "type": "uint256[]"
        }
      ],
      "stateMutability": "nonpayable",
      "type": "function"
    },
    {
      "inputs": [
        {
          "internalType": "uint256",
          "name": "_intxAmount",
          "type": "uint256"
        }
      ],
      "name": "stake",
      "outputs": [
        {
          "internalType": "uint256",
          "name": "_tokenId",
          "type": "uint256"
        }
      ],
      "stateMutability": "nonpayable",
      "type": "function"
    },
    {
      "inputs": [
        {
          "internalType": "address",
          "name": "_to",
          "type": "address"
        },
        {
          "internalType": "uint256",
          "name": "_intxAmount",
          "type": "uint256"
        }
      ],
      "name": "stakeFor",
      "outputs": [
        {
          "internalType": "uint256",
          "name": "_tokenId",
          "type": "uint256"
        }
      ],
      "stateMutability": "nonpayable",
      "type": "function"
    },
    {
      "inputs": [
        {
          "internalType": "bytes4",
          "name": "interfaceId",
          "type": "bytes4"
        }
      ],
      "name": "supportsInterface",
      "outputs": [
        {
          "internalType": "bool",
          "name": "",
          "type": "bool"
        }
      ],
      "stateMutability": "view",
      "type": "function"
    },
    {
      "inputs": [],
      "name": "symbol",
      "outputs": [
        {
          "internalType": "string",
          "name": "",
          "type": "string"
        }
      ],
      "stateMutability": "view",
      "type": "function"
    },
    {
      "inputs": [
        {
          "internalType": "uint256",
          "name": "tokenId",
          "type": "uint256"
        }
      ],
      "name": "tokenURI",
      "outputs": [
        {
          "internalType": "string",
          "name": "",
          "type": "string"
        }
      ],
      "stateMutability": "view",
      "type": "function"
    },
    {
      "inputs": [],
      "name": "totalXINTX",
      "outputs": [
        {
          "internalType": "uint256",
          "name": "",
          "type": "uint256"
        }
      ],
      "stateMutability": "view",
      "type": "function"
    },
    {
      "inputs": [
        {
          "internalType": "address",
          "name": "from",
          "type": "address"
        },
        {
          "internalType": "address",
          "name": "to",
          "type": "address"
        },
        {
          "internalType": "uint256",
          "name": "tokenId",
          "type": "uint256"
        }
      ],
      "name": "transferFrom",
      "outputs": [],
      "stateMutability": "nonpayable",
      "type": "function"
    },
    {
      "inputs": [
        {
          "internalType": "address",
          "name": "newOwner",
          "type": "address"
        }
      ],
      "name": "transferOwnership",
      "outputs": [],
      "stateMutability": "nonpayable",
      "type": "function"
    },
    {
      "inputs": [
        {
          "internalType": "uint256",
          "name": "_tokenId",
          "type": "uint256"
        }
      ],
      "name": "unstake",
      "outputs": [
        {
          "internalType": "uint256",
          "name": "_intxAmountOut",
          "type": "uint256"
        }
      ],
      "stateMutability": "nonpayable",
      "type": "function"
    },
    {
      "inputs": [
        {
          "internalType": "uint256",
          "name": "_tokenId",
          "type": "uint256"
        },
        {
          "internalType": "uint256",
          "name": "_xIntxAmountWithdraw",
          "type": "uint256"
        }
      ],
      "name": "unstakePartially",
      "outputs": [
        {
          "internalType": "uint256",
          "name": "_intxAmountOut",
          "type": "uint256"
        },
        {
          "internalType": "uint256",
          "name": "_newTokenId",
          "type": "uint256"
        }
      ],
      "stateMutability": "nonpayable",
      "type": "function"
    },
    {
      "inputs": [
        {
          "internalType": "uint256[]",
          "name": "_tokenIds",
          "type": "uint256[]"
        }
      ],
      "name": "updateWeights",
      "outputs": [],
      "stateMutability": "nonpayable",
      "type": "function"
    },
    {
      "inputs": [
        {
          "internalType": "uint256",
          "name": "_tokenId",
          "type": "uint256"
        }
      ],
      "name": "withdrawableAmountOf",
      "outputs": [
        {
          "internalType": "uint256",
          "name": "withdrawableAmount",
          "type": "uint256"
        }
      ],
      "stateMutability": "view",
      "type": "function"
    }
  ],
  "bytecode": "0x60806040523480156200001157600080fd5b506200001c62000022565b620000e3565b600054610100900460ff16156200008f5760405162461bcd60e51b815260206004820152602760248201527f496e697469616c697a61626c653a20636f6e747261637420697320696e697469604482015266616c697a696e6760c81b606482015260840160405180910390fd5b60005460ff90811614620000e1576000805460ff191660ff9081179091556040519081527f7f26b83ff96e1f2b6a682f133852f6798a09c465da95921460cefb38474024989060200160405180910390a15b565b61474a80620000f36000396000f3fe608060405234801561001057600080fd5b50600436106103835760003560e01c8063771602f7116101de578063b88d4fde1161010f578063df2e0b97116100ad578063f290dfa71161007c578063f290dfa7146107a3578063f2fde38b146107cb578063f7c618c1146107de578063f84ddf0b146107f257600080fd5b8063df2e0b9714610738578063e30c39781461074c578063e985e9c51461075d578063ebe2b12b1461079957600080fd5b8063cfd0e125116100e9578063cfd0e125146106e7578063d1a249ab14610708578063d1c2babb14610712578063d975dfed1461072557600080fd5b8063b88d4fde146106b7578063c87b56dd146106ca578063c8f33c91146106dd57600080fd5b806395d89b411161017c578063a1c95e5a11610156578063a1c95e5a14610669578063a22cb4651461068a578063a36849771461069c578063a694fc3a146106a457600080fd5b806395d89b411461063b578063988dc31e14610643578063a00ea0c51461065657600080fd5b806380faa57d116101b857806380faa57d146105f35780638b8fbd92146105fb5780638da5cb5b1461060a5780638fca5a591461061b57600080fd5b8063771602f7146105ce57806379ba5097146105e15780637b0a47ee146105e957600080fd5b8063485cc955116102b857806360993b5b1161025657806369c672471161023057806369c67247146105805780636ba4c138146105a057806370a08231146105b3578063715018a6146105c657600080fd5b806360993b5b146105475780636352211e1461055a578063645bfd9a1461056d57600080fd5b8063519f509911610292578063519f5099146105005780635200e79e14610520578063520bf08a1461052a5780635a48a97f1461053457600080fd5b8063485cc955146104b95780634d62f590146104cc5780634d6ed8c4146104ed57600080fd5b806323b872dd116103255780632ee40908116102ff5780632ee409081461045f57806330f916191461047257806331d7a2621461048557806342842e0e146104a657600080fd5b806323b872dd146104315780632ac3f450146104445780632e17de781461044c57600080fd5b8063095ea7b311610361578063095ea7b3146103f05780630eba9849146104055780631be052891461041d5780632212b8061461042757600080fd5b806301ffc9a71461038857806306fdde03146103b0578063081812fc146103c5575b600080fd5b61039b610396366004613f40565b6107fc565b60405190151581526020015b60405180910390f35b6103b86108e1565b6040516103a79190613fad565b6103d86103d3366004613fc0565b610973565b6040516001600160a01b0390911681526020016103a7565b6104036103fe366004613ff0565b61099a565b005b61040f6101325481565b6040519081526020016103a7565b61040f62093a8081565b61040f6101305481565b61040361043f36600461401a565b505050565b61040f610ac1565b61040f61045a366004613fc0565b610b86565b61040f61046d366004613ff0565b610ba0565b6104036104803660046140a2565b610bb7565b61040f6104933660046140e4565b61013f6020526000908152604090205481565b6104036104b436600461401a565b610bff565b6104036104c73660046140ff565b610c1a565b6104df6104da3660046140a2565b610eee565b6040516103a792919061416d565b61040f6104fb366004613fc0565b610fae565b61051361050e366004613fc0565b611076565b6040516103a791906141fd565b61040f6101315481565b61040f61012e5481565b61040f610542366004613fc0565b6110de565b610403610555366004613fc0565b611123565b6103d8610568366004613fc0565b61133f565b61040f61057b366004613fc0565b6113a4565b61059361058e36600461420c565b6113ca565b6040516103a79190614258565b6104036105ae3660046140a2565b61141a565b61040f6105c13660046140e4565b61163f565b6104036116d9565b6104036105dc36600461426b565b6116e3565b610403611704565b61040f6101355481565b61040f61178f565b61040f670de0b6b3a764000081565b60c9546001600160a01b03166103d8565b61062e6106293660046140a2565b6117a3565b6040516103a7919061428d565b6103b86118b6565b61040f610651366004613fc0565b6118c5565b61040f610664366004613fc0565b6118eb565b61040f610677366004613fc0565b61013b6020526000908152604090205481565b6104036106983660046142ea565b5050565b61040f611911565b61040f6106b2366004613fc0565b61191b565b6104036106c5366004614337565b611928565b6103b86106d8366004613fc0565b6119b6565b61040f6101335481565b61040f6106f5366004613fc0565b61013a6020526000908152604090205481565b61040f61012f5481565b61040361072036600461426b565b611a29565b61040f610733366004613fc0565b611a3b565b610138546103d8906001600160a01b031681565b60fb546001600160a01b03166103d8565b61039b61076b3660046140ff565b6001600160a01b039182166000908152609c6020908152604080832093909416825291909152205460ff1690565b61040f6101345481565b6107b66107b136600461426b565b611a83565b604080519283526020830191909152016103a7565b6104036107d93660046140e4565b611bd5565b610139546103d8906001600160a01b031681565b61040f61012d5481565b60007fffffffff0000000000000000000000000000000000000000000000000000000082167f80ac58cd00000000000000000000000000000000000000000000000000000000148061088f57507fffffffff0000000000000000000000000000000000000000000000000000000082167f5b5e139f00000000000000000000000000000000000000000000000000000000145b806108db57507f01ffc9a7000000000000000000000000000000000000000000000000000000007fffffffff000000000000000000000000000000000000000000000000000000008316145b92915050565b6060609780546108f090614413565b80601f016020809104026020016040519081016040528092919081815260200182805461091c90614413565b80156109695780601f1061093e57610100808354040283529160200191610969565b820191906000526020600020905b81548152906001019060200180831161094c57829003601f168201915b5050505050905090565b600061097e82611c53565b506000908152609b60205260409020546001600160a01b031690565b60006109a58261133f565b9050806001600160a01b0316836001600160a01b031603610a335760405162461bcd60e51b815260206004820152602160248201527f4552433732313a20617070726f76616c20746f2063757272656e74206f776e6560448201527f720000000000000000000000000000000000000000000000000000000000000060648201526084015b60405180910390fd5b336001600160a01b0382161480610a4f5750610a4f813361076b565b61043f5760405162461bcd60e51b815260206004820152603d60248201527f4552433732313a20617070726f76652063616c6c6572206973206e6f7420746f60448201527f6b656e206f776e6572206f7220617070726f76656420666f7220616c6c0000006064820152608401610a2a565b600061013754600003610ad657506101365490565b60006101375411610b295760405162461bcd60e51b815260206004820152601060248201527f496e636f727265637420776569676874000000000000000000000000000000006044820152606401610a2a565b600061013354610b3761178f565b610b419190614463565b9050610137546101355482610b569190614476565b610b6890670de0b6b3a7640000614476565b610b72919061448d565b61013654610b8091906144af565b91505090565b6000610b9182611cb7565b9050610b9b611f6b565b919050565b6000610bad338484611fbc565b90506108db611f6b565b8060005b81811015610bf657610be4848483818110610bd857610bd86144c2565b90506020020135612175565b80610bee816144d8565b915050610bbb565b5061043f611f6b565b61043f83838360405180602001604052806000815250611928565b600054610100900460ff1615808015610c3a5750600054600160ff909116105b80610c545750303b158015610c54575060005460ff166001145b610cc65760405162461bcd60e51b815260206004820152602e60248201527f496e697469616c697a61626c653a20636f6e747261637420697320616c72656160448201527f647920696e697469616c697a65640000000000000000000000000000000000006064820152608401610a2a565b600080547fffffffffffffffffffffffffffffffffffffffffffffffffffffffffffffff001660011790558015610d07576000805461ff0019166101001790555b610d0f61223b565b610d836040518060400160405280600b81526020017f5374616b656420494e54580000000000000000000000000000000000000000008152506040518060400160405280600581526020017f58494e54580000000000000000000000000000000000000000000000000000008152506122ae565b610d8b612323565b6001600160a01b038316610de15760405162461bcd60e51b815260206004820152601460248201527f43616e27742075736520307820616464726573730000000000000000000000006044820152606401610a2a565b6001600160a01b038216610e375760405162461bcd60e51b815260206004820152601460248201527f43616e27742075736520307820616464726573730000000000000000000000006044820152606401610a2a565b61013880546001600160a01b0380861673ffffffffffffffffffffffffffffffffffffffff19928316179092556101398054928516929091169190911790556293a80061012f556722b1c8c1227a0000610130556703782dace9d90000610131556611c37937e0800061013255801561043f576000805461ff0019169055604051600181527f7f26b83ff96e1f2b6a682f133852f6798a09c465da95921460cefb38474024989060200160405180910390a1505050565b60006060828067ffffffffffffffff811115610f0c57610f0c614321565b604051908082528060200260200182016040528015610f35578160200160208202803683370190505b50915060005b81811015610fa5576000610f66878784818110610f5a57610f5a6144c2565b90506020020135610fae565b9050610f7281866144af565b945080848381518110610f8757610f876144c2565b60209081029190910101525080610f9d816144d8565b915050610f3b565b50509250929050565b600080670de0b6b3a7640000610fc384612396565b600085815261013b6020526040902054610fdd9190614476565b610fe7919061448d565b600084815261013c6020526040812054919250906002906110099084906144af565b611013919061448d565b600085815261013e602090815260408083205461013d9092529091205491925090670de0b6b3a764000090611046610ac1565b6110509190614463565b61105a9084614476565b611064919061448d565b61106e91906144af565b949350505050565b6110d56040518061014001604052806000815260200160006001600160a01b0316815260200160008152602001600081526020016000815260200160008152602001600081526020016000815260200160008152602001600081525090565b6108db82612433565b6000806110ea8361257c565b905060006110f7846125aa565b9050811561111c57670de0b6b3a76400006111128284614476565b61106e919061448d565b5050919050565b61112b612653565b6111336126ac565b61113d6000612175565b61115633610139546001600160a01b0316903084612706565b611168670de0b6b3a764000082614476565b905061013454421061118a5761118162093a808261448d565b610135556111cf565b6000426101345461119b9190614463565b9050600061013554826111ae9190614476565b905062093a806111be82856144af565b6111c8919061448d565b6101355550505b610139546040517f70a08231000000000000000000000000000000000000000000000000000000008152306004820152600091670de0b6b3a7640000916001600160a01b03909116906370a0823190602401602060405180830381865afa15801561123e573d6000803e3d6000fd5b505050506040513d601f19601f8201168201806040525081019061126291906144f2565b61126c9190614476565b905061127b62093a808261448d565b6101355411156112cd5760405162461bcd60e51b815260206004820152601860248201527f50726f76696465642072657761726420746f6f206869676800000000000000006044820152606401610a2a565b426101338190556112e29062093a80906144af565b610134557fde88a922e0d3b88b24e9623efeb464919c6bf9f66857a65e2bfcf2ce87a9433d611319670de0b6b3a76400008461448d565b60405190815260200160405180910390a1611332611f6b565b5061133c60018055565b50565b6000818152609960205260408120546001600160a01b0316806108db5760405162461bcd60e51b815260206004820152601860248201527f4552433732313a20696e76616c696420746f6b656e20494400000000000000006044820152606401610a2a565b6000818152609960205260408120546001600160a01b031615610b9b576108db82612396565b6060611409848484808060200260200160405190810160405280939291908181526020018383602002808284376000920191909152506127bd92505050565b9050611413611f6b565b9392505050565b33600090815261013f60205260408120548291908190815b848110156115985786868281811061144c5761144c6144c2565b905060200201359350611476846000908152609960205260409020546001600160a01b0316151590565b6114c25760405162461bcd60e51b815260206004820152601c60248201527f5468697320706f736974696f6e20646f65736e27742065786973742e000000006044820152606401610a2a565b6000848152609960205260409020546001600160a01b031692503383146115515760405162461bcd60e51b815260206004820152602760248201527f596f7520617265206e6f7420746865206f776e6572206f66207468697320706f60448201527f736974696f6e2e000000000000000000000000000000000000000000000000006064820152608401610a2a565b61155a84612175565b600084815261013e602052604090205461157490836144af565b600085815261013e6020526040812055915080611590816144d8565b915050611432565b5033600081815261013f60205260408120556115d4906115c0670de0b6b3a76400008461448d565b610139546001600160a01b03169190612d11565b85856040516115e492919061450b565b6040518091039020826001600160a01b03167f916f43dce61aa4c4d8761c25ddcacfe178ea96a18f68d2775354bbc06be75aaa8360405161162791815260200190565b60405180910390a3611637611f6b565b505050505050565b60006001600160a01b0382166116bd5760405162461bcd60e51b815260206004820152602960248201527f4552433732313a2061646472657373207a65726f206973206e6f74206120766160448201527f6c6964206f776e657200000000000000000000000000000000000000000000006064820152608401610a2a565b506001600160a01b03166000908152609a602052604090205490565b6116e16126ac565b565b60006116f0333385611fbc565b90506116fc8183612d5a565b61043f611f6b565b60fb5433906001600160a01b031681146117865760405162461bcd60e51b815260206004820152602960248201527f4f776e61626c6532537465703a2063616c6c6572206973206e6f74207468652060448201527f6e6577206f776e657200000000000000000000000000000000000000000000006064820152608401610a2a565b61133c816131a5565b600061179e42610134546131cb565b905090565b6060818067ffffffffffffffff8111156117bf576117bf614321565b60405190808252806020026020018201604052801561184f57816020015b61183c6040518061014001604052806000815260200160006001600160a01b0316815260200160008152602001600081526020016000815260200160008152602001600081526020016000815260200160008152602001600081525090565b8152602001906001900390816117dd5790505b50915060005b818110156118ae5761187e858583818110611872576118726144c2565b90506020020135612433565b838281518110611890576118906144c2565b602002602001018190525080806118a6906144d8565b915050611855565b505092915050565b6060609880546108f090614413565b6000818152609960205260408120546001600160a01b031615610b9b576108db826125aa565b6000818152609960205260408120546001600160a01b031615610b9b576108db8261257c565b600061179e6131e1565b6000610b91333384611fbc565b6119323383613224565b6119a45760405162461bcd60e51b815260206004820152602d60248201527f4552433732313a2063616c6c6572206973206e6f7420746f6b656e206f776e6560448201527f72206f7220617070726f766564000000000000000000000000000000000000006064820152608401610a2a565b6119b0848484846132a2565b50505050565b60606119c182611c53565b60006119d860408051602081019091526000815290565b905060008151116119f85760405180602001604052806000815250611413565b80611a028461332b565b604051602001611a1392919061454d565b6040516020818303038152906040529392505050565b611a338282612d5a565b610698611f6b565b600080611a478361257c565b90506000611a54846125aa565b9050811561111c57670de0b6b3a7640000611a6f8284614476565b611a79919061448d565b61106e9083614463565b600082815261013b60205260408120548190838111611b0a5760405162461bcd60e51b815260206004820152602e60248201527f596f752063616e2774207061727469616c6c79207769746864726177206d6f7260448201527f65207468616e20796f75206f776e0000000000000000000000000000000000006064820152608401610a2a565b6040805160028082526060820183526000926020830190803683370190505090508481600081518110611b3f57611b3f6144c2565b6020908102919091010152611b548583614463565b81600181518110611b6757611b676144c2565b6020026020010181815250506000611b7f87836127bd565b9050611ba481600081518110611b9757611b976144c2565b6020026020010151611cb7565b945080600181518110611bb957611bb96144c2565b60200260200101519350611bcb611f6b565b5050509250929050565b611bdd6126ac565b60fb80546001600160a01b03831673ffffffffffffffffffffffffffffffffffffffff199091168117909155611c1b60c9546001600160a01b031690565b6001600160a01b03167f38d16b8cac22d99fc7c124b9cd0de2d3fa1faef420bfe791d8c362d765e2270060405160405180910390a350565b6000818152609960205260409020546001600160a01b031661133c5760405162461bcd60e51b815260206004820152601860248201527f4552433732313a20696e76616c696420746f6b656e20494400000000000000006044820152606401610a2a565b6000611cc1612653565b6000828152609960205260409020546001600160a01b0316611d255760405162461bcd60e51b815260206004820152601c60248201527f5468697320706f736974696f6e20646f65736e27742065786973742e000000006044820152606401610a2a565b6000828152609960205260409020546001600160a01b0316338114611d8c5760405162461bcd60e51b815260206004820152601360248201527f4e6f7420796f75722078494e5458204e46542e000000000000000000000000006044820152606401610a2a565b611d9583612175565b600083815261013b602052604081205490670de0b6b3a7640000611db886612396565b611dc29084614476565b611dcc919061448d565b90506000611dd86131e1565b90506000611de68285614476565b90506000611df3886125aa565b611dfd9083614476565b9050670de0b6b3a7640000611e128284614463565b611e1c919061448d565b600089815261013a6020908152604080832083905561013b825280832083905561013c825280832083905561013d825280832083905561013e90915290205490975015611ea157600088815261013e60209081526040808320546001600160a01b038a16845261013f9092528220805491929091611e9b9084906144af565b90915550505b600088815261013e6020526040812055611eba886133cb565b8461012e6000828254611ecd9190614463565b92505081905550836101376000828254611ee79190614463565b909155505061013854611f04906001600160a01b03168789612d11565b61012e5460408051878152602081018a905280820184905260608101929092525189916001600160a01b038916917f44bd20a79e993bdcc7cbedf54a3b4d19fb78490124b6b90d04fe3242eea579e89181900360800190a3505050505050610b9b60018055565b7fb7ed67a7a04c3ac1ec8c35b581007f013b24a305093b7ffc2dc2dffd12cc4a6c611f9461346d565b61012e54610137546040805193845260208401929092529082015260600160405180910390a1565b6000611fc6612653565b600082116120165760405162461bcd60e51b815260206004820152601360248201527f43616e2774207374616b65203020696e74582e000000000000000000000000006044820152606401610a2a565b60006120206131e1565b6101385490915061203c906001600160a01b0316863086612706565b61012d805490600061204d836144d8565b919050555061205f8461012d546134f4565b61206b61012d54612175565b600081612080670de0b6b3a764000086614476565b61208a919061448d565b61012d8054600090815261013a602090815260408083204290559254825261013b905290812082905561012e805492935083929091906120cb9084906144af565b925050819055508061013760008282546120e591906144af565b909155505061012d8054600090815261013c6020908152604091829020849055915461012e54610137548351868152948501899052928401526060830191909152906001600160a01b0380881691908916907f52c6b7a228763dc832bef1e2dee48707b24b8f1400a6335b3af6d5def4f5bb219060800160405180910390a461012d549250505061141360018055565b61217d610ac1565b6101365561218961178f565b61013355801561133c5761219c81610fae565b600082815261013e6020526040812091909155670de0b6b3a76400006121c183612396565b600084815261013b60205260409020546121db9190614476565b6121e5919061448d565b600083815261013c60205260409020546101375491925082916122089190614463565b61221291906144af565b61013755600091825261013c60209081526040808420929092556101365461013d909152912055565b600054610100900460ff166122a65760405162461bcd60e51b815260206004820152602b60248201527f496e697469616c697a61626c653a20636f6e7472616374206973206e6f74206960448201526a6e697469616c697a696e6760a81b6064820152608401610a2a565b6116e161368c565b600054610100900460ff166123195760405162461bcd60e51b815260206004820152602b60248201527f496e697469616c697a61626c653a20636f6e7472616374206973206e6f74206960448201526a6e697469616c697a696e6760a81b6064820152608401610a2a565b61069882826136f7565b600054610100900460ff1661238e5760405162461bcd60e51b815260206004820152602b60248201527f496e697469616c697a61626c653a20636f6e7472616374206973206e6f74206960448201526a6e697469616c697a696e6760a81b6064820152608401610a2a565b6116e161377b565b600081815261013a60205260408120548082036123b65750600092915050565b60006123c28242614463565b905061012f548111156123d5575061012f545b670de0b6b3a764000080610130546123ed9190614463565b61012f54612403670de0b6b3a764000085614476565b61240d919061448d565b6124179190614476565b612421919061448d565b61106e90670de0b6b3a76400006144af565b6124926040518061014001604052806000815260200160006001600160a01b0316815260200160008152602001600081526020016000815260200160008152602001600081526020016000815260200160008152602001600081525090565b600061249d8361257c565b905060006124aa846125aa565b8484526000858152609960209081526040808320546001600160a01b03168288015287835261013b909152908190205490850152606084018390529050670de0b6b3a76400006124fa8284614476565b612504919061448d565b61250e9083614463565b6080840152600084815261013a602052604090205460a084015261253184612396565b60c084015260e08301819052670de0b6b3a76400006125508284614476565b61255a919061448d565b6101008401525050600091825261013e60205260409091205461012082015290565b600081815261013b6020526040812054816125956131e1565b9050670de0b6b3a76400006111128284614476565b600081815261013a60205260408120548082036125ca5750600092915050565b60006125d68242614463565b905061012f548111156125e9575061012f545b670de0b6b3a76400006101315461012f54670de0b6b3a76400008461260e9190614476565b612618919061448d565b6126229190614476565b61262c919061448d565b6101315461263a9190614463565b92506101325483101561111c5750506101325492915050565b6002600154036126a55760405162461bcd60e51b815260206004820152601f60248201527f5265656e7472616e637947756172643a207265656e7472616e742063616c6c006044820152606401610a2a565b6002600155565b60c9546001600160a01b031633146116e15760405162461bcd60e51b815260206004820181905260248201527f4f776e61626c653a2063616c6c6572206973206e6f7420746865206f776e65726044820152606401610a2a565b6040516001600160a01b03808516602483015283166044820152606481018290526119b09085907f23b872dd00000000000000000000000000000000000000000000000000000000906084015b60408051601f198184030181529190526020810180517bffffffffffffffffffffffffffffffffffffffffffffffffffffffff167fffffffff00000000000000000000000000000000000000000000000000000000909316929092179091526137ef565b60018055565b60606127c7612653565b6000838152609960205260409020546001600160a01b031661282b5760405162461bcd60e51b815260206004820152601c60248201527f5468697320706f736974696f6e20646f65736e27742065786973742e000000006044820152606401610a2a565b6000838152609960205260409020546001600160a01b03163381146128925760405162461bcd60e51b815260206004820152601360248201527f4e6f7420796f75722078494e5458204e46542e000000000000000000000000006044820152606401610a2a565b82516001811161290a5760405162461bcd60e51b815260206004820152602c60248201527f596f752063616e27742073706c697420746869732058494e5458206c6573732060448201527f7468616e20322074696d657300000000000000000000000000000000000000006064820152608401610a2a565b600a8111156129815760405162461bcd60e51b815260206004820152602d60248201527f596f752063616e27742073706c697420746869732058494e5458206d6f72652060448201527f7468616e2031302074696d6573000000000000000000000000000000000000006064820152608401610a2a565b8067ffffffffffffffff81111561299a5761299a614321565b6040519080825280602002602001820160405280156129c3578160200160208202803683370190505b5092506129cf85612175565b600085815261013b602090815260408083205461013a83528184205461013d9093529083205461012e80549293928491908690612a0d908490614463565b9091555050600089815261013c6020526040812054610137805491929091612a36908490614463565b90915550600090505b85811015612a8057888181518110612a5957612a596144c2565b602002602001015185612a6c91906144af565b945080612a78816144d8565b915050612a3f565b5060005b85811015612c6657600085858b8481518110612aa257612aa26144c2565b6020026020010151612ab49190614476565b612abe919061448d565b905060008111612b105760405162461bcd60e51b815260206004820152601460248201527f43616e27742073706c697420302078494e54582e0000000000000000000000006044820152606401610a2a565b61012d8054906000612b21836144d8565b9190505550612b338861012d546134f4565b61012d54898381518110612b4957612b496144c2565b60209081029190910181019190915261012d8054600090815261013a835260408082208890558254825261013b90935291822083905554670de0b6b3a764000090612b9390612396565b612b9d9084614476565b612ba7919061448d565b61012d8054600090815261013c602090815260408083208590559254825261013d905290812086905561012e80549293508492909190612be89084906144af565b92505081905550806101376000828254612c0291906144af565b909155505061012d5460408051918252602082018490528d916001600160a01b038c16917ff66885c33d648fcd0d97e0f2a18e30102169c22763473af0fb716f11b4a17dd6910160405180910390a350508080612c5e906144d8565b915050612a84565b50600089815261013a6020908152604080832083905561013b825280832083905561013c825280832083905561013d825280832083905561013e90915290205415612ce957600089815261013e60209081526040808320546001600160a01b038a16845261013f9092528220805491929091612ce39084906144af565b90915550505b600089815261013e6020526040812055612d02896133cb565b5050505050506108db60018055565b6040516001600160a01b03831660248201526044810182905261043f9084907fa9059cbb0000000000000000000000000000000000000000000000000000000090606401612753565b612d62612653565b6000828152609960205260409020546001600160a01b0316612dc65760405162461bcd60e51b815260206004820152601c60248201527f5468697320706f736974696f6e20646f65736e27742065786973742e000000006044820152606401610a2a565b6000818152609960205260409020546001600160a01b0316612e2a5760405162461bcd60e51b815260206004820152601c60248201527f5468697320706f736974696f6e20646f65736e27742065786973742e000000006044820152606401610a2a565b6000828152609960205260409020546001600160a01b0316338114612e915760405162461bcd60e51b815260206004820152601e60248201527f46726f6d204e46542069736e277420796f75722078494e5458204e46542e00006044820152606401610a2a565b6000828152609960205260409020546001600160a01b03828116911614612efa5760405162461bcd60e51b815260206004820152601760248201527f546f204e46542069736e27742078494e5458204e46542e0000000000000000006044820152606401610a2a565b612f0383612175565b612f0c82612175565b600083815261013b602090815260408083205461013a909252822054909190612f359042614463565b905061012f54811115612f48575061012f545b600084815261013b602090815260408083205461013a909252822054909190612f719042614463565b905061012f54811115612f84575061012f545b6000612f9083866144af565b9050600081116130085760405162461bcd60e51b815260206004820152602360248201527f43616e2774206d616b65206120706f736974696f6e207769746820302078494e60448201527f54582e00000000000000000000000000000000000000000000000000000000006064820152608401610a2a565b6000816130158585614476565b61301f919061448d565b8261302a8888614476565b613034919061448d565b61303e91906144af565b600089815261013b60205260409020839055905061305c8142614463565b600089815261013a6020526040812091909155670de0b6b3a76400006130818a612396565b61308b9085614476565b613095919061448d565b60008a815261013c602081815260408084208590558e845261013a825280842084905561013b825280842084905591815281832083905561013d815281832083905561013e9052902054909150156131255760008a815261013e60209081526040808320546001600160a01b038c16845261013f909252822080549192909161311f9084906144af565b90915550505b60008a815261013e602052604081205561313e8a6133cb565b896001600160a01b0389167f50d7f0ef4f7b59921566f6b835fb032efa0fd0dacccb9361292f89b7aa6bafdd8b866131768742614463565b6040805193845260208401929092529082015260600160405180910390a3505050505050505061069860018055565b60fb805473ffffffffffffffffffffffffffffffffffffffff1916905561133c816138d7565b60008183106131da5781611413565b5090919050565b600061012e546000036131fb5750670de0b6b3a764000090565b61012e54670de0b6b3a764000061321061346d565b61321a9190614476565b61179e919061448d565b6000806132308361133f565b9050806001600160a01b0316846001600160a01b0316148061327757506001600160a01b038082166000908152609c602090815260408083209388168352929052205460ff165b8061106e5750836001600160a01b031661329084610973565b6001600160a01b031614949350505050565b6132ad848484613936565b6132b984848484613b6c565b6119b05760405162461bcd60e51b815260206004820152603260248201527f4552433732313a207472616e7366657220746f206e6f6e20455243373231526560448201527f63656976657220696d706c656d656e74657200000000000000000000000000006064820152608401610a2a565b6060600061333883613d0d565b600101905060008167ffffffffffffffff81111561335857613358614321565b6040519080825280601f01601f191660200182016040528015613382576020820181803683370190505b5090508181016020015b600019017f3031323334353637383961626364656600000000000000000000000000000000600a86061a8153600a850494508461338c57509392505050565b60006133d68261133f565b90506133e18261133f565b6000838152609b60209081526040808320805473ffffffffffffffffffffffffffffffffffffffff199081169091556001600160a01b038516808552609a845282852080546000190190558785526099909352818420805490911690555192935084927fddf252ad1be2c89b69c2b068fc378daa952ba7f163c4a11628f55a4df523b3ef908390a45050565b610138546040517f70a082310000000000000000000000000000000000000000000000000000000081523060048201526000916001600160a01b0316906370a0823190602401602060405180830381865afa1580156134d0573d6000803e3d6000fd5b505050506040513d601f19601f8201168201806040525081019061179e91906144f2565b6001600160a01b03821661354a5760405162461bcd60e51b815260206004820181905260248201527f4552433732313a206d696e7420746f20746865207a65726f20616464726573736044820152606401610a2a565b6000818152609960205260409020546001600160a01b0316156135af5760405162461bcd60e51b815260206004820152601c60248201527f4552433732313a20746f6b656e20616c7265616479206d696e746564000000006044820152606401610a2a565b6000818152609960205260409020546001600160a01b0316156136145760405162461bcd60e51b815260206004820152601c60248201527f4552433732313a20746f6b656e20616c7265616479206d696e746564000000006044820152606401610a2a565b6001600160a01b0382166000818152609a60209081526040808320805460010190558483526099909152808220805473ffffffffffffffffffffffffffffffffffffffff19168417905551839291907fddf252ad1be2c89b69c2b068fc378daa952ba7f163c4a11628f55a4df523b3ef908290a45050565b600054610100900460ff166127b75760405162461bcd60e51b815260206004820152602b60248201527f496e697469616c697a61626c653a20636f6e7472616374206973206e6f74206960448201526a6e697469616c697a696e6760a81b6064820152608401610a2a565b600054610100900460ff166137625760405162461bcd60e51b815260206004820152602b60248201527f496e697469616c697a61626c653a20636f6e7472616374206973206e6f74206960448201526a6e697469616c697a696e6760a81b6064820152608401610a2a565b609761376e83826145c2565b50609861043f82826145c2565b600054610100900460ff166137e65760405162461bcd60e51b815260206004820152602b60248201527f496e697469616c697a61626c653a20636f6e7472616374206973206e6f74206960448201526a6e697469616c697a696e6760a81b6064820152608401610a2a565b6116e1336131a5565b6000613844826040518060400160405280602081526020017f5361666545524332303a206c6f772d6c6576656c2063616c6c206661696c6564815250856001600160a01b0316613def9092919063ffffffff16565b90508051600014806138655750808060200190518101906138659190614682565b61043f5760405162461bcd60e51b815260206004820152602a60248201527f5361666545524332303a204552433230206f7065726174696f6e20646964206e60448201527f6f742073756363656564000000000000000000000000000000000000000000006064820152608401610a2a565b60c980546001600160a01b0383811673ffffffffffffffffffffffffffffffffffffffff19831681179093556040519116919082907f8be0079c531659141344cd1fd0a4f28419497f9722a3daafe3b4186f6b6457e090600090a35050565b826001600160a01b03166139498261133f565b6001600160a01b0316146139c55760405162461bcd60e51b815260206004820152602560248201527f4552433732313a207472616e736665722066726f6d20696e636f72726563742060448201527f6f776e65720000000000000000000000000000000000000000000000000000006064820152608401610a2a565b6001600160a01b038216613a405760405162461bcd60e51b8152602060048201526024808201527f4552433732313a207472616e7366657220746f20746865207a65726f2061646460448201527f72657373000000000000000000000000000000000000000000000000000000006064820152608401610a2a565b826001600160a01b0316613a538261133f565b6001600160a01b031614613acf5760405162461bcd60e51b815260206004820152602560248201527f4552433732313a207472616e736665722066726f6d20696e636f72726563742060448201527f6f776e65720000000000000000000000000000000000000000000000000000006064820152608401610a2a565b6000818152609b60209081526040808320805473ffffffffffffffffffffffffffffffffffffffff199081169091556001600160a01b03878116808652609a8552838620805460001901905590871680865283862080546001019055868652609990945282852080549092168417909155905184937fddf252ad1be2c89b69c2b068fc378daa952ba7f163c4a11628f55a4df523b3ef91a4505050565b60006001600160a01b0384163b15613d02576040517f150b7a020000000000000000000000000000000000000000000000000000000081526001600160a01b0385169063150b7a0290613bc990339089908890889060040161469f565b6020604051808303816000875af1925050508015613c04575060408051601f3d908101601f19168201909252613c01918101906146db565b60015b613cb7573d808015613c32576040519150601f19603f3d011682016040523d82523d6000602084013e613c37565b606091505b508051600003613caf5760405162461bcd60e51b815260206004820152603260248201527f4552433732313a207472616e7366657220746f206e6f6e20455243373231526560448201527f63656976657220696d706c656d656e74657200000000000000000000000000006064820152608401610a2a565b805181602001fd5b7fffffffff00000000000000000000000000000000000000000000000000000000167f150b7a020000000000000000000000000000000000000000000000000000000014905061106e565b506001949350505050565b6000807a184f03e93ff9f4daa797ed6e38ed64bf6a1f0100000000000000008310613d56577a184f03e93ff9f4daa797ed6e38ed64bf6a1f010000000000000000830492506040015b6d04ee2d6d415b85acef81000000008310613d82576d04ee2d6d415b85acef8100000000830492506020015b662386f26fc100008310613da057662386f26fc10000830492506010015b6305f5e1008310613db8576305f5e100830492506008015b6127108310613dcc57612710830492506004015b60648310613dde576064830492506002015b600a83106108db5760010192915050565b606061106e848460008585600080866001600160a01b03168587604051613e1691906146f8565b60006040518083038185875af1925050503d8060008114613e53576040519150601f19603f3d011682016040523d82523d6000602084013e613e58565b606091505b5091509150613e6987838387613e74565b979650505050505050565b60608315613ee3578251600003613edc576001600160a01b0385163b613edc5760405162461bcd60e51b815260206004820152601d60248201527f416464726573733a2063616c6c20746f206e6f6e2d636f6e74726163740000006044820152606401610a2a565b508161106e565b61106e8383815115613ef85781518083602001fd5b8060405162461bcd60e51b8152600401610a2a9190613fad565b7fffffffff000000000000000000000000000000000000000000000000000000008116811461133c57600080fd5b600060208284031215613f5257600080fd5b813561141381613f12565b60005b83811015613f78578181015183820152602001613f60565b50506000910152565b60008151808452613f99816020860160208601613f5d565b601f01601f19169290920160200192915050565b6020815260006114136020830184613f81565b600060208284031215613fd257600080fd5b5035919050565b80356001600160a01b0381168114610b9b57600080fd5b6000806040838503121561400357600080fd5b61400c83613fd9565b946020939093013593505050565b60008060006060848603121561402f57600080fd5b61403884613fd9565b925061404660208501613fd9565b9150604084013590509250925092565b60008083601f84011261406857600080fd5b50813567ffffffffffffffff81111561408057600080fd5b6020830191508360208260051b850101111561409b57600080fd5b9250929050565b600080602083850312156140b557600080fd5b823567ffffffffffffffff8111156140cc57600080fd5b6140d885828601614056565b90969095509350505050565b6000602082840312156140f657600080fd5b61141382613fd9565b6000806040838503121561411257600080fd5b61411b83613fd9565b915061412960208401613fd9565b90509250929050565b600081518084526020808501945080840160005b8381101561416257815187529582019590820190600101614146565b509495945050505050565b82815260406020820152600061106e6040830184614132565b8051825260208101516141a460208401826001600160a01b03169052565b5060408101516040830152606081015160608301526080810151608083015260a081015160a083015260c081015160c083015260e081015160e08301526101008082015181840152506101208082015181840152505050565b61014081016108db8284614186565b60008060006040848603121561422157600080fd5b83359250602084013567ffffffffffffffff81111561423f57600080fd5b61424b86828701614056565b9497909650939450505050565b6020815260006114136020830184614132565b6000806040838503121561427e57600080fd5b50508035926020909101359150565b6020808252825182820181905260009190848201906040850190845b818110156142d0576142bc838551614186565b9284019261014092909201916001016142a9565b50909695505050505050565b801515811461133c57600080fd5b600080604083850312156142fd57600080fd5b61430683613fd9565b91506020830135614316816142dc565b809150509250929050565b634e487b7160e01b600052604160045260246000fd5b6000806000806080858703121561434d57600080fd5b61435685613fd9565b935061436460208601613fd9565b925060408501359150606085013567ffffffffffffffff8082111561438857600080fd5b818701915087601f83011261439c57600080fd5b8135818111156143ae576143ae614321565b604051601f8201601f19908116603f011681019083821181831017156143d6576143d6614321565b816040528281528a60208487010111156143ef57600080fd5b82602086016020830137600060208483010152809550505050505092959194509250565b600181811c9082168061442757607f821691505b60208210810361444757634e487b7160e01b600052602260045260246000fd5b50919050565b634e487b7160e01b600052601160045260246000fd5b818103818111156108db576108db61444d565b80820281158282048414176108db576108db61444d565b6000826144aa57634e487b7160e01b600052601260045260246000fd5b500490565b808201808211156108db576108db61444d565b634e487b7160e01b600052603260045260246000fd5b600060001982036144eb576144eb61444d565b5060010190565b60006020828403121561450457600080fd5b5051919050565b60007f07ffffffffffffffffffffffffffffffffffffffffffffffffffffffffffffff83111561453a57600080fd5b8260051b80858437919091019392505050565b6000835161455f818460208801613f5d565b835190830190614573818360208801613f5d565b01949350505050565b601f82111561043f57600081815260208120601f850160051c810160208610156145a35750805b601f850160051c820191505b81811015611637578281556001016145af565b815167ffffffffffffffff8111156145dc576145dc614321565b6145f0816145ea8454614413565b8461457c565b602080601f831160018114614625576000841561460d5750858301515b600019600386901b1c1916600185901b178555611637565b600085815260208120601f198616915b8281101561465457888601518255948401946001909101908401614635565b50858210156146725787850151600019600388901b60f8161c191681555b5050505050600190811b01905550565b60006020828403121561469457600080fd5b8151611413816142dc565b60006001600160a01b038087168352808616602084015250836040830152608060608301526146d16080830184613f81565b9695505050505050565b6000602082840312156146ed57600080fd5b815161141381613f12565b6000825161470a818460208701613f5d565b919091019291505056fea2646970667358221220a9c3a70a2297e3908bc559af227f0bd5e6e7dfd70a255d30df5d37d7217f96c564736f6c63430008120033",
  "linkReferences": {},
  "deployedLinkReferences": {}
}