{
  "_format": "hh-sol-artifact-1",
  "contractName": "StakedINTX",
  "sourceName": "contracts/StakedINTX.sol",
  "abi": [
    {
      "inputs": [],
      "stateMutability": "nonpayable",
      "type": "constructor"
    },
    {
      "anonymous": false,
      "inputs": [
        {
          "indexed": true,
          "internalType": "address",
          "name": "owner",
          "type": "address"
        },
        {
          "indexed": true,
          "internalType": "address",
          "name": "approved",
          "type": "address"
        },
        {
          "indexed": true,
          "internalType": "uint256",
          "name": "tokenId",
          "type": "uint256"
        }
      ],
      "name": "Approval",
      "type": "event"
    },
    {
      "anonymous": false,
      "inputs": [
        {
          "indexed": true,
          "internalType": "address",
          "name": "owner",
          "type": "address"
        },
        {
          "indexed": true,
          "internalType": "address",
          "name": "operator",
          "type": "address"
        },
        {
          "indexed": false,
          "internalType": "bool",
          "name": "approved",
          "type": "bool"
        }
      ],
      "name": "ApprovalForAll",
      "type": "event"
    },
    {
      "anonymous": false,
      "inputs": [
        {
          "indexed": true,
          "internalType": "address",
          "name": "owner",
          "type": "address"
        },
        {
          "indexed": true,
          "internalType": "uint256",
          "name": "tokenId",
          "type": "uint256"
        },
        {
          "indexed": false,
          "internalType": "uint256",
          "name": "amountBurned",
          "type": "uint256"
        },
        {
          "indexed": false,
          "internalType": "uint256",
          "name": "amountIntxOut",
          "type": "uint256"
        },
        {
          "indexed": false,
          "internalType": "uint256",
          "name": "amountIntxPenalized",
          "type": "uint256"
        },
        {
          "indexed": false,
          "internalType": "uint256",
          "name": "totalXINTXNew",
          "type": "uint256"
        }
      ],
      "name": "Burn",
      "type": "event"
    },
    {
      "anonymous": false,
      "inputs": [
        {
          "indexed": true,
          "internalType": "address",
          "name": "owner",
          "type": "address"
        },
        {
          "indexed": false,
          "internalType": "uint256",
          "name": "amountOut",
          "type": "uint256"
        },
        {
          "indexed": true,
          "internalType": "uint256[]",
          "name": "tokenIds",
          "type": "uint256[]"
        }
      ],
      "name": "Claim",
      "type": "event"
    },
    {
      "anonymous": false,
      "inputs": [
        {
          "indexed": false,
          "internalType": "uint8",
          "name": "version",
          "type": "uint8"
        }
      ],
      "name": "Initialized",
      "type": "event"
    },
    {
      "anonymous": false,
      "inputs": [
        {
          "indexed": true,
          "internalType": "address",
          "name": "owner",
          "type": "address"
        },
        {
          "indexed": true,
          "internalType": "uint256",
          "name": "tokenIdFrom",
          "type": "uint256"
        },
        {
          "indexed": false,
          "internalType": "uint256",
          "name": "tokenIdTo",
          "type": "uint256"
        },
        {
          "indexed": false,
          "internalType": "uint256",
          "name": "newBalance",
          "type": "uint256"
        },
        {
          "indexed": false,
          "internalType": "uint256",
          "name": "newLoyalSince",
          "type": "uint256"
        }
      ],
      "name": "Merge",
      "type": "event"
    },
    {
      "anonymous": false,
      "inputs": [
        {
          "indexed": true,
          "internalType": "address",
          "name": "from",
          "type": "address"
        },
        {
          "indexed": true,
          "internalType": "address",
          "name": "to",
          "type": "address"
        },
        {
          "indexed": true,
          "internalType": "uint256",
          "name": "tokenId",
          "type": "uint256"
        },
        {
          "indexed": false,
          "internalType": "uint256",
          "name": "amountMinted",
          "type": "uint256"
        },
        {
          "indexed": false,
          "internalType": "uint256",
          "name": "amountIntxIn",
          "type": "uint256"
        },
        {
          "indexed": false,
          "internalType": "uint256",
          "name": "totalXINTXNew",
          "type": "uint256"
        },
        {
          "indexed": false,
          "internalType": "uint256",
          "name": "newTotalWeight",
          "type": "uint256"
        }
      ],
      "name": "Mint",
      "type": "event"
    },
    {
      "anonymous": false,
      "inputs": [
        {
          "indexed": true,
          "internalType": "address",
          "name": "previousOwner",
          "type": "address"
        },
        {
          "indexed": true,
          "internalType": "address",
          "name": "newOwner",
          "type": "address"
        }
      ],
      "name": "OwnershipTransferStarted",
      "type": "event"
    },
    {
      "anonymous": false,
      "inputs": [
        {
          "indexed": true,
          "internalType": "address",
          "name": "previousOwner",
          "type": "address"
        },
        {
          "indexed": true,
          "internalType": "address",
          "name": "newOwner",
          "type": "address"
        }
      ],
      "name": "OwnershipTransferred",
      "type": "event"
    },
    {
      "anonymous": false,
      "inputs": [
        {
          "indexed": false,
          "internalType": "uint256",
          "name": "rewardAdded",
          "type": "uint256"
        }
      ],
      "name": "RewardAdded",
      "type": "event"
    },
    {
      "anonymous": false,
      "inputs": [
        {
          "indexed": true,
          "internalType": "address",
          "name": "owner",
          "type": "address"
        },
        {
          "indexed": true,
          "internalType": "uint256",
          "name": "tokenIdFrom",
          "type": "uint256"
        },
        {
          "indexed": false,
          "internalType": "uint256",
          "name": "tokenIdTo",
          "type": "uint256"
        },
        {
          "indexed": false,
          "internalType": "uint256",
          "name": "balanceSplitted",
          "type": "uint256"
        }
      ],
      "name": "Split",
      "type": "event"
    },
    {
      "anonymous": false,
      "inputs": [
        {
          "indexed": true,
          "internalType": "address",
          "name": "from",
          "type": "address"
        },
        {
          "indexed": true,
          "internalType": "address",
          "name": "to",
          "type": "address"
        },
        {
          "indexed": true,
          "internalType": "uint256",
          "name": "tokenId",
          "type": "uint256"
        }
      ],
      "name": "Transfer",
      "type": "event"
    },
    {
      "anonymous": false,
      "inputs": [
        {
          "indexed": false,
          "internalType": "uint256",
          "name": "intxBalance",
          "type": "uint256"
        },
        {
          "indexed": false,
          "internalType": "uint256",
          "name": "totalXINTX",
          "type": "uint256"
        },
        {
          "indexed": false,
          "internalType": "uint256",
          "name": "totalWeight",
          "type": "uint256"
        }
      ],
      "name": "statusEvent",
      "type": "event"
    },
    {
      "inputs": [],
      "name": "DURATION",
      "outputs": [
        {
          "internalType": "uint256",
          "name": "",
          "type": "uint256"
        }
      ],
      "stateMutability": "view",
      "type": "function"
    },
    {
      "inputs": [],
      "name": "INTX",
      "outputs": [
        {
          "internalType": "contract IERC20",
          "name": "",
          "type": "address"
        }
      ],
      "stateMutability": "view",
      "type": "function"
    },
    {
      "inputs": [],
      "name": "P",
      "outputs": [
        {
          "internalType": "uint256",
          "name": "",
          "type": "uint256"
        }
      ],
      "stateMutability": "view",
      "type": "function"
    },
    {
      "inputs": [],
      "name": "acceptOwnership",
      "outputs": [],
      "stateMutability": "nonpayable",
      "type": "function"
    },
    {
      "inputs": [
        {
          "internalType": "uint256",
          "name": "_intxAmount",
          "type": "uint256"
        },
        {
          "internalType": "uint256",
          "name": "tokenTo",
          "type": "uint256"
        }
      ],
      "name": "add",
      "outputs": [],
      "stateMutability": "nonpayable",
      "type": "function"
    },
    {
      "inputs": [
        {
          "internalType": "uint256",
          "name": "_tokenId",
          "type": "uint256"
        }
      ],
      "name": "amountStakedOf",
      "outputs": [
        {
          "internalType": "uint256",
          "name": "amount",
          "type": "uint256"
        }
      ],
      "stateMutability": "view",
      "type": "function"
    },
    {
      "inputs": [
        {
          "internalType": "address",
          "name": "to",
          "type": "address"
        },
        {
          "internalType": "uint256",
          "name": "tokenId",
          "type": "uint256"
        }
      ],
      "name": "approve",
      "outputs": [],
      "stateMutability": "nonpayable",
      "type": "function"
    },
    {
      "inputs": [
        {
          "internalType": "address",
          "name": "owner",
          "type": "address"
        }
      ],
      "name": "balanceOf",
      "outputs": [
        {
          "internalType": "uint256",
          "name": "",
          "type": "uint256"
        }
      ],
      "stateMutability": "view",
      "type": "function"
    },
    {
      "inputs": [
        {
          "internalType": "uint256",
          "name": "",
          "type": "uint256"
        }
      ],
      "name": "balanceOfId",
      "outputs": [
        {
          "internalType": "uint256",
          "name": "",
          "type": "uint256"
        }
      ],
      "stateMutability": "view",
      "type": "function"
    },
    {
      "inputs": [
        {
          "internalType": "uint256",
          "name": "_tokenId",
          "type": "uint256"
        }
      ],
      "name": "boostPercentageOf",
      "outputs": [
        {
          "internalType": "uint256",
          "name": "boostPercentage",
          "type": "uint256"
        }
      ],
      "stateMutability": "view",
      "type": "function"
    },
    {
      "inputs": [
        {
          "internalType": "uint256[]",
          "name": "_tokenIds",
          "type": "uint256[]"
        }
      ],
      "name": "claim",
      "outputs": [],
      "stateMutability": "nonpayable",
      "type": "function"
    },
    {
      "inputs": [],
      "name": "currentExchangeRate",
      "outputs": [
        {
          "internalType": "uint256",
          "name": "_exchangeRate",
          "type": "uint256"
        }
      ],
      "stateMutability": "view",
      "type": "function"
    },
    {
      "inputs": [
        {
          "internalType": "uint256[]",
          "name": "_tokenIds",
          "type": "uint256[]"
        }
      ],
      "name": "earned",
      "outputs": [
        {
          "internalType": "uint256",
          "name": "totalReward",
          "type": "uint256"
        },
        {
          "internalType": "uint256[]",
          "name": "claimableAmounts",
          "type": "uint256[]"
        }
      ],
      "stateMutability": "view",
      "type": "function"
    },
    {
      "inputs": [
        {
          "internalType": "uint256",
          "name": "_tokenId",
          "type": "uint256"
        }
      ],
      "name": "earned",
      "outputs": [
        {
          "internalType": "uint256",
          "name": "",
          "type": "uint256"
        }
      ],
      "stateMutability": "view",
      "type": "function"
    },
    {
      "inputs": [
        {
          "internalType": "uint256",
          "name": "tokenId",
          "type": "uint256"
        }
      ],
      "name": "getApproved",
      "outputs": [
        {
          "internalType": "address",
          "name": "",
          "type": "address"
        }
      ],
      "stateMutability": "view",
      "type": "function"
    },
    {
      "inputs": [
        {
          "internalType": "uint256",
          "name": "_tokenId",
          "type": "uint256"
        }
      ],
      "name": "getPositionInfo",
      "outputs": [
        {
          "components": [
            {
              "internalType": "uint256",
              "name": "tokenId",
              "type": "uint256"
            },
            {
              "internalType": "address",
              "name": "owner",
              "type": "address"
            },
            {
              "internalType": "uint256",
              "name": "balanceOfId",
              "type": "uint256"
            },
            {
              "internalType": "uint256",
              "name": "amountStakedOf",
              "type": "uint256"
            },
            {
              "internalType": "uint256",
              "name": "withdrawableAmountOf",
              "type": "uint256"
            },
            {
              "internalType": "uint256",
              "name": "loyalSince",
              "type": "uint256"
            },
            {
              "internalType": "uint256",
              "name": "boostPercentageOf",
              "type": "uint256"
            },
            {
              "internalType": "uint256",
              "name": "penaltyPercentageOf",
              "type": "uint256"
            },
            {
              "internalType": "uint256",
              "name": "penaltyAmountOf",
              "type": "uint256"
            },
            {
              "internalType": "uint256",
              "name": "pendingReward",
              "type": "uint256"
            },
            {
              "internalType": "uint256",
              "name": "lastWeightKnown",
              "type": "uint256"
            }
          ],
          "internalType": "struct StakedINTX.PositionInfo",
          "name": "_positionInfo",
          "type": "tuple"
        }
      ],
      "stateMutability": "view",
      "type": "function"
    },
    {
      "inputs": [
        {
          "internalType": "uint256[]",
          "name": "_tokenId",
          "type": "uint256[]"
        }
      ],
      "name": "getPositionsInfo",
      "outputs": [
        {
          "components": [
            {
              "internalType": "uint256",
              "name": "tokenId",
              "type": "uint256"
            },
            {
              "internalType": "address",
              "name": "owner",
              "type": "address"
            },
            {
              "internalType": "uint256",
              "name": "balanceOfId",
              "type": "uint256"
            },
            {
              "internalType": "uint256",
              "name": "amountStakedOf",
              "type": "uint256"
            },
            {
              "internalType": "uint256",
              "name": "withdrawableAmountOf",
              "type": "uint256"
            },
            {
              "internalType": "uint256",
              "name": "loyalSince",
              "type": "uint256"
            },
            {
              "internalType": "uint256",
              "name": "boostPercentageOf",
              "type": "uint256"
            },
            {
              "internalType": "uint256",
              "name": "penaltyPercentageOf",
              "type": "uint256"
            },
            {
              "internalType": "uint256",
              "name": "penaltyAmountOf",
              "type": "uint256"
            },
            {
              "internalType": "uint256",
              "name": "pendingReward",
              "type": "uint256"
            },
            {
              "internalType": "uint256",
              "name": "lastWeightKnown",
              "type": "uint256"
            }
          ],
          "internalType": "struct StakedINTX.PositionInfo[]",
          "name": "_positionInfo",
          "type": "tuple[]"
        }
      ],
      "stateMutability": "view",
      "type": "function"
    },
    {
      "inputs": [
        {
          "internalType": "address",
          "name": "_intx",
          "type": "address"
        },
        {
          "internalType": "address",
          "name": "_usdc",
          "type": "address"
        }
      ],
      "name": "initialize",
      "outputs": [],
      "stateMutability": "nonpayable",
      "type": "function"
    },
    {
      "inputs": [
        {
          "internalType": "address",
          "name": "owner",
          "type": "address"
        },
        {
          "internalType": "address",
          "name": "operator",
          "type": "address"
        }
      ],
      "name": "isApprovedForAll",
      "outputs": [
        {
          "internalType": "bool",
          "name": "",
          "type": "bool"
        }
      ],
      "stateMutability": "view",
      "type": "function"
    },
    {
      "inputs": [
        {
          "internalType": "uint256",
          "name": "_tokenId",
          "type": "uint256"
        }
      ],
      "name": "isRestrictedToken",
      "outputs": [
        {
          "internalType": "bool",
          "name": "isRestricted",
          "type": "bool"
        }
      ],
      "stateMutability": "view",
      "type": "function"
    },
    {
      "inputs": [],
      "name": "lastTimeRewardApplicable",
      "outputs": [
        {
          "internalType": "uint256",
          "name": "",
          "type": "uint256"
        }
      ],
      "stateMutability": "view",
      "type": "function"
    },
    {
      "inputs": [],
      "name": "lastTokenId",
      "outputs": [
        {
          "internalType": "uint256",
          "name": "",
          "type": "uint256"
        }
      ],
      "stateMutability": "view",
      "type": "function"
    },
    {
      "inputs": [],
      "name": "lastUpdateTime",
      "outputs": [
        {
          "internalType": "uint256",
          "name": "",
          "type": "uint256"
        }
      ],
      "stateMutability": "view",
      "type": "function"
    },
    {
      "inputs": [
        {
          "internalType": "uint256",
          "name": "",
          "type": "uint256"
        }
      ],
      "name": "loyalSince",
      "outputs": [
        {
          "internalType": "uint256",
          "name": "",
          "type": "uint256"
        }
      ],
      "stateMutability": "view",
      "type": "function"
    },
    {
      "inputs": [],
      "name": "loyaltyDuration",
      "outputs": [
        {
          "internalType": "uint256",
          "name": "",
          "type": "uint256"
        }
      ],
      "stateMutability": "view",
      "type": "function"
    },
    {
      "inputs": [],
      "name": "maxLoyaltyBoost",
      "outputs": [
        {
          "internalType": "uint256",
          "name": "",
          "type": "uint256"
        }
      ],
      "stateMutability": "view",
      "type": "function"
    },
    {
      "inputs": [],
      "name": "maxPenalty",
      "outputs": [
        {
          "internalType": "uint256",
          "name": "",
          "type": "uint256"
        }
      ],
      "stateMutability": "view",
      "type": "function"
    },
    {
      "inputs": [
        {
          "internalType": "uint256",
          "name": "_tokenFrom",
          "type": "uint256"
        },
        {
          "internalType": "uint256",
          "name": "tokenTo",
          "type": "uint256"
        }
      ],
      "name": "merge",
      "outputs": [],
      "stateMutability": "nonpayable",
      "type": "function"
    },
    {
      "inputs": [],
      "name": "minPenalty",
      "outputs": [
        {
          "internalType": "uint256",
          "name": "",
          "type": "uint256"
        }
      ],
      "stateMutability": "view",
      "type": "function"
    },
    {
      "inputs": [],
      "name": "name",
      "outputs": [
        {
          "internalType": "string",
          "name": "",
          "type": "string"
        }
      ],
      "stateMutability": "view",
      "type": "function"
    },
    {
      "inputs": [
        {
          "internalType": "uint256",
          "name": "_rewardAmount",
          "type": "uint256"
        }
      ],
      "name": "notifyReward",
      "outputs": [],
      "stateMutability": "nonpayable",
      "type": "function"
    },
    {
      "inputs": [],
      "name": "owner",
      "outputs": [
        {
          "internalType": "address",
          "name": "",
          "type": "address"
        }
      ],
      "stateMutability": "view",
      "type": "function"
    },
    {
      "inputs": [
        {
          "internalType": "uint256",
          "name": "tokenId",
          "type": "uint256"
        }
      ],
      "name": "ownerOf",
      "outputs": [
        {
          "internalType": "address",
          "name": "",
          "type": "address"
        }
      ],
      "stateMutability": "view",
      "type": "function"
    },
    {
      "inputs": [
        {
          "internalType": "uint256",
          "name": "_tokenId",
          "type": "uint256"
        }
      ],
      "name": "penaltyAmountOf",
      "outputs": [
        {
          "internalType": "uint256",
          "name": "penaltyAmount",
          "type": "uint256"
        }
      ],
      "stateMutability": "view",
      "type": "function"
    },
    {
      "inputs": [
        {
          "internalType": "uint256",
          "name": "_tokenId",
          "type": "uint256"
        }
      ],
      "name": "penaltyPercentageOf",
      "outputs": [
        {
          "internalType": "uint256",
          "name": "penaltyPercentage",
          "type": "uint256"
        }
      ],
      "stateMutability": "view",
      "type": "function"
    },
    {
      "inputs": [],
      "name": "pendingOwner",
      "outputs": [
        {
          "internalType": "address",
          "name": "",
          "type": "address"
        }
      ],
      "stateMutability": "view",
      "type": "function"
    },
    {
      "inputs": [
        {
          "internalType": "address",
          "name": "",
          "type": "address"
        }
      ],
      "name": "pendingRewards",
      "outputs": [
        {
          "internalType": "uint256",
          "name": "",
          "type": "uint256"
        }
      ],
      "stateMutability": "view",
      "type": "function"
    },
    {
      "inputs": [],
      "name": "periodFinish",
      "outputs": [
        {
          "internalType": "uint256",
          "name": "",
          "type": "uint256"
        }
      ],
      "stateMutability": "view",
      "type": "function"
    },
    {
      "inputs": [],
      "name": "renounceOwnership",
      "outputs": [],
      "stateMutability": "nonpayable",
      "type": "function"
    },
    {
      "inputs": [
        {
          "internalType": "uint256",
          "name": "",
          "type": "uint256"
        }
      ],
      "name": "restrictedToken",
      "outputs": [
        {
          "internalType": "uint8",
          "name": "",
          "type": "uint8"
        }
      ],
      "stateMutability": "view",
      "type": "function"
    },
    {
      "inputs": [],
      "name": "rewardPerWeight",
      "outputs": [
        {
          "internalType": "uint256",
          "name": "",
          "type": "uint256"
        }
      ],
      "stateMutability": "view",
      "type": "function"
    },
    {
      "inputs": [],
      "name": "rewardPerWeightStored",
      "outputs": [
        {
          "internalType": "uint256",
          "name": "",
          "type": "uint256"
        }
      ],
      "stateMutability": "view",
      "type": "function"
    },
    {
      "inputs": [],
      "name": "rewardRate",
      "outputs": [
        {
          "internalType": "uint256",
          "name": "",
          "type": "uint256"
        }
      ],
      "stateMutability": "view",
      "type": "function"
    },
    {
      "inputs": [],
      "name": "rewardToken",
      "outputs": [
        {
          "internalType": "contract IERC20",
          "name": "",
          "type": "address"
        }
      ],
      "stateMutability": "view",
      "type": "function"
    },
    {
      "inputs": [
        {
          "internalType": "address",
          "name": "from",
          "type": "address"
        },
        {
          "internalType": "address",
          "name": "to",
          "type": "address"
        },
        {
          "internalType": "uint256",
          "name": "tokenId",
          "type": "uint256"
        }
      ],
      "name": "safeTransferFrom",
      "outputs": [],
      "stateMutability": "nonpayable",
      "type": "function"
    },
    {
      "inputs": [
        {
          "internalType": "address",
          "name": "from",
          "type": "address"
        },
        {
          "internalType": "address",
          "name": "to",
          "type": "address"
        },
        {
          "internalType": "uint256",
          "name": "tokenId",
          "type": "uint256"
        },
        {
          "internalType": "bytes",
          "name": "data",
          "type": "bytes"
        }
      ],
      "name": "safeTransferFrom",
      "outputs": [],
      "stateMutability": "nonpayable",
      "type": "function"
    },
    {
      "inputs": [
        {
          "internalType": "address",
          "name": "operator",
          "type": "address"
        },
        {
          "internalType": "bool",
          "name": "approved",
          "type": "bool"
        }
      ],
      "name": "setApprovalForAll",
      "outputs": [],
      "stateMutability": "nonpayable",
      "type": "function"
    },
    {
      "inputs": [
        {
          "internalType": "address",
          "name": "_teamVestingContract",
          "type": "address"
        }
      ],
      "name": "setTeamVestingContract",
      "outputs": [],
      "stateMutability": "nonpayable",
      "type": "function"
    },
    {
      "inputs": [
        {
          "internalType": "uint256",
          "name": "_tokenId",
          "type": "uint256"
        },
        {
          "internalType": "uint256[]",
          "name": "_splitWeights",
          "type": "uint256[]"
        }
      ],
      "name": "split",
      "outputs": [
        {
          "internalType": "uint256[]",
          "name": "_tokenIds",
          "type": "uint256[]"
        }
      ],
      "stateMutability": "nonpayable",
      "type": "function"
    },
    {
      "inputs": [
        {
          "internalType": "uint256",
          "name": "_intxAmount",
          "type": "uint256"
        }
      ],
      "name": "stake",
      "outputs": [
        {
          "internalType": "uint256",
          "name": "_tokenId",
          "type": "uint256"
        }
      ],
      "stateMutability": "nonpayable",
      "type": "function"
    },
    {
      "inputs": [
        {
          "internalType": "address",
          "name": "_to",
          "type": "address"
        },
        {
          "internalType": "uint256",
          "name": "_intxAmount",
          "type": "uint256"
        }
      ],
      "name": "stakeFor",
      "outputs": [
        {
          "internalType": "uint256",
          "name": "_tokenId",
          "type": "uint256"
        }
      ],
      "stateMutability": "nonpayable",
      "type": "function"
    },
    {
      "inputs": [
        {
          "internalType": "bytes4",
          "name": "interfaceId",
          "type": "bytes4"
        }
      ],
      "name": "supportsInterface",
      "outputs": [
        {
          "internalType": "bool",
          "name": "",
          "type": "bool"
        }
      ],
      "stateMutability": "view",
      "type": "function"
    },
    {
      "inputs": [],
      "name": "symbol",
      "outputs": [
        {
          "internalType": "string",
          "name": "",
          "type": "string"
        }
      ],
      "stateMutability": "view",
      "type": "function"
    },
    {
      "inputs": [],
      "name": "teamVestingContract",
      "outputs": [
        {
          "internalType": "address",
          "name": "",
          "type": "address"
        }
      ],
      "stateMutability": "view",
      "type": "function"
    },
    {
      "inputs": [
        {
          "internalType": "uint256",
          "name": "tokenId",
          "type": "uint256"
        }
      ],
      "name": "tokenURI",
      "outputs": [
        {
          "internalType": "string",
          "name": "",
          "type": "string"
        }
      ],
      "stateMutability": "view",
      "type": "function"
    },
    {
      "inputs": [],
      "name": "totalWeight",
      "outputs": [
        {
          "internalType": "uint256",
          "name": "",
          "type": "uint256"
        }
      ],
      "stateMutability": "view",
      "type": "function"
    },
    {
      "inputs": [],
      "name": "totalXINTX",
      "outputs": [
        {
          "internalType": "uint256",
          "name": "",
          "type": "uint256"
        }
      ],
      "stateMutability": "view",
      "type": "function"
    },
    {
      "inputs": [
        {
          "internalType": "address",
          "name": "from",
          "type": "address"
        },
        {
          "internalType": "address",
          "name": "to",
          "type": "address"
        },
        {
          "internalType": "uint256",
          "name": "tokenId",
          "type": "uint256"
        }
      ],
      "name": "transferFrom",
      "outputs": [],
      "stateMutability": "nonpayable",
      "type": "function"
    },
    {
      "inputs": [
        {
          "internalType": "address",
          "name": "newOwner",
          "type": "address"
        }
      ],
      "name": "transferOwnership",
      "outputs": [],
      "stateMutability": "nonpayable",
      "type": "function"
    },
    {
      "inputs": [
        {
          "internalType": "uint256",
          "name": "_tokenId",
          "type": "uint256"
        }
      ],
      "name": "unstake",
      "outputs": [
        {
          "internalType": "uint256",
          "name": "_intxAmountOut",
          "type": "uint256"
        }
      ],
      "stateMutability": "nonpayable",
      "type": "function"
    },
    {
      "inputs": [
        {
          "internalType": "uint256",
          "name": "_tokenId",
          "type": "uint256"
        },
        {
          "internalType": "uint256",
          "name": "_xIntxAmountWithdraw",
          "type": "uint256"
        }
      ],
      "name": "unstakePartially",
      "outputs": [
        {
          "internalType": "uint256",
          "name": "_intxAmountOut",
          "type": "uint256"
        },
        {
          "internalType": "uint256",
          "name": "_newTokenId",
          "type": "uint256"
        }
      ],
      "stateMutability": "nonpayable",
      "type": "function"
    },
    {
      "inputs": [
        {
          "internalType": "uint256[]",
          "name": "_tokenIds",
          "type": "uint256[]"
        }
      ],
      "name": "updateWeights",
      "outputs": [],
      "stateMutability": "nonpayable",
      "type": "function"
    },
    {
      "inputs": [
        {
          "internalType": "uint256",
          "name": "_tokenId",
          "type": "uint256"
        }
      ],
      "name": "withdrawableAmountOf",
      "outputs": [
        {
          "internalType": "uint256",
          "name": "withdrawableAmount",
          "type": "uint256"
        }
      ],
      "stateMutability": "view",
      "type": "function"
    }
  ],
  "bytecode": "0x60806040523480156200001157600080fd5b506200001c62000022565b620000e3565b600054610100900460ff16156200008f5760405162461bcd60e51b815260206004820152602760248201527f496e697469616c697a61626c653a20636f6e747261637420697320696e697469604482015266616c697a696e6760c81b606482015260840160405180910390fd5b60005460ff90811614620000e1576000805460ff191660ff9081179091556040519081527f7f26b83ff96e1f2b6a682f133852f6798a09c465da95921460cefb38474024989060200160405180910390a15b565b614dd280620000f36000396000f3fe608060405234801561001057600080fd5b50600436106103c55760003560e01c806379ba5097116101ff578063c205f3411161011a578063e30c3978116100ad578063f290dfa71161007c578063f290dfa71461086a578063f2fde38b14610892578063f7c618c1146108a5578063f84ddf0b146108b957600080fd5b8063e30c3978146107ff578063e985e9c514610810578063ebe2b12b1461084c578063ef7297de1461085657600080fd5b8063d1a249ab116100e9578063d1a249ab146107bb578063d1c2babb146107c5578063d975dfed146107d8578063df2e0b97146107eb57600080fd5b8063c205f3411461076a578063c87b56dd1461077d578063c8f33c9114610790578063cfd0e1251461079a57600080fd5b8063988dc31e11610192578063a345280a11610161578063a345280a14610729578063a36849771461073c578063a694fc3a14610744578063b88d4fde1461075757600080fd5b8063988dc31e146106cf578063a00ea0c5146106e2578063a1c95e5a146106f5578063a22cb4651461071657600080fd5b80638da5cb5b116101ce5780638da5cb5b1461068c5780638fca5a591461069d57806395d89b41146106bd57806396c82e57146106c557600080fd5b806379ba5097146106635780637b0a47ee1461066b57806380faa57d146106755780638b8fbd921461067d57600080fd5b806342842e0e116102ef57806360993b5b116102825780636ba4c138116102515780636ba4c1381461062257806370a0823114610635578063715018a614610648578063771602f71461065057600080fd5b806360993b5b146105c95780636352211e146105dc578063645bfd9a146105ef57806369c672471461060257600080fd5b8063519f5099116102be578063519f5099146105825780635200e79e146105a2578063520bf08a146105ac5780635a48a97f146105b657600080fd5b806342842e0e14610528578063485cc9551461053b5780634d62f5901461054e5780634d6ed8c41461056f57600080fd5b80632212b806116103675780632ee40908116103365780632ee40908146104d757806330f91619146104ea57806331d7a262146104fd5780633228dd591461051e57600080fd5b80632212b8061461049f57806323b872dd146104a95780632ac3f450146104bc5780632e17de78146104c457600080fd5b806308d9788d116103a357806308d9788d14610432578063095ea7b3146104685780630eba98491461047d5780631be052891461049557600080fd5b806301ffc9a7146103ca57806306fdde03146103f2578063081812fc14610407575b600080fd5b6103dd6103d83660046145bc565b6108c3565b60405190151581526020015b60405180910390f35b6103fa6109a8565b6040516103e99190614629565b61041a61041536600461463c565b610a3a565b6040516001600160a01b0390911681526020016103e9565b61045661044036600461463c565b6101406020526000908152604090205460ff1681565b60405160ff90911681526020016103e9565b61047b61047636600461466c565b610a61565b005b6104876101325481565b6040519081526020016103e9565b61048762093a8081565b6104876101305481565b61047b6104b7366004614696565b610b97565b610487610c1e565b6104876104d236600461463c565b610cea565b6104876104e536600461466c565b610d80565b61047b6104f836600461471e565b610dc6565b61048761050b366004614760565b61013f6020526000908152604090205481565b6104876101365481565b61047b610536366004614696565b610e0e565b61047b61054936600461477b565b610e29565b61056161055c36600461471e565b6110df565b6040516103e99291906147e9565b61048761057d36600461463c565b61119f565b61059561059036600461463c565b611210565b6040516103e99190614885565b6104876101315481565b61048761012e5481565b6104876105c436600461463c565b61127f565b61047b6105d736600461463c565b6112c7565b61041a6105ea36600461463c565b6114a8565b6104876105fd36600461463c565b61150d565b610615610610366004614894565b611533565b6040516103e991906148e0565b61047b61063036600461471e565b6115f8565b610487610643366004614760565b61180d565b61047b6118a7565b61047b61065e3660046148f3565b6118b1565b61047b611974565b6104876101355481565b6104876119ff565b610487670de0b6b3a764000081565b60c9546001600160a01b031661041a565b6106b06106ab36600461471e565b611a13565b6040516103e99190614915565b6103fa611b2d565b6104876101375481565b6104876106dd36600461463c565b611b3c565b6104876106f036600461463c565b611b62565b61048761070336600461463c565b61013b6020526000908152604090205481565b61047b610724366004614972565b611b88565b6103dd61073736600461463c565b611b97565b610487611bc5565b61048761075236600461463c565b611bcf565b61047b6107653660046149bf565b611bdc565b61047b610778366004614760565b611c6a565b6103fa61078b36600461463c565b611d22565b6104876101335481565b6104876107a836600461463c565b61013a6020526000908152604090205481565b61048761012f5481565b61047b6107d33660046148f3565b611d95565b6104876107e636600461463c565b611e38565b6101385461041a906001600160a01b031681565b60fb546001600160a01b031661041a565b6103dd61081e36600461477b565b6001600160a01b039182166000908152609c6020908152604080832093909416825291909152205460ff1690565b6104876101345481565b6101415461041a906001600160a01b031681565b61087d6108783660046148f3565b611e80565b604080519283526020830191909152016103e9565b61047b6108a0366004614760565b61204f565b6101395461041a906001600160a01b031681565b61048761012d5481565b60007fffffffff0000000000000000000000000000000000000000000000000000000082167f80ac58cd00000000000000000000000000000000000000000000000000000000148061095657507fffffffff0000000000000000000000000000000000000000000000000000000082167f5b5e139f00000000000000000000000000000000000000000000000000000000145b806109a257507f01ffc9a7000000000000000000000000000000000000000000000000000000007fffffffff000000000000000000000000000000000000000000000000000000008316145b92915050565b6060609780546109b790614a9b565b80601f01602080910402602001604051908101604052809291908181526020018280546109e390614a9b565b8015610a305780601f10610a0557610100808354040283529160200191610a30565b820191906000526020600020905b815481529060010190602001808311610a1357829003601f168201915b5050505050905090565b6000610a45826120cd565b506000908152609b60205260409020546001600160a01b031690565b6000610a6c826114a8565b9050806001600160a01b0316836001600160a01b031603610afa5760405162461bcd60e51b815260206004820152602160248201527f4552433732313a20617070726f76616c20746f2063757272656e74206f776e6560448201527f720000000000000000000000000000000000000000000000000000000000000060648201526084015b60405180910390fd5b336001600160a01b0382161480610b165750610b16813361081e565b610b885760405162461bcd60e51b815260206004820152603d60248201527f4552433732313a20617070726f76652063616c6c6572206973206e6f7420746f60448201527f6b656e206f776e6572206f7220617070726f76656420666f7220616c6c0000006064820152608401610af1565b610b928383612131565b505050565b610ba133826121ac565b610c135760405162461bcd60e51b815260206004820152602d60248201527f4552433732313a2063616c6c6572206973206e6f7420746f6b656e206f776e6560448201527f72206f7220617070726f766564000000000000000000000000000000000000006064820152608401610af1565b610b9283838361222b565b600061013754600003610c3357506101365490565b60006101375411610c865760405162461bcd60e51b815260206004820152601060248201527f496e636f727265637420776569676874000000000000000000000000000000006044820152606401610af1565b600061013354610c946119ff565b610c9e9190614aeb565b9050610137546101355482610cb39190614afe565b610ccc906ec097ce7bc90715b34b9f1000000000614afe565b610cd69190614b15565b61013654610ce49190614b37565b91505090565b6000610cf582611b97565b15610d685760405162461bcd60e51b815260206004820152603a60248201527f5468697320746f6b656e20697320726573747269637465642c20796f7520636160448201527f6e277420756e7374616b652f7472616e736665722f73706c69740000000000006064820152608401610af1565b610d71826122b4565b9050610d7b61257b565b919050565b6000610d8d3384846125cc565b610141549091506001600160a01b03163303610dbe57600081815261014060205260409020805460ff191660011790555b6109a261257b565b8060005b81811015610e0557610df3848483818110610de757610de7614b4a565b90506020020135612785565b80610dfd81614b60565b915050610dca565b50610b9261257b565b610b9283838360405180602001604052806000815250611bdc565b600054610100900460ff1615808015610e495750600054600160ff909116105b80610e635750303b158015610e63575060005460ff166001145b610ed55760405162461bcd60e51b815260206004820152602e60248201527f496e697469616c697a61626c653a20636f6e747261637420697320616c72656160448201527f647920696e697469616c697a65640000000000000000000000000000000000006064820152608401610af1565b6000805460ff191660011790558015610ef8576000805461ff0019166101001790555b610f0061284b565b610f746040518060400160405280600b81526020017f5374616b656420494e54580000000000000000000000000000000000000000008152506040518060400160405280600581526020017f58494e54580000000000000000000000000000000000000000000000000000008152506128be565b610f7c612933565b6001600160a01b038316610fd25760405162461bcd60e51b815260206004820152601460248201527f43616e27742075736520307820616464726573730000000000000000000000006044820152606401610af1565b6001600160a01b0382166110285760405162461bcd60e51b815260206004820152601460248201527f43616e27742075736520307820616464726573730000000000000000000000006044820152606401610af1565b61013880546001600160a01b0380861673ffffffffffffffffffffffffffffffffffffffff19928316179092556101398054928516929091169190911790556293a80061012f556722b1c8c1227a0000610130556703782dace9d9000061013155662386f26fc10000610132558015610b92576000805461ff0019169055604051600181527f7f26b83ff96e1f2b6a682f133852f6798a09c465da95921460cefb38474024989060200160405180910390a1505050565b60006060828067ffffffffffffffff8111156110fd576110fd6149a9565b604051908082528060200260200182016040528015611126578160200160208202803683370190505b50915060005b8181101561119657600061115787878481811061114b5761114b614b4a565b9050602002013561119f565b90506111638186614b37565b94508084838151811061117857611178614b4a565b6020908102919091010152508061118e81614b60565b91505061112c565b50509250929050565b600081815261013c602090815260408083205461013e83528184205461013d909352908320549091906ec097ce7bc90715b34b9f1000000000906111e1610c1e565b6111eb9190614aeb565b6111f59084614afe565b6111ff9190614b15565b6112099190614b37565b9392505050565b6112766040518061016001604052806000815260200160006001600160a01b031681526020016000815260200160008152602001600081526020016000815260200160008152602001600081526020016000815260200160008152602001600081525090565b6109a2826129a6565b60008061128b83612b0b565b9050600061129884612b39565b905081156112c057670de0b6b3a76400006112b38284614afe565b6112bd9190614b15565b92505b5050919050565b6112cf612be2565b6112d7612c3b565b6112e16000612785565b6112fa33610139546001600160a01b0316903084612c95565b61013454421061131a5761131162093a8082614b15565b6101355561135f565b6000426101345461132b9190614aeb565b90506000610135548261133e9190614afe565b905062093a8061134e8285614b37565b6113589190614b15565b6101355550505b610139546040517f70a082310000000000000000000000000000000000000000000000000000000081523060048201526000916001600160a01b0316906370a0823190602401602060405180830381865afa1580156113c2573d6000803e3d6000fd5b505050506040513d601f19601f820116820180604052508101906113e69190614b7a565b90506113f562093a8082614b15565b6101355411156114475760405162461bcd60e51b815260206004820152601860248201527f50726f76696465642072657761726420746f6f206869676800000000000000006044820152606401610af1565b4261013381905561145c9062093a8090614b37565b610134556040518281527fde88a922e0d3b88b24e9623efeb464919c6bf9f66857a65e2bfcf2ce87a9433d9060200160405180910390a161149b61257b565b506114a560018055565b50565b6000818152609960205260408120546001600160a01b0316806109a25760405162461bcd60e51b815260206004820152601860248201527f4552433732313a20696e76616c696420746f6b656e20494400000000000000006044820152606401610af1565b6000818152609960205260408120546001600160a01b031615610d7b576109a282612d4c565b606061153e84611b97565b156115b15760405162461bcd60e51b815260206004820152603a60248201527f5468697320746f6b656e20697320726573747269637465642c20796f7520636160448201527f6e277420756e7374616b652f7472616e736665722f73706c69740000000000006064820152608401610af1565b6115ee84848480806020026020016040519081016040528093929190818152602001838360200280828437600092019190915250612de992505050565b905061120961257b565b33600090815261013f60205260408120548291908190815b848110156117765786868281811061162a5761162a614b4a565b905060200201359350611654846000908152609960205260409020546001600160a01b0316151590565b6116a05760405162461bcd60e51b815260206004820152601c60248201527f5468697320706f736974696f6e20646f65736e27742065786973742e000000006044820152606401610af1565b6000848152609960205260409020546001600160a01b0316925033831461172f5760405162461bcd60e51b815260206004820152602760248201527f596f7520617265206e6f7420746865206f776e6572206f66207468697320706f60448201527f736974696f6e2e000000000000000000000000000000000000000000000000006064820152608401610af1565b61173884612785565b600084815261013e60205260409020546117529083614b37565b600085815261013e602052604081205591508061176e81614b60565b915050611610565b5033600081815261013f6020526040812055610139546117a2916001600160a01b03909116908361333d565b85856040516117b2929190614b93565b6040518091039020826001600160a01b03167f916f43dce61aa4c4d8761c25ddcacfe178ea96a18f68d2775354bbc06be75aaa836040516117f591815260200190565b60405180910390a361180561257b565b505050505050565b60006001600160a01b03821661188b5760405162461bcd60e51b815260206004820152602960248201527f4552433732313a2061646472657373207a65726f206973206e6f74206120766160448201527f6c6964206f776e657200000000000000000000000000000000000000000000006064820152608401610af1565b506001600160a01b03166000908152609a602052604090205490565b6118af612c3b565b565b6118ba81611b97565b156119535760405162461bcd60e51b815260206004820152605260248201527f5468697320746f6b656e20697320726573747269637465642c20796f7520636160448201527f6e27742061646420696e747820746f2069742c206372656174652061206e657760648201527f20706f736974696f6e20696e73746561642e0000000000000000000000000000608482015260a401610af1565b60006119603333856125cc565b905061196c8183613386565b610b9261257b565b60fb5433906001600160a01b031681146119f65760405162461bcd60e51b815260206004820152602960248201527f4f776e61626c6532537465703a2063616c6c6572206973206e6f74207468652060448201527f6e6577206f776e657200000000000000000000000000000000000000000000006064820152608401610af1565b6114a5816137d1565b6000611a0e42610134546137f7565b905090565b6060818067ffffffffffffffff811115611a2f57611a2f6149a9565b604051908082528060200260200182016040528015611ac657816020015b611ab36040518061016001604052806000815260200160006001600160a01b031681526020016000815260200160008152602001600081526020016000815260200160008152602001600081526020016000815260200160008152602001600081525090565b815260200190600190039081611a4d5790505b50915060005b81811015611b2557611af5858583818110611ae957611ae9614b4a565b905060200201356129a6565b838281518110611b0757611b07614b4a565b60200260200101819052508080611b1d90614b60565b915050611acc565b505092915050565b6060609880546109b790614a9b565b6000818152609960205260408120546001600160a01b031615610d7b576109a282612b39565b6000818152609960205260408120546001600160a01b031615610d7b576109a282612b0b565b611b9333838361380d565b5050565b6000818152610140602052604081205460ff16600103610d7b576368383020421015610d7b57506001919050565b6000611a0e6138db565b6000610d713333846125cc565b611be633836121ac565b611c585760405162461bcd60e51b815260206004820152602d60248201527f4552433732313a2063616c6c6572206973206e6f7420746f6b656e206f776e6560448201527f72206f7220617070726f766564000000000000000000000000000000000000006064820152608401610af1565b611c648484848461391e565b50505050565b611c72612c3b565b610141546001600160a01b031615611cf25760405162461bcd60e51b815260206004820152602d60248201527f5465616d2076657374696e6720636f6e747261637420697320616c726561647960448201527f20696e697469616c697a65642e000000000000000000000000000000000000006064820152608401610af1565b610141805473ffffffffffffffffffffffffffffffffffffffff19166001600160a01b0392909216919091179055565b6060611d2d826120cd565b6000611d4460408051602081019091526000815290565b90506000815111611d645760405180602001604052806000815250611209565b80611d6e846139a7565b604051602001611d7f929190614bd5565b6040516020818303038152906040529392505050565b600081815261014060205260408082205484835291205460ff908116911614611e265760405162461bcd60e51b815260206004820152602c60248201527f596f752063616e2774206d6572676520746f6b656e732077697468206469666660448201527f6572656e742074797065732e00000000000000000000000000000000000000006064820152608401610af1565b611e308282613386565b611b9361257b565b600080611e4483612b0b565b90506000611e5184612b39565b905081156112c057670de0b6b3a7640000611e6c8284614afe565b611e769190614b15565b6112bd9083614aeb565b600080611e8c84611b97565b15611eff5760405162461bcd60e51b815260206004820152603a60248201527f5468697320746f6b656e20697320726573747269637465642c20796f7520636160448201527f6e277420756e7374616b652f7472616e736665722f73706c69740000000000006064820152608401610af1565b600084815261013b6020526040902054838111611f845760405162461bcd60e51b815260206004820152602e60248201527f596f752063616e2774207061727469616c6c79207769746864726177206d6f7260448201527f65207468616e20796f75206f776e0000000000000000000000000000000000006064820152608401610af1565b6040805160028082526060820183526000926020830190803683370190505090508481600081518110611fb957611fb9614b4a565b6020908102919091010152611fce8583614aeb565b81600181518110611fe157611fe1614b4a565b6020026020010181815250506000611ff98783612de9565b905061201e8160008151811061201157612011614b4a565b60200260200101516122b4565b94508060018151811061203357612033614b4a565b6020026020010151935061204561257b565b5050509250929050565b612057612c3b565b60fb80546001600160a01b03831673ffffffffffffffffffffffffffffffffffffffff19909116811790915561209560c9546001600160a01b031690565b6001600160a01b03167f38d16b8cac22d99fc7c124b9cd0de2d3fa1faef420bfe791d8c362d765e2270060405160405180910390a350565b6000818152609960205260409020546001600160a01b03166114a55760405162461bcd60e51b815260206004820152601860248201527f4552433732313a20696e76616c696420746f6b656e20494400000000000000006044820152606401610af1565b6000818152609b60205260409020805473ffffffffffffffffffffffffffffffffffffffff19166001600160a01b0384169081179091558190612173826114a8565b6001600160a01b03167f8c5be1e5ebec7d5bd14f71427d1e84f3dd0314c0f7b2291e5b200ac8c7c3b92560405160405180910390a45050565b6000806121b8836114a8565b9050806001600160a01b0316846001600160a01b031614806121ff57506001600160a01b038082166000908152609c602090815260408083209388168352929052205460ff165b806122235750836001600160a01b031661221884610a3a565b6001600160a01b0316145b949350505050565b61223481611b97565b156122a9576040805162461bcd60e51b81526020600482015260248101919091527f5468697320746f6b656e20697320726573747269637465642c20796f7520636160448201527f6e277420756e7374616b652f7472616e736665722f6d657267652f73706c69746064820152608401610af1565b610b92838383613a47565b60006122be612be2565b6000828152609960205260409020546001600160a01b03166123225760405162461bcd60e51b815260206004820152601c60248201527f5468697320706f736974696f6e20646f65736e27742065786973742e000000006044820152606401610af1565b6000828152609960205260409020546001600160a01b03163381146123895760405162461bcd60e51b815260206004820152601360248201527f4e6f7420796f75722078494e5458204e46542e000000000000000000000000006044820152606401610af1565b61239283612785565b600083815261013b602052604081205490670de0b6b3a76400006123b586612d4c565b6123bf9084614afe565b6123c99190614b15565b905060006123d56138db565b90506000670de0b6b3a76400006123ec8386614afe565b6123f69190614b15565b90506000670de0b6b3a764000061240c89612b39565b6124169084614afe565b6124209190614b15565b905061242c8183614aeb565b600089815261013e60205260409020549097501561248257600088815261013e60209081526040808320546001600160a01b038a16845261013f909252822080549192909161247c908490614b37565b90915550505b600088815261013a6020908152604080832083905561013b825280832083905561013c825280832083905561013d825280832083905561013e9091528120556124ca88613c7d565b8461012e60008282546124dd9190614aeb565b925050819055508361013760008282546124f79190614aeb565b909155505061013854612514906001600160a01b0316878961333d565b61012e5460408051878152602081018a905280820184905260608101929092525189916001600160a01b038916917f44bd20a79e993bdcc7cbedf54a3b4d19fb78490124b6b90d04fe3242eea579e89181900360800190a3505050505050610d7b60018055565b7fb7ed67a7a04c3ac1ec8c35b581007f013b24a305093b7ffc2dc2dffd12cc4a6c6125a4613d1f565b61012e54610137546040805193845260208401929092529082015260600160405180910390a1565b60006125d6612be2565b600082116126265760405162461bcd60e51b815260206004820152601360248201527f43616e2774207374616b65203020696e74582e000000000000000000000000006044820152606401610af1565b60006126306138db565b6101385490915061264c906001600160a01b0316863086612c95565b61012d805490600061265d83614b60565b919050555061266f8461012d54613da6565b61267b61012d54612785565b600081612690670de0b6b3a764000086614afe565b61269a9190614b15565b61012d8054600090815261013a602090815260408083204290559254825261013b905290812082905561012e805492935083929091906126db908490614b37565b925050819055508061013760008282546126f59190614b37565b909155505061012d8054600090815261013c6020908152604091829020849055915461012e54610137548351868152948501899052928401526060830191909152906001600160a01b0380881691908916907f52c6b7a228763dc832bef1e2dee48707b24b8f1400a6335b3af6d5def4f5bb219060800160405180910390a461012d549250505061120960018055565b61278d610c1e565b610136556127996119ff565b6101335580156114a5576127ac8161119f565b600082815261013e6020526040812091909155670de0b6b3a76400006127d183612d4c565b600084815261013b60205260409020546127eb9190614afe565b6127f59190614b15565b600083815261013c60205260409020546101375491925082916128189190614aeb565b6128229190614b37565b61013755600091825261013c60209081526040808420929092556101365461013d909152912055565b600054610100900460ff166128b65760405162461bcd60e51b815260206004820152602b60248201527f496e697469616c697a61626c653a20636f6e7472616374206973206e6f74206960448201526a6e697469616c697a696e6760a81b6064820152608401610af1565b6118af613f3e565b600054610100900460ff166129295760405162461bcd60e51b815260206004820152602b60248201527f496e697469616c697a61626c653a20636f6e7472616374206973206e6f74206960448201526a6e697469616c697a696e6760a81b6064820152608401610af1565b611b938282613fa9565b600054610100900460ff1661299e5760405162461bcd60e51b815260206004820152602b60248201527f496e697469616c697a61626c653a20636f6e7472616374206973206e6f74206960448201526a6e697469616c697a696e6760a81b6064820152608401610af1565b6118af61402d565b612a0c6040518061016001604052806000815260200160006001600160a01b031681526020016000815260200160008152602001600081526020016000815260200160008152602001600081526020016000815260200160008152602001600081525090565b6000612a1783612b0b565b90506000612a2484612b39565b8484526000858152609960209081526040808320546001600160a01b03168288015287835261013b909152908190205490850152606084018390529050670de0b6b3a7640000612a748284614afe565b612a7e9190614b15565b612a889083614aeb565b6080840152600084815261013a602052604090205460a0840152612aab84612d4c565b60c084015260e08301819052670de0b6b3a7640000612aca8284614afe565b612ad49190614b15565b6101008401525050600082815261013e602090815260408083205461012085015293825261013c9052919091205461014082015290565b600081815261013b602052604081205481612b246138db565b9050670de0b6b3a76400006112b38284614afe565b600081815261013a6020526040812054808203612b595750600092915050565b6000612b658242614aeb565b905061012f54811115612b78575061012f545b670de0b6b3a76400006101315461012f54670de0b6b3a764000084612b9d9190614afe565b612ba79190614b15565b612bb19190614afe565b612bbb9190614b15565b61013154612bc99190614aeb565b9250610132548310156112c05750506101325492915050565b600260015403612c345760405162461bcd60e51b815260206004820152601f60248201527f5265656e7472616e637947756172643a207265656e7472616e742063616c6c006044820152606401610af1565b6002600155565b60c9546001600160a01b031633146118af5760405162461bcd60e51b815260206004820181905260248201527f4f776e61626c653a2063616c6c6572206973206e6f7420746865206f776e65726044820152606401610af1565b6040516001600160a01b0380851660248301528316604482015260648101829052611c649085907f23b872dd00000000000000000000000000000000000000000000000000000000906084015b60408051601f198184030181529190526020810180517bffffffffffffffffffffffffffffffffffffffffffffffffffffffff167fffffffff00000000000000000000000000000000000000000000000000000000909316929092179091526140a1565b60018055565b600081815261013a6020526040812054808203612d6c5750600092915050565b6000612d788242614aeb565b905061012f54811115612d8b575061012f545b670de0b6b3a76400008061013054612da39190614aeb565b61012f54612db9670de0b6b3a764000085614afe565b612dc39190614b15565b612dcd9190614afe565b612dd79190614b15565b6112bd90670de0b6b3a7640000614b37565b6060612df3612be2565b6000838152609960205260409020546001600160a01b0316612e575760405162461bcd60e51b815260206004820152601c60248201527f5468697320706f736974696f6e20646f65736e27742065786973742e000000006044820152606401610af1565b6000838152609960205260409020546001600160a01b0316338114612ebe5760405162461bcd60e51b815260206004820152601360248201527f4e6f7420796f75722078494e5458204e46542e000000000000000000000000006044820152606401610af1565b825160018111612f365760405162461bcd60e51b815260206004820152602c60248201527f596f752063616e27742073706c697420746869732058494e5458206c6573732060448201527f7468616e20322074696d657300000000000000000000000000000000000000006064820152608401610af1565b600a811115612fad5760405162461bcd60e51b815260206004820152602d60248201527f596f752063616e27742073706c697420746869732058494e5458206d6f72652060448201527f7468616e2031302074696d6573000000000000000000000000000000000000006064820152608401610af1565b8067ffffffffffffffff811115612fc657612fc66149a9565b604051908082528060200260200182016040528015612fef578160200160208202803683370190505b509250612ffb85612785565b600085815261013b602090815260408083205461013a83528184205461013d9093529083205461012e80549293928491908690613039908490614aeb565b9091555050600089815261013c6020526040812054610137805491929091613062908490614aeb565b90915550600090505b858110156130ac5788818151811061308557613085614b4a565b6020026020010151856130989190614b37565b9450806130a481614b60565b91505061306b565b5060005b8581101561329257600085858b84815181106130ce576130ce614b4a565b60200260200101516130e09190614afe565b6130ea9190614b15565b90506000811161313c5760405162461bcd60e51b815260206004820152601460248201527f43616e27742073706c697420302078494e54582e0000000000000000000000006044820152606401610af1565b61012d805490600061314d83614b60565b919050555061315f8861012d54613da6565b61012d5489838151811061317557613175614b4a565b60209081029190910181019190915261012d8054600090815261013a835260408082208890558254825261013b90935291822083905554670de0b6b3a7640000906131bf90612d4c565b6131c99084614afe565b6131d39190614b15565b61012d8054600090815261013c602090815260408083208590559254825261013d905290812086905561012e80549293508492909190613214908490614b37565b9250508190555080610137600082825461322e9190614b37565b909155505061012d5460408051918252602082018490528d916001600160a01b038c16917ff66885c33d648fcd0d97e0f2a18e30102169c22763473af0fb716f11b4a17dd6910160405180910390a35050808061328a90614b60565b9150506130b0565b50600089815261013a6020908152604080832083905561013b825280832083905561013c825280832083905561013d825280832083905561013e9091529020541561331557600089815261013e60209081526040808320546001600160a01b038a16845261013f909252822080549192909161330f908490614b37565b90915550505b600089815261013e602052604081205561332e89613c7d565b5050505050506109a260018055565b6040516001600160a01b038316602482015260448101829052610b929084907fa9059cbb0000000000000000000000000000000000000000000000000000000090606401612ce2565b61338e612be2565b6000828152609960205260409020546001600160a01b03166133f25760405162461bcd60e51b815260206004820152601c60248201527f5468697320706f736974696f6e20646f65736e27742065786973742e000000006044820152606401610af1565b6000818152609960205260409020546001600160a01b03166134565760405162461bcd60e51b815260206004820152601c60248201527f5468697320706f736974696f6e20646f65736e27742065786973742e000000006044820152606401610af1565b6000828152609960205260409020546001600160a01b03163381146134bd5760405162461bcd60e51b815260206004820152601e60248201527f46726f6d204e46542069736e277420796f75722078494e5458204e46542e00006044820152606401610af1565b6000828152609960205260409020546001600160a01b038281169116146135265760405162461bcd60e51b815260206004820152601760248201527f546f204e46542069736e27742078494e5458204e46542e0000000000000000006044820152606401610af1565b61352f83612785565b61353882612785565b600083815261013b602090815260408083205461013a9092528220549091906135619042614aeb565b905061012f54811115613574575061012f545b600084815261013b602090815260408083205461013a90925282205490919061359d9042614aeb565b905061012f548111156135b0575061012f545b60006135bc8386614b37565b9050600081116136345760405162461bcd60e51b815260206004820152602360248201527f43616e2774206d616b65206120706f736974696f6e207769746820302078494e60448201527f54582e00000000000000000000000000000000000000000000000000000000006064820152608401610af1565b6000816136418585614afe565b61364b9190614b15565b826136568888614afe565b6136609190614b15565b61366a9190614b37565b600089815261013b6020526040902083905590506136888142614aeb565b600089815261013a6020526040812091909155670de0b6b3a76400006136ad8a612d4c565b6136b79085614afe565b6136c19190614b15565b60008a815261013c602081815260408084208590558e845261013a825280842084905561013b825280842084905591815281832083905561013d815281832083905561013e9052902054909150156137515760008a815261013e60209081526040808320546001600160a01b038c16845261013f909252822080549192909161374b908490614b37565b90915550505b60008a815261013e602052604081205561376a8a613c7d565b896001600160a01b0389167f50d7f0ef4f7b59921566f6b835fb032efa0fd0dacccb9361292f89b7aa6bafdd8b866137a28742614aeb565b6040805193845260208401929092529082015260600160405180910390a35050505050505050611b9360018055565b60fb805473ffffffffffffffffffffffffffffffffffffffff191690556114a581614189565b60008183106138065781611209565b5090919050565b816001600160a01b0316836001600160a01b03160361386e5760405162461bcd60e51b815260206004820152601960248201527f4552433732313a20617070726f766520746f2063616c6c6572000000000000006044820152606401610af1565b6001600160a01b038381166000818152609c6020908152604080832094871680845294825291829020805460ff191686151590811790915591519182527f17307eab39ab6107e8899845ad3d59bd9653f200f220920489ca2b5937696c31910160405180910390a3505050565b600061012e546000036138f55750670de0b6b3a764000090565b61012e54670de0b6b3a764000061390a613d1f565b6139149190614afe565b611a0e9190614b15565b61392984848461222b565b613935848484846141e8565b611c645760405162461bcd60e51b815260206004820152603260248201527f4552433732313a207472616e7366657220746f206e6f6e20455243373231526560448201527f63656976657220696d706c656d656e74657200000000000000000000000000006064820152608401610af1565b606060006139b483614389565b600101905060008167ffffffffffffffff8111156139d4576139d46149a9565b6040519080825280601f01601f1916602001820160405280156139fe576020820181803683370190505b5090508181016020015b600019017f3031323334353637383961626364656600000000000000000000000000000000600a86061a8153600a8504945084613a0857509392505050565b826001600160a01b0316613a5a826114a8565b6001600160a01b031614613ad65760405162461bcd60e51b815260206004820152602560248201527f4552433732313a207472616e736665722066726f6d20696e636f72726563742060448201527f6f776e65720000000000000000000000000000000000000000000000000000006064820152608401610af1565b6001600160a01b038216613b515760405162461bcd60e51b8152602060048201526024808201527f4552433732313a207472616e7366657220746f20746865207a65726f2061646460448201527f72657373000000000000000000000000000000000000000000000000000000006064820152608401610af1565b826001600160a01b0316613b64826114a8565b6001600160a01b031614613be05760405162461bcd60e51b815260206004820152602560248201527f4552433732313a207472616e736665722066726f6d20696e636f72726563742060448201527f6f776e65720000000000000000000000000000000000000000000000000000006064820152608401610af1565b6000818152609b60209081526040808320805473ffffffffffffffffffffffffffffffffffffffff199081169091556001600160a01b03878116808652609a8552838620805460001901905590871680865283862080546001019055868652609990945282852080549092168417909155905184937fddf252ad1be2c89b69c2b068fc378daa952ba7f163c4a11628f55a4df523b3ef91a4505050565b6000613c88826114a8565b9050613c93826114a8565b6000838152609b60209081526040808320805473ffffffffffffffffffffffffffffffffffffffff199081169091556001600160a01b038516808552609a845282852080546000190190558785526099909352818420805490911690555192935084927fddf252ad1be2c89b69c2b068fc378daa952ba7f163c4a11628f55a4df523b3ef908390a45050565b610138546040517f70a082310000000000000000000000000000000000000000000000000000000081523060048201526000916001600160a01b0316906370a0823190602401602060405180830381865afa158015613d82573d6000803e3d6000fd5b505050506040513d601f19601f82011682018060405250810190611a0e9190614b7a565b6001600160a01b038216613dfc5760405162461bcd60e51b815260206004820181905260248201527f4552433732313a206d696e7420746f20746865207a65726f20616464726573736044820152606401610af1565b6000818152609960205260409020546001600160a01b031615613e615760405162461bcd60e51b815260206004820152601c60248201527f4552433732313a20746f6b656e20616c7265616479206d696e746564000000006044820152606401610af1565b6000818152609960205260409020546001600160a01b031615613ec65760405162461bcd60e51b815260206004820152601c60248201527f4552433732313a20746f6b656e20616c7265616479206d696e746564000000006044820152606401610af1565b6001600160a01b0382166000818152609a60209081526040808320805460010190558483526099909152808220805473ffffffffffffffffffffffffffffffffffffffff19168417905551839291907fddf252ad1be2c89b69c2b068fc378daa952ba7f163c4a11628f55a4df523b3ef908290a45050565b600054610100900460ff16612d465760405162461bcd60e51b815260206004820152602b60248201527f496e697469616c697a61626c653a20636f6e7472616374206973206e6f74206960448201526a6e697469616c697a696e6760a81b6064820152608401610af1565b600054610100900460ff166140145760405162461bcd60e51b815260206004820152602b60248201527f496e697469616c697a61626c653a20636f6e7472616374206973206e6f74206960448201526a6e697469616c697a696e6760a81b6064820152608401610af1565b60976140208382614c4a565b506098610b928282614c4a565b600054610100900460ff166140985760405162461bcd60e51b815260206004820152602b60248201527f496e697469616c697a61626c653a20636f6e7472616374206973206e6f74206960448201526a6e697469616c697a696e6760a81b6064820152608401610af1565b6118af336137d1565b60006140f6826040518060400160405280602081526020017f5361666545524332303a206c6f772d6c6576656c2063616c6c206661696c6564815250856001600160a01b031661446b9092919063ffffffff16565b90508051600014806141175750808060200190518101906141179190614d0a565b610b925760405162461bcd60e51b815260206004820152602a60248201527f5361666545524332303a204552433230206f7065726174696f6e20646964206e60448201527f6f742073756363656564000000000000000000000000000000000000000000006064820152608401610af1565b60c980546001600160a01b0383811673ffffffffffffffffffffffffffffffffffffffff19831681179093556040519116919082907f8be0079c531659141344cd1fd0a4f28419497f9722a3daafe3b4186f6b6457e090600090a35050565b60006001600160a01b0384163b1561437e576040517f150b7a020000000000000000000000000000000000000000000000000000000081526001600160a01b0385169063150b7a0290614245903390899088908890600401614d27565b6020604051808303816000875af1925050508015614280575060408051601f3d908101601f1916820190925261427d91810190614d63565b60015b614333573d8080156142ae576040519150601f19603f3d011682016040523d82523d6000602084013e6142b3565b606091505b50805160000361432b5760405162461bcd60e51b815260206004820152603260248201527f4552433732313a207472616e7366657220746f206e6f6e20455243373231526560448201527f63656976657220696d706c656d656e74657200000000000000000000000000006064820152608401610af1565b805181602001fd5b7fffffffff00000000000000000000000000000000000000000000000000000000167f150b7a0200000000000000000000000000000000000000000000000000000000149050612223565b506001949350505050565b6000807a184f03e93ff9f4daa797ed6e38ed64bf6a1f01000000000000000083106143d2577a184f03e93ff9f4daa797ed6e38ed64bf6a1f010000000000000000830492506040015b6d04ee2d6d415b85acef810000000083106143fe576d04ee2d6d415b85acef8100000000830492506020015b662386f26fc10000831061441c57662386f26fc10000830492506010015b6305f5e1008310614434576305f5e100830492506008015b612710831061444857612710830492506004015b6064831061445a576064830492506002015b600a83106109a25760010192915050565b6060612223848460008585600080866001600160a01b031685876040516144929190614d80565b60006040518083038185875af1925050503d80600081146144cf576040519150601f19603f3d011682016040523d82523d6000602084013e6144d4565b606091505b50915091506144e5878383876144f0565b979650505050505050565b6060831561455f578251600003614558576001600160a01b0385163b6145585760405162461bcd60e51b815260206004820152601d60248201527f416464726573733a2063616c6c20746f206e6f6e2d636f6e74726163740000006044820152606401610af1565b5081612223565b61222383838151156145745781518083602001fd5b8060405162461bcd60e51b8152600401610af19190614629565b7fffffffff00000000000000000000000000000000000000000000000000000000811681146114a557600080fd5b6000602082840312156145ce57600080fd5b81356112098161458e565b60005b838110156145f45781810151838201526020016145dc565b50506000910152565b600081518084526146158160208601602086016145d9565b601f01601f19169290920160200192915050565b60208152600061120960208301846145fd565b60006020828403121561464e57600080fd5b5035919050565b80356001600160a01b0381168114610d7b57600080fd5b6000806040838503121561467f57600080fd5b61468883614655565b946020939093013593505050565b6000806000606084860312156146ab57600080fd5b6146b484614655565b92506146c260208501614655565b9150604084013590509250925092565b60008083601f8401126146e457600080fd5b50813567ffffffffffffffff8111156146fc57600080fd5b6020830191508360208260051b850101111561471757600080fd5b9250929050565b6000806020838503121561473157600080fd5b823567ffffffffffffffff81111561474857600080fd5b614754858286016146d2565b90969095509350505050565b60006020828403121561477257600080fd5b61120982614655565b6000806040838503121561478e57600080fd5b61479783614655565b91506147a560208401614655565b90509250929050565b600081518084526020808501945080840160005b838110156147de578151875295820195908201906001016147c2565b509495945050505050565b82815260406020820152600061222360408301846147ae565b80518252602081015161482060208401826001600160a01b03169052565b5060408101516040830152606081015160608301526080810151608083015260a081015160a083015260c081015160c083015260e081015160e08301526101008082015181840152506101208082015181840152506101408082015181840152505050565b61016081016109a28284614802565b6000806000604084860312156148a957600080fd5b83359250602084013567ffffffffffffffff8111156148c757600080fd5b6148d3868287016146d2565b9497909650939450505050565b60208152600061120960208301846147ae565b6000806040838503121561490657600080fd5b50508035926020909101359150565b6020808252825182820181905260009190848201906040850190845b8181101561495857614944838551614802565b928401926101609290920191600101614931565b50909695505050505050565b80151581146114a557600080fd5b6000806040838503121561498557600080fd5b61498e83614655565b9150602083013561499e81614964565b809150509250929050565b634e487b7160e01b600052604160045260246000fd5b600080600080608085870312156149d557600080fd5b6149de85614655565b93506149ec60208601614655565b925060408501359150606085013567ffffffffffffffff80821115614a1057600080fd5b818701915087601f830112614a2457600080fd5b813581811115614a3657614a366149a9565b604051601f8201601f19908116603f01168101908382118183101715614a5e57614a5e6149a9565b816040528281528a6020848701011115614a7757600080fd5b82602086016020830137600060208483010152809550505050505092959194509250565b600181811c90821680614aaf57607f821691505b602082108103614acf57634e487b7160e01b600052602260045260246000fd5b50919050565b634e487b7160e01b600052601160045260246000fd5b818103818111156109a2576109a2614ad5565b80820281158282048414176109a2576109a2614ad5565b600082614b3257634e487b7160e01b600052601260045260246000fd5b500490565b808201808211156109a2576109a2614ad5565b634e487b7160e01b600052603260045260246000fd5b60006000198203614b7357614b73614ad5565b5060010190565b600060208284031215614b8c57600080fd5b5051919050565b60007f07ffffffffffffffffffffffffffffffffffffffffffffffffffffffffffffff831115614bc257600080fd5b8260051b80858437919091019392505050565b60008351614be78184602088016145d9565b835190830190614bfb8183602088016145d9565b01949350505050565b601f821115610b9257600081815260208120601f850160051c81016020861015614c2b5750805b601f850160051c820191505b8181101561180557828155600101614c37565b815167ffffffffffffffff811115614c6457614c646149a9565b614c7881614c728454614a9b565b84614c04565b602080601f831160018114614cad5760008415614c955750858301515b600019600386901b1c1916600185901b178555611805565b600085815260208120601f198616915b82811015614cdc57888601518255948401946001909101908401614cbd565b5085821015614cfa5787850151600019600388901b60f8161c191681555b5050505050600190811b01905550565b600060208284031215614d1c57600080fd5b815161120981614964565b60006001600160a01b03808716835280861660208401525083604083015260806060830152614d5960808301846145fd565b9695505050505050565b600060208284031215614d7557600080fd5b81516112098161458e565b60008251614d928184602087016145d9565b919091019291505056fea264697066735822122055036272960e351690ad58ca14a71cce85b8e8509304cf3c995898e0da27a29264736f6c63430008120033",
  "linkReferences": {},
  "deployedLinkReferences": {}
}