{
  "_format": "hh-sol-artifact-1",
  "contractName": "StakedINTX",
  "sourceName": "contracts/StakedINTX.sol",
  "abi": [
    {
      "inputs": [],
      "stateMutability": "nonpayable",
      "type": "constructor"
    },
    {
      "anonymous": false,
      "inputs": [
        {
          "indexed": true,
          "internalType": "address",
          "name": "owner",
          "type": "address"
        },
        {
          "indexed": true,
          "internalType": "address",
          "name": "approved",
          "type": "address"
        },
        {
          "indexed": true,
          "internalType": "uint256",
          "name": "tokenId",
          "type": "uint256"
        }
      ],
      "name": "Approval",
      "type": "event"
    },
    {
      "anonymous": false,
      "inputs": [
        {
          "indexed": true,
          "internalType": "address",
          "name": "owner",
          "type": "address"
        },
        {
          "indexed": true,
          "internalType": "address",
          "name": "operator",
          "type": "address"
        },
        {
          "indexed": false,
          "internalType": "bool",
          "name": "approved",
          "type": "bool"
        }
      ],
      "name": "ApprovalForAll",
      "type": "event"
    },
    {
      "anonymous": false,
      "inputs": [
        {
          "indexed": true,
          "internalType": "address",
          "name": "owner",
          "type": "address"
        },
        {
          "indexed": true,
          "internalType": "uint256",
          "name": "tokenId",
          "type": "uint256"
        },
        {
          "indexed": false,
          "internalType": "uint256",
          "name": "amountBurned",
          "type": "uint256"
        },
        {
          "indexed": false,
          "internalType": "uint256",
          "name": "amountIntxOut",
          "type": "uint256"
        },
        {
          "indexed": false,
          "internalType": "uint256",
          "name": "amountIntxPenalized",
          "type": "uint256"
        },
        {
          "indexed": false,
          "internalType": "uint256",
          "name": "totalXINTXNew",
          "type": "uint256"
        }
      ],
      "name": "Burn",
      "type": "event"
    },
    {
      "anonymous": false,
      "inputs": [
        {
          "indexed": true,
          "internalType": "address",
          "name": "owner",
          "type": "address"
        },
        {
          "indexed": false,
          "internalType": "uint256",
          "name": "amountOut",
          "type": "uint256"
        },
        {
          "indexed": true,
          "internalType": "uint256[]",
          "name": "tokenIds",
          "type": "uint256[]"
        }
      ],
      "name": "Claim",
      "type": "event"
    },
    {
      "anonymous": false,
      "inputs": [
        {
          "indexed": false,
          "internalType": "uint8",
          "name": "version",
          "type": "uint8"
        }
      ],
      "name": "Initialized",
      "type": "event"
    },
    {
      "anonymous": false,
      "inputs": [
        {
          "indexed": true,
          "internalType": "address",
          "name": "owner",
          "type": "address"
        },
        {
          "indexed": true,
          "internalType": "uint256",
          "name": "tokenIdFrom",
          "type": "uint256"
        },
        {
          "indexed": false,
          "internalType": "uint256",
          "name": "tokenIdTo",
          "type": "uint256"
        },
        {
          "indexed": false,
          "internalType": "uint256",
          "name": "newBalance",
          "type": "uint256"
        },
        {
          "indexed": false,
          "internalType": "uint256",
          "name": "newLoyalSince",
          "type": "uint256"
        }
      ],
      "name": "Merge",
      "type": "event"
    },
    {
      "anonymous": false,
      "inputs": [
        {
          "indexed": true,
          "internalType": "address",
          "name": "from",
          "type": "address"
        },
        {
          "indexed": true,
          "internalType": "address",
          "name": "to",
          "type": "address"
        },
        {
          "indexed": true,
          "internalType": "uint256",
          "name": "tokenId",
          "type": "uint256"
        },
        {
          "indexed": false,
          "internalType": "uint256",
          "name": "amountMinted",
          "type": "uint256"
        },
        {
          "indexed": false,
          "internalType": "uint256",
          "name": "amountIntxIn",
          "type": "uint256"
        },
        {
          "indexed": false,
          "internalType": "uint256",
          "name": "totalXINTXNew",
          "type": "uint256"
        },
        {
          "indexed": false,
          "internalType": "uint256",
          "name": "newTotalWeight",
          "type": "uint256"
        }
      ],
      "name": "Mint",
      "type": "event"
    },
    {
      "anonymous": false,
      "inputs": [
        {
          "indexed": true,
          "internalType": "address",
          "name": "previousOwner",
          "type": "address"
        },
        {
          "indexed": true,
          "internalType": "address",
          "name": "newOwner",
          "type": "address"
        }
      ],
      "name": "OwnershipTransferred",
      "type": "event"
    },
    {
      "anonymous": false,
      "inputs": [
        {
          "indexed": false,
          "internalType": "uint256",
          "name": "rewardAdded",
          "type": "uint256"
        }
      ],
      "name": "RewardAdded",
      "type": "event"
    },
    {
      "anonymous": false,
      "inputs": [
        {
          "indexed": true,
          "internalType": "address",
          "name": "owner",
          "type": "address"
        },
        {
          "indexed": true,
          "internalType": "uint256",
          "name": "tokenIdFrom",
          "type": "uint256"
        },
        {
          "indexed": false,
          "internalType": "uint256",
          "name": "tokenIdTo",
          "type": "uint256"
        },
        {
          "indexed": false,
          "internalType": "uint256",
          "name": "balanceSplitted",
          "type": "uint256"
        }
      ],
      "name": "Split",
      "type": "event"
    },
    {
      "anonymous": false,
      "inputs": [
        {
          "indexed": true,
          "internalType": "address",
          "name": "from",
          "type": "address"
        },
        {
          "indexed": true,
          "internalType": "address",
          "name": "to",
          "type": "address"
        },
        {
          "indexed": true,
          "internalType": "uint256",
          "name": "tokenId",
          "type": "uint256"
        }
      ],
      "name": "Transfer",
      "type": "event"
    },
    {
      "inputs": [],
      "name": "DURATION",
      "outputs": [
        {
          "internalType": "uint256",
          "name": "",
          "type": "uint256"
        }
      ],
      "stateMutability": "view",
      "type": "function"
    },
    {
      "inputs": [],
      "name": "INTX",
      "outputs": [
        {
          "internalType": "contract IERC20",
          "name": "",
          "type": "address"
        }
      ],
      "stateMutability": "view",
      "type": "function"
    },
    {
      "inputs": [],
      "name": "P",
      "outputs": [
        {
          "internalType": "uint256",
          "name": "",
          "type": "uint256"
        }
      ],
      "stateMutability": "view",
      "type": "function"
    },
    {
      "inputs": [
        {
          "internalType": "uint256",
          "name": "_intxAmount",
          "type": "uint256"
        },
        {
          "internalType": "uint256",
          "name": "tokenTo",
          "type": "uint256"
        }
      ],
      "name": "add",
      "outputs": [],
      "stateMutability": "nonpayable",
      "type": "function"
    },
    {
      "inputs": [
        {
          "internalType": "uint256",
          "name": "_tokenId",
          "type": "uint256"
        }
      ],
      "name": "amountStakedOf",
      "outputs": [
        {
          "internalType": "uint256",
          "name": "amount",
          "type": "uint256"
        }
      ],
      "stateMutability": "view",
      "type": "function"
    },
    {
      "inputs": [
        {
          "internalType": "address",
          "name": "to",
          "type": "address"
        },
        {
          "internalType": "uint256",
          "name": "tokenId",
          "type": "uint256"
        }
      ],
      "name": "approve",
      "outputs": [],
      "stateMutability": "nonpayable",
      "type": "function"
    },
    {
      "inputs": [
        {
          "internalType": "address",
          "name": "owner",
          "type": "address"
        }
      ],
      "name": "balanceOf",
      "outputs": [
        {
          "internalType": "uint256",
          "name": "",
          "type": "uint256"
        }
      ],
      "stateMutability": "view",
      "type": "function"
    },
    {
      "inputs": [
        {
          "internalType": "uint256",
          "name": "",
          "type": "uint256"
        }
      ],
      "name": "balanceOfId",
      "outputs": [
        {
          "internalType": "uint256",
          "name": "",
          "type": "uint256"
        }
      ],
      "stateMutability": "view",
      "type": "function"
    },
    {
      "inputs": [
        {
          "internalType": "uint256",
          "name": "_tokenId",
          "type": "uint256"
        }
      ],
      "name": "boostPercentageOf",
      "outputs": [
        {
          "internalType": "uint256",
          "name": "boostPercentage",
          "type": "uint256"
        }
      ],
      "stateMutability": "view",
      "type": "function"
    },
    {
      "inputs": [
        {
          "internalType": "uint256[]",
          "name": "_tokenIds",
          "type": "uint256[]"
        }
      ],
      "name": "claim",
      "outputs": [],
      "stateMutability": "nonpayable",
      "type": "function"
    },
    {
      "inputs": [],
      "name": "currentExchangeRate",
      "outputs": [
        {
          "internalType": "uint256",
          "name": "_exchangeRate",
          "type": "uint256"
        }
      ],
      "stateMutability": "view",
      "type": "function"
    },
    {
      "inputs": [
        {
          "internalType": "uint256",
          "name": "_tokenId",
          "type": "uint256"
        }
      ],
      "name": "earned",
      "outputs": [
        {
          "internalType": "uint256",
          "name": "",
          "type": "uint256"
        }
      ],
      "stateMutability": "view",
      "type": "function"
    },
    {
      "inputs": [
        {
          "internalType": "uint256",
          "name": "tokenId",
          "type": "uint256"
        }
      ],
      "name": "getApproved",
      "outputs": [
        {
          "internalType": "address",
          "name": "",
          "type": "address"
        }
      ],
      "stateMutability": "view",
      "type": "function"
    },
    {
      "inputs": [
        {
          "internalType": "uint256",
          "name": "_tokenId",
          "type": "uint256"
        }
      ],
      "name": "getPositionInfo",
      "outputs": [
        {
          "components": [
            {
              "internalType": "uint256",
              "name": "tokenId",
              "type": "uint256"
            },
            {
              "internalType": "address",
              "name": "owner",
              "type": "address"
            },
            {
              "internalType": "uint256",
              "name": "balanceOfId",
              "type": "uint256"
            },
            {
              "internalType": "uint256",
              "name": "amountStakedOf",
              "type": "uint256"
            },
            {
              "internalType": "uint256",
              "name": "withdrawableAmountOf",
              "type": "uint256"
            },
            {
              "internalType": "uint256",
              "name": "loyalSince",
              "type": "uint256"
            },
            {
              "internalType": "uint256",
              "name": "boostPercentageOf",
              "type": "uint256"
            },
            {
              "internalType": "uint256",
              "name": "penaltyPercentageOf",
              "type": "uint256"
            },
            {
              "internalType": "uint256",
              "name": "penaltyAmountOf",
              "type": "uint256"
            },
            {
              "internalType": "uint256",
              "name": "pendingReward",
              "type": "uint256"
            }
          ],
          "internalType": "struct StakedINTX.PositionInfo",
          "name": "_positionInfo",
          "type": "tuple"
        }
      ],
      "stateMutability": "view",
      "type": "function"
    },
    {
      "inputs": [
        {
          "internalType": "uint256[]",
          "name": "_tokenId",
          "type": "uint256[]"
        }
      ],
      "name": "getPositionInfo",
      "outputs": [
        {
          "components": [
            {
              "internalType": "uint256",
              "name": "tokenId",
              "type": "uint256"
            },
            {
              "internalType": "address",
              "name": "owner",
              "type": "address"
            },
            {
              "internalType": "uint256",
              "name": "balanceOfId",
              "type": "uint256"
            },
            {
              "internalType": "uint256",
              "name": "amountStakedOf",
              "type": "uint256"
            },
            {
              "internalType": "uint256",
              "name": "withdrawableAmountOf",
              "type": "uint256"
            },
            {
              "internalType": "uint256",
              "name": "loyalSince",
              "type": "uint256"
            },
            {
              "internalType": "uint256",
              "name": "boostPercentageOf",
              "type": "uint256"
            },
            {
              "internalType": "uint256",
              "name": "penaltyPercentageOf",
              "type": "uint256"
            },
            {
              "internalType": "uint256",
              "name": "penaltyAmountOf",
              "type": "uint256"
            },
            {
              "internalType": "uint256",
              "name": "pendingReward",
              "type": "uint256"
            }
          ],
          "internalType": "struct StakedINTX.PositionInfo[]",
          "name": "_positionInfo",
          "type": "tuple[]"
        }
      ],
      "stateMutability": "view",
      "type": "function"
    },
    {
      "inputs": [
        {
          "internalType": "address",
          "name": "_intx",
          "type": "address"
        },
        {
          "internalType": "address",
          "name": "_usdc",
          "type": "address"
        }
      ],
      "name": "initialize",
      "outputs": [],
      "stateMutability": "nonpayable",
      "type": "function"
    },
    {
      "inputs": [
        {
          "internalType": "address",
          "name": "owner",
          "type": "address"
        },
        {
          "internalType": "address",
          "name": "operator",
          "type": "address"
        }
      ],
      "name": "isApprovedForAll",
      "outputs": [
        {
          "internalType": "bool",
          "name": "",
          "type": "bool"
        }
      ],
      "stateMutability": "view",
      "type": "function"
    },
    {
      "inputs": [],
      "name": "lastTimeRewardApplicable",
      "outputs": [
        {
          "internalType": "uint256",
          "name": "",
          "type": "uint256"
        }
      ],
      "stateMutability": "view",
      "type": "function"
    },
    {
      "inputs": [],
      "name": "lastTokenId",
      "outputs": [
        {
          "internalType": "uint256",
          "name": "",
          "type": "uint256"
        }
      ],
      "stateMutability": "view",
      "type": "function"
    },
    {
      "inputs": [],
      "name": "lastUpdateTime",
      "outputs": [
        {
          "internalType": "uint256",
          "name": "",
          "type": "uint256"
        }
      ],
      "stateMutability": "view",
      "type": "function"
    },
    {
      "inputs": [
        {
          "internalType": "uint256",
          "name": "",
          "type": "uint256"
        }
      ],
      "name": "loyalSince",
      "outputs": [
        {
          "internalType": "uint256",
          "name": "",
          "type": "uint256"
        }
      ],
      "stateMutability": "view",
      "type": "function"
    },
    {
      "inputs": [],
      "name": "loyaltyDuration",
      "outputs": [
        {
          "internalType": "uint256",
          "name": "",
          "type": "uint256"
        }
      ],
      "stateMutability": "view",
      "type": "function"
    },
    {
      "inputs": [],
      "name": "maxLoyaltyBoost",
      "outputs": [
        {
          "internalType": "uint256",
          "name": "",
          "type": "uint256"
        }
      ],
      "stateMutability": "view",
      "type": "function"
    },
    {
      "inputs": [],
      "name": "maxPenalty",
      "outputs": [
        {
          "internalType": "uint256",
          "name": "",
          "type": "uint256"
        }
      ],
      "stateMutability": "view",
      "type": "function"
    },
    {
      "inputs": [
        {
          "internalType": "uint256",
          "name": "_tokenFrom",
          "type": "uint256"
        },
        {
          "internalType": "uint256",
          "name": "tokenTo",
          "type": "uint256"
        }
      ],
      "name": "merge",
      "outputs": [],
      "stateMutability": "nonpayable",
      "type": "function"
    },
    {
      "inputs": [],
      "name": "minPenalty",
      "outputs": [
        {
          "internalType": "uint256",
          "name": "",
          "type": "uint256"
        }
      ],
      "stateMutability": "view",
      "type": "function"
    },
    {
      "inputs": [],
      "name": "name",
      "outputs": [
        {
          "internalType": "string",
          "name": "",
          "type": "string"
        }
      ],
      "stateMutability": "view",
      "type": "function"
    },
    {
      "inputs": [
        {
          "internalType": "uint256",
          "name": "_rewardAmount",
          "type": "uint256"
        }
      ],
      "name": "notifyReward",
      "outputs": [],
      "stateMutability": "nonpayable",
      "type": "function"
    },
    {
      "inputs": [],
      "name": "owner",
      "outputs": [
        {
          "internalType": "address",
          "name": "",
          "type": "address"
        }
      ],
      "stateMutability": "view",
      "type": "function"
    },
    {
      "inputs": [
        {
          "internalType": "uint256",
          "name": "tokenId",
          "type": "uint256"
        }
      ],
      "name": "ownerOf",
      "outputs": [
        {
          "internalType": "address",
          "name": "",
          "type": "address"
        }
      ],
      "stateMutability": "view",
      "type": "function"
    },
    {
      "inputs": [
        {
          "internalType": "uint256",
          "name": "_tokenId",
          "type": "uint256"
        }
      ],
      "name": "penaltyAmountOf",
      "outputs": [
        {
          "internalType": "uint256",
          "name": "penaltyAmount",
          "type": "uint256"
        }
      ],
      "stateMutability": "view",
      "type": "function"
    },
    {
      "inputs": [
        {
          "internalType": "uint256",
          "name": "_tokenId",
          "type": "uint256"
        }
      ],
      "name": "penaltyPercentageOf",
      "outputs": [
        {
          "internalType": "uint256",
          "name": "penaltyPercentage",
          "type": "uint256"
        }
      ],
      "stateMutability": "view",
      "type": "function"
    },
    {
      "inputs": [],
      "name": "periodFinish",
      "outputs": [
        {
          "internalType": "uint256",
          "name": "",
          "type": "uint256"
        }
      ],
      "stateMutability": "view",
      "type": "function"
    },
    {
      "inputs": [],
      "name": "renounceOwnership",
      "outputs": [],
      "stateMutability": "nonpayable",
      "type": "function"
    },
    {
      "inputs": [],
      "name": "rewardPerWeight",
      "outputs": [
        {
          "internalType": "uint256",
          "name": "",
          "type": "uint256"
        }
      ],
      "stateMutability": "view",
      "type": "function"
    },
    {
      "inputs": [],
      "name": "rewardRate",
      "outputs": [
        {
          "internalType": "uint256",
          "name": "",
          "type": "uint256"
        }
      ],
      "stateMutability": "view",
      "type": "function"
    },
    {
      "inputs": [],
      "name": "rewardToken",
      "outputs": [
        {
          "internalType": "contract IERC20",
          "name": "",
          "type": "address"
        }
      ],
      "stateMutability": "view",
      "type": "function"
    },
    {
      "inputs": [
        {
          "internalType": "address",
          "name": "from",
          "type": "address"
        },
        {
          "internalType": "address",
          "name": "to",
          "type": "address"
        },
        {
          "internalType": "uint256",
          "name": "tokenId",
          "type": "uint256"
        }
      ],
      "name": "safeTransferFrom",
      "outputs": [],
      "stateMutability": "nonpayable",
      "type": "function"
    },
    {
      "inputs": [
        {
          "internalType": "address",
          "name": "from",
          "type": "address"
        },
        {
          "internalType": "address",
          "name": "to",
          "type": "address"
        },
        {
          "internalType": "uint256",
          "name": "tokenId",
          "type": "uint256"
        },
        {
          "internalType": "bytes",
          "name": "data",
          "type": "bytes"
        }
      ],
      "name": "safeTransferFrom",
      "outputs": [],
      "stateMutability": "nonpayable",
      "type": "function"
    },
    {
      "inputs": [
        {
          "internalType": "address",
          "name": "operator",
          "type": "address"
        },
        {
          "internalType": "bool",
          "name": "approved",
          "type": "bool"
        }
      ],
      "name": "setApprovalForAll",
      "outputs": [],
      "stateMutability": "nonpayable",
      "type": "function"
    },
    {
      "inputs": [
        {
          "internalType": "uint256",
          "name": "_tokenId",
          "type": "uint256"
        },
        {
          "internalType": "uint256[]",
          "name": "_splitWeights",
          "type": "uint256[]"
        }
      ],
      "name": "split",
      "outputs": [
        {
          "internalType": "uint256[]",
          "name": "_tokenIds",
          "type": "uint256[]"
        }
      ],
      "stateMutability": "nonpayable",
      "type": "function"
    },
    {
      "inputs": [
        {
          "internalType": "uint256",
          "name": "_intxAmount",
          "type": "uint256"
        }
      ],
      "name": "stake",
      "outputs": [
        {
          "internalType": "uint256",
          "name": "_tokenId",
          "type": "uint256"
        }
      ],
      "stateMutability": "nonpayable",
      "type": "function"
    },
    {
      "inputs": [
        {
          "internalType": "address",
          "name": "_to",
          "type": "address"
        },
        {
          "internalType": "uint256",
          "name": "_intxAmount",
          "type": "uint256"
        }
      ],
      "name": "stakeFor",
      "outputs": [
        {
          "internalType": "uint256",
          "name": "_tokenId",
          "type": "uint256"
        }
      ],
      "stateMutability": "nonpayable",
      "type": "function"
    },
    {
      "inputs": [
        {
          "internalType": "bytes4",
          "name": "interfaceId",
          "type": "bytes4"
        }
      ],
      "name": "supportsInterface",
      "outputs": [
        {
          "internalType": "bool",
          "name": "",
          "type": "bool"
        }
      ],
      "stateMutability": "view",
      "type": "function"
    },
    {
      "inputs": [],
      "name": "symbol",
      "outputs": [
        {
          "internalType": "string",
          "name": "",
          "type": "string"
        }
      ],
      "stateMutability": "view",
      "type": "function"
    },
    {
      "inputs": [
        {
          "internalType": "uint256",
          "name": "index",
          "type": "uint256"
        }
      ],
      "name": "tokenByIndex",
      "outputs": [
        {
          "internalType": "uint256",
          "name": "",
          "type": "uint256"
        }
      ],
      "stateMutability": "view",
      "type": "function"
    },
    {
      "inputs": [
        {
          "internalType": "address",
          "name": "owner",
          "type": "address"
        },
        {
          "internalType": "uint256",
          "name": "index",
          "type": "uint256"
        }
      ],
      "name": "tokenOfOwnerByIndex",
      "outputs": [
        {
          "internalType": "uint256",
          "name": "",
          "type": "uint256"
        }
      ],
      "stateMutability": "view",
      "type": "function"
    },
    {
      "inputs": [
        {
          "internalType": "uint256",
          "name": "tokenId",
          "type": "uint256"
        }
      ],
      "name": "tokenURI",
      "outputs": [
        {
          "internalType": "string",
          "name": "",
          "type": "string"
        }
      ],
      "stateMutability": "view",
      "type": "function"
    },
    {
      "inputs": [
        {
          "internalType": "address",
          "name": "_owner",
          "type": "address"
        }
      ],
      "name": "tokensOfOwner",
      "outputs": [
        {
          "internalType": "uint256[]",
          "name": "ids",
          "type": "uint256[]"
        }
      ],
      "stateMutability": "view",
      "type": "function"
    },
    {
      "inputs": [],
      "name": "totalSupply",
      "outputs": [
        {
          "internalType": "uint256",
          "name": "",
          "type": "uint256"
        }
      ],
      "stateMutability": "view",
      "type": "function"
    },
    {
      "inputs": [],
      "name": "totalXINTX",
      "outputs": [
        {
          "internalType": "uint256",
          "name": "",
          "type": "uint256"
        }
      ],
      "stateMutability": "view",
      "type": "function"
    },
    {
      "inputs": [
        {
          "internalType": "address",
          "name": "from",
          "type": "address"
        },
        {
          "internalType": "address",
          "name": "to",
          "type": "address"
        },
        {
          "internalType": "uint256",
          "name": "tokenId",
          "type": "uint256"
        }
      ],
      "name": "transferFrom",
      "outputs": [],
      "stateMutability": "nonpayable",
      "type": "function"
    },
    {
      "inputs": [
        {
          "internalType": "address",
          "name": "newOwner",
          "type": "address"
        }
      ],
      "name": "transferOwnership",
      "outputs": [],
      "stateMutability": "nonpayable",
      "type": "function"
    },
    {
      "inputs": [
        {
          "internalType": "uint256",
          "name": "_tokenId",
          "type": "uint256"
        }
      ],
      "name": "unstake",
      "outputs": [
        {
          "internalType": "uint256",
          "name": "_intxAmountOut",
          "type": "uint256"
        }
      ],
      "stateMutability": "nonpayable",
      "type": "function"
    },
    {
      "inputs": [
        {
          "internalType": "uint256",
          "name": "_tokenId",
          "type": "uint256"
        },
        {
          "internalType": "uint256",
          "name": "_xIntxAmountWithdraw",
          "type": "uint256"
        }
      ],
      "name": "unstakePartially",
      "outputs": [
        {
          "internalType": "uint256",
          "name": "_intxAmountOut",
          "type": "uint256"
        },
        {
          "internalType": "uint256",
          "name": "_newTokenId",
          "type": "uint256"
        }
      ],
      "stateMutability": "nonpayable",
      "type": "function"
    },
    {
      "inputs": [
        {
          "internalType": "uint256[]",
          "name": "_tokenIds",
          "type": "uint256[]"
        }
      ],
      "name": "updateWeights",
      "outputs": [],
      "stateMutability": "nonpayable",
      "type": "function"
    },
    {
      "inputs": [
        {
          "internalType": "uint256",
          "name": "_tokenId",
          "type": "uint256"
        }
      ],
      "name": "withdrawableAmountOf",
      "outputs": [
        {
          "internalType": "uint256",
          "name": "withdrawableAmount",
          "type": "uint256"
        }
      ],
      "stateMutability": "view",
      "type": "function"
    }
  ],
  "bytecode": "0x60806040523480156200001157600080fd5b506200001c62000022565b620000e3565b600054610100900460ff16156200008f5760405162461bcd60e51b815260206004820152602760248201527f496e697469616c697a61626c653a20636f6e747261637420697320696e697469604482015266616c697a696e6760c81b606482015260840160405180910390fd5b60005460ff90811614620000e1576000805460ff191660ff9081179091556040519081527f7f26b83ff96e1f2b6a682f133852f6798a09c465da95921460cefb38474024989060200160405180910390a15b565b61497680620000f36000396000f3fe608060405234801561001057600080fd5b50600436106103835760003560e01c806370a08231116101de578063a694fc3a1161010f578063d975dfed116100ad578063f290dfa71161007c578063f290dfa71461078a578063f2fde38b146107b2578063f7c618c1146107c5578063f84ddf0b146107d957600080fd5b8063d975dfed1461071d578063df2e0b9714610730578063e985e9c514610744578063ebe2b12b1461078057600080fd5b8063c8f33c91116100e9578063c8f33c91146106d5578063cfd0e125146106df578063d1a249ab14610700578063d1c2babb1461070a57600080fd5b8063a694fc3a1461069c578063b88d4fde146106af578063c87b56dd146106c257600080fd5b80638da5cb5b1161017c578063a00ea0c511610156578063a00ea0c51461064d578063a1c95e5a14610660578063a22cb46514610681578063a36849771461069457600080fd5b80638da5cb5b1461062157806395d89b4114610632578063988dc31e1461063a57600080fd5b80637b0a47ee116101b85780637b0a47ee146105ed57806380faa57d146105f75780638462151c146105ff5780638b8fbd921461061257600080fd5b806370a08231146105bf578063715018a6146105d2578063771602f7146105da57600080fd5b806342842e0e116102b85780635a48a97f116102565780636352211e116102305780636352211e14610566578063645bfd9a1461057957806369c672471461058c5780636ba4c138146105ac57600080fd5b80635a48a97f146105205780635a5e7e0d1461053357806360993b5b1461055357600080fd5b80634f6ccce7116102925780634f6ccce7146104d9578063519f5099146104ec5780635200e79e1461050c578063520bf08a1461051657600080fd5b806342842e0e146104a0578063485cc955146104b35780634d6ed8c4146104c657600080fd5b80632212b806116103255780632e17de78116102ff5780632e17de78146104545780632ee40908146104675780632f745c591461047a57806330f916191461048d57600080fd5b80632212b8061461042f57806323b872dd146104395780632ac3f4501461044c57600080fd5b8063095ea7b311610361578063095ea7b3146103f05780630eba98491461040557806318160ddd1461041d5780631be052891461042557600080fd5b806301ffc9a71461038857806306fdde03146103b0578063081812fc146103c5575b600080fd5b61039b610396366004614199565b6107e3565b60405190151581526020015b60405180910390f35b6103b8610827565b6040516103a79190614206565b6103d86103d3366004614219565b6108b9565b6040516001600160a01b0390911681526020016103a7565b6104036103fe366004614249565b6108e0565b005b61040f6101325481565b6040519081526020016103a7565b60cb5461040f565b61040f62093a8081565b61040f6101305481565b610403610447366004614273565b610a16565b61040f610a9d565b61040f610462366004614219565b610b62565b61040f610475366004614249565b610b6d565b61040f610488366004614249565b610b81565b61040361049b3660046142fb565b610c29565b6104036104ae366004614273565b610c6e565b6104036104c136600461433d565b610c89565b61040f6104d4366004614219565b610e93565b61040f6104e7366004614219565b610f5b565b6104ff6104fa366004614219565b610fff565b6040516103a791906143e7565b61040f6101315481565b61040f61012e5481565b61040f61052e366004614219565b611067565b6105466105413660046142fb565b6110ac565b6040516103a791906143f6565b610403610561366004614219565b6111bf565b6103d8610574366004614219565b611409565b61040f610587366004614219565b61146e565b61059f61059a366004614445565b611499565b6040516103a79190614491565b6104036105ba3660046142fb565b6114d8565b61040f6105cd3660046144c9565b61177e565b610403611818565b6104036105e83660046144e4565b61182c565b61040f6101355481565b61040f611845565b61059f61060d3660046144c9565b611859565b61040f670de0b6b3a764000081565b60fb546001600160a01b03166103d8565b6103b86118f1565b61040f610648366004614219565b611900565b61040f61065b366004614219565b611926565b61040f61066e366004614219565b61013b6020526000908152604090205481565b61040361068f366004614514565b61194c565b61040f61195b565b61040f6106aa366004614219565b611965565b6104036106bd366004614561565b611972565b6103b86106d0366004614219565b6119fa565b61040f6101335481565b61040f6106ed366004614219565b61013a6020526000908152604090205481565b61040f61012f5481565b6104036107183660046144e4565b611a6d565b61040f61072b366004614219565b611a77565b610138546103d8906001600160a01b031681565b61039b61075236600461433d565b6001600160a01b039182166000908152609c6020908152604080832093909416825291909152205460ff1690565b61040f6101345481565b61079d6107983660046144e4565b611abf565b604080519283526020830191909152016103a7565b6104036107c03660046144c9565b611c09565b610139546103d8906001600160a01b031681565b61040f61012d5481565b60006001600160e01b031982167f780e9d63000000000000000000000000000000000000000000000000000000001480610821575061082182611c96565b92915050565b6060609780546108369061463d565b80601f01602080910402602001604051908101604052809291908181526020018280546108629061463d565b80156108af5780601f10610884576101008083540402835291602001916108af565b820191906000526020600020905b81548152906001019060200180831161089257829003601f168201915b5050505050905090565b60006108c482611d31565b506000908152609b60205260409020546001600160a01b031690565b60006108eb82611409565b9050806001600160a01b0316836001600160a01b0316036109795760405162461bcd60e51b815260206004820152602160248201527f4552433732313a20617070726f76616c20746f2063757272656e74206f776e6560448201527f720000000000000000000000000000000000000000000000000000000000000060648201526084015b60405180910390fd5b336001600160a01b038216148061099557506109958133610752565b610a075760405162461bcd60e51b815260206004820152603d60248201527f4552433732313a20617070726f76652063616c6c6572206973206e6f7420746f60448201527f6b656e206f776e6572206f7220617070726f76656420666f7220616c6c0000006064820152608401610970565b610a118383611d95565b505050565b610a203382611e10565b610a925760405162461bcd60e51b815260206004820152602d60248201527f4552433732313a2063616c6c6572206973206e6f7420746f6b656e206f776e6560448201527f72206f7220617070726f766564000000000000000000000000000000000000006064820152608401610970565b610a11838383611e8e565b600061013754600003610ab257506101365490565b60006101375411610b055760405162461bcd60e51b815260206004820152601060248201527f496e636f727265637420776569676874000000000000000000000000000000006044820152606401610970565b600061013354610b13611845565b610b1d919061468d565b9050610137546101355482610b3291906146a0565b610b4490670de0b6b3a76400006146a0565b610b4e91906146b7565b61013654610b5c91906146d9565b91505090565b6000610821826120d1565b6000610b7a338484612412565b9392505050565b6000610b8c8361177e565b8210610c005760405162461bcd60e51b815260206004820152602b60248201527f455243373231456e756d657261626c653a206f776e657220696e646578206f7560448201527f74206f6620626f756e64730000000000000000000000000000000000000000006064820152608401610970565b506001600160a01b0391909116600090815260c960209081526040808320938352929052205490565b8060005b81811015610c6857610c56848483818110610c4a57610c4a6146ec565b90506020020135612646565b80610c6081614702565b915050610c2d565b50505050565b610a1183838360405180602001604052806000815250611972565b600054610100900460ff1615808015610ca95750600054600160ff909116105b80610cc35750303b158015610cc3575060005460ff166001145b610d355760405162461bcd60e51b815260206004820152602e60248201527f496e697469616c697a61626c653a20636f6e747261637420697320616c72656160448201527f647920696e697469616c697a65640000000000000000000000000000000000006064820152608401610970565b6000805460ff191660011790558015610d58576000805461ff0019166101001790555b610d60612710565b610dd46040518060400160405280600b81526020017f5374616b656420494e54580000000000000000000000000000000000000000008152506040518060400160405280600581526020017f58494e5458000000000000000000000000000000000000000000000000000000815250612783565b610ddc6127f8565b61013880546001600160a01b0380861673ffffffffffffffffffffffffffffffffffffffff19928316179092556101398054928516929091169190911790556293a80061012f556722b1c8c1227a0000610130556703782dace9d90000610131556611c37937e08000610132558015610a11576000805461ff0019169055604051600181527f7f26b83ff96e1f2b6a682f133852f6798a09c465da95921460cefb38474024989060200160405180910390a1505050565b600080670de0b6b3a7640000610ea88461286b565b600085815261013b6020526040902054610ec291906146a0565b610ecc91906146b7565b600084815261013c602052604081205491925090600290610eee9084906146d9565b610ef891906146b7565b600085815261013e602090815260408083205461013d9092529091205491925090670de0b6b3a764000090610f2b610a9d565b610f35919061468d565b610f3f90846146a0565b610f4991906146b7565b610f5391906146d9565b949350505050565b6000610f6660cb5490565b8210610fda5760405162461bcd60e51b815260206004820152602c60248201527f455243373231456e756d657261626c653a20676c6f62616c20696e646578206f60448201527f7574206f6620626f756e647300000000000000000000000000000000000000006064820152608401610970565b60cb8281548110610fed57610fed6146ec565b90600052602060002001549050919050565b61105e6040518061014001604052806000815260200160006001600160a01b0316815260200160008152602001600081526020016000815260200160008152602001600081526020016000815260200160008152602001600081525090565b61082182612908565b60008061107383612a51565b9050600061108084612a7f565b905081156110a557670de0b6b3a764000061109b82846146a0565b610f5391906146b7565b5050919050565b6060818067ffffffffffffffff8111156110c8576110c861454b565b60405190808252806020026020018201604052801561115857816020015b6111456040518061014001604052806000815260200160006001600160a01b0316815260200160008152602001600081526020016000815260200160008152602001600081526020016000815260200160008152602001600081525090565b8152602001906001900390816110e65790505b50915060005b818110156111b75761118785858381811061117b5761117b6146ec565b90506020020135612908565b838281518110611199576111996146ec565b602002602001018190525080806111af90614702565b91505061115e565b505092915050565b6111c7612b28565b610139546001600160a01b03166323b872dd336040516001600160e01b031960e084901b1681526001600160a01b039091166004820152306024820152604481018490526064016020604051808303816000875af115801561122d573d6000803e3d6000fd5b505050506040513d601f19601f82011682018060405250810190611251919061471c565b506101345442106112725761126962093a80826146b7565b610135556112b7565b60004261013454611283919061468d565b90506000610135548261129691906146a0565b905062093a806112a682856146d9565b6112b091906146b7565b6101355550505b610139546040517f70a082310000000000000000000000000000000000000000000000000000000081523060048201526000916001600160a01b0316906370a0823190602401602060405180830381865afa15801561131a573d6000803e3d6000fd5b505050506040513d601f19601f8201168201806040525081019061133e9190614739565b905061134d62093a80826146b7565b61013554111561139f5760405162461bcd60e51b815260206004820152601860248201527f50726f76696465642072657761726420746f6f206869676800000000000000006044820152606401610970565b426101338190556113b49062093a80906146d9565b610134557fde88a922e0d3b88b24e9623efeb464919c6bf9f66857a65e2bfcf2ce87a9433d6113eb670de0b6b3a7640000846146b7565b60405190815260200160405180910390a15061140660018055565b50565b6000818152609960205260408120546001600160a01b0316806108215760405162461bcd60e51b815260206004820152601860248201527f4552433732313a20696e76616c696420746f6b656e20494400000000000000006044820152606401610970565b6000818152609960205260408120546001600160a01b031615611494576108218261286b565b919050565b6060610f5384848480806020026020016040519081016040528093929190818152602001838360200280828437600092019190915250612b8792505050565b600080805261013f6020527f2fb4751f8cdca7ddef8835086998ac4e6142e693722b72b0741423d80a6958c9548291908190815b8481101561167257868682818110611526576115266146ec565b905060200201359350611550846000908152609960205260409020546001600160a01b0316151590565b61159c5760405162461bcd60e51b815260206004820152601c60248201527f5468697320706f736974696f6e20646f65736e27742065786973742e000000006044820152606401610970565b6000848152609960205260409020546001600160a01b0316925033831461162b5760405162461bcd60e51b815260206004820152602760248201527f596f7520617265206e6f7420746865206f776e6572206f66207468697320706f60448201527f736974696f6e2e000000000000000000000000000000000000000000000000006064820152608401610970565b61163484612646565b600084815261013e602052604090205461164e90836146d9565b600085815261013e602052604081205591508061166a81614702565b91505061150c565b506001600160a01b03828116600081815261013f6020526040808220919091556101395490517fa9059cbb0000000000000000000000000000000000000000000000000000000081526004810192909252602482018490529091169063a9059cbb906044016020604051808303816000875af11580156116f6573d6000803e3d6000fd5b505050506040513d601f19601f8201168201806040525081019061171a919061471c565b50858560405161172b929190614752565b6040518091039020826001600160a01b03167f916f43dce61aa4c4d8761c25ddcacfe178ea96a18f68d2775354bbc06be75aaa8360405161176e91815260200190565b60405180910390a3505050505050565b60006001600160a01b0382166117fc5760405162461bcd60e51b815260206004820152602960248201527f4552433732313a2061646472657373207a65726f206973206e6f74206120766160448201527f6c6964206f776e657200000000000000000000000000000000000000000000006064820152608401610970565b506001600160a01b03166000908152609a602052604090205490565b6118206130db565b61182a6000613135565b565b6000611839333385612412565b9050610a118183613194565b600061185442610134546135bc565b905090565b606060006118668361177e565b90508067ffffffffffffffff8111156118815761188161454b565b6040519080825280602002602001820160405280156118aa578160200160208202803683370190505b50915060005b818110156110a5576118c28482610b81565b8382815181106118d4576118d46146ec565b6020908102919091010152806118e981614702565b9150506118b0565b6060609880546108369061463d565b6000818152609960205260408120546001600160a01b0316156114945761082182612a7f565b6000818152609960205260408120546001600160a01b0316156114945761082182612a51565b6119573383836135d2565b5050565b60006118546136a0565b6000610821333384612412565b61197c3383611e10565b6119ee5760405162461bcd60e51b815260206004820152602d60248201527f4552433732313a2063616c6c6572206973206e6f7420746f6b656e206f776e6560448201527f72206f7220617070726f766564000000000000000000000000000000000000006064820152608401610970565b610c68848484846136e3565b6060611a0582611d31565b6000611a1c60408051602081019091526000815290565b90506000815111611a3c5760405180602001604052806000815250610b7a565b80611a468461376c565b604051602001611a57929190614794565b6040516020818303038152906040529392505050565b6119578282613194565b600080611a8383612a51565b90506000611a9084612a7f565b905081156110a557670de0b6b3a7640000611aab82846146a0565b611ab591906146b7565b610f53908361468d565b600082815261013b60205260408120548190838111611b465760405162461bcd60e51b815260206004820152602e60248201527f596f752063616e2774207061727469616c6c79207769746864726177206d6f7260448201527f65207468616e20796f75206f776e0000000000000000000000000000000000006064820152608401610970565b6040805160028082526060820183526000926020830190803683370190505090508481600081518110611b7b57611b7b6146ec565b6020908102919091010152611b90858361468d565b81600181518110611ba357611ba36146ec565b6020026020010181815250506000611bbb8783612b87565b9050611be081600081518110611bd357611bd36146ec565b60200260200101516120d1565b945080600181518110611bf557611bf56146ec565b602002602001015193505050509250929050565b611c116130db565b6001600160a01b038116611c8d5760405162461bcd60e51b815260206004820152602660248201527f4f776e61626c653a206e6577206f776e657220697320746865207a65726f206160448201527f64647265737300000000000000000000000000000000000000000000000000006064820152608401610970565b61140681613135565b60006001600160e01b031982167f80ac58cd000000000000000000000000000000000000000000000000000000001480611cf957506001600160e01b031982167f5b5e139f00000000000000000000000000000000000000000000000000000000145b8061082157507f01ffc9a7000000000000000000000000000000000000000000000000000000006001600160e01b0319831614610821565b6000818152609960205260409020546001600160a01b03166114065760405162461bcd60e51b815260206004820152601860248201527f4552433732313a20696e76616c696420746f6b656e20494400000000000000006044820152606401610970565b6000818152609b60205260409020805473ffffffffffffffffffffffffffffffffffffffff19166001600160a01b0384169081179091558190611dd782611409565b6001600160a01b03167f8c5be1e5ebec7d5bd14f71427d1e84f3dd0314c0f7b2291e5b200ac8c7c3b92560405160405180910390a45050565b600080611e1c83611409565b9050806001600160a01b0316846001600160a01b03161480611e6357506001600160a01b038082166000908152609c602090815260408083209388168352929052205460ff165b80610f535750836001600160a01b0316611e7c846108b9565b6001600160a01b031614949350505050565b826001600160a01b0316611ea182611409565b6001600160a01b031614611f1d5760405162461bcd60e51b815260206004820152602560248201527f4552433732313a207472616e736665722066726f6d20696e636f72726563742060448201527f6f776e65720000000000000000000000000000000000000000000000000000006064820152608401610970565b6001600160a01b038216611f985760405162461bcd60e51b8152602060048201526024808201527f4552433732313a207472616e7366657220746f20746865207a65726f2061646460448201527f72657373000000000000000000000000000000000000000000000000000000006064820152608401610970565b611fa5838383600161380c565b826001600160a01b0316611fb882611409565b6001600160a01b0316146120345760405162461bcd60e51b815260206004820152602560248201527f4552433732313a207472616e736665722066726f6d20696e636f72726563742060448201527f6f776e65720000000000000000000000000000000000000000000000000000006064820152608401610970565b6000818152609b60209081526040808320805473ffffffffffffffffffffffffffffffffffffffff199081169091556001600160a01b03878116808652609a8552838620805460001901905590871680865283862080546001019055868652609990945282852080549092168417909155905184937fddf252ad1be2c89b69c2b068fc378daa952ba7f163c4a11628f55a4df523b3ef91a4505050565b60006120db612b28565b6000828152609960205260409020546001600160a01b031661213f5760405162461bcd60e51b815260206004820152601c60248201527f5468697320706f736974696f6e20646f65736e27742065786973742e000000006044820152606401610970565b6000828152609960205260409020546001600160a01b03163381146121a65760405162461bcd60e51b815260206004820152601360248201527f4e6f7420796f75722078494e5458204e46542e000000000000000000000000006044820152606401610970565b6121af83612646565b600083815261013b602052604081205490670de0b6b3a76400006121d28661286b565b6121dc90846146a0565b6121e691906146b7565b905060006121f26136a0565b90506000670de0b6b3a764000061220983866146a0565b61221391906146b7565b90506000670de0b6b3a764000061222989612a7f565b61223390846146a0565b61223d91906146b7565b9050612249818361468d565b600089815261013a6020908152604080832083905561013b825280832083905561013c825280832083905561013d825280832083905561013e909152902054909750156122ce57600088815261013e60209081526040808320546001600160a01b038a16845261013f90925282208054919290916122c89084906146d9565b90915550505b600088815261013e60205260408120556122e788613948565b8461012e60008282546122fa919061468d565b92505081905550836101376000828254612314919061468d565b9091555050610138546040517fa9059cbb0000000000000000000000000000000000000000000000000000000081526001600160a01b038881166004830152602482018a90529091169063a9059cbb906044016020604051808303816000875af1158015612386573d6000803e3d6000fd5b505050506040513d601f19601f820116820180604052508101906123aa919061471c565b5061012e5460408051878152602081018a905280820184905260608101929092525189916001600160a01b038916917f44bd20a79e993bdcc7cbedf54a3b4d19fb78490124b6b90d04fe3242eea579e89181900360800190a350505050505061149460018055565b600061241c612b28565b6000821161246c5760405162461bcd60e51b815260206004820152601360248201527f43616e2774207374616b65203020696e74582e000000000000000000000000006044820152606401610970565b60006124766136a0565b610138546040517f23b872dd0000000000000000000000000000000000000000000000000000000081526001600160a01b038881166004830152306024830152604482018790529293509116906323b872dd906064016020604051808303816000875af11580156124eb573d6000803e3d6000fd5b505050506040513d601f19601f8201168201806040525081019061250f919061471c565b5061012d805490600061252183614702565b91905055506125338461012d546139f8565b61253c82612646565b600081612551670de0b6b3a7640000866146a0565b61255b91906146b7565b61012d8054600090815261013a602090815260408083204290559254825261013b905290812082905561012e8054929350839290919061259c9084906146d9565b925050819055508061013760008282546125b691906146d9565b909155505061012d8054600090815261013c6020908152604091829020849055915461012e54610137548351868152948501899052928401526060830191909152906001600160a01b0380881691908916907f52c6b7a228763dc832bef1e2dee48707b24b8f1400a6335b3af6d5def4f5bb219060800160405180910390a461012d5492505050610b7a60018055565b61264e610a9d565b6101365561265a611845565b6101335580156114065761266d81610e93565b600082815261013e6020526040812091909155670de0b6b3a76400006126928361286b565b600084815261013b60205260409020546126ac91906146a0565b6126b691906146b7565b600083815261013c60205260409020549091506126d49082906146d9565b61013760008282546126e6919061468d565b9091555050600091825261013c60209081526040808420929092556101365461013d909152912055565b600054610100900460ff1661277b5760405162461bcd60e51b815260206004820152602b60248201527f496e697469616c697a61626c653a20636f6e7472616374206973206e6f74206960448201526a6e697469616c697a696e6760a81b6064820152608401610970565b61182a613b9e565b600054610100900460ff166127ee5760405162461bcd60e51b815260206004820152602b60248201527f496e697469616c697a61626c653a20636f6e7472616374206973206e6f74206960448201526a6e697469616c697a696e6760a81b6064820152608401610970565b6119578282613c09565b600054610100900460ff166128635760405162461bcd60e51b815260206004820152602b60248201527f496e697469616c697a61626c653a20636f6e7472616374206973206e6f74206960448201526a6e697469616c697a696e6760a81b6064820152608401610970565b61182a613c8d565b600081815261013a602052604081205480820361288b5750600092915050565b6000612897824261468d565b905061012f548111156128aa575061012f545b670de0b6b3a764000080610130546128c2919061468d565b61012f546128d8670de0b6b3a7640000856146a0565b6128e291906146b7565b6128ec91906146a0565b6128f691906146b7565b610f5390670de0b6b3a76400006146d9565b6129676040518061014001604052806000815260200160006001600160a01b0316815260200160008152602001600081526020016000815260200160008152602001600081526020016000815260200160008152602001600081525090565b600061297283612a51565b9050600061297f84612a7f565b8484526000858152609960209081526040808320546001600160a01b03168288015287835261013b909152908190205490850152606084018390529050670de0b6b3a76400006129cf82846146a0565b6129d991906146b7565b6129e3908361468d565b6080840152600084815261013a602052604090205460a0840152612a068461286b565b60c084015260e08301819052670de0b6b3a7640000612a2582846146a0565b612a2f91906146b7565b6101008401525050600091825261013e60205260409091205461012082015290565b600081815261013b602052604081205481612a6a6136a0565b9050670de0b6b3a764000061109b82846146a0565b600081815261013a6020526040812054808203612a9f5750600092915050565b6000612aab824261468d565b905061012f54811115612abe575061012f545b670de0b6b3a76400006101315461012f54670de0b6b3a764000084612ae391906146a0565b612aed91906146b7565b612af791906146a0565b612b0191906146b7565b61013154612b0f919061468d565b9250610132548310156110a55750506101325492915050565b600260015403612b7a5760405162461bcd60e51b815260206004820152601f60248201527f5265656e7472616e637947756172643a207265656e7472616e742063616c6c006044820152606401610970565b6002600155565b60018055565b6060612b91612b28565b6000838152609960205260409020546001600160a01b0316612bf55760405162461bcd60e51b815260206004820152601c60248201527f5468697320706f736974696f6e20646f65736e27742065786973742e000000006044820152606401610970565b6000838152609960205260409020546001600160a01b0316338114612c5c5760405162461bcd60e51b815260206004820152601360248201527f4e6f7420796f75722078494e5458204e46542e000000000000000000000000006044820152606401610970565b825160018111612cd45760405162461bcd60e51b815260206004820152602c60248201527f596f752063616e27742073706c697420746869732058494e5458206c6573732060448201527f7468616e20322074696d657300000000000000000000000000000000000000006064820152608401610970565b600a811115612d4b5760405162461bcd60e51b815260206004820152602d60248201527f596f752063616e27742073706c697420746869732058494e5458206d6f72652060448201527f7468616e2031302074696d6573000000000000000000000000000000000000006064820152608401610970565b8067ffffffffffffffff811115612d6457612d6461454b565b604051908082528060200260200182016040528015612d8d578160200160208202803683370190505b509250612d9985612646565b600085815261013b602090815260408083205461013a83528184205461013d9093529083205461012e80549293928491908690612dd790849061468d565b9091555050600089815261013c6020526040812054610137805491929091612e0090849061468d565b90915550600090505b85811015612e4a57888181518110612e2357612e236146ec565b602002602001015185612e3691906146d9565b945080612e4281614702565b915050612e09565b5060005b8581101561303057600085858b8481518110612e6c57612e6c6146ec565b6020026020010151612e7e91906146a0565b612e8891906146b7565b905060008111612eda5760405162461bcd60e51b815260206004820152601460248201527f43616e27742073706c697420302078494e54582e0000000000000000000000006044820152606401610970565b61012d8054906000612eeb83614702565b9190505550612efd8861012d546139f8565b61012d54898381518110612f1357612f136146ec565b60209081029190910181019190915261012d8054600090815261013a835260408082208890558254825261013b90935291822083905554670de0b6b3a764000090612f5d9061286b565b612f6790846146a0565b612f7191906146b7565b61012d8054600090815261013c602090815260408083208590559254825261013d905290812086905561012e80549293508492909190612fb29084906146d9565b92505081905550806101376000828254612fcc91906146d9565b909155505061012d5460408051918252602082018490528d916001600160a01b038c16917ff66885c33d648fcd0d97e0f2a18e30102169c22763473af0fb716f11b4a17dd6910160405180910390a35050808061302890614702565b915050612e4e565b50600089815261013a6020908152604080832083905561013b825280832083905561013c825280832083905561013d825280832083905561013e909152902054156130b357600089815261013e60209081526040808320546001600160a01b038a16845261013f90925282208054919290916130ad9084906146d9565b90915550505b600089815261013e60205260408120556130cc89613948565b50505050505061082160018055565b60fb546001600160a01b0316331461182a5760405162461bcd60e51b815260206004820181905260248201527f4f776e61626c653a2063616c6c6572206973206e6f7420746865206f776e65726044820152606401610970565b60fb80546001600160a01b0383811673ffffffffffffffffffffffffffffffffffffffff19831681179093556040519116919082907f8be0079c531659141344cd1fd0a4f28419497f9722a3daafe3b4186f6b6457e090600090a35050565b61319c612b28565b6000828152609960205260409020546001600160a01b03166132005760405162461bcd60e51b815260206004820152601c60248201527f5468697320706f736974696f6e20646f65736e27742065786973742e000000006044820152606401610970565b6000818152609960205260409020546001600160a01b03166132645760405162461bcd60e51b815260206004820152601c60248201527f5468697320706f736974696f6e20646f65736e27742065786973742e000000006044820152606401610970565b6000828152609960205260409020546001600160a01b03163381146132cb5760405162461bcd60e51b815260206004820152601e60248201527f46726f6d204e46542069736e277420796f75722078494e5458204e46542e00006044820152606401610970565b6000828152609960205260409020546001600160a01b038281169116146133345760405162461bcd60e51b815260206004820152601760248201527f546f204e46542069736e27742078494e5458204e46542e0000000000000000006044820152606401610970565b61333d83612646565b61334682612646565b600083815261013b602090815260408083205461013a90925282205490919061336f904261468d565b600085815261013b602090815260408083205461013a90925282205492935091613399904261468d565b905060006133a783866146d9565b90506000811161341f5760405162461bcd60e51b815260206004820152602360248201527f43616e2774206d616b65206120706f736974696f6e207769746820302078494e60448201527f54582e00000000000000000000000000000000000000000000000000000000006064820152608401610970565b60008161342c85856146a0565b61343691906146b7565b8261344188886146a0565b61344b91906146b7565b61345591906146d9565b600089815261013b602052604090208390559050613473814261468d565b600089815261013a6020526040812091909155670de0b6b3a76400006134988a61286b565b6134a290856146a0565b6134ac91906146b7565b60008a815261013c602081815260408084208590558e845261013a825280842084905561013b825280842084905591815281832083905561013d815281832083905561013e90529020549091501561353c5760008a815261013e60209081526040808320546001600160a01b038c16845261013f90925282208054919290916135369084906146d9565b90915550505b60008a815261013e60205260408120556135558a613948565b896001600160a01b0389167f50d7f0ef4f7b59921566f6b835fb032efa0fd0dacccb9361292f89b7aa6bafdd8b8661358d874261468d565b6040805193845260208401929092529082015260600160405180910390a3505050505050505061195760018055565b60008183106135cb5781610b7a565b5090919050565b816001600160a01b0316836001600160a01b0316036136335760405162461bcd60e51b815260206004820152601960248201527f4552433732313a20617070726f766520746f2063616c6c6572000000000000006044820152606401610970565b6001600160a01b038381166000818152609c6020908152604080832094871680845294825291829020805460ff191686151590811790915591519182527f17307eab39ab6107e8899845ad3d59bd9653f200f220920489ca2b5937696c31910160405180910390a3505050565b600061012e546000036136ba5750670de0b6b3a764000090565b61012e54670de0b6b3a76400006136cf613d01565b6136d991906146a0565b61185491906146b7565b6136ee848484611e8e565b6136fa84848484613d88565b610c685760405162461bcd60e51b815260206004820152603260248201527f4552433732313a207472616e7366657220746f206e6f6e20455243373231526560448201527f63656976657220696d706c656d656e74657200000000000000000000000000006064820152608401610970565b6060600061377983613f11565b600101905060008167ffffffffffffffff8111156137995761379961454b565b6040519080825280601f01601f1916602001820160405280156137c3576020820181803683370190505b5090508181016020015b600019017f3031323334353637383961626364656600000000000000000000000000000000600a86061a8153600a85049450846137cd57509392505050565b60018111156138835760405162461bcd60e51b815260206004820152603560248201527f455243373231456e756d657261626c653a20636f6e736563757469766520747260448201527f616e7366657273206e6f7420737570706f7274656400000000000000000000006064820152608401610970565b816001600160a01b0385166138df576138da8160cb8054600083815260cc60205260408120829055600182018355919091527fa7ce836d032b2bf62b7e2097a8e0a6d8aeb35405ad15271e96d3b0188a1d06fb0155565b613902565b836001600160a01b0316856001600160a01b031614613902576139028582613ff3565b6001600160a01b03841661391e5761391981614090565b613941565b846001600160a01b0316846001600160a01b03161461394157613941848261413f565b5050505050565b600061395382611409565b905061396381600084600161380c565b61396c82611409565b6000838152609b60209081526040808320805473ffffffffffffffffffffffffffffffffffffffff199081169091556001600160a01b038516808552609a845282852080546000190190558785526099909352818420805490911690555192935084927fddf252ad1be2c89b69c2b068fc378daa952ba7f163c4a11628f55a4df523b3ef908390a45050565b6001600160a01b038216613a4e5760405162461bcd60e51b815260206004820181905260248201527f4552433732313a206d696e7420746f20746865207a65726f20616464726573736044820152606401610970565b6000818152609960205260409020546001600160a01b031615613ab35760405162461bcd60e51b815260206004820152601c60248201527f4552433732313a20746f6b656e20616c7265616479206d696e746564000000006044820152606401610970565b613ac160008383600161380c565b6000818152609960205260409020546001600160a01b031615613b265760405162461bcd60e51b815260206004820152601c60248201527f4552433732313a20746f6b656e20616c7265616479206d696e746564000000006044820152606401610970565b6001600160a01b0382166000818152609a60209081526040808320805460010190558483526099909152808220805473ffffffffffffffffffffffffffffffffffffffff19168417905551839291907fddf252ad1be2c89b69c2b068fc378daa952ba7f163c4a11628f55a4df523b3ef908290a45050565b600054610100900460ff16612b815760405162461bcd60e51b815260206004820152602b60248201527f496e697469616c697a61626c653a20636f6e7472616374206973206e6f74206960448201526a6e697469616c697a696e6760a81b6064820152608401610970565b600054610100900460ff16613c745760405162461bcd60e51b815260206004820152602b60248201527f496e697469616c697a61626c653a20636f6e7472616374206973206e6f74206960448201526a6e697469616c697a696e6760a81b6064820152608401610970565b6097613c808382614811565b506098610a118282614811565b600054610100900460ff16613cf85760405162461bcd60e51b815260206004820152602b60248201527f496e697469616c697a61626c653a20636f6e7472616374206973206e6f74206960448201526a6e697469616c697a696e6760a81b6064820152608401610970565b61182a33613135565b610138546040517f70a082310000000000000000000000000000000000000000000000000000000081523060048201526000916001600160a01b0316906370a0823190602401602060405180830381865afa158015613d64573d6000803e3d6000fd5b505050506040513d601f19601f820116820180604052508101906118549190614739565b60006001600160a01b0384163b15613f06576040517f150b7a020000000000000000000000000000000000000000000000000000000081526001600160a01b0385169063150b7a0290613de59033908990889088906004016148d1565b6020604051808303816000875af1925050508015613e20575060408051601f3d908101601f19168201909252613e1d9181019061490d565b60015b613ed3573d808015613e4e576040519150601f19603f3d011682016040523d82523d6000602084013e613e53565b606091505b508051600003613ecb5760405162461bcd60e51b815260206004820152603260248201527f4552433732313a207472616e7366657220746f206e6f6e20455243373231526560448201527f63656976657220696d706c656d656e74657200000000000000000000000000006064820152608401610970565b805181602001fd5b6001600160e01b0319167f150b7a0200000000000000000000000000000000000000000000000000000000149050610f53565b506001949350505050565b6000807a184f03e93ff9f4daa797ed6e38ed64bf6a1f0100000000000000008310613f5a577a184f03e93ff9f4daa797ed6e38ed64bf6a1f010000000000000000830492506040015b6d04ee2d6d415b85acef81000000008310613f86576d04ee2d6d415b85acef8100000000830492506020015b662386f26fc100008310613fa457662386f26fc10000830492506010015b6305f5e1008310613fbc576305f5e100830492506008015b6127108310613fd057612710830492506004015b60648310613fe2576064830492506002015b600a83106108215760010192915050565b600060016140008461177e565b61400a919061468d565b600083815260ca602052604090205490915080821461405d576001600160a01b038416600090815260c960209081526040808320858452825280832054848452818420819055835260ca90915290208190555b50600091825260ca602090815260408084208490556001600160a01b03909416835260c981528383209183525290812055565b60cb546000906140a29060019061468d565b600083815260cc602052604081205460cb80549394509092849081106140ca576140ca6146ec565b906000526020600020015490508060cb83815481106140eb576140eb6146ec565b600091825260208083209091019290925582815260cc909152604080822084905585825281205560cb8054806141235761412361492a565b6001900381819060005260206000200160009055905550505050565b600061414a8361177e565b6001600160a01b03909316600090815260c960209081526040808320868452825280832085905593825260ca9052919091209190915550565b6001600160e01b03198116811461140657600080fd5b6000602082840312156141ab57600080fd5b8135610b7a81614183565b60005b838110156141d15781810151838201526020016141b9565b50506000910152565b600081518084526141f28160208601602086016141b6565b601f01601f19169290920160200192915050565b602081526000610b7a60208301846141da565b60006020828403121561422b57600080fd5b5035919050565b80356001600160a01b038116811461149457600080fd5b6000806040838503121561425c57600080fd5b61426583614232565b946020939093013593505050565b60008060006060848603121561428857600080fd5b61429184614232565b925061429f60208501614232565b9150604084013590509250925092565b60008083601f8401126142c157600080fd5b50813567ffffffffffffffff8111156142d957600080fd5b6020830191508360208260051b85010111156142f457600080fd5b9250929050565b6000806020838503121561430e57600080fd5b823567ffffffffffffffff81111561432557600080fd5b614331858286016142af565b90969095509350505050565b6000806040838503121561435057600080fd5b61435983614232565b915061436760208401614232565b90509250929050565b80518252602081015161438e60208401826001600160a01b03169052565b5060408101516040830152606081015160608301526080810151608083015260a081015160a083015260c081015160c083015260e081015160e08301526101008082015181840152506101208082015181840152505050565b61014081016108218284614370565b6020808252825182820181905260009190848201906040850190845b8181101561443957614425838551614370565b928401926101409290920191600101614412565b50909695505050505050565b60008060006040848603121561445a57600080fd5b83359250602084013567ffffffffffffffff81111561447857600080fd5b614484868287016142af565b9497909650939450505050565b6020808252825182820181905260009190848201906040850190845b81811015614439578351835292840192918401916001016144ad565b6000602082840312156144db57600080fd5b610b7a82614232565b600080604083850312156144f757600080fd5b50508035926020909101359150565b801515811461140657600080fd5b6000806040838503121561452757600080fd5b61453083614232565b9150602083013561454081614506565b809150509250929050565b634e487b7160e01b600052604160045260246000fd5b6000806000806080858703121561457757600080fd5b61458085614232565b935061458e60208601614232565b925060408501359150606085013567ffffffffffffffff808211156145b257600080fd5b818701915087601f8301126145c657600080fd5b8135818111156145d8576145d861454b565b604051601f8201601f19908116603f011681019083821181831017156146005761460061454b565b816040528281528a602084870101111561461957600080fd5b82602086016020830137600060208483010152809550505050505092959194509250565b600181811c9082168061465157607f821691505b60208210810361467157634e487b7160e01b600052602260045260246000fd5b50919050565b634e487b7160e01b600052601160045260246000fd5b8181038181111561082157610821614677565b808202811582820484141761082157610821614677565b6000826146d457634e487b7160e01b600052601260045260246000fd5b500490565b8082018082111561082157610821614677565b634e487b7160e01b600052603260045260246000fd5b6000600019820361471557614715614677565b5060010190565b60006020828403121561472e57600080fd5b8151610b7a81614506565b60006020828403121561474b57600080fd5b5051919050565b60007f07ffffffffffffffffffffffffffffffffffffffffffffffffffffffffffffff83111561478157600080fd5b8260051b80858437919091019392505050565b600083516147a68184602088016141b6565b8351908301906147ba8183602088016141b6565b01949350505050565b601f821115610a1157600081815260208120601f850160051c810160208610156147ea5750805b601f850160051c820191505b81811015614809578281556001016147f6565b505050505050565b815167ffffffffffffffff81111561482b5761482b61454b565b61483f81614839845461463d565b846147c3565b602080601f831160018114614874576000841561485c5750858301515b600019600386901b1c1916600185901b178555614809565b600085815260208120601f198616915b828110156148a357888601518255948401946001909101908401614884565b50858210156148c15787850151600019600388901b60f8161c191681555b5050505050600190811b01905550565b60006001600160a01b0380871683528086166020840152508360408301526080606083015261490360808301846141da565b9695505050505050565b60006020828403121561491f57600080fd5b8151610b7a81614183565b634e487b7160e01b600052603160045260246000fdfea26469706673582212201798358bb8fdb4b66f1b5dc9675f8eebeac56dae073328f1c593453818c6f07364736f6c63430008130033",
  "linkReferences": {},
  "deployedLinkReferences": {}
}