{
  "_format": "hh-sol-artifact-1",
  "contractName": "StakedINTX",
  "sourceName": "contracts/StakedINTX.sol",
  "abi": [
    {
      "inputs": [],
      "stateMutability": "nonpayable",
      "type": "constructor"
    },
    {
      "anonymous": false,
      "inputs": [
        {
          "indexed": true,
          "internalType": "address",
          "name": "owner",
          "type": "address"
        },
        {
          "indexed": true,
          "internalType": "address",
          "name": "approved",
          "type": "address"
        },
        {
          "indexed": true,
          "internalType": "uint256",
          "name": "tokenId",
          "type": "uint256"
        }
      ],
      "name": "Approval",
      "type": "event"
    },
    {
      "anonymous": false,
      "inputs": [
        {
          "indexed": true,
          "internalType": "address",
          "name": "owner",
          "type": "address"
        },
        {
          "indexed": true,
          "internalType": "address",
          "name": "operator",
          "type": "address"
        },
        {
          "indexed": false,
          "internalType": "bool",
          "name": "approved",
          "type": "bool"
        }
      ],
      "name": "ApprovalForAll",
      "type": "event"
    },
    {
      "anonymous": false,
      "inputs": [
        {
          "indexed": true,
          "internalType": "address",
          "name": "owner",
          "type": "address"
        },
        {
          "indexed": true,
          "internalType": "uint256",
          "name": "tokenId",
          "type": "uint256"
        },
        {
          "indexed": false,
          "internalType": "uint256",
          "name": "amountBurned",
          "type": "uint256"
        },
        {
          "indexed": false,
          "internalType": "uint256",
          "name": "amountIntxOut",
          "type": "uint256"
        },
        {
          "indexed": false,
          "internalType": "uint256",
          "name": "amountIntxPenalized",
          "type": "uint256"
        },
        {
          "indexed": false,
          "internalType": "uint256",
          "name": "totalXINTXNew",
          "type": "uint256"
        }
      ],
      "name": "Burn",
      "type": "event"
    },
    {
      "anonymous": false,
      "inputs": [
        {
          "indexed": true,
          "internalType": "address",
          "name": "owner",
          "type": "address"
        },
        {
          "indexed": false,
          "internalType": "uint256",
          "name": "amountOut",
          "type": "uint256"
        },
        {
          "indexed": true,
          "internalType": "uint256[]",
          "name": "tokenIds",
          "type": "uint256[]"
        }
      ],
      "name": "Claim",
      "type": "event"
    },
    {
      "anonymous": false,
      "inputs": [
        {
          "indexed": false,
          "internalType": "uint8",
          "name": "version",
          "type": "uint8"
        }
      ],
      "name": "Initialized",
      "type": "event"
    },
    {
      "anonymous": false,
      "inputs": [
        {
          "indexed": true,
          "internalType": "address",
          "name": "owner",
          "type": "address"
        },
        {
          "indexed": true,
          "internalType": "uint256",
          "name": "tokenIdFrom",
          "type": "uint256"
        },
        {
          "indexed": false,
          "internalType": "uint256",
          "name": "tokenIdTo",
          "type": "uint256"
        },
        {
          "indexed": false,
          "internalType": "uint256",
          "name": "newBalance",
          "type": "uint256"
        },
        {
          "indexed": false,
          "internalType": "uint256",
          "name": "newLoyalSince",
          "type": "uint256"
        }
      ],
      "name": "Merge",
      "type": "event"
    },
    {
      "anonymous": false,
      "inputs": [
        {
          "indexed": true,
          "internalType": "address",
          "name": "from",
          "type": "address"
        },
        {
          "indexed": true,
          "internalType": "address",
          "name": "to",
          "type": "address"
        },
        {
          "indexed": true,
          "internalType": "uint256",
          "name": "tokenId",
          "type": "uint256"
        },
        {
          "indexed": false,
          "internalType": "uint256",
          "name": "amountMinted",
          "type": "uint256"
        },
        {
          "indexed": false,
          "internalType": "uint256",
          "name": "amountIntxIn",
          "type": "uint256"
        },
        {
          "indexed": false,
          "internalType": "uint256",
          "name": "totalXINTXNew",
          "type": "uint256"
        },
        {
          "indexed": false,
          "internalType": "uint256",
          "name": "newTotalWeight",
          "type": "uint256"
        }
      ],
      "name": "Mint",
      "type": "event"
    },
    {
      "anonymous": false,
      "inputs": [
        {
          "indexed": true,
          "internalType": "address",
          "name": "previousOwner",
          "type": "address"
        },
        {
          "indexed": true,
          "internalType": "address",
          "name": "newOwner",
          "type": "address"
        }
      ],
      "name": "OwnershipTransferred",
      "type": "event"
    },
    {
      "anonymous": false,
      "inputs": [
        {
          "indexed": false,
          "internalType": "uint256",
          "name": "rewardAdded",
          "type": "uint256"
        }
      ],
      "name": "RewardAdded",
      "type": "event"
    },
    {
      "anonymous": false,
      "inputs": [
        {
          "indexed": true,
          "internalType": "address",
          "name": "owner",
          "type": "address"
        },
        {
          "indexed": true,
          "internalType": "uint256",
          "name": "tokenIdFrom",
          "type": "uint256"
        },
        {
          "indexed": false,
          "internalType": "uint256",
          "name": "tokenIdTo",
          "type": "uint256"
        },
        {
          "indexed": false,
          "internalType": "uint256",
          "name": "balanceSplitted",
          "type": "uint256"
        }
      ],
      "name": "Split",
      "type": "event"
    },
    {
      "anonymous": false,
      "inputs": [
        {
          "indexed": true,
          "internalType": "address",
          "name": "from",
          "type": "address"
        },
        {
          "indexed": true,
          "internalType": "address",
          "name": "to",
          "type": "address"
        },
        {
          "indexed": true,
          "internalType": "uint256",
          "name": "tokenId",
          "type": "uint256"
        }
      ],
      "name": "Transfer",
      "type": "event"
    },
    {
      "inputs": [],
      "name": "DURATION",
      "outputs": [
        {
          "internalType": "uint256",
          "name": "",
          "type": "uint256"
        }
      ],
      "stateMutability": "view",
      "type": "function"
    },
    {
      "inputs": [],
      "name": "INTX",
      "outputs": [
        {
          "internalType": "contract IERC20",
          "name": "",
          "type": "address"
        }
      ],
      "stateMutability": "view",
      "type": "function"
    },
    {
      "inputs": [],
      "name": "P",
      "outputs": [
        {
          "internalType": "uint256",
          "name": "",
          "type": "uint256"
        }
      ],
      "stateMutability": "view",
      "type": "function"
    },
    {
      "inputs": [
        {
          "internalType": "uint256",
          "name": "_intxAmount",
          "type": "uint256"
        },
        {
          "internalType": "uint256",
          "name": "tokenTo",
          "type": "uint256"
        }
      ],
      "name": "add",
      "outputs": [],
      "stateMutability": "nonpayable",
      "type": "function"
    },
    {
      "inputs": [
        {
          "internalType": "uint256",
          "name": "_tokenId",
          "type": "uint256"
        }
      ],
      "name": "amountStakedOf",
      "outputs": [
        {
          "internalType": "uint256",
          "name": "amount",
          "type": "uint256"
        }
      ],
      "stateMutability": "view",
      "type": "function"
    },
    {
      "inputs": [
        {
          "internalType": "address",
          "name": "to",
          "type": "address"
        },
        {
          "internalType": "uint256",
          "name": "tokenId",
          "type": "uint256"
        }
      ],
      "name": "approve",
      "outputs": [],
      "stateMutability": "nonpayable",
      "type": "function"
    },
    {
      "inputs": [
        {
          "internalType": "address",
          "name": "owner",
          "type": "address"
        }
      ],
      "name": "balanceOf",
      "outputs": [
        {
          "internalType": "uint256",
          "name": "",
          "type": "uint256"
        }
      ],
      "stateMutability": "view",
      "type": "function"
    },
    {
      "inputs": [
        {
          "internalType": "uint256",
          "name": "",
          "type": "uint256"
        }
      ],
      "name": "balanceOfId",
      "outputs": [
        {
          "internalType": "uint256",
          "name": "",
          "type": "uint256"
        }
      ],
      "stateMutability": "view",
      "type": "function"
    },
    {
      "inputs": [
        {
          "internalType": "uint256",
          "name": "_tokenId",
          "type": "uint256"
        }
      ],
      "name": "boostPercentageOf",
      "outputs": [
        {
          "internalType": "uint256",
          "name": "boostPercentage",
          "type": "uint256"
        }
      ],
      "stateMutability": "view",
      "type": "function"
    },
    {
      "inputs": [
        {
          "internalType": "uint256[]",
          "name": "_tokenIds",
          "type": "uint256[]"
        }
      ],
      "name": "claim",
      "outputs": [],
      "stateMutability": "nonpayable",
      "type": "function"
    },
    {
      "inputs": [],
      "name": "currentExchangeRate",
      "outputs": [
        {
          "internalType": "uint256",
          "name": "_exchangeRate",
          "type": "uint256"
        }
      ],
      "stateMutability": "view",
      "type": "function"
    },
    {
      "inputs": [
        {
          "internalType": "uint256",
          "name": "_tokenId",
          "type": "uint256"
        }
      ],
      "name": "earned",
      "outputs": [
        {
          "internalType": "uint256",
          "name": "",
          "type": "uint256"
        }
      ],
      "stateMutability": "view",
      "type": "function"
    },
    {
      "inputs": [
        {
          "internalType": "uint256",
          "name": "tokenId",
          "type": "uint256"
        }
      ],
      "name": "getApproved",
      "outputs": [
        {
          "internalType": "address",
          "name": "",
          "type": "address"
        }
      ],
      "stateMutability": "view",
      "type": "function"
    },
    {
      "inputs": [
        {
          "internalType": "uint256",
          "name": "_tokenId",
          "type": "uint256"
        }
      ],
      "name": "getPositionInfo",
      "outputs": [
        {
          "components": [
            {
              "internalType": "uint256",
              "name": "tokenId",
              "type": "uint256"
            },
            {
              "internalType": "address",
              "name": "owner",
              "type": "address"
            },
            {
              "internalType": "uint256",
              "name": "balanceOfId",
              "type": "uint256"
            },
            {
              "internalType": "uint256",
              "name": "amountStakedOf",
              "type": "uint256"
            },
            {
              "internalType": "uint256",
              "name": "withdrawableAmountOf",
              "type": "uint256"
            },
            {
              "internalType": "uint256",
              "name": "loyalSince",
              "type": "uint256"
            },
            {
              "internalType": "uint256",
              "name": "boostPercentageOf",
              "type": "uint256"
            },
            {
              "internalType": "uint256",
              "name": "penaltyPercentageOf",
              "type": "uint256"
            },
            {
              "internalType": "uint256",
              "name": "penaltyAmountOf",
              "type": "uint256"
            },
            {
              "internalType": "uint256",
              "name": "pendingReward",
              "type": "uint256"
            }
          ],
          "internalType": "struct StakedINTX.PositionInfo",
          "name": "_positionInfo",
          "type": "tuple"
        }
      ],
      "stateMutability": "view",
      "type": "function"
    },
    {
      "inputs": [
        {
          "internalType": "uint256[]",
          "name": "_tokenId",
          "type": "uint256[]"
        }
      ],
      "name": "getPositionInfo",
      "outputs": [
        {
          "components": [
            {
              "internalType": "uint256",
              "name": "tokenId",
              "type": "uint256"
            },
            {
              "internalType": "address",
              "name": "owner",
              "type": "address"
            },
            {
              "internalType": "uint256",
              "name": "balanceOfId",
              "type": "uint256"
            },
            {
              "internalType": "uint256",
              "name": "amountStakedOf",
              "type": "uint256"
            },
            {
              "internalType": "uint256",
              "name": "withdrawableAmountOf",
              "type": "uint256"
            },
            {
              "internalType": "uint256",
              "name": "loyalSince",
              "type": "uint256"
            },
            {
              "internalType": "uint256",
              "name": "boostPercentageOf",
              "type": "uint256"
            },
            {
              "internalType": "uint256",
              "name": "penaltyPercentageOf",
              "type": "uint256"
            },
            {
              "internalType": "uint256",
              "name": "penaltyAmountOf",
              "type": "uint256"
            },
            {
              "internalType": "uint256",
              "name": "pendingReward",
              "type": "uint256"
            }
          ],
          "internalType": "struct StakedINTX.PositionInfo[]",
          "name": "_positionInfo",
          "type": "tuple[]"
        }
      ],
      "stateMutability": "view",
      "type": "function"
    },
    {
      "inputs": [
        {
          "internalType": "address",
          "name": "_intx",
          "type": "address"
        },
        {
          "internalType": "address",
          "name": "_usdc",
          "type": "address"
        }
      ],
      "name": "initialize",
      "outputs": [],
      "stateMutability": "nonpayable",
      "type": "function"
    },
    {
      "inputs": [
        {
          "internalType": "address",
          "name": "owner",
          "type": "address"
        },
        {
          "internalType": "address",
          "name": "operator",
          "type": "address"
        }
      ],
      "name": "isApprovedForAll",
      "outputs": [
        {
          "internalType": "bool",
          "name": "",
          "type": "bool"
        }
      ],
      "stateMutability": "view",
      "type": "function"
    },
    {
      "inputs": [],
      "name": "lastTimeRewardApplicable",
      "outputs": [
        {
          "internalType": "uint256",
          "name": "",
          "type": "uint256"
        }
      ],
      "stateMutability": "view",
      "type": "function"
    },
    {
      "inputs": [],
      "name": "lastTokenId",
      "outputs": [
        {
          "internalType": "uint256",
          "name": "",
          "type": "uint256"
        }
      ],
      "stateMutability": "view",
      "type": "function"
    },
    {
      "inputs": [],
      "name": "lastUpdateTime",
      "outputs": [
        {
          "internalType": "uint256",
          "name": "",
          "type": "uint256"
        }
      ],
      "stateMutability": "view",
      "type": "function"
    },
    {
      "inputs": [
        {
          "internalType": "uint256",
          "name": "",
          "type": "uint256"
        }
      ],
      "name": "loyalSince",
      "outputs": [
        {
          "internalType": "uint256",
          "name": "",
          "type": "uint256"
        }
      ],
      "stateMutability": "view",
      "type": "function"
    },
    {
      "inputs": [],
      "name": "loyaltyDuration",
      "outputs": [
        {
          "internalType": "uint256",
          "name": "",
          "type": "uint256"
        }
      ],
      "stateMutability": "view",
      "type": "function"
    },
    {
      "inputs": [],
      "name": "maxLoyaltyBoost",
      "outputs": [
        {
          "internalType": "uint256",
          "name": "",
          "type": "uint256"
        }
      ],
      "stateMutability": "view",
      "type": "function"
    },
    {
      "inputs": [],
      "name": "maxPenalty",
      "outputs": [
        {
          "internalType": "uint256",
          "name": "",
          "type": "uint256"
        }
      ],
      "stateMutability": "view",
      "type": "function"
    },
    {
      "inputs": [
        {
          "internalType": "uint256",
          "name": "_tokenFrom",
          "type": "uint256"
        },
        {
          "internalType": "uint256",
          "name": "tokenTo",
          "type": "uint256"
        }
      ],
      "name": "merge",
      "outputs": [],
      "stateMutability": "nonpayable",
      "type": "function"
    },
    {
      "inputs": [],
      "name": "minPenalty",
      "outputs": [
        {
          "internalType": "uint256",
          "name": "",
          "type": "uint256"
        }
      ],
      "stateMutability": "view",
      "type": "function"
    },
    {
      "inputs": [],
      "name": "name",
      "outputs": [
        {
          "internalType": "string",
          "name": "",
          "type": "string"
        }
      ],
      "stateMutability": "view",
      "type": "function"
    },
    {
      "inputs": [
        {
          "internalType": "uint256",
          "name": "_rewardAmount",
          "type": "uint256"
        }
      ],
      "name": "notifyReward",
      "outputs": [],
      "stateMutability": "nonpayable",
      "type": "function"
    },
    {
      "inputs": [],
      "name": "owner",
      "outputs": [
        {
          "internalType": "address",
          "name": "",
          "type": "address"
        }
      ],
      "stateMutability": "view",
      "type": "function"
    },
    {
      "inputs": [
        {
          "internalType": "uint256",
          "name": "tokenId",
          "type": "uint256"
        }
      ],
      "name": "ownerOf",
      "outputs": [
        {
          "internalType": "address",
          "name": "",
          "type": "address"
        }
      ],
      "stateMutability": "view",
      "type": "function"
    },
    {
      "inputs": [
        {
          "internalType": "uint256",
          "name": "_tokenId",
          "type": "uint256"
        }
      ],
      "name": "penaltyAmountOf",
      "outputs": [
        {
          "internalType": "uint256",
          "name": "penaltyAmount",
          "type": "uint256"
        }
      ],
      "stateMutability": "view",
      "type": "function"
    },
    {
      "inputs": [
        {
          "internalType": "uint256",
          "name": "_tokenId",
          "type": "uint256"
        }
      ],
      "name": "penaltyPercentageOf",
      "outputs": [
        {
          "internalType": "uint256",
          "name": "penaltyPercentage",
          "type": "uint256"
        }
      ],
      "stateMutability": "view",
      "type": "function"
    },
    {
      "inputs": [],
      "name": "periodFinish",
      "outputs": [
        {
          "internalType": "uint256",
          "name": "",
          "type": "uint256"
        }
      ],
      "stateMutability": "view",
      "type": "function"
    },
    {
      "inputs": [],
      "name": "renounceOwnership",
      "outputs": [],
      "stateMutability": "nonpayable",
      "type": "function"
    },
    {
      "inputs": [],
      "name": "rewardPerWeight",
      "outputs": [
        {
          "internalType": "uint256",
          "name": "",
          "type": "uint256"
        }
      ],
      "stateMutability": "view",
      "type": "function"
    },
    {
      "inputs": [],
      "name": "rewardRate",
      "outputs": [
        {
          "internalType": "uint256",
          "name": "",
          "type": "uint256"
        }
      ],
      "stateMutability": "view",
      "type": "function"
    },
    {
      "inputs": [],
      "name": "rewardToken",
      "outputs": [
        {
          "internalType": "contract IERC20",
          "name": "",
          "type": "address"
        }
      ],
      "stateMutability": "view",
      "type": "function"
    },
    {
      "inputs": [
        {
          "internalType": "address",
          "name": "from",
          "type": "address"
        },
        {
          "internalType": "address",
          "name": "to",
          "type": "address"
        },
        {
          "internalType": "uint256",
          "name": "tokenId",
          "type": "uint256"
        }
      ],
      "name": "safeTransferFrom",
      "outputs": [],
      "stateMutability": "nonpayable",
      "type": "function"
    },
    {
      "inputs": [
        {
          "internalType": "address",
          "name": "from",
          "type": "address"
        },
        {
          "internalType": "address",
          "name": "to",
          "type": "address"
        },
        {
          "internalType": "uint256",
          "name": "tokenId",
          "type": "uint256"
        },
        {
          "internalType": "bytes",
          "name": "data",
          "type": "bytes"
        }
      ],
      "name": "safeTransferFrom",
      "outputs": [],
      "stateMutability": "nonpayable",
      "type": "function"
    },
    {
      "inputs": [
        {
          "internalType": "address",
          "name": "operator",
          "type": "address"
        },
        {
          "internalType": "bool",
          "name": "approved",
          "type": "bool"
        }
      ],
      "name": "setApprovalForAll",
      "outputs": [],
      "stateMutability": "nonpayable",
      "type": "function"
    },
    {
      "inputs": [
        {
          "internalType": "uint256",
          "name": "_tokenId",
          "type": "uint256"
        },
        {
          "internalType": "uint256[]",
          "name": "_splitWeights",
          "type": "uint256[]"
        }
      ],
      "name": "split",
      "outputs": [
        {
          "internalType": "uint256[]",
          "name": "_tokenIds",
          "type": "uint256[]"
        }
      ],
      "stateMutability": "nonpayable",
      "type": "function"
    },
    {
      "inputs": [
        {
          "internalType": "uint256",
          "name": "_intxAmount",
          "type": "uint256"
        }
      ],
      "name": "stake",
      "outputs": [
        {
          "internalType": "uint256",
          "name": "_tokenId",
          "type": "uint256"
        }
      ],
      "stateMutability": "nonpayable",
      "type": "function"
    },
    {
      "inputs": [
        {
          "internalType": "address",
          "name": "_to",
          "type": "address"
        },
        {
          "internalType": "uint256",
          "name": "_intxAmount",
          "type": "uint256"
        }
      ],
      "name": "stakeFor",
      "outputs": [
        {
          "internalType": "uint256",
          "name": "_tokenId",
          "type": "uint256"
        }
      ],
      "stateMutability": "nonpayable",
      "type": "function"
    },
    {
      "inputs": [
        {
          "internalType": "bytes4",
          "name": "interfaceId",
          "type": "bytes4"
        }
      ],
      "name": "supportsInterface",
      "outputs": [
        {
          "internalType": "bool",
          "name": "",
          "type": "bool"
        }
      ],
      "stateMutability": "view",
      "type": "function"
    },
    {
      "inputs": [],
      "name": "symbol",
      "outputs": [
        {
          "internalType": "string",
          "name": "",
          "type": "string"
        }
      ],
      "stateMutability": "view",
      "type": "function"
    },
    {
      "inputs": [
        {
          "internalType": "uint256",
          "name": "index",
          "type": "uint256"
        }
      ],
      "name": "tokenByIndex",
      "outputs": [
        {
          "internalType": "uint256",
          "name": "",
          "type": "uint256"
        }
      ],
      "stateMutability": "view",
      "type": "function"
    },
    {
      "inputs": [
        {
          "internalType": "address",
          "name": "owner",
          "type": "address"
        },
        {
          "internalType": "uint256",
          "name": "index",
          "type": "uint256"
        }
      ],
      "name": "tokenOfOwnerByIndex",
      "outputs": [
        {
          "internalType": "uint256",
          "name": "",
          "type": "uint256"
        }
      ],
      "stateMutability": "view",
      "type": "function"
    },
    {
      "inputs": [
        {
          "internalType": "uint256",
          "name": "tokenId",
          "type": "uint256"
        }
      ],
      "name": "tokenURI",
      "outputs": [
        {
          "internalType": "string",
          "name": "",
          "type": "string"
        }
      ],
      "stateMutability": "view",
      "type": "function"
    },
    {
      "inputs": [
        {
          "internalType": "address",
          "name": "_owner",
          "type": "address"
        }
      ],
      "name": "tokensOfOwner",
      "outputs": [
        {
          "internalType": "uint256[]",
          "name": "ids",
          "type": "uint256[]"
        }
      ],
      "stateMutability": "view",
      "type": "function"
    },
    {
      "inputs": [],
      "name": "totalSupply",
      "outputs": [
        {
          "internalType": "uint256",
          "name": "",
          "type": "uint256"
        }
      ],
      "stateMutability": "view",
      "type": "function"
    },
    {
      "inputs": [],
      "name": "totalXINTX",
      "outputs": [
        {
          "internalType": "uint256",
          "name": "",
          "type": "uint256"
        }
      ],
      "stateMutability": "view",
      "type": "function"
    },
    {
      "inputs": [
        {
          "internalType": "address",
          "name": "from",
          "type": "address"
        },
        {
          "internalType": "address",
          "name": "to",
          "type": "address"
        },
        {
          "internalType": "uint256",
          "name": "tokenId",
          "type": "uint256"
        }
      ],
      "name": "transferFrom",
      "outputs": [],
      "stateMutability": "nonpayable",
      "type": "function"
    },
    {
      "inputs": [
        {
          "internalType": "address",
          "name": "newOwner",
          "type": "address"
        }
      ],
      "name": "transferOwnership",
      "outputs": [],
      "stateMutability": "nonpayable",
      "type": "function"
    },
    {
      "inputs": [
        {
          "internalType": "uint256",
          "name": "_tokenId",
          "type": "uint256"
        }
      ],
      "name": "unstake",
      "outputs": [
        {
          "internalType": "uint256",
          "name": "_intxAmountOut",
          "type": "uint256"
        }
      ],
      "stateMutability": "nonpayable",
      "type": "function"
    },
    {
      "inputs": [
        {
          "internalType": "uint256",
          "name": "_tokenId",
          "type": "uint256"
        },
        {
          "internalType": "uint256",
          "name": "_xIntxAmountWithdraw",
          "type": "uint256"
        }
      ],
      "name": "unstakePartially",
      "outputs": [
        {
          "internalType": "uint256",
          "name": "_intxAmountOut",
          "type": "uint256"
        },
        {
          "internalType": "uint256",
          "name": "_newTokenId",
          "type": "uint256"
        }
      ],
      "stateMutability": "nonpayable",
      "type": "function"
    },
    {
      "inputs": [
        {
          "internalType": "uint256[]",
          "name": "_tokenIds",
          "type": "uint256[]"
        }
      ],
      "name": "updateWeights",
      "outputs": [],
      "stateMutability": "nonpayable",
      "type": "function"
    },
    {
      "inputs": [
        {
          "internalType": "uint256",
          "name": "_tokenId",
          "type": "uint256"
        }
      ],
      "name": "withdrawableAmountOf",
      "outputs": [
        {
          "internalType": "uint256",
          "name": "withdrawableAmount",
          "type": "uint256"
        }
      ],
      "stateMutability": "view",
      "type": "function"
    }
  ],
  "bytecode": "0x60806040523480156200001157600080fd5b506200001c62000022565b620000e3565b600054610100900460ff16156200008f5760405162461bcd60e51b815260206004820152602760248201527f496e697469616c697a61626c653a20636f6e747261637420697320696e697469604482015266616c697a696e6760c81b606482015260840160405180910390fd5b60005460ff90811614620000e1576000805460ff191660ff9081179091556040519081527f7f26b83ff96e1f2b6a682f133852f6798a09c465da95921460cefb38474024989060200160405180910390a15b565b6149a880620000f36000396000f3fe608060405234801561001057600080fd5b50600436106103835760003560e01c806370a08231116101de578063a694fc3a1161010f578063d975dfed116100ad578063f290dfa71161007c578063f290dfa71461078a578063f2fde38b146107b2578063f7c618c1146107c5578063f84ddf0b146107d957600080fd5b8063d975dfed1461071d578063df2e0b9714610730578063e985e9c514610744578063ebe2b12b1461078057600080fd5b8063c8f33c91116100e9578063c8f33c91146106d5578063cfd0e125146106df578063d1a249ab14610700578063d1c2babb1461070a57600080fd5b8063a694fc3a1461069c578063b88d4fde146106af578063c87b56dd146106c257600080fd5b80638da5cb5b1161017c578063a00ea0c511610156578063a00ea0c51461064d578063a1c95e5a14610660578063a22cb46514610681578063a36849771461069457600080fd5b80638da5cb5b1461062157806395d89b4114610632578063988dc31e1461063a57600080fd5b80637b0a47ee116101b85780637b0a47ee146105ed57806380faa57d146105f75780638462151c146105ff5780638b8fbd921461061257600080fd5b806370a08231146105bf578063715018a6146105d2578063771602f7146105da57600080fd5b806342842e0e116102b85780635a48a97f116102565780636352211e116102305780636352211e14610566578063645bfd9a1461057957806369c672471461058c5780636ba4c138146105ac57600080fd5b80635a48a97f146105205780635a5e7e0d1461053357806360993b5b1461055357600080fd5b80634f6ccce7116102925780634f6ccce7146104d9578063519f5099146104ec5780635200e79e1461050c578063520bf08a1461051657600080fd5b806342842e0e146104a0578063485cc955146104b35780634d6ed8c4146104c657600080fd5b80632212b806116103255780632e17de78116102ff5780632e17de78146104545780632ee40908146104675780632f745c591461047a57806330f916191461048d57600080fd5b80632212b8061461042f57806323b872dd146104395780632ac3f4501461044c57600080fd5b8063095ea7b311610361578063095ea7b3146103f05780630eba98491461040557806318160ddd1461041d5780631be052891461042557600080fd5b806301ffc9a71461038857806306fdde03146103b0578063081812fc146103c5575b600080fd5b61039b6103963660046141cb565b6107e3565b60405190151581526020015b60405180910390f35b6103b8610827565b6040516103a79190614238565b6103d86103d336600461424b565b6108b9565b6040516001600160a01b0390911681526020016103a7565b6104036103fe36600461427b565b6108e0565b005b61040f6101325481565b6040519081526020016103a7565b60cb5461040f565b61040f62093a8081565b61040f6101305481565b6104036104473660046142a5565b610a16565b61040f610a9d565b61040f61046236600461424b565b610b62565b61040f61047536600461427b565b610b6d565b61040f61048836600461427b565b610b81565b61040361049b36600461432d565b610c29565b6104036104ae3660046142a5565b610c6e565b6104036104c136600461436f565b610c89565b61040f6104d436600461424b565b610e93565b61040f6104e736600461424b565b610f5b565b6104ff6104fa36600461424b565b610fff565b6040516103a79190614419565b61040f6101315481565b61040f61012e5481565b61040f61052e36600461424b565b611067565b61054661054136600461432d565b6110ac565b6040516103a79190614428565b61040361056136600461424b565b6111bf565b6103d861057436600461424b565b61143b565b61040f61058736600461424b565b6114a0565b61059f61059a366004614477565b6114cb565b6040516103a791906144c3565b6104036105ba36600461432d565b61150a565b61040f6105cd3660046144fb565b6117b0565b61040361184a565b6104036105e8366004614516565b61185e565b61040f6101355481565b61040f611877565b61059f61060d3660046144fb565b61188b565b61040f670de0b6b3a764000081565b60fb546001600160a01b03166103d8565b6103b8611923565b61040f61064836600461424b565b611932565b61040f61065b36600461424b565b611958565b61040f61066e36600461424b565b61013b6020526000908152604090205481565b61040361068f366004614546565b61197e565b61040f61198d565b61040f6106aa36600461424b565b611997565b6104036106bd366004614593565b6119a4565b6103b86106d036600461424b565b611a2c565b61040f6101335481565b61040f6106ed36600461424b565b61013a6020526000908152604090205481565b61040f61012f5481565b610403610718366004614516565b611a9f565b61040f61072b36600461424b565b611aa9565b610138546103d8906001600160a01b031681565b61039b61075236600461436f565b6001600160a01b039182166000908152609c6020908152604080832093909416825291909152205460ff1690565b61040f6101345481565b61079d610798366004614516565b611af1565b604080519283526020830191909152016103a7565b6104036107c03660046144fb565b611c3b565b610139546103d8906001600160a01b031681565b61040f61012d5481565b60006001600160e01b031982167f780e9d63000000000000000000000000000000000000000000000000000000001480610821575061082182611cc8565b92915050565b6060609780546108369061466f565b80601f01602080910402602001604051908101604052809291908181526020018280546108629061466f565b80156108af5780601f10610884576101008083540402835291602001916108af565b820191906000526020600020905b81548152906001019060200180831161089257829003601f168201915b5050505050905090565b60006108c482611d63565b506000908152609b60205260409020546001600160a01b031690565b60006108eb8261143b565b9050806001600160a01b0316836001600160a01b0316036109795760405162461bcd60e51b815260206004820152602160248201527f4552433732313a20617070726f76616c20746f2063757272656e74206f776e6560448201527f720000000000000000000000000000000000000000000000000000000000000060648201526084015b60405180910390fd5b336001600160a01b038216148061099557506109958133610752565b610a075760405162461bcd60e51b815260206004820152603d60248201527f4552433732313a20617070726f76652063616c6c6572206973206e6f7420746f60448201527f6b656e206f776e6572206f7220617070726f76656420666f7220616c6c0000006064820152608401610970565b610a118383611dc7565b505050565b610a203382611e42565b610a925760405162461bcd60e51b815260206004820152602d60248201527f4552433732313a2063616c6c6572206973206e6f7420746f6b656e206f776e6560448201527f72206f7220617070726f766564000000000000000000000000000000000000006064820152608401610970565b610a11838383611ec0565b600061013754600003610ab257506101365490565b60006101375411610b055760405162461bcd60e51b815260206004820152601060248201527f496e636f727265637420776569676874000000000000000000000000000000006044820152606401610970565b600061013354610b13611877565b610b1d91906146bf565b9050610137546101355482610b3291906146d2565b610b4490670de0b6b3a76400006146d2565b610b4e91906146e9565b61013654610b5c919061470b565b91505090565b600061082182612103565b6000610b7a338484612444565b9392505050565b6000610b8c836117b0565b8210610c005760405162461bcd60e51b815260206004820152602b60248201527f455243373231456e756d657261626c653a206f776e657220696e646578206f7560448201527f74206f6620626f756e64730000000000000000000000000000000000000000006064820152608401610970565b506001600160a01b0391909116600090815260c960209081526040808320938352929052205490565b8060005b81811015610c6857610c56848483818110610c4a57610c4a61471e565b90506020020135612678565b80610c6081614734565b915050610c2d565b50505050565b610a11838383604051806020016040528060008152506119a4565b600054610100900460ff1615808015610ca95750600054600160ff909116105b80610cc35750303b158015610cc3575060005460ff166001145b610d355760405162461bcd60e51b815260206004820152602e60248201527f496e697469616c697a61626c653a20636f6e747261637420697320616c72656160448201527f647920696e697469616c697a65640000000000000000000000000000000000006064820152608401610970565b6000805460ff191660011790558015610d58576000805461ff0019166101001790555b610d60612742565b610dd46040518060400160405280600b81526020017f5374616b656420494e54580000000000000000000000000000000000000000008152506040518060400160405280600581526020017f58494e54580000000000000000000000000000000000000000000000000000008152506127b5565b610ddc61282a565b61013880546001600160a01b0380861673ffffffffffffffffffffffffffffffffffffffff19928316179092556101398054928516929091169190911790556293a80061012f556722b1c8c1227a0000610130556703782dace9d90000610131556611c37937e08000610132558015610a11576000805461ff0019169055604051600181527f7f26b83ff96e1f2b6a682f133852f6798a09c465da95921460cefb38474024989060200160405180910390a1505050565b600080670de0b6b3a7640000610ea88461289d565b600085815261013b6020526040902054610ec291906146d2565b610ecc91906146e9565b600084815261013c602052604081205491925090600290610eee90849061470b565b610ef891906146e9565b600085815261013e602090815260408083205461013d9092529091205491925090670de0b6b3a764000090610f2b610a9d565b610f3591906146bf565b610f3f90846146d2565b610f4991906146e9565b610f53919061470b565b949350505050565b6000610f6660cb5490565b8210610fda5760405162461bcd60e51b815260206004820152602c60248201527f455243373231456e756d657261626c653a20676c6f62616c20696e646578206f60448201527f7574206f6620626f756e647300000000000000000000000000000000000000006064820152608401610970565b60cb8281548110610fed57610fed61471e565b90600052602060002001549050919050565b61105e6040518061014001604052806000815260200160006001600160a01b0316815260200160008152602001600081526020016000815260200160008152602001600081526020016000815260200160008152602001600081525090565b6108218261293a565b60008061107383612a83565b9050600061108084612ab1565b905081156110a557670de0b6b3a764000061109b82846146d2565b610f5391906146e9565b5050919050565b6060818067ffffffffffffffff8111156110c8576110c861457d565b60405190808252806020026020018201604052801561115857816020015b6111456040518061014001604052806000815260200160006001600160a01b0316815260200160008152602001600081526020016000815260200160008152602001600081526020016000815260200160008152602001600081525090565b8152602001906001900390816110e65790505b50915060005b818110156111b75761118785858381811061117b5761117b61471e565b9050602002013561293a565b8382815181106111995761119961471e565b602002602001018190525080806111af90614734565b91505061115e565b505092915050565b6111c7612b5a565b6111cf612bb3565b610139546001600160a01b03166323b872dd336040516001600160e01b031960e084901b1681526001600160a01b039091166004820152306024820152604481018490526064016020604051808303816000875af1158015611235573d6000803e3d6000fd5b505050506040513d601f19601f82011682018060405250810190611259919061474e565b5061126c670de0b6b3a7640000826146d2565b905061013454421061128e5761128562093a80826146e9565b610135556112d3565b6000426101345461129f91906146bf565b9050600061013554826112b291906146d2565b905062093a806112c2828561470b565b6112cc91906146e9565b6101355550505b610139546040517f70a08231000000000000000000000000000000000000000000000000000000008152306004820152600091670de0b6b3a7640000916001600160a01b03909116906370a0823190602401602060405180830381865afa158015611342573d6000803e3d6000fd5b505050506040513d601f19601f82011682018060405250810190611366919061476b565b61137091906146d2565b905061137f62093a80826146e9565b6101355411156113d15760405162461bcd60e51b815260206004820152601860248201527f50726f76696465642072657761726420746f6f206869676800000000000000006044820152606401610970565b426101338190556113e69062093a809061470b565b610134557fde88a922e0d3b88b24e9623efeb464919c6bf9f66857a65e2bfcf2ce87a9433d61141d670de0b6b3a7640000846146e9565b60405190815260200160405180910390a15061143860018055565b50565b6000818152609960205260408120546001600160a01b0316806108215760405162461bcd60e51b815260206004820152601860248201527f4552433732313a20696e76616c696420746f6b656e20494400000000000000006044820152606401610970565b6000818152609960205260408120546001600160a01b0316156114c6576108218261289d565b919050565b6060610f5384848480806020026020016040519081016040528093929190818152602001838360200280828437600092019190915250612c1392505050565b600080805261013f6020527f2fb4751f8cdca7ddef8835086998ac4e6142e693722b72b0741423d80a6958c9548291908190815b848110156116a4578686828181106115585761155861471e565b905060200201359350611582846000908152609960205260409020546001600160a01b0316151590565b6115ce5760405162461bcd60e51b815260206004820152601c60248201527f5468697320706f736974696f6e20646f65736e27742065786973742e000000006044820152606401610970565b6000848152609960205260409020546001600160a01b0316925033831461165d5760405162461bcd60e51b815260206004820152602760248201527f596f7520617265206e6f7420746865206f776e6572206f66207468697320706f60448201527f736974696f6e2e000000000000000000000000000000000000000000000000006064820152608401610970565b61166684612678565b600084815261013e6020526040902054611680908361470b565b600085815261013e602052604081205591508061169c81614734565b91505061153e565b506001600160a01b03808316600090815261013f6020526040812055610139541663a9059cbb836116dd670de0b6b3a7640000856146e9565b6040516001600160e01b031960e085901b1681526001600160a01b03909216600483015260248201526044016020604051808303816000875af1158015611728573d6000803e3d6000fd5b505050506040513d601f19601f8201168201806040525081019061174c919061474e565b50858560405161175d929190614784565b6040518091039020826001600160a01b03167f916f43dce61aa4c4d8761c25ddcacfe178ea96a18f68d2775354bbc06be75aaa836040516117a091815260200190565b60405180910390a3505050505050565b60006001600160a01b03821661182e5760405162461bcd60e51b815260206004820152602960248201527f4552433732313a2061646472657373207a65726f206973206e6f74206120766160448201527f6c6964206f776e657200000000000000000000000000000000000000000000006064820152608401610970565b506001600160a01b03166000908152609a602052604090205490565b611852612bb3565b61185c6000613167565b565b600061186b333385612444565b9050610a1181836131c6565b600061188642610134546135ee565b905090565b60606000611898836117b0565b90508067ffffffffffffffff8111156118b3576118b361457d565b6040519080825280602002602001820160405280156118dc578160200160208202803683370190505b50915060005b818110156110a5576118f48482610b81565b8382815181106119065761190661471e565b60209081029190910101528061191b81614734565b9150506118e2565b6060609880546108369061466f565b6000818152609960205260408120546001600160a01b0316156114c65761082182612ab1565b6000818152609960205260408120546001600160a01b0316156114c65761082182612a83565b611989338383613604565b5050565b60006118866136d2565b6000610821333384612444565b6119ae3383611e42565b611a205760405162461bcd60e51b815260206004820152602d60248201527f4552433732313a2063616c6c6572206973206e6f7420746f6b656e206f776e6560448201527f72206f7220617070726f766564000000000000000000000000000000000000006064820152608401610970565b610c6884848484613715565b6060611a3782611d63565b6000611a4e60408051602081019091526000815290565b90506000815111611a6e5760405180602001604052806000815250610b7a565b80611a788461379e565b604051602001611a899291906147c6565b6040516020818303038152906040529392505050565b61198982826131c6565b600080611ab583612a83565b90506000611ac284612ab1565b905081156110a557670de0b6b3a7640000611add82846146d2565b611ae791906146e9565b610f5390836146bf565b600082815261013b60205260408120548190838111611b785760405162461bcd60e51b815260206004820152602e60248201527f596f752063616e2774207061727469616c6c79207769746864726177206d6f7260448201527f65207468616e20796f75206f776e0000000000000000000000000000000000006064820152608401610970565b6040805160028082526060820183526000926020830190803683370190505090508481600081518110611bad57611bad61471e565b6020908102919091010152611bc285836146bf565b81600181518110611bd557611bd561471e565b6020026020010181815250506000611bed8783612c13565b9050611c1281600081518110611c0557611c0561471e565b6020026020010151612103565b945080600181518110611c2757611c2761471e565b602002602001015193505050509250929050565b611c43612bb3565b6001600160a01b038116611cbf5760405162461bcd60e51b815260206004820152602660248201527f4f776e61626c653a206e6577206f776e657220697320746865207a65726f206160448201527f64647265737300000000000000000000000000000000000000000000000000006064820152608401610970565b61143881613167565b60006001600160e01b031982167f80ac58cd000000000000000000000000000000000000000000000000000000001480611d2b57506001600160e01b031982167f5b5e139f00000000000000000000000000000000000000000000000000000000145b8061082157507f01ffc9a7000000000000000000000000000000000000000000000000000000006001600160e01b0319831614610821565b6000818152609960205260409020546001600160a01b03166114385760405162461bcd60e51b815260206004820152601860248201527f4552433732313a20696e76616c696420746f6b656e20494400000000000000006044820152606401610970565b6000818152609b60205260409020805473ffffffffffffffffffffffffffffffffffffffff19166001600160a01b0384169081179091558190611e098261143b565b6001600160a01b03167f8c5be1e5ebec7d5bd14f71427d1e84f3dd0314c0f7b2291e5b200ac8c7c3b92560405160405180910390a45050565b600080611e4e8361143b565b9050806001600160a01b0316846001600160a01b03161480611e9557506001600160a01b038082166000908152609c602090815260408083209388168352929052205460ff165b80610f535750836001600160a01b0316611eae846108b9565b6001600160a01b031614949350505050565b826001600160a01b0316611ed38261143b565b6001600160a01b031614611f4f5760405162461bcd60e51b815260206004820152602560248201527f4552433732313a207472616e736665722066726f6d20696e636f72726563742060448201527f6f776e65720000000000000000000000000000000000000000000000000000006064820152608401610970565b6001600160a01b038216611fca5760405162461bcd60e51b8152602060048201526024808201527f4552433732313a207472616e7366657220746f20746865207a65726f2061646460448201527f72657373000000000000000000000000000000000000000000000000000000006064820152608401610970565b611fd7838383600161383e565b826001600160a01b0316611fea8261143b565b6001600160a01b0316146120665760405162461bcd60e51b815260206004820152602560248201527f4552433732313a207472616e736665722066726f6d20696e636f72726563742060448201527f6f776e65720000000000000000000000000000000000000000000000000000006064820152608401610970565b6000818152609b60209081526040808320805473ffffffffffffffffffffffffffffffffffffffff199081169091556001600160a01b03878116808652609a8552838620805460001901905590871680865283862080546001019055868652609990945282852080549092168417909155905184937fddf252ad1be2c89b69c2b068fc378daa952ba7f163c4a11628f55a4df523b3ef91a4505050565b600061210d612b5a565b6000828152609960205260409020546001600160a01b03166121715760405162461bcd60e51b815260206004820152601c60248201527f5468697320706f736974696f6e20646f65736e27742065786973742e000000006044820152606401610970565b6000828152609960205260409020546001600160a01b03163381146121d85760405162461bcd60e51b815260206004820152601360248201527f4e6f7420796f75722078494e5458204e46542e000000000000000000000000006044820152606401610970565b6121e183612678565b600083815261013b602052604081205490670de0b6b3a76400006122048661289d565b61220e90846146d2565b61221891906146e9565b905060006122246136d2565b90506000670de0b6b3a764000061223b83866146d2565b61224591906146e9565b90506000670de0b6b3a764000061225b89612ab1565b61226590846146d2565b61226f91906146e9565b905061227b81836146bf565b600089815261013a6020908152604080832083905561013b825280832083905561013c825280832083905561013d825280832083905561013e9091529020549097501561230057600088815261013e60209081526040808320546001600160a01b038a16845261013f90925282208054919290916122fa90849061470b565b90915550505b600088815261013e60205260408120556123198861397a565b8461012e600082825461232c91906146bf565b9250508190555083610137600082825461234691906146bf565b9091555050610138546040517fa9059cbb0000000000000000000000000000000000000000000000000000000081526001600160a01b038881166004830152602482018a90529091169063a9059cbb906044016020604051808303816000875af11580156123b8573d6000803e3d6000fd5b505050506040513d601f19601f820116820180604052508101906123dc919061474e565b5061012e5460408051878152602081018a905280820184905260608101929092525189916001600160a01b038916917f44bd20a79e993bdcc7cbedf54a3b4d19fb78490124b6b90d04fe3242eea579e89181900360800190a35050505050506114c660018055565b600061244e612b5a565b6000821161249e5760405162461bcd60e51b815260206004820152601360248201527f43616e2774207374616b65203020696e74582e000000000000000000000000006044820152606401610970565b60006124a86136d2565b610138546040517f23b872dd0000000000000000000000000000000000000000000000000000000081526001600160a01b038881166004830152306024830152604482018790529293509116906323b872dd906064016020604051808303816000875af115801561251d573d6000803e3d6000fd5b505050506040513d601f19601f82011682018060405250810190612541919061474e565b5061012d805490600061255383614734565b91905055506125658461012d54613a2a565b61256e82612678565b600081612583670de0b6b3a7640000866146d2565b61258d91906146e9565b61012d8054600090815261013a602090815260408083204290559254825261013b905290812082905561012e805492935083929091906125ce90849061470b565b925050819055508061013760008282546125e8919061470b565b909155505061012d8054600090815261013c6020908152604091829020849055915461012e54610137548351868152948501899052928401526060830191909152906001600160a01b0380881691908916907f52c6b7a228763dc832bef1e2dee48707b24b8f1400a6335b3af6d5def4f5bb219060800160405180910390a461012d5492505050610b7a60018055565b612680610a9d565b6101365561268c611877565b6101335580156114385761269f81610e93565b600082815261013e6020526040812091909155670de0b6b3a76400006126c48361289d565b600084815261013b60205260409020546126de91906146d2565b6126e891906146e9565b600083815261013c602052604090205490915061270690829061470b565b610137600082825461271891906146bf565b9091555050600091825261013c60209081526040808420929092556101365461013d909152912055565b600054610100900460ff166127ad5760405162461bcd60e51b815260206004820152602b60248201527f496e697469616c697a61626c653a20636f6e7472616374206973206e6f74206960448201526a6e697469616c697a696e6760a81b6064820152608401610970565b61185c613bd0565b600054610100900460ff166128205760405162461bcd60e51b815260206004820152602b60248201527f496e697469616c697a61626c653a20636f6e7472616374206973206e6f74206960448201526a6e697469616c697a696e6760a81b6064820152608401610970565b6119898282613c3b565b600054610100900460ff166128955760405162461bcd60e51b815260206004820152602b60248201527f496e697469616c697a61626c653a20636f6e7472616374206973206e6f74206960448201526a6e697469616c697a696e6760a81b6064820152608401610970565b61185c613cbf565b600081815261013a60205260408120548082036128bd5750600092915050565b60006128c982426146bf565b905061012f548111156128dc575061012f545b670de0b6b3a764000080610130546128f491906146bf565b61012f5461290a670de0b6b3a7640000856146d2565b61291491906146e9565b61291e91906146d2565b61292891906146e9565b610f5390670de0b6b3a764000061470b565b6129996040518061014001604052806000815260200160006001600160a01b0316815260200160008152602001600081526020016000815260200160008152602001600081526020016000815260200160008152602001600081525090565b60006129a483612a83565b905060006129b184612ab1565b8484526000858152609960209081526040808320546001600160a01b03168288015287835261013b909152908190205490850152606084018390529050670de0b6b3a7640000612a0182846146d2565b612a0b91906146e9565b612a1590836146bf565b6080840152600084815261013a602052604090205460a0840152612a388461289d565b60c084015260e08301819052670de0b6b3a7640000612a5782846146d2565b612a6191906146e9565b6101008401525050600091825261013e60205260409091205461012082015290565b600081815261013b602052604081205481612a9c6136d2565b9050670de0b6b3a764000061109b82846146d2565b600081815261013a6020526040812054808203612ad15750600092915050565b6000612add82426146bf565b905061012f54811115612af0575061012f545b670de0b6b3a76400006101315461012f54670de0b6b3a764000084612b1591906146d2565b612b1f91906146e9565b612b2991906146d2565b612b3391906146e9565b61013154612b4191906146bf565b9250610132548310156110a55750506101325492915050565b600260015403612bac5760405162461bcd60e51b815260206004820152601f60248201527f5265656e7472616e637947756172643a207265656e7472616e742063616c6c006044820152606401610970565b6002600155565b60fb546001600160a01b0316331461185c5760405162461bcd60e51b815260206004820181905260248201527f4f776e61626c653a2063616c6c6572206973206e6f7420746865206f776e65726044820152606401610970565b60018055565b6060612c1d612b5a565b6000838152609960205260409020546001600160a01b0316612c815760405162461bcd60e51b815260206004820152601c60248201527f5468697320706f736974696f6e20646f65736e27742065786973742e000000006044820152606401610970565b6000838152609960205260409020546001600160a01b0316338114612ce85760405162461bcd60e51b815260206004820152601360248201527f4e6f7420796f75722078494e5458204e46542e000000000000000000000000006044820152606401610970565b825160018111612d605760405162461bcd60e51b815260206004820152602c60248201527f596f752063616e27742073706c697420746869732058494e5458206c6573732060448201527f7468616e20322074696d657300000000000000000000000000000000000000006064820152608401610970565b600a811115612dd75760405162461bcd60e51b815260206004820152602d60248201527f596f752063616e27742073706c697420746869732058494e5458206d6f72652060448201527f7468616e2031302074696d6573000000000000000000000000000000000000006064820152608401610970565b8067ffffffffffffffff811115612df057612df061457d565b604051908082528060200260200182016040528015612e19578160200160208202803683370190505b509250612e2585612678565b600085815261013b602090815260408083205461013a83528184205461013d9093529083205461012e80549293928491908690612e639084906146bf565b9091555050600089815261013c6020526040812054610137805491929091612e8c9084906146bf565b90915550600090505b85811015612ed657888181518110612eaf57612eaf61471e565b602002602001015185612ec2919061470b565b945080612ece81614734565b915050612e95565b5060005b858110156130bc57600085858b8481518110612ef857612ef861471e565b6020026020010151612f0a91906146d2565b612f1491906146e9565b905060008111612f665760405162461bcd60e51b815260206004820152601460248201527f43616e27742073706c697420302078494e54582e0000000000000000000000006044820152606401610970565b61012d8054906000612f7783614734565b9190505550612f898861012d54613a2a565b61012d54898381518110612f9f57612f9f61471e565b60209081029190910181019190915261012d8054600090815261013a835260408082208890558254825261013b90935291822083905554670de0b6b3a764000090612fe99061289d565b612ff390846146d2565b612ffd91906146e9565b61012d8054600090815261013c602090815260408083208590559254825261013d905290812086905561012e8054929350849290919061303e90849061470b565b92505081905550806101376000828254613058919061470b565b909155505061012d5460408051918252602082018490528d916001600160a01b038c16917ff66885c33d648fcd0d97e0f2a18e30102169c22763473af0fb716f11b4a17dd6910160405180910390a3505080806130b490614734565b915050612eda565b50600089815261013a6020908152604080832083905561013b825280832083905561013c825280832083905561013d825280832083905561013e9091529020541561313f57600089815261013e60209081526040808320546001600160a01b038a16845261013f909252822080549192909161313990849061470b565b90915550505b600089815261013e60205260408120556131588961397a565b50505050505061082160018055565b60fb80546001600160a01b0383811673ffffffffffffffffffffffffffffffffffffffff19831681179093556040519116919082907f8be0079c531659141344cd1fd0a4f28419497f9722a3daafe3b4186f6b6457e090600090a35050565b6131ce612b5a565b6000828152609960205260409020546001600160a01b03166132325760405162461bcd60e51b815260206004820152601c60248201527f5468697320706f736974696f6e20646f65736e27742065786973742e000000006044820152606401610970565b6000818152609960205260409020546001600160a01b03166132965760405162461bcd60e51b815260206004820152601c60248201527f5468697320706f736974696f6e20646f65736e27742065786973742e000000006044820152606401610970565b6000828152609960205260409020546001600160a01b03163381146132fd5760405162461bcd60e51b815260206004820152601e60248201527f46726f6d204e46542069736e277420796f75722078494e5458204e46542e00006044820152606401610970565b6000828152609960205260409020546001600160a01b038281169116146133665760405162461bcd60e51b815260206004820152601760248201527f546f204e46542069736e27742078494e5458204e46542e0000000000000000006044820152606401610970565b61336f83612678565b61337882612678565b600083815261013b602090815260408083205461013a9092528220549091906133a190426146bf565b600085815261013b602090815260408083205461013a909252822054929350916133cb90426146bf565b905060006133d9838661470b565b9050600081116134515760405162461bcd60e51b815260206004820152602360248201527f43616e2774206d616b65206120706f736974696f6e207769746820302078494e60448201527f54582e00000000000000000000000000000000000000000000000000000000006064820152608401610970565b60008161345e85856146d2565b61346891906146e9565b8261347388886146d2565b61347d91906146e9565b613487919061470b565b600089815261013b6020526040902083905590506134a581426146bf565b600089815261013a6020526040812091909155670de0b6b3a76400006134ca8a61289d565b6134d490856146d2565b6134de91906146e9565b60008a815261013c602081815260408084208590558e845261013a825280842084905561013b825280842084905591815281832083905561013d815281832083905561013e90529020549091501561356e5760008a815261013e60209081526040808320546001600160a01b038c16845261013f909252822080549192909161356890849061470b565b90915550505b60008a815261013e60205260408120556135878a61397a565b896001600160a01b0389167f50d7f0ef4f7b59921566f6b835fb032efa0fd0dacccb9361292f89b7aa6bafdd8b866135bf87426146bf565b6040805193845260208401929092529082015260600160405180910390a3505050505050505061198960018055565b60008183106135fd5781610b7a565b5090919050565b816001600160a01b0316836001600160a01b0316036136655760405162461bcd60e51b815260206004820152601960248201527f4552433732313a20617070726f766520746f2063616c6c6572000000000000006044820152606401610970565b6001600160a01b038381166000818152609c6020908152604080832094871680845294825291829020805460ff191686151590811790915591519182527f17307eab39ab6107e8899845ad3d59bd9653f200f220920489ca2b5937696c31910160405180910390a3505050565b600061012e546000036136ec5750670de0b6b3a764000090565b61012e54670de0b6b3a7640000613701613d33565b61370b91906146d2565b61188691906146e9565b613720848484611ec0565b61372c84848484613dba565b610c685760405162461bcd60e51b815260206004820152603260248201527f4552433732313a207472616e7366657220746f206e6f6e20455243373231526560448201527f63656976657220696d706c656d656e74657200000000000000000000000000006064820152608401610970565b606060006137ab83613f43565b600101905060008167ffffffffffffffff8111156137cb576137cb61457d565b6040519080825280601f01601f1916602001820160405280156137f5576020820181803683370190505b5090508181016020015b600019017f3031323334353637383961626364656600000000000000000000000000000000600a86061a8153600a85049450846137ff57509392505050565b60018111156138b55760405162461bcd60e51b815260206004820152603560248201527f455243373231456e756d657261626c653a20636f6e736563757469766520747260448201527f616e7366657273206e6f7420737570706f7274656400000000000000000000006064820152608401610970565b816001600160a01b0385166139115761390c8160cb8054600083815260cc60205260408120829055600182018355919091527fa7ce836d032b2bf62b7e2097a8e0a6d8aeb35405ad15271e96d3b0188a1d06fb0155565b613934565b836001600160a01b0316856001600160a01b031614613934576139348582614025565b6001600160a01b0384166139505761394b816140c2565b613973565b846001600160a01b0316846001600160a01b031614613973576139738482614171565b5050505050565b60006139858261143b565b905061399581600084600161383e565b61399e8261143b565b6000838152609b60209081526040808320805473ffffffffffffffffffffffffffffffffffffffff199081169091556001600160a01b038516808552609a845282852080546000190190558785526099909352818420805490911690555192935084927fddf252ad1be2c89b69c2b068fc378daa952ba7f163c4a11628f55a4df523b3ef908390a45050565b6001600160a01b038216613a805760405162461bcd60e51b815260206004820181905260248201527f4552433732313a206d696e7420746f20746865207a65726f20616464726573736044820152606401610970565b6000818152609960205260409020546001600160a01b031615613ae55760405162461bcd60e51b815260206004820152601c60248201527f4552433732313a20746f6b656e20616c7265616479206d696e746564000000006044820152606401610970565b613af360008383600161383e565b6000818152609960205260409020546001600160a01b031615613b585760405162461bcd60e51b815260206004820152601c60248201527f4552433732313a20746f6b656e20616c7265616479206d696e746564000000006044820152606401610970565b6001600160a01b0382166000818152609a60209081526040808320805460010190558483526099909152808220805473ffffffffffffffffffffffffffffffffffffffff19168417905551839291907fddf252ad1be2c89b69c2b068fc378daa952ba7f163c4a11628f55a4df523b3ef908290a45050565b600054610100900460ff16612c0d5760405162461bcd60e51b815260206004820152602b60248201527f496e697469616c697a61626c653a20636f6e7472616374206973206e6f74206960448201526a6e697469616c697a696e6760a81b6064820152608401610970565b600054610100900460ff16613ca65760405162461bcd60e51b815260206004820152602b60248201527f496e697469616c697a61626c653a20636f6e7472616374206973206e6f74206960448201526a6e697469616c697a696e6760a81b6064820152608401610970565b6097613cb28382614843565b506098610a118282614843565b600054610100900460ff16613d2a5760405162461bcd60e51b815260206004820152602b60248201527f496e697469616c697a61626c653a20636f6e7472616374206973206e6f74206960448201526a6e697469616c697a696e6760a81b6064820152608401610970565b61185c33613167565b610138546040517f70a082310000000000000000000000000000000000000000000000000000000081523060048201526000916001600160a01b0316906370a0823190602401602060405180830381865afa158015613d96573d6000803e3d6000fd5b505050506040513d601f19601f82011682018060405250810190611886919061476b565b60006001600160a01b0384163b15613f38576040517f150b7a020000000000000000000000000000000000000000000000000000000081526001600160a01b0385169063150b7a0290613e17903390899088908890600401614903565b6020604051808303816000875af1925050508015613e52575060408051601f3d908101601f19168201909252613e4f9181019061493f565b60015b613f05573d808015613e80576040519150601f19603f3d011682016040523d82523d6000602084013e613e85565b606091505b508051600003613efd5760405162461bcd60e51b815260206004820152603260248201527f4552433732313a207472616e7366657220746f206e6f6e20455243373231526560448201527f63656976657220696d706c656d656e74657200000000000000000000000000006064820152608401610970565b805181602001fd5b6001600160e01b0319167f150b7a0200000000000000000000000000000000000000000000000000000000149050610f53565b506001949350505050565b6000807a184f03e93ff9f4daa797ed6e38ed64bf6a1f0100000000000000008310613f8c577a184f03e93ff9f4daa797ed6e38ed64bf6a1f010000000000000000830492506040015b6d04ee2d6d415b85acef81000000008310613fb8576d04ee2d6d415b85acef8100000000830492506020015b662386f26fc100008310613fd657662386f26fc10000830492506010015b6305f5e1008310613fee576305f5e100830492506008015b612710831061400257612710830492506004015b60648310614014576064830492506002015b600a83106108215760010192915050565b60006001614032846117b0565b61403c91906146bf565b600083815260ca602052604090205490915080821461408f576001600160a01b038416600090815260c960209081526040808320858452825280832054848452818420819055835260ca90915290208190555b50600091825260ca602090815260408084208490556001600160a01b03909416835260c981528383209183525290812055565b60cb546000906140d4906001906146bf565b600083815260cc602052604081205460cb80549394509092849081106140fc576140fc61471e565b906000526020600020015490508060cb838154811061411d5761411d61471e565b600091825260208083209091019290925582815260cc909152604080822084905585825281205560cb8054806141555761415561495c565b6001900381819060005260206000200160009055905550505050565b600061417c836117b0565b6001600160a01b03909316600090815260c960209081526040808320868452825280832085905593825260ca9052919091209190915550565b6001600160e01b03198116811461143857600080fd5b6000602082840312156141dd57600080fd5b8135610b7a816141b5565b60005b838110156142035781810151838201526020016141eb565b50506000910152565b600081518084526142248160208601602086016141e8565b601f01601f19169290920160200192915050565b602081526000610b7a602083018461420c565b60006020828403121561425d57600080fd5b5035919050565b80356001600160a01b03811681146114c657600080fd5b6000806040838503121561428e57600080fd5b61429783614264565b946020939093013593505050565b6000806000606084860312156142ba57600080fd5b6142c384614264565b92506142d160208501614264565b9150604084013590509250925092565b60008083601f8401126142f357600080fd5b50813567ffffffffffffffff81111561430b57600080fd5b6020830191508360208260051b850101111561432657600080fd5b9250929050565b6000806020838503121561434057600080fd5b823567ffffffffffffffff81111561435757600080fd5b614363858286016142e1565b90969095509350505050565b6000806040838503121561438257600080fd5b61438b83614264565b915061439960208401614264565b90509250929050565b8051825260208101516143c060208401826001600160a01b03169052565b5060408101516040830152606081015160608301526080810151608083015260a081015160a083015260c081015160c083015260e081015160e08301526101008082015181840152506101208082015181840152505050565b610140810161082182846143a2565b6020808252825182820181905260009190848201906040850190845b8181101561446b576144578385516143a2565b928401926101409290920191600101614444565b50909695505050505050565b60008060006040848603121561448c57600080fd5b83359250602084013567ffffffffffffffff8111156144aa57600080fd5b6144b6868287016142e1565b9497909650939450505050565b6020808252825182820181905260009190848201906040850190845b8181101561446b578351835292840192918401916001016144df565b60006020828403121561450d57600080fd5b610b7a82614264565b6000806040838503121561452957600080fd5b50508035926020909101359150565b801515811461143857600080fd5b6000806040838503121561455957600080fd5b61456283614264565b9150602083013561457281614538565b809150509250929050565b634e487b7160e01b600052604160045260246000fd5b600080600080608085870312156145a957600080fd5b6145b285614264565b93506145c060208601614264565b925060408501359150606085013567ffffffffffffffff808211156145e457600080fd5b818701915087601f8301126145f857600080fd5b81358181111561460a5761460a61457d565b604051601f8201601f19908116603f011681019083821181831017156146325761463261457d565b816040528281528a602084870101111561464b57600080fd5b82602086016020830137600060208483010152809550505050505092959194509250565b600181811c9082168061468357607f821691505b6020821081036146a357634e487b7160e01b600052602260045260246000fd5b50919050565b634e487b7160e01b600052601160045260246000fd5b81810381811115610821576108216146a9565b8082028115828204841417610821576108216146a9565b60008261470657634e487b7160e01b600052601260045260246000fd5b500490565b80820180821115610821576108216146a9565b634e487b7160e01b600052603260045260246000fd5b60006000198203614747576147476146a9565b5060010190565b60006020828403121561476057600080fd5b8151610b7a81614538565b60006020828403121561477d57600080fd5b5051919050565b60007f07ffffffffffffffffffffffffffffffffffffffffffffffffffffffffffffff8311156147b357600080fd5b8260051b80858437919091019392505050565b600083516147d88184602088016141e8565b8351908301906147ec8183602088016141e8565b01949350505050565b601f821115610a1157600081815260208120601f850160051c8101602086101561481c5750805b601f850160051c820191505b8181101561483b57828155600101614828565b505050505050565b815167ffffffffffffffff81111561485d5761485d61457d565b6148718161486b845461466f565b846147f5565b602080601f8311600181146148a6576000841561488e5750858301515b600019600386901b1c1916600185901b17855561483b565b600085815260208120601f198616915b828110156148d5578886015182559484019460019091019084016148b6565b50858210156148f35787850151600019600388901b60f8161c191681555b5050505050600190811b01905550565b60006001600160a01b03808716835280861660208401525083604083015260806060830152614935608083018461420c565b9695505050505050565b60006020828403121561495157600080fd5b8151610b7a816141b5565b634e487b7160e01b600052603160045260246000fdfea2646970667358221220c2e5544be668cc31cc9e969b08bc3853c69fbbd2ad12da2123e8ca4914e7d1e864736f6c63430008130033",
  "linkReferences": {},
  "deployedLinkReferences": {}
}