{
  "_format": "hh-sol-artifact-1",
  "contractName": "TeamVestingXINTX",
  "sourceName": "contracts/TeamVestingXINTX.sol",
  "abi": [
    {
      "inputs": [],
      "stateMutability": "nonpayable",
      "type": "constructor"
    },
    {
      "anonymous": false,
      "inputs": [
        {
          "indexed": false,
          "internalType": "address",
          "name": "changedBy",
          "type": "address"
        },
        {
          "indexed": true,
          "internalType": "address",
          "name": "_oldAddress",
          "type": "address"
        },
        {
          "indexed": true,
          "internalType": "address",
          "name": "_newAddress",
          "type": "address"
        }
      ],
      "name": "AllocationChanged",
      "type": "event"
    },
    {
      "anonymous": false,
      "inputs": [
        {
          "indexed": true,
          "internalType": "address",
          "name": "user",
          "type": "address"
        },
        {
          "indexed": false,
          "internalType": "uint256",
          "name": "amount",
          "type": "uint256"
        }
      ],
      "name": "AllocationSet",
      "type": "event"
    },
    {
      "anonymous": false,
      "inputs": [
        {
          "indexed": true,
          "internalType": "address",
          "name": "user",
          "type": "address"
        },
        {
          "indexed": false,
          "internalType": "uint256",
          "name": "amount",
          "type": "uint256"
        },
        {
          "indexed": false,
          "internalType": "uint256",
          "name": "_tokenId",
          "type": "uint256"
        }
      ],
      "name": "Claimed",
      "type": "event"
    },
    {
      "anonymous": false,
      "inputs": [
        {
          "indexed": false,
          "internalType": "uint8",
          "name": "version",
          "type": "uint8"
        }
      ],
      "name": "Initialized",
      "type": "event"
    },
    {
      "anonymous": false,
      "inputs": [
        {
          "indexed": true,
          "internalType": "address",
          "name": "previousOwner",
          "type": "address"
        },
        {
          "indexed": true,
          "internalType": "address",
          "name": "newOwner",
          "type": "address"
        }
      ],
      "name": "OwnershipTransferStarted",
      "type": "event"
    },
    {
      "anonymous": false,
      "inputs": [
        {
          "indexed": true,
          "internalType": "address",
          "name": "previousOwner",
          "type": "address"
        },
        {
          "indexed": true,
          "internalType": "address",
          "name": "newOwner",
          "type": "address"
        }
      ],
      "name": "OwnershipTransferred",
      "type": "event"
    },
    {
      "anonymous": false,
      "inputs": [
        {
          "indexed": false,
          "internalType": "address",
          "name": "operator",
          "type": "address"
        },
        {
          "indexed": false,
          "internalType": "uint256",
          "name": "amount",
          "type": "uint256"
        }
      ],
      "name": "Seeded",
      "type": "event"
    },
    {
      "inputs": [],
      "name": "PRECISION",
      "outputs": [
        {
          "internalType": "uint256",
          "name": "",
          "type": "uint256"
        }
      ],
      "stateMutability": "view",
      "type": "function"
    },
    {
      "inputs": [],
      "name": "START_VESTING",
      "outputs": [
        {
          "internalType": "uint256",
          "name": "",
          "type": "uint256"
        }
      ],
      "stateMutability": "view",
      "type": "function"
    },
    {
      "inputs": [],
      "name": "VESTING_DURATION",
      "outputs": [
        {
          "internalType": "uint256",
          "name": "",
          "type": "uint256"
        }
      ],
      "stateMutability": "view",
      "type": "function"
    },
    {
      "inputs": [],
      "name": "acceptOwnership",
      "outputs": [],
      "stateMutability": "nonpayable",
      "type": "function"
    },
    {
      "inputs": [],
      "name": "allowChange",
      "outputs": [
        {
          "internalType": "bool",
          "name": "",
          "type": "bool"
        }
      ],
      "stateMutability": "view",
      "type": "function"
    },
    {
      "inputs": [],
      "name": "allowOwnerChange",
      "outputs": [
        {
          "internalType": "bool",
          "name": "",
          "type": "bool"
        }
      ],
      "stateMutability": "view",
      "type": "function"
    },
    {
      "inputs": [
        {
          "internalType": "address",
          "name": "_newAddress",
          "type": "address"
        }
      ],
      "name": "changeReceiver",
      "outputs": [],
      "stateMutability": "nonpayable",
      "type": "function"
    },
    {
      "inputs": [
        {
          "internalType": "address",
          "name": "_oldAddress",
          "type": "address"
        },
        {
          "internalType": "address",
          "name": "_newAddress",
          "type": "address"
        }
      ],
      "name": "changeReceiverOwner",
      "outputs": [],
      "stateMutability": "nonpayable",
      "type": "function"
    },
    {
      "inputs": [],
      "name": "claim",
      "outputs": [],
      "stateMutability": "nonpayable",
      "type": "function"
    },
    {
      "inputs": [
        {
          "internalType": "address",
          "name": "",
          "type": "address"
        }
      ],
      "name": "claimableAmount",
      "outputs": [
        {
          "internalType": "uint256",
          "name": "",
          "type": "uint256"
        }
      ],
      "stateMutability": "view",
      "type": "function"
    },
    {
      "inputs": [
        {
          "internalType": "address",
          "name": "_user",
          "type": "address"
        }
      ],
      "name": "claimableNow",
      "outputs": [
        {
          "internalType": "uint256",
          "name": "amountToReceive",
          "type": "uint256"
        }
      ],
      "stateMutability": "view",
      "type": "function"
    },
    {
      "inputs": [
        {
          "internalType": "address",
          "name": "",
          "type": "address"
        }
      ],
      "name": "claimedAmount",
      "outputs": [
        {
          "internalType": "uint256",
          "name": "",
          "type": "uint256"
        }
      ],
      "stateMutability": "view",
      "type": "function"
    },
    {
      "inputs": [],
      "name": "deposit",
      "outputs": [],
      "stateMutability": "nonpayable",
      "type": "function"
    },
    {
      "inputs": [
        {
          "internalType": "address",
          "name": "_intx",
          "type": "address"
        },
        {
          "internalType": "address",
          "name": "_xIntx",
          "type": "address"
        },
        {
          "internalType": "address",
          "name": "_multisig",
          "type": "address"
        },
        {
          "internalType": "uint256",
          "name": "_startVesting",
          "type": "uint256"
        },
        {
          "internalType": "uint256",
          "name": "_vestingDuration",
          "type": "uint256"
        },
        {
          "internalType": "address[]",
          "name": "_receivers",
          "type": "address[]"
        },
        {
          "internalType": "uint256[]",
          "name": "_amounts",
          "type": "uint256[]"
        },
        {
          "internalType": "bool",
          "name": "_allowChange",
          "type": "bool"
        },
        {
          "internalType": "bool",
          "name": "_allowOwnerChange",
          "type": "bool"
        }
      ],
      "name": "initialize",
      "outputs": [],
      "stateMutability": "nonpayable",
      "type": "function"
    },
    {
      "inputs": [],
      "name": "intx",
      "outputs": [
        {
          "internalType": "contract IERC20",
          "name": "",
          "type": "address"
        }
      ],
      "stateMutability": "view",
      "type": "function"
    },
    {
      "inputs": [],
      "name": "multisig",
      "outputs": [
        {
          "internalType": "address",
          "name": "",
          "type": "address"
        }
      ],
      "stateMutability": "view",
      "type": "function"
    },
    {
      "inputs": [],
      "name": "owner",
      "outputs": [
        {
          "internalType": "address",
          "name": "",
          "type": "address"
        }
      ],
      "stateMutability": "view",
      "type": "function"
    },
    {
      "inputs": [],
      "name": "pendingOwner",
      "outputs": [
        {
          "internalType": "address",
          "name": "",
          "type": "address"
        }
      ],
      "stateMutability": "view",
      "type": "function"
    },
    {
      "inputs": [],
      "name": "renounceOwnership",
      "outputs": [],
      "stateMutability": "nonpayable",
      "type": "function"
    },
    {
      "inputs": [],
      "name": "seeded",
      "outputs": [
        {
          "internalType": "bool",
          "name": "",
          "type": "bool"
        }
      ],
      "stateMutability": "view",
      "type": "function"
    },
    {
      "inputs": [
        {
          "internalType": "address",
          "name": "newOwner",
          "type": "address"
        }
      ],
      "name": "transferOwnership",
      "outputs": [],
      "stateMutability": "nonpayable",
      "type": "function"
    },
    {
      "inputs": [],
      "name": "xIntx",
      "outputs": [
        {
          "internalType": "contract IStakedINTX",
          "name": "",
          "type": "address"
        }
      ],
      "stateMutability": "view",
      "type": "function"
    }
  ],
  "bytecode": "0x608060405234801561001057600080fd5b5061001961001e565b6100dd565b600054610100900460ff161561008a5760405162461bcd60e51b815260206004820152602760248201527f496e697469616c697a61626c653a20636f6e747261637420697320696e697469604482015266616c697a696e6760c81b606482015260840160405180910390fd5b60005460ff908116146100db576000805460ff191660ff9081179091556040519081527f7f26b83ff96e1f2b6a682f133852f6798a09c465da95921460cefb38474024989060200160405180910390a15b565b61209b80620000ed6000396000f3fe608060405234801561001057600080fd5b50600436106101825760003560e01c806389885049116100d8578063aa264c9b1161008c578063d5ff56f811610066578063d5ff56f81461030f578063e30c397814610334578063f2fde38b1461034557600080fd5b8063aa264c9b146102f5578063aaf5eb68146102fe578063d0e30db01461030757600080fd5b80639a78ea4a116100bd5780639a78ea4a146102bc5780639b105a57146102cf5780639b4edee2146102e257600080fd5b8063898850491461028b5780638da5cb5b146102ab57600080fd5b80634cfc4d301161013a578063702775b911610114578063702775b914610255578063715018a61461027b57806379ba50971461028357600080fd5b80634cfc4d301461022f5780634e71d92d14610238578063547e3f061461024257600080fd5b8063334041a61161016b578063334041a6146101e557806346f7d6c9146102095780634783c35b1461021c57600080fd5b806304e869031461018757806327a7af89146101ba575b600080fd5b6101a7610195366004611d82565b60d06020526000908152604090205481565b6040519081526020015b60405180910390f35b60ce546101cd906001600160a01b031681565b6040516001600160a01b0390911681526020016101b1565b60cc546101f990600160b01b900460ff1681565b60405190151581526020016101b1565b60cd546101cd906001600160a01b031681565b60cc546101cd906001600160a01b031681565b6101a760ca5481565b610240610358565b005b610240610250366004611d82565b610730565b60cc546101f9907501000000000000000000000000000000000000000000900460ff1681565b610240610a70565b610240610a78565b6101a7610299366004611d82565b60cf6020526000908152604090205481565b6065546001600160a01b03166101cd565b6101a76102ca366004611d82565b610b06565b6102406102dd366004611dfe565b610d52565b6102406102f0366004611ede565b6111d0565b6101a760c95481565b6101a761271081565b6102406114a1565b60cc546101f99074010000000000000000000000000000000000000000900460ff1681565b6097546001600160a01b03166101cd565b610240610353366004611d82565b611656565b6103606116d4565b33600090815260cf602052604081205490036103e95760405162461bcd60e51b815260206004820152602e60248201527f54686973206164647265737320646f65736e2774206861766520616e7920616d60448201527f6f756e7420746f20636c61696d2e00000000000000000000000000000000000060648201526084015b60405180910390fd5b60cc54600160b01b900460ff166104685760405162461bcd60e51b815260206004820152602860248201527f56657374696e6720436f6e7472616374206861736e2774206265656e2073656560448201527f646564207965742e00000000000000000000000000000000000000000000000060648201526084016103e0565b33600090815260cf602090815260408083205460d090925290912054106104f75760405162461bcd60e51b815260206004820152602c60248201527f596f75206861766520616c726561647920636c61696d656420616c6c20796f7560448201527f7220616c6c6f636174696f6e000000000000000000000000000000000000000060648201526084016103e0565b60c9544211156107255733600090815260cf602052604081205460c9549091906105219042611f27565b905060ca54811115610532575060ca545b60ca5460009061054461271084611f40565b61054e9190611f57565b33600090815260d060205260408120549192509061271061056f8487611f40565b6105799190611f57565b6105839190611f27565b905080156107205733600090815260d06020526040812080548392906105aa908490611f79565b909155505060cd5460ce546040517f095ea7b30000000000000000000000000000000000000000000000000000000081526001600160a01b0391821660048201526024810184905291169063095ea7b3906044016020604051808303816000875af115801561061d573d6000803e3d6000fd5b505050506040513d601f19601f820116820180604052508101906106419190611f8c565b5060ce546000906001600160a01b0316632ee40908336040517fffffffff0000000000000000000000000000000000000000000000000000000060e084901b1681526001600160a01b039091166004820152602481018590526044016020604051808303816000875af11580156106bc573d6000803e3d6000fd5b505050506040513d601f19601f820116820180604052508101906106e09190611fa9565b604080518481526020810183905291925033917f987d620f307ff6b94d58743cb7a7509f24071586a77759b77c2d4e29f75a2f9a910160405180910390a2505b505050505b61072e60018055565b565b60cc5474010000000000000000000000000000000000000000900460ff166107e65760405162461bcd60e51b815260206004820152604660248201527f546869732076657374696e6720636f6e747261637420646f65736e277420616c60448201527f6c6f7720796f7520746f206368616e676520746865207265636569766572206160648201527f6464726573730000000000000000000000000000000000000000000000000000608482015260a4016103e0565b6001600160a01b0381166108625760405162461bcd60e51b815260206004820152603660248201527f4e657720616c6c6f636174696f6e2072656365697665722063616e277420626560448201527f20746865203078303030302e2e2e20616464726573730000000000000000000060648201526084016103e0565b33600081815260cf602052604081205490036108c05760405162461bcd60e51b815260206004820152601e60248201527f596f7520646f6e2774206861766520616e7920616c6c6f636174696f6e2e000060448201526064016103e0565b6001600160a01b038216600090815260cf60205260409020541561094c5760405162461bcd60e51b815260206004820152602d60248201527f546865206e6577206164647265737320616c726561647920686173206120766560448201527f7374696e6720616d6f756e742e0000000000000000000000000000000000000060648201526084016103e0565b6001600160a01b038116600090815260cf602090815260408083205460d090925290912054106109e45760405162461bcd60e51b815260206004820152602d60248201527f596f75206861766520616c726561647920636c61696d656420616c6c20796f7560448201527f7220616c6c6f636174696f6e2e0000000000000000000000000000000000000060648201526084016103e0565b6001600160a01b03818116600081815260cf6020908152604080832080549588168085528285209690965584845260d090925280832080548685529184209190915583835290829055557f4e87e17c55076158dc051ffe67edb8c0abf946f53612656c46f887ac1f9c486c335b6040516001600160a01b03909116815260200160405180910390a35050565b61072e611733565b60975433906001600160a01b03168114610afa5760405162461bcd60e51b815260206004820152602960248201527f4f776e61626c6532537465703a2063616c6c6572206973206e6f74207468652060448201527f6e6577206f776e6572000000000000000000000000000000000000000000000060648201526084016103e0565b610b038161178d565b50565b6001600160a01b038116600090815260cf60205260408120548103610b935760405162461bcd60e51b815260206004820152602e60248201527f54686973206164647265737320646f65736e2774206861766520616e7920616d60448201527f6f756e7420746f20636c61696d2e00000000000000000000000000000000000060648201526084016103e0565b60cc54600160b01b900460ff16610c125760405162461bcd60e51b815260206004820152602860248201527f56657374696e6720436f6e7472616374206861736e2774206265656e2073656560448201527f646564207965742e00000000000000000000000000000000000000000000000060648201526084016103e0565b6001600160a01b038216600090815260cf602090815260408083205460d09092529091205410610caa5760405162461bcd60e51b815260206004820152602c60248201527f596f75206861766520616c726561647920636c61696d656420616c6c20796f7560448201527f7220616c6c6f636174696f6e000000000000000000000000000000000000000060648201526084016103e0565b60c954421115610d4d576001600160a01b038216600090815260cf602052604081205460c954909190610cdd9042611f27565b905060ca54811115610cee575060ca545b60ca54600090610d0061271084611f40565b610d0a9190611f57565b6001600160a01b038616600090815260d06020526040902054909150612710610d338386611f40565b610d3d9190611f57565b610d479190611f27565b93505050505b919050565b600054610100900460ff1615808015610d725750600054600160ff909116105b80610d8c5750303b158015610d8c575060005460ff166001145b610dfe5760405162461bcd60e51b815260206004820152602e60248201527f496e697469616c697a61626c653a20636f6e747261637420697320616c72656160448201527f647920696e697469616c697a656400000000000000000000000000000000000060648201526084016103e0565b600080547fffffffffffffffffffffffffffffffffffffffffffffffffffffffffffffff001660011790558015610e3f576000805461ff0019166101001790555b610e476117b3565b610e4f611826565b6001600160a01b038c16610ea55760405162461bcd60e51b815260206004820152601460248201527f43616e277420757365203078206164647265737300000000000000000000000060448201526064016103e0565b6001600160a01b038b16610efb5760405162461bcd60e51b815260206004820152601460248201527f43616e277420757365203078206164647265737300000000000000000000000060448201526064016103e0565b6001600160a01b038a16610f515760405162461bcd60e51b815260206004820152601460248201527f43616e277420757365203078206164647265737300000000000000000000000060448201526064016103e0565b60cd80546001600160a01b03808f1673ffffffffffffffffffffffffffffffffffffffff199283161790925560ce80548e841690831617905560cc8054928d169290911691909117905560c989905560ca88905585848114610fb257600080fd5b60005b818110156110f957868682818110610fcf57610fcf611fc2565b9050602002013560cf60008b8b85818110610fec57610fec611fc2565b90506020020160208101906110019190611d82565b6001600160a01b03166001600160a01b0316815260200190815260200160002060008282546110309190611f79565b90915550879050868281811061104857611048611fc2565b9050602002013560cb60008282546110609190611f79565b90915550899050888281811061107857611078611fc2565b905060200201602081019061108d9190611d82565b6001600160a01b03167fedfc909d0ab2a1625b7911d925efbd8200cdd99d4c7ba44e720328b17879f0b38888848181106110c9576110c9611fc2565b905060200201356040516110df91815260200190565b60405180910390a2806110f181611fd8565b915050610fb5565b505060cc80547fffffffffffffffffffff0000ffffffffffffffffffffffffffffffffffffffff1674010000000000000000000000000000000000000000851515027fffffffffffffffffffff00ffffffffffffffffffffffffffffffffffffffffff161775010000000000000000000000000000000000000000008415150217905580156111c2576000805461ff0019169055604051600181527f7f26b83ff96e1f2b6a682f133852f6798a09c465da95921460cefb38474024989060200160405180910390a15b505050505050505050505050565b6111d8611733565b60cc547501000000000000000000000000000000000000000000900460ff1661120057600080fd5b6001600160a01b038216600090815260cf6020526040812054900361128d5760405162461bcd60e51b815260206004820152602860248201527f4f6c64206164647265737320646f65736e2774206861766520616e7920616c6c60448201527f6f636174696f6e2e00000000000000000000000000000000000000000000000060648201526084016103e0565b6001600160a01b038216600090815260cf602090815260408083205460d090925290912054106113255760405162461bcd60e51b815260206004820152602d60248201527f596f75206861766520616c726561647920636c61696d656420616c6c20796f7560448201527f7220616c6c6f636174696f6e2e0000000000000000000000000000000000000060648201526084016103e0565b6001600160a01b038116156113ff576001600160a01b038116600090815260cf6020526040902054156113c05760405162461bcd60e51b815260206004820152602d60248201527f546865206e6577206164647265737320616c726561647920686173206120766560448201527f7374696e6720616d6f756e742e0000000000000000000000000000000000000060648201526084016103e0565b6001600160a01b03808316600081815260cf60209081526040808320549486168084528184209590955592825260d0905281812054928152205561144f565b6001600160a01b038216600090815260d0602090815260408083205460cf90925282205461142d9190611f27565b60cc5460cd5491925061144d916001600160a01b03908116911683611899565b505b6001600160a01b03828116600081815260cf6020908152604080832083905560d0909152812055908216907f4e87e17c55076158dc051ffe67edb8c0abf946f53612656c46f887ac1f9c486c33610a51565b6114a9611733565b60cc54600160b01b900460ff16156115295760405162461bcd60e51b815260206004820152603460248201527f56657374696e6720436f6e747261637420416c7265616479207365656465642060448201527f7769746820696e697469616c20616d6f756e742e00000000000000000000000060648201526084016103e0565b6115453360cb5460cd546001600160a01b031691903090611947565b60cd5460ce546040517f095ea7b30000000000000000000000000000000000000000000000000000000081526001600160a01b039182166004820152600019602482015291169063095ea7b3906044016020604051808303816000875af11580156115b4573d6000803e3d6000fd5b505050506040513d601f19601f820116820180604052508101906115d89190611f8c565b5060cc80547fffffffffffffffffff00ffffffffffffffffffffffffffffffffffffffffffff16600160b01b1790557f6189b14a5c1490dbeb86a9da875768d98dc98fb398d6b29dd475defaa1ec4ba361162f3390565b60cb54604080516001600160a01b03909316835260208301919091520160405180910390a1565b61165e611733565b609780546001600160a01b03831673ffffffffffffffffffffffffffffffffffffffff19909116811790915561169c6065546001600160a01b031690565b6001600160a01b03167f38d16b8cac22d99fc7c124b9cd0de2d3fa1faef420bfe791d8c362d765e2270060405160405180910390a350565b6002600154036117265760405162461bcd60e51b815260206004820152601f60248201527f5265656e7472616e637947756172643a207265656e7472616e742063616c6c0060448201526064016103e0565b6002600155565b60018055565b6065546001600160a01b0316331461072e5760405162461bcd60e51b815260206004820181905260248201527f4f776e61626c653a2063616c6c6572206973206e6f7420746865206f776e657260448201526064016103e0565b6097805473ffffffffffffffffffffffffffffffffffffffff19169055610b038161199e565b600054610100900460ff1661181e5760405162461bcd60e51b815260206004820152602b60248201527f496e697469616c697a61626c653a20636f6e7472616374206973206e6f74206960448201526a6e697469616c697a696e6760a81b60648201526084016103e0565b61072e6119fd565b600054610100900460ff166118915760405162461bcd60e51b815260206004820152602b60248201527f496e697469616c697a61626c653a20636f6e7472616374206973206e6f74206960448201526a6e697469616c697a696e6760a81b60648201526084016103e0565b61072e611a68565b6040516001600160a01b0383166024820152604481018290526119429084907fa9059cbb00000000000000000000000000000000000000000000000000000000906064015b60408051601f198184030181529190526020810180517bffffffffffffffffffffffffffffffffffffffffffffffffffffffff167fffffffff0000000000000000000000000000000000000000000000000000000090931692909217909152611adc565b505050565b6040516001600160a01b03808516602483015283166044820152606481018290526119989085907f23b872dd00000000000000000000000000000000000000000000000000000000906084016118de565b50505050565b606580546001600160a01b0383811673ffffffffffffffffffffffffffffffffffffffff19831681179093556040519116919082907f8be0079c531659141344cd1fd0a4f28419497f9722a3daafe3b4186f6b6457e090600090a35050565b600054610100900460ff1661172d5760405162461bcd60e51b815260206004820152602b60248201527f496e697469616c697a61626c653a20636f6e7472616374206973206e6f74206960448201526a6e697469616c697a696e6760a81b60648201526084016103e0565b600054610100900460ff16611ad35760405162461bcd60e51b815260206004820152602b60248201527f496e697469616c697a61626c653a20636f6e7472616374206973206e6f74206960448201526a6e697469616c697a696e6760a81b60648201526084016103e0565b61072e3361178d565b6000611b31826040518060400160405280602081526020017f5361666545524332303a206c6f772d6c6576656c2063616c6c206661696c6564815250856001600160a01b0316611bc49092919063ffffffff16565b9050805160001480611b52575080806020019051810190611b529190611f8c565b6119425760405162461bcd60e51b815260206004820152602a60248201527f5361666545524332303a204552433230206f7065726174696f6e20646964206e60448201527f6f7420737563636565640000000000000000000000000000000000000000000060648201526084016103e0565b6060611bd38484600085611bdb565b949350505050565b606082471015611c535760405162461bcd60e51b815260206004820152602660248201527f416464726573733a20696e73756666696369656e742062616c616e636520666f60448201527f722063616c6c000000000000000000000000000000000000000000000000000060648201526084016103e0565b600080866001600160a01b03168587604051611c6f9190612016565b60006040518083038185875af1925050503d8060008114611cac576040519150601f19603f3d011682016040523d82523d6000602084013e611cb1565b606091505b5091509150611cc287838387611ccd565b979650505050505050565b60608315611d3c578251600003611d35576001600160a01b0385163b611d355760405162461bcd60e51b815260206004820152601d60248201527f416464726573733a2063616c6c20746f206e6f6e2d636f6e747261637400000060448201526064016103e0565b5081611bd3565b611bd38383815115611d515781518083602001fd5b8060405162461bcd60e51b81526004016103e09190612032565b80356001600160a01b0381168114610d4d57600080fd5b600060208284031215611d9457600080fd5b611d9d82611d6b565b9392505050565b60008083601f840112611db657600080fd5b50813567ffffffffffffffff811115611dce57600080fd5b6020830191508360208260051b8501011115611de957600080fd5b9250929050565b8015158114610b0357600080fd5b60008060008060008060008060008060006101208c8e031215611e2057600080fd5b611e298c611d6b565b9a50611e3760208d01611d6b565b9950611e4560408d01611d6b565b985060608c0135975060808c0135965067ffffffffffffffff8060a08e01351115611e6f57600080fd5b611e7f8e60a08f01358f01611da4565b909750955060c08d0135811015611e9557600080fd5b50611ea68d60c08e01358e01611da4565b909450925060e08c0135611eb981611df0565b91506101008c0135611eca81611df0565b809150509295989b509295989b9093969950565b60008060408385031215611ef157600080fd5b611efa83611d6b565b9150611f0860208401611d6b565b90509250929050565b634e487b7160e01b600052601160045260246000fd5b81810381811115611f3a57611f3a611f11565b92915050565b8082028115828204841417611f3a57611f3a611f11565b600082611f7457634e487b7160e01b600052601260045260246000fd5b500490565b80820180821115611f3a57611f3a611f11565b600060208284031215611f9e57600080fd5b8151611d9d81611df0565b600060208284031215611fbb57600080fd5b5051919050565b634e487b7160e01b600052603260045260246000fd5b60006000198203611feb57611feb611f11565b5060010190565b60005b8381101561200d578181015183820152602001611ff5565b50506000910152565b60008251612028818460208701611ff2565b9190910192915050565b6020815260008251806020840152612051816040850160208701611ff2565b601f01601f1916919091016040019291505056fea2646970667358221220a29aba7f8132d4ba7c1b1340ae958537144d9f6600f8b841d6aabbeba676c57764736f6c63430008120033",
  "linkReferences": {},
  "deployedLinkReferences": {}
}