{
  "_format": "hh-sol-artifact-1",
  "contractName": "TestToken",
  "sourceName": "contracts/TestToken.sol",
  "abi": [
    {
      "inputs": [],
      "stateMutability": "nonpayable",
      "type": "constructor"
    },
    {
      "anonymous": false,
      "inputs": [
        {
          "indexed": true,
          "internalType": "address",
          "name": "owner",
          "type": "address"
        },
        {
          "indexed": true,
          "internalType": "address",
          "name": "spender",
          "type": "address"
        },
        {
          "indexed": false,
          "internalType": "uint256",
          "name": "value",
          "type": "uint256"
        }
      ],
      "name": "Approval",
      "type": "event"
    },
    {
      "anonymous": false,
      "inputs": [],
      "name": "EIP712DomainChanged",
      "type": "event"
    },
    {
      "anonymous": false,
      "inputs": [
        {
          "indexed": false,
          "internalType": "uint8",
          "name": "version",
          "type": "uint8"
        }
      ],
      "name": "Initialized",
      "type": "event"
    },
    {
      "anonymous": false,
      "inputs": [
        {
          "indexed": true,
          "internalType": "address",
          "name": "previousOwner",
          "type": "address"
        },
        {
          "indexed": true,
          "internalType": "address",
          "name": "newOwner",
          "type": "address"
        }
      ],
      "name": "OwnershipTransferred",
      "type": "event"
    },
    {
      "anonymous": false,
      "inputs": [
        {
          "indexed": true,
          "internalType": "address",
          "name": "from",
          "type": "address"
        },
        {
          "indexed": true,
          "internalType": "address",
          "name": "to",
          "type": "address"
        },
        {
          "indexed": false,
          "internalType": "uint256",
          "name": "value",
          "type": "uint256"
        }
      ],
      "name": "Transfer",
      "type": "event"
    },
    {
      "inputs": [],
      "name": "DOMAIN_SEPARATOR",
      "outputs": [
        {
          "internalType": "bytes32",
          "name": "",
          "type": "bytes32"
        }
      ],
      "stateMutability": "view",
      "type": "function"
    },
    {
      "inputs": [
        {
          "internalType": "address",
          "name": "owner",
          "type": "address"
        },
        {
          "internalType": "address",
          "name": "spender",
          "type": "address"
        }
      ],
      "name": "allowance",
      "outputs": [
        {
          "internalType": "uint256",
          "name": "",
          "type": "uint256"
        }
      ],
      "stateMutability": "view",
      "type": "function"
    },
    {
      "inputs": [
        {
          "internalType": "address",
          "name": "spender",
          "type": "address"
        },
        {
          "internalType": "uint256",
          "name": "amount",
          "type": "uint256"
        }
      ],
      "name": "approve",
      "outputs": [
        {
          "internalType": "bool",
          "name": "",
          "type": "bool"
        }
      ],
      "stateMutability": "nonpayable",
      "type": "function"
    },
    {
      "inputs": [
        {
          "internalType": "address",
          "name": "account",
          "type": "address"
        }
      ],
      "name": "balanceOf",
      "outputs": [
        {
          "internalType": "uint256",
          "name": "",
          "type": "uint256"
        }
      ],
      "stateMutability": "view",
      "type": "function"
    },
    {
      "inputs": [
        {
          "internalType": "uint256",
          "name": "amount",
          "type": "uint256"
        }
      ],
      "name": "burn",
      "outputs": [],
      "stateMutability": "nonpayable",
      "type": "function"
    },
    {
      "inputs": [
        {
          "internalType": "address",
          "name": "account",
          "type": "address"
        },
        {
          "internalType": "uint256",
          "name": "amount",
          "type": "uint256"
        }
      ],
      "name": "burnFrom",
      "outputs": [],
      "stateMutability": "nonpayable",
      "type": "function"
    },
    {
      "inputs": [],
      "name": "decimals",
      "outputs": [
        {
          "internalType": "uint8",
          "name": "",
          "type": "uint8"
        }
      ],
      "stateMutability": "view",
      "type": "function"
    },
    {
      "inputs": [
        {
          "internalType": "address",
          "name": "spender",
          "type": "address"
        },
        {
          "internalType": "uint256",
          "name": "subtractedValue",
          "type": "uint256"
        }
      ],
      "name": "decreaseAllowance",
      "outputs": [
        {
          "internalType": "bool",
          "name": "",
          "type": "bool"
        }
      ],
      "stateMutability": "nonpayable",
      "type": "function"
    },
    {
      "inputs": [],
      "name": "eip712Domain",
      "outputs": [
        {
          "internalType": "bytes1",
          "name": "fields",
          "type": "bytes1"
        },
        {
          "internalType": "string",
          "name": "name",
          "type": "string"
        },
        {
          "internalType": "string",
          "name": "version",
          "type": "string"
        },
        {
          "internalType": "uint256",
          "name": "chainId",
          "type": "uint256"
        },
        {
          "internalType": "address",
          "name": "verifyingContract",
          "type": "address"
        },
        {
          "internalType": "bytes32",
          "name": "salt",
          "type": "bytes32"
        },
        {
          "internalType": "uint256[]",
          "name": "extensions",
          "type": "uint256[]"
        }
      ],
      "stateMutability": "view",
      "type": "function"
    },
    {
      "inputs": [
        {
          "internalType": "address",
          "name": "spender",
          "type": "address"
        },
        {
          "internalType": "uint256",
          "name": "addedValue",
          "type": "uint256"
        }
      ],
      "name": "increaseAllowance",
      "outputs": [
        {
          "internalType": "bool",
          "name": "",
          "type": "bool"
        }
      ],
      "stateMutability": "nonpayable",
      "type": "function"
    },
    {
      "inputs": [],
      "name": "initialize",
      "outputs": [],
      "stateMutability": "nonpayable",
      "type": "function"
    },
    {
      "inputs": [
        {
          "internalType": "address",
          "name": "to",
          "type": "address"
        },
        {
          "internalType": "uint256",
          "name": "amount",
          "type": "uint256"
        }
      ],
      "name": "mint",
      "outputs": [],
      "stateMutability": "nonpayable",
      "type": "function"
    },
    {
      "inputs": [],
      "name": "name",
      "outputs": [
        {
          "internalType": "string",
          "name": "",
          "type": "string"
        }
      ],
      "stateMutability": "view",
      "type": "function"
    },
    {
      "inputs": [
        {
          "internalType": "address",
          "name": "owner",
          "type": "address"
        }
      ],
      "name": "nonces",
      "outputs": [
        {
          "internalType": "uint256",
          "name": "",
          "type": "uint256"
        }
      ],
      "stateMutability": "view",
      "type": "function"
    },
    {
      "inputs": [],
      "name": "owner",
      "outputs": [
        {
          "internalType": "address",
          "name": "",
          "type": "address"
        }
      ],
      "stateMutability": "view",
      "type": "function"
    },
    {
      "inputs": [
        {
          "internalType": "address",
          "name": "owner",
          "type": "address"
        },
        {
          "internalType": "address",
          "name": "spender",
          "type": "address"
        },
        {
          "internalType": "uint256",
          "name": "value",
          "type": "uint256"
        },
        {
          "internalType": "uint256",
          "name": "deadline",
          "type": "uint256"
        },
        {
          "internalType": "uint8",
          "name": "v",
          "type": "uint8"
        },
        {
          "internalType": "bytes32",
          "name": "r",
          "type": "bytes32"
        },
        {
          "internalType": "bytes32",
          "name": "s",
          "type": "bytes32"
        }
      ],
      "name": "permit",
      "outputs": [],
      "stateMutability": "nonpayable",
      "type": "function"
    },
    {
      "inputs": [],
      "name": "renounceOwnership",
      "outputs": [],
      "stateMutability": "nonpayable",
      "type": "function"
    },
    {
      "inputs": [],
      "name": "symbol",
      "outputs": [
        {
          "internalType": "string",
          "name": "",
          "type": "string"
        }
      ],
      "stateMutability": "view",
      "type": "function"
    },
    {
      "inputs": [],
      "name": "totalSupply",
      "outputs": [
        {
          "internalType": "uint256",
          "name": "",
          "type": "uint256"
        }
      ],
      "stateMutability": "view",
      "type": "function"
    },
    {
      "inputs": [
        {
          "internalType": "address",
          "name": "to",
          "type": "address"
        },
        {
          "internalType": "uint256",
          "name": "amount",
          "type": "uint256"
        }
      ],
      "name": "transfer",
      "outputs": [
        {
          "internalType": "bool",
          "name": "",
          "type": "bool"
        }
      ],
      "stateMutability": "nonpayable",
      "type": "function"
    },
    {
      "inputs": [
        {
          "internalType": "address",
          "name": "from",
          "type": "address"
        },
        {
          "internalType": "address",
          "name": "to",
          "type": "address"
        },
        {
          "internalType": "uint256",
          "name": "amount",
          "type": "uint256"
        }
      ],
      "name": "transferFrom",
      "outputs": [
        {
          "internalType": "bool",
          "name": "",
          "type": "bool"
        }
      ],
      "stateMutability": "nonpayable",
      "type": "function"
    },
    {
      "inputs": [
        {
          "internalType": "address",
          "name": "newOwner",
          "type": "address"
        }
      ],
      "name": "transferOwnership",
      "outputs": [],
      "stateMutability": "nonpayable",
      "type": "function"
    }
  ],
  "bytecode": "0x6080604052348015600f57600080fd5b506016601a565b60d7565b600054610100900460ff161560855760405162461bcd60e51b815260206004820152602760248201527f496e697469616c697a61626c653a20636f6e747261637420697320696e697469604482015266616c697a696e6760c81b606482015260840160405180910390fd5b60005460ff9081161460d5576000805460ff191660ff9081179091556040519081527f7f26b83ff96e1f2b6a682f133852f6798a09c465da95921460cefb38474024989060200160405180910390a15b565b611d93806100e66000396000f3fe608060405234801561001057600080fd5b50600436106101825760003560e01c806379cc6790116100d857806395d89b411161008c578063d505accf11610066578063d505accf14610302578063dd62ed3e14610315578063f2fde38b1461034e57600080fd5b806395d89b41146102d4578063a457c2d7146102dc578063a9059cbb146102ef57600080fd5b80638129fc1c116100bd5780638129fc1c1461029657806384b0196e1461029e5780638da5cb5b146102b957600080fd5b806379cc6790146102705780637ecebe001461028357600080fd5b80633644e5151161013a57806342966c681161011457806342966c681461022c57806370a082311461023f578063715018a61461026857600080fd5b80633644e515146101fc578063395093511461020457806340c10f191461021757600080fd5b806318160ddd1161016b57806318160ddd146101c857806323b872dd146101da578063313ce567146101ed57600080fd5b806306fdde0314610187578063095ea7b3146101a5575b600080fd5b61018f610361565b60405161019c919061188f565b60405180910390f35b6101b86101b33660046118c5565b6103f3565b604051901515815260200161019c565b6035545b60405190815260200161019c565b6101b86101e83660046118ef565b61040d565b6040516012815260200161019c565b6101cc610431565b6101b86102123660046118c5565b610440565b61022a6102253660046118c5565b61047f565b005b61022a61023a36600461192c565b610495565b6101cc61024d366004611945565b6001600160a01b031660009081526033602052604090205490565b61022a6104a2565b61022a61027e3660046118c5565b6104b6565b6101cc610291366004611945565b6104cb565b61022a6104e9565b6102a66106ff565b60405161019c9796959493929190611960565b60fe546040516001600160a01b03909116815260200161019c565b61018f6107c1565b6101b86102ea3660046118c5565b6107d0565b6101b86102fd3660046118c5565b61087a565b61022a610310366004611a14565b610888565b6101cc610323366004611a87565b6001600160a01b03918216600090815260346020908152604080832093909416825291909152205490565b61022a61035c366004611945565b6109ec565b60606036805461037090611aba565b80601f016020809104026020016040519081016040528092919081815260200182805461039c90611aba565b80156103e95780601f106103be576101008083540402835291602001916103e9565b820191906000526020600020905b8154815290600101906020018083116103cc57829003601f168201915b5050505050905090565b600033610401818585610a79565b60019150505b92915050565b60003361041b858285610bd2565b610426858585610c64565b506001949350505050565b600061043b610e58565b905090565b3360008181526034602090815260408083206001600160a01b0387168452909152812054909190610401908290869061047a908790611b04565b610a79565b610487610e62565b6104918282610ebc565b5050565b61049f3382610f7d565b50565b6104aa610e62565b6104b460006110e5565b565b6104c1823383610bd2565b6104918282610f7d565b6001600160a01b038116600090815260cb6020526040812054610407565b600054610100900460ff16158080156105095750600054600160ff909116105b806105235750303b158015610523575060005460ff166001145b61059a5760405162461bcd60e51b815260206004820152602e60248201527f496e697469616c697a61626c653a20636f6e747261637420697320616c72656160448201527f647920696e697469616c697a656400000000000000000000000000000000000060648201526084015b60405180910390fd5b600080547fffffffffffffffffffffffffffffffffffffffffffffffffffffffffffffff0016600117905580156105db576000805461ff0019166101001790555b61064f6040518060400160405280600a81526020017f5465737420546f6b656e000000000000000000000000000000000000000000008152506040518060400160405280600481526020017f544553540000000000000000000000000000000000000000000000000000000081525061114f565b61068d6040518060400160405280600a81526020017f546573745f746f6b656e000000000000000000000000000000000000000000008152506111c4565b61069561126e565b6106b7336106a56012600a611bfe565b6106b290620186a0611c0d565b610ebc565b801561049f576000805461ff0019169055604051600181527f7f26b83ff96e1f2b6a682f133852f6798a09c465da95921460cefb38474024989060200160405180910390a150565b6000606080600080600060606097546000801b14801561071f5750609854155b61076b5760405162461bcd60e51b815260206004820152601560248201527f4549503731323a20556e696e697469616c697a656400000000000000000000006044820152606401610591565b6107736112e1565b61077b6112f0565b604080516000808252602082019092527f0f000000000000000000000000000000000000000000000000000000000000009b939a50919850469750309650945092509050565b60606037805461037090611aba565b3360008181526034602090815260408083206001600160a01b03871684529091528120549091908381101561086d5760405162461bcd60e51b815260206004820152602560248201527f45524332303a2064656372656173656420616c6c6f77616e63652062656c6f7760448201527f207a65726f0000000000000000000000000000000000000000000000000000006064820152608401610591565b6104268286868403610a79565b600033610401818585610c64565b834211156108d85760405162461bcd60e51b815260206004820152601d60248201527f45524332305065726d69743a206578706972656420646561646c696e650000006044820152606401610591565b60007f6e71edae12b1b97f4d1f60370fef10105fa2faae0126114a169c64845d6126c98888886109078c6112ff565b6040805160208101969096526001600160a01b0394851690860152929091166060840152608083015260a082015260c0810186905260e001604051602081830303815290604052805190602001209050600061096282611327565b905060006109728287878761136f565b9050896001600160a01b0316816001600160a01b0316146109d55760405162461bcd60e51b815260206004820152601e60248201527f45524332305065726d69743a20696e76616c6964207369676e617475726500006044820152606401610591565b6109e08a8a8a610a79565b50505050505050505050565b6109f4610e62565b6001600160a01b038116610a705760405162461bcd60e51b815260206004820152602660248201527f4f776e61626c653a206e6577206f776e657220697320746865207a65726f206160448201527f64647265737300000000000000000000000000000000000000000000000000006064820152608401610591565b61049f816110e5565b6001600160a01b038316610af45760405162461bcd60e51b8152602060048201526024808201527f45524332303a20617070726f76652066726f6d20746865207a65726f2061646460448201527f72657373000000000000000000000000000000000000000000000000000000006064820152608401610591565b6001600160a01b038216610b705760405162461bcd60e51b815260206004820152602260248201527f45524332303a20617070726f766520746f20746865207a65726f20616464726560448201527f73730000000000000000000000000000000000000000000000000000000000006064820152608401610591565b6001600160a01b0383811660008181526034602090815260408083209487168084529482529182902085905590518481527f8c5be1e5ebec7d5bd14f71427d1e84f3dd0314c0f7b2291e5b200ac8c7c3b92591015b60405180910390a3505050565b6001600160a01b038381166000908152603460209081526040808320938616835292905220546000198114610c5e5781811015610c515760405162461bcd60e51b815260206004820152601d60248201527f45524332303a20696e73756666696369656e7420616c6c6f77616e63650000006044820152606401610591565b610c5e8484848403610a79565b50505050565b6001600160a01b038316610ce05760405162461bcd60e51b815260206004820152602560248201527f45524332303a207472616e736665722066726f6d20746865207a65726f20616460448201527f64726573730000000000000000000000000000000000000000000000000000006064820152608401610591565b6001600160a01b038216610d5c5760405162461bcd60e51b815260206004820152602360248201527f45524332303a207472616e7366657220746f20746865207a65726f206164647260448201527f65737300000000000000000000000000000000000000000000000000000000006064820152608401610591565b6001600160a01b03831660009081526033602052604090205481811015610deb5760405162461bcd60e51b815260206004820152602660248201527f45524332303a207472616e7366657220616d6f756e742065786365656473206260448201527f616c616e636500000000000000000000000000000000000000000000000000006064820152608401610591565b6001600160a01b0380851660008181526033602052604080822086860390559286168082529083902080548601905591517fddf252ad1be2c89b69c2b068fc378daa952ba7f163c4a11628f55a4df523b3ef90610e4b9086815260200190565b60405180910390a3610c5e565b600061043b611397565b60fe546001600160a01b031633146104b45760405162461bcd60e51b815260206004820181905260248201527f4f776e61626c653a2063616c6c6572206973206e6f7420746865206f776e65726044820152606401610591565b6001600160a01b038216610f125760405162461bcd60e51b815260206004820152601f60248201527f45524332303a206d696e7420746f20746865207a65726f2061646472657373006044820152606401610591565b8060356000828254610f249190611b04565b90915550506001600160a01b0382166000818152603360209081526040808320805486019055518481527fddf252ad1be2c89b69c2b068fc378daa952ba7f163c4a11628f55a4df523b3ef910160405180910390a35050565b6001600160a01b038216610ff95760405162461bcd60e51b815260206004820152602160248201527f45524332303a206275726e2066726f6d20746865207a65726f2061646472657360448201527f73000000000000000000000000000000000000000000000000000000000000006064820152608401610591565b6001600160a01b038216600090815260336020526040902054818110156110885760405162461bcd60e51b815260206004820152602260248201527f45524332303a206275726e20616d6f756e7420657863656564732062616c616e60448201527f63650000000000000000000000000000000000000000000000000000000000006064820152608401610591565b6001600160a01b03831660008181526033602090815260408083208686039055603580548790039055518581529192917fddf252ad1be2c89b69c2b068fc378daa952ba7f163c4a11628f55a4df523b3ef9101610bc5565b505050565b60fe80546001600160a01b038381167fffffffffffffffffffffffff0000000000000000000000000000000000000000831681179093556040519116919082907f8be0079c531659141344cd1fd0a4f28419497f9722a3daafe3b4186f6b6457e090600090a35050565b600054610100900460ff166111ba5760405162461bcd60e51b815260206004820152602b60248201527f496e697469616c697a61626c653a20636f6e7472616374206973206e6f74206960448201526a6e697469616c697a696e6760a81b6064820152608401610591565b610491828261140b565b600054610100900460ff1661122f5760405162461bcd60e51b815260206004820152602b60248201527f496e697469616c697a61626c653a20636f6e7472616374206973206e6f74206960448201526a6e697469616c697a696e6760a81b6064820152608401610591565b61049f816040518060400160405280600181526020017f310000000000000000000000000000000000000000000000000000000000000081525061148f565b600054610100900460ff166112d95760405162461bcd60e51b815260206004820152602b60248201527f496e697469616c697a61626c653a20636f6e7472616374206973206e6f74206960448201526a6e697469616c697a696e6760a81b6064820152608401610591565b6104b4611522565b60606099805461037090611aba565b6060609a805461037090611aba565b6001600160a01b038116600090815260cb602052604090208054600181018255905b50919050565b6000610407611334610e58565b836040517f19010000000000000000000000000000000000000000000000000000000000008152600281019290925260228201526042902090565b600080600061138087878787611596565b9150915061138d8161165a565b5095945050505050565b60007f8b73c3c69bb8fe3d512ecc4cf759cc79239f7b179b0ffacaa9a75d522b39400f6113c26117bf565b6113ca611818565b60408051602081019490945283019190915260608201524660808201523060a082015260c00160405160208183030381529060405280519060200120905090565b600054610100900460ff166114765760405162461bcd60e51b815260206004820152602b60248201527f496e697469616c697a61626c653a20636f6e7472616374206973206e6f74206960448201526a6e697469616c697a696e6760a81b6064820152608401610591565b60366114828382611c88565b5060376110e08282611c88565b600054610100900460ff166114fa5760405162461bcd60e51b815260206004820152602b60248201527f496e697469616c697a61626c653a20636f6e7472616374206973206e6f74206960448201526a6e697469616c697a696e6760a81b6064820152608401610591565b60996115068382611c88565b50609a6115138282611c88565b50506000609781905560985550565b600054610100900460ff1661158d5760405162461bcd60e51b815260206004820152602b60248201527f496e697469616c697a61626c653a20636f6e7472616374206973206e6f74206960448201526a6e697469616c697a696e6760a81b6064820152608401610591565b6104b4336110e5565b6000807f7fffffffffffffffffffffffffffffff5d576e7357a4501ddfe92f46681b20a08311156115cd5750600090506003611651565b6040805160008082526020820180845289905260ff881692820192909252606081018690526080810185905260019060a0016020604051602081039080840390855afa158015611621573d6000803e3d6000fd5b5050604051601f1901519150506001600160a01b03811661164a57600060019250925050611651565b9150600090505b94509492505050565b600081600481111561166e5761166e611d47565b036116765750565b600181600481111561168a5761168a611d47565b036116d75760405162461bcd60e51b815260206004820152601860248201527f45434453413a20696e76616c6964207369676e617475726500000000000000006044820152606401610591565b60028160048111156116eb576116eb611d47565b036117385760405162461bcd60e51b815260206004820152601f60248201527f45434453413a20696e76616c6964207369676e6174757265206c656e677468006044820152606401610591565b600381600481111561174c5761174c611d47565b0361049f5760405162461bcd60e51b815260206004820152602260248201527f45434453413a20696e76616c6964207369676e6174757265202773272076616c60448201527f75650000000000000000000000000000000000000000000000000000000000006064820152608401610591565b6000806117ca6112e1565b8051909150156117e1578051602090910120919050565b60975480156117f05792915050565b7fc5d2460186f7233c927e7db2dcc703c0e500b653ca82273b7bfad8045d85a4709250505090565b6000806118236112f0565b80519091501561183a578051602090910120919050565b60985480156117f05792915050565b6000815180845260005b8181101561186f57602081850181015186830182015201611853565b506000602082860101526020601f19601f83011685010191505092915050565b6020815260006118a26020830184611849565b9392505050565b80356001600160a01b03811681146118c057600080fd5b919050565b600080604083850312156118d857600080fd5b6118e1836118a9565b946020939093013593505050565b60008060006060848603121561190457600080fd5b61190d846118a9565b925061191b602085016118a9565b929592945050506040919091013590565b60006020828403121561193e57600080fd5b5035919050565b60006020828403121561195757600080fd5b6118a2826118a9565b7fff000000000000000000000000000000000000000000000000000000000000008816815260e06020820152600061199b60e0830189611849565b82810360408401526119ad8189611849565b606084018890526001600160a01b038716608085015260a0840186905283810360c08501528451808252602080870193509091019060005b81811015611a035783518352602093840193909201916001016119e5565b50909b9a5050505050505050505050565b600080600080600080600060e0888a031215611a2f57600080fd5b611a38886118a9565b9650611a46602089016118a9565b95506040880135945060608801359350608088013560ff81168114611a6a57600080fd5b9699959850939692959460a0840135945060c09093013592915050565b60008060408385031215611a9a57600080fd5b611aa3836118a9565b9150611ab1602084016118a9565b90509250929050565b600181811c90821680611ace57607f821691505b60208210810361132157634e487b7160e01b600052602260045260246000fd5b634e487b7160e01b600052601160045260246000fd5b8082018082111561040757610407611aee565b6001815b6001841115611b5257808504811115611b3657611b36611aee565b6001841615611b4457908102905b60019390931c928002611b1b565b935093915050565b600082611b6957506001610407565b81611b7657506000610407565b8160018114611b8c5760028114611b9657611bb2565b6001915050610407565b60ff841115611ba757611ba7611aee565b50506001821b610407565b5060208310610133831016604e8410600b8410161715611bd5575081810a610407565b611be26000198484611b17565b8060001904821115611bf657611bf6611aee565b029392505050565b60006118a260ff841683611b5a565b808202811582820484141761040757610407611aee565b634e487b7160e01b600052604160045260246000fd5b601f8211156110e057806000526020600020601f840160051c81016020851015611c615750805b601f840160051c820191505b81811015611c815760008155600101611c6d565b5050505050565b815167ffffffffffffffff811115611ca257611ca2611c24565b611cb681611cb08454611aba565b84611c3a565b6020601f821160018114611cea5760008315611cd25750848201515b600019600385901b1c1916600184901b178455611c81565b600084815260208120601f198516915b82811015611d1a5787850151825560209485019460019092019101611cfa565b5084821015611d385786840151600019600387901b60f8161c191681555b50505050600190811b01905550565b634e487b7160e01b600052602160045260246000fdfea2646970667358221220a2afdb841ecf165f8dbd4549d8f237b3d139707e7931fdb42b1b08f5a6821e0464736f6c634300081c0033",
  "linkReferences": {},
  "deployedLinkReferences": {}
}