{
  "_format": "hh-sol-artifact-1",
  "contractName": "TestToken",
  "sourceName": "contracts/TestToken.sol",
  "abi": [
    {
      "inputs": [],
      "stateMutability": "nonpayable",
      "type": "constructor"
    },
    {
      "inputs": [],
      "name": "ECDSAInvalidSignature",
      "type": "error"
    },
    {
      "inputs": [
        {
          "internalType": "uint256",
          "name": "length",
          "type": "uint256"
        }
      ],
      "name": "ECDSAInvalidSignatureLength",
      "type": "error"
    },
    {
      "inputs": [
        {
          "internalType": "bytes32",
          "name": "s",
          "type": "bytes32"
        }
      ],
      "name": "ECDSAInvalidSignatureS",
      "type": "error"
    },
    {
      "inputs": [
        {
          "internalType": "address",
          "name": "spender",
          "type": "address"
        },
        {
          "internalType": "uint256",
          "name": "allowance",
          "type": "uint256"
        },
        {
          "internalType": "uint256",
          "name": "needed",
          "type": "uint256"
        }
      ],
      "name": "ERC20InsufficientAllowance",
      "type": "error"
    },
    {
      "inputs": [
        {
          "internalType": "address",
          "name": "sender",
          "type": "address"
        },
        {
          "internalType": "uint256",
          "name": "balance",
          "type": "uint256"
        },
        {
          "internalType": "uint256",
          "name": "needed",
          "type": "uint256"
        }
      ],
      "name": "ERC20InsufficientBalance",
      "type": "error"
    },
    {
      "inputs": [
        {
          "internalType": "address",
          "name": "approver",
          "type": "address"
        }
      ],
      "name": "ERC20InvalidApprover",
      "type": "error"
    },
    {
      "inputs": [
        {
          "internalType": "address",
          "name": "receiver",
          "type": "address"
        }
      ],
      "name": "ERC20InvalidReceiver",
      "type": "error"
    },
    {
      "inputs": [
        {
          "internalType": "address",
          "name": "sender",
          "type": "address"
        }
      ],
      "name": "ERC20InvalidSender",
      "type": "error"
    },
    {
      "inputs": [
        {
          "internalType": "address",
          "name": "spender",
          "type": "address"
        }
      ],
      "name": "ERC20InvalidSpender",
      "type": "error"
    },
    {
      "inputs": [
        {
          "internalType": "uint256",
          "name": "deadline",
          "type": "uint256"
        }
      ],
      "name": "ERC2612ExpiredSignature",
      "type": "error"
    },
    {
      "inputs": [
        {
          "internalType": "address",
          "name": "signer",
          "type": "address"
        },
        {
          "internalType": "address",
          "name": "owner",
          "type": "address"
        }
      ],
      "name": "ERC2612InvalidSigner",
      "type": "error"
    },
    {
      "inputs": [
        {
          "internalType": "address",
          "name": "account",
          "type": "address"
        },
        {
          "internalType": "uint256",
          "name": "currentNonce",
          "type": "uint256"
        }
      ],
      "name": "InvalidAccountNonce",
      "type": "error"
    },
    {
      "inputs": [],
      "name": "InvalidInitialization",
      "type": "error"
    },
    {
      "inputs": [],
      "name": "NotInitializing",
      "type": "error"
    },
    {
      "inputs": [
        {
          "internalType": "address",
          "name": "owner",
          "type": "address"
        }
      ],
      "name": "OwnableInvalidOwner",
      "type": "error"
    },
    {
      "inputs": [
        {
          "internalType": "address",
          "name": "account",
          "type": "address"
        }
      ],
      "name": "OwnableUnauthorizedAccount",
      "type": "error"
    },
    {
      "anonymous": false,
      "inputs": [
        {
          "indexed": true,
          "internalType": "address",
          "name": "owner",
          "type": "address"
        },
        {
          "indexed": true,
          "internalType": "address",
          "name": "spender",
          "type": "address"
        },
        {
          "indexed": false,
          "internalType": "uint256",
          "name": "value",
          "type": "uint256"
        }
      ],
      "name": "Approval",
      "type": "event"
    },
    {
      "anonymous": false,
      "inputs": [],
      "name": "EIP712DomainChanged",
      "type": "event"
    },
    {
      "anonymous": false,
      "inputs": [
        {
          "indexed": false,
          "internalType": "uint64",
          "name": "version",
          "type": "uint64"
        }
      ],
      "name": "Initialized",
      "type": "event"
    },
    {
      "anonymous": false,
      "inputs": [
        {
          "indexed": true,
          "internalType": "address",
          "name": "previousOwner",
          "type": "address"
        },
        {
          "indexed": true,
          "internalType": "address",
          "name": "newOwner",
          "type": "address"
        }
      ],
      "name": "OwnershipTransferred",
      "type": "event"
    },
    {
      "anonymous": false,
      "inputs": [
        {
          "indexed": true,
          "internalType": "address",
          "name": "from",
          "type": "address"
        },
        {
          "indexed": true,
          "internalType": "address",
          "name": "to",
          "type": "address"
        },
        {
          "indexed": false,
          "internalType": "uint256",
          "name": "value",
          "type": "uint256"
        }
      ],
      "name": "Transfer",
      "type": "event"
    },
    {
      "inputs": [],
      "name": "DOMAIN_SEPARATOR",
      "outputs": [
        {
          "internalType": "bytes32",
          "name": "",
          "type": "bytes32"
        }
      ],
      "stateMutability": "view",
      "type": "function"
    },
    {
      "inputs": [
        {
          "internalType": "address",
          "name": "owner",
          "type": "address"
        },
        {
          "internalType": "address",
          "name": "spender",
          "type": "address"
        }
      ],
      "name": "allowance",
      "outputs": [
        {
          "internalType": "uint256",
          "name": "",
          "type": "uint256"
        }
      ],
      "stateMutability": "view",
      "type": "function"
    },
    {
      "inputs": [
        {
          "internalType": "address",
          "name": "spender",
          "type": "address"
        },
        {
          "internalType": "uint256",
          "name": "value",
          "type": "uint256"
        }
      ],
      "name": "approve",
      "outputs": [
        {
          "internalType": "bool",
          "name": "",
          "type": "bool"
        }
      ],
      "stateMutability": "nonpayable",
      "type": "function"
    },
    {
      "inputs": [
        {
          "internalType": "address",
          "name": "account",
          "type": "address"
        }
      ],
      "name": "balanceOf",
      "outputs": [
        {
          "internalType": "uint256",
          "name": "",
          "type": "uint256"
        }
      ],
      "stateMutability": "view",
      "type": "function"
    },
    {
      "inputs": [
        {
          "internalType": "uint256",
          "name": "value",
          "type": "uint256"
        }
      ],
      "name": "burn",
      "outputs": [],
      "stateMutability": "nonpayable",
      "type": "function"
    },
    {
      "inputs": [
        {
          "internalType": "address",
          "name": "account",
          "type": "address"
        },
        {
          "internalType": "uint256",
          "name": "value",
          "type": "uint256"
        }
      ],
      "name": "burnFrom",
      "outputs": [],
      "stateMutability": "nonpayable",
      "type": "function"
    },
    {
      "inputs": [],
      "name": "decimals",
      "outputs": [
        {
          "internalType": "uint8",
          "name": "",
          "type": "uint8"
        }
      ],
      "stateMutability": "view",
      "type": "function"
    },
    {
      "inputs": [],
      "name": "eip712Domain",
      "outputs": [
        {
          "internalType": "bytes1",
          "name": "fields",
          "type": "bytes1"
        },
        {
          "internalType": "string",
          "name": "name",
          "type": "string"
        },
        {
          "internalType": "string",
          "name": "version",
          "type": "string"
        },
        {
          "internalType": "uint256",
          "name": "chainId",
          "type": "uint256"
        },
        {
          "internalType": "address",
          "name": "verifyingContract",
          "type": "address"
        },
        {
          "internalType": "bytes32",
          "name": "salt",
          "type": "bytes32"
        },
        {
          "internalType": "uint256[]",
          "name": "extensions",
          "type": "uint256[]"
        }
      ],
      "stateMutability": "view",
      "type": "function"
    },
    {
      "inputs": [],
      "name": "initialize",
      "outputs": [],
      "stateMutability": "nonpayable",
      "type": "function"
    },
    {
      "inputs": [
        {
          "internalType": "address",
          "name": "to",
          "type": "address"
        },
        {
          "internalType": "uint256",
          "name": "amount",
          "type": "uint256"
        }
      ],
      "name": "mint",
      "outputs": [],
      "stateMutability": "nonpayable",
      "type": "function"
    },
    {
      "inputs": [],
      "name": "name",
      "outputs": [
        {
          "internalType": "string",
          "name": "",
          "type": "string"
        }
      ],
      "stateMutability": "view",
      "type": "function"
    },
    {
      "inputs": [
        {
          "internalType": "address",
          "name": "owner",
          "type": "address"
        }
      ],
      "name": "nonces",
      "outputs": [
        {
          "internalType": "uint256",
          "name": "",
          "type": "uint256"
        }
      ],
      "stateMutability": "view",
      "type": "function"
    },
    {
      "inputs": [],
      "name": "owner",
      "outputs": [
        {
          "internalType": "address",
          "name": "",
          "type": "address"
        }
      ],
      "stateMutability": "view",
      "type": "function"
    },
    {
      "inputs": [
        {
          "internalType": "address",
          "name": "owner",
          "type": "address"
        },
        {
          "internalType": "address",
          "name": "spender",
          "type": "address"
        },
        {
          "internalType": "uint256",
          "name": "value",
          "type": "uint256"
        },
        {
          "internalType": "uint256",
          "name": "deadline",
          "type": "uint256"
        },
        {
          "internalType": "uint8",
          "name": "v",
          "type": "uint8"
        },
        {
          "internalType": "bytes32",
          "name": "r",
          "type": "bytes32"
        },
        {
          "internalType": "bytes32",
          "name": "s",
          "type": "bytes32"
        }
      ],
      "name": "permit",
      "outputs": [],
      "stateMutability": "nonpayable",
      "type": "function"
    },
    {
      "inputs": [],
      "name": "renounceOwnership",
      "outputs": [],
      "stateMutability": "nonpayable",
      "type": "function"
    },
    {
      "inputs": [],
      "name": "symbol",
      "outputs": [
        {
          "internalType": "string",
          "name": "",
          "type": "string"
        }
      ],
      "stateMutability": "view",
      "type": "function"
    },
    {
      "inputs": [],
      "name": "totalSupply",
      "outputs": [
        {
          "internalType": "uint256",
          "name": "",
          "type": "uint256"
        }
      ],
      "stateMutability": "view",
      "type": "function"
    },
    {
      "inputs": [
        {
          "internalType": "address",
          "name": "to",
          "type": "address"
        },
        {
          "internalType": "uint256",
          "name": "value",
          "type": "uint256"
        }
      ],
      "name": "transfer",
      "outputs": [
        {
          "internalType": "bool",
          "name": "",
          "type": "bool"
        }
      ],
      "stateMutability": "nonpayable",
      "type": "function"
    },
    {
      "inputs": [
        {
          "internalType": "address",
          "name": "from",
          "type": "address"
        },
        {
          "internalType": "address",
          "name": "to",
          "type": "address"
        },
        {
          "internalType": "uint256",
          "name": "value",
          "type": "uint256"
        }
      ],
      "name": "transferFrom",
      "outputs": [
        {
          "internalType": "bool",
          "name": "",
          "type": "bool"
        }
      ],
      "stateMutability": "nonpayable",
      "type": "function"
    },
    {
      "inputs": [
        {
          "internalType": "address",
          "name": "newOwner",
          "type": "address"
        }
      ],
      "name": "transferOwnership",
      "outputs": [],
      "stateMutability": "nonpayable",
      "type": "function"
    }
  ],
  "bytecode": "0x6080604052348015600f57600080fd5b506016601a565b60ca565b7ff0c57e16840df040f15088dc2f81fe391c3923bec73e23a9662efc9c229c6a00805468010000000000000000900460ff161560695760405163f92ee8a960e01b815260040160405180910390fd5b80546001600160401b039081161460c75780546001600160401b0319166001600160401b0390811782556040519081527fc7f505b2f371ae2175ee4913f4499e1f2633a7b5936321eed1cdaeb6115181d29060200160405180910390a15b50565b611b3f806100d96000396000f3fe608060405234801561001057600080fd5b506004361061016c5760003560e01c806379cc6790116100cd57806395d89b4111610081578063d505accf11610066578063d505accf146102ee578063dd62ed3e14610301578063f2fde38b1461035957600080fd5b806395d89b41146102d3578063a9059cbb146102db57600080fd5b80638129fc1c116100b25780638129fc1c1461027657806384b0196e1461027e5780638da5cb5b1461029957600080fd5b806379cc6790146102505780637ecebe001461026357600080fd5b80633644e5151161012457806342966c681161010957806342966c681461022257806370a0823114610235578063715018a61461024857600080fd5b80633644e5151461020557806340c10f191461020d57600080fd5b806318160ddd1161015557806318160ddd146101b257806323b872dd146101e3578063313ce567146101f657600080fd5b806306fdde0314610171578063095ea7b31461018f575b600080fd5b61017961036c565b604051610186919061163c565b60405180910390f35b6101a261019d366004611672565b610427565b6040519015158152602001610186565b7f52c63247e1f47db19d5ce0460030c497f067ca4cebf71ba98eeadabe20bace02545b604051908152602001610186565b6101a26101f136600461169c565b610441565b60405160128152602001610186565b6101d5610465565b61022061021b366004611672565b610474565b005b6102206102303660046116d9565b61048a565b6101d56102433660046116f2565b610497565b6102206104dc565b61022061025e366004611672565b6104f0565b6101d56102713660046116f2565b610505565b610220610510565b610286610723565b604051610186979695949392919061170d565b7f9016d09d72d40fdae2fd8ceac6b6234c7706214fd39c1cd1e609a0528c199300546040516001600160a01b039091168152602001610186565b610179610824565b6101a26102e9366004611672565b610875565b6102206102fc3660046117c1565b610883565b6101d561030f366004611834565b6001600160a01b0391821660009081527f52c63247e1f47db19d5ce0460030c497f067ca4cebf71ba98eeadabe20bace016020908152604080832093909416825291909152205490565b6102206103673660046116f2565b610a0e565b606060007f52c63247e1f47db19d5ce0460030c497f067ca4cebf71ba98eeadabe20bace005b90508060030180546103a390611867565b80601f01602080910402602001604051908101604052809291908181526020018280546103cf90611867565b801561041c5780601f106103f15761010080835404028352916020019161041c565b820191906000526020600020905b8154815290600101906020018083116103ff57829003601f168201915b505050505091505090565b600033610435818585610a62565b60019150505b92915050565b60003361044f858285610a74565b61045a858585610b2b565b506001949350505050565b600061046f610bbc565b905090565b61047c610bc6565b6104868282610c3a565b5050565b6104943382610c89565b50565b6000807f52c63247e1f47db19d5ce0460030c497f067ca4cebf71ba98eeadabe20bace005b6001600160a01b0390931660009081526020939093525050604090205490565b6104e4610bc6565b6104ee6000610cd8565b565b6104fb823383610a74565b6104868282610c89565b600061043b82610d61565b600061051a610d8a565b805490915060ff68010000000000000000820416159067ffffffffffffffff166000811580156105475750825b905060008267ffffffffffffffff1660011480156105645750303b155b905081158015610572575080155b156105a9576040517ff92ee8a900000000000000000000000000000000000000000000000000000000815260040160405180910390fd5b84547fffffffffffffffffffffffffffffffffffffffffffffffff000000000000000016600117855583156105f457845468ff00000000000000001916680100000000000000001785555b6106686040518060400160405280600a81526020017f5465737420546f6b656e000000000000000000000000000000000000000000008152506040518060400160405280600481526020017f5445535400000000000000000000000000000000000000000000000000000000815250610db3565b6106a66040518060400160405280600a81526020017f546573745f746f6b656e00000000000000000000000000000000000000000000815250610dc5565b6106af33610e0c565b6106d1336106bf6012600a61199e565b6106cc90620186a06119ad565b610c3a565b831561071c57845468ff000000000000000019168555604051600181527fc7f505b2f371ae2175ee4913f4499e1f2633a7b5936321eed1cdaeb6115181d29060200160405180910390a15b5050505050565b600060608082808083817fa16a46d94261c7517cc8ff89f61c0ce93598e3c849801011dee649a6a557d100805490915015801561076257506001810154155b6107cd576040517f08c379a000000000000000000000000000000000000000000000000000000000815260206004820152601560248201527f4549503731323a20556e696e697469616c697a6564000000000000000000000060448201526064015b60405180910390fd5b6107d5610e1d565b6107dd610e6e565b604080516000808252602082019092527f0f000000000000000000000000000000000000000000000000000000000000009c939b5091995046985030975095509350915050565b7f52c63247e1f47db19d5ce0460030c497f067ca4cebf71ba98eeadabe20bace0480546060917f52c63247e1f47db19d5ce0460030c497f067ca4cebf71ba98eeadabe20bace00916103a390611867565b600033610435818585610b2b565b834211156108c0576040517f62791302000000000000000000000000000000000000000000000000000000008152600481018590526024016107c4565b60007f6e71edae12b1b97f4d1f60370fef10105fa2faae0126114a169c64845d6126c988888861092c8c6001600160a01b031660009081527f5ab42ced628888259c08ac98db1eb0cf702fc1501344311d8b100cd1bfe4bb006020526040902080546001810190915590565b6040805160208101969096526001600160a01b0394851690860152929091166060840152608083015260a082015260c0810186905260e001604051602081830303815290604052805190602001209050600061098782610e98565b9050600061099782878787610ee0565b9050896001600160a01b0316816001600160a01b0316146109f7576040517f4b800e460000000000000000000000000000000000000000000000000000000081526001600160a01b0380831660048301528b1660248201526044016107c4565b610a028a8a8a610a62565b50505050505050505050565b610a16610bc6565b6001600160a01b038116610a59576040517f1e4fbdf7000000000000000000000000000000000000000000000000000000008152600060048201526024016107c4565b61049481610cd8565b610a6f8383836001610f0e565b505050565b6001600160a01b0383811660009081527f52c63247e1f47db19d5ce0460030c497f067ca4cebf71ba98eeadabe20bace016020908152604080832093861683529290522054600019811015610b255781811015610b16576040517ffb8f41b20000000000000000000000000000000000000000000000000000000081526001600160a01b038416600482015260248101829052604481018390526064016107c4565b610b2584848484036000610f0e565b50505050565b6001600160a01b038316610b6e576040517f96c6fd1e000000000000000000000000000000000000000000000000000000008152600060048201526024016107c4565b6001600160a01b038216610bb1576040517fec442f05000000000000000000000000000000000000000000000000000000008152600060048201526024016107c4565b610a6f838383611039565b600061046f6111a2565b33610bf87f9016d09d72d40fdae2fd8ceac6b6234c7706214fd39c1cd1e609a0528c199300546001600160a01b031690565b6001600160a01b0316146104ee576040517f118cdaa70000000000000000000000000000000000000000000000000000000081523360048201526024016107c4565b6001600160a01b038216610c7d576040517fec442f05000000000000000000000000000000000000000000000000000000008152600060048201526024016107c4565b61048660008383611039565b6001600160a01b038216610ccc576040517f96c6fd1e000000000000000000000000000000000000000000000000000000008152600060048201526024016107c4565b61048682600083611039565b7f9016d09d72d40fdae2fd8ceac6b6234c7706214fd39c1cd1e609a0528c19930080547fffffffffffffffffffffffff000000000000000000000000000000000000000081166001600160a01b03848116918217845560405192169182907f8be0079c531659141344cd1fd0a4f28419497f9722a3daafe3b4186f6b6457e090600090a3505050565b6000807f5ab42ced628888259c08ac98db1eb0cf702fc1501344311d8b100cd1bfe4bb006104bc565b6000807ff0c57e16840df040f15088dc2f81fe391c3923bec73e23a9662efc9c229c6a0061043b565b610dbb611216565b6104868282611254565b610dcd611216565b610494816040518060400160405280600181526020017f31000000000000000000000000000000000000000000000000000000000000008152506112b7565b610e14611216565b6104948161132a565b7fa16a46d94261c7517cc8ff89f61c0ce93598e3c849801011dee649a6a557d10280546060917fa16a46d94261c7517cc8ff89f61c0ce93598e3c849801011dee649a6a557d100916103a390611867565b606060007fa16a46d94261c7517cc8ff89f61c0ce93598e3c849801011dee649a6a557d100610392565b600061043b610ea5610bbc565b836040517f19010000000000000000000000000000000000000000000000000000000000008152600281019290925260228201526042902090565b600080600080610ef288888888611332565b925092509250610f028282611401565b50909695505050505050565b7f52c63247e1f47db19d5ce0460030c497f067ca4cebf71ba98eeadabe20bace006001600160a01b038516610f72576040517fe602df05000000000000000000000000000000000000000000000000000000008152600060048201526024016107c4565b6001600160a01b038416610fb5576040517f94280d62000000000000000000000000000000000000000000000000000000008152600060048201526024016107c4565b6001600160a01b0380861660009081526001830160209081526040808320938816835292905220839055811561071c57836001600160a01b0316856001600160a01b03167f8c5be1e5ebec7d5bd14f71427d1e84f3dd0314c0f7b2291e5b200ac8c7c3b9258560405161102a91815260200190565b60405180910390a35050505050565b7f52c63247e1f47db19d5ce0460030c497f067ca4cebf71ba98eeadabe20bace006001600160a01b038416611087578181600201600082825461107c91906119da565b909155506111129050565b6001600160a01b038416600090815260208290526040902054828110156110f3576040517fe450d38c0000000000000000000000000000000000000000000000000000000081526001600160a01b038616600482015260248101829052604481018490526064016107c4565b6001600160a01b03851660009081526020839052604090209083900390555b6001600160a01b03831661113057600281018054839003905561114f565b6001600160a01b03831660009081526020829052604090208054830190555b826001600160a01b0316846001600160a01b03167fddf252ad1be2c89b69c2b068fc378daa952ba7f163c4a11628f55a4df523b3ef8460405161119491815260200190565b60405180910390a350505050565b60007f8b73c3c69bb8fe3d512ecc4cf759cc79239f7b179b0ffacaa9a75d522b39400f6111cd611505565b6111d5611581565b60408051602081019490945283019190915260608201524660808201523060a082015260c00160405160208183030381529060405280519060200120905090565b61121e6115d7565b6104ee576040517fd7e6bcf800000000000000000000000000000000000000000000000000000000815260040160405180910390fd5b61125c611216565b7f52c63247e1f47db19d5ce0460030c497f067ca4cebf71ba98eeadabe20bace007f52c63247e1f47db19d5ce0460030c497f067ca4cebf71ba98eeadabe20bace036112a88482611a34565b5060048101610b258382611a34565b6112bf611216565b7fa16a46d94261c7517cc8ff89f61c0ce93598e3c849801011dee649a6a557d1007fa16a46d94261c7517cc8ff89f61c0ce93598e3c849801011dee649a6a557d10261130b8482611a34565b506003810161131a8382611a34565b5060008082556001909101555050565b610a16611216565b600080807f7fffffffffffffffffffffffffffffff5d576e7357a4501ddfe92f46681b20a084111561136d57506000915060039050826113f7565b604080516000808252602082018084528a905260ff891692820192909252606081018790526080810186905260019060a0016020604051602081039080840390855afa1580156113c1573d6000803e3d6000fd5b5050604051601f1901519150506001600160a01b0381166113ed575060009250600191508290506113f7565b9250600091508190505b9450945094915050565b600082600381111561141557611415611af3565b0361141e575050565b600182600381111561143257611432611af3565b03611469576040517ff645eedf00000000000000000000000000000000000000000000000000000000815260040160405180910390fd5b600282600381111561147d5761147d611af3565b036114b7576040517ffce698f7000000000000000000000000000000000000000000000000000000008152600481018290526024016107c4565b60038260038111156114cb576114cb611af3565b03610486576040517fd78bce0c000000000000000000000000000000000000000000000000000000008152600481018290526024016107c4565b60007fa16a46d94261c7517cc8ff89f61c0ce93598e3c849801011dee649a6a557d10081611531610e1d565b80519091501561154957805160209091012092915050565b81548015611558579392505050565b7fc5d2460186f7233c927e7db2dcc703c0e500b653ca82273b7bfad8045d85a470935050505090565b60007fa16a46d94261c7517cc8ff89f61c0ce93598e3c849801011dee649a6a557d100816115ad610e6e565b8051909150156115c557805160209091012092915050565b60018201548015611558579392505050565b60006115e1610d8a565b5468010000000000000000900460ff16919050565b6000815180845260005b8181101561161c57602081850181015186830182015201611600565b506000602082860101526020601f19601f83011685010191505092915050565b60208152600061164f60208301846115f6565b9392505050565b80356001600160a01b038116811461166d57600080fd5b919050565b6000806040838503121561168557600080fd5b61168e83611656565b946020939093013593505050565b6000806000606084860312156116b157600080fd5b6116ba84611656565b92506116c860208501611656565b929592945050506040919091013590565b6000602082840312156116eb57600080fd5b5035919050565b60006020828403121561170457600080fd5b61164f82611656565b7fff000000000000000000000000000000000000000000000000000000000000008816815260e06020820152600061174860e08301896115f6565b828103604084015261175a81896115f6565b606084018890526001600160a01b038716608085015260a0840186905283810360c08501528451808252602080870193509091019060005b818110156117b0578351835260209384019390920191600101611792565b50909b9a5050505050505050505050565b600080600080600080600060e0888a0312156117dc57600080fd5b6117e588611656565b96506117f360208901611656565b95506040880135945060608801359350608088013560ff8116811461181757600080fd5b9699959850939692959460a0840135945060c09093013592915050565b6000806040838503121561184757600080fd5b61185083611656565b915061185e60208401611656565b90509250929050565b600181811c9082168061187b57607f821691505b60208210810361189b57634e487b7160e01b600052602260045260246000fd5b50919050565b634e487b7160e01b600052601160045260246000fd5b6001815b60018411156118f2578085048111156118d6576118d66118a1565b60018416156118e457908102905b60019390931c9280026118bb565b935093915050565b6000826119095750600161043b565b816119165750600061043b565b816001811461192c576002811461193657611952565b600191505061043b565b60ff841115611947576119476118a1565b50506001821b61043b565b5060208310610133831016604e8410600b8410161715611975575081810a61043b565b61198260001984846118b7565b8060001904821115611996576119966118a1565b029392505050565b600061164f60ff8416836118fa565b808202811582820484141761043b5761043b6118a1565b634e487b7160e01b600052604160045260246000fd5b8082018082111561043b5761043b6118a1565b601f821115610a6f57806000526020600020601f840160051c81016020851015611a145750805b601f840160051c820191505b8181101561071c5760008155600101611a20565b815167ffffffffffffffff811115611a4e57611a4e6119c4565b611a6281611a5c8454611867565b846119ed565b6020601f821160018114611a965760008315611a7e5750848201515b600019600385901b1c1916600184901b17845561071c565b600084815260208120601f198516915b82811015611ac65787850151825560209485019460019092019101611aa6565b5084821015611ae45786840151600019600387901b60f8161c191681555b50505050600190811b01905550565b634e487b7160e01b600052602160045260246000fdfea2646970667358221220b2bf8496e168058714475c66928ea14833342489e4b7c5f0bc955eb559aa25cd64736f6c634300081c0033",
  "linkReferences": {},
  "deployedLinkReferences": {}
}