{
  "_format": "hh-sol-artifact-1",
  "contractName": "VestingXINTX",
  "sourceName": "contracts/vestings/VestingXINTX.sol",
  "abi": [
    {
      "inputs": [],
      "stateMutability": "nonpayable",
      "type": "constructor"
    },
    {
      "anonymous": false,
      "inputs": [
        {
          "indexed": false,
          "internalType": "address",
          "name": "changedBy",
          "type": "address"
        },
        {
          "indexed": true,
          "internalType": "address",
          "name": "_oldAddress",
          "type": "address"
        },
        {
          "indexed": true,
          "internalType": "address",
          "name": "_newAddress",
          "type": "address"
        },
        {
          "indexed": false,
          "internalType": "uint256",
          "name": "amountClaimable",
          "type": "uint256"
        },
        {
          "indexed": false,
          "internalType": "uint256",
          "name": "amountClaimed",
          "type": "uint256"
        }
      ],
      "name": "AllocationChanged",
      "type": "event"
    },
    {
      "anonymous": false,
      "inputs": [
        {
          "indexed": true,
          "internalType": "address",
          "name": "user",
          "type": "address"
        },
        {
          "indexed": false,
          "internalType": "uint256",
          "name": "amount",
          "type": "uint256"
        },
        {
          "indexed": false,
          "internalType": "uint256",
          "name": "_tokenId",
          "type": "uint256"
        }
      ],
      "name": "Claimed",
      "type": "event"
    },
    {
      "anonymous": false,
      "inputs": [
        {
          "indexed": false,
          "internalType": "uint8",
          "name": "version",
          "type": "uint8"
        }
      ],
      "name": "Initialized",
      "type": "event"
    },
    {
      "anonymous": false,
      "inputs": [
        {
          "indexed": true,
          "internalType": "address",
          "name": "previousOwner",
          "type": "address"
        },
        {
          "indexed": true,
          "internalType": "address",
          "name": "newOwner",
          "type": "address"
        }
      ],
      "name": "OwnershipTransferStarted",
      "type": "event"
    },
    {
      "anonymous": false,
      "inputs": [
        {
          "indexed": true,
          "internalType": "address",
          "name": "previousOwner",
          "type": "address"
        },
        {
          "indexed": true,
          "internalType": "address",
          "name": "newOwner",
          "type": "address"
        }
      ],
      "name": "OwnershipTransferred",
      "type": "event"
    },
    {
      "anonymous": false,
      "inputs": [
        {
          "indexed": false,
          "internalType": "address",
          "name": "operator",
          "type": "address"
        },
        {
          "indexed": false,
          "internalType": "address[]",
          "name": "users",
          "type": "address[]"
        },
        {
          "indexed": false,
          "internalType": "uint256[]",
          "name": "amount",
          "type": "uint256[]"
        }
      ],
      "name": "RemoveSeed",
      "type": "event"
    },
    {
      "anonymous": false,
      "inputs": [
        {
          "indexed": false,
          "internalType": "address",
          "name": "operator",
          "type": "address"
        },
        {
          "indexed": false,
          "internalType": "address[]",
          "name": "users",
          "type": "address[]"
        },
        {
          "indexed": false,
          "internalType": "uint256[]",
          "name": "amount",
          "type": "uint256[]"
        },
        {
          "indexed": false,
          "internalType": "uint256",
          "name": "totalAmount",
          "type": "uint256"
        }
      ],
      "name": "Seeded",
      "type": "event"
    },
    {
      "inputs": [],
      "name": "NO_CLAIM_DURATION",
      "outputs": [
        {
          "internalType": "uint256",
          "name": "",
          "type": "uint256"
        }
      ],
      "stateMutability": "view",
      "type": "function"
    },
    {
      "inputs": [],
      "name": "PRECISION",
      "outputs": [
        {
          "internalType": "uint256",
          "name": "",
          "type": "uint256"
        }
      ],
      "stateMutability": "view",
      "type": "function"
    },
    {
      "inputs": [],
      "name": "START_VESTING",
      "outputs": [
        {
          "internalType": "uint256",
          "name": "",
          "type": "uint256"
        }
      ],
      "stateMutability": "view",
      "type": "function"
    },
    {
      "inputs": [],
      "name": "VESTING_DURATION",
      "outputs": [
        {
          "internalType": "uint256",
          "name": "",
          "type": "uint256"
        }
      ],
      "stateMutability": "view",
      "type": "function"
    },
    {
      "inputs": [],
      "name": "acceptOwnership",
      "outputs": [],
      "stateMutability": "nonpayable",
      "type": "function"
    },
    {
      "inputs": [
        {
          "internalType": "address",
          "name": "_oldAddress",
          "type": "address"
        },
        {
          "internalType": "address",
          "name": "_newAddress",
          "type": "address"
        }
      ],
      "name": "changeReceiver",
      "outputs": [],
      "stateMutability": "nonpayable",
      "type": "function"
    },
    {
      "inputs": [],
      "name": "claim",
      "outputs": [],
      "stateMutability": "nonpayable",
      "type": "function"
    },
    {
      "inputs": [
        {
          "internalType": "address",
          "name": "",
          "type": "address"
        }
      ],
      "name": "claimableAmount",
      "outputs": [
        {
          "internalType": "uint256",
          "name": "",
          "type": "uint256"
        }
      ],
      "stateMutability": "view",
      "type": "function"
    },
    {
      "inputs": [
        {
          "internalType": "address",
          "name": "_user",
          "type": "address"
        }
      ],
      "name": "claimableNow",
      "outputs": [
        {
          "internalType": "uint256",
          "name": "amountToReceive",
          "type": "uint256"
        }
      ],
      "stateMutability": "view",
      "type": "function"
    },
    {
      "inputs": [
        {
          "internalType": "address",
          "name": "_user",
          "type": "address"
        }
      ],
      "name": "claimableWithoutCliff",
      "outputs": [
        {
          "internalType": "uint256",
          "name": "amountToReceive",
          "type": "uint256"
        }
      ],
      "stateMutability": "view",
      "type": "function"
    },
    {
      "inputs": [
        {
          "internalType": "address",
          "name": "",
          "type": "address"
        }
      ],
      "name": "claimedAmount",
      "outputs": [
        {
          "internalType": "uint256",
          "name": "",
          "type": "uint256"
        }
      ],
      "stateMutability": "view",
      "type": "function"
    },
    {
      "inputs": [
        {
          "internalType": "address",
          "name": "_intx",
          "type": "address"
        },
        {
          "internalType": "address",
          "name": "_xIntx",
          "type": "address"
        },
        {
          "internalType": "uint256",
          "name": "_startVesting",
          "type": "uint256"
        },
        {
          "internalType": "uint256",
          "name": "_vestingDuration",
          "type": "uint256"
        },
        {
          "internalType": "uint256",
          "name": "_noClaimDuration",
          "type": "uint256"
        }
      ],
      "name": "initialize",
      "outputs": [],
      "stateMutability": "nonpayable",
      "type": "function"
    },
    {
      "inputs": [],
      "name": "intx",
      "outputs": [
        {
          "internalType": "contract IERC20",
          "name": "",
          "type": "address"
        }
      ],
      "stateMutability": "view",
      "type": "function"
    },
    {
      "inputs": [],
      "name": "owner",
      "outputs": [
        {
          "internalType": "address",
          "name": "",
          "type": "address"
        }
      ],
      "stateMutability": "view",
      "type": "function"
    },
    {
      "inputs": [],
      "name": "pendingOwner",
      "outputs": [
        {
          "internalType": "address",
          "name": "",
          "type": "address"
        }
      ],
      "stateMutability": "view",
      "type": "function"
    },
    {
      "inputs": [
        {
          "internalType": "address[]",
          "name": "_receivers",
          "type": "address[]"
        },
        {
          "internalType": "uint256[]",
          "name": "_amounts",
          "type": "uint256[]"
        }
      ],
      "name": "removeAllocations",
      "outputs": [],
      "stateMutability": "nonpayable",
      "type": "function"
    },
    {
      "inputs": [],
      "name": "renounceOwnership",
      "outputs": [],
      "stateMutability": "nonpayable",
      "type": "function"
    },
    {
      "inputs": [
        {
          "internalType": "address[]",
          "name": "_receivers",
          "type": "address[]"
        },
        {
          "internalType": "uint256[]",
          "name": "_amounts",
          "type": "uint256[]"
        }
      ],
      "name": "setAllocations",
      "outputs": [],
      "stateMutability": "nonpayable",
      "type": "function"
    },
    {
      "inputs": [
        {
          "internalType": "address",
          "name": "newOwner",
          "type": "address"
        }
      ],
      "name": "transferOwnership",
      "outputs": [],
      "stateMutability": "nonpayable",
      "type": "function"
    },
    {
      "inputs": [],
      "name": "xIntx",
      "outputs": [
        {
          "internalType": "contract IStakedINTX",
          "name": "",
          "type": "address"
        }
      ],
      "stateMutability": "view",
      "type": "function"
    }
  ],
  "bytecode": "0x608060405234801561001057600080fd5b5061001961001e565b6100dd565b600054610100900460ff161561008a5760405162461bcd60e51b815260206004820152602760248201527f496e697469616c697a61626c653a20636f6e747261637420697320696e697469604482015266616c697a696e6760c81b606482015260840160405180910390fd5b60005460ff908116146100db576000805460ff191660ff9081179091556040519081527f7f26b83ff96e1f2b6a682f133852f6798a09c465da95921460cefb38474024989060200160405180910390a15b565b611a90806100ec6000396000f3fe608060405234801561001057600080fd5b506004361061016c5760003560e01c806389885049116100cd578063aaf5eb6811610081578063de6aa92b11610066578063de6aa92b146102b1578063e30c3978146102c4578063f2fde38b146102d557600080fd5b8063aaf5eb6814610294578063d13f90b41461029e57600080fd5b80639a78ea4a116100b25780639a78ea4a14610265578063a37c1c5a14610278578063aa264c9b1461028b57600080fd5b806389885049146102345780638da5cb5b1461025457600080fd5b80634cfc4d30116101245780635124245011610109578063512424501461021b578063715018a61461022457806379ba50971461022c57600080fd5b80634cfc4d301461020a5780634e71d92d1461021357600080fd5b806327a7af891161015557806327a7af89146101b957806346f7d6c9146101e45780634c69ec93146101f757600080fd5b806304e86903146101715780631ff64acd146101a4575b600080fd5b61019161017f36600461166b565b60cf6020526000908152604090205481565b6040519081526020015b60405180910390f35b6101b76101b23660046116d9565b6102e8565b005b60cd546101cc906001600160a01b031681565b6040516001600160a01b03909116815260200161019b565b60cc546101cc906001600160a01b031681565b6101b7610205366004611745565b61041d565b61019160ca5481565b6101b76106f7565b61019160cb5481565b6101b7610a5a565b6101b7610a62565b61019161024236600461166b565b60ce6020526000908152604090205481565b6065546001600160a01b03166101cc565b61019161027336600461166b565b610af0565b6101b76102863660046116d9565b610ba9565b61019160c95481565b610191620186a081565b6101b76102ac366004611778565b610ccb565b6101916102bf36600461166b565b610f0a565b6097546001600160a01b03166101cc565b6101b76102e336600461166b565b610f3f565b6102f0610fbd565b6000838281146102ff57600080fd5b60005b818110156103bb5784848281811061031c5761031c6117c5565b9050602002013560ce6000898985818110610339576103396117c5565b905060200201602081019061034e919061166b565b6001600160a01b03166001600160a01b03168152602001908152602001600020600082825461037d91906117f1565b909155508590508482818110610395576103956117c5565b90506020020135836103a791906117f1565b9250806103b38161180a565b915050610302565b506103d43360cc546001600160a01b0316903085611017565b7fce2f1e54279c24e5f841f2af4826cb958d82cbec9904631c271ea9f79c04975833878787878760405161040d969594939291906118d4565b60405180910390a1505050505050565b610425610fbd565b6001600160a01b038216600090815260ce602052604081205490036104b75760405162461bcd60e51b815260206004820152602860248201527f4f6c64206164647265737320646f65736e2774206861766520616e7920616c6c60448201527f6f636174696f6e2e00000000000000000000000000000000000000000000000060648201526084015b60405180910390fd5b6001600160a01b038216600090815260ce602090815260408083205460cf909252909120541061054f5760405162461bcd60e51b815260206004820152603260248201527f5468697320757365722068617320616c726561647920636c61696d656420616c60448201527f6c20796f757220616c6c6f636174696f6e2e000000000000000000000000000060648201526084016104ae565b6001600160a01b03811615610629576001600160a01b038116600090815260ce6020526040902054156105ea5760405162461bcd60e51b815260206004820152602d60248201527f546865206e6577206164647265737320616c726561647920686173206120766560448201527f7374696e6720616d6f756e742e0000000000000000000000000000000000000060648201526084016104ae565b6001600160a01b03808316600081815260ce60209081526040808320549486168084528184209590955592825260cf9052818120549281522055610672565b6001600160a01b038216600090815260cf602090815260408083205460ce909252822054610657919061191e565b90506106703360cc546001600160a01b031690836110ce565b505b6001600160a01b03828116600081815260ce6020818152604080842084905560cf80835281852085905595871680855292825280842054958252928390205483513381529182019590955280830194909452905190927fc59ec30f329309b218c044031b6a8c68941c091e893578a4b563ba18f588b4f2919081900360600190a35050565b6106ff61111c565b33600090815260ce602052604081205490036107835760405162461bcd60e51b815260206004820152602e60248201527f54686973206164647265737320646f65736e2774206861766520616e7920616d60448201527f6f756e7420746f20636c61696d2e00000000000000000000000000000000000060648201526084016104ae565b33600090815260ce602090815260408083205460cf90925290912054106108125760405162461bcd60e51b815260206004820152602c60248201527f596f75206861766520616c726561647920636c61696d656420616c6c20796f7560448201527f7220616c6c6f636174696f6e000000000000000000000000000000000000000060648201526084016104ae565b60cb5460c95461082291906117f1565b421115610a4f5733600090815260ce602052604081205460c954909190610849904261191e565b905060ca5481111561085a575060ca545b60ca5460009061086d620186a084611931565b6108779190611948565b33600090815260cf602052604081205491925090620186a06108998487611931565b6108a39190611948565b6108ad919061191e565b90508015610a4a5733600090815260cf6020526040812080548392906108d49084906117f1565b909155505060cc5460cd546040517f095ea7b30000000000000000000000000000000000000000000000000000000081526001600160a01b0391821660048201526024810184905291169063095ea7b3906044016020604051808303816000875af1158015610947573d6000803e3d6000fd5b505050506040513d601f19601f8201168201806040525081019061096b919061196a565b5060cd546000906001600160a01b0316632ee40908336040517fffffffff0000000000000000000000000000000000000000000000000000000060e084901b1681526001600160a01b039091166004820152602481018590526044016020604051808303816000875af11580156109e6573d6000803e3d6000fd5b505050506040513d601f19601f82011682018060405250810190610a0a919061198c565b604080518481526020810183905291925033917f987d620f307ff6b94d58743cb7a7509f24071586a77759b77c2d4e29f75a2f9a910160405180910390a2505b505050505b610a5860018055565b565b610a58610fbd565b60975433906001600160a01b03168114610ae45760405162461bcd60e51b815260206004820152602960248201527f4f776e61626c6532537465703a2063616c6c6572206973206e6f74207468652060448201527f6e6577206f776e6572000000000000000000000000000000000000000000000060648201526084016104ae565b610aed8161117b565b50565b600060cb5460c954610b0291906117f1565b421115610ba4576001600160a01b038216600090815260ce602052604081205460c954909190610b32904261191e565b905060ca54811115610b43575060ca545b60ca54600090610b56620186a084611931565b610b609190611948565b6001600160a01b038616600090815260cf6020526040902054909150620186a0610b8a8386611931565b610b949190611948565b610b9e919061191e565b93505050505b919050565b610bb1610fbd565b600083828114610bc057600080fd5b60005b81811015610c7c57848482818110610bdd57610bdd6117c5565b9050602002013560ce6000898985818110610bfa57610bfa6117c5565b9050602002016020810190610c0f919061166b565b6001600160a01b03166001600160a01b031681526020019081526020016000206000828254610c3e919061191e565b909155508590508482818110610c5657610c566117c5565b9050602002013583610c6891906117f1565b925080610c748161180a565b915050610bc3565b50610c943360cc546001600160a01b031690846110ce565b7f4f25cd81512105d97bd46364551eb94e032e6bc294d33ec5779144af3dadb766338787878760405161040d9594939291906119a5565b600054610100900460ff1615808015610ceb5750600054600160ff909116105b80610d055750303b158015610d05575060005460ff166001145b610d775760405162461bcd60e51b815260206004820152602e60248201527f496e697469616c697a61626c653a20636f6e747261637420697320616c72656160448201527f647920696e697469616c697a656400000000000000000000000000000000000060648201526084016104ae565b600080547fffffffffffffffffffffffffffffffffffffffffffffffffffffffffffffff001660011790558015610db8576000805461ff0019166101001790555b610dc06111a1565b610dc8611214565b6001600160a01b038616610e1e5760405162461bcd60e51b815260206004820152601460248201527f43616e277420757365203078206164647265737300000000000000000000000060448201526064016104ae565b6001600160a01b038516610e745760405162461bcd60e51b815260206004820152601460248201527f43616e277420757365203078206164647265737300000000000000000000000060448201526064016104ae565b60cc80546001600160a01b0380891673ffffffffffffffffffffffffffffffffffffffff199283161790925560cd80549288169290911691909117905560c984905560ca83905560cb8290558015610f02576000805461ff0019169055604051600181527f7f26b83ff96e1f2b6a682f133852f6798a09c465da95921460cefb38474024989060200161040d565b505050505050565b600060c954421115610ba4576001600160a01b038216600090815260ce602052604081205460c954909190610b32904261191e565b610f47610fbd565b609780546001600160a01b03831673ffffffffffffffffffffffffffffffffffffffff199091168117909155610f856065546001600160a01b031690565b6001600160a01b03167f38d16b8cac22d99fc7c124b9cd0de2d3fa1faef420bfe791d8c362d765e2270060405160405180910390a350565b6065546001600160a01b03163314610a585760405162461bcd60e51b815260206004820181905260248201527f4f776e61626c653a2063616c6c6572206973206e6f7420746865206f776e657260448201526064016104ae565b6040516001600160a01b03808516602483015283166044820152606481018290526110c89085907f23b872dd00000000000000000000000000000000000000000000000000000000906084015b60408051601f198184030181529190526020810180517bffffffffffffffffffffffffffffffffffffffffffffffffffffffff167fffffffff0000000000000000000000000000000000000000000000000000000090931692909217909152611287565b50505050565b6040516001600160a01b0383166024820152604481018290526111179084907fa9059cbb0000000000000000000000000000000000000000000000000000000090606401611064565b505050565b60026001540361116e5760405162461bcd60e51b815260206004820152601f60248201527f5265656e7472616e637947756172643a207265656e7472616e742063616c6c0060448201526064016104ae565b6002600155565b60018055565b6097805473ffffffffffffffffffffffffffffffffffffffff19169055610aed8161136f565b600054610100900460ff1661120c5760405162461bcd60e51b815260206004820152602b60248201527f496e697469616c697a61626c653a20636f6e7472616374206973206e6f74206960448201526a6e697469616c697a696e6760a81b60648201526084016104ae565b610a586113ce565b600054610100900460ff1661127f5760405162461bcd60e51b815260206004820152602b60248201527f496e697469616c697a61626c653a20636f6e7472616374206973206e6f74206960448201526a6e697469616c697a696e6760a81b60648201526084016104ae565b610a58611439565b60006112dc826040518060400160405280602081526020017f5361666545524332303a206c6f772d6c6576656c2063616c6c206661696c6564815250856001600160a01b03166114ad9092919063ffffffff16565b90508051600014806112fd5750808060200190518101906112fd919061196a565b6111175760405162461bcd60e51b815260206004820152602a60248201527f5361666545524332303a204552433230206f7065726174696f6e20646964206e60448201527f6f7420737563636565640000000000000000000000000000000000000000000060648201526084016104ae565b606580546001600160a01b0383811673ffffffffffffffffffffffffffffffffffffffff19831681179093556040519116919082907f8be0079c531659141344cd1fd0a4f28419497f9722a3daafe3b4186f6b6457e090600090a35050565b600054610100900460ff166111755760405162461bcd60e51b815260206004820152602b60248201527f496e697469616c697a61626c653a20636f6e7472616374206973206e6f74206960448201526a6e697469616c697a696e6760a81b60648201526084016104ae565b600054610100900460ff166114a45760405162461bcd60e51b815260206004820152602b60248201527f496e697469616c697a61626c653a20636f6e7472616374206973206e6f74206960448201526a6e697469616c697a696e6760a81b60648201526084016104ae565b610a583361117b565b60606114bc84846000856114c4565b949350505050565b60608247101561153c5760405162461bcd60e51b815260206004820152602660248201527f416464726573733a20696e73756666696369656e742062616c616e636520666f60448201527f722063616c6c000000000000000000000000000000000000000000000000000060648201526084016104ae565b600080866001600160a01b031685876040516115589190611a0b565b60006040518083038185875af1925050503d8060008114611595576040519150601f19603f3d011682016040523d82523d6000602084013e61159a565b606091505b50915091506115ab878383876115b6565b979650505050505050565b6060831561162557825160000361161e576001600160a01b0385163b61161e5760405162461bcd60e51b815260206004820152601d60248201527f416464726573733a2063616c6c20746f206e6f6e2d636f6e747261637400000060448201526064016104ae565b50816114bc565b6114bc838381511561163a5781518083602001fd5b8060405162461bcd60e51b81526004016104ae9190611a27565b80356001600160a01b0381168114610ba457600080fd5b60006020828403121561167d57600080fd5b61168682611654565b9392505050565b60008083601f84011261169f57600080fd5b50813567ffffffffffffffff8111156116b757600080fd5b6020830191508360208260051b85010111156116d257600080fd5b9250929050565b600080600080604085870312156116ef57600080fd5b843567ffffffffffffffff8082111561170757600080fd5b6117138883890161168d565b9096509450602087013591508082111561172c57600080fd5b506117398782880161168d565b95989497509550505050565b6000806040838503121561175857600080fd5b61176183611654565b915061176f60208401611654565b90509250929050565b600080600080600060a0868803121561179057600080fd5b61179986611654565b94506117a760208701611654565b94979496505050506040830135926060810135926080909101359150565b634e487b7160e01b600052603260045260246000fd5b634e487b7160e01b600052601160045260246000fd5b80820180821115611804576118046117db565b92915050565b60007fffffffffffffffffffffffffffffffffffffffffffffffffffffffffffffffff820361183b5761183b6117db565b5060010190565b8183526000602080850194508260005b8581101561187e576001600160a01b0361186b83611654565b1687529582019590820190600101611852565b509495945050505050565b81835260007f07ffffffffffffffffffffffffffffffffffffffffffffffffffffffffffffff8311156118bb57600080fd5b8260051b80836020870137939093016020019392505050565b6001600160a01b03871681526080602082015260006118f7608083018789611842565b828103604084015261190a818688611889565b915050826060830152979650505050505050565b81810381811115611804576118046117db565b8082028115828204841417611804576118046117db565b60008261196557634e487b7160e01b600052601260045260246000fd5b500490565b60006020828403121561197c57600080fd5b8151801515811461168657600080fd5b60006020828403121561199e57600080fd5b5051919050565b6001600160a01b03861681526060602082015260006119c8606083018688611842565b82810360408401526119db818587611889565b98975050505050505050565b60005b83811015611a025781810151838201526020016119ea565b50506000910152565b60008251611a1d8184602087016119e7565b9190910192915050565b6020815260008251806020840152611a468160408501602087016119e7565b601f01601f1916919091016040019291505056fea2646970667358221220a1edcf76acf2521dc1a450daca4d2f49f9f602b3f7fdbb56148d86a503ac170664736f6c63430008120033",
  "linkReferences": {},
  "deployedLinkReferences": {}
}