{
  "_format": "hh-sol-artifact-1",
  "contractName": "VestingXINTX",
  "sourceName": "contracts/vestings/VestingXINTX.sol",
  "abi": [
    {
      "inputs": [],
      "stateMutability": "nonpayable",
      "type": "constructor"
    },
    {
      "anonymous": false,
      "inputs": [
        {
          "indexed": false,
          "internalType": "address",
          "name": "changedBy",
          "type": "address"
        },
        {
          "indexed": true,
          "internalType": "address",
          "name": "_oldAddress",
          "type": "address"
        },
        {
          "indexed": true,
          "internalType": "address",
          "name": "_newAddress",
          "type": "address"
        },
        {
          "indexed": false,
          "internalType": "uint256",
          "name": "amountClaimable",
          "type": "uint256"
        },
        {
          "indexed": false,
          "internalType": "uint256",
          "name": "amountClaimed",
          "type": "uint256"
        }
      ],
      "name": "AllocationChanged",
      "type": "event"
    },
    {
      "anonymous": false,
      "inputs": [
        {
          "indexed": true,
          "internalType": "address",
          "name": "user",
          "type": "address"
        },
        {
          "indexed": false,
          "internalType": "uint256",
          "name": "amount",
          "type": "uint256"
        },
        {
          "indexed": false,
          "internalType": "uint256",
          "name": "_tokenId",
          "type": "uint256"
        }
      ],
      "name": "Claimed",
      "type": "event"
    },
    {
      "anonymous": false,
      "inputs": [
        {
          "indexed": false,
          "internalType": "uint8",
          "name": "version",
          "type": "uint8"
        }
      ],
      "name": "Initialized",
      "type": "event"
    },
    {
      "anonymous": false,
      "inputs": [
        {
          "indexed": true,
          "internalType": "address",
          "name": "previousOwner",
          "type": "address"
        },
        {
          "indexed": true,
          "internalType": "address",
          "name": "newOwner",
          "type": "address"
        }
      ],
      "name": "OwnershipTransferStarted",
      "type": "event"
    },
    {
      "anonymous": false,
      "inputs": [
        {
          "indexed": true,
          "internalType": "address",
          "name": "previousOwner",
          "type": "address"
        },
        {
          "indexed": true,
          "internalType": "address",
          "name": "newOwner",
          "type": "address"
        }
      ],
      "name": "OwnershipTransferred",
      "type": "event"
    },
    {
      "anonymous": false,
      "inputs": [
        {
          "indexed": false,
          "internalType": "address",
          "name": "operator",
          "type": "address"
        },
        {
          "indexed": false,
          "internalType": "address[]",
          "name": "users",
          "type": "address[]"
        },
        {
          "indexed": false,
          "internalType": "uint256[]",
          "name": "amount",
          "type": "uint256[]"
        },
        {
          "indexed": false,
          "internalType": "uint256",
          "name": "totalAmount",
          "type": "uint256"
        }
      ],
      "name": "Seeded",
      "type": "event"
    },
    {
      "inputs": [],
      "name": "NO_CLAIM_DURATION",
      "outputs": [
        {
          "internalType": "uint256",
          "name": "",
          "type": "uint256"
        }
      ],
      "stateMutability": "view",
      "type": "function"
    },
    {
      "inputs": [],
      "name": "PRECISION",
      "outputs": [
        {
          "internalType": "uint256",
          "name": "",
          "type": "uint256"
        }
      ],
      "stateMutability": "view",
      "type": "function"
    },
    {
      "inputs": [],
      "name": "START_VESTING",
      "outputs": [
        {
          "internalType": "uint256",
          "name": "",
          "type": "uint256"
        }
      ],
      "stateMutability": "view",
      "type": "function"
    },
    {
      "inputs": [],
      "name": "VESTING_DURATION",
      "outputs": [
        {
          "internalType": "uint256",
          "name": "",
          "type": "uint256"
        }
      ],
      "stateMutability": "view",
      "type": "function"
    },
    {
      "inputs": [],
      "name": "acceptOwnership",
      "outputs": [],
      "stateMutability": "nonpayable",
      "type": "function"
    },
    {
      "inputs": [
        {
          "internalType": "address",
          "name": "_oldAddress",
          "type": "address"
        },
        {
          "internalType": "address",
          "name": "_newAddress",
          "type": "address"
        }
      ],
      "name": "changeReceiver",
      "outputs": [],
      "stateMutability": "nonpayable",
      "type": "function"
    },
    {
      "inputs": [],
      "name": "claim",
      "outputs": [],
      "stateMutability": "nonpayable",
      "type": "function"
    },
    {
      "inputs": [
        {
          "internalType": "address",
          "name": "",
          "type": "address"
        }
      ],
      "name": "claimableAmount",
      "outputs": [
        {
          "internalType": "uint256",
          "name": "",
          "type": "uint256"
        }
      ],
      "stateMutability": "view",
      "type": "function"
    },
    {
      "inputs": [
        {
          "internalType": "address",
          "name": "_user",
          "type": "address"
        }
      ],
      "name": "claimableNow",
      "outputs": [
        {
          "internalType": "uint256",
          "name": "amountToReceive",
          "type": "uint256"
        }
      ],
      "stateMutability": "view",
      "type": "function"
    },
    {
      "inputs": [
        {
          "internalType": "address",
          "name": "_user",
          "type": "address"
        }
      ],
      "name": "claimableWithoutCliff",
      "outputs": [
        {
          "internalType": "uint256",
          "name": "amountToReceive",
          "type": "uint256"
        }
      ],
      "stateMutability": "view",
      "type": "function"
    },
    {
      "inputs": [
        {
          "internalType": "address",
          "name": "",
          "type": "address"
        }
      ],
      "name": "claimedAmount",
      "outputs": [
        {
          "internalType": "uint256",
          "name": "",
          "type": "uint256"
        }
      ],
      "stateMutability": "view",
      "type": "function"
    },
    {
      "inputs": [
        {
          "internalType": "address",
          "name": "_intx",
          "type": "address"
        },
        {
          "internalType": "address",
          "name": "_xIntx",
          "type": "address"
        },
        {
          "internalType": "uint256",
          "name": "_startVesting",
          "type": "uint256"
        },
        {
          "internalType": "uint256",
          "name": "_vestingDuration",
          "type": "uint256"
        },
        {
          "internalType": "uint256",
          "name": "_noClaimDuration",
          "type": "uint256"
        }
      ],
      "name": "initialize",
      "outputs": [],
      "stateMutability": "nonpayable",
      "type": "function"
    },
    {
      "inputs": [],
      "name": "intx",
      "outputs": [
        {
          "internalType": "contract IERC20",
          "name": "",
          "type": "address"
        }
      ],
      "stateMutability": "view",
      "type": "function"
    },
    {
      "inputs": [],
      "name": "owner",
      "outputs": [
        {
          "internalType": "address",
          "name": "",
          "type": "address"
        }
      ],
      "stateMutability": "view",
      "type": "function"
    },
    {
      "inputs": [],
      "name": "pendingOwner",
      "outputs": [
        {
          "internalType": "address",
          "name": "",
          "type": "address"
        }
      ],
      "stateMutability": "view",
      "type": "function"
    },
    {
      "inputs": [],
      "name": "renounceOwnership",
      "outputs": [],
      "stateMutability": "nonpayable",
      "type": "function"
    },
    {
      "inputs": [
        {
          "internalType": "address[]",
          "name": "_receivers",
          "type": "address[]"
        },
        {
          "internalType": "uint256[]",
          "name": "_amounts",
          "type": "uint256[]"
        }
      ],
      "name": "setAllocations",
      "outputs": [],
      "stateMutability": "nonpayable",
      "type": "function"
    },
    {
      "inputs": [
        {
          "internalType": "address",
          "name": "newOwner",
          "type": "address"
        }
      ],
      "name": "transferOwnership",
      "outputs": [],
      "stateMutability": "nonpayable",
      "type": "function"
    },
    {
      "inputs": [],
      "name": "xIntx",
      "outputs": [
        {
          "internalType": "contract IStakedINTX",
          "name": "",
          "type": "address"
        }
      ],
      "stateMutability": "view",
      "type": "function"
    }
  ],
  "bytecode": "0x608060405234801561001057600080fd5b5061001961001e565b6100dd565b600054610100900460ff161561008a5760405162461bcd60e51b815260206004820152602760248201527f496e697469616c697a61626c653a20636f6e747261637420697320696e697469604482015266616c697a696e6760c81b606482015260840160405180910390fd5b60005460ff908116146100db576000805460ff191660ff9081179091556040519081527f7f26b83ff96e1f2b6a682f133852f6798a09c465da95921460cefb38474024989060200160405180910390a15b565b61183d806100ec6000396000f3fe608060405234801561001057600080fd5b50600436106101515760003560e01c806379ba5097116100cd578063aaf5eb6811610081578063de6aa92b11610066578063de6aa92b14610283578063e30c397814610296578063f2fde38b146102a757600080fd5b8063aaf5eb6814610266578063d13f90b41461027057600080fd5b80638da5cb5b116100b25780638da5cb5b146102395780639a78ea4a1461024a578063aa264c9b1461025d57600080fd5b806379ba509714610211578063898850491461021957600080fd5b80634c69ec93116101245780634e71d92d116101095780634e71d92d146101f85780635124245014610200578063715018a61461020957600080fd5b80634c69ec93146101dc5780634cfc4d30146101ef57600080fd5b806304e86903146101565780631ff64acd1461018957806327a7af891461019e57806346f7d6c9146101c9575b600080fd5b610176610164366004611488565b60cf6020526000908152604090205481565b6040519081526020015b60405180910390f35b61019c6101973660046114f6565b6102ba565b005b60cd546101b1906001600160a01b031681565b6040516001600160a01b039091168152602001610180565b60cc546101b1906001600160a01b031681565b61019c6101ea366004611562565b6103ef565b61017660ca5481565b61019c6106c9565b61017660cb5481565b61019c610999565b61019c6109a1565b610176610227366004611488565b60ce6020526000908152604090205481565b6065546001600160a01b03166101b1565b610176610258366004611488565b610a2f565b61017660c95481565b610176620186a081565b61019c61027e366004611595565b610ae8565b610176610291366004611488565b610d27565b6097546001600160a01b03166101b1565b61019c6102b5366004611488565b610d5c565b6102c2610dda565b6000838281146102d157600080fd5b60005b8181101561038d578484828181106102ee576102ee6115e2565b9050602002013560ce600089898581811061030b5761030b6115e2565b90506020020160208101906103209190611488565b6001600160a01b03166001600160a01b03168152602001908152602001600020600082825461034f919061160e565b909155508590508482818110610367576103676115e2565b9050602002013583610379919061160e565b92508061038581611627565b9150506102d4565b506103a63360cc546001600160a01b0316903085610e34565b7fce2f1e54279c24e5f841f2af4826cb958d82cbec9904631c271ea9f79c0497583387878787876040516103df9695949392919061165f565b60405180910390a1505050505050565b6103f7610dda565b6001600160a01b038216600090815260ce602052604081205490036104895760405162461bcd60e51b815260206004820152602860248201527f4f6c64206164647265737320646f65736e2774206861766520616e7920616c6c60448201527f6f636174696f6e2e00000000000000000000000000000000000000000000000060648201526084015b60405180910390fd5b6001600160a01b038216600090815260ce602090815260408083205460cf90925290912054106105215760405162461bcd60e51b815260206004820152603260248201527f5468697320757365722068617320616c726561647920636c61696d656420616c60448201527f6c20796f757220616c6c6f636174696f6e2e00000000000000000000000000006064820152608401610480565b6001600160a01b038116156105fb576001600160a01b038116600090815260ce6020526040902054156105bc5760405162461bcd60e51b815260206004820152602d60248201527f546865206e6577206164647265737320616c726561647920686173206120766560448201527f7374696e6720616d6f756e742e000000000000000000000000000000000000006064820152608401610480565b6001600160a01b03808316600081815260ce60209081526040808320549486168084528184209590955592825260cf9052818120549281522055610644565b6001600160a01b038216600090815260cf602090815260408083205460ce909252822054610629919061170d565b90506106423360cc546001600160a01b03169083610eeb565b505b6001600160a01b03828116600081815260ce6020818152604080842084905560cf80835281852085905595871680855292825280842054958252928390205483513381529182019590955280830194909452905190927fc59ec30f329309b218c044031b6a8c68941c091e893578a4b563ba18f588b4f2919081900360600190a35050565b6106d1610f39565b33600090815260ce602052604081205490036107555760405162461bcd60e51b815260206004820152602e60248201527f54686973206164647265737320646f65736e2774206861766520616e7920616d60448201527f6f756e7420746f20636c61696d2e0000000000000000000000000000000000006064820152608401610480565b33600090815260ce602090815260408083205460cf90925290912054106107e45760405162461bcd60e51b815260206004820152602c60248201527f596f75206861766520616c726561647920636c61696d656420616c6c20796f7560448201527f7220616c6c6f636174696f6e00000000000000000000000000000000000000006064820152608401610480565b60cb5460c9546107f4919061160e565b42111561098e5733600090815260ce602052604081205460c95490919061081b904261170d565b905060ca5481111561082c575060ca545b60ca5460009061083f620186a084611720565b6108499190611737565b33600090815260cf602052604081205491925090620186a061086b8487611720565b6108759190611737565b61087f919061170d565b905080156109895733600090815260cf6020526040812080548392906108a690849061160e565b909155505060cd546000906001600160a01b0316632ee40908336040517fffffffff0000000000000000000000000000000000000000000000000000000060e084901b1681526001600160a01b039091166004820152602481018590526044016020604051808303816000875af1158015610925573d6000803e3d6000fd5b505050506040513d601f19601f820116820180604052508101906109499190611759565b604080518481526020810183905291925033917f987d620f307ff6b94d58743cb7a7509f24071586a77759b77c2d4e29f75a2f9a910160405180910390a2505b505050505b61099760018055565b565b610997610dda565b60975433906001600160a01b03168114610a235760405162461bcd60e51b815260206004820152602960248201527f4f776e61626c6532537465703a2063616c6c6572206973206e6f74207468652060448201527f6e6577206f776e657200000000000000000000000000000000000000000000006064820152608401610480565b610a2c81610f98565b50565b600060cb5460c954610a41919061160e565b421115610ae3576001600160a01b038216600090815260ce602052604081205460c954909190610a71904261170d565b905060ca54811115610a82575060ca545b60ca54600090610a95620186a084611720565b610a9f9190611737565b6001600160a01b038616600090815260cf6020526040902054909150620186a0610ac98386611720565b610ad39190611737565b610add919061170d565b93505050505b919050565b600054610100900460ff1615808015610b085750600054600160ff909116105b80610b225750303b158015610b22575060005460ff166001145b610b945760405162461bcd60e51b815260206004820152602e60248201527f496e697469616c697a61626c653a20636f6e747261637420697320616c72656160448201527f647920696e697469616c697a65640000000000000000000000000000000000006064820152608401610480565b600080547fffffffffffffffffffffffffffffffffffffffffffffffffffffffffffffff001660011790558015610bd5576000805461ff0019166101001790555b610bdd610fbe565b610be5611031565b6001600160a01b038616610c3b5760405162461bcd60e51b815260206004820152601460248201527f43616e27742075736520307820616464726573730000000000000000000000006044820152606401610480565b6001600160a01b038516610c915760405162461bcd60e51b815260206004820152601460248201527f43616e27742075736520307820616464726573730000000000000000000000006044820152606401610480565b60cc80546001600160a01b0380891673ffffffffffffffffffffffffffffffffffffffff199283161790925560cd80549288169290911691909117905560c984905560ca83905560cb8290558015610d1f576000805461ff0019169055604051600181527f7f26b83ff96e1f2b6a682f133852f6798a09c465da95921460cefb3847402498906020016103df565b505050505050565b600060c954421115610ae3576001600160a01b038216600090815260ce602052604081205460c954909190610a71904261170d565b610d64610dda565b609780546001600160a01b03831673ffffffffffffffffffffffffffffffffffffffff199091168117909155610da26065546001600160a01b031690565b6001600160a01b03167f38d16b8cac22d99fc7c124b9cd0de2d3fa1faef420bfe791d8c362d765e2270060405160405180910390a350565b6065546001600160a01b031633146109975760405162461bcd60e51b815260206004820181905260248201527f4f776e61626c653a2063616c6c6572206973206e6f7420746865206f776e65726044820152606401610480565b6040516001600160a01b0380851660248301528316604482015260648101829052610ee59085907f23b872dd00000000000000000000000000000000000000000000000000000000906084015b60408051601f198184030181529190526020810180517bffffffffffffffffffffffffffffffffffffffffffffffffffffffff167fffffffff00000000000000000000000000000000000000000000000000000000909316929092179091526110a4565b50505050565b6040516001600160a01b038316602482015260448101829052610f349084907fa9059cbb0000000000000000000000000000000000000000000000000000000090606401610e81565b505050565b600260015403610f8b5760405162461bcd60e51b815260206004820152601f60248201527f5265656e7472616e637947756172643a207265656e7472616e742063616c6c006044820152606401610480565b6002600155565b60018055565b6097805473ffffffffffffffffffffffffffffffffffffffff19169055610a2c8161118c565b600054610100900460ff166110295760405162461bcd60e51b815260206004820152602b60248201527f496e697469616c697a61626c653a20636f6e7472616374206973206e6f74206960448201526a6e697469616c697a696e6760a81b6064820152608401610480565b6109976111eb565b600054610100900460ff1661109c5760405162461bcd60e51b815260206004820152602b60248201527f496e697469616c697a61626c653a20636f6e7472616374206973206e6f74206960448201526a6e697469616c697a696e6760a81b6064820152608401610480565b610997611256565b60006110f9826040518060400160405280602081526020017f5361666545524332303a206c6f772d6c6576656c2063616c6c206661696c6564815250856001600160a01b03166112ca9092919063ffffffff16565b905080516000148061111a57508080602001905181019061111a9190611772565b610f345760405162461bcd60e51b815260206004820152602a60248201527f5361666545524332303a204552433230206f7065726174696f6e20646964206e60448201527f6f742073756363656564000000000000000000000000000000000000000000006064820152608401610480565b606580546001600160a01b0383811673ffffffffffffffffffffffffffffffffffffffff19831681179093556040519116919082907f8be0079c531659141344cd1fd0a4f28419497f9722a3daafe3b4186f6b6457e090600090a35050565b600054610100900460ff16610f925760405162461bcd60e51b815260206004820152602b60248201527f496e697469616c697a61626c653a20636f6e7472616374206973206e6f74206960448201526a6e697469616c697a696e6760a81b6064820152608401610480565b600054610100900460ff166112c15760405162461bcd60e51b815260206004820152602b60248201527f496e697469616c697a61626c653a20636f6e7472616374206973206e6f74206960448201526a6e697469616c697a696e6760a81b6064820152608401610480565b61099733610f98565b60606112d984846000856112e1565b949350505050565b6060824710156113595760405162461bcd60e51b815260206004820152602660248201527f416464726573733a20696e73756666696369656e742062616c616e636520666f60448201527f722063616c6c00000000000000000000000000000000000000000000000000006064820152608401610480565b600080866001600160a01b0316858760405161137591906117b8565b60006040518083038185875af1925050503d80600081146113b2576040519150601f19603f3d011682016040523d82523d6000602084013e6113b7565b606091505b50915091506113c8878383876113d3565b979650505050505050565b6060831561144257825160000361143b576001600160a01b0385163b61143b5760405162461bcd60e51b815260206004820152601d60248201527f416464726573733a2063616c6c20746f206e6f6e2d636f6e74726163740000006044820152606401610480565b50816112d9565b6112d983838151156114575781518083602001fd5b8060405162461bcd60e51b815260040161048091906117d4565b80356001600160a01b0381168114610ae357600080fd5b60006020828403121561149a57600080fd5b6114a382611471565b9392505050565b60008083601f8401126114bc57600080fd5b50813567ffffffffffffffff8111156114d457600080fd5b6020830191508360208260051b85010111156114ef57600080fd5b9250929050565b6000806000806040858703121561150c57600080fd5b843567ffffffffffffffff8082111561152457600080fd5b611530888389016114aa565b9096509450602087013591508082111561154957600080fd5b50611556878288016114aa565b95989497509550505050565b6000806040838503121561157557600080fd5b61157e83611471565b915061158c60208401611471565b90509250929050565b600080600080600060a086880312156115ad57600080fd5b6115b686611471565b94506115c460208701611471565b94979496505050506040830135926060810135926080909101359150565b634e487b7160e01b600052603260045260246000fd5b634e487b7160e01b600052601160045260246000fd5b80820180821115611621576116216115f8565b92915050565b60007fffffffffffffffffffffffffffffffffffffffffffffffffffffffffffffffff8203611658576116586115f8565b5060010190565b6001600160a01b03878116825260806020808401829052908301879052600091889160a08501845b8a8110156116ac578361169986611471565b1682529382019390820190600101611687565b5085810360408701528781527f07ffffffffffffffffffffffffffffffffffffffffffffffffffffffffffffff8811156116e557600080fd5b8760051b93508389838301378184820101945050505050826060830152979650505050505050565b81810381811115611621576116216115f8565b8082028115828204841417611621576116216115f8565b60008261175457634e487b7160e01b600052601260045260246000fd5b500490565b60006020828403121561176b57600080fd5b5051919050565b60006020828403121561178457600080fd5b815180151581146114a357600080fd5b60005b838110156117af578181015183820152602001611797565b50506000910152565b600082516117ca818460208701611794565b9190910192915050565b60208152600082518060208401526117f3816040850160208701611794565b601f01601f1916919091016040019291505056fea264697066735822122072f77ccbf9d0552628e37a309953859e47e83f5bc3e3e761934ae5d504afdc6664736f6c63430008120033",
  "linkReferences": {},
  "deployedLinkReferences": {}
}