{
  "_format": "hh-sol-artifact-1",
  "contractName": "APIHelper2",
  "sourceName": "contracts/apis/APIHelper2.sol",
  "abi": [
    {
      "inputs": [],
      "name": "DEFAULT_ADMIN_ROLE",
      "outputs": [
        {
          "internalType": "bytes32",
          "name": "",
          "type": "bytes32"
        }
      ],
      "stateMutability": "view",
      "type": "function"
    },
    {
      "inputs": [],
      "name": "MULTIACCOUNT_ROLE",
      "outputs": [
        {
          "internalType": "bytes32",
          "name": "",
          "type": "bytes32"
        }
      ],
      "stateMutability": "view",
      "type": "function"
    },
    {
      "inputs": [
        {
          "internalType": "address",
          "name": "account",
          "type": "address"
        }
      ],
      "name": "isContract",
      "outputs": [
        {
          "internalType": "bool",
          "name": "",
          "type": "bool"
        }
      ],
      "stateMutability": "view",
      "type": "function"
    },
    {
      "inputs": [
        {
          "internalType": "address[]",
          "name": "_partyAs",
          "type": "address[]"
        },
        {
          "internalType": "address",
          "name": "multiaccount",
          "type": "address"
        },
        {
          "internalType": "address",
          "name": "oldOwner",
          "type": "address"
        }
      ],
      "name": "ourControl",
      "outputs": [
        {
          "internalType": "address[]",
          "name": "discriminatedPartyAs",
          "type": "address[]"
        }
      ],
      "stateMutability": "view",
      "type": "function"
    }
  ],
  "bytecode": "0x6080604052348015600f57600080fd5b506105158061001f6000396000f3fe608060405234801561001057600080fd5b506004361061004c5760003560e01c8063162790551461005157806359f6d3921461007a578063a217fddf146100af578063afdfb1fc146100b7575b600080fd5b61006561005f366004610358565b3b151590565b60405190151581526020015b60405180910390f35b6100a17febee9ae4283d502e7ed608f7bff6281dc40560c705aa66f8f31324862ed03f5a81565b604051908152602001610071565b6100a1600081565b6100ca6100c536600461037a565b6100d7565b6040516100719190610411565b60608360008080808467ffffffffffffffff8111156100f8576100f861046a565b604051908082528060200260200182016040528015610121578160200160208202803683370190505b50955060005b85811015610321578a8a8281811061014157610141610480565b90506020020160208101906101569190610358565b9150813b15159250821561030f576040517f91d148540000000000000000000000000000000000000000000000000000000081527febee9ae4283d502e7ed608f7bff6281dc40560c705aa66f8f31324862ed03f5a600482015273ffffffffffffffffffffffffffffffffffffffff8a811660248301528316906391d1485490604401602060405180830381865afa1580156101f6573d6000803e3d6000fd5b505050506040513d601f19601f8201168201806040525081019061021a9190610496565b9450841561030f576040517f91d148540000000000000000000000000000000000000000000000000000000081526000600482015273ffffffffffffffffffffffffffffffffffffffff89811660248301528316906391d1485490604401602060405180830381865afa158015610295573d6000803e3d6000fd5b505050506040513d601f19601f820116820180604052508101906102b99190610496565b9350831561030f57818782815181106102d4576102d4610480565b602002602001019073ffffffffffffffffffffffffffffffffffffffff16908173ffffffffffffffffffffffffffffffffffffffff16815250505b61031a8160016104b8565b9050610127565b505050505050949350505050565b803573ffffffffffffffffffffffffffffffffffffffff8116811461035357600080fd5b919050565b60006020828403121561036a57600080fd5b6103738261032f565b9392505050565b6000806000806060858703121561039057600080fd5b843567ffffffffffffffff8111156103a757600080fd5b8501601f810187136103b857600080fd5b803567ffffffffffffffff8111156103cf57600080fd5b8760208260051b84010111156103e457600080fd5b6020918201955093506103f890860161032f565b91506104066040860161032f565b905092959194509250565b602080825282518282018190526000918401906040840190835b8181101561045f57835173ffffffffffffffffffffffffffffffffffffffff1683526020938401939092019160010161042b565b509095945050505050565b634e487b7160e01b600052604160045260246000fd5b634e487b7160e01b600052603260045260246000fd5b6000602082840312156104a857600080fd5b8151801515811461037357600080fd5b808201808211156104d957634e487b7160e01b600052601160045260246000fd5b9291505056fea264697066735822122025be860867d6fa2c00bca8b93269b72ede454b8f3759b7d49c123a04d402eec464736f6c634300081c0033",
  "linkReferences": {},
  "deployedLinkReferences": {}
}