{
  "_format": "hh-sol-artifact-1",
  "contractName": "APIHelper2",
  "sourceName": "contracts/apis/APIHelper2.sol",
  "abi": [
    {
      "inputs": [],
      "name": "DEFAULT_ADMIN_ROLE",
      "outputs": [
        {
          "internalType": "bytes32",
          "name": "",
          "type": "bytes32"
        }
      ],
      "stateMutability": "view",
      "type": "function"
    },
    {
      "inputs": [],
      "name": "MULTIACCOUNT_ROLE",
      "outputs": [
        {
          "internalType": "bytes32",
          "name": "",
          "type": "bytes32"
        }
      ],
      "stateMutability": "view",
      "type": "function"
    },
    {
      "inputs": [
        {
          "internalType": "address",
          "name": "account",
          "type": "address"
        }
      ],
      "name": "isContract",
      "outputs": [
        {
          "internalType": "bool",
          "name": "",
          "type": "bool"
        }
      ],
      "stateMutability": "view",
      "type": "function"
    },
    {
      "inputs": [
        {
          "internalType": "address[]",
          "name": "_partyAs",
          "type": "address[]"
        },
        {
          "internalType": "address",
          "name": "multiaccount",
          "type": "address"
        },
        {
          "internalType": "address",
          "name": "oldOwner",
          "type": "address"
        }
      ],
      "name": "ourControl",
      "outputs": [
        {
          "internalType": "address[]",
          "name": "discriminatedPartyAs",
          "type": "address[]"
        }
      ],
      "stateMutability": "view",
      "type": "function"
    }
  ],
  "bytecode": "0x608060405234801561001057600080fd5b50610514806100206000396000f3fe608060405234801561001057600080fd5b506004361061004c5760003560e01c8063162790551461005157806359f6d3921461007a578063a217fddf146100af578063afdfb1fc146100b7575b600080fd5b61006561005f366004610358565b3b151590565b60405190151581526020015b60405180910390f35b6100a17febee9ae4283d502e7ed608f7bff6281dc40560c705aa66f8f31324862ed03f5a81565b604051908152602001610071565b6100a1600081565b6100ca6100c536600461037a565b6100d7565b604051610071919061040f565b60608360008080808467ffffffffffffffff8111156100f8576100f8610469565b604051908082528060200260200182016040528015610121578160200160208202803683370190505b50955060005b85811015610321578a8a828181106101415761014161047f565b90506020020160208101906101569190610358565b9150813b15159250821561030f576040517f91d148540000000000000000000000000000000000000000000000000000000081527febee9ae4283d502e7ed608f7bff6281dc40560c705aa66f8f31324862ed03f5a600482015273ffffffffffffffffffffffffffffffffffffffff8a811660248301528316906391d1485490604401602060405180830381865afa1580156101f6573d6000803e3d6000fd5b505050506040513d601f19601f8201168201806040525081019061021a9190610495565b9450841561030f576040517f91d148540000000000000000000000000000000000000000000000000000000081526000600482015273ffffffffffffffffffffffffffffffffffffffff89811660248301528316906391d1485490604401602060405180830381865afa158015610295573d6000803e3d6000fd5b505050506040513d601f19601f820116820180604052508101906102b99190610495565b9350831561030f57818782815181106102d4576102d461047f565b602002602001019073ffffffffffffffffffffffffffffffffffffffff16908173ffffffffffffffffffffffffffffffffffffffff16815250505b61031a8160016104b7565b9050610127565b505050505050949350505050565b803573ffffffffffffffffffffffffffffffffffffffff8116811461035357600080fd5b919050565b60006020828403121561036a57600080fd5b6103738261032f565b9392505050565b6000806000806060858703121561039057600080fd5b843567ffffffffffffffff808211156103a857600080fd5b818701915087601f8301126103bc57600080fd5b8135818111156103cb57600080fd5b8860208260051b85010111156103e057600080fd5b6020928301965094506103f6918701905061032f565b91506104046040860161032f565b905092959194509250565b6020808252825182820181905260009190848201906040850190845b8181101561045d57835173ffffffffffffffffffffffffffffffffffffffff168352928401929184019160010161042b565b50909695505050505050565b634e487b7160e01b600052604160045260246000fd5b634e487b7160e01b600052603260045260246000fd5b6000602082840312156104a757600080fd5b8151801515811461037357600080fd5b808201808211156104d857634e487b7160e01b600052601160045260246000fd5b9291505056fea2646970667358221220e75a41af34021db9a75d45e267f09db1f0becaf835cb9cca392b625f3971aae364736f6c63430008120033",
  "linkReferences": {},
  "deployedLinkReferences": {}
}