{
  "_format": "hh-sol-artifact-1",
  "contractName": "IntentxExecutorUpgradeable",
  "sourceName": "contracts/IntentxExecutorUpgradeable.sol",
  "abi": [
    {
      "inputs": [],
      "stateMutability": "nonpayable",
      "type": "constructor"
    },
    {
      "anonymous": false,
      "inputs": [
        {
          "indexed": false,
          "internalType": "uint8",
          "name": "version",
          "type": "uint8"
        }
      ],
      "name": "Initialized",
      "type": "event"
    },
    {
      "anonymous": false,
      "inputs": [
        {
          "indexed": true,
          "internalType": "address",
          "name": "previousOwner",
          "type": "address"
        },
        {
          "indexed": true,
          "internalType": "address",
          "name": "newOwner",
          "type": "address"
        }
      ],
      "name": "OwnershipTransferred",
      "type": "event"
    },
    {
      "anonymous": false,
      "inputs": [
        {
          "indexed": false,
          "internalType": "address",
          "name": "account",
          "type": "address"
        }
      ],
      "name": "Paused",
      "type": "event"
    },
    {
      "anonymous": false,
      "inputs": [
        {
          "indexed": false,
          "internalType": "address",
          "name": "account",
          "type": "address"
        }
      ],
      "name": "Unpaused",
      "type": "event"
    },
    {
      "anonymous": false,
      "inputs": [
        {
          "indexed": true,
          "internalType": "address",
          "name": "keeper",
          "type": "address"
        },
        {
          "indexed": true,
          "internalType": "address",
          "name": "account",
          "type": "address"
        },
        {
          "indexed": false,
          "internalType": "bytes[]",
          "name": "_callDatas",
          "type": "bytes[]"
        }
      ],
      "name": "executed",
      "type": "event"
    },
    {
      "anonymous": false,
      "inputs": [
        {
          "indexed": true,
          "internalType": "address",
          "name": "keeper",
          "type": "address"
        }
      ],
      "name": "keeperAdded",
      "type": "event"
    },
    {
      "anonymous": false,
      "inputs": [
        {
          "indexed": true,
          "internalType": "address",
          "name": "keeper",
          "type": "address"
        }
      ],
      "name": "keeperRemoved",
      "type": "event"
    },
    {
      "inputs": [
        {
          "internalType": "address",
          "name": "account",
          "type": "address"
        },
        {
          "internalType": "bytes[]",
          "name": "_callDatas",
          "type": "bytes[]"
        }
      ],
      "name": "_call",
      "outputs": [],
      "stateMutability": "nonpayable",
      "type": "function"
    },
    {
      "inputs": [
        {
          "internalType": "address",
          "name": "_who",
          "type": "address"
        }
      ],
      "name": "addKeeper",
      "outputs": [],
      "stateMutability": "nonpayable",
      "type": "function"
    },
    {
      "inputs": [
        {
          "internalType": "address",
          "name": "account",
          "type": "address"
        }
      ],
      "name": "hasDelegated",
      "outputs": [
        {
          "internalType": "bool",
          "name": "",
          "type": "bool"
        }
      ],
      "stateMutability": "view",
      "type": "function"
    },
    {
      "inputs": [
        {
          "internalType": "address",
          "name": "_multiAccount",
          "type": "address"
        }
      ],
      "name": "initialize",
      "outputs": [],
      "stateMutability": "nonpayable",
      "type": "function"
    },
    {
      "inputs": [
        {
          "internalType": "address",
          "name": "",
          "type": "address"
        }
      ],
      "name": "isKeeper",
      "outputs": [
        {
          "internalType": "bool",
          "name": "",
          "type": "bool"
        }
      ],
      "stateMutability": "view",
      "type": "function"
    },
    {
      "inputs": [],
      "name": "multiAccount",
      "outputs": [
        {
          "internalType": "contract MultiAccount",
          "name": "",
          "type": "address"
        }
      ],
      "stateMutability": "view",
      "type": "function"
    },
    {
      "inputs": [],
      "name": "owner",
      "outputs": [
        {
          "internalType": "address",
          "name": "",
          "type": "address"
        }
      ],
      "stateMutability": "view",
      "type": "function"
    },
    {
      "inputs": [],
      "name": "pauseExecution",
      "outputs": [],
      "stateMutability": "nonpayable",
      "type": "function"
    },
    {
      "inputs": [],
      "name": "paused",
      "outputs": [
        {
          "internalType": "bool",
          "name": "",
          "type": "bool"
        }
      ],
      "stateMutability": "view",
      "type": "function"
    },
    {
      "inputs": [
        {
          "internalType": "address",
          "name": "_who",
          "type": "address"
        }
      ],
      "name": "removeKeeper",
      "outputs": [],
      "stateMutability": "nonpayable",
      "type": "function"
    },
    {
      "inputs": [],
      "name": "renounceOwnership",
      "outputs": [],
      "stateMutability": "nonpayable",
      "type": "function"
    },
    {
      "inputs": [],
      "name": "selector",
      "outputs": [
        {
          "internalType": "bytes4",
          "name": "",
          "type": "bytes4"
        }
      ],
      "stateMutability": "view",
      "type": "function"
    },
    {
      "inputs": [
        {
          "internalType": "address",
          "name": "newOwner",
          "type": "address"
        }
      ],
      "name": "transferOwnership",
      "outputs": [],
      "stateMutability": "nonpayable",
      "type": "function"
    },
    {
      "inputs": [],
      "name": "unpauseExecution",
      "outputs": [],
      "stateMutability": "nonpayable",
      "type": "function"
    }
  ],
  "bytecode": "0x6101006040526041608081815290610fe760a03980519060200120609760146101000a81548163ffffffff021916908360e01c021790555034801561004357600080fd5b5061004c610051565b610110565b600054610100900460ff16156100bd5760405162461bcd60e51b815260206004820152602760248201527f496e697469616c697a61626c653a20636f6e747261637420697320696e697469604482015266616c697a696e6760c81b606482015260840160405180910390fd5b60005460ff9081161461010e576000805460ff191660ff9081179091556040519081527f7f26b83ff96e1f2b6a682f133852f6798a09c465da95921460cefb38474024989060200160405180910390a15b565b610ec88061011f6000396000f3fe608060405234801561001057600080fd5b50600436106100ea5760003560e01c80638da5cb5b1161008c578063bd367d8e11610066578063bd367d8e146101b9578063c4d66de8146101cc578063ea3d508a146101df578063f2fde38b1461023557600080fd5b80638da5cb5b1461016e57806390ae933714610193578063b70a73b0146101a657600080fd5b80635c975abb116100c85780635c975abb1461011f5780636ba42aaa1461013b578063715018a61461015e578063859806cc1461016657600080fd5b806314ae9f2e146100ef5780631f041ec6146101045780634032b72b1461010c575b600080fd5b6101026100fd366004610c01565b610248565b005b610102610306565b61010261011a366004610c01565b610318565b60655460ff165b60405190151581526020015b60405180910390f35b610126610149366004610c01565b60986020526000908152604090205460ff1681565b6101026103fb565b61010261040d565b6033546001600160a01b03165b6040516001600160a01b039091168152602001610132565b6101266101a1366004610c01565b61041d565b60975461017b906001600160a01b031681565b6101026101c7366004610c83565b6104f3565b6101026101da366004610c01565b61062c565b6097546102049074010000000000000000000000000000000000000000900460e01b81565b6040517fffffffff000000000000000000000000000000000000000000000000000000009091168152602001610132565b610102610243366004610c01565b610788565b610250610818565b6001600160a01b03811660009081526098602052604090205460ff166102bd5760405162461bcd60e51b815260206004820152601c60248201527f5468697320616464726573732069736e27742061206b65657065722e0000000060448201526064015b60405180910390fd5b6001600160a01b038116600081815260986020526040808220805460ff19169055517f3432fdb95490c1eb51a3dec1d387050691e75694ce0da51d8b9a3a20e158ac779190a250565b61030e610818565b610316610872565b565b610320610818565b6001600160a01b03811660009081526098602052604090205460ff16156103af5760405162461bcd60e51b815260206004820152602160248201527f54686973206164647265737320697320616c72656164792061206b656570657260448201527f2e0000000000000000000000000000000000000000000000000000000000000060648201526084016102b4565b6001600160a01b038116600081815260986020526040808220805460ff19166001179055517faa189952d1f77049b9948cfc6db230ce8dbbafc83f4dbcf01f16a202bc5cfdd49190a250565b610403610818565b61031660006108cc565b610415610818565b610316610936565b6097546040517fb9c9b3f20000000000000000000000000000000000000000000000000000000081526001600160a01b0383811660048301523060248301527fffffffff0000000000000000000000000000000000000000000000000000000074010000000000000000000000000000000000000000840460e01b166044830152600092169063b9c9b3f290606401602060405180830381865afa1580156104c9573d6000803e3d6000fd5b505050506040513d601f19601f820116820180604052508101906104ed9190610dae565b92915050565b3360009081526098602052604090205460ff166105525760405162461bcd60e51b815260206004820152601b60248201527f5468697320616464726573732069736e27742061206b6565706572000000000060448201526064016102b4565b61055a61096f565b6097546040517fbd367d8e0000000000000000000000000000000000000000000000000000000081526001600160a01b039091169063bd367d8e906105a59085908590600401610e55565b600060405180830381600087803b1580156105bf57600080fd5b505af11580156105d3573d6000803e3d6000fd5b50505050816001600160a01b03166105e83390565b6001600160a01b03167f0ca3106c6105c4bc8d63601e43325f0f1bf9f13a3af8aa1d4d812d358d473c70836040516106209190610e7f565b60405180910390a35050565b600054610100900460ff161580801561064c5750600054600160ff909116105b806106665750303b158015610666575060005460ff166001145b6106d85760405162461bcd60e51b815260206004820152602e60248201527f496e697469616c697a61626c653a20636f6e747261637420697320616c72656160448201527f647920696e697469616c697a656400000000000000000000000000000000000060648201526084016102b4565b6000805460ff1916600117905580156106fb576000805461ff0019166101001790555b6107036109c2565b61070b610a35565b609780547fffffffffffffffffffffffff0000000000000000000000000000000000000000166001600160a01b0384161790558015610784576000805461ff0019169055604051600181527f7f26b83ff96e1f2b6a682f133852f6798a09c465da95921460cefb38474024989060200160405180910390a15b5050565b610790610818565b6001600160a01b03811661080c5760405162461bcd60e51b815260206004820152602660248201527f4f776e61626c653a206e6577206f776e657220697320746865207a65726f206160448201527f646472657373000000000000000000000000000000000000000000000000000060648201526084016102b4565b610815816108cc565b50565b6033546001600160a01b031633146103165760405162461bcd60e51b815260206004820181905260248201527f4f776e61626c653a2063616c6c6572206973206e6f7420746865206f776e657260448201526064016102b4565b61087a61096f565b6065805460ff191660011790557f62e78cea01bee320cd4e420270b5ea74000d11b0c9f74754ebdbfc544b05a2586108af3390565b6040516001600160a01b03909116815260200160405180910390a1565b603380546001600160a01b038381167fffffffffffffffffffffffff0000000000000000000000000000000000000000831681179093556040519116919082907f8be0079c531659141344cd1fd0a4f28419497f9722a3daafe3b4186f6b6457e090600090a35050565b61093e610aa8565b6065805460ff191690557f5db9ee0a495bf2e6ff9c91a7834c1ba4fdd244a5e8aa4e537bd38aeae4b073aa336108af565b60655460ff16156103165760405162461bcd60e51b815260206004820152601060248201527f5061757361626c653a207061757365640000000000000000000000000000000060448201526064016102b4565b600054610100900460ff16610a2d5760405162461bcd60e51b815260206004820152602b60248201527f496e697469616c697a61626c653a20636f6e7472616374206973206e6f74206960448201526a6e697469616c697a696e6760a81b60648201526084016102b4565b610316610afa565b600054610100900460ff16610aa05760405162461bcd60e51b815260206004820152602b60248201527f496e697469616c697a61626c653a20636f6e7472616374206973206e6f74206960448201526a6e697469616c697a696e6760a81b60648201526084016102b4565b610316610b6e565b60655460ff166103165760405162461bcd60e51b815260206004820152601460248201527f5061757361626c653a206e6f742070617573656400000000000000000000000060448201526064016102b4565b600054610100900460ff16610b655760405162461bcd60e51b815260206004820152602b60248201527f496e697469616c697a61626c653a20636f6e7472616374206973206e6f74206960448201526a6e697469616c697a696e6760a81b60648201526084016102b4565b610316336108cc565b600054610100900460ff16610bd95760405162461bcd60e51b815260206004820152602b60248201527f496e697469616c697a61626c653a20636f6e7472616374206973206e6f74206960448201526a6e697469616c697a696e6760a81b60648201526084016102b4565b6065805460ff19169055565b80356001600160a01b0381168114610bfc57600080fd5b919050565b600060208284031215610c1357600080fd5b610c1c82610be5565b9392505050565b7f4e487b7100000000000000000000000000000000000000000000000000000000600052604160045260246000fd5b604051601f8201601f1916810167ffffffffffffffff81118282101715610c7b57610c7b610c23565b604052919050565b6000806040808486031215610c9757600080fd5b610ca084610be5565b925060208085013567ffffffffffffffff80821115610cbe57600080fd5b8187019150601f8881840112610cd357600080fd5b823582811115610ce557610ce5610c23565b8060051b610cf4868201610c52565b918252848101860191868101908c841115610d0e57600080fd5b87870192505b83831015610d9b57823586811115610d2c5760008081fd5b8701603f81018e13610d3e5760008081fd5b8881013587811115610d5257610d52610c23565b610d638a601f198984011601610c52565b8181528f8c838501011115610d785760008081fd5b818c84018c83013760009181018b01919091528352509187019190870190610d14565b8099505050505050505050509250929050565b600060208284031215610dc057600080fd5b81518015158114610c1c57600080fd5b600081518084526020808501808196508360051b810191508286016000805b86811015610e47578385038a5282518051808752835b81811015610e20578281018901518882018a01528801610e05565b5086810188018490529a87019a601f01601f19169095018601945091850191600101610def565b509298975050505050505050565b6001600160a01b0383168152604060208201526000610e776040830184610dd0565b949350505050565b602081526000610c1c6020830184610dd056fea2646970667358221220261640e143f68c6358c24acc9de81a60b9b750b21bc53576f369d0b9657440e764736f6c6343000813003372657175657374546f436c6f7365506f736974696f6e2875696e743235362c75696e743235362c75696e743235362c4f72646572547970652c75696e7432353629",
  "linkReferences": {},
  "deployedLinkReferences": {}
}