{
  "_format": "hh-sol-artifact-1",
  "contractName": "APIHelper",
  "sourceName": "contracts/APIHelper.sol",
  "abi": [
    {
      "inputs": [],
      "stateMutability": "nonpayable",
      "type": "constructor"
    },
    {
      "anonymous": false,
      "inputs": [
        {
          "indexed": false,
          "internalType": "uint8",
          "name": "version",
          "type": "uint8"
        }
      ],
      "name": "Initialized",
      "type": "event"
    },
    {
      "inputs": [
        {
          "internalType": "address[]",
          "name": "addresses",
          "type": "address[]"
        },
        {
          "internalType": "address",
          "name": "_contract",
          "type": "address"
        }
      ],
      "name": "claimInfo",
      "outputs": [
        {
          "internalType": "uint256[]",
          "name": "amountClaimable",
          "type": "uint256[]"
        },
        {
          "internalType": "uint256[]",
          "name": "amountClaimed",
          "type": "uint256[]"
        },
        {
          "internalType": "uint256[]",
          "name": "amountLeft",
          "type": "uint256[]"
        }
      ],
      "stateMutability": "view",
      "type": "function"
    },
    {
      "inputs": [
        {
          "internalType": "contract IStakedINTX",
          "name": "xIntx",
          "type": "address"
        }
      ],
      "name": "getTotalSupply",
      "outputs": [
        {
          "internalType": "uint256",
          "name": "_totalSupply",
          "type": "uint256"
        }
      ],
      "stateMutability": "view",
      "type": "function"
    },
    {
      "inputs": [
        {
          "internalType": "contract IStakedINTX",
          "name": "xIntx",
          "type": "address"
        }
      ],
      "name": "getTotalXIntxBalance",
      "outputs": [
        {
          "internalType": "uint256",
          "name": "_xIntxTotalBalance",
          "type": "uint256"
        }
      ],
      "stateMutability": "view",
      "type": "function"
    },
    {
      "inputs": [],
      "name": "initialize",
      "outputs": [],
      "stateMutability": "nonpayable",
      "type": "function"
    }
  ],
  "bytecode": "0x608060405234801561001057600080fd5b5061001961001e565b6100dd565b600054610100900460ff161561008a5760405162461bcd60e51b815260206004820152602760248201527f496e697469616c697a61626c653a20636f6e747261637420697320696e697469604482015266616c697a696e6760c81b606482015260840160405180910390fd5b60005460ff908116146100db576000805460ff191660ff9081179091556040519081527f7f26b83ff96e1f2b6a682f133852f6798a09c465da95921460cefb38474024989060200160405180910390a15b565b6109af806100ec6000396000f3fe608060405234801561001057600080fd5b506004361061004c5760003560e01c80631281b68e1461005157806368da10ae1461007c5780638129fc1c1461009d578063b81abc2c146100a7575b600080fd5b61006461005f366004610775565b6100ba565b60405161007393929190610836565b60405180910390f35b61008f61008a366004610879565b610379565b604051908152602001610073565b6100a56104c9565b005b61008f6100b5366004610879565b61061d565b60608080848067ffffffffffffffff8111156100d8576100d861089d565b604051908082528060200260200182016040528015610101578160200160208202803683370190505b5093508067ffffffffffffffff81111561011d5761011d61089d565b604051908082528060200260200182016040528015610146578160200160208202803683370190505b5092508067ffffffffffffffff8111156101625761016261089d565b60405190808252806020026020018201604052801561018b578160200160208202803683370190505b509150846000808080805b86811015610369578c8c828181106101b0576101b06108b3565b90506020020160208101906101c59190610879565b6040517f8988504900000000000000000000000000000000000000000000000000000000815273ffffffffffffffffffffffffffffffffffffffff808316600483015291935090871690638988504990602401602060405180830381865afa158015610235573d6000803e3d6000fd5b505050506040513d601f19601f8201168201806040525081019061025991906108c9565b6040517f04e8690300000000000000000000000000000000000000000000000000000000815273ffffffffffffffffffffffffffffffffffffffff8481166004830152919650908716906304e8690390602401602060405180830381865afa1580156102c9573d6000803e3d6000fd5b505050506040513d601f19601f820116820180604052508101906102ed91906108c9565b93506102f984866108f8565b9250848a828151811061030e5761030e6108b3565b6020026020010181815250508389828151811061032d5761032d6108b3565b6020026020010181815250508288828151811061034c5761034c6108b3565b6020908102919091010152610362816001610911565b9050610196565b5050505050505093509350939050565b6000808273ffffffffffffffffffffffffffffffffffffffff1663f84ddf0b6040518163ffffffff1660e01b8152600401602060405180830381865afa1580156103c7573d6000803e3d6000fd5b505050506040513d601f19601f820116820180604052508101906103eb91906108c9565b905060005b8181116104c2576040517f6352211e0000000000000000000000000000000000000000000000000000000081526004810182905273ffffffffffffffffffffffffffffffffffffffff851690636352211e90602401602060405180830381865afa92505050801561049c575060408051601f3d9081017fffffffffffffffffffffffffffffffffffffffffffffffffffffffffffffffe016820190925261049991810190610924565b60015b156104b05750826104ac81610941565b9350505b806104ba81610941565b9150506103f0565b5050919050565b600054610100900460ff16158080156104e95750600054600160ff909116105b806105035750303b158015610503575060005460ff166001145b610593576040517f08c379a000000000000000000000000000000000000000000000000000000000815260206004820152602e60248201527f496e697469616c697a61626c653a20636f6e747261637420697320616c72656160448201527f647920696e697469616c697a6564000000000000000000000000000000000000606482015260840160405180910390fd5b600080547fffffffffffffffffffffffffffffffffffffffffffffffffffffffffffffff0016600117905580156105d4576000805461ff0019166101001790555b801561061a576000805461ff0019169055604051600181527f7f26b83ff96e1f2b6a682f133852f6798a09c465da95921460cefb38474024989060200160405180910390a15b50565b6000808273ffffffffffffffffffffffffffffffffffffffff1663f84ddf0b6040518163ffffffff1660e01b8152600401602060405180830381865afa15801561066b573d6000803e3d6000fd5b505050506040513d601f19601f8201168201806040525081019061068f91906108c9565b90506000805b82811161074b576040517fa1c95e5a0000000000000000000000000000000000000000000000000000000081526004810182905273ffffffffffffffffffffffffffffffffffffffff86169063a1c95e5a90602401602060405180830381865afa158015610707573d6000803e3d6000fd5b505050506040513d601f19601f8201168201806040525081019061072b91906108c9565b91506107378285610911565b93508061074381610941565b915050610695565b505050919050565b73ffffffffffffffffffffffffffffffffffffffff8116811461061a57600080fd5b60008060006040848603121561078a57600080fd5b833567ffffffffffffffff808211156107a257600080fd5b818601915086601f8301126107b657600080fd5b8135818111156107c557600080fd5b8760208260051b85010111156107da57600080fd5b602092830195509350508401356107f081610753565b809150509250925092565b600081518084526020808501945080840160005b8381101561082b5781518752958201959082019060010161080f565b509495945050505050565b60608152600061084960608301866107fb565b828103602084015261085b81866107fb565b9050828103604084015261086f81856107fb565b9695505050505050565b60006020828403121561088b57600080fd5b813561089681610753565b9392505050565b634e487b7160e01b600052604160045260246000fd5b634e487b7160e01b600052603260045260246000fd5b6000602082840312156108db57600080fd5b5051919050565b634e487b7160e01b600052601160045260246000fd5b8181038181111561090b5761090b6108e2565b92915050565b8082018082111561090b5761090b6108e2565b60006020828403121561093657600080fd5b815161089681610753565b60007fffffffffffffffffffffffffffffffffffffffffffffffffffffffffffffffff8203610972576109726108e2565b506001019056fea264697066735822122068867202d6470343692e5256e37cf4982859f4d205df76519a0072a1190cb39564736f6c63430008120033",
  "linkReferences": {},
  "deployedLinkReferences": {}
}