{
  "_format": "hh-sol-artifact-1",
  "contractName": "APIHelper",
  "sourceName": "contracts/APIHelper.sol",
  "abi": [
    {
      "inputs": [],
      "stateMutability": "nonpayable",
      "type": "constructor"
    },
    {
      "anonymous": false,
      "inputs": [
        {
          "indexed": false,
          "internalType": "uint8",
          "name": "version",
          "type": "uint8"
        }
      ],
      "name": "Initialized",
      "type": "event"
    },
    {
      "inputs": [
        {
          "internalType": "address[]",
          "name": "addresses",
          "type": "address[]"
        }
      ],
      "name": "claimInfo",
      "outputs": [
        {
          "internalType": "uint256[]",
          "name": "amountClaimable",
          "type": "uint256[]"
        },
        {
          "internalType": "uint256[]",
          "name": "amountClaimed",
          "type": "uint256[]"
        },
        {
          "internalType": "uint256[]",
          "name": "amountLeft",
          "type": "uint256[]"
        }
      ],
      "stateMutability": "view",
      "type": "function"
    },
    {
      "inputs": [],
      "name": "initialize",
      "outputs": [],
      "stateMutability": "nonpayable",
      "type": "function"
    }
  ],
  "bytecode": "0x608060405234801561001057600080fd5b5061001961001e565b6100dd565b600054610100900460ff161561008a5760405162461bcd60e51b815260206004820152602760248201527f496e697469616c697a61626c653a20636f6e747261637420697320696e697469604482015266616c697a696e6760c81b606482015260840160405180910390fd5b60005460ff908116146100db576000805460ff191660ff9081179091556040519081527f7f26b83ff96e1f2b6a682f133852f6798a09c465da95921460cefb38474024989060200160405180910390a15b565b610682806100ec6000396000f3fe608060405234801561001057600080fd5b50600436106100365760003560e01c80638129fc1c1461003b578063f92c300814610045575b600080fd5b610043610070565b005b610058610053366004610495565b6101c4565b60405161006793929190610545565b60405180910390f35b600054610100900460ff16158080156100905750600054600160ff909116105b806100aa5750303b1580156100aa575060005460ff166001145b61013a576040517f08c379a000000000000000000000000000000000000000000000000000000000815260206004820152602e60248201527f496e697469616c697a61626c653a20636f6e747261637420697320616c72656160448201527f647920696e697469616c697a6564000000000000000000000000000000000000606482015260840160405180910390fd5b600080547fffffffffffffffffffffffffffffffffffffffffffffffffffffffffffffff00166001179055801561017b576000805461ff0019166101001790555b80156101c1576000805461ff0019169055604051600181527f7f26b83ff96e1f2b6a682f133852f6798a09c465da95921460cefb38474024989060200160405180910390a15b50565b60608080838067ffffffffffffffff8111156101e2576101e2610588565b60405190808252806020026020018201604052801561020b578160200160208202803683370190505b5093508067ffffffffffffffff81111561022757610227610588565b604051908082528060200260200182016040528015610250578160200160208202803683370190505b5092508067ffffffffffffffff81111561026c5761026c610588565b604051908082528060200260200182016040528015610295578160200160208202803683370190505b50915073ec9190e9d88d18aabc5557296b3fdef137e47d226000808080805b86811015610487578b8b828181106102ce576102ce61059e565b90506020020160208101906102e391906105b4565b6040517f8988504900000000000000000000000000000000000000000000000000000000815273ffffffffffffffffffffffffffffffffffffffff808316600483015291935090871690638988504990602401602060405180830381865afa158015610353573d6000803e3d6000fd5b505050506040513d601f19601f8201168201806040525081019061037791906105f1565b6040517f04e8690300000000000000000000000000000000000000000000000000000000815273ffffffffffffffffffffffffffffffffffffffff8481166004830152919650908716906304e8690390602401602060405180830381865afa1580156103e7573d6000803e3d6000fd5b505050506040513d601f19601f8201168201806040525081019061040b91906105f1565b93506104178486610620565b9250848a828151811061042c5761042c61059e565b6020026020010181815250508389828151811061044b5761044b61059e565b6020026020010181815250508288828151811061046a5761046a61059e565b6020908102919091010152610480816001610639565b90506102b4565b505050505050509250925092565b600080602083850312156104a857600080fd5b823567ffffffffffffffff808211156104c057600080fd5b818501915085601f8301126104d457600080fd5b8135818111156104e357600080fd5b8660208260051b85010111156104f857600080fd5b60209290920196919550909350505050565b600081518084526020808501945080840160005b8381101561053a5781518752958201959082019060010161051e565b509495945050505050565b606081526000610558606083018661050a565b828103602084015261056a818661050a565b9050828103604084015261057e818561050a565b9695505050505050565b634e487b7160e01b600052604160045260246000fd5b634e487b7160e01b600052603260045260246000fd5b6000602082840312156105c657600080fd5b813573ffffffffffffffffffffffffffffffffffffffff811681146105ea57600080fd5b9392505050565b60006020828403121561060357600080fd5b5051919050565b634e487b7160e01b600052601160045260246000fd5b818103818111156106335761063361060a565b92915050565b808201808211156106335761063361060a56fea26469706673582212206627c4184b85c0c4ea58d870495b6b39413bb09639b4b119342fe20d0aae995064736f6c63430008120033",
  "linkReferences": {},
  "deployedLinkReferences": {}
}