{
  "_format": "hh-sol-artifact-1",
  "contractName": "APIHelper",
  "sourceName": "contracts/APIHelper.sol",
  "abi": [
    {
      "inputs": [],
      "stateMutability": "nonpayable",
      "type": "constructor"
    },
    {
      "anonymous": false,
      "inputs": [
        {
          "indexed": false,
          "internalType": "uint8",
          "name": "version",
          "type": "uint8"
        }
      ],
      "name": "Initialized",
      "type": "event"
    },
    {
      "inputs": [
        {
          "internalType": "address[]",
          "name": "addresses",
          "type": "address[]"
        },
        {
          "internalType": "address",
          "name": "_contract",
          "type": "address"
        }
      ],
      "name": "claimInfo",
      "outputs": [
        {
          "internalType": "uint256[]",
          "name": "amountClaimable",
          "type": "uint256[]"
        },
        {
          "internalType": "uint256[]",
          "name": "amountClaimed",
          "type": "uint256[]"
        },
        {
          "internalType": "uint256[]",
          "name": "amountLeft",
          "type": "uint256[]"
        }
      ],
      "stateMutability": "view",
      "type": "function"
    },
    {
      "inputs": [],
      "name": "initialize",
      "outputs": [],
      "stateMutability": "nonpayable",
      "type": "function"
    }
  ],
  "bytecode": "0x608060405234801561001057600080fd5b5061001961001e565b6100dd565b600054610100900460ff161561008a5760405162461bcd60e51b815260206004820152602760248201527f496e697469616c697a61626c653a20636f6e747261637420697320696e697469604482015266616c697a696e6760c81b606482015260840160405180910390fd5b60005460ff908116146100db576000805460ff191660ff9081179091556040519081527f7f26b83ff96e1f2b6a682f133852f6798a09c465da95921460cefb38474024989060200160405180910390a15b565b61068d806100ec6000396000f3fe608060405234801561001057600080fd5b50600436106100365760003560e01c80631281b68e1461003b5780638129fc1c14610066575b600080fd5b61004e6100493660046104ac565b610070565b60405161005d9392919061056b565b60405180910390f35b61006e61032f565b005b60608080848067ffffffffffffffff81111561008e5761008e6105ae565b6040519080825280602002602001820160405280156100b7578160200160208202803683370190505b5093508067ffffffffffffffff8111156100d3576100d36105ae565b6040519080825280602002602001820160405280156100fc578160200160208202803683370190505b5092508067ffffffffffffffff811115610118576101186105ae565b604051908082528060200260200182016040528015610141578160200160208202803683370190505b509150846000808080805b8681101561031f578c8c82818110610166576101666105c4565b905060200201602081019061017b91906105da565b6040517f8988504900000000000000000000000000000000000000000000000000000000815273ffffffffffffffffffffffffffffffffffffffff808316600483015291935090871690638988504990602401602060405180830381865afa1580156101eb573d6000803e3d6000fd5b505050506040513d601f19601f8201168201806040525081019061020f91906105fc565b6040517f04e8690300000000000000000000000000000000000000000000000000000000815273ffffffffffffffffffffffffffffffffffffffff8481166004830152919650908716906304e8690390602401602060405180830381865afa15801561027f573d6000803e3d6000fd5b505050506040513d601f19601f820116820180604052508101906102a391906105fc565b93506102af848661062b565b9250848a82815181106102c4576102c46105c4565b602002602001018181525050838982815181106102e3576102e36105c4565b60200260200101818152505082888281518110610302576103026105c4565b6020908102919091010152610318816001610644565b905061014c565b5050505050505093509350939050565b600054610100900460ff161580801561034f5750600054600160ff909116105b806103695750303b158015610369575060005460ff166001145b6103f9576040517f08c379a000000000000000000000000000000000000000000000000000000000815260206004820152602e60248201527f496e697469616c697a61626c653a20636f6e747261637420697320616c72656160448201527f647920696e697469616c697a6564000000000000000000000000000000000000606482015260840160405180910390fd5b600080547fffffffffffffffffffffffffffffffffffffffffffffffffffffffffffffff00166001179055801561043a576000805461ff0019166101001790555b8015610480576000805461ff0019169055604051600181527f7f26b83ff96e1f2b6a682f133852f6798a09c465da95921460cefb38474024989060200160405180910390a15b50565b803573ffffffffffffffffffffffffffffffffffffffff811681146104a757600080fd5b919050565b6000806000604084860312156104c157600080fd5b833567ffffffffffffffff808211156104d957600080fd5b818601915086601f8301126104ed57600080fd5b8135818111156104fc57600080fd5b8760208260051b850101111561051157600080fd5b6020928301955093506105279186019050610483565b90509250925092565b600081518084526020808501945080840160005b8381101561056057815187529582019590820190600101610544565b509495945050505050565b60608152600061057e6060830186610530565b82810360208401526105908186610530565b905082810360408401526105a48185610530565b9695505050505050565b634e487b7160e01b600052604160045260246000fd5b634e487b7160e01b600052603260045260246000fd5b6000602082840312156105ec57600080fd5b6105f582610483565b9392505050565b60006020828403121561060e57600080fd5b5051919050565b634e487b7160e01b600052601160045260246000fd5b8181038181111561063e5761063e610615565b92915050565b8082018082111561063e5761063e61061556fea2646970667358221220ad725d33b0adc663aca36b65a3b442858e34dfd90d3c928d01f9f0d2409ee70664736f6c63430008120033",
  "linkReferences": {},
  "deployedLinkReferences": {}
}