{
  "_format": "hh-sol-artifact-1",
  "contractName": "IntentXFeeRebate",
  "sourceName": "contracts/IntentxFeeRebate.sol",
  "abi": [
    {
      "inputs": [],
      "name": "DayNotFinished",
      "type": "error"
    },
    {
      "inputs": [],
      "name": "InvalidSignature",
      "type": "error"
    },
    {
      "anonymous": false,
      "inputs": [
        {
          "indexed": true,
          "internalType": "address",
          "name": "user",
          "type": "address"
        },
        {
          "indexed": false,
          "internalType": "uint256",
          "name": "timestamp",
          "type": "uint256"
        },
        {
          "indexed": false,
          "internalType": "uint256",
          "name": "amount",
          "type": "uint256"
        }
      ],
      "name": "Claim",
      "type": "event"
    },
    {
      "anonymous": false,
      "inputs": [
        {
          "indexed": false,
          "internalType": "uint8",
          "name": "version",
          "type": "uint8"
        }
      ],
      "name": "Initialized",
      "type": "event"
    },
    {
      "anonymous": false,
      "inputs": [
        {
          "indexed": true,
          "internalType": "address",
          "name": "previousOwner",
          "type": "address"
        },
        {
          "indexed": true,
          "internalType": "address",
          "name": "newOwner",
          "type": "address"
        }
      ],
      "name": "OwnershipTransferred",
      "type": "event"
    },
    {
      "anonymous": false,
      "inputs": [
        {
          "indexed": false,
          "internalType": "uint256",
          "name": "timestamp",
          "type": "uint256"
        },
        {
          "indexed": false,
          "internalType": "uint256",
          "name": "amount",
          "type": "uint256"
        }
      ],
      "name": "Reward",
      "type": "event"
    },
    {
      "anonymous": false,
      "inputs": [
        {
          "indexed": true,
          "internalType": "address",
          "name": "intentxTrustedAddress",
          "type": "address"
        }
      ],
      "name": "SetIntentXTrustedAddress",
      "type": "event"
    },
    {
      "inputs": [
        {
          "internalType": "address payable",
          "name": "_user",
          "type": "address"
        },
        {
          "internalType": "uint256",
          "name": "_amountMnt",
          "type": "uint256"
        },
        {
          "internalType": "uint256",
          "name": "_timestamp",
          "type": "uint256"
        },
        {
          "internalType": "bytes",
          "name": "signature",
          "type": "bytes"
        }
      ],
      "name": "claim",
      "outputs": [],
      "stateMutability": "nonpayable",
      "type": "function"
    },
    {
      "inputs": [
        {
          "internalType": "address",
          "name": "",
          "type": "address"
        }
      ],
      "name": "claimed",
      "outputs": [
        {
          "internalType": "uint256",
          "name": "",
          "type": "uint256"
        }
      ],
      "stateMutability": "view",
      "type": "function"
    },
    {
      "inputs": [
        {
          "internalType": "uint256",
          "name": "_amount",
          "type": "uint256"
        }
      ],
      "name": "fill",
      "outputs": [],
      "stateMutability": "payable",
      "type": "function"
    },
    {
      "inputs": [
        {
          "internalType": "address[]",
          "name": "addresses",
          "type": "address[]"
        }
      ],
      "name": "getClaimedBalances",
      "outputs": [
        {
          "internalType": "uint256[]",
          "name": "claimedAmounts",
          "type": "uint256[]"
        }
      ],
      "stateMutability": "view",
      "type": "function"
    },
    {
      "inputs": [
        {
          "internalType": "bytes32",
          "name": "_messageHash",
          "type": "bytes32"
        }
      ],
      "name": "getEthSignedMessageHash",
      "outputs": [
        {
          "internalType": "bytes32",
          "name": "",
          "type": "bytes32"
        }
      ],
      "stateMutability": "pure",
      "type": "function"
    },
    {
      "inputs": [
        {
          "internalType": "address",
          "name": "_user",
          "type": "address"
        },
        {
          "internalType": "uint256",
          "name": "_amountIntentX",
          "type": "uint256"
        },
        {
          "internalType": "uint256",
          "name": "_timestamp",
          "type": "uint256"
        }
      ],
      "name": "getMessageHash",
      "outputs": [
        {
          "internalType": "bytes32",
          "name": "",
          "type": "bytes32"
        }
      ],
      "stateMutability": "pure",
      "type": "function"
    },
    {
      "inputs": [
        {
          "internalType": "address",
          "name": "_intentxTrustedAddress",
          "type": "address"
        }
      ],
      "name": "initialize",
      "outputs": [],
      "stateMutability": "nonpayable",
      "type": "function"
    },
    {
      "inputs": [],
      "name": "intentxTrustedAddress",
      "outputs": [
        {
          "internalType": "address",
          "name": "",
          "type": "address"
        }
      ],
      "stateMutability": "view",
      "type": "function"
    },
    {
      "inputs": [],
      "name": "owner",
      "outputs": [
        {
          "internalType": "address",
          "name": "",
          "type": "address"
        }
      ],
      "stateMutability": "view",
      "type": "function"
    },
    {
      "inputs": [
        {
          "internalType": "bytes32",
          "name": "_ethSignedMessageHash",
          "type": "bytes32"
        },
        {
          "internalType": "bytes",
          "name": "_signature",
          "type": "bytes"
        }
      ],
      "name": "recoverSigner",
      "outputs": [
        {
          "internalType": "address",
          "name": "",
          "type": "address"
        }
      ],
      "stateMutability": "pure",
      "type": "function"
    },
    {
      "inputs": [],
      "name": "renounceOwnership",
      "outputs": [],
      "stateMutability": "nonpayable",
      "type": "function"
    },
    {
      "inputs": [
        {
          "internalType": "address",
          "name": "_intentxTrustedAddress",
          "type": "address"
        }
      ],
      "name": "setIntentxTrustedAddress",
      "outputs": [],
      "stateMutability": "nonpayable",
      "type": "function"
    },
    {
      "inputs": [
        {
          "internalType": "bytes",
          "name": "sig",
          "type": "bytes"
        }
      ],
      "name": "splitSignature",
      "outputs": [
        {
          "internalType": "bytes32",
          "name": "r",
          "type": "bytes32"
        },
        {
          "internalType": "bytes32",
          "name": "s",
          "type": "bytes32"
        },
        {
          "internalType": "uint8",
          "name": "v",
          "type": "uint8"
        }
      ],
      "stateMutability": "pure",
      "type": "function"
    },
    {
      "inputs": [],
      "name": "startTimestamp",
      "outputs": [
        {
          "internalType": "uint256",
          "name": "",
          "type": "uint256"
        }
      ],
      "stateMutability": "view",
      "type": "function"
    },
    {
      "inputs": [],
      "name": "totalReward",
      "outputs": [
        {
          "internalType": "uint256",
          "name": "",
          "type": "uint256"
        }
      ],
      "stateMutability": "view",
      "type": "function"
    },
    {
      "inputs": [
        {
          "internalType": "address",
          "name": "newOwner",
          "type": "address"
        }
      ],
      "name": "transferOwnership",
      "outputs": [],
      "stateMutability": "nonpayable",
      "type": "function"
    }
  ],
  "bytecode": "0x608060405234801561001057600080fd5b50611152806100206000396000f3fe6080604052600436106100f35760003560e01c8063a7bb58031161008a578063d7a105ec11610059578063d7a105ec146102ff578063e6fd48bc1461031f578063f2fde38b14610335578063fa5408011461035557600080fd5b8063a7bb58031461020a578063c4d66de814610248578063c884ef8314610268578063d2b0737b1461029557600080fd5b80637fa66021116100c65780637fa660211461016b5780638da5cb5b1461019857806396b18c12146101ca57806397aba7f9146101ea57600080fd5b80632ada8a32146100f85780633fda53891461011a578063715018a61461012d578063750142e614610142575b600080fd5b34801561010457600080fd5b50610118610113366004610e80565b6103c3565b005b610118610128366004610ee3565b6106e5565b34801561013957600080fd5b50610118610787565b34801561014e57600080fd5b5061015860675481565b6040519081526020015b60405180910390f35b34801561017757600080fd5b5061018b610186366004610efc565b61079b565b6040516101629190610f71565b3480156101a457600080fd5b506033546001600160a01b03165b6040516001600160a01b039091168152602001610162565b3480156101d657600080fd5b506101186101e5366004610fb5565b610871565b3480156101f657600080fd5b506101b2610205366004610fd9565b6108d0565b34801561021657600080fd5b5061022a610225366004611020565b610950565b60408051938452602084019290925260ff1690820152606001610162565b34801561025457600080fd5b50610118610263366004610fb5565b6109c4565b34801561027457600080fd5b50610158610283366004610fb5565b60686020526000908152604090205481565b3480156102a157600080fd5b506101586102b036600461105d565b6040516bffffffffffffffffffffffff19606085901b16602082015260348101839052605481018290526000906074016040516020818303038152906040528051906020012090509392505050565b34801561030b57600080fd5b506065546101b2906001600160a01b031681565b34801561032b57600080fd5b5061015860665481565b34801561034157600080fd5b50610118610350366004610fb5565b610b5b565b34801561036157600080fd5b50610158610370366004610ee3565b6040517f19457468657265756d205369676e6564204d6573736167653a0a3332000000006020820152603c8101829052600090605c01604051602081830303815290604052805190602001209050919050565b60665442101561041a5760405162461bcd60e51b815260206004820152600b60248201527f4e4f54205354415254454400000000000000000000000000000000000000000060448201526064015b60405180910390fd5b336001600160a01b038516146104725760405162461bcd60e51b815260206004820152600e60248201527f4e6f7420796f757220636c61696d0000000000000000000000000000000000006044820152606401610411565b6065546001600160a01b03166104ef5760405162461bcd60e51b8152602060048201526024808201527f496e74656e745820547275737465642041646472657373206e6f74207365742060448201527f7965742e000000000000000000000000000000000000000000000000000000006064820152608401610411565b336000908152606860205260409020548311156106df5760408051606086901b6bffffffffffffffffffffffff1916602080830191909152603482018690526054808301869052835180840390910181526074830184528051908201207f19457468657265756d205369676e6564204d6573736167653a0a333200000000609484015260b08084018290528451808503909101815260d090930190935281519101206065546001600160a01b03166105a782856108d0565b6001600160a01b0316146105fd5760405162461bcd60e51b815260206004820152601360248201527f5369676e6572203d2120547275737465642e20000000000000000000000000006044820152606401610411565b3360009081526068602052604081205461061790876110a8565b3360009081526068602052604080822089905551919250906001600160a01b0389169083156108fc0290849084818181858888f1935050505090508061069f5760405162461bcd60e51b815260206004820152600f60248201527f5472616e73666572206661696c656400000000000000000000000000000000006044820152606401610411565b604080514281526020810184905233917f34fcbac0073d7c3d388e51312faf357774904998eeb8fca628b9e6f65ee1cbf7910160405180910390a2505050505b50505050565b3481146107345760405162461bcd60e51b815260206004820152601660248201527f4e6f7420656e6f75676820616d6f756e742073656e74000000000000000000006044820152606401610411565b806067600082825461074691906110bb565b909155505060408051428152602081018390527f45cad8c10023de80f4c0672ff6c283b671e11aa93c92b9380cdf060d2790da52910160405180910390a150565b61078f610beb565b6107996000610c45565b565b6060818067ffffffffffffffff8111156107b7576107b7610dbf565b6040519080825280602002602001820160405280156107e0578160200160208202803683370190505b50915060005b818110156108695760686000868684818110610804576108046110ce565b90506020020160208101906108199190610fb5565b6001600160a01b03166001600160a01b031681526020019081526020016000205483828151811061084c5761084c6110ce565b602090810291909101015280610861816110e4565b9150506107e6565b505092915050565b610879610beb565b6065805473ffffffffffffffffffffffffffffffffffffffff19166001600160a01b0383169081179091556040517fe26c879d728ec1a6c6f55c2809dd8c7f9d67beca07940f3020aca5d96e0073db90600090a250565b6000806000806108df85610950565b6040805160008152602081018083528b905260ff8316918101919091526060810184905260808101839052929550909350915060019060a0016020604051602081039080840390855afa15801561093a573d6000803e3d6000fd5b5050506020604051035193505050505b92915050565b600080600083516041146109a65760405162461bcd60e51b815260206004820152601860248201527f696e76616c6964207369676e6174757265206c656e67746800000000000000006044820152606401610411565b50505060208101516040820151606090920151909260009190911a90565b600054610100900460ff16158080156109e45750600054600160ff909116105b806109fe5750303b1580156109fe575060005460ff166001145b610a705760405162461bcd60e51b815260206004820152602e60248201527f496e697469616c697a61626c653a20636f6e747261637420697320616c72656160448201527f647920696e697469616c697a65640000000000000000000000000000000000006064820152608401610411565b600080547fffffffffffffffffffffffffffffffffffffffffffffffffffffffffffffff001660011790558015610ab1576000805461ff0019166101001790555b610ab9610ca4565b6065805473ffffffffffffffffffffffffffffffffffffffff19166001600160a01b038416908117909155426066556040517fe26c879d728ec1a6c6f55c2809dd8c7f9d67beca07940f3020aca5d96e0073db90600090a28015610b57576000805461ff0019169055604051600181527f7f26b83ff96e1f2b6a682f133852f6798a09c465da95921460cefb38474024989060200160405180910390a15b5050565b610b63610beb565b6001600160a01b038116610bdf5760405162461bcd60e51b815260206004820152602660248201527f4f776e61626c653a206e6577206f776e657220697320746865207a65726f206160448201527f64647265737300000000000000000000000000000000000000000000000000006064820152608401610411565b610be881610c45565b50565b6033546001600160a01b031633146107995760405162461bcd60e51b815260206004820181905260248201527f4f776e61626c653a2063616c6c6572206973206e6f7420746865206f776e65726044820152606401610411565b603380546001600160a01b0383811673ffffffffffffffffffffffffffffffffffffffff19831681179093556040519116919082907f8be0079c531659141344cd1fd0a4f28419497f9722a3daafe3b4186f6b6457e090600090a35050565b600054610100900460ff16610d215760405162461bcd60e51b815260206004820152602b60248201527f496e697469616c697a61626c653a20636f6e7472616374206973206e6f74206960448201527f6e697469616c697a696e670000000000000000000000000000000000000000006064820152608401610411565b610799600054610100900460ff16610da15760405162461bcd60e51b815260206004820152602b60248201527f496e697469616c697a61626c653a20636f6e7472616374206973206e6f74206960448201527f6e697469616c697a696e670000000000000000000000000000000000000000006064820152608401610411565b61079933610c45565b6001600160a01b0381168114610be857600080fd5b634e487b7160e01b600052604160045260246000fd5b600082601f830112610de657600080fd5b813567ffffffffffffffff80821115610e0157610e01610dbf565b604051601f83017fffffffffffffffffffffffffffffffffffffffffffffffffffffffffffffffe0908116603f01168101908282118183101715610e4757610e47610dbf565b81604052838152866020858801011115610e6057600080fd5b836020870160208301376000602085830101528094505050505092915050565b60008060008060808587031215610e9657600080fd5b8435610ea181610daa565b93506020850135925060408501359150606085013567ffffffffffffffff811115610ecb57600080fd5b610ed787828801610dd5565b91505092959194509250565b600060208284031215610ef557600080fd5b5035919050565b60008060208385031215610f0f57600080fd5b823567ffffffffffffffff80821115610f2757600080fd5b818501915085601f830112610f3b57600080fd5b813581811115610f4a57600080fd5b8660208260051b8501011115610f5f57600080fd5b60209290920196919550909350505050565b6020808252825182820181905260009190848201906040850190845b81811015610fa957835183529284019291840191600101610f8d565b50909695505050505050565b600060208284031215610fc757600080fd5b8135610fd281610daa565b9392505050565b60008060408385031215610fec57600080fd5b82359150602083013567ffffffffffffffff81111561100a57600080fd5b61101685828601610dd5565b9150509250929050565b60006020828403121561103257600080fd5b813567ffffffffffffffff81111561104957600080fd5b61105584828501610dd5565b949350505050565b60008060006060848603121561107257600080fd5b833561107d81610daa565b95602085013595506040909401359392505050565b634e487b7160e01b600052601160045260246000fd5b8181038181111561094a5761094a611092565b8082018082111561094a5761094a611092565b634e487b7160e01b600052603260045260246000fd5b60007fffffffffffffffffffffffffffffffffffffffffffffffffffffffffffffffff820361111557611115611092565b506001019056fea264697066735822122057697b54b902091520f598bcf8f5503ec73b9a5a60cabf19900b299d8dae0fb664736f6c63430008120033",
  "linkReferences": {},
  "deployedLinkReferences": {}
}