{
  "_format": "hh-sol-artifact-1",
  "contractName": "CarbonFeeRebate",
  "sourceName": "contracts/CarbonFeeRebate.sol",
  "abi": [
    {
      "inputs": [],
      "name": "DayNotFinished",
      "type": "error"
    },
    {
      "inputs": [],
      "name": "InvalidInitialization",
      "type": "error"
    },
    {
      "inputs": [],
      "name": "InvalidSignature",
      "type": "error"
    },
    {
      "inputs": [],
      "name": "NotInitializing",
      "type": "error"
    },
    {
      "inputs": [
        {
          "internalType": "address",
          "name": "owner",
          "type": "address"
        }
      ],
      "name": "OwnableInvalidOwner",
      "type": "error"
    },
    {
      "inputs": [
        {
          "internalType": "address",
          "name": "account",
          "type": "address"
        }
      ],
      "name": "OwnableUnauthorizedAccount",
      "type": "error"
    },
    {
      "anonymous": false,
      "inputs": [
        {
          "indexed": true,
          "internalType": "address",
          "name": "user",
          "type": "address"
        },
        {
          "indexed": false,
          "internalType": "uint256",
          "name": "timestamp",
          "type": "uint256"
        },
        {
          "indexed": false,
          "internalType": "uint256",
          "name": "amount",
          "type": "uint256"
        }
      ],
      "name": "Claim",
      "type": "event"
    },
    {
      "anonymous": false,
      "inputs": [
        {
          "indexed": false,
          "internalType": "uint64",
          "name": "version",
          "type": "uint64"
        }
      ],
      "name": "Initialized",
      "type": "event"
    },
    {
      "anonymous": false,
      "inputs": [
        {
          "indexed": true,
          "internalType": "address",
          "name": "previousOwner",
          "type": "address"
        },
        {
          "indexed": true,
          "internalType": "address",
          "name": "newOwner",
          "type": "address"
        }
      ],
      "name": "OwnershipTransferred",
      "type": "event"
    },
    {
      "anonymous": false,
      "inputs": [
        {
          "indexed": false,
          "internalType": "uint256",
          "name": "timestamp",
          "type": "uint256"
        },
        {
          "indexed": false,
          "internalType": "uint256",
          "name": "amount",
          "type": "uint256"
        }
      ],
      "name": "Reward",
      "type": "event"
    },
    {
      "anonymous": false,
      "inputs": [
        {
          "indexed": true,
          "internalType": "address",
          "name": "carbonTrustedAddress",
          "type": "address"
        }
      ],
      "name": "SetCarbonTrustedAddress",
      "type": "event"
    },
    {
      "inputs": [],
      "name": "carbonTrustedAddress",
      "outputs": [
        {
          "internalType": "address",
          "name": "",
          "type": "address"
        }
      ],
      "stateMutability": "view",
      "type": "function"
    },
    {
      "inputs": [
        {
          "internalType": "address",
          "name": "_user",
          "type": "address"
        },
        {
          "internalType": "uint256",
          "name": "_amountRebate",
          "type": "uint256"
        },
        {
          "internalType": "uint256",
          "name": "_timestamp",
          "type": "uint256"
        },
        {
          "internalType": "bytes",
          "name": "signature",
          "type": "bytes"
        }
      ],
      "name": "claim",
      "outputs": [],
      "stateMutability": "nonpayable",
      "type": "function"
    },
    {
      "inputs": [
        {
          "internalType": "address",
          "name": "",
          "type": "address"
        }
      ],
      "name": "claimed",
      "outputs": [
        {
          "internalType": "uint256",
          "name": "",
          "type": "uint256"
        }
      ],
      "stateMutability": "view",
      "type": "function"
    },
    {
      "inputs": [
        {
          "internalType": "uint256",
          "name": "_amount",
          "type": "uint256"
        }
      ],
      "name": "fill",
      "outputs": [],
      "stateMutability": "payable",
      "type": "function"
    },
    {
      "inputs": [
        {
          "internalType": "address[]",
          "name": "addresses",
          "type": "address[]"
        }
      ],
      "name": "getClaimedBalances",
      "outputs": [
        {
          "internalType": "uint256[]",
          "name": "claimedAmounts",
          "type": "uint256[]"
        }
      ],
      "stateMutability": "view",
      "type": "function"
    },
    {
      "inputs": [
        {
          "internalType": "bytes32",
          "name": "_messageHash",
          "type": "bytes32"
        }
      ],
      "name": "getEthSignedMessageHash",
      "outputs": [
        {
          "internalType": "bytes32",
          "name": "",
          "type": "bytes32"
        }
      ],
      "stateMutability": "pure",
      "type": "function"
    },
    {
      "inputs": [
        {
          "internalType": "address",
          "name": "_user",
          "type": "address"
        },
        {
          "internalType": "uint256",
          "name": "_amountCarbon",
          "type": "uint256"
        },
        {
          "internalType": "uint256",
          "name": "_timestamp",
          "type": "uint256"
        }
      ],
      "name": "getMessageHash",
      "outputs": [
        {
          "internalType": "bytes32",
          "name": "",
          "type": "bytes32"
        }
      ],
      "stateMutability": "pure",
      "type": "function"
    },
    {
      "inputs": [
        {
          "internalType": "address",
          "name": "_carbonTrustedAddress",
          "type": "address"
        },
        {
          "internalType": "address",
          "name": "_rebateToken",
          "type": "address"
        }
      ],
      "name": "initialize",
      "outputs": [],
      "stateMutability": "nonpayable",
      "type": "function"
    },
    {
      "inputs": [],
      "name": "owner",
      "outputs": [
        {
          "internalType": "address",
          "name": "",
          "type": "address"
        }
      ],
      "stateMutability": "view",
      "type": "function"
    },
    {
      "inputs": [],
      "name": "rebateToken",
      "outputs": [
        {
          "internalType": "address",
          "name": "",
          "type": "address"
        }
      ],
      "stateMutability": "view",
      "type": "function"
    },
    {
      "inputs": [
        {
          "internalType": "bytes32",
          "name": "_ethSignedMessageHash",
          "type": "bytes32"
        },
        {
          "internalType": "bytes",
          "name": "_signature",
          "type": "bytes"
        }
      ],
      "name": "recoverSigner",
      "outputs": [
        {
          "internalType": "address",
          "name": "",
          "type": "address"
        }
      ],
      "stateMutability": "pure",
      "type": "function"
    },
    {
      "inputs": [],
      "name": "renounceOwnership",
      "outputs": [],
      "stateMutability": "nonpayable",
      "type": "function"
    },
    {
      "inputs": [
        {
          "internalType": "address",
          "name": "_carbonTrustedAddress",
          "type": "address"
        }
      ],
      "name": "setCarbonTrustedAddress",
      "outputs": [],
      "stateMutability": "nonpayable",
      "type": "function"
    },
    {
      "inputs": [
        {
          "internalType": "bytes",
          "name": "sig",
          "type": "bytes"
        }
      ],
      "name": "splitSignature",
      "outputs": [
        {
          "internalType": "bytes32",
          "name": "r",
          "type": "bytes32"
        },
        {
          "internalType": "bytes32",
          "name": "s",
          "type": "bytes32"
        },
        {
          "internalType": "uint8",
          "name": "v",
          "type": "uint8"
        }
      ],
      "stateMutability": "pure",
      "type": "function"
    },
    {
      "inputs": [],
      "name": "totalReward",
      "outputs": [
        {
          "internalType": "uint256",
          "name": "",
          "type": "uint256"
        }
      ],
      "stateMutability": "view",
      "type": "function"
    },
    {
      "inputs": [
        {
          "internalType": "address",
          "name": "newOwner",
          "type": "address"
        }
      ],
      "name": "transferOwnership",
      "outputs": [],
      "stateMutability": "nonpayable",
      "type": "function"
    }
  ],
  "bytecode": "0x6080604052348015600f57600080fd5b5061112f8061001f6000396000f3fe6080604052600436106100f35760003560e01c80638da5cb5b1161008a578063c884ef8311610059578063c884ef83146102cb578063d2b0737b146102f8578063f2fde38b14610362578063fa5408011461038257600080fd5b80638da5cb5b1461021057806397aba7f91461024d57806397eea8b31461026d578063a7bb58031461028d57600080fd5b8063715018a6116100c6578063715018a61461018a57806373657b9f1461019f578063750142e6146101bf5780637fa66021146101e357600080fd5b80631d346268146100f85780632ada8a32146101355780633fda538914610157578063485cc9551461016a575b600080fd5b34801561010457600080fd5b50600154610118906001600160a01b031681565b6040516001600160a01b0390911681526020015b60405180910390f35b34801561014157600080fd5b50610155610150366004610e45565b6103f0565b005b610155610165366004610ea6565b6106de565b34801561017657600080fd5b50610155610185366004610ebf565b6107c6565b34801561019657600080fd5b5061015561096a565b3480156101ab57600080fd5b50600054610118906001600160a01b031681565b3480156101cb57600080fd5b506101d560025481565b60405190815260200161012c565b3480156101ef57600080fd5b506102036101fe366004610ef2565b61097e565b60405161012c9190610f69565b34801561021c57600080fd5b507f9016d09d72d40fdae2fd8ceac6b6234c7706214fd39c1cd1e609a0528c199300546001600160a01b0316610118565b34801561025957600080fd5b50610118610268366004610fac565b610a4a565b34801561027957600080fd5b50610155610288366004610ff3565b610aca565b34801561029957600080fd5b506102ad6102a8366004611015565b610b27565b60408051938452602084019290925260ff169082015260600161012c565b3480156102d757600080fd5b506101d56102e6366004610ff3565b60036020526000908152604090205481565b34801561030457600080fd5b506101d5610313366004611052565b6040516bffffffffffffffffffffffff19606085901b16602082015260348101839052605481018290526000906074016040516020818303038152906040528051906020012090509392505050565b34801561036e57600080fd5b5061015561037d366004610ff3565b610b9b565b34801561038e57600080fd5b506101d561039d366004610ea6565b6040517f19457468657265756d205369676e6564204d6573736167653a0a3332000000006020820152603c8101829052600090605c01604051602081830303815290604052805190602001209050919050565b336001600160a01b0385161461044d5760405162461bcd60e51b815260206004820152600e60248201527f4e6f7420796f757220636c61696d00000000000000000000000000000000000060448201526064015b60405180910390fd5b6000546001600160a01b03166104cb5760405162461bcd60e51b815260206004820152602360248201527f436172626f6e20547275737465642041646472657373206e6f7420736574207960448201527f65742e00000000000000000000000000000000000000000000000000000000006064820152608401610444565b336000908152600360205260409020548311156106d85760408051606086901b6bffffffffffffffffffffffff1916602080830191909152603482018690526054808301869052835180840390910181526074830184528051908201207f19457468657265756d205369676e6564204d6573736167653a0a333200000000609484015260b08084018290528451808503909101815260d090930190935281519101206000546001600160a01b03166105838285610a4a565b6001600160a01b0316146105d95760405162461bcd60e51b815260206004820152601360248201527f5369676e6572203d2120547275737465642e20000000000000000000000000006044820152606401610444565b336000908152600360205260408120546105f3908761109b565b336000908152600360205260409081902088905560015490517fa9059cbb0000000000000000000000000000000000000000000000000000000081526001600160a01b038a811660048301526024820184905292935091169063a9059cbb906044016020604051808303816000875af1158015610674573d6000803e3d6000fd5b505050506040513d601f19601f8201168201806040525081019061069891906110ae565b50604080514281526020810183905233917f34fcbac0073d7c3d388e51312faf357774904998eeb8fca628b9e6f65ee1cbf7910160405180910390a25050505b50505050565b6001546040517f23b872dd000000000000000000000000000000000000000000000000000000008152336004820152306024820152604481018390526001600160a01b03909116906323b872dd906064016020604051808303816000875af115801561074e573d6000803e3d6000fd5b505050506040513d601f19601f8201168201806040525081019061077291906110ae565b50806002600082825461078591906110d0565b909155505060408051428152602081018390527f45cad8c10023de80f4c0672ff6c283b671e11aa93c92b9380cdf060d2790da52910160405180910390a150565b60006107d0610bf2565b805490915060ff68010000000000000000820416159067ffffffffffffffff166000811580156107fd5750825b905060008267ffffffffffffffff16600114801561081a5750303b155b905081158015610828575080155b1561085f576040517ff92ee8a900000000000000000000000000000000000000000000000000000000815260040160405180910390fd5b84547fffffffffffffffffffffffffffffffffffffffffffffffff000000000000000016600117855583156108aa57845468ff00000000000000001916680100000000000000001785555b6108b333610c1b565b6000805473ffffffffffffffffffffffffffffffffffffffff199081166001600160a01b038a8116918217845560018054909316908a161790915560405190917f5c1381130aeba259d8bde7a814285220b79215cf00920a4374d0c2465418507e91a2831561096157845468ff000000000000000019168555604051600181527fc7f505b2f371ae2175ee4913f4499e1f2633a7b5936321eed1cdaeb6115181d29060200160405180910390a15b50505050505050565b610972610c2c565b61097c6000610ca0565b565b6060818067ffffffffffffffff81111561099a5761099a610d9f565b6040519080825280602002602001820160405280156109c3578160200160208202803683370190505b50915060005b81811015610a4257600360008686848181106109e7576109e76110e3565b90506020020160208101906109fc9190610ff3565b6001600160a01b03166001600160a01b0316815260200190815260200160002054838281518110610a2f57610a2f6110e3565b60209081029190910101526001016109c9565b505092915050565b600080600080610a5985610b27565b6040805160008152602081018083528b905260ff8316918101919091526060810184905260808101839052929550909350915060019060a0016020604051602081039080840390855afa158015610ab4573d6000803e3d6000fd5b5050506020604051035193505050505b92915050565b610ad2610c2c565b6000805473ffffffffffffffffffffffffffffffffffffffff19166001600160a01b038316908117825560405190917f5c1381130aeba259d8bde7a814285220b79215cf00920a4374d0c2465418507e91a250565b60008060008351604114610b7d5760405162461bcd60e51b815260206004820152601860248201527f696e76616c6964207369676e6174757265206c656e67746800000000000000006044820152606401610444565b50505060208101516040820151606090920151909260009190911a90565b610ba3610c2c565b6001600160a01b038116610be6576040517f1e4fbdf700000000000000000000000000000000000000000000000000000000815260006004820152602401610444565b610bef81610ca0565b50565b6000807ff0c57e16840df040f15088dc2f81fe391c3923bec73e23a9662efc9c229c6a00610ac4565b610c23610d1e565b610bef81610d5c565b33610c5e7f9016d09d72d40fdae2fd8ceac6b6234c7706214fd39c1cd1e609a0528c199300546001600160a01b031690565b6001600160a01b03161461097c576040517f118cdaa7000000000000000000000000000000000000000000000000000000008152336004820152602401610444565b7f9016d09d72d40fdae2fd8ceac6b6234c7706214fd39c1cd1e609a0528c199300805473ffffffffffffffffffffffffffffffffffffffff1981166001600160a01b03848116918217845560405192169182907f8be0079c531659141344cd1fd0a4f28419497f9722a3daafe3b4186f6b6457e090600090a3505050565b610d26610d64565b61097c576040517fd7e6bcf800000000000000000000000000000000000000000000000000000000815260040160405180910390fd5b610ba3610d1e565b6000610d6e610bf2565b5468010000000000000000900460ff16919050565b80356001600160a01b0381168114610d9a57600080fd5b919050565b634e487b7160e01b600052604160045260246000fd5b600082601f830112610dc657600080fd5b813567ffffffffffffffff811115610de057610de0610d9f565b604051601f19603f601f19601f8501160116810181811067ffffffffffffffff82111715610e1057610e10610d9f565b604052818152838201602001851015610e2857600080fd5b816020850160208301376000918101602001919091529392505050565b60008060008060808587031215610e5b57600080fd5b610e6485610d83565b93506020850135925060408501359150606085013567ffffffffffffffff811115610e8e57600080fd5b610e9a87828801610db5565b91505092959194509250565b600060208284031215610eb857600080fd5b5035919050565b60008060408385031215610ed257600080fd5b610edb83610d83565b9150610ee960208401610d83565b90509250929050565b60008060208385031215610f0557600080fd5b823567ffffffffffffffff811115610f1c57600080fd5b8301601f81018513610f2d57600080fd5b803567ffffffffffffffff811115610f4457600080fd5b8560208260051b8401011115610f5957600080fd5b6020919091019590945092505050565b602080825282518282018190526000918401906040840190835b81811015610fa1578351835260209384019390920191600101610f83565b509095945050505050565b60008060408385031215610fbf57600080fd5b82359150602083013567ffffffffffffffff811115610fdd57600080fd5b610fe985828601610db5565b9150509250929050565b60006020828403121561100557600080fd5b61100e82610d83565b9392505050565b60006020828403121561102757600080fd5b813567ffffffffffffffff81111561103e57600080fd5b61104a84828501610db5565b949350505050565b60008060006060848603121561106757600080fd5b61107084610d83565b95602085013595506040909401359392505050565b634e487b7160e01b600052601160045260246000fd5b81810381811115610ac457610ac4611085565b6000602082840312156110c057600080fd5b8151801515811461100e57600080fd5b80820180821115610ac457610ac4611085565b634e487b7160e01b600052603260045260246000fdfea2646970667358221220873854f0bfaa90d865350775143f13b34dc5c9a2c0007b7c8c0406a5b44c848c64736f6c634300081c0033",
  "linkReferences": {},
  "deployedLinkReferences": {}
}