{
  "_format": "hh-sol-artifact-1",
  "contractName": "CarbonFeeRebate",
  "sourceName": "contracts/CarbonFeeRebate.sol",
  "abi": [
    {
      "inputs": [],
      "name": "DayNotFinished",
      "type": "error"
    },
    {
      "inputs": [],
      "name": "InvalidSignature",
      "type": "error"
    },
    {
      "anonymous": false,
      "inputs": [
        {
          "indexed": true,
          "internalType": "address",
          "name": "user",
          "type": "address"
        },
        {
          "indexed": false,
          "internalType": "uint256",
          "name": "timestamp",
          "type": "uint256"
        },
        {
          "indexed": false,
          "internalType": "uint256",
          "name": "amount",
          "type": "uint256"
        }
      ],
      "name": "Claim",
      "type": "event"
    },
    {
      "anonymous": false,
      "inputs": [
        {
          "indexed": false,
          "internalType": "uint8",
          "name": "version",
          "type": "uint8"
        }
      ],
      "name": "Initialized",
      "type": "event"
    },
    {
      "anonymous": false,
      "inputs": [
        {
          "indexed": true,
          "internalType": "address",
          "name": "previousOwner",
          "type": "address"
        },
        {
          "indexed": true,
          "internalType": "address",
          "name": "newOwner",
          "type": "address"
        }
      ],
      "name": "OwnershipTransferred",
      "type": "event"
    },
    {
      "anonymous": false,
      "inputs": [
        {
          "indexed": false,
          "internalType": "uint256",
          "name": "timestamp",
          "type": "uint256"
        },
        {
          "indexed": false,
          "internalType": "uint256",
          "name": "amount",
          "type": "uint256"
        }
      ],
      "name": "Reward",
      "type": "event"
    },
    {
      "anonymous": false,
      "inputs": [
        {
          "indexed": true,
          "internalType": "address",
          "name": "carbonTrustedAddress",
          "type": "address"
        }
      ],
      "name": "SetCarbonTrustedAddress",
      "type": "event"
    },
    {
      "inputs": [],
      "name": "carbonTrustedAddress",
      "outputs": [
        {
          "internalType": "address",
          "name": "",
          "type": "address"
        }
      ],
      "stateMutability": "view",
      "type": "function"
    },
    {
      "inputs": [
        {
          "internalType": "address",
          "name": "_user",
          "type": "address"
        },
        {
          "internalType": "uint256",
          "name": "_amountRebate",
          "type": "uint256"
        },
        {
          "internalType": "uint256",
          "name": "_timestamp",
          "type": "uint256"
        },
        {
          "internalType": "bytes",
          "name": "signature",
          "type": "bytes"
        }
      ],
      "name": "claim",
      "outputs": [],
      "stateMutability": "nonpayable",
      "type": "function"
    },
    {
      "inputs": [
        {
          "internalType": "address",
          "name": "",
          "type": "address"
        }
      ],
      "name": "claimed",
      "outputs": [
        {
          "internalType": "uint256",
          "name": "",
          "type": "uint256"
        }
      ],
      "stateMutability": "view",
      "type": "function"
    },
    {
      "inputs": [
        {
          "internalType": "uint256",
          "name": "_amount",
          "type": "uint256"
        }
      ],
      "name": "fill",
      "outputs": [],
      "stateMutability": "payable",
      "type": "function"
    },
    {
      "inputs": [
        {
          "internalType": "address[]",
          "name": "addresses",
          "type": "address[]"
        }
      ],
      "name": "getClaimedBalances",
      "outputs": [
        {
          "internalType": "uint256[]",
          "name": "claimedAmounts",
          "type": "uint256[]"
        }
      ],
      "stateMutability": "view",
      "type": "function"
    },
    {
      "inputs": [
        {
          "internalType": "bytes32",
          "name": "_messageHash",
          "type": "bytes32"
        }
      ],
      "name": "getEthSignedMessageHash",
      "outputs": [
        {
          "internalType": "bytes32",
          "name": "",
          "type": "bytes32"
        }
      ],
      "stateMutability": "pure",
      "type": "function"
    },
    {
      "inputs": [
        {
          "internalType": "address",
          "name": "_user",
          "type": "address"
        },
        {
          "internalType": "uint256",
          "name": "_amountCarbon",
          "type": "uint256"
        },
        {
          "internalType": "uint256",
          "name": "_timestamp",
          "type": "uint256"
        }
      ],
      "name": "getMessageHash",
      "outputs": [
        {
          "internalType": "bytes32",
          "name": "",
          "type": "bytes32"
        }
      ],
      "stateMutability": "pure",
      "type": "function"
    },
    {
      "inputs": [
        {
          "internalType": "address",
          "name": "_carbonTrustedAddress",
          "type": "address"
        },
        {
          "internalType": "address",
          "name": "_rebateToken",
          "type": "address"
        }
      ],
      "name": "initialize",
      "outputs": [],
      "stateMutability": "nonpayable",
      "type": "function"
    },
    {
      "inputs": [],
      "name": "owner",
      "outputs": [
        {
          "internalType": "address",
          "name": "",
          "type": "address"
        }
      ],
      "stateMutability": "view",
      "type": "function"
    },
    {
      "inputs": [],
      "name": "rebateToken",
      "outputs": [
        {
          "internalType": "address",
          "name": "",
          "type": "address"
        }
      ],
      "stateMutability": "view",
      "type": "function"
    },
    {
      "inputs": [
        {
          "internalType": "bytes32",
          "name": "_ethSignedMessageHash",
          "type": "bytes32"
        },
        {
          "internalType": "bytes",
          "name": "_signature",
          "type": "bytes"
        }
      ],
      "name": "recoverSigner",
      "outputs": [
        {
          "internalType": "address",
          "name": "",
          "type": "address"
        }
      ],
      "stateMutability": "pure",
      "type": "function"
    },
    {
      "inputs": [],
      "name": "renounceOwnership",
      "outputs": [],
      "stateMutability": "nonpayable",
      "type": "function"
    },
    {
      "inputs": [
        {
          "internalType": "address",
          "name": "_carbonTrustedAddress",
          "type": "address"
        }
      ],
      "name": "setCarbonTrustedAddress",
      "outputs": [],
      "stateMutability": "nonpayable",
      "type": "function"
    },
    {
      "inputs": [
        {
          "internalType": "bytes",
          "name": "sig",
          "type": "bytes"
        }
      ],
      "name": "splitSignature",
      "outputs": [
        {
          "internalType": "bytes32",
          "name": "r",
          "type": "bytes32"
        },
        {
          "internalType": "bytes32",
          "name": "s",
          "type": "bytes32"
        },
        {
          "internalType": "uint8",
          "name": "v",
          "type": "uint8"
        }
      ],
      "stateMutability": "pure",
      "type": "function"
    },
    {
      "inputs": [],
      "name": "totalReward",
      "outputs": [
        {
          "internalType": "uint256",
          "name": "",
          "type": "uint256"
        }
      ],
      "stateMutability": "view",
      "type": "function"
    },
    {
      "inputs": [
        {
          "internalType": "address",
          "name": "newOwner",
          "type": "address"
        }
      ],
      "name": "transferOwnership",
      "outputs": [],
      "stateMutability": "nonpayable",
      "type": "function"
    }
  ],
  "bytecode": "0x6080604052348015600f57600080fd5b5061117e8061001f6000396000f3fe6080604052600436106100f35760003560e01c80638da5cb5b1161008a578063c884ef8311610059578063c884ef83146102ac578063d2b0737b146102d9578063f2fde38b14610343578063fa5408011461036357600080fd5b80638da5cb5b1461021057806397aba7f91461022e57806397eea8b31461024e578063a7bb58031461026e57600080fd5b8063715018a6116100c6578063715018a61461018a57806373657b9f1461019f578063750142e6146101bf5780637fa66021146101e357600080fd5b80631d346268146100f85780632ada8a32146101355780633fda538914610157578063485cc9551461016a575b600080fd5b34801561010457600080fd5b50606654610118906001600160a01b031681565b6040516001600160a01b0390911681526020015b60405180910390f35b34801561014157600080fd5b50610155610150366004610e94565b6103d1565b005b610155610165366004610ef5565b6106bf565b34801561017657600080fd5b50610155610185366004610f0e565b6107a7565b34801561019657600080fd5b5061015561094b565b3480156101ab57600080fd5b50606554610118906001600160a01b031681565b3480156101cb57600080fd5b506101d560675481565b60405190815260200161012c565b3480156101ef57600080fd5b506102036101fe366004610f41565b61095f565b60405161012c9190610fb8565b34801561021c57600080fd5b506033546001600160a01b0316610118565b34801561023a57600080fd5b50610118610249366004610ffb565b610a2b565b34801561025a57600080fd5b50610155610269366004611042565b610aab565b34801561027a57600080fd5b5061028e610289366004611064565b610b0a565b60408051938452602084019290925260ff169082015260600161012c565b3480156102b857600080fd5b506101d56102c7366004611042565b60686020526000908152604090205481565b3480156102e557600080fd5b506101d56102f43660046110a1565b6040516bffffffffffffffffffffffff19606085901b16602082015260348101839052605481018290526000906074016040516020818303038152906040528051906020012090509392505050565b34801561034f57600080fd5b5061015561035e366004611042565b610b7e565b34801561036f57600080fd5b506101d561037e366004610ef5565b6040517f19457468657265756d205369676e6564204d6573736167653a0a3332000000006020820152603c8101829052600090605c01604051602081830303815290604052805190602001209050919050565b336001600160a01b0385161461042e5760405162461bcd60e51b815260206004820152600e60248201527f4e6f7420796f757220636c61696d00000000000000000000000000000000000060448201526064015b60405180910390fd5b6065546001600160a01b03166104ac5760405162461bcd60e51b815260206004820152602360248201527f436172626f6e20547275737465642041646472657373206e6f7420736574207960448201527f65742e00000000000000000000000000000000000000000000000000000000006064820152608401610425565b336000908152606860205260409020548311156106b95760408051606086901b6bffffffffffffffffffffffff1916602080830191909152603482018690526054808301869052835180840390910181526074830184528051908201207f19457468657265756d205369676e6564204d6573736167653a0a333200000000609484015260b08084018290528451808503909101815260d090930190935281519101206065546001600160a01b03166105648285610a2b565b6001600160a01b0316146105ba5760405162461bcd60e51b815260206004820152601360248201527f5369676e6572203d2120547275737465642e20000000000000000000000000006044820152606401610425565b336000908152606860205260408120546105d490876110ea565b336000908152606860205260409081902088905560665490517fa9059cbb0000000000000000000000000000000000000000000000000000000081526001600160a01b038a811660048301526024820184905292935091169063a9059cbb906044016020604051808303816000875af1158015610655573d6000803e3d6000fd5b505050506040513d601f19601f8201168201806040525081019061067991906110fd565b50604080514281526020810183905233917f34fcbac0073d7c3d388e51312faf357774904998eeb8fca628b9e6f65ee1cbf7910160405180910390a25050505b50505050565b6066546040517f23b872dd000000000000000000000000000000000000000000000000000000008152336004820152306024820152604481018390526001600160a01b03909116906323b872dd906064016020604051808303816000875af115801561072f573d6000803e3d6000fd5b505050506040513d601f19601f8201168201806040525081019061075391906110fd565b508060676000828254610766919061111f565b909155505060408051428152602081018390527f45cad8c10023de80f4c0672ff6c283b671e11aa93c92b9380cdf060d2790da52910160405180910390a150565b600054610100900460ff16158080156107c75750600054600160ff909116105b806107e15750303b1580156107e1575060005460ff166001145b6108535760405162461bcd60e51b815260206004820152602e60248201527f496e697469616c697a61626c653a20636f6e747261637420697320616c72656160448201527f647920696e697469616c697a65640000000000000000000000000000000000006064820152608401610425565b600080547fffffffffffffffffffffffffffffffffffffffffffffffffffffffffffffff001660011790558015610894576000805461ff0019166101001790555b61089c610c0e565b606580546001600160a01b0380861673ffffffffffffffffffffffffffffffffffffffff19928316811790935560668054918616919092161790556040517f5c1381130aeba259d8bde7a814285220b79215cf00920a4374d0c2465418507e90600090a28015610946576000805461ff0019169055604051600181527f7f26b83ff96e1f2b6a682f133852f6798a09c465da95921460cefb38474024989060200160405180910390a15b505050565b610953610c93565b61095d6000610ced565b565b6060818067ffffffffffffffff81111561097b5761097b610dee565b6040519080825280602002602001820160405280156109a4578160200160208202803683370190505b50915060005b81811015610a2357606860008686848181106109c8576109c8611132565b90506020020160208101906109dd9190611042565b6001600160a01b03166001600160a01b0316815260200190815260200160002054838281518110610a1057610a10611132565b60209081029190910101526001016109aa565b505092915050565b600080600080610a3a85610b0a565b6040805160008152602081018083528b905260ff8316918101919091526060810184905260808101839052929550909350915060019060a0016020604051602081039080840390855afa158015610a95573d6000803e3d6000fd5b5050506020604051035193505050505b92915050565b610ab3610c93565b6065805473ffffffffffffffffffffffffffffffffffffffff19166001600160a01b0383169081179091556040517f5c1381130aeba259d8bde7a814285220b79215cf00920a4374d0c2465418507e90600090a250565b60008060008351604114610b605760405162461bcd60e51b815260206004820152601860248201527f696e76616c6964207369676e6174757265206c656e67746800000000000000006044820152606401610425565b50505060208101516040820151606090920151909260009190911a90565b610b86610c93565b6001600160a01b038116610c025760405162461bcd60e51b815260206004820152602660248201527f4f776e61626c653a206e6577206f776e657220697320746865207a65726f206160448201527f64647265737300000000000000000000000000000000000000000000000000006064820152608401610425565b610c0b81610ced565b50565b600054610100900460ff16610c8b5760405162461bcd60e51b815260206004820152602b60248201527f496e697469616c697a61626c653a20636f6e7472616374206973206e6f74206960448201527f6e697469616c697a696e670000000000000000000000000000000000000000006064820152608401610425565b61095d610d4c565b6033546001600160a01b0316331461095d5760405162461bcd60e51b815260206004820181905260248201527f4f776e61626c653a2063616c6c6572206973206e6f7420746865206f776e65726044820152606401610425565b603380546001600160a01b0383811673ffffffffffffffffffffffffffffffffffffffff19831681179093556040519116919082907f8be0079c531659141344cd1fd0a4f28419497f9722a3daafe3b4186f6b6457e090600090a35050565b600054610100900460ff16610dc95760405162461bcd60e51b815260206004820152602b60248201527f496e697469616c697a61626c653a20636f6e7472616374206973206e6f74206960448201527f6e697469616c697a696e670000000000000000000000000000000000000000006064820152608401610425565b61095d33610ced565b80356001600160a01b0381168114610de957600080fd5b919050565b634e487b7160e01b600052604160045260246000fd5b600082601f830112610e1557600080fd5b813567ffffffffffffffff811115610e2f57610e2f610dee565b604051601f19603f601f19601f8501160116810181811067ffffffffffffffff82111715610e5f57610e5f610dee565b604052818152838201602001851015610e7757600080fd5b816020850160208301376000918101602001919091529392505050565b60008060008060808587031215610eaa57600080fd5b610eb385610dd2565b93506020850135925060408501359150606085013567ffffffffffffffff811115610edd57600080fd5b610ee987828801610e04565b91505092959194509250565b600060208284031215610f0757600080fd5b5035919050565b60008060408385031215610f2157600080fd5b610f2a83610dd2565b9150610f3860208401610dd2565b90509250929050565b60008060208385031215610f5457600080fd5b823567ffffffffffffffff811115610f6b57600080fd5b8301601f81018513610f7c57600080fd5b803567ffffffffffffffff811115610f9357600080fd5b8560208260051b8401011115610fa857600080fd5b6020919091019590945092505050565b602080825282518282018190526000918401906040840190835b81811015610ff0578351835260209384019390920191600101610fd2565b509095945050505050565b6000806040838503121561100e57600080fd5b82359150602083013567ffffffffffffffff81111561102c57600080fd5b61103885828601610e04565b9150509250929050565b60006020828403121561105457600080fd5b61105d82610dd2565b9392505050565b60006020828403121561107657600080fd5b813567ffffffffffffffff81111561108d57600080fd5b61109984828501610e04565b949350505050565b6000806000606084860312156110b657600080fd5b6110bf84610dd2565b95602085013595506040909401359392505050565b634e487b7160e01b600052601160045260246000fd5b81810381811115610aa557610aa56110d4565b60006020828403121561110f57600080fd5b8151801515811461105d57600080fd5b80820180821115610aa557610aa56110d4565b634e487b7160e01b600052603260045260246000fdfea2646970667358221220327892586dc8bef8afe9dac7b171eaa43f28bff3c87d28af0a169e8a0663d59e64736f6c634300081c0033",
  "linkReferences": {},
  "deployedLinkReferences": {}
}