{
  "_format": "hh-sol-artifact-1",
  "contractName": "IntentXAffiliates",
  "sourceName": "contracts/IntentXAffiliates.sol",
  "abi": [
    {
      "inputs": [],
      "name": "DayNotFinished",
      "type": "error"
    },
    {
      "inputs": [],
      "name": "InvalidSignature",
      "type": "error"
    },
    {
      "anonymous": false,
      "inputs": [
        {
          "indexed": true,
          "internalType": "address",
          "name": "user",
          "type": "address"
        },
        {
          "indexed": false,
          "internalType": "uint256",
          "name": "timestamp",
          "type": "uint256"
        },
        {
          "indexed": false,
          "internalType": "uint256",
          "name": "amount",
          "type": "uint256"
        }
      ],
      "name": "Claim",
      "type": "event"
    },
    {
      "anonymous": false,
      "inputs": [
        {
          "indexed": false,
          "internalType": "uint8",
          "name": "version",
          "type": "uint8"
        }
      ],
      "name": "Initialized",
      "type": "event"
    },
    {
      "anonymous": false,
      "inputs": [
        {
          "indexed": true,
          "internalType": "address",
          "name": "previousOwner",
          "type": "address"
        },
        {
          "indexed": true,
          "internalType": "address",
          "name": "newOwner",
          "type": "address"
        }
      ],
      "name": "OwnershipTransferred",
      "type": "event"
    },
    {
      "anonymous": false,
      "inputs": [
        {
          "indexed": false,
          "internalType": "uint256",
          "name": "timestamp",
          "type": "uint256"
        },
        {
          "indexed": false,
          "internalType": "uint256",
          "name": "amount",
          "type": "uint256"
        }
      ],
      "name": "Reward",
      "type": "event"
    },
    {
      "anonymous": false,
      "inputs": [
        {
          "indexed": true,
          "internalType": "address",
          "name": "intentxTrustedAddress",
          "type": "address"
        }
      ],
      "name": "SetIntentXTrustedAddress",
      "type": "event"
    },
    {
      "inputs": [
        {
          "internalType": "address payable",
          "name": "_user",
          "type": "address"
        },
        {
          "internalType": "uint256",
          "name": "_amountUsdt",
          "type": "uint256"
        },
        {
          "internalType": "uint256",
          "name": "_timestamp",
          "type": "uint256"
        },
        {
          "internalType": "bytes",
          "name": "signature",
          "type": "bytes"
        }
      ],
      "name": "claim",
      "outputs": [],
      "stateMutability": "nonpayable",
      "type": "function"
    },
    {
      "inputs": [
        {
          "internalType": "address",
          "name": "",
          "type": "address"
        }
      ],
      "name": "claimed",
      "outputs": [
        {
          "internalType": "uint256",
          "name": "",
          "type": "uint256"
        }
      ],
      "stateMutability": "view",
      "type": "function"
    },
    {
      "inputs": [
        {
          "internalType": "uint256",
          "name": "_amount",
          "type": "uint256"
        }
      ],
      "name": "fill",
      "outputs": [],
      "stateMutability": "nonpayable",
      "type": "function"
    },
    {
      "inputs": [
        {
          "internalType": "address[]",
          "name": "addresses",
          "type": "address[]"
        }
      ],
      "name": "getClaimedBalances",
      "outputs": [
        {
          "internalType": "uint256[]",
          "name": "claimedAmounts",
          "type": "uint256[]"
        }
      ],
      "stateMutability": "view",
      "type": "function"
    },
    {
      "inputs": [
        {
          "internalType": "bytes32",
          "name": "_messageHash",
          "type": "bytes32"
        }
      ],
      "name": "getEthSignedMessageHash",
      "outputs": [
        {
          "internalType": "bytes32",
          "name": "",
          "type": "bytes32"
        }
      ],
      "stateMutability": "pure",
      "type": "function"
    },
    {
      "inputs": [
        {
          "internalType": "address",
          "name": "_user",
          "type": "address"
        },
        {
          "internalType": "uint256",
          "name": "_amountIntentX",
          "type": "uint256"
        },
        {
          "internalType": "uint256",
          "name": "_timestamp",
          "type": "uint256"
        }
      ],
      "name": "getMessageHash",
      "outputs": [
        {
          "internalType": "bytes32",
          "name": "",
          "type": "bytes32"
        }
      ],
      "stateMutability": "pure",
      "type": "function"
    },
    {
      "inputs": [
        {
          "internalType": "address",
          "name": "_intentxTrustedAddress",
          "type": "address"
        },
        {
          "internalType": "address",
          "name": "_usdt",
          "type": "address"
        }
      ],
      "name": "initialize",
      "outputs": [],
      "stateMutability": "nonpayable",
      "type": "function"
    },
    {
      "inputs": [],
      "name": "intentxTrustedAddress",
      "outputs": [
        {
          "internalType": "address",
          "name": "",
          "type": "address"
        }
      ],
      "stateMutability": "view",
      "type": "function"
    },
    {
      "inputs": [],
      "name": "owner",
      "outputs": [
        {
          "internalType": "address",
          "name": "",
          "type": "address"
        }
      ],
      "stateMutability": "view",
      "type": "function"
    },
    {
      "inputs": [
        {
          "internalType": "bytes32",
          "name": "_ethSignedMessageHash",
          "type": "bytes32"
        },
        {
          "internalType": "bytes",
          "name": "_signature",
          "type": "bytes"
        }
      ],
      "name": "recoverSigner",
      "outputs": [
        {
          "internalType": "address",
          "name": "",
          "type": "address"
        }
      ],
      "stateMutability": "pure",
      "type": "function"
    },
    {
      "inputs": [],
      "name": "renounceOwnership",
      "outputs": [],
      "stateMutability": "nonpayable",
      "type": "function"
    },
    {
      "inputs": [
        {
          "internalType": "address",
          "name": "_intentxTrustedAddress",
          "type": "address"
        }
      ],
      "name": "setIntentxTrustedAddress",
      "outputs": [],
      "stateMutability": "nonpayable",
      "type": "function"
    },
    {
      "inputs": [
        {
          "internalType": "bytes",
          "name": "sig",
          "type": "bytes"
        }
      ],
      "name": "splitSignature",
      "outputs": [
        {
          "internalType": "bytes32",
          "name": "r",
          "type": "bytes32"
        },
        {
          "internalType": "bytes32",
          "name": "s",
          "type": "bytes32"
        },
        {
          "internalType": "uint8",
          "name": "v",
          "type": "uint8"
        }
      ],
      "stateMutability": "pure",
      "type": "function"
    },
    {
      "inputs": [],
      "name": "totalReward",
      "outputs": [
        {
          "internalType": "uint256",
          "name": "",
          "type": "uint256"
        }
      ],
      "stateMutability": "view",
      "type": "function"
    },
    {
      "inputs": [
        {
          "internalType": "address",
          "name": "newOwner",
          "type": "address"
        }
      ],
      "name": "transferOwnership",
      "outputs": [],
      "stateMutability": "nonpayable",
      "type": "function"
    },
    {
      "inputs": [],
      "name": "usdt",
      "outputs": [
        {
          "internalType": "contract IERC20",
          "name": "",
          "type": "address"
        }
      ],
      "stateMutability": "view",
      "type": "function"
    }
  ],
  "bytecode": "0x608060405234801561001057600080fd5b5061140d806100206000396000f3fe608060405234801561001057600080fd5b50600436106101005760003560e01c806396b18c1211610097578063d2b0737b11610066578063d2b0737b14610237578063d7a105ec14610294578063f2fde38b146102a7578063fa540801146102ba57600080fd5b806396b18c12146101c057806397aba7f9146101d3578063a7bb5803146101e6578063c884ef831461021757600080fd5b8063715018a6116100d3578063715018a614610170578063750142e6146101785780637fa660211461018f5780638da5cb5b146101af57600080fd5b80632ada8a32146101055780632f48ab7d1461011a5780633fda53891461014a578063485cc9551461015d575b600080fd5b610118610113366004611075565b61031b565b005b60655461012d906001600160a01b031681565b6040516001600160a01b0390911681526020015b60405180910390f35b6101186101583660046110d8565b610594565b61011861016b3660046110f1565b6105ff565b6101186107a3565b61018160675481565b604051908152602001610141565b6101a261019d36600461112a565b6107b7565b604051610141919061119f565b6033546001600160a01b031661012d565b6101186101ce3660046111e3565b61088d565b61012d6101e1366004611207565b6108ec565b6101f96101f436600461124e565b61096c565b60408051938452602084019290925260ff1690820152606001610141565b6101816102253660046111e3565b60686020526000908152604090205481565b610181610245366004611283565b6040516bffffffffffffffffffffffff19606085901b16602082015260348101839052605481018290526000906074016040516020818303038152906040528051906020012090509392505050565b60665461012d906001600160a01b031681565b6101186102b53660046111e3565b6109e0565b6101816102c83660046110d8565b6040517f19457468657265756d205369676e6564204d6573736167653a0a3332000000006020820152603c8101829052600090605c01604051602081830303815290604052805190602001209050919050565b336001600160a01b038516146103785760405162461bcd60e51b815260206004820152600e60248201527f4e6f7420796f757220636c61696d00000000000000000000000000000000000060448201526064015b60405180910390fd5b6066546001600160a01b03166103f55760405162461bcd60e51b8152602060048201526024808201527f496e74656e745820547275737465642041646472657373206e6f74207365742060448201527f7965742e00000000000000000000000000000000000000000000000000000000606482015260840161036f565b3360009081526068602052604090205483111561058e5760408051606086901b6bffffffffffffffffffffffff1916602080830191909152603482018690526054808301869052835180840390910181526074830184528051908201207f19457468657265756d205369676e6564204d6573736167653a0a333200000000609484015260b08084018290528451808503909101815260d090930190935281519101206066546001600160a01b03166104ad82856108ec565b6001600160a01b0316146105035760405162461bcd60e51b815260206004820152601360248201527f5369676e6572203d2120547275737465642e2000000000000000000000000000604482015260640161036f565b3360009081526068602052604081205461051d90876112ce565b3360009081526068602052604090208790559050801561058a5761054e336065546001600160a01b03169083610a70565b604080514281526020810183905233917f34fcbac0073d7c3d388e51312faf357774904998eeb8fca628b9e6f65ee1cbf7910160405180910390a25b5050505b50505050565b6105ac336065546001600160a01b0316903084610b19565b80606760008282546105be91906112e1565b909155505060408051428152602081018390527f45cad8c10023de80f4c0672ff6c283b671e11aa93c92b9380cdf060d2790da52910160405180910390a150565b600054610100900460ff161580801561061f5750600054600160ff909116105b806106395750303b158015610639575060005460ff166001145b6106ab5760405162461bcd60e51b815260206004820152602e60248201527f496e697469616c697a61626c653a20636f6e747261637420697320616c72656160448201527f647920696e697469616c697a6564000000000000000000000000000000000000606482015260840161036f565b600080547fffffffffffffffffffffffffffffffffffffffffffffffffffffffffffffff0016600117905580156106ec576000805461ff0019166101001790555b6106f4610b6a565b606680546001600160a01b0380861673ffffffffffffffffffffffffffffffffffffffff19928316811790935560658054918616919092161790556040517fe26c879d728ec1a6c6f55c2809dd8c7f9d67beca07940f3020aca5d96e0073db90600090a2801561079e576000805461ff0019169055604051600181527f7f26b83ff96e1f2b6a682f133852f6798a09c465da95921460cefb38474024989060200160405180910390a15b505050565b6107ab610bef565b6107b56000610c49565b565b6060818067ffffffffffffffff8111156107d3576107d3610fd2565b6040519080825280602002602001820160405280156107fc578160200160208202803683370190505b50915060005b818110156108855760686000868684818110610820576108206112f4565b905060200201602081019061083591906111e3565b6001600160a01b03166001600160a01b0316815260200190815260200160002054838281518110610868576108686112f4565b60209081029190910101528061087d8161130a565b915050610802565b505092915050565b610895610bef565b6066805473ffffffffffffffffffffffffffffffffffffffff19166001600160a01b0383169081179091556040517fe26c879d728ec1a6c6f55c2809dd8c7f9d67beca07940f3020aca5d96e0073db90600090a250565b6000806000806108fb8561096c565b6040805160008152602081018083528b905260ff8316918101919091526060810184905260808101839052929550909350915060019060a0016020604051602081039080840390855afa158015610956573d6000803e3d6000fd5b5050506020604051035193505050505b92915050565b600080600083516041146109c25760405162461bcd60e51b815260206004820152601860248201527f696e76616c6964207369676e6174757265206c656e6774680000000000000000604482015260640161036f565b50505060208101516040820151606090920151909260009190911a90565b6109e8610bef565b6001600160a01b038116610a645760405162461bcd60e51b815260206004820152602660248201527f4f776e61626c653a206e6577206f776e657220697320746865207a65726f206160448201527f6464726573730000000000000000000000000000000000000000000000000000606482015260840161036f565b610a6d81610c49565b50565b6040516001600160a01b03831660248201526044810182905261079e9084907fa9059cbb00000000000000000000000000000000000000000000000000000000906064015b60408051601f198184030181529190526020810180517bffffffffffffffffffffffffffffffffffffffffffffffffffffffff167fffffffff0000000000000000000000000000000000000000000000000000000090931692909217909152610ca8565b6040516001600160a01b038085166024830152831660448201526064810182905261058e9085907f23b872dd0000000000000000000000000000000000000000000000000000000090608401610ab5565b600054610100900460ff16610be75760405162461bcd60e51b815260206004820152602b60248201527f496e697469616c697a61626c653a20636f6e7472616374206973206e6f74206960448201527f6e697469616c697a696e67000000000000000000000000000000000000000000606482015260840161036f565b6107b5610d90565b6033546001600160a01b031633146107b55760405162461bcd60e51b815260206004820181905260248201527f4f776e61626c653a2063616c6c6572206973206e6f7420746865206f776e6572604482015260640161036f565b603380546001600160a01b0383811673ffffffffffffffffffffffffffffffffffffffff19831681179093556040519116919082907f8be0079c531659141344cd1fd0a4f28419497f9722a3daafe3b4186f6b6457e090600090a35050565b6000610cfd826040518060400160405280602081526020017f5361666545524332303a206c6f772d6c6576656c2063616c6c206661696c6564815250856001600160a01b0316610e169092919063ffffffff16565b9050805160001480610d1e575080806020019051810190610d1e9190611342565b61079e5760405162461bcd60e51b815260206004820152602a60248201527f5361666545524332303a204552433230206f7065726174696f6e20646964206e60448201527f6f74207375636365656400000000000000000000000000000000000000000000606482015260840161036f565b600054610100900460ff16610e0d5760405162461bcd60e51b815260206004820152602b60248201527f496e697469616c697a61626c653a20636f6e7472616374206973206e6f74206960448201527f6e697469616c697a696e67000000000000000000000000000000000000000000606482015260840161036f565b6107b533610c49565b6060610e258484600085610e2d565b949350505050565b606082471015610ea55760405162461bcd60e51b815260206004820152602660248201527f416464726573733a20696e73756666696369656e742062616c616e636520666f60448201527f722063616c6c0000000000000000000000000000000000000000000000000000606482015260840161036f565b600080866001600160a01b03168587604051610ec19190611388565b60006040518083038185875af1925050503d8060008114610efe576040519150601f19603f3d011682016040523d82523d6000602084013e610f03565b606091505b5091509150610f1487838387610f1f565b979650505050505050565b60608315610f8e578251600003610f87576001600160a01b0385163b610f875760405162461bcd60e51b815260206004820152601d60248201527f416464726573733a2063616c6c20746f206e6f6e2d636f6e7472616374000000604482015260640161036f565b5081610e25565b610e258383815115610fa35781518083602001fd5b8060405162461bcd60e51b815260040161036f91906113a4565b6001600160a01b0381168114610a6d57600080fd5b634e487b7160e01b600052604160045260246000fd5b600082601f830112610ff957600080fd5b813567ffffffffffffffff8082111561101457611014610fd2565b604051601f8301601f19908116603f0116810190828211818310171561103c5761103c610fd2565b8160405283815286602085880101111561105557600080fd5b836020870160208301376000602085830101528094505050505092915050565b6000806000806080858703121561108b57600080fd5b843561109681610fbd565b93506020850135925060408501359150606085013567ffffffffffffffff8111156110c057600080fd5b6110cc87828801610fe8565b91505092959194509250565b6000602082840312156110ea57600080fd5b5035919050565b6000806040838503121561110457600080fd5b823561110f81610fbd565b9150602083013561111f81610fbd565b809150509250929050565b6000806020838503121561113d57600080fd5b823567ffffffffffffffff8082111561115557600080fd5b818501915085601f83011261116957600080fd5b81358181111561117857600080fd5b8660208260051b850101111561118d57600080fd5b60209290920196919550909350505050565b6020808252825182820181905260009190848201906040850190845b818110156111d7578351835292840192918401916001016111bb565b50909695505050505050565b6000602082840312156111f557600080fd5b813561120081610fbd565b9392505050565b6000806040838503121561121a57600080fd5b82359150602083013567ffffffffffffffff81111561123857600080fd5b61124485828601610fe8565b9150509250929050565b60006020828403121561126057600080fd5b813567ffffffffffffffff81111561127757600080fd5b610e2584828501610fe8565b60008060006060848603121561129857600080fd5b83356112a381610fbd565b95602085013595506040909401359392505050565b634e487b7160e01b600052601160045260246000fd5b81810381811115610966576109666112b8565b80820180821115610966576109666112b8565b634e487b7160e01b600052603260045260246000fd5b60007fffffffffffffffffffffffffffffffffffffffffffffffffffffffffffffffff820361133b5761133b6112b8565b5060010190565b60006020828403121561135457600080fd5b8151801515811461120057600080fd5b60005b8381101561137f578181015183820152602001611367565b50506000910152565b6000825161139a818460208701611364565b9190910192915050565b60208152600082518060208401526113c3816040850160208701611364565b601f01601f1916919091016040019291505056fea26469706673582212202b30529ac5c57491e0f660cd5b3dc90d50fedc7694e3beb6a0a1096ac949ece064736f6c63430008120033",
  "linkReferences": {},
  "deployedLinkReferences": {}
}