{
  "_format": "hh-sol-artifact-1",
  "contractName": "IntentXMinigame",
  "sourceName": "contracts/IntentxMinigame.sol",
  "abi": [
    {
      "inputs": [],
      "name": "DayNotFinished",
      "type": "error"
    },
    {
      "inputs": [],
      "name": "InvalidSignature",
      "type": "error"
    },
    {
      "anonymous": false,
      "inputs": [
        {
          "indexed": true,
          "internalType": "address",
          "name": "user",
          "type": "address"
        },
        {
          "indexed": false,
          "internalType": "uint256",
          "name": "timestamp",
          "type": "uint256"
        },
        {
          "indexed": false,
          "internalType": "uint256",
          "name": "amount",
          "type": "uint256"
        }
      ],
      "name": "Claim",
      "type": "event"
    },
    {
      "anonymous": false,
      "inputs": [
        {
          "indexed": false,
          "internalType": "uint8",
          "name": "version",
          "type": "uint8"
        }
      ],
      "name": "Initialized",
      "type": "event"
    },
    {
      "anonymous": false,
      "inputs": [
        {
          "indexed": true,
          "internalType": "address",
          "name": "previousOwner",
          "type": "address"
        },
        {
          "indexed": true,
          "internalType": "address",
          "name": "newOwner",
          "type": "address"
        }
      ],
      "name": "OwnershipTransferred",
      "type": "event"
    },
    {
      "anonymous": false,
      "inputs": [
        {
          "indexed": false,
          "internalType": "uint256",
          "name": "timestamp",
          "type": "uint256"
        },
        {
          "indexed": false,
          "internalType": "uint256",
          "name": "amount",
          "type": "uint256"
        }
      ],
      "name": "Reward",
      "type": "event"
    },
    {
      "anonymous": false,
      "inputs": [
        {
          "indexed": true,
          "internalType": "address",
          "name": "intentxTrustedAddress",
          "type": "address"
        }
      ],
      "name": "SetIntentXTrustedAddress",
      "type": "event"
    },
    {
      "inputs": [
        {
          "internalType": "address payable",
          "name": "_user",
          "type": "address"
        },
        {
          "internalType": "uint256",
          "name": "_amountMnt",
          "type": "uint256"
        },
        {
          "internalType": "uint256",
          "name": "_timestamp",
          "type": "uint256"
        },
        {
          "internalType": "bytes",
          "name": "signature",
          "type": "bytes"
        }
      ],
      "name": "claim",
      "outputs": [],
      "stateMutability": "nonpayable",
      "type": "function"
    },
    {
      "inputs": [
        {
          "internalType": "address",
          "name": "",
          "type": "address"
        }
      ],
      "name": "claimed",
      "outputs": [
        {
          "internalType": "uint256",
          "name": "",
          "type": "uint256"
        }
      ],
      "stateMutability": "view",
      "type": "function"
    },
    {
      "inputs": [
        {
          "internalType": "uint256",
          "name": "_amount",
          "type": "uint256"
        }
      ],
      "name": "fill",
      "outputs": [],
      "stateMutability": "payable",
      "type": "function"
    },
    {
      "inputs": [
        {
          "internalType": "bytes32",
          "name": "_messageHash",
          "type": "bytes32"
        }
      ],
      "name": "getEthSignedMessageHash",
      "outputs": [
        {
          "internalType": "bytes32",
          "name": "",
          "type": "bytes32"
        }
      ],
      "stateMutability": "pure",
      "type": "function"
    },
    {
      "inputs": [
        {
          "internalType": "address",
          "name": "_user",
          "type": "address"
        },
        {
          "internalType": "uint256",
          "name": "_amountIntentX",
          "type": "uint256"
        },
        {
          "internalType": "uint256",
          "name": "_timestamp",
          "type": "uint256"
        }
      ],
      "name": "getMessageHash",
      "outputs": [
        {
          "internalType": "bytes32",
          "name": "",
          "type": "bytes32"
        }
      ],
      "stateMutability": "pure",
      "type": "function"
    },
    {
      "inputs": [
        {
          "internalType": "address",
          "name": "_intentxTrustedAddress",
          "type": "address"
        }
      ],
      "name": "initialize",
      "outputs": [],
      "stateMutability": "nonpayable",
      "type": "function"
    },
    {
      "inputs": [],
      "name": "intentxTrustedAddress",
      "outputs": [
        {
          "internalType": "address",
          "name": "",
          "type": "address"
        }
      ],
      "stateMutability": "view",
      "type": "function"
    },
    {
      "inputs": [],
      "name": "owner",
      "outputs": [
        {
          "internalType": "address",
          "name": "",
          "type": "address"
        }
      ],
      "stateMutability": "view",
      "type": "function"
    },
    {
      "inputs": [
        {
          "internalType": "bytes32",
          "name": "_ethSignedMessageHash",
          "type": "bytes32"
        },
        {
          "internalType": "bytes",
          "name": "_signature",
          "type": "bytes"
        }
      ],
      "name": "recoverSigner",
      "outputs": [
        {
          "internalType": "address",
          "name": "",
          "type": "address"
        }
      ],
      "stateMutability": "pure",
      "type": "function"
    },
    {
      "inputs": [],
      "name": "renounceOwnership",
      "outputs": [],
      "stateMutability": "nonpayable",
      "type": "function"
    },
    {
      "inputs": [
        {
          "internalType": "address",
          "name": "_intentxTrustedAddress",
          "type": "address"
        }
      ],
      "name": "setIntentxTrustedAddress",
      "outputs": [],
      "stateMutability": "nonpayable",
      "type": "function"
    },
    {
      "inputs": [
        {
          "internalType": "bytes",
          "name": "sig",
          "type": "bytes"
        }
      ],
      "name": "splitSignature",
      "outputs": [
        {
          "internalType": "bytes32",
          "name": "r",
          "type": "bytes32"
        },
        {
          "internalType": "bytes32",
          "name": "s",
          "type": "bytes32"
        },
        {
          "internalType": "uint8",
          "name": "v",
          "type": "uint8"
        }
      ],
      "stateMutability": "pure",
      "type": "function"
    },
    {
      "inputs": [],
      "name": "startTimestamp",
      "outputs": [
        {
          "internalType": "uint256",
          "name": "",
          "type": "uint256"
        }
      ],
      "stateMutability": "view",
      "type": "function"
    },
    {
      "inputs": [],
      "name": "totalReward",
      "outputs": [
        {
          "internalType": "uint256",
          "name": "",
          "type": "uint256"
        }
      ],
      "stateMutability": "view",
      "type": "function"
    },
    {
      "inputs": [
        {
          "internalType": "address",
          "name": "newOwner",
          "type": "address"
        }
      ],
      "name": "transferOwnership",
      "outputs": [],
      "stateMutability": "nonpayable",
      "type": "function"
    }
  ],
  "bytecode": "0x608060405234801561001057600080fd5b50610f6f806100206000396000f3fe6080604052600436106100e85760003560e01c8063a7bb58031161008a578063d7a105ec11610059578063d7a105ec146102c7578063e6fd48bc146102e7578063f2fde38b146102fd578063fa5408011461031d57600080fd5b8063a7bb5803146101d2578063c4d66de814610210578063c884ef8314610230578063d2b0737b1461025d57600080fd5b8063750142e6116100c6578063750142e6146101375780638da5cb5b1461016057806396b18c121461019257806397aba7f9146101b257600080fd5b80632ada8a32146100ed5780633fda53891461010f578063715018a614610122575b600080fd5b3480156100f957600080fd5b5061010d610108366004610d8b565b61038b565b005b61010d61011d366004610dee565b6106ad565b34801561012e57600080fd5b5061010d61074f565b34801561014357600080fd5b5061014d60675481565b6040519081526020015b60405180910390f35b34801561016c57600080fd5b506033546001600160a01b03165b6040516001600160a01b039091168152602001610157565b34801561019e57600080fd5b5061010d6101ad366004610e07565b610763565b3480156101be57600080fd5b5061017a6101cd366004610e2b565b6107c2565b3480156101de57600080fd5b506101f26101ed366004610e72565b610842565b60408051938452602084019290925260ff1690820152606001610157565b34801561021c57600080fd5b5061010d61022b366004610e07565b6108b6565b34801561023c57600080fd5b5061014d61024b366004610e07565b60686020526000908152604090205481565b34801561026957600080fd5b5061014d610278366004610eaf565b6040516bffffffffffffffffffffffff19606085901b16602082015260348101839052605481018290526000906074016040516020818303038152906040528051906020012090509392505050565b3480156102d357600080fd5b5060655461017a906001600160a01b031681565b3480156102f357600080fd5b5061014d60665481565b34801561030957600080fd5b5061010d610318366004610e07565b610a4d565b34801561032957600080fd5b5061014d610338366004610dee565b6040517f19457468657265756d205369676e6564204d6573736167653a0a3332000000006020820152603c8101829052600090605c01604051602081830303815290604052805190602001209050919050565b6066544210156103e25760405162461bcd60e51b815260206004820152600b60248201527f4e4f54205354415254454400000000000000000000000000000000000000000060448201526064015b60405180910390fd5b336001600160a01b0385161461043a5760405162461bcd60e51b815260206004820152600e60248201527f4e6f7420796f757220636c61696d00000000000000000000000000000000000060448201526064016103d9565b6065546001600160a01b03166104b75760405162461bcd60e51b8152602060048201526024808201527f496e74656e745820547275737465642041646472657373206e6f74207365742060448201527f7965742e0000000000000000000000000000000000000000000000000000000060648201526084016103d9565b336000908152606860205260409020548311156106a75760408051606086901b6bffffffffffffffffffffffff1916602080830191909152603482018690526054808301869052835180840390910181526074830184528051908201207f19457468657265756d205369676e6564204d6573736167653a0a333200000000609484015260b08084018290528451808503909101815260d090930190935281519101206065546001600160a01b031661056f82856107c2565b6001600160a01b0316146105c55760405162461bcd60e51b815260206004820152601360248201527f5369676e6572203d2120547275737465642e200000000000000000000000000060448201526064016103d9565b336000908152606860205260408120546105df9087610f13565b3360009081526068602052604080822089905551919250906001600160a01b0389169083156108fc0290849084818181858888f193505050509050806106675760405162461bcd60e51b815260206004820152601360248201527f4d4e54205472616e73666572206661696c65640000000000000000000000000060448201526064016103d9565b604080514281526020810184905233917f34fcbac0073d7c3d388e51312faf357774904998eeb8fca628b9e6f65ee1cbf7910160405180910390a2505050505b50505050565b3481146106fc5760405162461bcd60e51b815260206004820152601660248201527f4e6f7420656e6f75676820616d6f756e742073656e740000000000000000000060448201526064016103d9565b806067600082825461070e9190610f26565b909155505060408051428152602081018390527f45cad8c10023de80f4c0672ff6c283b671e11aa93c92b9380cdf060d2790da52910160405180910390a150565b610757610add565b6107616000610b37565b565b61076b610add565b6065805473ffffffffffffffffffffffffffffffffffffffff19166001600160a01b0383169081179091556040517fe26c879d728ec1a6c6f55c2809dd8c7f9d67beca07940f3020aca5d96e0073db90600090a250565b6000806000806107d185610842565b6040805160008152602081018083528b905260ff8316918101919091526060810184905260808101839052929550909350915060019060a0016020604051602081039080840390855afa15801561082c573d6000803e3d6000fd5b5050506020604051035193505050505b92915050565b600080600083516041146108985760405162461bcd60e51b815260206004820152601860248201527f696e76616c6964207369676e6174757265206c656e677468000000000000000060448201526064016103d9565b50505060208101516040820151606090920151909260009190911a90565b600054610100900460ff16158080156108d65750600054600160ff909116105b806108f05750303b1580156108f0575060005460ff166001145b6109625760405162461bcd60e51b815260206004820152602e60248201527f496e697469616c697a61626c653a20636f6e747261637420697320616c72656160448201527f647920696e697469616c697a656400000000000000000000000000000000000060648201526084016103d9565b600080547fffffffffffffffffffffffffffffffffffffffffffffffffffffffffffffff0016600117905580156109a3576000805461ff0019166101001790555b6109ab610b96565b6065805473ffffffffffffffffffffffffffffffffffffffff19166001600160a01b038416908117909155426066556040517fe26c879d728ec1a6c6f55c2809dd8c7f9d67beca07940f3020aca5d96e0073db90600090a28015610a49576000805461ff0019169055604051600181527f7f26b83ff96e1f2b6a682f133852f6798a09c465da95921460cefb38474024989060200160405180910390a15b5050565b610a55610add565b6001600160a01b038116610ad15760405162461bcd60e51b815260206004820152602660248201527f4f776e61626c653a206e6577206f776e657220697320746865207a65726f206160448201527f646472657373000000000000000000000000000000000000000000000000000060648201526084016103d9565b610ada81610b37565b50565b6033546001600160a01b031633146107615760405162461bcd60e51b815260206004820181905260248201527f4f776e61626c653a2063616c6c6572206973206e6f7420746865206f776e657260448201526064016103d9565b603380546001600160a01b0383811673ffffffffffffffffffffffffffffffffffffffff19831681179093556040519116919082907f8be0079c531659141344cd1fd0a4f28419497f9722a3daafe3b4186f6b6457e090600090a35050565b600054610100900460ff16610c135760405162461bcd60e51b815260206004820152602b60248201527f496e697469616c697a61626c653a20636f6e7472616374206973206e6f74206960448201527f6e697469616c697a696e6700000000000000000000000000000000000000000060648201526084016103d9565b610761600054610100900460ff16610c935760405162461bcd60e51b815260206004820152602b60248201527f496e697469616c697a61626c653a20636f6e7472616374206973206e6f74206960448201527f6e697469616c697a696e6700000000000000000000000000000000000000000060648201526084016103d9565b61076133610b37565b6001600160a01b0381168114610ada57600080fd5b7f4e487b7100000000000000000000000000000000000000000000000000000000600052604160045260246000fd5b600082601f830112610cf157600080fd5b813567ffffffffffffffff80821115610d0c57610d0c610cb1565b604051601f83017fffffffffffffffffffffffffffffffffffffffffffffffffffffffffffffffe0908116603f01168101908282118183101715610d5257610d52610cb1565b81604052838152866020858801011115610d6b57600080fd5b836020870160208301376000602085830101528094505050505092915050565b60008060008060808587031215610da157600080fd5b8435610dac81610c9c565b93506020850135925060408501359150606085013567ffffffffffffffff811115610dd657600080fd5b610de287828801610ce0565b91505092959194509250565b600060208284031215610e0057600080fd5b5035919050565b600060208284031215610e1957600080fd5b8135610e2481610c9c565b9392505050565b60008060408385031215610e3e57600080fd5b82359150602083013567ffffffffffffffff811115610e5c57600080fd5b610e6885828601610ce0565b9150509250929050565b600060208284031215610e8457600080fd5b813567ffffffffffffffff811115610e9b57600080fd5b610ea784828501610ce0565b949350505050565b600080600060608486031215610ec457600080fd5b8335610ecf81610c9c565b95602085013595506040909401359392505050565b7f4e487b7100000000000000000000000000000000000000000000000000000000600052601160045260246000fd5b8181038181111561083c5761083c610ee4565b8082018082111561083c5761083c610ee456fea2646970667358221220930f00d39fb496abfddbf89480ccf1a7aa5323893135816a56d277c3bb3cdae464736f6c63430008120033",
  "linkReferences": {},
  "deployedLinkReferences": {}
}