{
  "_format": "hh-sol-artifact-1",
  "contractName": "VestingXINTXAdv",
  "sourceName": "contracts/vestings/VestingXINTXAdv.sol",
  "abi": [
    {
      "inputs": [],
      "stateMutability": "nonpayable",
      "type": "constructor"
    },
    {
      "anonymous": false,
      "inputs": [
        {
          "indexed": true,
          "internalType": "address",
          "name": "user",
          "type": "address"
        },
        {
          "indexed": false,
          "internalType": "uint256",
          "name": "amount",
          "type": "uint256"
        },
        {
          "indexed": false,
          "internalType": "uint256",
          "name": "_tokenId",
          "type": "uint256"
        }
      ],
      "name": "Claimed",
      "type": "event"
    },
    {
      "anonymous": false,
      "inputs": [
        {
          "indexed": false,
          "internalType": "uint8",
          "name": "version",
          "type": "uint8"
        }
      ],
      "name": "Initialized",
      "type": "event"
    },
    {
      "anonymous": false,
      "inputs": [
        {
          "indexed": true,
          "internalType": "address",
          "name": "previousOwner",
          "type": "address"
        },
        {
          "indexed": true,
          "internalType": "address",
          "name": "newOwner",
          "type": "address"
        }
      ],
      "name": "OwnershipTransferStarted",
      "type": "event"
    },
    {
      "anonymous": false,
      "inputs": [
        {
          "indexed": true,
          "internalType": "address",
          "name": "previousOwner",
          "type": "address"
        },
        {
          "indexed": true,
          "internalType": "address",
          "name": "newOwner",
          "type": "address"
        }
      ],
      "name": "OwnershipTransferred",
      "type": "event"
    },
    {
      "anonymous": false,
      "inputs": [
        {
          "indexed": false,
          "internalType": "address",
          "name": "operator",
          "type": "address"
        },
        {
          "indexed": false,
          "internalType": "address[]",
          "name": "users",
          "type": "address[]"
        },
        {
          "indexed": false,
          "internalType": "uint256[]",
          "name": "amount",
          "type": "uint256[]"
        }
      ],
      "name": "RemoveSeed",
      "type": "event"
    },
    {
      "anonymous": false,
      "inputs": [
        {
          "indexed": false,
          "internalType": "address",
          "name": "operator",
          "type": "address"
        },
        {
          "indexed": false,
          "internalType": "address[]",
          "name": "users",
          "type": "address[]"
        },
        {
          "indexed": false,
          "internalType": "uint256[]",
          "name": "amount",
          "type": "uint256[]"
        },
        {
          "indexed": false,
          "internalType": "uint256[]",
          "name": "start_vesting",
          "type": "uint256[]"
        },
        {
          "indexed": false,
          "internalType": "uint256[]",
          "name": "vesting_duration",
          "type": "uint256[]"
        },
        {
          "indexed": false,
          "internalType": "uint256",
          "name": "totalAmount",
          "type": "uint256"
        }
      ],
      "name": "Seeded",
      "type": "event"
    },
    {
      "inputs": [],
      "name": "PRECISION",
      "outputs": [
        {
          "internalType": "uint256",
          "name": "",
          "type": "uint256"
        }
      ],
      "stateMutability": "view",
      "type": "function"
    },
    {
      "inputs": [],
      "name": "acceptOwnership",
      "outputs": [],
      "stateMutability": "nonpayable",
      "type": "function"
    },
    {
      "inputs": [],
      "name": "claim",
      "outputs": [],
      "stateMutability": "nonpayable",
      "type": "function"
    },
    {
      "inputs": [
        {
          "internalType": "address",
          "name": "",
          "type": "address"
        }
      ],
      "name": "claimableAmount",
      "outputs": [
        {
          "internalType": "uint256",
          "name": "",
          "type": "uint256"
        }
      ],
      "stateMutability": "view",
      "type": "function"
    },
    {
      "inputs": [
        {
          "internalType": "address",
          "name": "_user",
          "type": "address"
        }
      ],
      "name": "claimableNow",
      "outputs": [
        {
          "internalType": "uint256",
          "name": "amountToReceive",
          "type": "uint256"
        }
      ],
      "stateMutability": "view",
      "type": "function"
    },
    {
      "inputs": [
        {
          "internalType": "address",
          "name": "_user",
          "type": "address"
        }
      ],
      "name": "claimableWithoutCliff",
      "outputs": [
        {
          "internalType": "uint256",
          "name": "amountToReceive",
          "type": "uint256"
        }
      ],
      "stateMutability": "view",
      "type": "function"
    },
    {
      "inputs": [
        {
          "internalType": "address",
          "name": "",
          "type": "address"
        }
      ],
      "name": "claimedAmount",
      "outputs": [
        {
          "internalType": "uint256",
          "name": "",
          "type": "uint256"
        }
      ],
      "stateMutability": "view",
      "type": "function"
    },
    {
      "inputs": [
        {
          "internalType": "address",
          "name": "_intx",
          "type": "address"
        },
        {
          "internalType": "address",
          "name": "_xIntx",
          "type": "address"
        }
      ],
      "name": "initialize",
      "outputs": [],
      "stateMutability": "nonpayable",
      "type": "function"
    },
    {
      "inputs": [],
      "name": "intx",
      "outputs": [
        {
          "internalType": "contract IERC20",
          "name": "",
          "type": "address"
        }
      ],
      "stateMutability": "view",
      "type": "function"
    },
    {
      "inputs": [],
      "name": "owner",
      "outputs": [
        {
          "internalType": "address",
          "name": "",
          "type": "address"
        }
      ],
      "stateMutability": "view",
      "type": "function"
    },
    {
      "inputs": [],
      "name": "pendingOwner",
      "outputs": [
        {
          "internalType": "address",
          "name": "",
          "type": "address"
        }
      ],
      "stateMutability": "view",
      "type": "function"
    },
    {
      "inputs": [
        {
          "internalType": "address[]",
          "name": "_receivers",
          "type": "address[]"
        },
        {
          "internalType": "uint256[]",
          "name": "_amounts",
          "type": "uint256[]"
        }
      ],
      "name": "removeAllocations",
      "outputs": [],
      "stateMutability": "nonpayable",
      "type": "function"
    },
    {
      "inputs": [],
      "name": "renounceOwnership",
      "outputs": [],
      "stateMutability": "nonpayable",
      "type": "function"
    },
    {
      "inputs": [
        {
          "internalType": "address[]",
          "name": "_receivers",
          "type": "address[]"
        },
        {
          "internalType": "uint256[]",
          "name": "_amounts",
          "type": "uint256[]"
        },
        {
          "internalType": "uint256[]",
          "name": "_start_vesting",
          "type": "uint256[]"
        },
        {
          "internalType": "uint256[]",
          "name": "_vesting_duration",
          "type": "uint256[]"
        }
      ],
      "name": "setAllocations",
      "outputs": [],
      "stateMutability": "nonpayable",
      "type": "function"
    },
    {
      "inputs": [
        {
          "internalType": "address",
          "name": "",
          "type": "address"
        }
      ],
      "name": "start_vesting",
      "outputs": [
        {
          "internalType": "uint256",
          "name": "",
          "type": "uint256"
        }
      ],
      "stateMutability": "view",
      "type": "function"
    },
    {
      "inputs": [
        {
          "internalType": "address",
          "name": "newOwner",
          "type": "address"
        }
      ],
      "name": "transferOwnership",
      "outputs": [],
      "stateMutability": "nonpayable",
      "type": "function"
    },
    {
      "inputs": [
        {
          "internalType": "address",
          "name": "",
          "type": "address"
        }
      ],
      "name": "vesting_duration",
      "outputs": [
        {
          "internalType": "uint256",
          "name": "",
          "type": "uint256"
        }
      ],
      "stateMutability": "view",
      "type": "function"
    },
    {
      "inputs": [],
      "name": "xIntx",
      "outputs": [
        {
          "internalType": "contract IStakedINTX",
          "name": "",
          "type": "address"
        }
      ],
      "stateMutability": "view",
      "type": "function"
    }
  ],
  "bytecode": "0x608060405234801561001057600080fd5b5061001961001e565b6100dd565b600054610100900460ff161561008a5760405162461bcd60e51b815260206004820152602760248201527f496e697469616c697a61626c653a20636f6e747261637420697320696e697469604482015266616c697a696e6760c81b606482015260840160405180910390fd5b60005460ff908116146100db576000805460ff191660ff9081179091556040519081527f7f26b83ff96e1f2b6a682f133852f6798a09c465da95921460cefb38474024989060200160405180910390a15b565b611900806100ec6000396000f3fe608060405234801561001057600080fd5b50600436106101365760003560e01c806389885049116100b2578063aaf5eb6811610081578063de6aa92b11610066578063de6aa92b1461023d578063e30c39781461028d578063f2fde38b1461029e57600080fd5b8063aaf5eb6814610263578063bee81d871461026d57600080fd5b8063898850491461020c5780638da5cb5b1461022c5780639a78ea4a1461023d578063a37c1c5a1461025057600080fd5b8063485cc9551161010957806358d3467c116100ee57806358d3467c146101e9578063715018a6146101fc57806379ba50971461020457600080fd5b8063485cc955146101cc5780634e71d92d146101e157600080fd5b806304e869031461013b578063163ea74c1461016e57806327a7af891461018e57806346f7d6c9146101b9575b600080fd5b61015b610149366004611436565b60cc6020526000908152604090205481565b6040519081526020015b60405180910390f35b61015b61017c366004611436565b60cd6020526000908152604090205481565b60ca546101a1906001600160a01b031681565b6040516001600160a01b039091168152602001610165565b60c9546101a1906001600160a01b031681565b6101df6101da366004611458565b6102b1565b005b6101df6104e7565b6101df6101f73660046114d7565b61084d565b6101df610a80565b6101df610a88565b61015b61021a366004611436565b60cb6020526000908152604090205481565b6065546001600160a01b03166101a1565b61015b61024b366004611436565b610b16565b6101df61025e36600461159b565b610bd8565b61015b620186a081565b61015b61027b366004611436565b60ce6020526000908152604090205481565b6097546001600160a01b03166101a1565b6101df6102ac366004611436565b610d0a565b600054610100900460ff16158080156102d15750600054600160ff909116105b806102eb5750303b1580156102eb575060005460ff166001145b6103625760405162461bcd60e51b815260206004820152602e60248201527f496e697469616c697a61626c653a20636f6e747261637420697320616c72656160448201527f647920696e697469616c697a656400000000000000000000000000000000000060648201526084015b60405180910390fd5b600080547fffffffffffffffffffffffffffffffffffffffffffffffffffffffffffffff0016600117905580156103a3576000805461ff0019166101001790555b6103ab610d88565b6103b3610dfb565b6001600160a01b0383166104095760405162461bcd60e51b815260206004820152601460248201527f43616e27742075736520307820616464726573730000000000000000000000006044820152606401610359565b6001600160a01b03821661045f5760405162461bcd60e51b815260206004820152601460248201527f43616e27742075736520307820616464726573730000000000000000000000006044820152606401610359565b60c980546001600160a01b0380861673ffffffffffffffffffffffffffffffffffffffff199283161790925560ca80549285169290911691909117905580156104e2576000805461ff0019169055604051600181527f7f26b83ff96e1f2b6a682f133852f6798a09c465da95921460cefb38474024989060200160405180910390a15b505050565b6104ef610e6e565b33600090815260cb602052604081205490036105735760405162461bcd60e51b815260206004820152602e60248201527f54686973206164647265737320646f65736e2774206861766520616e7920616d60448201527f6f756e7420746f20636c61696d2e0000000000000000000000000000000000006064820152608401610359565b33600090815260cb602090815260408083205460cc90925290912054106106025760405162461bcd60e51b815260206004820152602c60248201527f596f75206861766520616c726561647920636c61696d656420616c6c20796f7560448201527f7220616c6c6f636174696f6e00000000000000000000000000000000000000006064820152608401610359565b33600090815260cd602090815260408083205460ce90925290912054428210156108405733600090815260cb602052604081205490610641844261161d565b90508281111561064e5750815b60008361065e620186a084611636565b610668919061164d565b33600090815260cc602052604081205491925090620186a061068a8487611636565b610694919061164d565b61069e919061161d565b9050801561083b5733600090815260cc6020526040812080548392906106c590849061166f565b909155505060c95460ca546040517f095ea7b30000000000000000000000000000000000000000000000000000000081526001600160a01b0391821660048201526024810184905291169063095ea7b3906044016020604051808303816000875af1158015610738573d6000803e3d6000fd5b505050506040513d601f19601f8201168201806040525081019061075c9190611682565b5060ca546000906001600160a01b0316632ee40908336040517fffffffff0000000000000000000000000000000000000000000000000000000060e084901b1681526001600160a01b039091166004820152602481018590526044016020604051808303816000875af11580156107d7573d6000803e3d6000fd5b505050506040513d601f19601f820116820180604052508101906107fb91906116a4565b604080518481526020810183905291925033917f987d620f307ff6b94d58743cb7a7509f24071586a77759b77c2d4e29f75a2f9a910160405180910390a2505b505050505b505061084b60018055565b565b610855610ecd565b60008786811461086457600080fd5b60005b81811015610a1257888882818110610881576108816116bd565b9050602002013560cb60008d8d8581811061089e5761089e6116bd565b90506020020160208101906108b39190611436565b6001600160a01b03166001600160a01b0316815260200190815260200160002060008282546108e2919061166f565b9091555087905086828181106108fa576108fa6116bd565b9050602002013560cd60008d8d85818110610917576109176116bd565b905060200201602081019061092c9190611436565b6001600160a01b03166001600160a01b03168152602001908152602001600020600082825461095b919061166f565b909155508590508482818110610973576109736116bd565b9050602002013560ce60008d8d85818110610990576109906116bd565b90506020020160208101906109a59190611436565b6001600160a01b03166001600160a01b0316815260200190815260200160002060008282546109d4919061166f565b9091555089905088828181106109ec576109ec6116bd565b90506020020135836109fe919061166f565b925080610a0a816116d3565b915050610867565b50610a2b3360c9546001600160a01b0316903085610f27565b7f6643aeb125343723f6ddfabb49898c03db5bc6420b919a755cec0bdd6ca38fcd338b8b8b8b8b8b8b8b8b604051610a6c9a9998979695949392919061179d565b60405180910390a150505050505050505050565b61084b610ecd565b60975433906001600160a01b03168114610b0a5760405162461bcd60e51b815260206004820152602960248201527f4f776e61626c6532537465703a2063616c6c6572206973206e6f74207468652060448201527f6e6577206f776e657200000000000000000000000000000000000000000000006064820152608401610359565b610b1381610fde565b50565b6001600160a01b038116600090815260cd602090815260408083205460ce90925282205442821015610bd1576001600160a01b038416600090815260cb602052604081205490610b66844261161d565b905082811115610b735750815b600083610b83620186a084611636565b610b8d919061164d565b6001600160a01b038816600090815260cc6020526040902054909150620186a0610bb78386611636565b610bc1919061164d565b610bcb919061161d565b95505050505b5050919050565b610be0610ecd565b600083828114610bef57600080fd5b60005b81811015610cab57848482818110610c0c57610c0c6116bd565b9050602002013560cb6000898985818110610c2957610c296116bd565b9050602002016020810190610c3e9190611436565b6001600160a01b03166001600160a01b031681526020019081526020016000206000828254610c6d919061161d565b909155508590508482818110610c8557610c856116bd565b9050602002013583610c97919061166f565b925080610ca3816116d3565b915050610bf2565b50610cc33360c9546001600160a01b03169084611004565b7f4f25cd81512105d97bd46364551eb94e032e6bc294d33ec5779144af3dadb7663387878787604051610cfa959493929190611815565b60405180910390a1505050505050565b610d12610ecd565b609780546001600160a01b03831673ffffffffffffffffffffffffffffffffffffffff199091168117909155610d506065546001600160a01b031690565b6001600160a01b03167f38d16b8cac22d99fc7c124b9cd0de2d3fa1faef420bfe791d8c362d765e2270060405160405180910390a350565b600054610100900460ff16610df35760405162461bcd60e51b815260206004820152602b60248201527f496e697469616c697a61626c653a20636f6e7472616374206973206e6f74206960448201526a6e697469616c697a696e6760a81b6064820152608401610359565b61084b61104d565b600054610100900460ff16610e665760405162461bcd60e51b815260206004820152602b60248201527f496e697469616c697a61626c653a20636f6e7472616374206973206e6f74206960448201526a6e697469616c697a696e6760a81b6064820152608401610359565b61084b6110b8565b600260015403610ec05760405162461bcd60e51b815260206004820152601f60248201527f5265656e7472616e637947756172643a207265656e7472616e742063616c6c006044820152606401610359565b6002600155565b60018055565b6065546001600160a01b0316331461084b5760405162461bcd60e51b815260206004820181905260248201527f4f776e61626c653a2063616c6c6572206973206e6f7420746865206f776e65726044820152606401610359565b6040516001600160a01b0380851660248301528316604482015260648101829052610fd89085907f23b872dd00000000000000000000000000000000000000000000000000000000906084015b60408051601f198184030181529190526020810180517bffffffffffffffffffffffffffffffffffffffffffffffffffffffff167fffffffff000000000000000000000000000000000000000000000000000000009093169290921790915261112c565b50505050565b6097805473ffffffffffffffffffffffffffffffffffffffff19169055610b1381611214565b6040516001600160a01b0383166024820152604481018290526104e29084907fa9059cbb0000000000000000000000000000000000000000000000000000000090606401610f74565b600054610100900460ff16610ec75760405162461bcd60e51b815260206004820152602b60248201527f496e697469616c697a61626c653a20636f6e7472616374206973206e6f74206960448201526a6e697469616c697a696e6760a81b6064820152608401610359565b600054610100900460ff166111235760405162461bcd60e51b815260206004820152602b60248201527f496e697469616c697a61626c653a20636f6e7472616374206973206e6f74206960448201526a6e697469616c697a696e6760a81b6064820152608401610359565b61084b33610fde565b6000611181826040518060400160405280602081526020017f5361666545524332303a206c6f772d6c6576656c2063616c6c206661696c6564815250856001600160a01b03166112739092919063ffffffff16565b90508051600014806111a25750808060200190518101906111a29190611682565b6104e25760405162461bcd60e51b815260206004820152602a60248201527f5361666545524332303a204552433230206f7065726174696f6e20646964206e60448201527f6f742073756363656564000000000000000000000000000000000000000000006064820152608401610359565b606580546001600160a01b0383811673ffffffffffffffffffffffffffffffffffffffff19831681179093556040519116919082907f8be0079c531659141344cd1fd0a4f28419497f9722a3daafe3b4186f6b6457e090600090a35050565b6060611282848460008561128a565b949350505050565b6060824710156113025760405162461bcd60e51b815260206004820152602660248201527f416464726573733a20696e73756666696369656e742062616c616e636520666f60448201527f722063616c6c00000000000000000000000000000000000000000000000000006064820152608401610359565b600080866001600160a01b0316858760405161131e919061187b565b60006040518083038185875af1925050503d806000811461135b576040519150601f19603f3d011682016040523d82523d6000602084013e611360565b606091505b50915091506113718783838761137c565b979650505050505050565b606083156113eb5782516000036113e4576001600160a01b0385163b6113e45760405162461bcd60e51b815260206004820152601d60248201527f416464726573733a2063616c6c20746f206e6f6e2d636f6e74726163740000006044820152606401610359565b5081611282565b61128283838151156114005781518083602001fd5b8060405162461bcd60e51b81526004016103599190611897565b80356001600160a01b038116811461143157600080fd5b919050565b60006020828403121561144857600080fd5b6114518261141a565b9392505050565b6000806040838503121561146b57600080fd5b6114748361141a565b91506114826020840161141a565b90509250929050565b60008083601f84011261149d57600080fd5b50813567ffffffffffffffff8111156114b557600080fd5b6020830191508360208260051b85010111156114d057600080fd5b9250929050565b6000806000806000806000806080898b0312156114f357600080fd5b883567ffffffffffffffff8082111561150b57600080fd5b6115178c838d0161148b565b909a50985060208b013591508082111561153057600080fd5b61153c8c838d0161148b565b909850965060408b013591508082111561155557600080fd5b6115618c838d0161148b565b909650945060608b013591508082111561157a57600080fd5b506115878b828c0161148b565b999c989b5096995094979396929594505050565b600080600080604085870312156115b157600080fd5b843567ffffffffffffffff808211156115c957600080fd5b6115d58883890161148b565b909650945060208701359150808211156115ee57600080fd5b506115fb8782880161148b565b95989497509550505050565b634e487b7160e01b600052601160045260246000fd5b8181038181111561163057611630611607565b92915050565b808202811582820484141761163057611630611607565b60008261166a57634e487b7160e01b600052601260045260246000fd5b500490565b8082018082111561163057611630611607565b60006020828403121561169457600080fd5b8151801515811461145157600080fd5b6000602082840312156116b657600080fd5b5051919050565b634e487b7160e01b600052603260045260246000fd5b60007fffffffffffffffffffffffffffffffffffffffffffffffffffffffffffffffff820361170457611704611607565b5060010190565b8183526000602080850194508260005b85811015611747576001600160a01b036117348361141a565b168752958201959082019060010161171b565b509495945050505050565b81835260007f07ffffffffffffffffffffffffffffffffffffffffffffffffffffffffffffff83111561178457600080fd5b8260051b80836020870137939093016020019392505050565b6001600160a01b038b16815260c0602082015260006117c060c083018b8d61170b565b82810360408401526117d3818a8c611752565b905082810360608401526117e881888a611752565b905082810360808401526117fd818688611752565b9150508260a08301529b9a5050505050505050505050565b6001600160a01b038616815260606020820152600061183860608301868861170b565b828103604084015261184b818587611752565b98975050505050505050565b60005b8381101561187257818101518382015260200161185a565b50506000910152565b6000825161188d818460208701611857565b9190910192915050565b60208152600082518060208401526118b6816040850160208701611857565b601f01601f1916919091016040019291505056fea264697066735822122049dfb4731a6f014ed333f947cf497377087ef96ad3371a0dcad1bac22bd9067964736f6c63430008120033",
  "linkReferences": {},
  "deployedLinkReferences": {}
}