{
  "_format": "hh-sol-artifact-1",
  "contractName": "IntentxWithdrawalBridge",
  "sourceName": "contracts/IntentxWithdrawalBridge.sol",
  "abi": [
    {
      "anonymous": false,
      "inputs": [
        {
          "indexed": false,
          "internalType": "uint8",
          "name": "version",
          "type": "uint8"
        }
      ],
      "name": "Initialized",
      "type": "event"
    },
    {
      "anonymous": false,
      "inputs": [
        {
          "indexed": true,
          "internalType": "address",
          "name": "previousOwner",
          "type": "address"
        },
        {
          "indexed": true,
          "internalType": "address",
          "name": "newOwner",
          "type": "address"
        }
      ],
      "name": "OwnershipTransferred",
      "type": "event"
    },
    {
      "anonymous": false,
      "inputs": [
        {
          "indexed": false,
          "internalType": "address",
          "name": "whitelistChecker",
          "type": "address"
        }
      ],
      "name": "SetIntentXWhitelistChecker",
      "type": "event"
    },
    {
      "inputs": [],
      "name": "amountAvailable",
      "outputs": [
        {
          "internalType": "uint256",
          "name": "",
          "type": "uint256"
        }
      ],
      "stateMutability": "view",
      "type": "function"
    },
    {
      "inputs": [],
      "name": "amountProvided",
      "outputs": [
        {
          "internalType": "uint256",
          "name": "",
          "type": "uint256"
        }
      ],
      "stateMutability": "view",
      "type": "function"
    },
    {
      "inputs": [
        {
          "internalType": "bytes32",
          "name": "_messageHash",
          "type": "bytes32"
        }
      ],
      "name": "getEthSignedMessageHash",
      "outputs": [
        {
          "internalType": "bytes32",
          "name": "",
          "type": "bytes32"
        }
      ],
      "stateMutability": "pure",
      "type": "function"
    },
    {
      "inputs": [
        {
          "internalType": "address",
          "name": "_user",
          "type": "address"
        },
        {
          "internalType": "uint256",
          "name": "_amountIntentX",
          "type": "uint256"
        },
        {
          "internalType": "uint256",
          "name": "_timestamp",
          "type": "uint256"
        }
      ],
      "name": "getMessageHash",
      "outputs": [
        {
          "internalType": "bytes32",
          "name": "",
          "type": "bytes32"
        }
      ],
      "stateMutability": "pure",
      "type": "function"
    },
    {
      "inputs": [
        {
          "internalType": "uint256",
          "name": "_amount",
          "type": "uint256"
        }
      ],
      "name": "increaseBridgeBalance",
      "outputs": [],
      "stateMutability": "payable",
      "type": "function"
    },
    {
      "inputs": [
        {
          "internalType": "address",
          "name": "_intentxWhitelistChecker",
          "type": "address"
        }
      ],
      "name": "initialize",
      "outputs": [],
      "stateMutability": "nonpayable",
      "type": "function"
    },
    {
      "inputs": [],
      "name": "intentxWhitelistChecker",
      "outputs": [
        {
          "internalType": "address",
          "name": "",
          "type": "address"
        }
      ],
      "stateMutability": "view",
      "type": "function"
    },
    {
      "inputs": [],
      "name": "owner",
      "outputs": [
        {
          "internalType": "address",
          "name": "",
          "type": "address"
        }
      ],
      "stateMutability": "view",
      "type": "function"
    },
    {
      "inputs": [
        {
          "internalType": "bytes32",
          "name": "_ethSignedMessageHash",
          "type": "bytes32"
        },
        {
          "internalType": "bytes",
          "name": "_signature",
          "type": "bytes"
        }
      ],
      "name": "recoverSigner",
      "outputs": [
        {
          "internalType": "address",
          "name": "",
          "type": "address"
        }
      ],
      "stateMutability": "pure",
      "type": "function"
    },
    {
      "inputs": [],
      "name": "renounceOwnership",
      "outputs": [],
      "stateMutability": "nonpayable",
      "type": "function"
    },
    {
      "inputs": [
        {
          "internalType": "address",
          "name": "_intentxWhitelistChecker",
          "type": "address"
        }
      ],
      "name": "setIntentxWhitelistChecker",
      "outputs": [],
      "stateMutability": "nonpayable",
      "type": "function"
    },
    {
      "inputs": [
        {
          "internalType": "bytes",
          "name": "sig",
          "type": "bytes"
        }
      ],
      "name": "splitSignature",
      "outputs": [
        {
          "internalType": "bytes32",
          "name": "r",
          "type": "bytes32"
        },
        {
          "internalType": "bytes32",
          "name": "s",
          "type": "bytes32"
        },
        {
          "internalType": "uint8",
          "name": "v",
          "type": "uint8"
        }
      ],
      "stateMutability": "pure",
      "type": "function"
    },
    {
      "inputs": [],
      "name": "tradingToken",
      "outputs": [
        {
          "internalType": "contract IERC20",
          "name": "",
          "type": "address"
        }
      ],
      "stateMutability": "view",
      "type": "function"
    },
    {
      "inputs": [
        {
          "internalType": "address",
          "name": "newOwner",
          "type": "address"
        }
      ],
      "name": "transferOwnership",
      "outputs": [],
      "stateMutability": "nonpayable",
      "type": "function"
    }
  ],
  "bytecode": "0x608060405234801561001057600080fd5b50610b1a806100206000396000f3fe6080604052600436106100dd5760003560e01c8063a7bb58031161007f578063d2b0737b11610059578063d2b0737b1461023f578063d933b51f146102bc578063f2fde38b146102dc578063fa540801146102fc57600080fd5b8063a7bb5803146101ce578063be6757091461020c578063c4d66de81461021f57600080fd5b8063715018a6116100bb578063715018a6146101635780638da5cb5b1461017a57806397aba7f914610198578063a43a0047146101b857600080fd5b80632ad8a220146100e25780633c7995471461011f578063635717c114610143575b600080fd5b3480156100ee57600080fd5b50606654610102906001600160a01b031681565b6040516001600160a01b0390911681526020015b60405180910390f35b34801561012b57600080fd5b5061013560685481565b604051908152602001610116565b34801561014f57600080fd5b50606554610102906001600160a01b031681565b34801561016f57600080fd5b5061017861036a565b005b34801561018657600080fd5b506033546001600160a01b0316610102565b3480156101a457600080fd5b506101026101b33660046109d6565b61037e565b3480156101c457600080fd5b5061013560675481565b3480156101da57600080fd5b506101ee6101e9366004610a1d565b6103fd565b60408051938452602084019290925260ff1690820152606001610116565b61017861021a366004610a5a565b610476565b34801561022b57600080fd5b5061017861023a366004610a8f565b6104c8565b34801561024b57600080fd5b5061013561025a366004610ab1565b6040517fffffffffffffffffffffffffffffffffffffffff000000000000000000000000606085901b16602082015260348101839052605481018290526000906074016040516020818303038152906040528051906020012090509392505050565b3480156102c857600080fd5b506101786102d7366004610a8f565b610665565b3480156102e857600080fd5b506101786102f7366004610a8f565b6106ce565b34801561030857600080fd5b50610135610317366004610a5a565b6040517f19457468657265756d205369676e6564204d6573736167653a0a3332000000006020820152603c8101829052600090605c01604051602081830303815290604052805190602001209050919050565b61037261075b565b61037c60006107b5565b565b60008060008061038d856103fd565b6040805160008152602081018083528b905260ff8316918101919091526060810184905260808101839052929550909350915060019060a0016020604051602081039080840390855afa1580156103e8573d6000803e3d6000fd5b5050604051601f190151979650505050505050565b600080600083516041146104585760405162461bcd60e51b815260206004820152601860248201527f696e76616c6964207369676e6174757265206c656e677468000000000000000060448201526064015b60405180910390fd5b50505060208101516040820151606090920151909260009190911a90565b3481146104c55760405162461bcd60e51b815260206004820152601660248201527f4e6f7420656e6f75676820616d6f756e742073656e7400000000000000000000604482015260640161044f565b50565b600054610100900460ff16158080156104e85750600054600160ff909116105b806105025750303b158015610502575060005460ff166001145b6105745760405162461bcd60e51b815260206004820152602e60248201527f496e697469616c697a61626c653a20636f6e747261637420697320616c72656160448201527f647920696e697469616c697a6564000000000000000000000000000000000000606482015260840161044f565b600080547fffffffffffffffffffffffffffffffffffffffffffffffffffffffffffffff0016600117905580156105b5576000805461ff0019166101001790555b6105bd610814565b6065805473ffffffffffffffffffffffffffffffffffffffff19166001600160a01b0384169081179091556040519081527f8bd92368f2bc74f98aef7c898d450df9a01c76a4ea2bf86f64a375b8717f34dd9060200160405180910390a18015610661576000805461ff0019169055604051600181527f7f26b83ff96e1f2b6a682f133852f6798a09c465da95921460cefb38474024989060200160405180910390a15b5050565b61066d61075b565b6065805473ffffffffffffffffffffffffffffffffffffffff19166001600160a01b0383169081179091556040519081527f8bd92368f2bc74f98aef7c898d450df9a01c76a4ea2bf86f64a375b8717f34dd9060200160405180910390a150565b6106d661075b565b6001600160a01b0381166107525760405162461bcd60e51b815260206004820152602660248201527f4f776e61626c653a206e6577206f776e657220697320746865207a65726f206160448201527f6464726573730000000000000000000000000000000000000000000000000000606482015260840161044f565b6104c5816107b5565b6033546001600160a01b0316331461037c5760405162461bcd60e51b815260206004820181905260248201527f4f776e61626c653a2063616c6c6572206973206e6f7420746865206f776e6572604482015260640161044f565b603380546001600160a01b0383811673ffffffffffffffffffffffffffffffffffffffff19831681179093556040519116919082907f8be0079c531659141344cd1fd0a4f28419497f9722a3daafe3b4186f6b6457e090600090a35050565b600054610100900460ff166108915760405162461bcd60e51b815260206004820152602b60248201527f496e697469616c697a61626c653a20636f6e7472616374206973206e6f74206960448201527f6e697469616c697a696e67000000000000000000000000000000000000000000606482015260840161044f565b61037c600054610100900460ff166109115760405162461bcd60e51b815260206004820152602b60248201527f496e697469616c697a61626c653a20636f6e7472616374206973206e6f74206960448201527f6e697469616c697a696e67000000000000000000000000000000000000000000606482015260840161044f565b61037c336107b5565b7f4e487b7100000000000000000000000000000000000000000000000000000000600052604160045260246000fd5b600082601f83011261095a57600080fd5b813567ffffffffffffffff808211156109755761097561091a565b604051601f8301601f19908116603f0116810190828211818310171561099d5761099d61091a565b816040528381528660208588010111156109b657600080fd5b836020870160208301376000602085830101528094505050505092915050565b600080604083850312156109e957600080fd5b82359150602083013567ffffffffffffffff811115610a0757600080fd5b610a1385828601610949565b9150509250929050565b600060208284031215610a2f57600080fd5b813567ffffffffffffffff811115610a4657600080fd5b610a5284828501610949565b949350505050565b600060208284031215610a6c57600080fd5b5035919050565b80356001600160a01b0381168114610a8a57600080fd5b919050565b600060208284031215610aa157600080fd5b610aaa82610a73565b9392505050565b600080600060608486031215610ac657600080fd5b610acf84610a73565b9560208501359550604090940135939250505056fea26469706673582212201adbf1993b77a2338cbb2c9a7933d052a1d99e563c895f452a8ba6f454abb1ce64736f6c63430008120033",
  "linkReferences": {},
  "deployedLinkReferences": {}
}