{
  "_format": "hh-sol-artifact-1",
  "contractName": "PublicSaleINTX",
  "sourceName": "contracts/PublicSaleINTX.sol",
  "abi": [
    {
      "inputs": [],
      "stateMutability": "nonpayable",
      "type": "constructor"
    },
    {
      "anonymous": false,
      "inputs": [
        {
          "indexed": false,
          "internalType": "address",
          "name": "changedBy",
          "type": "address"
        },
        {
          "indexed": true,
          "internalType": "address",
          "name": "_oldAddress",
          "type": "address"
        },
        {
          "indexed": true,
          "internalType": "address",
          "name": "_newAddress",
          "type": "address"
        }
      ],
      "name": "AllocationChanged",
      "type": "event"
    },
    {
      "anonymous": false,
      "inputs": [
        {
          "indexed": true,
          "internalType": "address",
          "name": "user",
          "type": "address"
        },
        {
          "indexed": false,
          "internalType": "uint256",
          "name": "usdcAmount",
          "type": "uint256"
        },
        {
          "indexed": false,
          "internalType": "uint256",
          "name": "intxAmount",
          "type": "uint256"
        },
        {
          "indexed": false,
          "internalType": "uint256",
          "name": "intxAmountTotal",
          "type": "uint256"
        }
      ],
      "name": "Bought",
      "type": "event"
    },
    {
      "anonymous": false,
      "inputs": [
        {
          "indexed": true,
          "internalType": "address",
          "name": "user",
          "type": "address"
        },
        {
          "indexed": false,
          "internalType": "uint256",
          "name": "amount",
          "type": "uint256"
        },
        {
          "indexed": false,
          "internalType": "uint256",
          "name": "_tokenId",
          "type": "uint256"
        }
      ],
      "name": "Claimed",
      "type": "event"
    },
    {
      "anonymous": false,
      "inputs": [
        {
          "indexed": false,
          "internalType": "uint8",
          "name": "version",
          "type": "uint8"
        }
      ],
      "name": "Initialized",
      "type": "event"
    },
    {
      "anonymous": false,
      "inputs": [
        {
          "indexed": true,
          "internalType": "address",
          "name": "previousOwner",
          "type": "address"
        },
        {
          "indexed": true,
          "internalType": "address",
          "name": "newOwner",
          "type": "address"
        }
      ],
      "name": "OwnershipTransferStarted",
      "type": "event"
    },
    {
      "anonymous": false,
      "inputs": [
        {
          "indexed": true,
          "internalType": "address",
          "name": "previousOwner",
          "type": "address"
        },
        {
          "indexed": true,
          "internalType": "address",
          "name": "newOwner",
          "type": "address"
        }
      ],
      "name": "OwnershipTransferred",
      "type": "event"
    },
    {
      "anonymous": false,
      "inputs": [
        {
          "indexed": false,
          "internalType": "address",
          "name": "operator",
          "type": "address"
        },
        {
          "indexed": false,
          "internalType": "uint256",
          "name": "amount",
          "type": "uint256"
        }
      ],
      "name": "Seeded",
      "type": "event"
    },
    {
      "anonymous": false,
      "inputs": [
        {
          "indexed": false,
          "internalType": "address",
          "name": "operator",
          "type": "address"
        },
        {
          "indexed": false,
          "internalType": "address",
          "name": "_to",
          "type": "address"
        },
        {
          "indexed": false,
          "internalType": "uint256",
          "name": "amount",
          "type": "uint256"
        }
      ],
      "name": "Withdraw",
      "type": "event"
    },
    {
      "anonymous": false,
      "inputs": [
        {
          "indexed": false,
          "internalType": "address",
          "name": "operator",
          "type": "address"
        },
        {
          "indexed": false,
          "internalType": "address",
          "name": "_to",
          "type": "address"
        },
        {
          "indexed": false,
          "internalType": "uint256",
          "name": "amount",
          "type": "uint256"
        }
      ],
      "name": "WithdrawUnallocatedIntx",
      "type": "event"
    },
    {
      "inputs": [],
      "name": "PRECISION",
      "outputs": [
        {
          "internalType": "uint256",
          "name": "",
          "type": "uint256"
        }
      ],
      "stateMutability": "view",
      "type": "function"
    },
    {
      "inputs": [],
      "name": "START_SALE",
      "outputs": [
        {
          "internalType": "uint256",
          "name": "",
          "type": "uint256"
        }
      ],
      "stateMutability": "view",
      "type": "function"
    },
    {
      "inputs": [],
      "name": "START_VESTING",
      "outputs": [
        {
          "internalType": "uint256",
          "name": "",
          "type": "uint256"
        }
      ],
      "stateMutability": "view",
      "type": "function"
    },
    {
      "inputs": [],
      "name": "VESTING_DURATION",
      "outputs": [
        {
          "internalType": "uint256",
          "name": "",
          "type": "uint256"
        }
      ],
      "stateMutability": "view",
      "type": "function"
    },
    {
      "inputs": [],
      "name": "acceptOwnership",
      "outputs": [],
      "stateMutability": "nonpayable",
      "type": "function"
    },
    {
      "inputs": [],
      "name": "allowChange",
      "outputs": [
        {
          "internalType": "bool",
          "name": "",
          "type": "bool"
        }
      ],
      "stateMutability": "view",
      "type": "function"
    },
    {
      "inputs": [
        {
          "internalType": "uint256",
          "name": "_amount",
          "type": "uint256"
        }
      ],
      "name": "buy",
      "outputs": [],
      "stateMutability": "nonpayable",
      "type": "function"
    },
    {
      "inputs": [
        {
          "internalType": "address",
          "name": "_newAddress",
          "type": "address"
        }
      ],
      "name": "changeReceiver",
      "outputs": [],
      "stateMutability": "nonpayable",
      "type": "function"
    },
    {
      "inputs": [],
      "name": "claim",
      "outputs": [],
      "stateMutability": "nonpayable",
      "type": "function"
    },
    {
      "inputs": [
        {
          "internalType": "address",
          "name": "",
          "type": "address"
        }
      ],
      "name": "claimableAmount",
      "outputs": [
        {
          "internalType": "uint256",
          "name": "",
          "type": "uint256"
        }
      ],
      "stateMutability": "view",
      "type": "function"
    },
    {
      "inputs": [
        {
          "internalType": "address",
          "name": "",
          "type": "address"
        }
      ],
      "name": "claimedAmount",
      "outputs": [
        {
          "internalType": "uint256",
          "name": "",
          "type": "uint256"
        }
      ],
      "stateMutability": "view",
      "type": "function"
    },
    {
      "inputs": [],
      "name": "deposit",
      "outputs": [],
      "stateMutability": "nonpayable",
      "type": "function"
    },
    {
      "inputs": [
        {
          "internalType": "address",
          "name": "_intx",
          "type": "address"
        },
        {
          "internalType": "address",
          "name": "_raiseToken",
          "type": "address"
        },
        {
          "internalType": "address",
          "name": "_xIntx",
          "type": "address"
        },
        {
          "internalType": "address",
          "name": "_multisig",
          "type": "address"
        },
        {
          "internalType": "uint256",
          "name": "_startSale",
          "type": "uint256"
        },
        {
          "internalType": "uint256",
          "name": "_startVesting",
          "type": "uint256"
        }
      ],
      "name": "initialize",
      "outputs": [],
      "stateMutability": "nonpayable",
      "type": "function"
    },
    {
      "inputs": [],
      "name": "instantPercentage",
      "outputs": [
        {
          "internalType": "uint256",
          "name": "",
          "type": "uint256"
        }
      ],
      "stateMutability": "view",
      "type": "function"
    },
    {
      "inputs": [],
      "name": "intx",
      "outputs": [
        {
          "internalType": "contract IERC20",
          "name": "",
          "type": "address"
        }
      ],
      "stateMutability": "view",
      "type": "function"
    },
    {
      "inputs": [],
      "name": "maxBuy",
      "outputs": [
        {
          "internalType": "uint256",
          "name": "",
          "type": "uint256"
        }
      ],
      "stateMutability": "view",
      "type": "function"
    },
    {
      "inputs": [],
      "name": "minBuy",
      "outputs": [
        {
          "internalType": "uint256",
          "name": "",
          "type": "uint256"
        }
      ],
      "stateMutability": "view",
      "type": "function"
    },
    {
      "inputs": [],
      "name": "multisig",
      "outputs": [
        {
          "internalType": "address",
          "name": "",
          "type": "address"
        }
      ],
      "stateMutability": "view",
      "type": "function"
    },
    {
      "inputs": [],
      "name": "owner",
      "outputs": [
        {
          "internalType": "address",
          "name": "",
          "type": "address"
        }
      ],
      "stateMutability": "view",
      "type": "function"
    },
    {
      "inputs": [],
      "name": "pendingOwner",
      "outputs": [
        {
          "internalType": "address",
          "name": "",
          "type": "address"
        }
      ],
      "stateMutability": "view",
      "type": "function"
    },
    {
      "inputs": [],
      "name": "raiseToken",
      "outputs": [
        {
          "internalType": "contract IERC20",
          "name": "",
          "type": "address"
        }
      ],
      "stateMutability": "view",
      "type": "function"
    },
    {
      "inputs": [],
      "name": "renounceOwnership",
      "outputs": [],
      "stateMutability": "nonpayable",
      "type": "function"
    },
    {
      "inputs": [],
      "name": "seeded",
      "outputs": [
        {
          "internalType": "bool",
          "name": "",
          "type": "bool"
        }
      ],
      "stateMutability": "view",
      "type": "function"
    },
    {
      "inputs": [],
      "name": "totalAllocation",
      "outputs": [
        {
          "internalType": "uint256",
          "name": "",
          "type": "uint256"
        }
      ],
      "stateMutability": "view",
      "type": "function"
    },
    {
      "inputs": [],
      "name": "totalRaised",
      "outputs": [
        {
          "internalType": "uint256",
          "name": "",
          "type": "uint256"
        }
      ],
      "stateMutability": "view",
      "type": "function"
    },
    {
      "inputs": [],
      "name": "totalToRaise",
      "outputs": [
        {
          "internalType": "uint256",
          "name": "",
          "type": "uint256"
        }
      ],
      "stateMutability": "view",
      "type": "function"
    },
    {
      "inputs": [
        {
          "internalType": "address",
          "name": "newOwner",
          "type": "address"
        }
      ],
      "name": "transferOwnership",
      "outputs": [],
      "stateMutability": "nonpayable",
      "type": "function"
    },
    {
      "inputs": [],
      "name": "withdraw",
      "outputs": [],
      "stateMutability": "nonpayable",
      "type": "function"
    },
    {
      "inputs": [],
      "name": "withdrawUnallocatedIntx",
      "outputs": [],
      "stateMutability": "nonpayable",
      "type": "function"
    },
    {
      "inputs": [],
      "name": "xIntx",
      "outputs": [
        {
          "internalType": "contract IStakedINTX",
          "name": "",
          "type": "address"
        }
      ],
      "stateMutability": "view",
      "type": "function"
    }
  ],
  "bytecode": "0x608060405234801561001057600080fd5b5061001961001e565b6100dd565b600054610100900460ff161561008a5760405162461bcd60e51b815260206004820152602760248201527f496e697469616c697a61626c653a20636f6e747261637420697320696e697469604482015266616c697a696e6760c81b606482015260840160405180910390fd5b60005460ff908116146100db576000805460ff191660ff9081179091556040519081527f7f26b83ff96e1f2b6a682f133852f6798a09c465da95921460cefb38474024989060200160405180910390a15b565b611f1f806100ec6000396000f3fe608060405234801561001057600080fd5b50600436106101da5760003560e01c8063715018a611610104578063aaf5eb68116100a2578063d7c41c7911610071578063d7c41c791461038d578063d96a094a146103a0578063e30c3978146103b3578063f2fde38b146103c457600080fd5b8063aaf5eb681461034e578063c5c4744c14610357578063d0e30db014610360578063d5ff56f81461036857600080fd5b8063827d606f116100de578063827d606f1461030b57806389885049146103145780638da5cb5b14610334578063aa264c9b1461034557600080fd5b8063715018a6146102f257806379203dc4146102fa57806379ba50971461030357600080fd5b806346f7d6c91161017c5780634e71d92d1161014b5780634e71d92d146102c5578063547e3f06146102cd57806370db69d6146102e05780637107d7a6146102e957600080fd5b806346f7d6c91461027e5780634783c35b146102965780634cfc4d30146102a95780634da60aa5146102b257600080fd5b806327a7af89116101b857806327a7af891461022457806330dfa3b51461024f578063334041a6146102595780633ccfd60b1461027657600080fd5b806304e86903146101df5780631ce48df11461021257806320df16bf1461021b575b600080fd5b6101ff6101ed366004611ced565b60d76020526000908152604090205481565b6040519081526020015b60405180910390f35b6101ff60cf5481565b6101ff60ca5481565b60d554610237906001600160a01b031681565b6040516001600160a01b039091168152602001610209565b6102576103d7565b005b60d3546102669060ff1681565b6040519015158152602001610209565b610257610588565b60d3546102379061010090046001600160a01b031681565b60cd54610237906001600160a01b031681565b6101ff60cc5481565b60d454610237906001600160a01b031681565b6102576106d2565b6102576102db366004611ced565b610a65565b6101ff60d25481565b6101ff60d15481565b610257610de9565b6101ff60ce5481565b610257610df1565b6101ff60c95481565b6101ff610322366004611ced565b60d66020526000908152604090205481565b6065546001600160a01b0316610237565b6101ff60cb5481565b6101ff61271081565b6101ff60d05481565b610257610e7f565b60cd546102669074010000000000000000000000000000000000000000900460ff1681565b61025761039b366004611d0f565b611034565b6102576103ae366004611d75565b611269565b6097546001600160a01b0316610237565b6102576103d2366004611ced565b6115bc565b6103df61163a565b60cb544210156104365760405162461bcd60e51b815260206004820152601660248201527f53616c65206861736e277420656e646564207965742e0000000000000000000060448201526064015b60405180910390fd5b60d3546040517f70a0823100000000000000000000000000000000000000000000000000000000815230600482015260009161010090046001600160a01b0316906370a0823190602401602060405180830381865afa15801561049d573d6000803e3d6000fd5b505050506040513d601f19601f820116820180604052508101906104c19190611d8e565b9050600081116105135760405162461bcd60e51b815260206004820152601b60248201527f4e6f7420656e6f75676820496e747820746f2077697468647261770000000000604482015260640161042d565b60cd5460d354610535916001600160a01b036101009092048216911683611694565b7fa8eedbde77077f55b0c6b1efc969f0dab23c2165782975efb36419cd89965460335b60cd54604080516001600160a01b039384168152929091166020830152810183905260600160405180910390a150565b61059061163a565b60d4546040517f70a082310000000000000000000000000000000000000000000000000000000081523060048201526000916001600160a01b0316906370a0823190602401602060405180830381865afa1580156105f2573d6000803e3d6000fd5b505050506040513d601f19601f820116820180604052508101906106169190611d8e565b90506000811161068e5760405162461bcd60e51b815260206004820152602160248201527f4e6f7420656e6f756768207261697365546f6b656e20746f207769746864726160448201527f7700000000000000000000000000000000000000000000000000000000000000606482015260840161042d565b60cd5460d4546106ab916001600160a01b03918216911683611694565b7f9b1bfa7fa9ee420a16e124f794c35ac9f90472acc99140eb2f6447c714cad8eb33610558565b6106da611742565b60cb5442101561072c5760405162461bcd60e51b815260206004820152601b60248201527f56657374696e67206861736e27742073746172746564207965742e0000000000604482015260640161042d565b33600090815260d6602052604081205490036107b05760405162461bcd60e51b815260206004820152602e60248201527f54686973206164647265737320646f65736e2774206861766520616e7920616d60448201527f6f756e7420746f20636c61696d2e000000000000000000000000000000000000606482015260840161042d565b33600090815260d6602090815260408083205460d7909252909120541061083f5760405162461bcd60e51b815260206004820152602c60248201527f596f75206861766520616c726561647920636c61696d656420616c6c20796f7560448201527f7220616c6c6f636174696f6e0000000000000000000000000000000000000000606482015260840161042d565b60cb54421115610a5a57600061271060c95460d6600061085c3390565b6001600160a01b03166001600160a01b03168152602001908152602001600020546108879190611dd6565b6108919190611df3565b9050600061271060c9546127106108a89190611e2e565b33600090815260d660205260409020546108c29190611dd6565b6108cc9190611df3565b9050600060cb54426108de9190611e2e565b905060cc548111156108ef575060cc545b60cc5460009061090161271084611dd6565b61090b9190611df3565b33600090815260d760205260408120549192509061271061092c8487611dd6565b6109369190611df3565b6109409087611e41565b61094a9190611e2e565b90508015610a545733600090815260d7602052604081208054839290610971908490611e41565b909155505060d5546000906001600160a01b0316632ee40908336040517fffffffff0000000000000000000000000000000000000000000000000000000060e084901b1681526001600160a01b039091166004820152602481018590526044016020604051808303816000875af11580156109f0573d6000803e3d6000fd5b505050506040513d601f19601f82011682018060405250810190610a149190611d8e565b604080518481526020810183905291925033917f987d620f307ff6b94d58743cb7a7509f24071586a77759b77c2d4e29f75a2f9a910160405180910390a2505b50505050505b610a6360018055565b565b60cb54421015610ab75760405162461bcd60e51b815260206004820152601b60248201527f56657374696e67206861736e27742073746172746564207965742e0000000000604482015260640161042d565b60cd5474010000000000000000000000000000000000000000900460ff16610b6d5760405162461bcd60e51b815260206004820152604660248201527f546869732076657374696e6720636f6e747261637420646f65736e277420616c60448201527f6c6f7720796f7520746f206368616e676520746865207265636569766572206160648201527f6464726573730000000000000000000000000000000000000000000000000000608482015260a40161042d565b6001600160a01b038116610be95760405162461bcd60e51b815260206004820152603660248201527f4e657720616c6c6f636174696f6e2072656365697665722063616e277420626560448201527f20746865203078303030302e2e2e206164647265737300000000000000000000606482015260840161042d565b33600081815260d660205260408120549003610c475760405162461bcd60e51b815260206004820152601e60248201527f596f7520646f6e2774206861766520616e7920616c6c6f636174696f6e2e0000604482015260640161042d565b6001600160a01b038216600090815260d6602052604090205415610cd35760405162461bcd60e51b815260206004820152602d60248201527f546865206e6577206164647265737320616c726561647920686173206120766560448201527f7374696e6720616d6f756e742e00000000000000000000000000000000000000606482015260840161042d565b6001600160a01b038116600090815260d6602090815260408083205460d79092529091205410610d6b5760405162461bcd60e51b815260206004820152602d60248201527f596f75206861766520616c726561647920636c61696d656420616c6c20796f7560448201527f7220616c6c6f636174696f6e2e00000000000000000000000000000000000000606482015260840161042d565b6001600160a01b03818116600081815260d66020908152604080832080549588168085528285209690965584845260d783528184208054878652838620558585529084905592909255815133815291517f4e87e17c55076158dc051ffe67edb8c0abf946f53612656c46f887ac1f9c486c9281900390910190a35050565b610a6361163a565b60975433906001600160a01b03168114610e735760405162461bcd60e51b815260206004820152602960248201527f4f776e61626c6532537465703a2063616c6c6572206973206e6f74207468652060448201527f6e6577206f776e65720000000000000000000000000000000000000000000000606482015260840161042d565b610e7c816117a1565b50565b610e8761163a565b60d35460ff1615610f005760405162461bcd60e51b815260206004820152603460248201527f56657374696e6720436f6e747261637420416c7265616479207365656465642060448201527f7769746820696e697469616c20616d6f756e742e000000000000000000000000606482015260840161042d565b610f213360ce5460d35461010090046001600160a01b0316919030906117c7565b60d35460d5546040517f095ea7b30000000000000000000000000000000000000000000000000000000081526001600160a01b0391821660048201527fffffffffffffffffffffffffffffffffffffffffffffffffffffffffffffffff6024820152610100909204169063095ea7b3906044016020604051808303816000875af1158015610fb3573d6000803e3d6000fd5b505050506040513d601f19601f82011682018060405250810190610fd79190611e54565b5060d3805460ff191660011790557f6189b14a5c1490dbeb86a9da875768d98dc98fb398d6b29dd475defaa1ec4ba361100d3390565b60ce54604080516001600160a01b03909316835260208301919091520160405180910390a1565b600054610100900460ff16158080156110545750600054600160ff909116105b8061106e5750303b15801561106e575060005460ff166001145b6110e05760405162461bcd60e51b815260206004820152602e60248201527f496e697469616c697a61626c653a20636f6e747261637420697320616c72656160448201527f647920696e697469616c697a6564000000000000000000000000000000000000606482015260840161042d565b6000805460ff191660011790558015611103576000805461ff0019166101001790555b61110b61181e565b611113611891565b60d380547fffffffffffffffffffffff0000000000000000000000000000000000000000ff166101006001600160a01b038a8116919091029190911790915560d4805473ffffffffffffffffffffffffffffffffffffffff199081168984161790915560d58054821688841617905560cd805490911691861691909117905560ca83905560cb82905562eff10060cc556111b06002612710611df3565b60c9556a01a784379d99db4200000060ce55645d21dba00060cf556298968060d1556404a817c80060d25560cd80547fffffffffffffffffffffff00ffffffffffffffffffffffffffffffffffffffff16740100000000000000000000000000000000000000001790558015611260576000805461ff0019169055604051600181527f7f26b83ff96e1f2b6a682f133852f6798a09c465da95921460cefb38474024989060200160405180910390a15b50505050505050565b60cf5460d05411156112bd5760405162461bcd60e51b815260206004820152601a60248201527f416c6c2052616973652068617665206265656e2066696c6c6564000000000000604482015260640161042d565b60cb5442111561130f5760405162461bcd60e51b815260206004820152600f60248201527f53616c652068617320656e6465642e0000000000000000000000000000000000604482015260640161042d565b60ca544210156113615760405162461bcd60e51b815260206004820152601860248201527f53616c65206861736e27742073746172746564207965742e0000000000000000604482015260640161042d565b60d1548110156113d95760405162461bcd60e51b815260206004820152602360248201527f596f752063616e277420696e76657374206c657373207468616e20313020555360448201527f44432e0000000000000000000000000000000000000000000000000000000000606482015260840161042d565b60d2548111156114515760405162461bcd60e51b815260206004820152602660248201527f596f752063616e277420696e76657374206d6f7265207468616e20323030303060448201527f20555344432e0000000000000000000000000000000000000000000000000000606482015260840161042d565b60d35460ff166114c95760405162461bcd60e51b815260206004820152602860248201527f56657374696e6720436f6e7472616374206861736e2774206265656e2073656560448201527f646564207965742e000000000000000000000000000000000000000000000000606482015260840161042d565b60cf5460d0546114d99083611e41565b11156114f25760d05460cf546114ef9190611e2e565b90505b61150a3360d4546001600160a01b03169030846117c7565b8060d0600082825461151c9190611e41565b92505081905550600060cf548260ce546115369190611dd6565b6115409190611df3565b33600090815260d66020526040812080549293508392909190611564908490611e41565b909155505033600081815260d660209081526040918290205482518681529182018590528183015290517fedba86fd2b22962d534e70ad9b0ff8730de46f636146f2bab6a72cbb1ebbcc539181900360600190a25050565b6115c461163a565b609780546001600160a01b03831673ffffffffffffffffffffffffffffffffffffffff1990911681179091556116026065546001600160a01b031690565b6001600160a01b03167f38d16b8cac22d99fc7c124b9cd0de2d3fa1faef420bfe791d8c362d765e2270060405160405180910390a350565b6065546001600160a01b03163314610a635760405162461bcd60e51b815260206004820181905260248201527f4f776e61626c653a2063616c6c6572206973206e6f7420746865206f776e6572604482015260640161042d565b6040516001600160a01b03831660248201526044810182905261173d9084907fa9059cbb00000000000000000000000000000000000000000000000000000000906064015b60408051601f198184030181529190526020810180517bffffffffffffffffffffffffffffffffffffffffffffffffffffffff167fffffffff0000000000000000000000000000000000000000000000000000000090931692909217909152611904565b505050565b6002600154036117945760405162461bcd60e51b815260206004820152601f60248201527f5265656e7472616e637947756172643a207265656e7472616e742063616c6c00604482015260640161042d565b6002600155565b60018055565b6097805473ffffffffffffffffffffffffffffffffffffffff19169055610e7c816119ec565b6040516001600160a01b03808516602483015283166044820152606481018290526118189085907f23b872dd00000000000000000000000000000000000000000000000000000000906084016116d9565b50505050565b600054610100900460ff166118895760405162461bcd60e51b815260206004820152602b60248201527f496e697469616c697a61626c653a20636f6e7472616374206973206e6f74206960448201526a6e697469616c697a696e6760a81b606482015260840161042d565b610a63611a4b565b600054610100900460ff166118fc5760405162461bcd60e51b815260206004820152602b60248201527f496e697469616c697a61626c653a20636f6e7472616374206973206e6f74206960448201526a6e697469616c697a696e6760a81b606482015260840161042d565b610a63611ab6565b6000611959826040518060400160405280602081526020017f5361666545524332303a206c6f772d6c6576656c2063616c6c206661696c6564815250856001600160a01b0316611b2a9092919063ffffffff16565b905080516000148061197a57508080602001905181019061197a9190611e54565b61173d5760405162461bcd60e51b815260206004820152602a60248201527f5361666545524332303a204552433230206f7065726174696f6e20646964206e60448201527f6f74207375636365656400000000000000000000000000000000000000000000606482015260840161042d565b606580546001600160a01b0383811673ffffffffffffffffffffffffffffffffffffffff19831681179093556040519116919082907f8be0079c531659141344cd1fd0a4f28419497f9722a3daafe3b4186f6b6457e090600090a35050565b600054610100900460ff1661179b5760405162461bcd60e51b815260206004820152602b60248201527f496e697469616c697a61626c653a20636f6e7472616374206973206e6f74206960448201526a6e697469616c697a696e6760a81b606482015260840161042d565b600054610100900460ff16611b215760405162461bcd60e51b815260206004820152602b60248201527f496e697469616c697a61626c653a20636f6e7472616374206973206e6f74206960448201526a6e697469616c697a696e6760a81b606482015260840161042d565b610a63336117a1565b6060611b398484600085611b41565b949350505050565b606082471015611bb95760405162461bcd60e51b815260206004820152602660248201527f416464726573733a20696e73756666696369656e742062616c616e636520666f60448201527f722063616c6c0000000000000000000000000000000000000000000000000000606482015260840161042d565b600080866001600160a01b03168587604051611bd59190611e9a565b60006040518083038185875af1925050503d8060008114611c12576040519150601f19603f3d011682016040523d82523d6000602084013e611c17565b606091505b5091509150611c2887838387611c33565b979650505050505050565b60608315611ca2578251600003611c9b576001600160a01b0385163b611c9b5760405162461bcd60e51b815260206004820152601d60248201527f416464726573733a2063616c6c20746f206e6f6e2d636f6e7472616374000000604482015260640161042d565b5081611b39565b611b398383815115611cb75781518083602001fd5b8060405162461bcd60e51b815260040161042d9190611eb6565b80356001600160a01b0381168114611ce857600080fd5b919050565b600060208284031215611cff57600080fd5b611d0882611cd1565b9392505050565b60008060008060008060c08789031215611d2857600080fd5b611d3187611cd1565b9550611d3f60208801611cd1565b9450611d4d60408801611cd1565b9350611d5b60608801611cd1565b92506080870135915060a087013590509295509295509295565b600060208284031215611d8757600080fd5b5035919050565b600060208284031215611da057600080fd5b5051919050565b7f4e487b7100000000000000000000000000000000000000000000000000000000600052601160045260246000fd5b8082028115828204841417611ded57611ded611da7565b92915050565b600082611e29577f4e487b7100000000000000000000000000000000000000000000000000000000600052601260045260246000fd5b500490565b81810381811115611ded57611ded611da7565b80820180821115611ded57611ded611da7565b600060208284031215611e6657600080fd5b81518015158114611d0857600080fd5b60005b83811015611e91578181015183820152602001611e79565b50506000910152565b60008251611eac818460208701611e76565b9190910192915050565b6020815260008251806020840152611ed5816040850160208701611e76565b601f01601f1916919091016040019291505056fea264697066735822122031227b5a824bc205c931f22de79412b772b0ab21cb7b9299cf7dcc61e3830e2964736f6c63430008130033",
  "linkReferences": {},
  "deployedLinkReferences": {}
}