{
  "_format": "hh-sol-artifact-1",
  "contractName": "PublicSaleINTX",
  "sourceName": "contracts/PublicSaleINTX.sol",
  "abi": [
    {
      "inputs": [],
      "stateMutability": "nonpayable",
      "type": "constructor"
    },
    {
      "anonymous": false,
      "inputs": [
        {
          "indexed": false,
          "internalType": "address",
          "name": "changedBy",
          "type": "address"
        },
        {
          "indexed": true,
          "internalType": "address",
          "name": "_oldAddress",
          "type": "address"
        },
        {
          "indexed": true,
          "internalType": "address",
          "name": "_newAddress",
          "type": "address"
        }
      ],
      "name": "AllocationChanged",
      "type": "event"
    },
    {
      "anonymous": false,
      "inputs": [
        {
          "indexed": true,
          "internalType": "address",
          "name": "user",
          "type": "address"
        },
        {
          "indexed": false,
          "internalType": "uint256",
          "name": "usdcAmount",
          "type": "uint256"
        },
        {
          "indexed": false,
          "internalType": "uint256",
          "name": "intxAmount",
          "type": "uint256"
        },
        {
          "indexed": false,
          "internalType": "uint256",
          "name": "intxAmountTotal",
          "type": "uint256"
        }
      ],
      "name": "Bought",
      "type": "event"
    },
    {
      "anonymous": false,
      "inputs": [
        {
          "indexed": true,
          "internalType": "address",
          "name": "user",
          "type": "address"
        },
        {
          "indexed": false,
          "internalType": "uint256",
          "name": "amount",
          "type": "uint256"
        },
        {
          "indexed": false,
          "internalType": "uint256",
          "name": "_tokenId",
          "type": "uint256"
        }
      ],
      "name": "Claimed",
      "type": "event"
    },
    {
      "anonymous": false,
      "inputs": [
        {
          "indexed": false,
          "internalType": "uint8",
          "name": "version",
          "type": "uint8"
        }
      ],
      "name": "Initialized",
      "type": "event"
    },
    {
      "anonymous": false,
      "inputs": [
        {
          "indexed": true,
          "internalType": "address",
          "name": "previousOwner",
          "type": "address"
        },
        {
          "indexed": true,
          "internalType": "address",
          "name": "newOwner",
          "type": "address"
        }
      ],
      "name": "OwnershipTransferred",
      "type": "event"
    },
    {
      "anonymous": false,
      "inputs": [
        {
          "indexed": false,
          "internalType": "address",
          "name": "operator",
          "type": "address"
        },
        {
          "indexed": false,
          "internalType": "uint256",
          "name": "amount",
          "type": "uint256"
        }
      ],
      "name": "Seeded",
      "type": "event"
    },
    {
      "anonymous": false,
      "inputs": [
        {
          "indexed": false,
          "internalType": "address",
          "name": "operator",
          "type": "address"
        },
        {
          "indexed": false,
          "internalType": "address",
          "name": "_to",
          "type": "address"
        },
        {
          "indexed": false,
          "internalType": "uint256",
          "name": "amount",
          "type": "uint256"
        }
      ],
      "name": "Withdraw",
      "type": "event"
    },
    {
      "inputs": [],
      "name": "PRECISION",
      "outputs": [
        {
          "internalType": "uint256",
          "name": "",
          "type": "uint256"
        }
      ],
      "stateMutability": "view",
      "type": "function"
    },
    {
      "inputs": [],
      "name": "START_SALE",
      "outputs": [
        {
          "internalType": "uint256",
          "name": "",
          "type": "uint256"
        }
      ],
      "stateMutability": "view",
      "type": "function"
    },
    {
      "inputs": [],
      "name": "START_VESTING",
      "outputs": [
        {
          "internalType": "uint256",
          "name": "",
          "type": "uint256"
        }
      ],
      "stateMutability": "view",
      "type": "function"
    },
    {
      "inputs": [],
      "name": "VESTING_DURATION",
      "outputs": [
        {
          "internalType": "uint256",
          "name": "",
          "type": "uint256"
        }
      ],
      "stateMutability": "view",
      "type": "function"
    },
    {
      "inputs": [],
      "name": "allowChange",
      "outputs": [
        {
          "internalType": "bool",
          "name": "",
          "type": "bool"
        }
      ],
      "stateMutability": "view",
      "type": "function"
    },
    {
      "inputs": [
        {
          "internalType": "uint256",
          "name": "_amount",
          "type": "uint256"
        }
      ],
      "name": "buy",
      "outputs": [],
      "stateMutability": "nonpayable",
      "type": "function"
    },
    {
      "inputs": [
        {
          "internalType": "address",
          "name": "_newAddress",
          "type": "address"
        }
      ],
      "name": "changeReceiver",
      "outputs": [],
      "stateMutability": "nonpayable",
      "type": "function"
    },
    {
      "inputs": [],
      "name": "claim",
      "outputs": [],
      "stateMutability": "nonpayable",
      "type": "function"
    },
    {
      "inputs": [
        {
          "internalType": "address",
          "name": "",
          "type": "address"
        }
      ],
      "name": "claimableAmount",
      "outputs": [
        {
          "internalType": "uint256",
          "name": "",
          "type": "uint256"
        }
      ],
      "stateMutability": "view",
      "type": "function"
    },
    {
      "inputs": [
        {
          "internalType": "address",
          "name": "",
          "type": "address"
        }
      ],
      "name": "claimedAmount",
      "outputs": [
        {
          "internalType": "uint256",
          "name": "",
          "type": "uint256"
        }
      ],
      "stateMutability": "view",
      "type": "function"
    },
    {
      "inputs": [],
      "name": "deposit",
      "outputs": [],
      "stateMutability": "nonpayable",
      "type": "function"
    },
    {
      "inputs": [
        {
          "internalType": "address",
          "name": "_intx",
          "type": "address"
        },
        {
          "internalType": "address",
          "name": "_raiseToken",
          "type": "address"
        },
        {
          "internalType": "address",
          "name": "_xIntx",
          "type": "address"
        },
        {
          "internalType": "address",
          "name": "_multisig",
          "type": "address"
        },
        {
          "internalType": "uint256",
          "name": "_startSale",
          "type": "uint256"
        },
        {
          "internalType": "uint256",
          "name": "_startVesting",
          "type": "uint256"
        }
      ],
      "name": "initialize",
      "outputs": [],
      "stateMutability": "nonpayable",
      "type": "function"
    },
    {
      "inputs": [],
      "name": "instantPercentage",
      "outputs": [
        {
          "internalType": "uint256",
          "name": "",
          "type": "uint256"
        }
      ],
      "stateMutability": "view",
      "type": "function"
    },
    {
      "inputs": [],
      "name": "intx",
      "outputs": [
        {
          "internalType": "contract IERC20",
          "name": "",
          "type": "address"
        }
      ],
      "stateMutability": "view",
      "type": "function"
    },
    {
      "inputs": [],
      "name": "maxBuy",
      "outputs": [
        {
          "internalType": "uint256",
          "name": "",
          "type": "uint256"
        }
      ],
      "stateMutability": "view",
      "type": "function"
    },
    {
      "inputs": [],
      "name": "minBuy",
      "outputs": [
        {
          "internalType": "uint256",
          "name": "",
          "type": "uint256"
        }
      ],
      "stateMutability": "view",
      "type": "function"
    },
    {
      "inputs": [],
      "name": "multisig",
      "outputs": [
        {
          "internalType": "address",
          "name": "",
          "type": "address"
        }
      ],
      "stateMutability": "view",
      "type": "function"
    },
    {
      "inputs": [],
      "name": "owner",
      "outputs": [
        {
          "internalType": "address",
          "name": "",
          "type": "address"
        }
      ],
      "stateMutability": "view",
      "type": "function"
    },
    {
      "inputs": [],
      "name": "raiseToken",
      "outputs": [
        {
          "internalType": "contract IERC20",
          "name": "",
          "type": "address"
        }
      ],
      "stateMutability": "view",
      "type": "function"
    },
    {
      "inputs": [],
      "name": "renounceOwnership",
      "outputs": [],
      "stateMutability": "nonpayable",
      "type": "function"
    },
    {
      "inputs": [],
      "name": "seeded",
      "outputs": [
        {
          "internalType": "bool",
          "name": "",
          "type": "bool"
        }
      ],
      "stateMutability": "view",
      "type": "function"
    },
    {
      "inputs": [],
      "name": "totalAllocation",
      "outputs": [
        {
          "internalType": "uint256",
          "name": "",
          "type": "uint256"
        }
      ],
      "stateMutability": "view",
      "type": "function"
    },
    {
      "inputs": [],
      "name": "totalRaised",
      "outputs": [
        {
          "internalType": "uint256",
          "name": "",
          "type": "uint256"
        }
      ],
      "stateMutability": "view",
      "type": "function"
    },
    {
      "inputs": [],
      "name": "totalToRaise",
      "outputs": [
        {
          "internalType": "uint256",
          "name": "",
          "type": "uint256"
        }
      ],
      "stateMutability": "view",
      "type": "function"
    },
    {
      "inputs": [
        {
          "internalType": "address",
          "name": "newOwner",
          "type": "address"
        }
      ],
      "name": "transferOwnership",
      "outputs": [],
      "stateMutability": "nonpayable",
      "type": "function"
    },
    {
      "inputs": [],
      "name": "withdraw",
      "outputs": [],
      "stateMutability": "nonpayable",
      "type": "function"
    },
    {
      "inputs": [],
      "name": "xIntx",
      "outputs": [
        {
          "internalType": "contract IStakedINTX",
          "name": "",
          "type": "address"
        }
      ],
      "stateMutability": "view",
      "type": "function"
    }
  ],
  "bytecode": "0x608060405234801561001057600080fd5b5061001961001e565b6100dd565b600054610100900460ff161561008a5760405162461bcd60e51b815260206004820152602760248201527f496e697469616c697a61626c653a20636f6e747261637420697320696e697469604482015266616c697a696e6760c81b606482015260840160405180910390fd5b60005460ff908116146100db576000805460ff191660ff9081179091556040519081527f7f26b83ff96e1f2b6a682f133852f6798a09c465da95921460cefb38474024989060200160405180910390a15b565b6119e0806100ec6000396000f3fe608060405234801561001057600080fd5b50600436106101b95760003560e01c80637107d7a6116100f9578063aaf5eb6811610097578063d5ff56f811610071578063d5ff56f814610337578063d7c41c791461035c578063d96a094a1461036f578063f2fde38b1461038257600080fd5b8063aaf5eb681461031d578063c5c4744c14610326578063d0e30db01461032f57600080fd5b8063827d606f116100d3578063827d606f146102da57806389885049146102e35780638da5cb5b14610303578063aa264c9b1461031457600080fd5b80637107d7a6146102c0578063715018a6146102c957806379203dc4146102d157600080fd5b806346f7d6c9116101665780634da60aa5116101405780634da60aa5146102895780634e71d92d1461029c578063547e3f06146102a457806370db69d6146102b757600080fd5b806346f7d6c9146102555780634783c35b1461026d5780634cfc4d301461028057600080fd5b806327a7af891161019757806327a7af8914610203578063334041a61461022e5780633ccfd60b1461024b57600080fd5b806304e86903146101be5780631ce48df1146101f157806320df16bf146101fa575b600080fd5b6101de6101cc366004611821565b60a56020526000908152604090205481565b6040519081526020015b60405180910390f35b6101de609d5481565b6101de60985481565b60a354610216906001600160a01b031681565b6040516001600160a01b0390911681526020016101e8565b60a15461023b9060ff1681565b60405190151581526020016101e8565b610253610395565b005b60a1546102169061010090046001600160a01b031681565b609b54610216906001600160a01b031681565b6101de609a5481565b60a254610216906001600160a01b031681565b610253610506565b6102536102b2366004611821565b61089e565b6101de60a05481565b6101de609f5481565b610253610c22565b6101de609c5481565b6101de60975481565b6101de6102f1366004611821565b60a46020526000908152604090205481565b6065546001600160a01b0316610216565b6101de60995481565b6101de61271081565b6101de609e5481565b610253610c34565b609b5461023b9074010000000000000000000000000000000000000000900460ff1681565b61025361036a366004611843565b610e70565b61025361037d3660046118a9565b6110b0565b610253610390366004611821565b61148d565b61039d61151d565b60a2546040517f70a082310000000000000000000000000000000000000000000000000000000081523060048201526000916001600160a01b0316906370a0823190602401602060405180830381865afa1580156103ff573d6000803e3d6000fd5b505050506040513d601f19601f8201168201806040525081019061042391906118c2565b60a254609b546040517fa9059cbb0000000000000000000000000000000000000000000000000000000081526001600160a01b03918216600482015260248101849052929350169063a9059cbb906044016020604051808303816000875af1158015610493573d6000803e3d6000fd5b505050506040513d601f19601f820116820180604052508101906104b791906118db565b50609b54604080513381526001600160a01b039092166020830152818101839052517f9b1bfa7fa9ee420a16e124f794c35ac9f90472acc99140eb2f6447c714cad8eb9181900360600190a150565b61050e611577565b6099544210156105655760405162461bcd60e51b815260206004820152601b60248201527f56657374696e67206861736e27742073746172746564207965742e000000000060448201526064015b60405180910390fd5b33600090815260a4602052604081205490036105e95760405162461bcd60e51b815260206004820152602e60248201527f54686973206164647265737320646f65736e2774206861766520616e7920616d60448201527f6f756e7420746f20636c61696d2e000000000000000000000000000000000000606482015260840161055c565b33600090815260a4602090815260408083205460a590925290912054106106785760405162461bcd60e51b815260206004820152602c60248201527f596f75206861766520616c726561647920636c61696d656420616c6c20796f7560448201527f7220616c6c6f636174696f6e0000000000000000000000000000000000000000606482015260840161055c565b60995442111561089357600061271060975460a460006106953390565b6001600160a01b03166001600160a01b03168152602001908152602001600020546106c0919061192c565b6106ca9190611949565b905060006127106097546127106106e19190611984565b33600090815260a460205260409020546106fb919061192c565b6107059190611949565b90506000609954426107179190611984565b9050609a548111156107285750609a545b609a5460009061073a6127108461192c565b6107449190611949565b33600090815260a5602052604081205491925090612710610765848761192c565b61076f9190611949565b6107799087611997565b6107839190611984565b9050801561088d5733600090815260a56020526040812080548392906107aa908490611997565b909155505060a3546000906001600160a01b0316632ee40908336040517fffffffff0000000000000000000000000000000000000000000000000000000060e084901b1681526001600160a01b039091166004820152602481018590526044016020604051808303816000875af1158015610829573d6000803e3d6000fd5b505050506040513d601f19601f8201168201806040525081019061084d91906118c2565b604080518481526020810183905291925033917f987d620f307ff6b94d58743cb7a7509f24071586a77759b77c2d4e29f75a2f9a910160405180910390a2505b50505050505b61089c60018055565b565b6099544210156108f05760405162461bcd60e51b815260206004820152601b60248201527f56657374696e67206861736e27742073746172746564207965742e0000000000604482015260640161055c565b609b5474010000000000000000000000000000000000000000900460ff166109a65760405162461bcd60e51b815260206004820152604660248201527f546869732076657374696e6720636f6e747261637420646f65736e277420616c60448201527f6c6f7720796f7520746f206368616e676520746865207265636569766572206160648201527f6464726573730000000000000000000000000000000000000000000000000000608482015260a40161055c565b6001600160a01b038116610a225760405162461bcd60e51b815260206004820152603660248201527f4e657720616c6c6f636174696f6e2072656365697665722063616e277420626560448201527f20746865203078303030302e2e2e206164647265737300000000000000000000606482015260840161055c565b33600081815260a460205260408120549003610a805760405162461bcd60e51b815260206004820152601e60248201527f596f7520646f6e2774206861766520616e7920616c6c6f636174696f6e2e0000604482015260640161055c565b6001600160a01b038216600090815260a4602052604090205415610b0c5760405162461bcd60e51b815260206004820152602d60248201527f546865206e6577206164647265737320616c726561647920686173206120766560448201527f7374696e6720616d6f756e742e00000000000000000000000000000000000000606482015260840161055c565b6001600160a01b038116600090815260a4602090815260408083205460a59092529091205410610ba45760405162461bcd60e51b815260206004820152602d60248201527f596f75206861766520616c726561647920636c61696d656420616c6c20796f7560448201527f7220616c6c6f636174696f6e2e00000000000000000000000000000000000000606482015260840161055c565b6001600160a01b03818116600081815260a46020908152604080832080549588168085528285209690965584845260a583528184208054878652838620558585529084905592909255815133815291517f4e87e17c55076158dc051ffe67edb8c0abf946f53612656c46f887ac1f9c486c9281900390910190a35050565b610c2a61151d565b61089c60006115d6565b610c3c61151d565b60a15460ff1615610cb55760405162461bcd60e51b815260206004820152603460248201527f56657374696e6720436f6e747261637420416c7265616479207365656465642060448201527f7769746820696e697469616c20616d6f756e742e000000000000000000000000606482015260840161055c565b60a15461010090046001600160a01b03166323b872dd33609c546040517fffffffff0000000000000000000000000000000000000000000000000000000060e085901b1681526001600160a01b03909216600483015230602483015260448201526064016020604051808303816000875af1158015610d38573d6000803e3d6000fd5b505050506040513d601f19601f82011682018060405250810190610d5c91906118db565b5060a15460a3546040517f095ea7b30000000000000000000000000000000000000000000000000000000081526001600160a01b0391821660048201527fffffffffffffffffffffffffffffffffffffffffffffffffffffffffffffffff6024820152610100909204169063095ea7b3906044016020604051808303816000875af1158015610def573d6000803e3d6000fd5b505050506040513d601f19601f82011682018060405250810190610e1391906118db565b5060a1805460ff191660011790557f6189b14a5c1490dbeb86a9da875768d98dc98fb398d6b29dd475defaa1ec4ba3610e493390565b609c54604080516001600160a01b03909316835260208301919091520160405180910390a1565b600054610100900460ff1615808015610e905750600054600160ff909116105b80610eaa5750303b158015610eaa575060005460ff166001145b610f1c5760405162461bcd60e51b815260206004820152602e60248201527f496e697469616c697a61626c653a20636f6e747261637420697320616c72656160448201527f647920696e697469616c697a6564000000000000000000000000000000000000606482015260840161055c565b6000805460ff191660011790558015610f3f576000805461ff0019166101001790555b610f47611640565b610f4f6116b3565b60a180547fffffffffffffffffffffff0000000000000000000000000000000000000000ff166101006001600160a01b038a8116919091029190911790915560a280547fffffffffffffffffffffffff00000000000000000000000000000000000000009081168984161790915560a380548216888416179055609b80549091169186169190911790556098839055609982905562eff100609a55610ff76002612710611949565b6097556a01a784379d99db42000000609c55645d21dba000609d5562989680609f556404a817c80060a055609b80547fffffffffffffffffffffff00ffffffffffffffffffffffffffffffffffffffff167401000000000000000000000000000000000000000017905580156110a7576000805461ff0019169055604051600181527f7f26b83ff96e1f2b6a682f133852f6798a09c465da95921460cefb38474024989060200160405180910390a15b50505050505050565b609d54609e5411156111045760405162461bcd60e51b815260206004820152601a60248201527f416c6c2052616973652068617665206265656e2066696c6c6564000000000000604482015260640161055c565b6099544211156111565760405162461bcd60e51b815260206004820152600f60248201527f53616c652068617320656e6465642e0000000000000000000000000000000000604482015260640161055c565b6098544210156111a85760405162461bcd60e51b815260206004820152601860248201527f53616c65206861736e27742073746172746564207965742e0000000000000000604482015260640161055c565b609f548110156112205760405162461bcd60e51b815260206004820152602360248201527f596f752063616e277420696e76657374206c657373207468616e20313020555360448201527f44432e0000000000000000000000000000000000000000000000000000000000606482015260840161055c565b60a0548111156112985760405162461bcd60e51b815260206004820152602660248201527f596f752063616e277420696e76657374206d6f7265207468616e20323030303060448201527f20555344432e0000000000000000000000000000000000000000000000000000606482015260840161055c565b60a15460ff166113105760405162461bcd60e51b815260206004820152602860248201527f56657374696e6720436f6e7472616374206861736e2774206265656e2073656560448201527f646564207965742e000000000000000000000000000000000000000000000000606482015260840161055c565b609d54609e546113209083611997565b111561133957609e54609d546113369190611984565b90505b60a2546001600160a01b03166323b872dd336040517fffffffff0000000000000000000000000000000000000000000000000000000060e084901b1681526001600160a01b039091166004820152306024820152604481018490526064016020604051808303816000875af11580156113b6573d6000803e3d6000fd5b505050506040513d601f19601f820116820180604052508101906113da91906118db565b5080609e60008282546113ed9190611997565b925050819055506000609d5482609c54611407919061192c565b6114119190611949565b33600090815260a46020526040812080549293508392909190611435908490611997565b909155505033600081815260a460209081526040918290205482518681529182018590528183015290517fedba86fd2b22962d534e70ad9b0ff8730de46f636146f2bab6a72cbb1ebbcc539181900360600190a25050565b61149561151d565b6001600160a01b0381166115115760405162461bcd60e51b815260206004820152602660248201527f4f776e61626c653a206e6577206f776e657220697320746865207a65726f206160448201527f6464726573730000000000000000000000000000000000000000000000000000606482015260840161055c565b61151a816115d6565b50565b6065546001600160a01b0316331461089c5760405162461bcd60e51b815260206004820181905260248201527f4f776e61626c653a2063616c6c6572206973206e6f7420746865206f776e6572604482015260640161055c565b6002600154036115c95760405162461bcd60e51b815260206004820152601f60248201527f5265656e7472616e637947756172643a207265656e7472616e742063616c6c00604482015260640161055c565b6002600155565b60018055565b606580546001600160a01b038381167fffffffffffffffffffffffff0000000000000000000000000000000000000000831681179093556040519116919082907f8be0079c531659141344cd1fd0a4f28419497f9722a3daafe3b4186f6b6457e090600090a35050565b600054610100900460ff166116ab5760405162461bcd60e51b815260206004820152602b60248201527f496e697469616c697a61626c653a20636f6e7472616374206973206e6f74206960448201526a6e697469616c697a696e6760a81b606482015260840161055c565b61089c611726565b600054610100900460ff1661171e5760405162461bcd60e51b815260206004820152602b60248201527f496e697469616c697a61626c653a20636f6e7472616374206973206e6f74206960448201526a6e697469616c697a696e6760a81b606482015260840161055c565b61089c611791565b600054610100900460ff166115d05760405162461bcd60e51b815260206004820152602b60248201527f496e697469616c697a61626c653a20636f6e7472616374206973206e6f74206960448201526a6e697469616c697a696e6760a81b606482015260840161055c565b600054610100900460ff166117fc5760405162461bcd60e51b815260206004820152602b60248201527f496e697469616c697a61626c653a20636f6e7472616374206973206e6f74206960448201526a6e697469616c697a696e6760a81b606482015260840161055c565b61089c336115d6565b80356001600160a01b038116811461181c57600080fd5b919050565b60006020828403121561183357600080fd5b61183c82611805565b9392505050565b60008060008060008060c0878903121561185c57600080fd5b61186587611805565b955061187360208801611805565b945061188160408801611805565b935061188f60608801611805565b92506080870135915060a087013590509295509295509295565b6000602082840312156118bb57600080fd5b5035919050565b6000602082840312156118d457600080fd5b5051919050565b6000602082840312156118ed57600080fd5b8151801515811461183c57600080fd5b7f4e487b7100000000000000000000000000000000000000000000000000000000600052601160045260246000fd5b8082028115828204841417611943576119436118fd565b92915050565b60008261197f577f4e487b7100000000000000000000000000000000000000000000000000000000600052601260045260246000fd5b500490565b81810381811115611943576119436118fd565b80820180821115611943576119436118fd56fea2646970667358221220ce2048c493c0bcd859f1a2e6c59ec3566bf93ab4cc4b403548906574c85436ae64736f6c63430008130033",
  "linkReferences": {},
  "deployedLinkReferences": {}
}