{
  "_format": "hh-sol-artifact-1",
  "contractName": "PublicSaleINTX",
  "sourceName": "contracts/PublicSaleINTX.sol",
  "abi": [
    {
      "inputs": [],
      "stateMutability": "nonpayable",
      "type": "constructor"
    },
    {
      "anonymous": false,
      "inputs": [
        {
          "indexed": false,
          "internalType": "address",
          "name": "changedBy",
          "type": "address"
        },
        {
          "indexed": true,
          "internalType": "address",
          "name": "_oldAddress",
          "type": "address"
        },
        {
          "indexed": true,
          "internalType": "address",
          "name": "_newAddress",
          "type": "address"
        }
      ],
      "name": "AllocationChanged",
      "type": "event"
    },
    {
      "anonymous": false,
      "inputs": [
        {
          "indexed": true,
          "internalType": "address",
          "name": "user",
          "type": "address"
        },
        {
          "indexed": false,
          "internalType": "uint256",
          "name": "usdcAmount",
          "type": "uint256"
        },
        {
          "indexed": false,
          "internalType": "uint256",
          "name": "intxAmount",
          "type": "uint256"
        },
        {
          "indexed": false,
          "internalType": "uint256",
          "name": "intxAmountTotal",
          "type": "uint256"
        }
      ],
      "name": "Bought",
      "type": "event"
    },
    {
      "anonymous": false,
      "inputs": [
        {
          "indexed": true,
          "internalType": "address",
          "name": "user",
          "type": "address"
        },
        {
          "indexed": false,
          "internalType": "uint256",
          "name": "amount",
          "type": "uint256"
        },
        {
          "indexed": false,
          "internalType": "uint256",
          "name": "_tokenId",
          "type": "uint256"
        }
      ],
      "name": "Claimed",
      "type": "event"
    },
    {
      "anonymous": false,
      "inputs": [
        {
          "indexed": false,
          "internalType": "uint8",
          "name": "version",
          "type": "uint8"
        }
      ],
      "name": "Initialized",
      "type": "event"
    },
    {
      "anonymous": false,
      "inputs": [
        {
          "indexed": true,
          "internalType": "address",
          "name": "previousOwner",
          "type": "address"
        },
        {
          "indexed": true,
          "internalType": "address",
          "name": "newOwner",
          "type": "address"
        }
      ],
      "name": "OwnershipTransferStarted",
      "type": "event"
    },
    {
      "anonymous": false,
      "inputs": [
        {
          "indexed": true,
          "internalType": "address",
          "name": "previousOwner",
          "type": "address"
        },
        {
          "indexed": true,
          "internalType": "address",
          "name": "newOwner",
          "type": "address"
        }
      ],
      "name": "OwnershipTransferred",
      "type": "event"
    },
    {
      "anonymous": false,
      "inputs": [
        {
          "indexed": false,
          "internalType": "address",
          "name": "operator",
          "type": "address"
        },
        {
          "indexed": false,
          "internalType": "uint256",
          "name": "amount",
          "type": "uint256"
        }
      ],
      "name": "Seeded",
      "type": "event"
    },
    {
      "anonymous": false,
      "inputs": [
        {
          "indexed": false,
          "internalType": "address",
          "name": "operator",
          "type": "address"
        },
        {
          "indexed": false,
          "internalType": "address",
          "name": "_to",
          "type": "address"
        },
        {
          "indexed": false,
          "internalType": "uint256",
          "name": "amount",
          "type": "uint256"
        }
      ],
      "name": "Withdraw",
      "type": "event"
    },
    {
      "anonymous": false,
      "inputs": [
        {
          "indexed": false,
          "internalType": "address",
          "name": "operator",
          "type": "address"
        },
        {
          "indexed": false,
          "internalType": "address",
          "name": "_to",
          "type": "address"
        },
        {
          "indexed": false,
          "internalType": "uint256",
          "name": "amount",
          "type": "uint256"
        }
      ],
      "name": "WithdrawUnallocatedIntx",
      "type": "event"
    },
    {
      "inputs": [],
      "name": "PRECISION",
      "outputs": [
        {
          "internalType": "uint256",
          "name": "",
          "type": "uint256"
        }
      ],
      "stateMutability": "view",
      "type": "function"
    },
    {
      "inputs": [],
      "name": "START_SALE",
      "outputs": [
        {
          "internalType": "uint256",
          "name": "",
          "type": "uint256"
        }
      ],
      "stateMutability": "view",
      "type": "function"
    },
    {
      "inputs": [],
      "name": "START_VESTING",
      "outputs": [
        {
          "internalType": "uint256",
          "name": "",
          "type": "uint256"
        }
      ],
      "stateMutability": "view",
      "type": "function"
    },
    {
      "inputs": [],
      "name": "VESTING_DURATION",
      "outputs": [
        {
          "internalType": "uint256",
          "name": "",
          "type": "uint256"
        }
      ],
      "stateMutability": "view",
      "type": "function"
    },
    {
      "inputs": [],
      "name": "acceptOwnership",
      "outputs": [],
      "stateMutability": "nonpayable",
      "type": "function"
    },
    {
      "inputs": [],
      "name": "allowChange",
      "outputs": [
        {
          "internalType": "bool",
          "name": "",
          "type": "bool"
        }
      ],
      "stateMutability": "view",
      "type": "function"
    },
    {
      "inputs": [
        {
          "internalType": "uint256",
          "name": "_amount",
          "type": "uint256"
        }
      ],
      "name": "buy",
      "outputs": [],
      "stateMutability": "nonpayable",
      "type": "function"
    },
    {
      "inputs": [
        {
          "internalType": "address",
          "name": "_newAddress",
          "type": "address"
        }
      ],
      "name": "changeReceiver",
      "outputs": [],
      "stateMutability": "nonpayable",
      "type": "function"
    },
    {
      "inputs": [],
      "name": "claim",
      "outputs": [],
      "stateMutability": "nonpayable",
      "type": "function"
    },
    {
      "inputs": [
        {
          "internalType": "address",
          "name": "",
          "type": "address"
        }
      ],
      "name": "claimableAmount",
      "outputs": [
        {
          "internalType": "uint256",
          "name": "",
          "type": "uint256"
        }
      ],
      "stateMutability": "view",
      "type": "function"
    },
    {
      "inputs": [
        {
          "internalType": "address",
          "name": "",
          "type": "address"
        }
      ],
      "name": "claimedAmount",
      "outputs": [
        {
          "internalType": "uint256",
          "name": "",
          "type": "uint256"
        }
      ],
      "stateMutability": "view",
      "type": "function"
    },
    {
      "inputs": [],
      "name": "deposit",
      "outputs": [],
      "stateMutability": "nonpayable",
      "type": "function"
    },
    {
      "inputs": [
        {
          "internalType": "address",
          "name": "_intx",
          "type": "address"
        },
        {
          "internalType": "address",
          "name": "_raiseToken",
          "type": "address"
        },
        {
          "internalType": "address",
          "name": "_xIntx",
          "type": "address"
        },
        {
          "internalType": "address",
          "name": "_multisig",
          "type": "address"
        },
        {
          "internalType": "uint256",
          "name": "_startSale",
          "type": "uint256"
        },
        {
          "internalType": "uint256",
          "name": "_saleDuration",
          "type": "uint256"
        }
      ],
      "name": "initialize",
      "outputs": [],
      "stateMutability": "nonpayable",
      "type": "function"
    },
    {
      "inputs": [],
      "name": "instantPercentage",
      "outputs": [
        {
          "internalType": "uint256",
          "name": "",
          "type": "uint256"
        }
      ],
      "stateMutability": "view",
      "type": "function"
    },
    {
      "inputs": [],
      "name": "intx",
      "outputs": [
        {
          "internalType": "contract IERC20",
          "name": "",
          "type": "address"
        }
      ],
      "stateMutability": "view",
      "type": "function"
    },
    {
      "inputs": [],
      "name": "minBuy",
      "outputs": [
        {
          "internalType": "uint256",
          "name": "",
          "type": "uint256"
        }
      ],
      "stateMutability": "view",
      "type": "function"
    },
    {
      "inputs": [],
      "name": "multisig",
      "outputs": [
        {
          "internalType": "address",
          "name": "",
          "type": "address"
        }
      ],
      "stateMutability": "view",
      "type": "function"
    },
    {
      "inputs": [],
      "name": "owner",
      "outputs": [
        {
          "internalType": "address",
          "name": "",
          "type": "address"
        }
      ],
      "stateMutability": "view",
      "type": "function"
    },
    {
      "inputs": [],
      "name": "pendingOwner",
      "outputs": [
        {
          "internalType": "address",
          "name": "",
          "type": "address"
        }
      ],
      "stateMutability": "view",
      "type": "function"
    },
    {
      "inputs": [],
      "name": "raiseToken",
      "outputs": [
        {
          "internalType": "contract IERC20",
          "name": "",
          "type": "address"
        }
      ],
      "stateMutability": "view",
      "type": "function"
    },
    {
      "inputs": [],
      "name": "renounceOwnership",
      "outputs": [],
      "stateMutability": "nonpayable",
      "type": "function"
    },
    {
      "inputs": [],
      "name": "seeded",
      "outputs": [
        {
          "internalType": "bool",
          "name": "",
          "type": "bool"
        }
      ],
      "stateMutability": "view",
      "type": "function"
    },
    {
      "inputs": [],
      "name": "totalAllocation",
      "outputs": [
        {
          "internalType": "uint256",
          "name": "",
          "type": "uint256"
        }
      ],
      "stateMutability": "view",
      "type": "function"
    },
    {
      "inputs": [],
      "name": "totalClaimable",
      "outputs": [
        {
          "internalType": "uint256",
          "name": "",
          "type": "uint256"
        }
      ],
      "stateMutability": "view",
      "type": "function"
    },
    {
      "inputs": [],
      "name": "totalRaised",
      "outputs": [
        {
          "internalType": "uint256",
          "name": "",
          "type": "uint256"
        }
      ],
      "stateMutability": "view",
      "type": "function"
    },
    {
      "inputs": [],
      "name": "totalToRaise",
      "outputs": [
        {
          "internalType": "uint256",
          "name": "",
          "type": "uint256"
        }
      ],
      "stateMutability": "view",
      "type": "function"
    },
    {
      "inputs": [
        {
          "internalType": "address",
          "name": "newOwner",
          "type": "address"
        }
      ],
      "name": "transferOwnership",
      "outputs": [],
      "stateMutability": "nonpayable",
      "type": "function"
    },
    {
      "inputs": [],
      "name": "withdraw",
      "outputs": [],
      "stateMutability": "nonpayable",
      "type": "function"
    },
    {
      "inputs": [],
      "name": "withdrawUnallocatedIntx",
      "outputs": [],
      "stateMutability": "nonpayable",
      "type": "function"
    },
    {
      "inputs": [],
      "name": "xIntx",
      "outputs": [
        {
          "internalType": "contract IStakedINTX",
          "name": "",
          "type": "address"
        }
      ],
      "stateMutability": "view",
      "type": "function"
    }
  ],
  "bytecode": "0x608060405234801561001057600080fd5b5061001961001e565b6100dd565b600054610100900460ff161561008a5760405162461bcd60e51b815260206004820152602760248201527f496e697469616c697a61626c653a20636f6e747261637420697320696e697469604482015266616c697a696e6760c81b606482015260840160405180910390fd5b60005460ff908116146100db576000805460ff191660ff9081179091556040519081527f7f26b83ff96e1f2b6a682f133852f6798a09c465da95921460cefb38474024989060200160405180910390a15b565b611f5d806100ec6000396000f3fe608060405234801561001057600080fd5b50600436106101da5760003560e01c8063715018a611610104578063aaf5eb68116100a2578063d7c41c7911610071578063d7c41c7914610388578063d96a094a1461039b578063e30c3978146103ae578063f2fde38b146103bf57600080fd5b8063aaf5eb6814610349578063c5c4744c14610352578063d0e30db01461035b578063d5ff56f81461036357600080fd5b8063827d606f116100de578063827d606f14610306578063898850491461030f5780638da5cb5b1461032f578063aa264c9b1461034057600080fd5b8063715018a6146102ed57806379203dc4146102f557806379ba5097146102fe57600080fd5b806346f7d6c91161017c5780634da60aa51161014b5780634da60aa5146102b65780634e71d92d146102c9578063547e3f06146102d15780637107d7a6146102e457600080fd5b806346f7d6c91461027e5780634783c35b146102915780634838ed19146102a45780634cfc4d30146102ad57600080fd5b806327a7af89116101b857806327a7af891461022457806330dfa3b51461024f578063334041a6146102595780633ccfd60b1461027657600080fd5b806304e86903146101df5780631ce48df11461021257806320df16bf1461021b575b600080fd5b6101ff6101ed366004611d2b565b60d86020526000908152604090205481565b6040519081526020015b60405180910390f35b6101ff60cf5481565b6101ff60ca5481565b60d654610237906001600160a01b031681565b6040516001600160a01b039091168152602001610209565b6102576103d2565b005b60d2546102669060ff1681565b6040519015158152602001610209565b610257610505565b60d454610237906001600160a01b031681565b60cd54610237906001600160a01b031681565b6101ff60d35481565b6101ff60cc5481565b60d554610237906001600160a01b031681565b61025761064f565b6102576102df366004611d2b565b6109e2565b6101ff60d15481565b610257610d66565b6101ff60ce5481565b610257610d6e565b6101ff60c95481565b6101ff61031d366004611d2b565b60d76020526000908152604090205481565b6065546001600160a01b0316610237565b6101ff60cb5481565b6101ff61271081565b6101ff60d05481565b610257610dfc565b60cd546102669074010000000000000000000000000000000000000000900460ff1681565b610257610396366004611d4d565b610fa7565b6102576103a9366004611db3565b61130b565b6097546001600160a01b0316610237565b6102576103cd366004611d2b565b6115fa565b6103da611678565b60cb544210156104315760405162461bcd60e51b815260206004820152601660248201527f53616c65206861736e277420656e646564207965742e0000000000000000000060448201526064015b60405180910390fd5b600060d35460ce546104439190611dfb565b9050600081116104955760405162461bcd60e51b815260206004820152601b60248201527f4e6f7420656e6f75676820496e747820746f20776974686472617700000000006044820152606401610428565b60cd5460d4546104b2916001600160a01b039182169116836116d2565b7fa8eedbde77077f55b0c6b1efc969f0dab23c2165782975efb36419cd89965460335b60cd54604080516001600160a01b039384168152929091166020830152810183905260600160405180910390a150565b61050d611678565b60d5546040517f70a082310000000000000000000000000000000000000000000000000000000081523060048201526000916001600160a01b0316906370a0823190602401602060405180830381865afa15801561056f573d6000803e3d6000fd5b505050506040513d601f19601f820116820180604052508101906105939190611e14565b90506000811161060b5760405162461bcd60e51b815260206004820152602160248201527f4e6f7420656e6f756768207261697365546f6b656e20746f207769746864726160448201527f77000000000000000000000000000000000000000000000000000000000000006064820152608401610428565b60cd5460d554610628916001600160a01b039182169116836116d2565b7f9b1bfa7fa9ee420a16e124f794c35ac9f90472acc99140eb2f6447c714cad8eb336104d5565b610657611780565b60cb544210156106a95760405162461bcd60e51b815260206004820152601b60248201527f56657374696e67206861736e27742073746172746564207965742e00000000006044820152606401610428565b33600090815260d76020526040812054900361072d5760405162461bcd60e51b815260206004820152602e60248201527f54686973206164647265737320646f65736e2774206861766520616e7920616d60448201527f6f756e7420746f20636c61696d2e0000000000000000000000000000000000006064820152608401610428565b33600090815260d7602090815260408083205460d890925290912054106107bc5760405162461bcd60e51b815260206004820152602c60248201527f596f75206861766520616c726561647920636c61696d656420616c6c20796f7560448201527f7220616c6c6f636174696f6e00000000000000000000000000000000000000006064820152608401610428565b60cb544211156109d757600061271060c95460d760006107d93390565b6001600160a01b03166001600160a01b03168152602001908152602001600020546108049190611e2d565b61080e9190611e44565b9050600061271060c9546127106108259190611dfb565b33600090815260d7602052604090205461083f9190611e2d565b6108499190611e44565b9050600060cb544261085b9190611dfb565b905060cc5481111561086c575060cc545b60cc5460009061087e61271084611e2d565b6108889190611e44565b33600090815260d86020526040812054919250906127106108a98487611e2d565b6108b39190611e44565b6108bd9087611e7f565b6108c79190611dfb565b905080156109d15733600090815260d86020526040812080548392906108ee908490611e7f565b909155505060d6546000906001600160a01b0316632ee40908336040517fffffffff0000000000000000000000000000000000000000000000000000000060e084901b1681526001600160a01b039091166004820152602481018590526044016020604051808303816000875af115801561096d573d6000803e3d6000fd5b505050506040513d601f19601f820116820180604052508101906109919190611e14565b604080518481526020810183905291925033917f987d620f307ff6b94d58743cb7a7509f24071586a77759b77c2d4e29f75a2f9a910160405180910390a2505b50505050505b6109e060018055565b565b60cb54421015610a345760405162461bcd60e51b815260206004820152601b60248201527f56657374696e67206861736e27742073746172746564207965742e00000000006044820152606401610428565b60cd5474010000000000000000000000000000000000000000900460ff16610aea5760405162461bcd60e51b815260206004820152604660248201527f546869732076657374696e6720636f6e747261637420646f65736e277420616c60448201527f6c6f7720796f7520746f206368616e676520746865207265636569766572206160648201527f6464726573730000000000000000000000000000000000000000000000000000608482015260a401610428565b6001600160a01b038116610b665760405162461bcd60e51b815260206004820152603660248201527f4e657720616c6c6f636174696f6e2072656365697665722063616e277420626560448201527f20746865203078303030302e2e2e2061646472657373000000000000000000006064820152608401610428565b33600081815260d760205260408120549003610bc45760405162461bcd60e51b815260206004820152601e60248201527f596f7520646f6e2774206861766520616e7920616c6c6f636174696f6e2e00006044820152606401610428565b6001600160a01b038216600090815260d7602052604090205415610c505760405162461bcd60e51b815260206004820152602d60248201527f546865206e6577206164647265737320616c726561647920686173206120766560448201527f7374696e6720616d6f756e742e000000000000000000000000000000000000006064820152608401610428565b6001600160a01b038116600090815260d7602090815260408083205460d89092529091205410610ce85760405162461bcd60e51b815260206004820152602d60248201527f596f75206861766520616c726561647920636c61696d656420616c6c20796f7560448201527f7220616c6c6f636174696f6e2e000000000000000000000000000000000000006064820152608401610428565b6001600160a01b03818116600081815260d76020908152604080832080549588168085528285209690965584845260d883528184208054878652838620558585529084905592909255815133815291517f4e87e17c55076158dc051ffe67edb8c0abf946f53612656c46f887ac1f9c486c9281900390910190a35050565b6109e0611678565b60975433906001600160a01b03168114610df05760405162461bcd60e51b815260206004820152602960248201527f4f776e61626c6532537465703a2063616c6c6572206973206e6f74207468652060448201527f6e6577206f776e657200000000000000000000000000000000000000000000006064820152608401610428565b610df9816117df565b50565b610e04611678565b60d25460ff1615610e7d5760405162461bcd60e51b815260206004820152603460248201527f56657374696e6720436f6e747261637420416c7265616479207365656465642060448201527f7769746820696e697469616c20616d6f756e742e0000000000000000000000006064820152608401610428565b610e993360ce5460d4546001600160a01b031691903090611805565b60d45460d6546040517f095ea7b30000000000000000000000000000000000000000000000000000000081526001600160a01b0391821660048201527fffffffffffffffffffffffffffffffffffffffffffffffffffffffffffffffff602482015291169063095ea7b3906044016020604051808303816000875af1158015610f26573d6000803e3d6000fd5b505050506040513d601f19601f82011682018060405250810190610f4a9190611e92565b5060d2805460ff191660011790557f6189b14a5c1490dbeb86a9da875768d98dc98fb398d6b29dd475defaa1ec4ba3610f803390565b60ce54604080516001600160a01b03909316835260208301919091520160405180910390a1565b600054610100900460ff1615808015610fc75750600054600160ff909116105b80610fe15750303b158015610fe1575060005460ff166001145b6110535760405162461bcd60e51b815260206004820152602e60248201527f496e697469616c697a61626c653a20636f6e747261637420697320616c72656160448201527f647920696e697469616c697a65640000000000000000000000000000000000006064820152608401610428565b6000805460ff191660011790558015611076576000805461ff0019166101001790555b61107e61185c565b6110866118cf565b6001600160a01b0387166110dc5760405162461bcd60e51b815260206004820152601460248201527f43616e27742075736520307820616464726573730000000000000000000000006044820152606401610428565b6001600160a01b0386166111325760405162461bcd60e51b815260206004820152601460248201527f43616e27742075736520307820616464726573730000000000000000000000006044820152606401610428565b6001600160a01b0385166111885760405162461bcd60e51b815260206004820152601460248201527f43616e27742075736520307820616464726573730000000000000000000000006044820152606401610428565b6001600160a01b0384166111de5760405162461bcd60e51b815260206004820152601460248201527f43616e27742075736520307820616464726573730000000000000000000000006044820152606401610428565b60d480546001600160a01b03808a1673ffffffffffffffffffffffffffffffffffffffff199283161790925560d5805489841690831617905560d6805488841690831617905560cd80549287169290911691909117905560ca8390556112448284611e7f565b60cb5562eff10060cc5561125b6002612710611e44565b60c9556a01a784379d99db4200000060ce55645d21dba00060cf556298968060d15560cd80547fffffffffffffffffffffff00ffffffffffffffffffffffffffffffffffffffff16740100000000000000000000000000000000000000001790558015611302576000805461ff0019169055604051600181527f7f26b83ff96e1f2b6a682f133852f6798a09c465da95921460cefb38474024989060200160405180910390a15b50505050505050565b60cf5460d054111561135f5760405162461bcd60e51b815260206004820152601a60248201527f416c6c2052616973652068617665206265656e2066696c6c65640000000000006044820152606401610428565b60cb544211156113b15760405162461bcd60e51b815260206004820152600f60248201527f53616c652068617320656e6465642e00000000000000000000000000000000006044820152606401610428565b60ca544210156114035760405162461bcd60e51b815260206004820152601860248201527f53616c65206861736e27742073746172746564207965742e00000000000000006044820152606401610428565b60d15481101561147b5760405162461bcd60e51b815260206004820152602360248201527f596f752063616e277420696e76657374206c657373207468616e20313020555360448201527f44432e00000000000000000000000000000000000000000000000000000000006064820152608401610428565b60d25460ff166114f35760405162461bcd60e51b815260206004820152602860248201527f56657374696e6720436f6e7472616374206861736e2774206265656e2073656560448201527f646564207965742e0000000000000000000000000000000000000000000000006064820152608401610428565b60cf5460d0546115039083611e7f565b111561151c5760d05460cf546115199190611dfb565b90505b6115343360d5546001600160a01b0316903084611805565b8060d060008282546115469190611e7f565b92505081905550600060cf548260ce546115609190611e2d565b61156a9190611e44565b90508060d3600082825461157e9190611e7f565b909155505033600090815260d76020526040812080548392906115a2908490611e7f565b909155505033600081815260d760209081526040918290205482518681529182018590528183015290517fedba86fd2b22962d534e70ad9b0ff8730de46f636146f2bab6a72cbb1ebbcc539181900360600190a25050565b611602611678565b609780546001600160a01b03831673ffffffffffffffffffffffffffffffffffffffff1990911681179091556116406065546001600160a01b031690565b6001600160a01b03167f38d16b8cac22d99fc7c124b9cd0de2d3fa1faef420bfe791d8c362d765e2270060405160405180910390a350565b6065546001600160a01b031633146109e05760405162461bcd60e51b815260206004820181905260248201527f4f776e61626c653a2063616c6c6572206973206e6f7420746865206f776e65726044820152606401610428565b6040516001600160a01b03831660248201526044810182905261177b9084907fa9059cbb00000000000000000000000000000000000000000000000000000000906064015b60408051601f198184030181529190526020810180517bffffffffffffffffffffffffffffffffffffffffffffffffffffffff167fffffffff0000000000000000000000000000000000000000000000000000000090931692909217909152611942565b505050565b6002600154036117d25760405162461bcd60e51b815260206004820152601f60248201527f5265656e7472616e637947756172643a207265656e7472616e742063616c6c006044820152606401610428565b6002600155565b60018055565b6097805473ffffffffffffffffffffffffffffffffffffffff19169055610df981611a2a565b6040516001600160a01b03808516602483015283166044820152606481018290526118569085907f23b872dd0000000000000000000000000000000000000000000000000000000090608401611717565b50505050565b600054610100900460ff166118c75760405162461bcd60e51b815260206004820152602b60248201527f496e697469616c697a61626c653a20636f6e7472616374206973206e6f74206960448201526a6e697469616c697a696e6760a81b6064820152608401610428565b6109e0611a89565b600054610100900460ff1661193a5760405162461bcd60e51b815260206004820152602b60248201527f496e697469616c697a61626c653a20636f6e7472616374206973206e6f74206960448201526a6e697469616c697a696e6760a81b6064820152608401610428565b6109e0611af4565b6000611997826040518060400160405280602081526020017f5361666545524332303a206c6f772d6c6576656c2063616c6c206661696c6564815250856001600160a01b0316611b689092919063ffffffff16565b90508051600014806119b85750808060200190518101906119b89190611e92565b61177b5760405162461bcd60e51b815260206004820152602a60248201527f5361666545524332303a204552433230206f7065726174696f6e20646964206e60448201527f6f742073756363656564000000000000000000000000000000000000000000006064820152608401610428565b606580546001600160a01b0383811673ffffffffffffffffffffffffffffffffffffffff19831681179093556040519116919082907f8be0079c531659141344cd1fd0a4f28419497f9722a3daafe3b4186f6b6457e090600090a35050565b600054610100900460ff166117d95760405162461bcd60e51b815260206004820152602b60248201527f496e697469616c697a61626c653a20636f6e7472616374206973206e6f74206960448201526a6e697469616c697a696e6760a81b6064820152608401610428565b600054610100900460ff16611b5f5760405162461bcd60e51b815260206004820152602b60248201527f496e697469616c697a61626c653a20636f6e7472616374206973206e6f74206960448201526a6e697469616c697a696e6760a81b6064820152608401610428565b6109e0336117df565b6060611b778484600085611b7f565b949350505050565b606082471015611bf75760405162461bcd60e51b815260206004820152602660248201527f416464726573733a20696e73756666696369656e742062616c616e636520666f60448201527f722063616c6c00000000000000000000000000000000000000000000000000006064820152608401610428565b600080866001600160a01b03168587604051611c139190611ed8565b60006040518083038185875af1925050503d8060008114611c50576040519150601f19603f3d011682016040523d82523d6000602084013e611c55565b606091505b5091509150611c6687838387611c71565b979650505050505050565b60608315611ce0578251600003611cd9576001600160a01b0385163b611cd95760405162461bcd60e51b815260206004820152601d60248201527f416464726573733a2063616c6c20746f206e6f6e2d636f6e74726163740000006044820152606401610428565b5081611b77565b611b778383815115611cf55781518083602001fd5b8060405162461bcd60e51b81526004016104289190611ef4565b80356001600160a01b0381168114611d2657600080fd5b919050565b600060208284031215611d3d57600080fd5b611d4682611d0f565b9392505050565b60008060008060008060c08789031215611d6657600080fd5b611d6f87611d0f565b9550611d7d60208801611d0f565b9450611d8b60408801611d0f565b9350611d9960608801611d0f565b92506080870135915060a087013590509295509295509295565b600060208284031215611dc557600080fd5b5035919050565b7f4e487b7100000000000000000000000000000000000000000000000000000000600052601160045260246000fd5b81810381811115611e0e57611e0e611dcc565b92915050565b600060208284031215611e2657600080fd5b5051919050565b8082028115828204841417611e0e57611e0e611dcc565b600082611e7a577f4e487b7100000000000000000000000000000000000000000000000000000000600052601260045260246000fd5b500490565b80820180821115611e0e57611e0e611dcc565b600060208284031215611ea457600080fd5b81518015158114611d4657600080fd5b60005b83811015611ecf578181015183820152602001611eb7565b50506000910152565b60008251611eea818460208701611eb4565b9190910192915050565b6020815260008251806020840152611f13816040850160208701611eb4565b601f01601f1916919091016040019291505056fea26469706673582212207e9bc02ee867b3d8c70db2d2cb73b9766a9d8f58d31c232e501fd9490600357264736f6c63430008130033",
  "linkReferences": {},
  "deployedLinkReferences": {}
}