{
  "_format": "hh-sol-artifact-1",
  "contractName": "BonusAirdropClaim",
  "sourceName": "contracts/vestings/BonusAirdropClaim.sol",
  "abi": [
    {
      "inputs": [],
      "stateMutability": "nonpayable",
      "type": "constructor"
    },
    {
      "anonymous": false,
      "inputs": [
        {
          "indexed": true,
          "internalType": "address",
          "name": "user",
          "type": "address"
        },
        {
          "indexed": false,
          "internalType": "uint256",
          "name": "amount",
          "type": "uint256"
        },
        {
          "indexed": false,
          "internalType": "uint256",
          "name": "_tokenId",
          "type": "uint256"
        }
      ],
      "name": "Claimed",
      "type": "event"
    },
    {
      "anonymous": false,
      "inputs": [
        {
          "indexed": false,
          "internalType": "uint8",
          "name": "version",
          "type": "uint8"
        }
      ],
      "name": "Initialized",
      "type": "event"
    },
    {
      "anonymous": false,
      "inputs": [
        {
          "indexed": true,
          "internalType": "address",
          "name": "previousOwner",
          "type": "address"
        },
        {
          "indexed": true,
          "internalType": "address",
          "name": "newOwner",
          "type": "address"
        }
      ],
      "name": "OwnershipTransferStarted",
      "type": "event"
    },
    {
      "anonymous": false,
      "inputs": [
        {
          "indexed": true,
          "internalType": "address",
          "name": "previousOwner",
          "type": "address"
        },
        {
          "indexed": true,
          "internalType": "address",
          "name": "newOwner",
          "type": "address"
        }
      ],
      "name": "OwnershipTransferred",
      "type": "event"
    },
    {
      "anonymous": false,
      "inputs": [
        {
          "indexed": false,
          "internalType": "address",
          "name": "operator",
          "type": "address"
        },
        {
          "indexed": false,
          "internalType": "address[]",
          "name": "users",
          "type": "address[]"
        },
        {
          "indexed": false,
          "internalType": "uint256[]",
          "name": "amount",
          "type": "uint256[]"
        },
        {
          "indexed": false,
          "internalType": "uint256",
          "name": "totalAmount",
          "type": "uint256"
        }
      ],
      "name": "Seeded",
      "type": "event"
    },
    {
      "inputs": [],
      "name": "FIRST_CLAIM_TS",
      "outputs": [
        {
          "internalType": "uint256",
          "name": "",
          "type": "uint256"
        }
      ],
      "stateMutability": "view",
      "type": "function"
    },
    {
      "inputs": [],
      "name": "acceptOwnership",
      "outputs": [],
      "stateMutability": "nonpayable",
      "type": "function"
    },
    {
      "inputs": [],
      "name": "claim",
      "outputs": [],
      "stateMutability": "nonpayable",
      "type": "function"
    },
    {
      "inputs": [
        {
          "internalType": "address",
          "name": "",
          "type": "address"
        }
      ],
      "name": "claimableAmount",
      "outputs": [
        {
          "internalType": "uint256",
          "name": "",
          "type": "uint256"
        }
      ],
      "stateMutability": "view",
      "type": "function"
    },
    {
      "inputs": [
        {
          "internalType": "address",
          "name": "_user",
          "type": "address"
        }
      ],
      "name": "claimableNow",
      "outputs": [
        {
          "internalType": "uint256",
          "name": "amountToReceive",
          "type": "uint256"
        }
      ],
      "stateMutability": "view",
      "type": "function"
    },
    {
      "inputs": [
        {
          "internalType": "address",
          "name": "",
          "type": "address"
        }
      ],
      "name": "claimedAmount",
      "outputs": [
        {
          "internalType": "uint256",
          "name": "",
          "type": "uint256"
        }
      ],
      "stateMutability": "view",
      "type": "function"
    },
    {
      "inputs": [
        {
          "internalType": "address",
          "name": "_intx",
          "type": "address"
        },
        {
          "internalType": "address",
          "name": "_xIntx",
          "type": "address"
        },
        {
          "internalType": "uint256",
          "name": "_firstClaimTs",
          "type": "uint256"
        }
      ],
      "name": "initialize",
      "outputs": [],
      "stateMutability": "nonpayable",
      "type": "function"
    },
    {
      "inputs": [],
      "name": "intx",
      "outputs": [
        {
          "internalType": "contract IERC20",
          "name": "",
          "type": "address"
        }
      ],
      "stateMutability": "view",
      "type": "function"
    },
    {
      "inputs": [],
      "name": "owner",
      "outputs": [
        {
          "internalType": "address",
          "name": "",
          "type": "address"
        }
      ],
      "stateMutability": "view",
      "type": "function"
    },
    {
      "inputs": [],
      "name": "pendingOwner",
      "outputs": [
        {
          "internalType": "address",
          "name": "",
          "type": "address"
        }
      ],
      "stateMutability": "view",
      "type": "function"
    },
    {
      "inputs": [],
      "name": "renounceOwnership",
      "outputs": [],
      "stateMutability": "nonpayable",
      "type": "function"
    },
    {
      "inputs": [
        {
          "internalType": "address[]",
          "name": "_receivers",
          "type": "address[]"
        },
        {
          "internalType": "uint256[]",
          "name": "_amounts",
          "type": "uint256[]"
        }
      ],
      "name": "setAllocations",
      "outputs": [],
      "stateMutability": "nonpayable",
      "type": "function"
    },
    {
      "inputs": [],
      "name": "stopAirdrop",
      "outputs": [],
      "stateMutability": "nonpayable",
      "type": "function"
    },
    {
      "inputs": [
        {
          "internalType": "address",
          "name": "newOwner",
          "type": "address"
        }
      ],
      "name": "transferOwnership",
      "outputs": [],
      "stateMutability": "nonpayable",
      "type": "function"
    },
    {
      "inputs": [],
      "name": "xIntx",
      "outputs": [
        {
          "internalType": "contract IStakedINTX",
          "name": "",
          "type": "address"
        }
      ],
      "stateMutability": "view",
      "type": "function"
    }
  ],
  "bytecode": "0x608060405234801561001057600080fd5b5061001961001e565b6100dd565b600054610100900460ff161561008a5760405162461bcd60e51b815260206004820152602760248201527f496e697469616c697a61626c653a20636f6e747261637420697320696e697469604482015266616c697a696e6760c81b606482015260840160405180910390fd5b60005460ff908116146100db576000805460ff191660ff9081179091556040519081527f7f26b83ff96e1f2b6a682f133852f6798a09c465da95921460cefb38474024989060200160405180910390a15b565b61152f806100ec6000396000f3fe608060405234801561001057600080fd5b50600436106100f55760003560e01c80634f4e47f1116100975780638da5cb5b116100665780638da5cb5b146101dc5780639a78ea4a146101ed578063e30c397814610200578063f2fde38b1461021157600080fd5b80634f4e47f1146101a4578063715018a6146101ac57806379ba5097146101b457806389885049146101bc57600080fd5b806327a7af89116100d357806327a7af8914610155578063439e28241461018057806346f7d6c9146101895780634e71d92d1461019c57600080fd5b806304e86903146100fa5780631794bb3c1461012d5780631ff64acd14610142575b600080fd5b61011a6101083660046111a7565b60cd6020526000908152604090205481565b6040519081526020015b60405180910390f35b61014061013b3660046111c9565b610224565b005b610140610150366004611251565b610460565b60cb54610168906001600160a01b031681565b6040516001600160a01b039091168152602001610124565b61011a60c95481565b60ca54610168906001600160a01b031681565b610140610595565b61014061089d565b6101406109da565b6101406109e2565b61011a6101ca3660046111a7565b60cc6020526000908152604090205481565b6065546001600160a01b0316610168565b61011a6101fb3660046111a7565b610a70565b6097546001600160a01b0316610168565b61014061021f3660046111a7565b610af3565b600054610100900460ff16158080156102445750600054600160ff909116105b8061025e5750303b15801561025e575060005460ff166001145b6102d55760405162461bcd60e51b815260206004820152602e60248201527f496e697469616c697a61626c653a20636f6e747261637420697320616c72656160448201527f647920696e697469616c697a656400000000000000000000000000000000000060648201526084015b60405180910390fd5b600080547fffffffffffffffffffffffffffffffffffffffffffffffffffffffffffffff001660011790558015610316576000805461ff0019166101001790555b61031e610b71565b610326610be4565b6001600160a01b03841661037c5760405162461bcd60e51b815260206004820152601460248201527f43616e277420757365203078206164647265737300000000000000000000000060448201526064016102cc565b6001600160a01b0383166103d25760405162461bcd60e51b815260206004820152601460248201527f43616e277420757365203078206164647265737300000000000000000000000060448201526064016102cc565b60ca80546001600160a01b0380871673ffffffffffffffffffffffffffffffffffffffff199283161790925560cb80549286169290911691909117905560c9829055801561045a576000805461ff0019169055604051600181527f7f26b83ff96e1f2b6a682f133852f6798a09c465da95921460cefb38474024989060200160405180910390a15b50505050565b610468610c57565b60008382811461047757600080fd5b60005b8181101561053357848482818110610494576104946112bd565b9050602002013560cc60008989858181106104b1576104b16112bd565b90506020020160208101906104c691906111a7565b6001600160a01b03166001600160a01b0316815260200190815260200160002060008282546104f5919061131b565b90915550859050848281811061050d5761050d6112bd565b905060200201358361051f919061131b565b92508061052b81611334565b91505061047a565b5061054c3360ca546001600160a01b0316903085610cb1565b7fce2f1e54279c24e5f841f2af4826cb958d82cbec9904631c271ea9f79c0497583387878787876040516105859695949392919061136c565b60405180910390a1505050505050565b61059d610d39565b33600090815260cc602052604081205490036106215760405162461bcd60e51b815260206004820152602e60248201527f54686973206164647265737320646f65736e2774206861766520616e7920616d60448201527f6f756e7420746f20636c61696d2e00000000000000000000000000000000000060648201526084016102cc565b33600090815260cc602090815260408083205460cd90925290912054106106b05760405162461bcd60e51b815260206004820152602c60248201527f596f75206861766520616c726561647920636c61696d656420616c6c20796f7560448201527f7220616c6c6f636174696f6e000000000000000000000000000000000000000060648201526084016102cc565b60004260c95410156106d95733600090815260cc60205260409020546106d6908261131b565b90505b33600090815260cd60205260408120546106f3908361141a565b905080156108905733600090815260cd60205260408120805483929061071a90849061131b565b909155505060ca5460cb546040517f095ea7b30000000000000000000000000000000000000000000000000000000081526001600160a01b0391821660048201526024810184905291169063095ea7b3906044016020604051808303816000875af115801561078d573d6000803e3d6000fd5b505050506040513d601f19601f820116820180604052508101906107b1919061142d565b5060cb546000906001600160a01b0316632ee40908336040517fffffffff0000000000000000000000000000000000000000000000000000000060e084901b1681526001600160a01b039091166004820152602481018590526044016020604051808303816000875af115801561082c573d6000803e3d6000fd5b505050506040513d601f19601f82011682018060405250810190610850919061144f565b604080518481526020810183905291925033917f987d620f307ff6b94d58743cb7a7509f24071586a77759b77c2d4e29f75a2f9a910160405180910390a2505b505061089b60018055565b565b6108a5610c57565b60ca546040517f70a0823100000000000000000000000000000000000000000000000000000000815230600482015273ef23f554af7fa7421af1ff53f2b4838c05afd7a2916000916001600160a01b03909116906370a0823190602401602060405180830381865afa15801561091f573d6000803e3d6000fd5b505050506040513d601f19601f82011682018060405250810190610943919061144f565b60ca546040517fa9059cbb0000000000000000000000000000000000000000000000000000000081526001600160a01b0385811660048301526024820184905292935091169063a9059cbb906044016020604051808303816000875af11580156109b1573d6000803e3d6000fd5b505050506040513d601f19601f820116820180604052508101906109d5919061142d565b505050565b61089b610c57565b60975433906001600160a01b03168114610a645760405162461bcd60e51b815260206004820152602960248201527f4f776e61626c6532537465703a2063616c6c6572206973206e6f74207468652060448201527f6e6577206f776e6572000000000000000000000000000000000000000000000060648201526084016102cc565b610a6d81610d98565b50565b600080600090504260c9541015610aa7576001600160a01b038316600090815260cc6020526040902054610aa4908261131b565b90505b6001600160a01b038316600090815260cd6020526040902054811115610aed576001600160a01b038316600090815260cd6020526040902054610aea908261141a565b91505b50919050565b610afb610c57565b609780546001600160a01b03831673ffffffffffffffffffffffffffffffffffffffff199091168117909155610b396065546001600160a01b031690565b6001600160a01b03167f38d16b8cac22d99fc7c124b9cd0de2d3fa1faef420bfe791d8c362d765e2270060405160405180910390a350565b600054610100900460ff16610bdc5760405162461bcd60e51b815260206004820152602b60248201527f496e697469616c697a61626c653a20636f6e7472616374206973206e6f74206960448201526a6e697469616c697a696e6760a81b60648201526084016102cc565b61089b610dbe565b600054610100900460ff16610c4f5760405162461bcd60e51b815260206004820152602b60248201527f496e697469616c697a61626c653a20636f6e7472616374206973206e6f74206960448201526a6e697469616c697a696e6760a81b60648201526084016102cc565b61089b610e29565b6065546001600160a01b0316331461089b5760405162461bcd60e51b815260206004820181905260248201527f4f776e61626c653a2063616c6c6572206973206e6f7420746865206f776e657260448201526064016102cc565b604080516001600160a01b0385811660248301528416604482015260648082018490528251808303909101815260849091019091526020810180517bffffffffffffffffffffffffffffffffffffffffffffffffffffffff167f23b872dd0000000000000000000000000000000000000000000000000000000017905261045a908590610e9d565b600260015403610d8b5760405162461bcd60e51b815260206004820152601f60248201527f5265656e7472616e637947756172643a207265656e7472616e742063616c6c0060448201526064016102cc565b6002600155565b60018055565b6097805473ffffffffffffffffffffffffffffffffffffffff19169055610a6d81610f85565b600054610100900460ff16610d925760405162461bcd60e51b815260206004820152602b60248201527f496e697469616c697a61626c653a20636f6e7472616374206973206e6f74206960448201526a6e697469616c697a696e6760a81b60648201526084016102cc565b600054610100900460ff16610e945760405162461bcd60e51b815260206004820152602b60248201527f496e697469616c697a61626c653a20636f6e7472616374206973206e6f74206960448201526a6e697469616c697a696e6760a81b60648201526084016102cc565b61089b33610d98565b6000610ef2826040518060400160405280602081526020017f5361666545524332303a206c6f772d6c6576656c2063616c6c206661696c6564815250856001600160a01b0316610fe49092919063ffffffff16565b9050805160001480610f13575080806020019051810190610f13919061142d565b6109d55760405162461bcd60e51b815260206004820152602a60248201527f5361666545524332303a204552433230206f7065726174696f6e20646964206e60448201527f6f7420737563636565640000000000000000000000000000000000000000000060648201526084016102cc565b606580546001600160a01b0383811673ffffffffffffffffffffffffffffffffffffffff19831681179093556040519116919082907f8be0079c531659141344cd1fd0a4f28419497f9722a3daafe3b4186f6b6457e090600090a35050565b6060610ff38484600085610ffb565b949350505050565b6060824710156110735760405162461bcd60e51b815260206004820152602660248201527f416464726573733a20696e73756666696369656e742062616c616e636520666f60448201527f722063616c6c000000000000000000000000000000000000000000000000000060648201526084016102cc565b600080866001600160a01b0316858760405161108f919061148c565b60006040518083038185875af1925050503d80600081146110cc576040519150601f19603f3d011682016040523d82523d6000602084013e6110d1565b606091505b50915091506110e2878383876110ed565b979650505050505050565b6060831561115c578251600003611155576001600160a01b0385163b6111555760405162461bcd60e51b815260206004820152601d60248201527f416464726573733a2063616c6c20746f206e6f6e2d636f6e747261637400000060448201526064016102cc565b5081610ff3565b610ff383838151156111715781518083602001fd5b8060405162461bcd60e51b81526004016102cc91906114a8565b80356001600160a01b03811681146111a257600080fd5b919050565b6000602082840312156111b957600080fd5b6111c28261118b565b9392505050565b6000806000606084860312156111de57600080fd5b6111e78461118b565b92506111f56020850161118b565b9150604084013590509250925092565b60008083601f84011261121757600080fd5b50813567ffffffffffffffff81111561122f57600080fd5b6020830191508360208260051b850101111561124a57600080fd5b9250929050565b6000806000806040858703121561126757600080fd5b843567ffffffffffffffff8082111561127f57600080fd5b61128b88838901611205565b909650945060208701359150808211156112a457600080fd5b506112b187828801611205565b95989497509550505050565b7f4e487b7100000000000000000000000000000000000000000000000000000000600052603260045260246000fd5b7f4e487b7100000000000000000000000000000000000000000000000000000000600052601160045260246000fd5b8082018082111561132e5761132e6112ec565b92915050565b60007fffffffffffffffffffffffffffffffffffffffffffffffffffffffffffffffff8203611365576113656112ec565b5060010190565b6001600160a01b03878116825260806020808401829052908301879052600091889160a08501845b8a8110156113b957836113a68661118b565b1682529382019390820190600101611394565b5085810360408701528781527f07ffffffffffffffffffffffffffffffffffffffffffffffffffffffffffffff8811156113f257600080fd5b8760051b93508389838301378184820101945050505050826060830152979650505050505050565b8181038181111561132e5761132e6112ec565b60006020828403121561143f57600080fd5b815180151581146111c257600080fd5b60006020828403121561146157600080fd5b5051919050565b60005b8381101561148357818101518382015260200161146b565b50506000910152565b6000825161149e818460208701611468565b9190910192915050565b60208152600082518060208401526114c7816040850160208701611468565b601f017fffffffffffffffffffffffffffffffffffffffffffffffffffffffffffffffe016919091016040019291505056fea2646970667358221220c4c80e3a34ac056ec81e9902e83d068eafae9b5575e5fee263c6306b833f35ab64736f6c63430008120033",
  "linkReferences": {},
  "deployedLinkReferences": {}
}