{
  "_format": "hh-sol-artifact-1",
  "contractName": "BonusAirdropClaim",
  "sourceName": "contracts/vestings/BonusAirdropClaim.sol",
  "abi": [
    {
      "inputs": [],
      "stateMutability": "nonpayable",
      "type": "constructor"
    },
    {
      "anonymous": false,
      "inputs": [
        {
          "indexed": true,
          "internalType": "address",
          "name": "user",
          "type": "address"
        },
        {
          "indexed": false,
          "internalType": "uint256",
          "name": "amount",
          "type": "uint256"
        },
        {
          "indexed": false,
          "internalType": "uint256",
          "name": "_tokenId",
          "type": "uint256"
        }
      ],
      "name": "Claimed",
      "type": "event"
    },
    {
      "anonymous": false,
      "inputs": [
        {
          "indexed": false,
          "internalType": "uint8",
          "name": "version",
          "type": "uint8"
        }
      ],
      "name": "Initialized",
      "type": "event"
    },
    {
      "anonymous": false,
      "inputs": [
        {
          "indexed": true,
          "internalType": "address",
          "name": "previousOwner",
          "type": "address"
        },
        {
          "indexed": true,
          "internalType": "address",
          "name": "newOwner",
          "type": "address"
        }
      ],
      "name": "OwnershipTransferStarted",
      "type": "event"
    },
    {
      "anonymous": false,
      "inputs": [
        {
          "indexed": true,
          "internalType": "address",
          "name": "previousOwner",
          "type": "address"
        },
        {
          "indexed": true,
          "internalType": "address",
          "name": "newOwner",
          "type": "address"
        }
      ],
      "name": "OwnershipTransferred",
      "type": "event"
    },
    {
      "anonymous": false,
      "inputs": [
        {
          "indexed": false,
          "internalType": "address",
          "name": "operator",
          "type": "address"
        },
        {
          "indexed": false,
          "internalType": "address[]",
          "name": "users",
          "type": "address[]"
        },
        {
          "indexed": false,
          "internalType": "uint256[]",
          "name": "amount",
          "type": "uint256[]"
        },
        {
          "indexed": false,
          "internalType": "uint256",
          "name": "totalAmount",
          "type": "uint256"
        }
      ],
      "name": "Seeded",
      "type": "event"
    },
    {
      "inputs": [],
      "name": "FIRST_CLAIM_TS",
      "outputs": [
        {
          "internalType": "uint256",
          "name": "",
          "type": "uint256"
        }
      ],
      "stateMutability": "view",
      "type": "function"
    },
    {
      "inputs": [],
      "name": "acceptOwnership",
      "outputs": [],
      "stateMutability": "nonpayable",
      "type": "function"
    },
    {
      "inputs": [],
      "name": "claim",
      "outputs": [],
      "stateMutability": "nonpayable",
      "type": "function"
    },
    {
      "inputs": [
        {
          "internalType": "address",
          "name": "",
          "type": "address"
        }
      ],
      "name": "claimableAmount",
      "outputs": [
        {
          "internalType": "uint256",
          "name": "",
          "type": "uint256"
        }
      ],
      "stateMutability": "view",
      "type": "function"
    },
    {
      "inputs": [
        {
          "internalType": "address",
          "name": "_user",
          "type": "address"
        }
      ],
      "name": "claimableNow",
      "outputs": [
        {
          "internalType": "uint256",
          "name": "amountToReceive",
          "type": "uint256"
        }
      ],
      "stateMutability": "view",
      "type": "function"
    },
    {
      "inputs": [
        {
          "internalType": "address",
          "name": "",
          "type": "address"
        }
      ],
      "name": "claimedAmount",
      "outputs": [
        {
          "internalType": "uint256",
          "name": "",
          "type": "uint256"
        }
      ],
      "stateMutability": "view",
      "type": "function"
    },
    {
      "inputs": [
        {
          "internalType": "address",
          "name": "_intx",
          "type": "address"
        },
        {
          "internalType": "address",
          "name": "_xIntx",
          "type": "address"
        },
        {
          "internalType": "uint256",
          "name": "_firstClaimTs",
          "type": "uint256"
        }
      ],
      "name": "initialize",
      "outputs": [],
      "stateMutability": "nonpayable",
      "type": "function"
    },
    {
      "inputs": [],
      "name": "intx",
      "outputs": [
        {
          "internalType": "contract IERC20",
          "name": "",
          "type": "address"
        }
      ],
      "stateMutability": "view",
      "type": "function"
    },
    {
      "inputs": [],
      "name": "owner",
      "outputs": [
        {
          "internalType": "address",
          "name": "",
          "type": "address"
        }
      ],
      "stateMutability": "view",
      "type": "function"
    },
    {
      "inputs": [],
      "name": "pendingOwner",
      "outputs": [
        {
          "internalType": "address",
          "name": "",
          "type": "address"
        }
      ],
      "stateMutability": "view",
      "type": "function"
    },
    {
      "inputs": [],
      "name": "renounceOwnership",
      "outputs": [],
      "stateMutability": "nonpayable",
      "type": "function"
    },
    {
      "inputs": [
        {
          "internalType": "address[]",
          "name": "_receivers",
          "type": "address[]"
        },
        {
          "internalType": "uint256[]",
          "name": "_amounts",
          "type": "uint256[]"
        }
      ],
      "name": "setAllocations",
      "outputs": [],
      "stateMutability": "nonpayable",
      "type": "function"
    },
    {
      "inputs": [
        {
          "internalType": "address",
          "name": "newOwner",
          "type": "address"
        }
      ],
      "name": "transferOwnership",
      "outputs": [],
      "stateMutability": "nonpayable",
      "type": "function"
    },
    {
      "inputs": [],
      "name": "xIntx",
      "outputs": [
        {
          "internalType": "contract IStakedINTX",
          "name": "",
          "type": "address"
        }
      ],
      "stateMutability": "view",
      "type": "function"
    }
  ],
  "bytecode": "0x608060405234801561001057600080fd5b5061001961001e565b6100dd565b600054610100900460ff161561008a5760405162461bcd60e51b815260206004820152602760248201527f496e697469616c697a61626c653a20636f6e747261637420697320696e697469604482015266616c697a696e6760c81b606482015260840160405180910390fd5b60005460ff908116146100db576000805460ff191660ff9081179091556040519081527f7f26b83ff96e1f2b6a682f133852f6798a09c465da95921460cefb38474024989060200160405180910390a15b565b6113e4806100ec6000396000f3fe608060405234801561001057600080fd5b50600436106100ea5760003560e01c8063715018a61161008c5780638da5cb5b116100665780638da5cb5b146101c95780639a78ea4a146101da578063e30c3978146101ed578063f2fde38b146101fe57600080fd5b8063715018a61461019957806379ba5097146101a157806389885049146101a957600080fd5b806327a7af89116100c857806327a7af891461014a578063439e28241461017557806346f7d6c91461017e5780634e71d92d1461019157600080fd5b806304e86903146100ef5780631794bb3c146101225780631ff64acd14610137575b600080fd5b61010f6100fd36600461105c565b60cd6020526000908152604090205481565b6040519081526020015b60405180910390f35b61013561013036600461107e565b610211565b005b610135610145366004611106565b61044d565b60cb5461015d906001600160a01b031681565b6040516001600160a01b039091168152602001610119565b61010f60c95481565b60ca5461015d906001600160a01b031681565b610135610582565b61013561088a565b610135610892565b61010f6101b736600461105c565b60cc6020526000908152604090205481565b6065546001600160a01b031661015d565b61010f6101e836600461105c565b610920565b6097546001600160a01b031661015d565b61013561020c36600461105c565b6109a3565b600054610100900460ff16158080156102315750600054600160ff909116105b8061024b5750303b15801561024b575060005460ff166001145b6102c25760405162461bcd60e51b815260206004820152602e60248201527f496e697469616c697a61626c653a20636f6e747261637420697320616c72656160448201527f647920696e697469616c697a656400000000000000000000000000000000000060648201526084015b60405180910390fd5b600080547fffffffffffffffffffffffffffffffffffffffffffffffffffffffffffffff001660011790558015610303576000805461ff0019166101001790555b61030b610a21565b610313610a94565b6001600160a01b0384166103695760405162461bcd60e51b815260206004820152601460248201527f43616e277420757365203078206164647265737300000000000000000000000060448201526064016102b9565b6001600160a01b0383166103bf5760405162461bcd60e51b815260206004820152601460248201527f43616e277420757365203078206164647265737300000000000000000000000060448201526064016102b9565b60ca80546001600160a01b0380871673ffffffffffffffffffffffffffffffffffffffff199283161790925560cb80549286169290911691909117905560c98290558015610447576000805461ff0019169055604051600181527f7f26b83ff96e1f2b6a682f133852f6798a09c465da95921460cefb38474024989060200160405180910390a15b50505050565b610455610b07565b60008382811461046457600080fd5b60005b818110156105205784848281811061048157610481611172565b9050602002013560cc600089898581811061049e5761049e611172565b90506020020160208101906104b3919061105c565b6001600160a01b03166001600160a01b0316815260200190815260200160002060008282546104e291906111d0565b9091555085905084828181106104fa576104fa611172565b905060200201358361050c91906111d0565b925080610518816111e9565b915050610467565b506105393360ca546001600160a01b0316903085610b61565b7fce2f1e54279c24e5f841f2af4826cb958d82cbec9904631c271ea9f79c04975833878787878760405161057296959493929190611221565b60405180910390a1505050505050565b61058a610be9565b33600090815260cc6020526040812054900361060e5760405162461bcd60e51b815260206004820152602e60248201527f54686973206164647265737320646f65736e2774206861766520616e7920616d60448201527f6f756e7420746f20636c61696d2e00000000000000000000000000000000000060648201526084016102b9565b33600090815260cc602090815260408083205460cd909252909120541061069d5760405162461bcd60e51b815260206004820152602c60248201527f596f75206861766520616c726561647920636c61696d656420616c6c20796f7560448201527f7220616c6c6f636174696f6e000000000000000000000000000000000000000060648201526084016102b9565b60004260c95410156106c65733600090815260cc60205260409020546106c390826111d0565b90505b33600090815260cd60205260408120546106e090836112cf565b9050801561087d5733600090815260cd6020526040812080548392906107079084906111d0565b909155505060ca5460cb546040517f095ea7b30000000000000000000000000000000000000000000000000000000081526001600160a01b0391821660048201526024810184905291169063095ea7b3906044016020604051808303816000875af115801561077a573d6000803e3d6000fd5b505050506040513d601f19601f8201168201806040525081019061079e91906112e2565b5060cb546000906001600160a01b0316632ee40908336040517fffffffff0000000000000000000000000000000000000000000000000000000060e084901b1681526001600160a01b039091166004820152602481018590526044016020604051808303816000875af1158015610819573d6000803e3d6000fd5b505050506040513d601f19601f8201168201806040525081019061083d9190611304565b604080518481526020810183905291925033917f987d620f307ff6b94d58743cb7a7509f24071586a77759b77c2d4e29f75a2f9a910160405180910390a2505b505061088860018055565b565b610888610b07565b60975433906001600160a01b031681146109145760405162461bcd60e51b815260206004820152602960248201527f4f776e61626c6532537465703a2063616c6c6572206973206e6f74207468652060448201527f6e6577206f776e6572000000000000000000000000000000000000000000000060648201526084016102b9565b61091d81610c48565b50565b600080600090504260c9541015610957576001600160a01b038316600090815260cc602052604090205461095490826111d0565b90505b6001600160a01b038316600090815260cd602052604090205481111561099d576001600160a01b038316600090815260cd602052604090205461099a90826112cf565b91505b50919050565b6109ab610b07565b609780546001600160a01b03831673ffffffffffffffffffffffffffffffffffffffff1990911681179091556109e96065546001600160a01b031690565b6001600160a01b03167f38d16b8cac22d99fc7c124b9cd0de2d3fa1faef420bfe791d8c362d765e2270060405160405180910390a350565b600054610100900460ff16610a8c5760405162461bcd60e51b815260206004820152602b60248201527f496e697469616c697a61626c653a20636f6e7472616374206973206e6f74206960448201526a6e697469616c697a696e6760a81b60648201526084016102b9565b610888610c6e565b600054610100900460ff16610aff5760405162461bcd60e51b815260206004820152602b60248201527f496e697469616c697a61626c653a20636f6e7472616374206973206e6f74206960448201526a6e697469616c697a696e6760a81b60648201526084016102b9565b610888610cd9565b6065546001600160a01b031633146108885760405162461bcd60e51b815260206004820181905260248201527f4f776e61626c653a2063616c6c6572206973206e6f7420746865206f776e657260448201526064016102b9565b604080516001600160a01b0385811660248301528416604482015260648082018490528251808303909101815260849091019091526020810180517bffffffffffffffffffffffffffffffffffffffffffffffffffffffff167f23b872dd00000000000000000000000000000000000000000000000000000000179052610447908590610d4d565b600260015403610c3b5760405162461bcd60e51b815260206004820152601f60248201527f5265656e7472616e637947756172643a207265656e7472616e742063616c6c0060448201526064016102b9565b6002600155565b60018055565b6097805473ffffffffffffffffffffffffffffffffffffffff1916905561091d81610e3a565b600054610100900460ff16610c425760405162461bcd60e51b815260206004820152602b60248201527f496e697469616c697a61626c653a20636f6e7472616374206973206e6f74206960448201526a6e697469616c697a696e6760a81b60648201526084016102b9565b600054610100900460ff16610d445760405162461bcd60e51b815260206004820152602b60248201527f496e697469616c697a61626c653a20636f6e7472616374206973206e6f74206960448201526a6e697469616c697a696e6760a81b60648201526084016102b9565b61088833610c48565b6000610da2826040518060400160405280602081526020017f5361666545524332303a206c6f772d6c6576656c2063616c6c206661696c6564815250856001600160a01b0316610e999092919063ffffffff16565b9050805160001480610dc3575080806020019051810190610dc391906112e2565b610e355760405162461bcd60e51b815260206004820152602a60248201527f5361666545524332303a204552433230206f7065726174696f6e20646964206e60448201527f6f7420737563636565640000000000000000000000000000000000000000000060648201526084016102b9565b505050565b606580546001600160a01b0383811673ffffffffffffffffffffffffffffffffffffffff19831681179093556040519116919082907f8be0079c531659141344cd1fd0a4f28419497f9722a3daafe3b4186f6b6457e090600090a35050565b6060610ea88484600085610eb0565b949350505050565b606082471015610f285760405162461bcd60e51b815260206004820152602660248201527f416464726573733a20696e73756666696369656e742062616c616e636520666f60448201527f722063616c6c000000000000000000000000000000000000000000000000000060648201526084016102b9565b600080866001600160a01b03168587604051610f449190611341565b60006040518083038185875af1925050503d8060008114610f81576040519150601f19603f3d011682016040523d82523d6000602084013e610f86565b606091505b5091509150610f9787838387610fa2565b979650505050505050565b6060831561101157825160000361100a576001600160a01b0385163b61100a5760405162461bcd60e51b815260206004820152601d60248201527f416464726573733a2063616c6c20746f206e6f6e2d636f6e747261637400000060448201526064016102b9565b5081610ea8565b610ea883838151156110265781518083602001fd5b8060405162461bcd60e51b81526004016102b9919061135d565b80356001600160a01b038116811461105757600080fd5b919050565b60006020828403121561106e57600080fd5b61107782611040565b9392505050565b60008060006060848603121561109357600080fd5b61109c84611040565b92506110aa60208501611040565b9150604084013590509250925092565b60008083601f8401126110cc57600080fd5b50813567ffffffffffffffff8111156110e457600080fd5b6020830191508360208260051b85010111156110ff57600080fd5b9250929050565b6000806000806040858703121561111c57600080fd5b843567ffffffffffffffff8082111561113457600080fd5b611140888389016110ba565b9096509450602087013591508082111561115957600080fd5b50611166878288016110ba565b95989497509550505050565b7f4e487b7100000000000000000000000000000000000000000000000000000000600052603260045260246000fd5b7f4e487b7100000000000000000000000000000000000000000000000000000000600052601160045260246000fd5b808201808211156111e3576111e36111a1565b92915050565b60007fffffffffffffffffffffffffffffffffffffffffffffffffffffffffffffffff820361121a5761121a6111a1565b5060010190565b6001600160a01b03878116825260806020808401829052908301879052600091889160a08501845b8a81101561126e578361125b86611040565b1682529382019390820190600101611249565b5085810360408701528781527f07ffffffffffffffffffffffffffffffffffffffffffffffffffffffffffffff8811156112a757600080fd5b8760051b93508389838301378184820101945050505050826060830152979650505050505050565b818103818111156111e3576111e36111a1565b6000602082840312156112f457600080fd5b8151801515811461107757600080fd5b60006020828403121561131657600080fd5b5051919050565b60005b83811015611338578181015183820152602001611320565b50506000910152565b6000825161135381846020870161131d565b9190910192915050565b602081526000825180602084015261137c81604085016020870161131d565b601f017fffffffffffffffffffffffffffffffffffffffffffffffffffffffffffffffe016919091016040019291505056fea2646970667358221220ed7fd5e0793187fb551e71804b8fe144b09c3d3fb7ca109598b4a7ac149b55bd64736f6c63430008120033",
  "linkReferences": {},
  "deployedLinkReferences": {}
}