{
  "_format": "hh-sol-artifact-1",
  "contractName": "ZenithSymmioPartyB",
  "sourceName": "contracts/Solver.sol",
  "abi": [
    {
      "inputs": [],
      "stateMutability": "nonpayable",
      "type": "constructor"
    },
    {
      "anonymous": false,
      "inputs": [
        {
          "indexed": false,
          "internalType": "address",
          "name": "previousAdmin",
          "type": "address"
        },
        {
          "indexed": false,
          "internalType": "address",
          "name": "newAdmin",
          "type": "address"
        }
      ],
      "name": "AdminChanged",
      "type": "event"
    },
    {
      "anonymous": false,
      "inputs": [
        {
          "indexed": true,
          "internalType": "address",
          "name": "beacon",
          "type": "address"
        }
      ],
      "name": "BeaconUpgraded",
      "type": "event"
    },
    {
      "anonymous": false,
      "inputs": [
        {
          "indexed": false,
          "internalType": "uint8",
          "name": "version",
          "type": "uint8"
        }
      ],
      "name": "Initialized",
      "type": "event"
    },
    {
      "anonymous": false,
      "inputs": [
        {
          "indexed": false,
          "internalType": "address",
          "name": "account",
          "type": "address"
        }
      ],
      "name": "Paused",
      "type": "event"
    },
    {
      "anonymous": false,
      "inputs": [
        {
          "indexed": true,
          "internalType": "bytes32",
          "name": "role",
          "type": "bytes32"
        },
        {
          "indexed": true,
          "internalType": "bytes32",
          "name": "previousAdminRole",
          "type": "bytes32"
        },
        {
          "indexed": true,
          "internalType": "bytes32",
          "name": "newAdminRole",
          "type": "bytes32"
        }
      ],
      "name": "RoleAdminChanged",
      "type": "event"
    },
    {
      "anonymous": false,
      "inputs": [
        {
          "indexed": true,
          "internalType": "bytes32",
          "name": "role",
          "type": "bytes32"
        },
        {
          "indexed": true,
          "internalType": "address",
          "name": "account",
          "type": "address"
        },
        {
          "indexed": true,
          "internalType": "address",
          "name": "sender",
          "type": "address"
        }
      ],
      "name": "RoleGranted",
      "type": "event"
    },
    {
      "anonymous": false,
      "inputs": [
        {
          "indexed": true,
          "internalType": "bytes32",
          "name": "role",
          "type": "bytes32"
        },
        {
          "indexed": true,
          "internalType": "address",
          "name": "account",
          "type": "address"
        },
        {
          "indexed": true,
          "internalType": "address",
          "name": "sender",
          "type": "address"
        }
      ],
      "name": "RoleRevoked",
      "type": "event"
    },
    {
      "anonymous": false,
      "inputs": [
        {
          "indexed": false,
          "internalType": "address",
          "name": "addr",
          "type": "address"
        },
        {
          "indexed": false,
          "internalType": "bool",
          "name": "state",
          "type": "bool"
        }
      ],
      "name": "SetMulticastWhitelist",
      "type": "event"
    },
    {
      "anonymous": false,
      "inputs": [
        {
          "indexed": false,
          "internalType": "bytes4",
          "name": "selector",
          "type": "bytes4"
        },
        {
          "indexed": false,
          "internalType": "bool",
          "name": "state",
          "type": "bool"
        }
      ],
      "name": "SetRestrictedSelector",
      "type": "event"
    },
    {
      "anonymous": false,
      "inputs": [
        {
          "indexed": false,
          "internalType": "address",
          "name": "oldSymmioAddress",
          "type": "address"
        },
        {
          "indexed": false,
          "internalType": "address",
          "name": "newSymmioAddress",
          "type": "address"
        }
      ],
      "name": "SetSymmioAddress",
      "type": "event"
    },
    {
      "anonymous": false,
      "inputs": [
        {
          "indexed": false,
          "internalType": "address",
          "name": "account",
          "type": "address"
        }
      ],
      "name": "Unpaused",
      "type": "event"
    },
    {
      "anonymous": false,
      "inputs": [
        {
          "indexed": true,
          "internalType": "address",
          "name": "implementation",
          "type": "address"
        }
      ],
      "name": "Upgraded",
      "type": "event"
    },
    {
      "inputs": [],
      "name": "DEFAULT_ADMIN_ROLE",
      "outputs": [
        {
          "internalType": "bytes32",
          "name": "",
          "type": "bytes32"
        }
      ],
      "stateMutability": "view",
      "type": "function"
    },
    {
      "inputs": [],
      "name": "MANAGER_ROLE",
      "outputs": [
        {
          "internalType": "bytes32",
          "name": "",
          "type": "bytes32"
        }
      ],
      "stateMutability": "view",
      "type": "function"
    },
    {
      "inputs": [],
      "name": "TRUSTED_ROLE",
      "outputs": [
        {
          "internalType": "bytes32",
          "name": "",
          "type": "bytes32"
        }
      ],
      "stateMutability": "view",
      "type": "function"
    },
    {
      "inputs": [
        {
          "internalType": "address",
          "name": "token",
          "type": "address"
        },
        {
          "internalType": "uint256",
          "name": "amount",
          "type": "uint256"
        }
      ],
      "name": "_approve",
      "outputs": [],
      "stateMutability": "nonpayable",
      "type": "function"
    },
    {
      "inputs": [
        {
          "internalType": "bytes[]",
          "name": "_callDatas",
          "type": "bytes[]"
        }
      ],
      "name": "_call",
      "outputs": [],
      "stateMutability": "nonpayable",
      "type": "function"
    },
    {
      "inputs": [
        {
          "internalType": "address[]",
          "name": "destAddresses",
          "type": "address[]"
        },
        {
          "internalType": "bytes[]",
          "name": "_callDatas",
          "type": "bytes[]"
        }
      ],
      "name": "_multicastCall",
      "outputs": [],
      "stateMutability": "nonpayable",
      "type": "function"
    },
    {
      "inputs": [
        {
          "internalType": "bytes32",
          "name": "role",
          "type": "bytes32"
        }
      ],
      "name": "getRoleAdmin",
      "outputs": [
        {
          "internalType": "bytes32",
          "name": "",
          "type": "bytes32"
        }
      ],
      "stateMutability": "view",
      "type": "function"
    },
    {
      "inputs": [
        {
          "internalType": "bytes32",
          "name": "role",
          "type": "bytes32"
        },
        {
          "internalType": "address",
          "name": "account",
          "type": "address"
        }
      ],
      "name": "grantRole",
      "outputs": [],
      "stateMutability": "nonpayable",
      "type": "function"
    },
    {
      "inputs": [
        {
          "internalType": "address",
          "name": "addr",
          "type": "address"
        }
      ],
      "name": "grantTrustedRole",
      "outputs": [],
      "stateMutability": "nonpayable",
      "type": "function"
    },
    {
      "inputs": [
        {
          "internalType": "bytes32",
          "name": "role",
          "type": "bytes32"
        },
        {
          "internalType": "address",
          "name": "account",
          "type": "address"
        }
      ],
      "name": "hasRole",
      "outputs": [
        {
          "internalType": "bool",
          "name": "",
          "type": "bool"
        }
      ],
      "stateMutability": "view",
      "type": "function"
    },
    {
      "inputs": [
        {
          "internalType": "address",
          "name": "admin",
          "type": "address"
        },
        {
          "internalType": "address[]",
          "name": "managers",
          "type": "address[]"
        },
        {
          "internalType": "address[]",
          "name": "trusted",
          "type": "address[]"
        },
        {
          "internalType": "address",
          "name": "withdrawalAddress_",
          "type": "address"
        },
        {
          "internalType": "address",
          "name": "ledgerMultiSigWithdrawalAddress_",
          "type": "address"
        },
        {
          "internalType": "address",
          "name": "symmioAddress_",
          "type": "address"
        }
      ],
      "name": "initialize",
      "outputs": [],
      "stateMutability": "nonpayable",
      "type": "function"
    },
    {
      "inputs": [
        {
          "internalType": "address",
          "name": "",
          "type": "address"
        }
      ],
      "name": "multicastWhitelist",
      "outputs": [
        {
          "internalType": "bool",
          "name": "",
          "type": "bool"
        }
      ],
      "stateMutability": "view",
      "type": "function"
    },
    {
      "inputs": [],
      "name": "pause",
      "outputs": [],
      "stateMutability": "nonpayable",
      "type": "function"
    },
    {
      "inputs": [],
      "name": "paused",
      "outputs": [
        {
          "internalType": "bool",
          "name": "",
          "type": "bool"
        }
      ],
      "stateMutability": "view",
      "type": "function"
    },
    {
      "inputs": [],
      "name": "proxiableUUID",
      "outputs": [
        {
          "internalType": "bytes32",
          "name": "",
          "type": "bytes32"
        }
      ],
      "stateMutability": "view",
      "type": "function"
    },
    {
      "inputs": [
        {
          "internalType": "bytes32",
          "name": "role",
          "type": "bytes32"
        },
        {
          "internalType": "address",
          "name": "account",
          "type": "address"
        }
      ],
      "name": "renounceRole",
      "outputs": [],
      "stateMutability": "nonpayable",
      "type": "function"
    },
    {
      "inputs": [
        {
          "internalType": "bytes4",
          "name": "",
          "type": "bytes4"
        }
      ],
      "name": "restrictedSelectors",
      "outputs": [
        {
          "internalType": "bool",
          "name": "",
          "type": "bool"
        }
      ],
      "stateMutability": "view",
      "type": "function"
    },
    {
      "inputs": [
        {
          "internalType": "bytes32",
          "name": "role",
          "type": "bytes32"
        },
        {
          "internalType": "address",
          "name": "account",
          "type": "address"
        }
      ],
      "name": "revokeRole",
      "outputs": [],
      "stateMutability": "nonpayable",
      "type": "function"
    },
    {
      "inputs": [
        {
          "internalType": "address",
          "name": "addr",
          "type": "address"
        },
        {
          "internalType": "bool",
          "name": "state",
          "type": "bool"
        }
      ],
      "name": "setMulticastWhitelist",
      "outputs": [],
      "stateMutability": "nonpayable",
      "type": "function"
    },
    {
      "inputs": [
        {
          "internalType": "bytes4",
          "name": "selector",
          "type": "bytes4"
        },
        {
          "internalType": "bool",
          "name": "state",
          "type": "bool"
        }
      ],
      "name": "setRestrictedSelector",
      "outputs": [],
      "stateMutability": "nonpayable",
      "type": "function"
    },
    {
      "inputs": [
        {
          "internalType": "address",
          "name": "addr",
          "type": "address"
        }
      ],
      "name": "setSymmioAddress",
      "outputs": [],
      "stateMutability": "nonpayable",
      "type": "function"
    },
    {
      "inputs": [
        {
          "internalType": "bytes4",
          "name": "interfaceId",
          "type": "bytes4"
        }
      ],
      "name": "supportsInterface",
      "outputs": [
        {
          "internalType": "bool",
          "name": "",
          "type": "bool"
        }
      ],
      "stateMutability": "view",
      "type": "function"
    },
    {
      "inputs": [],
      "name": "symmioAddress",
      "outputs": [
        {
          "internalType": "address",
          "name": "",
          "type": "address"
        }
      ],
      "stateMutability": "view",
      "type": "function"
    },
    {
      "inputs": [],
      "name": "unpause",
      "outputs": [],
      "stateMutability": "nonpayable",
      "type": "function"
    },
    {
      "inputs": [
        {
          "internalType": "address",
          "name": "newImplementation",
          "type": "address"
        }
      ],
      "name": "upgradeTo",
      "outputs": [],
      "stateMutability": "nonpayable",
      "type": "function"
    },
    {
      "inputs": [
        {
          "internalType": "address",
          "name": "newImplementation",
          "type": "address"
        },
        {
          "internalType": "bytes",
          "name": "data",
          "type": "bytes"
        }
      ],
      "name": "upgradeToAndCall",
      "outputs": [],
      "stateMutability": "payable",
      "type": "function"
    },
    {
      "inputs": [
        {
          "internalType": "address",
          "name": "targetAddress",
          "type": "address"
        },
        {
          "internalType": "address",
          "name": "token",
          "type": "address"
        },
        {
          "internalType": "uint256",
          "name": "amount",
          "type": "uint256"
        }
      ],
      "name": "withdrawERC20",
      "outputs": [],
      "stateMutability": "nonpayable",
      "type": "function"
    }
  ],
  "bytecode": "0x60a0604052306080523480156200001557600080fd5b506200002062000026565b620000e7565b600054610100900460ff1615620000935760405162461bcd60e51b815260206004820152602760248201527f496e697469616c697a61626c653a20636f6e747261637420697320696e697469604482015266616c697a696e6760c81b606482015260840160405180910390fd5b60005460ff90811614620000e5576000805460ff191660ff9081179091556040519081527f7f26b83ff96e1f2b6a682f133852f6798a09c465da95921460cefb38474024989060200160405180910390a15b565b6080516129e46200011f6000396000818161078e0152818161082401528181610b0201528181610b980152610c8f01526129e46000f3fe6080604052600436106101ab5760003560e01c80636b18d182116100ec57806391d148541161008a578063d547741f11610064578063d547741f146104e8578063ec87621c14610508578063edddc2731461053c578063f504fd591461056d57600080fd5b806391d148541461046d578063a217fddf146104b3578063ca9d9c9d146104c857600080fd5b80637b7d7225116100c65780637b7d7225146103f857806383aba1d3146104185780638456cb591461043857806388ef77be1461044d57600080fd5b80636b18d1821461037f578063717bb2621461039f5780637278b28f146103bf57600080fd5b80633659cfe6116101595780634f1ef286116101335780634f1ef2861461030b57806352d1902d1461031e5780635901692e146103335780635c975abb1461036757600080fd5b80633659cfe6146102b65780633f4ba83a146102d657806344004cc1146102eb57600080fd5b8063248a9ca31161018a578063248a9ca3146102385780632f2ff15d1461027657806336568abe1461029657600080fd5b8062fbc355146101b057806301569e3a146101f657806301ffc9a714610218575b600080fd5b3480156101bc57600080fd5b506101e16101cb3660046122c9565b6101326020526000908152604090205460ff1681565b60405190151581526020015b60405180910390f35b34801561020257600080fd5b506102166102113660046122c9565b61058d565b005b34801561022457600080fd5b506101e1610233366004612314565b610630565b34801561024457600080fd5b5061026861025336600461232f565b600090815260c9602052604090206001015490565b6040519081526020016101ed565b34801561028257600080fd5b50610216610291366004612348565b6106c9565b3480156102a257600080fd5b506102166102b1366004612348565b6106f3565b3480156102c257600080fd5b506102166102d13660046122c9565b610784565b3480156102e257600080fd5b50610216610921565b3480156102f757600080fd5b50610216610306366004612374565b610953565b6102166103193660046123f7565b610af8565b34801561032a57600080fd5b50610268610c82565b34801561033f57600080fd5b506102687f2de84d9fbdf6d06e2cc584295043dbd76046423b9f8bae9426d4fa5e7c03f4a781565b34801561037357600080fd5b5060fb5460ff166101e1565b34801561038b57600080fd5b5061021661039a366004612524565b610d47565b3480156103ab57600080fd5b506102166103ba3660046125d7565b610fd1565b3480156103cb57600080fd5b5061012d546103e0906001600160a01b031681565b6040516001600160a01b0390911681526020016101ed565b34801561040457600080fd5b5061021661041336600461260e565b6110b9565b34801561042457600080fd5b50610216610433366004612638565b6111c8565b34801561044457600080fd5b50610216611268565b34801561045957600080fd5b506102166104683660046122c9565b61129a565b34801561047957600080fd5b506101e1610488366004612348565b600091825260c9602090815260408084206001600160a01b0393909316845291905290205460ff1690565b3480156104bf57600080fd5b50610268600081565b3480156104d457600080fd5b506102166104e33660046126a0565b6112ee565b3480156104f457600080fd5b50610216610503366004612348565b611388565b34801561051457600080fd5b506102687f241ecf16d79d0f8dbfb92cbc07fe17840425976cf0667f022fe9877caa831b0881565b34801561054857600080fd5b506101e1610557366004612314565b6101316020526000908152604090205460ff1681565b34801561057957600080fd5b506102166105883660046126e2565b6113ad565b7f241ecf16d79d0f8dbfb92cbc07fe17840425976cf0667f022fe9877caa831b086105b781611493565b61012d54604080516001600160a01b03928316815291841660208301527ff78ccdf5924090b2ab6627ac5da4ec5affed73d47c6bc6c8a4620a0d5ed57bc8910160405180910390a15061012d805473ffffffffffffffffffffffffffffffffffffffff19166001600160a01b0392909216919091179055565b60007fffffffff0000000000000000000000000000000000000000000000000000000082167f7965db0b0000000000000000000000000000000000000000000000000000000014806106c357507f01ffc9a7000000000000000000000000000000000000000000000000000000007fffffffff000000000000000000000000000000000000000000000000000000008316145b92915050565b600082815260c960205260409020600101546106e481611493565b6106ee838361149d565b505050565b6001600160a01b03811633146107765760405162461bcd60e51b815260206004820152602f60248201527f416363657373436f6e74726f6c3a2063616e206f6e6c792072656e6f756e636560448201527f20726f6c657320666f722073656c66000000000000000000000000000000000060648201526084015b60405180910390fd5b610780828261153f565b5050565b6001600160a01b037f00000000000000000000000000000000000000000000000000000000000000001630036108225760405162461bcd60e51b815260206004820152602c60248201527f46756e6374696f6e206d7573742062652063616c6c6564207468726f7567682060448201527f64656c656761746563616c6c0000000000000000000000000000000000000000606482015260840161076d565b7f00000000000000000000000000000000000000000000000000000000000000006001600160a01b031661087d7f360894a13ba1a3210667c828492db98dca3e2076cc3735a920a3ca505d382bbc546001600160a01b031690565b6001600160a01b0316146108f95760405162461bcd60e51b815260206004820152602c60248201527f46756e6374696f6e206d7573742062652063616c6c6564207468726f7567682060448201527f6163746976652070726f78790000000000000000000000000000000000000000606482015260840161076d565b610902816115c2565b6040805160008082526020820190925261091e918391906115cd565b50565b7f241ecf16d79d0f8dbfb92cbc07fe17840425976cf0667f022fe9877caa831b0861094b81611493565b61091e61176d565b7f241ecf16d79d0f8dbfb92cbc07fe17840425976cf0667f022fe9877caa831b0861097d81611493565b61012e546001600160a01b03858116911614806109a8575061012f546001600160a01b038581169116145b610a1a5760405162461bcd60e51b815260206004820152602260248201527f496e76616c696420746172676574207769746864726177616c2041646472657360448201527f7321000000000000000000000000000000000000000000000000000000000000606482015260840161076d565b6040517fa9059cbb0000000000000000000000000000000000000000000000000000000081526001600160a01b0385811660048301526024820184905284169063a9059cbb906044016020604051808303816000875af1158015610a82573d6000803e3d6000fd5b505050506040513d601f19601f82011682018060405250810190610aa6919061274e565b610af25760405162461bcd60e51b815260206004820152601d60248201527f53796d6d696f5061727479423a204e6f74207472616e73666572726564000000604482015260640161076d565b50505050565b6001600160a01b037f0000000000000000000000000000000000000000000000000000000000000000163003610b965760405162461bcd60e51b815260206004820152602c60248201527f46756e6374696f6e206d7573742062652063616c6c6564207468726f7567682060448201527f64656c656761746563616c6c0000000000000000000000000000000000000000606482015260840161076d565b7f00000000000000000000000000000000000000000000000000000000000000006001600160a01b0316610bf17f360894a13ba1a3210667c828492db98dca3e2076cc3735a920a3ca505d382bbc546001600160a01b031690565b6001600160a01b031614610c6d5760405162461bcd60e51b815260206004820152602c60248201527f46756e6374696f6e206d7573742062652063616c6c6564207468726f7567682060448201527f6163746976652070726f78790000000000000000000000000000000000000000606482015260840161076d565b610c76826115c2565b610780828260016115cd565b6000306001600160a01b037f00000000000000000000000000000000000000000000000000000000000000001614610d225760405162461bcd60e51b815260206004820152603860248201527f555550535570677261646561626c653a206d757374206e6f742062652063616c60448201527f6c6564207468726f7567682064656c656761746563616c6c0000000000000000606482015260840161076d565b507f360894a13ba1a3210667c828492db98dca3e2076cc3735a920a3ca505d382bbc90565b600054610100900460ff1615808015610d675750600054600160ff909116105b80610d815750303b158015610d81575060005460ff166001145b610df35760405162461bcd60e51b815260206004820152602e60248201527f496e697469616c697a61626c653a20636f6e747261637420697320616c72656160448201527f647920696e697469616c697a6564000000000000000000000000000000000000606482015260840161076d565b6000805460ff191660011790558015610e16576000805461ff0019166101001790555b610e1e6117bf565b610e2661183e565b610e2e6117bf565b61012d80546001600160a01b0380851673ffffffffffffffffffffffffffffffffffffffff199283161790925561012e805487841690831617905561012f805492861692909116919091179055610e8660008861149d565b60005b86518160ff161015610f2657610edb7f2de84d9fbdf6d06e2cc584295043dbd76046423b9f8bae9426d4fa5e7c03f4a7888360ff1681518110610ece57610ece61276b565b602002602001015161149d565b610f147f241ecf16d79d0f8dbfb92cbc07fe17840425976cf0667f022fe9877caa831b08888360ff1681518110610ece57610ece61276b565b80610f1e81612797565b915050610e89565b5060005b85518160ff161015610f8157610f6f7f2de84d9fbdf6d06e2cc584295043dbd76046423b9f8bae9426d4fa5e7c03f4a7878360ff1681518110610ece57610ece61276b565b80610f7981612797565b915050610f2a565b508015610fc8576000805461ff0019169055604051600181527f7f26b83ff96e1f2b6a682f133852f6798a09c465da95921460cefb38474024989060200160405180910390a15b50505050505050565b7f241ecf16d79d0f8dbfb92cbc07fe17840425976cf0667f022fe9877caa831b08610ffb81611493565b306001600160a01b038416036110535760405162461bcd60e51b815260206004820152601d60248201527f53796d6d696f5061727479423a20496e76616c69642061646472657373000000604482015260640161076d565b6001600160a01b03831660008181526101326020908152604091829020805460ff19168615159081179091558251938452908301527ff776d871534c4177eb3ea09ad170db249e5c7057ff18ddf26992d18459a904b191015b60405180910390a1505050565b7f2de84d9fbdf6d06e2cc584295043dbd76046423b9f8bae9426d4fa5e7c03f4a76110e381611493565b6110eb6118c3565b61012d546040517f095ea7b30000000000000000000000000000000000000000000000000000000081526001600160a01b039182166004820152602481018490529084169063095ea7b3906044016020604051808303816000875af1158015611158573d6000803e3d6000fd5b505050506040513d601f19601f8201168201806040525081019061117c919061274e565b6106ee5760405162461bcd60e51b815260206004820152601a60248201527f53796d6d696f5061727479423a204e6f7420617070726f766564000000000000604482015260640161076d565b7f241ecf16d79d0f8dbfb92cbc07fe17840425976cf0667f022fe9877caa831b086111f281611493565b7fffffffff00000000000000000000000000000000000000000000000000000000831660008181526101316020908152604091829020805460ff19168615159081179091558251938452908301527f3b438b04c48041000349f30457a15358332ec96233735f9bc289621aa82fb77591016110ac565b7f241ecf16d79d0f8dbfb92cbc07fe17840425976cf0667f022fe9877caa831b0861129281611493565b61091e611916565b7f241ecf16d79d0f8dbfb92cbc07fe17840425976cf0667f022fe9877caa831b086112c481611493565b6107807f2de84d9fbdf6d06e2cc584295043dbd76046423b9f8bae9426d4fa5e7c03f4a78361149d565b6112f66118c3565b60005b60ff81168211156106ee5761012d54611376906001600160a01b0316848460ff851681811061132a5761132a61276b565b905060200281019061133c91906127b6565b8080601f01602080910402602001604051908101604052809392919081815260200183838082843760009201919091525061195392505050565b8061138081612797565b9150506112f9565b600082815260c960205260409020600101546113a381611493565b6106ee838361153f565b6113b56118c3565b82811461142a5760405162461bcd60e51b815260206004820152602360248201527f53796d6d696f5061727479423a204172726179206c656e677468206d69736d6160448201527f7463680000000000000000000000000000000000000000000000000000000000606482015260840161076d565b60005b60ff811682111561148c5761147a85858360ff168181106114505761145061276b565b905060200201602081019061146591906122c9565b84848460ff1681811061132a5761132a61276b565b8061148481612797565b91505061142d565b5050505050565b61091e8133611ca8565b600082815260c9602090815260408083206001600160a01b038516845290915290205460ff1661078057600082815260c9602090815260408083206001600160a01b03851684529091529020805460ff191660011790556114fb3390565b6001600160a01b0316816001600160a01b0316837f2f8788117e7eff1d82e926ec794901d17c78024a50270940304540a733656f0d60405160405180910390a45050565b600082815260c9602090815260408083206001600160a01b038516845290915290205460ff161561078057600082815260c9602090815260408083206001600160a01b0385168085529252808320805460ff1916905551339285917ff6391f5c32d9c69d2a47ea670b442974b53935d1edc7fd64eb21e047a839171b9190a45050565b600061078081611493565b7f4910fdfa16fed3260ed0e7147f7cc6da11a60208b5b9406d12a635614ffd91435460ff1615611600576106ee83611d1d565b826001600160a01b03166352d1902d6040518163ffffffff1660e01b8152600401602060405180830381865afa92505050801561165a575060408051601f3d908101601f191682019092526116579181019061281b565b60015b6116cc5760405162461bcd60e51b815260206004820152602e60248201527f45524331393637557067726164653a206e657720696d706c656d656e7461746960448201527f6f6e206973206e6f742055555053000000000000000000000000000000000000606482015260840161076d565b7f360894a13ba1a3210667c828492db98dca3e2076cc3735a920a3ca505d382bbc81146117615760405162461bcd60e51b815260206004820152602960248201527f45524331393637557067726164653a20756e737570706f727465642070726f7860448201527f6961626c65555549440000000000000000000000000000000000000000000000606482015260840161076d565b506106ee838383611de8565b611775611e0d565b60fb805460ff191690557f5db9ee0a495bf2e6ff9c91a7834c1ba4fdd244a5e8aa4e537bd38aeae4b073aa335b6040516001600160a01b03909116815260200160405180910390a1565b600054610100900460ff1661183c5760405162461bcd60e51b815260206004820152602b60248201527f496e697469616c697a61626c653a20636f6e7472616374206973206e6f74206960448201527f6e697469616c697a696e67000000000000000000000000000000000000000000606482015260840161076d565b565b600054610100900460ff166118bb5760405162461bcd60e51b815260206004820152602b60248201527f496e697469616c697a61626c653a20636f6e7472616374206973206e6f74206960448201527f6e697469616c697a696e67000000000000000000000000000000000000000000606482015260840161076d565b61183c611e5f565b60fb5460ff161561183c5760405162461bcd60e51b815260206004820152601060248201527f5061757361626c653a2070617573656400000000000000000000000000000000604482015260640161076d565b61191e6118c3565b60fb805460ff191660011790557f62e78cea01bee320cd4e420270b5ea74000d11b0c9f74754ebdbfc544b05a2586117a23390565b6001600160a01b0382166119a95760405162461bcd60e51b815260206004820152601d60248201527f53796d6d696f5061727479423a20496e76616c69642061646472657373000000604482015260640161076d565b6004815110156119fb5760405162461bcd60e51b815260206004820152601f60248201527f53796d6d696f5061727479423a20496e76616c69642063616c6c206461746100604482015260640161076d565b61012d546001600160a01b0390811690831603611b40576020818101517fffffffff000000000000000000000000000000000000000000000000000000008116600090815261013190925260409091205460ff1615611a8357611a7e7f241ecf16d79d0f8dbfb92cbc07fe17840425976cf0667f022fe9877caa831b0833611ca8565b611b3a565b3360009081527ff5f43b48833b613af61a2aa61573d51591ce86ef304bb6e01e9115b2a39191de602052604090205460ff1680611aee57503360009081527f0eb0036da60f345ca868f77afd76c8c85a78b433ed7c398634576f508c0f7c40602052604090205460ff165b611b3a5760405162461bcd60e51b815260206004820152601c60248201527f53796d6d696f5061727479423a20496e76616c69642061636365737300000000604482015260640161076d565b50611bf9565b6001600160a01b0382166000908152610132602052604090205460ff16611bcf5760405162461bcd60e51b815260206004820152603460248201527f53796d6d696f5061727479423a2044657374696e6174696f6e2061646472657360448201527f73206973206e6f742077686974656c6973746564000000000000000000000000606482015260840161076d565b611bf97f2de84d9fbdf6d06e2cc584295043dbd76046423b9f8bae9426d4fa5e7c03f4a733611ca8565b6000826001600160a01b0316600083604051611c159190612858565b60006040518083038185875af1925050503d8060008114611c52576040519150601f19603f3d011682016040523d82523d6000602084013e611c57565b606091505b50509050806106ee5760405162461bcd60e51b815260206004820181905260248201527f53796d6d696f5061727479423a20457865637574696f6e207265766572746564604482015260640161076d565b600082815260c9602090815260408083206001600160a01b038516845290915290205460ff1661078057611cdb81611ee8565b611ce6836020611efa565b604051602001611cf7929190612874565b60408051601f198184030181529082905262461bcd60e51b825261076d916004016128f5565b6001600160a01b0381163b611d9a5760405162461bcd60e51b815260206004820152602d60248201527f455243313936373a206e657720696d706c656d656e746174696f6e206973206e60448201527f6f74206120636f6e747261637400000000000000000000000000000000000000606482015260840161076d565b7f360894a13ba1a3210667c828492db98dca3e2076cc3735a920a3ca505d382bbc805473ffffffffffffffffffffffffffffffffffffffff19166001600160a01b0392909216919091179055565b611df18361212a565b600082511180611dfe5750805b156106ee57610af2838361216a565b60fb5460ff1661183c5760405162461bcd60e51b815260206004820152601460248201527f5061757361626c653a206e6f7420706175736564000000000000000000000000604482015260640161076d565b600054610100900460ff16611edc5760405162461bcd60e51b815260206004820152602b60248201527f496e697469616c697a61626c653a20636f6e7472616374206973206e6f74206960448201527f6e697469616c697a696e67000000000000000000000000000000000000000000606482015260840161076d565b60fb805460ff19169055565b60606106c36001600160a01b03831660145b60606000611f09836002612928565b611f1490600261293f565b67ffffffffffffffff811115611f2c57611f2c6123b0565b6040519080825280601f01601f191660200182016040528015611f56576020820181803683370190505b5090507f300000000000000000000000000000000000000000000000000000000000000081600081518110611f8d57611f8d61276b565b60200101907effffffffffffffffffffffffffffffffffffffffffffffffffffffffffffff1916908160001a9053507f780000000000000000000000000000000000000000000000000000000000000081600181518110611ff057611ff061276b565b60200101907effffffffffffffffffffffffffffffffffffffffffffffffffffffffffffff1916908160001a905350600061202c846002612928565b61203790600161293f565b90505b60018111156120d4577f303132333435363738396162636465660000000000000000000000000000000085600f16601081106120785761207861276b565b1a60f81b82828151811061208e5761208e61276b565b60200101907effffffffffffffffffffffffffffffffffffffffffffffffffffffffffffff1916908160001a90535060049490941c936120cd81612952565b905061203a565b5083156121235760405162461bcd60e51b815260206004820181905260248201527f537472696e67733a20686578206c656e67746820696e73756666696369656e74604482015260640161076d565b9392505050565b61213381611d1d565b6040516001600160a01b038216907fbc7cd75a20ee27fd9adebab32041f755214dbc6bffa90cc0225b39da2e5c2d3b90600090a250565b60606121238383604051806060016040528060278152602001612988602791396060600080856001600160a01b0316856040516121a79190612858565b600060405180830381855af49150503d80600081146121e2576040519150601f19603f3d011682016040523d82523d6000602084013e6121e7565b606091505b50915091506121f886838387612202565b9695505050505050565b6060831561227157825160000361226a576001600160a01b0385163b61226a5760405162461bcd60e51b815260206004820152601d60248201527f416464726573733a2063616c6c20746f206e6f6e2d636f6e7472616374000000604482015260640161076d565b508161227b565b61227b8383612283565b949350505050565b8151156122935781518083602001fd5b8060405162461bcd60e51b815260040161076d91906128f5565b80356001600160a01b03811681146122c457600080fd5b919050565b6000602082840312156122db57600080fd5b612123826122ad565b80357fffffffff00000000000000000000000000000000000000000000000000000000811681146122c457600080fd5b60006020828403121561232657600080fd5b612123826122e4565b60006020828403121561234157600080fd5b5035919050565b6000806040838503121561235b57600080fd5b8235915061236b602084016122ad565b90509250929050565b60008060006060848603121561238957600080fd5b612392846122ad565b92506123a0602085016122ad565b9150604084013590509250925092565b634e487b7160e01b600052604160045260246000fd5b604051601f8201601f1916810167ffffffffffffffff811182821017156123ef576123ef6123b0565b604052919050565b6000806040838503121561240a57600080fd5b612413836122ad565b915060208084013567ffffffffffffffff8082111561243157600080fd5b818601915086601f83011261244557600080fd5b813581811115612457576124576123b0565b61246984601f19601f840116016123c6565b9150808252878482850101111561247f57600080fd5b80848401858401376000848284010152508093505050509250929050565b600082601f8301126124ae57600080fd5b8135602067ffffffffffffffff8211156124ca576124ca6123b0565b8160051b6124d98282016123c6565b92835284810182019282810190878511156124f357600080fd5b83870192505b848310156125195761250a836122ad565b825291830191908301906124f9565b979650505050505050565b60008060008060008060c0878903121561253d57600080fd5b612546876122ad565b9550602087013567ffffffffffffffff8082111561256357600080fd5b61256f8a838b0161249d565b9650604089013591508082111561258557600080fd5b5061259289828a0161249d565b9450506125a1606088016122ad565b92506125af608088016122ad565b91506125bd60a088016122ad565b90509295509295509295565b801515811461091e57600080fd5b600080604083850312156125ea57600080fd5b6125f3836122ad565b91506020830135612603816125c9565b809150509250929050565b6000806040838503121561262157600080fd5b61262a836122ad565b946020939093013593505050565b6000806040838503121561264b57600080fd5b6125f3836122e4565b60008083601f84011261266657600080fd5b50813567ffffffffffffffff81111561267e57600080fd5b6020830191508360208260051b850101111561269957600080fd5b9250929050565b600080602083850312156126b357600080fd5b823567ffffffffffffffff8111156126ca57600080fd5b6126d685828601612654565b90969095509350505050565b600080600080604085870312156126f857600080fd5b843567ffffffffffffffff8082111561271057600080fd5b61271c88838901612654565b9096509450602087013591508082111561273557600080fd5b5061274287828801612654565b95989497509550505050565b60006020828403121561276057600080fd5b8151612123816125c9565b634e487b7160e01b600052603260045260246000fd5b634e487b7160e01b600052601160045260246000fd5b600060ff821660ff81036127ad576127ad612781565b60010192915050565b60008083357fffffffffffffffffffffffffffffffffffffffffffffffffffffffffffffffe18436030181126127eb57600080fd5b83018035915067ffffffffffffffff82111561280657600080fd5b60200191503681900382131561269957600080fd5b60006020828403121561282d57600080fd5b5051919050565b60005b8381101561284f578181015183820152602001612837565b50506000910152565b6000825161286a818460208701612834565b9190910192915050565b7f416363657373436f6e74726f6c3a206163636f756e74200000000000000000008152600083516128ac816017850160208801612834565b7f206973206d697373696e6720726f6c652000000000000000000000000000000060179184019182015283516128e9816028840160208801612834565b01602801949350505050565b6020815260008251806020840152612914816040850160208701612834565b601f01601f19169190910160400192915050565b80820281158282048414176106c3576106c3612781565b808201808211156106c3576106c3612781565b60008161296157612961612781565b507fffffffffffffffffffffffffffffffffffffffffffffffffffffffffffffffff019056fe416464726573733a206c6f772d6c6576656c2064656c65676174652063616c6c206661696c6564a26469706673582212206cd800276bc57339440d9910ce07b6cbea3664f62de98d4ef6e0146397a86fc364736f6c63430008120033",
  "linkReferences": {},
  "deployedLinkReferences": {}
}