{
  "_format": "hh-sol-artifact-1",
  "contractName": "IntxUpgradeable",
  "sourceName": "contracts/IntxUpgradeable.sol",
  "abi": [
    {
      "inputs": [],
      "stateMutability": "nonpayable",
      "type": "constructor"
    },
    {
      "anonymous": false,
      "inputs": [
        {
          "indexed": true,
          "internalType": "address",
          "name": "owner",
          "type": "address"
        },
        {
          "indexed": true,
          "internalType": "address",
          "name": "spender",
          "type": "address"
        },
        {
          "indexed": false,
          "internalType": "uint256",
          "name": "value",
          "type": "uint256"
        }
      ],
      "name": "Approval",
      "type": "event"
    },
    {
      "anonymous": false,
      "inputs": [
        {
          "indexed": false,
          "internalType": "uint8",
          "name": "version",
          "type": "uint8"
        }
      ],
      "name": "Initialized",
      "type": "event"
    },
    {
      "anonymous": false,
      "inputs": [
        {
          "indexed": true,
          "internalType": "address",
          "name": "from",
          "type": "address"
        },
        {
          "indexed": true,
          "internalType": "address",
          "name": "to",
          "type": "address"
        },
        {
          "indexed": false,
          "internalType": "uint256",
          "name": "value",
          "type": "uint256"
        }
      ],
      "name": "Transfer",
      "type": "event"
    },
    {
      "inputs": [
        {
          "internalType": "address",
          "name": "owner",
          "type": "address"
        },
        {
          "internalType": "address",
          "name": "spender",
          "type": "address"
        }
      ],
      "name": "allowance",
      "outputs": [
        {
          "internalType": "uint256",
          "name": "",
          "type": "uint256"
        }
      ],
      "stateMutability": "view",
      "type": "function"
    },
    {
      "inputs": [
        {
          "internalType": "address",
          "name": "spender",
          "type": "address"
        },
        {
          "internalType": "uint256",
          "name": "amount",
          "type": "uint256"
        }
      ],
      "name": "approve",
      "outputs": [
        {
          "internalType": "bool",
          "name": "",
          "type": "bool"
        }
      ],
      "stateMutability": "nonpayable",
      "type": "function"
    },
    {
      "inputs": [
        {
          "internalType": "address",
          "name": "account",
          "type": "address"
        }
      ],
      "name": "balanceOf",
      "outputs": [
        {
          "internalType": "uint256",
          "name": "",
          "type": "uint256"
        }
      ],
      "stateMutability": "view",
      "type": "function"
    },
    {
      "inputs": [],
      "name": "decimals",
      "outputs": [
        {
          "internalType": "uint8",
          "name": "",
          "type": "uint8"
        }
      ],
      "stateMutability": "view",
      "type": "function"
    },
    {
      "inputs": [
        {
          "internalType": "address",
          "name": "spender",
          "type": "address"
        },
        {
          "internalType": "uint256",
          "name": "subtractedValue",
          "type": "uint256"
        }
      ],
      "name": "decreaseAllowance",
      "outputs": [
        {
          "internalType": "bool",
          "name": "",
          "type": "bool"
        }
      ],
      "stateMutability": "nonpayable",
      "type": "function"
    },
    {
      "inputs": [
        {
          "internalType": "address",
          "name": "spender",
          "type": "address"
        },
        {
          "internalType": "uint256",
          "name": "addedValue",
          "type": "uint256"
        }
      ],
      "name": "increaseAllowance",
      "outputs": [
        {
          "internalType": "bool",
          "name": "",
          "type": "bool"
        }
      ],
      "stateMutability": "nonpayable",
      "type": "function"
    },
    {
      "inputs": [],
      "name": "initialize",
      "outputs": [],
      "stateMutability": "nonpayable",
      "type": "function"
    },
    {
      "inputs": [],
      "name": "name",
      "outputs": [
        {
          "internalType": "string",
          "name": "",
          "type": "string"
        }
      ],
      "stateMutability": "view",
      "type": "function"
    },
    {
      "inputs": [],
      "name": "symbol",
      "outputs": [
        {
          "internalType": "string",
          "name": "",
          "type": "string"
        }
      ],
      "stateMutability": "view",
      "type": "function"
    },
    {
      "inputs": [],
      "name": "totalSupply",
      "outputs": [
        {
          "internalType": "uint256",
          "name": "",
          "type": "uint256"
        }
      ],
      "stateMutability": "view",
      "type": "function"
    },
    {
      "inputs": [
        {
          "internalType": "address",
          "name": "to",
          "type": "address"
        },
        {
          "internalType": "uint256",
          "name": "amount",
          "type": "uint256"
        }
      ],
      "name": "transfer",
      "outputs": [
        {
          "internalType": "bool",
          "name": "",
          "type": "bool"
        }
      ],
      "stateMutability": "nonpayable",
      "type": "function"
    },
    {
      "inputs": [
        {
          "internalType": "address",
          "name": "from",
          "type": "address"
        },
        {
          "internalType": "address",
          "name": "to",
          "type": "address"
        },
        {
          "internalType": "uint256",
          "name": "amount",
          "type": "uint256"
        }
      ],
      "name": "transferFrom",
      "outputs": [
        {
          "internalType": "bool",
          "name": "",
          "type": "bool"
        }
      ],
      "stateMutability": "nonpayable",
      "type": "function"
    }
  ],
  "bytecode": "0x608060405234801561001057600080fd5b5061001961001e565b6100dd565b600054610100900460ff161561008a5760405162461bcd60e51b815260206004820152602760248201527f496e697469616c697a61626c653a20636f6e747261637420697320696e697469604482015266616c697a696e6760c81b606482015260840160405180910390fd5b60005460ff908116146100db576000805460ff191660ff9081179091556040519081527f7f26b83ff96e1f2b6a682f133852f6798a09c465da95921460cefb38474024989060200160405180910390a15b565b610f54806100ec6000396000f3fe608060405234801561001057600080fd5b50600436106100d45760003560e01c806370a0823111610081578063a457c2d71161005b578063a457c2d71461019c578063a9059cbb146101af578063dd62ed3e146101c257600080fd5b806370a08231146101615780638129fc1c1461018a57806395d89b411461019457600080fd5b806323b872dd116100b257806323b872dd1461012c578063313ce5671461013f578063395093511461014e57600080fd5b806306fdde03146100d9578063095ea7b3146100f757806318160ddd1461011a575b600080fd5b6100e16101fb565b6040516100ee9190610b68565b60405180910390f35b61010a610105366004610bd2565b61028d565b60405190151581526020016100ee565b6035545b6040519081526020016100ee565b61010a61013a366004610bfc565b6102a7565b604051601281526020016100ee565b61010a61015c366004610bd2565b6102cb565b61011e61016f366004610c38565b6001600160a01b031660009081526033602052604090205490565b61019261030a565b005b6100e16104dc565b61010a6101aa366004610bd2565b6104eb565b61010a6101bd366004610bd2565b610595565b61011e6101d0366004610c5a565b6001600160a01b03918216600090815260346020908152604080832093909416825291909152205490565b60606036805461020a90610c8d565b80601f016020809104026020016040519081016040528092919081815260200182805461023690610c8d565b80156102835780601f1061025857610100808354040283529160200191610283565b820191906000526020600020905b81548152906001019060200180831161026657829003601f168201915b5050505050905090565b60003361029b8185856105a3565b60019150505b92915050565b6000336102b58582856106fb565b6102c085858561078d565b506001949350505050565b3360008181526034602090815260408083206001600160a01b038716845290915281205490919061029b9082908690610305908790610cdd565b6105a3565b600054610100900460ff161580801561032a5750600054600160ff909116105b806103445750303b158015610344575060005460ff166001145b6103bb5760405162461bcd60e51b815260206004820152602e60248201527f496e697469616c697a61626c653a20636f6e747261637420697320616c72656160448201527f647920696e697469616c697a656400000000000000000000000000000000000060648201526084015b60405180910390fd5b600080547fffffffffffffffffffffffffffffffffffffffffffffffffffffffffffffff0016600117905580156103fc576000805461ff0019166101001790555b6104706040518060400160405280600d81526020017f496e74656e745820546f6b656e000000000000000000000000000000000000008152506040518060400160405280600481526020017f494e545800000000000000000000000000000000000000000000000000000000815250610981565b610493336104806012600a610dd4565b61048e906305f5e100610de3565b610a0c565b80156104d9576000805461ff0019169055604051600181527f7f26b83ff96e1f2b6a682f133852f6798a09c465da95921460cefb38474024989060200160405180910390a15b50565b60606037805461020a90610c8d565b3360008181526034602090815260408083206001600160a01b0387168452909152812054909190838110156105885760405162461bcd60e51b815260206004820152602560248201527f45524332303a2064656372656173656420616c6c6f77616e63652062656c6f7760448201527f207a65726f00000000000000000000000000000000000000000000000000000060648201526084016103b2565b6102c082868684036105a3565b60003361029b81858561078d565b6001600160a01b03831661061e5760405162461bcd60e51b8152602060048201526024808201527f45524332303a20617070726f76652066726f6d20746865207a65726f2061646460448201527f726573730000000000000000000000000000000000000000000000000000000060648201526084016103b2565b6001600160a01b03821661069a5760405162461bcd60e51b815260206004820152602260248201527f45524332303a20617070726f766520746f20746865207a65726f20616464726560448201527f737300000000000000000000000000000000000000000000000000000000000060648201526084016103b2565b6001600160a01b0383811660008181526034602090815260408083209487168084529482529182902085905590518481527f8c5be1e5ebec7d5bd14f71427d1e84f3dd0314c0f7b2291e5b200ac8c7c3b925910160405180910390a3505050565b6001600160a01b038381166000908152603460209081526040808320938616835292905220546000198114610787578181101561077a5760405162461bcd60e51b815260206004820152601d60248201527f45524332303a20696e73756666696369656e7420616c6c6f77616e636500000060448201526064016103b2565b61078784848484036105a3565b50505050565b6001600160a01b0383166108095760405162461bcd60e51b815260206004820152602560248201527f45524332303a207472616e736665722066726f6d20746865207a65726f20616460448201527f647265737300000000000000000000000000000000000000000000000000000060648201526084016103b2565b6001600160a01b0382166108855760405162461bcd60e51b815260206004820152602360248201527f45524332303a207472616e7366657220746f20746865207a65726f206164647260448201527f657373000000000000000000000000000000000000000000000000000000000060648201526084016103b2565b6001600160a01b038316600090815260336020526040902054818110156109145760405162461bcd60e51b815260206004820152602660248201527f45524332303a207472616e7366657220616d6f756e742065786365656473206260448201527f616c616e6365000000000000000000000000000000000000000000000000000060648201526084016103b2565b6001600160a01b0380851660008181526033602052604080822086860390559286168082529083902080548601905591517fddf252ad1be2c89b69c2b068fc378daa952ba7f163c4a11628f55a4df523b3ef906109749086815260200190565b60405180910390a3610787565b600054610100900460ff166109fe5760405162461bcd60e51b815260206004820152602b60248201527f496e697469616c697a61626c653a20636f6e7472616374206973206e6f74206960448201527f6e697469616c697a696e6700000000000000000000000000000000000000000060648201526084016103b2565b610a088282610ad2565b5050565b6001600160a01b038216610a625760405162461bcd60e51b815260206004820152601f60248201527f45524332303a206d696e7420746f20746865207a65726f20616464726573730060448201526064016103b2565b8060356000828254610a749190610cdd565b90915550506001600160a01b0382166000818152603360209081526040808320805486019055518481527fddf252ad1be2c89b69c2b068fc378daa952ba7f163c4a11628f55a4df523b3ef910160405180910390a35050565b505050565b600054610100900460ff16610b4f5760405162461bcd60e51b815260206004820152602b60248201527f496e697469616c697a61626c653a20636f6e7472616374206973206e6f74206960448201527f6e697469616c697a696e6700000000000000000000000000000000000000000060648201526084016103b2565b6036610b5b8382610e5e565b506037610acd8282610e5e565b600060208083528351808285015260005b81811015610b9557858101830151858201604001528201610b79565b506000604082860101526040601f19601f8301168501019250505092915050565b80356001600160a01b0381168114610bcd57600080fd5b919050565b60008060408385031215610be557600080fd5b610bee83610bb6565b946020939093013593505050565b600080600060608486031215610c1157600080fd5b610c1a84610bb6565b9250610c2860208501610bb6565b9150604084013590509250925092565b600060208284031215610c4a57600080fd5b610c5382610bb6565b9392505050565b60008060408385031215610c6d57600080fd5b610c7683610bb6565b9150610c8460208401610bb6565b90509250929050565b600181811c90821680610ca157607f821691505b602082108103610cc157634e487b7160e01b600052602260045260246000fd5b50919050565b634e487b7160e01b600052601160045260246000fd5b808201808211156102a1576102a1610cc7565b600181815b80851115610d2b578160001904821115610d1157610d11610cc7565b80851615610d1e57918102915b93841c9390800290610cf5565b509250929050565b600082610d42575060016102a1565b81610d4f575060006102a1565b8160018114610d655760028114610d6f57610d8b565b60019150506102a1565b60ff841115610d8057610d80610cc7565b50506001821b6102a1565b5060208310610133831016604e8410600b8410161715610dae575081810a6102a1565b610db88383610cf0565b8060001904821115610dcc57610dcc610cc7565b029392505050565b6000610c5360ff841683610d33565b80820281158282048414176102a1576102a1610cc7565b634e487b7160e01b600052604160045260246000fd5b601f821115610acd57600081815260208120601f850160051c81016020861015610e375750805b601f850160051c820191505b81811015610e5657828155600101610e43565b505050505050565b815167ffffffffffffffff811115610e7857610e78610dfa565b610e8c81610e868454610c8d565b84610e10565b602080601f831160018114610ec15760008415610ea95750858301515b600019600386901b1c1916600185901b178555610e56565b600085815260208120601f198616915b82811015610ef057888601518255948401946001909101908401610ed1565b5085821015610f0e5787850151600019600388901b60f8161c191681555b5050505050600190811b0190555056fea2646970667358221220a8dd25b5cc6321111f8c18cfb77532bc3e35efa2293c41777b67169bcadf2cfb64736f6c63430008130033",
  "linkReferences": {},
  "deployedLinkReferences": {}
}