{
  "_format": "hh-sol-artifact-1",
  "contractName": "SymmioPartyB",
  "sourceName": "contracts/solver/SymmioPartyB.sol",
  "abi": [
    {
      "inputs": [],
      "stateMutability": "nonpayable",
      "type": "constructor"
    },
    {
      "anonymous": false,
      "inputs": [
        {
          "indexed": false,
          "internalType": "uint256",
          "name": "quoteId",
          "type": "uint256"
        },
        {
          "indexed": false,
          "internalType": "uint256",
          "name": "amount",
          "type": "uint256"
        },
        {
          "indexed": false,
          "internalType": "uint256",
          "name": "price",
          "type": "uint256"
        },
        {
          "indexed": false,
          "internalType": "bytes",
          "name": "revertData",
          "type": "bytes"
        }
      ],
      "name": "ADLSkip",
      "type": "event"
    },
    {
      "anonymous": false,
      "inputs": [
        {
          "indexed": false,
          "internalType": "address",
          "name": "previousAdmin",
          "type": "address"
        },
        {
          "indexed": false,
          "internalType": "address",
          "name": "newAdmin",
          "type": "address"
        }
      ],
      "name": "AdminChanged",
      "type": "event"
    },
    {
      "anonymous": false,
      "inputs": [
        {
          "indexed": true,
          "internalType": "address",
          "name": "beacon",
          "type": "address"
        }
      ],
      "name": "BeaconUpgraded",
      "type": "event"
    },
    {
      "anonymous": false,
      "inputs": [
        {
          "indexed": false,
          "internalType": "uint8",
          "name": "version",
          "type": "uint8"
        }
      ],
      "name": "Initialized",
      "type": "event"
    },
    {
      "anonymous": false,
      "inputs": [
        {
          "indexed": false,
          "internalType": "address",
          "name": "account",
          "type": "address"
        }
      ],
      "name": "Paused",
      "type": "event"
    },
    {
      "anonymous": false,
      "inputs": [
        {
          "indexed": true,
          "internalType": "bytes32",
          "name": "role",
          "type": "bytes32"
        },
        {
          "indexed": true,
          "internalType": "bytes32",
          "name": "previousAdminRole",
          "type": "bytes32"
        },
        {
          "indexed": true,
          "internalType": "bytes32",
          "name": "newAdminRole",
          "type": "bytes32"
        }
      ],
      "name": "RoleAdminChanged",
      "type": "event"
    },
    {
      "anonymous": false,
      "inputs": [
        {
          "indexed": true,
          "internalType": "bytes32",
          "name": "role",
          "type": "bytes32"
        },
        {
          "indexed": true,
          "internalType": "address",
          "name": "account",
          "type": "address"
        },
        {
          "indexed": true,
          "internalType": "address",
          "name": "sender",
          "type": "address"
        }
      ],
      "name": "RoleGranted",
      "type": "event"
    },
    {
      "anonymous": false,
      "inputs": [
        {
          "indexed": true,
          "internalType": "bytes32",
          "name": "role",
          "type": "bytes32"
        },
        {
          "indexed": true,
          "internalType": "address",
          "name": "account",
          "type": "address"
        },
        {
          "indexed": true,
          "internalType": "address",
          "name": "sender",
          "type": "address"
        }
      ],
      "name": "RoleRevoked",
      "type": "event"
    },
    {
      "anonymous": false,
      "inputs": [
        {
          "indexed": false,
          "internalType": "address",
          "name": "addr",
          "type": "address"
        },
        {
          "indexed": false,
          "internalType": "bool",
          "name": "state",
          "type": "bool"
        }
      ],
      "name": "SetMulticastWhitelist",
      "type": "event"
    },
    {
      "anonymous": false,
      "inputs": [
        {
          "indexed": false,
          "internalType": "bytes4",
          "name": "selector",
          "type": "bytes4"
        },
        {
          "indexed": false,
          "internalType": "bool",
          "name": "state",
          "type": "bool"
        }
      ],
      "name": "SetRestrictedSelector",
      "type": "event"
    },
    {
      "anonymous": false,
      "inputs": [
        {
          "indexed": false,
          "internalType": "address",
          "name": "oldSymmioAddress",
          "type": "address"
        },
        {
          "indexed": false,
          "internalType": "address",
          "name": "newSymmioAddress",
          "type": "address"
        }
      ],
      "name": "SetSymmioAddress",
      "type": "event"
    },
    {
      "anonymous": false,
      "inputs": [
        {
          "indexed": false,
          "internalType": "address",
          "name": "account",
          "type": "address"
        }
      ],
      "name": "Unpaused",
      "type": "event"
    },
    {
      "anonymous": false,
      "inputs": [
        {
          "indexed": true,
          "internalType": "address",
          "name": "implementation",
          "type": "address"
        }
      ],
      "name": "Upgraded",
      "type": "event"
    },
    {
      "inputs": [],
      "name": "DEFAULT_ADMIN_ROLE",
      "outputs": [
        {
          "internalType": "bytes32",
          "name": "",
          "type": "bytes32"
        }
      ],
      "stateMutability": "view",
      "type": "function"
    },
    {
      "inputs": [],
      "name": "MANAGER_ROLE",
      "outputs": [
        {
          "internalType": "bytes32",
          "name": "",
          "type": "bytes32"
        }
      ],
      "stateMutability": "view",
      "type": "function"
    },
    {
      "inputs": [],
      "name": "PAUSER_ROLE",
      "outputs": [
        {
          "internalType": "bytes32",
          "name": "",
          "type": "bytes32"
        }
      ],
      "stateMutability": "view",
      "type": "function"
    },
    {
      "inputs": [],
      "name": "SETTER_ROLE",
      "outputs": [
        {
          "internalType": "bytes32",
          "name": "",
          "type": "bytes32"
        }
      ],
      "stateMutability": "view",
      "type": "function"
    },
    {
      "inputs": [],
      "name": "TRUSTED_ROLE",
      "outputs": [
        {
          "internalType": "bytes32",
          "name": "",
          "type": "bytes32"
        }
      ],
      "stateMutability": "view",
      "type": "function"
    },
    {
      "inputs": [],
      "name": "UNPAUSER_ROLE",
      "outputs": [
        {
          "internalType": "bytes32",
          "name": "",
          "type": "bytes32"
        }
      ],
      "stateMutability": "view",
      "type": "function"
    },
    {
      "inputs": [
        {
          "internalType": "address",
          "name": "token",
          "type": "address"
        },
        {
          "internalType": "uint256",
          "name": "amount",
          "type": "uint256"
        }
      ],
      "name": "_approve",
      "outputs": [],
      "stateMutability": "nonpayable",
      "type": "function"
    },
    {
      "inputs": [
        {
          "internalType": "bytes[]",
          "name": "_callDatas",
          "type": "bytes[]"
        }
      ],
      "name": "_call",
      "outputs": [],
      "stateMutability": "nonpayable",
      "type": "function"
    },
    {
      "inputs": [
        {
          "internalType": "address[]",
          "name": "destAddresses",
          "type": "address[]"
        },
        {
          "internalType": "bytes[]",
          "name": "_callDatas",
          "type": "bytes[]"
        }
      ],
      "name": "_multicastCall",
      "outputs": [],
      "stateMutability": "nonpayable",
      "type": "function"
    },
    {
      "inputs": [
        {
          "internalType": "uint256[]",
          "name": "quoteIds",
          "type": "uint256[]"
        },
        {
          "internalType": "uint256[]",
          "name": "amounts",
          "type": "uint256[]"
        },
        {
          "internalType": "uint256[]",
          "name": "prices",
          "type": "uint256[]"
        }
      ],
      "name": "adlClose",
      "outputs": [],
      "stateMutability": "nonpayable",
      "type": "function"
    },
    {
      "inputs": [
        {
          "internalType": "bytes32",
          "name": "role",
          "type": "bytes32"
        }
      ],
      "name": "getRoleAdmin",
      "outputs": [
        {
          "internalType": "bytes32",
          "name": "",
          "type": "bytes32"
        }
      ],
      "stateMutability": "view",
      "type": "function"
    },
    {
      "inputs": [
        {
          "internalType": "bytes32",
          "name": "role",
          "type": "bytes32"
        },
        {
          "internalType": "address",
          "name": "account",
          "type": "address"
        }
      ],
      "name": "grantRole",
      "outputs": [],
      "stateMutability": "nonpayable",
      "type": "function"
    },
    {
      "inputs": [
        {
          "internalType": "bytes32",
          "name": "role",
          "type": "bytes32"
        },
        {
          "internalType": "address",
          "name": "account",
          "type": "address"
        }
      ],
      "name": "hasRole",
      "outputs": [
        {
          "internalType": "bool",
          "name": "",
          "type": "bool"
        }
      ],
      "stateMutability": "view",
      "type": "function"
    },
    {
      "inputs": [
        {
          "internalType": "address",
          "name": "admin",
          "type": "address"
        },
        {
          "internalType": "address",
          "name": "multisig_",
          "type": "address"
        },
        {
          "internalType": "address",
          "name": "symmioAddress_",
          "type": "address"
        }
      ],
      "name": "initialize",
      "outputs": [],
      "stateMutability": "nonpayable",
      "type": "function"
    },
    {
      "inputs": [
        {
          "internalType": "bytes32",
          "name": "hash",
          "type": "bytes32"
        },
        {
          "internalType": "bytes",
          "name": "signature",
          "type": "bytes"
        }
      ],
      "name": "isValidSignature",
      "outputs": [
        {
          "internalType": "bytes4",
          "name": "magicValue",
          "type": "bytes4"
        }
      ],
      "stateMutability": "view",
      "type": "function"
    },
    {
      "inputs": [
        {
          "internalType": "address",
          "name": "",
          "type": "address"
        }
      ],
      "name": "multicastWhitelist",
      "outputs": [
        {
          "internalType": "bool",
          "name": "",
          "type": "bool"
        }
      ],
      "stateMutability": "view",
      "type": "function"
    },
    {
      "inputs": [],
      "name": "pause",
      "outputs": [],
      "stateMutability": "nonpayable",
      "type": "function"
    },
    {
      "inputs": [],
      "name": "paused",
      "outputs": [
        {
          "internalType": "bool",
          "name": "",
          "type": "bool"
        }
      ],
      "stateMutability": "view",
      "type": "function"
    },
    {
      "inputs": [],
      "name": "proxiableUUID",
      "outputs": [
        {
          "internalType": "bytes32",
          "name": "",
          "type": "bytes32"
        }
      ],
      "stateMutability": "view",
      "type": "function"
    },
    {
      "inputs": [
        {
          "internalType": "bytes32",
          "name": "role",
          "type": "bytes32"
        },
        {
          "internalType": "address",
          "name": "account",
          "type": "address"
        }
      ],
      "name": "renounceRole",
      "outputs": [],
      "stateMutability": "nonpayable",
      "type": "function"
    },
    {
      "inputs": [
        {
          "internalType": "bytes4",
          "name": "",
          "type": "bytes4"
        }
      ],
      "name": "restrictedSelectors",
      "outputs": [
        {
          "internalType": "bool",
          "name": "",
          "type": "bool"
        }
      ],
      "stateMutability": "view",
      "type": "function"
    },
    {
      "inputs": [
        {
          "internalType": "bytes32",
          "name": "role",
          "type": "bytes32"
        },
        {
          "internalType": "address",
          "name": "account",
          "type": "address"
        }
      ],
      "name": "revokeRole",
      "outputs": [],
      "stateMutability": "nonpayable",
      "type": "function"
    },
    {
      "inputs": [
        {
          "internalType": "address",
          "name": "addr",
          "type": "address"
        },
        {
          "internalType": "bool",
          "name": "state",
          "type": "bool"
        }
      ],
      "name": "setMulticastWhitelist",
      "outputs": [],
      "stateMutability": "nonpayable",
      "type": "function"
    },
    {
      "inputs": [
        {
          "internalType": "bytes4",
          "name": "selector",
          "type": "bytes4"
        },
        {
          "internalType": "bool",
          "name": "state",
          "type": "bool"
        }
      ],
      "name": "setRestrictedSelector",
      "outputs": [],
      "stateMutability": "nonpayable",
      "type": "function"
    },
    {
      "inputs": [
        {
          "internalType": "address",
          "name": "_signer",
          "type": "address"
        }
      ],
      "name": "setSigner",
      "outputs": [],
      "stateMutability": "nonpayable",
      "type": "function"
    },
    {
      "inputs": [
        {
          "internalType": "address",
          "name": "addr",
          "type": "address"
        }
      ],
      "name": "setSymmioAddress",
      "outputs": [],
      "stateMutability": "nonpayable",
      "type": "function"
    },
    {
      "inputs": [],
      "name": "signer",
      "outputs": [
        {
          "internalType": "address",
          "name": "",
          "type": "address"
        }
      ],
      "stateMutability": "view",
      "type": "function"
    },
    {
      "inputs": [
        {
          "internalType": "bytes4",
          "name": "interfaceId",
          "type": "bytes4"
        }
      ],
      "name": "supportsInterface",
      "outputs": [
        {
          "internalType": "bool",
          "name": "",
          "type": "bool"
        }
      ],
      "stateMutability": "view",
      "type": "function"
    },
    {
      "inputs": [],
      "name": "symmioAddress",
      "outputs": [
        {
          "internalType": "address",
          "name": "",
          "type": "address"
        }
      ],
      "stateMutability": "view",
      "type": "function"
    },
    {
      "inputs": [],
      "name": "unpause",
      "outputs": [],
      "stateMutability": "nonpayable",
      "type": "function"
    },
    {
      "inputs": [
        {
          "internalType": "address",
          "name": "newImplementation",
          "type": "address"
        }
      ],
      "name": "upgradeTo",
      "outputs": [],
      "stateMutability": "nonpayable",
      "type": "function"
    },
    {
      "inputs": [
        {
          "internalType": "address",
          "name": "newImplementation",
          "type": "address"
        },
        {
          "internalType": "bytes",
          "name": "data",
          "type": "bytes"
        }
      ],
      "name": "upgradeToAndCall",
      "outputs": [],
      "stateMutability": "payable",
      "type": "function"
    },
    {
      "inputs": [
        {
          "internalType": "address",
          "name": "token",
          "type": "address"
        },
        {
          "internalType": "uint256",
          "name": "amount",
          "type": "uint256"
        }
      ],
      "name": "withdrawERC20",
      "outputs": [],
      "stateMutability": "nonpayable",
      "type": "function"
    }
  ],
  "bytecode": "0x60a06040523060805234801561001457600080fd5b5061001d610022565b6100e1565b600054610100900460ff161561008e5760405162461bcd60e51b815260206004820152602760248201527f496e697469616c697a61626c653a20636f6e747261637420697320696e697469604482015266616c697a696e6760c81b606482015260840160405180910390fd5b60005460ff908116146100df576000805460ff191660ff9081179091556040519081527f7f26b83ff96e1f2b6a682f133852f6798a09c465da95921460cefb38474024989060200160405180910390a15b565b608051613098610118600039600081816108fd0152818161099301528181610acc01528181610b620152610c5901526130986000f3fe6080604052600436106101fd5760003560e01c80637278b28f1161011d578063c0c53b8b116100b0578063e63ab1e91161007f578063edddc27311610064578063edddc27314610670578063f504fd59146106a1578063fb1bb9de146106c157600080fd5b8063e63ab1e914610608578063ec87621c1461063c57600080fd5b8063c0c53b8b14610588578063ca9d9c9d146105a8578063d37a8559146105c8578063d547741f146105e857600080fd5b806391d14854116100ec57806391d14854146104d9578063a1db97821461051f578063a2011b3f1461053f578063a217fddf1461057357600080fd5b80637278b28f146104635780637b7d72251461048457806383aba1d3146104a45780638456cb59146104c457600080fd5b80633659cfe6116101955780635901692e116101645780635901692e146103d75780635c975abb1461040b5780636c19e78314610423578063717bb2621461044357600080fd5b80633659cfe61461037a5780633f4ba83a1461039a5780634f1ef286146103af57806352d1902d146103c257600080fd5b8063238ac933116101d1578063238ac933146102c3578063248a9ca3146102fc5780632f2ff15d1461033a57806336568abe1461035a57600080fd5b8062fbc3551461020257806301569e3a1461024857806301ffc9a71461026a5780631626ba7e1461028a575b600080fd5b34801561020e57600080fd5b5061023361021d36600461297e565b61012f6020526000908152604090205460ff1681565b60405190151581526020015b60405180910390f35b34801561025457600080fd5b5061026861026336600461297e565b6106f5565b005b34801561027657600080fd5b506102336102853660046129b1565b610779565b34801561029657600080fd5b506102aa6102a5366004612a72565b6107e2565b6040516001600160e01b0319909116815260200161023f565b3480156102cf57600080fd5b50610130546102e4906001600160a01b031681565b6040516001600160a01b03909116815260200161023f565b34801561030857600080fd5b5061032c610317366004612ab9565b60009081526097602052604090206001015490565b60405190815260200161023f565b34801561034657600080fd5b50610268610355366004612ad2565b610838565b34801561036657600080fd5b50610268610375366004612ad2565b610862565b34801561038657600080fd5b5061026861039536600461297e565b6108f3565b3480156103a657600080fd5b50610268610a90565b6102686103bd366004612afe565b610ac2565b3480156103ce57600080fd5b5061032c610c4c565b3480156103e357600080fd5b5061032c7f2de84d9fbdf6d06e2cc584295043dbd76046423b9f8bae9426d4fa5e7c03f4a781565b34801561041757600080fd5b5060335460ff16610233565b34801561042f57600080fd5b5061026861043e36600461297e565b610d11565b34801561044f57600080fd5b5061026861045e366004612b44565b610d6c565b34801561046f57600080fd5b5061012d546102e4906001600160a01b031681565b34801561049057600080fd5b5061026861049f366004612b7b565b610e54565b3480156104b057600080fd5b506102686104bf366004612ba5565b610f63565b3480156104d057600080fd5b50610268610fcc565b3480156104e557600080fd5b506102336104f4366004612ad2565b60009182526097602090815260408084206001600160a01b0393909316845291905290205460ff1690565b34801561052b57600080fd5b5061026861053a366004612b7b565b610ffe565b34801561054b57600080fd5b5061032c7f61c92169ef077349011ff0b1383c894d86c5f0b41d986366b58a6cf31e93beda81565b34801561057f57600080fd5b5061032c600081565b34801561059457600080fd5b506102686105a3366004612bc1565b6110fe565b3480156105b457600080fd5b506102686105c3366004612c49565b611318565b3480156105d457600080fd5b506102686105e3366004612c8b565b6113b2565b3480156105f457600080fd5b50610268610603366004612ad2565b611756565b34801561061457600080fd5b5061032c7f65d7a28e3265b37a6474929f336521b332c1681b933f6cb9f3376673440d862a81565b34801561064857600080fd5b5061032c7f241ecf16d79d0f8dbfb92cbc07fe17840425976cf0667f022fe9877caa831b0881565b34801561067c57600080fd5b5061023361068b3660046129b1565b61012e6020526000908152604090205460ff1681565b3480156106ad57600080fd5b506102686106bc366004612d31565b61177b565b3480156106cd57600080fd5b5061032c7f427da25fe773164f88948d3e215c94b6554e2ed5e5f203a821c9f2f6131cf75a81565b600061070081611861565b61012d54604080516001600160a01b03928316815291841660208301527ff78ccdf5924090b2ab6627ac5da4ec5affed73d47c6bc6c8a4620a0d5ed57bc8910160405180910390a15061012d805473ffffffffffffffffffffffffffffffffffffffff19166001600160a01b0392909216919091179055565b60006001600160e01b031982167f7965db0b0000000000000000000000000000000000000000000000000000000014806107dc57507f01ffc9a7000000000000000000000000000000000000000000000000000000006001600160e01b03198316145b92915050565b610130546000906107fd906001600160a01b0316848461186b565b61080f576001600160e01b0319610831565b7f1626ba7e000000000000000000000000000000000000000000000000000000005b9392505050565b60008281526097602052604090206001015461085381611861565b61085d83836118cc565b505050565b6001600160a01b03811633146108e55760405162461bcd60e51b815260206004820152602f60248201527f416363657373436f6e74726f6c3a2063616e206f6e6c792072656e6f756e636560448201527f20726f6c657320666f722073656c66000000000000000000000000000000000060648201526084015b60405180910390fd5b6108ef828261196e565b5050565b6001600160a01b037f00000000000000000000000000000000000000000000000000000000000000001630036109915760405162461bcd60e51b815260206004820152602c60248201527f46756e6374696f6e206d7573742062652063616c6c6564207468726f7567682060448201527f64656c656761746563616c6c000000000000000000000000000000000000000060648201526084016108dc565b7f00000000000000000000000000000000000000000000000000000000000000006001600160a01b03166109ec7f360894a13ba1a3210667c828492db98dca3e2076cc3735a920a3ca505d382bbc546001600160a01b031690565b6001600160a01b031614610a685760405162461bcd60e51b815260206004820152602c60248201527f46756e6374696f6e206d7573742062652063616c6c6564207468726f7567682060448201527f6163746976652070726f7879000000000000000000000000000000000000000060648201526084016108dc565b610a71816119f1565b60408051600080825260208201909252610a8d918391906119fc565b50565b7f427da25fe773164f88948d3e215c94b6554e2ed5e5f203a821c9f2f6131cf75a610aba81611861565b610a8d611b9c565b6001600160a01b037f0000000000000000000000000000000000000000000000000000000000000000163003610b605760405162461bcd60e51b815260206004820152602c60248201527f46756e6374696f6e206d7573742062652063616c6c6564207468726f7567682060448201527f64656c656761746563616c6c000000000000000000000000000000000000000060648201526084016108dc565b7f00000000000000000000000000000000000000000000000000000000000000006001600160a01b0316610bbb7f360894a13ba1a3210667c828492db98dca3e2076cc3735a920a3ca505d382bbc546001600160a01b031690565b6001600160a01b031614610c375760405162461bcd60e51b815260206004820152602c60248201527f46756e6374696f6e206d7573742062652063616c6c6564207468726f7567682060448201527f6163746976652070726f7879000000000000000000000000000000000000000060648201526084016108dc565b610c40826119f1565b6108ef828260016119fc565b6000306001600160a01b037f00000000000000000000000000000000000000000000000000000000000000001614610cec5760405162461bcd60e51b815260206004820152603860248201527f555550535570677261646561626c653a206d757374206e6f742062652063616c60448201527f6c6564207468726f7567682064656c656761746563616c6c000000000000000060648201526084016108dc565b507f360894a13ba1a3210667c828492db98dca3e2076cc3735a920a3ca505d382bbc90565b7f61c92169ef077349011ff0b1383c894d86c5f0b41d986366b58a6cf31e93beda610d3b81611861565b50610130805473ffffffffffffffffffffffffffffffffffffffff19166001600160a01b0392909216919091179055565b7f241ecf16d79d0f8dbfb92cbc07fe17840425976cf0667f022fe9877caa831b08610d9681611861565b306001600160a01b03841603610dee5760405162461bcd60e51b815260206004820152601d60248201527f53796d6d696f5061727479423a20496e76616c6964206164647265737300000060448201526064016108dc565b6001600160a01b038316600081815261012f6020908152604091829020805460ff19168615159081179091558251938452908301527ff776d871534c4177eb3ea09ad170db249e5c7057ff18ddf26992d18459a904b191015b60405180910390a1505050565b7f2de84d9fbdf6d06e2cc584295043dbd76046423b9f8bae9426d4fa5e7c03f4a7610e7e81611861565b610e86611bee565b61012d546040517f095ea7b30000000000000000000000000000000000000000000000000000000081526001600160a01b039182166004820152602481018490529084169063095ea7b3906044016020604051808303816000875af1158015610ef3573d6000803e3d6000fd5b505050506040513d601f19601f82011682018060405250810190610f179190612da2565b61085d5760405162461bcd60e51b815260206004820152601a60248201527f53796d6d696f5061727479423a204e6f7420617070726f76656400000000000060448201526064016108dc565b6000610f6e81611861565b6001600160e01b03198316600081815261012e6020908152604091829020805460ff19168615159081179091558251938452908301527f3b438b04c48041000349f30457a15358332ec96233735f9bc289621aa82fb7759101610e47565b7f65d7a28e3265b37a6474929f336521b332c1681b933f6cb9f3376673440d862a610ff681611861565b610a8d611c43565b7f241ecf16d79d0f8dbfb92cbc07fe17840425976cf0667f022fe9877caa831b0861102881611861565b6040517fa9059cbb000000000000000000000000000000000000000000000000000000008152336004820152602481018390526001600160a01b0384169063a9059cbb906044016020604051808303816000875af115801561108e573d6000803e3d6000fd5b505050506040513d601f19601f820116820180604052508101906110b29190612da2565b61085d5760405162461bcd60e51b815260206004820152601d60248201527f53796d6d696f5061727479423a204e6f74207472616e7366657272656400000060448201526064016108dc565b600054610100900460ff161580801561111e5750600054600160ff909116105b806111385750303b158015611138575060005460ff166001145b6111aa5760405162461bcd60e51b815260206004820152602e60248201527f496e697469616c697a61626c653a20636f6e747261637420697320616c72656160448201527f647920696e697469616c697a656400000000000000000000000000000000000060648201526084016108dc565b6000805460ff1916600117905580156111cd576000805461ff0019166101001790555b6111d5611c80565b6111dd611d05565b6111e5611d05565b6111f06000856118cc565b6111fb6000846118cc565b6112257f65d7a28e3265b37a6474929f336521b332c1681b933f6cb9f3376673440d862a846118cc565b61124f7f427da25fe773164f88948d3e215c94b6554e2ed5e5f203a821c9f2f6131cf75a846118cc565b6112797f2de84d9fbdf6d06e2cc584295043dbd76046423b9f8bae9426d4fa5e7c03f4a7856118cc565b6112a37f241ecf16d79d0f8dbfb92cbc07fe17840425976cf0667f022fe9877caa831b08856118cc565b61012d805473ffffffffffffffffffffffffffffffffffffffff19166001600160a01b0384161790558015611312576000805461ff0019169055604051600181527f7f26b83ff96e1f2b6a682f133852f6798a09c465da95921460cefb38474024989060200160405180910390a15b50505050565b611320611bee565b60005b60ff811682111561085d5761012d546113a0906001600160a01b0316848460ff851681811061135457611354612dbf565b90506020028101906113669190612dd5565b8080601f016020809104026020016040519081016040528093929190818152602001838380828437600092019190915250611d8292505050565b806113aa81612e50565b915050611323565b6113ba611bee565b8483811480156113c957508181145b61143b5760405162461bcd60e51b815260206004820152602360248201527f53796d6d696f5061727479423a204172726179206c656e677468206d69736d6160448201527f746368000000000000000000000000000000000000000000000000000000000060648201526084016108dc565b61012d546001600160a01b03166114945760405162461bcd60e51b815260206004820152601d60248201527f53796d6d696f5061727479423a20496e76616c6964206164647265737300000060448201526064016108dc565b3360009081527fd3dcd7dc58e3b6c497be50df5a3ad068b6e0acc697d498ce82a40e016edc5e8a602052604090205460ff16806114ff57503360009081527f2b695040062d682c5f383fc121d3529271110663a7876b561e44e93485577d13602052604090205460ff165b8061157d575061012d60009054906101000a90046001600160a01b03166001600160a01b03166367aa6fea6040518163ffffffff1660e01b8152600401602060405180830381865afa158015611559573d6000803e3d6000fd5b505050506040513d601f19601f8201168201806040525081019061157d9190612da2565b6115c95760405162461bcd60e51b815260206004820152601c60248201527f53796d6d696f5061727479423a20496e76616c6964206163636573730000000060448201526064016108dc565b60005b8181101561174c5761012d546001600160a01b031663258699298989848181106115f8576115f8612dbf565b9050602002013588888581811061161157611611612dbf565b9050602002013587878681811061162a5761162a612dbf565b6040516001600160e01b031960e088901b1681526004810195909552602485019390935250602090910201356044820152606401600060405180830381600087803b15801561167857600080fd5b505af1925050508015611689575060015b611744573d8080156116b7576040519150601f19603f3d011682016040523d82523d6000602084013e6116bc565b606091505b507fe474d30861954963e2430d1eb30ee3d32920f7afa7ff8fce00044373a259abf08989848181106116f0576116f0612dbf565b9050602002013588888581811061170957611709612dbf565b9050602002013587878681811061172257611722612dbf565b905060200201358460405161173a9493929190612ebf565b60405180910390a1505b6001016115cc565b5050505050505050565b60008281526097602052604090206001015461177181611861565b61085d838361196e565b611783611bee565b8281146117f85760405162461bcd60e51b815260206004820152602360248201527f53796d6d696f5061727479423a204172726179206c656e677468206d69736d6160448201527f746368000000000000000000000000000000000000000000000000000000000060648201526084016108dc565b60005b60ff811682111561185a5761184885858360ff1681811061181e5761181e612dbf565b9050602002016020810190611833919061297e565b84848460ff1681811061135457611354612dbf565b8061185281612e50565b9150506117fb565b5050505050565b610a8d8133612150565b600080600061187a85856121c5565b9092509050600081600481111561189357611893612ee4565b1480156118b15750856001600160a01b0316826001600160a01b0316145b806118c257506118c286868661220a565b9695505050505050565b60008281526097602090815260408083206001600160a01b038516845290915290205460ff166108ef5760008281526097602090815260408083206001600160a01b03851684529091529020805460ff1916600117905561192a3390565b6001600160a01b0316816001600160a01b0316837f2f8788117e7eff1d82e926ec794901d17c78024a50270940304540a733656f0d60405160405180910390a45050565b60008281526097602090815260408083206001600160a01b038516845290915290205460ff16156108ef5760008281526097602090815260408083206001600160a01b0385168085529252808320805460ff1916905551339285917ff6391f5c32d9c69d2a47ea670b442974b53935d1edc7fd64eb21e047a839171b9190a45050565b60006108ef81611861565b7f4910fdfa16fed3260ed0e7147f7cc6da11a60208b5b9406d12a635614ffd91435460ff1615611a2f5761085d83612324565b826001600160a01b03166352d1902d6040518163ffffffff1660e01b8152600401602060405180830381865afa925050508015611a89575060408051601f3d908101601f19168201909252611a8691810190612efa565b60015b611afb5760405162461bcd60e51b815260206004820152602e60248201527f45524331393637557067726164653a206e657720696d706c656d656e7461746960448201527f6f6e206973206e6f74205555505300000000000000000000000000000000000060648201526084016108dc565b7f360894a13ba1a3210667c828492db98dca3e2076cc3735a920a3ca505d382bbc8114611b905760405162461bcd60e51b815260206004820152602960248201527f45524331393637557067726164653a20756e737570706f727465642070726f7860448201527f6961626c6555554944000000000000000000000000000000000000000000000060648201526084016108dc565b5061085d8383836123ef565b611ba4612414565b6033805460ff191690557f5db9ee0a495bf2e6ff9c91a7834c1ba4fdd244a5e8aa4e537bd38aeae4b073aa335b6040516001600160a01b03909116815260200160405180910390a1565b60335460ff1615611c415760405162461bcd60e51b815260206004820152601060248201527f5061757361626c653a207061757365640000000000000000000000000000000060448201526064016108dc565b565b611c4b611bee565b6033805460ff191660011790557f62e78cea01bee320cd4e420270b5ea74000d11b0c9f74754ebdbfc544b05a258611bd13390565b600054610100900460ff16611cfd5760405162461bcd60e51b815260206004820152602b60248201527f496e697469616c697a61626c653a20636f6e7472616374206973206e6f74206960448201527f6e697469616c697a696e6700000000000000000000000000000000000000000060648201526084016108dc565b611c41612466565b600054610100900460ff16611c415760405162461bcd60e51b815260206004820152602b60248201527f496e697469616c697a61626c653a20636f6e7472616374206973206e6f74206960448201527f6e697469616c697a696e6700000000000000000000000000000000000000000060648201526084016108dc565b6001600160a01b038216611dd85760405162461bcd60e51b815260206004820152601d60248201527f53796d6d696f5061727479423a20496e76616c6964206164647265737300000060448201526064016108dc565b600481511015611e2a5760405162461bcd60e51b815260206004820152601f60248201527f53796d6d696f5061727479423a20496e76616c69642063616c6c20646174610060448201526064016108dc565b61012d546001600160a01b0390811690831603611fd5576020818101516001600160e01b03198116600090815261012e90925260409091205460ff1615611e9a57611e957f241ecf16d79d0f8dbfb92cbc07fe17840425976cf0667f022fe9877caa831b0833612150565b611fcf565b3360009081527fd3dcd7dc58e3b6c497be50df5a3ad068b6e0acc697d498ce82a40e016edc5e8a602052604090205460ff1680611f0557503360009081527f2b695040062d682c5f383fc121d3529271110663a7876b561e44e93485577d13602052604090205460ff165b80611f83575061012d60009054906101000a90046001600160a01b03166001600160a01b03166367aa6fea6040518163ffffffff1660e01b8152600401602060405180830381865afa158015611f5f573d6000803e3d6000fd5b505050506040513d601f19601f82011682018060405250810190611f839190612da2565b611fcf5760405162461bcd60e51b815260206004820152601c60248201527f53796d6d696f5061727479423a20496e76616c6964206163636573730000000060448201526064016108dc565b5061208e565b6001600160a01b038216600090815261012f602052604090205460ff166120645760405162461bcd60e51b815260206004820152603460248201527f53796d6d696f5061727479423a2044657374696e6174696f6e2061646472657360448201527f73206973206e6f742077686974656c697374656400000000000000000000000060648201526084016108dc565b61208e7f2de84d9fbdf6d06e2cc584295043dbd76046423b9f8bae9426d4fa5e7c03f4a733612150565b600080836001600160a01b03166000846040516120ab9190612f13565b60006040518083038185875af1925050503d80600081146120e8576040519150601f19603f3d011682016040523d82523d6000602084013e6120ed565b606091505b5091509150816113125780516000036121485760405162461bcd60e51b815260206004820181905260248201527f53796d6d696f5061727479423a20457865637574696f6e20726576657274656460448201526064016108dc565b805160208201fd5b60008281526097602090815260408083206001600160a01b038516845290915290205460ff166108ef57612183816124ef565b61218e836020612501565b60405160200161219f929190612f2f565b60408051601f198184030181529082905262461bcd60e51b82526108dc91600401612fb0565b60008082516041036121fb5760208301516040840151606085015160001a6121ef8782858561272a565b94509450505050612203565b506000905060025b9250929050565b6000806000856001600160a01b0316631626ba7e60e01b8686604051602401612234929190612fc3565b60408051601f198184030181529181526020820180517bffffffffffffffffffffffffffffffffffffffffffffffffffffffff166001600160e01b03199094169390931790925290516122879190612f13565b600060405180830381855afa9150503d80600081146122c2576040519150601f19603f3d011682016040523d82523d6000602084013e6122c7565b606091505b50915091508180156122db57506020815110155b80156118c2575080517f1626ba7e00000000000000000000000000000000000000000000000000000000906123199083016020908101908401612efa565b149695505050505050565b6001600160a01b0381163b6123a15760405162461bcd60e51b815260206004820152602d60248201527f455243313936373a206e657720696d706c656d656e746174696f6e206973206e60448201527f6f74206120636f6e74726163740000000000000000000000000000000000000060648201526084016108dc565b7f360894a13ba1a3210667c828492db98dca3e2076cc3735a920a3ca505d382bbc805473ffffffffffffffffffffffffffffffffffffffff19166001600160a01b0392909216919091179055565b6123f8836127ee565b6000825111806124055750805b1561085d57611312838361282e565b60335460ff16611c415760405162461bcd60e51b815260206004820152601460248201527f5061757361626c653a206e6f742070617573656400000000000000000000000060448201526064016108dc565b600054610100900460ff166124e35760405162461bcd60e51b815260206004820152602b60248201527f496e697469616c697a61626c653a20636f6e7472616374206973206e6f74206960448201527f6e697469616c697a696e6700000000000000000000000000000000000000000060648201526084016108dc565b6033805460ff19169055565b60606107dc6001600160a01b03831660145b60606000612510836002612fdc565b61251b906002612ff3565b67ffffffffffffffff811115612533576125336129cc565b6040519080825280601f01601f19166020018201604052801561255d576020820181803683370190505b5090507f30000000000000000000000000000000000000000000000000000000000000008160008151811061259457612594612dbf565b60200101907effffffffffffffffffffffffffffffffffffffffffffffffffffffffffffff1916908160001a9053507f7800000000000000000000000000000000000000000000000000000000000000816001815181106125f7576125f7612dbf565b60200101907effffffffffffffffffffffffffffffffffffffffffffffffffffffffffffff1916908160001a9053506000612633846002612fdc565b61263e906001612ff3565b90505b60018111156126db577f303132333435363738396162636465660000000000000000000000000000000085600f166010811061267f5761267f612dbf565b1a60f81b82828151811061269557612695612dbf565b60200101907effffffffffffffffffffffffffffffffffffffffffffffffffffffffffffff1916908160001a90535060049490941c936126d481613006565b9050612641565b5083156108315760405162461bcd60e51b815260206004820181905260248201527f537472696e67733a20686578206c656e67746820696e73756666696369656e7460448201526064016108dc565b6000807f7fffffffffffffffffffffffffffffff5d576e7357a4501ddfe92f46681b20a083111561276157506000905060036127e5565b6040805160008082526020820180845289905260ff881692820192909252606081018690526080810185905260019060a0016020604051602081039080840390855afa1580156127b5573d6000803e3d6000fd5b5050604051601f1901519150506001600160a01b0381166127de576000600192509250506127e5565b9150600090505b94509492505050565b6127f781612324565b6040516001600160a01b038216907fbc7cd75a20ee27fd9adebab32041f755214dbc6bffa90cc0225b39da2e5c2d3b90600090a250565b6060610831838360405180606001604052806027815260200161303c602791396060600080856001600160a01b03168560405161286b9190612f13565b600060405180830381855af49150503d80600081146128a6576040519150601f19603f3d011682016040523d82523d6000602084013e6128ab565b606091505b50915091506118c2868383876060831561292657825160000361291f576001600160a01b0385163b61291f5760405162461bcd60e51b815260206004820152601d60248201527f416464726573733a2063616c6c20746f206e6f6e2d636f6e747261637400000060448201526064016108dc565b5081612930565b6129308383612938565b949350505050565b8151156129485781518083602001fd5b8060405162461bcd60e51b81526004016108dc9190612fb0565b80356001600160a01b038116811461297957600080fd5b919050565b60006020828403121561299057600080fd5b61083182612962565b80356001600160e01b03198116811461297957600080fd5b6000602082840312156129c357600080fd5b61083182612999565b634e487b7160e01b600052604160045260246000fd5b600082601f8301126129f357600080fd5b813567ffffffffffffffff811115612a0d57612a0d6129cc565b604051601f19603f601f19601f8501160116810181811067ffffffffffffffff82111715612a3d57612a3d6129cc565b604052818152838201602001851015612a5557600080fd5b816020850160208301376000918101602001919091529392505050565b60008060408385031215612a8557600080fd5b82359150602083013567ffffffffffffffff811115612aa357600080fd5b612aaf858286016129e2565b9150509250929050565b600060208284031215612acb57600080fd5b5035919050565b60008060408385031215612ae557600080fd5b82359150612af560208401612962565b90509250929050565b60008060408385031215612b1157600080fd5b612b1a83612962565b9150602083013567ffffffffffffffff811115612aa357600080fd5b8015158114610a8d57600080fd5b60008060408385031215612b5757600080fd5b612b6083612962565b91506020830135612b7081612b36565b809150509250929050565b60008060408385031215612b8e57600080fd5b612b9783612962565b946020939093013593505050565b60008060408385031215612bb857600080fd5b612b6083612999565b600080600060608486031215612bd657600080fd5b612bdf84612962565b9250612bed60208501612962565b9150612bfb60408501612962565b90509250925092565b60008083601f840112612c1657600080fd5b50813567ffffffffffffffff811115612c2e57600080fd5b6020830191508360208260051b850101111561220357600080fd5b60008060208385031215612c5c57600080fd5b823567ffffffffffffffff811115612c7357600080fd5b612c7f85828601612c04565b90969095509350505050565b60008060008060008060608789031215612ca457600080fd5b863567ffffffffffffffff811115612cbb57600080fd5b612cc789828a01612c04565b909750955050602087013567ffffffffffffffff811115612ce757600080fd5b612cf389828a01612c04565b909550935050604087013567ffffffffffffffff811115612d1357600080fd5b612d1f89828a01612c04565b979a9699509497509295939492505050565b60008060008060408587031215612d4757600080fd5b843567ffffffffffffffff811115612d5e57600080fd5b612d6a87828801612c04565b909550935050602085013567ffffffffffffffff811115612d8a57600080fd5b612d9687828801612c04565b95989497509550505050565b600060208284031215612db457600080fd5b815161083181612b36565b634e487b7160e01b600052603260045260246000fd5b60008083357fffffffffffffffffffffffffffffffffffffffffffffffffffffffffffffffe1843603018112612e0a57600080fd5b83018035915067ffffffffffffffff821115612e2557600080fd5b60200191503681900382131561220357600080fd5b634e487b7160e01b600052601160045260246000fd5b600060ff821660ff8103612e6657612e66612e3a565b60010192915050565b60005b83811015612e8a578181015183820152602001612e72565b50506000910152565b60008151808452612eab816020860160208601612e6f565b601f01601f19169290920160200192915050565b8481528360208201528260408201526080606082015260006118c26080830184612e93565b634e487b7160e01b600052602160045260246000fd5b600060208284031215612f0c57600080fd5b5051919050565b60008251612f25818460208701612e6f565b9190910192915050565b7f416363657373436f6e74726f6c3a206163636f756e7420000000000000000000815260008351612f67816017850160208801612e6f565b7f206973206d697373696e6720726f6c65200000000000000000000000000000006017918401918201528351612fa4816028840160208801612e6f565b01602801949350505050565b6020815260006108316020830184612e93565b8281526040602082015260006129306040830184612e93565b80820281158282048414176107dc576107dc612e3a565b808201808211156107dc576107dc612e3a565b60008161301557613015612e3a565b507fffffffffffffffffffffffffffffffffffffffffffffffffffffffffffffffff019056fe416464726573733a206c6f772d6c6576656c2064656c65676174652063616c6c206661696c6564a26469706673582212207bb2dd0bb43506c63d31119af184b41330049ec94011624a0aeef6389aa584a364736f6c634300081c0033",
  "linkReferences": {},
  "deployedLinkReferences": {}
}