{
  "_format": "hh-sol-artifact-1",
  "contractName": "SymmioPartyB",
  "sourceName": "contracts/solver/SymmioPartyB.sol",
  "abi": [
    {
      "inputs": [],
      "stateMutability": "nonpayable",
      "type": "constructor"
    },
    {
      "anonymous": false,
      "inputs": [
        {
          "indexed": false,
          "internalType": "uint256",
          "name": "quoteId",
          "type": "uint256"
        },
        {
          "indexed": false,
          "internalType": "uint256",
          "name": "amount",
          "type": "uint256"
        },
        {
          "indexed": false,
          "internalType": "uint256",
          "name": "price",
          "type": "uint256"
        },
        {
          "indexed": false,
          "internalType": "bytes",
          "name": "revertData",
          "type": "bytes"
        }
      ],
      "name": "ADLSkip",
      "type": "event"
    },
    {
      "anonymous": false,
      "inputs": [
        {
          "indexed": false,
          "internalType": "address",
          "name": "previousAdmin",
          "type": "address"
        },
        {
          "indexed": false,
          "internalType": "address",
          "name": "newAdmin",
          "type": "address"
        }
      ],
      "name": "AdminChanged",
      "type": "event"
    },
    {
      "anonymous": false,
      "inputs": [
        {
          "indexed": true,
          "internalType": "address",
          "name": "beacon",
          "type": "address"
        }
      ],
      "name": "BeaconUpgraded",
      "type": "event"
    },
    {
      "anonymous": false,
      "inputs": [
        {
          "indexed": false,
          "internalType": "uint8",
          "name": "version",
          "type": "uint8"
        }
      ],
      "name": "Initialized",
      "type": "event"
    },
    {
      "anonymous": false,
      "inputs": [
        {
          "indexed": false,
          "internalType": "address",
          "name": "account",
          "type": "address"
        }
      ],
      "name": "Paused",
      "type": "event"
    },
    {
      "anonymous": false,
      "inputs": [
        {
          "indexed": true,
          "internalType": "bytes32",
          "name": "role",
          "type": "bytes32"
        },
        {
          "indexed": true,
          "internalType": "bytes32",
          "name": "previousAdminRole",
          "type": "bytes32"
        },
        {
          "indexed": true,
          "internalType": "bytes32",
          "name": "newAdminRole",
          "type": "bytes32"
        }
      ],
      "name": "RoleAdminChanged",
      "type": "event"
    },
    {
      "anonymous": false,
      "inputs": [
        {
          "indexed": true,
          "internalType": "bytes32",
          "name": "role",
          "type": "bytes32"
        },
        {
          "indexed": true,
          "internalType": "address",
          "name": "account",
          "type": "address"
        },
        {
          "indexed": true,
          "internalType": "address",
          "name": "sender",
          "type": "address"
        }
      ],
      "name": "RoleGranted",
      "type": "event"
    },
    {
      "anonymous": false,
      "inputs": [
        {
          "indexed": true,
          "internalType": "bytes32",
          "name": "role",
          "type": "bytes32"
        },
        {
          "indexed": true,
          "internalType": "address",
          "name": "account",
          "type": "address"
        },
        {
          "indexed": true,
          "internalType": "address",
          "name": "sender",
          "type": "address"
        }
      ],
      "name": "RoleRevoked",
      "type": "event"
    },
    {
      "anonymous": false,
      "inputs": [
        {
          "indexed": false,
          "internalType": "address",
          "name": "addr",
          "type": "address"
        },
        {
          "indexed": false,
          "internalType": "bool",
          "name": "state",
          "type": "bool"
        }
      ],
      "name": "SetMulticastWhitelist",
      "type": "event"
    },
    {
      "anonymous": false,
      "inputs": [
        {
          "indexed": false,
          "internalType": "bytes4",
          "name": "selector",
          "type": "bytes4"
        },
        {
          "indexed": false,
          "internalType": "bool",
          "name": "state",
          "type": "bool"
        }
      ],
      "name": "SetRestrictedSelector",
      "type": "event"
    },
    {
      "anonymous": false,
      "inputs": [
        {
          "indexed": false,
          "internalType": "address",
          "name": "oldSymmioAddress",
          "type": "address"
        },
        {
          "indexed": false,
          "internalType": "address",
          "name": "newSymmioAddress",
          "type": "address"
        }
      ],
      "name": "SetSymmioAddress",
      "type": "event"
    },
    {
      "anonymous": false,
      "inputs": [
        {
          "indexed": false,
          "internalType": "address",
          "name": "account",
          "type": "address"
        }
      ],
      "name": "Unpaused",
      "type": "event"
    },
    {
      "anonymous": false,
      "inputs": [
        {
          "indexed": true,
          "internalType": "address",
          "name": "implementation",
          "type": "address"
        }
      ],
      "name": "Upgraded",
      "type": "event"
    },
    {
      "inputs": [],
      "name": "DEFAULT_ADMIN_ROLE",
      "outputs": [
        {
          "internalType": "bytes32",
          "name": "",
          "type": "bytes32"
        }
      ],
      "stateMutability": "view",
      "type": "function"
    },
    {
      "inputs": [],
      "name": "MANAGER_ROLE",
      "outputs": [
        {
          "internalType": "bytes32",
          "name": "",
          "type": "bytes32"
        }
      ],
      "stateMutability": "view",
      "type": "function"
    },
    {
      "inputs": [],
      "name": "PAUSER_ROLE",
      "outputs": [
        {
          "internalType": "bytes32",
          "name": "",
          "type": "bytes32"
        }
      ],
      "stateMutability": "view",
      "type": "function"
    },
    {
      "inputs": [],
      "name": "SETTER_ROLE",
      "outputs": [
        {
          "internalType": "bytes32",
          "name": "",
          "type": "bytes32"
        }
      ],
      "stateMutability": "view",
      "type": "function"
    },
    {
      "inputs": [],
      "name": "TRUSTED_ROLE",
      "outputs": [
        {
          "internalType": "bytes32",
          "name": "",
          "type": "bytes32"
        }
      ],
      "stateMutability": "view",
      "type": "function"
    },
    {
      "inputs": [],
      "name": "UNPAUSER_ROLE",
      "outputs": [
        {
          "internalType": "bytes32",
          "name": "",
          "type": "bytes32"
        }
      ],
      "stateMutability": "view",
      "type": "function"
    },
    {
      "inputs": [
        {
          "internalType": "address",
          "name": "token",
          "type": "address"
        },
        {
          "internalType": "uint256",
          "name": "amount",
          "type": "uint256"
        }
      ],
      "name": "_approve",
      "outputs": [],
      "stateMutability": "nonpayable",
      "type": "function"
    },
    {
      "inputs": [
        {
          "internalType": "bytes[]",
          "name": "_callDatas",
          "type": "bytes[]"
        }
      ],
      "name": "_call",
      "outputs": [],
      "stateMutability": "nonpayable",
      "type": "function"
    },
    {
      "inputs": [
        {
          "internalType": "address[]",
          "name": "destAddresses",
          "type": "address[]"
        },
        {
          "internalType": "bytes[]",
          "name": "_callDatas",
          "type": "bytes[]"
        }
      ],
      "name": "_multicastCall",
      "outputs": [],
      "stateMutability": "nonpayable",
      "type": "function"
    },
    {
      "inputs": [
        {
          "internalType": "uint256[]",
          "name": "quoteIds",
          "type": "uint256[]"
        },
        {
          "internalType": "uint256[]",
          "name": "amounts",
          "type": "uint256[]"
        },
        {
          "internalType": "uint256[]",
          "name": "prices",
          "type": "uint256[]"
        }
      ],
      "name": "adlClose",
      "outputs": [],
      "stateMutability": "nonpayable",
      "type": "function"
    },
    {
      "inputs": [
        {
          "internalType": "bytes32",
          "name": "role",
          "type": "bytes32"
        }
      ],
      "name": "getRoleAdmin",
      "outputs": [
        {
          "internalType": "bytes32",
          "name": "",
          "type": "bytes32"
        }
      ],
      "stateMutability": "view",
      "type": "function"
    },
    {
      "inputs": [
        {
          "internalType": "bytes32",
          "name": "role",
          "type": "bytes32"
        },
        {
          "internalType": "address",
          "name": "account",
          "type": "address"
        }
      ],
      "name": "grantRole",
      "outputs": [],
      "stateMutability": "nonpayable",
      "type": "function"
    },
    {
      "inputs": [
        {
          "internalType": "bytes32",
          "name": "role",
          "type": "bytes32"
        },
        {
          "internalType": "address",
          "name": "account",
          "type": "address"
        }
      ],
      "name": "hasRole",
      "outputs": [
        {
          "internalType": "bool",
          "name": "",
          "type": "bool"
        }
      ],
      "stateMutability": "view",
      "type": "function"
    },
    {
      "inputs": [
        {
          "internalType": "address",
          "name": "admin",
          "type": "address"
        },
        {
          "internalType": "address",
          "name": "symmioAddress_",
          "type": "address"
        }
      ],
      "name": "initialize",
      "outputs": [],
      "stateMutability": "nonpayable",
      "type": "function"
    },
    {
      "inputs": [
        {
          "internalType": "bytes32",
          "name": "hash",
          "type": "bytes32"
        },
        {
          "internalType": "bytes",
          "name": "signature",
          "type": "bytes"
        }
      ],
      "name": "isValidSignature",
      "outputs": [
        {
          "internalType": "bytes4",
          "name": "magicValue",
          "type": "bytes4"
        }
      ],
      "stateMutability": "view",
      "type": "function"
    },
    {
      "inputs": [
        {
          "internalType": "address",
          "name": "",
          "type": "address"
        }
      ],
      "name": "multicastWhitelist",
      "outputs": [
        {
          "internalType": "bool",
          "name": "",
          "type": "bool"
        }
      ],
      "stateMutability": "view",
      "type": "function"
    },
    {
      "inputs": [],
      "name": "pause",
      "outputs": [],
      "stateMutability": "nonpayable",
      "type": "function"
    },
    {
      "inputs": [],
      "name": "paused",
      "outputs": [
        {
          "internalType": "bool",
          "name": "",
          "type": "bool"
        }
      ],
      "stateMutability": "view",
      "type": "function"
    },
    {
      "inputs": [],
      "name": "proxiableUUID",
      "outputs": [
        {
          "internalType": "bytes32",
          "name": "",
          "type": "bytes32"
        }
      ],
      "stateMutability": "view",
      "type": "function"
    },
    {
      "inputs": [
        {
          "internalType": "bytes32",
          "name": "role",
          "type": "bytes32"
        },
        {
          "internalType": "address",
          "name": "account",
          "type": "address"
        }
      ],
      "name": "renounceRole",
      "outputs": [],
      "stateMutability": "nonpayable",
      "type": "function"
    },
    {
      "inputs": [
        {
          "internalType": "bytes4",
          "name": "",
          "type": "bytes4"
        }
      ],
      "name": "restrictedSelectors",
      "outputs": [
        {
          "internalType": "bool",
          "name": "",
          "type": "bool"
        }
      ],
      "stateMutability": "view",
      "type": "function"
    },
    {
      "inputs": [
        {
          "internalType": "bytes32",
          "name": "role",
          "type": "bytes32"
        },
        {
          "internalType": "address",
          "name": "account",
          "type": "address"
        }
      ],
      "name": "revokeRole",
      "outputs": [],
      "stateMutability": "nonpayable",
      "type": "function"
    },
    {
      "inputs": [
        {
          "internalType": "address",
          "name": "addr",
          "type": "address"
        },
        {
          "internalType": "bool",
          "name": "state",
          "type": "bool"
        }
      ],
      "name": "setMulticastWhitelist",
      "outputs": [],
      "stateMutability": "nonpayable",
      "type": "function"
    },
    {
      "inputs": [
        {
          "internalType": "bytes4",
          "name": "selector",
          "type": "bytes4"
        },
        {
          "internalType": "bool",
          "name": "state",
          "type": "bool"
        }
      ],
      "name": "setRestrictedSelector",
      "outputs": [],
      "stateMutability": "nonpayable",
      "type": "function"
    },
    {
      "inputs": [
        {
          "internalType": "address",
          "name": "_signer",
          "type": "address"
        }
      ],
      "name": "setSigner",
      "outputs": [],
      "stateMutability": "nonpayable",
      "type": "function"
    },
    {
      "inputs": [
        {
          "internalType": "address",
          "name": "addr",
          "type": "address"
        }
      ],
      "name": "setSymmioAddress",
      "outputs": [],
      "stateMutability": "nonpayable",
      "type": "function"
    },
    {
      "inputs": [],
      "name": "signer",
      "outputs": [
        {
          "internalType": "address",
          "name": "",
          "type": "address"
        }
      ],
      "stateMutability": "view",
      "type": "function"
    },
    {
      "inputs": [
        {
          "internalType": "bytes4",
          "name": "interfaceId",
          "type": "bytes4"
        }
      ],
      "name": "supportsInterface",
      "outputs": [
        {
          "internalType": "bool",
          "name": "",
          "type": "bool"
        }
      ],
      "stateMutability": "view",
      "type": "function"
    },
    {
      "inputs": [],
      "name": "symmioAddress",
      "outputs": [
        {
          "internalType": "address",
          "name": "",
          "type": "address"
        }
      ],
      "stateMutability": "view",
      "type": "function"
    },
    {
      "inputs": [],
      "name": "unpause",
      "outputs": [],
      "stateMutability": "nonpayable",
      "type": "function"
    },
    {
      "inputs": [
        {
          "internalType": "address",
          "name": "newImplementation",
          "type": "address"
        }
      ],
      "name": "upgradeTo",
      "outputs": [],
      "stateMutability": "nonpayable",
      "type": "function"
    },
    {
      "inputs": [
        {
          "internalType": "address",
          "name": "newImplementation",
          "type": "address"
        },
        {
          "internalType": "bytes",
          "name": "data",
          "type": "bytes"
        }
      ],
      "name": "upgradeToAndCall",
      "outputs": [],
      "stateMutability": "payable",
      "type": "function"
    },
    {
      "inputs": [
        {
          "internalType": "address",
          "name": "token",
          "type": "address"
        },
        {
          "internalType": "uint256",
          "name": "amount",
          "type": "uint256"
        }
      ],
      "name": "withdrawERC20",
      "outputs": [],
      "stateMutability": "nonpayable",
      "type": "function"
    }
  ],
  "bytecode": "0x60a06040523060805234801561001457600080fd5b5061001d610022565b6100e1565b600054610100900460ff161561008e5760405162461bcd60e51b815260206004820152602760248201527f496e697469616c697a61626c653a20636f6e747261637420697320696e697469604482015266616c697a696e6760c81b606482015260840160405180910390fd5b60005460ff908116146100df576000805460ff191660ff9081179091556040519081527f7f26b83ff96e1f2b6a682f133852f6798a09c465da95921460cefb38474024989060200160405180910390a15b565b60805161301c610118600039600081816108fd0152818161099301528181610c8601528181610d1c0152610e13015261301c6000f3fe6080604052600436106101fd5760003560e01c8063717bb2621161011d578063a217fddf116100b0578063e63ab1e91161007f578063edddc27311610064578063edddc27314610670578063f504fd59146106a1578063fb1bb9de146106c157600080fd5b8063e63ab1e914610608578063ec87621c1461063c57600080fd5b8063a217fddf14610593578063ca9d9c9d146105a8578063d37a8559146105c8578063d547741f146105e857600080fd5b80638456cb59116100ec5780638456cb59146104e457806391d14854146104f9578063a1db97821461053f578063a2011b3f1461055f57600080fd5b8063717bb262146104635780637278b28f146104835780637b7d7225146104a457806383aba1d3146104c457600080fd5b80633659cfe61161019557806352d1902d1161016457806352d1902d146103e25780635901692e146103f75780635c975abb1461042b5780636c19e7831461044357600080fd5b80633659cfe61461037a5780633f4ba83a1461039a578063485cc955146103af5780634f1ef286146103cf57600080fd5b8063238ac933116101d1578063238ac933146102c3578063248a9ca3146102fc5780632f2ff15d1461033a57806336568abe1461035a57600080fd5b8062fbc3551461020257806301569e3a1461024857806301ffc9a71461026a5780631626ba7e1461028a575b600080fd5b34801561020e57600080fd5b5061023361021d36600461291b565b61012f6020526000908152604090205460ff1681565b60405190151581526020015b60405180910390f35b34801561025457600080fd5b5061026861026336600461291b565b6106f5565b005b34801561027657600080fd5b5061023361028536600461294e565b610779565b34801561029657600080fd5b506102aa6102a5366004612a0f565b6107e2565b6040516001600160e01b0319909116815260200161023f565b3480156102cf57600080fd5b50610130546102e4906001600160a01b031681565b6040516001600160a01b03909116815260200161023f565b34801561030857600080fd5b5061032c610317366004612a56565b60009081526097602052604090206001015490565b60405190815260200161023f565b34801561034657600080fd5b50610268610355366004612a6f565b610838565b34801561036657600080fd5b50610268610375366004612a6f565b610862565b34801561038657600080fd5b5061026861039536600461291b565b6108f3565b3480156103a657600080fd5b50610268610a90565b3480156103bb57600080fd5b506102686103ca366004612a9b565b610ac2565b6102686103dd366004612ac5565b610c7c565b3480156103ee57600080fd5b5061032c610e06565b34801561040357600080fd5b5061032c7f2de84d9fbdf6d06e2cc584295043dbd76046423b9f8bae9426d4fa5e7c03f4a781565b34801561043757600080fd5b5060335460ff16610233565b34801561044f57600080fd5b5061026861045e36600461291b565b610ecb565b34801561046f57600080fd5b5061026861047e366004612b0b565b610f26565b34801561048f57600080fd5b5061012d546102e4906001600160a01b031681565b3480156104b057600080fd5b506102686104bf366004612b42565b611005565b3480156104d057600080fd5b506102686104df366004612b6c565b611114565b3480156104f057600080fd5b5061026861117d565b34801561050557600080fd5b50610233610514366004612a6f565b60009182526097602090815260408084206001600160a01b0393909316845291905290205460ff1690565b34801561054b57600080fd5b5061026861055a366004612b42565b6111af565b34801561056b57600080fd5b5061032c7f61c92169ef077349011ff0b1383c894d86c5f0b41d986366b58a6cf31e93beda81565b34801561059f57600080fd5b5061032c600081565b3480156105b457600080fd5b506102686105c3366004612bcd565b6112af565b3480156105d457600080fd5b506102686105e3366004612c0f565b611349565b3480156105f457600080fd5b50610268610603366004612a6f565b6116ed565b34801561061457600080fd5b5061032c7f65d7a28e3265b37a6474929f336521b332c1681b933f6cb9f3376673440d862a81565b34801561064857600080fd5b5061032c7f241ecf16d79d0f8dbfb92cbc07fe17840425976cf0667f022fe9877caa831b0881565b34801561067c57600080fd5b5061023361068b36600461294e565b61012e6020526000908152604090205460ff1681565b3480156106ad57600080fd5b506102686106bc366004612cb5565b611712565b3480156106cd57600080fd5b5061032c7f427da25fe773164f88948d3e215c94b6554e2ed5e5f203a821c9f2f6131cf75a81565b6000610700816117f8565b61012d54604080516001600160a01b03928316815291841660208301527ff78ccdf5924090b2ab6627ac5da4ec5affed73d47c6bc6c8a4620a0d5ed57bc8910160405180910390a15061012d805473ffffffffffffffffffffffffffffffffffffffff19166001600160a01b0392909216919091179055565b60006001600160e01b031982167f7965db0b0000000000000000000000000000000000000000000000000000000014806107dc57507f01ffc9a7000000000000000000000000000000000000000000000000000000006001600160e01b03198316145b92915050565b610130546000906107fd906001600160a01b03168484611802565b61080f576001600160e01b0319610831565b7f1626ba7e000000000000000000000000000000000000000000000000000000005b9392505050565b600082815260976020526040902060010154610853816117f8565b61085d8383611863565b505050565b6001600160a01b03811633146108e55760405162461bcd60e51b815260206004820152602f60248201527f416363657373436f6e74726f6c3a2063616e206f6e6c792072656e6f756e636560448201527f20726f6c657320666f722073656c66000000000000000000000000000000000060648201526084015b60405180910390fd5b6108ef8282611905565b5050565b6001600160a01b037f00000000000000000000000000000000000000000000000000000000000000001630036109915760405162461bcd60e51b815260206004820152602c60248201527f46756e6374696f6e206d7573742062652063616c6c6564207468726f7567682060448201527f64656c656761746563616c6c000000000000000000000000000000000000000060648201526084016108dc565b7f00000000000000000000000000000000000000000000000000000000000000006001600160a01b03166109ec7f360894a13ba1a3210667c828492db98dca3e2076cc3735a920a3ca505d382bbc546001600160a01b031690565b6001600160a01b031614610a685760405162461bcd60e51b815260206004820152602c60248201527f46756e6374696f6e206d7573742062652063616c6c6564207468726f7567682060448201527f6163746976652070726f7879000000000000000000000000000000000000000060648201526084016108dc565b610a7181611988565b60408051600080825260208201909252610a8d91839190611993565b50565b7f427da25fe773164f88948d3e215c94b6554e2ed5e5f203a821c9f2f6131cf75a610aba816117f8565b610a8d611b33565b600054610100900460ff1615808015610ae25750600054600160ff909116105b80610afc5750303b158015610afc575060005460ff166001145b610b6e5760405162461bcd60e51b815260206004820152602e60248201527f496e697469616c697a61626c653a20636f6e747261637420697320616c72656160448201527f647920696e697469616c697a656400000000000000000000000000000000000060648201526084016108dc565b6000805460ff191660011790558015610b91576000805461ff0019166101001790555b610b99611b85565b610ba1611c0c565b610ba9611c0c565b610bb4600084611863565b610bde7f2de84d9fbdf6d06e2cc584295043dbd76046423b9f8bae9426d4fa5e7c03f4a784611863565b610c087f241ecf16d79d0f8dbfb92cbc07fe17840425976cf0667f022fe9877caa831b0884611863565b61012d805473ffffffffffffffffffffffffffffffffffffffff19166001600160a01b038416179055801561085d576000805461ff0019169055604051600181527f7f26b83ff96e1f2b6a682f133852f6798a09c465da95921460cefb3847402498906020015b60405180910390a1505050565b6001600160a01b037f0000000000000000000000000000000000000000000000000000000000000000163003610d1a5760405162461bcd60e51b815260206004820152602c60248201527f46756e6374696f6e206d7573742062652063616c6c6564207468726f7567682060448201527f64656c656761746563616c6c000000000000000000000000000000000000000060648201526084016108dc565b7f00000000000000000000000000000000000000000000000000000000000000006001600160a01b0316610d757f360894a13ba1a3210667c828492db98dca3e2076cc3735a920a3ca505d382bbc546001600160a01b031690565b6001600160a01b031614610df15760405162461bcd60e51b815260206004820152602c60248201527f46756e6374696f6e206d7573742062652063616c6c6564207468726f7567682060448201527f6163746976652070726f7879000000000000000000000000000000000000000060648201526084016108dc565b610dfa82611988565b6108ef82826001611993565b6000306001600160a01b037f00000000000000000000000000000000000000000000000000000000000000001614610ea65760405162461bcd60e51b815260206004820152603860248201527f555550535570677261646561626c653a206d757374206e6f742062652063616c60448201527f6c6564207468726f7567682064656c656761746563616c6c000000000000000060648201526084016108dc565b507f360894a13ba1a3210667c828492db98dca3e2076cc3735a920a3ca505d382bbc90565b7f61c92169ef077349011ff0b1383c894d86c5f0b41d986366b58a6cf31e93beda610ef5816117f8565b50610130805473ffffffffffffffffffffffffffffffffffffffff19166001600160a01b0392909216919091179055565b7f241ecf16d79d0f8dbfb92cbc07fe17840425976cf0667f022fe9877caa831b08610f50816117f8565b306001600160a01b03841603610fa85760405162461bcd60e51b815260206004820152601d60248201527f53796d6d696f5061727479423a20496e76616c6964206164647265737300000060448201526064016108dc565b6001600160a01b038316600081815261012f6020908152604091829020805460ff19168615159081179091558251938452908301527ff776d871534c4177eb3ea09ad170db249e5c7057ff18ddf26992d18459a904b19101610c6f565b7f2de84d9fbdf6d06e2cc584295043dbd76046423b9f8bae9426d4fa5e7c03f4a761102f816117f8565b611037611c89565b61012d546040517f095ea7b30000000000000000000000000000000000000000000000000000000081526001600160a01b039182166004820152602481018490529084169063095ea7b3906044016020604051808303816000875af11580156110a4573d6000803e3d6000fd5b505050506040513d601f19601f820116820180604052508101906110c89190612d26565b61085d5760405162461bcd60e51b815260206004820152601a60248201527f53796d6d696f5061727479423a204e6f7420617070726f76656400000000000060448201526064016108dc565b600061111f816117f8565b6001600160e01b03198316600081815261012e6020908152604091829020805460ff19168615159081179091558251938452908301527f3b438b04c48041000349f30457a15358332ec96233735f9bc289621aa82fb7759101610c6f565b7f65d7a28e3265b37a6474929f336521b332c1681b933f6cb9f3376673440d862a6111a7816117f8565b610a8d611cdc565b7f241ecf16d79d0f8dbfb92cbc07fe17840425976cf0667f022fe9877caa831b086111d9816117f8565b6040517fa9059cbb000000000000000000000000000000000000000000000000000000008152336004820152602481018390526001600160a01b0384169063a9059cbb906044016020604051808303816000875af115801561123f573d6000803e3d6000fd5b505050506040513d601f19601f820116820180604052508101906112639190612d26565b61085d5760405162461bcd60e51b815260206004820152601d60248201527f53796d6d696f5061727479423a204e6f74207472616e7366657272656400000060448201526064016108dc565b6112b7611c89565b60005b60ff811682111561085d5761012d54611337906001600160a01b0316848460ff85168181106112eb576112eb612d43565b90506020028101906112fd9190612d59565b8080601f016020809104026020016040519081016040528093929190818152602001838380828437600092019190915250611d1992505050565b8061134181612dd4565b9150506112ba565b611351611c89565b84838114801561136057508181145b6113d25760405162461bcd60e51b815260206004820152602360248201527f53796d6d696f5061727479423a204172726179206c656e677468206d69736d6160448201527f746368000000000000000000000000000000000000000000000000000000000060648201526084016108dc565b61012d546001600160a01b031661142b5760405162461bcd60e51b815260206004820152601d60248201527f53796d6d696f5061727479423a20496e76616c6964206164647265737300000060448201526064016108dc565b3360009081527fd3dcd7dc58e3b6c497be50df5a3ad068b6e0acc697d498ce82a40e016edc5e8a602052604090205460ff168061149657503360009081527f2b695040062d682c5f383fc121d3529271110663a7876b561e44e93485577d13602052604090205460ff165b80611514575061012d60009054906101000a90046001600160a01b03166001600160a01b03166367aa6fea6040518163ffffffff1660e01b8152600401602060405180830381865afa1580156114f0573d6000803e3d6000fd5b505050506040513d601f19601f820116820180604052508101906115149190612d26565b6115605760405162461bcd60e51b815260206004820152601c60248201527f53796d6d696f5061727479423a20496e76616c6964206163636573730000000060448201526064016108dc565b60005b818110156116e35761012d546001600160a01b0316632586992989898481811061158f5761158f612d43565b905060200201358888858181106115a8576115a8612d43565b905060200201358787868181106115c1576115c1612d43565b6040516001600160e01b031960e088901b1681526004810195909552602485019390935250602090910201356044820152606401600060405180830381600087803b15801561160f57600080fd5b505af1925050508015611620575060015b6116db573d80801561164e576040519150601f19603f3d011682016040523d82523d6000602084013e611653565b606091505b507fe474d30861954963e2430d1eb30ee3d32920f7afa7ff8fce00044373a259abf089898481811061168757611687612d43565b905060200201358888858181106116a0576116a0612d43565b905060200201358787868181106116b9576116b9612d43565b90506020020135846040516116d19493929190612e43565b60405180910390a1505b600101611563565b5050505050505050565b600082815260976020526040902060010154611708816117f8565b61085d8383611905565b61171a611c89565b82811461178f5760405162461bcd60e51b815260206004820152602360248201527f53796d6d696f5061727479423a204172726179206c656e677468206d69736d6160448201527f746368000000000000000000000000000000000000000000000000000000000060648201526084016108dc565b60005b60ff81168211156117f1576117df85858360ff168181106117b5576117b5612d43565b90506020020160208101906117ca919061291b565b84848460ff168181106112eb576112eb612d43565b806117e981612dd4565b915050611792565b5050505050565b610a8d81336120ed565b60008060006118118585612162565b9092509050600081600481111561182a5761182a612e68565b1480156118485750856001600160a01b0316826001600160a01b0316145b8061185957506118598686866121a7565b9695505050505050565b60008281526097602090815260408083206001600160a01b038516845290915290205460ff166108ef5760008281526097602090815260408083206001600160a01b03851684529091529020805460ff191660011790556118c13390565b6001600160a01b0316816001600160a01b0316837f2f8788117e7eff1d82e926ec794901d17c78024a50270940304540a733656f0d60405160405180910390a45050565b60008281526097602090815260408083206001600160a01b038516845290915290205460ff16156108ef5760008281526097602090815260408083206001600160a01b0385168085529252808320805460ff1916905551339285917ff6391f5c32d9c69d2a47ea670b442974b53935d1edc7fd64eb21e047a839171b9190a45050565b60006108ef816117f8565b7f4910fdfa16fed3260ed0e7147f7cc6da11a60208b5b9406d12a635614ffd91435460ff16156119c65761085d836122c1565b826001600160a01b03166352d1902d6040518163ffffffff1660e01b8152600401602060405180830381865afa925050508015611a20575060408051601f3d908101601f19168201909252611a1d91810190612e7e565b60015b611a925760405162461bcd60e51b815260206004820152602e60248201527f45524331393637557067726164653a206e657720696d706c656d656e7461746960448201527f6f6e206973206e6f74205555505300000000000000000000000000000000000060648201526084016108dc565b7f360894a13ba1a3210667c828492db98dca3e2076cc3735a920a3ca505d382bbc8114611b275760405162461bcd60e51b815260206004820152602960248201527f45524331393637557067726164653a20756e737570706f727465642070726f7860448201527f6961626c6555554944000000000000000000000000000000000000000000000060648201526084016108dc565b5061085d83838361238c565b611b3b6123b1565b6033805460ff191690557f5db9ee0a495bf2e6ff9c91a7834c1ba4fdd244a5e8aa4e537bd38aeae4b073aa335b6040516001600160a01b03909116815260200160405180910390a1565b600054610100900460ff16611c025760405162461bcd60e51b815260206004820152602b60248201527f496e697469616c697a61626c653a20636f6e7472616374206973206e6f74206960448201527f6e697469616c697a696e6700000000000000000000000000000000000000000060648201526084016108dc565b611c0a612403565b565b600054610100900460ff16611c0a5760405162461bcd60e51b815260206004820152602b60248201527f496e697469616c697a61626c653a20636f6e7472616374206973206e6f74206960448201527f6e697469616c697a696e6700000000000000000000000000000000000000000060648201526084016108dc565b60335460ff1615611c0a5760405162461bcd60e51b815260206004820152601060248201527f5061757361626c653a207061757365640000000000000000000000000000000060448201526064016108dc565b611ce4611c89565b6033805460ff191660011790557f62e78cea01bee320cd4e420270b5ea74000d11b0c9f74754ebdbfc544b05a258611b683390565b6001600160a01b038216611d6f5760405162461bcd60e51b815260206004820152601d60248201527f53796d6d696f5061727479423a20496e76616c6964206164647265737300000060448201526064016108dc565b600481511015611dc15760405162461bcd60e51b815260206004820152601f60248201527f53796d6d696f5061727479423a20496e76616c69642063616c6c20646174610060448201526064016108dc565b61012d546001600160a01b0390811690831603611f6c576020818101516001600160e01b03198116600090815261012e90925260409091205460ff1615611e3157611e2c7f241ecf16d79d0f8dbfb92cbc07fe17840425976cf0667f022fe9877caa831b08336120ed565b611f66565b3360009081527fd3dcd7dc58e3b6c497be50df5a3ad068b6e0acc697d498ce82a40e016edc5e8a602052604090205460ff1680611e9c57503360009081527f2b695040062d682c5f383fc121d3529271110663a7876b561e44e93485577d13602052604090205460ff165b80611f1a575061012d60009054906101000a90046001600160a01b03166001600160a01b03166367aa6fea6040518163ffffffff1660e01b8152600401602060405180830381865afa158015611ef6573d6000803e3d6000fd5b505050506040513d601f19601f82011682018060405250810190611f1a9190612d26565b611f665760405162461bcd60e51b815260206004820152601c60248201527f53796d6d696f5061727479423a20496e76616c6964206163636573730000000060448201526064016108dc565b50612025565b6001600160a01b038216600090815261012f602052604090205460ff16611ffb5760405162461bcd60e51b815260206004820152603460248201527f53796d6d696f5061727479423a2044657374696e6174696f6e2061646472657360448201527f73206973206e6f742077686974656c697374656400000000000000000000000060648201526084016108dc565b6120257f2de84d9fbdf6d06e2cc584295043dbd76046423b9f8bae9426d4fa5e7c03f4a7336120ed565b600080836001600160a01b03166000846040516120429190612e97565b60006040518083038185875af1925050503d806000811461207f576040519150601f19603f3d011682016040523d82523d6000602084013e612084565b606091505b5091509150816120e75780516000036120df5760405162461bcd60e51b815260206004820181905260248201527f53796d6d696f5061727479423a20457865637574696f6e20726576657274656460448201526064016108dc565b805160208201fd5b50505050565b60008281526097602090815260408083206001600160a01b038516845290915290205460ff166108ef576121208161248c565b61212b83602061249e565b60405160200161213c929190612eb3565b60408051601f198184030181529082905262461bcd60e51b82526108dc91600401612f34565b60008082516041036121985760208301516040840151606085015160001a61218c878285856126c7565b945094505050506121a0565b506000905060025b9250929050565b6000806000856001600160a01b0316631626ba7e60e01b86866040516024016121d1929190612f47565b60408051601f198184030181529181526020820180517bffffffffffffffffffffffffffffffffffffffffffffffffffffffff166001600160e01b03199094169390931790925290516122249190612e97565b600060405180830381855afa9150503d806000811461225f576040519150601f19603f3d011682016040523d82523d6000602084013e612264565b606091505b509150915081801561227857506020815110155b8015611859575080517f1626ba7e00000000000000000000000000000000000000000000000000000000906122b69083016020908101908401612e7e565b149695505050505050565b6001600160a01b0381163b61233e5760405162461bcd60e51b815260206004820152602d60248201527f455243313936373a206e657720696d706c656d656e746174696f6e206973206e60448201527f6f74206120636f6e74726163740000000000000000000000000000000000000060648201526084016108dc565b7f360894a13ba1a3210667c828492db98dca3e2076cc3735a920a3ca505d382bbc805473ffffffffffffffffffffffffffffffffffffffff19166001600160a01b0392909216919091179055565b6123958361278b565b6000825111806123a25750805b1561085d576120e783836127cb565b60335460ff16611c0a5760405162461bcd60e51b815260206004820152601460248201527f5061757361626c653a206e6f742070617573656400000000000000000000000060448201526064016108dc565b600054610100900460ff166124805760405162461bcd60e51b815260206004820152602b60248201527f496e697469616c697a61626c653a20636f6e7472616374206973206e6f74206960448201527f6e697469616c697a696e6700000000000000000000000000000000000000000060648201526084016108dc565b6033805460ff19169055565b60606107dc6001600160a01b03831660145b606060006124ad836002612f60565b6124b8906002612f77565b67ffffffffffffffff8111156124d0576124d0612969565b6040519080825280601f01601f1916602001820160405280156124fa576020820181803683370190505b5090507f30000000000000000000000000000000000000000000000000000000000000008160008151811061253157612531612d43565b60200101907effffffffffffffffffffffffffffffffffffffffffffffffffffffffffffff1916908160001a9053507f78000000000000000000000000000000000000000000000000000000000000008160018151811061259457612594612d43565b60200101907effffffffffffffffffffffffffffffffffffffffffffffffffffffffffffff1916908160001a90535060006125d0846002612f60565b6125db906001612f77565b90505b6001811115612678577f303132333435363738396162636465660000000000000000000000000000000085600f166010811061261c5761261c612d43565b1a60f81b82828151811061263257612632612d43565b60200101907effffffffffffffffffffffffffffffffffffffffffffffffffffffffffffff1916908160001a90535060049490941c9361267181612f8a565b90506125de565b5083156108315760405162461bcd60e51b815260206004820181905260248201527f537472696e67733a20686578206c656e67746820696e73756666696369656e7460448201526064016108dc565b6000807f7fffffffffffffffffffffffffffffff5d576e7357a4501ddfe92f46681b20a08311156126fe5750600090506003612782565b6040805160008082526020820180845289905260ff881692820192909252606081018690526080810185905260019060a0016020604051602081039080840390855afa158015612752573d6000803e3d6000fd5b5050604051601f1901519150506001600160a01b03811661277b57600060019250925050612782565b9150600090505b94509492505050565b612794816122c1565b6040516001600160a01b038216907fbc7cd75a20ee27fd9adebab32041f755214dbc6bffa90cc0225b39da2e5c2d3b90600090a250565b60606108318383604051806060016040528060278152602001612fc0602791396060600080856001600160a01b0316856040516128089190612e97565b600060405180830381855af49150503d8060008114612843576040519150601f19603f3d011682016040523d82523d6000602084013e612848565b606091505b509150915061185986838387606083156128c35782516000036128bc576001600160a01b0385163b6128bc5760405162461bcd60e51b815260206004820152601d60248201527f416464726573733a2063616c6c20746f206e6f6e2d636f6e747261637400000060448201526064016108dc565b50816128cd565b6128cd83836128d5565b949350505050565b8151156128e55781518083602001fd5b8060405162461bcd60e51b81526004016108dc9190612f34565b80356001600160a01b038116811461291657600080fd5b919050565b60006020828403121561292d57600080fd5b610831826128ff565b80356001600160e01b03198116811461291657600080fd5b60006020828403121561296057600080fd5b61083182612936565b634e487b7160e01b600052604160045260246000fd5b600082601f83011261299057600080fd5b813567ffffffffffffffff8111156129aa576129aa612969565b604051601f19603f601f19601f8501160116810181811067ffffffffffffffff821117156129da576129da612969565b6040528181528382016020018510156129f257600080fd5b816020850160208301376000918101602001919091529392505050565b60008060408385031215612a2257600080fd5b82359150602083013567ffffffffffffffff811115612a4057600080fd5b612a4c8582860161297f565b9150509250929050565b600060208284031215612a6857600080fd5b5035919050565b60008060408385031215612a8257600080fd5b82359150612a92602084016128ff565b90509250929050565b60008060408385031215612aae57600080fd5b612ab7836128ff565b9150612a92602084016128ff565b60008060408385031215612ad857600080fd5b612ae1836128ff565b9150602083013567ffffffffffffffff811115612a4057600080fd5b8015158114610a8d57600080fd5b60008060408385031215612b1e57600080fd5b612b27836128ff565b91506020830135612b3781612afd565b809150509250929050565b60008060408385031215612b5557600080fd5b612b5e836128ff565b946020939093013593505050565b60008060408385031215612b7f57600080fd5b612b2783612936565b60008083601f840112612b9a57600080fd5b50813567ffffffffffffffff811115612bb257600080fd5b6020830191508360208260051b85010111156121a057600080fd5b60008060208385031215612be057600080fd5b823567ffffffffffffffff811115612bf757600080fd5b612c0385828601612b88565b90969095509350505050565b60008060008060008060608789031215612c2857600080fd5b863567ffffffffffffffff811115612c3f57600080fd5b612c4b89828a01612b88565b909750955050602087013567ffffffffffffffff811115612c6b57600080fd5b612c7789828a01612b88565b909550935050604087013567ffffffffffffffff811115612c9757600080fd5b612ca389828a01612b88565b979a9699509497509295939492505050565b60008060008060408587031215612ccb57600080fd5b843567ffffffffffffffff811115612ce257600080fd5b612cee87828801612b88565b909550935050602085013567ffffffffffffffff811115612d0e57600080fd5b612d1a87828801612b88565b95989497509550505050565b600060208284031215612d3857600080fd5b815161083181612afd565b634e487b7160e01b600052603260045260246000fd5b60008083357fffffffffffffffffffffffffffffffffffffffffffffffffffffffffffffffe1843603018112612d8e57600080fd5b83018035915067ffffffffffffffff821115612da957600080fd5b6020019150368190038213156121a057600080fd5b634e487b7160e01b600052601160045260246000fd5b600060ff821660ff8103612dea57612dea612dbe565b60010192915050565b60005b83811015612e0e578181015183820152602001612df6565b50506000910152565b60008151808452612e2f816020860160208601612df3565b601f01601f19169290920160200192915050565b8481528360208201528260408201526080606082015260006118596080830184612e17565b634e487b7160e01b600052602160045260246000fd5b600060208284031215612e9057600080fd5b5051919050565b60008251612ea9818460208701612df3565b9190910192915050565b7f416363657373436f6e74726f6c3a206163636f756e7420000000000000000000815260008351612eeb816017850160208801612df3565b7f206973206d697373696e6720726f6c65200000000000000000000000000000006017918401918201528351612f28816028840160208801612df3565b01602801949350505050565b6020815260006108316020830184612e17565b8281526040602082015260006128cd6040830184612e17565b80820281158282048414176107dc576107dc612dbe565b808201808211156107dc576107dc612dbe565b600081612f9957612f99612dbe565b507fffffffffffffffffffffffffffffffffffffffffffffffffffffffffffffffff019056fe416464726573733a206c6f772d6c6576656c2064656c65676174652063616c6c206661696c6564a264697066735822122083ffa6fa1c2c98524b45c5fe0ec72f0ef37fa32a2f2ae552be600b430859883e64736f6c634300081c0033",
  "linkReferences": {},
  "deployedLinkReferences": {}
}