{
  "_format": "hh-sol-artifact-1",
  "contractName": "SymmioPartyB",
  "sourceName": "contracts/solver/SymmioPartyB.sol",
  "abi": [
    {
      "inputs": [],
      "stateMutability": "nonpayable",
      "type": "constructor"
    },
    {
      "anonymous": false,
      "inputs": [
        {
          "indexed": false,
          "internalType": "uint256",
          "name": "quoteId",
          "type": "uint256"
        },
        {
          "indexed": false,
          "internalType": "uint256",
          "name": "amount",
          "type": "uint256"
        },
        {
          "indexed": false,
          "internalType": "uint256",
          "name": "price",
          "type": "uint256"
        },
        {
          "indexed": false,
          "internalType": "bytes",
          "name": "revertData",
          "type": "bytes"
        }
      ],
      "name": "ADLSkip",
      "type": "event"
    },
    {
      "anonymous": false,
      "inputs": [
        {
          "indexed": false,
          "internalType": "address",
          "name": "previousAdmin",
          "type": "address"
        },
        {
          "indexed": false,
          "internalType": "address",
          "name": "newAdmin",
          "type": "address"
        }
      ],
      "name": "AdminChanged",
      "type": "event"
    },
    {
      "anonymous": false,
      "inputs": [
        {
          "indexed": true,
          "internalType": "address",
          "name": "beacon",
          "type": "address"
        }
      ],
      "name": "BeaconUpgraded",
      "type": "event"
    },
    {
      "anonymous": false,
      "inputs": [
        {
          "indexed": false,
          "internalType": "uint8",
          "name": "version",
          "type": "uint8"
        }
      ],
      "name": "Initialized",
      "type": "event"
    },
    {
      "anonymous": false,
      "inputs": [
        {
          "indexed": false,
          "internalType": "address",
          "name": "account",
          "type": "address"
        }
      ],
      "name": "Paused",
      "type": "event"
    },
    {
      "anonymous": false,
      "inputs": [
        {
          "indexed": true,
          "internalType": "bytes32",
          "name": "role",
          "type": "bytes32"
        },
        {
          "indexed": true,
          "internalType": "bytes32",
          "name": "previousAdminRole",
          "type": "bytes32"
        },
        {
          "indexed": true,
          "internalType": "bytes32",
          "name": "newAdminRole",
          "type": "bytes32"
        }
      ],
      "name": "RoleAdminChanged",
      "type": "event"
    },
    {
      "anonymous": false,
      "inputs": [
        {
          "indexed": true,
          "internalType": "bytes32",
          "name": "role",
          "type": "bytes32"
        },
        {
          "indexed": true,
          "internalType": "address",
          "name": "account",
          "type": "address"
        },
        {
          "indexed": true,
          "internalType": "address",
          "name": "sender",
          "type": "address"
        }
      ],
      "name": "RoleGranted",
      "type": "event"
    },
    {
      "anonymous": false,
      "inputs": [
        {
          "indexed": true,
          "internalType": "bytes32",
          "name": "role",
          "type": "bytes32"
        },
        {
          "indexed": true,
          "internalType": "address",
          "name": "account",
          "type": "address"
        },
        {
          "indexed": true,
          "internalType": "address",
          "name": "sender",
          "type": "address"
        }
      ],
      "name": "RoleRevoked",
      "type": "event"
    },
    {
      "anonymous": false,
      "inputs": [
        {
          "indexed": false,
          "internalType": "address",
          "name": "addr",
          "type": "address"
        },
        {
          "indexed": false,
          "internalType": "bool",
          "name": "state",
          "type": "bool"
        }
      ],
      "name": "SetMulticastWhitelist",
      "type": "event"
    },
    {
      "anonymous": false,
      "inputs": [
        {
          "indexed": false,
          "internalType": "bytes4",
          "name": "selector",
          "type": "bytes4"
        },
        {
          "indexed": false,
          "internalType": "bool",
          "name": "state",
          "type": "bool"
        }
      ],
      "name": "SetRestrictedSelector",
      "type": "event"
    },
    {
      "anonymous": false,
      "inputs": [
        {
          "indexed": false,
          "internalType": "address",
          "name": "oldSymmioAddress",
          "type": "address"
        },
        {
          "indexed": false,
          "internalType": "address",
          "name": "newSymmioAddress",
          "type": "address"
        }
      ],
      "name": "SetSymmioAddress",
      "type": "event"
    },
    {
      "anonymous": false,
      "inputs": [
        {
          "indexed": false,
          "internalType": "address",
          "name": "account",
          "type": "address"
        }
      ],
      "name": "Unpaused",
      "type": "event"
    },
    {
      "anonymous": false,
      "inputs": [
        {
          "indexed": true,
          "internalType": "address",
          "name": "implementation",
          "type": "address"
        }
      ],
      "name": "Upgraded",
      "type": "event"
    },
    {
      "inputs": [],
      "name": "DEFAULT_ADMIN_ROLE",
      "outputs": [
        {
          "internalType": "bytes32",
          "name": "",
          "type": "bytes32"
        }
      ],
      "stateMutability": "view",
      "type": "function"
    },
    {
      "inputs": [],
      "name": "MANAGER_ROLE",
      "outputs": [
        {
          "internalType": "bytes32",
          "name": "",
          "type": "bytes32"
        }
      ],
      "stateMutability": "view",
      "type": "function"
    },
    {
      "inputs": [],
      "name": "PAUSER_ROLE",
      "outputs": [
        {
          "internalType": "bytes32",
          "name": "",
          "type": "bytes32"
        }
      ],
      "stateMutability": "view",
      "type": "function"
    },
    {
      "inputs": [],
      "name": "SETTER_ROLE",
      "outputs": [
        {
          "internalType": "bytes32",
          "name": "",
          "type": "bytes32"
        }
      ],
      "stateMutability": "view",
      "type": "function"
    },
    {
      "inputs": [],
      "name": "TRUSTED_ROLE",
      "outputs": [
        {
          "internalType": "bytes32",
          "name": "",
          "type": "bytes32"
        }
      ],
      "stateMutability": "view",
      "type": "function"
    },
    {
      "inputs": [],
      "name": "UNPAUSER_ROLE",
      "outputs": [
        {
          "internalType": "bytes32",
          "name": "",
          "type": "bytes32"
        }
      ],
      "stateMutability": "view",
      "type": "function"
    },
    {
      "inputs": [
        {
          "internalType": "address",
          "name": "token",
          "type": "address"
        },
        {
          "internalType": "uint256",
          "name": "amount",
          "type": "uint256"
        }
      ],
      "name": "_approve",
      "outputs": [],
      "stateMutability": "nonpayable",
      "type": "function"
    },
    {
      "inputs": [
        {
          "internalType": "bytes[]",
          "name": "_callDatas",
          "type": "bytes[]"
        }
      ],
      "name": "_call",
      "outputs": [],
      "stateMutability": "nonpayable",
      "type": "function"
    },
    {
      "inputs": [
        {
          "internalType": "address[]",
          "name": "destAddresses",
          "type": "address[]"
        },
        {
          "internalType": "bytes[]",
          "name": "_callDatas",
          "type": "bytes[]"
        }
      ],
      "name": "_multicastCall",
      "outputs": [],
      "stateMutability": "nonpayable",
      "type": "function"
    },
    {
      "inputs": [
        {
          "internalType": "uint256[]",
          "name": "quoteIds",
          "type": "uint256[]"
        },
        {
          "internalType": "uint256[]",
          "name": "amounts",
          "type": "uint256[]"
        },
        {
          "internalType": "uint256[]",
          "name": "prices",
          "type": "uint256[]"
        }
      ],
      "name": "adlClose",
      "outputs": [],
      "stateMutability": "nonpayable",
      "type": "function"
    },
    {
      "inputs": [
        {
          "internalType": "bytes32",
          "name": "role",
          "type": "bytes32"
        }
      ],
      "name": "getRoleAdmin",
      "outputs": [
        {
          "internalType": "bytes32",
          "name": "",
          "type": "bytes32"
        }
      ],
      "stateMutability": "view",
      "type": "function"
    },
    {
      "inputs": [
        {
          "internalType": "bytes32",
          "name": "role",
          "type": "bytes32"
        },
        {
          "internalType": "address",
          "name": "account",
          "type": "address"
        }
      ],
      "name": "grantRole",
      "outputs": [],
      "stateMutability": "nonpayable",
      "type": "function"
    },
    {
      "inputs": [
        {
          "internalType": "bytes32",
          "name": "role",
          "type": "bytes32"
        },
        {
          "internalType": "address",
          "name": "account",
          "type": "address"
        }
      ],
      "name": "hasRole",
      "outputs": [
        {
          "internalType": "bool",
          "name": "",
          "type": "bool"
        }
      ],
      "stateMutability": "view",
      "type": "function"
    },
    {
      "inputs": [
        {
          "internalType": "address",
          "name": "admin",
          "type": "address"
        },
        {
          "internalType": "address",
          "name": "multisig_",
          "type": "address"
        },
        {
          "internalType": "address",
          "name": "symmioAddress_",
          "type": "address"
        }
      ],
      "name": "initialize",
      "outputs": [],
      "stateMutability": "nonpayable",
      "type": "function"
    },
    {
      "inputs": [
        {
          "internalType": "bytes32",
          "name": "hash",
          "type": "bytes32"
        },
        {
          "internalType": "bytes",
          "name": "signature",
          "type": "bytes"
        }
      ],
      "name": "isValidSignature",
      "outputs": [
        {
          "internalType": "bytes4",
          "name": "magicValue",
          "type": "bytes4"
        }
      ],
      "stateMutability": "view",
      "type": "function"
    },
    {
      "inputs": [
        {
          "internalType": "address",
          "name": "",
          "type": "address"
        }
      ],
      "name": "multicastWhitelist",
      "outputs": [
        {
          "internalType": "bool",
          "name": "",
          "type": "bool"
        }
      ],
      "stateMutability": "view",
      "type": "function"
    },
    {
      "inputs": [],
      "name": "pause",
      "outputs": [],
      "stateMutability": "nonpayable",
      "type": "function"
    },
    {
      "inputs": [],
      "name": "paused",
      "outputs": [
        {
          "internalType": "bool",
          "name": "",
          "type": "bool"
        }
      ],
      "stateMutability": "view",
      "type": "function"
    },
    {
      "inputs": [],
      "name": "proxiableUUID",
      "outputs": [
        {
          "internalType": "bytes32",
          "name": "",
          "type": "bytes32"
        }
      ],
      "stateMutability": "view",
      "type": "function"
    },
    {
      "inputs": [
        {
          "internalType": "bytes32",
          "name": "role",
          "type": "bytes32"
        },
        {
          "internalType": "address",
          "name": "account",
          "type": "address"
        }
      ],
      "name": "renounceRole",
      "outputs": [],
      "stateMutability": "nonpayable",
      "type": "function"
    },
    {
      "inputs": [
        {
          "internalType": "bytes4",
          "name": "",
          "type": "bytes4"
        }
      ],
      "name": "restrictedSelectors",
      "outputs": [
        {
          "internalType": "bool",
          "name": "",
          "type": "bool"
        }
      ],
      "stateMutability": "view",
      "type": "function"
    },
    {
      "inputs": [
        {
          "internalType": "bytes32",
          "name": "role",
          "type": "bytes32"
        },
        {
          "internalType": "address",
          "name": "account",
          "type": "address"
        }
      ],
      "name": "revokeRole",
      "outputs": [],
      "stateMutability": "nonpayable",
      "type": "function"
    },
    {
      "inputs": [
        {
          "internalType": "address",
          "name": "addr",
          "type": "address"
        },
        {
          "internalType": "bool",
          "name": "state",
          "type": "bool"
        }
      ],
      "name": "setMulticastWhitelist",
      "outputs": [],
      "stateMutability": "nonpayable",
      "type": "function"
    },
    {
      "inputs": [
        {
          "internalType": "bytes4",
          "name": "selector",
          "type": "bytes4"
        },
        {
          "internalType": "bool",
          "name": "state",
          "type": "bool"
        }
      ],
      "name": "setRestrictedSelector",
      "outputs": [],
      "stateMutability": "nonpayable",
      "type": "function"
    },
    {
      "inputs": [
        {
          "internalType": "address",
          "name": "_signer",
          "type": "address"
        }
      ],
      "name": "setSigner",
      "outputs": [],
      "stateMutability": "nonpayable",
      "type": "function"
    },
    {
      "inputs": [
        {
          "internalType": "address",
          "name": "addr",
          "type": "address"
        }
      ],
      "name": "setSymmioAddress",
      "outputs": [],
      "stateMutability": "nonpayable",
      "type": "function"
    },
    {
      "inputs": [],
      "name": "signer",
      "outputs": [
        {
          "internalType": "address",
          "name": "",
          "type": "address"
        }
      ],
      "stateMutability": "view",
      "type": "function"
    },
    {
      "inputs": [
        {
          "internalType": "bytes4",
          "name": "interfaceId",
          "type": "bytes4"
        }
      ],
      "name": "supportsInterface",
      "outputs": [
        {
          "internalType": "bool",
          "name": "",
          "type": "bool"
        }
      ],
      "stateMutability": "view",
      "type": "function"
    },
    {
      "inputs": [],
      "name": "symmioAddress",
      "outputs": [
        {
          "internalType": "address",
          "name": "",
          "type": "address"
        }
      ],
      "stateMutability": "view",
      "type": "function"
    },
    {
      "inputs": [],
      "name": "unpause",
      "outputs": [],
      "stateMutability": "nonpayable",
      "type": "function"
    },
    {
      "inputs": [
        {
          "internalType": "address",
          "name": "newImplementation",
          "type": "address"
        }
      ],
      "name": "upgradeTo",
      "outputs": [],
      "stateMutability": "nonpayable",
      "type": "function"
    },
    {
      "inputs": [
        {
          "internalType": "address",
          "name": "newImplementation",
          "type": "address"
        },
        {
          "internalType": "bytes",
          "name": "data",
          "type": "bytes"
        }
      ],
      "name": "upgradeToAndCall",
      "outputs": [],
      "stateMutability": "payable",
      "type": "function"
    },
    {
      "inputs": [
        {
          "internalType": "address",
          "name": "token",
          "type": "address"
        },
        {
          "internalType": "uint256",
          "name": "amount",
          "type": "uint256"
        }
      ],
      "name": "withdrawERC20",
      "outputs": [],
      "stateMutability": "nonpayable",
      "type": "function"
    }
  ],
  "bytecode": "0x60a06040523060805234801561001457600080fd5b5061001d610022565b6100e1565b600054610100900460ff161561008e5760405162461bcd60e51b815260206004820152602760248201527f496e697469616c697a61626c653a20636f6e747261637420697320696e697469604482015266616c697a696e6760c81b606482015260840160405180910390fd5b60005460ff908116146100df576000805460ff191660ff9081179091556040519081527f7f26b83ff96e1f2b6a682f133852f6798a09c465da95921460cefb38474024989060200160405180910390a15b565b608051613044610118600039600081816108fd0152818161099301528181610acc01528181610b620152610c5901526130446000f3fe6080604052600436106101fd5760003560e01c80637278b28f1161011d578063c0c53b8b116100b0578063e63ab1e91161007f578063edddc27311610064578063edddc27314610670578063f504fd59146106a1578063fb1bb9de146106c157600080fd5b8063e63ab1e914610608578063ec87621c1461063c57600080fd5b8063c0c53b8b14610588578063ca9d9c9d146105a8578063d37a8559146105c8578063d547741f146105e857600080fd5b806391d14854116100ec57806391d14854146104d9578063a1db97821461051f578063a2011b3f1461053f578063a217fddf1461057357600080fd5b80637278b28f146104635780637b7d72251461048457806383aba1d3146104a45780638456cb59146104c457600080fd5b80633659cfe6116101955780635901692e116101645780635901692e146103d75780635c975abb1461040b5780636c19e78314610423578063717bb2621461044357600080fd5b80633659cfe61461037a5780633f4ba83a1461039a5780634f1ef286146103af57806352d1902d146103c257600080fd5b8063238ac933116101d1578063238ac933146102c3578063248a9ca3146102fc5780632f2ff15d1461033a57806336568abe1461035a57600080fd5b8062fbc3551461020257806301569e3a1461024857806301ffc9a71461026a5780631626ba7e1461028a575b600080fd5b34801561020e57600080fd5b5061023361021d36600461292a565b61012f6020526000908152604090205460ff1681565b60405190151581526020015b60405180910390f35b34801561025457600080fd5b5061026861026336600461292a565b6106f5565b005b34801561027657600080fd5b5061023361028536600461295d565b610779565b34801561029657600080fd5b506102aa6102a5366004612a1e565b6107e2565b6040516001600160e01b0319909116815260200161023f565b3480156102cf57600080fd5b50610130546102e4906001600160a01b031681565b6040516001600160a01b03909116815260200161023f565b34801561030857600080fd5b5061032c610317366004612a65565b60009081526097602052604090206001015490565b60405190815260200161023f565b34801561034657600080fd5b50610268610355366004612a7e565b610838565b34801561036657600080fd5b50610268610375366004612a7e565b610862565b34801561038657600080fd5b5061026861039536600461292a565b6108f3565b3480156103a657600080fd5b50610268610a90565b6102686103bd366004612aaa565b610ac2565b3480156103ce57600080fd5b5061032c610c4c565b3480156103e357600080fd5b5061032c7f2de84d9fbdf6d06e2cc584295043dbd76046423b9f8bae9426d4fa5e7c03f4a781565b34801561041757600080fd5b5060335460ff16610233565b34801561042f57600080fd5b5061026861043e36600461292a565b610d11565b34801561044f57600080fd5b5061026861045e366004612af0565b610d6c565b34801561046f57600080fd5b5061012d546102e4906001600160a01b031681565b34801561049057600080fd5b5061026861049f366004612b27565b610e54565b3480156104b057600080fd5b506102686104bf366004612b51565b610f63565b3480156104d057600080fd5b50610268610fcc565b3480156104e557600080fd5b506102336104f4366004612a7e565b60009182526097602090815260408084206001600160a01b0393909316845291905290205460ff1690565b34801561052b57600080fd5b5061026861053a366004612b27565b610ffe565b34801561054b57600080fd5b5061032c7f61c92169ef077349011ff0b1383c894d86c5f0b41d986366b58a6cf31e93beda81565b34801561057f57600080fd5b5061032c600081565b34801561059457600080fd5b506102686105a3366004612b6d565b6110fe565b3480156105b457600080fd5b506102686105c3366004612bf5565b6112c4565b3480156105d457600080fd5b506102686105e3366004612c37565b61135e565b3480156105f457600080fd5b50610268610603366004612a7e565b611702565b34801561061457600080fd5b5061032c7f65d7a28e3265b37a6474929f336521b332c1681b933f6cb9f3376673440d862a81565b34801561064857600080fd5b5061032c7f241ecf16d79d0f8dbfb92cbc07fe17840425976cf0667f022fe9877caa831b0881565b34801561067c57600080fd5b5061023361068b36600461295d565b61012e6020526000908152604090205460ff1681565b3480156106ad57600080fd5b506102686106bc366004612cdd565b611727565b3480156106cd57600080fd5b5061032c7f427da25fe773164f88948d3e215c94b6554e2ed5e5f203a821c9f2f6131cf75a81565b60006107008161180d565b61012d54604080516001600160a01b03928316815291841660208301527ff78ccdf5924090b2ab6627ac5da4ec5affed73d47c6bc6c8a4620a0d5ed57bc8910160405180910390a15061012d805473ffffffffffffffffffffffffffffffffffffffff19166001600160a01b0392909216919091179055565b60006001600160e01b031982167f7965db0b0000000000000000000000000000000000000000000000000000000014806107dc57507f01ffc9a7000000000000000000000000000000000000000000000000000000006001600160e01b03198316145b92915050565b610130546000906107fd906001600160a01b03168484611817565b61080f576001600160e01b0319610831565b7f1626ba7e000000000000000000000000000000000000000000000000000000005b9392505050565b6000828152609760205260409020600101546108538161180d565b61085d8383611878565b505050565b6001600160a01b03811633146108e55760405162461bcd60e51b815260206004820152602f60248201527f416363657373436f6e74726f6c3a2063616e206f6e6c792072656e6f756e636560448201527f20726f6c657320666f722073656c66000000000000000000000000000000000060648201526084015b60405180910390fd5b6108ef828261191a565b5050565b6001600160a01b037f00000000000000000000000000000000000000000000000000000000000000001630036109915760405162461bcd60e51b815260206004820152602c60248201527f46756e6374696f6e206d7573742062652063616c6c6564207468726f7567682060448201527f64656c656761746563616c6c000000000000000000000000000000000000000060648201526084016108dc565b7f00000000000000000000000000000000000000000000000000000000000000006001600160a01b03166109ec7f360894a13ba1a3210667c828492db98dca3e2076cc3735a920a3ca505d382bbc546001600160a01b031690565b6001600160a01b031614610a685760405162461bcd60e51b815260206004820152602c60248201527f46756e6374696f6e206d7573742062652063616c6c6564207468726f7567682060448201527f6163746976652070726f7879000000000000000000000000000000000000000060648201526084016108dc565b610a718161199d565b60408051600080825260208201909252610a8d918391906119a8565b50565b7f427da25fe773164f88948d3e215c94b6554e2ed5e5f203a821c9f2f6131cf75a610aba8161180d565b610a8d611b48565b6001600160a01b037f0000000000000000000000000000000000000000000000000000000000000000163003610b605760405162461bcd60e51b815260206004820152602c60248201527f46756e6374696f6e206d7573742062652063616c6c6564207468726f7567682060448201527f64656c656761746563616c6c000000000000000000000000000000000000000060648201526084016108dc565b7f00000000000000000000000000000000000000000000000000000000000000006001600160a01b0316610bbb7f360894a13ba1a3210667c828492db98dca3e2076cc3735a920a3ca505d382bbc546001600160a01b031690565b6001600160a01b031614610c375760405162461bcd60e51b815260206004820152602c60248201527f46756e6374696f6e206d7573742062652063616c6c6564207468726f7567682060448201527f6163746976652070726f7879000000000000000000000000000000000000000060648201526084016108dc565b610c408261199d565b6108ef828260016119a8565b6000306001600160a01b037f00000000000000000000000000000000000000000000000000000000000000001614610cec5760405162461bcd60e51b815260206004820152603860248201527f555550535570677261646561626c653a206d757374206e6f742062652063616c60448201527f6c6564207468726f7567682064656c656761746563616c6c000000000000000060648201526084016108dc565b507f360894a13ba1a3210667c828492db98dca3e2076cc3735a920a3ca505d382bbc90565b7f61c92169ef077349011ff0b1383c894d86c5f0b41d986366b58a6cf31e93beda610d3b8161180d565b50610130805473ffffffffffffffffffffffffffffffffffffffff19166001600160a01b0392909216919091179055565b7f241ecf16d79d0f8dbfb92cbc07fe17840425976cf0667f022fe9877caa831b08610d968161180d565b306001600160a01b03841603610dee5760405162461bcd60e51b815260206004820152601d60248201527f53796d6d696f5061727479423a20496e76616c6964206164647265737300000060448201526064016108dc565b6001600160a01b038316600081815261012f6020908152604091829020805460ff19168615159081179091558251938452908301527ff776d871534c4177eb3ea09ad170db249e5c7057ff18ddf26992d18459a904b191015b60405180910390a1505050565b7f2de84d9fbdf6d06e2cc584295043dbd76046423b9f8bae9426d4fa5e7c03f4a7610e7e8161180d565b610e86611b9a565b61012d546040517f095ea7b30000000000000000000000000000000000000000000000000000000081526001600160a01b039182166004820152602481018490529084169063095ea7b3906044016020604051808303816000875af1158015610ef3573d6000803e3d6000fd5b505050506040513d601f19601f82011682018060405250810190610f179190612d4e565b61085d5760405162461bcd60e51b815260206004820152601a60248201527f53796d6d696f5061727479423a204e6f7420617070726f76656400000000000060448201526064016108dc565b6000610f6e8161180d565b6001600160e01b03198316600081815261012e6020908152604091829020805460ff19168615159081179091558251938452908301527f3b438b04c48041000349f30457a15358332ec96233735f9bc289621aa82fb7759101610e47565b7f65d7a28e3265b37a6474929f336521b332c1681b933f6cb9f3376673440d862a610ff68161180d565b610a8d611bef565b7f241ecf16d79d0f8dbfb92cbc07fe17840425976cf0667f022fe9877caa831b086110288161180d565b6040517fa9059cbb000000000000000000000000000000000000000000000000000000008152336004820152602481018390526001600160a01b0384169063a9059cbb906044016020604051808303816000875af115801561108e573d6000803e3d6000fd5b505050506040513d601f19601f820116820180604052508101906110b29190612d4e565b61085d5760405162461bcd60e51b815260206004820152601d60248201527f53796d6d696f5061727479423a204e6f74207472616e7366657272656400000060448201526064016108dc565b600054610100900460ff161580801561111e5750600054600160ff909116105b806111385750303b158015611138575060005460ff166001145b6111aa5760405162461bcd60e51b815260206004820152602e60248201527f496e697469616c697a61626c653a20636f6e747261637420697320616c72656160448201527f647920696e697469616c697a656400000000000000000000000000000000000060648201526084016108dc565b6000805460ff1916600117905580156111cd576000805461ff0019166101001790555b6111d5611c2c565b6111dd611cb1565b6111e5611cb1565b6111f0600085611878565b6111fb600084611878565b6112257f2de84d9fbdf6d06e2cc584295043dbd76046423b9f8bae9426d4fa5e7c03f4a785611878565b61124f7f241ecf16d79d0f8dbfb92cbc07fe17840425976cf0667f022fe9877caa831b0885611878565b61012d805473ffffffffffffffffffffffffffffffffffffffff19166001600160a01b03841617905580156112be576000805461ff0019169055604051600181527f7f26b83ff96e1f2b6a682f133852f6798a09c465da95921460cefb38474024989060200160405180910390a15b50505050565b6112cc611b9a565b60005b60ff811682111561085d5761012d5461134c906001600160a01b0316848460ff851681811061130057611300612d6b565b90506020028101906113129190612d81565b8080601f016020809104026020016040519081016040528093929190818152602001838380828437600092019190915250611d2e92505050565b8061135681612dfc565b9150506112cf565b611366611b9a565b84838114801561137557508181145b6113e75760405162461bcd60e51b815260206004820152602360248201527f53796d6d696f5061727479423a204172726179206c656e677468206d69736d6160448201527f746368000000000000000000000000000000000000000000000000000000000060648201526084016108dc565b61012d546001600160a01b03166114405760405162461bcd60e51b815260206004820152601d60248201527f53796d6d696f5061727479423a20496e76616c6964206164647265737300000060448201526064016108dc565b3360009081527fd3dcd7dc58e3b6c497be50df5a3ad068b6e0acc697d498ce82a40e016edc5e8a602052604090205460ff16806114ab57503360009081527f2b695040062d682c5f383fc121d3529271110663a7876b561e44e93485577d13602052604090205460ff165b80611529575061012d60009054906101000a90046001600160a01b03166001600160a01b03166367aa6fea6040518163ffffffff1660e01b8152600401602060405180830381865afa158015611505573d6000803e3d6000fd5b505050506040513d601f19601f820116820180604052508101906115299190612d4e565b6115755760405162461bcd60e51b815260206004820152601c60248201527f53796d6d696f5061727479423a20496e76616c6964206163636573730000000060448201526064016108dc565b60005b818110156116f85761012d546001600160a01b031663258699298989848181106115a4576115a4612d6b565b905060200201358888858181106115bd576115bd612d6b565b905060200201358787868181106115d6576115d6612d6b565b6040516001600160e01b031960e088901b1681526004810195909552602485019390935250602090910201356044820152606401600060405180830381600087803b15801561162457600080fd5b505af1925050508015611635575060015b6116f0573d808015611663576040519150601f19603f3d011682016040523d82523d6000602084013e611668565b606091505b507fe474d30861954963e2430d1eb30ee3d32920f7afa7ff8fce00044373a259abf089898481811061169c5761169c612d6b565b905060200201358888858181106116b5576116b5612d6b565b905060200201358787868181106116ce576116ce612d6b565b90506020020135846040516116e69493929190612e6b565b60405180910390a1505b600101611578565b5050505050505050565b60008281526097602052604090206001015461171d8161180d565b61085d838361191a565b61172f611b9a565b8281146117a45760405162461bcd60e51b815260206004820152602360248201527f53796d6d696f5061727479423a204172726179206c656e677468206d69736d6160448201527f746368000000000000000000000000000000000000000000000000000000000060648201526084016108dc565b60005b60ff8116821115611806576117f485858360ff168181106117ca576117ca612d6b565b90506020020160208101906117df919061292a565b84848460ff1681811061130057611300612d6b565b806117fe81612dfc565b9150506117a7565b5050505050565b610a8d81336120fc565b60008060006118268585612171565b9092509050600081600481111561183f5761183f612e90565b14801561185d5750856001600160a01b0316826001600160a01b0316145b8061186e575061186e8686866121b6565b9695505050505050565b60008281526097602090815260408083206001600160a01b038516845290915290205460ff166108ef5760008281526097602090815260408083206001600160a01b03851684529091529020805460ff191660011790556118d63390565b6001600160a01b0316816001600160a01b0316837f2f8788117e7eff1d82e926ec794901d17c78024a50270940304540a733656f0d60405160405180910390a45050565b60008281526097602090815260408083206001600160a01b038516845290915290205460ff16156108ef5760008281526097602090815260408083206001600160a01b0385168085529252808320805460ff1916905551339285917ff6391f5c32d9c69d2a47ea670b442974b53935d1edc7fd64eb21e047a839171b9190a45050565b60006108ef8161180d565b7f4910fdfa16fed3260ed0e7147f7cc6da11a60208b5b9406d12a635614ffd91435460ff16156119db5761085d836122d0565b826001600160a01b03166352d1902d6040518163ffffffff1660e01b8152600401602060405180830381865afa925050508015611a35575060408051601f3d908101601f19168201909252611a3291810190612ea6565b60015b611aa75760405162461bcd60e51b815260206004820152602e60248201527f45524331393637557067726164653a206e657720696d706c656d656e7461746960448201527f6f6e206973206e6f74205555505300000000000000000000000000000000000060648201526084016108dc565b7f360894a13ba1a3210667c828492db98dca3e2076cc3735a920a3ca505d382bbc8114611b3c5760405162461bcd60e51b815260206004820152602960248201527f45524331393637557067726164653a20756e737570706f727465642070726f7860448201527f6961626c6555554944000000000000000000000000000000000000000000000060648201526084016108dc565b5061085d83838361239b565b611b506123c0565b6033805460ff191690557f5db9ee0a495bf2e6ff9c91a7834c1ba4fdd244a5e8aa4e537bd38aeae4b073aa335b6040516001600160a01b03909116815260200160405180910390a1565b60335460ff1615611bed5760405162461bcd60e51b815260206004820152601060248201527f5061757361626c653a207061757365640000000000000000000000000000000060448201526064016108dc565b565b611bf7611b9a565b6033805460ff191660011790557f62e78cea01bee320cd4e420270b5ea74000d11b0c9f74754ebdbfc544b05a258611b7d3390565b600054610100900460ff16611ca95760405162461bcd60e51b815260206004820152602b60248201527f496e697469616c697a61626c653a20636f6e7472616374206973206e6f74206960448201527f6e697469616c697a696e6700000000000000000000000000000000000000000060648201526084016108dc565b611bed612412565b600054610100900460ff16611bed5760405162461bcd60e51b815260206004820152602b60248201527f496e697469616c697a61626c653a20636f6e7472616374206973206e6f74206960448201527f6e697469616c697a696e6700000000000000000000000000000000000000000060648201526084016108dc565b6001600160a01b038216611d845760405162461bcd60e51b815260206004820152601d60248201527f53796d6d696f5061727479423a20496e76616c6964206164647265737300000060448201526064016108dc565b600481511015611dd65760405162461bcd60e51b815260206004820152601f60248201527f53796d6d696f5061727479423a20496e76616c69642063616c6c20646174610060448201526064016108dc565b61012d546001600160a01b0390811690831603611f81576020818101516001600160e01b03198116600090815261012e90925260409091205460ff1615611e4657611e417f241ecf16d79d0f8dbfb92cbc07fe17840425976cf0667f022fe9877caa831b08336120fc565b611f7b565b3360009081527fd3dcd7dc58e3b6c497be50df5a3ad068b6e0acc697d498ce82a40e016edc5e8a602052604090205460ff1680611eb157503360009081527f2b695040062d682c5f383fc121d3529271110663a7876b561e44e93485577d13602052604090205460ff165b80611f2f575061012d60009054906101000a90046001600160a01b03166001600160a01b03166367aa6fea6040518163ffffffff1660e01b8152600401602060405180830381865afa158015611f0b573d6000803e3d6000fd5b505050506040513d601f19601f82011682018060405250810190611f2f9190612d4e565b611f7b5760405162461bcd60e51b815260206004820152601c60248201527f53796d6d696f5061727479423a20496e76616c6964206163636573730000000060448201526064016108dc565b5061203a565b6001600160a01b038216600090815261012f602052604090205460ff166120105760405162461bcd60e51b815260206004820152603460248201527f53796d6d696f5061727479423a2044657374696e6174696f6e2061646472657360448201527f73206973206e6f742077686974656c697374656400000000000000000000000060648201526084016108dc565b61203a7f2de84d9fbdf6d06e2cc584295043dbd76046423b9f8bae9426d4fa5e7c03f4a7336120fc565b600080836001600160a01b03166000846040516120579190612ebf565b60006040518083038185875af1925050503d8060008114612094576040519150601f19603f3d011682016040523d82523d6000602084013e612099565b606091505b5091509150816112be5780516000036120f45760405162461bcd60e51b815260206004820181905260248201527f53796d6d696f5061727479423a20457865637574696f6e20726576657274656460448201526064016108dc565b805160208201fd5b60008281526097602090815260408083206001600160a01b038516845290915290205460ff166108ef5761212f8161249b565b61213a8360206124ad565b60405160200161214b929190612edb565b60408051601f198184030181529082905262461bcd60e51b82526108dc91600401612f5c565b60008082516041036121a75760208301516040840151606085015160001a61219b878285856126d6565b945094505050506121af565b506000905060025b9250929050565b6000806000856001600160a01b0316631626ba7e60e01b86866040516024016121e0929190612f6f565b60408051601f198184030181529181526020820180517bffffffffffffffffffffffffffffffffffffffffffffffffffffffff166001600160e01b03199094169390931790925290516122339190612ebf565b600060405180830381855afa9150503d806000811461226e576040519150601f19603f3d011682016040523d82523d6000602084013e612273565b606091505b509150915081801561228757506020815110155b801561186e575080517f1626ba7e00000000000000000000000000000000000000000000000000000000906122c59083016020908101908401612ea6565b149695505050505050565b6001600160a01b0381163b61234d5760405162461bcd60e51b815260206004820152602d60248201527f455243313936373a206e657720696d706c656d656e746174696f6e206973206e60448201527f6f74206120636f6e74726163740000000000000000000000000000000000000060648201526084016108dc565b7f360894a13ba1a3210667c828492db98dca3e2076cc3735a920a3ca505d382bbc805473ffffffffffffffffffffffffffffffffffffffff19166001600160a01b0392909216919091179055565b6123a48361279a565b6000825111806123b15750805b1561085d576112be83836127da565b60335460ff16611bed5760405162461bcd60e51b815260206004820152601460248201527f5061757361626c653a206e6f742070617573656400000000000000000000000060448201526064016108dc565b600054610100900460ff1661248f5760405162461bcd60e51b815260206004820152602b60248201527f496e697469616c697a61626c653a20636f6e7472616374206973206e6f74206960448201527f6e697469616c697a696e6700000000000000000000000000000000000000000060648201526084016108dc565b6033805460ff19169055565b60606107dc6001600160a01b03831660145b606060006124bc836002612f88565b6124c7906002612f9f565b67ffffffffffffffff8111156124df576124df612978565b6040519080825280601f01601f191660200182016040528015612509576020820181803683370190505b5090507f30000000000000000000000000000000000000000000000000000000000000008160008151811061254057612540612d6b565b60200101907effffffffffffffffffffffffffffffffffffffffffffffffffffffffffffff1916908160001a9053507f7800000000000000000000000000000000000000000000000000000000000000816001815181106125a3576125a3612d6b565b60200101907effffffffffffffffffffffffffffffffffffffffffffffffffffffffffffff1916908160001a90535060006125df846002612f88565b6125ea906001612f9f565b90505b6001811115612687577f303132333435363738396162636465660000000000000000000000000000000085600f166010811061262b5761262b612d6b565b1a60f81b82828151811061264157612641612d6b565b60200101907effffffffffffffffffffffffffffffffffffffffffffffffffffffffffffff1916908160001a90535060049490941c9361268081612fb2565b90506125ed565b5083156108315760405162461bcd60e51b815260206004820181905260248201527f537472696e67733a20686578206c656e67746820696e73756666696369656e7460448201526064016108dc565b6000807f7fffffffffffffffffffffffffffffff5d576e7357a4501ddfe92f46681b20a083111561270d5750600090506003612791565b6040805160008082526020820180845289905260ff881692820192909252606081018690526080810185905260019060a0016020604051602081039080840390855afa158015612761573d6000803e3d6000fd5b5050604051601f1901519150506001600160a01b03811661278a57600060019250925050612791565b9150600090505b94509492505050565b6127a3816122d0565b6040516001600160a01b038216907fbc7cd75a20ee27fd9adebab32041f755214dbc6bffa90cc0225b39da2e5c2d3b90600090a250565b60606108318383604051806060016040528060278152602001612fe8602791396060600080856001600160a01b0316856040516128179190612ebf565b600060405180830381855af49150503d8060008114612852576040519150601f19603f3d011682016040523d82523d6000602084013e612857565b606091505b509150915061186e86838387606083156128d25782516000036128cb576001600160a01b0385163b6128cb5760405162461bcd60e51b815260206004820152601d60248201527f416464726573733a2063616c6c20746f206e6f6e2d636f6e747261637400000060448201526064016108dc565b50816128dc565b6128dc83836128e4565b949350505050565b8151156128f45781518083602001fd5b8060405162461bcd60e51b81526004016108dc9190612f5c565b80356001600160a01b038116811461292557600080fd5b919050565b60006020828403121561293c57600080fd5b6108318261290e565b80356001600160e01b03198116811461292557600080fd5b60006020828403121561296f57600080fd5b61083182612945565b634e487b7160e01b600052604160045260246000fd5b600082601f83011261299f57600080fd5b813567ffffffffffffffff8111156129b9576129b9612978565b604051601f19603f601f19601f8501160116810181811067ffffffffffffffff821117156129e9576129e9612978565b604052818152838201602001851015612a0157600080fd5b816020850160208301376000918101602001919091529392505050565b60008060408385031215612a3157600080fd5b82359150602083013567ffffffffffffffff811115612a4f57600080fd5b612a5b8582860161298e565b9150509250929050565b600060208284031215612a7757600080fd5b5035919050565b60008060408385031215612a9157600080fd5b82359150612aa16020840161290e565b90509250929050565b60008060408385031215612abd57600080fd5b612ac68361290e565b9150602083013567ffffffffffffffff811115612a4f57600080fd5b8015158114610a8d57600080fd5b60008060408385031215612b0357600080fd5b612b0c8361290e565b91506020830135612b1c81612ae2565b809150509250929050565b60008060408385031215612b3a57600080fd5b612b438361290e565b946020939093013593505050565b60008060408385031215612b6457600080fd5b612b0c83612945565b600080600060608486031215612b8257600080fd5b612b8b8461290e565b9250612b996020850161290e565b9150612ba76040850161290e565b90509250925092565b60008083601f840112612bc257600080fd5b50813567ffffffffffffffff811115612bda57600080fd5b6020830191508360208260051b85010111156121af57600080fd5b60008060208385031215612c0857600080fd5b823567ffffffffffffffff811115612c1f57600080fd5b612c2b85828601612bb0565b90969095509350505050565b60008060008060008060608789031215612c5057600080fd5b863567ffffffffffffffff811115612c6757600080fd5b612c7389828a01612bb0565b909750955050602087013567ffffffffffffffff811115612c9357600080fd5b612c9f89828a01612bb0565b909550935050604087013567ffffffffffffffff811115612cbf57600080fd5b612ccb89828a01612bb0565b979a9699509497509295939492505050565b60008060008060408587031215612cf357600080fd5b843567ffffffffffffffff811115612d0a57600080fd5b612d1687828801612bb0565b909550935050602085013567ffffffffffffffff811115612d3657600080fd5b612d4287828801612bb0565b95989497509550505050565b600060208284031215612d6057600080fd5b815161083181612ae2565b634e487b7160e01b600052603260045260246000fd5b60008083357fffffffffffffffffffffffffffffffffffffffffffffffffffffffffffffffe1843603018112612db657600080fd5b83018035915067ffffffffffffffff821115612dd157600080fd5b6020019150368190038213156121af57600080fd5b634e487b7160e01b600052601160045260246000fd5b600060ff821660ff8103612e1257612e12612de6565b60010192915050565b60005b83811015612e36578181015183820152602001612e1e565b50506000910152565b60008151808452612e57816020860160208601612e1b565b601f01601f19169290920160200192915050565b84815283602082015282604082015260806060820152600061186e6080830184612e3f565b634e487b7160e01b600052602160045260246000fd5b600060208284031215612eb857600080fd5b5051919050565b60008251612ed1818460208701612e1b565b9190910192915050565b7f416363657373436f6e74726f6c3a206163636f756e7420000000000000000000815260008351612f13816017850160208801612e1b565b7f206973206d697373696e6720726f6c65200000000000000000000000000000006017918401918201528351612f50816028840160208801612e1b565b01602801949350505050565b6020815260006108316020830184612e3f565b8281526040602082015260006128dc6040830184612e3f565b80820281158282048414176107dc576107dc612de6565b808201808211156107dc576107dc612de6565b600081612fc157612fc1612de6565b507fffffffffffffffffffffffffffffffffffffffffffffffffffffffffffffffff019056fe416464726573733a206c6f772d6c6576656c2064656c65676174652063616c6c206661696c6564a2646970667358221220885de26326e80756513f958597c5f469b36aec72732150384648e78af8fc5fd764736f6c634300081c0033",
  "linkReferences": {},
  "deployedLinkReferences": {}
}