{
  "_format": "hh-sol-artifact-1",
  "contractName": "OnChainSymmioVaultV2",
  "sourceName": "contracts/OnChainSymmioVaultV2.sol",
  "abi": [
    {
      "inputs": [],
      "stateMutability": "nonpayable",
      "type": "constructor"
    },
    {
      "anonymous": false,
      "inputs": [
        {
          "indexed": true,
          "internalType": "address",
          "name": "depositor",
          "type": "address"
        },
        {
          "indexed": false,
          "internalType": "uint256",
          "name": "amount",
          "type": "uint256"
        }
      ],
      "name": "Deposit",
      "type": "event"
    },
    {
      "anonymous": false,
      "inputs": [
        {
          "indexed": false,
          "internalType": "uint256",
          "name": "depositLimit",
          "type": "uint256"
        }
      ],
      "name": "DepositLimitUpdatedEvent",
      "type": "event"
    },
    {
      "anonymous": false,
      "inputs": [
        {
          "indexed": true,
          "internalType": "address",
          "name": "depositor",
          "type": "address"
        },
        {
          "indexed": true,
          "internalType": "address",
          "name": "solver",
          "type": "address"
        },
        {
          "indexed": false,
          "internalType": "uint256",
          "name": "amount",
          "type": "uint256"
        }
      ],
      "name": "DepositToSymmio",
      "type": "event"
    },
    {
      "anonymous": false,
      "inputs": [],
      "name": "EIP712DomainChanged",
      "type": "event"
    },
    {
      "anonymous": false,
      "inputs": [
        {
          "indexed": false,
          "internalType": "uint8",
          "name": "version",
          "type": "uint8"
        }
      ],
      "name": "Initialized",
      "type": "event"
    },
    {
      "anonymous": false,
      "inputs": [
        {
          "indexed": false,
          "internalType": "uint256",
          "name": "minimumPaybackRatio",
          "type": "uint256"
        }
      ],
      "name": "MinimumPaybackRatioUpdatedEvent",
      "type": "event"
    },
    {
      "anonymous": false,
      "inputs": [
        {
          "indexed": false,
          "internalType": "address",
          "name": "account",
          "type": "address"
        }
      ],
      "name": "Paused",
      "type": "event"
    },
    {
      "anonymous": false,
      "inputs": [
        {
          "indexed": true,
          "internalType": "bytes32",
          "name": "role",
          "type": "bytes32"
        },
        {
          "indexed": true,
          "internalType": "bytes32",
          "name": "previousAdminRole",
          "type": "bytes32"
        },
        {
          "indexed": true,
          "internalType": "bytes32",
          "name": "newAdminRole",
          "type": "bytes32"
        }
      ],
      "name": "RoleAdminChanged",
      "type": "event"
    },
    {
      "anonymous": false,
      "inputs": [
        {
          "indexed": true,
          "internalType": "bytes32",
          "name": "role",
          "type": "bytes32"
        },
        {
          "indexed": true,
          "internalType": "address",
          "name": "account",
          "type": "address"
        },
        {
          "indexed": true,
          "internalType": "address",
          "name": "sender",
          "type": "address"
        }
      ],
      "name": "RoleGranted",
      "type": "event"
    },
    {
      "anonymous": false,
      "inputs": [
        {
          "indexed": true,
          "internalType": "bytes32",
          "name": "role",
          "type": "bytes32"
        },
        {
          "indexed": true,
          "internalType": "address",
          "name": "account",
          "type": "address"
        },
        {
          "indexed": true,
          "internalType": "address",
          "name": "sender",
          "type": "address"
        }
      ],
      "name": "RoleRevoked",
      "type": "event"
    },
    {
      "anonymous": false,
      "inputs": [
        {
          "indexed": true,
          "internalType": "address",
          "name": "signer",
          "type": "address"
        }
      ],
      "name": "SignerUpdatedEvent",
      "type": "event"
    },
    {
      "anonymous": false,
      "inputs": [
        {
          "indexed": true,
          "internalType": "address",
          "name": "solver",
          "type": "address"
        }
      ],
      "name": "SolverUpdatedEvent",
      "type": "event"
    },
    {
      "anonymous": false,
      "inputs": [
        {
          "indexed": true,
          "internalType": "address",
          "name": "newSymmioAddress",
          "type": "address"
        }
      ],
      "name": "SymmioAddressUpdatedEvent",
      "type": "event"
    },
    {
      "anonymous": false,
      "inputs": [
        {
          "indexed": false,
          "internalType": "address",
          "name": "account",
          "type": "address"
        }
      ],
      "name": "Unpaused",
      "type": "event"
    },
    {
      "anonymous": false,
      "inputs": [
        {
          "indexed": true,
          "internalType": "uint256",
          "name": "requestId",
          "type": "uint256"
        },
        {
          "indexed": true,
          "internalType": "address",
          "name": "receiver",
          "type": "address"
        }
      ],
      "name": "WithdrawClaimedEvent",
      "type": "event"
    },
    {
      "anonymous": false,
      "inputs": [
        {
          "indexed": false,
          "internalType": "uint256",
          "name": "providedAmount",
          "type": "uint256"
        },
        {
          "indexed": false,
          "internalType": "uint256[]",
          "name": "acceptedRequestIds",
          "type": "uint256[]"
        },
        {
          "indexed": false,
          "internalType": "uint256",
          "name": "paybackRatio",
          "type": "uint256"
        }
      ],
      "name": "WithdrawRequestAcceptedEvent",
      "type": "event"
    },
    {
      "anonymous": false,
      "inputs": [
        {
          "indexed": true,
          "internalType": "uint256",
          "name": "requestId",
          "type": "uint256"
        }
      ],
      "name": "WithdrawRequestCanceled",
      "type": "event"
    },
    {
      "anonymous": false,
      "inputs": [
        {
          "indexed": true,
          "internalType": "uint256",
          "name": "requestId",
          "type": "uint256"
        },
        {
          "indexed": true,
          "internalType": "address",
          "name": "sender",
          "type": "address"
        },
        {
          "indexed": true,
          "internalType": "address",
          "name": "receiver",
          "type": "address"
        },
        {
          "indexed": false,
          "internalType": "uint256",
          "name": "amount",
          "type": "uint256"
        },
        {
          "indexed": false,
          "internalType": "uint256",
          "name": "nonce",
          "type": "uint256"
        }
      ],
      "name": "WithdrawRequestEvent",
      "type": "event"
    },
    {
      "anonymous": false,
      "inputs": [
        {
          "indexed": false,
          "internalType": "uint256",
          "name": "withdrawalPeriod",
          "type": "uint256"
        }
      ],
      "name": "WithdrawalPeriodUpdate",
      "type": "event"
    },
    {
      "inputs": [],
      "name": "BALANCER_ROLE",
      "outputs": [
        {
          "internalType": "bytes32",
          "name": "",
          "type": "bytes32"
        }
      ],
      "stateMutability": "view",
      "type": "function"
    },
    {
      "inputs": [],
      "name": "DEFAULT_ADMIN_ROLE",
      "outputs": [
        {
          "internalType": "bytes32",
          "name": "",
          "type": "bytes32"
        }
      ],
      "stateMutability": "view",
      "type": "function"
    },
    {
      "inputs": [],
      "name": "MIN_PAYBACK_RATIO",
      "outputs": [
        {
          "internalType": "uint256",
          "name": "",
          "type": "uint256"
        }
      ],
      "stateMutability": "view",
      "type": "function"
    },
    {
      "inputs": [],
      "name": "PAUSER_ROLE",
      "outputs": [
        {
          "internalType": "bytes32",
          "name": "",
          "type": "bytes32"
        }
      ],
      "stateMutability": "view",
      "type": "function"
    },
    {
      "inputs": [],
      "name": "SETTER_ROLE",
      "outputs": [
        {
          "internalType": "bytes32",
          "name": "",
          "type": "bytes32"
        }
      ],
      "stateMutability": "view",
      "type": "function"
    },
    {
      "inputs": [],
      "name": "TYPE_HASH",
      "outputs": [
        {
          "internalType": "bytes32",
          "name": "",
          "type": "bytes32"
        }
      ],
      "stateMutability": "view",
      "type": "function"
    },
    {
      "inputs": [],
      "name": "UNPAUSER_ROLE",
      "outputs": [
        {
          "internalType": "bytes32",
          "name": "",
          "type": "bytes32"
        }
      ],
      "stateMutability": "view",
      "type": "function"
    },
    {
      "inputs": [
        {
          "internalType": "uint256",
          "name": "providedAmount",
          "type": "uint256"
        },
        {
          "internalType": "uint256[]",
          "name": "_acceptedRequestIds",
          "type": "uint256[]"
        },
        {
          "internalType": "uint256",
          "name": "_paybackRatio",
          "type": "uint256"
        }
      ],
      "name": "acceptWithdrawRequest",
      "outputs": [],
      "stateMutability": "nonpayable",
      "type": "function"
    },
    {
      "inputs": [
        {
          "internalType": "uint256",
          "name": "id",
          "type": "uint256"
        }
      ],
      "name": "cancelWithdrawRequest",
      "outputs": [],
      "stateMutability": "nonpayable",
      "type": "function"
    },
    {
      "inputs": [
        {
          "internalType": "uint256",
          "name": "requestId",
          "type": "uint256"
        }
      ],
      "name": "claimForWithdrawRequest",
      "outputs": [],
      "stateMutability": "nonpayable",
      "type": "function"
    },
    {
      "inputs": [],
      "name": "collateralTokenAddress",
      "outputs": [
        {
          "internalType": "address",
          "name": "",
          "type": "address"
        }
      ],
      "stateMutability": "view",
      "type": "function"
    },
    {
      "inputs": [],
      "name": "collateralTokenDecimals",
      "outputs": [
        {
          "internalType": "uint256",
          "name": "",
          "type": "uint256"
        }
      ],
      "stateMutability": "view",
      "type": "function"
    },
    {
      "inputs": [],
      "name": "currentDeposit",
      "outputs": [
        {
          "internalType": "uint256",
          "name": "",
          "type": "uint256"
        }
      ],
      "stateMutability": "view",
      "type": "function"
    },
    {
      "inputs": [
        {
          "internalType": "uint256",
          "name": "amount",
          "type": "uint256"
        }
      ],
      "name": "deposit",
      "outputs": [],
      "stateMutability": "nonpayable",
      "type": "function"
    },
    {
      "inputs": [],
      "name": "depositLimit",
      "outputs": [
        {
          "internalType": "uint256",
          "name": "",
          "type": "uint256"
        }
      ],
      "stateMutability": "view",
      "type": "function"
    },
    {
      "inputs": [],
      "name": "eip712Domain",
      "outputs": [
        {
          "internalType": "bytes1",
          "name": "fields",
          "type": "bytes1"
        },
        {
          "internalType": "string",
          "name": "name",
          "type": "string"
        },
        {
          "internalType": "string",
          "name": "version",
          "type": "string"
        },
        {
          "internalType": "uint256",
          "name": "chainId",
          "type": "uint256"
        },
        {
          "internalType": "address",
          "name": "verifyingContract",
          "type": "address"
        },
        {
          "internalType": "bytes32",
          "name": "salt",
          "type": "bytes32"
        },
        {
          "internalType": "uint256[]",
          "name": "extensions",
          "type": "uint256[]"
        }
      ],
      "stateMutability": "view",
      "type": "function"
    },
    {
      "inputs": [
        {
          "internalType": "bytes32",
          "name": "role",
          "type": "bytes32"
        }
      ],
      "name": "getRoleAdmin",
      "outputs": [
        {
          "internalType": "bytes32",
          "name": "",
          "type": "bytes32"
        }
      ],
      "stateMutability": "view",
      "type": "function"
    },
    {
      "inputs": [
        {
          "internalType": "bytes32",
          "name": "role",
          "type": "bytes32"
        },
        {
          "internalType": "uint256",
          "name": "index",
          "type": "uint256"
        }
      ],
      "name": "getRoleMember",
      "outputs": [
        {
          "internalType": "address",
          "name": "",
          "type": "address"
        }
      ],
      "stateMutability": "view",
      "type": "function"
    },
    {
      "inputs": [
        {
          "internalType": "bytes32",
          "name": "role",
          "type": "bytes32"
        }
      ],
      "name": "getRoleMemberCount",
      "outputs": [
        {
          "internalType": "uint256",
          "name": "",
          "type": "uint256"
        }
      ],
      "stateMutability": "view",
      "type": "function"
    },
    {
      "inputs": [
        {
          "internalType": "bytes32",
          "name": "role",
          "type": "bytes32"
        },
        {
          "internalType": "address",
          "name": "account",
          "type": "address"
        }
      ],
      "name": "grantRole",
      "outputs": [],
      "stateMutability": "nonpayable",
      "type": "function"
    },
    {
      "inputs": [
        {
          "internalType": "bytes32",
          "name": "role",
          "type": "bytes32"
        },
        {
          "internalType": "address",
          "name": "account",
          "type": "address"
        }
      ],
      "name": "hasRole",
      "outputs": [
        {
          "internalType": "bool",
          "name": "",
          "type": "bool"
        }
      ],
      "stateMutability": "view",
      "type": "function"
    },
    {
      "inputs": [
        {
          "internalType": "address",
          "name": "_symmioAddress",
          "type": "address"
        },
        {
          "internalType": "address",
          "name": "_solver",
          "type": "address"
        },
        {
          "internalType": "address",
          "name": "_signer",
          "type": "address"
        },
        {
          "internalType": "uint256",
          "name": "_minimumPaybackRatio",
          "type": "uint256"
        },
        {
          "internalType": "uint256",
          "name": "_depositLimit",
          "type": "uint256"
        }
      ],
      "name": "initialize",
      "outputs": [],
      "stateMutability": "nonpayable",
      "type": "function"
    },
    {
      "inputs": [],
      "name": "lockedBalance",
      "outputs": [
        {
          "internalType": "uint256",
          "name": "",
          "type": "uint256"
        }
      ],
      "stateMutability": "view",
      "type": "function"
    },
    {
      "inputs": [],
      "name": "minimumPaybackRatio",
      "outputs": [
        {
          "internalType": "uint256",
          "name": "",
          "type": "uint256"
        }
      ],
      "stateMutability": "view",
      "type": "function"
    },
    {
      "inputs": [],
      "name": "pause",
      "outputs": [],
      "stateMutability": "nonpayable",
      "type": "function"
    },
    {
      "inputs": [],
      "name": "paused",
      "outputs": [
        {
          "internalType": "bool",
          "name": "",
          "type": "bool"
        }
      ],
      "stateMutability": "view",
      "type": "function"
    },
    {
      "inputs": [
        {
          "internalType": "address",
          "name": "",
          "type": "address"
        }
      ],
      "name": "pendingWithdrawalAmount",
      "outputs": [
        {
          "internalType": "uint256",
          "name": "",
          "type": "uint256"
        }
      ],
      "stateMutability": "view",
      "type": "function"
    },
    {
      "inputs": [
        {
          "internalType": "bytes32",
          "name": "role",
          "type": "bytes32"
        },
        {
          "internalType": "address",
          "name": "account",
          "type": "address"
        }
      ],
      "name": "renounceRole",
      "outputs": [],
      "stateMutability": "nonpayable",
      "type": "function"
    },
    {
      "inputs": [
        {
          "internalType": "uint256",
          "name": "amount",
          "type": "uint256"
        },
        {
          "internalType": "uint256",
          "name": "minAmountOut",
          "type": "uint256"
        },
        {
          "internalType": "address",
          "name": "receiver",
          "type": "address"
        },
        {
          "internalType": "uint256",
          "name": "nonce",
          "type": "uint256"
        },
        {
          "internalType": "uint256",
          "name": "deadline",
          "type": "uint256"
        },
        {
          "internalType": "bytes",
          "name": "signature",
          "type": "bytes"
        }
      ],
      "name": "requestWithdraw",
      "outputs": [],
      "stateMutability": "nonpayable",
      "type": "function"
    },
    {
      "inputs": [
        {
          "internalType": "bytes32",
          "name": "role",
          "type": "bytes32"
        },
        {
          "internalType": "address",
          "name": "account",
          "type": "address"
        }
      ],
      "name": "revokeRole",
      "outputs": [],
      "stateMutability": "nonpayable",
      "type": "function"
    },
    {
      "inputs": [
        {
          "internalType": "uint256",
          "name": "_depositLimit",
          "type": "uint256"
        }
      ],
      "name": "setDepositLimit",
      "outputs": [],
      "stateMutability": "nonpayable",
      "type": "function"
    },
    {
      "inputs": [
        {
          "internalType": "uint256",
          "name": "_minimumPaybackRatio",
          "type": "uint256"
        }
      ],
      "name": "setMinimumPaybackRatio",
      "outputs": [],
      "stateMutability": "nonpayable",
      "type": "function"
    },
    {
      "inputs": [
        {
          "internalType": "address",
          "name": "_signer",
          "type": "address"
        }
      ],
      "name": "setSigner",
      "outputs": [],
      "stateMutability": "nonpayable",
      "type": "function"
    },
    {
      "inputs": [
        {
          "internalType": "address",
          "name": "_solver",
          "type": "address"
        }
      ],
      "name": "setSolver",
      "outputs": [],
      "stateMutability": "nonpayable",
      "type": "function"
    },
    {
      "inputs": [
        {
          "internalType": "address",
          "name": "_symmioAddress",
          "type": "address"
        }
      ],
      "name": "setSymmioAddress",
      "outputs": [],
      "stateMutability": "nonpayable",
      "type": "function"
    },
    {
      "inputs": [
        {
          "internalType": "uint256",
          "name": "withdrawalPeriod_",
          "type": "uint256"
        }
      ],
      "name": "setWithdrawalPeriod",
      "outputs": [],
      "stateMutability": "nonpayable",
      "type": "function"
    },
    {
      "inputs": [],
      "name": "signer",
      "outputs": [
        {
          "internalType": "address",
          "name": "",
          "type": "address"
        }
      ],
      "stateMutability": "view",
      "type": "function"
    },
    {
      "inputs": [],
      "name": "solver",
      "outputs": [
        {
          "internalType": "address",
          "name": "",
          "type": "address"
        }
      ],
      "stateMutability": "view",
      "type": "function"
    },
    {
      "inputs": [
        {
          "internalType": "bytes4",
          "name": "interfaceId",
          "type": "bytes4"
        }
      ],
      "name": "supportsInterface",
      "outputs": [
        {
          "internalType": "bool",
          "name": "",
          "type": "bool"
        }
      ],
      "stateMutability": "view",
      "type": "function"
    },
    {
      "inputs": [],
      "name": "symmio",
      "outputs": [
        {
          "internalType": "contract ISymmio",
          "name": "",
          "type": "address"
        }
      ],
      "stateMutability": "view",
      "type": "function"
    },
    {
      "inputs": [],
      "name": "unpause",
      "outputs": [],
      "stateMutability": "nonpayable",
      "type": "function"
    },
    {
      "inputs": [
        {
          "internalType": "address",
          "name": "",
          "type": "address"
        },
        {
          "internalType": "uint256",
          "name": "",
          "type": "uint256"
        }
      ],
      "name": "usedNonces",
      "outputs": [
        {
          "internalType": "bool",
          "name": "",
          "type": "bool"
        }
      ],
      "stateMutability": "view",
      "type": "function"
    },
    {
      "inputs": [
        {
          "internalType": "address",
          "name": "receiver",
          "type": "address"
        },
        {
          "internalType": "uint256",
          "name": "amount",
          "type": "uint256"
        }
      ],
      "name": "withdrawNotLockedCollateralTokens",
      "outputs": [],
      "stateMutability": "nonpayable",
      "type": "function"
    },
    {
      "inputs": [
        {
          "internalType": "uint256",
          "name": "",
          "type": "uint256"
        }
      ],
      "name": "withdrawRequests",
      "outputs": [
        {
          "internalType": "address",
          "name": "receiver",
          "type": "address"
        },
        {
          "internalType": "address",
          "name": "sender",
          "type": "address"
        },
        {
          "internalType": "uint256",
          "name": "amount",
          "type": "uint256"
        },
        {
          "internalType": "uint256",
          "name": "minAmountOut",
          "type": "uint256"
        },
        {
          "internalType": "enum IOnChainSymmioVault.RequestStatus",
          "name": "status",
          "type": "uint8"
        },
        {
          "internalType": "uint256",
          "name": "acceptedRatio",
          "type": "uint256"
        },
        {
          "internalType": "uint256",
          "name": "acceptedWithdrawRequestTimestamp",
          "type": "uint256"
        },
        {
          "internalType": "uint256",
          "name": "claimableAt",
          "type": "uint256"
        }
      ],
      "stateMutability": "view",
      "type": "function"
    },
    {
      "inputs": [],
      "name": "withdrawalPeriod",
      "outputs": [
        {
          "internalType": "uint256",
          "name": "",
          "type": "uint256"
        }
      ],
      "stateMutability": "view",
      "type": "function"
    }
  ],
  "bytecode": "0x6080604052348015600f57600080fd5b506016601a565b60d7565b600054610100900460ff161560855760405162461bcd60e51b815260206004820152602760248201527f496e697469616c697a61626c653a20636f6e747261637420697320696e697469604482015266616c697a696e6760c81b606482015260840160405180910390fd5b60005460ff9081161460d5576000805460ff191660ff9081179091556040519081527f7f26b83ff96e1f2b6a682f133852f6798a09c465da95921460cefb38474024989060200160405180910390a15b565b6144de806100e66000396000f3fe608060405234801561001057600080fd5b50600436106102ff5760003560e01c8063849fc72b1161019c578063b6b55f25116100ee578063deaf30b211610097578063ecf7085811610071578063ecf70858146106d5578063f36fbab7146106df578063fb1bb9de146106f257600080fd5b8063deaf30b214610683578063e63ab1e9146106a4578063e94b2f44146106cb57600080fd5b8063ca15c873116100c8578063ca15c8731461064a578063cce4705b1461065d578063d547741f1461067057600080fd5b8063b6b55f251461061a578063bca7093d1461062d578063bdc8144b1461063757600080fd5b8063973b294f11610150578063a217fddf1161012a578063a217fddf146105f5578063a6b63eb8146105fd578063b54790d81461061057600080fd5b8063973b294f14610594578063992a7dfb146105a7578063a2011b3f146105ce57600080fd5b806386da03231161018157806386da0323146105355780639010d07c1461054857806391d148541461055b57600080fd5b8063849fc72b1461050757806384b0196e1461051a57600080fd5b80635849b93d116102555780636d9dd201116102095780637b80889b116101e35780637b80889b146104e65780637b9f7d94146104f05780638456cb59146104ff57600080fd5b80636d9dd201146104b55780636e74bf96146104c95780637278bd9b146104dc57600080fd5b806364d4c8191161023a57806364d4c8191461044c5780636a8a6894146104735780636c19e783146104a257600080fd5b80635849b93d1461042d5780635c975abb1461044157600080fd5b80632f2ff15d116102b75780633e55fde0116102915780633e55fde0146103fe5780633f4ba83a1461041157806349a7a26d1461041957600080fd5b80632f2ff15d146103b157806330d3c534146103c457806336568abe146103eb57600080fd5b80631f879433116102e85780631f87943314610341578063238ac93314610354578063248a9ca31461038057600080fd5b806301569e3a1461030457806301ffc9a714610319575b600080fd5b610317610312366004613c97565b610719565b005b61032c610327366004613cb4565b6108b4565b60405190151581526020015b60405180910390f35b61031761034f366004613c97565b610910565b61016354610368906001600160a01b031681565b6040516001600160a01b039091168152602001610338565b6103a361038e366004613cf6565b60009081526065602052604090206001015490565b604051908152602001610338565b6103176103bf366004613d0f565b6109f5565b6103a37f372387bd01807b923229b5bd1e46f8a6b8815b5d5db581db3e993c5168467b2781565b6103176103f9366004613d0f565b610a1f565b61031761040c366004613d86565b610aab565b61031761111c565b61016254610368906001600160a01b031681565b61016154610368906001600160a01b031681565b60c95460ff1661032c565b6103a37fb1dd0bed30d3b8ab9fc76313ecb7db14f6b497d5f1f7859fa5cb5811c1ca307381565b61032c610481366004613e4b565b61016d60209081526000928352604080842090915290825290205460ff1681565b6103176104b0366004613c97565b611151565b61016454610368906001600160a01b031681565b6103176104d7366004613cf6565b611236565b6103a36101665481565b6103a36101655481565b6103a36706f05b59d3b2000081565b61031761139a565b610317610515366004613e77565b6113cc565b6105226117a2565b6040516103389796959493929190613fd5565b610317610543366004613cf6565b611864565b61036861055636600461405f565b611ac5565b61032c610569366004613d0f565b60009182526065602090815260408084206001600160a01b0393909316845291905290205460ff1690565b6103176105a2366004613cf6565b611ae4565b6105ba6105b5366004613cf6565b611b17565b604051610338989796959493929190614097565b6103a37f61c92169ef077349011ff0b1383c894d86c5f0b41d986366b58a6cf31e93beda81565b6103a3600081565b61031761060b366004614101565b611b7e565b6103a36101695481565b610317610628366004613cf6565b611d93565b6103a361016b5481565b610317610645366004613cf6565b611ff5565b6103a3610658366004613cf6565b612055565b61031761066b366004613cf6565b61206c565b61031761067e366004613d0f565b612294565b6103a3610691366004613c97565b61016c6020526000908152604090205481565b6103a37f65d7a28e3265b37a6474929f336521b332c1681b933f6cb9f3376673440d862a81565b6103a36101685481565b6103a36101675481565b6103176106ed366004613e4b565b6122b9565b6103a37f427da25fe773164f88948d3e215c94b6554e2ed5e5f203a821c9f2f6131cf75a81565b7f61c92169ef077349011ff0b1383c894d86c5f0b41d986366b58a6cf31e93beda61074381612509565b6001600160a01b0382166107aa5760405162461bcd60e51b815260206004820152602360248201527f53796d6d696f536f6c7665724465706f7369746f723a205a65726f206164647260448201526265737360e81b60648201526084015b60405180910390fd5b610161805473ffffffffffffffffffffffffffffffffffffffff19166001600160a01b038481169190911790915561016454166107e5612513565b610164546001600160a01b038281169116148061080957506001600160a01b038116155b61087b5760405162461bcd60e51b815260206004820152603460248201527f53796d6d696f536f6c7665724465706f7369746f723a20436f6c6c617465726160448201527f6c2063616e206e6f74206265206368616e67656400000000000000000000000060648201526084016107a1565b6040516001600160a01b038416907fe5af12e9abb914276d8e0a5a01aa97d26f4c81e3002646f90824c2063953104490600090a2505050565b60007fffffffff0000000000000000000000000000000000000000000000000000000082167f5a05180f00000000000000000000000000000000000000000000000000000000148061090a575061090a826126d7565b92915050565b7f61c92169ef077349011ff0b1383c894d86c5f0b41d986366b58a6cf31e93beda61093a81612509565b6001600160a01b03821661099c5760405162461bcd60e51b815260206004820152602360248201527f53796d6d696f536f6c7665724465706f7369746f723a205a65726f206164647260448201526265737360e81b60648201526084016107a1565b610162805473ffffffffffffffffffffffffffffffffffffffff19166001600160a01b0384169081179091556040517f73c48e8c0360f51d3049faa15518d29248fbad9e77ad28ad94bcd1712854ca9b90600090a25050565b600082815260656020526040902060010154610a1081612509565b610a1a838361276e565b505050565b6001600160a01b0381163314610a9d5760405162461bcd60e51b815260206004820152602f60248201527f416363657373436f6e74726f6c3a2063616e206f6e6c792072656e6f756e636560448201527f20726f6c657320666f722073656c66000000000000000000000000000000000060648201526084016107a1565b610aa78282612790565b5050565b7f372387bd01807b923229b5bd1e46f8a6b8815b5d5db581db3e993c5168467b27610ad581612509565b610add6127b2565b610af633610164546001600160a01b0316903087612805565b61016654821015610b6f5760405162461bcd60e51b815260206004820152602f60248201527f53796d6d696f536f6c7665724465706f7369746f723a205061796261636b207260448201527f6174696f20697320746f6f206c6f77000000000000000000000000000000000060648201526084016107a1565b670de0b6b3a7640000821115610bed5760405162461bcd60e51b815260206004820152603060248201527f53796d6d696f536f6c7665724465706f7369746f723a205061796261636b207260448201527f6174696f20697320746f6f20686967680000000000000000000000000000000060648201526084016107a1565b6101655460005b8451811015610fd8576000858281518110610c1157610c1161415c565b6020026020010151905061016a805490508110610c965760405162461bcd60e51b815260206004820152602960248201527f53796d6d696f536f6c7665724465706f7369746f723a20496e76616c6964207260448201527f657175657374204944000000000000000000000000000000000000000000000060648201526084016107a1565b600061016a8281548110610cac57610cac61415c565b600091825260209091206004600890920201015460ff166003811115610cd457610cd4614081565b14610d475760405162461bcd60e51b815260206004820152602f60248201527f53796d6d696f536f6c7665724465706f7369746f723a20496e76616c6964206160448201527f636365707465642072657175657374000000000000000000000000000000000060648201526084016107a1565b6000670de0b6b3a76400008661016a8481548110610d6757610d6761415c565b906000526020600020906008020160020154610d839190614188565b610d8d919061419f565b905061016a8281548110610da357610da361415c565b906000526020600020906008020160030154811015610e2c576040805162461bcd60e51b81526020600482015260248101919091527f53796d6d696f536f6c7665724465706f7369746f723a205061796261636b207260448201527f6174696f20697320746f6f206c6f7720666f722074686973207265717565737460648201526084016107a1565b610e3681856141c1565b935061016a8281548110610e4c57610e4c61415c565b9060005260206000209060080201600201546101686000828254610e7091906141d4565b92505081905550600161016a8381548110610e8d57610e8d61415c565b60009182526020909120600460089092020101805460ff19166001836003811115610eba57610eba614081565b02179055508561016a8381548110610ed457610ed461415c565b9060005260206000209060080201600501819055504261016a8381548110610efe57610efe61415c565b600091825260209091206006600890920201015561016b54610f2090426141c1565b61016a8381548110610f3457610f3461415c565b90600052602060002090600802016007018190555061016a8281548110610f5d57610f5d61415c565b90600052602060002090600802016002015461016c600061016a8581548110610f8857610f8861415c565b60009182526020808320600160089093020191909101546001600160a01b0316835282019290925260400181208054909190610fc59084906141d4565b909155505060019092019150610bf49050565b50610164546040517f70a0823100000000000000000000000000000000000000000000000000000000815230600482015282916001600160a01b0316906370a0823190602401602060405180830381865afa15801561103b573d6000803e3d6000fd5b505050506040513d601f19601f8201168201806040525081019061105f91906141e7565b10156110d35760405162461bcd60e51b815260206004820152603460248201527f53796d6d696f536f6c7665724465706f7369746f723a20496e7375666669636960448201527f656e7420636f6e74726163742062616c616e636500000000000000000000000060648201526084016107a1565b6101658190556040517f7e82005417f8fc53c7a47dc803bf0c0c5fb4adfa711e011d4edead5839b0d0249061110d90879087908790614200565b60405180910390a15050505050565b7f427da25fe773164f88948d3e215c94b6554e2ed5e5f203a821c9f2f6131cf75a61114681612509565b61114e6128bc565b50565b7f61c92169ef077349011ff0b1383c894d86c5f0b41d986366b58a6cf31e93beda61117b81612509565b6001600160a01b0382166111dd5760405162461bcd60e51b815260206004820152602360248201527f53796d6d696f536f6c7665724465706f7369746f723a205a65726f206164647260448201526265737360e81b60648201526084016107a1565b610163805473ffffffffffffffffffffffffffffffffffffffff19166001600160a01b0384169081179091556040517f93d2bd623fe74229d9510c70ec2da10109749943db6d68437555a01b1844beae90600090a25050565b7f61c92169ef077349011ff0b1383c894d86c5f0b41d986366b58a6cf31e93beda61126081612509565b6706f05b59d3b200008210156112de5760405162461bcd60e51b815260206004820152603760248201527f53796d6d696f536f6c7665724465706f7369746f723a204d696e696d756d206260448201527f75796261636b20726174696f20697320746f6f206c6f7700000000000000000060648201526084016107a1565b670de0b6b3a764000082111561135c5760405162461bcd60e51b815260206004820152603860248201527f53796d6d696f536f6c7665724465706f7369746f723a204d696e696d756d206260448201527f75796261636b20726174696f20697320746f6f2068696768000000000000000060648201526084016107a1565b6101668290556040518281527f2ae6ddf10933401b20295006a4f7ed3af82a0ab05354f1fc7db9be3fc75f19d7906020015b60405180910390a15050565b7f65d7a28e3265b37a6474929f336521b332c1681b933f6cb9f3376673440d862a6113c481612509565b61114e61290e565b6113d46127b2565b6001600160a01b0384166114505760405162461bcd60e51b815260206004820152603060248201527f53796d6d696f536f6c7665724465706f7369746f723a205a65726f206164647260448201527f65737320666f722072656365697665720000000000000000000000000000000060648201526084016107a1565b4282116114c55760405162461bcd60e51b815260206004820152603560248201527f53796d6d696f536f6c7665724465706f7369746f723a20446561646c696e652060448201527f6d75737420626520696e2074686520667574757265000000000000000000000060648201526084016107a1565b6001600160a01b038416600090815261016d6020908152604080832086845290915290205460ff16156115605760405162461bcd60e51b815260206004820152602960248201527f53796d6d696f536f6c7665724465706f7369746f723a204e6f6e636520616c7260448201527f656164792075736564000000000000000000000000000000000000000000000060648201526084016107a1565b61156e86868686868661294b565b6115e05760405162461bcd60e51b815260206004820152602860248201527f53796d6d696f536f6c7665724465706f7369746f723a20496e76616c6964207360448201527f69676e617475726500000000000000000000000000000000000000000000000060648201526084016107a1565b6001600160a01b038416600081815261016d60209081526040808320878452825291829020805460ff191660011790558151610100810190925291815261016a91810161162a3390565b6001600160a01b031681526020810189905260408101889052606001600081526000602080830182905260408084018390526060938401839052855460018082018855968452928290208551600890940201805473ffffffffffffffffffffffffffffffffffffffff199081166001600160a01b039586161782559286015181880180549094169416939093179091558301516002820155908201516003808301919091556080830151600483018054949593949193909260ff199092169184908111156116fa576116fa614081565b021790555060a0820151600582015560c0820151600682015560e09091015160079091015533600090815261016c60205260408120805488929061173f9084906141c1565b909155505061016a546001600160a01b038516903390611761906001906141d4565b604080518a8152602081018890527f0766e8c55dde32095d8c203180e4f32c7407c445e0a87007877162126d257b25910160405180910390a4505050505050565b60006060806000806000606060fb546000801b1480156117c2575060fc54155b61180e5760405162461bcd60e51b815260206004820152601560248201527f4549503731323a20556e696e697469616c697a6564000000000000000000000060448201526064016107a1565b6118166129f3565b61181e612a85565b604080516000808252602082019092527f0f000000000000000000000000000000000000000000000000000000000000009b939a50919850469750309650945092509050565b61186c6127b2565b61016a5481106118e45760405162461bcd60e51b815260206004820152602960248201527f53796d6d696f536f6c7665724465706f7369746f723a20496e76616c6964207260448201527f657175657374204944000000000000000000000000000000000000000000000060648201526084016107a1565b600061016a82815481106118fa576118fa61415c565b6000918252602090912060089091020190506001600482015460ff16600381111561192757611927614081565b1461199a5760405162461bcd60e51b815260206004820152603760248201527f53796d6d696f536f6c7665724465706f7369746f723a2052657175657374206e60448201527f6f7420726561647920666f72207769746864726177616c00000000000000000060648201526084016107a1565b4281600701541115611a145760405162461bcd60e51b815260206004820152603960248201527f53796d6d696f536f6c7665724465706f7369746f723a2052657175657374206e60448201527f6f742070617373207769746864726177616c20706572696f640000000000000060648201526084016107a1565b60048101805460ff19166002908117909155600582015490820154600091670de0b6b3a764000091611a469190614188565b611a50919061419f565b9050806101656000828254611a6591906141d4565b9091555050815461016454611a87916001600160a01b03918216911683612a94565b81546040516001600160a01b039091169084907f4ce122b005e10b197f4caf028d92e008a684c370ad8f93528e07ded8214240e190600090a3505050565b6000828152609760205260408120611add9083612add565b9392505050565b7f61c92169ef077349011ff0b1383c894d86c5f0b41d986366b58a6cf31e93beda611b0e81612509565b610aa782612ae9565b61016a8181548110611b2857600080fd5b6000918252602090912060089091020180546001820154600283015460038401546004850154600586015460068701546007909701546001600160a01b03968716985094909516959294919360ff909116929088565b600054610100900460ff1615808015611b9e5750600054600160ff909116105b80611bb85750303b158015611bb8575060005460ff166001145b611c2a5760405162461bcd60e51b815260206004820152602e60248201527f496e697469616c697a61626c653a20636f6e747261637420697320616c72656160448201527f647920696e697469616c697a656400000000000000000000000000000000000060648201526084016107a1565b6000805460ff191660011790558015611c4d576000805461ff0019166101001790555b611c55612b25565b611c5d612b98565b611c65612c03565b611cd96040518060400160405280601481526020017f4f6e436861696e53796d6d696f5661756c7456320000000000000000000000008152506040518060400160405280600181526020017f3100000000000000000000000000000000000000000000000000000000000000815250612c76565b611ce460003361276e565b611d0e7f61c92169ef077349011ff0b1383c894d86c5f0b41d986366b58a6cf31e93beda3361276e565b611d1786610719565b611d2085610910565b611d2982611ff5565b611d3284611151565b611d3b83611236565b611d456064612ae9565b8015611d8b576000805461ff0019169055604051600181527f7f26b83ff96e1f2b6a682f133852f6798a09c465da95921460cefb38474024989060200160405180910390a15b505050505050565b611d9b6127b2565b611da3612ceb565b60008111611e195760405162461bcd60e51b815260206004820152603460248201527f53796d6d696f536f6c7665724465706f7369746f723a20416d6f756e74206d7560448201527f73742062652067726561746572207468616e203000000000000000000000000060648201526084016107a1565b610167548161016854611e2c91906141c1565b1115611ea05760405162461bcd60e51b815260206004820152602c60248201527f53796d6d696f536f6c7665724465706f7369746f723a204465706f736974206c60448201527f696d69742072656163686564000000000000000000000000000000000000000060648201526084016107a1565b610164546001600160a01b0316611eb981333085612805565b816101686000828254611ecc91906141c1565b909155505060405182815233907fe1fffcc4923d04b559f4d29a8bfc6cda04eb5b0d3c460751c2402c5c5cc9109c9060200160405180910390a261016154611f21906001600160a01b03838116911684612d46565b61016154610162546040517f2f4f21e20000000000000000000000000000000000000000000000000000000081526001600160a01b03918216600482015260248101859052911690632f4f21e290604401600060405180830381600087803b158015611f8c57600080fd5b505af1158015611fa0573d6000803e3d6000fd5b5050610162546040518581526001600160a01b0390911692503391507f42a31d51415a86588240e32bf72025c881c4c9aada6e283ce50dc32f5a64717b9060200160405180910390a35061114e600161012f55565b7f61c92169ef077349011ff0b1383c894d86c5f0b41d986366b58a6cf31e93beda61201f81612509565b6101678290556040518281527fa1b2ac18b42a8ccd9c95e39420259ed780b3f6d890e5ecd36af7a4dc570348ff9060200161138e565b600081815260976020526040812061090a90612e24565b6120746127b2565b61016a5481106120ec5760405162461bcd60e51b815260206004820152602960248201527f53796d6d696f536f6c7665724465706f7369746f723a20496e76616c6964207260448201527f657175657374204944000000000000000000000000000000000000000000000060648201526084016107a1565b600061016a82815481106121025761210261415c565b906000526020600020906008020190506121193390565b60018201546001600160a01b0390811691161461219e5760405162461bcd60e51b815260206004820152603f60248201527f53796d6d696f536f6c7665724465706f7369746f723a204f6e6c79207468652060448201527f73656e646572206f6620726571756573742063616e2063616e63656c2069740060648201526084016107a1565b6000600482015460ff1660038111156121b9576121b9614081565b1461222c5760405162461bcd60e51b815260206004820152602560248201527f53796d6d696f536f6c7665724465706f7369746f723a20496e76616c6964207360448201527f746174757300000000000000000000000000000000000000000000000000000060648201526084016107a1565b60048101805460ff19166003179055600281015433600090815261016c6020526040812080549091906122609084906141d4565b909155505060405182907f8f3015a84bd69b67997edb78d8928ad670dcb6243df596529ae1e07f93eaf35a90600090a25050565b6000828152606560205260409020600101546122af81612509565b610a1a8383612790565b7f372387bd01807b923229b5bd1e46f8a6b8815b5d5db581db3e993c5168467b276122e381612509565b6122eb6127b2565b6001600160a01b0383166123675760405162461bcd60e51b815260206004820152603060248201527f53796d6d696f536f6c7665724465706f7369746f723a205a65726f206164647260448201527f65737320666f722072656365697665720000000000000000000000000000000060648201526084016107a1565b600082116123dd5760405162461bcd60e51b815260206004820152603460248201527f53796d6d696f536f6c7665724465706f7369746f723a20416d6f756e74206d7560448201527f73742062652067726561746572207468616e203000000000000000000000000060648201526084016107a1565b610164546040517f70a082310000000000000000000000000000000000000000000000000000000081523060048201526001600160a01b039091169060009082906370a0823190602401602060405180830381865afa158015612444573d6000803e3d6000fd5b505050506040513d601f19601f8201168201806040525081019061246891906141e7565b9050610165548161247991906141d4565b8411156124ee5760405162461bcd60e51b815260206004820152602b60248201527f53796d6d696f536f6c7665724465706f7369746f723a20496e7375666669636960448201527f656e742062616c616e636500000000000000000000000000000000000000000060648201526084016107a1565b6125026001600160a01b0383168686612a94565b5050505050565b61114e8133612e2e565b61016160009054906101000a90046001600160a01b03166001600160a01b0316635c1548fb6040518163ffffffff1660e01b8152600401602060405180830381865afa158015612567573d6000803e3d6000fd5b505050506040513d601f19601f8201168201806040525081019061258b9190614229565b610164805473ffffffffffffffffffffffffffffffffffffffff19166001600160a01b03929092169182179055604080517f313ce567000000000000000000000000000000000000000000000000000000008152905163313ce567916004808201926020929091908290030181865afa15801561260c573d6000803e3d6000fd5b505050506040513d601f19601f820116820180604052508101906126309190614246565b60ff16610169819055601210156126d55760405162461bcd60e51b815260206004820152604e60248201527f53796d6d696f536f6c7665724465706f7369746f723a20436f6c6c617465726160448201527f6c20646563696d616c732073686f756c64206265206c6f776572207468616e2060648201527f6f7220657175616c20746f203138000000000000000000000000000000000000608482015260a4016107a1565b565b60007fffffffff0000000000000000000000000000000000000000000000000000000082167f7965db0b00000000000000000000000000000000000000000000000000000000148061090a57507f01ffc9a7000000000000000000000000000000000000000000000000000000007fffffffff0000000000000000000000000000000000000000000000000000000083161461090a565b6127788282612ea3565b6000828152609760205260409020610a1a9082612f45565b61279a8282612f5a565b6000828152609760205260409020610a1a9082612fdd565b60c95460ff16156126d55760405162461bcd60e51b815260206004820152601060248201527f5061757361626c653a207061757365640000000000000000000000000000000060448201526064016107a1565b6040516001600160a01b03808516602483015283166044820152606481018290526128b69085907f23b872dd00000000000000000000000000000000000000000000000000000000906084015b60408051601f198184030181529190526020810180517bffffffffffffffffffffffffffffffffffffffffffffffffffffffff167fffffffff0000000000000000000000000000000000000000000000000000000090931692909217909152612ff2565b50505050565b6128c46130da565b60c9805460ff191690557f5db9ee0a495bf2e6ff9c91a7834c1ba4fdd244a5e8aa4e537bd38aeae4b073aa335b6040516001600160a01b03909116815260200160405180910390a1565b6129166127b2565b60c9805460ff191660011790557f62e78cea01bee320cd4e420270b5ea74000d11b0c9f74754ebdbfc544b05a2586128f13390565b604080517fb1dd0bed30d3b8ab9fc76313ecb7db14f6b497d5f1f7859fa5cb5811c1ca30736020820152908101879052606081018690526001600160a01b038516608082015260a0810184905260c0810183905260009081906129c69060e0016040516020818303038152906040528051906020012061312c565b905060006129d48285613174565b610163546001600160a01b039182169116149998505050505050505050565b606060fd8054612a0290614269565b80601f0160208091040260200160405190810160405280929190818152602001828054612a2e90614269565b8015612a7b5780601f10612a5057610100808354040283529160200191612a7b565b820191906000526020600020905b815481529060010190602001808311612a5e57829003601f168201915b5050505050905090565b606060fe8054612a0290614269565b6040516001600160a01b038316602482015260448101829052610a1a9084907fa9059cbb0000000000000000000000000000000000000000000000000000000090606401612852565b6000611add8383613198565b61016b8190556040518181527f699d7bc1fd2d92f6912f04b6a309ef25ec3937479e80cdc04b75f234a724e9a29060200160405180910390a150565b600054610100900460ff16612b905760405162461bcd60e51b815260206004820152602b60248201527f496e697469616c697a61626c653a20636f6e7472616374206973206e6f74206960448201526a6e697469616c697a696e6760a81b60648201526084016107a1565b6126d56131c2565b600054610100900460ff166126d55760405162461bcd60e51b815260206004820152602b60248201527f496e697469616c697a61626c653a20636f6e7472616374206973206e6f74206960448201526a6e697469616c697a696e6760a81b60648201526084016107a1565b600054610100900460ff16612c6e5760405162461bcd60e51b815260206004820152602b60248201527f496e697469616c697a61626c653a20636f6e7472616374206973206e6f74206960448201526a6e697469616c697a696e6760a81b60648201526084016107a1565b6126d561322d565b600054610100900460ff16612ce15760405162461bcd60e51b815260206004820152602b60248201527f496e697469616c697a61626c653a20636f6e7472616374206973206e6f74206960448201526a6e697469616c697a696e6760a81b60648201526084016107a1565b610aa782826132a4565b600261012f5403612d3e5760405162461bcd60e51b815260206004820152601f60248201527f5265656e7472616e637947756172643a207265656e7472616e742063616c6c0060448201526064016107a1565b600261012f55565b604080516001600160a01b038416602482015260448082018490528251808303909101815260649091019091526020810180517bffffffffffffffffffffffffffffffffffffffffffffffffffffffff167f095ea7b300000000000000000000000000000000000000000000000000000000179052612dc58482613337565b6128b6576040516001600160a01b038416602482015260006044820152612e129085907f095ea7b30000000000000000000000000000000000000000000000000000000090606401612852565b6128b68482612ff2565b600161012f55565b600061090a825490565b60008281526065602090815260408083206001600160a01b038516845290915290205460ff16610aa757612e61816133de565b612e6c8360206133f0565b604051602001612e7d9291906142a3565b60408051601f198184030181529082905262461bcd60e51b82526107a191600401614324565b60008281526065602090815260408083206001600160a01b038516845290915290205460ff16610aa75760008281526065602090815260408083206001600160a01b03851684529091529020805460ff19166001179055612f013390565b6001600160a01b0316816001600160a01b0316837f2f8788117e7eff1d82e926ec794901d17c78024a50270940304540a733656f0d60405160405180910390a45050565b6000611add836001600160a01b038416613619565b60008281526065602090815260408083206001600160a01b038516845290915290205460ff1615610aa75760008281526065602090815260408083206001600160a01b0385168085529252808320805460ff1916905551339285917ff6391f5c32d9c69d2a47ea670b442974b53935d1edc7fd64eb21e047a839171b9190a45050565b6000611add836001600160a01b038416613668565b6000613047826040518060400160405280602081526020017f5361666545524332303a206c6f772d6c6576656c2063616c6c206661696c6564815250856001600160a01b031661375b9092919063ffffffff16565b90508051600014806130685750808060200190518101906130689190614337565b610a1a5760405162461bcd60e51b815260206004820152602a60248201527f5361666545524332303a204552433230206f7065726174696f6e20646964206e60448201527f6f7420737563636565640000000000000000000000000000000000000000000060648201526084016107a1565b60c95460ff166126d55760405162461bcd60e51b815260206004820152601460248201527f5061757361626c653a206e6f742070617573656400000000000000000000000060448201526064016107a1565b600061090a613139613772565b836040517f19010000000000000000000000000000000000000000000000000000000000008152600281019290925260228201526042902090565b60008060006131838585613781565b91509150613190816137c6565b509392505050565b60008260000182815481106131af576131af61415c565b9060005260206000200154905092915050565b600054610100900460ff16612e1c5760405162461bcd60e51b815260206004820152602b60248201527f496e697469616c697a61626c653a20636f6e7472616374206973206e6f74206960448201526a6e697469616c697a696e6760a81b60648201526084016107a1565b600054610100900460ff166132985760405162461bcd60e51b815260206004820152602b60248201527f496e697469616c697a61626c653a20636f6e7472616374206973206e6f74206960448201526a6e697469616c697a696e6760a81b60648201526084016107a1565b60c9805460ff19169055565b600054610100900460ff1661330f5760405162461bcd60e51b815260206004820152602b60248201527f496e697469616c697a61626c653a20636f6e7472616374206973206e6f74206960448201526a6e697469616c697a696e6760a81b60648201526084016107a1565b60fd61331b83826143a0565b5060fe61332882826143a0565b5050600060fb81905560fc5550565b6000806000846001600160a01b031684604051613354919061445f565b6000604051808303816000865af19150503d8060008114613391576040519150601f19603f3d011682016040523d82523d6000602084013e613396565b606091505b50915091508180156133c05750805115806133c05750808060200190518101906133c09190614337565b80156133d557506001600160a01b0385163b15155b95945050505050565b606061090a6001600160a01b03831660145b606060006133ff836002614188565b61340a9060026141c1565b67ffffffffffffffff81111561342257613422613d3f565b6040519080825280601f01601f19166020018201604052801561344c576020820181803683370190505b5090507f3000000000000000000000000000000000000000000000000000000000000000816000815181106134835761348361415c565b60200101907effffffffffffffffffffffffffffffffffffffffffffffffffffffffffffff1916908160001a9053507f7800000000000000000000000000000000000000000000000000000000000000816001815181106134e6576134e661415c565b60200101907effffffffffffffffffffffffffffffffffffffffffffffffffffffffffffff1916908160001a9053506000613522846002614188565b61352d9060016141c1565b90505b60018111156135ca577f303132333435363738396162636465660000000000000000000000000000000085600f166010811061356e5761356e61415c565b1a60f81b8282815181106135845761358461415c565b60200101907effffffffffffffffffffffffffffffffffffffffffffffffffffffffffffff1916908160001a90535060049490941c936135c38161447b565b9050613530565b508315611add5760405162461bcd60e51b815260206004820181905260248201527f537472696e67733a20686578206c656e67746820696e73756666696369656e7460448201526064016107a1565b60008181526001830160205260408120546136605750815460018181018455600084815260208082209093018490558454848252828601909352604090209190915561090a565b50600061090a565b6000818152600183016020526040812054801561375157600061368c6001836141d4565b85549091506000906136a0906001906141d4565b90508181146137055760008660000182815481106136c0576136c061415c565b90600052602060002001549050808760000184815481106136e3576136e361415c565b6000918252602080832090910192909255918252600188019052604090208390555b855486908061371657613716614492565b60019003818190600052602060002001600090559055856001016000868152602001908152602001600020600090556001935050505061090a565b600091505061090a565b606061376a848460008561392b565b949350505050565b600061377c613a1d565b905090565b60008082516041036137b75760208301516040840151606085015160001a6137ab87828585613a91565b945094505050506137bf565b506000905060025b9250929050565b60008160048111156137da576137da614081565b036137e25750565b60018160048111156137f6576137f6614081565b036138435760405162461bcd60e51b815260206004820152601860248201527f45434453413a20696e76616c6964207369676e6174757265000000000000000060448201526064016107a1565b600281600481111561385757613857614081565b036138a45760405162461bcd60e51b815260206004820152601f60248201527f45434453413a20696e76616c6964207369676e6174757265206c656e6774680060448201526064016107a1565b60038160048111156138b8576138b8614081565b0361114e5760405162461bcd60e51b815260206004820152602260248201527f45434453413a20696e76616c6964207369676e6174757265202773272076616c60448201527f756500000000000000000000000000000000000000000000000000000000000060648201526084016107a1565b6060824710156139a35760405162461bcd60e51b815260206004820152602660248201527f416464726573733a20696e73756666696369656e742062616c616e636520666f60448201527f722063616c6c000000000000000000000000000000000000000000000000000060648201526084016107a1565b600080866001600160a01b031685876040516139bf919061445f565b60006040518083038185875af1925050503d80600081146139fc576040519150601f19603f3d011682016040523d82523d6000602084013e613a01565b606091505b5091509150613a1287838387613b55565b979650505050505050565b60007f8b73c3c69bb8fe3d512ecc4cf759cc79239f7b179b0ffacaa9a75d522b39400f613a48613bce565b613a50613c27565b60408051602081019490945283019190915260608201524660808201523060a082015260c00160405160208183030381529060405280519060200120905090565b6000807f7fffffffffffffffffffffffffffffff5d576e7357a4501ddfe92f46681b20a0831115613ac85750600090506003613b4c565b6040805160008082526020820180845289905260ff881692820192909252606081018690526080810185905260019060a0016020604051602081039080840390855afa158015613b1c573d6000803e3d6000fd5b5050604051601f1901519150506001600160a01b038116613b4557600060019250925050613b4c565b9150600090505b94509492505050565b60608315613bc4578251600003613bbd576001600160a01b0385163b613bbd5760405162461bcd60e51b815260206004820152601d60248201527f416464726573733a2063616c6c20746f206e6f6e2d636f6e747261637400000060448201526064016107a1565b508161376a565b61376a8383613c58565b600080613bd96129f3565b805190915015613bf0578051602090910120919050565b60fb548015613bff5792915050565b7fc5d2460186f7233c927e7db2dcc703c0e500b653ca82273b7bfad8045d85a4709250505090565b600080613c32612a85565b805190915015613c49578051602090910120919050565b60fc548015613bff5792915050565b815115613c685781518083602001fd5b8060405162461bcd60e51b81526004016107a19190614324565b6001600160a01b038116811461114e57600080fd5b600060208284031215613ca957600080fd5b8135611add81613c82565b600060208284031215613cc657600080fd5b81357fffffffff0000000000000000000000000000000000000000000000000000000081168114611add57600080fd5b600060208284031215613d0857600080fd5b5035919050565b60008060408385031215613d2257600080fd5b823591506020830135613d3481613c82565b809150509250929050565b634e487b7160e01b600052604160045260246000fd5b604051601f8201601f1916810167ffffffffffffffff81118282101715613d7e57613d7e613d3f565b604052919050565b600080600060608486031215613d9b57600080fd5b83359250602084013567ffffffffffffffff811115613db957600080fd5b8401601f81018613613dca57600080fd5b803567ffffffffffffffff811115613de457613de4613d3f565b8060051b613df460208201613d55565b91825260208184018101929081019089841115613e1057600080fd5b6020850194505b83851015613e3657843580835260209586019590935090910190613e17565b96999698505050506040949094013593505050565b60008060408385031215613e5e57600080fd5b8235613e6981613c82565b946020939093013593505050565b60008060008060008060c08789031215613e9057600080fd5b86359550602087013594506040870135613ea981613c82565b9350606087013592506080870135915060a087013567ffffffffffffffff811115613ed357600080fd5b8701601f81018913613ee457600080fd5b803567ffffffffffffffff811115613efe57613efe613d3f565b613f116020601f19601f84011601613d55565b8181528a6020838501011115613f2657600080fd5b816020840160208301376000602083830101528093505050509295509295509295565b60005b83811015613f64578181015183820152602001613f4c565b50506000910152565b60008151808452613f85816020860160208601613f49565b601f01601f19169290920160200192915050565b600081518084526020840193506020830160005b82811015613fcb578151865260209586019590910190600101613fad565b5093949350505050565b7fff000000000000000000000000000000000000000000000000000000000000008816815260e06020820152600061401060e0830189613f6d565b82810360408401526140228189613f6d565b90508660608401526001600160a01b03861660808401528460a084015282810360c08401526140518185613f99565b9a9950505050505050505050565b6000806040838503121561407257600080fd5b50508035926020909101359150565b634e487b7160e01b600052602160045260246000fd5b6001600160a01b0389811682528816602082015260408101879052606081018690526101008101600486106140dc57634e487b7160e01b600052602160045260246000fd5b8560808301528460a08301528360c08301528260e08301529998505050505050505050565b600080600080600060a0868803121561411957600080fd5b853561412481613c82565b9450602086013561413481613c82565b9350604086013561414481613c82565b94979396509394606081013594506080013592915050565b634e487b7160e01b600052603260045260246000fd5b634e487b7160e01b600052601160045260246000fd5b808202811582820484141761090a5761090a614172565b6000826141bc57634e487b7160e01b600052601260045260246000fd5b500490565b8082018082111561090a5761090a614172565b8181038181111561090a5761090a614172565b6000602082840312156141f957600080fd5b5051919050565b8381526060602082015260006142196060830185613f99565b9050826040830152949350505050565b60006020828403121561423b57600080fd5b8151611add81613c82565b60006020828403121561425857600080fd5b815160ff81168114611add57600080fd5b600181811c9082168061427d57607f821691505b60208210810361429d57634e487b7160e01b600052602260045260246000fd5b50919050565b7f416363657373436f6e74726f6c3a206163636f756e74200000000000000000008152600083516142db816017850160208801613f49565b7f206973206d697373696e6720726f6c65200000000000000000000000000000006017918401918201528351614318816028840160208801613f49565b01602801949350505050565b602081526000611add6020830184613f6d565b60006020828403121561434957600080fd5b81518015158114611add57600080fd5b601f821115610a1a57806000526020600020601f840160051c810160208510156143805750805b601f840160051c820191505b81811015612502576000815560010161438c565b815167ffffffffffffffff8111156143ba576143ba613d3f565b6143ce816143c88454614269565b84614359565b6020601f82116001811461440257600083156143ea5750848201515b600019600385901b1c1916600184901b178455612502565b600084815260208120601f198516915b828110156144325787850151825560209485019460019092019101614412565b50848210156144505786840151600019600387901b60f8161c191681555b50505050600190811b01905550565b60008251614471818460208701613f49565b9190910192915050565b60008161448a5761448a614172565b506000190190565b634e487b7160e01b600052603160045260246000fdfea264697066735822122011d2354f36edcab57d8c8a91614de332346332af4296cfe3a086b999577810b264736f6c634300081c0033",
  "linkReferences": {},
  "deployedLinkReferences": {}
}