{
  "_format": "hh-sol-artifact-1",
  "contractName": "OnChainSymmioVaultV2",
  "sourceName": "contracts/OnChainSymmioVaultV2.sol",
  "abi": [
    {
      "inputs": [],
      "stateMutability": "nonpayable",
      "type": "constructor"
    },
    {
      "anonymous": false,
      "inputs": [
        {
          "indexed": true,
          "internalType": "address",
          "name": "depositor",
          "type": "address"
        },
        {
          "indexed": false,
          "internalType": "uint256",
          "name": "amount",
          "type": "uint256"
        }
      ],
      "name": "Deposit",
      "type": "event"
    },
    {
      "anonymous": false,
      "inputs": [
        {
          "indexed": false,
          "internalType": "uint256",
          "name": "depositLimit",
          "type": "uint256"
        }
      ],
      "name": "DepositLimitUpdatedEvent",
      "type": "event"
    },
    {
      "anonymous": false,
      "inputs": [
        {
          "indexed": true,
          "internalType": "address",
          "name": "depositor",
          "type": "address"
        },
        {
          "indexed": true,
          "internalType": "address",
          "name": "solver",
          "type": "address"
        },
        {
          "indexed": false,
          "internalType": "uint256",
          "name": "amount",
          "type": "uint256"
        }
      ],
      "name": "DepositToSymmio",
      "type": "event"
    },
    {
      "anonymous": false,
      "inputs": [],
      "name": "EIP712DomainChanged",
      "type": "event"
    },
    {
      "anonymous": false,
      "inputs": [
        {
          "indexed": false,
          "internalType": "uint8",
          "name": "version",
          "type": "uint8"
        }
      ],
      "name": "Initialized",
      "type": "event"
    },
    {
      "anonymous": false,
      "inputs": [
        {
          "indexed": false,
          "internalType": "uint256",
          "name": "minimumPaybackRatio",
          "type": "uint256"
        }
      ],
      "name": "MinimumPaybackRatioUpdatedEvent",
      "type": "event"
    },
    {
      "anonymous": false,
      "inputs": [
        {
          "indexed": false,
          "internalType": "address",
          "name": "account",
          "type": "address"
        }
      ],
      "name": "Paused",
      "type": "event"
    },
    {
      "anonymous": false,
      "inputs": [
        {
          "indexed": true,
          "internalType": "bytes32",
          "name": "role",
          "type": "bytes32"
        },
        {
          "indexed": true,
          "internalType": "bytes32",
          "name": "previousAdminRole",
          "type": "bytes32"
        },
        {
          "indexed": true,
          "internalType": "bytes32",
          "name": "newAdminRole",
          "type": "bytes32"
        }
      ],
      "name": "RoleAdminChanged",
      "type": "event"
    },
    {
      "anonymous": false,
      "inputs": [
        {
          "indexed": true,
          "internalType": "bytes32",
          "name": "role",
          "type": "bytes32"
        },
        {
          "indexed": true,
          "internalType": "address",
          "name": "account",
          "type": "address"
        },
        {
          "indexed": true,
          "internalType": "address",
          "name": "sender",
          "type": "address"
        }
      ],
      "name": "RoleGranted",
      "type": "event"
    },
    {
      "anonymous": false,
      "inputs": [
        {
          "indexed": true,
          "internalType": "bytes32",
          "name": "role",
          "type": "bytes32"
        },
        {
          "indexed": true,
          "internalType": "address",
          "name": "account",
          "type": "address"
        },
        {
          "indexed": true,
          "internalType": "address",
          "name": "sender",
          "type": "address"
        }
      ],
      "name": "RoleRevoked",
      "type": "event"
    },
    {
      "anonymous": false,
      "inputs": [
        {
          "indexed": true,
          "internalType": "address",
          "name": "signer",
          "type": "address"
        }
      ],
      "name": "SignerUpdatedEvent",
      "type": "event"
    },
    {
      "anonymous": false,
      "inputs": [
        {
          "indexed": true,
          "internalType": "address",
          "name": "solver",
          "type": "address"
        }
      ],
      "name": "SolverUpdatedEvent",
      "type": "event"
    },
    {
      "anonymous": false,
      "inputs": [
        {
          "indexed": true,
          "internalType": "address",
          "name": "newSymmioAddress",
          "type": "address"
        }
      ],
      "name": "SymmioAddressUpdatedEvent",
      "type": "event"
    },
    {
      "anonymous": false,
      "inputs": [
        {
          "indexed": false,
          "internalType": "address",
          "name": "account",
          "type": "address"
        }
      ],
      "name": "Unpaused",
      "type": "event"
    },
    {
      "anonymous": false,
      "inputs": [
        {
          "indexed": true,
          "internalType": "uint256",
          "name": "requestId",
          "type": "uint256"
        },
        {
          "indexed": true,
          "internalType": "address",
          "name": "receiver",
          "type": "address"
        }
      ],
      "name": "WithdrawClaimedEvent",
      "type": "event"
    },
    {
      "anonymous": false,
      "inputs": [
        {
          "indexed": false,
          "internalType": "uint256",
          "name": "providedAmount",
          "type": "uint256"
        },
        {
          "indexed": false,
          "internalType": "uint256[]",
          "name": "acceptedRequestIds",
          "type": "uint256[]"
        },
        {
          "indexed": false,
          "internalType": "uint256",
          "name": "paybackRatio",
          "type": "uint256"
        }
      ],
      "name": "WithdrawRequestAcceptedEvent",
      "type": "event"
    },
    {
      "anonymous": false,
      "inputs": [
        {
          "indexed": true,
          "internalType": "uint256",
          "name": "requestId",
          "type": "uint256"
        }
      ],
      "name": "WithdrawRequestCanceled",
      "type": "event"
    },
    {
      "anonymous": false,
      "inputs": [
        {
          "indexed": true,
          "internalType": "uint256",
          "name": "requestId",
          "type": "uint256"
        },
        {
          "indexed": true,
          "internalType": "address",
          "name": "sender",
          "type": "address"
        },
        {
          "indexed": true,
          "internalType": "address",
          "name": "receiver",
          "type": "address"
        },
        {
          "indexed": false,
          "internalType": "uint256",
          "name": "amount",
          "type": "uint256"
        },
        {
          "indexed": false,
          "internalType": "uint256",
          "name": "nonce",
          "type": "uint256"
        }
      ],
      "name": "WithdrawRequestEvent",
      "type": "event"
    },
    {
      "anonymous": false,
      "inputs": [
        {
          "indexed": true,
          "internalType": "uint256",
          "name": "requestId",
          "type": "uint256"
        }
      ],
      "name": "WithdrawRequestRejected",
      "type": "event"
    },
    {
      "anonymous": false,
      "inputs": [
        {
          "indexed": false,
          "internalType": "uint256",
          "name": "withdrawalPeriod",
          "type": "uint256"
        }
      ],
      "name": "WithdrawalPeriodUpdate",
      "type": "event"
    },
    {
      "inputs": [],
      "name": "BALANCER_ROLE",
      "outputs": [
        {
          "internalType": "bytes32",
          "name": "",
          "type": "bytes32"
        }
      ],
      "stateMutability": "view",
      "type": "function"
    },
    {
      "inputs": [],
      "name": "DEFAULT_ADMIN_ROLE",
      "outputs": [
        {
          "internalType": "bytes32",
          "name": "",
          "type": "bytes32"
        }
      ],
      "stateMutability": "view",
      "type": "function"
    },
    {
      "inputs": [],
      "name": "MIN_PAYBACK_RATIO",
      "outputs": [
        {
          "internalType": "uint256",
          "name": "",
          "type": "uint256"
        }
      ],
      "stateMutability": "view",
      "type": "function"
    },
    {
      "inputs": [],
      "name": "PAUSER_ROLE",
      "outputs": [
        {
          "internalType": "bytes32",
          "name": "",
          "type": "bytes32"
        }
      ],
      "stateMutability": "view",
      "type": "function"
    },
    {
      "inputs": [],
      "name": "SETTER_ROLE",
      "outputs": [
        {
          "internalType": "bytes32",
          "name": "",
          "type": "bytes32"
        }
      ],
      "stateMutability": "view",
      "type": "function"
    },
    {
      "inputs": [],
      "name": "TYPE_HASH",
      "outputs": [
        {
          "internalType": "bytes32",
          "name": "",
          "type": "bytes32"
        }
      ],
      "stateMutability": "view",
      "type": "function"
    },
    {
      "inputs": [],
      "name": "UNPAUSER_ROLE",
      "outputs": [
        {
          "internalType": "bytes32",
          "name": "",
          "type": "bytes32"
        }
      ],
      "stateMutability": "view",
      "type": "function"
    },
    {
      "inputs": [
        {
          "internalType": "uint256",
          "name": "providedAmount",
          "type": "uint256"
        },
        {
          "internalType": "uint256[]",
          "name": "_acceptedRequestIds",
          "type": "uint256[]"
        },
        {
          "internalType": "uint256",
          "name": "_paybackRatio",
          "type": "uint256"
        }
      ],
      "name": "acceptWithdrawRequest",
      "outputs": [],
      "stateMutability": "nonpayable",
      "type": "function"
    },
    {
      "inputs": [
        {
          "internalType": "uint256",
          "name": "id",
          "type": "uint256"
        }
      ],
      "name": "cancelWithdrawRequest",
      "outputs": [],
      "stateMutability": "nonpayable",
      "type": "function"
    },
    {
      "inputs": [
        {
          "internalType": "uint256",
          "name": "requestId",
          "type": "uint256"
        }
      ],
      "name": "claimForWithdrawRequest",
      "outputs": [],
      "stateMutability": "nonpayable",
      "type": "function"
    },
    {
      "inputs": [],
      "name": "collateralTokenAddress",
      "outputs": [
        {
          "internalType": "address",
          "name": "",
          "type": "address"
        }
      ],
      "stateMutability": "view",
      "type": "function"
    },
    {
      "inputs": [],
      "name": "collateralTokenDecimals",
      "outputs": [
        {
          "internalType": "uint256",
          "name": "",
          "type": "uint256"
        }
      ],
      "stateMutability": "view",
      "type": "function"
    },
    {
      "inputs": [],
      "name": "currentDeposit",
      "outputs": [
        {
          "internalType": "uint256",
          "name": "",
          "type": "uint256"
        }
      ],
      "stateMutability": "view",
      "type": "function"
    },
    {
      "inputs": [
        {
          "internalType": "uint256",
          "name": "amount",
          "type": "uint256"
        }
      ],
      "name": "deposit",
      "outputs": [],
      "stateMutability": "nonpayable",
      "type": "function"
    },
    {
      "inputs": [],
      "name": "depositLimit",
      "outputs": [
        {
          "internalType": "uint256",
          "name": "",
          "type": "uint256"
        }
      ],
      "stateMutability": "view",
      "type": "function"
    },
    {
      "inputs": [],
      "name": "eip712Domain",
      "outputs": [
        {
          "internalType": "bytes1",
          "name": "fields",
          "type": "bytes1"
        },
        {
          "internalType": "string",
          "name": "name",
          "type": "string"
        },
        {
          "internalType": "string",
          "name": "version",
          "type": "string"
        },
        {
          "internalType": "uint256",
          "name": "chainId",
          "type": "uint256"
        },
        {
          "internalType": "address",
          "name": "verifyingContract",
          "type": "address"
        },
        {
          "internalType": "bytes32",
          "name": "salt",
          "type": "bytes32"
        },
        {
          "internalType": "uint256[]",
          "name": "extensions",
          "type": "uint256[]"
        }
      ],
      "stateMutability": "view",
      "type": "function"
    },
    {
      "inputs": [
        {
          "internalType": "bytes32",
          "name": "role",
          "type": "bytes32"
        }
      ],
      "name": "getRoleAdmin",
      "outputs": [
        {
          "internalType": "bytes32",
          "name": "",
          "type": "bytes32"
        }
      ],
      "stateMutability": "view",
      "type": "function"
    },
    {
      "inputs": [
        {
          "internalType": "bytes32",
          "name": "role",
          "type": "bytes32"
        },
        {
          "internalType": "uint256",
          "name": "index",
          "type": "uint256"
        }
      ],
      "name": "getRoleMember",
      "outputs": [
        {
          "internalType": "address",
          "name": "",
          "type": "address"
        }
      ],
      "stateMutability": "view",
      "type": "function"
    },
    {
      "inputs": [
        {
          "internalType": "bytes32",
          "name": "role",
          "type": "bytes32"
        }
      ],
      "name": "getRoleMemberCount",
      "outputs": [
        {
          "internalType": "uint256",
          "name": "",
          "type": "uint256"
        }
      ],
      "stateMutability": "view",
      "type": "function"
    },
    {
      "inputs": [
        {
          "internalType": "bytes32",
          "name": "role",
          "type": "bytes32"
        },
        {
          "internalType": "address",
          "name": "account",
          "type": "address"
        }
      ],
      "name": "grantRole",
      "outputs": [],
      "stateMutability": "nonpayable",
      "type": "function"
    },
    {
      "inputs": [
        {
          "internalType": "bytes32",
          "name": "role",
          "type": "bytes32"
        },
        {
          "internalType": "address",
          "name": "account",
          "type": "address"
        }
      ],
      "name": "hasRole",
      "outputs": [
        {
          "internalType": "bool",
          "name": "",
          "type": "bool"
        }
      ],
      "stateMutability": "view",
      "type": "function"
    },
    {
      "inputs": [
        {
          "internalType": "address",
          "name": "_symmioAddress",
          "type": "address"
        },
        {
          "internalType": "address",
          "name": "_solver",
          "type": "address"
        },
        {
          "internalType": "address",
          "name": "_signer",
          "type": "address"
        },
        {
          "internalType": "uint256",
          "name": "_minimumPaybackRatio",
          "type": "uint256"
        },
        {
          "internalType": "uint256",
          "name": "_depositLimit",
          "type": "uint256"
        }
      ],
      "name": "initialize",
      "outputs": [],
      "stateMutability": "nonpayable",
      "type": "function"
    },
    {
      "inputs": [],
      "name": "lockedBalance",
      "outputs": [
        {
          "internalType": "uint256",
          "name": "",
          "type": "uint256"
        }
      ],
      "stateMutability": "view",
      "type": "function"
    },
    {
      "inputs": [],
      "name": "minimumPaybackRatio",
      "outputs": [
        {
          "internalType": "uint256",
          "name": "",
          "type": "uint256"
        }
      ],
      "stateMutability": "view",
      "type": "function"
    },
    {
      "inputs": [],
      "name": "pause",
      "outputs": [],
      "stateMutability": "nonpayable",
      "type": "function"
    },
    {
      "inputs": [],
      "name": "paused",
      "outputs": [
        {
          "internalType": "bool",
          "name": "",
          "type": "bool"
        }
      ],
      "stateMutability": "view",
      "type": "function"
    },
    {
      "inputs": [
        {
          "internalType": "address",
          "name": "",
          "type": "address"
        }
      ],
      "name": "pendingWithdrawalAmount",
      "outputs": [
        {
          "internalType": "uint256",
          "name": "",
          "type": "uint256"
        }
      ],
      "stateMutability": "view",
      "type": "function"
    },
    {
      "inputs": [
        {
          "internalType": "uint256",
          "name": "id",
          "type": "uint256"
        }
      ],
      "name": "rejectWithdrawRequest",
      "outputs": [],
      "stateMutability": "nonpayable",
      "type": "function"
    },
    {
      "inputs": [
        {
          "internalType": "bytes32",
          "name": "role",
          "type": "bytes32"
        },
        {
          "internalType": "address",
          "name": "account",
          "type": "address"
        }
      ],
      "name": "renounceRole",
      "outputs": [],
      "stateMutability": "nonpayable",
      "type": "function"
    },
    {
      "inputs": [
        {
          "internalType": "uint256",
          "name": "amount",
          "type": "uint256"
        },
        {
          "internalType": "uint256",
          "name": "minAmountOut",
          "type": "uint256"
        },
        {
          "internalType": "address",
          "name": "receiver",
          "type": "address"
        },
        {
          "internalType": "uint256",
          "name": "nonce",
          "type": "uint256"
        },
        {
          "internalType": "uint256",
          "name": "deadline",
          "type": "uint256"
        },
        {
          "internalType": "bytes",
          "name": "signature",
          "type": "bytes"
        }
      ],
      "name": "requestWithdraw",
      "outputs": [],
      "stateMutability": "nonpayable",
      "type": "function"
    },
    {
      "inputs": [
        {
          "internalType": "bytes32",
          "name": "role",
          "type": "bytes32"
        },
        {
          "internalType": "address",
          "name": "account",
          "type": "address"
        }
      ],
      "name": "revokeRole",
      "outputs": [],
      "stateMutability": "nonpayable",
      "type": "function"
    },
    {
      "inputs": [
        {
          "internalType": "uint256",
          "name": "_depositLimit",
          "type": "uint256"
        }
      ],
      "name": "setDepositLimit",
      "outputs": [],
      "stateMutability": "nonpayable",
      "type": "function"
    },
    {
      "inputs": [
        {
          "internalType": "uint256",
          "name": "_minimumPaybackRatio",
          "type": "uint256"
        }
      ],
      "name": "setMinimumPaybackRatio",
      "outputs": [],
      "stateMutability": "nonpayable",
      "type": "function"
    },
    {
      "inputs": [
        {
          "internalType": "address",
          "name": "_signer",
          "type": "address"
        }
      ],
      "name": "setSigner",
      "outputs": [],
      "stateMutability": "nonpayable",
      "type": "function"
    },
    {
      "inputs": [
        {
          "internalType": "address",
          "name": "_solver",
          "type": "address"
        }
      ],
      "name": "setSolver",
      "outputs": [],
      "stateMutability": "nonpayable",
      "type": "function"
    },
    {
      "inputs": [
        {
          "internalType": "address",
          "name": "_symmioAddress",
          "type": "address"
        }
      ],
      "name": "setSymmioAddress",
      "outputs": [],
      "stateMutability": "nonpayable",
      "type": "function"
    },
    {
      "inputs": [
        {
          "internalType": "uint256",
          "name": "withdrawalPeriod_",
          "type": "uint256"
        }
      ],
      "name": "setWithdrawalPeriod",
      "outputs": [],
      "stateMutability": "nonpayable",
      "type": "function"
    },
    {
      "inputs": [],
      "name": "signer",
      "outputs": [
        {
          "internalType": "address",
          "name": "",
          "type": "address"
        }
      ],
      "stateMutability": "view",
      "type": "function"
    },
    {
      "inputs": [],
      "name": "solver",
      "outputs": [
        {
          "internalType": "address",
          "name": "",
          "type": "address"
        }
      ],
      "stateMutability": "view",
      "type": "function"
    },
    {
      "inputs": [
        {
          "internalType": "bytes4",
          "name": "interfaceId",
          "type": "bytes4"
        }
      ],
      "name": "supportsInterface",
      "outputs": [
        {
          "internalType": "bool",
          "name": "",
          "type": "bool"
        }
      ],
      "stateMutability": "view",
      "type": "function"
    },
    {
      "inputs": [],
      "name": "symmio",
      "outputs": [
        {
          "internalType": "contract ISymmio",
          "name": "",
          "type": "address"
        }
      ],
      "stateMutability": "view",
      "type": "function"
    },
    {
      "inputs": [],
      "name": "unpause",
      "outputs": [],
      "stateMutability": "nonpayable",
      "type": "function"
    },
    {
      "inputs": [
        {
          "internalType": "address",
          "name": "",
          "type": "address"
        },
        {
          "internalType": "uint256",
          "name": "",
          "type": "uint256"
        }
      ],
      "name": "usedNonces",
      "outputs": [
        {
          "internalType": "bool",
          "name": "",
          "type": "bool"
        }
      ],
      "stateMutability": "view",
      "type": "function"
    },
    {
      "inputs": [
        {
          "internalType": "address",
          "name": "receiver",
          "type": "address"
        },
        {
          "internalType": "uint256",
          "name": "amount",
          "type": "uint256"
        }
      ],
      "name": "withdrawNotLockedCollateralTokens",
      "outputs": [],
      "stateMutability": "nonpayable",
      "type": "function"
    },
    {
      "inputs": [
        {
          "internalType": "uint256",
          "name": "",
          "type": "uint256"
        }
      ],
      "name": "withdrawRequests",
      "outputs": [
        {
          "internalType": "address",
          "name": "receiver",
          "type": "address"
        },
        {
          "internalType": "address",
          "name": "sender",
          "type": "address"
        },
        {
          "internalType": "uint256",
          "name": "amount",
          "type": "uint256"
        },
        {
          "internalType": "uint256",
          "name": "minAmountOut",
          "type": "uint256"
        },
        {
          "internalType": "enum IOnChainSymmioVault.RequestStatus",
          "name": "status",
          "type": "uint8"
        },
        {
          "internalType": "uint256",
          "name": "acceptedRatio",
          "type": "uint256"
        },
        {
          "internalType": "uint256",
          "name": "acceptedWithdrawRequestTimestamp",
          "type": "uint256"
        },
        {
          "internalType": "uint256",
          "name": "claimableAt",
          "type": "uint256"
        }
      ],
      "stateMutability": "view",
      "type": "function"
    },
    {
      "inputs": [],
      "name": "withdrawalPeriod",
      "outputs": [
        {
          "internalType": "uint256",
          "name": "",
          "type": "uint256"
        }
      ],
      "stateMutability": "view",
      "type": "function"
    }
  ],
  "bytecode": "0x6080604052348015600f57600080fd5b506016601a565b60d7565b600054610100900460ff161560855760405162461bcd60e51b815260206004820152602760248201527f496e697469616c697a61626c653a20636f6e747261637420697320696e697469604482015266616c697a696e6760c81b606482015260840160405180910390fd5b60005460ff9081161460d5576000805460ff191660ff9081179091556040519081527f7f26b83ff96e1f2b6a682f133852f6798a09c465da95921460cefb38474024989060200160405180910390a15b565b614680806100e66000396000f3fe608060405234801561001057600080fd5b506004361061030a5760003560e01c8063849fc72b1161019c578063b6b55f25116100ee578063deaf30b211610097578063ecf7085811610071578063ecf70858146106f3578063f36fbab7146106fd578063fb1bb9de1461071057600080fd5b8063deaf30b2146106a1578063e63ab1e9146106c2578063e94b2f44146106e957600080fd5b8063ca15c873116100c8578063ca15c87314610668578063cce4705b1461067b578063d547741f1461068e57600080fd5b8063b6b55f2514610638578063bca7093d1461064b578063bdc8144b1461065557600080fd5b8063973b294f11610150578063a217fddf1161012a578063a217fddf14610613578063a6b63eb81461061b578063b54790d81461062e57600080fd5b8063973b294f146105b2578063992a7dfb146105c5578063a2011b3f146105ec57600080fd5b806386da03231161018157806386da0323146105535780639010d07c1461056657806391d148541461057957600080fd5b8063849fc72b1461052557806384b0196e1461053857600080fd5b80635849b93d116102605780636e74bf96116102095780637b9f7d94116101e35780637b9f7d94146104fb57806381548fed1461050a5780638456cb591461051d57600080fd5b80636e74bf96146104d45780637278bd9b146104e75780637b80889b146104f157600080fd5b80636a8a68941161023a5780636a8a68941461047e5780636c19e783146104ad5780636d9dd201146104c057600080fd5b80635849b93d146104385780635c975abb1461044c57806364d4c8191461045757600080fd5b80632f2ff15d116102c25780633e55fde01161029c5780633e55fde0146104095780633f4ba83a1461041c57806349a7a26d1461042457600080fd5b80632f2ff15d146103bc57806330d3c534146103cf57806336568abe146103f657600080fd5b80631f879433116102f35780631f8794331461034c578063238ac9331461035f578063248a9ca31461038b57600080fd5b806301569e3a1461030f57806301ffc9a714610324575b600080fd5b61032261031d366004613e39565b610737565b005b610337610332366004613e56565b6108d2565b60405190151581526020015b60405180910390f35b61032261035a366004613e39565b61092e565b61016354610373906001600160a01b031681565b6040516001600160a01b039091168152602001610343565b6103ae610399366004613e98565b60009081526065602052604090206001015490565b604051908152602001610343565b6103226103ca366004613eb1565b610a13565b6103ae7f372387bd01807b923229b5bd1e46f8a6b8815b5d5db581db3e993c5168467b2781565b610322610404366004613eb1565b610a3d565b610322610417366004613f28565b610ac9565b61032261112b565b61016254610373906001600160a01b031681565b61016154610373906001600160a01b031681565b60c95460ff16610337565b6103ae7fb1dd0bed30d3b8ab9fc76313ecb7db14f6b497d5f1f7859fa5cb5811c1ca307381565b61033761048c366004613fed565b61016d60209081526000928352604080842090915290825290205460ff1681565b6103226104bb366004613e39565b611160565b61016454610373906001600160a01b031681565b6103226104e2366004613e98565b611245565b6103ae6101665481565b6103ae6101655481565b6103ae6706f05b59d3b2000081565b610322610518366004613e98565b6113a9565b610322611569565b610322610533366004614019565b61159b565b61054061196c565b6040516103439796959493929190614177565b610322610561366004613e98565b611a2e565b610373610574366004614201565b611c7b565b610337610587366004613eb1565b60009182526065602090815260408084206001600160a01b0393909316845291905290205460ff1690565b6103226105c0366004613e98565b611c9a565b6105d86105d3366004613e98565b611ccd565b604051610343989796959493929190614239565b6103ae7f61c92169ef077349011ff0b1383c894d86c5f0b41d986366b58a6cf31e93beda81565b6103ae600081565b6103226106293660046142a3565b611d34565b6103ae6101695481565b610322610646366004613e98565b611f49565b6103ae61016b5481565b610322610663366004613e98565b6121ab565b6103ae610676366004613e98565b61220b565b610322610689366004613e98565b612222565b61032261069c366004613eb1565b612436565b6103ae6106af366004613e39565b61016c6020526000908152604090205481565b6103ae7f65d7a28e3265b37a6474929f336521b332c1681b933f6cb9f3376673440d862a81565b6103ae6101685481565b6103ae6101675481565b61032261070b366004613fed565b61245b565b6103ae7f427da25fe773164f88948d3e215c94b6554e2ed5e5f203a821c9f2f6131cf75a81565b7f61c92169ef077349011ff0b1383c894d86c5f0b41d986366b58a6cf31e93beda610761816126ab565b6001600160a01b0382166107c85760405162461bcd60e51b815260206004820152602360248201527f53796d6d696f536f6c7665724465706f7369746f723a205a65726f206164647260448201526265737360e81b60648201526084015b60405180910390fd5b610161805473ffffffffffffffffffffffffffffffffffffffff19166001600160a01b038481169190911790915561016454166108036126b5565b610164546001600160a01b038281169116148061082757506001600160a01b038116155b6108995760405162461bcd60e51b815260206004820152603460248201527f53796d6d696f536f6c7665724465706f7369746f723a20436f6c6c617465726160448201527f6c2063616e206e6f74206265206368616e67656400000000000000000000000060648201526084016107bf565b6040516001600160a01b038416907fe5af12e9abb914276d8e0a5a01aa97d26f4c81e3002646f90824c2063953104490600090a2505050565b60007fffffffff0000000000000000000000000000000000000000000000000000000082167f5a05180f000000000000000000000000000000000000000000000000000000001480610928575061092882612879565b92915050565b7f61c92169ef077349011ff0b1383c894d86c5f0b41d986366b58a6cf31e93beda610958816126ab565b6001600160a01b0382166109ba5760405162461bcd60e51b815260206004820152602360248201527f53796d6d696f536f6c7665724465706f7369746f723a205a65726f206164647260448201526265737360e81b60648201526084016107bf565b610162805473ffffffffffffffffffffffffffffffffffffffff19166001600160a01b0384169081179091556040517f73c48e8c0360f51d3049faa15518d29248fbad9e77ad28ad94bcd1712854ca9b90600090a25050565b600082815260656020526040902060010154610a2e816126ab565b610a388383612910565b505050565b6001600160a01b0381163314610abb5760405162461bcd60e51b815260206004820152602f60248201527f416363657373436f6e74726f6c3a2063616e206f6e6c792072656e6f756e636560448201527f20726f6c657320666f722073656c66000000000000000000000000000000000060648201526084016107bf565b610ac58282612932565b5050565b7f372387bd01807b923229b5bd1e46f8a6b8815b5d5db581db3e993c5168467b27610af3816126ab565b610afb612954565b610b1433610164546001600160a01b03169030876129a7565b61016654821015610b8d5760405162461bcd60e51b815260206004820152602f60248201527f53796d6d696f536f6c7665724465706f7369746f723a205061796261636b207260448201527f6174696f20697320746f6f206c6f77000000000000000000000000000000000060648201526084016107bf565b670de0b6b3a7640000821115610c0b5760405162461bcd60e51b815260206004820152603060248201527f53796d6d696f536f6c7665724465706f7369746f723a205061796261636b207260448201527f6174696f20697320746f6f20686967680000000000000000000000000000000060648201526084016107bf565b6101655460005b8451811015610fe7576000858281518110610c2f57610c2f6142fe565b6020026020010151905061016a805490508110610ca05760405162461bcd60e51b815260206004820152602960248201527f53796d6d696f536f6c7665724465706f7369746f723a20496e76616c69642072604482015268195c5d595cdd08125160ba1b60648201526084016107bf565b600061016a8281548110610cb657610cb66142fe565b60009182526020909120600460089092020181015460ff1690811115610cde57610cde614223565b14610d515760405162461bcd60e51b815260206004820152602f60248201527f53796d6d696f536f6c7665724465706f7369746f723a20496e76616c6964206160448201527f636365707465642072657175657374000000000000000000000000000000000060648201526084016107bf565b6000670de0b6b3a76400008661016a8481548110610d7157610d716142fe565b906000526020600020906008020160020154610d8d919061432a565b610d979190614341565b905061016a8281548110610dad57610dad6142fe565b906000526020600020906008020160030154811015610e36576040805162461bcd60e51b81526020600482015260248101919091527f53796d6d696f536f6c7665724465706f7369746f723a205061796261636b207260448201527f6174696f20697320746f6f206c6f7720666f722074686973207265717565737460648201526084016107bf565b610e408185614363565b935061016a8281548110610e5657610e566142fe565b9060005260206000209060080201600201546101686000828254610e7a9190614376565b92505081905550600161016a8381548110610e9757610e976142fe565b906000526020600020906008020160040160006101000a81548160ff02191690836004811115610ec957610ec9614223565b02179055508561016a8381548110610ee357610ee36142fe565b9060005260206000209060080201600501819055504261016a8381548110610f0d57610f0d6142fe565b600091825260209091206006600890920201015561016b54610f2f9042614363565b61016a8381548110610f4357610f436142fe565b90600052602060002090600802016007018190555061016a8281548110610f6c57610f6c6142fe565b90600052602060002090600802016002015461016c600061016a8581548110610f9757610f976142fe565b60009182526020808320600160089093020191909101546001600160a01b0316835282019290925260400181208054909190610fd4908490614376565b909155505060019092019150610c129050565b50610164546040517f70a0823100000000000000000000000000000000000000000000000000000000815230600482015282916001600160a01b0316906370a0823190602401602060405180830381865afa15801561104a573d6000803e3d6000fd5b505050506040513d601f19601f8201168201806040525081019061106e9190614389565b10156110e25760405162461bcd60e51b815260206004820152603460248201527f53796d6d696f536f6c7665724465706f7369746f723a20496e7375666669636960448201527f656e7420636f6e74726163742062616c616e636500000000000000000000000060648201526084016107bf565b6101658190556040517f7e82005417f8fc53c7a47dc803bf0c0c5fb4adfa711e011d4edead5839b0d0249061111c908790879087906143a2565b60405180910390a15050505050565b7f427da25fe773164f88948d3e215c94b6554e2ed5e5f203a821c9f2f6131cf75a611155816126ab565b61115d612a5e565b50565b7f61c92169ef077349011ff0b1383c894d86c5f0b41d986366b58a6cf31e93beda61118a816126ab565b6001600160a01b0382166111ec5760405162461bcd60e51b815260206004820152602360248201527f53796d6d696f536f6c7665724465706f7369746f723a205a65726f206164647260448201526265737360e81b60648201526084016107bf565b610163805473ffffffffffffffffffffffffffffffffffffffff19166001600160a01b0384169081179091556040517f93d2bd623fe74229d9510c70ec2da10109749943db6d68437555a01b1844beae90600090a25050565b7f61c92169ef077349011ff0b1383c894d86c5f0b41d986366b58a6cf31e93beda61126f816126ab565b6706f05b59d3b200008210156112ed5760405162461bcd60e51b815260206004820152603760248201527f53796d6d696f536f6c7665724465706f7369746f723a204d696e696d756d206260448201527f75796261636b20726174696f20697320746f6f206c6f7700000000000000000060648201526084016107bf565b670de0b6b3a764000082111561136b5760405162461bcd60e51b815260206004820152603860248201527f53796d6d696f536f6c7665724465706f7369746f723a204d696e696d756d206260448201527f75796261636b20726174696f20697320746f6f2068696768000000000000000060648201526084016107bf565b6101668290556040518281527f2ae6ddf10933401b20295006a4f7ed3af82a0ab05354f1fc7db9be3fc75f19d7906020015b60405180910390a15050565b7f372387bd01807b923229b5bd1e46f8a6b8815b5d5db581db3e993c5168467b276113d3816126ab565b6113db612954565b61016a54821061143f5760405162461bcd60e51b815260206004820152602960248201527f53796d6d696f536f6c7665724465706f7369746f723a20496e76616c69642072604482015268195c5d595cdd08125160ba1b60648201526084016107bf565b600061016a8381548110611455576114556142fe565b600091825260208220600890910201915060048083015460ff169081111561147f5761147f614223565b146114f25760405162461bcd60e51b815260206004820152602560248201527f53796d6d696f536f6c7665724465706f7369746f723a20496e76616c6964207360448201527f746174757300000000000000000000000000000000000000000000000000000060648201526084016107bf565b6004818101805460ff19169091179055600281015460018201546001600160a01b0316600090815261016c602052604081208054909190611534908490614376565b909155505060405183907ff12d2a5d8b37ba59b2fa12dedca1d420ee1c5da121eb1878497bc1d29076b5c090600090a2505050565b7f65d7a28e3265b37a6474929f336521b332c1681b933f6cb9f3376673440d862a611593816126ab565b61115d612ab0565b6115a3612954565b6001600160a01b03841661161f5760405162461bcd60e51b815260206004820152603060248201527f53796d6d696f536f6c7665724465706f7369746f723a205a65726f206164647260448201527f65737320666f722072656365697665720000000000000000000000000000000060648201526084016107bf565b4282116116945760405162461bcd60e51b815260206004820152603560248201527f53796d6d696f536f6c7665724465706f7369746f723a20446561646c696e652060448201527f6d75737420626520696e2074686520667574757265000000000000000000000060648201526084016107bf565b6001600160a01b038416600090815261016d6020908152604080832086845290915290205460ff161561172f5760405162461bcd60e51b815260206004820152602960248201527f53796d6d696f536f6c7665724465706f7369746f723a204e6f6e636520616c7260448201527f656164792075736564000000000000000000000000000000000000000000000060648201526084016107bf565b61173d868686868686612aed565b6117af5760405162461bcd60e51b815260206004820152602860248201527f53796d6d696f536f6c7665724465706f7369746f723a20496e76616c6964207360448201527f69676e617475726500000000000000000000000000000000000000000000000060648201526084016107bf565b6001600160a01b038416600081815261016d60209081526040808320878452825291829020805460ff191660011790558151610100810190925291815261016a9181016117f93390565b6001600160a01b031681526020810189905260408101889052606001600081526000602080830182905260408084018390526060938401839052855460018082018855968452928290208551600890940201805473ffffffffffffffffffffffffffffffffffffffff199081166001600160a01b039586161782559286015181880180549094169416939093179091558301516002820155908201516003820155608082015160048083018054949593949293909260ff19169184908111156118c4576118c4614223565b021790555060a0820151600582015560c0820151600682015560e09091015160079091015533600090815261016c602052604081208054889290611909908490614363565b909155505061016a546001600160a01b03851690339061192b90600190614376565b604080518a8152602081018890527f0766e8c55dde32095d8c203180e4f32c7407c445e0a87007877162126d257b25910160405180910390a4505050505050565b60006060806000806000606060fb546000801b14801561198c575060fc54155b6119d85760405162461bcd60e51b815260206004820152601560248201527f4549503731323a20556e696e697469616c697a6564000000000000000000000060448201526064016107bf565b6119e0612b95565b6119e8612c27565b604080516000808252602082019092527f0f000000000000000000000000000000000000000000000000000000000000009b939a50919850469750309650945092509050565b611a36612954565b61016a548110611a9a5760405162461bcd60e51b815260206004820152602960248201527f53796d6d696f536f6c7665724465706f7369746f723a20496e76616c69642072604482015268195c5d595cdd08125160ba1b60648201526084016107bf565b600061016a8281548110611ab057611ab06142fe565b600091825260209091206008909102019050600160048083015460ff1690811115611add57611add614223565b14611b505760405162461bcd60e51b815260206004820152603760248201527f53796d6d696f536f6c7665724465706f7369746f723a2052657175657374206e60448201527f6f7420726561647920666f72207769746864726177616c00000000000000000060648201526084016107bf565b4281600701541115611bca5760405162461bcd60e51b815260206004820152603960248201527f53796d6d696f536f6c7665724465706f7369746f723a2052657175657374206e60448201527f6f742070617373207769746864726177616c20706572696f640000000000000060648201526084016107bf565b60048101805460ff19166002908117909155600582015490820154600091670de0b6b3a764000091611bfc919061432a565b611c069190614341565b9050806101656000828254611c1b9190614376565b9091555050815461016454611c3d916001600160a01b03918216911683612c36565b81546040516001600160a01b039091169084907f4ce122b005e10b197f4caf028d92e008a684c370ad8f93528e07ded8214240e190600090a3505050565b6000828152609760205260408120611c939083612c7f565b9392505050565b7f61c92169ef077349011ff0b1383c894d86c5f0b41d986366b58a6cf31e93beda611cc4816126ab565b610ac582612c8b565b61016a8181548110611cde57600080fd5b6000918252602090912060089091020180546001820154600283015460038401546004850154600586015460068701546007909701546001600160a01b03968716985094909516959294919360ff909116929088565b600054610100900460ff1615808015611d545750600054600160ff909116105b80611d6e5750303b158015611d6e575060005460ff166001145b611de05760405162461bcd60e51b815260206004820152602e60248201527f496e697469616c697a61626c653a20636f6e747261637420697320616c72656160448201527f647920696e697469616c697a656400000000000000000000000000000000000060648201526084016107bf565b6000805460ff191660011790558015611e03576000805461ff0019166101001790555b611e0b612cc7565b611e13612d3a565b611e1b612da5565b611e8f6040518060400160405280601481526020017f4f6e436861696e53796d6d696f5661756c7456320000000000000000000000008152506040518060400160405280600181526020017f3100000000000000000000000000000000000000000000000000000000000000815250612e18565b611e9a600033612910565b611ec47f61c92169ef077349011ff0b1383c894d86c5f0b41d986366b58a6cf31e93beda33612910565b611ecd86610737565b611ed68561092e565b611edf826121ab565b611ee884611160565b611ef183611245565b611efb6064612c8b565b8015611f41576000805461ff0019169055604051600181527f7f26b83ff96e1f2b6a682f133852f6798a09c465da95921460cefb38474024989060200160405180910390a15b505050505050565b611f51612954565b611f59612e8d565b60008111611fcf5760405162461bcd60e51b815260206004820152603460248201527f53796d6d696f536f6c7665724465706f7369746f723a20416d6f756e74206d7560448201527f73742062652067726561746572207468616e203000000000000000000000000060648201526084016107bf565b610167548161016854611fe29190614363565b11156120565760405162461bcd60e51b815260206004820152602c60248201527f53796d6d696f536f6c7665724465706f7369746f723a204465706f736974206c60448201527f696d69742072656163686564000000000000000000000000000000000000000060648201526084016107bf565b610164546001600160a01b031661206f813330856129a7565b8161016860008282546120829190614363565b909155505060405182815233907fe1fffcc4923d04b559f4d29a8bfc6cda04eb5b0d3c460751c2402c5c5cc9109c9060200160405180910390a2610161546120d7906001600160a01b03838116911684612ee8565b61016154610162546040517f2f4f21e20000000000000000000000000000000000000000000000000000000081526001600160a01b03918216600482015260248101859052911690632f4f21e290604401600060405180830381600087803b15801561214257600080fd5b505af1158015612156573d6000803e3d6000fd5b5050610162546040518581526001600160a01b0390911692503391507f42a31d51415a86588240e32bf72025c881c4c9aada6e283ce50dc32f5a64717b9060200160405180910390a35061115d600161012f55565b7f61c92169ef077349011ff0b1383c894d86c5f0b41d986366b58a6cf31e93beda6121d5816126ab565b6101678290556040518281527fa1b2ac18b42a8ccd9c95e39420259ed780b3f6d890e5ecd36af7a4dc570348ff9060200161139d565b600081815260976020526040812061092890612fc6565b61222a612954565b61016a54811061228e5760405162461bcd60e51b815260206004820152602960248201527f53796d6d696f536f6c7665724465706f7369746f723a20496e76616c69642072604482015268195c5d595cdd08125160ba1b60648201526084016107bf565b600061016a82815481106122a4576122a46142fe565b906000526020600020906008020190506122bb3390565b60018201546001600160a01b039081169116146123405760405162461bcd60e51b815260206004820152603f60248201527f53796d6d696f536f6c7665724465706f7369746f723a204f6e6c79207468652060448201527f73656e646572206f6620726571756573742063616e2063616e63656c2069740060648201526084016107bf565b600060048083015460ff169081111561235b5761235b614223565b146123ce5760405162461bcd60e51b815260206004820152602560248201527f53796d6d696f536f6c7665724465706f7369746f723a20496e76616c6964207360448201527f746174757300000000000000000000000000000000000000000000000000000060648201526084016107bf565b60048101805460ff19166003179055600281015433600090815261016c602052604081208054909190612402908490614376565b909155505060405182907f8f3015a84bd69b67997edb78d8928ad670dcb6243df596529ae1e07f93eaf35a90600090a25050565b600082815260656020526040902060010154612451816126ab565b610a388383612932565b7f372387bd01807b923229b5bd1e46f8a6b8815b5d5db581db3e993c5168467b27612485816126ab565b61248d612954565b6001600160a01b0383166125095760405162461bcd60e51b815260206004820152603060248201527f53796d6d696f536f6c7665724465706f7369746f723a205a65726f206164647260448201527f65737320666f722072656365697665720000000000000000000000000000000060648201526084016107bf565b6000821161257f5760405162461bcd60e51b815260206004820152603460248201527f53796d6d696f536f6c7665724465706f7369746f723a20416d6f756e74206d7560448201527f73742062652067726561746572207468616e203000000000000000000000000060648201526084016107bf565b610164546040517f70a082310000000000000000000000000000000000000000000000000000000081523060048201526001600160a01b039091169060009082906370a0823190602401602060405180830381865afa1580156125e6573d6000803e3d6000fd5b505050506040513d601f19601f8201168201806040525081019061260a9190614389565b9050610165548161261b9190614376565b8411156126905760405162461bcd60e51b815260206004820152602b60248201527f53796d6d696f536f6c7665724465706f7369746f723a20496e7375666669636960448201527f656e742062616c616e636500000000000000000000000000000000000000000060648201526084016107bf565b6126a46001600160a01b0383168686612c36565b5050505050565b61115d8133612fd0565b61016160009054906101000a90046001600160a01b03166001600160a01b0316635c1548fb6040518163ffffffff1660e01b8152600401602060405180830381865afa158015612709573d6000803e3d6000fd5b505050506040513d601f19601f8201168201806040525081019061272d91906143cb565b610164805473ffffffffffffffffffffffffffffffffffffffff19166001600160a01b03929092169182179055604080517f313ce567000000000000000000000000000000000000000000000000000000008152905163313ce567916004808201926020929091908290030181865afa1580156127ae573d6000803e3d6000fd5b505050506040513d601f19601f820116820180604052508101906127d291906143e8565b60ff16610169819055601210156128775760405162461bcd60e51b815260206004820152604e60248201527f53796d6d696f536f6c7665724465706f7369746f723a20436f6c6c617465726160448201527f6c20646563696d616c732073686f756c64206265206c6f776572207468616e2060648201527f6f7220657175616c20746f203138000000000000000000000000000000000000608482015260a4016107bf565b565b60007fffffffff0000000000000000000000000000000000000000000000000000000082167f7965db0b00000000000000000000000000000000000000000000000000000000148061092857507f01ffc9a7000000000000000000000000000000000000000000000000000000007fffffffff00000000000000000000000000000000000000000000000000000000831614610928565b61291a8282613045565b6000828152609760205260409020610a3890826130e7565b61293c82826130fc565b6000828152609760205260409020610a38908261317f565b60c95460ff16156128775760405162461bcd60e51b815260206004820152601060248201527f5061757361626c653a207061757365640000000000000000000000000000000060448201526064016107bf565b6040516001600160a01b0380851660248301528316604482015260648101829052612a589085907f23b872dd00000000000000000000000000000000000000000000000000000000906084015b60408051601f198184030181529190526020810180517bffffffffffffffffffffffffffffffffffffffffffffffffffffffff167fffffffff0000000000000000000000000000000000000000000000000000000090931692909217909152613194565b50505050565b612a6661327c565b60c9805460ff191690557f5db9ee0a495bf2e6ff9c91a7834c1ba4fdd244a5e8aa4e537bd38aeae4b073aa335b6040516001600160a01b03909116815260200160405180910390a1565b612ab8612954565b60c9805460ff191660011790557f62e78cea01bee320cd4e420270b5ea74000d11b0c9f74754ebdbfc544b05a258612a933390565b604080517fb1dd0bed30d3b8ab9fc76313ecb7db14f6b497d5f1f7859fa5cb5811c1ca30736020820152908101879052606081018690526001600160a01b038516608082015260a0810184905260c081018390526000908190612b689060e001604051602081830303815290604052805190602001206132ce565b90506000612b768285613316565b610163546001600160a01b039182169116149998505050505050505050565b606060fd8054612ba49061440b565b80601f0160208091040260200160405190810160405280929190818152602001828054612bd09061440b565b8015612c1d5780601f10612bf257610100808354040283529160200191612c1d565b820191906000526020600020905b815481529060010190602001808311612c0057829003601f168201915b5050505050905090565b606060fe8054612ba49061440b565b6040516001600160a01b038316602482015260448101829052610a389084907fa9059cbb00000000000000000000000000000000000000000000000000000000906064016129f4565b6000611c93838361333a565b61016b8190556040518181527f699d7bc1fd2d92f6912f04b6a309ef25ec3937479e80cdc04b75f234a724e9a29060200160405180910390a150565b600054610100900460ff16612d325760405162461bcd60e51b815260206004820152602b60248201527f496e697469616c697a61626c653a20636f6e7472616374206973206e6f74206960448201526a6e697469616c697a696e6760a81b60648201526084016107bf565b612877613364565b600054610100900460ff166128775760405162461bcd60e51b815260206004820152602b60248201527f496e697469616c697a61626c653a20636f6e7472616374206973206e6f74206960448201526a6e697469616c697a696e6760a81b60648201526084016107bf565b600054610100900460ff16612e105760405162461bcd60e51b815260206004820152602b60248201527f496e697469616c697a61626c653a20636f6e7472616374206973206e6f74206960448201526a6e697469616c697a696e6760a81b60648201526084016107bf565b6128776133cf565b600054610100900460ff16612e835760405162461bcd60e51b815260206004820152602b60248201527f496e697469616c697a61626c653a20636f6e7472616374206973206e6f74206960448201526a6e697469616c697a696e6760a81b60648201526084016107bf565b610ac58282613446565b600261012f5403612ee05760405162461bcd60e51b815260206004820152601f60248201527f5265656e7472616e637947756172643a207265656e7472616e742063616c6c0060448201526064016107bf565b600261012f55565b604080516001600160a01b038416602482015260448082018490528251808303909101815260649091019091526020810180517bffffffffffffffffffffffffffffffffffffffffffffffffffffffff167f095ea7b300000000000000000000000000000000000000000000000000000000179052612f6784826134d9565b612a58576040516001600160a01b038416602482015260006044820152612fb49085907f095ea7b300000000000000000000000000000000000000000000000000000000906064016129f4565b612a588482613194565b600161012f55565b6000610928825490565b60008281526065602090815260408083206001600160a01b038516845290915290205460ff16610ac55761300381613580565b61300e836020613592565b60405160200161301f929190614445565b60408051601f198184030181529082905262461bcd60e51b82526107bf916004016144c6565b60008281526065602090815260408083206001600160a01b038516845290915290205460ff16610ac55760008281526065602090815260408083206001600160a01b03851684529091529020805460ff191660011790556130a33390565b6001600160a01b0316816001600160a01b0316837f2f8788117e7eff1d82e926ec794901d17c78024a50270940304540a733656f0d60405160405180910390a45050565b6000611c93836001600160a01b0384166137bb565b60008281526065602090815260408083206001600160a01b038516845290915290205460ff1615610ac55760008281526065602090815260408083206001600160a01b0385168085529252808320805460ff1916905551339285917ff6391f5c32d9c69d2a47ea670b442974b53935d1edc7fd64eb21e047a839171b9190a45050565b6000611c93836001600160a01b03841661380a565b60006131e9826040518060400160405280602081526020017f5361666545524332303a206c6f772d6c6576656c2063616c6c206661696c6564815250856001600160a01b03166138fd9092919063ffffffff16565b905080516000148061320a57508080602001905181019061320a91906144d9565b610a385760405162461bcd60e51b815260206004820152602a60248201527f5361666545524332303a204552433230206f7065726174696f6e20646964206e60448201527f6f7420737563636565640000000000000000000000000000000000000000000060648201526084016107bf565b60c95460ff166128775760405162461bcd60e51b815260206004820152601460248201527f5061757361626c653a206e6f742070617573656400000000000000000000000060448201526064016107bf565b60006109286132db613914565b836040517f19010000000000000000000000000000000000000000000000000000000000008152600281019290925260228201526042902090565b60008060006133258585613923565b9150915061333281613968565b509392505050565b6000826000018281548110613351576133516142fe565b9060005260206000200154905092915050565b600054610100900460ff16612fbe5760405162461bcd60e51b815260206004820152602b60248201527f496e697469616c697a61626c653a20636f6e7472616374206973206e6f74206960448201526a6e697469616c697a696e6760a81b60648201526084016107bf565b600054610100900460ff1661343a5760405162461bcd60e51b815260206004820152602b60248201527f496e697469616c697a61626c653a20636f6e7472616374206973206e6f74206960448201526a6e697469616c697a696e6760a81b60648201526084016107bf565b60c9805460ff19169055565b600054610100900460ff166134b15760405162461bcd60e51b815260206004820152602b60248201527f496e697469616c697a61626c653a20636f6e7472616374206973206e6f74206960448201526a6e697469616c697a696e6760a81b60648201526084016107bf565b60fd6134bd8382614542565b5060fe6134ca8282614542565b5050600060fb81905560fc5550565b6000806000846001600160a01b0316846040516134f69190614601565b6000604051808303816000865af19150503d8060008114613533576040519150601f19603f3d011682016040523d82523d6000602084013e613538565b606091505b509150915081801561356257508051158061356257508080602001905181019061356291906144d9565b801561357757506001600160a01b0385163b15155b95945050505050565b60606109286001600160a01b03831660145b606060006135a183600261432a565b6135ac906002614363565b67ffffffffffffffff8111156135c4576135c4613ee1565b6040519080825280601f01601f1916602001820160405280156135ee576020820181803683370190505b5090507f300000000000000000000000000000000000000000000000000000000000000081600081518110613625576136256142fe565b60200101907effffffffffffffffffffffffffffffffffffffffffffffffffffffffffffff1916908160001a9053507f780000000000000000000000000000000000000000000000000000000000000081600181518110613688576136886142fe565b60200101907effffffffffffffffffffffffffffffffffffffffffffffffffffffffffffff1916908160001a90535060006136c484600261432a565b6136cf906001614363565b90505b600181111561376c577f303132333435363738396162636465660000000000000000000000000000000085600f1660108110613710576137106142fe565b1a60f81b828281518110613726576137266142fe565b60200101907effffffffffffffffffffffffffffffffffffffffffffffffffffffffffffff1916908160001a90535060049490941c936137658161461d565b90506136d2565b508315611c935760405162461bcd60e51b815260206004820181905260248201527f537472696e67733a20686578206c656e67746820696e73756666696369656e7460448201526064016107bf565b600081815260018301602052604081205461380257508154600181810184556000848152602080822090930184905584548482528286019093526040902091909155610928565b506000610928565b600081815260018301602052604081205480156138f357600061382e600183614376565b855490915060009061384290600190614376565b90508181146138a7576000866000018281548110613862576138626142fe565b9060005260206000200154905080876000018481548110613885576138856142fe565b6000918252602080832090910192909255918252600188019052604090208390555b85548690806138b8576138b8614634565b600190038181906000526020600020016000905590558560010160008681526020019081526020016000206000905560019350505050610928565b6000915050610928565b606061390c8484600085613acd565b949350505050565b600061391e613bbf565b905090565b60008082516041036139595760208301516040840151606085015160001a61394d87828585613c33565b94509450505050613961565b506000905060025b9250929050565b600081600481111561397c5761397c614223565b036139845750565b600181600481111561399857613998614223565b036139e55760405162461bcd60e51b815260206004820152601860248201527f45434453413a20696e76616c6964207369676e6174757265000000000000000060448201526064016107bf565b60028160048111156139f9576139f9614223565b03613a465760405162461bcd60e51b815260206004820152601f60248201527f45434453413a20696e76616c6964207369676e6174757265206c656e6774680060448201526064016107bf565b6003816004811115613a5a57613a5a614223565b0361115d5760405162461bcd60e51b815260206004820152602260248201527f45434453413a20696e76616c6964207369676e6174757265202773272076616c60448201527f756500000000000000000000000000000000000000000000000000000000000060648201526084016107bf565b606082471015613b455760405162461bcd60e51b815260206004820152602660248201527f416464726573733a20696e73756666696369656e742062616c616e636520666f60448201527f722063616c6c000000000000000000000000000000000000000000000000000060648201526084016107bf565b600080866001600160a01b03168587604051613b619190614601565b60006040518083038185875af1925050503d8060008114613b9e576040519150601f19603f3d011682016040523d82523d6000602084013e613ba3565b606091505b5091509150613bb487838387613cf7565b979650505050505050565b60007f8b73c3c69bb8fe3d512ecc4cf759cc79239f7b179b0ffacaa9a75d522b39400f613bea613d70565b613bf2613dc9565b60408051602081019490945283019190915260608201524660808201523060a082015260c00160405160208183030381529060405280519060200120905090565b6000807f7fffffffffffffffffffffffffffffff5d576e7357a4501ddfe92f46681b20a0831115613c6a5750600090506003613cee565b6040805160008082526020820180845289905260ff881692820192909252606081018690526080810185905260019060a0016020604051602081039080840390855afa158015613cbe573d6000803e3d6000fd5b5050604051601f1901519150506001600160a01b038116613ce757600060019250925050613cee565b9150600090505b94509492505050565b60608315613d66578251600003613d5f576001600160a01b0385163b613d5f5760405162461bcd60e51b815260206004820152601d60248201527f416464726573733a2063616c6c20746f206e6f6e2d636f6e747261637400000060448201526064016107bf565b508161390c565b61390c8383613dfa565b600080613d7b612b95565b805190915015613d92578051602090910120919050565b60fb548015613da15792915050565b7fc5d2460186f7233c927e7db2dcc703c0e500b653ca82273b7bfad8045d85a4709250505090565b600080613dd4612c27565b805190915015613deb578051602090910120919050565b60fc548015613da15792915050565b815115613e0a5781518083602001fd5b8060405162461bcd60e51b81526004016107bf91906144c6565b6001600160a01b038116811461115d57600080fd5b600060208284031215613e4b57600080fd5b8135611c9381613e24565b600060208284031215613e6857600080fd5b81357fffffffff0000000000000000000000000000000000000000000000000000000081168114611c9357600080fd5b600060208284031215613eaa57600080fd5b5035919050565b60008060408385031215613ec457600080fd5b823591506020830135613ed681613e24565b809150509250929050565b634e487b7160e01b600052604160045260246000fd5b604051601f8201601f1916810167ffffffffffffffff81118282101715613f2057613f20613ee1565b604052919050565b600080600060608486031215613f3d57600080fd5b83359250602084013567ffffffffffffffff811115613f5b57600080fd5b8401601f81018613613f6c57600080fd5b803567ffffffffffffffff811115613f8657613f86613ee1565b8060051b613f9660208201613ef7565b91825260208184018101929081019089841115613fb257600080fd5b6020850194505b83851015613fd857843580835260209586019590935090910190613fb9565b96999698505050506040949094013593505050565b6000806040838503121561400057600080fd5b823561400b81613e24565b946020939093013593505050565b60008060008060008060c0878903121561403257600080fd5b8635955060208701359450604087013561404b81613e24565b9350606087013592506080870135915060a087013567ffffffffffffffff81111561407557600080fd5b8701601f8101891361408657600080fd5b803567ffffffffffffffff8111156140a0576140a0613ee1565b6140b36020601f19601f84011601613ef7565b8181528a60208385010111156140c857600080fd5b816020840160208301376000602083830101528093505050509295509295509295565b60005b838110156141065781810151838201526020016140ee565b50506000910152565b600081518084526141278160208601602086016140eb565b601f01601f19169290920160200192915050565b600081518084526020840193506020830160005b8281101561416d57815186526020958601959091019060010161414f565b5093949350505050565b7fff000000000000000000000000000000000000000000000000000000000000008816815260e0602082015260006141b260e083018961410f565b82810360408401526141c4818961410f565b90508660608401526001600160a01b03861660808401528460a084015282810360c08401526141f3818561413b565b9a9950505050505050505050565b6000806040838503121561421457600080fd5b50508035926020909101359150565b634e487b7160e01b600052602160045260246000fd5b6001600160a01b03898116825288166020820152604081018790526060810186905261010081016005861061427e57634e487b7160e01b600052602160045260246000fd5b8560808301528460a08301528360c08301528260e08301529998505050505050505050565b600080600080600060a086880312156142bb57600080fd5b85356142c681613e24565b945060208601356142d681613e24565b935060408601356142e681613e24565b94979396509394606081013594506080013592915050565b634e487b7160e01b600052603260045260246000fd5b634e487b7160e01b600052601160045260246000fd5b808202811582820484141761092857610928614314565b60008261435e57634e487b7160e01b600052601260045260246000fd5b500490565b8082018082111561092857610928614314565b8181038181111561092857610928614314565b60006020828403121561439b57600080fd5b5051919050565b8381526060602082015260006143bb606083018561413b565b9050826040830152949350505050565b6000602082840312156143dd57600080fd5b8151611c9381613e24565b6000602082840312156143fa57600080fd5b815160ff81168114611c9357600080fd5b600181811c9082168061441f57607f821691505b60208210810361443f57634e487b7160e01b600052602260045260246000fd5b50919050565b7f416363657373436f6e74726f6c3a206163636f756e742000000000000000000081526000835161447d8160178501602088016140eb565b7f206973206d697373696e6720726f6c652000000000000000000000000000000060179184019182015283516144ba8160288401602088016140eb565b01602801949350505050565b602081526000611c93602083018461410f565b6000602082840312156144eb57600080fd5b81518015158114611c9357600080fd5b601f821115610a3857806000526020600020601f840160051c810160208510156145225750805b601f840160051c820191505b818110156126a4576000815560010161452e565b815167ffffffffffffffff81111561455c5761455c613ee1565b6145708161456a845461440b565b846144fb565b6020601f8211600181146145a4576000831561458c5750848201515b600019600385901b1c1916600184901b1784556126a4565b600084815260208120601f198516915b828110156145d457878501518255602094850194600190920191016145b4565b50848210156145f25786840151600019600387901b60f8161c191681555b50505050600190811b01905550565b600082516146138184602087016140eb565b9190910192915050565b60008161462c5761462c614314565b506000190190565b634e487b7160e01b600052603160045260246000fdfea2646970667358221220ebb744437e723d0c7f87fe5ad97814c063bbcb1a061ef6c8204da6bab77f47a964736f6c634300081c0033",
  "linkReferences": {},
  "deployedLinkReferences": {}
}