{
  "_format": "hh-sol-artifact-1",
  "contractName": "OnChainSymmioVaultV2",
  "sourceName": "contracts/OnChainSymmioVaultV2.sol",
  "abi": [
    {
      "inputs": [],
      "stateMutability": "nonpayable",
      "type": "constructor"
    },
    {
      "anonymous": false,
      "inputs": [
        {
          "indexed": true,
          "internalType": "address",
          "name": "depositor",
          "type": "address"
        },
        {
          "indexed": false,
          "internalType": "uint256",
          "name": "amount",
          "type": "uint256"
        }
      ],
      "name": "Deposit",
      "type": "event"
    },
    {
      "anonymous": false,
      "inputs": [
        {
          "indexed": false,
          "internalType": "uint256",
          "name": "depositLimit",
          "type": "uint256"
        },
        {
          "indexed": false,
          "internalType": "uint256",
          "name": "depositPerUserLimit",
          "type": "uint256"
        }
      ],
      "name": "DepositLimitUpdatedEvent",
      "type": "event"
    },
    {
      "anonymous": false,
      "inputs": [
        {
          "indexed": true,
          "internalType": "address",
          "name": "depositor",
          "type": "address"
        },
        {
          "indexed": true,
          "internalType": "address",
          "name": "solver",
          "type": "address"
        },
        {
          "indexed": false,
          "internalType": "uint256",
          "name": "amount",
          "type": "uint256"
        }
      ],
      "name": "DepositToSymmio",
      "type": "event"
    },
    {
      "anonymous": false,
      "inputs": [],
      "name": "EIP712DomainChanged",
      "type": "event"
    },
    {
      "anonymous": false,
      "inputs": [
        {
          "indexed": false,
          "internalType": "uint8",
          "name": "version",
          "type": "uint8"
        }
      ],
      "name": "Initialized",
      "type": "event"
    },
    {
      "anonymous": false,
      "inputs": [
        {
          "indexed": false,
          "internalType": "uint256",
          "name": "minimumPaybackRatio",
          "type": "uint256"
        }
      ],
      "name": "MinimumPaybackRatioUpdatedEvent",
      "type": "event"
    },
    {
      "anonymous": false,
      "inputs": [
        {
          "indexed": false,
          "internalType": "address",
          "name": "account",
          "type": "address"
        }
      ],
      "name": "Paused",
      "type": "event"
    },
    {
      "anonymous": false,
      "inputs": [
        {
          "indexed": true,
          "internalType": "bytes32",
          "name": "role",
          "type": "bytes32"
        },
        {
          "indexed": true,
          "internalType": "bytes32",
          "name": "previousAdminRole",
          "type": "bytes32"
        },
        {
          "indexed": true,
          "internalType": "bytes32",
          "name": "newAdminRole",
          "type": "bytes32"
        }
      ],
      "name": "RoleAdminChanged",
      "type": "event"
    },
    {
      "anonymous": false,
      "inputs": [
        {
          "indexed": true,
          "internalType": "bytes32",
          "name": "role",
          "type": "bytes32"
        },
        {
          "indexed": true,
          "internalType": "address",
          "name": "account",
          "type": "address"
        },
        {
          "indexed": true,
          "internalType": "address",
          "name": "sender",
          "type": "address"
        }
      ],
      "name": "RoleGranted",
      "type": "event"
    },
    {
      "anonymous": false,
      "inputs": [
        {
          "indexed": true,
          "internalType": "bytes32",
          "name": "role",
          "type": "bytes32"
        },
        {
          "indexed": true,
          "internalType": "address",
          "name": "account",
          "type": "address"
        },
        {
          "indexed": true,
          "internalType": "address",
          "name": "sender",
          "type": "address"
        }
      ],
      "name": "RoleRevoked",
      "type": "event"
    },
    {
      "anonymous": false,
      "inputs": [
        {
          "indexed": true,
          "internalType": "address",
          "name": "signer",
          "type": "address"
        }
      ],
      "name": "SignerUpdatedEvent",
      "type": "event"
    },
    {
      "anonymous": false,
      "inputs": [
        {
          "indexed": true,
          "internalType": "address",
          "name": "solver",
          "type": "address"
        }
      ],
      "name": "SolverUpdatedEvent",
      "type": "event"
    },
    {
      "anonymous": false,
      "inputs": [
        {
          "indexed": true,
          "internalType": "address",
          "name": "newSymmioAddress",
          "type": "address"
        }
      ],
      "name": "SymmioAddressUpdatedEvent",
      "type": "event"
    },
    {
      "anonymous": false,
      "inputs": [
        {
          "indexed": false,
          "internalType": "address",
          "name": "account",
          "type": "address"
        }
      ],
      "name": "Unpaused",
      "type": "event"
    },
    {
      "anonymous": false,
      "inputs": [
        {
          "indexed": true,
          "internalType": "uint256",
          "name": "requestId",
          "type": "uint256"
        },
        {
          "indexed": true,
          "internalType": "address",
          "name": "receiver",
          "type": "address"
        }
      ],
      "name": "WithdrawClaimedEvent",
      "type": "event"
    },
    {
      "anonymous": false,
      "inputs": [
        {
          "indexed": false,
          "internalType": "uint256",
          "name": "providedAmount",
          "type": "uint256"
        },
        {
          "indexed": false,
          "internalType": "uint256[]",
          "name": "acceptedRequestIds",
          "type": "uint256[]"
        },
        {
          "indexed": false,
          "internalType": "uint256",
          "name": "paybackRatio",
          "type": "uint256"
        }
      ],
      "name": "WithdrawRequestAcceptedEvent",
      "type": "event"
    },
    {
      "anonymous": false,
      "inputs": [
        {
          "indexed": true,
          "internalType": "uint256",
          "name": "requestId",
          "type": "uint256"
        }
      ],
      "name": "WithdrawRequestCanceled",
      "type": "event"
    },
    {
      "anonymous": false,
      "inputs": [
        {
          "indexed": true,
          "internalType": "uint256",
          "name": "requestId",
          "type": "uint256"
        },
        {
          "indexed": true,
          "internalType": "address",
          "name": "sender",
          "type": "address"
        },
        {
          "indexed": true,
          "internalType": "address",
          "name": "receiver",
          "type": "address"
        },
        {
          "indexed": false,
          "internalType": "uint256",
          "name": "amount",
          "type": "uint256"
        },
        {
          "indexed": false,
          "internalType": "uint256",
          "name": "nonce",
          "type": "uint256"
        }
      ],
      "name": "WithdrawRequestEvent",
      "type": "event"
    },
    {
      "anonymous": false,
      "inputs": [
        {
          "indexed": false,
          "internalType": "uint256",
          "name": "withdrawalPeriod",
          "type": "uint256"
        }
      ],
      "name": "WithdrawalPeriodUpdate",
      "type": "event"
    },
    {
      "inputs": [],
      "name": "BALANCER_ROLE",
      "outputs": [
        {
          "internalType": "bytes32",
          "name": "",
          "type": "bytes32"
        }
      ],
      "stateMutability": "view",
      "type": "function"
    },
    {
      "inputs": [],
      "name": "DEFAULT_ADMIN_ROLE",
      "outputs": [
        {
          "internalType": "bytes32",
          "name": "",
          "type": "bytes32"
        }
      ],
      "stateMutability": "view",
      "type": "function"
    },
    {
      "inputs": [],
      "name": "MIN_PAYBACK_RATIO",
      "outputs": [
        {
          "internalType": "uint256",
          "name": "",
          "type": "uint256"
        }
      ],
      "stateMutability": "view",
      "type": "function"
    },
    {
      "inputs": [],
      "name": "PAUSER_ROLE",
      "outputs": [
        {
          "internalType": "bytes32",
          "name": "",
          "type": "bytes32"
        }
      ],
      "stateMutability": "view",
      "type": "function"
    },
    {
      "inputs": [],
      "name": "SETTER_ROLE",
      "outputs": [
        {
          "internalType": "bytes32",
          "name": "",
          "type": "bytes32"
        }
      ],
      "stateMutability": "view",
      "type": "function"
    },
    {
      "inputs": [],
      "name": "TYPE_HASH",
      "outputs": [
        {
          "internalType": "bytes32",
          "name": "",
          "type": "bytes32"
        }
      ],
      "stateMutability": "view",
      "type": "function"
    },
    {
      "inputs": [],
      "name": "UNPAUSER_ROLE",
      "outputs": [
        {
          "internalType": "bytes32",
          "name": "",
          "type": "bytes32"
        }
      ],
      "stateMutability": "view",
      "type": "function"
    },
    {
      "inputs": [
        {
          "internalType": "uint256",
          "name": "providedAmount",
          "type": "uint256"
        },
        {
          "internalType": "uint256[]",
          "name": "_acceptedRequestIds",
          "type": "uint256[]"
        },
        {
          "internalType": "uint256",
          "name": "_paybackRatio",
          "type": "uint256"
        }
      ],
      "name": "acceptWithdrawRequest",
      "outputs": [],
      "stateMutability": "nonpayable",
      "type": "function"
    },
    {
      "inputs": [
        {
          "internalType": "uint256",
          "name": "id",
          "type": "uint256"
        }
      ],
      "name": "cancelWithdrawRequest",
      "outputs": [],
      "stateMutability": "nonpayable",
      "type": "function"
    },
    {
      "inputs": [
        {
          "internalType": "uint256",
          "name": "requestId",
          "type": "uint256"
        }
      ],
      "name": "claimForWithdrawRequest",
      "outputs": [],
      "stateMutability": "nonpayable",
      "type": "function"
    },
    {
      "inputs": [],
      "name": "collateralTokenAddress",
      "outputs": [
        {
          "internalType": "address",
          "name": "",
          "type": "address"
        }
      ],
      "stateMutability": "view",
      "type": "function"
    },
    {
      "inputs": [],
      "name": "collateralTokenDecimals",
      "outputs": [
        {
          "internalType": "uint256",
          "name": "",
          "type": "uint256"
        }
      ],
      "stateMutability": "view",
      "type": "function"
    },
    {
      "inputs": [],
      "name": "currentDeposit",
      "outputs": [
        {
          "internalType": "uint256",
          "name": "",
          "type": "uint256"
        }
      ],
      "stateMutability": "view",
      "type": "function"
    },
    {
      "inputs": [
        {
          "internalType": "uint256",
          "name": "amount",
          "type": "uint256"
        }
      ],
      "name": "deposit",
      "outputs": [],
      "stateMutability": "nonpayable",
      "type": "function"
    },
    {
      "inputs": [],
      "name": "depositLimit",
      "outputs": [
        {
          "internalType": "uint256",
          "name": "",
          "type": "uint256"
        }
      ],
      "stateMutability": "view",
      "type": "function"
    },
    {
      "inputs": [],
      "name": "depositPerUserLimit",
      "outputs": [
        {
          "internalType": "uint256",
          "name": "",
          "type": "uint256"
        }
      ],
      "stateMutability": "view",
      "type": "function"
    },
    {
      "inputs": [],
      "name": "eip712Domain",
      "outputs": [
        {
          "internalType": "bytes1",
          "name": "fields",
          "type": "bytes1"
        },
        {
          "internalType": "string",
          "name": "name",
          "type": "string"
        },
        {
          "internalType": "string",
          "name": "version",
          "type": "string"
        },
        {
          "internalType": "uint256",
          "name": "chainId",
          "type": "uint256"
        },
        {
          "internalType": "address",
          "name": "verifyingContract",
          "type": "address"
        },
        {
          "internalType": "bytes32",
          "name": "salt",
          "type": "bytes32"
        },
        {
          "internalType": "uint256[]",
          "name": "extensions",
          "type": "uint256[]"
        }
      ],
      "stateMutability": "view",
      "type": "function"
    },
    {
      "inputs": [
        {
          "internalType": "bytes32",
          "name": "role",
          "type": "bytes32"
        }
      ],
      "name": "getRoleAdmin",
      "outputs": [
        {
          "internalType": "bytes32",
          "name": "",
          "type": "bytes32"
        }
      ],
      "stateMutability": "view",
      "type": "function"
    },
    {
      "inputs": [
        {
          "internalType": "bytes32",
          "name": "role",
          "type": "bytes32"
        },
        {
          "internalType": "uint256",
          "name": "index",
          "type": "uint256"
        }
      ],
      "name": "getRoleMember",
      "outputs": [
        {
          "internalType": "address",
          "name": "",
          "type": "address"
        }
      ],
      "stateMutability": "view",
      "type": "function"
    },
    {
      "inputs": [
        {
          "internalType": "bytes32",
          "name": "role",
          "type": "bytes32"
        }
      ],
      "name": "getRoleMemberCount",
      "outputs": [
        {
          "internalType": "uint256",
          "name": "",
          "type": "uint256"
        }
      ],
      "stateMutability": "view",
      "type": "function"
    },
    {
      "inputs": [
        {
          "internalType": "bytes32",
          "name": "role",
          "type": "bytes32"
        },
        {
          "internalType": "address",
          "name": "account",
          "type": "address"
        }
      ],
      "name": "grantRole",
      "outputs": [],
      "stateMutability": "nonpayable",
      "type": "function"
    },
    {
      "inputs": [
        {
          "internalType": "bytes32",
          "name": "role",
          "type": "bytes32"
        },
        {
          "internalType": "address",
          "name": "account",
          "type": "address"
        }
      ],
      "name": "hasRole",
      "outputs": [
        {
          "internalType": "bool",
          "name": "",
          "type": "bool"
        }
      ],
      "stateMutability": "view",
      "type": "function"
    },
    {
      "inputs": [
        {
          "internalType": "address",
          "name": "_symmioAddress",
          "type": "address"
        },
        {
          "internalType": "address",
          "name": "_solver",
          "type": "address"
        },
        {
          "internalType": "address",
          "name": "_signer",
          "type": "address"
        },
        {
          "internalType": "uint256",
          "name": "_minimumPaybackRatio",
          "type": "uint256"
        },
        {
          "internalType": "uint256",
          "name": "_depositLimit",
          "type": "uint256"
        },
        {
          "internalType": "uint256",
          "name": "_depositPerUserLimit",
          "type": "uint256"
        }
      ],
      "name": "initialize",
      "outputs": [],
      "stateMutability": "nonpayable",
      "type": "function"
    },
    {
      "inputs": [],
      "name": "lockedBalance",
      "outputs": [
        {
          "internalType": "uint256",
          "name": "",
          "type": "uint256"
        }
      ],
      "stateMutability": "view",
      "type": "function"
    },
    {
      "inputs": [],
      "name": "minimumPaybackRatio",
      "outputs": [
        {
          "internalType": "uint256",
          "name": "",
          "type": "uint256"
        }
      ],
      "stateMutability": "view",
      "type": "function"
    },
    {
      "inputs": [],
      "name": "pause",
      "outputs": [],
      "stateMutability": "nonpayable",
      "type": "function"
    },
    {
      "inputs": [],
      "name": "paused",
      "outputs": [
        {
          "internalType": "bool",
          "name": "",
          "type": "bool"
        }
      ],
      "stateMutability": "view",
      "type": "function"
    },
    {
      "inputs": [
        {
          "internalType": "address",
          "name": "",
          "type": "address"
        }
      ],
      "name": "pendingWithdrawalAmount",
      "outputs": [
        {
          "internalType": "uint256",
          "name": "",
          "type": "uint256"
        }
      ],
      "stateMutability": "view",
      "type": "function"
    },
    {
      "inputs": [
        {
          "internalType": "bytes32",
          "name": "role",
          "type": "bytes32"
        },
        {
          "internalType": "address",
          "name": "account",
          "type": "address"
        }
      ],
      "name": "renounceRole",
      "outputs": [],
      "stateMutability": "nonpayable",
      "type": "function"
    },
    {
      "inputs": [
        {
          "internalType": "uint256",
          "name": "amount",
          "type": "uint256"
        },
        {
          "internalType": "uint256",
          "name": "minAmountOut",
          "type": "uint256"
        },
        {
          "internalType": "address",
          "name": "receiver",
          "type": "address"
        },
        {
          "internalType": "uint256",
          "name": "nonce",
          "type": "uint256"
        },
        {
          "internalType": "uint256",
          "name": "deadline",
          "type": "uint256"
        },
        {
          "internalType": "bytes",
          "name": "signature",
          "type": "bytes"
        }
      ],
      "name": "requestWithdraw",
      "outputs": [],
      "stateMutability": "nonpayable",
      "type": "function"
    },
    {
      "inputs": [
        {
          "internalType": "bytes32",
          "name": "role",
          "type": "bytes32"
        },
        {
          "internalType": "address",
          "name": "account",
          "type": "address"
        }
      ],
      "name": "revokeRole",
      "outputs": [],
      "stateMutability": "nonpayable",
      "type": "function"
    },
    {
      "inputs": [
        {
          "internalType": "uint256",
          "name": "_depositLimit",
          "type": "uint256"
        },
        {
          "internalType": "uint256",
          "name": "_depositPerUserLimit",
          "type": "uint256"
        }
      ],
      "name": "setDepositLimit",
      "outputs": [],
      "stateMutability": "nonpayable",
      "type": "function"
    },
    {
      "inputs": [
        {
          "internalType": "uint256",
          "name": "_minimumPaybackRatio",
          "type": "uint256"
        }
      ],
      "name": "setMinimumPaybackRatio",
      "outputs": [],
      "stateMutability": "nonpayable",
      "type": "function"
    },
    {
      "inputs": [
        {
          "internalType": "address",
          "name": "_signer",
          "type": "address"
        }
      ],
      "name": "setSigner",
      "outputs": [],
      "stateMutability": "nonpayable",
      "type": "function"
    },
    {
      "inputs": [
        {
          "internalType": "address",
          "name": "_solver",
          "type": "address"
        }
      ],
      "name": "setSolver",
      "outputs": [],
      "stateMutability": "nonpayable",
      "type": "function"
    },
    {
      "inputs": [
        {
          "internalType": "address",
          "name": "_symmioAddress",
          "type": "address"
        }
      ],
      "name": "setSymmioAddress",
      "outputs": [],
      "stateMutability": "nonpayable",
      "type": "function"
    },
    {
      "inputs": [
        {
          "internalType": "uint256",
          "name": "withdrawalPeriod_",
          "type": "uint256"
        }
      ],
      "name": "setWithdrawalPeriod",
      "outputs": [],
      "stateMutability": "nonpayable",
      "type": "function"
    },
    {
      "inputs": [],
      "name": "signer",
      "outputs": [
        {
          "internalType": "address",
          "name": "",
          "type": "address"
        }
      ],
      "stateMutability": "view",
      "type": "function"
    },
    {
      "inputs": [],
      "name": "solver",
      "outputs": [
        {
          "internalType": "address",
          "name": "",
          "type": "address"
        }
      ],
      "stateMutability": "view",
      "type": "function"
    },
    {
      "inputs": [
        {
          "internalType": "bytes4",
          "name": "interfaceId",
          "type": "bytes4"
        }
      ],
      "name": "supportsInterface",
      "outputs": [
        {
          "internalType": "bool",
          "name": "",
          "type": "bool"
        }
      ],
      "stateMutability": "view",
      "type": "function"
    },
    {
      "inputs": [],
      "name": "symmio",
      "outputs": [
        {
          "internalType": "contract ISymmio",
          "name": "",
          "type": "address"
        }
      ],
      "stateMutability": "view",
      "type": "function"
    },
    {
      "inputs": [],
      "name": "unpause",
      "outputs": [],
      "stateMutability": "nonpayable",
      "type": "function"
    },
    {
      "inputs": [
        {
          "internalType": "address",
          "name": "",
          "type": "address"
        },
        {
          "internalType": "uint256",
          "name": "",
          "type": "uint256"
        }
      ],
      "name": "usedNonces",
      "outputs": [
        {
          "internalType": "bool",
          "name": "",
          "type": "bool"
        }
      ],
      "stateMutability": "view",
      "type": "function"
    },
    {
      "inputs": [
        {
          "internalType": "address",
          "name": "receiver",
          "type": "address"
        },
        {
          "internalType": "uint256",
          "name": "amount",
          "type": "uint256"
        }
      ],
      "name": "withdrawNotLockedCollateralTokens",
      "outputs": [],
      "stateMutability": "nonpayable",
      "type": "function"
    },
    {
      "inputs": [
        {
          "internalType": "uint256",
          "name": "",
          "type": "uint256"
        }
      ],
      "name": "withdrawRequests",
      "outputs": [
        {
          "internalType": "address",
          "name": "receiver",
          "type": "address"
        },
        {
          "internalType": "address",
          "name": "sender",
          "type": "address"
        },
        {
          "internalType": "uint256",
          "name": "amount",
          "type": "uint256"
        },
        {
          "internalType": "uint256",
          "name": "minAmountOut",
          "type": "uint256"
        },
        {
          "internalType": "enum IOnChainSymmioVault.RequestStatus",
          "name": "status",
          "type": "uint8"
        },
        {
          "internalType": "uint256",
          "name": "acceptedRatio",
          "type": "uint256"
        },
        {
          "internalType": "uint256",
          "name": "acceptedWithdrawRequestTimestamp",
          "type": "uint256"
        },
        {
          "internalType": "uint256",
          "name": "claimableAt",
          "type": "uint256"
        }
      ],
      "stateMutability": "view",
      "type": "function"
    },
    {
      "inputs": [],
      "name": "withdrawalPeriod",
      "outputs": [
        {
          "internalType": "uint256",
          "name": "",
          "type": "uint256"
        }
      ],
      "stateMutability": "view",
      "type": "function"
    }
  ],
  "bytecode": "0x6080604052348015600f57600080fd5b506016601a565b60d7565b600054610100900460ff161560855760405162461bcd60e51b815260206004820152602760248201527f496e697469616c697a61626c653a20636f6e747261637420697320696e697469604482015266616c697a696e6760c81b606482015260840160405180910390fd5b60005460ff9081161460d5576000805460ff191660ff9081179091556040519081527f7f26b83ff96e1f2b6a682f133852f6798a09c465da95921460cefb38474024989060200160405180910390a15b565b614514806100e66000396000f3fe608060405234801561001057600080fd5b506004361061030a5760003560e01c80637b9f7d941161019c578063b54790d8116100ee578063deaf30b211610097578063ecf7085811610071578063ecf70858146106ea578063f36fbab7146106f4578063fb1bb9de1461070757600080fd5b8063deaf30b214610698578063e63ab1e9146106b9578063e94b2f44146106e057600080fd5b8063ca15c873116100c8578063ca15c8731461065f578063cce4705b14610672578063d547741f1461068557600080fd5b8063b54790d814610638578063b6b55f2514610642578063bca7093d1461065557600080fd5b80639010d07c11610150578063992a7dfb1161012a578063992a7dfb146105e2578063a2011b3f14610609578063a217fddf1461063057600080fd5b80639010d07c1461058357806391d1485414610596578063973b294f146105cf57600080fd5b8063849fc72b11610181578063849fc72b1461054257806384b0196e1461055557806386da03231461057057600080fd5b80637b9f7d941461052b5780638456cb591461053a57600080fd5b80633f4ba83a116102605780636c19e783116102095780637278bd9b116101e35780637278bd9b14610504578063728cdbca1461050e5780637b80889b1461052157600080fd5b80636c19e783146104ca5780636d9dd201146104dd5780636e74bf96146104f157600080fd5b80635c975abb1161023a5780635c975abb1461046957806364d4c819146104745780636a8a68941461049b57600080fd5b80633f4ba83a1461043957806349a7a26d146104415780635849b93d1461045557600080fd5b8063238ac933116102c257806330d3c5341161029c57806330d3c534146103ec57806336568abe146104135780633e55fde01461042657600080fd5b8063238ac9331461038a578063248a9ca3146103b65780632f2ff15d146103d957600080fd5b80630a608501116102f35780630a6085011461034c5780631813fbe9146103645780631f8794331461037757600080fd5b806301569e3a1461030f57806301ffc9a714610324575b600080fd5b61032261031d366004613cc3565b61072e565b005b610337610332366004613ce0565b6108c9565b60405190151581526020015b60405180910390f35b6103566101685481565b604051908152602001610343565b610322610372366004613d22565b610925565b610322610385366004613cc3565b610999565b6101635461039e906001600160a01b031681565b6040516001600160a01b039091168152602001610343565b6103566103c4366004613d44565b60009081526065602052604090206001015490565b6103226103e7366004613d5d565b610a7e565b6103567f372387bd01807b923229b5bd1e46f8a6b8815b5d5db581db3e993c5168467b2781565b610322610421366004613d5d565b610aa8565b610322610434366004613dd4565b610b34565b6103226111a5565b6101625461039e906001600160a01b031681565b6101615461039e906001600160a01b031681565b60c95460ff16610337565b6103567fb1dd0bed30d3b8ab9fc76313ecb7db14f6b497d5f1f7859fa5cb5811c1ca307381565b6103376104a9366004613e99565b61016e60209081526000928352604080842090915290825290205460ff1681565b6103226104d8366004613cc3565b6111da565b6101645461039e906001600160a01b031681565b6103226104ff366004613d44565b6112bf565b6103566101665481565b61032261051c366004613ec5565b611422565b6103566101655481565b6103566706f05b59d3b2000081565b61032261163b565b610322610550366004613f2a565b61166d565b61055d611a43565b6040516103439796959493929190614088565b61032261057e366004613d44565b611b05565b61039e610591366004613d22565b611d66565b6103376105a4366004613d5d565b60009182526065602090815260408084206001600160a01b0393909316845291905290205460ff1690565b6103226105dd366004613d44565b611d85565b6105f56105f0366004613d44565b611db8565b604051610343989796959493929190614128565b6103567f61c92169ef077349011ff0b1383c894d86c5f0b41d986366b58a6cf31e93beda81565b610356600081565b61035661016a5481565b610322610650366004613d44565b611e1f565b61035661016c5481565b61035661066d366004613d44565b612081565b610322610680366004613d44565b612098565b610322610693366004613d5d565b6122c0565b6103566106a6366004613cc3565b61016d6020526000908152604090205481565b6103567f65d7a28e3265b37a6474929f336521b332c1681b933f6cb9f3376673440d862a81565b6103566101695481565b6103566101675481565b610322610702366004613e99565b6122e5565b6103567f427da25fe773164f88948d3e215c94b6554e2ed5e5f203a821c9f2f6131cf75a81565b7f61c92169ef077349011ff0b1383c894d86c5f0b41d986366b58a6cf31e93beda61075881612535565b6001600160a01b0382166107bf5760405162461bcd60e51b815260206004820152602360248201527f53796d6d696f536f6c7665724465706f7369746f723a205a65726f206164647260448201526265737360e81b60648201526084015b60405180910390fd5b610161805473ffffffffffffffffffffffffffffffffffffffff19166001600160a01b038481169190911790915561016454166107fa61253f565b610164546001600160a01b038281169116148061081e57506001600160a01b038116155b6108905760405162461bcd60e51b815260206004820152603460248201527f53796d6d696f536f6c7665724465706f7369746f723a20436f6c6c617465726160448201527f6c2063616e206e6f74206265206368616e67656400000000000000000000000060648201526084016107b6565b6040516001600160a01b038416907fe5af12e9abb914276d8e0a5a01aa97d26f4c81e3002646f90824c2063953104490600090a2505050565b60007fffffffff0000000000000000000000000000000000000000000000000000000082167f5a05180f00000000000000000000000000000000000000000000000000000000148061091f575061091f82612703565b92915050565b7f61c92169ef077349011ff0b1383c894d86c5f0b41d986366b58a6cf31e93beda61094f81612535565b61016783905561016882905560408051848152602081018490527fedf8b25cd37f67d45bcd7b8a30815ed96124959bc4340442887767a6a07e8050910160405180910390a1505050565b7f61c92169ef077349011ff0b1383c894d86c5f0b41d986366b58a6cf31e93beda6109c381612535565b6001600160a01b038216610a255760405162461bcd60e51b815260206004820152602360248201527f53796d6d696f536f6c7665724465706f7369746f723a205a65726f206164647260448201526265737360e81b60648201526084016107b6565b610162805473ffffffffffffffffffffffffffffffffffffffff19166001600160a01b0384169081179091556040517f73c48e8c0360f51d3049faa15518d29248fbad9e77ad28ad94bcd1712854ca9b90600090a25050565b600082815260656020526040902060010154610a9981612535565b610aa3838361279a565b505050565b6001600160a01b0381163314610b265760405162461bcd60e51b815260206004820152602f60248201527f416363657373436f6e74726f6c3a2063616e206f6e6c792072656e6f756e636560448201527f20726f6c657320666f722073656c66000000000000000000000000000000000060648201526084016107b6565b610b3082826127bc565b5050565b7f372387bd01807b923229b5bd1e46f8a6b8815b5d5db581db3e993c5168467b27610b5e81612535565b610b666127de565b610b7f33610164546001600160a01b0316903087612831565b61016654821015610bf85760405162461bcd60e51b815260206004820152602f60248201527f53796d6d696f536f6c7665724465706f7369746f723a205061796261636b207260448201527f6174696f20697320746f6f206c6f77000000000000000000000000000000000060648201526084016107b6565b670de0b6b3a7640000821115610c765760405162461bcd60e51b815260206004820152603060248201527f53796d6d696f536f6c7665724465706f7369746f723a205061796261636b207260448201527f6174696f20697320746f6f20686967680000000000000000000000000000000060648201526084016107b6565b6101655460005b8451811015611061576000858281518110610c9a57610c9a614192565b6020026020010151905061016b805490508110610d1f5760405162461bcd60e51b815260206004820152602960248201527f53796d6d696f536f6c7665724465706f7369746f723a20496e76616c6964207260448201527f657175657374204944000000000000000000000000000000000000000000000060648201526084016107b6565b600061016b8281548110610d3557610d35614192565b600091825260209091206004600890920201015460ff166003811115610d5d57610d5d614112565b14610dd05760405162461bcd60e51b815260206004820152602f60248201527f53796d6d696f536f6c7665724465706f7369746f723a20496e76616c6964206160448201527f636365707465642072657175657374000000000000000000000000000000000060648201526084016107b6565b6000670de0b6b3a76400008661016b8481548110610df057610df0614192565b906000526020600020906008020160020154610e0c91906141be565b610e1691906141d5565b905061016b8281548110610e2c57610e2c614192565b906000526020600020906008020160030154811015610eb5576040805162461bcd60e51b81526020600482015260248101919091527f53796d6d696f536f6c7665724465706f7369746f723a205061796261636b207260448201527f6174696f20697320746f6f206c6f7720666f722074686973207265717565737460648201526084016107b6565b610ebf81856141f7565b935061016b8281548110610ed557610ed5614192565b9060005260206000209060080201600201546101696000828254610ef9919061420a565b92505081905550600161016b8381548110610f1657610f16614192565b60009182526020909120600460089092020101805460ff19166001836003811115610f4357610f43614112565b02179055508561016b8381548110610f5d57610f5d614192565b9060005260206000209060080201600501819055504261016b8381548110610f8757610f87614192565b600091825260209091206006600890920201015561016c54610fa990426141f7565b61016b8381548110610fbd57610fbd614192565b90600052602060002090600802016007018190555061016b8281548110610fe657610fe6614192565b90600052602060002090600802016002015461016d600061016b858154811061101157611011614192565b60009182526020808320600160089093020191909101546001600160a01b031683528201929092526040018120805490919061104e90849061420a565b909155505060019092019150610c7d9050565b50610164546040517f70a0823100000000000000000000000000000000000000000000000000000000815230600482015282916001600160a01b0316906370a0823190602401602060405180830381865afa1580156110c4573d6000803e3d6000fd5b505050506040513d601f19601f820116820180604052508101906110e8919061421d565b101561115c5760405162461bcd60e51b815260206004820152603460248201527f53796d6d696f536f6c7665724465706f7369746f723a20496e7375666669636960448201527f656e7420636f6e74726163742062616c616e636500000000000000000000000060648201526084016107b6565b6101658190556040517f7e82005417f8fc53c7a47dc803bf0c0c5fb4adfa711e011d4edead5839b0d0249061119690879087908790614236565b60405180910390a15050505050565b7f427da25fe773164f88948d3e215c94b6554e2ed5e5f203a821c9f2f6131cf75a6111cf81612535565b6111d76128e8565b50565b7f61c92169ef077349011ff0b1383c894d86c5f0b41d986366b58a6cf31e93beda61120481612535565b6001600160a01b0382166112665760405162461bcd60e51b815260206004820152602360248201527f53796d6d696f536f6c7665724465706f7369746f723a205a65726f206164647260448201526265737360e81b60648201526084016107b6565b610163805473ffffffffffffffffffffffffffffffffffffffff19166001600160a01b0384169081179091556040517f93d2bd623fe74229d9510c70ec2da10109749943db6d68437555a01b1844beae90600090a25050565b7f61c92169ef077349011ff0b1383c894d86c5f0b41d986366b58a6cf31e93beda6112e981612535565b6706f05b59d3b200008210156113675760405162461bcd60e51b815260206004820152603760248201527f53796d6d696f536f6c7665724465706f7369746f723a204d696e696d756d206260448201527f75796261636b20726174696f20697320746f6f206c6f7700000000000000000060648201526084016107b6565b670de0b6b3a76400008211156113e55760405162461bcd60e51b815260206004820152603860248201527f53796d6d696f536f6c7665724465706f7369746f723a204d696e696d756d206260448201527f75796261636b20726174696f20697320746f6f2068696768000000000000000060648201526084016107b6565b6101668290556040518281527f2ae6ddf10933401b20295006a4f7ed3af82a0ab05354f1fc7db9be3fc75f19d79060200160405180910390a15050565b600054610100900460ff16158080156114425750600054600160ff909116105b8061145c5750303b15801561145c575060005460ff166001145b6114ce5760405162461bcd60e51b815260206004820152602e60248201527f496e697469616c697a61626c653a20636f6e747261637420697320616c72656160448201527f647920696e697469616c697a656400000000000000000000000000000000000060648201526084016107b6565b6000805460ff1916600117905580156114f1576000805461ff0019166101001790555b6114f961293a565b6115016129ad565b611509612a18565b61157d6040518060400160405280601481526020017f4f6e436861696e53796d6d696f5661756c7456320000000000000000000000008152506040518060400160405280600181526020017f3100000000000000000000000000000000000000000000000000000000000000815250612a8b565b61158860003361279a565b6115b27f61c92169ef077349011ff0b1383c894d86c5f0b41d986366b58a6cf31e93beda3361279a565b6115bb8761072e565b6115c58383610925565b6115ce86610999565b6115d7856111da565b6115e0846112bf565b6115ec62093a80612b00565b8015611632576000805461ff0019169055604051600181527f7f26b83ff96e1f2b6a682f133852f6798a09c465da95921460cefb38474024989060200160405180910390a15b50505050505050565b7f65d7a28e3265b37a6474929f336521b332c1681b933f6cb9f3376673440d862a61166581612535565b6111d7612b3c565b6116756127de565b6001600160a01b0384166116f15760405162461bcd60e51b815260206004820152603060248201527f53796d6d696f536f6c7665724465706f7369746f723a205a65726f206164647260448201527f65737320666f722072656365697665720000000000000000000000000000000060648201526084016107b6565b4282116117665760405162461bcd60e51b815260206004820152603560248201527f53796d6d696f536f6c7665724465706f7369746f723a20446561646c696e652060448201527f6d75737420626520696e2074686520667574757265000000000000000000000060648201526084016107b6565b6001600160a01b038416600090815261016e6020908152604080832086845290915290205460ff16156118015760405162461bcd60e51b815260206004820152602960248201527f53796d6d696f536f6c7665724465706f7369746f723a204e6f6e636520616c7260448201527f656164792075736564000000000000000000000000000000000000000000000060648201526084016107b6565b61180f868686868686612b79565b6118815760405162461bcd60e51b815260206004820152602860248201527f53796d6d696f536f6c7665724465706f7369746f723a20496e76616c6964207360448201527f69676e617475726500000000000000000000000000000000000000000000000060648201526084016107b6565b6001600160a01b038416600081815261016e60209081526040808320878452825291829020805460ff191660011790558151610100810190925291815261016b9181016118cb3390565b6001600160a01b031681526020810189905260408101889052606001600081526000602080830182905260408084018390526060938401839052855460018082018855968452928290208551600890940201805473ffffffffffffffffffffffffffffffffffffffff199081166001600160a01b039586161782559286015181880180549094169416939093179091558301516002820155908201516003808301919091556080830151600483018054949593949193909260ff1990921691849081111561199b5761199b614112565b021790555060a0820151600582015560c0820151600682015560e09091015160079091015533600090815261016d6020526040812080548892906119e09084906141f7565b909155505061016b546001600160a01b038516903390611a029060019061420a565b604080518a8152602081018890527f0766e8c55dde32095d8c203180e4f32c7407c445e0a87007877162126d257b25910160405180910390a4505050505050565b60006060806000806000606060fb546000801b148015611a63575060fc54155b611aaf5760405162461bcd60e51b815260206004820152601560248201527f4549503731323a20556e696e697469616c697a6564000000000000000000000060448201526064016107b6565b611ab7612c21565b611abf612cb3565b604080516000808252602082019092527f0f000000000000000000000000000000000000000000000000000000000000009b939a50919850469750309650945092509050565b611b0d6127de565b61016b548110611b855760405162461bcd60e51b815260206004820152602960248201527f53796d6d696f536f6c7665724465706f7369746f723a20496e76616c6964207260448201527f657175657374204944000000000000000000000000000000000000000000000060648201526084016107b6565b600061016b8281548110611b9b57611b9b614192565b6000918252602090912060089091020190506001600482015460ff166003811115611bc857611bc8614112565b14611c3b5760405162461bcd60e51b815260206004820152603760248201527f53796d6d696f536f6c7665724465706f7369746f723a2052657175657374206e60448201527f6f7420726561647920666f72207769746864726177616c00000000000000000060648201526084016107b6565b4281600701541115611cb55760405162461bcd60e51b815260206004820152603960248201527f53796d6d696f536f6c7665724465706f7369746f723a2052657175657374206e60448201527f6f742070617373207769746864726177616c20706572696f640000000000000060648201526084016107b6565b60048101805460ff19166002908117909155600582015490820154600091670de0b6b3a764000091611ce791906141be565b611cf191906141d5565b9050806101656000828254611d06919061420a565b9091555050815461016454611d28916001600160a01b03918216911683612cc2565b81546040516001600160a01b039091169084907f4ce122b005e10b197f4caf028d92e008a684c370ad8f93528e07ded8214240e190600090a3505050565b6000828152609760205260408120611d7e9083612d0b565b9392505050565b7f61c92169ef077349011ff0b1383c894d86c5f0b41d986366b58a6cf31e93beda611daf81612535565b610b3082612b00565b61016b8181548110611dc957600080fd5b6000918252602090912060089091020180546001820154600283015460038401546004850154600586015460068701546007909701546001600160a01b03968716985094909516959294919360ff909116929088565b611e276127de565b611e2f612d17565b60008111611ea55760405162461bcd60e51b815260206004820152603460248201527f53796d6d696f536f6c7665724465706f7369746f723a20416d6f756e74206d7560448201527f73742062652067726561746572207468616e203000000000000000000000000060648201526084016107b6565b610167548161016954611eb891906141f7565b1115611f2c5760405162461bcd60e51b815260206004820152602c60248201527f53796d6d696f536f6c7665724465706f7369746f723a204465706f736974206c60448201527f696d69742072656163686564000000000000000000000000000000000000000060648201526084016107b6565b610164546001600160a01b0316611f4581333085612831565b816101696000828254611f5891906141f7565b909155505060405182815233907fe1fffcc4923d04b559f4d29a8bfc6cda04eb5b0d3c460751c2402c5c5cc9109c9060200160405180910390a261016154611fad906001600160a01b03838116911684612d72565b61016154610162546040517f2f4f21e20000000000000000000000000000000000000000000000000000000081526001600160a01b03918216600482015260248101859052911690632f4f21e290604401600060405180830381600087803b15801561201857600080fd5b505af115801561202c573d6000803e3d6000fd5b5050610162546040518581526001600160a01b0390911692503391507f42a31d51415a86588240e32bf72025c881c4c9aada6e283ce50dc32f5a64717b9060200160405180910390a3506111d7600161012f55565b600081815260976020526040812061091f90612e50565b6120a06127de565b61016b5481106121185760405162461bcd60e51b815260206004820152602960248201527f53796d6d696f536f6c7665724465706f7369746f723a20496e76616c6964207260448201527f657175657374204944000000000000000000000000000000000000000000000060648201526084016107b6565b600061016b828154811061212e5761212e614192565b906000526020600020906008020190506121453390565b60018201546001600160a01b039081169116146121ca5760405162461bcd60e51b815260206004820152603f60248201527f53796d6d696f536f6c7665724465706f7369746f723a204f6e6c79207468652060448201527f73656e646572206f6620726571756573742063616e2063616e63656c2069740060648201526084016107b6565b6000600482015460ff1660038111156121e5576121e5614112565b146122585760405162461bcd60e51b815260206004820152602560248201527f53796d6d696f536f6c7665724465706f7369746f723a20496e76616c6964207360448201527f746174757300000000000000000000000000000000000000000000000000000060648201526084016107b6565b60048101805460ff19166003179055600281015433600090815261016d60205260408120805490919061228c90849061420a565b909155505060405182907f8f3015a84bd69b67997edb78d8928ad670dcb6243df596529ae1e07f93eaf35a90600090a25050565b6000828152606560205260409020600101546122db81612535565b610aa383836127bc565b7f372387bd01807b923229b5bd1e46f8a6b8815b5d5db581db3e993c5168467b2761230f81612535565b6123176127de565b6001600160a01b0383166123935760405162461bcd60e51b815260206004820152603060248201527f53796d6d696f536f6c7665724465706f7369746f723a205a65726f206164647260448201527f65737320666f722072656365697665720000000000000000000000000000000060648201526084016107b6565b600082116124095760405162461bcd60e51b815260206004820152603460248201527f53796d6d696f536f6c7665724465706f7369746f723a20416d6f756e74206d7560448201527f73742062652067726561746572207468616e203000000000000000000000000060648201526084016107b6565b610164546040517f70a082310000000000000000000000000000000000000000000000000000000081523060048201526001600160a01b039091169060009082906370a0823190602401602060405180830381865afa158015612470573d6000803e3d6000fd5b505050506040513d601f19601f82011682018060405250810190612494919061421d565b905061016554816124a5919061420a565b84111561251a5760405162461bcd60e51b815260206004820152602b60248201527f53796d6d696f536f6c7665724465706f7369746f723a20496e7375666669636960448201527f656e742062616c616e636500000000000000000000000000000000000000000060648201526084016107b6565b61252e6001600160a01b0383168686612cc2565b5050505050565b6111d78133612e5a565b61016160009054906101000a90046001600160a01b03166001600160a01b0316635c1548fb6040518163ffffffff1660e01b8152600401602060405180830381865afa158015612593573d6000803e3d6000fd5b505050506040513d601f19601f820116820180604052508101906125b7919061425f565b610164805473ffffffffffffffffffffffffffffffffffffffff19166001600160a01b03929092169182179055604080517f313ce567000000000000000000000000000000000000000000000000000000008152905163313ce567916004808201926020929091908290030181865afa158015612638573d6000803e3d6000fd5b505050506040513d601f19601f8201168201806040525081019061265c919061427c565b60ff1661016a819055601210156127015760405162461bcd60e51b815260206004820152604e60248201527f53796d6d696f536f6c7665724465706f7369746f723a20436f6c6c617465726160448201527f6c20646563696d616c732073686f756c64206265206c6f776572207468616e2060648201527f6f7220657175616c20746f203138000000000000000000000000000000000000608482015260a4016107b6565b565b60007fffffffff0000000000000000000000000000000000000000000000000000000082167f7965db0b00000000000000000000000000000000000000000000000000000000148061091f57507f01ffc9a7000000000000000000000000000000000000000000000000000000007fffffffff0000000000000000000000000000000000000000000000000000000083161461091f565b6127a48282612ecf565b6000828152609760205260409020610aa39082612f71565b6127c68282612f86565b6000828152609760205260409020610aa39082613009565b60c95460ff16156127015760405162461bcd60e51b815260206004820152601060248201527f5061757361626c653a207061757365640000000000000000000000000000000060448201526064016107b6565b6040516001600160a01b03808516602483015283166044820152606481018290526128e29085907f23b872dd00000000000000000000000000000000000000000000000000000000906084015b60408051601f198184030181529190526020810180517bffffffffffffffffffffffffffffffffffffffffffffffffffffffff167fffffffff000000000000000000000000000000000000000000000000000000009093169290921790915261301e565b50505050565b6128f0613106565b60c9805460ff191690557f5db9ee0a495bf2e6ff9c91a7834c1ba4fdd244a5e8aa4e537bd38aeae4b073aa335b6040516001600160a01b03909116815260200160405180910390a1565b600054610100900460ff166129a55760405162461bcd60e51b815260206004820152602b60248201527f496e697469616c697a61626c653a20636f6e7472616374206973206e6f74206960448201526a6e697469616c697a696e6760a81b60648201526084016107b6565b612701613158565b600054610100900460ff166127015760405162461bcd60e51b815260206004820152602b60248201527f496e697469616c697a61626c653a20636f6e7472616374206973206e6f74206960448201526a6e697469616c697a696e6760a81b60648201526084016107b6565b600054610100900460ff16612a835760405162461bcd60e51b815260206004820152602b60248201527f496e697469616c697a61626c653a20636f6e7472616374206973206e6f74206960448201526a6e697469616c697a696e6760a81b60648201526084016107b6565b6127016131c3565b600054610100900460ff16612af65760405162461bcd60e51b815260206004820152602b60248201527f496e697469616c697a61626c653a20636f6e7472616374206973206e6f74206960448201526a6e697469616c697a696e6760a81b60648201526084016107b6565b610b30828261323a565b61016c8190556040518181527f699d7bc1fd2d92f6912f04b6a309ef25ec3937479e80cdc04b75f234a724e9a29060200160405180910390a150565b612b446127de565b60c9805460ff191660011790557f62e78cea01bee320cd4e420270b5ea74000d11b0c9f74754ebdbfc544b05a25861291d3390565b604080517fb1dd0bed30d3b8ab9fc76313ecb7db14f6b497d5f1f7859fa5cb5811c1ca30736020820152908101879052606081018690526001600160a01b038516608082015260a0810184905260c081018390526000908190612bf49060e001604051602081830303815290604052805190602001206132cd565b90506000612c028285613315565b610163546001600160a01b039182169116149998505050505050505050565b606060fd8054612c309061429f565b80601f0160208091040260200160405190810160405280929190818152602001828054612c5c9061429f565b8015612ca95780601f10612c7e57610100808354040283529160200191612ca9565b820191906000526020600020905b815481529060010190602001808311612c8c57829003601f168201915b5050505050905090565b606060fe8054612c309061429f565b6040516001600160a01b038316602482015260448101829052610aa39084907fa9059cbb000000000000000000000000000000000000000000000000000000009060640161287e565b6000611d7e8383613339565b600261012f5403612d6a5760405162461bcd60e51b815260206004820152601f60248201527f5265656e7472616e637947756172643a207265656e7472616e742063616c6c0060448201526064016107b6565b600261012f55565b604080516001600160a01b038416602482015260448082018490528251808303909101815260649091019091526020810180517bffffffffffffffffffffffffffffffffffffffffffffffffffffffff167f095ea7b300000000000000000000000000000000000000000000000000000000179052612df18482613363565b6128e2576040516001600160a01b038416602482015260006044820152612e3e9085907f095ea7b3000000000000000000000000000000000000000000000000000000009060640161287e565b6128e2848261301e565b600161012f55565b600061091f825490565b60008281526065602090815260408083206001600160a01b038516845290915290205460ff16610b3057612e8d8161340a565b612e9883602061341c565b604051602001612ea99291906142d9565b60408051601f198184030181529082905262461bcd60e51b82526107b69160040161435a565b60008281526065602090815260408083206001600160a01b038516845290915290205460ff16610b305760008281526065602090815260408083206001600160a01b03851684529091529020805460ff19166001179055612f2d3390565b6001600160a01b0316816001600160a01b0316837f2f8788117e7eff1d82e926ec794901d17c78024a50270940304540a733656f0d60405160405180910390a45050565b6000611d7e836001600160a01b038416613645565b60008281526065602090815260408083206001600160a01b038516845290915290205460ff1615610b305760008281526065602090815260408083206001600160a01b0385168085529252808320805460ff1916905551339285917ff6391f5c32d9c69d2a47ea670b442974b53935d1edc7fd64eb21e047a839171b9190a45050565b6000611d7e836001600160a01b038416613694565b6000613073826040518060400160405280602081526020017f5361666545524332303a206c6f772d6c6576656c2063616c6c206661696c6564815250856001600160a01b03166137879092919063ffffffff16565b9050805160001480613094575080806020019051810190613094919061436d565b610aa35760405162461bcd60e51b815260206004820152602a60248201527f5361666545524332303a204552433230206f7065726174696f6e20646964206e60448201527f6f7420737563636565640000000000000000000000000000000000000000000060648201526084016107b6565b60c95460ff166127015760405162461bcd60e51b815260206004820152601460248201527f5061757361626c653a206e6f742070617573656400000000000000000000000060448201526064016107b6565b600054610100900460ff16612e485760405162461bcd60e51b815260206004820152602b60248201527f496e697469616c697a61626c653a20636f6e7472616374206973206e6f74206960448201526a6e697469616c697a696e6760a81b60648201526084016107b6565b600054610100900460ff1661322e5760405162461bcd60e51b815260206004820152602b60248201527f496e697469616c697a61626c653a20636f6e7472616374206973206e6f74206960448201526a6e697469616c697a696e6760a81b60648201526084016107b6565b60c9805460ff19169055565b600054610100900460ff166132a55760405162461bcd60e51b815260206004820152602b60248201527f496e697469616c697a61626c653a20636f6e7472616374206973206e6f74206960448201526a6e697469616c697a696e6760a81b60648201526084016107b6565b60fd6132b183826143d6565b5060fe6132be82826143d6565b5050600060fb81905560fc5550565b600061091f6132da61379e565b836040517f19010000000000000000000000000000000000000000000000000000000000008152600281019290925260228201526042902090565b600080600061332485856137ad565b91509150613331816137f2565b509392505050565b600082600001828154811061335057613350614192565b9060005260206000200154905092915050565b6000806000846001600160a01b0316846040516133809190614495565b6000604051808303816000865af19150503d80600081146133bd576040519150601f19603f3d011682016040523d82523d6000602084013e6133c2565b606091505b50915091508180156133ec5750805115806133ec5750808060200190518101906133ec919061436d565b801561340157506001600160a01b0385163b15155b95945050505050565b606061091f6001600160a01b03831660145b6060600061342b8360026141be565b6134369060026141f7565b67ffffffffffffffff81111561344e5761344e613d8d565b6040519080825280601f01601f191660200182016040528015613478576020820181803683370190505b5090507f3000000000000000000000000000000000000000000000000000000000000000816000815181106134af576134af614192565b60200101907effffffffffffffffffffffffffffffffffffffffffffffffffffffffffffff1916908160001a9053507f78000000000000000000000000000000000000000000000000000000000000008160018151811061351257613512614192565b60200101907effffffffffffffffffffffffffffffffffffffffffffffffffffffffffffff1916908160001a905350600061354e8460026141be565b6135599060016141f7565b90505b60018111156135f6577f303132333435363738396162636465660000000000000000000000000000000085600f166010811061359a5761359a614192565b1a60f81b8282815181106135b0576135b0614192565b60200101907effffffffffffffffffffffffffffffffffffffffffffffffffffffffffffff1916908160001a90535060049490941c936135ef816144b1565b905061355c565b508315611d7e5760405162461bcd60e51b815260206004820181905260248201527f537472696e67733a20686578206c656e67746820696e73756666696369656e7460448201526064016107b6565b600081815260018301602052604081205461368c5750815460018181018455600084815260208082209093018490558454848252828601909352604090209190915561091f565b50600061091f565b6000818152600183016020526040812054801561377d5760006136b860018361420a565b85549091506000906136cc9060019061420a565b90508181146137315760008660000182815481106136ec576136ec614192565b906000526020600020015490508087600001848154811061370f5761370f614192565b6000918252602080832090910192909255918252600188019052604090208390555b8554869080613742576137426144c8565b60019003818190600052602060002001600090559055856001016000868152602001908152602001600020600090556001935050505061091f565b600091505061091f565b60606137968484600085613957565b949350505050565b60006137a8613a49565b905090565b60008082516041036137e35760208301516040840151606085015160001a6137d787828585613abd565b945094505050506137eb565b506000905060025b9250929050565b600081600481111561380657613806614112565b0361380e5750565b600181600481111561382257613822614112565b0361386f5760405162461bcd60e51b815260206004820152601860248201527f45434453413a20696e76616c6964207369676e6174757265000000000000000060448201526064016107b6565b600281600481111561388357613883614112565b036138d05760405162461bcd60e51b815260206004820152601f60248201527f45434453413a20696e76616c6964207369676e6174757265206c656e6774680060448201526064016107b6565b60038160048111156138e4576138e4614112565b036111d75760405162461bcd60e51b815260206004820152602260248201527f45434453413a20696e76616c6964207369676e6174757265202773272076616c60448201527f756500000000000000000000000000000000000000000000000000000000000060648201526084016107b6565b6060824710156139cf5760405162461bcd60e51b815260206004820152602660248201527f416464726573733a20696e73756666696369656e742062616c616e636520666f60448201527f722063616c6c000000000000000000000000000000000000000000000000000060648201526084016107b6565b600080866001600160a01b031685876040516139eb9190614495565b60006040518083038185875af1925050503d8060008114613a28576040519150601f19603f3d011682016040523d82523d6000602084013e613a2d565b606091505b5091509150613a3e87838387613b81565b979650505050505050565b60007f8b73c3c69bb8fe3d512ecc4cf759cc79239f7b179b0ffacaa9a75d522b39400f613a74613bfa565b613a7c613c53565b60408051602081019490945283019190915260608201524660808201523060a082015260c00160405160208183030381529060405280519060200120905090565b6000807f7fffffffffffffffffffffffffffffff5d576e7357a4501ddfe92f46681b20a0831115613af45750600090506003613b78565b6040805160008082526020820180845289905260ff881692820192909252606081018690526080810185905260019060a0016020604051602081039080840390855afa158015613b48573d6000803e3d6000fd5b5050604051601f1901519150506001600160a01b038116613b7157600060019250925050613b78565b9150600090505b94509492505050565b60608315613bf0578251600003613be9576001600160a01b0385163b613be95760405162461bcd60e51b815260206004820152601d60248201527f416464726573733a2063616c6c20746f206e6f6e2d636f6e747261637400000060448201526064016107b6565b5081613796565b6137968383613c84565b600080613c05612c21565b805190915015613c1c578051602090910120919050565b60fb548015613c2b5792915050565b7fc5d2460186f7233c927e7db2dcc703c0e500b653ca82273b7bfad8045d85a4709250505090565b600080613c5e612cb3565b805190915015613c75578051602090910120919050565b60fc548015613c2b5792915050565b815115613c945781518083602001fd5b8060405162461bcd60e51b81526004016107b6919061435a565b6001600160a01b03811681146111d757600080fd5b600060208284031215613cd557600080fd5b8135611d7e81613cae565b600060208284031215613cf257600080fd5b81357fffffffff0000000000000000000000000000000000000000000000000000000081168114611d7e57600080fd5b60008060408385031215613d3557600080fd5b50508035926020909101359150565b600060208284031215613d5657600080fd5b5035919050565b60008060408385031215613d7057600080fd5b823591506020830135613d8281613cae565b809150509250929050565b634e487b7160e01b600052604160045260246000fd5b604051601f8201601f1916810167ffffffffffffffff81118282101715613dcc57613dcc613d8d565b604052919050565b600080600060608486031215613de957600080fd5b83359250602084013567ffffffffffffffff811115613e0757600080fd5b8401601f81018613613e1857600080fd5b803567ffffffffffffffff811115613e3257613e32613d8d565b8060051b613e4260208201613da3565b91825260208184018101929081019089841115613e5e57600080fd5b6020850194505b83851015613e8457843580835260209586019590935090910190613e65565b96999698505050506040949094013593505050565b60008060408385031215613eac57600080fd5b8235613eb781613cae565b946020939093013593505050565b60008060008060008060c08789031215613ede57600080fd5b8635613ee981613cae565b95506020870135613ef981613cae565b94506040870135613f0981613cae565b959894975094956060810135955060808101359460a0909101359350915050565b60008060008060008060c08789031215613f4357600080fd5b86359550602087013594506040870135613f5c81613cae565b9350606087013592506080870135915060a087013567ffffffffffffffff811115613f8657600080fd5b8701601f81018913613f9757600080fd5b803567ffffffffffffffff811115613fb157613fb1613d8d565b613fc46020601f19601f84011601613da3565b8181528a6020838501011115613fd957600080fd5b816020840160208301376000602083830101528093505050509295509295509295565b60005b83811015614017578181015183820152602001613fff565b50506000910152565b60008151808452614038816020860160208601613ffc565b601f01601f19169290920160200192915050565b600081518084526020840193506020830160005b8281101561407e578151865260209586019590910190600101614060565b5093949350505050565b7fff000000000000000000000000000000000000000000000000000000000000008816815260e0602082015260006140c360e0830189614020565b82810360408401526140d58189614020565b90508660608401526001600160a01b03861660808401528460a084015282810360c0840152614104818561404c565b9a9950505050505050505050565b634e487b7160e01b600052602160045260246000fd5b6001600160a01b03898116825288166020820152604081018790526060810186905261010081016004861061416d57634e487b7160e01b600052602160045260246000fd5b8560808301528460a08301528360c08301528260e08301529998505050505050505050565b634e487b7160e01b600052603260045260246000fd5b634e487b7160e01b600052601160045260246000fd5b808202811582820484141761091f5761091f6141a8565b6000826141f257634e487b7160e01b600052601260045260246000fd5b500490565b8082018082111561091f5761091f6141a8565b8181038181111561091f5761091f6141a8565b60006020828403121561422f57600080fd5b5051919050565b83815260606020820152600061424f606083018561404c565b9050826040830152949350505050565b60006020828403121561427157600080fd5b8151611d7e81613cae565b60006020828403121561428e57600080fd5b815160ff81168114611d7e57600080fd5b600181811c908216806142b357607f821691505b6020821081036142d357634e487b7160e01b600052602260045260246000fd5b50919050565b7f416363657373436f6e74726f6c3a206163636f756e7420000000000000000000815260008351614311816017850160208801613ffc565b7f206973206d697373696e6720726f6c6520000000000000000000000000000000601791840191820152835161434e816028840160208801613ffc565b01602801949350505050565b602081526000611d7e6020830184614020565b60006020828403121561437f57600080fd5b81518015158114611d7e57600080fd5b601f821115610aa357806000526020600020601f840160051c810160208510156143b65750805b601f840160051c820191505b8181101561252e57600081556001016143c2565b815167ffffffffffffffff8111156143f0576143f0613d8d565b614404816143fe845461429f565b8461438f565b6020601f82116001811461443857600083156144205750848201515b600019600385901b1c1916600184901b17845561252e565b600084815260208120601f198516915b828110156144685787850151825560209485019460019092019101614448565b50848210156144865786840151600019600387901b60f8161c191681555b50505050600190811b01905550565b600082516144a7818460208701613ffc565b9190910192915050565b6000816144c0576144c06141a8565b506000190190565b634e487b7160e01b600052603160045260246000fdfea2646970667358221220de03415812f039b17ce65827f41cfc691f2294913ee055ccce19b4290c31a65e64736f6c634300081c0033",
  "linkReferences": {},
  "deployedLinkReferences": {}
}