{
  "_format": "hh-sol-artifact-1",
  "contractName": "SymmioPartyA",
  "sourceName": "contracts/SymmioPartyA.sol",
  "abi": [
    {
      "inputs": [
        {
          "internalType": "address",
          "name": "admin",
          "type": "address"
        },
        {
          "internalType": "address",
          "name": "multiAccountAddress",
          "type": "address"
        },
        {
          "internalType": "address",
          "name": "symmioAddress_",
          "type": "address"
        }
      ],
      "stateMutability": "nonpayable",
      "type": "constructor"
    },
    {
      "anonymous": false,
      "inputs": [
        {
          "indexed": true,
          "internalType": "bytes32",
          "name": "role",
          "type": "bytes32"
        },
        {
          "indexed": true,
          "internalType": "bytes32",
          "name": "previousAdminRole",
          "type": "bytes32"
        },
        {
          "indexed": true,
          "internalType": "bytes32",
          "name": "newAdminRole",
          "type": "bytes32"
        }
      ],
      "name": "RoleAdminChanged",
      "type": "event"
    },
    {
      "anonymous": false,
      "inputs": [
        {
          "indexed": true,
          "internalType": "bytes32",
          "name": "role",
          "type": "bytes32"
        },
        {
          "indexed": true,
          "internalType": "address",
          "name": "account",
          "type": "address"
        },
        {
          "indexed": true,
          "internalType": "address",
          "name": "sender",
          "type": "address"
        }
      ],
      "name": "RoleGranted",
      "type": "event"
    },
    {
      "anonymous": false,
      "inputs": [
        {
          "indexed": true,
          "internalType": "bytes32",
          "name": "role",
          "type": "bytes32"
        },
        {
          "indexed": true,
          "internalType": "address",
          "name": "account",
          "type": "address"
        },
        {
          "indexed": true,
          "internalType": "address",
          "name": "sender",
          "type": "address"
        }
      ],
      "name": "RoleRevoked",
      "type": "event"
    },
    {
      "anonymous": false,
      "inputs": [
        {
          "indexed": false,
          "internalType": "address",
          "name": "oldSymmioContractAddress",
          "type": "address"
        },
        {
          "indexed": false,
          "internalType": "address",
          "name": "newSymmioContractAddress",
          "type": "address"
        }
      ],
      "name": "SetSymmioAddress",
      "type": "event"
    },
    {
      "inputs": [],
      "name": "DEFAULT_ADMIN_ROLE",
      "outputs": [
        {
          "internalType": "bytes32",
          "name": "",
          "type": "bytes32"
        }
      ],
      "stateMutability": "view",
      "type": "function"
    },
    {
      "inputs": [],
      "name": "MULTIACCOUNT_ROLE",
      "outputs": [
        {
          "internalType": "bytes32",
          "name": "",
          "type": "bytes32"
        }
      ],
      "stateMutability": "view",
      "type": "function"
    },
    {
      "inputs": [
        {
          "internalType": "bytes",
          "name": "_callData",
          "type": "bytes"
        }
      ],
      "name": "_call",
      "outputs": [
        {
          "internalType": "bool",
          "name": "_success",
          "type": "bool"
        },
        {
          "internalType": "bytes",
          "name": "_resultData",
          "type": "bytes"
        }
      ],
      "stateMutability": "nonpayable",
      "type": "function"
    },
    {
      "inputs": [
        {
          "internalType": "bytes32",
          "name": "role",
          "type": "bytes32"
        }
      ],
      "name": "getRoleAdmin",
      "outputs": [
        {
          "internalType": "bytes32",
          "name": "",
          "type": "bytes32"
        }
      ],
      "stateMutability": "view",
      "type": "function"
    },
    {
      "inputs": [
        {
          "internalType": "bytes32",
          "name": "role",
          "type": "bytes32"
        },
        {
          "internalType": "address",
          "name": "account",
          "type": "address"
        }
      ],
      "name": "grantRole",
      "outputs": [],
      "stateMutability": "nonpayable",
      "type": "function"
    },
    {
      "inputs": [
        {
          "internalType": "bytes32",
          "name": "role",
          "type": "bytes32"
        },
        {
          "internalType": "address",
          "name": "account",
          "type": "address"
        }
      ],
      "name": "hasRole",
      "outputs": [
        {
          "internalType": "bool",
          "name": "",
          "type": "bool"
        }
      ],
      "stateMutability": "view",
      "type": "function"
    },
    {
      "inputs": [
        {
          "internalType": "bytes32",
          "name": "role",
          "type": "bytes32"
        },
        {
          "internalType": "address",
          "name": "account",
          "type": "address"
        }
      ],
      "name": "renounceRole",
      "outputs": [],
      "stateMutability": "nonpayable",
      "type": "function"
    },
    {
      "inputs": [
        {
          "internalType": "bytes32",
          "name": "role",
          "type": "bytes32"
        },
        {
          "internalType": "address",
          "name": "account",
          "type": "address"
        }
      ],
      "name": "revokeRole",
      "outputs": [],
      "stateMutability": "nonpayable",
      "type": "function"
    },
    {
      "inputs": [
        {
          "internalType": "address",
          "name": "symmioAddress_",
          "type": "address"
        }
      ],
      "name": "setSymmioAddress",
      "outputs": [],
      "stateMutability": "nonpayable",
      "type": "function"
    },
    {
      "inputs": [
        {
          "internalType": "bytes4",
          "name": "interfaceId",
          "type": "bytes4"
        }
      ],
      "name": "supportsInterface",
      "outputs": [
        {
          "internalType": "bool",
          "name": "",
          "type": "bool"
        }
      ],
      "stateMutability": "view",
      "type": "function"
    },
    {
      "inputs": [],
      "name": "symmioAddress",
      "outputs": [
        {
          "internalType": "address",
          "name": "",
          "type": "address"
        }
      ],
      "stateMutability": "view",
      "type": "function"
    }
  ],
  "bytecode": "0x608060405234801561001057600080fd5b50604051610da9380380610da983398101604081905261002f91610147565b61003a60008461008c565b6100647febee9ae4283d502e7ed608f7bff6281dc40560c705aa66f8f31324862ed03f5a8361008c565b600180546001600160a01b0319166001600160a01b03929092169190911790555061018a9050565b6000828152602081815260408083206001600160a01b038516845290915290205460ff16610127576000828152602081815260408083206001600160a01b03851684529091529020805460ff191660011790556100e63390565b6001600160a01b0316816001600160a01b0316837f2f8788117e7eff1d82e926ec794901d17c78024a50270940304540a733656f0d60405160405180910390a45b5050565b80516001600160a01b038116811461014257600080fd5b919050565b60008060006060848603121561015c57600080fd5b6101658461012b565b92506101736020850161012b565b91506101816040850161012b565b90509250925092565b610c10806101996000396000f3fe608060405234801561001057600080fd5b50600436106100c95760003560e01c806359f6d3921161008157806391d148541161005b57806391d14854146101d5578063a217fddf1461020c578063d547741f1461021457600080fd5b806359f6d3921461016257806362dfbb2e146101895780637278b28f146101aa57600080fd5b8063248a9ca3116100b2578063248a9ca31461010b5780632f2ff15d1461013c57806336568abe1461014f57600080fd5b806301569e3a146100ce57806301ffc9a7146100e3575b600080fd5b6100e16100dc3660046108c3565b610227565b005b6100f66100f13660046108de565b6102b4565b60405190151581526020015b60405180910390f35b61012e610119366004610920565b60009081526020819052604090206001015490565b604051908152602001610102565b6100e161014a366004610939565b61034d565b6100e161015d366004610939565b610377565b61012e7febee9ae4283d502e7ed608f7bff6281dc40560c705aa66f8f31324862ed03f5a81565b61019c61019736600461097b565b610408565b604051610102929190610a7c565b6001546101bd906001600160a01b031681565b6040516001600160a01b039091168152602001610102565b6100f66101e3366004610939565b6000918252602082815260408084206001600160a01b0393909316845291905290205460ff1690565b61012e600081565b6100e1610222366004610939565b6104a3565b6000610232816104c8565b600154604080516001600160a01b03928316815291841660208301527ff78ccdf5924090b2ab6627ac5da4ec5affed73d47c6bc6c8a4620a0d5ed57bc8910160405180910390a150600180547fffffffffffffffffffffffff0000000000000000000000000000000000000000166001600160a01b0392909216919091179055565b60007fffffffff0000000000000000000000000000000000000000000000000000000082167f7965db0b00000000000000000000000000000000000000000000000000000000148061034757507f01ffc9a7000000000000000000000000000000000000000000000000000000007fffffffff000000000000000000000000000000000000000000000000000000008316145b92915050565b600082815260208190526040902060010154610368816104c8565b61037283836104d5565b505050565b6001600160a01b03811633146103fa5760405162461bcd60e51b815260206004820152602f60248201527f416363657373436f6e74726f6c3a2063616e206f6e6c792072656e6f756e636560448201527f20726f6c657320666f722073656c66000000000000000000000000000000000060648201526084015b60405180910390fd5b6104048282610573565b5050565b600060607febee9ae4283d502e7ed608f7bff6281dc40560c705aa66f8f31324862ed03f5a610436816104c8565b6001546040516001600160a01b0390911690600090610456908790610a9f565b60006040518083038185875af1925050503d8060008114610493576040519150601f19603f3d011682016040523d82523d6000602084013e610498565b606091505b509250925050915091565b6000828152602081905260409020600101546104be816104c8565b6103728383610573565b6104d281336105f2565b50565b6000828152602081815260408083206001600160a01b038516845290915290205460ff16610404576000828152602081815260408083206001600160a01b03851684529091529020805460ff1916600117905561052f3390565b6001600160a01b0316816001600160a01b0316837f2f8788117e7eff1d82e926ec794901d17c78024a50270940304540a733656f0d60405160405180910390a45050565b6000828152602081815260408083206001600160a01b038516845290915290205460ff1615610404576000828152602081815260408083206001600160a01b0385168085529252808320805460ff1916905551339285917ff6391f5c32d9c69d2a47ea670b442974b53935d1edc7fd64eb21e047a839171b9190a45050565b6000828152602081815260408083206001600160a01b038516845290915290205460ff166104045761062381610665565b61062e836020610677565b60405160200161063f929190610abb565b60408051601f198184030181529082905262461bcd60e51b82526103f191600401610b3c565b60606103476001600160a01b03831660145b60606000610686836002610b65565b610691906002610b7c565b67ffffffffffffffff8111156106a9576106a9610965565b6040519080825280601f01601f1916602001820160405280156106d3576020820181803683370190505b5090507f30000000000000000000000000000000000000000000000000000000000000008160008151811061070a5761070a610b8f565b60200101907effffffffffffffffffffffffffffffffffffffffffffffffffffffffffffff1916908160001a9053507f78000000000000000000000000000000000000000000000000000000000000008160018151811061076d5761076d610b8f565b60200101907effffffffffffffffffffffffffffffffffffffffffffffffffffffffffffff1916908160001a90535060006107a9846002610b65565b6107b4906001610b7c565b90505b6001811115610851577f303132333435363738396162636465660000000000000000000000000000000085600f16601081106107f5576107f5610b8f565b1a60f81b82828151811061080b5761080b610b8f565b60200101907effffffffffffffffffffffffffffffffffffffffffffffffffffffffffffff1916908160001a90535060049490941c9361084a81610ba5565b90506107b7565b5083156108a05760405162461bcd60e51b815260206004820181905260248201527f537472696e67733a20686578206c656e67746820696e73756666696369656e7460448201526064016103f1565b9392505050565b80356001600160a01b03811681146108be57600080fd5b919050565b6000602082840312156108d557600080fd5b6108a0826108a7565b6000602082840312156108f057600080fd5b81357fffffffff00000000000000000000000000000000000000000000000000000000811681146108a057600080fd5b60006020828403121561093257600080fd5b5035919050565b6000806040838503121561094c57600080fd5b8235915061095c602084016108a7565b90509250929050565b634e487b7160e01b600052604160045260246000fd5b60006020828403121561098d57600080fd5b813567ffffffffffffffff808211156109a557600080fd5b818401915084601f8301126109b957600080fd5b8135818111156109cb576109cb610965565b604051601f8201601f19908116603f011681019083821181831017156109f3576109f3610965565b81604052828152876020848701011115610a0c57600080fd5b826020860160208301376000928101602001929092525095945050505050565b60005b83811015610a47578181015183820152602001610a2f565b50506000910152565b60008151808452610a68816020860160208601610a2c565b601f01601f19169290920160200192915050565b8215158152604060208201526000610a976040830184610a50565b949350505050565b60008251610ab1818460208701610a2c565b9190910192915050565b7f416363657373436f6e74726f6c3a206163636f756e7420000000000000000000815260008351610af3816017850160208801610a2c565b7f206973206d697373696e6720726f6c65200000000000000000000000000000006017918401918201528351610b30816028840160208801610a2c565b01602801949350505050565b6020815260006108a06020830184610a50565b634e487b7160e01b600052601160045260246000fd5b808202811582820484141761034757610347610b4f565b8082018082111561034757610347610b4f565b634e487b7160e01b600052603260045260246000fd5b600081610bb457610bb4610b4f565b507fffffffffffffffffffffffffffffffffffffffffffffffffffffffffffffffff019056fea26469706673582212208d08889fd00da62fd618150b36d0508dea0ace78e2932eb59d2a5dfbd570374c64736f6c63430008120033",
  "linkReferences": {},
  "deployedLinkReferences": {}
}