{
  "_format": "hh-sol-artifact-1",
  "contractName": "SymmioPartyA",
  "sourceName": "contracts/SymmioPartyA.sol",
  "abi": [
    {
      "inputs": [
        {
          "internalType": "address",
          "name": "admin",
          "type": "address"
        },
        {
          "internalType": "address",
          "name": "multiAccountAddress",
          "type": "address"
        },
        {
          "internalType": "address",
          "name": "symmioAddress_",
          "type": "address"
        }
      ],
      "stateMutability": "nonpayable",
      "type": "constructor"
    },
    {
      "inputs": [],
      "name": "AccessControlBadConfirmation",
      "type": "error"
    },
    {
      "inputs": [
        {
          "internalType": "address",
          "name": "account",
          "type": "address"
        },
        {
          "internalType": "bytes32",
          "name": "neededRole",
          "type": "bytes32"
        }
      ],
      "name": "AccessControlUnauthorizedAccount",
      "type": "error"
    },
    {
      "anonymous": false,
      "inputs": [
        {
          "indexed": true,
          "internalType": "bytes32",
          "name": "role",
          "type": "bytes32"
        },
        {
          "indexed": true,
          "internalType": "bytes32",
          "name": "previousAdminRole",
          "type": "bytes32"
        },
        {
          "indexed": true,
          "internalType": "bytes32",
          "name": "newAdminRole",
          "type": "bytes32"
        }
      ],
      "name": "RoleAdminChanged",
      "type": "event"
    },
    {
      "anonymous": false,
      "inputs": [
        {
          "indexed": true,
          "internalType": "bytes32",
          "name": "role",
          "type": "bytes32"
        },
        {
          "indexed": true,
          "internalType": "address",
          "name": "account",
          "type": "address"
        },
        {
          "indexed": true,
          "internalType": "address",
          "name": "sender",
          "type": "address"
        }
      ],
      "name": "RoleGranted",
      "type": "event"
    },
    {
      "anonymous": false,
      "inputs": [
        {
          "indexed": true,
          "internalType": "bytes32",
          "name": "role",
          "type": "bytes32"
        },
        {
          "indexed": true,
          "internalType": "address",
          "name": "account",
          "type": "address"
        },
        {
          "indexed": true,
          "internalType": "address",
          "name": "sender",
          "type": "address"
        }
      ],
      "name": "RoleRevoked",
      "type": "event"
    },
    {
      "anonymous": false,
      "inputs": [
        {
          "indexed": false,
          "internalType": "address",
          "name": "oldSymmioContractAddress",
          "type": "address"
        },
        {
          "indexed": false,
          "internalType": "address",
          "name": "newSymmioContractAddress",
          "type": "address"
        }
      ],
      "name": "SetSymmioAddress",
      "type": "event"
    },
    {
      "inputs": [],
      "name": "DEFAULT_ADMIN_ROLE",
      "outputs": [
        {
          "internalType": "bytes32",
          "name": "",
          "type": "bytes32"
        }
      ],
      "stateMutability": "view",
      "type": "function"
    },
    {
      "inputs": [],
      "name": "MULTIACCOUNT_ROLE",
      "outputs": [
        {
          "internalType": "bytes32",
          "name": "",
          "type": "bytes32"
        }
      ],
      "stateMutability": "view",
      "type": "function"
    },
    {
      "inputs": [
        {
          "internalType": "bytes",
          "name": "_callData",
          "type": "bytes"
        }
      ],
      "name": "_call",
      "outputs": [
        {
          "internalType": "bool",
          "name": "_success",
          "type": "bool"
        },
        {
          "internalType": "bytes",
          "name": "_resultData",
          "type": "bytes"
        }
      ],
      "stateMutability": "nonpayable",
      "type": "function"
    },
    {
      "inputs": [
        {
          "internalType": "bytes32",
          "name": "role",
          "type": "bytes32"
        }
      ],
      "name": "getRoleAdmin",
      "outputs": [
        {
          "internalType": "bytes32",
          "name": "",
          "type": "bytes32"
        }
      ],
      "stateMutability": "view",
      "type": "function"
    },
    {
      "inputs": [
        {
          "internalType": "bytes32",
          "name": "role",
          "type": "bytes32"
        },
        {
          "internalType": "address",
          "name": "account",
          "type": "address"
        }
      ],
      "name": "grantRole",
      "outputs": [],
      "stateMutability": "nonpayable",
      "type": "function"
    },
    {
      "inputs": [
        {
          "internalType": "bytes32",
          "name": "role",
          "type": "bytes32"
        },
        {
          "internalType": "address",
          "name": "account",
          "type": "address"
        }
      ],
      "name": "hasRole",
      "outputs": [
        {
          "internalType": "bool",
          "name": "",
          "type": "bool"
        }
      ],
      "stateMutability": "view",
      "type": "function"
    },
    {
      "inputs": [
        {
          "internalType": "bytes32",
          "name": "role",
          "type": "bytes32"
        },
        {
          "internalType": "address",
          "name": "callerConfirmation",
          "type": "address"
        }
      ],
      "name": "renounceRole",
      "outputs": [],
      "stateMutability": "nonpayable",
      "type": "function"
    },
    {
      "inputs": [
        {
          "internalType": "bytes32",
          "name": "role",
          "type": "bytes32"
        },
        {
          "internalType": "address",
          "name": "account",
          "type": "address"
        }
      ],
      "name": "revokeRole",
      "outputs": [],
      "stateMutability": "nonpayable",
      "type": "function"
    },
    {
      "inputs": [
        {
          "internalType": "address",
          "name": "symmioAddress_",
          "type": "address"
        }
      ],
      "name": "setSymmioAddress",
      "outputs": [],
      "stateMutability": "nonpayable",
      "type": "function"
    },
    {
      "inputs": [
        {
          "internalType": "bytes4",
          "name": "interfaceId",
          "type": "bytes4"
        }
      ],
      "name": "supportsInterface",
      "outputs": [
        {
          "internalType": "bool",
          "name": "",
          "type": "bool"
        }
      ],
      "stateMutability": "view",
      "type": "function"
    },
    {
      "inputs": [],
      "name": "symmioAddress",
      "outputs": [
        {
          "internalType": "address",
          "name": "",
          "type": "address"
        }
      ],
      "stateMutability": "view",
      "type": "function"
    }
  ],
  "bytecode": "0x608060405234801561001057600080fd5b50604051610a3f380380610a3f83398101604081905261002f91610156565b61003a60008461008e565b506100657febee9ae4283d502e7ed608f7bff6281dc40560c705aa66f8f31324862ed03f5a8361008e565b50600180546001600160a01b0319166001600160a01b0392909216919091179055506101999050565b6000828152602081815260408083206001600160a01b038516845290915281205460ff16610130576000838152602081815260408083206001600160a01b03861684529091529020805460ff191660011790556100e83390565b6001600160a01b0316826001600160a01b0316847f2f8788117e7eff1d82e926ec794901d17c78024a50270940304540a733656f0d60405160405180910390a4506001610134565b5060005b92915050565b80516001600160a01b038116811461015157600080fd5b919050565b60008060006060848603121561016b57600080fd5b6101748461013a565b92506101826020850161013a565b91506101906040850161013a565b90509250925092565b610897806101a86000396000f3fe608060405234801561001057600080fd5b50600436106100c95760003560e01c806359f6d3921161008157806391d148541161005b57806391d14854146101d5578063a217fddf1461020c578063d547741f1461021457600080fd5b806359f6d3921461016257806362dfbb2e146101895780637278b28f146101aa57600080fd5b8063248a9ca3116100b2578063248a9ca31461010b5780632f2ff15d1461013c57806336568abe1461014f57600080fd5b806301569e3a146100ce57806301ffc9a7146100e3575b600080fd5b6100e16100dc366004610653565b610227565b005b6100f66100f1366004610675565b6102b4565b60405190151581526020015b60405180910390f35b61012e6101193660046106b7565b60009081526020819052604090206001015490565b604051908152602001610102565b6100e161014a3660046106d0565b61034d565b6100e161015d3660046106d0565b610378565b61012e7febee9ae4283d502e7ed608f7bff6281dc40560c705aa66f8f31324862ed03f5a81565b61019c61019736600461072b565b6103c9565b604051610102929190610809565b6001546101bd906001600160a01b031681565b6040516001600160a01b039091168152602001610102565b6100f66101e33660046106d0565b6000918252602082815260408084206001600160a01b0393909316845291905290205460ff1690565b61012e600081565b6100e16102223660046106d0565b610464565b600061023281610489565b600154604080516001600160a01b03928316815291841660208301527ff78ccdf5924090b2ab6627ac5da4ec5affed73d47c6bc6c8a4620a0d5ed57bc8910160405180910390a150600180547fffffffffffffffffffffffff0000000000000000000000000000000000000000166001600160a01b0392909216919091179055565b60007fffffffff0000000000000000000000000000000000000000000000000000000082167f7965db0b00000000000000000000000000000000000000000000000000000000148061034757507f01ffc9a7000000000000000000000000000000000000000000000000000000007fffffffff000000000000000000000000000000000000000000000000000000008316145b92915050565b60008281526020819052604090206001015461036881610489565b6103728383610496565b50505050565b6001600160a01b03811633146103ba576040517f6697b23200000000000000000000000000000000000000000000000000000000815260040160405180910390fd5b6103c48282610540565b505050565b600060607febee9ae4283d502e7ed608f7bff6281dc40560c705aa66f8f31324862ed03f5a6103f781610489565b6001546040516001600160a01b0390911690600090610417908790610845565b60006040518083038185875af1925050503d8060008114610454576040519150601f19603f3d011682016040523d82523d6000602084013e610459565b606091505b509250925050915091565b60008281526020819052604090206001015461047f81610489565b6103728383610540565b61049381336105c3565b50565b6000828152602081815260408083206001600160a01b038516845290915281205460ff16610538576000838152602081815260408083206001600160a01b03861684529091529020805460ff191660011790556104f03390565b6001600160a01b0316826001600160a01b0316847f2f8788117e7eff1d82e926ec794901d17c78024a50270940304540a733656f0d60405160405180910390a4506001610347565b506000610347565b6000828152602081815260408083206001600160a01b038516845290915281205460ff1615610538576000838152602081815260408083206001600160a01b0386168085529252808320805460ff1916905551339286917ff6391f5c32d9c69d2a47ea670b442974b53935d1edc7fd64eb21e047a839171b9190a4506001610347565b6000828152602081815260408083206001600160a01b038516845290915290205460ff16610633576040517fe2517d3f0000000000000000000000000000000000000000000000000000000081526001600160a01b03821660048201526024810183905260440160405180910390fd5b5050565b80356001600160a01b038116811461064e57600080fd5b919050565b60006020828403121561066557600080fd5b61066e82610637565b9392505050565b60006020828403121561068757600080fd5b81357fffffffff000000000000000000000000000000000000000000000000000000008116811461066e57600080fd5b6000602082840312156106c957600080fd5b5035919050565b600080604083850312156106e357600080fd5b823591506106f360208401610637565b90509250929050565b7f4e487b7100000000000000000000000000000000000000000000000000000000600052604160045260246000fd5b60006020828403121561073d57600080fd5b813567ffffffffffffffff81111561075457600080fd5b8201601f8101841361076557600080fd5b803567ffffffffffffffff81111561077f5761077f6106fc565b604051601f19603f601f19601f8501160116810181811067ffffffffffffffff821117156107af576107af6106fc565b6040528181528282016020018610156107c757600080fd5b81602084016020830137600091810160200191909152949350505050565b60005b838110156108005781810151838201526020016107e8565b50506000910152565b821515815260406020820152600082518060408401526108308160608501602087016107e5565b601f01601f1916919091016060019392505050565b600082516108578184602087016107e5565b919091019291505056fea264697066735822122069cc2a60750d7a05d03c5d539d7566835fc4d4615b2f3c8000632607c5b416f764736f6c634300081c0033",
  "linkReferences": {},
  "deployedLinkReferences": {}
}