{
  "_format": "hh-sol-artifact-1",
  "contractName": "ICOClaimXINTX",
  "sourceName": "contracts/vestings/ICOClaimXINTX.sol",
  "abi": [
    {
      "inputs": [],
      "stateMutability": "nonpayable",
      "type": "constructor"
    },
    {
      "anonymous": false,
      "inputs": [
        {
          "indexed": true,
          "internalType": "address",
          "name": "user",
          "type": "address"
        },
        {
          "indexed": false,
          "internalType": "uint256",
          "name": "amount",
          "type": "uint256"
        },
        {
          "indexed": false,
          "internalType": "uint256",
          "name": "_tokenId",
          "type": "uint256"
        }
      ],
      "name": "Claimed",
      "type": "event"
    },
    {
      "anonymous": false,
      "inputs": [
        {
          "indexed": false,
          "internalType": "uint8",
          "name": "version",
          "type": "uint8"
        }
      ],
      "name": "Initialized",
      "type": "event"
    },
    {
      "anonymous": false,
      "inputs": [
        {
          "indexed": true,
          "internalType": "address",
          "name": "previousOwner",
          "type": "address"
        },
        {
          "indexed": true,
          "internalType": "address",
          "name": "newOwner",
          "type": "address"
        }
      ],
      "name": "OwnershipTransferStarted",
      "type": "event"
    },
    {
      "anonymous": false,
      "inputs": [
        {
          "indexed": true,
          "internalType": "address",
          "name": "previousOwner",
          "type": "address"
        },
        {
          "indexed": true,
          "internalType": "address",
          "name": "newOwner",
          "type": "address"
        }
      ],
      "name": "OwnershipTransferred",
      "type": "event"
    },
    {
      "anonymous": false,
      "inputs": [
        {
          "indexed": false,
          "internalType": "address",
          "name": "operator",
          "type": "address"
        },
        {
          "indexed": false,
          "internalType": "address[]",
          "name": "users",
          "type": "address[]"
        },
        {
          "indexed": false,
          "internalType": "uint256[]",
          "name": "amount",
          "type": "uint256[]"
        },
        {
          "indexed": false,
          "internalType": "uint256",
          "name": "totalAmount",
          "type": "uint256"
        }
      ],
      "name": "Seeded",
      "type": "event"
    },
    {
      "inputs": [],
      "name": "acceptOwnership",
      "outputs": [],
      "stateMutability": "nonpayable",
      "type": "function"
    },
    {
      "inputs": [],
      "name": "claim",
      "outputs": [],
      "stateMutability": "nonpayable",
      "type": "function"
    },
    {
      "inputs": [
        {
          "internalType": "address",
          "name": "",
          "type": "address"
        }
      ],
      "name": "claimableAmount",
      "outputs": [
        {
          "internalType": "uint256",
          "name": "",
          "type": "uint256"
        }
      ],
      "stateMutability": "view",
      "type": "function"
    },
    {
      "inputs": [
        {
          "internalType": "address",
          "name": "_user",
          "type": "address"
        }
      ],
      "name": "claimableNow",
      "outputs": [
        {
          "internalType": "uint256",
          "name": "toClaim",
          "type": "uint256"
        }
      ],
      "stateMutability": "view",
      "type": "function"
    },
    {
      "inputs": [
        {
          "internalType": "address",
          "name": "",
          "type": "address"
        }
      ],
      "name": "claimedAmount",
      "outputs": [
        {
          "internalType": "uint256",
          "name": "",
          "type": "uint256"
        }
      ],
      "stateMutability": "view",
      "type": "function"
    },
    {
      "inputs": [
        {
          "internalType": "address",
          "name": "_intx",
          "type": "address"
        },
        {
          "internalType": "address",
          "name": "_xIntx",
          "type": "address"
        }
      ],
      "name": "initialize",
      "outputs": [],
      "stateMutability": "nonpayable",
      "type": "function"
    },
    {
      "inputs": [],
      "name": "intx",
      "outputs": [
        {
          "internalType": "contract IERC20",
          "name": "",
          "type": "address"
        }
      ],
      "stateMutability": "view",
      "type": "function"
    },
    {
      "inputs": [],
      "name": "owner",
      "outputs": [
        {
          "internalType": "address",
          "name": "",
          "type": "address"
        }
      ],
      "stateMutability": "view",
      "type": "function"
    },
    {
      "inputs": [],
      "name": "pendingOwner",
      "outputs": [
        {
          "internalType": "address",
          "name": "",
          "type": "address"
        }
      ],
      "stateMutability": "view",
      "type": "function"
    },
    {
      "inputs": [],
      "name": "renounceOwnership",
      "outputs": [],
      "stateMutability": "nonpayable",
      "type": "function"
    },
    {
      "inputs": [
        {
          "internalType": "address[]",
          "name": "_receivers",
          "type": "address[]"
        },
        {
          "internalType": "uint256[]",
          "name": "_amounts",
          "type": "uint256[]"
        }
      ],
      "name": "setAllocations",
      "outputs": [],
      "stateMutability": "nonpayable",
      "type": "function"
    },
    {
      "inputs": [
        {
          "internalType": "address",
          "name": "newOwner",
          "type": "address"
        }
      ],
      "name": "transferOwnership",
      "outputs": [],
      "stateMutability": "nonpayable",
      "type": "function"
    },
    {
      "inputs": [],
      "name": "xIntx",
      "outputs": [
        {
          "internalType": "contract IStakedINTX",
          "name": "",
          "type": "address"
        }
      ],
      "stateMutability": "view",
      "type": "function"
    }
  ],
  "bytecode": "0x608060405234801561001057600080fd5b5061001961001e565b6100dd565b600054610100900460ff161561008a5760405162461bcd60e51b815260206004820152602760248201527f496e697469616c697a61626c653a20636f6e747261637420697320696e697469604482015266616c697a696e6760c81b606482015260840160405180910390fd5b60005460ff908116146100db576000805460ff191660ff9081179091556040519081527f7f26b83ff96e1f2b6a682f133852f6798a09c465da95921460cefb38474024989060200160405180910390a15b565b6112c3806100ec6000396000f3fe608060405234801561001057600080fd5b50600436106100df5760003560e01c8063715018a61161008c5780638da5cb5b116100665780638da5cb5b146101b55780639a78ea4a146101c6578063e30c3978146101d9578063f2fde38b146101ea57600080fd5b8063715018a61461018557806379ba50971461018d578063898850491461019557600080fd5b806346f7d6c9116100bd57806346f7d6c914610157578063485cc9551461016a5780634e71d92d1461017d57600080fd5b806304e86903146100e45780631ff64acd1461011757806327a7af891461012c575b600080fd5b6101046100f2366004610f4b565b60cc6020526000908152604090205481565b6040519081526020015b60405180910390f35b61012a610125366004610fb2565b6101fd565b005b60ca5461013f906001600160a01b031681565b6040516001600160a01b03909116815260200161010e565b60c95461013f906001600160a01b031681565b61012a61017836600461101e565b610332565b61012a610568565b61012a6107c6565b61012a6107ce565b6101046101a3366004610f4b565b60cb6020526000908152604090205481565b6065546001600160a01b031661013f565b6101046101d4366004610f4b565b61085c565b6097546001600160a01b031661013f565b61012a6101f8366004610f4b565b610891565b61020561090f565b60008382811461021457600080fd5b60005b818110156102d05784848281811061023157610231611051565b9050602002013560cb600089898581811061024e5761024e611051565b90506020020160208101906102639190610f4b565b6001600160a01b03166001600160a01b03168152602001908152602001600020600082825461029291906110af565b9091555085905084828181106102aa576102aa611051565b90506020020135836102bc91906110af565b9250806102c8816110c8565b915050610217565b506102e93360c9546001600160a01b0316903085610969565b7fce2f1e54279c24e5f841f2af4826cb958d82cbec9904631c271ea9f79c04975833878787878760405161032296959493929190611100565b60405180910390a1505050505050565b600054610100900460ff16158080156103525750600054600160ff909116105b8061036c5750303b15801561036c575060005460ff166001145b6103e35760405162461bcd60e51b815260206004820152602e60248201527f496e697469616c697a61626c653a20636f6e747261637420697320616c72656160448201527f647920696e697469616c697a656400000000000000000000000000000000000060648201526084015b60405180910390fd5b600080547fffffffffffffffffffffffffffffffffffffffffffffffffffffffffffffff001660011790558015610424576000805461ff0019166101001790555b61042c6109f7565b610434610a6a565b6001600160a01b03831661048a5760405162461bcd60e51b815260206004820152601460248201527f43616e277420757365203078206164647265737300000000000000000000000060448201526064016103da565b6001600160a01b0382166104e05760405162461bcd60e51b815260206004820152601460248201527f43616e277420757365203078206164647265737300000000000000000000000060448201526064016103da565b60c980546001600160a01b0380861673ffffffffffffffffffffffffffffffffffffffff199283161790925560ca8054928516929091169190911790558015610563576000805461ff0019169055604051600181527f7f26b83ff96e1f2b6a682f133852f6798a09c465da95921460cefb38474024989060200160405180910390a15b505050565b610570610add565b33600090815260cb602052604081205490036105f45760405162461bcd60e51b815260206004820152602e60248201527f54686973206164647265737320646f65736e2774206861766520616e7920616d60448201527f6f756e7420746f20636c61696d2e00000000000000000000000000000000000060648201526084016103da565b33600090815260cb602090815260408083205460cc90925282205490919061061c90836111ae565b905080156107b95733600090815260cc6020526040812080548392906106439084906110af565b909155505060c95460ca546040517f095ea7b30000000000000000000000000000000000000000000000000000000081526001600160a01b0391821660048201526024810184905291169063095ea7b3906044016020604051808303816000875af11580156106b6573d6000803e3d6000fd5b505050506040513d601f19601f820116820180604052508101906106da91906111c1565b5060ca546000906001600160a01b0316632ee40908336040517fffffffff0000000000000000000000000000000000000000000000000000000060e084901b1681526001600160a01b039091166004820152602481018590526044016020604051808303816000875af1158015610755573d6000803e3d6000fd5b505050506040513d601f19601f8201168201806040525081019061077991906111e3565b604080518481526020810183905291925033917f987d620f307ff6b94d58743cb7a7509f24071586a77759b77c2d4e29f75a2f9a910160405180910390a2505b50506107c460018055565b565b6107c461090f565b60975433906001600160a01b031681146108505760405162461bcd60e51b815260206004820152602960248201527f4f776e61626c6532537465703a2063616c6c6572206973206e6f74207468652060448201527f6e6577206f776e6572000000000000000000000000000000000000000000000060648201526084016103da565b61085981610b3c565b50565b6001600160a01b038116600090815260cb602090815260408083205460cc90925282205461088a90826111ae565b9392505050565b61089961090f565b609780546001600160a01b03831673ffffffffffffffffffffffffffffffffffffffff1990911681179091556108d76065546001600160a01b031690565b6001600160a01b03167f38d16b8cac22d99fc7c124b9cd0de2d3fa1faef420bfe791d8c362d765e2270060405160405180910390a350565b6065546001600160a01b031633146107c45760405162461bcd60e51b815260206004820181905260248201527f4f776e61626c653a2063616c6c6572206973206e6f7420746865206f776e657260448201526064016103da565b604080516001600160a01b0385811660248301528416604482015260648082018490528251808303909101815260849091019091526020810180517bffffffffffffffffffffffffffffffffffffffffffffffffffffffff167f23b872dd000000000000000000000000000000000000000000000000000000001790526109f1908590610b62565b50505050565b600054610100900460ff16610a625760405162461bcd60e51b815260206004820152602b60248201527f496e697469616c697a61626c653a20636f6e7472616374206973206e6f74206960448201526a6e697469616c697a696e6760a81b60648201526084016103da565b6107c4610c4a565b600054610100900460ff16610ad55760405162461bcd60e51b815260206004820152602b60248201527f496e697469616c697a61626c653a20636f6e7472616374206973206e6f74206960448201526a6e697469616c697a696e6760a81b60648201526084016103da565b6107c4610cb5565b600260015403610b2f5760405162461bcd60e51b815260206004820152601f60248201527f5265656e7472616e637947756172643a207265656e7472616e742063616c6c0060448201526064016103da565b6002600155565b60018055565b6097805473ffffffffffffffffffffffffffffffffffffffff1916905561085981610d29565b6000610bb7826040518060400160405280602081526020017f5361666545524332303a206c6f772d6c6576656c2063616c6c206661696c6564815250856001600160a01b0316610d889092919063ffffffff16565b9050805160001480610bd8575080806020019051810190610bd891906111c1565b6105635760405162461bcd60e51b815260206004820152602a60248201527f5361666545524332303a204552433230206f7065726174696f6e20646964206e60448201527f6f7420737563636565640000000000000000000000000000000000000000000060648201526084016103da565b600054610100900460ff16610b365760405162461bcd60e51b815260206004820152602b60248201527f496e697469616c697a61626c653a20636f6e7472616374206973206e6f74206960448201526a6e697469616c697a696e6760a81b60648201526084016103da565b600054610100900460ff16610d205760405162461bcd60e51b815260206004820152602b60248201527f496e697469616c697a61626c653a20636f6e7472616374206973206e6f74206960448201526a6e697469616c697a696e6760a81b60648201526084016103da565b6107c433610b3c565b606580546001600160a01b0383811673ffffffffffffffffffffffffffffffffffffffff19831681179093556040519116919082907f8be0079c531659141344cd1fd0a4f28419497f9722a3daafe3b4186f6b6457e090600090a35050565b6060610d978484600085610d9f565b949350505050565b606082471015610e175760405162461bcd60e51b815260206004820152602660248201527f416464726573733a20696e73756666696369656e742062616c616e636520666f60448201527f722063616c6c000000000000000000000000000000000000000000000000000060648201526084016103da565b600080866001600160a01b03168587604051610e339190611220565b60006040518083038185875af1925050503d8060008114610e70576040519150601f19603f3d011682016040523d82523d6000602084013e610e75565b606091505b5091509150610e8687838387610e91565b979650505050505050565b60608315610f00578251600003610ef9576001600160a01b0385163b610ef95760405162461bcd60e51b815260206004820152601d60248201527f416464726573733a2063616c6c20746f206e6f6e2d636f6e747261637400000060448201526064016103da565b5081610d97565b610d978383815115610f155781518083602001fd5b8060405162461bcd60e51b81526004016103da919061123c565b80356001600160a01b0381168114610f4657600080fd5b919050565b600060208284031215610f5d57600080fd5b61088a82610f2f565b60008083601f840112610f7857600080fd5b50813567ffffffffffffffff811115610f9057600080fd5b6020830191508360208260051b8501011115610fab57600080fd5b9250929050565b60008060008060408587031215610fc857600080fd5b843567ffffffffffffffff80821115610fe057600080fd5b610fec88838901610f66565b9096509450602087013591508082111561100557600080fd5b5061101287828801610f66565b95989497509550505050565b6000806040838503121561103157600080fd5b61103a83610f2f565b915061104860208401610f2f565b90509250929050565b7f4e487b7100000000000000000000000000000000000000000000000000000000600052603260045260246000fd5b7f4e487b7100000000000000000000000000000000000000000000000000000000600052601160045260246000fd5b808201808211156110c2576110c2611080565b92915050565b60007fffffffffffffffffffffffffffffffffffffffffffffffffffffffffffffffff82036110f9576110f9611080565b5060010190565b6001600160a01b03878116825260806020808401829052908301879052600091889160a08501845b8a81101561114d578361113a86610f2f565b1682529382019390820190600101611128565b5085810360408701528781527f07ffffffffffffffffffffffffffffffffffffffffffffffffffffffffffffff88111561118657600080fd5b8760051b93508389838301378184820101945050505050826060830152979650505050505050565b818103818111156110c2576110c2611080565b6000602082840312156111d357600080fd5b8151801515811461088a57600080fd5b6000602082840312156111f557600080fd5b5051919050565b60005b838110156112175781810151838201526020016111ff565b50506000910152565b600082516112328184602087016111fc565b9190910192915050565b602081526000825180602084015261125b8160408501602087016111fc565b601f017fffffffffffffffffffffffffffffffffffffffffffffffffffffffffffffffe016919091016040019291505056fea26469706673582212207c0bde3cd6b732468f8d8e06e4038e67e74410632bd6582fe9d950eec032b07564736f6c63430008120033",
  "linkReferences": {},
  "deployedLinkReferences": {}
}