{
  "_format": "hh-sol-artifact-1",
  "contractName": "ICOClaimXINTX",
  "sourceName": "contracts/vestings/ICOClaimXINTX.sol",
  "abi": [
    {
      "inputs": [],
      "stateMutability": "nonpayable",
      "type": "constructor"
    },
    {
      "anonymous": false,
      "inputs": [
        {
          "indexed": true,
          "internalType": "address",
          "name": "user",
          "type": "address"
        },
        {
          "indexed": false,
          "internalType": "uint256",
          "name": "amount",
          "type": "uint256"
        },
        {
          "indexed": false,
          "internalType": "uint256",
          "name": "_tokenId",
          "type": "uint256"
        }
      ],
      "name": "Claimed",
      "type": "event"
    },
    {
      "anonymous": false,
      "inputs": [
        {
          "indexed": false,
          "internalType": "uint8",
          "name": "version",
          "type": "uint8"
        }
      ],
      "name": "Initialized",
      "type": "event"
    },
    {
      "anonymous": false,
      "inputs": [
        {
          "indexed": true,
          "internalType": "address",
          "name": "previousOwner",
          "type": "address"
        },
        {
          "indexed": true,
          "internalType": "address",
          "name": "newOwner",
          "type": "address"
        }
      ],
      "name": "OwnershipTransferStarted",
      "type": "event"
    },
    {
      "anonymous": false,
      "inputs": [
        {
          "indexed": true,
          "internalType": "address",
          "name": "previousOwner",
          "type": "address"
        },
        {
          "indexed": true,
          "internalType": "address",
          "name": "newOwner",
          "type": "address"
        }
      ],
      "name": "OwnershipTransferred",
      "type": "event"
    },
    {
      "anonymous": false,
      "inputs": [
        {
          "indexed": false,
          "internalType": "address",
          "name": "operator",
          "type": "address"
        },
        {
          "indexed": false,
          "internalType": "address[]",
          "name": "users",
          "type": "address[]"
        },
        {
          "indexed": false,
          "internalType": "uint256[]",
          "name": "amount",
          "type": "uint256[]"
        },
        {
          "indexed": false,
          "internalType": "uint256",
          "name": "totalAmount",
          "type": "uint256"
        }
      ],
      "name": "Seeded",
      "type": "event"
    },
    {
      "inputs": [],
      "name": "FIRST_CLAIM_TS",
      "outputs": [
        {
          "internalType": "uint256",
          "name": "",
          "type": "uint256"
        }
      ],
      "stateMutability": "view",
      "type": "function"
    },
    {
      "inputs": [],
      "name": "acceptOwnership",
      "outputs": [],
      "stateMutability": "nonpayable",
      "type": "function"
    },
    {
      "inputs": [],
      "name": "claim",
      "outputs": [],
      "stateMutability": "nonpayable",
      "type": "function"
    },
    {
      "inputs": [
        {
          "internalType": "address",
          "name": "",
          "type": "address"
        }
      ],
      "name": "claimableAmount",
      "outputs": [
        {
          "internalType": "uint256",
          "name": "",
          "type": "uint256"
        }
      ],
      "stateMutability": "view",
      "type": "function"
    },
    {
      "inputs": [
        {
          "internalType": "address",
          "name": "_user",
          "type": "address"
        }
      ],
      "name": "claimableNow",
      "outputs": [
        {
          "internalType": "uint256",
          "name": "amountToReceive",
          "type": "uint256"
        }
      ],
      "stateMutability": "view",
      "type": "function"
    },
    {
      "inputs": [
        {
          "internalType": "address",
          "name": "_intx",
          "type": "address"
        },
        {
          "internalType": "address",
          "name": "_xIntx",
          "type": "address"
        },
        {
          "internalType": "uint256",
          "name": "_firstClaimTs",
          "type": "uint256"
        }
      ],
      "name": "initialize",
      "outputs": [],
      "stateMutability": "nonpayable",
      "type": "function"
    },
    {
      "inputs": [],
      "name": "intx",
      "outputs": [
        {
          "internalType": "contract IERC20",
          "name": "",
          "type": "address"
        }
      ],
      "stateMutability": "view",
      "type": "function"
    },
    {
      "inputs": [],
      "name": "owner",
      "outputs": [
        {
          "internalType": "address",
          "name": "",
          "type": "address"
        }
      ],
      "stateMutability": "view",
      "type": "function"
    },
    {
      "inputs": [],
      "name": "pendingOwner",
      "outputs": [
        {
          "internalType": "address",
          "name": "",
          "type": "address"
        }
      ],
      "stateMutability": "view",
      "type": "function"
    },
    {
      "inputs": [],
      "name": "renounceOwnership",
      "outputs": [],
      "stateMutability": "nonpayable",
      "type": "function"
    },
    {
      "inputs": [
        {
          "internalType": "address[]",
          "name": "_receivers",
          "type": "address[]"
        },
        {
          "internalType": "uint256[]",
          "name": "_amounts",
          "type": "uint256[]"
        }
      ],
      "name": "setAllocations",
      "outputs": [],
      "stateMutability": "nonpayable",
      "type": "function"
    },
    {
      "inputs": [
        {
          "internalType": "address",
          "name": "newOwner",
          "type": "address"
        }
      ],
      "name": "transferOwnership",
      "outputs": [],
      "stateMutability": "nonpayable",
      "type": "function"
    },
    {
      "inputs": [],
      "name": "xIntx",
      "outputs": [
        {
          "internalType": "contract IStakedINTX",
          "name": "",
          "type": "address"
        }
      ],
      "stateMutability": "view",
      "type": "function"
    }
  ],
  "bytecode": "0x608060405234801561001057600080fd5b5061001961001e565b6100dd565b600054610100900460ff161561008a5760405162461bcd60e51b815260206004820152602760248201527f496e697469616c697a61626c653a20636f6e747261637420697320696e697469604482015266616c697a696e6760c81b606482015260840160405180910390fd5b60005460ff908116146100db576000805460ff191660ff9081179091556040519081527f7f26b83ff96e1f2b6a682f133852f6798a09c465da95921460cefb38474024989060200160405180910390a15b565b611282806100ec6000396000f3fe608060405234801561001057600080fd5b50600436106100df5760003560e01c8063715018a61161008c5780638da5cb5b116100665780638da5cb5b1461019e5780639a78ea4a146101af578063e30c3978146101c2578063f2fde38b146101d357600080fd5b8063715018a61461016e57806379ba509714610176578063898850491461017e57600080fd5b8063439e2824116100bd578063439e28241461013c57806346f7d6c9146101535780634e71d92d1461016657600080fd5b80631794bb3c146100e45780631ff64acd146100f957806327a7af891461010c575b600080fd5b6100f76100f2366004610f0d565b6101e6565b005b6100f7610107366004610f95565b610422565b60cb5461011f906001600160a01b031681565b6040516001600160a01b0390911681526020015b60405180910390f35b61014560c95481565b604051908152602001610133565b60ca5461011f906001600160a01b031681565b6100f7610557565b6100f7610797565b6100f761079f565b61014561018c366004611001565b60cc6020526000908152604090205481565b6065546001600160a01b031661011f565b6101456101bd366004611001565b61082d565b6097546001600160a01b031661011f565b6100f76101e1366004611001565b610859565b600054610100900460ff16158080156102065750600054600160ff909116105b806102205750303b158015610220575060005460ff166001145b6102975760405162461bcd60e51b815260206004820152602e60248201527f496e697469616c697a61626c653a20636f6e747261637420697320616c72656160448201527f647920696e697469616c697a656400000000000000000000000000000000000060648201526084015b60405180910390fd5b600080547fffffffffffffffffffffffffffffffffffffffffffffffffffffffffffffff0016600117905580156102d8576000805461ff0019166101001790555b6102e06108d7565b6102e861094a565b6001600160a01b03841661033e5760405162461bcd60e51b815260206004820152601460248201527f43616e2774207573652030782061646472657373000000000000000000000000604482015260640161028e565b6001600160a01b0383166103945760405162461bcd60e51b815260206004820152601460248201527f43616e2774207573652030782061646472657373000000000000000000000000604482015260640161028e565b60ca80546001600160a01b0380871673ffffffffffffffffffffffffffffffffffffffff199283161790925560cb80549286169290911691909117905560c9829055801561041c576000805461ff0019169055604051600181527f7f26b83ff96e1f2b6a682f133852f6798a09c465da95921460cefb38474024989060200160405180910390a15b50505050565b61042a6109bd565b60008382811461043957600080fd5b60005b818110156104f55784848281811061045657610456611023565b9050602002013560cc600089898581811061047357610473611023565b90506020020160208101906104889190611001565b6001600160a01b03166001600160a01b0316815260200190815260200160002060008282546104b79190611081565b9091555085905084828181106104cf576104cf611023565b90506020020135836104e19190611081565b9250806104ed8161109a565b91505061043c565b5061050e3360ca546001600160a01b0316903085610a17565b7fce2f1e54279c24e5f841f2af4826cb958d82cbec9904631c271ea9f79c049758338787878787604051610547969594939291906110d2565b60405180910390a1505050505050565b61055f610a9f565b33600090815260cc602052604081205490036105e35760405162461bcd60e51b815260206004820152602e60248201527f54686973206164647265737320646f65736e2774206861766520616e7920616d60448201527f6f756e7420746f20636c61696d2e000000000000000000000000000000000000606482015260840161028e565b60004260c9541015610601575033600090815260cc60205260409020545b801561078b5760ca5460cb546040517f095ea7b30000000000000000000000000000000000000000000000000000000081526001600160a01b0391821660048201526024810184905291169063095ea7b3906044016020604051808303816000875af1158015610675573d6000803e3d6000fd5b505050506040513d601f19601f820116820180604052508101906106999190611180565b5060cb546000906001600160a01b0316632ee40908336040517fffffffff0000000000000000000000000000000000000000000000000000000060e084901b1681526001600160a01b039091166004820152602481018590526044016020604051808303816000875af1158015610714573d6000803e3d6000fd5b505050506040513d601f19601f8201168201806040525081019061073891906111a2565b33600081815260cc6020908152604080832092909255815186815290810184905292935090917f987d620f307ff6b94d58743cb7a7509f24071586a77759b77c2d4e29f75a2f9a910160405180910390a2505b5061079560018055565b565b6107956109bd565b60975433906001600160a01b031681146108215760405162461bcd60e51b815260206004820152602960248201527f4f776e61626c6532537465703a2063616c6c6572206973206e6f74207468652060448201527f6e6577206f776e65720000000000000000000000000000000000000000000000606482015260840161028e565b61082a81610afe565b50565b60004260c954101561085457506001600160a01b038116600090815260cc60205260409020545b919050565b6108616109bd565b609780546001600160a01b03831673ffffffffffffffffffffffffffffffffffffffff19909116811790915561089f6065546001600160a01b031690565b6001600160a01b03167f38d16b8cac22d99fc7c124b9cd0de2d3fa1faef420bfe791d8c362d765e2270060405160405180910390a350565b600054610100900460ff166109425760405162461bcd60e51b815260206004820152602b60248201527f496e697469616c697a61626c653a20636f6e7472616374206973206e6f74206960448201526a6e697469616c697a696e6760a81b606482015260840161028e565b610795610b24565b600054610100900460ff166109b55760405162461bcd60e51b815260206004820152602b60248201527f496e697469616c697a61626c653a20636f6e7472616374206973206e6f74206960448201526a6e697469616c697a696e6760a81b606482015260840161028e565b610795610b8f565b6065546001600160a01b031633146107955760405162461bcd60e51b815260206004820181905260248201527f4f776e61626c653a2063616c6c6572206973206e6f7420746865206f776e6572604482015260640161028e565b604080516001600160a01b0385811660248301528416604482015260648082018490528251808303909101815260849091019091526020810180517bffffffffffffffffffffffffffffffffffffffffffffffffffffffff167f23b872dd0000000000000000000000000000000000000000000000000000000017905261041c908590610c03565b600260015403610af15760405162461bcd60e51b815260206004820152601f60248201527f5265656e7472616e637947756172643a207265656e7472616e742063616c6c00604482015260640161028e565b6002600155565b60018055565b6097805473ffffffffffffffffffffffffffffffffffffffff1916905561082a81610cf0565b600054610100900460ff16610af85760405162461bcd60e51b815260206004820152602b60248201527f496e697469616c697a61626c653a20636f6e7472616374206973206e6f74206960448201526a6e697469616c697a696e6760a81b606482015260840161028e565b600054610100900460ff16610bfa5760405162461bcd60e51b815260206004820152602b60248201527f496e697469616c697a61626c653a20636f6e7472616374206973206e6f74206960448201526a6e697469616c697a696e6760a81b606482015260840161028e565b61079533610afe565b6000610c58826040518060400160405280602081526020017f5361666545524332303a206c6f772d6c6576656c2063616c6c206661696c6564815250856001600160a01b0316610d4f9092919063ffffffff16565b9050805160001480610c79575080806020019051810190610c799190611180565b610ceb5760405162461bcd60e51b815260206004820152602a60248201527f5361666545524332303a204552433230206f7065726174696f6e20646964206e60448201527f6f74207375636365656400000000000000000000000000000000000000000000606482015260840161028e565b505050565b606580546001600160a01b0383811673ffffffffffffffffffffffffffffffffffffffff19831681179093556040519116919082907f8be0079c531659141344cd1fd0a4f28419497f9722a3daafe3b4186f6b6457e090600090a35050565b6060610d5e8484600085610d66565b949350505050565b606082471015610dde5760405162461bcd60e51b815260206004820152602660248201527f416464726573733a20696e73756666696369656e742062616c616e636520666f60448201527f722063616c6c0000000000000000000000000000000000000000000000000000606482015260840161028e565b600080866001600160a01b03168587604051610dfa91906111df565b60006040518083038185875af1925050503d8060008114610e37576040519150601f19603f3d011682016040523d82523d6000602084013e610e3c565b606091505b5091509150610e4d87838387610e58565b979650505050505050565b60608315610ec7578251600003610ec0576001600160a01b0385163b610ec05760405162461bcd60e51b815260206004820152601d60248201527f416464726573733a2063616c6c20746f206e6f6e2d636f6e7472616374000000604482015260640161028e565b5081610d5e565b610d5e8383815115610edc5781518083602001fd5b8060405162461bcd60e51b815260040161028e91906111fb565b80356001600160a01b038116811461085457600080fd5b600080600060608486031215610f2257600080fd5b610f2b84610ef6565b9250610f3960208501610ef6565b9150604084013590509250925092565b60008083601f840112610f5b57600080fd5b50813567ffffffffffffffff811115610f7357600080fd5b6020830191508360208260051b8501011115610f8e57600080fd5b9250929050565b60008060008060408587031215610fab57600080fd5b843567ffffffffffffffff80821115610fc357600080fd5b610fcf88838901610f49565b90965094506020870135915080821115610fe857600080fd5b50610ff587828801610f49565b95989497509550505050565b60006020828403121561101357600080fd5b61101c82610ef6565b9392505050565b7f4e487b7100000000000000000000000000000000000000000000000000000000600052603260045260246000fd5b7f4e487b7100000000000000000000000000000000000000000000000000000000600052601160045260246000fd5b8082018082111561109457611094611052565b92915050565b60007fffffffffffffffffffffffffffffffffffffffffffffffffffffffffffffffff82036110cb576110cb611052565b5060010190565b6001600160a01b03878116825260806020808401829052908301879052600091889160a08501845b8a81101561111f578361110c86610ef6565b16825293820193908201906001016110fa565b5085810360408701528781527f07ffffffffffffffffffffffffffffffffffffffffffffffffffffffffffffff88111561115857600080fd5b8760051b93508389838301378184820101945050505050826060830152979650505050505050565b60006020828403121561119257600080fd5b8151801515811461101c57600080fd5b6000602082840312156111b457600080fd5b5051919050565b60005b838110156111d65781810151838201526020016111be565b50506000910152565b600082516111f18184602087016111bb565b9190910192915050565b602081526000825180602084015261121a8160408501602087016111bb565b601f017fffffffffffffffffffffffffffffffffffffffffffffffffffffffffffffffe016919091016040019291505056fea26469706673582212208c9ac4651657d73d11b32b0a7dde84edc5881e269259fe3f3ac2201ed824ae0064736f6c63430008120033",
  "linkReferences": {},
  "deployedLinkReferences": {}
}