{
  "_format": "hh-sol-artifact-1",
  "contractName": "TradingCompetitionClaim",
  "sourceName": "contracts/vestings/TradingCompetitionClaim.sol",
  "abi": [
    {
      "inputs": [],
      "stateMutability": "nonpayable",
      "type": "constructor"
    },
    {
      "anonymous": false,
      "inputs": [
        {
          "indexed": false,
          "internalType": "uint8",
          "name": "version",
          "type": "uint8"
        }
      ],
      "name": "Initialized",
      "type": "event"
    },
    {
      "anonymous": false,
      "inputs": [
        {
          "indexed": true,
          "internalType": "address",
          "name": "user",
          "type": "address"
        },
        {
          "indexed": false,
          "internalType": "uint256",
          "name": "amount",
          "type": "uint256"
        },
        {
          "indexed": false,
          "internalType": "uint256",
          "name": "_tokenId",
          "type": "uint256"
        }
      ],
      "name": "IntxClaimed",
      "type": "event"
    },
    {
      "anonymous": false,
      "inputs": [
        {
          "indexed": true,
          "internalType": "address",
          "name": "user",
          "type": "address"
        },
        {
          "indexed": false,
          "internalType": "uint256",
          "name": "amount",
          "type": "uint256"
        }
      ],
      "name": "MntClaimed",
      "type": "event"
    },
    {
      "anonymous": false,
      "inputs": [
        {
          "indexed": true,
          "internalType": "address",
          "name": "previousOwner",
          "type": "address"
        },
        {
          "indexed": true,
          "internalType": "address",
          "name": "newOwner",
          "type": "address"
        }
      ],
      "name": "OwnershipTransferStarted",
      "type": "event"
    },
    {
      "anonymous": false,
      "inputs": [
        {
          "indexed": true,
          "internalType": "address",
          "name": "previousOwner",
          "type": "address"
        },
        {
          "indexed": true,
          "internalType": "address",
          "name": "newOwner",
          "type": "address"
        }
      ],
      "name": "OwnershipTransferred",
      "type": "event"
    },
    {
      "anonymous": false,
      "inputs": [
        {
          "indexed": false,
          "internalType": "address",
          "name": "operator",
          "type": "address"
        },
        {
          "indexed": false,
          "internalType": "address[]",
          "name": "users",
          "type": "address[]"
        },
        {
          "indexed": false,
          "internalType": "uint256[]",
          "name": "mntAmount",
          "type": "uint256[]"
        },
        {
          "indexed": false,
          "internalType": "uint256[]",
          "name": "intxAmount",
          "type": "uint256[]"
        },
        {
          "indexed": false,
          "internalType": "uint256",
          "name": "totalAmountMnt",
          "type": "uint256"
        },
        {
          "indexed": false,
          "internalType": "uint256",
          "name": "totalAmountIntx",
          "type": "uint256"
        }
      ],
      "name": "Removed",
      "type": "event"
    },
    {
      "anonymous": false,
      "inputs": [
        {
          "indexed": false,
          "internalType": "address",
          "name": "operator",
          "type": "address"
        },
        {
          "indexed": false,
          "internalType": "address[]",
          "name": "users",
          "type": "address[]"
        },
        {
          "indexed": false,
          "internalType": "uint256[]",
          "name": "mntAmount",
          "type": "uint256[]"
        },
        {
          "indexed": false,
          "internalType": "uint256[]",
          "name": "intxAmount",
          "type": "uint256[]"
        },
        {
          "indexed": false,
          "internalType": "uint256",
          "name": "totalAmountMnt",
          "type": "uint256"
        },
        {
          "indexed": false,
          "internalType": "uint256",
          "name": "totalAmountIntx",
          "type": "uint256"
        }
      ],
      "name": "Seeded",
      "type": "event"
    },
    {
      "inputs": [],
      "name": "acceptOwnership",
      "outputs": [],
      "stateMutability": "nonpayable",
      "type": "function"
    },
    {
      "inputs": [],
      "name": "claim",
      "outputs": [],
      "stateMutability": "nonpayable",
      "type": "function"
    },
    {
      "inputs": [
        {
          "internalType": "address",
          "name": "_user",
          "type": "address"
        }
      ],
      "name": "claimableNow",
      "outputs": [
        {
          "internalType": "uint256",
          "name": "_mntToClaim",
          "type": "uint256"
        },
        {
          "internalType": "uint256",
          "name": "_intxToClaim",
          "type": "uint256"
        }
      ],
      "stateMutability": "view",
      "type": "function"
    },
    {
      "inputs": [
        {
          "internalType": "address",
          "name": "_intx",
          "type": "address"
        },
        {
          "internalType": "address",
          "name": "_xIntx",
          "type": "address"
        }
      ],
      "name": "initialize",
      "outputs": [],
      "stateMutability": "nonpayable",
      "type": "function"
    },
    {
      "inputs": [],
      "name": "intx",
      "outputs": [
        {
          "internalType": "contract IERC20",
          "name": "",
          "type": "address"
        }
      ],
      "stateMutability": "view",
      "type": "function"
    },
    {
      "inputs": [
        {
          "internalType": "address",
          "name": "",
          "type": "address"
        }
      ],
      "name": "intxClaimableAmount",
      "outputs": [
        {
          "internalType": "uint256",
          "name": "",
          "type": "uint256"
        }
      ],
      "stateMutability": "view",
      "type": "function"
    },
    {
      "inputs": [
        {
          "internalType": "address",
          "name": "",
          "type": "address"
        }
      ],
      "name": "intxClaimedAmount",
      "outputs": [
        {
          "internalType": "uint256",
          "name": "",
          "type": "uint256"
        }
      ],
      "stateMutability": "view",
      "type": "function"
    },
    {
      "inputs": [
        {
          "internalType": "address",
          "name": "",
          "type": "address"
        }
      ],
      "name": "mntClaimableAmount",
      "outputs": [
        {
          "internalType": "uint256",
          "name": "",
          "type": "uint256"
        }
      ],
      "stateMutability": "view",
      "type": "function"
    },
    {
      "inputs": [
        {
          "internalType": "address",
          "name": "",
          "type": "address"
        }
      ],
      "name": "mntClaimedAmount",
      "outputs": [
        {
          "internalType": "uint256",
          "name": "",
          "type": "uint256"
        }
      ],
      "stateMutability": "view",
      "type": "function"
    },
    {
      "inputs": [],
      "name": "owner",
      "outputs": [
        {
          "internalType": "address",
          "name": "",
          "type": "address"
        }
      ],
      "stateMutability": "view",
      "type": "function"
    },
    {
      "inputs": [],
      "name": "pendingOwner",
      "outputs": [
        {
          "internalType": "address",
          "name": "",
          "type": "address"
        }
      ],
      "stateMutability": "view",
      "type": "function"
    },
    {
      "inputs": [
        {
          "internalType": "address[]",
          "name": "_receivers",
          "type": "address[]"
        },
        {
          "internalType": "uint256[]",
          "name": "_mntAmounts",
          "type": "uint256[]"
        },
        {
          "internalType": "uint256[]",
          "name": "_intxAmounts",
          "type": "uint256[]"
        }
      ],
      "name": "removeAllocations",
      "outputs": [],
      "stateMutability": "nonpayable",
      "type": "function"
    },
    {
      "inputs": [],
      "name": "renounceOwnership",
      "outputs": [],
      "stateMutability": "nonpayable",
      "type": "function"
    },
    {
      "inputs": [
        {
          "internalType": "address[]",
          "name": "_receivers",
          "type": "address[]"
        },
        {
          "internalType": "uint256[]",
          "name": "_mntAmounts",
          "type": "uint256[]"
        },
        {
          "internalType": "uint256[]",
          "name": "_intxAmounts",
          "type": "uint256[]"
        }
      ],
      "name": "setAllocations",
      "outputs": [],
      "stateMutability": "payable",
      "type": "function"
    },
    {
      "inputs": [
        {
          "internalType": "address",
          "name": "newOwner",
          "type": "address"
        }
      ],
      "name": "transferOwnership",
      "outputs": [],
      "stateMutability": "nonpayable",
      "type": "function"
    },
    {
      "inputs": [],
      "name": "xIntx",
      "outputs": [
        {
          "internalType": "contract IStakedINTX",
          "name": "",
          "type": "address"
        }
      ],
      "stateMutability": "view",
      "type": "function"
    }
  ],
  "bytecode": "0x608060405234801561001057600080fd5b5061001961001e565b6100dd565b600054610100900460ff161561008a5760405162461bcd60e51b815260206004820152602760248201527f496e697469616c697a61626c653a20636f6e747261637420697320696e697469604482015266616c697a696e6760c81b606482015260840160405180910390fd5b60005460ff908116146100db576000805460ff191660ff9081179091556040519081527f7f26b83ff96e1f2b6a682f133852f6798a09c465da95921460cefb38474024989060200160405180910390a15b565b6119a4806100ec6000396000f3fe6080604052600436106100f35760003560e01c8063715018a61161008a578063be4d600811610059578063be4d6008146102b1578063d2f55334146102d1578063e30c3978146102fe578063f2fde38b1461031c57600080fd5b8063715018a61461023457806379ba5097146102495780638da5cb5b1461025e5780639a78ea4a1461027c57600080fd5b806346f7d6c9116100c657806346f7d6c9146101b2578063485cc955146101d25780634e71d92d146101f25780635c9952001461020757600080fd5b80630ba1fb65146100f8578063182a89e61461013857806327a7af891461014d5780633bade75a14610185575b600080fd5b34801561010457600080fd5b506101256101133660046115e6565b60cd6020526000908152604090205481565b6040519081526020015b60405180910390f35b61014b610146366004611654565b61033c565b005b34801561015957600080fd5b5060ca5461016d906001600160a01b031681565b6040516001600160a01b03909116815260200161012f565b34801561019157600080fd5b506101256101a03660046115e6565b60cc6020526000908152604090205481565b3480156101be57600080fd5b5060c95461016d906001600160a01b031681565b3480156101de57600080fd5b5061014b6101ed3660046116ee565b61057b565b3480156101fe57600080fd5b5061014b6107ac565b34801561021357600080fd5b506101256102223660046115e6565b60ce6020526000908152604090205481565b34801561024057600080fd5b5061014b610bd1565b34801561025557600080fd5b5061014b610bd9565b34801561026a57600080fd5b506065546001600160a01b031661016d565b34801561028857600080fd5b5061029c6102973660046115e6565b610c67565b6040805192835260208301919091520161012f565b3480156102bd57600080fd5b5061014b6102cc366004611654565b610cce565b3480156102dd57600080fd5b506101256102ec3660046115e6565b60cb6020526000908152604090205481565b34801561030a57600080fd5b506097546001600160a01b031661016d565b34801561032857600080fd5b5061014b6103373660046115e6565b610eba565b610344610f38565b6000808685811461035457600080fd5b80841461036057600080fd5b60005b818110156104bb5787878281811061037d5761037d611721565b9050602002013560cb60008c8c8581811061039a5761039a611721565b90506020020160208101906103af91906115e6565b6001600160a01b03166001600160a01b0316815260200190815260200160002060008282546103de919061177f565b9091555086905085828181106103f6576103f6611721565b9050602002013560cd60008c8c8581811061041357610413611721565b905060200201602081019061042891906115e6565b6001600160a01b03166001600160a01b031681526020019081526020016000206000828254610457919061177f565b90915550889050878281811061046f5761046f611721565b9050602002013584610481919061177f565b935085858281811061049557610495611721565b90506020020135836104a7919061177f565b9250806104b381611798565b915050610363565b508234146105105760405162461bcd60e51b815260206004820152601760248201527f4e6f7420656e6f756768204d4e542070726f766964656400000000000000000060448201526064015b60405180910390fd5b6105283360c9546001600160a01b0316903085610f92565b7fc1d824840f0a134b23f0b6a94f68f3da3c7cdd48dd4c59f4f0ef10571f1bf5aa335b8a8a8a8a8a8a8a8a6040516105689998979695949392919061181b565b60405180910390a1505050505050505050565b600054610100900460ff161580801561059b5750600054600160ff909116105b806105b55750303b1580156105b5575060005460ff166001145b6106275760405162461bcd60e51b815260206004820152602e60248201527f496e697469616c697a61626c653a20636f6e747261637420697320616c72656160448201527f647920696e697469616c697a65640000000000000000000000000000000000006064820152608401610507565b600080547fffffffffffffffffffffffffffffffffffffffffffffffffffffffffffffff001660011790558015610668576000805461ff0019166101001790555b610670611049565b6106786110bc565b6001600160a01b0383166106ce5760405162461bcd60e51b815260206004820152601460248201527f43616e27742075736520307820616464726573730000000000000000000000006044820152606401610507565b6001600160a01b0382166107245760405162461bcd60e51b815260206004820152601460248201527f43616e27742075736520307820616464726573730000000000000000000000006044820152606401610507565b60c980546001600160a01b0380861673ffffffffffffffffffffffffffffffffffffffff199283161790925560ca80549285169290911691909117905580156107a7576000805461ff0019169055604051600181527f7f26b83ff96e1f2b6a682f133852f6798a09c465da95921460cefb38474024989060200160405180910390a15b505050565b6107b461112f565b33600090815260cb60205260409020541515806107df575033600090815260cd602052604090205415155b6108515760405162461bcd60e51b815260206004820152602e60248201527f54686973206164647265737320646f65736e2774206861766520616e7920616d60448201527f6f756e7420746f20636c61696d2e0000000000000000000000000000000000006064820152608401610507565b33600090815260cb602090815260408083205460cc909252909120541080610892575033600090815260cd602090815260408083205460ce90925290912054105b6109045760405162461bcd60e51b815260206004820152602c60248201527f596f75206861766520616c726561647920636c61696d656420616c6c20796f7560448201527f7220616c6c6f636174696f6e00000000000000000000000000000000000000006064820152608401610507565b33600090815260cc602090815260408083205460cb90925282205461092991906118ad565b33600090815260ce602090815260408083205460cd909252822054929350909161095391906118ad565b33600090815260cc602052604081208054929350849290919061097790849061177f565b909155505033600090815260ce60205260408120805483929061099b90849061177f565b90915550508115610a4d576040513390600090829085156108fc0290869084818181858888f19350505050905080610a155760405162461bcd60e51b815260206004820152600f60248201527f5472616e73666572206661696c656400000000000000000000000000000000006044820152606401610507565b60405184815233907f5b57ac54b094423fe5d860171dd3044c3478e158f0f2be3a298a29d9d5074ad69060200160405180910390a250505b8015610bc45760c95460ca546040517f095ea7b30000000000000000000000000000000000000000000000000000000081526001600160a01b0391821660048201526024810184905291169063095ea7b3906044016020604051808303816000875af1158015610ac1573d6000803e3d6000fd5b505050506040513d601f19601f82011682018060405250810190610ae591906118c0565b5060ca546000906001600160a01b0316632ee40908336040517fffffffff0000000000000000000000000000000000000000000000000000000060e084901b1681526001600160a01b039091166004820152602481018590526044016020604051808303816000875af1158015610b60573d6000803e3d6000fd5b505050506040513d601f19601f82011682018060405250810190610b8491906118e2565b604080518481526020810183905291925033917f54bf3421bf47e5a2daad7a67b1e822c60a8df644a3a520c74ce3d54b10c19645910160405180910390a2505b5050610bcf60018055565b565b610bcf610f38565b60975433906001600160a01b03168114610c5b5760405162461bcd60e51b815260206004820152602960248201527f4f776e61626c6532537465703a2063616c6c6572206973206e6f74207468652060448201527f6e6577206f776e657200000000000000000000000000000000000000000000006064820152608401610507565b610c648161118e565b50565b6001600160a01b038116600090815260cc602090815260408083205460cb9092528220548291610c96916118ad565b6001600160a01b038416600090815260ce602090815260408083205460cd90925290912054919350610cc7916118ad565b9050915091565b610cd6610f38565b60008086858114610ce657600080fd5b808414610cf257600080fd5b60005b81811015610e4d57878782818110610d0f57610d0f611721565b9050602002013560cb60008c8c85818110610d2c57610d2c611721565b9050602002016020810190610d4191906115e6565b6001600160a01b03166001600160a01b031681526020019081526020016000206000828254610d7091906118ad565b909155508690508582818110610d8857610d88611721565b9050602002013560cd60008c8c85818110610da557610da5611721565b9050602002016020810190610dba91906115e6565b6001600160a01b03166001600160a01b031681526020019081526020016000206000828254610de991906118ad565b909155508890508782818110610e0157610e01611721565b9050602002013584610e13919061177f565b9350858582818110610e2757610e27611721565b9050602002013583610e39919061177f565b925080610e4581611798565b915050610cf5565b50604051339084156108fc029085906000818181858888f19350505050158015610e7b573d6000803e3d6000fd5b50610e933360c9546001600160a01b031690846111b4565b7fed88ecf66415378ed3577e53e0a527304b3bc22b2895d6036c9d15d8724fcbf43361054b565b610ec2610f38565b609780546001600160a01b03831673ffffffffffffffffffffffffffffffffffffffff199091168117909155610f006065546001600160a01b031690565b6001600160a01b03167f38d16b8cac22d99fc7c124b9cd0de2d3fa1faef420bfe791d8c362d765e2270060405160405180910390a350565b6065546001600160a01b03163314610bcf5760405162461bcd60e51b815260206004820181905260248201527f4f776e61626c653a2063616c6c6572206973206e6f7420746865206f776e65726044820152606401610507565b6040516001600160a01b03808516602483015283166044820152606481018290526110439085907f23b872dd00000000000000000000000000000000000000000000000000000000906084015b60408051601f198184030181529190526020810180517bffffffffffffffffffffffffffffffffffffffffffffffffffffffff167fffffffff00000000000000000000000000000000000000000000000000000000909316929092179091526111fd565b50505050565b600054610100900460ff166110b45760405162461bcd60e51b815260206004820152602b60248201527f496e697469616c697a61626c653a20636f6e7472616374206973206e6f74206960448201526a6e697469616c697a696e6760a81b6064820152608401610507565b610bcf6112e5565b600054610100900460ff166111275760405162461bcd60e51b815260206004820152602b60248201527f496e697469616c697a61626c653a20636f6e7472616374206973206e6f74206960448201526a6e697469616c697a696e6760a81b6064820152608401610507565b610bcf611350565b6002600154036111815760405162461bcd60e51b815260206004820152601f60248201527f5265656e7472616e637947756172643a207265656e7472616e742063616c6c006044820152606401610507565b6002600155565b60018055565b6097805473ffffffffffffffffffffffffffffffffffffffff19169055610c64816113c4565b6040516001600160a01b0383166024820152604481018290526107a79084907fa9059cbb0000000000000000000000000000000000000000000000000000000090606401610fdf565b6000611252826040518060400160405280602081526020017f5361666545524332303a206c6f772d6c6576656c2063616c6c206661696c6564815250856001600160a01b03166114239092919063ffffffff16565b905080516000148061127357508080602001905181019061127391906118c0565b6107a75760405162461bcd60e51b815260206004820152602a60248201527f5361666545524332303a204552433230206f7065726174696f6e20646964206e60448201527f6f742073756363656564000000000000000000000000000000000000000000006064820152608401610507565b600054610100900460ff166111885760405162461bcd60e51b815260206004820152602b60248201527f496e697469616c697a61626c653a20636f6e7472616374206973206e6f74206960448201526a6e697469616c697a696e6760a81b6064820152608401610507565b600054610100900460ff166113bb5760405162461bcd60e51b815260206004820152602b60248201527f496e697469616c697a61626c653a20636f6e7472616374206973206e6f74206960448201526a6e697469616c697a696e6760a81b6064820152608401610507565b610bcf3361118e565b606580546001600160a01b0383811673ffffffffffffffffffffffffffffffffffffffff19831681179093556040519116919082907f8be0079c531659141344cd1fd0a4f28419497f9722a3daafe3b4186f6b6457e090600090a35050565b6060611432848460008561143a565b949350505050565b6060824710156114b25760405162461bcd60e51b815260206004820152602660248201527f416464726573733a20696e73756666696369656e742062616c616e636520666f60448201527f722063616c6c00000000000000000000000000000000000000000000000000006064820152608401610507565b600080866001600160a01b031685876040516114ce919061191f565b60006040518083038185875af1925050503d806000811461150b576040519150601f19603f3d011682016040523d82523d6000602084013e611510565b606091505b50915091506115218783838761152c565b979650505050505050565b6060831561159b578251600003611594576001600160a01b0385163b6115945760405162461bcd60e51b815260206004820152601d60248201527f416464726573733a2063616c6c20746f206e6f6e2d636f6e74726163740000006044820152606401610507565b5081611432565b61143283838151156115b05781518083602001fd5b8060405162461bcd60e51b8152600401610507919061193b565b80356001600160a01b03811681146115e157600080fd5b919050565b6000602082840312156115f857600080fd5b611601826115ca565b9392505050565b60008083601f84011261161a57600080fd5b50813567ffffffffffffffff81111561163257600080fd5b6020830191508360208260051b850101111561164d57600080fd5b9250929050565b6000806000806000806060878903121561166d57600080fd5b863567ffffffffffffffff8082111561168557600080fd5b6116918a838b01611608565b909850965060208901359150808211156116aa57600080fd5b6116b68a838b01611608565b909650945060408901359150808211156116cf57600080fd5b506116dc89828a01611608565b979a9699509497509295939492505050565b6000806040838503121561170157600080fd5b61170a836115ca565b9150611718602084016115ca565b90509250929050565b7f4e487b7100000000000000000000000000000000000000000000000000000000600052603260045260246000fd5b7f4e487b7100000000000000000000000000000000000000000000000000000000600052601160045260246000fd5b8082018082111561179257611792611750565b92915050565b60007fffffffffffffffffffffffffffffffffffffffffffffffffffffffffffffffff82036117c9576117c9611750565b5060010190565b81835260007f07ffffffffffffffffffffffffffffffffffffffffffffffffffffffffffffff83111561180257600080fd5b8260051b80836020870137939093016020019392505050565b6001600160a01b038a8116825260c060208084018290529083018a90526000918b9160e08501845b8d8110156118685783611855866115ca565b1682529382019390820190600101611843565b50858103604087015261187c818c8e6117d0565b935050505082810360608401526118948187896117d0565b6080840195909552505060a00152979650505050505050565b8181038181111561179257611792611750565b6000602082840312156118d257600080fd5b8151801515811461160157600080fd5b6000602082840312156118f457600080fd5b5051919050565b60005b838110156119165781810151838201526020016118fe565b50506000910152565b600082516119318184602087016118fb565b9190910192915050565b602081526000825180602084015261195a8160408501602087016118fb565b601f01601f1916919091016040019291505056fea2646970667358221220116f388f8df86f5de9540f3353101ce5610ff0cf128bd2b1c0bf939c0f81ffea64736f6c63430008120033",
  "linkReferences": {},
  "deployedLinkReferences": {}
}