{
  "_format": "hh-sol-artifact-1",
  "contractName": "TradingCompetitionClaim",
  "sourceName": "contracts/vestings/TradingCompetitionClaim.sol",
  "abi": [
    {
      "inputs": [],
      "stateMutability": "nonpayable",
      "type": "constructor"
    },
    {
      "anonymous": false,
      "inputs": [
        {
          "indexed": false,
          "internalType": "uint8",
          "name": "version",
          "type": "uint8"
        }
      ],
      "name": "Initialized",
      "type": "event"
    },
    {
      "anonymous": false,
      "inputs": [
        {
          "indexed": true,
          "internalType": "address",
          "name": "user",
          "type": "address"
        },
        {
          "indexed": false,
          "internalType": "uint256",
          "name": "amount",
          "type": "uint256"
        },
        {
          "indexed": false,
          "internalType": "uint256",
          "name": "_tokenId",
          "type": "uint256"
        }
      ],
      "name": "IntxClaimed",
      "type": "event"
    },
    {
      "anonymous": false,
      "inputs": [
        {
          "indexed": true,
          "internalType": "address",
          "name": "user",
          "type": "address"
        },
        {
          "indexed": false,
          "internalType": "uint256",
          "name": "amount",
          "type": "uint256"
        }
      ],
      "name": "MntClaimed",
      "type": "event"
    },
    {
      "anonymous": false,
      "inputs": [
        {
          "indexed": true,
          "internalType": "address",
          "name": "previousOwner",
          "type": "address"
        },
        {
          "indexed": true,
          "internalType": "address",
          "name": "newOwner",
          "type": "address"
        }
      ],
      "name": "OwnershipTransferStarted",
      "type": "event"
    },
    {
      "anonymous": false,
      "inputs": [
        {
          "indexed": true,
          "internalType": "address",
          "name": "previousOwner",
          "type": "address"
        },
        {
          "indexed": true,
          "internalType": "address",
          "name": "newOwner",
          "type": "address"
        }
      ],
      "name": "OwnershipTransferred",
      "type": "event"
    },
    {
      "anonymous": false,
      "inputs": [
        {
          "indexed": false,
          "internalType": "address",
          "name": "operator",
          "type": "address"
        },
        {
          "indexed": false,
          "internalType": "address[]",
          "name": "users",
          "type": "address[]"
        },
        {
          "indexed": false,
          "internalType": "uint256[]",
          "name": "mntAmount",
          "type": "uint256[]"
        },
        {
          "indexed": false,
          "internalType": "uint256[]",
          "name": "intxAmount",
          "type": "uint256[]"
        },
        {
          "indexed": false,
          "internalType": "uint256",
          "name": "totalAmountMnt",
          "type": "uint256"
        },
        {
          "indexed": false,
          "internalType": "uint256",
          "name": "totalAmountIntx",
          "type": "uint256"
        }
      ],
      "name": "Seeded",
      "type": "event"
    },
    {
      "inputs": [],
      "name": "acceptOwnership",
      "outputs": [],
      "stateMutability": "nonpayable",
      "type": "function"
    },
    {
      "inputs": [],
      "name": "claim",
      "outputs": [],
      "stateMutability": "nonpayable",
      "type": "function"
    },
    {
      "inputs": [
        {
          "internalType": "address",
          "name": "_user",
          "type": "address"
        }
      ],
      "name": "claimableNow",
      "outputs": [
        {
          "internalType": "uint256",
          "name": "_mntToClaim",
          "type": "uint256"
        },
        {
          "internalType": "uint256",
          "name": "_intxToClaim",
          "type": "uint256"
        }
      ],
      "stateMutability": "view",
      "type": "function"
    },
    {
      "inputs": [
        {
          "internalType": "address",
          "name": "_intx",
          "type": "address"
        },
        {
          "internalType": "address",
          "name": "_xIntx",
          "type": "address"
        }
      ],
      "name": "initialize",
      "outputs": [],
      "stateMutability": "nonpayable",
      "type": "function"
    },
    {
      "inputs": [],
      "name": "intx",
      "outputs": [
        {
          "internalType": "contract IERC20",
          "name": "",
          "type": "address"
        }
      ],
      "stateMutability": "view",
      "type": "function"
    },
    {
      "inputs": [
        {
          "internalType": "address",
          "name": "",
          "type": "address"
        }
      ],
      "name": "intxClaimableAmount",
      "outputs": [
        {
          "internalType": "uint256",
          "name": "",
          "type": "uint256"
        }
      ],
      "stateMutability": "view",
      "type": "function"
    },
    {
      "inputs": [
        {
          "internalType": "address",
          "name": "",
          "type": "address"
        }
      ],
      "name": "intxClaimedAmount",
      "outputs": [
        {
          "internalType": "uint256",
          "name": "",
          "type": "uint256"
        }
      ],
      "stateMutability": "view",
      "type": "function"
    },
    {
      "inputs": [
        {
          "internalType": "address",
          "name": "",
          "type": "address"
        }
      ],
      "name": "mntClaimableAmount",
      "outputs": [
        {
          "internalType": "uint256",
          "name": "",
          "type": "uint256"
        }
      ],
      "stateMutability": "view",
      "type": "function"
    },
    {
      "inputs": [
        {
          "internalType": "address",
          "name": "",
          "type": "address"
        }
      ],
      "name": "mntClaimedAmount",
      "outputs": [
        {
          "internalType": "uint256",
          "name": "",
          "type": "uint256"
        }
      ],
      "stateMutability": "view",
      "type": "function"
    },
    {
      "inputs": [],
      "name": "owner",
      "outputs": [
        {
          "internalType": "address",
          "name": "",
          "type": "address"
        }
      ],
      "stateMutability": "view",
      "type": "function"
    },
    {
      "inputs": [],
      "name": "pendingOwner",
      "outputs": [
        {
          "internalType": "address",
          "name": "",
          "type": "address"
        }
      ],
      "stateMutability": "view",
      "type": "function"
    },
    {
      "inputs": [],
      "name": "renounceOwnership",
      "outputs": [],
      "stateMutability": "nonpayable",
      "type": "function"
    },
    {
      "inputs": [
        {
          "internalType": "address[]",
          "name": "_receivers",
          "type": "address[]"
        },
        {
          "internalType": "uint256[]",
          "name": "_mntAmounts",
          "type": "uint256[]"
        },
        {
          "internalType": "uint256[]",
          "name": "_intxAmounts",
          "type": "uint256[]"
        }
      ],
      "name": "setAllocations",
      "outputs": [],
      "stateMutability": "payable",
      "type": "function"
    },
    {
      "inputs": [
        {
          "internalType": "address",
          "name": "newOwner",
          "type": "address"
        }
      ],
      "name": "transferOwnership",
      "outputs": [],
      "stateMutability": "nonpayable",
      "type": "function"
    },
    {
      "inputs": [],
      "name": "xIntx",
      "outputs": [
        {
          "internalType": "contract IStakedINTX",
          "name": "",
          "type": "address"
        }
      ],
      "stateMutability": "view",
      "type": "function"
    }
  ],
  "bytecode": "0x608060405234801561001057600080fd5b5061001961001e565b6100dd565b600054610100900460ff161561008a5760405162461bcd60e51b815260206004820152602760248201527f496e697469616c697a61626c653a20636f6e747261637420697320696e697469604482015266616c697a696e6760c81b606482015260840160405180910390fd5b60005460ff908116146100db576000805460ff191660ff9081179091556040519081527f7f26b83ff96e1f2b6a682f133852f6798a09c465da95921460cefb38474024989060200160405180910390a15b565b611738806100ec6000396000f3fe6080604052600436106100e85760003560e01c80635c9952001161008a5780639a78ea4a116100595780639a78ea4a14610271578063d2f55334146102a6578063e30c3978146102d3578063f2fde38b146102f157600080fd5b80635c995200146101fc578063715018a61461022957806379ba50971461023e5780638da5cb5b1461025357600080fd5b80633bade75a116100c65780633bade75a1461017a57806346f7d6c9146101a7578063485cc955146101c75780634e71d92d146101e757600080fd5b80630ba1fb65146100ed578063182a89e61461012d57806327a7af8914610142575b600080fd5b3480156100f957600080fd5b5061011a61010836600461135c565b60cd6020526000908152604090205481565b6040519081526020015b60405180910390f35b61014061013b3660046113ca565b610311565b005b34801561014e57600080fd5b5060ca54610162906001600160a01b031681565b6040516001600160a01b039091168152602001610124565b34801561018657600080fd5b5061011a61019536600461135c565b60cc6020526000908152604090205481565b3480156101b357600080fd5b5060c954610162906001600160a01b031681565b3480156101d357600080fd5b506101406101e2366004611464565b61054f565b3480156101f357600080fd5b50610140610780565b34801561020857600080fd5b5061011a61021736600461135c565b60ce6020526000908152604090205481565b34801561023557600080fd5b50610140610ba5565b34801561024a57600080fd5b50610140610bad565b34801561025f57600080fd5b506065546001600160a01b0316610162565b34801561027d57600080fd5b5061029161028c36600461135c565b610c3b565b60408051928352602083019190915201610124565b3480156102b257600080fd5b5061011a6102c136600461135c565b60cb6020526000908152604090205481565b3480156102df57600080fd5b506097546001600160a01b0316610162565b3480156102fd57600080fd5b5061014061030c36600461135c565b610ca2565b610319610d20565b6000808685811461032957600080fd5b80841461033557600080fd5b60005b818110156104905787878281811061035257610352611497565b9050602002013560cb60008c8c8581811061036f5761036f611497565b9050602002016020810190610384919061135c565b6001600160a01b03166001600160a01b0316815260200190815260200160002060008282546103b391906114f5565b9091555086905085828181106103cb576103cb611497565b9050602002013560cd60008c8c858181106103e8576103e8611497565b90506020020160208101906103fd919061135c565b6001600160a01b03166001600160a01b03168152602001908152602001600020600082825461042c91906114f5565b90915550889050878281811061044457610444611497565b905060200201358461045691906114f5565b935085858281811061046a5761046a611497565b905060200201358361047c91906114f5565b9250806104888161150e565b915050610338565b508234146104e55760405162461bcd60e51b815260206004820152601760248201527f4e6f7420656e6f756768204d4e542070726f766964656400000000000000000060448201526064015b60405180910390fd5b6104fd3360c9546001600160a01b0316903085610d7a565b7fc1d824840f0a134b23f0b6a94f68f3da3c7cdd48dd4c59f4f0ef10571f1bf5aa338a8a8a8a8a8a8a8a60405161053c99989796959493929190611591565b60405180910390a1505050505050505050565b600054610100900460ff161580801561056f5750600054600160ff909116105b806105895750303b158015610589575060005460ff166001145b6105fb5760405162461bcd60e51b815260206004820152602e60248201527f496e697469616c697a61626c653a20636f6e747261637420697320616c72656160448201527f647920696e697469616c697a656400000000000000000000000000000000000060648201526084016104dc565b600080547fffffffffffffffffffffffffffffffffffffffffffffffffffffffffffffff00166001179055801561063c576000805461ff0019166101001790555b610644610e08565b61064c610e7b565b6001600160a01b0383166106a25760405162461bcd60e51b815260206004820152601460248201527f43616e277420757365203078206164647265737300000000000000000000000060448201526064016104dc565b6001600160a01b0382166106f85760405162461bcd60e51b815260206004820152601460248201527f43616e277420757365203078206164647265737300000000000000000000000060448201526064016104dc565b60c980546001600160a01b0380861673ffffffffffffffffffffffffffffffffffffffff199283161790925560ca805492851692909116919091179055801561077b576000805461ff0019169055604051600181527f7f26b83ff96e1f2b6a682f133852f6798a09c465da95921460cefb38474024989060200160405180910390a15b505050565b610788610eee565b33600090815260cb60205260409020541515806107b3575033600090815260cd602052604090205415155b6108255760405162461bcd60e51b815260206004820152602e60248201527f54686973206164647265737320646f65736e2774206861766520616e7920616d60448201527f6f756e7420746f20636c61696d2e00000000000000000000000000000000000060648201526084016104dc565b33600090815260cb602090815260408083205460cc909252909120541080610866575033600090815260cd602090815260408083205460ce90925290912054105b6108d85760405162461bcd60e51b815260206004820152602c60248201527f596f75206861766520616c726561647920636c61696d656420616c6c20796f7560448201527f7220616c6c6f636174696f6e000000000000000000000000000000000000000060648201526084016104dc565b33600090815260cc602090815260408083205460cb9092528220546108fd9190611623565b33600090815260ce602090815260408083205460cd90925282205492935090916109279190611623565b33600090815260cc602052604081208054929350849290919061094b9084906114f5565b909155505033600090815260ce60205260408120805483929061096f9084906114f5565b90915550508115610a21576040513390600090829085156108fc0290869084818181858888f193505050509050806109e95760405162461bcd60e51b815260206004820152600f60248201527f5472616e73666572206661696c6564000000000000000000000000000000000060448201526064016104dc565b60405184815233907f5b57ac54b094423fe5d860171dd3044c3478e158f0f2be3a298a29d9d5074ad69060200160405180910390a250505b8015610b985760c95460ca546040517f095ea7b30000000000000000000000000000000000000000000000000000000081526001600160a01b0391821660048201526024810184905291169063095ea7b3906044016020604051808303816000875af1158015610a95573d6000803e3d6000fd5b505050506040513d601f19601f82011682018060405250810190610ab99190611636565b5060ca546000906001600160a01b0316632ee40908336040517fffffffff0000000000000000000000000000000000000000000000000000000060e084901b1681526001600160a01b039091166004820152602481018590526044016020604051808303816000875af1158015610b34573d6000803e3d6000fd5b505050506040513d601f19601f82011682018060405250810190610b589190611658565b604080518481526020810183905291925033917f54bf3421bf47e5a2daad7a67b1e822c60a8df644a3a520c74ce3d54b10c19645910160405180910390a2505b5050610ba360018055565b565b610ba3610d20565b60975433906001600160a01b03168114610c2f5760405162461bcd60e51b815260206004820152602960248201527f4f776e61626c6532537465703a2063616c6c6572206973206e6f74207468652060448201527f6e6577206f776e6572000000000000000000000000000000000000000000000060648201526084016104dc565b610c3881610f4d565b50565b6001600160a01b038116600090815260cc602090815260408083205460cb9092528220548291610c6a91611623565b6001600160a01b038416600090815260ce602090815260408083205460cd90925290912054919350610c9b91611623565b9050915091565b610caa610d20565b609780546001600160a01b03831673ffffffffffffffffffffffffffffffffffffffff199091168117909155610ce86065546001600160a01b031690565b6001600160a01b03167f38d16b8cac22d99fc7c124b9cd0de2d3fa1faef420bfe791d8c362d765e2270060405160405180910390a350565b6065546001600160a01b03163314610ba35760405162461bcd60e51b815260206004820181905260248201527f4f776e61626c653a2063616c6c6572206973206e6f7420746865206f776e657260448201526064016104dc565b604080516001600160a01b0385811660248301528416604482015260648082018490528251808303909101815260849091019091526020810180517bffffffffffffffffffffffffffffffffffffffffffffffffffffffff167f23b872dd00000000000000000000000000000000000000000000000000000000179052610e02908590610f73565b50505050565b600054610100900460ff16610e735760405162461bcd60e51b815260206004820152602b60248201527f496e697469616c697a61626c653a20636f6e7472616374206973206e6f74206960448201526a6e697469616c697a696e6760a81b60648201526084016104dc565b610ba361105b565b600054610100900460ff16610ee65760405162461bcd60e51b815260206004820152602b60248201527f496e697469616c697a61626c653a20636f6e7472616374206973206e6f74206960448201526a6e697469616c697a696e6760a81b60648201526084016104dc565b610ba36110c6565b600260015403610f405760405162461bcd60e51b815260206004820152601f60248201527f5265656e7472616e637947756172643a207265656e7472616e742063616c6c0060448201526064016104dc565b6002600155565b60018055565b6097805473ffffffffffffffffffffffffffffffffffffffff19169055610c388161113a565b6000610fc8826040518060400160405280602081526020017f5361666545524332303a206c6f772d6c6576656c2063616c6c206661696c6564815250856001600160a01b03166111999092919063ffffffff16565b9050805160001480610fe9575080806020019051810190610fe99190611636565b61077b5760405162461bcd60e51b815260206004820152602a60248201527f5361666545524332303a204552433230206f7065726174696f6e20646964206e60448201527f6f7420737563636565640000000000000000000000000000000000000000000060648201526084016104dc565b600054610100900460ff16610f475760405162461bcd60e51b815260206004820152602b60248201527f496e697469616c697a61626c653a20636f6e7472616374206973206e6f74206960448201526a6e697469616c697a696e6760a81b60648201526084016104dc565b600054610100900460ff166111315760405162461bcd60e51b815260206004820152602b60248201527f496e697469616c697a61626c653a20636f6e7472616374206973206e6f74206960448201526a6e697469616c697a696e6760a81b60648201526084016104dc565b610ba333610f4d565b606580546001600160a01b0383811673ffffffffffffffffffffffffffffffffffffffff19831681179093556040519116919082907f8be0079c531659141344cd1fd0a4f28419497f9722a3daafe3b4186f6b6457e090600090a35050565b60606111a884846000856111b0565b949350505050565b6060824710156112285760405162461bcd60e51b815260206004820152602660248201527f416464726573733a20696e73756666696369656e742062616c616e636520666f60448201527f722063616c6c000000000000000000000000000000000000000000000000000060648201526084016104dc565b600080866001600160a01b031685876040516112449190611695565b60006040518083038185875af1925050503d8060008114611281576040519150601f19603f3d011682016040523d82523d6000602084013e611286565b606091505b5091509150611297878383876112a2565b979650505050505050565b6060831561131157825160000361130a576001600160a01b0385163b61130a5760405162461bcd60e51b815260206004820152601d60248201527f416464726573733a2063616c6c20746f206e6f6e2d636f6e747261637400000060448201526064016104dc565b50816111a8565b6111a883838151156113265781518083602001fd5b8060405162461bcd60e51b81526004016104dc91906116b1565b80356001600160a01b038116811461135757600080fd5b919050565b60006020828403121561136e57600080fd5b61137782611340565b9392505050565b60008083601f84011261139057600080fd5b50813567ffffffffffffffff8111156113a857600080fd5b6020830191508360208260051b85010111156113c357600080fd5b9250929050565b600080600080600080606087890312156113e357600080fd5b863567ffffffffffffffff808211156113fb57600080fd5b6114078a838b0161137e565b9098509650602089013591508082111561142057600080fd5b61142c8a838b0161137e565b9096509450604089013591508082111561144557600080fd5b5061145289828a0161137e565b979a9699509497509295939492505050565b6000806040838503121561147757600080fd5b61148083611340565b915061148e60208401611340565b90509250929050565b7f4e487b7100000000000000000000000000000000000000000000000000000000600052603260045260246000fd5b7f4e487b7100000000000000000000000000000000000000000000000000000000600052601160045260246000fd5b80820180821115611508576115086114c6565b92915050565b60007fffffffffffffffffffffffffffffffffffffffffffffffffffffffffffffffff820361153f5761153f6114c6565b5060010190565b81835260007f07ffffffffffffffffffffffffffffffffffffffffffffffffffffffffffffff83111561157857600080fd5b8260051b80836020870137939093016020019392505050565b6001600160a01b038a8116825260c060208084018290529083018a90526000918b9160e08501845b8d8110156115de57836115cb86611340565b16825293820193908201906001016115b9565b5085810360408701526115f2818c8e611546565b9350505050828103606084015261160a818789611546565b6080840195909552505060a00152979650505050505050565b81810381811115611508576115086114c6565b60006020828403121561164857600080fd5b8151801515811461137757600080fd5b60006020828403121561166a57600080fd5b5051919050565b60005b8381101561168c578181015183820152602001611674565b50506000910152565b600082516116a7818460208701611671565b9190910192915050565b60208152600082518060208401526116d0816040850160208701611671565b601f017fffffffffffffffffffffffffffffffffffffffffffffffffffffffffffffffe016919091016040019291505056fea2646970667358221220b8ace50eb38c78604a81591bc3ed162574ebaeb9d2736ea8a93a57936e43506064736f6c63430008120033",
  "linkReferences": {},
  "deployedLinkReferences": {}
}