{
  "_format": "hh-sol-artifact-1",
  "contractName": "AirdropClaimXINTX",
  "sourceName": "contracts/vestings/AirdropClaimXINTX.sol",
  "abi": [
    {
      "inputs": [],
      "stateMutability": "nonpayable",
      "type": "constructor"
    },
    {
      "anonymous": false,
      "inputs": [
        {
          "indexed": true,
          "internalType": "address",
          "name": "user",
          "type": "address"
        },
        {
          "indexed": false,
          "internalType": "uint256",
          "name": "amount",
          "type": "uint256"
        },
        {
          "indexed": false,
          "internalType": "uint256",
          "name": "_tokenId",
          "type": "uint256"
        }
      ],
      "name": "Claimed",
      "type": "event"
    },
    {
      "anonymous": false,
      "inputs": [
        {
          "indexed": false,
          "internalType": "uint8",
          "name": "version",
          "type": "uint8"
        }
      ],
      "name": "Initialized",
      "type": "event"
    },
    {
      "anonymous": false,
      "inputs": [
        {
          "indexed": true,
          "internalType": "address",
          "name": "previousOwner",
          "type": "address"
        },
        {
          "indexed": true,
          "internalType": "address",
          "name": "newOwner",
          "type": "address"
        }
      ],
      "name": "OwnershipTransferStarted",
      "type": "event"
    },
    {
      "anonymous": false,
      "inputs": [
        {
          "indexed": true,
          "internalType": "address",
          "name": "previousOwner",
          "type": "address"
        },
        {
          "indexed": true,
          "internalType": "address",
          "name": "newOwner",
          "type": "address"
        }
      ],
      "name": "OwnershipTransferred",
      "type": "event"
    },
    {
      "anonymous": false,
      "inputs": [
        {
          "indexed": false,
          "internalType": "address",
          "name": "operator",
          "type": "address"
        },
        {
          "indexed": false,
          "internalType": "address[]",
          "name": "users",
          "type": "address[]"
        },
        {
          "indexed": false,
          "internalType": "uint256[]",
          "name": "amount",
          "type": "uint256[]"
        },
        {
          "indexed": false,
          "internalType": "uint256",
          "name": "totalAmount",
          "type": "uint256"
        }
      ],
      "name": "Seeded",
      "type": "event"
    },
    {
      "inputs": [],
      "name": "FIRST_CLAIM_AMOUNT",
      "outputs": [
        {
          "internalType": "uint256",
          "name": "",
          "type": "uint256"
        }
      ],
      "stateMutability": "view",
      "type": "function"
    },
    {
      "inputs": [],
      "name": "FIRST_CLAIM_TS",
      "outputs": [
        {
          "internalType": "uint256",
          "name": "",
          "type": "uint256"
        }
      ],
      "stateMutability": "view",
      "type": "function"
    },
    {
      "inputs": [],
      "name": "PRECISION",
      "outputs": [
        {
          "internalType": "uint256",
          "name": "",
          "type": "uint256"
        }
      ],
      "stateMutability": "view",
      "type": "function"
    },
    {
      "inputs": [],
      "name": "SECOND_CLAIM_AMOUNT",
      "outputs": [
        {
          "internalType": "uint256",
          "name": "",
          "type": "uint256"
        }
      ],
      "stateMutability": "view",
      "type": "function"
    },
    {
      "inputs": [],
      "name": "SECOND_CLAIM_TS",
      "outputs": [
        {
          "internalType": "uint256",
          "name": "",
          "type": "uint256"
        }
      ],
      "stateMutability": "view",
      "type": "function"
    },
    {
      "inputs": [],
      "name": "acceptOwnership",
      "outputs": [],
      "stateMutability": "nonpayable",
      "type": "function"
    },
    {
      "inputs": [],
      "name": "claim",
      "outputs": [],
      "stateMutability": "nonpayable",
      "type": "function"
    },
    {
      "inputs": [
        {
          "internalType": "address",
          "name": "",
          "type": "address"
        }
      ],
      "name": "claimableAmount",
      "outputs": [
        {
          "internalType": "uint256",
          "name": "",
          "type": "uint256"
        }
      ],
      "stateMutability": "view",
      "type": "function"
    },
    {
      "inputs": [
        {
          "internalType": "address",
          "name": "_user",
          "type": "address"
        }
      ],
      "name": "claimableNow",
      "outputs": [
        {
          "internalType": "uint256",
          "name": "amountToReceive",
          "type": "uint256"
        }
      ],
      "stateMutability": "view",
      "type": "function"
    },
    {
      "inputs": [
        {
          "internalType": "address",
          "name": "",
          "type": "address"
        }
      ],
      "name": "claimedAmount",
      "outputs": [
        {
          "internalType": "uint256",
          "name": "",
          "type": "uint256"
        }
      ],
      "stateMutability": "view",
      "type": "function"
    },
    {
      "inputs": [
        {
          "internalType": "address",
          "name": "_intx",
          "type": "address"
        },
        {
          "internalType": "address",
          "name": "_xIntx",
          "type": "address"
        },
        {
          "internalType": "uint256",
          "name": "_firstClaimTs",
          "type": "uint256"
        },
        {
          "internalType": "uint256",
          "name": "_secondClaimTs",
          "type": "uint256"
        },
        {
          "internalType": "uint256",
          "name": "_firstClaimAmount",
          "type": "uint256"
        }
      ],
      "name": "initialize",
      "outputs": [],
      "stateMutability": "nonpayable",
      "type": "function"
    },
    {
      "inputs": [],
      "name": "intx",
      "outputs": [
        {
          "internalType": "contract IERC20",
          "name": "",
          "type": "address"
        }
      ],
      "stateMutability": "view",
      "type": "function"
    },
    {
      "inputs": [],
      "name": "owner",
      "outputs": [
        {
          "internalType": "address",
          "name": "",
          "type": "address"
        }
      ],
      "stateMutability": "view",
      "type": "function"
    },
    {
      "inputs": [],
      "name": "pendingOwner",
      "outputs": [
        {
          "internalType": "address",
          "name": "",
          "type": "address"
        }
      ],
      "stateMutability": "view",
      "type": "function"
    },
    {
      "inputs": [],
      "name": "renounceOwnership",
      "outputs": [],
      "stateMutability": "nonpayable",
      "type": "function"
    },
    {
      "inputs": [
        {
          "internalType": "address[]",
          "name": "_receivers",
          "type": "address[]"
        },
        {
          "internalType": "uint256[]",
          "name": "_amounts",
          "type": "uint256[]"
        }
      ],
      "name": "setAllocations",
      "outputs": [],
      "stateMutability": "nonpayable",
      "type": "function"
    },
    {
      "inputs": [],
      "name": "stopAirdrop",
      "outputs": [],
      "stateMutability": "nonpayable",
      "type": "function"
    },
    {
      "inputs": [
        {
          "internalType": "address",
          "name": "newOwner",
          "type": "address"
        }
      ],
      "name": "transferOwnership",
      "outputs": [],
      "stateMutability": "nonpayable",
      "type": "function"
    },
    {
      "inputs": [],
      "name": "xIntx",
      "outputs": [
        {
          "internalType": "contract IStakedINTX",
          "name": "",
          "type": "address"
        }
      ],
      "stateMutability": "view",
      "type": "function"
    }
  ],
  "bytecode": "0x608060405234801561001057600080fd5b5061001961001e565b6100dd565b600054610100900460ff161561008a5760405162461bcd60e51b815260206004820152602760248201527f496e697469616c697a61626c653a20636f6e747261637420697320696e697469604482015266616c697a696e6760c81b606482015260840160405180910390fd5b60005460ff908116146100db576000805460ff191660ff9081179091556040519081527f7f26b83ff96e1f2b6a682f133852f6798a09c465da95921460cefb38474024989060200160405180910390a15b565b6116e1806100ec6000396000f3fe608060405234801561001057600080fd5b50600436106101515760003560e01c806379ba5097116100cd578063d13f90b411610081578063e30c397811610066578063e30c397814610278578063e586c26114610289578063f2fde38b1461029257600080fd5b8063d13f90b41461025c578063d17e87ec1461026f57600080fd5b80638da5cb5b116100b25780638da5cb5b1461022e5780639a78ea4a1461023f578063aaf5eb681461025257600080fd5b806379ba509714610206578063898850491461020e57600080fd5b8063439e2824116101245780634e71d92d116101095780634e71d92d146101ee5780634f4e47f1146101f6578063715018a6146101fe57600080fd5b8063439e2824146101d257806346f7d6c9146101db57600080fd5b806304e86903146101565780631ff64acd1461018957806323bd2e9a1461019e57806327a7af89146101a7575b600080fd5b610176610164366004611341565b60d06020526000908152604090205481565b6040519081526020015b60405180910390f35b61019c6101973660046113af565b6102a5565b005b61017660c95481565b60ce546101ba906001600160a01b031681565b6040516001600160a01b039091168152602001610180565b61017660cb5481565b60cd546101ba906001600160a01b031681565b61019c6103da565b61019c61077c565b61019c6108b9565b61019c6108c1565b61017661021c366004611341565b60cf6020526000908152604090205481565b6065546001600160a01b03166101ba565b61017661024d366004611341565b61094f565b610176620186a081565b61019c61026a36600461141b565b610a38565b61017660ca5481565b6097546001600160a01b03166101ba565b61017660cc5481565b61019c6102a0366004611341565b610c87565b6102ad610d05565b6000838281146102bc57600080fd5b60005b81811015610378578484828181106102d9576102d9611468565b9050602002013560cf60008989858181106102f6576102f6611468565b905060200201602081019061030b9190611341565b6001600160a01b03166001600160a01b03168152602001908152602001600020600082825461033a9190611494565b90915550859050848281811061035257610352611468565b90506020020135836103649190611494565b925080610370816114ad565b9150506102bf565b506103913360cd546001600160a01b0316903085610d5f565b7fce2f1e54279c24e5f841f2af4826cb958d82cbec9904631c271ea9f79c0497583387878787876040516103ca969594939291906114e5565b60405180910390a1505050505050565b6103e2610ded565b33600090815260cf6020526040812054900361046b5760405162461bcd60e51b815260206004820152602e60248201527f54686973206164647265737320646f65736e2774206861766520616e7920616d60448201527f6f756e7420746f20636c61696d2e00000000000000000000000000000000000060648201526084015b60405180910390fd5b33600090815260cf602090815260408083205460d090925290912054106104fa5760405162461bcd60e51b815260206004820152602c60248201527f596f75206861766520616c726561647920636c61696d656420616c6c20796f7560448201527f7220616c6c6f636174696f6e00000000000000000000000000000000000000006064820152608401610462565b60004260cb54101561055a57620186a060c95460cf60006105183390565b6001600160a01b03166001600160a01b03168152602001908152602001600020546105439190611593565b61054d91906115aa565b6105579082611494565b90505b4260cc5410156105b857620186a060ca5460cf60006105763390565b6001600160a01b03166001600160a01b03168152602001908152602001600020546105a19190611593565b6105ab91906115aa565b6105b59082611494565b90505b33600090815260d060205260408120546105d290836115cc565b9050801561076f5733600090815260d06020526040812080548392906105f9908490611494565b909155505060cd5460ce546040517f095ea7b30000000000000000000000000000000000000000000000000000000081526001600160a01b0391821660048201526024810184905291169063095ea7b3906044016020604051808303816000875af115801561066c573d6000803e3d6000fd5b505050506040513d601f19601f8201168201806040525081019061069091906115df565b5060ce546000906001600160a01b0316632ee40908336040517fffffffff0000000000000000000000000000000000000000000000000000000060e084901b1681526001600160a01b039091166004820152602481018590526044016020604051808303816000875af115801561070b573d6000803e3d6000fd5b505050506040513d601f19601f8201168201806040525081019061072f9190611601565b604080518481526020810183905291925033917f987d620f307ff6b94d58743cb7a7509f24071586a77759b77c2d4e29f75a2f9a910160405180910390a2505b505061077a60018055565b565b610784610d05565b60cd546040517f70a0823100000000000000000000000000000000000000000000000000000000815230600482015273ef23f554af7fa7421af1ff53f2b4838c05afd7a2916000916001600160a01b03909116906370a0823190602401602060405180830381865afa1580156107fe573d6000803e3d6000fd5b505050506040513d601f19601f820116820180604052508101906108229190611601565b60cd546040517fa9059cbb0000000000000000000000000000000000000000000000000000000081526001600160a01b0385811660048301526024820184905292935091169063a9059cbb906044016020604051808303816000875af1158015610890573d6000803e3d6000fd5b505050506040513d601f19601f820116820180604052508101906108b491906115df565b505050565b61077a610d05565b60975433906001600160a01b031681146109435760405162461bcd60e51b815260206004820152602960248201527f4f776e61626c6532537465703a2063616c6c6572206973206e6f74207468652060448201527f6e6577206f776e657200000000000000000000000000000000000000000000006064820152608401610462565b61094c81610e4c565b50565b600080600090504260cb5410156109a15760c9546001600160a01b038416600090815260cf6020526040902054620186a09161098a91611593565b61099491906115aa565b61099e9082611494565b90505b4260cc5410156109ec5760ca546001600160a01b038416600090815260cf6020526040902054620186a0916109d591611593565b6109df91906115aa565b6109e99082611494565b90505b6001600160a01b038316600090815260d06020526040902054811115610a32576001600160a01b038316600090815260d06020526040902054610a2f90826115cc565b91505b50919050565b600054610100900460ff1615808015610a585750600054600160ff909116105b80610a725750303b158015610a72575060005460ff166001145b610ae45760405162461bcd60e51b815260206004820152602e60248201527f496e697469616c697a61626c653a20636f6e747261637420697320616c72656160448201527f647920696e697469616c697a65640000000000000000000000000000000000006064820152608401610462565b600080547fffffffffffffffffffffffffffffffffffffffffffffffffffffffffffffff001660011790558015610b25576000805461ff0019166101001790555b610b2d610e72565b610b35610ee5565b6001600160a01b038616610b8b5760405162461bcd60e51b815260206004820152601460248201527f43616e27742075736520307820616464726573730000000000000000000000006044820152606401610462565b6001600160a01b038516610be15760405162461bcd60e51b815260206004820152601460248201527f43616e27742075736520307820616464726573730000000000000000000000006044820152606401610462565b60cd80546001600160a01b0380891673ffffffffffffffffffffffffffffffffffffffff199283161790925560ce80549288169290911691909117905560cb84905560cc83905560c9829055610c3a82620186a06115cc565b60ca558015610c7f576000805461ff0019169055604051600181527f7f26b83ff96e1f2b6a682f133852f6798a09c465da95921460cefb3847402498906020016103ca565b505050505050565b610c8f610d05565b609780546001600160a01b03831673ffffffffffffffffffffffffffffffffffffffff199091168117909155610ccd6065546001600160a01b031690565b6001600160a01b03167f38d16b8cac22d99fc7c124b9cd0de2d3fa1faef420bfe791d8c362d765e2270060405160405180910390a350565b6065546001600160a01b0316331461077a5760405162461bcd60e51b815260206004820181905260248201527f4f776e61626c653a2063616c6c6572206973206e6f7420746865206f776e65726044820152606401610462565b604080516001600160a01b0385811660248301528416604482015260648082018490528251808303909101815260849091019091526020810180517bffffffffffffffffffffffffffffffffffffffffffffffffffffffff167f23b872dd00000000000000000000000000000000000000000000000000000000179052610de7908590610f58565b50505050565b600260015403610e3f5760405162461bcd60e51b815260206004820152601f60248201527f5265656e7472616e637947756172643a207265656e7472616e742063616c6c006044820152606401610462565b6002600155565b60018055565b6097805473ffffffffffffffffffffffffffffffffffffffff1916905561094c81611040565b600054610100900460ff16610edd5760405162461bcd60e51b815260206004820152602b60248201527f496e697469616c697a61626c653a20636f6e7472616374206973206e6f74206960448201526a6e697469616c697a696e6760a81b6064820152608401610462565b61077a61109f565b600054610100900460ff16610f505760405162461bcd60e51b815260206004820152602b60248201527f496e697469616c697a61626c653a20636f6e7472616374206973206e6f74206960448201526a6e697469616c697a696e6760a81b6064820152608401610462565b61077a61110a565b6000610fad826040518060400160405280602081526020017f5361666545524332303a206c6f772d6c6576656c2063616c6c206661696c6564815250856001600160a01b031661117e9092919063ffffffff16565b9050805160001480610fce575080806020019051810190610fce91906115df565b6108b45760405162461bcd60e51b815260206004820152602a60248201527f5361666545524332303a204552433230206f7065726174696f6e20646964206e60448201527f6f742073756363656564000000000000000000000000000000000000000000006064820152608401610462565b606580546001600160a01b0383811673ffffffffffffffffffffffffffffffffffffffff19831681179093556040519116919082907f8be0079c531659141344cd1fd0a4f28419497f9722a3daafe3b4186f6b6457e090600090a35050565b600054610100900460ff16610e465760405162461bcd60e51b815260206004820152602b60248201527f496e697469616c697a61626c653a20636f6e7472616374206973206e6f74206960448201526a6e697469616c697a696e6760a81b6064820152608401610462565b600054610100900460ff166111755760405162461bcd60e51b815260206004820152602b60248201527f496e697469616c697a61626c653a20636f6e7472616374206973206e6f74206960448201526a6e697469616c697a696e6760a81b6064820152608401610462565b61077a33610e4c565b606061118d8484600085611195565b949350505050565b60608247101561120d5760405162461bcd60e51b815260206004820152602660248201527f416464726573733a20696e73756666696369656e742062616c616e636520666f60448201527f722063616c6c00000000000000000000000000000000000000000000000000006064820152608401610462565b600080866001600160a01b03168587604051611229919061163e565b60006040518083038185875af1925050503d8060008114611266576040519150601f19603f3d011682016040523d82523d6000602084013e61126b565b606091505b509150915061127c87838387611287565b979650505050505050565b606083156112f65782516000036112ef576001600160a01b0385163b6112ef5760405162461bcd60e51b815260206004820152601d60248201527f416464726573733a2063616c6c20746f206e6f6e2d636f6e74726163740000006044820152606401610462565b508161118d565b61118d838381511561130b5781518083602001fd5b8060405162461bcd60e51b8152600401610462919061165a565b80356001600160a01b038116811461133c57600080fd5b919050565b60006020828403121561135357600080fd5b61135c82611325565b9392505050565b60008083601f84011261137557600080fd5b50813567ffffffffffffffff81111561138d57600080fd5b6020830191508360208260051b85010111156113a857600080fd5b9250929050565b600080600080604085870312156113c557600080fd5b843567ffffffffffffffff808211156113dd57600080fd5b6113e988838901611363565b9096509450602087013591508082111561140257600080fd5b5061140f87828801611363565b95989497509550505050565b600080600080600060a0868803121561143357600080fd5b61143c86611325565b945061144a60208701611325565b94979496505050506040830135926060810135926080909101359150565b634e487b7160e01b600052603260045260246000fd5b634e487b7160e01b600052601160045260246000fd5b808201808211156114a7576114a761147e565b92915050565b60007fffffffffffffffffffffffffffffffffffffffffffffffffffffffffffffffff82036114de576114de61147e565b5060010190565b6001600160a01b03878116825260806020808401829052908301879052600091889160a08501845b8a811015611532578361151f86611325565b168252938201939082019060010161150d565b5085810360408701528781527f07ffffffffffffffffffffffffffffffffffffffffffffffffffffffffffffff88111561156b57600080fd5b8760051b93508389838301378184820101945050505050826060830152979650505050505050565b80820281158282048414176114a7576114a761147e565b6000826115c757634e487b7160e01b600052601260045260246000fd5b500490565b818103818111156114a7576114a761147e565b6000602082840312156115f157600080fd5b8151801515811461135c57600080fd5b60006020828403121561161357600080fd5b5051919050565b60005b8381101561163557818101518382015260200161161d565b50506000910152565b6000825161165081846020870161161a565b9190910192915050565b602081526000825180602084015261167981604085016020870161161a565b601f017fffffffffffffffffffffffffffffffffffffffffffffffffffffffffffffffe016919091016040019291505056fea264697066735822122036262244922c46448d86dfb8bc0144d0159895fc0fc9035d114fd94d8902aa2b64736f6c63430008120033",
  "linkReferences": {},
  "deployedLinkReferences": {}
}