{
  "_format": "hh-sol-artifact-1",
  "contractName": "AirdropClaimXINTX",
  "sourceName": "contracts/vestings/AirdropClaimXINTX.sol",
  "abi": [
    {
      "inputs": [],
      "stateMutability": "nonpayable",
      "type": "constructor"
    },
    {
      "anonymous": false,
      "inputs": [
        {
          "indexed": true,
          "internalType": "address",
          "name": "user",
          "type": "address"
        },
        {
          "indexed": false,
          "internalType": "uint256",
          "name": "amount",
          "type": "uint256"
        },
        {
          "indexed": false,
          "internalType": "uint256",
          "name": "_tokenId",
          "type": "uint256"
        }
      ],
      "name": "Claimed",
      "type": "event"
    },
    {
      "anonymous": false,
      "inputs": [
        {
          "indexed": false,
          "internalType": "uint8",
          "name": "version",
          "type": "uint8"
        }
      ],
      "name": "Initialized",
      "type": "event"
    },
    {
      "anonymous": false,
      "inputs": [
        {
          "indexed": true,
          "internalType": "address",
          "name": "previousOwner",
          "type": "address"
        },
        {
          "indexed": true,
          "internalType": "address",
          "name": "newOwner",
          "type": "address"
        }
      ],
      "name": "OwnershipTransferStarted",
      "type": "event"
    },
    {
      "anonymous": false,
      "inputs": [
        {
          "indexed": true,
          "internalType": "address",
          "name": "previousOwner",
          "type": "address"
        },
        {
          "indexed": true,
          "internalType": "address",
          "name": "newOwner",
          "type": "address"
        }
      ],
      "name": "OwnershipTransferred",
      "type": "event"
    },
    {
      "anonymous": false,
      "inputs": [
        {
          "indexed": false,
          "internalType": "address",
          "name": "operator",
          "type": "address"
        },
        {
          "indexed": false,
          "internalType": "address[]",
          "name": "users",
          "type": "address[]"
        },
        {
          "indexed": false,
          "internalType": "uint256[]",
          "name": "amount",
          "type": "uint256[]"
        },
        {
          "indexed": false,
          "internalType": "uint256",
          "name": "totalAmount",
          "type": "uint256"
        }
      ],
      "name": "Seeded",
      "type": "event"
    },
    {
      "inputs": [],
      "name": "FIRST_CLAIM_AMOUNT",
      "outputs": [
        {
          "internalType": "uint256",
          "name": "",
          "type": "uint256"
        }
      ],
      "stateMutability": "view",
      "type": "function"
    },
    {
      "inputs": [],
      "name": "FIRST_CLAIM_TS",
      "outputs": [
        {
          "internalType": "uint256",
          "name": "",
          "type": "uint256"
        }
      ],
      "stateMutability": "view",
      "type": "function"
    },
    {
      "inputs": [],
      "name": "PRECISION",
      "outputs": [
        {
          "internalType": "uint256",
          "name": "",
          "type": "uint256"
        }
      ],
      "stateMutability": "view",
      "type": "function"
    },
    {
      "inputs": [],
      "name": "SECOND_CLAIM_AMOUNT",
      "outputs": [
        {
          "internalType": "uint256",
          "name": "",
          "type": "uint256"
        }
      ],
      "stateMutability": "view",
      "type": "function"
    },
    {
      "inputs": [],
      "name": "SECOND_CLAIM_TS",
      "outputs": [
        {
          "internalType": "uint256",
          "name": "",
          "type": "uint256"
        }
      ],
      "stateMutability": "view",
      "type": "function"
    },
    {
      "inputs": [],
      "name": "acceptOwnership",
      "outputs": [],
      "stateMutability": "nonpayable",
      "type": "function"
    },
    {
      "inputs": [],
      "name": "claim",
      "outputs": [],
      "stateMutability": "nonpayable",
      "type": "function"
    },
    {
      "inputs": [
        {
          "internalType": "address",
          "name": "",
          "type": "address"
        }
      ],
      "name": "claimableAmount",
      "outputs": [
        {
          "internalType": "uint256",
          "name": "",
          "type": "uint256"
        }
      ],
      "stateMutability": "view",
      "type": "function"
    },
    {
      "inputs": [
        {
          "internalType": "address",
          "name": "_user",
          "type": "address"
        }
      ],
      "name": "claimableNow",
      "outputs": [
        {
          "internalType": "uint256",
          "name": "amountToReceive",
          "type": "uint256"
        }
      ],
      "stateMutability": "view",
      "type": "function"
    },
    {
      "inputs": [
        {
          "internalType": "address",
          "name": "",
          "type": "address"
        }
      ],
      "name": "claimedAmount",
      "outputs": [
        {
          "internalType": "uint256",
          "name": "",
          "type": "uint256"
        }
      ],
      "stateMutability": "view",
      "type": "function"
    },
    {
      "inputs": [
        {
          "internalType": "address",
          "name": "_intx",
          "type": "address"
        },
        {
          "internalType": "address",
          "name": "_xIntx",
          "type": "address"
        },
        {
          "internalType": "uint256",
          "name": "_firstClaimTs",
          "type": "uint256"
        },
        {
          "internalType": "uint256",
          "name": "_secondClaimTs",
          "type": "uint256"
        },
        {
          "internalType": "uint256",
          "name": "_firstClaimAmount",
          "type": "uint256"
        }
      ],
      "name": "initialize",
      "outputs": [],
      "stateMutability": "nonpayable",
      "type": "function"
    },
    {
      "inputs": [],
      "name": "intx",
      "outputs": [
        {
          "internalType": "contract IERC20",
          "name": "",
          "type": "address"
        }
      ],
      "stateMutability": "view",
      "type": "function"
    },
    {
      "inputs": [],
      "name": "owner",
      "outputs": [
        {
          "internalType": "address",
          "name": "",
          "type": "address"
        }
      ],
      "stateMutability": "view",
      "type": "function"
    },
    {
      "inputs": [],
      "name": "pendingOwner",
      "outputs": [
        {
          "internalType": "address",
          "name": "",
          "type": "address"
        }
      ],
      "stateMutability": "view",
      "type": "function"
    },
    {
      "inputs": [],
      "name": "renounceOwnership",
      "outputs": [],
      "stateMutability": "nonpayable",
      "type": "function"
    },
    {
      "inputs": [
        {
          "internalType": "address[]",
          "name": "_receivers",
          "type": "address[]"
        },
        {
          "internalType": "uint256[]",
          "name": "_amounts",
          "type": "uint256[]"
        }
      ],
      "name": "setAllocations",
      "outputs": [],
      "stateMutability": "nonpayable",
      "type": "function"
    },
    {
      "inputs": [
        {
          "internalType": "address",
          "name": "newOwner",
          "type": "address"
        }
      ],
      "name": "transferOwnership",
      "outputs": [],
      "stateMutability": "nonpayable",
      "type": "function"
    },
    {
      "inputs": [],
      "name": "xIntx",
      "outputs": [
        {
          "internalType": "contract IStakedINTX",
          "name": "",
          "type": "address"
        }
      ],
      "stateMutability": "view",
      "type": "function"
    }
  ],
  "bytecode": "0x608060405234801561001057600080fd5b5061001961001e565b6100dd565b600054610100900460ff161561008a5760405162461bcd60e51b815260206004820152602760248201527f496e697469616c697a61626c653a20636f6e747261637420697320696e697469604482015266616c697a696e6760c81b606482015260840160405180910390fd5b60005460ff908116146100db576000805460ff191660ff9081179091556040519081527f7f26b83ff96e1f2b6a682f133852f6798a09c465da95921460cefb38474024989060200160405180910390a15b565b611586806100ec6000396000f3fe608060405234801561001057600080fd5b50600436106101365760003560e01c806389885049116100b2578063d13f90b411610081578063e30c397811610066578063e30c397814610255578063e586c26114610266578063f2fde38b1461026f57600080fd5b8063d13f90b414610239578063d17e87ec1461024c57600080fd5b806389885049146101eb5780638da5cb5b1461020b5780639a78ea4a1461021c578063aaf5eb681461022f57600080fd5b8063439e2824116101095780634e71d92d116100ee5780634e71d92d146101d3578063715018a6146101db57806379ba5097146101e357600080fd5b8063439e2824146101b757806346f7d6c9146101c057600080fd5b806304e869031461013b5780631ff64acd1461016e57806323bd2e9a1461018357806327a7af891461018c575b600080fd5b61015b6101493660046111e6565b60d06020526000908152604090205481565b6040519081526020015b60405180910390f35b61018161017c366004611254565b610282565b005b61015b60c95481565b60ce5461019f906001600160a01b031681565b6040516001600160a01b039091168152602001610165565b61015b60cb5481565b60cd5461019f906001600160a01b031681565b6101816103b7565b610181610759565b610181610761565b61015b6101f93660046111e6565b60cf6020526000908152604090205481565b6065546001600160a01b031661019f565b61015b61022a3660046111e6565b6107ef565b61015b620186a081565b6101816102473660046112c0565b6108d8565b61015b60ca5481565b6097546001600160a01b031661019f565b61015b60cc5481565b61018161027d3660046111e6565b610b27565b61028a610ba5565b60008382811461029957600080fd5b60005b81811015610355578484828181106102b6576102b661130d565b9050602002013560cf60008989858181106102d3576102d361130d565b90506020020160208101906102e891906111e6565b6001600160a01b03166001600160a01b0316815260200190815260200160002060008282546103179190611339565b90915550859050848281811061032f5761032f61130d565b90506020020135836103419190611339565b92508061034d81611352565b91505061029c565b5061036e3360cd546001600160a01b0316903085610bff565b7fce2f1e54279c24e5f841f2af4826cb958d82cbec9904631c271ea9f79c0497583387878787876040516103a79695949392919061138a565b60405180910390a1505050505050565b6103bf610c8d565b33600090815260cf602052604081205490036104485760405162461bcd60e51b815260206004820152602e60248201527f54686973206164647265737320646f65736e2774206861766520616e7920616d60448201527f6f756e7420746f20636c61696d2e00000000000000000000000000000000000060648201526084015b60405180910390fd5b33600090815260cf602090815260408083205460d090925290912054106104d75760405162461bcd60e51b815260206004820152602c60248201527f596f75206861766520616c726561647920636c61696d656420616c6c20796f7560448201527f7220616c6c6f636174696f6e0000000000000000000000000000000000000000606482015260840161043f565b60004260cb54101561053757620186a060c95460cf60006104f53390565b6001600160a01b03166001600160a01b03168152602001908152602001600020546105209190611438565b61052a919061144f565b6105349082611339565b90505b4260cc54101561059557620186a060ca5460cf60006105533390565b6001600160a01b03166001600160a01b031681526020019081526020016000205461057e9190611438565b610588919061144f565b6105929082611339565b90505b33600090815260d060205260408120546105af9083611471565b9050801561074c5733600090815260d06020526040812080548392906105d6908490611339565b909155505060cd5460ce546040517f095ea7b30000000000000000000000000000000000000000000000000000000081526001600160a01b0391821660048201526024810184905291169063095ea7b3906044016020604051808303816000875af1158015610649573d6000803e3d6000fd5b505050506040513d601f19601f8201168201806040525081019061066d9190611484565b5060ce546000906001600160a01b0316632ee40908336040517fffffffff0000000000000000000000000000000000000000000000000000000060e084901b1681526001600160a01b039091166004820152602481018590526044016020604051808303816000875af11580156106e8573d6000803e3d6000fd5b505050506040513d601f19601f8201168201806040525081019061070c91906114a6565b604080518481526020810183905291925033917f987d620f307ff6b94d58743cb7a7509f24071586a77759b77c2d4e29f75a2f9a910160405180910390a2505b505061075760018055565b565b610757610ba5565b60975433906001600160a01b031681146107e35760405162461bcd60e51b815260206004820152602960248201527f4f776e61626c6532537465703a2063616c6c6572206973206e6f74207468652060448201527f6e6577206f776e65720000000000000000000000000000000000000000000000606482015260840161043f565b6107ec81610cec565b50565b600080600090504260cb5410156108415760c9546001600160a01b038416600090815260cf6020526040902054620186a09161082a91611438565b610834919061144f565b61083e9082611339565b90505b4260cc54101561088c5760ca546001600160a01b038416600090815260cf6020526040902054620186a09161087591611438565b61087f919061144f565b6108899082611339565b90505b6001600160a01b038316600090815260d060205260409020548111156108d2576001600160a01b038316600090815260d060205260409020546108cf9082611471565b91505b50919050565b600054610100900460ff16158080156108f85750600054600160ff909116105b806109125750303b158015610912575060005460ff166001145b6109845760405162461bcd60e51b815260206004820152602e60248201527f496e697469616c697a61626c653a20636f6e747261637420697320616c72656160448201527f647920696e697469616c697a6564000000000000000000000000000000000000606482015260840161043f565b600080547fffffffffffffffffffffffffffffffffffffffffffffffffffffffffffffff0016600117905580156109c5576000805461ff0019166101001790555b6109cd610d12565b6109d5610d85565b6001600160a01b038616610a2b5760405162461bcd60e51b815260206004820152601460248201527f43616e2774207573652030782061646472657373000000000000000000000000604482015260640161043f565b6001600160a01b038516610a815760405162461bcd60e51b815260206004820152601460248201527f43616e2774207573652030782061646472657373000000000000000000000000604482015260640161043f565b60cd80546001600160a01b0380891673ffffffffffffffffffffffffffffffffffffffff199283161790925560ce80549288169290911691909117905560cb84905560cc83905560c9829055610ada82620186a0611471565b60ca558015610b1f576000805461ff0019169055604051600181527f7f26b83ff96e1f2b6a682f133852f6798a09c465da95921460cefb3847402498906020016103a7565b505050505050565b610b2f610ba5565b609780546001600160a01b03831673ffffffffffffffffffffffffffffffffffffffff199091168117909155610b6d6065546001600160a01b031690565b6001600160a01b03167f38d16b8cac22d99fc7c124b9cd0de2d3fa1faef420bfe791d8c362d765e2270060405160405180910390a350565b6065546001600160a01b031633146107575760405162461bcd60e51b815260206004820181905260248201527f4f776e61626c653a2063616c6c6572206973206e6f7420746865206f776e6572604482015260640161043f565b604080516001600160a01b0385811660248301528416604482015260648082018490528251808303909101815260849091019091526020810180517bffffffffffffffffffffffffffffffffffffffffffffffffffffffff167f23b872dd00000000000000000000000000000000000000000000000000000000179052610c87908590610df8565b50505050565b600260015403610cdf5760405162461bcd60e51b815260206004820152601f60248201527f5265656e7472616e637947756172643a207265656e7472616e742063616c6c00604482015260640161043f565b6002600155565b60018055565b6097805473ffffffffffffffffffffffffffffffffffffffff191690556107ec81610ee5565b600054610100900460ff16610d7d5760405162461bcd60e51b815260206004820152602b60248201527f496e697469616c697a61626c653a20636f6e7472616374206973206e6f74206960448201526a6e697469616c697a696e6760a81b606482015260840161043f565b610757610f44565b600054610100900460ff16610df05760405162461bcd60e51b815260206004820152602b60248201527f496e697469616c697a61626c653a20636f6e7472616374206973206e6f74206960448201526a6e697469616c697a696e6760a81b606482015260840161043f565b610757610faf565b6000610e4d826040518060400160405280602081526020017f5361666545524332303a206c6f772d6c6576656c2063616c6c206661696c6564815250856001600160a01b03166110239092919063ffffffff16565b9050805160001480610e6e575080806020019051810190610e6e9190611484565b610ee05760405162461bcd60e51b815260206004820152602a60248201527f5361666545524332303a204552433230206f7065726174696f6e20646964206e60448201527f6f74207375636365656400000000000000000000000000000000000000000000606482015260840161043f565b505050565b606580546001600160a01b0383811673ffffffffffffffffffffffffffffffffffffffff19831681179093556040519116919082907f8be0079c531659141344cd1fd0a4f28419497f9722a3daafe3b4186f6b6457e090600090a35050565b600054610100900460ff16610ce65760405162461bcd60e51b815260206004820152602b60248201527f496e697469616c697a61626c653a20636f6e7472616374206973206e6f74206960448201526a6e697469616c697a696e6760a81b606482015260840161043f565b600054610100900460ff1661101a5760405162461bcd60e51b815260206004820152602b60248201527f496e697469616c697a61626c653a20636f6e7472616374206973206e6f74206960448201526a6e697469616c697a696e6760a81b606482015260840161043f565b61075733610cec565b6060611032848460008561103a565b949350505050565b6060824710156110b25760405162461bcd60e51b815260206004820152602660248201527f416464726573733a20696e73756666696369656e742062616c616e636520666f60448201527f722063616c6c0000000000000000000000000000000000000000000000000000606482015260840161043f565b600080866001600160a01b031685876040516110ce91906114e3565b60006040518083038185875af1925050503d806000811461110b576040519150601f19603f3d011682016040523d82523d6000602084013e611110565b606091505b50915091506111218783838761112c565b979650505050505050565b6060831561119b578251600003611194576001600160a01b0385163b6111945760405162461bcd60e51b815260206004820152601d60248201527f416464726573733a2063616c6c20746f206e6f6e2d636f6e7472616374000000604482015260640161043f565b5081611032565b61103283838151156111b05781518083602001fd5b8060405162461bcd60e51b815260040161043f91906114ff565b80356001600160a01b03811681146111e157600080fd5b919050565b6000602082840312156111f857600080fd5b611201826111ca565b9392505050565b60008083601f84011261121a57600080fd5b50813567ffffffffffffffff81111561123257600080fd5b6020830191508360208260051b850101111561124d57600080fd5b9250929050565b6000806000806040858703121561126a57600080fd5b843567ffffffffffffffff8082111561128257600080fd5b61128e88838901611208565b909650945060208701359150808211156112a757600080fd5b506112b487828801611208565b95989497509550505050565b600080600080600060a086880312156112d857600080fd5b6112e1866111ca565b94506112ef602087016111ca565b94979496505050506040830135926060810135926080909101359150565b634e487b7160e01b600052603260045260246000fd5b634e487b7160e01b600052601160045260246000fd5b8082018082111561134c5761134c611323565b92915050565b60007fffffffffffffffffffffffffffffffffffffffffffffffffffffffffffffffff820361138357611383611323565b5060010190565b6001600160a01b03878116825260806020808401829052908301879052600091889160a08501845b8a8110156113d757836113c4866111ca565b16825293820193908201906001016113b2565b5085810360408701528781527f07ffffffffffffffffffffffffffffffffffffffffffffffffffffffffffffff88111561141057600080fd5b8760051b93508389838301378184820101945050505050826060830152979650505050505050565b808202811582820484141761134c5761134c611323565b60008261146c57634e487b7160e01b600052601260045260246000fd5b500490565b8181038181111561134c5761134c611323565b60006020828403121561149657600080fd5b8151801515811461120157600080fd5b6000602082840312156114b857600080fd5b5051919050565b60005b838110156114da5781810151838201526020016114c2565b50506000910152565b600082516114f58184602087016114bf565b9190910192915050565b602081526000825180602084015261151e8160408501602087016114bf565b601f017fffffffffffffffffffffffffffffffffffffffffffffffffffffffffffffffe016919091016040019291505056fea264697066735822122000c53432fc806414c9afd0201e06251556bb825797377b86175d8cb01d8a68d264736f6c63430008120033",
  "linkReferences": {},
  "deployedLinkReferences": {}
}