{
  "_format": "hh-sol-artifact-1",
  "contractName": "OnChainSymmioVaultV2",
  "sourceName": "contracts/solver/OnChainSymmioVaultV2.sol",
  "abi": [
    {
      "inputs": [],
      "stateMutability": "nonpayable",
      "type": "constructor"
    },
    {
      "anonymous": false,
      "inputs": [
        {
          "indexed": true,
          "internalType": "address",
          "name": "depositor",
          "type": "address"
        },
        {
          "indexed": false,
          "internalType": "uint256",
          "name": "amount",
          "type": "uint256"
        }
      ],
      "name": "Deposit",
      "type": "event"
    },
    {
      "anonymous": false,
      "inputs": [
        {
          "indexed": false,
          "internalType": "uint256",
          "name": "depositLimit",
          "type": "uint256"
        }
      ],
      "name": "DepositLimitUpdatedEvent",
      "type": "event"
    },
    {
      "anonymous": false,
      "inputs": [
        {
          "indexed": true,
          "internalType": "address",
          "name": "depositor",
          "type": "address"
        },
        {
          "indexed": true,
          "internalType": "address",
          "name": "solver",
          "type": "address"
        },
        {
          "indexed": false,
          "internalType": "uint256",
          "name": "amount",
          "type": "uint256"
        }
      ],
      "name": "DepositToSymmio",
      "type": "event"
    },
    {
      "anonymous": false,
      "inputs": [],
      "name": "EIP712DomainChanged",
      "type": "event"
    },
    {
      "anonymous": false,
      "inputs": [
        {
          "indexed": false,
          "internalType": "uint8",
          "name": "version",
          "type": "uint8"
        }
      ],
      "name": "Initialized",
      "type": "event"
    },
    {
      "anonymous": false,
      "inputs": [
        {
          "indexed": false,
          "internalType": "uint256",
          "name": "minimumPaybackRatio",
          "type": "uint256"
        }
      ],
      "name": "MinimumPaybackRatioUpdatedEvent",
      "type": "event"
    },
    {
      "anonymous": false,
      "inputs": [
        {
          "indexed": false,
          "internalType": "address",
          "name": "account",
          "type": "address"
        }
      ],
      "name": "Paused",
      "type": "event"
    },
    {
      "anonymous": false,
      "inputs": [
        {
          "indexed": true,
          "internalType": "bytes32",
          "name": "role",
          "type": "bytes32"
        },
        {
          "indexed": true,
          "internalType": "bytes32",
          "name": "previousAdminRole",
          "type": "bytes32"
        },
        {
          "indexed": true,
          "internalType": "bytes32",
          "name": "newAdminRole",
          "type": "bytes32"
        }
      ],
      "name": "RoleAdminChanged",
      "type": "event"
    },
    {
      "anonymous": false,
      "inputs": [
        {
          "indexed": true,
          "internalType": "bytes32",
          "name": "role",
          "type": "bytes32"
        },
        {
          "indexed": true,
          "internalType": "address",
          "name": "account",
          "type": "address"
        },
        {
          "indexed": true,
          "internalType": "address",
          "name": "sender",
          "type": "address"
        }
      ],
      "name": "RoleGranted",
      "type": "event"
    },
    {
      "anonymous": false,
      "inputs": [
        {
          "indexed": true,
          "internalType": "bytes32",
          "name": "role",
          "type": "bytes32"
        },
        {
          "indexed": true,
          "internalType": "address",
          "name": "account",
          "type": "address"
        },
        {
          "indexed": true,
          "internalType": "address",
          "name": "sender",
          "type": "address"
        }
      ],
      "name": "RoleRevoked",
      "type": "event"
    },
    {
      "anonymous": false,
      "inputs": [
        {
          "indexed": true,
          "internalType": "address",
          "name": "signer",
          "type": "address"
        }
      ],
      "name": "SignerUpdatedEvent",
      "type": "event"
    },
    {
      "anonymous": false,
      "inputs": [
        {
          "indexed": true,
          "internalType": "address",
          "name": "solver",
          "type": "address"
        }
      ],
      "name": "SolverUpdatedEvent",
      "type": "event"
    },
    {
      "anonymous": false,
      "inputs": [
        {
          "indexed": true,
          "internalType": "address",
          "name": "newSymmioAddress",
          "type": "address"
        }
      ],
      "name": "SymmioAddressUpdatedEvent",
      "type": "event"
    },
    {
      "anonymous": false,
      "inputs": [
        {
          "indexed": false,
          "internalType": "address",
          "name": "account",
          "type": "address"
        }
      ],
      "name": "Unpaused",
      "type": "event"
    },
    {
      "anonymous": false,
      "inputs": [
        {
          "indexed": true,
          "internalType": "uint256",
          "name": "requestId",
          "type": "uint256"
        },
        {
          "indexed": true,
          "internalType": "address",
          "name": "receiver",
          "type": "address"
        }
      ],
      "name": "WithdrawClaimedEvent",
      "type": "event"
    },
    {
      "anonymous": false,
      "inputs": [
        {
          "indexed": false,
          "internalType": "uint256",
          "name": "providedAmount",
          "type": "uint256"
        },
        {
          "indexed": false,
          "internalType": "uint256[]",
          "name": "acceptedRequestIds",
          "type": "uint256[]"
        },
        {
          "indexed": false,
          "internalType": "uint256[]",
          "name": "_acceptedAmounts",
          "type": "uint256[]"
        }
      ],
      "name": "WithdrawRequestAcceptedEvent",
      "type": "event"
    },
    {
      "anonymous": false,
      "inputs": [
        {
          "indexed": true,
          "internalType": "uint256",
          "name": "requestId",
          "type": "uint256"
        }
      ],
      "name": "WithdrawRequestCanceled",
      "type": "event"
    },
    {
      "anonymous": false,
      "inputs": [
        {
          "indexed": true,
          "internalType": "uint256",
          "name": "requestId",
          "type": "uint256"
        },
        {
          "indexed": true,
          "internalType": "address",
          "name": "sender",
          "type": "address"
        },
        {
          "indexed": true,
          "internalType": "address",
          "name": "receiver",
          "type": "address"
        },
        {
          "indexed": false,
          "internalType": "uint256",
          "name": "amount",
          "type": "uint256"
        },
        {
          "indexed": false,
          "internalType": "uint256",
          "name": "nonce",
          "type": "uint256"
        }
      ],
      "name": "WithdrawRequestEvent",
      "type": "event"
    },
    {
      "anonymous": false,
      "inputs": [
        {
          "indexed": true,
          "internalType": "uint256",
          "name": "requestId",
          "type": "uint256"
        }
      ],
      "name": "WithdrawRequestRejected",
      "type": "event"
    },
    {
      "anonymous": false,
      "inputs": [
        {
          "indexed": false,
          "internalType": "uint256",
          "name": "withdrawalPeriod",
          "type": "uint256"
        }
      ],
      "name": "WithdrawalPeriodUpdate",
      "type": "event"
    },
    {
      "inputs": [],
      "name": "BALANCER_ROLE",
      "outputs": [
        {
          "internalType": "bytes32",
          "name": "",
          "type": "bytes32"
        }
      ],
      "stateMutability": "view",
      "type": "function"
    },
    {
      "inputs": [],
      "name": "DEFAULT_ADMIN_ROLE",
      "outputs": [
        {
          "internalType": "bytes32",
          "name": "",
          "type": "bytes32"
        }
      ],
      "stateMutability": "view",
      "type": "function"
    },
    {
      "inputs": [],
      "name": "MIN_PAYBACK_RATIO",
      "outputs": [
        {
          "internalType": "uint256",
          "name": "",
          "type": "uint256"
        }
      ],
      "stateMutability": "view",
      "type": "function"
    },
    {
      "inputs": [],
      "name": "PAUSER_ROLE",
      "outputs": [
        {
          "internalType": "bytes32",
          "name": "",
          "type": "bytes32"
        }
      ],
      "stateMutability": "view",
      "type": "function"
    },
    {
      "inputs": [],
      "name": "SETTER_ROLE",
      "outputs": [
        {
          "internalType": "bytes32",
          "name": "",
          "type": "bytes32"
        }
      ],
      "stateMutability": "view",
      "type": "function"
    },
    {
      "inputs": [],
      "name": "TYPE_HASH",
      "outputs": [
        {
          "internalType": "bytes32",
          "name": "",
          "type": "bytes32"
        }
      ],
      "stateMutability": "view",
      "type": "function"
    },
    {
      "inputs": [],
      "name": "UNPAUSER_ROLE",
      "outputs": [
        {
          "internalType": "bytes32",
          "name": "",
          "type": "bytes32"
        }
      ],
      "stateMutability": "view",
      "type": "function"
    },
    {
      "inputs": [
        {
          "internalType": "uint256",
          "name": "providedAmount",
          "type": "uint256"
        },
        {
          "internalType": "uint256[]",
          "name": "_acceptedRequestIds",
          "type": "uint256[]"
        },
        {
          "internalType": "uint256[]",
          "name": "_acceptedAmounts",
          "type": "uint256[]"
        }
      ],
      "name": "acceptWithdrawRequest",
      "outputs": [],
      "stateMutability": "nonpayable",
      "type": "function"
    },
    {
      "inputs": [
        {
          "internalType": "uint256",
          "name": "id",
          "type": "uint256"
        }
      ],
      "name": "cancelWithdrawRequest",
      "outputs": [],
      "stateMutability": "nonpayable",
      "type": "function"
    },
    {
      "inputs": [
        {
          "internalType": "uint256",
          "name": "requestId",
          "type": "uint256"
        }
      ],
      "name": "claimForWithdrawRequest",
      "outputs": [],
      "stateMutability": "nonpayable",
      "type": "function"
    },
    {
      "inputs": [],
      "name": "collateralTokenAddress",
      "outputs": [
        {
          "internalType": "address",
          "name": "",
          "type": "address"
        }
      ],
      "stateMutability": "view",
      "type": "function"
    },
    {
      "inputs": [],
      "name": "collateralTokenDecimals",
      "outputs": [
        {
          "internalType": "uint256",
          "name": "",
          "type": "uint256"
        }
      ],
      "stateMutability": "view",
      "type": "function"
    },
    {
      "inputs": [],
      "name": "currentDeposit",
      "outputs": [
        {
          "internalType": "uint256",
          "name": "",
          "type": "uint256"
        }
      ],
      "stateMutability": "view",
      "type": "function"
    },
    {
      "inputs": [
        {
          "internalType": "uint256",
          "name": "amount",
          "type": "uint256"
        }
      ],
      "name": "deposit",
      "outputs": [],
      "stateMutability": "nonpayable",
      "type": "function"
    },
    {
      "inputs": [],
      "name": "depositLimit",
      "outputs": [
        {
          "internalType": "uint256",
          "name": "",
          "type": "uint256"
        }
      ],
      "stateMutability": "view",
      "type": "function"
    },
    {
      "inputs": [],
      "name": "eip712Domain",
      "outputs": [
        {
          "internalType": "bytes1",
          "name": "fields",
          "type": "bytes1"
        },
        {
          "internalType": "string",
          "name": "name",
          "type": "string"
        },
        {
          "internalType": "string",
          "name": "version",
          "type": "string"
        },
        {
          "internalType": "uint256",
          "name": "chainId",
          "type": "uint256"
        },
        {
          "internalType": "address",
          "name": "verifyingContract",
          "type": "address"
        },
        {
          "internalType": "bytes32",
          "name": "salt",
          "type": "bytes32"
        },
        {
          "internalType": "uint256[]",
          "name": "extensions",
          "type": "uint256[]"
        }
      ],
      "stateMutability": "view",
      "type": "function"
    },
    {
      "inputs": [
        {
          "internalType": "bytes32",
          "name": "role",
          "type": "bytes32"
        }
      ],
      "name": "getRoleAdmin",
      "outputs": [
        {
          "internalType": "bytes32",
          "name": "",
          "type": "bytes32"
        }
      ],
      "stateMutability": "view",
      "type": "function"
    },
    {
      "inputs": [
        {
          "internalType": "bytes32",
          "name": "role",
          "type": "bytes32"
        },
        {
          "internalType": "uint256",
          "name": "index",
          "type": "uint256"
        }
      ],
      "name": "getRoleMember",
      "outputs": [
        {
          "internalType": "address",
          "name": "",
          "type": "address"
        }
      ],
      "stateMutability": "view",
      "type": "function"
    },
    {
      "inputs": [
        {
          "internalType": "bytes32",
          "name": "role",
          "type": "bytes32"
        }
      ],
      "name": "getRoleMemberCount",
      "outputs": [
        {
          "internalType": "uint256",
          "name": "",
          "type": "uint256"
        }
      ],
      "stateMutability": "view",
      "type": "function"
    },
    {
      "inputs": [
        {
          "internalType": "bytes32",
          "name": "role",
          "type": "bytes32"
        },
        {
          "internalType": "address",
          "name": "account",
          "type": "address"
        }
      ],
      "name": "grantRole",
      "outputs": [],
      "stateMutability": "nonpayable",
      "type": "function"
    },
    {
      "inputs": [
        {
          "internalType": "bytes32",
          "name": "role",
          "type": "bytes32"
        },
        {
          "internalType": "address",
          "name": "account",
          "type": "address"
        }
      ],
      "name": "hasRole",
      "outputs": [
        {
          "internalType": "bool",
          "name": "",
          "type": "bool"
        }
      ],
      "stateMutability": "view",
      "type": "function"
    },
    {
      "inputs": [
        {
          "internalType": "address",
          "name": "_symmioAddress",
          "type": "address"
        },
        {
          "internalType": "address",
          "name": "_solver",
          "type": "address"
        },
        {
          "internalType": "address",
          "name": "_signer",
          "type": "address"
        },
        {
          "internalType": "uint256",
          "name": "_depositLimit",
          "type": "uint256"
        }
      ],
      "name": "initialize",
      "outputs": [],
      "stateMutability": "nonpayable",
      "type": "function"
    },
    {
      "inputs": [],
      "name": "lockedBalance",
      "outputs": [
        {
          "internalType": "uint256",
          "name": "",
          "type": "uint256"
        }
      ],
      "stateMutability": "view",
      "type": "function"
    },
    {
      "inputs": [],
      "name": "pause",
      "outputs": [],
      "stateMutability": "nonpayable",
      "type": "function"
    },
    {
      "inputs": [],
      "name": "paused",
      "outputs": [
        {
          "internalType": "bool",
          "name": "",
          "type": "bool"
        }
      ],
      "stateMutability": "view",
      "type": "function"
    },
    {
      "inputs": [
        {
          "internalType": "address",
          "name": "",
          "type": "address"
        }
      ],
      "name": "pendingWithdrawalAmount",
      "outputs": [
        {
          "internalType": "uint256",
          "name": "",
          "type": "uint256"
        }
      ],
      "stateMutability": "view",
      "type": "function"
    },
    {
      "inputs": [
        {
          "internalType": "uint256",
          "name": "id",
          "type": "uint256"
        }
      ],
      "name": "rejectWithdrawRequest",
      "outputs": [],
      "stateMutability": "nonpayable",
      "type": "function"
    },
    {
      "inputs": [
        {
          "internalType": "bytes32",
          "name": "role",
          "type": "bytes32"
        },
        {
          "internalType": "address",
          "name": "account",
          "type": "address"
        }
      ],
      "name": "renounceRole",
      "outputs": [],
      "stateMutability": "nonpayable",
      "type": "function"
    },
    {
      "inputs": [
        {
          "internalType": "uint256",
          "name": "amount",
          "type": "uint256"
        },
        {
          "internalType": "uint256",
          "name": "minAmountOut",
          "type": "uint256"
        },
        {
          "internalType": "address",
          "name": "receiver",
          "type": "address"
        },
        {
          "internalType": "uint256",
          "name": "nonce",
          "type": "uint256"
        },
        {
          "internalType": "uint256",
          "name": "deadline",
          "type": "uint256"
        },
        {
          "internalType": "bytes",
          "name": "signature",
          "type": "bytes"
        }
      ],
      "name": "requestWithdraw",
      "outputs": [],
      "stateMutability": "nonpayable",
      "type": "function"
    },
    {
      "inputs": [
        {
          "internalType": "bytes32",
          "name": "role",
          "type": "bytes32"
        },
        {
          "internalType": "address",
          "name": "account",
          "type": "address"
        }
      ],
      "name": "revokeRole",
      "outputs": [],
      "stateMutability": "nonpayable",
      "type": "function"
    },
    {
      "inputs": [
        {
          "internalType": "uint256",
          "name": "_depositLimit",
          "type": "uint256"
        }
      ],
      "name": "setDepositLimit",
      "outputs": [],
      "stateMutability": "nonpayable",
      "type": "function"
    },
    {
      "inputs": [
        {
          "internalType": "address",
          "name": "_signer",
          "type": "address"
        }
      ],
      "name": "setSigner",
      "outputs": [],
      "stateMutability": "nonpayable",
      "type": "function"
    },
    {
      "inputs": [
        {
          "internalType": "address",
          "name": "_solver",
          "type": "address"
        }
      ],
      "name": "setSolver",
      "outputs": [],
      "stateMutability": "nonpayable",
      "type": "function"
    },
    {
      "inputs": [
        {
          "internalType": "address",
          "name": "_symmioAddress",
          "type": "address"
        }
      ],
      "name": "setSymmioAddress",
      "outputs": [],
      "stateMutability": "nonpayable",
      "type": "function"
    },
    {
      "inputs": [
        {
          "internalType": "uint256",
          "name": "withdrawalPeriod_",
          "type": "uint256"
        }
      ],
      "name": "setWithdrawalPeriod",
      "outputs": [],
      "stateMutability": "nonpayable",
      "type": "function"
    },
    {
      "inputs": [],
      "name": "signer",
      "outputs": [
        {
          "internalType": "address",
          "name": "",
          "type": "address"
        }
      ],
      "stateMutability": "view",
      "type": "function"
    },
    {
      "inputs": [],
      "name": "solver",
      "outputs": [
        {
          "internalType": "address",
          "name": "",
          "type": "address"
        }
      ],
      "stateMutability": "view",
      "type": "function"
    },
    {
      "inputs": [
        {
          "internalType": "bytes4",
          "name": "interfaceId",
          "type": "bytes4"
        }
      ],
      "name": "supportsInterface",
      "outputs": [
        {
          "internalType": "bool",
          "name": "",
          "type": "bool"
        }
      ],
      "stateMutability": "view",
      "type": "function"
    },
    {
      "inputs": [],
      "name": "symmio",
      "outputs": [
        {
          "internalType": "contract ISymmio",
          "name": "",
          "type": "address"
        }
      ],
      "stateMutability": "view",
      "type": "function"
    },
    {
      "inputs": [],
      "name": "unpause",
      "outputs": [],
      "stateMutability": "nonpayable",
      "type": "function"
    },
    {
      "inputs": [
        {
          "internalType": "address",
          "name": "",
          "type": "address"
        },
        {
          "internalType": "uint256",
          "name": "",
          "type": "uint256"
        }
      ],
      "name": "usedNonces",
      "outputs": [
        {
          "internalType": "bool",
          "name": "",
          "type": "bool"
        }
      ],
      "stateMutability": "view",
      "type": "function"
    },
    {
      "inputs": [
        {
          "internalType": "address",
          "name": "receiver",
          "type": "address"
        },
        {
          "internalType": "uint256",
          "name": "amount",
          "type": "uint256"
        }
      ],
      "name": "withdrawNotLockedCollateralTokens",
      "outputs": [],
      "stateMutability": "nonpayable",
      "type": "function"
    },
    {
      "inputs": [
        {
          "internalType": "uint256",
          "name": "",
          "type": "uint256"
        }
      ],
      "name": "withdrawRequests",
      "outputs": [
        {
          "internalType": "address",
          "name": "receiver",
          "type": "address"
        },
        {
          "internalType": "address",
          "name": "sender",
          "type": "address"
        },
        {
          "internalType": "uint256",
          "name": "amount",
          "type": "uint256"
        },
        {
          "internalType": "uint256",
          "name": "minAmountOut",
          "type": "uint256"
        },
        {
          "internalType": "enum IOnChainSymmioVault.RequestStatus",
          "name": "status",
          "type": "uint8"
        },
        {
          "internalType": "uint256",
          "name": "acceptedAmount",
          "type": "uint256"
        },
        {
          "internalType": "uint256",
          "name": "acceptedWithdrawRequestTimestamp",
          "type": "uint256"
        },
        {
          "internalType": "uint256",
          "name": "claimableAt",
          "type": "uint256"
        }
      ],
      "stateMutability": "view",
      "type": "function"
    },
    {
      "inputs": [],
      "name": "withdrawalPeriod",
      "outputs": [
        {
          "internalType": "uint256",
          "name": "",
          "type": "uint256"
        }
      ],
      "stateMutability": "view",
      "type": "function"
    }
  ],
  "bytecode": "0x6080604052348015600f57600080fd5b506016601a565b60d7565b600054610100900460ff161560855760405162461bcd60e51b815260206004820152602760248201527f496e697469616c697a61626c653a20636f6e747261637420697320696e697469604482015266616c697a696e6760c81b606482015260840160405180910390fd5b60005460ff9081161460d5576000805460ff191660ff9081179091556040519081527f7f26b83ff96e1f2b6a682f133852f6798a09c465da95921460cefb38474024989060200160405180910390a15b565b614399806100e66000396000f3fe608060405234801561001057600080fd5b50600436106102f45760003560e01c806384b0196e11610191578063bdc8144b116100e3578063deaf30b211610097578063ecf7085811610071578063ecf70858146106c0578063f36fbab7146106ca578063fb1bb9de146106dd57600080fd5b8063deaf30b21461066e578063e63ab1e91461068f578063e94b2f44146106b657600080fd5b8063cce4705b116100c8578063cce4705b14610635578063cf756fdf14610648578063d547741f1461065b57600080fd5b8063bdc8144b1461060f578063ca15c8731461062257600080fd5b8063992a7dfb11610145578063b54790d81161011f578063b54790d8146105e8578063b6b55f25146105f2578063bca7093d1461060557600080fd5b8063992a7dfb14610592578063a2011b3f146105b9578063a217fddf146105e057600080fd5b80639010d07c116101765780639010d07c1461053357806391d1485414610546578063973b294f1461057f57600080fd5b806384b0196e1461050557806386da03231461052057600080fd5b80635849b93d1161024a5780636d9dd201116101fe57806381548fed116101d857806381548fed146104d75780638456cb59146104ea578063849fc72b146104f257600080fd5b80636d9dd201146104aa5780637b80889b146104be5780637b9f7d94146104c857600080fd5b806364d4c8191161022f57806364d4c819146104415780636a8a6894146104685780636c19e7831461049757600080fd5b80635849b93d146104225780635c975abb1461043657600080fd5b8063248a9ca3116102ac57806336568abe1161028657806336568abe146103f35780633f4ba83a1461040657806349a7a26d1461040e57600080fd5b8063248a9ca3146103885780632f2ff15d146103b957806330d3c534146103cc57600080fd5b806301ffc9a7116102dd57806301ffc9a7146103215780631f87943314610349578063238ac9331461035c57600080fd5b806301228e15146102f957806301569e3a1461030e575b600080fd5b61030c610307366004613c01565b610704565b005b61030c61031c366004613c88565b610c4a565b61033461032f366004613ca5565b610de0565b60405190151581526020015b60405180910390f35b61030c610357366004613c88565b610e3c565b61016354610370906001600160a01b031681565b6040516001600160a01b039091168152602001610340565b6103ab610396366004613ce7565b60009081526065602052604090206001015490565b604051908152602001610340565b61030c6103c7366004613d00565b610f21565b6103ab7f372387bd01807b923229b5bd1e46f8a6b8815b5d5db581db3e993c5168467b2781565b61030c610401366004613d00565b610f4b565b61030c610fd7565b61016254610370906001600160a01b031681565b61016154610370906001600160a01b031681565b60c95460ff16610334565b6103ab7fb1dd0bed30d3b8ab9fc76313ecb7db14f6b497d5f1f7859fa5cb5811c1ca307381565b610334610476366004613d30565b61016c60209081526000928352604080842090915290825290205460ff1681565b61030c6104a5366004613c88565b61100c565b61016454610370906001600160a01b031681565b6103ab6101655481565b6103ab6706f05b59d3b2000081565b61030c6104e5366004613ce7565b6110f1565b61030c6112b1565b61030c610500366004613d5c565b6112e3565b61050d6116b4565b6040516103409796959493929190613eba565b61030c61052e366004613ce7565b611776565b610370610541366004613f44565b61199c565b610334610554366004613d00565b60009182526065602090815260408084206001600160a01b0393909316845291905290205460ff1690565b61030c61058d366004613ce7565b6119bb565b6105a56105a0366004613ce7565b6119ee565b604051610340989796959493929190613f7c565b6103ab7f61c92169ef077349011ff0b1383c894d86c5f0b41d986366b58a6cf31e93beda81565b6103ab600081565b6103ab6101685481565b61030c610600366004613ce7565b611a55565b6103ab61016a5481565b61030c61061d366004613ce7565b611cb7565b6103ab610630366004613ce7565b611d1e565b61030c610643366004613ce7565b611d35565b61030c610656366004613fe6565b611f49565b61030c610669366004613d00565b612150565b6103ab61067c366004613c88565b61016b6020526000908152604090205481565b6103ab7f65d7a28e3265b37a6474929f336521b332c1681b933f6cb9f3376673440d862a81565b6103ab6101675481565b6103ab6101665481565b61030c6106d8366004613d30565b612175565b6103ab7f427da25fe773164f88948d3e215c94b6554e2ed5e5f203a821c9f2f6131cf75a81565b7f372387bd01807b923229b5bd1e46f8a6b8815b5d5db581db3e993c5168467b2761072e816123be565b6107366123c8565b61074f33610164546001600160a01b031690308761241d565b6101655460005b8451811015610b0657600085828151811061077357610773614037565b602002602001015190506101698054905081106107e95760405162461bcd60e51b815260206004820152602960248201527f53796d6d696f536f6c7665724465706f7369746f723a20496e76616c69642072604482015268195c5d595cdd08125160ba1b60648201526084015b60405180910390fd5b600061016982815481106107ff576107ff614037565b60009182526020909120600460089092020181015460ff169081111561082757610827613f66565b1461089a5760405162461bcd60e51b815260206004820152602f60248201527f53796d6d696f536f6c7665724465706f7369746f723a20496e76616c6964206160448201527f636365707465642072657175657374000000000000000000000000000000000060648201526084016107e0565b60008583815181106108ae576108ae614037565b6020026020010151905061016982815481106108cc576108cc614037565b906000526020600020906008020160030154811015610955576040805162461bcd60e51b81526020600482015260248101919091527f53796d6d696f536f6c7665724465706f7369746f723a205061796261636b207260448201527f6174696f20697320746f6f206c6f7720666f722074686973207265717565737460648201526084016107e0565b61095f8185614063565b9350610169828154811061097557610975614037565b90600052602060002090600802016002015461016760008282546109999190614076565b92505081905550600161016983815481106109b6576109b6614037565b906000526020600020906008020160040160006101000a81548160ff021916908360048111156109e8576109e8613f66565b0217905550806101698381548110610a0257610a02614037565b906000526020600020906008020160050181905550426101698381548110610a2c57610a2c614037565b600091825260209091206006600890920201015561016a54610a4e9042614063565b6101698381548110610a6257610a62614037565b9060005260206000209060080201600701819055506101698281548110610a8b57610a8b614037565b90600052602060002090600802016002015461016b60006101698581548110610ab657610ab6614037565b60009182526020808320600160089093020191909101546001600160a01b0316835282019290925260400181208054909190610af3908490614076565b9091555050600190920191506107569050565b50610164546040517f70a0823100000000000000000000000000000000000000000000000000000000815230600482015282916001600160a01b0316906370a0823190602401602060405180830381865afa158015610b69573d6000803e3d6000fd5b505050506040513d601f19601f82011682018060405250810190610b8d9190614089565b1015610c015760405162461bcd60e51b815260206004820152603460248201527f53796d6d696f536f6c7665724465706f7369746f723a20496e7375666669636960448201527f656e7420636f6e74726163742062616c616e636500000000000000000000000060648201526084016107e0565b6101658190556040517f2a6e9b91b054f05821c68f8fbd6354e6a1b29a9ad492bf0f81e04cd591ed5b1690610c3b908790879087906140a2565b60405180910390a15050505050565b7f61c92169ef077349011ff0b1383c894d86c5f0b41d986366b58a6cf31e93beda610c74816123be565b6001600160a01b038216610cd65760405162461bcd60e51b815260206004820152602360248201527f53796d6d696f536f6c7665724465706f7369746f723a205a65726f206164647260448201526265737360e81b60648201526084016107e0565b610161805473ffffffffffffffffffffffffffffffffffffffff19166001600160a01b03848116919091179091556101645416610d116124d4565b610164546001600160a01b0382811691161480610d3557506001600160a01b038116155b610da75760405162461bcd60e51b815260206004820152603460248201527f53796d6d696f536f6c7665724465706f7369746f723a20436f6c6c617465726160448201527f6c2063616e206e6f74206265206368616e67656400000000000000000000000060648201526084016107e0565b6040516001600160a01b038416907fe5af12e9abb914276d8e0a5a01aa97d26f4c81e3002646f90824c2063953104490600090a2505050565b60007fffffffff0000000000000000000000000000000000000000000000000000000082167f5a05180f000000000000000000000000000000000000000000000000000000001480610e365750610e3682612696565b92915050565b7f61c92169ef077349011ff0b1383c894d86c5f0b41d986366b58a6cf31e93beda610e66816123be565b6001600160a01b038216610ec85760405162461bcd60e51b815260206004820152602360248201527f53796d6d696f536f6c7665724465706f7369746f723a205a65726f206164647260448201526265737360e81b60648201526084016107e0565b610162805473ffffffffffffffffffffffffffffffffffffffff19166001600160a01b0384169081179091556040517f73c48e8c0360f51d3049faa15518d29248fbad9e77ad28ad94bcd1712854ca9b90600090a25050565b600082815260656020526040902060010154610f3c816123be565b610f46838361272d565b505050565b6001600160a01b0381163314610fc95760405162461bcd60e51b815260206004820152602f60248201527f416363657373436f6e74726f6c3a2063616e206f6e6c792072656e6f756e636560448201527f20726f6c657320666f722073656c66000000000000000000000000000000000060648201526084016107e0565b610fd3828261274f565b5050565b7f427da25fe773164f88948d3e215c94b6554e2ed5e5f203a821c9f2f6131cf75a611001816123be565b611009612771565b50565b7f61c92169ef077349011ff0b1383c894d86c5f0b41d986366b58a6cf31e93beda611036816123be565b6001600160a01b0382166110985760405162461bcd60e51b815260206004820152602360248201527f53796d6d696f536f6c7665724465706f7369746f723a205a65726f206164647260448201526265737360e81b60648201526084016107e0565b610163805473ffffffffffffffffffffffffffffffffffffffff19166001600160a01b0384169081179091556040517f93d2bd623fe74229d9510c70ec2da10109749943db6d68437555a01b1844beae90600090a25050565b7f372387bd01807b923229b5bd1e46f8a6b8815b5d5db581db3e993c5168467b2761111b816123be565b6111236123c8565b6101695482106111875760405162461bcd60e51b815260206004820152602960248201527f53796d6d696f536f6c7665724465706f7369746f723a20496e76616c69642072604482015268195c5d595cdd08125160ba1b60648201526084016107e0565b6000610169838154811061119d5761119d614037565b600091825260208220600890910201915060048083015460ff16908111156111c7576111c7613f66565b1461123a5760405162461bcd60e51b815260206004820152602560248201527f53796d6d696f536f6c7665724465706f7369746f723a20496e76616c6964207360448201527f746174757300000000000000000000000000000000000000000000000000000060648201526084016107e0565b6004818101805460ff19169091179055600281015460018201546001600160a01b0316600090815261016b60205260408120805490919061127c908490614076565b909155505060405183907ff12d2a5d8b37ba59b2fa12dedca1d420ee1c5da121eb1878497bc1d29076b5c090600090a2505050565b7f65d7a28e3265b37a6474929f336521b332c1681b933f6cb9f3376673440d862a6112db816123be565b6110096127c3565b6112eb6123c8565b6001600160a01b0384166113675760405162461bcd60e51b815260206004820152603060248201527f53796d6d696f536f6c7665724465706f7369746f723a205a65726f206164647260448201527f65737320666f722072656365697665720000000000000000000000000000000060648201526084016107e0565b4282116113dc5760405162461bcd60e51b815260206004820152603560248201527f53796d6d696f536f6c7665724465706f7369746f723a20446561646c696e652060448201527f6d75737420626520696e2074686520667574757265000000000000000000000060648201526084016107e0565b6001600160a01b038416600090815261016c6020908152604080832086845290915290205460ff16156114775760405162461bcd60e51b815260206004820152602960248201527f53796d6d696f536f6c7665724465706f7369746f723a204e6f6e636520616c7260448201527f656164792075736564000000000000000000000000000000000000000000000060648201526084016107e0565b611485868686868686612800565b6114f75760405162461bcd60e51b815260206004820152602860248201527f53796d6d696f536f6c7665724465706f7369746f723a20496e76616c6964207360448201527f69676e617475726500000000000000000000000000000000000000000000000060648201526084016107e0565b6001600160a01b038416600081815261016c60209081526040808320878452825291829020805460ff19166001179055815161010081019092529181526101699181016115413390565b6001600160a01b031681526020810189905260408101889052606001600081526000602080830182905260408084018390526060938401839052855460018082018855968452928290208551600890940201805473ffffffffffffffffffffffffffffffffffffffff199081166001600160a01b039586161782559286015181880180549094169416939093179091558301516002820155908201516003820155608082015160048083018054949593949293909260ff191691849081111561160c5761160c613f66565b021790555060a0820151600582015560c0820151600682015560e09091015160079091015533600090815261016b602052604081208054889290611651908490614063565b9091555050610169546001600160a01b03851690339061167390600190614076565b604080518a8152602081018890527f0766e8c55dde32095d8c203180e4f32c7407c445e0a87007877162126d257b25910160405180910390a4505050505050565b60006060806000806000606060fb546000801b1480156116d4575060fc54155b6117205760405162461bcd60e51b815260206004820152601560248201527f4549503731323a20556e696e697469616c697a6564000000000000000000000060448201526064016107e0565b6117286128a8565b61173061293a565b604080516000808252602082019092527f0f000000000000000000000000000000000000000000000000000000000000009b939a50919850469750309650945092509050565b61177e6123c8565b6101695481106117e25760405162461bcd60e51b815260206004820152602960248201527f53796d6d696f536f6c7665724465706f7369746f723a20496e76616c69642072604482015268195c5d595cdd08125160ba1b60648201526084016107e0565b600061016982815481106117f8576117f8614037565b600091825260209091206008909102019050600160048083015460ff169081111561182557611825613f66565b146118985760405162461bcd60e51b815260206004820152603760248201527f53796d6d696f536f6c7665724465706f7369746f723a2052657175657374206e60448201527f6f7420726561647920666f72207769746864726177616c00000000000000000060648201526084016107e0565b42816007015411156119125760405162461bcd60e51b815260206004820152603960248201527f53796d6d696f536f6c7665724465706f7369746f723a2052657175657374206e60448201527f6f742070617373207769746864726177616c20706572696f640000000000000060648201526084016107e0565b60048101805460ff191660021790556005810154610165805482919060009061193c908490614076565b909155505081546101645461195e916001600160a01b03918216911683612949565b81546040516001600160a01b039091169084907f4ce122b005e10b197f4caf028d92e008a684c370ad8f93528e07ded8214240e190600090a3505050565b60008281526097602052604081206119b49083612992565b9392505050565b7f61c92169ef077349011ff0b1383c894d86c5f0b41d986366b58a6cf31e93beda6119e5816123be565b610fd38261299e565b61016981815481106119ff57600080fd5b6000918252602090912060089091020180546001820154600283015460038401546004850154600586015460068701546007909701546001600160a01b03968716985094909516959294919360ff909116929088565b611a5d6123c8565b611a656129da565b60008111611adb5760405162461bcd60e51b815260206004820152603460248201527f53796d6d696f536f6c7665724465706f7369746f723a20416d6f756e74206d7560448201527f73742062652067726561746572207468616e203000000000000000000000000060648201526084016107e0565b610166548161016754611aee9190614063565b1115611b625760405162461bcd60e51b815260206004820152602c60248201527f53796d6d696f536f6c7665724465706f7369746f723a204465706f736974206c60448201527f696d69742072656163686564000000000000000000000000000000000000000060648201526084016107e0565b610164546001600160a01b0316611b7b8133308561241d565b816101676000828254611b8e9190614063565b909155505060405182815233907fe1fffcc4923d04b559f4d29a8bfc6cda04eb5b0d3c460751c2402c5c5cc9109c9060200160405180910390a261016154611be3906001600160a01b03838116911684612a35565b61016154610162546040517f2f4f21e20000000000000000000000000000000000000000000000000000000081526001600160a01b03918216600482015260248101859052911690632f4f21e290604401600060405180830381600087803b158015611c4e57600080fd5b505af1158015611c62573d6000803e3d6000fd5b5050610162546040518581526001600160a01b0390911692503391507f42a31d51415a86588240e32bf72025c881c4c9aada6e283ce50dc32f5a64717b9060200160405180910390a350611009600161012f55565b7f61c92169ef077349011ff0b1383c894d86c5f0b41d986366b58a6cf31e93beda611ce1816123be565b6101668290556040518281527fa1b2ac18b42a8ccd9c95e39420259ed780b3f6d890e5ecd36af7a4dc570348ff9060200160405180910390a15050565b6000818152609760205260408120610e3690612b13565b611d3d6123c8565b610169548110611da15760405162461bcd60e51b815260206004820152602960248201527f53796d6d696f536f6c7665724465706f7369746f723a20496e76616c69642072604482015268195c5d595cdd08125160ba1b60648201526084016107e0565b60006101698281548110611db757611db7614037565b90600052602060002090600802019050611dce3390565b60018201546001600160a01b03908116911614611e535760405162461bcd60e51b815260206004820152603f60248201527f53796d6d696f536f6c7665724465706f7369746f723a204f6e6c79207468652060448201527f73656e646572206f6620726571756573742063616e2063616e63656c2069740060648201526084016107e0565b600060048083015460ff1690811115611e6e57611e6e613f66565b14611ee15760405162461bcd60e51b815260206004820152602560248201527f53796d6d696f536f6c7665724465706f7369746f723a20496e76616c6964207360448201527f746174757300000000000000000000000000000000000000000000000000000060648201526084016107e0565b60048101805460ff19166003179055600281015433600090815261016b602052604081208054909190611f15908490614076565b909155505060405182907f8f3015a84bd69b67997edb78d8928ad670dcb6243df596529ae1e07f93eaf35a90600090a25050565b600054610100900460ff1615808015611f695750600054600160ff909116105b80611f835750303b158015611f83575060005460ff166001145b611ff55760405162461bcd60e51b815260206004820152602e60248201527f496e697469616c697a61626c653a20636f6e747261637420697320616c72656160448201527f647920696e697469616c697a656400000000000000000000000000000000000060648201526084016107e0565b6000805460ff191660011790558015612018576000805461ff0019166101001790555b612020612b1d565b612028612b90565b612030612bfb565b6120a46040518060400160405280601481526020017f4f6e436861696e53796d6d696f5661756c7456320000000000000000000000008152506040518060400160405280600181526020017f3100000000000000000000000000000000000000000000000000000000000000815250612c6e565b6120af60003361272d565b6120d97f61c92169ef077349011ff0b1383c894d86c5f0b41d986366b58a6cf31e93beda3361272d565b6120e285610c4a565b6120eb84610e3c565b6120f482611cb7565b6120fd8361100c565b612107606461299e565b8015612149576000805461ff0019169055604051600181527f7f26b83ff96e1f2b6a682f133852f6798a09c465da95921460cefb384740249890602001610c3b565b5050505050565b60008281526065602052604090206001015461216b816123be565b610f46838361274f565b7f372387bd01807b923229b5bd1e46f8a6b8815b5d5db581db3e993c5168467b2761219f816123be565b6121a76123c8565b6001600160a01b0383166122235760405162461bcd60e51b815260206004820152603060248201527f53796d6d696f536f6c7665724465706f7369746f723a205a65726f206164647260448201527f65737320666f722072656365697665720000000000000000000000000000000060648201526084016107e0565b600082116122995760405162461bcd60e51b815260206004820152603460248201527f53796d6d696f536f6c7665724465706f7369746f723a20416d6f756e74206d7560448201527f73742062652067726561746572207468616e203000000000000000000000000060648201526084016107e0565b610164546040517f70a082310000000000000000000000000000000000000000000000000000000081523060048201526001600160a01b039091169060009082906370a0823190602401602060405180830381865afa158015612300573d6000803e3d6000fd5b505050506040513d601f19601f820116820180604052508101906123249190614089565b905061016554816123359190614076565b8411156123aa5760405162461bcd60e51b815260206004820152602b60248201527f53796d6d696f536f6c7665724465706f7369746f723a20496e7375666669636960448201527f656e742062616c616e636500000000000000000000000000000000000000000060648201526084016107e0565b6121496001600160a01b0383168686612949565b6110098133612ce3565b60c95460ff161561241b5760405162461bcd60e51b815260206004820152601060248201527f5061757361626c653a207061757365640000000000000000000000000000000060448201526064016107e0565b565b6040516001600160a01b03808516602483015283166044820152606481018290526124ce9085907f23b872dd00000000000000000000000000000000000000000000000000000000906084015b60408051601f198184030181529190526020810180517bffffffffffffffffffffffffffffffffffffffffffffffffffffffff167fffffffff0000000000000000000000000000000000000000000000000000000090931692909217909152612d58565b50505050565b61016160009054906101000a90046001600160a01b03166001600160a01b0316635c1548fb6040518163ffffffff1660e01b8152600401602060405180830381865afa158015612528573d6000803e3d6000fd5b505050506040513d601f19601f8201168201806040525081019061254c91906140cd565b610164805473ffffffffffffffffffffffffffffffffffffffff19166001600160a01b03929092169182179055604080517f313ce567000000000000000000000000000000000000000000000000000000008152905163313ce567916004808201926020929091908290030181865afa1580156125cd573d6000803e3d6000fd5b505050506040513d601f19601f820116820180604052508101906125f191906140ea565b60ff166101688190556012101561241b5760405162461bcd60e51b815260206004820152604e60248201527f53796d6d696f536f6c7665724465706f7369746f723a20436f6c6c617465726160448201527f6c20646563696d616c732073686f756c64206265206c6f776572207468616e2060648201527f6f7220657175616c20746f203138000000000000000000000000000000000000608482015260a4016107e0565b60007fffffffff0000000000000000000000000000000000000000000000000000000082167f7965db0b000000000000000000000000000000000000000000000000000000001480610e3657507f01ffc9a7000000000000000000000000000000000000000000000000000000007fffffffff00000000000000000000000000000000000000000000000000000000831614610e36565b6127378282612e40565b6000828152609760205260409020610f469082612ee2565b6127598282612ef7565b6000828152609760205260409020610f469082612f7a565b612779612f8f565b60c9805460ff191690557f5db9ee0a495bf2e6ff9c91a7834c1ba4fdd244a5e8aa4e537bd38aeae4b073aa335b6040516001600160a01b03909116815260200160405180910390a1565b6127cb6123c8565b60c9805460ff191660011790557f62e78cea01bee320cd4e420270b5ea74000d11b0c9f74754ebdbfc544b05a2586127a63390565b604080517fb1dd0bed30d3b8ab9fc76313ecb7db14f6b497d5f1f7859fa5cb5811c1ca30736020820152908101879052606081018690526001600160a01b038516608082015260a0810184905260c08101839052600090819061287b9060e00160405160208183030381529060405280519060200120612fe1565b905060006128898285613029565b610163546001600160a01b039182169116149998505050505050505050565b606060fd80546128b79061410d565b80601f01602080910402602001604051908101604052809291908181526020018280546128e39061410d565b80156129305780601f1061290557610100808354040283529160200191612930565b820191906000526020600020905b81548152906001019060200180831161291357829003601f168201915b5050505050905090565b606060fe80546128b79061410d565b6040516001600160a01b038316602482015260448101829052610f469084907fa9059cbb000000000000000000000000000000000000000000000000000000009060640161246a565b60006119b4838361304d565b61016a8190556040518181527f699d7bc1fd2d92f6912f04b6a309ef25ec3937479e80cdc04b75f234a724e9a29060200160405180910390a150565b600261012f5403612a2d5760405162461bcd60e51b815260206004820152601f60248201527f5265656e7472616e637947756172643a207265656e7472616e742063616c6c0060448201526064016107e0565b600261012f55565b604080516001600160a01b038416602482015260448082018490528251808303909101815260649091019091526020810180517bffffffffffffffffffffffffffffffffffffffffffffffffffffffff167f095ea7b300000000000000000000000000000000000000000000000000000000179052612ab48482613077565b6124ce576040516001600160a01b038416602482015260006044820152612b019085907f095ea7b3000000000000000000000000000000000000000000000000000000009060640161246a565b6124ce8482612d58565b600161012f55565b6000610e36825490565b600054610100900460ff16612b885760405162461bcd60e51b815260206004820152602b60248201527f496e697469616c697a61626c653a20636f6e7472616374206973206e6f74206960448201526a6e697469616c697a696e6760a81b60648201526084016107e0565b61241b61311e565b600054610100900460ff1661241b5760405162461bcd60e51b815260206004820152602b60248201527f496e697469616c697a61626c653a20636f6e7472616374206973206e6f74206960448201526a6e697469616c697a696e6760a81b60648201526084016107e0565b600054610100900460ff16612c665760405162461bcd60e51b815260206004820152602b60248201527f496e697469616c697a61626c653a20636f6e7472616374206973206e6f74206960448201526a6e697469616c697a696e6760a81b60648201526084016107e0565b61241b613189565b600054610100900460ff16612cd95760405162461bcd60e51b815260206004820152602b60248201527f496e697469616c697a61626c653a20636f6e7472616374206973206e6f74206960448201526a6e697469616c697a696e6760a81b60648201526084016107e0565b610fd38282613200565b60008281526065602090815260408083206001600160a01b038516845290915290205460ff16610fd357612d1681613293565b612d218360206132a5565b604051602001612d32929190614147565b60408051601f198184030181529082905262461bcd60e51b82526107e0916004016141c8565b6000612dad826040518060400160405280602081526020017f5361666545524332303a206c6f772d6c6576656c2063616c6c206661696c6564815250856001600160a01b03166134ce9092919063ffffffff16565b9050805160001480612dce575080806020019051810190612dce91906141db565b610f465760405162461bcd60e51b815260206004820152602a60248201527f5361666545524332303a204552433230206f7065726174696f6e20646964206e60448201527f6f7420737563636565640000000000000000000000000000000000000000000060648201526084016107e0565b60008281526065602090815260408083206001600160a01b038516845290915290205460ff16610fd35760008281526065602090815260408083206001600160a01b03851684529091529020805460ff19166001179055612e9e3390565b6001600160a01b0316816001600160a01b0316837f2f8788117e7eff1d82e926ec794901d17c78024a50270940304540a733656f0d60405160405180910390a45050565b60006119b4836001600160a01b0384166134e5565b60008281526065602090815260408083206001600160a01b038516845290915290205460ff1615610fd35760008281526065602090815260408083206001600160a01b0385168085529252808320805460ff1916905551339285917ff6391f5c32d9c69d2a47ea670b442974b53935d1edc7fd64eb21e047a839171b9190a45050565b60006119b4836001600160a01b038416613534565b60c95460ff1661241b5760405162461bcd60e51b815260206004820152601460248201527f5061757361626c653a206e6f742070617573656400000000000000000000000060448201526064016107e0565b6000610e36612fee613627565b836040517f19010000000000000000000000000000000000000000000000000000000000008152600281019290925260228201526042902090565b60008060006130388585613636565b915091506130458161367b565b509392505050565b600082600001828154811061306457613064614037565b9060005260206000200154905092915050565b6000806000846001600160a01b03168460405161309491906141fd565b6000604051808303816000865af19150503d80600081146130d1576040519150601f19603f3d011682016040523d82523d6000602084013e6130d6565b606091505b509150915081801561310057508051158061310057508080602001905181019061310091906141db565b801561311557506001600160a01b0385163b15155b95945050505050565b600054610100900460ff16612b0b5760405162461bcd60e51b815260206004820152602b60248201527f496e697469616c697a61626c653a20636f6e7472616374206973206e6f74206960448201526a6e697469616c697a696e6760a81b60648201526084016107e0565b600054610100900460ff166131f45760405162461bcd60e51b815260206004820152602b60248201527f496e697469616c697a61626c653a20636f6e7472616374206973206e6f74206960448201526a6e697469616c697a696e6760a81b60648201526084016107e0565b60c9805460ff19169055565b600054610100900460ff1661326b5760405162461bcd60e51b815260206004820152602b60248201527f496e697469616c697a61626c653a20636f6e7472616374206973206e6f74206960448201526a6e697469616c697a696e6760a81b60648201526084016107e0565b60fd6132778382614260565b5060fe6132848282614260565b5050600060fb81905560fc5550565b6060610e366001600160a01b03831660145b606060006132b483600261431f565b6132bf906002614063565b67ffffffffffffffff8111156132d7576132d7613b37565b6040519080825280601f01601f191660200182016040528015613301576020820181803683370190505b5090507f30000000000000000000000000000000000000000000000000000000000000008160008151811061333857613338614037565b60200101907effffffffffffffffffffffffffffffffffffffffffffffffffffffffffffff1916908160001a9053507f78000000000000000000000000000000000000000000000000000000000000008160018151811061339b5761339b614037565b60200101907effffffffffffffffffffffffffffffffffffffffffffffffffffffffffffff1916908160001a90535060006133d784600261431f565b6133e2906001614063565b90505b600181111561347f577f303132333435363738396162636465660000000000000000000000000000000085600f166010811061342357613423614037565b1a60f81b82828151811061343957613439614037565b60200101907effffffffffffffffffffffffffffffffffffffffffffffffffffffffffffff1916908160001a90535060049490941c9361347881614336565b90506133e5565b5083156119b45760405162461bcd60e51b815260206004820181905260248201527f537472696e67733a20686578206c656e67746820696e73756666696369656e7460448201526064016107e0565b60606134dd84846000856137e0565b949350505050565b600081815260018301602052604081205461352c57508154600181810184556000848152602080822090930184905584548482528286019093526040902091909155610e36565b506000610e36565b6000818152600183016020526040812054801561361d576000613558600183614076565b855490915060009061356c90600190614076565b90508181146135d157600086600001828154811061358c5761358c614037565b90600052602060002001549050808760000184815481106135af576135af614037565b6000918252602080832090910192909255918252600188019052604090208390555b85548690806135e2576135e261434d565b600190038181906000526020600020016000905590558560010160008681526020019081526020016000206000905560019350505050610e36565b6000915050610e36565b60006136316138d2565b905090565b600080825160410361366c5760208301516040840151606085015160001a61366087828585613946565b94509450505050613674565b506000905060025b9250929050565b600081600481111561368f5761368f613f66565b036136975750565b60018160048111156136ab576136ab613f66565b036136f85760405162461bcd60e51b815260206004820152601860248201527f45434453413a20696e76616c6964207369676e6174757265000000000000000060448201526064016107e0565b600281600481111561370c5761370c613f66565b036137595760405162461bcd60e51b815260206004820152601f60248201527f45434453413a20696e76616c6964207369676e6174757265206c656e6774680060448201526064016107e0565b600381600481111561376d5761376d613f66565b036110095760405162461bcd60e51b815260206004820152602260248201527f45434453413a20696e76616c6964207369676e6174757265202773272076616c60448201527f756500000000000000000000000000000000000000000000000000000000000060648201526084016107e0565b6060824710156138585760405162461bcd60e51b815260206004820152602660248201527f416464726573733a20696e73756666696369656e742062616c616e636520666f60448201527f722063616c6c000000000000000000000000000000000000000000000000000060648201526084016107e0565b600080866001600160a01b0316858760405161387491906141fd565b60006040518083038185875af1925050503d80600081146138b1576040519150601f19603f3d011682016040523d82523d6000602084013e6138b6565b606091505b50915091506138c787838387613a0a565b979650505050505050565b60007f8b73c3c69bb8fe3d512ecc4cf759cc79239f7b179b0ffacaa9a75d522b39400f6138fd613a83565b613905613adc565b60408051602081019490945283019190915260608201524660808201523060a082015260c00160405160208183030381529060405280519060200120905090565b6000807f7fffffffffffffffffffffffffffffff5d576e7357a4501ddfe92f46681b20a083111561397d5750600090506003613a01565b6040805160008082526020820180845289905260ff881692820192909252606081018690526080810185905260019060a0016020604051602081039080840390855afa1580156139d1573d6000803e3d6000fd5b5050604051601f1901519150506001600160a01b0381166139fa57600060019250925050613a01565b9150600090505b94509492505050565b60608315613a79578251600003613a72576001600160a01b0385163b613a725760405162461bcd60e51b815260206004820152601d60248201527f416464726573733a2063616c6c20746f206e6f6e2d636f6e747261637400000060448201526064016107e0565b50816134dd565b6134dd8383613b0d565b600080613a8e6128a8565b805190915015613aa5578051602090910120919050565b60fb548015613ab45792915050565b7fc5d2460186f7233c927e7db2dcc703c0e500b653ca82273b7bfad8045d85a4709250505090565b600080613ae761293a565b805190915015613afe578051602090910120919050565b60fc548015613ab45792915050565b815115613b1d5781518083602001fd5b8060405162461bcd60e51b81526004016107e091906141c8565b634e487b7160e01b600052604160045260246000fd5b604051601f8201601f1916810167ffffffffffffffff81118282101715613b7657613b76613b37565b604052919050565b600082601f830112613b8f57600080fd5b813567ffffffffffffffff811115613ba957613ba9613b37565b8060051b613bb960208201613b4d565b91825260208185018101929081019086841115613bd557600080fd5b6020860192505b83831015613bf7578235825260209283019290910190613bdc565b9695505050505050565b600080600060608486031215613c1657600080fd5b83359250602084013567ffffffffffffffff811115613c3457600080fd5b613c4086828701613b7e565b925050604084013567ffffffffffffffff811115613c5d57600080fd5b613c6986828701613b7e565b9150509250925092565b6001600160a01b038116811461100957600080fd5b600060208284031215613c9a57600080fd5b81356119b481613c73565b600060208284031215613cb757600080fd5b81357fffffffff00000000000000000000000000000000000000000000000000000000811681146119b457600080fd5b600060208284031215613cf957600080fd5b5035919050565b60008060408385031215613d1357600080fd5b823591506020830135613d2581613c73565b809150509250929050565b60008060408385031215613d4357600080fd5b8235613d4e81613c73565b946020939093013593505050565b60008060008060008060c08789031215613d7557600080fd5b86359550602087013594506040870135613d8e81613c73565b9350606087013592506080870135915060a087013567ffffffffffffffff811115613db857600080fd5b8701601f81018913613dc957600080fd5b803567ffffffffffffffff811115613de357613de3613b37565b613df66020601f19601f84011601613b4d565b8181528a6020838501011115613e0b57600080fd5b816020840160208301376000602083830101528093505050509295509295509295565b60005b83811015613e49578181015183820152602001613e31565b50506000910152565b60008151808452613e6a816020860160208601613e2e565b601f01601f19169290920160200192915050565b600081518084526020840193506020830160005b82811015613eb0578151865260209586019590910190600101613e92565b5093949350505050565b7fff000000000000000000000000000000000000000000000000000000000000008816815260e060208201526000613ef560e0830189613e52565b8281036040840152613f078189613e52565b90508660608401526001600160a01b03861660808401528460a084015282810360c0840152613f368185613e7e565b9a9950505050505050505050565b60008060408385031215613f5757600080fd5b50508035926020909101359150565b634e487b7160e01b600052602160045260246000fd5b6001600160a01b038981168252881660208201526040810187905260608101869052610100810160058610613fc157634e487b7160e01b600052602160045260246000fd5b8560808301528460a08301528360c08301528260e08301529998505050505050505050565b60008060008060808587031215613ffc57600080fd5b843561400781613c73565b9350602085013561401781613c73565b9250604085013561402781613c73565b9396929550929360600135925050565b634e487b7160e01b600052603260045260246000fd5b634e487b7160e01b600052601160045260246000fd5b80820180821115610e3657610e3661404d565b81810381811115610e3657610e3661404d565b60006020828403121561409b57600080fd5b5051919050565b8381526060602082015260006140bb6060830185613e7e565b8281036040840152613bf78185613e7e565b6000602082840312156140df57600080fd5b81516119b481613c73565b6000602082840312156140fc57600080fd5b815160ff811681146119b457600080fd5b600181811c9082168061412157607f821691505b60208210810361414157634e487b7160e01b600052602260045260246000fd5b50919050565b7f416363657373436f6e74726f6c3a206163636f756e742000000000000000000081526000835161417f816017850160208801613e2e565b7f206973206d697373696e6720726f6c652000000000000000000000000000000060179184019182015283516141bc816028840160208801613e2e565b01602801949350505050565b6020815260006119b46020830184613e52565b6000602082840312156141ed57600080fd5b815180151581146119b457600080fd5b6000825161420f818460208701613e2e565b9190910192915050565b601f821115610f4657806000526020600020601f840160051c810160208510156142405750805b601f840160051c820191505b81811015612149576000815560010161424c565b815167ffffffffffffffff81111561427a5761427a613b37565b61428e81614288845461410d565b84614219565b6020601f8211600181146142c257600083156142aa5750848201515b600019600385901b1c1916600184901b178455612149565b600084815260208120601f198516915b828110156142f257878501518255602094850194600190920191016142d2565b50848210156143105786840151600019600387901b60f8161c191681555b50505050600190811b01905550565b8082028115828204841417610e3657610e3661404d565b6000816143455761434561404d565b506000190190565b634e487b7160e01b600052603160045260246000fdfea2646970667358221220a9203179aa170367385044191dc902da78df7ce0778c7691eb6f1ed655c83e0a64736f6c634300081c0033",
  "linkReferences": {},
  "deployedLinkReferences": {}
}