{
  "_format": "hh-sol-artifact-1",
  "contractName": "XIntentXTraderIncentives",
  "sourceName": "contracts/XIntentxTraderIncentives.sol",
  "abi": [
    {
      "inputs": [],
      "name": "DayNotFinished",
      "type": "error"
    },
    {
      "inputs": [],
      "name": "InvalidSignature",
      "type": "error"
    },
    {
      "anonymous": false,
      "inputs": [
        {
          "indexed": true,
          "internalType": "address",
          "name": "user",
          "type": "address"
        },
        {
          "indexed": false,
          "internalType": "uint256",
          "name": "timestamp",
          "type": "uint256"
        },
        {
          "indexed": false,
          "internalType": "uint256",
          "name": "amount",
          "type": "uint256"
        },
        {
          "indexed": true,
          "internalType": "uint256",
          "name": "_tokenId",
          "type": "uint256"
        }
      ],
      "name": "Claim",
      "type": "event"
    },
    {
      "anonymous": false,
      "inputs": [
        {
          "indexed": false,
          "internalType": "uint8",
          "name": "version",
          "type": "uint8"
        }
      ],
      "name": "Initialized",
      "type": "event"
    },
    {
      "anonymous": false,
      "inputs": [
        {
          "indexed": true,
          "internalType": "address",
          "name": "previousOwner",
          "type": "address"
        },
        {
          "indexed": true,
          "internalType": "address",
          "name": "newOwner",
          "type": "address"
        }
      ],
      "name": "OwnershipTransferred",
      "type": "event"
    },
    {
      "anonymous": false,
      "inputs": [
        {
          "indexed": false,
          "internalType": "uint256",
          "name": "timestamp",
          "type": "uint256"
        },
        {
          "indexed": false,
          "internalType": "uint256",
          "name": "amount",
          "type": "uint256"
        }
      ],
      "name": "Reward",
      "type": "event"
    },
    {
      "anonymous": false,
      "inputs": [
        {
          "indexed": true,
          "internalType": "address",
          "name": "intentxTrustedAddress",
          "type": "address"
        }
      ],
      "name": "SetIntentXTrustedAddress",
      "type": "event"
    },
    {
      "inputs": [
        {
          "internalType": "address payable",
          "name": "_user",
          "type": "address"
        },
        {
          "internalType": "uint256",
          "name": "_amountMnt",
          "type": "uint256"
        },
        {
          "internalType": "uint256",
          "name": "_timestamp",
          "type": "uint256"
        },
        {
          "internalType": "bytes",
          "name": "signature",
          "type": "bytes"
        }
      ],
      "name": "claim",
      "outputs": [],
      "stateMutability": "nonpayable",
      "type": "function"
    },
    {
      "inputs": [
        {
          "internalType": "address",
          "name": "",
          "type": "address"
        }
      ],
      "name": "claimed",
      "outputs": [
        {
          "internalType": "uint256",
          "name": "",
          "type": "uint256"
        }
      ],
      "stateMutability": "view",
      "type": "function"
    },
    {
      "inputs": [
        {
          "internalType": "uint256",
          "name": "_amount",
          "type": "uint256"
        }
      ],
      "name": "fill",
      "outputs": [],
      "stateMutability": "nonpayable",
      "type": "function"
    },
    {
      "inputs": [
        {
          "internalType": "address[]",
          "name": "addresses",
          "type": "address[]"
        }
      ],
      "name": "getClaimedBalances",
      "outputs": [
        {
          "internalType": "uint256[]",
          "name": "claimedAmounts",
          "type": "uint256[]"
        }
      ],
      "stateMutability": "view",
      "type": "function"
    },
    {
      "inputs": [
        {
          "internalType": "bytes32",
          "name": "_messageHash",
          "type": "bytes32"
        }
      ],
      "name": "getEthSignedMessageHash",
      "outputs": [
        {
          "internalType": "bytes32",
          "name": "",
          "type": "bytes32"
        }
      ],
      "stateMutability": "pure",
      "type": "function"
    },
    {
      "inputs": [
        {
          "internalType": "address",
          "name": "_user",
          "type": "address"
        },
        {
          "internalType": "uint256",
          "name": "_amountIntentX",
          "type": "uint256"
        },
        {
          "internalType": "uint256",
          "name": "_timestamp",
          "type": "uint256"
        }
      ],
      "name": "getMessageHash",
      "outputs": [
        {
          "internalType": "bytes32",
          "name": "",
          "type": "bytes32"
        }
      ],
      "stateMutability": "pure",
      "type": "function"
    },
    {
      "inputs": [
        {
          "internalType": "address",
          "name": "_intentxTrustedAddress",
          "type": "address"
        },
        {
          "internalType": "address",
          "name": "_intx",
          "type": "address"
        },
        {
          "internalType": "address",
          "name": "_xIntx",
          "type": "address"
        }
      ],
      "name": "initialize",
      "outputs": [],
      "stateMutability": "nonpayable",
      "type": "function"
    },
    {
      "inputs": [],
      "name": "intentxTrustedAddress",
      "outputs": [
        {
          "internalType": "address",
          "name": "",
          "type": "address"
        }
      ],
      "stateMutability": "view",
      "type": "function"
    },
    {
      "inputs": [],
      "name": "intx",
      "outputs": [
        {
          "internalType": "contract IERC20",
          "name": "",
          "type": "address"
        }
      ],
      "stateMutability": "view",
      "type": "function"
    },
    {
      "inputs": [],
      "name": "owner",
      "outputs": [
        {
          "internalType": "address",
          "name": "",
          "type": "address"
        }
      ],
      "stateMutability": "view",
      "type": "function"
    },
    {
      "inputs": [
        {
          "internalType": "bytes32",
          "name": "_ethSignedMessageHash",
          "type": "bytes32"
        },
        {
          "internalType": "bytes",
          "name": "_signature",
          "type": "bytes"
        }
      ],
      "name": "recoverSigner",
      "outputs": [
        {
          "internalType": "address",
          "name": "",
          "type": "address"
        }
      ],
      "stateMutability": "pure",
      "type": "function"
    },
    {
      "inputs": [],
      "name": "renounceOwnership",
      "outputs": [],
      "stateMutability": "nonpayable",
      "type": "function"
    },
    {
      "inputs": [
        {
          "internalType": "address",
          "name": "_intentxTrustedAddress",
          "type": "address"
        }
      ],
      "name": "setIntentxTrustedAddress",
      "outputs": [],
      "stateMutability": "nonpayable",
      "type": "function"
    },
    {
      "inputs": [
        {
          "internalType": "bytes",
          "name": "sig",
          "type": "bytes"
        }
      ],
      "name": "splitSignature",
      "outputs": [
        {
          "internalType": "bytes32",
          "name": "r",
          "type": "bytes32"
        },
        {
          "internalType": "bytes32",
          "name": "s",
          "type": "bytes32"
        },
        {
          "internalType": "uint8",
          "name": "v",
          "type": "uint8"
        }
      ],
      "stateMutability": "pure",
      "type": "function"
    },
    {
      "inputs": [],
      "name": "startTimestamp",
      "outputs": [
        {
          "internalType": "uint256",
          "name": "",
          "type": "uint256"
        }
      ],
      "stateMutability": "view",
      "type": "function"
    },
    {
      "inputs": [],
      "name": "totalReward",
      "outputs": [
        {
          "internalType": "uint256",
          "name": "",
          "type": "uint256"
        }
      ],
      "stateMutability": "view",
      "type": "function"
    },
    {
      "inputs": [
        {
          "internalType": "address",
          "name": "newOwner",
          "type": "address"
        }
      ],
      "name": "transferOwnership",
      "outputs": [],
      "stateMutability": "nonpayable",
      "type": "function"
    },
    {
      "inputs": [],
      "name": "xIntx",
      "outputs": [
        {
          "internalType": "contract IStakedINTX",
          "name": "",
          "type": "address"
        }
      ],
      "stateMutability": "view",
      "type": "function"
    }
  ],
  "bytecode": "0x608060405234801561001057600080fd5b506115a0806100206000396000f3fe608060405234801561001057600080fd5b50600436106101365760003560e01c806397aba7f9116100b2578063d2b0737b11610081578063e6fd48bc11610066578063e6fd48bc146102f0578063f2fde38b146102f9578063fa5408011461030c57600080fd5b8063d2b0737b14610280578063d7a105ec146102dd57600080fd5b806397aba7f914610209578063a7bb58031461021c578063c0c53b8b1461024d578063c884ef831461026057600080fd5b8063715018a6116101095780637fa66021116100ee5780637fa66021146101c55780638da5cb5b146101e557806396b18c12146101f657600080fd5b8063715018a6146101a6578063750142e6146101ae57600080fd5b806327a7af891461013b5780632ada8a321461016b5780633fda53891461018057806346f7d6c914610193575b600080fd5b60665461014e906001600160a01b031681565b6040516001600160a01b0390911681526020015b60405180910390f35b61017e6101793660046111dd565b61036d565b005b61017e61018e366004611240565b610758565b60655461014e906001600160a01b031681565b61017e6107c3565b6101b760695481565b604051908152602001610162565b6101d86101d3366004611259565b6107d7565b60405161016291906112ce565b6033546001600160a01b031661014e565b61017e610204366004611312565b6108ad565b61014e610217366004611336565b61090c565b61022f61022a36600461137d565b61098c565b60408051938452602084019290925260ff1690820152606001610162565b61017e61025b3660046113b2565b610a00565b6101b761026e366004611312565b606a6020526000908152604090205481565b6101b761028e3660046113fd565b6040516bffffffffffffffffffffffff19606085901b16602082015260348101839052605481018290526000906074016040516020818303038152906040528051906020012090509392505050565b60675461014e906001600160a01b031681565b6101b760685481565b61017e610307366004611312565b610bb5565b6101b761031a366004611240565b6040517f19457468657265756d205369676e6564204d6573736167653a0a3332000000006020820152603c8101829052600090605c01604051602081830303815290604052805190602001209050919050565b6068544210156103c45760405162461bcd60e51b815260206004820152600b60248201527f4e4f54205354415254454400000000000000000000000000000000000000000060448201526064015b60405180910390fd5b336001600160a01b0385161461041c5760405162461bcd60e51b815260206004820152600e60248201527f4e6f7420796f757220636c61696d00000000000000000000000000000000000060448201526064016103bb565b6067546001600160a01b03166104995760405162461bcd60e51b8152602060048201526024808201527f496e74656e745820547275737465642041646472657373206e6f74207365742060448201527f7965742e0000000000000000000000000000000000000000000000000000000060648201526084016103bb565b336000908152606a60205260409020548311156107525760408051606086901b6bffffffffffffffffffffffff1916602080830191909152603482018690526054808301869052835180840390910181526074830184528051908201207f19457468657265756d205369676e6564204d6573736167653a0a333200000000609484015260b08084018290528451808503909101815260d090930190935281519101206067546001600160a01b0316610551828561090c565b6001600160a01b0316146105a75760405162461bcd60e51b815260206004820152601360248201527f5369676e6572203d2120547275737465642e200000000000000000000000000060448201526064016103bb565b336000908152606a60205260408120546105c19087611448565b336000908152606a602052604090208790559050801561074e576065546066546040517f095ea7b30000000000000000000000000000000000000000000000000000000081526001600160a01b0391821660048201526024810184905291169063095ea7b3906044016020604051808303816000875af1158015610649573d6000803e3d6000fd5b505050506040513d601f19601f8201168201806040525081019061066d919061145b565b506066546000906001600160a01b0316632ee40908336040517fffffffff0000000000000000000000000000000000000000000000000000000060e084901b1681526001600160a01b039091166004820152602481018590526044016020604051808303816000875af11580156106e8573d6000803e3d6000fd5b505050506040513d601f19601f8201168201806040525081019061070c919061147d565b6040805142815260208101859052919250829133917f45c072aa05b9853b5a993de7a28bc332ee01404a628cec1a23ce0f659f842ef1910160405180910390a3505b5050505b50505050565b610770336065546001600160a01b0316903084610c45565b80606960008282546107829190611496565b909155505060408051428152602081018390527f45cad8c10023de80f4c0672ff6c283b671e11aa93c92b9380cdf060d2790da52910160405180910390a150565b6107cb610ccd565b6107d56000610d27565b565b6060818067ffffffffffffffff8111156107f3576107f361113a565b60405190808252806020026020018201604052801561081c578160200160208202803683370190505b50915060005b818110156108a557606a6000868684818110610840576108406114a9565b90506020020160208101906108559190611312565b6001600160a01b03166001600160a01b0316815260200190815260200160002054838281518110610888576108886114a9565b60209081029190910101528061089d816114bf565b915050610822565b505092915050565b6108b5610ccd565b6067805473ffffffffffffffffffffffffffffffffffffffff19166001600160a01b0383169081179091556040517fe26c879d728ec1a6c6f55c2809dd8c7f9d67beca07940f3020aca5d96e0073db90600090a250565b60008060008061091b8561098c565b6040805160008152602081018083528b905260ff8316918101919091526060810184905260808101839052929550909350915060019060a0016020604051602081039080840390855afa158015610976573d6000803e3d6000fd5b5050506020604051035193505050505b92915050565b600080600083516041146109e25760405162461bcd60e51b815260206004820152601860248201527f696e76616c6964207369676e6174757265206c656e677468000000000000000060448201526064016103bb565b50505060208101516040820151606090920151909260009190911a90565b600054610100900460ff1615808015610a205750600054600160ff909116105b80610a3a5750303b158015610a3a575060005460ff166001145b610aac5760405162461bcd60e51b815260206004820152602e60248201527f496e697469616c697a61626c653a20636f6e747261637420697320616c72656160448201527f647920696e697469616c697a656400000000000000000000000000000000000060648201526084016103bb565b600080547fffffffffffffffffffffffffffffffffffffffffffffffffffffffffffffff001660011790558015610aed576000805461ff0019166101001790555b610af5610d86565b606780546001600160a01b0380871673ffffffffffffffffffffffffffffffffffffffff199283168117909355426068556065805487831690841617905560668054918616919092161790556040517fe26c879d728ec1a6c6f55c2809dd8c7f9d67beca07940f3020aca5d96e0073db90600090a28015610752576000805461ff0019169055604051600181527f7f26b83ff96e1f2b6a682f133852f6798a09c465da95921460cefb38474024989060200160405180910390a150505050565b610bbd610ccd565b6001600160a01b038116610c395760405162461bcd60e51b815260206004820152602660248201527f4f776e61626c653a206e6577206f776e657220697320746865207a65726f206160448201527f646472657373000000000000000000000000000000000000000000000000000060648201526084016103bb565b610c4281610d27565b50565b604080516001600160a01b0385811660248301528416604482015260648082018490528251808303909101815260849091019091526020810180517bffffffffffffffffffffffffffffffffffffffffffffffffffffffff167f23b872dd00000000000000000000000000000000000000000000000000000000179052610752908590610e0b565b6033546001600160a01b031633146107d55760405162461bcd60e51b815260206004820181905260248201527f4f776e61626c653a2063616c6c6572206973206e6f7420746865206f776e657260448201526064016103bb565b603380546001600160a01b0383811673ffffffffffffffffffffffffffffffffffffffff19831681179093556040519116919082907f8be0079c531659141344cd1fd0a4f28419497f9722a3daafe3b4186f6b6457e090600090a35050565b600054610100900460ff16610e035760405162461bcd60e51b815260206004820152602b60248201527f496e697469616c697a61626c653a20636f6e7472616374206973206e6f74206960448201527f6e697469616c697a696e6700000000000000000000000000000000000000000060648201526084016103bb565b6107d5610ef8565b6000610e60826040518060400160405280602081526020017f5361666545524332303a206c6f772d6c6576656c2063616c6c206661696c6564815250856001600160a01b0316610f7e9092919063ffffffff16565b9050805160001480610e81575080806020019051810190610e81919061145b565b610ef35760405162461bcd60e51b815260206004820152602a60248201527f5361666545524332303a204552433230206f7065726174696f6e20646964206e60448201527f6f7420737563636565640000000000000000000000000000000000000000000060648201526084016103bb565b505050565b600054610100900460ff16610f755760405162461bcd60e51b815260206004820152602b60248201527f496e697469616c697a61626c653a20636f6e7472616374206973206e6f74206960448201527f6e697469616c697a696e6700000000000000000000000000000000000000000060648201526084016103bb565b6107d533610d27565b6060610f8d8484600085610f95565b949350505050565b60608247101561100d5760405162461bcd60e51b815260206004820152602660248201527f416464726573733a20696e73756666696369656e742062616c616e636520666f60448201527f722063616c6c000000000000000000000000000000000000000000000000000060648201526084016103bb565b600080866001600160a01b03168587604051611029919061151b565b60006040518083038185875af1925050503d8060008114611066576040519150601f19603f3d011682016040523d82523d6000602084013e61106b565b606091505b509150915061107c87838387611087565b979650505050505050565b606083156110f65782516000036110ef576001600160a01b0385163b6110ef5760405162461bcd60e51b815260206004820152601d60248201527f416464726573733a2063616c6c20746f206e6f6e2d636f6e747261637400000060448201526064016103bb565b5081610f8d565b610f8d838381511561110b5781518083602001fd5b8060405162461bcd60e51b81526004016103bb9190611537565b6001600160a01b0381168114610c4257600080fd5b634e487b7160e01b600052604160045260246000fd5b600082601f83011261116157600080fd5b813567ffffffffffffffff8082111561117c5761117c61113a565b604051601f8301601f19908116603f011681019082821181831017156111a4576111a461113a565b816040528381528660208588010111156111bd57600080fd5b836020870160208301376000602085830101528094505050505092915050565b600080600080608085870312156111f357600080fd5b84356111fe81611125565b93506020850135925060408501359150606085013567ffffffffffffffff81111561122857600080fd5b61123487828801611150565b91505092959194509250565b60006020828403121561125257600080fd5b5035919050565b6000806020838503121561126c57600080fd5b823567ffffffffffffffff8082111561128457600080fd5b818501915085601f83011261129857600080fd5b8135818111156112a757600080fd5b8660208260051b85010111156112bc57600080fd5b60209290920196919550909350505050565b6020808252825182820181905260009190848201906040850190845b81811015611306578351835292840192918401916001016112ea565b50909695505050505050565b60006020828403121561132457600080fd5b813561132f81611125565b9392505050565b6000806040838503121561134957600080fd5b82359150602083013567ffffffffffffffff81111561136757600080fd5b61137385828601611150565b9150509250929050565b60006020828403121561138f57600080fd5b813567ffffffffffffffff8111156113a657600080fd5b610f8d84828501611150565b6000806000606084860312156113c757600080fd5b83356113d281611125565b925060208401356113e281611125565b915060408401356113f281611125565b809150509250925092565b60008060006060848603121561141257600080fd5b833561141d81611125565b95602085013595506040909401359392505050565b634e487b7160e01b600052601160045260246000fd5b8181038181111561098657610986611432565b60006020828403121561146d57600080fd5b8151801515811461132f57600080fd5b60006020828403121561148f57600080fd5b5051919050565b8082018082111561098657610986611432565b634e487b7160e01b600052603260045260246000fd5b60007fffffffffffffffffffffffffffffffffffffffffffffffffffffffffffffffff82036114f0576114f0611432565b5060010190565b60005b838110156115125781810151838201526020016114fa565b50506000910152565b6000825161152d8184602087016114f7565b9190910192915050565b60208152600082518060208401526115568160408501602087016114f7565b601f01601f1916919091016040019291505056fea2646970667358221220a479000a45a2c0d098f2c281dfb9f300115200e652c1a6e1f26824054f66375664736f6c63430008120033",
  "linkReferences": {},
  "deployedLinkReferences": {}
}