{
  "_format": "hh-sol-artifact-1",
  "contractName": "TargetRebalancer",
  "sourceName": "contracts/solver/TargetRebalancer.sol",
  "abi": [
    {
      "inputs": [
        {
          "internalType": "address",
          "name": "symmioAddress",
          "type": "address"
        }
      ],
      "stateMutability": "nonpayable",
      "type": "constructor"
    },
    {
      "inputs": [
        {
          "internalType": "address",
          "name": "owner",
          "type": "address"
        }
      ],
      "name": "OwnableInvalidOwner",
      "type": "error"
    },
    {
      "inputs": [
        {
          "internalType": "address",
          "name": "account",
          "type": "address"
        }
      ],
      "name": "OwnableUnauthorizedAccount",
      "type": "error"
    },
    {
      "anonymous": false,
      "inputs": [
        {
          "indexed": true,
          "internalType": "address",
          "name": "previousOwner",
          "type": "address"
        },
        {
          "indexed": true,
          "internalType": "address",
          "name": "newOwner",
          "type": "address"
        }
      ],
      "name": "OwnershipTransferStarted",
      "type": "event"
    },
    {
      "anonymous": false,
      "inputs": [
        {
          "indexed": true,
          "internalType": "address",
          "name": "previousOwner",
          "type": "address"
        },
        {
          "indexed": true,
          "internalType": "address",
          "name": "newOwner",
          "type": "address"
        }
      ],
      "name": "OwnershipTransferred",
      "type": "event"
    },
    {
      "inputs": [],
      "name": "acceptOwnership",
      "outputs": [],
      "stateMutability": "nonpayable",
      "type": "function"
    },
    {
      "inputs": [
        {
          "internalType": "address",
          "name": "",
          "type": "address"
        }
      ],
      "name": "allowedPartyBs",
      "outputs": [
        {
          "internalType": "bool",
          "name": "",
          "type": "bool"
        }
      ],
      "stateMutability": "view",
      "type": "function"
    },
    {
      "inputs": [
        {
          "internalType": "address",
          "name": "partyB",
          "type": "address"
        },
        {
          "internalType": "address",
          "name": "targetAddress",
          "type": "address"
        },
        {
          "internalType": "uint256",
          "name": "amount",
          "type": "uint256"
        }
      ],
      "name": "executeInstantRebalance",
      "outputs": [],
      "stateMutability": "nonpayable",
      "type": "function"
    },
    {
      "inputs": [],
      "name": "owner",
      "outputs": [
        {
          "internalType": "address",
          "name": "",
          "type": "address"
        }
      ],
      "stateMutability": "view",
      "type": "function"
    },
    {
      "inputs": [],
      "name": "pendingOwner",
      "outputs": [
        {
          "internalType": "address",
          "name": "",
          "type": "address"
        }
      ],
      "stateMutability": "view",
      "type": "function"
    },
    {
      "inputs": [
        {
          "internalType": "address",
          "name": "targetAddress",
          "type": "address"
        },
        {
          "internalType": "uint256",
          "name": "amount",
          "type": "uint256"
        }
      ],
      "name": "rebalance",
      "outputs": [],
      "stateMutability": "nonpayable",
      "type": "function"
    },
    {
      "inputs": [
        {
          "internalType": "address",
          "name": "partyB",
          "type": "address"
        }
      ],
      "name": "registerPartyB",
      "outputs": [],
      "stateMutability": "nonpayable",
      "type": "function"
    },
    {
      "inputs": [],
      "name": "renounceOwnership",
      "outputs": [],
      "stateMutability": "nonpayable",
      "type": "function"
    },
    {
      "inputs": [
        {
          "internalType": "address",
          "name": "newOwner",
          "type": "address"
        }
      ],
      "name": "transferOwnership",
      "outputs": [],
      "stateMutability": "nonpayable",
      "type": "function"
    },
    {
      "inputs": [
        {
          "internalType": "address",
          "name": "",
          "type": "address"
        },
        {
          "internalType": "address",
          "name": "",
          "type": "address"
        }
      ],
      "name": "withdrawalRequests",
      "outputs": [
        {
          "internalType": "uint256",
          "name": "",
          "type": "uint256"
        }
      ],
      "stateMutability": "view",
      "type": "function"
    }
  ],
  "bytecode": "0x60a060405234801561001057600080fd5b50604051610a8c380380610a8c83398101604081905261002f91610154565b338061005557604051631e4fbdf760e01b81526000600482015260240160405180910390fd5b61005e816100e8565b506001600160a01b031660805260036020527feb9bf8c39f03bbbe448075f0d08dad5abf163ad3ade9e70c4f86943fef13af908054600160ff19918216811790925573d984489f1db22a0116a7aa493c4910fda7c6328a6000527f0649d448a8113dbbe5e59ccde1de3c3740debbe946a3934642856324725069a780549091169091179055610184565b600180546001600160a01b031916905561010181610104565b50565b600080546001600160a01b038381166001600160a01b0319831681178455604051919092169283917f8be0079c531659141344cd1fd0a4f28419497f9722a3daafe3b4186f6b6457e09190a35050565b60006020828403121561016657600080fd5b81516001600160a01b038116811461017d57600080fd5b9392505050565b6080516108df6101ad6000396000818161043c015281816104e101526105ed01526108df6000f3fe608060405234801561001057600080fd5b50600436106100be5760003560e01c80638da5cb5b11610076578063b84f31971161005b578063b84f31971461016b578063e30c3978146101a4578063f2fde38b146101b557600080fd5b80638da5cb5b14610133578063a5ec7dcd1461015857600080fd5b806356ea676a116100a757806356ea676a14610110578063715018a61461012357806379ba50971461012b57600080fd5b80632b1cf527146100c35780633da9b9d0146100fb575b600080fd5b6100e66100d13660046107b7565b60036020526000908152604090205460ff1681565b60405190151581526020015b60405180910390f35b61010e6101093660046107d9565b6101c8565b005b61010e61011e3660046107b7565b610296565b61010e6102e0565b61010e6102f4565b6000546001600160a01b03165b6040516001600160a01b0390911681526020016100f2565b61010e610166366004610803565b610351565b610196610179366004610840565b600260209081526000928352604080842090915290825290205481565b6040519081526020016100f2565b6001546001600160a01b0316610140565b61010e6101c33660046107b7565b610659565b3360009081526003602052604090205460ff1661026c576040517f08c379a000000000000000000000000000000000000000000000000000000000815260206004820152602160248201527f4e6f7420616c6c6f77656420746f207265717565737420726562616c616e636560448201527f210000000000000000000000000000000000000000000000000000000000000060648201526084015b60405180910390fd5b3360009081526002602090815260408083206001600160a01b039590951683529390529190912055565b61029e6106d7565b6001600160a01b0316600090815260036020526040902080547fffffffffffffffffffffffffffffffffffffffffffffffffffffffffffffff00166001179055565b6102e86106d7565b6102f2600061071d565b565b60015433906001600160a01b03168114610345576040517f118cdaa70000000000000000000000000000000000000000000000000000000081526001600160a01b0382166004820152602401610263565b61034e8161071d565b50565b6103596106d7565b6001600160a01b0380841660009081526002602090815260408083209386168352929052205481146103e7576040517f08c379a000000000000000000000000000000000000000000000000000000000815260206004820152601060248201527f496e76616c6964207265717565737421000000000000000000000000000000006044820152606401610263565b6001600160a01b038084166000908152600260209081526040808320868516845290915280822082905580517f8b3e7ae2000000000000000000000000000000000000000000000000000000008152905191927f00000000000000000000000000000000000000000000000000000000000000001691638b3e7ae2916004808201926080929091908290030181865afa158015610488573d6000803e3d6000fd5b505050506040513d601f19601f820116820180604052508101906104ac9190610873565b50506040517fff7e426500000000000000000000000000000000000000000000000000000000815260006004820152919250507f00000000000000000000000000000000000000000000000000000000000000006001600160a01b03169063ff7e426590602401600060405180830381600087803b15801561052d57600080fd5b505af1158015610541573d6000803e3d6000fd5b50506040517f205c28780000000000000000000000000000000000000000000000000000000081526001600160a01b038681166004830152602482018690528716925063205c28789150604401600060405180830381600087803b1580156105a857600080fd5b505af11580156105bc573d6000803e3d6000fd5b50506040517fff7e4265000000000000000000000000000000000000000000000000000000008152600481018490527f00000000000000000000000000000000000000000000000000000000000000006001600160a01b0316925063ff7e42659150602401600060405180830381600087803b15801561063b57600080fd5b505af115801561064f573d6000803e3d6000fd5b5050505050505050565b6106616106d7565b600180546001600160a01b03831673ffffffffffffffffffffffffffffffffffffffff19909116811790915561069f6000546001600160a01b031690565b6001600160a01b03167f38d16b8cac22d99fc7c124b9cd0de2d3fa1faef420bfe791d8c362d765e2270060405160405180910390a350565b6000546001600160a01b031633146102f2576040517f118cdaa7000000000000000000000000000000000000000000000000000000008152336004820152602401610263565b6001805473ffffffffffffffffffffffffffffffffffffffff1916905561034e81600080546001600160a01b0383811673ffffffffffffffffffffffffffffffffffffffff19831681178455604051919092169283917f8be0079c531659141344cd1fd0a4f28419497f9722a3daafe3b4186f6b6457e09190a35050565b80356001600160a01b03811681146107b257600080fd5b919050565b6000602082840312156107c957600080fd5b6107d28261079b565b9392505050565b600080604083850312156107ec57600080fd5b6107f58361079b565b946020939093013593505050565b60008060006060848603121561081857600080fd5b6108218461079b565b925061082f6020850161079b565b929592945050506040919091013590565b6000806040838503121561085357600080fd5b61085c8361079b565b915061086a6020840161079b565b90509250929050565b6000806000806080858703121561088957600080fd5b50508251602084015160408501516060909501519196909550909250905056fea264697066735822122051d6fcd14aefd76e28fd9abc47fe4ed93a162dfbf6308fae9bbb75503b04707964736f6c634300081c0033",
  "linkReferences": {},
  "deployedLinkReferences": {}
}