{
  "_format": "hh-sol-artifact-1",
  "contractName": "IntxToken",
  "sourceName": "contracts/IntxToken.sol",
  "abi": [
    {
      "inputs": [],
      "stateMutability": "nonpayable",
      "type": "constructor"
    },
    {
      "anonymous": false,
      "inputs": [
        {
          "indexed": true,
          "internalType": "address",
          "name": "owner",
          "type": "address"
        },
        {
          "indexed": true,
          "internalType": "address",
          "name": "spender",
          "type": "address"
        },
        {
          "indexed": false,
          "internalType": "uint256",
          "name": "value",
          "type": "uint256"
        }
      ],
      "name": "Approval",
      "type": "event"
    },
    {
      "anonymous": false,
      "inputs": [
        {
          "indexed": false,
          "internalType": "uint8",
          "name": "version",
          "type": "uint8"
        }
      ],
      "name": "Initialized",
      "type": "event"
    },
    {
      "anonymous": false,
      "inputs": [
        {
          "indexed": true,
          "internalType": "address",
          "name": "from",
          "type": "address"
        },
        {
          "indexed": true,
          "internalType": "address",
          "name": "to",
          "type": "address"
        },
        {
          "indexed": false,
          "internalType": "uint256",
          "name": "value",
          "type": "uint256"
        }
      ],
      "name": "Transfer",
      "type": "event"
    },
    {
      "inputs": [
        {
          "internalType": "address",
          "name": "owner",
          "type": "address"
        },
        {
          "internalType": "address",
          "name": "spender",
          "type": "address"
        }
      ],
      "name": "allowance",
      "outputs": [
        {
          "internalType": "uint256",
          "name": "",
          "type": "uint256"
        }
      ],
      "stateMutability": "view",
      "type": "function"
    },
    {
      "inputs": [
        {
          "internalType": "address",
          "name": "spender",
          "type": "address"
        },
        {
          "internalType": "uint256",
          "name": "amount",
          "type": "uint256"
        }
      ],
      "name": "approve",
      "outputs": [
        {
          "internalType": "bool",
          "name": "",
          "type": "bool"
        }
      ],
      "stateMutability": "nonpayable",
      "type": "function"
    },
    {
      "inputs": [
        {
          "internalType": "address",
          "name": "account",
          "type": "address"
        }
      ],
      "name": "balanceOf",
      "outputs": [
        {
          "internalType": "uint256",
          "name": "",
          "type": "uint256"
        }
      ],
      "stateMutability": "view",
      "type": "function"
    },
    {
      "inputs": [
        {
          "internalType": "uint256",
          "name": "amount",
          "type": "uint256"
        }
      ],
      "name": "burn",
      "outputs": [],
      "stateMutability": "nonpayable",
      "type": "function"
    },
    {
      "inputs": [
        {
          "internalType": "address",
          "name": "account",
          "type": "address"
        },
        {
          "internalType": "uint256",
          "name": "amount",
          "type": "uint256"
        }
      ],
      "name": "burnFrom",
      "outputs": [],
      "stateMutability": "nonpayable",
      "type": "function"
    },
    {
      "inputs": [],
      "name": "decimals",
      "outputs": [
        {
          "internalType": "uint8",
          "name": "",
          "type": "uint8"
        }
      ],
      "stateMutability": "view",
      "type": "function"
    },
    {
      "inputs": [
        {
          "internalType": "address",
          "name": "spender",
          "type": "address"
        },
        {
          "internalType": "uint256",
          "name": "subtractedValue",
          "type": "uint256"
        }
      ],
      "name": "decreaseAllowance",
      "outputs": [
        {
          "internalType": "bool",
          "name": "",
          "type": "bool"
        }
      ],
      "stateMutability": "nonpayable",
      "type": "function"
    },
    {
      "inputs": [
        {
          "internalType": "address",
          "name": "spender",
          "type": "address"
        },
        {
          "internalType": "uint256",
          "name": "addedValue",
          "type": "uint256"
        }
      ],
      "name": "increaseAllowance",
      "outputs": [
        {
          "internalType": "bool",
          "name": "",
          "type": "bool"
        }
      ],
      "stateMutability": "nonpayable",
      "type": "function"
    },
    {
      "inputs": [],
      "name": "initialize",
      "outputs": [],
      "stateMutability": "nonpayable",
      "type": "function"
    },
    {
      "inputs": [],
      "name": "name",
      "outputs": [
        {
          "internalType": "string",
          "name": "",
          "type": "string"
        }
      ],
      "stateMutability": "view",
      "type": "function"
    },
    {
      "inputs": [],
      "name": "symbol",
      "outputs": [
        {
          "internalType": "string",
          "name": "",
          "type": "string"
        }
      ],
      "stateMutability": "view",
      "type": "function"
    },
    {
      "inputs": [],
      "name": "totalSupply",
      "outputs": [
        {
          "internalType": "uint256",
          "name": "",
          "type": "uint256"
        }
      ],
      "stateMutability": "view",
      "type": "function"
    },
    {
      "inputs": [
        {
          "internalType": "address",
          "name": "to",
          "type": "address"
        },
        {
          "internalType": "uint256",
          "name": "amount",
          "type": "uint256"
        }
      ],
      "name": "transfer",
      "outputs": [
        {
          "internalType": "bool",
          "name": "",
          "type": "bool"
        }
      ],
      "stateMutability": "nonpayable",
      "type": "function"
    },
    {
      "inputs": [
        {
          "internalType": "address",
          "name": "from",
          "type": "address"
        },
        {
          "internalType": "address",
          "name": "to",
          "type": "address"
        },
        {
          "internalType": "uint256",
          "name": "amount",
          "type": "uint256"
        }
      ],
      "name": "transferFrom",
      "outputs": [
        {
          "internalType": "bool",
          "name": "",
          "type": "bool"
        }
      ],
      "stateMutability": "nonpayable",
      "type": "function"
    }
  ],
  "bytecode": "0x608060405234801561001057600080fd5b5061001961001e565b6100dd565b600054610100900460ff161561008a5760405162461bcd60e51b815260206004820152602760248201527f496e697469616c697a61626c653a20636f6e747261637420697320696e697469604482015266616c697a696e6760c81b606482015260840160405180910390fd5b60005460ff908116146100db576000805460ff191660ff9081179091556040519081527f7f26b83ff96e1f2b6a682f133852f6798a09c465da95921460cefb38474024989060200160405180910390a15b565b61112e806100ec6000396000f3fe608060405234801561001057600080fd5b50600436106100ea5760003560e01c806370a082311161008c57806395d89b411161006657806395d89b41146101d0578063a457c2d7146101d8578063a9059cbb146101eb578063dd62ed3e146101fe57600080fd5b806370a082311461018c57806379cc6790146101b55780638129fc1c146101c857600080fd5b806323b872dd116100c857806323b872dd14610142578063313ce56714610155578063395093511461016457806342966c681461017757600080fd5b806306fdde03146100ef578063095ea7b31461010d57806318160ddd14610130575b600080fd5b6100f7610237565b6040516101049190610d29565b60405180910390f35b61012061011b366004610d93565b6102c9565b6040519015158152602001610104565b6035545b604051908152602001610104565b610120610150366004610dbd565b6102e3565b60405160128152602001610104565b610120610172366004610d93565b610307565b61018a610185366004610df9565b610346565b005b61013461019a366004610e12565b6001600160a01b031660009081526033602052604090205490565b61018a6101c3366004610d93565b610353565b61018a61036c565b6100f761053d565b6101206101e6366004610d93565b61054c565b6101206101f9366004610d93565b6105f6565b61013461020c366004610e34565b6001600160a01b03918216600090815260346020908152604080832093909416825291909152205490565b60606036805461024690610e67565b80601f016020809104026020016040519081016040528092919081815260200182805461027290610e67565b80156102bf5780601f10610294576101008083540402835291602001916102bf565b820191906000526020600020905b8154815290600101906020018083116102a257829003601f168201915b5050505050905090565b6000336102d7818585610604565b60019150505b92915050565b6000336102f185828561075d565b6102fc8585856107ef565b506001949350505050565b3360008181526034602090815260408083206001600160a01b03871684529091528120549091906102d79082908690610341908790610eb7565b610604565b61035033826109e3565b50565b61035e82338361075d565b61036882826109e3565b5050565b600054610100900460ff161580801561038c5750600054600160ff909116105b806103a65750303b1580156103a6575060005460ff166001145b61041d5760405162461bcd60e51b815260206004820152602e60248201527f496e697469616c697a61626c653a20636f6e747261637420697320616c72656160448201527f647920696e697469616c697a656400000000000000000000000000000000000060648201526084015b60405180910390fd5b600080547fffffffffffffffffffffffffffffffffffffffffffffffffffffffffffffff00166001179055801561045e576000805461ff0019166101001790555b6104d26040518060400160405280600d81526020017f496e74656e745820546f6b656e000000000000000000000000000000000000008152506040518060400160405280600481526020017f494e545800000000000000000000000000000000000000000000000000000000815250610b4b565b6104f5336104e26012600a610fae565b6104f0906305f5e100610fbd565b610bd2565b8015610350576000805461ff0019169055604051600181527f7f26b83ff96e1f2b6a682f133852f6798a09c465da95921460cefb38474024989060200160405180910390a150565b60606037805461024690610e67565b3360008181526034602090815260408083206001600160a01b0387168452909152812054909190838110156105e95760405162461bcd60e51b815260206004820152602560248201527f45524332303a2064656372656173656420616c6c6f77616e63652062656c6f7760448201527f207a65726f0000000000000000000000000000000000000000000000000000006064820152608401610414565b6102fc8286868403610604565b6000336102d78185856107ef565b6001600160a01b03831661067f5760405162461bcd60e51b8152602060048201526024808201527f45524332303a20617070726f76652066726f6d20746865207a65726f2061646460448201527f72657373000000000000000000000000000000000000000000000000000000006064820152608401610414565b6001600160a01b0382166106fb5760405162461bcd60e51b815260206004820152602260248201527f45524332303a20617070726f766520746f20746865207a65726f20616464726560448201527f73730000000000000000000000000000000000000000000000000000000000006064820152608401610414565b6001600160a01b0383811660008181526034602090815260408083209487168084529482529182902085905590518481527f8c5be1e5ebec7d5bd14f71427d1e84f3dd0314c0f7b2291e5b200ac8c7c3b92591015b60405180910390a3505050565b6001600160a01b0383811660009081526034602090815260408083209386168352929052205460001981146107e957818110156107dc5760405162461bcd60e51b815260206004820152601d60248201527f45524332303a20696e73756666696369656e7420616c6c6f77616e63650000006044820152606401610414565b6107e98484848403610604565b50505050565b6001600160a01b03831661086b5760405162461bcd60e51b815260206004820152602560248201527f45524332303a207472616e736665722066726f6d20746865207a65726f20616460448201527f64726573730000000000000000000000000000000000000000000000000000006064820152608401610414565b6001600160a01b0382166108e75760405162461bcd60e51b815260206004820152602360248201527f45524332303a207472616e7366657220746f20746865207a65726f206164647260448201527f65737300000000000000000000000000000000000000000000000000000000006064820152608401610414565b6001600160a01b038316600090815260336020526040902054818110156109765760405162461bcd60e51b815260206004820152602660248201527f45524332303a207472616e7366657220616d6f756e742065786365656473206260448201527f616c616e636500000000000000000000000000000000000000000000000000006064820152608401610414565b6001600160a01b0380851660008181526033602052604080822086860390559286168082529083902080548601905591517fddf252ad1be2c89b69c2b068fc378daa952ba7f163c4a11628f55a4df523b3ef906109d69086815260200190565b60405180910390a36107e9565b6001600160a01b038216610a5f5760405162461bcd60e51b815260206004820152602160248201527f45524332303a206275726e2066726f6d20746865207a65726f2061646472657360448201527f73000000000000000000000000000000000000000000000000000000000000006064820152608401610414565b6001600160a01b03821660009081526033602052604090205481811015610aee5760405162461bcd60e51b815260206004820152602260248201527f45524332303a206275726e20616d6f756e7420657863656564732062616c616e60448201527f63650000000000000000000000000000000000000000000000000000000000006064820152608401610414565b6001600160a01b03831660008181526033602090815260408083208686039055603580548790039055518581529192917fddf252ad1be2c89b69c2b068fc378daa952ba7f163c4a11628f55a4df523b3ef9101610750565b505050565b600054610100900460ff16610bc85760405162461bcd60e51b815260206004820152602b60248201527f496e697469616c697a61626c653a20636f6e7472616374206973206e6f74206960448201527f6e697469616c697a696e670000000000000000000000000000000000000000006064820152608401610414565b6103688282610c93565b6001600160a01b038216610c285760405162461bcd60e51b815260206004820152601f60248201527f45524332303a206d696e7420746f20746865207a65726f2061646472657373006044820152606401610414565b8060356000828254610c3a9190610eb7565b90915550506001600160a01b0382166000818152603360209081526040808320805486019055518481527fddf252ad1be2c89b69c2b068fc378daa952ba7f163c4a11628f55a4df523b3ef910160405180910390a35050565b600054610100900460ff16610d105760405162461bcd60e51b815260206004820152602b60248201527f496e697469616c697a61626c653a20636f6e7472616374206973206e6f74206960448201527f6e697469616c697a696e670000000000000000000000000000000000000000006064820152608401610414565b6036610d1c8382611038565b506037610b468282611038565b600060208083528351808285015260005b81811015610d5657858101830151858201604001528201610d3a565b506000604082860101526040601f19601f8301168501019250505092915050565b80356001600160a01b0381168114610d8e57600080fd5b919050565b60008060408385031215610da657600080fd5b610daf83610d77565b946020939093013593505050565b600080600060608486031215610dd257600080fd5b610ddb84610d77565b9250610de960208501610d77565b9150604084013590509250925092565b600060208284031215610e0b57600080fd5b5035919050565b600060208284031215610e2457600080fd5b610e2d82610d77565b9392505050565b60008060408385031215610e4757600080fd5b610e5083610d77565b9150610e5e60208401610d77565b90509250929050565b600181811c90821680610e7b57607f821691505b602082108103610e9b57634e487b7160e01b600052602260045260246000fd5b50919050565b634e487b7160e01b600052601160045260246000fd5b808201808211156102dd576102dd610ea1565b600181815b80851115610f05578160001904821115610eeb57610eeb610ea1565b80851615610ef857918102915b93841c9390800290610ecf565b509250929050565b600082610f1c575060016102dd565b81610f29575060006102dd565b8160018114610f3f5760028114610f4957610f65565b60019150506102dd565b60ff841115610f5a57610f5a610ea1565b50506001821b6102dd565b5060208310610133831016604e8410600b8410161715610f88575081810a6102dd565b610f928383610eca565b8060001904821115610fa657610fa6610ea1565b029392505050565b6000610e2d60ff841683610f0d565b80820281158282048414176102dd576102dd610ea1565b634e487b7160e01b600052604160045260246000fd5b601f821115610b4657600081815260208120601f850160051c810160208610156110115750805b601f850160051c820191505b818110156110305782815560010161101d565b505050505050565b815167ffffffffffffffff81111561105257611052610fd4565b611066816110608454610e67565b84610fea565b602080601f83116001811461109b57600084156110835750858301515b600019600386901b1c1916600185901b178555611030565b600085815260208120601f198616915b828110156110ca578886015182559484019460019091019084016110ab565b50858210156110e85787850151600019600388901b60f8161c191681555b5050505050600190811b0190555056fea264697066735822122004d4d0844cedb2b0bf6c2babd8923453bf4a476405e8dc44688a52ed7ce099d764736f6c63430008120033",
  "linkReferences": {},
  "deployedLinkReferences": {}
}