{
  "_format": "hh-sol-artifact-1",
  "contractName": "IntxToken",
  "sourceName": "contracts/IntxToken.sol",
  "abi": [
    {
      "inputs": [],
      "stateMutability": "nonpayable",
      "type": "constructor"
    },
    {
      "anonymous": false,
      "inputs": [
        {
          "indexed": true,
          "internalType": "address",
          "name": "owner",
          "type": "address"
        },
        {
          "indexed": true,
          "internalType": "address",
          "name": "spender",
          "type": "address"
        },
        {
          "indexed": false,
          "internalType": "uint256",
          "name": "value",
          "type": "uint256"
        }
      ],
      "name": "Approval",
      "type": "event"
    },
    {
      "anonymous": false,
      "inputs": [],
      "name": "EIP712DomainChanged",
      "type": "event"
    },
    {
      "anonymous": false,
      "inputs": [
        {
          "indexed": false,
          "internalType": "uint8",
          "name": "version",
          "type": "uint8"
        }
      ],
      "name": "Initialized",
      "type": "event"
    },
    {
      "anonymous": false,
      "inputs": [
        {
          "indexed": true,
          "internalType": "address",
          "name": "from",
          "type": "address"
        },
        {
          "indexed": true,
          "internalType": "address",
          "name": "to",
          "type": "address"
        },
        {
          "indexed": false,
          "internalType": "uint256",
          "name": "value",
          "type": "uint256"
        }
      ],
      "name": "Transfer",
      "type": "event"
    },
    {
      "inputs": [],
      "name": "DOMAIN_SEPARATOR",
      "outputs": [
        {
          "internalType": "bytes32",
          "name": "",
          "type": "bytes32"
        }
      ],
      "stateMutability": "view",
      "type": "function"
    },
    {
      "inputs": [
        {
          "internalType": "address",
          "name": "owner",
          "type": "address"
        },
        {
          "internalType": "address",
          "name": "spender",
          "type": "address"
        }
      ],
      "name": "allowance",
      "outputs": [
        {
          "internalType": "uint256",
          "name": "",
          "type": "uint256"
        }
      ],
      "stateMutability": "view",
      "type": "function"
    },
    {
      "inputs": [
        {
          "internalType": "address",
          "name": "spender",
          "type": "address"
        },
        {
          "internalType": "uint256",
          "name": "amount",
          "type": "uint256"
        }
      ],
      "name": "approve",
      "outputs": [
        {
          "internalType": "bool",
          "name": "",
          "type": "bool"
        }
      ],
      "stateMutability": "nonpayable",
      "type": "function"
    },
    {
      "inputs": [
        {
          "internalType": "address",
          "name": "account",
          "type": "address"
        }
      ],
      "name": "balanceOf",
      "outputs": [
        {
          "internalType": "uint256",
          "name": "",
          "type": "uint256"
        }
      ],
      "stateMutability": "view",
      "type": "function"
    },
    {
      "inputs": [
        {
          "internalType": "uint256",
          "name": "amount",
          "type": "uint256"
        }
      ],
      "name": "burn",
      "outputs": [],
      "stateMutability": "nonpayable",
      "type": "function"
    },
    {
      "inputs": [
        {
          "internalType": "address",
          "name": "account",
          "type": "address"
        },
        {
          "internalType": "uint256",
          "name": "amount",
          "type": "uint256"
        }
      ],
      "name": "burnFrom",
      "outputs": [],
      "stateMutability": "nonpayable",
      "type": "function"
    },
    {
      "inputs": [],
      "name": "decimals",
      "outputs": [
        {
          "internalType": "uint8",
          "name": "",
          "type": "uint8"
        }
      ],
      "stateMutability": "view",
      "type": "function"
    },
    {
      "inputs": [
        {
          "internalType": "address",
          "name": "spender",
          "type": "address"
        },
        {
          "internalType": "uint256",
          "name": "subtractedValue",
          "type": "uint256"
        }
      ],
      "name": "decreaseAllowance",
      "outputs": [
        {
          "internalType": "bool",
          "name": "",
          "type": "bool"
        }
      ],
      "stateMutability": "nonpayable",
      "type": "function"
    },
    {
      "inputs": [],
      "name": "eip712Domain",
      "outputs": [
        {
          "internalType": "bytes1",
          "name": "fields",
          "type": "bytes1"
        },
        {
          "internalType": "string",
          "name": "name",
          "type": "string"
        },
        {
          "internalType": "string",
          "name": "version",
          "type": "string"
        },
        {
          "internalType": "uint256",
          "name": "chainId",
          "type": "uint256"
        },
        {
          "internalType": "address",
          "name": "verifyingContract",
          "type": "address"
        },
        {
          "internalType": "bytes32",
          "name": "salt",
          "type": "bytes32"
        },
        {
          "internalType": "uint256[]",
          "name": "extensions",
          "type": "uint256[]"
        }
      ],
      "stateMutability": "view",
      "type": "function"
    },
    {
      "inputs": [
        {
          "internalType": "address",
          "name": "spender",
          "type": "address"
        },
        {
          "internalType": "uint256",
          "name": "addedValue",
          "type": "uint256"
        }
      ],
      "name": "increaseAllowance",
      "outputs": [
        {
          "internalType": "bool",
          "name": "",
          "type": "bool"
        }
      ],
      "stateMutability": "nonpayable",
      "type": "function"
    },
    {
      "inputs": [],
      "name": "initialize",
      "outputs": [],
      "stateMutability": "nonpayable",
      "type": "function"
    },
    {
      "inputs": [],
      "name": "name",
      "outputs": [
        {
          "internalType": "string",
          "name": "",
          "type": "string"
        }
      ],
      "stateMutability": "view",
      "type": "function"
    },
    {
      "inputs": [
        {
          "internalType": "address",
          "name": "owner",
          "type": "address"
        }
      ],
      "name": "nonces",
      "outputs": [
        {
          "internalType": "uint256",
          "name": "",
          "type": "uint256"
        }
      ],
      "stateMutability": "view",
      "type": "function"
    },
    {
      "inputs": [
        {
          "internalType": "address",
          "name": "owner",
          "type": "address"
        },
        {
          "internalType": "address",
          "name": "spender",
          "type": "address"
        },
        {
          "internalType": "uint256",
          "name": "value",
          "type": "uint256"
        },
        {
          "internalType": "uint256",
          "name": "deadline",
          "type": "uint256"
        },
        {
          "internalType": "uint8",
          "name": "v",
          "type": "uint8"
        },
        {
          "internalType": "bytes32",
          "name": "r",
          "type": "bytes32"
        },
        {
          "internalType": "bytes32",
          "name": "s",
          "type": "bytes32"
        }
      ],
      "name": "permit",
      "outputs": [],
      "stateMutability": "nonpayable",
      "type": "function"
    },
    {
      "inputs": [],
      "name": "symbol",
      "outputs": [
        {
          "internalType": "string",
          "name": "",
          "type": "string"
        }
      ],
      "stateMutability": "view",
      "type": "function"
    },
    {
      "inputs": [],
      "name": "totalSupply",
      "outputs": [
        {
          "internalType": "uint256",
          "name": "",
          "type": "uint256"
        }
      ],
      "stateMutability": "view",
      "type": "function"
    },
    {
      "inputs": [
        {
          "internalType": "address",
          "name": "to",
          "type": "address"
        },
        {
          "internalType": "uint256",
          "name": "amount",
          "type": "uint256"
        }
      ],
      "name": "transfer",
      "outputs": [
        {
          "internalType": "bool",
          "name": "",
          "type": "bool"
        }
      ],
      "stateMutability": "nonpayable",
      "type": "function"
    },
    {
      "inputs": [
        {
          "internalType": "address",
          "name": "from",
          "type": "address"
        },
        {
          "internalType": "address",
          "name": "to",
          "type": "address"
        },
        {
          "internalType": "uint256",
          "name": "amount",
          "type": "uint256"
        }
      ],
      "name": "transferFrom",
      "outputs": [
        {
          "internalType": "bool",
          "name": "",
          "type": "bool"
        }
      ],
      "stateMutability": "nonpayable",
      "type": "function"
    }
  ],
  "bytecode": "0x608060405234801561001057600080fd5b5061001961001e565b6100dd565b600054610100900460ff161561008a5760405162461bcd60e51b815260206004820152602760248201527f496e697469616c697a61626c653a20636f6e747261637420697320696e697469604482015266616c697a696e6760c81b606482015260840160405180910390fd5b60005460ff908116146100db576000805460ff191660ff9081179091556040519081527f7f26b83ff96e1f2b6a682f133852f6798a09c465da95921460cefb38474024989060200160405180910390a15b565b611a94806100ec6000396000f3fe608060405234801561001057600080fd5b50600436106101365760003560e01c806379cc6790116100b257806395d89b4111610081578063a9059cbb11610066578063a9059cbb1461026d578063d505accf14610280578063dd62ed3e1461029357600080fd5b806395d89b4114610252578063a457c2d71461025a57600080fd5b806379cc6790146102095780637ecebe001461021c5780638129fc1c1461022f57806384b0196e1461023757600080fd5b8063313ce5671161010957806339509351116100ee57806339509351146101b857806342966c68146101cb57806370a08231146101e057600080fd5b8063313ce567146101a15780633644e515146101b057600080fd5b806306fdde031461013b578063095ea7b31461015957806318160ddd1461017c57806323b872dd1461018e575b600080fd5b6101436102cc565b6040516101509190611595565b60405180910390f35b61016c6101673660046115cb565b61035e565b6040519015158152602001610150565b6035545b604051908152602001610150565b61016c61019c3660046115f5565b610378565b60405160128152602001610150565b61018061039c565b61016c6101c63660046115cb565b6103ab565b6101de6101d9366004611631565b6103ea565b005b6101806101ee36600461164a565b6001600160a01b031660009081526033602052604090205490565b6101de6102173660046115cb565b6103f7565b61018061022a36600461164a565b610410565b6101de61042e565b61023f61063d565b6040516101509796959493929190611665565b6101436106ff565b61016c6102683660046115cb565b61070e565b61016c61027b3660046115cb565b6107b8565b6101de61028e366004611717565b6107c6565b6101806102a136600461178a565b6001600160a01b03918216600090815260346020908152604080832093909416825291909152205490565b6060603680546102db906117bd565b80601f0160208091040260200160405190810160405280929190818152602001828054610307906117bd565b80156103545780601f1061032957610100808354040283529160200191610354565b820191906000526020600020905b81548152906001019060200180831161033757829003601f168201915b5050505050905090565b60003361036c81858561092a565b60019150505b92915050565b600033610386858285610a83565b610391858585610b15565b506001949350505050565b60006103a6610d09565b905090565b3360008181526034602090815260408083206001600160a01b038716845290915281205490919061036c90829086906103e5908790611807565b61092a565b6103f43382610d13565b50565b610402823383610a83565b61040c8282610d13565b5050565b6001600160a01b038116600090815260cb6020526040812054610372565b600054610100900460ff161580801561044e5750600054600160ff909116105b806104685750303b158015610468575060005460ff166001145b6104df5760405162461bcd60e51b815260206004820152602e60248201527f496e697469616c697a61626c653a20636f6e747261637420697320616c72656160448201527f647920696e697469616c697a656400000000000000000000000000000000000060648201526084015b60405180910390fd5b600080547fffffffffffffffffffffffffffffffffffffffffffffffffffffffffffffff001660011790558015610520576000805461ff0019166101001790555b6105946040518060400160405280600d81526020017f496e74656e745820546f6b656e000000000000000000000000000000000000008152506040518060400160405280600481526020017f494e545800000000000000000000000000000000000000000000000000000000815250610e7b565b6105d26040518060400160405280600d81526020017f496e74656e74585f546f6b656e00000000000000000000000000000000000000815250610ef0565b6105f5336105e26012600a6118fe565b6105f0906305f5e10061190d565b610f9a565b80156103f4576000805461ff0019169055604051600181527f7f26b83ff96e1f2b6a682f133852f6798a09c465da95921460cefb38474024989060200160405180910390a150565b6000606080600080600060606097546000801b14801561065d5750609854155b6106a95760405162461bcd60e51b815260206004820152601560248201527f4549503731323a20556e696e697469616c697a6564000000000000000000000060448201526064016104d6565b6106b161105b565b6106b961106a565b604080516000808252602082019092527f0f000000000000000000000000000000000000000000000000000000000000009b939a50919850469750309650945092509050565b6060603780546102db906117bd565b3360008181526034602090815260408083206001600160a01b0387168452909152812054909190838110156107ab5760405162461bcd60e51b815260206004820152602560248201527f45524332303a2064656372656173656420616c6c6f77616e63652062656c6f7760448201527f207a65726f00000000000000000000000000000000000000000000000000000060648201526084016104d6565b610391828686840361092a565b60003361036c818585610b15565b834211156108165760405162461bcd60e51b815260206004820152601d60248201527f45524332305065726d69743a206578706972656420646561646c696e6500000060448201526064016104d6565b60007f6e71edae12b1b97f4d1f60370fef10105fa2faae0126114a169c64845d6126c98888886108458c611079565b6040805160208101969096526001600160a01b0394851690860152929091166060840152608083015260a082015260c0810186905260e00160405160208183030381529060405280519060200120905060006108a0826110a1565b905060006108b0828787876110e9565b9050896001600160a01b0316816001600160a01b0316146109135760405162461bcd60e51b815260206004820152601e60248201527f45524332305065726d69743a20696e76616c6964207369676e6174757265000060448201526064016104d6565b61091e8a8a8a61092a565b50505050505050505050565b6001600160a01b0383166109a55760405162461bcd60e51b8152602060048201526024808201527f45524332303a20617070726f76652066726f6d20746865207a65726f2061646460448201527f726573730000000000000000000000000000000000000000000000000000000060648201526084016104d6565b6001600160a01b038216610a215760405162461bcd60e51b815260206004820152602260248201527f45524332303a20617070726f766520746f20746865207a65726f20616464726560448201527f737300000000000000000000000000000000000000000000000000000000000060648201526084016104d6565b6001600160a01b0383811660008181526034602090815260408083209487168084529482529182902085905590518481527f8c5be1e5ebec7d5bd14f71427d1e84f3dd0314c0f7b2291e5b200ac8c7c3b92591015b60405180910390a3505050565b6001600160a01b038381166000908152603460209081526040808320938616835292905220546000198114610b0f5781811015610b025760405162461bcd60e51b815260206004820152601d60248201527f45524332303a20696e73756666696369656e7420616c6c6f77616e636500000060448201526064016104d6565b610b0f848484840361092a565b50505050565b6001600160a01b038316610b915760405162461bcd60e51b815260206004820152602560248201527f45524332303a207472616e736665722066726f6d20746865207a65726f20616460448201527f647265737300000000000000000000000000000000000000000000000000000060648201526084016104d6565b6001600160a01b038216610c0d5760405162461bcd60e51b815260206004820152602360248201527f45524332303a207472616e7366657220746f20746865207a65726f206164647260448201527f657373000000000000000000000000000000000000000000000000000000000060648201526084016104d6565b6001600160a01b03831660009081526033602052604090205481811015610c9c5760405162461bcd60e51b815260206004820152602660248201527f45524332303a207472616e7366657220616d6f756e742065786365656473206260448201527f616c616e6365000000000000000000000000000000000000000000000000000060648201526084016104d6565b6001600160a01b0380851660008181526033602052604080822086860390559286168082529083902080548601905591517fddf252ad1be2c89b69c2b068fc378daa952ba7f163c4a11628f55a4df523b3ef90610cfc9086815260200190565b60405180910390a3610b0f565b60006103a6611111565b6001600160a01b038216610d8f5760405162461bcd60e51b815260206004820152602160248201527f45524332303a206275726e2066726f6d20746865207a65726f2061646472657360448201527f730000000000000000000000000000000000000000000000000000000000000060648201526084016104d6565b6001600160a01b03821660009081526033602052604090205481811015610e1e5760405162461bcd60e51b815260206004820152602260248201527f45524332303a206275726e20616d6f756e7420657863656564732062616c616e60448201527f636500000000000000000000000000000000000000000000000000000000000060648201526084016104d6565b6001600160a01b03831660008181526033602090815260408083208686039055603580548790039055518581529192917fddf252ad1be2c89b69c2b068fc378daa952ba7f163c4a11628f55a4df523b3ef9101610a76565b505050565b600054610100900460ff16610ee65760405162461bcd60e51b815260206004820152602b60248201527f496e697469616c697a61626c653a20636f6e7472616374206973206e6f74206960448201526a6e697469616c697a696e6760a81b60648201526084016104d6565b61040c8282611185565b600054610100900460ff16610f5b5760405162461bcd60e51b815260206004820152602b60248201527f496e697469616c697a61626c653a20636f6e7472616374206973206e6f74206960448201526a6e697469616c697a696e6760a81b60648201526084016104d6565b6103f4816040518060400160405280600181526020017f3100000000000000000000000000000000000000000000000000000000000000815250611209565b6001600160a01b038216610ff05760405162461bcd60e51b815260206004820152601f60248201527f45524332303a206d696e7420746f20746865207a65726f20616464726573730060448201526064016104d6565b80603560008282546110029190611807565b90915550506001600160a01b0382166000818152603360209081526040808320805486019055518481527fddf252ad1be2c89b69c2b068fc378daa952ba7f163c4a11628f55a4df523b3ef910160405180910390a35050565b6060609980546102db906117bd565b6060609a80546102db906117bd565b6001600160a01b038116600090815260cb602052604090208054600181018255905b50919050565b60006103726110ae610d09565b836040517f19010000000000000000000000000000000000000000000000000000000000008152600281019290925260228201526042902090565b60008060006110fa8787878761129c565b9150915061110781611360565b5095945050505050565b60007f8b73c3c69bb8fe3d512ecc4cf759cc79239f7b179b0ffacaa9a75d522b39400f61113c6114c5565b61114461151e565b60408051602081019490945283019190915260608201524660808201523060a082015260c00160405160208183030381529060405280519060200120905090565b600054610100900460ff166111f05760405162461bcd60e51b815260206004820152602b60248201527f496e697469616c697a61626c653a20636f6e7472616374206973206e6f74206960448201526a6e697469616c697a696e6760a81b60648201526084016104d6565b60366111fc8382611988565b506037610e768282611988565b600054610100900460ff166112745760405162461bcd60e51b815260206004820152602b60248201527f496e697469616c697a61626c653a20636f6e7472616374206973206e6f74206960448201526a6e697469616c697a696e6760a81b60648201526084016104d6565b60996112808382611988565b50609a61128d8282611988565b50506000609781905560985550565b6000807f7fffffffffffffffffffffffffffffff5d576e7357a4501ddfe92f46681b20a08311156112d35750600090506003611357565b6040805160008082526020820180845289905260ff881692820192909252606081018690526080810185905260019060a0016020604051602081039080840390855afa158015611327573d6000803e3d6000fd5b5050604051601f1901519150506001600160a01b03811661135057600060019250925050611357565b9150600090505b94509492505050565b600081600481111561137457611374611a48565b0361137c5750565b600181600481111561139057611390611a48565b036113dd5760405162461bcd60e51b815260206004820152601860248201527f45434453413a20696e76616c6964207369676e6174757265000000000000000060448201526064016104d6565b60028160048111156113f1576113f1611a48565b0361143e5760405162461bcd60e51b815260206004820152601f60248201527f45434453413a20696e76616c6964207369676e6174757265206c656e6774680060448201526064016104d6565b600381600481111561145257611452611a48565b036103f45760405162461bcd60e51b815260206004820152602260248201527f45434453413a20696e76616c6964207369676e6174757265202773272076616c60448201527f756500000000000000000000000000000000000000000000000000000000000060648201526084016104d6565b6000806114d061105b565b8051909150156114e7578051602090910120919050565b60975480156114f65792915050565b7fc5d2460186f7233c927e7db2dcc703c0e500b653ca82273b7bfad8045d85a4709250505090565b60008061152961106a565b805190915015611540578051602090910120919050565b60985480156114f65792915050565b6000815180845260005b8181101561157557602081850181015186830182015201611559565b506000602082860101526020601f19601f83011685010191505092915050565b6020815260006115a8602083018461154f565b9392505050565b80356001600160a01b03811681146115c657600080fd5b919050565b600080604083850312156115de57600080fd5b6115e7836115af565b946020939093013593505050565b60008060006060848603121561160a57600080fd5b611613846115af565b9250611621602085016115af565b9150604084013590509250925092565b60006020828403121561164357600080fd5b5035919050565b60006020828403121561165c57600080fd5b6115a8826115af565b7fff00000000000000000000000000000000000000000000000000000000000000881681526000602060e0818401526116a160e084018a61154f565b83810360408501526116b3818a61154f565b606085018990526001600160a01b038816608086015260a0850187905284810360c0860152855180825283870192509083019060005b81811015611705578351835292840192918401916001016116e9565b50909c9b505050505050505050505050565b600080600080600080600060e0888a03121561173257600080fd5b61173b886115af565b9650611749602089016115af565b95506040880135945060608801359350608088013560ff8116811461176d57600080fd5b9699959850939692959460a0840135945060c09093013592915050565b6000806040838503121561179d57600080fd5b6117a6836115af565b91506117b4602084016115af565b90509250929050565b600181811c908216806117d157607f821691505b60208210810361109b57634e487b7160e01b600052602260045260246000fd5b634e487b7160e01b600052601160045260246000fd5b80820180821115610372576103726117f1565b600181815b8085111561185557816000190482111561183b5761183b6117f1565b8085161561184857918102915b93841c939080029061181f565b509250929050565b60008261186c57506001610372565b8161187957506000610372565b816001811461188f5760028114611899576118b5565b6001915050610372565b60ff8411156118aa576118aa6117f1565b50506001821b610372565b5060208310610133831016604e8410600b84101617156118d8575081810a610372565b6118e2838361181a565b80600019048211156118f6576118f66117f1565b029392505050565b60006115a860ff84168361185d565b8082028115828204841417610372576103726117f1565b634e487b7160e01b600052604160045260246000fd5b601f821115610e7657600081815260208120601f850160051c810160208610156119615750805b601f850160051c820191505b818110156119805782815560010161196d565b505050505050565b815167ffffffffffffffff8111156119a2576119a2611924565b6119b6816119b084546117bd565b8461193a565b602080601f8311600181146119eb57600084156119d35750858301515b600019600386901b1c1916600185901b178555611980565b600085815260208120601f198616915b82811015611a1a578886015182559484019460019091019084016119fb565b5085821015611a385787850151600019600388901b60f8161c191681555b5050505050600190811b01905550565b634e487b7160e01b600052602160045260246000fdfea264697066735822122026df4a04d73fe65ab82abe4b3a165baae555500fffa4ed1873e425930df4a40e64736f6c63430008120033",
  "linkReferences": {},
  "deployedLinkReferences": {}
}