{
  "_format": "hh-sol-artifact-1",
  "contractName": "NoxPartyB",
  "sourceName": "contracts/solver/NoxSolver.sol",
  "abi": [
    {
      "inputs": [],
      "stateMutability": "nonpayable",
      "type": "constructor"
    },
    {
      "inputs": [],
      "name": "AccessControlBadConfirmation",
      "type": "error"
    },
    {
      "inputs": [
        {
          "internalType": "address",
          "name": "account",
          "type": "address"
        },
        {
          "internalType": "bytes32",
          "name": "neededRole",
          "type": "bytes32"
        }
      ],
      "name": "AccessControlUnauthorizedAccount",
      "type": "error"
    },
    {
      "inputs": [
        {
          "internalType": "address",
          "name": "target",
          "type": "address"
        }
      ],
      "name": "AddressEmptyCode",
      "type": "error"
    },
    {
      "inputs": [
        {
          "internalType": "address",
          "name": "implementation",
          "type": "address"
        }
      ],
      "name": "ERC1967InvalidImplementation",
      "type": "error"
    },
    {
      "inputs": [],
      "name": "ERC1967NonPayable",
      "type": "error"
    },
    {
      "inputs": [],
      "name": "EnforcedPause",
      "type": "error"
    },
    {
      "inputs": [],
      "name": "ExpectedPause",
      "type": "error"
    },
    {
      "inputs": [],
      "name": "FailedCall",
      "type": "error"
    },
    {
      "inputs": [],
      "name": "InvalidInitialization",
      "type": "error"
    },
    {
      "inputs": [],
      "name": "NotInitializing",
      "type": "error"
    },
    {
      "inputs": [],
      "name": "UUPSUnauthorizedCallContext",
      "type": "error"
    },
    {
      "inputs": [
        {
          "internalType": "bytes32",
          "name": "slot",
          "type": "bytes32"
        }
      ],
      "name": "UUPSUnsupportedProxiableUUID",
      "type": "error"
    },
    {
      "anonymous": false,
      "inputs": [
        {
          "indexed": false,
          "internalType": "uint64",
          "name": "version",
          "type": "uint64"
        }
      ],
      "name": "Initialized",
      "type": "event"
    },
    {
      "anonymous": false,
      "inputs": [
        {
          "indexed": false,
          "internalType": "address",
          "name": "account",
          "type": "address"
        }
      ],
      "name": "Paused",
      "type": "event"
    },
    {
      "anonymous": false,
      "inputs": [
        {
          "indexed": true,
          "internalType": "bytes32",
          "name": "role",
          "type": "bytes32"
        },
        {
          "indexed": true,
          "internalType": "bytes32",
          "name": "previousAdminRole",
          "type": "bytes32"
        },
        {
          "indexed": true,
          "internalType": "bytes32",
          "name": "newAdminRole",
          "type": "bytes32"
        }
      ],
      "name": "RoleAdminChanged",
      "type": "event"
    },
    {
      "anonymous": false,
      "inputs": [
        {
          "indexed": true,
          "internalType": "bytes32",
          "name": "role",
          "type": "bytes32"
        },
        {
          "indexed": true,
          "internalType": "address",
          "name": "account",
          "type": "address"
        },
        {
          "indexed": true,
          "internalType": "address",
          "name": "sender",
          "type": "address"
        }
      ],
      "name": "RoleGranted",
      "type": "event"
    },
    {
      "anonymous": false,
      "inputs": [
        {
          "indexed": true,
          "internalType": "bytes32",
          "name": "role",
          "type": "bytes32"
        },
        {
          "indexed": true,
          "internalType": "address",
          "name": "account",
          "type": "address"
        },
        {
          "indexed": true,
          "internalType": "address",
          "name": "sender",
          "type": "address"
        }
      ],
      "name": "RoleRevoked",
      "type": "event"
    },
    {
      "anonymous": false,
      "inputs": [
        {
          "indexed": false,
          "internalType": "address",
          "name": "addr",
          "type": "address"
        },
        {
          "indexed": false,
          "internalType": "bool",
          "name": "state",
          "type": "bool"
        }
      ],
      "name": "SetMulticastWhitelist",
      "type": "event"
    },
    {
      "anonymous": false,
      "inputs": [
        {
          "indexed": false,
          "internalType": "bytes4",
          "name": "selector",
          "type": "bytes4"
        },
        {
          "indexed": false,
          "internalType": "bool",
          "name": "state",
          "type": "bool"
        }
      ],
      "name": "SetRestrictedSelector",
      "type": "event"
    },
    {
      "anonymous": false,
      "inputs": [
        {
          "indexed": false,
          "internalType": "address",
          "name": "oldSymmioAddress",
          "type": "address"
        },
        {
          "indexed": false,
          "internalType": "address",
          "name": "newSymmioAddress",
          "type": "address"
        }
      ],
      "name": "SetSymmioAddress",
      "type": "event"
    },
    {
      "anonymous": false,
      "inputs": [
        {
          "indexed": false,
          "internalType": "address",
          "name": "account",
          "type": "address"
        }
      ],
      "name": "Unpaused",
      "type": "event"
    },
    {
      "anonymous": false,
      "inputs": [
        {
          "indexed": true,
          "internalType": "address",
          "name": "implementation",
          "type": "address"
        }
      ],
      "name": "Upgraded",
      "type": "event"
    },
    {
      "inputs": [],
      "name": "DEFAULT_ADMIN_ROLE",
      "outputs": [
        {
          "internalType": "bytes32",
          "name": "",
          "type": "bytes32"
        }
      ],
      "stateMutability": "view",
      "type": "function"
    },
    {
      "inputs": [],
      "name": "EXECUTOR_ROLE",
      "outputs": [
        {
          "internalType": "bytes32",
          "name": "",
          "type": "bytes32"
        }
      ],
      "stateMutability": "view",
      "type": "function"
    },
    {
      "inputs": [],
      "name": "MANAGER_ROLE",
      "outputs": [
        {
          "internalType": "bytes32",
          "name": "",
          "type": "bytes32"
        }
      ],
      "stateMutability": "view",
      "type": "function"
    },
    {
      "inputs": [],
      "name": "TRUSTED_ROLE",
      "outputs": [
        {
          "internalType": "bytes32",
          "name": "",
          "type": "bytes32"
        }
      ],
      "stateMutability": "view",
      "type": "function"
    },
    {
      "inputs": [],
      "name": "UPGRADE_INTERFACE_VERSION",
      "outputs": [
        {
          "internalType": "string",
          "name": "",
          "type": "string"
        }
      ],
      "stateMutability": "view",
      "type": "function"
    },
    {
      "inputs": [
        {
          "internalType": "address",
          "name": "token",
          "type": "address"
        },
        {
          "internalType": "uint256",
          "name": "amount",
          "type": "uint256"
        }
      ],
      "name": "_approve",
      "outputs": [],
      "stateMutability": "nonpayable",
      "type": "function"
    },
    {
      "inputs": [
        {
          "internalType": "bytes[]",
          "name": "_callDatas",
          "type": "bytes[]"
        }
      ],
      "name": "_call",
      "outputs": [],
      "stateMutability": "nonpayable",
      "type": "function"
    },
    {
      "inputs": [
        {
          "internalType": "address[]",
          "name": "destAddresses",
          "type": "address[]"
        },
        {
          "internalType": "bytes[]",
          "name": "_callDatas",
          "type": "bytes[]"
        }
      ],
      "name": "_multicastCall",
      "outputs": [],
      "stateMutability": "nonpayable",
      "type": "function"
    },
    {
      "inputs": [
        {
          "internalType": "bytes32",
          "name": "role",
          "type": "bytes32"
        }
      ],
      "name": "getRoleAdmin",
      "outputs": [
        {
          "internalType": "bytes32",
          "name": "",
          "type": "bytes32"
        }
      ],
      "stateMutability": "view",
      "type": "function"
    },
    {
      "inputs": [
        {
          "internalType": "bytes32",
          "name": "role",
          "type": "bytes32"
        },
        {
          "internalType": "address",
          "name": "account",
          "type": "address"
        }
      ],
      "name": "grantRole",
      "outputs": [],
      "stateMutability": "nonpayable",
      "type": "function"
    },
    {
      "inputs": [
        {
          "internalType": "address",
          "name": "addr",
          "type": "address"
        }
      ],
      "name": "grantTrustedRole",
      "outputs": [],
      "stateMutability": "nonpayable",
      "type": "function"
    },
    {
      "inputs": [
        {
          "internalType": "bytes32",
          "name": "role",
          "type": "bytes32"
        },
        {
          "internalType": "address",
          "name": "account",
          "type": "address"
        }
      ],
      "name": "hasRole",
      "outputs": [
        {
          "internalType": "bool",
          "name": "",
          "type": "bool"
        }
      ],
      "stateMutability": "view",
      "type": "function"
    },
    {
      "inputs": [
        {
          "internalType": "address",
          "name": "admin",
          "type": "address"
        },
        {
          "internalType": "address[]",
          "name": "managers",
          "type": "address[]"
        },
        {
          "internalType": "address[]",
          "name": "trusted",
          "type": "address[]"
        },
        {
          "internalType": "address",
          "name": "withdrawalAddress_",
          "type": "address"
        },
        {
          "internalType": "address",
          "name": "ledgerMultiSigWithdrawalAddress_",
          "type": "address"
        },
        {
          "internalType": "address",
          "name": "symmioAddress_",
          "type": "address"
        }
      ],
      "name": "initialize",
      "outputs": [],
      "stateMutability": "nonpayable",
      "type": "function"
    },
    {
      "inputs": [
        {
          "internalType": "address",
          "name": "",
          "type": "address"
        }
      ],
      "name": "multicastWhitelist",
      "outputs": [
        {
          "internalType": "bool",
          "name": "",
          "type": "bool"
        }
      ],
      "stateMutability": "view",
      "type": "function"
    },
    {
      "inputs": [],
      "name": "pause",
      "outputs": [],
      "stateMutability": "nonpayable",
      "type": "function"
    },
    {
      "inputs": [],
      "name": "paused",
      "outputs": [
        {
          "internalType": "bool",
          "name": "",
          "type": "bool"
        }
      ],
      "stateMutability": "view",
      "type": "function"
    },
    {
      "inputs": [],
      "name": "proxiableUUID",
      "outputs": [
        {
          "internalType": "bytes32",
          "name": "",
          "type": "bytes32"
        }
      ],
      "stateMutability": "view",
      "type": "function"
    },
    {
      "inputs": [
        {
          "internalType": "bytes32",
          "name": "role",
          "type": "bytes32"
        },
        {
          "internalType": "address",
          "name": "callerConfirmation",
          "type": "address"
        }
      ],
      "name": "renounceRole",
      "outputs": [],
      "stateMutability": "nonpayable",
      "type": "function"
    },
    {
      "inputs": [
        {
          "internalType": "bytes4",
          "name": "",
          "type": "bytes4"
        }
      ],
      "name": "restrictedSelectors",
      "outputs": [
        {
          "internalType": "bool",
          "name": "",
          "type": "bool"
        }
      ],
      "stateMutability": "view",
      "type": "function"
    },
    {
      "inputs": [
        {
          "internalType": "bytes32",
          "name": "role",
          "type": "bytes32"
        },
        {
          "internalType": "address",
          "name": "account",
          "type": "address"
        }
      ],
      "name": "revokeRole",
      "outputs": [],
      "stateMutability": "nonpayable",
      "type": "function"
    },
    {
      "inputs": [
        {
          "internalType": "address",
          "name": "multiAccount",
          "type": "address"
        },
        {
          "internalType": "address",
          "name": "partyA",
          "type": "address"
        },
        {
          "internalType": "bytes[]",
          "name": "sendQuoteCalldata",
          "type": "bytes[]"
        },
        {
          "internalType": "uint256",
          "name": "allocationAmount",
          "type": "uint256"
        },
        {
          "components": [
            {
              "internalType": "bytes",
              "name": "reqId",
              "type": "bytes"
            },
            {
              "internalType": "uint256",
              "name": "timestamp",
              "type": "uint256"
            },
            {
              "internalType": "int256",
              "name": "upnl",
              "type": "int256"
            },
            {
              "internalType": "bytes",
              "name": "gatewaySignature",
              "type": "bytes"
            },
            {
              "components": [
                {
                  "internalType": "uint256",
                  "name": "signature",
                  "type": "uint256"
                },
                {
                  "internalType": "address",
                  "name": "owner",
                  "type": "address"
                },
                {
                  "internalType": "address",
                  "name": "nonce",
                  "type": "address"
                }
              ],
              "internalType": "struct SchnorrSign",
              "name": "sigs",
              "type": "tuple"
            }
          ],
          "internalType": "struct SingleUpnlSig",
          "name": "sig",
          "type": "tuple"
        }
      ],
      "name": "sendAndLockInstantOpenPositionWithReserveVault",
      "outputs": [],
      "stateMutability": "nonpayable",
      "type": "function"
    },
    {
      "inputs": [
        {
          "internalType": "address",
          "name": "addr",
          "type": "address"
        },
        {
          "internalType": "bool",
          "name": "state",
          "type": "bool"
        }
      ],
      "name": "setMulticastWhitelist",
      "outputs": [],
      "stateMutability": "nonpayable",
      "type": "function"
    },
    {
      "inputs": [
        {
          "internalType": "bytes4",
          "name": "selector",
          "type": "bytes4"
        },
        {
          "internalType": "bool",
          "name": "state",
          "type": "bool"
        }
      ],
      "name": "setRestrictedSelector",
      "outputs": [],
      "stateMutability": "nonpayable",
      "type": "function"
    },
    {
      "inputs": [
        {
          "internalType": "address",
          "name": "addr",
          "type": "address"
        }
      ],
      "name": "setSymmioAddress",
      "outputs": [],
      "stateMutability": "nonpayable",
      "type": "function"
    },
    {
      "inputs": [
        {
          "internalType": "bytes4",
          "name": "interfaceId",
          "type": "bytes4"
        }
      ],
      "name": "supportsInterface",
      "outputs": [
        {
          "internalType": "bool",
          "name": "",
          "type": "bool"
        }
      ],
      "stateMutability": "view",
      "type": "function"
    },
    {
      "inputs": [],
      "name": "symmioAddress",
      "outputs": [
        {
          "internalType": "address",
          "name": "",
          "type": "address"
        }
      ],
      "stateMutability": "view",
      "type": "function"
    },
    {
      "inputs": [],
      "name": "unpause",
      "outputs": [],
      "stateMutability": "nonpayable",
      "type": "function"
    },
    {
      "inputs": [
        {
          "internalType": "address",
          "name": "newImplementation",
          "type": "address"
        },
        {
          "internalType": "bytes",
          "name": "data",
          "type": "bytes"
        }
      ],
      "name": "upgradeToAndCall",
      "outputs": [],
      "stateMutability": "payable",
      "type": "function"
    },
    {
      "inputs": [
        {
          "internalType": "address",
          "name": "targetAddress",
          "type": "address"
        },
        {
          "internalType": "address",
          "name": "token",
          "type": "address"
        },
        {
          "internalType": "uint256",
          "name": "amount",
          "type": "uint256"
        }
      ],
      "name": "withdrawERC20",
      "outputs": [],
      "stateMutability": "nonpayable",
      "type": "function"
    }
  ],
  "bytecode": "0x60a06040523060805234801561001457600080fd5b5061001d610022565b6100d4565b7ff0c57e16840df040f15088dc2f81fe391c3923bec73e23a9662efc9c229c6a00805468010000000000000000900460ff16156100725760405163f92ee8a960e01b815260040160405180910390fd5b80546001600160401b03908116146100d15780546001600160401b0319166001600160401b0390811782556040519081527fc7f505b2f371ae2175ee4913f4499e1f2633a7b5936321eed1cdaeb6115181d29060200160405180910390a15b50565b608051612a2b6100fd600039600081816115030152818161152c01526116e10152612a2b6000f3fe6080604052600436106101c15760003560e01c8063717bb262116100f757806391d1485411610095578063d547741f11610064578063d547741f146105e3578063ec87621c14610603578063edddc27314610637578063f504fd591461066757600080fd5b806391d14854146104f3578063a217fddf14610558578063ad3cb1cc1461056d578063ca9d9c9d146105c357600080fd5b806383aba1d3116100d157806383aba1d31461047e5780638456cb591461049e57806387e79880146104b357806388ef77be146104d357600080fd5b8063717bb262146104065780637278b28f146104265780637b7d72251461045e57600080fd5b80633f4ba83a1161016457806352d1902d1161013e57806352d1902d146103665780635901692e1461037b5780635c975abb146103af5780636b18d182146103e657600080fd5b80633f4ba83a1461031e57806344004cc1146103335780634f1ef2861461035357600080fd5b806307bd0265116101a057806307bd02651461024d578063248a9ca31461028f5780632f2ff15d146102de57806336568abe146102fe57600080fd5b8062fbc355146101c657806301569e3a1461020b57806301ffc9a71461022d575b600080fd5b3480156101d257600080fd5b506101f66101e13660046120f8565b60056020526000908152604090205460ff1681565b60405190151581526020015b60405180910390f35b34801561021757600080fd5b5061022b6102263660046120f8565b610687565b005b34801561023957600080fd5b506101f6610248366004612143565b610728565b34801561025957600080fd5b506102817fd8aa0f3194971a2a116679f7c2090f6939c8d4e01a2a8d7e41d55e5351469e6381565b604051908152602001610202565b34801561029b57600080fd5b506102816102aa36600461215e565b60009081527f02dd7bc7dec4dceedda775e58dd541e08a116c6c53815c0bd028192f7b626800602052604090206001015490565b3480156102ea57600080fd5b5061022b6102f9366004612177565b6107c1565b34801561030a57600080fd5b5061022b610319366004612177565b61080b565b34801561032a57600080fd5b5061022b61085c565b34801561033f57600080fd5b5061022b61034e3660046121a3565b610891565b61022b610361366004612297565b610a33565b34801561037257600080fd5b50610281610a52565b34801561038757600080fd5b506102817f2de84d9fbdf6d06e2cc584295043dbd76046423b9f8bae9426d4fa5e7c03f4a781565b3480156103bb57600080fd5b507fcd5ed15c6e187e77e9aee88184c21f4f2182ab5827cb3b7e07fbedcd63f033005460ff166101f6565b3480156103f257600080fd5b5061022b61040136600461237d565b610a81565b34801561041257600080fd5b5061022b610421366004612435565b610d25565b34801561043257600080fd5b50600054610446906001600160a01b031681565b6040516001600160a01b039091168152602001610202565b34801561046a57600080fd5b5061022b61047936600461246c565b610db4565b34801561048a57600080fd5b5061022b610499366004612496565b610ec2565b3480156104aa57600080fd5b5061022b610f61565b3480156104bf57600080fd5b5061022b6104ce3660046124ca565b610f93565b3480156104df57600080fd5b5061022b6104ee3660046120f8565b6110c5565b3480156104ff57600080fd5b506101f661050e366004612177565b60009182527f02dd7bc7dec4dceedda775e58dd541e08a116c6c53815c0bd028192f7b626800602090815260408084206001600160a01b0393909316845291905290205460ff1690565b34801561056457600080fd5b50610281600081565b34801561057957600080fd5b506105b66040518060400160405280600581526020017f352e302e3000000000000000000000000000000000000000000000000000000081525081565b6040516102029190612628565b3480156105cf57600080fd5b5061022b6105de366004612687565b611119565b3480156105ef57600080fd5b5061022b6105fe366004612177565b6111b2565b34801561060f57600080fd5b506102817f241ecf16d79d0f8dbfb92cbc07fe17840425976cf0667f022fe9877caa831b0881565b34801561064357600080fd5b506101f6610652366004612143565b60046020526000908152604090205460ff1681565b34801561067357600080fd5b5061022b6106823660046126c9565b6111f6565b7f241ecf16d79d0f8dbfb92cbc07fe17840425976cf0667f022fe9877caa831b086106b181611307565b600054604080516001600160a01b03928316815291841660208301527ff78ccdf5924090b2ab6627ac5da4ec5affed73d47c6bc6c8a4620a0d5ed57bc8910160405180910390a1506000805473ffffffffffffffffffffffffffffffffffffffff19166001600160a01b0392909216919091179055565b60007fffffffff0000000000000000000000000000000000000000000000000000000082167f7965db0b0000000000000000000000000000000000000000000000000000000014806107bb57507f01ffc9a7000000000000000000000000000000000000000000000000000000007fffffffff000000000000000000000000000000000000000000000000000000008316145b92915050565b60008281527f02dd7bc7dec4dceedda775e58dd541e08a116c6c53815c0bd028192f7b62680060205260409020600101546107fb81611307565b6108058383611311565b50505050565b6001600160a01b038116331461084d576040517f6697b23200000000000000000000000000000000000000000000000000000000815260040160405180910390fd5b61085782826113e0565b505050565b7f241ecf16d79d0f8dbfb92cbc07fe17840425976cf0667f022fe9877caa831b0861088681611307565b61088e611486565b50565b7f241ecf16d79d0f8dbfb92cbc07fe17840425976cf0667f022fe9877caa831b086108bb81611307565b6001546001600160a01b03858116911614806108e457506002546001600160a01b038581169116145b61095b5760405162461bcd60e51b815260206004820152602260248201527f496e76616c696420746172676574207769746864726177616c2041646472657360448201527f732100000000000000000000000000000000000000000000000000000000000060648201526084015b60405180910390fd5b6040517fa9059cbb0000000000000000000000000000000000000000000000000000000081526001600160a01b0385811660048301526024820184905284169063a9059cbb906044016020604051808303816000875af11580156109c3573d6000803e3d6000fd5b505050506040513d601f19601f820116820180604052508101906109e7919061273a565b6108055760405162461bcd60e51b815260206004820152601d60248201527f53796d6d696f5061727479423a204e6f74207472616e736665727265640000006044820152606401610952565b610a3b6114f8565b610a44826115ca565b610a4e82826115d5565b5050565b6000610a5c6116d6565b507f360894a13ba1a3210667c828492db98dca3e2076cc3735a920a3ca505d382bbc90565b6000610a8b611738565b805490915060ff68010000000000000000820416159067ffffffffffffffff16600081158015610ab85750825b905060008267ffffffffffffffff166001148015610ad55750303b155b905081158015610ae3575080155b15610b1a576040517ff92ee8a900000000000000000000000000000000000000000000000000000000815260040160405180910390fd5b84547fffffffffffffffffffffffffffffffffffffffffffffffff00000000000000001660011785558315610b6557845468ff00000000000000001916680100000000000000001785555b610b6d611761565b610b75611761565b610b7d611761565b600080546001600160a01b0380891673ffffffffffffffffffffffffffffffffffffffff19928316178355600180548c831690841617905560028054918b1691909216179055610bcd908c611311565b5060005b8a518160ff161015610c7057610c237f2de84d9fbdf6d06e2cc584295043dbd76046423b9f8bae9426d4fa5e7c03f4a78c8360ff1681518110610c1657610c16612757565b6020026020010151611311565b50610c5d7f241ecf16d79d0f8dbfb92cbc07fe17840425976cf0667f022fe9877caa831b088c8360ff1681518110610c1657610c16612757565b5080610c688161276d565b915050610bd1565b5060005b89518160ff161015610ccc57610cb97f2de84d9fbdf6d06e2cc584295043dbd76046423b9f8bae9426d4fa5e7c03f4a78b8360ff1681518110610c1657610c16612757565b5080610cc48161276d565b915050610c74565b508315610d1857845468ff000000000000000019168555604051600181527fc7f505b2f371ae2175ee4913f4499e1f2633a7b5936321eed1cdaeb6115181d29060200160405180910390a15b5050505050505050505050565b7f241ecf16d79d0f8dbfb92cbc07fe17840425976cf0667f022fe9877caa831b08610d4f81611307565b6001600160a01b038316600081815260056020908152604091829020805460ff19168615159081179091558251938452908301527ff776d871534c4177eb3ea09ad170db249e5c7057ff18ddf26992d18459a904b191015b60405180910390a1505050565b7f2de84d9fbdf6d06e2cc584295043dbd76046423b9f8bae9426d4fa5e7c03f4a7610dde81611307565b610de6611769565b6000546040517f095ea7b30000000000000000000000000000000000000000000000000000000081526001600160a01b039182166004820152602481018490529084169063095ea7b3906044016020604051808303816000875af1158015610e52573d6000803e3d6000fd5b505050506040513d601f19601f82011682018060405250810190610e76919061273a565b6108575760405162461bcd60e51b815260206004820152601a60248201527f53796d6d696f5061727479423a204e6f7420617070726f7665640000000000006044820152606401610952565b7f241ecf16d79d0f8dbfb92cbc07fe17840425976cf0667f022fe9877caa831b08610eec81611307565b7fffffffff000000000000000000000000000000000000000000000000000000008316600081815260046020908152604091829020805460ff19168615159081179091558251938452908301527f3b438b04c48041000349f30457a15358332ec96233735f9bc289621aa82fb7759101610da7565b7f241ecf16d79d0f8dbfb92cbc07fe17840425976cf0667f022fe9877caa831b08610f8b81611307565b61088e6117c5565b7fd8aa0f3194971a2a116679f7c2090f6939c8d4e01a2a8d7e41d55e5351469e63610fbd81611307565b6040517fbd367d8e0000000000000000000000000000000000000000000000000000000081526001600160a01b0387169063bd367d8e90611004908890889060040161279a565b600060405180830381600087803b15801561101e57600080fd5b505af1158015611032573d6000803e3d6000fd5b5050505060008060009054906101000a90046001600160a01b03166001600160a01b031663aa48e2e86040518163ffffffff1660e01b8152600401602060405180830381865afa15801561108a573d6000803e3d6000fd5b505050506040513d601f19601f820116820180604052508101906110ae919061282d565b90506110bc81878686611820565b50505050505050565b7f241ecf16d79d0f8dbfb92cbc07fe17840425976cf0667f022fe9877caa831b086110ef81611307565b6108577f2de84d9fbdf6d06e2cc584295043dbd76046423b9f8bae9426d4fa5e7c03f4a783611311565b611121611769565b60005b60ff8116821115610857576000546111a0906001600160a01b0316848460ff851681811061115457611154612757565b90506020028101906111669190612846565b8080601f0160208091040260200160405190810160405280939291908181526020018383808284376000920191909152506119a092505050565b806111aa8161276d565b915050611124565b60008281527f02dd7bc7dec4dceedda775e58dd541e08a116c6c53815c0bd028192f7b62680060205260409020600101546111ec81611307565b61080583836113e0565b6111fe611769565b7fd8aa0f3194971a2a116679f7c2090f6939c8d4e01a2a8d7e41d55e5351469e6361122881611307565b83821461129d5760405162461bcd60e51b815260206004820152602360248201527f53796d6d696f5061727479423a204172726179206c656e677468206d69736d6160448201527f74636800000000000000000000000000000000000000000000000000000000006064820152608401610952565b60005b60ff81168311156112ff576112ed86868360ff168181106112c3576112c3612757565b90506020020160208101906112d891906120f8565b85858460ff1681811061115457611154612757565b806112f78161276d565b9150506112a0565b505050505050565b61088e8133611d3d565b60008281527f02dd7bc7dec4dceedda775e58dd541e08a116c6c53815c0bd028192f7b626800602081815260408084206001600160a01b038616855290915282205460ff166113d6576000848152602082815260408083206001600160a01b03871684529091529020805460ff1916600117905561138c3390565b6001600160a01b0316836001600160a01b0316857f2f8788117e7eff1d82e926ec794901d17c78024a50270940304540a733656f0d60405160405180910390a460019150506107bb565b60009150506107bb565b60008281527f02dd7bc7dec4dceedda775e58dd541e08a116c6c53815c0bd028192f7b626800602081815260408084206001600160a01b038616855290915282205460ff16156113d6576000848152602082815260408083206001600160a01b0387168085529252808320805460ff1916905551339287917ff6391f5c32d9c69d2a47ea670b442974b53935d1edc7fd64eb21e047a839171b9190a460019150506107bb565b61148e611dca565b7fcd5ed15c6e187e77e9aee88184c21f4f2182ab5827cb3b7e07fbedcd63f03300805460ff191681557f5db9ee0a495bf2e6ff9c91a7834c1ba4fdd244a5e8aa4e537bd38aeae4b073aa335b6040516001600160a01b03909116815260200160405180910390a150565b306001600160a01b037f000000000000000000000000000000000000000000000000000000000000000016148061159157507f00000000000000000000000000000000000000000000000000000000000000006001600160a01b03166115857f360894a13ba1a3210667c828492db98dca3e2076cc3735a920a3ca505d382bbc546001600160a01b031690565b6001600160a01b031614155b156115c8576040517fe07c8dba00000000000000000000000000000000000000000000000000000000815260040160405180910390fd5b565b6000610a4e81611307565b816001600160a01b03166352d1902d6040518163ffffffff1660e01b8152600401602060405180830381865afa92505050801561162f575060408051601f3d908101601f1916820190925261162c9181019061282d565b60015b611670576040517f4c9c8ce30000000000000000000000000000000000000000000000000000000081526001600160a01b0383166004820152602401610952565b7f360894a13ba1a3210667c828492db98dca3e2076cc3735a920a3ca505d382bbc81146116cc576040517faa1d49a400000000000000000000000000000000000000000000000000000000815260048101829052602401610952565b6108578383611e25565b306001600160a01b037f000000000000000000000000000000000000000000000000000000000000000016146115c8576040517fe07c8dba00000000000000000000000000000000000000000000000000000000815260040160405180910390fd5b6000807ff0c57e16840df040f15088dc2f81fe391c3923bec73e23a9662efc9c229c6a006107bb565b6115c8611e7b565b7fcd5ed15c6e187e77e9aee88184c21f4f2182ab5827cb3b7e07fbedcd63f033005460ff16156115c8576040517fd93c066500000000000000000000000000000000000000000000000000000000815260040160405180910390fd5b6117cd611769565b7fcd5ed15c6e187e77e9aee88184c21f4f2182ab5827cb3b7e07fbedcd63f03300805460ff191660011781557f62e78cea01bee320cd4e420270b5ea74000d11b0c9f74754ebdbfc544b05a258336114da565b811561191d576000546040517fb074c08d000000000000000000000000000000000000000000000000000000008152600481018490526001600160a01b039091169063b074c08d90602401600060405180830381600087803b15801561188557600080fd5b505af1158015611899573d6000803e3d6000fd5b50506000546040517fcd0bac16000000000000000000000000000000000000000000000000000000008152600481018690526001600160a01b038781166024830152909116925063cd0bac169150604401600060405180830381600087803b15801561190457600080fd5b505af1158015611918573d6000803e3d6000fd5b505050505b6000546040517fca6b88de0000000000000000000000000000000000000000000000000000000081526001600160a01b039091169063ca6b88de9061196890879085906004016128fe565b600060405180830381600087803b15801561198257600080fd5b505af1158015611996573d6000803e3d6000fd5b5050505050505050565b6001600160a01b0382166119f65760405162461bcd60e51b815260206004820152601d60248201527f53796d6d696f5061727479423a20496e76616c696420616464726573730000006044820152606401610952565b600481511015611a485760405162461bcd60e51b815260206004820152601f60248201527f53796d6d696f5061727479423a20496e76616c69642063616c6c2064617461006044820152606401610952565b6000546001600160a01b0390811690831603611bc4576020818101517fffffffff0000000000000000000000000000000000000000000000000000000081166000908152600490925260409091205460ff1615611ace57611ac97f241ecf16d79d0f8dbfb92cbc07fe17840425976cf0667f022fe9877caa831b0833611d3d565b611bbe565b3360009081527f06484cc59dc38e4f67c31122333a17ca81b3ca18cdf02bfc298072fa52b0316a602052604090205460ff1680611b3957503360009081527fb38c6796a5c454da0c32c90639f21d30f0a3bf15ff2bcd6082b8f57e8649f9ce602052604090205460ff165b80611b7257503360009081527f52fce5e8a5d0d9e8d1ea29f4525e512e9c27bf92cae50374d497f918ab48f382602052604090205460ff165b611bbe5760405162461bcd60e51b815260206004820152601c60248201527f53796d6d696f5061727479423a20496e76616c696420616363657373000000006044820152606401610952565b50611c7c565b6001600160a01b03821660009081526005602052604090205460ff16611c525760405162461bcd60e51b815260206004820152603460248201527f53796d6d696f5061727479423a2044657374696e6174696f6e2061646472657360448201527f73206973206e6f742077686974656c69737465640000000000000000000000006064820152608401610952565b611c7c7f2de84d9fbdf6d06e2cc584295043dbd76046423b9f8bae9426d4fa5e7c03f4a733611d3d565b600080836001600160a01b0316600084604051611c9991906129d9565b60006040518083038185875af1925050503d8060008114611cd6576040519150601f19603f3d011682016040523d82523d6000602084013e611cdb565b606091505b50915091508161080557805115611cf55780518060208301fd5b60405162461bcd60e51b815260206004820181905260248201527f53796d6d696f5061727479423a20457865637574696f6e2072657665727465646044820152606401610952565b60008281527f02dd7bc7dec4dceedda775e58dd541e08a116c6c53815c0bd028192f7b626800602090815260408083206001600160a01b038516845290915290205460ff16610a4e576040517fe2517d3f0000000000000000000000000000000000000000000000000000000081526001600160a01b038216600482015260248101839052604401610952565b7fcd5ed15c6e187e77e9aee88184c21f4f2182ab5827cb3b7e07fbedcd63f033005460ff166115c8576040517f8dfc202b00000000000000000000000000000000000000000000000000000000815260040160405180910390fd5b611e2e82611eb9565b6040516001600160a01b038316907fbc7cd75a20ee27fd9adebab32041f755214dbc6bffa90cc0225b39da2e5c2d3b90600090a2805115611e73576108578282611f56565b610a4e611fcc565b611e83612004565b6115c8576040517fd7e6bcf800000000000000000000000000000000000000000000000000000000815260040160405180910390fd5b806001600160a01b03163b600003611f08576040517f4c9c8ce30000000000000000000000000000000000000000000000000000000081526001600160a01b0382166004820152602401610952565b7f360894a13ba1a3210667c828492db98dca3e2076cc3735a920a3ca505d382bbc805473ffffffffffffffffffffffffffffffffffffffff19166001600160a01b0392909216919091179055565b6060600080846001600160a01b031684604051611f7391906129d9565b600060405180830381855af49150503d8060008114611fae576040519150601f19603f3d011682016040523d82523d6000602084013e611fb3565b606091505b5091509150611fc3858383612023565b95945050505050565b34156115c8576040517fb398979f00000000000000000000000000000000000000000000000000000000815260040160405180910390fd5b600061200e611738565b5468010000000000000000900460ff16919050565b606082612038576120338261209b565b612094565b815115801561204f57506001600160a01b0384163b155b15612091576040517f9996b3150000000000000000000000000000000000000000000000000000000081526001600160a01b0385166004820152602401610952565b50805b9392505050565b8051156120aa57805160208201fd5b6040517fd6bda27500000000000000000000000000000000000000000000000000000000815260040160405180910390fd5b80356001600160a01b03811681146120f357600080fd5b919050565b60006020828403121561210a57600080fd5b612094826120dc565b80357fffffffff00000000000000000000000000000000000000000000000000000000811681146120f357600080fd5b60006020828403121561215557600080fd5b61209482612113565b60006020828403121561217057600080fd5b5035919050565b6000806040838503121561218a57600080fd5b8235915061219a602084016120dc565b90509250929050565b6000806000606084860312156121b857600080fd5b6121c1846120dc565b92506121cf602085016120dc565b929592945050506040919091013590565b634e487b7160e01b600052604160045260246000fd5b604051601f8201601f1916810167ffffffffffffffff8111828210171561221f5761221f6121e0565b604052919050565b600082601f83011261223857600080fd5b813567ffffffffffffffff811115612252576122526121e0565b6122656020601f19601f840116016121f6565b81815284602083860101111561227a57600080fd5b816020850160208301376000918101602001919091529392505050565b600080604083850312156122aa57600080fd5b6122b3836120dc565b9150602083013567ffffffffffffffff8111156122cf57600080fd5b6122db85828601612227565b9150509250929050565b600067ffffffffffffffff8211156122ff576122ff6121e0565b5060051b60200190565b600082601f83011261231a57600080fd5b813561232d612328826122e5565b6121f6565b8082825260208201915060208360051b86010192508583111561234f57600080fd5b602085015b8381101561237357612365816120dc565b835260209283019201612354565b5095945050505050565b60008060008060008060c0878903121561239657600080fd5b61239f876120dc565b9550602087013567ffffffffffffffff8111156123bb57600080fd5b6123c789828a01612309565b955050604087013567ffffffffffffffff8111156123e457600080fd5b6123f089828a01612309565b9450506123ff606088016120dc565b925061240d608088016120dc565b915061241b60a088016120dc565b90509295509295509295565b801515811461088e57600080fd5b6000806040838503121561244857600080fd5b612451836120dc565b9150602083013561246181612427565b809150509250929050565b6000806040838503121561247f57600080fd5b612488836120dc565b946020939093013593505050565b600080604083850312156124a957600080fd5b61245183612113565b600060e082840312156124c457600080fd5b50919050565b600080600080600060a086880312156124e257600080fd5b6124eb866120dc565b94506124f9602087016120dc565b9350604086013567ffffffffffffffff81111561251557600080fd5b8601601f8101881361252657600080fd5b8035612534612328826122e5565b8082825260208201915060208360051b85010192508a83111561255657600080fd5b602084015b8381101561259857803567ffffffffffffffff81111561257a57600080fd5b6125898d602083890101612227565b8452506020928301920161255b565b50955050505060608601359150608086013567ffffffffffffffff8111156125bf57600080fd5b6125cb888289016124b2565b9150509295509295909350565b60005b838110156125f35781810151838201526020016125db565b50506000910152565b600081518084526126148160208601602086016125d8565b601f01601f19169290920160200192915050565b60208152600061209460208301846125fc565b60008083601f84011261264d57600080fd5b50813567ffffffffffffffff81111561266557600080fd5b6020830191508360208260051b850101111561268057600080fd5b9250929050565b6000806020838503121561269a57600080fd5b823567ffffffffffffffff8111156126b157600080fd5b6126bd8582860161263b565b90969095509350505050565b600080600080604085870312156126df57600080fd5b843567ffffffffffffffff8111156126f657600080fd5b6127028782880161263b565b909550935050602085013567ffffffffffffffff81111561272257600080fd5b61272e8782880161263b565b95989497509550505050565b60006020828403121561274c57600080fd5b815161209481612427565b634e487b7160e01b600052603260045260246000fd5b600060ff821660ff810361279157634e487b7160e01b600052601160045260246000fd5b60010192915050565b6000604082016001600160a01b03851683526040602084015280845180835260608501915060608160051b86010192506020860160005b82811015612820577fffffffffffffffffffffffffffffffffffffffffffffffffffffffffffffffa087860301845261280b8583516125fc565b945060209384019391909101906001016127d1565b5092979650505050505050565b60006020828403121561283f57600080fd5b5051919050565b6000808335601e1984360301811261285d57600080fd5b83018035915067ffffffffffffffff82111561287857600080fd5b60200191503681900382131561268057600080fd5b6000808335601e198436030181126128a457600080fd5b830160208101925035905067ffffffffffffffff8111156128c457600080fd5b80360382131561268057600080fd5b818352818160208501375060006020828401015260006020601f19601f840116840101905092915050565b828152604060208201526000612914838461288d565b60e0604085015261292a610120850182846128d3565b9150506000602085013590508060608501525060408401356080840152612954606085018561288d565b7fffffffffffffffffffffffffffffffffffffffffffffffffffffffffffffffc08584030160a08601526129898382846128d3565b608087013560c087015292506001600160a01b0391506129ad905060a086016120dc565b1660e08401526001600160a01b036129c760c086016120dc565b16610100840152809150509392505050565b600082516129eb8184602087016125d8565b919091019291505056fea26469706673582212200c9fc3cb957ac412ae87c278ed48b37b5b97ffb41d0b47c35c144811b55ea1b364736f6c634300081c0033",
  "linkReferences": {},
  "deployedLinkReferences": {}
}