{
  "_format": "hh-sol-artifact-1",
  "contractName": "NoxPartyB",
  "sourceName": "contracts/solver/NoxSolver.sol",
  "abi": [
    {
      "inputs": [],
      "stateMutability": "nonpayable",
      "type": "constructor"
    },
    {
      "inputs": [],
      "name": "AccessControlBadConfirmation",
      "type": "error"
    },
    {
      "inputs": [
        {
          "internalType": "address",
          "name": "account",
          "type": "address"
        },
        {
          "internalType": "bytes32",
          "name": "neededRole",
          "type": "bytes32"
        }
      ],
      "name": "AccessControlUnauthorizedAccount",
      "type": "error"
    },
    {
      "inputs": [
        {
          "internalType": "address",
          "name": "target",
          "type": "address"
        }
      ],
      "name": "AddressEmptyCode",
      "type": "error"
    },
    {
      "inputs": [
        {
          "internalType": "address",
          "name": "implementation",
          "type": "address"
        }
      ],
      "name": "ERC1967InvalidImplementation",
      "type": "error"
    },
    {
      "inputs": [],
      "name": "ERC1967NonPayable",
      "type": "error"
    },
    {
      "inputs": [],
      "name": "EnforcedPause",
      "type": "error"
    },
    {
      "inputs": [],
      "name": "ExpectedPause",
      "type": "error"
    },
    {
      "inputs": [],
      "name": "FailedCall",
      "type": "error"
    },
    {
      "inputs": [],
      "name": "InvalidInitialization",
      "type": "error"
    },
    {
      "inputs": [],
      "name": "NotInitializing",
      "type": "error"
    },
    {
      "inputs": [],
      "name": "UUPSUnauthorizedCallContext",
      "type": "error"
    },
    {
      "inputs": [
        {
          "internalType": "bytes32",
          "name": "slot",
          "type": "bytes32"
        }
      ],
      "name": "UUPSUnsupportedProxiableUUID",
      "type": "error"
    },
    {
      "anonymous": false,
      "inputs": [
        {
          "indexed": false,
          "internalType": "uint64",
          "name": "version",
          "type": "uint64"
        }
      ],
      "name": "Initialized",
      "type": "event"
    },
    {
      "anonymous": false,
      "inputs": [
        {
          "indexed": false,
          "internalType": "address",
          "name": "account",
          "type": "address"
        }
      ],
      "name": "Paused",
      "type": "event"
    },
    {
      "anonymous": false,
      "inputs": [
        {
          "indexed": true,
          "internalType": "bytes32",
          "name": "role",
          "type": "bytes32"
        },
        {
          "indexed": true,
          "internalType": "bytes32",
          "name": "previousAdminRole",
          "type": "bytes32"
        },
        {
          "indexed": true,
          "internalType": "bytes32",
          "name": "newAdminRole",
          "type": "bytes32"
        }
      ],
      "name": "RoleAdminChanged",
      "type": "event"
    },
    {
      "anonymous": false,
      "inputs": [
        {
          "indexed": true,
          "internalType": "bytes32",
          "name": "role",
          "type": "bytes32"
        },
        {
          "indexed": true,
          "internalType": "address",
          "name": "account",
          "type": "address"
        },
        {
          "indexed": true,
          "internalType": "address",
          "name": "sender",
          "type": "address"
        }
      ],
      "name": "RoleGranted",
      "type": "event"
    },
    {
      "anonymous": false,
      "inputs": [
        {
          "indexed": true,
          "internalType": "bytes32",
          "name": "role",
          "type": "bytes32"
        },
        {
          "indexed": true,
          "internalType": "address",
          "name": "account",
          "type": "address"
        },
        {
          "indexed": true,
          "internalType": "address",
          "name": "sender",
          "type": "address"
        }
      ],
      "name": "RoleRevoked",
      "type": "event"
    },
    {
      "anonymous": false,
      "inputs": [
        {
          "indexed": false,
          "internalType": "address",
          "name": "addr",
          "type": "address"
        },
        {
          "indexed": false,
          "internalType": "bool",
          "name": "state",
          "type": "bool"
        }
      ],
      "name": "SetMulticastWhitelist",
      "type": "event"
    },
    {
      "anonymous": false,
      "inputs": [
        {
          "indexed": false,
          "internalType": "bytes4",
          "name": "selector",
          "type": "bytes4"
        },
        {
          "indexed": false,
          "internalType": "bool",
          "name": "state",
          "type": "bool"
        }
      ],
      "name": "SetRestrictedSelector",
      "type": "event"
    },
    {
      "anonymous": false,
      "inputs": [
        {
          "indexed": false,
          "internalType": "address",
          "name": "oldSymmioAddress",
          "type": "address"
        },
        {
          "indexed": false,
          "internalType": "address",
          "name": "newSymmioAddress",
          "type": "address"
        }
      ],
      "name": "SetSymmioAddress",
      "type": "event"
    },
    {
      "anonymous": false,
      "inputs": [
        {
          "indexed": false,
          "internalType": "address",
          "name": "account",
          "type": "address"
        }
      ],
      "name": "Unpaused",
      "type": "event"
    },
    {
      "anonymous": false,
      "inputs": [
        {
          "indexed": true,
          "internalType": "address",
          "name": "implementation",
          "type": "address"
        }
      ],
      "name": "Upgraded",
      "type": "event"
    },
    {
      "inputs": [],
      "name": "DEFAULT_ADMIN_ROLE",
      "outputs": [
        {
          "internalType": "bytes32",
          "name": "",
          "type": "bytes32"
        }
      ],
      "stateMutability": "view",
      "type": "function"
    },
    {
      "inputs": [],
      "name": "EXECUTOR_ROLE",
      "outputs": [
        {
          "internalType": "bytes32",
          "name": "",
          "type": "bytes32"
        }
      ],
      "stateMutability": "view",
      "type": "function"
    },
    {
      "inputs": [],
      "name": "MANAGER_ROLE",
      "outputs": [
        {
          "internalType": "bytes32",
          "name": "",
          "type": "bytes32"
        }
      ],
      "stateMutability": "view",
      "type": "function"
    },
    {
      "inputs": [],
      "name": "TRUSTED_ROLE",
      "outputs": [
        {
          "internalType": "bytes32",
          "name": "",
          "type": "bytes32"
        }
      ],
      "stateMutability": "view",
      "type": "function"
    },
    {
      "inputs": [],
      "name": "UPGRADE_INTERFACE_VERSION",
      "outputs": [
        {
          "internalType": "string",
          "name": "",
          "type": "string"
        }
      ],
      "stateMutability": "view",
      "type": "function"
    },
    {
      "inputs": [
        {
          "internalType": "address",
          "name": "token",
          "type": "address"
        },
        {
          "internalType": "uint256",
          "name": "amount",
          "type": "uint256"
        }
      ],
      "name": "_approve",
      "outputs": [],
      "stateMutability": "nonpayable",
      "type": "function"
    },
    {
      "inputs": [
        {
          "internalType": "bytes[]",
          "name": "_callDatas",
          "type": "bytes[]"
        }
      ],
      "name": "_call",
      "outputs": [],
      "stateMutability": "nonpayable",
      "type": "function"
    },
    {
      "inputs": [
        {
          "internalType": "address[]",
          "name": "destAddresses",
          "type": "address[]"
        },
        {
          "internalType": "bytes[]",
          "name": "_callDatas",
          "type": "bytes[]"
        }
      ],
      "name": "_multicastCall",
      "outputs": [],
      "stateMutability": "nonpayable",
      "type": "function"
    },
    {
      "inputs": [
        {
          "internalType": "bytes32",
          "name": "role",
          "type": "bytes32"
        }
      ],
      "name": "getRoleAdmin",
      "outputs": [
        {
          "internalType": "bytes32",
          "name": "",
          "type": "bytes32"
        }
      ],
      "stateMutability": "view",
      "type": "function"
    },
    {
      "inputs": [
        {
          "internalType": "bytes32",
          "name": "role",
          "type": "bytes32"
        },
        {
          "internalType": "address",
          "name": "account",
          "type": "address"
        }
      ],
      "name": "grantRole",
      "outputs": [],
      "stateMutability": "nonpayable",
      "type": "function"
    },
    {
      "inputs": [
        {
          "internalType": "address",
          "name": "addr",
          "type": "address"
        }
      ],
      "name": "grantTrustedRole",
      "outputs": [],
      "stateMutability": "nonpayable",
      "type": "function"
    },
    {
      "inputs": [
        {
          "internalType": "bytes32",
          "name": "role",
          "type": "bytes32"
        },
        {
          "internalType": "address",
          "name": "account",
          "type": "address"
        }
      ],
      "name": "hasRole",
      "outputs": [
        {
          "internalType": "bool",
          "name": "",
          "type": "bool"
        }
      ],
      "stateMutability": "view",
      "type": "function"
    },
    {
      "inputs": [
        {
          "internalType": "address",
          "name": "admin",
          "type": "address"
        },
        {
          "internalType": "address[]",
          "name": "managers",
          "type": "address[]"
        },
        {
          "internalType": "address[]",
          "name": "trusted",
          "type": "address[]"
        },
        {
          "internalType": "address",
          "name": "withdrawalAddress_",
          "type": "address"
        },
        {
          "internalType": "address",
          "name": "ledgerMultiSigWithdrawalAddress_",
          "type": "address"
        },
        {
          "internalType": "address",
          "name": "symmioAddress_",
          "type": "address"
        }
      ],
      "name": "initialize",
      "outputs": [],
      "stateMutability": "nonpayable",
      "type": "function"
    },
    {
      "inputs": [
        {
          "internalType": "address",
          "name": "",
          "type": "address"
        }
      ],
      "name": "multicastWhitelist",
      "outputs": [
        {
          "internalType": "bool",
          "name": "",
          "type": "bool"
        }
      ],
      "stateMutability": "view",
      "type": "function"
    },
    {
      "inputs": [],
      "name": "pause",
      "outputs": [],
      "stateMutability": "nonpayable",
      "type": "function"
    },
    {
      "inputs": [],
      "name": "paused",
      "outputs": [
        {
          "internalType": "bool",
          "name": "",
          "type": "bool"
        }
      ],
      "stateMutability": "view",
      "type": "function"
    },
    {
      "inputs": [],
      "name": "proxiableUUID",
      "outputs": [
        {
          "internalType": "bytes32",
          "name": "",
          "type": "bytes32"
        }
      ],
      "stateMutability": "view",
      "type": "function"
    },
    {
      "inputs": [
        {
          "internalType": "bytes32",
          "name": "role",
          "type": "bytes32"
        },
        {
          "internalType": "address",
          "name": "callerConfirmation",
          "type": "address"
        }
      ],
      "name": "renounceRole",
      "outputs": [],
      "stateMutability": "nonpayable",
      "type": "function"
    },
    {
      "inputs": [
        {
          "internalType": "bytes4",
          "name": "",
          "type": "bytes4"
        }
      ],
      "name": "restrictedSelectors",
      "outputs": [
        {
          "internalType": "bool",
          "name": "",
          "type": "bool"
        }
      ],
      "stateMutability": "view",
      "type": "function"
    },
    {
      "inputs": [
        {
          "internalType": "bytes32",
          "name": "role",
          "type": "bytes32"
        },
        {
          "internalType": "address",
          "name": "account",
          "type": "address"
        }
      ],
      "name": "revokeRole",
      "outputs": [],
      "stateMutability": "nonpayable",
      "type": "function"
    },
    {
      "inputs": [
        {
          "internalType": "address",
          "name": "multiAccount",
          "type": "address"
        },
        {
          "internalType": "address",
          "name": "partyA",
          "type": "address"
        },
        {
          "internalType": "bytes[]",
          "name": "sendQuoteCalldata",
          "type": "bytes[]"
        },
        {
          "internalType": "uint256",
          "name": "allocationAmount",
          "type": "uint256"
        },
        {
          "components": [
            {
              "internalType": "bytes",
              "name": "reqId",
              "type": "bytes"
            },
            {
              "internalType": "uint256",
              "name": "timestamp",
              "type": "uint256"
            },
            {
              "internalType": "int256",
              "name": "upnl",
              "type": "int256"
            },
            {
              "internalType": "bytes",
              "name": "gatewaySignature",
              "type": "bytes"
            },
            {
              "components": [
                {
                  "internalType": "uint256",
                  "name": "signature",
                  "type": "uint256"
                },
                {
                  "internalType": "address",
                  "name": "owner",
                  "type": "address"
                },
                {
                  "internalType": "address",
                  "name": "nonce",
                  "type": "address"
                }
              ],
              "internalType": "struct SchnorrSign",
              "name": "sigs",
              "type": "tuple"
            }
          ],
          "internalType": "struct SingleUpnlSig",
          "name": "sig",
          "type": "tuple"
        }
      ],
      "name": "sendAndLockInstantOpenPositionWithReserveVault",
      "outputs": [],
      "stateMutability": "nonpayable",
      "type": "function"
    },
    {
      "inputs": [
        {
          "internalType": "address",
          "name": "addr",
          "type": "address"
        },
        {
          "internalType": "bool",
          "name": "state",
          "type": "bool"
        }
      ],
      "name": "setMulticastWhitelist",
      "outputs": [],
      "stateMutability": "nonpayable",
      "type": "function"
    },
    {
      "inputs": [
        {
          "internalType": "bytes4",
          "name": "selector",
          "type": "bytes4"
        },
        {
          "internalType": "bool",
          "name": "state",
          "type": "bool"
        }
      ],
      "name": "setRestrictedSelector",
      "outputs": [],
      "stateMutability": "nonpayable",
      "type": "function"
    },
    {
      "inputs": [
        {
          "internalType": "address",
          "name": "addr",
          "type": "address"
        }
      ],
      "name": "setSymmioAddress",
      "outputs": [],
      "stateMutability": "nonpayable",
      "type": "function"
    },
    {
      "inputs": [
        {
          "internalType": "bytes4",
          "name": "interfaceId",
          "type": "bytes4"
        }
      ],
      "name": "supportsInterface",
      "outputs": [
        {
          "internalType": "bool",
          "name": "",
          "type": "bool"
        }
      ],
      "stateMutability": "view",
      "type": "function"
    },
    {
      "inputs": [],
      "name": "symmioAddress",
      "outputs": [
        {
          "internalType": "address",
          "name": "",
          "type": "address"
        }
      ],
      "stateMutability": "view",
      "type": "function"
    },
    {
      "inputs": [],
      "name": "unpause",
      "outputs": [],
      "stateMutability": "nonpayable",
      "type": "function"
    },
    {
      "inputs": [
        {
          "internalType": "address",
          "name": "newImplementation",
          "type": "address"
        },
        {
          "internalType": "bytes",
          "name": "data",
          "type": "bytes"
        }
      ],
      "name": "upgradeToAndCall",
      "outputs": [],
      "stateMutability": "payable",
      "type": "function"
    },
    {
      "inputs": [
        {
          "internalType": "address",
          "name": "targetAddress",
          "type": "address"
        },
        {
          "internalType": "address",
          "name": "token",
          "type": "address"
        },
        {
          "internalType": "uint256",
          "name": "amount",
          "type": "uint256"
        }
      ],
      "name": "withdrawERC20",
      "outputs": [],
      "stateMutability": "nonpayable",
      "type": "function"
    }
  ],
  "bytecode": "0x60a06040523060805234801561001457600080fd5b5061001d610022565b6100d4565b7ff0c57e16840df040f15088dc2f81fe391c3923bec73e23a9662efc9c229c6a00805468010000000000000000900460ff16156100725760405163f92ee8a960e01b815260040160405180910390fd5b80546001600160401b03908116146100d15780546001600160401b0319166001600160401b0390811782556040519081527fc7f505b2f371ae2175ee4913f4499e1f2633a7b5936321eed1cdaeb6115181d29060200160405180910390a15b50565b608051612a836100fd6000396000818161155b0152818161158401526117390152612a836000f3fe6080604052600436106101c15760003560e01c8063717bb262116100f757806391d1485411610095578063d547741f11610064578063d547741f146105e3578063ec87621c14610603578063edddc27314610637578063f504fd591461066757600080fd5b806391d14854146104f3578063a217fddf14610558578063ad3cb1cc1461056d578063ca9d9c9d146105c357600080fd5b806383aba1d3116100d157806383aba1d31461047e5780638456cb591461049e57806387e79880146104b357806388ef77be146104d357600080fd5b8063717bb262146104065780637278b28f146104265780637b7d72251461045e57600080fd5b80633f4ba83a1161016457806352d1902d1161013e57806352d1902d146103665780635901692e1461037b5780635c975abb146103af5780636b18d182146103e657600080fd5b80633f4ba83a1461031e57806344004cc1146103335780634f1ef2861461035357600080fd5b806307bd0265116101a057806307bd02651461024d578063248a9ca31461028f5780632f2ff15d146102de57806336568abe146102fe57600080fd5b8062fbc355146101c657806301569e3a1461020b57806301ffc9a71461022d575b600080fd5b3480156101d257600080fd5b506101f66101e1366004612150565b60056020526000908152604090205460ff1681565b60405190151581526020015b60405180910390f35b34801561021757600080fd5b5061022b610226366004612150565b610687565b005b34801561023957600080fd5b506101f661024836600461219b565b610728565b34801561025957600080fd5b506102817fd8aa0f3194971a2a116679f7c2090f6939c8d4e01a2a8d7e41d55e5351469e6381565b604051908152602001610202565b34801561029b57600080fd5b506102816102aa3660046121b6565b60009081527f02dd7bc7dec4dceedda775e58dd541e08a116c6c53815c0bd028192f7b626800602052604090206001015490565b3480156102ea57600080fd5b5061022b6102f93660046121cf565b6107c1565b34801561030a57600080fd5b5061022b6103193660046121cf565b61080b565b34801561032a57600080fd5b5061022b61085c565b34801561033f57600080fd5b5061022b61034e3660046121fb565b610891565b61022b6103613660046122ef565b610a33565b34801561037257600080fd5b50610281610a52565b34801561038757600080fd5b506102817f2de84d9fbdf6d06e2cc584295043dbd76046423b9f8bae9426d4fa5e7c03f4a781565b3480156103bb57600080fd5b507fcd5ed15c6e187e77e9aee88184c21f4f2182ab5827cb3b7e07fbedcd63f033005460ff166101f6565b3480156103f257600080fd5b5061022b6104013660046123d5565b610a81565b34801561041257600080fd5b5061022b61042136600461248d565b610d25565b34801561043257600080fd5b50600054610446906001600160a01b031681565b6040516001600160a01b039091168152602001610202565b34801561046a57600080fd5b5061022b6104793660046124c4565b610e0c565b34801561048a57600080fd5b5061022b6104993660046124ee565b610f1a565b3480156104aa57600080fd5b5061022b610fb9565b3480156104bf57600080fd5b5061022b6104ce366004612522565b610feb565b3480156104df57600080fd5b5061022b6104ee366004612150565b61111d565b3480156104ff57600080fd5b506101f661050e3660046121cf565b60009182527f02dd7bc7dec4dceedda775e58dd541e08a116c6c53815c0bd028192f7b626800602090815260408084206001600160a01b0393909316845291905290205460ff1690565b34801561056457600080fd5b50610281600081565b34801561057957600080fd5b506105b66040518060400160405280600581526020017f352e302e3000000000000000000000000000000000000000000000000000000081525081565b6040516102029190612680565b3480156105cf57600080fd5b5061022b6105de3660046126df565b611171565b3480156105ef57600080fd5b5061022b6105fe3660046121cf565b61120a565b34801561060f57600080fd5b506102817f241ecf16d79d0f8dbfb92cbc07fe17840425976cf0667f022fe9877caa831b0881565b34801561064357600080fd5b506101f661065236600461219b565b60046020526000908152604090205460ff1681565b34801561067357600080fd5b5061022b610682366004612721565b61124e565b7f241ecf16d79d0f8dbfb92cbc07fe17840425976cf0667f022fe9877caa831b086106b18161135f565b600054604080516001600160a01b03928316815291841660208301527ff78ccdf5924090b2ab6627ac5da4ec5affed73d47c6bc6c8a4620a0d5ed57bc8910160405180910390a1506000805473ffffffffffffffffffffffffffffffffffffffff19166001600160a01b0392909216919091179055565b60007fffffffff0000000000000000000000000000000000000000000000000000000082167f7965db0b0000000000000000000000000000000000000000000000000000000014806107bb57507f01ffc9a7000000000000000000000000000000000000000000000000000000007fffffffff000000000000000000000000000000000000000000000000000000008316145b92915050565b60008281527f02dd7bc7dec4dceedda775e58dd541e08a116c6c53815c0bd028192f7b62680060205260409020600101546107fb8161135f565b6108058383611369565b50505050565b6001600160a01b038116331461084d576040517f6697b23200000000000000000000000000000000000000000000000000000000815260040160405180910390fd5b6108578282611438565b505050565b7f241ecf16d79d0f8dbfb92cbc07fe17840425976cf0667f022fe9877caa831b086108868161135f565b61088e6114de565b50565b7f241ecf16d79d0f8dbfb92cbc07fe17840425976cf0667f022fe9877caa831b086108bb8161135f565b6001546001600160a01b03858116911614806108e457506002546001600160a01b038581169116145b61095b5760405162461bcd60e51b815260206004820152602260248201527f496e76616c696420746172676574207769746864726177616c2041646472657360448201527f732100000000000000000000000000000000000000000000000000000000000060648201526084015b60405180910390fd5b6040517fa9059cbb0000000000000000000000000000000000000000000000000000000081526001600160a01b0385811660048301526024820184905284169063a9059cbb906044016020604051808303816000875af11580156109c3573d6000803e3d6000fd5b505050506040513d601f19601f820116820180604052508101906109e79190612792565b6108055760405162461bcd60e51b815260206004820152601d60248201527f53796d6d696f5061727479423a204e6f74207472616e736665727265640000006044820152606401610952565b610a3b611550565b610a4482611622565b610a4e828261162d565b5050565b6000610a5c61172e565b507f360894a13ba1a3210667c828492db98dca3e2076cc3735a920a3ca505d382bbc90565b6000610a8b611790565b805490915060ff68010000000000000000820416159067ffffffffffffffff16600081158015610ab85750825b905060008267ffffffffffffffff166001148015610ad55750303b155b905081158015610ae3575080155b15610b1a576040517ff92ee8a900000000000000000000000000000000000000000000000000000000815260040160405180910390fd5b84547fffffffffffffffffffffffffffffffffffffffffffffffff00000000000000001660011785558315610b6557845468ff00000000000000001916680100000000000000001785555b610b6d6117b9565b610b756117b9565b610b7d6117b9565b600080546001600160a01b0380891673ffffffffffffffffffffffffffffffffffffffff19928316178355600180548c831690841617905560028054918b1691909216179055610bcd908c611369565b5060005b8a518160ff161015610c7057610c237f2de84d9fbdf6d06e2cc584295043dbd76046423b9f8bae9426d4fa5e7c03f4a78c8360ff1681518110610c1657610c166127af565b6020026020010151611369565b50610c5d7f241ecf16d79d0f8dbfb92cbc07fe17840425976cf0667f022fe9877caa831b088c8360ff1681518110610c1657610c166127af565b5080610c68816127c5565b915050610bd1565b5060005b89518160ff161015610ccc57610cb97f2de84d9fbdf6d06e2cc584295043dbd76046423b9f8bae9426d4fa5e7c03f4a78b8360ff1681518110610c1657610c166127af565b5080610cc4816127c5565b915050610c74565b508315610d1857845468ff000000000000000019168555604051600181527fc7f505b2f371ae2175ee4913f4499e1f2633a7b5936321eed1cdaeb6115181d29060200160405180910390a15b5050505050505050505050565b7f241ecf16d79d0f8dbfb92cbc07fe17840425976cf0667f022fe9877caa831b08610d4f8161135f565b306001600160a01b03841603610da75760405162461bcd60e51b815260206004820152601d60248201527f53796d6d696f5061727479423a20496e76616c696420616464726573730000006044820152606401610952565b6001600160a01b038316600081815260056020908152604091829020805460ff19168615159081179091558251938452908301527ff776d871534c4177eb3ea09ad170db249e5c7057ff18ddf26992d18459a904b191015b60405180910390a1505050565b7f2de84d9fbdf6d06e2cc584295043dbd76046423b9f8bae9426d4fa5e7c03f4a7610e368161135f565b610e3e6117c1565b6000546040517f095ea7b30000000000000000000000000000000000000000000000000000000081526001600160a01b039182166004820152602481018490529084169063095ea7b3906044016020604051808303816000875af1158015610eaa573d6000803e3d6000fd5b505050506040513d601f19601f82011682018060405250810190610ece9190612792565b6108575760405162461bcd60e51b815260206004820152601a60248201527f53796d6d696f5061727479423a204e6f7420617070726f7665640000000000006044820152606401610952565b7f241ecf16d79d0f8dbfb92cbc07fe17840425976cf0667f022fe9877caa831b08610f448161135f565b7fffffffff000000000000000000000000000000000000000000000000000000008316600081815260046020908152604091829020805460ff19168615159081179091558251938452908301527f3b438b04c48041000349f30457a15358332ec96233735f9bc289621aa82fb7759101610dff565b7f241ecf16d79d0f8dbfb92cbc07fe17840425976cf0667f022fe9877caa831b08610fe38161135f565b61088e61181d565b7fd8aa0f3194971a2a116679f7c2090f6939c8d4e01a2a8d7e41d55e5351469e636110158161135f565b6040517fbd367d8e0000000000000000000000000000000000000000000000000000000081526001600160a01b0387169063bd367d8e9061105c90889088906004016127f2565b600060405180830381600087803b15801561107657600080fd5b505af115801561108a573d6000803e3d6000fd5b5050505060008060009054906101000a90046001600160a01b03166001600160a01b031663aa48e2e86040518163ffffffff1660e01b8152600401602060405180830381865afa1580156110e2573d6000803e3d6000fd5b505050506040513d601f19601f820116820180604052508101906111069190612885565b905061111481878686611878565b50505050505050565b7f241ecf16d79d0f8dbfb92cbc07fe17840425976cf0667f022fe9877caa831b086111478161135f565b6108577f2de84d9fbdf6d06e2cc584295043dbd76046423b9f8bae9426d4fa5e7c03f4a783611369565b6111796117c1565b60005b60ff8116821115610857576000546111f8906001600160a01b0316848460ff85168181106111ac576111ac6127af565b90506020028101906111be919061289e565b8080601f0160208091040260200160405190810160405280939291908181526020018383808284376000920191909152506119f892505050565b80611202816127c5565b91505061117c565b60008281527f02dd7bc7dec4dceedda775e58dd541e08a116c6c53815c0bd028192f7b62680060205260409020600101546112448161135f565b6108058383611438565b6112566117c1565b7fd8aa0f3194971a2a116679f7c2090f6939c8d4e01a2a8d7e41d55e5351469e636112808161135f565b8382146112f55760405162461bcd60e51b815260206004820152602360248201527f53796d6d696f5061727479423a204172726179206c656e677468206d69736d6160448201527f74636800000000000000000000000000000000000000000000000000000000006064820152608401610952565b60005b60ff81168311156113575761134586868360ff1681811061131b5761131b6127af565b90506020020160208101906113309190612150565b85858460ff168181106111ac576111ac6127af565b8061134f816127c5565b9150506112f8565b505050505050565b61088e8133611d95565b60008281527f02dd7bc7dec4dceedda775e58dd541e08a116c6c53815c0bd028192f7b626800602081815260408084206001600160a01b038616855290915282205460ff1661142e576000848152602082815260408083206001600160a01b03871684529091529020805460ff191660011790556113e43390565b6001600160a01b0316836001600160a01b0316857f2f8788117e7eff1d82e926ec794901d17c78024a50270940304540a733656f0d60405160405180910390a460019150506107bb565b60009150506107bb565b60008281527f02dd7bc7dec4dceedda775e58dd541e08a116c6c53815c0bd028192f7b626800602081815260408084206001600160a01b038616855290915282205460ff161561142e576000848152602082815260408083206001600160a01b0387168085529252808320805460ff1916905551339287917ff6391f5c32d9c69d2a47ea670b442974b53935d1edc7fd64eb21e047a839171b9190a460019150506107bb565b6114e6611e22565b7fcd5ed15c6e187e77e9aee88184c21f4f2182ab5827cb3b7e07fbedcd63f03300805460ff191681557f5db9ee0a495bf2e6ff9c91a7834c1ba4fdd244a5e8aa4e537bd38aeae4b073aa335b6040516001600160a01b03909116815260200160405180910390a150565b306001600160a01b037f00000000000000000000000000000000000000000000000000000000000000001614806115e957507f00000000000000000000000000000000000000000000000000000000000000006001600160a01b03166115dd7f360894a13ba1a3210667c828492db98dca3e2076cc3735a920a3ca505d382bbc546001600160a01b031690565b6001600160a01b031614155b15611620576040517fe07c8dba00000000000000000000000000000000000000000000000000000000815260040160405180910390fd5b565b6000610a4e8161135f565b816001600160a01b03166352d1902d6040518163ffffffff1660e01b8152600401602060405180830381865afa925050508015611687575060408051601f3d908101601f1916820190925261168491810190612885565b60015b6116c8576040517f4c9c8ce30000000000000000000000000000000000000000000000000000000081526001600160a01b0383166004820152602401610952565b7f360894a13ba1a3210667c828492db98dca3e2076cc3735a920a3ca505d382bbc8114611724576040517faa1d49a400000000000000000000000000000000000000000000000000000000815260048101829052602401610952565b6108578383611e7d565b306001600160a01b037f00000000000000000000000000000000000000000000000000000000000000001614611620576040517fe07c8dba00000000000000000000000000000000000000000000000000000000815260040160405180910390fd5b6000807ff0c57e16840df040f15088dc2f81fe391c3923bec73e23a9662efc9c229c6a006107bb565b611620611ed3565b7fcd5ed15c6e187e77e9aee88184c21f4f2182ab5827cb3b7e07fbedcd63f033005460ff1615611620576040517fd93c066500000000000000000000000000000000000000000000000000000000815260040160405180910390fd5b6118256117c1565b7fcd5ed15c6e187e77e9aee88184c21f4f2182ab5827cb3b7e07fbedcd63f03300805460ff191660011781557f62e78cea01bee320cd4e420270b5ea74000d11b0c9f74754ebdbfc544b05a25833611532565b8115611975576000546040517fb074c08d000000000000000000000000000000000000000000000000000000008152600481018490526001600160a01b039091169063b074c08d90602401600060405180830381600087803b1580156118dd57600080fd5b505af11580156118f1573d6000803e3d6000fd5b50506000546040517fcd0bac16000000000000000000000000000000000000000000000000000000008152600481018690526001600160a01b038781166024830152909116925063cd0bac169150604401600060405180830381600087803b15801561195c57600080fd5b505af1158015611970573d6000803e3d6000fd5b505050505b6000546040517fca6b88de0000000000000000000000000000000000000000000000000000000081526001600160a01b039091169063ca6b88de906119c09087908590600401612956565b600060405180830381600087803b1580156119da57600080fd5b505af11580156119ee573d6000803e3d6000fd5b5050505050505050565b6001600160a01b038216611a4e5760405162461bcd60e51b815260206004820152601d60248201527f53796d6d696f5061727479423a20496e76616c696420616464726573730000006044820152606401610952565b600481511015611aa05760405162461bcd60e51b815260206004820152601f60248201527f53796d6d696f5061727479423a20496e76616c69642063616c6c2064617461006044820152606401610952565b6000546001600160a01b0390811690831603611c1c576020818101517fffffffff0000000000000000000000000000000000000000000000000000000081166000908152600490925260409091205460ff1615611b2657611b217f241ecf16d79d0f8dbfb92cbc07fe17840425976cf0667f022fe9877caa831b0833611d95565b611c16565b3360009081527f06484cc59dc38e4f67c31122333a17ca81b3ca18cdf02bfc298072fa52b0316a602052604090205460ff1680611b9157503360009081527fb38c6796a5c454da0c32c90639f21d30f0a3bf15ff2bcd6082b8f57e8649f9ce602052604090205460ff165b80611bca57503360009081527f52fce5e8a5d0d9e8d1ea29f4525e512e9c27bf92cae50374d497f918ab48f382602052604090205460ff165b611c165760405162461bcd60e51b815260206004820152601c60248201527f53796d6d696f5061727479423a20496e76616c696420616363657373000000006044820152606401610952565b50611cd4565b6001600160a01b03821660009081526005602052604090205460ff16611caa5760405162461bcd60e51b815260206004820152603460248201527f53796d6d696f5061727479423a2044657374696e6174696f6e2061646472657360448201527f73206973206e6f742077686974656c69737465640000000000000000000000006064820152608401610952565b611cd47f2de84d9fbdf6d06e2cc584295043dbd76046423b9f8bae9426d4fa5e7c03f4a733611d95565b600080836001600160a01b0316600084604051611cf19190612a31565b60006040518083038185875af1925050503d8060008114611d2e576040519150601f19603f3d011682016040523d82523d6000602084013e611d33565b606091505b50915091508161080557805115611d4d5780518060208301fd5b60405162461bcd60e51b815260206004820181905260248201527f53796d6d696f5061727479423a20457865637574696f6e2072657665727465646044820152606401610952565b60008281527f02dd7bc7dec4dceedda775e58dd541e08a116c6c53815c0bd028192f7b626800602090815260408083206001600160a01b038516845290915290205460ff16610a4e576040517fe2517d3f0000000000000000000000000000000000000000000000000000000081526001600160a01b038216600482015260248101839052604401610952565b7fcd5ed15c6e187e77e9aee88184c21f4f2182ab5827cb3b7e07fbedcd63f033005460ff16611620576040517f8dfc202b00000000000000000000000000000000000000000000000000000000815260040160405180910390fd5b611e8682611f11565b6040516001600160a01b038316907fbc7cd75a20ee27fd9adebab32041f755214dbc6bffa90cc0225b39da2e5c2d3b90600090a2805115611ecb576108578282611fae565b610a4e612024565b611edb61205c565b611620576040517fd7e6bcf800000000000000000000000000000000000000000000000000000000815260040160405180910390fd5b806001600160a01b03163b600003611f60576040517f4c9c8ce30000000000000000000000000000000000000000000000000000000081526001600160a01b0382166004820152602401610952565b7f360894a13ba1a3210667c828492db98dca3e2076cc3735a920a3ca505d382bbc805473ffffffffffffffffffffffffffffffffffffffff19166001600160a01b0392909216919091179055565b6060600080846001600160a01b031684604051611fcb9190612a31565b600060405180830381855af49150503d8060008114612006576040519150601f19603f3d011682016040523d82523d6000602084013e61200b565b606091505b509150915061201b85838361207b565b95945050505050565b3415611620576040517fb398979f00000000000000000000000000000000000000000000000000000000815260040160405180910390fd5b6000612066611790565b5468010000000000000000900460ff16919050565b6060826120905761208b826120f3565b6120ec565b81511580156120a757506001600160a01b0384163b155b156120e9576040517f9996b3150000000000000000000000000000000000000000000000000000000081526001600160a01b0385166004820152602401610952565b50805b9392505050565b80511561210257805160208201fd5b6040517fd6bda27500000000000000000000000000000000000000000000000000000000815260040160405180910390fd5b80356001600160a01b038116811461214b57600080fd5b919050565b60006020828403121561216257600080fd5b6120ec82612134565b80357fffffffff000000000000000000000000000000000000000000000000000000008116811461214b57600080fd5b6000602082840312156121ad57600080fd5b6120ec8261216b565b6000602082840312156121c857600080fd5b5035919050565b600080604083850312156121e257600080fd5b823591506121f260208401612134565b90509250929050565b60008060006060848603121561221057600080fd5b61221984612134565b925061222760208501612134565b929592945050506040919091013590565b634e487b7160e01b600052604160045260246000fd5b604051601f8201601f1916810167ffffffffffffffff8111828210171561227757612277612238565b604052919050565b600082601f83011261229057600080fd5b813567ffffffffffffffff8111156122aa576122aa612238565b6122bd6020601f19601f8401160161224e565b8181528460208386010111156122d257600080fd5b816020850160208301376000918101602001919091529392505050565b6000806040838503121561230257600080fd5b61230b83612134565b9150602083013567ffffffffffffffff81111561232757600080fd5b6123338582860161227f565b9150509250929050565b600067ffffffffffffffff82111561235757612357612238565b5060051b60200190565b600082601f83011261237257600080fd5b81356123856123808261233d565b61224e565b8082825260208201915060208360051b8601019250858311156123a757600080fd5b602085015b838110156123cb576123bd81612134565b8352602092830192016123ac565b5095945050505050565b60008060008060008060c087890312156123ee57600080fd5b6123f787612134565b9550602087013567ffffffffffffffff81111561241357600080fd5b61241f89828a01612361565b955050604087013567ffffffffffffffff81111561243c57600080fd5b61244889828a01612361565b94505061245760608801612134565b925061246560808801612134565b915061247360a08801612134565b90509295509295509295565b801515811461088e57600080fd5b600080604083850312156124a057600080fd5b6124a983612134565b915060208301356124b98161247f565b809150509250929050565b600080604083850312156124d757600080fd5b6124e083612134565b946020939093013593505050565b6000806040838503121561250157600080fd5b6124a98361216b565b600060e0828403121561251c57600080fd5b50919050565b600080600080600060a0868803121561253a57600080fd5b61254386612134565b945061255160208701612134565b9350604086013567ffffffffffffffff81111561256d57600080fd5b8601601f8101881361257e57600080fd5b803561258c6123808261233d565b8082825260208201915060208360051b85010192508a8311156125ae57600080fd5b602084015b838110156125f057803567ffffffffffffffff8111156125d257600080fd5b6125e18d60208389010161227f565b845250602092830192016125b3565b50955050505060608601359150608086013567ffffffffffffffff81111561261757600080fd5b6126238882890161250a565b9150509295509295909350565b60005b8381101561264b578181015183820152602001612633565b50506000910152565b6000815180845261266c816020860160208601612630565b601f01601f19169290920160200192915050565b6020815260006120ec6020830184612654565b60008083601f8401126126a557600080fd5b50813567ffffffffffffffff8111156126bd57600080fd5b6020830191508360208260051b85010111156126d857600080fd5b9250929050565b600080602083850312156126f257600080fd5b823567ffffffffffffffff81111561270957600080fd5b61271585828601612693565b90969095509350505050565b6000806000806040858703121561273757600080fd5b843567ffffffffffffffff81111561274e57600080fd5b61275a87828801612693565b909550935050602085013567ffffffffffffffff81111561277a57600080fd5b61278687828801612693565b95989497509550505050565b6000602082840312156127a457600080fd5b81516120ec8161247f565b634e487b7160e01b600052603260045260246000fd5b600060ff821660ff81036127e957634e487b7160e01b600052601160045260246000fd5b60010192915050565b6000604082016001600160a01b03851683526040602084015280845180835260608501915060608160051b86010192506020860160005b82811015612878577fffffffffffffffffffffffffffffffffffffffffffffffffffffffffffffffa0878603018452612863858351612654565b94506020938401939190910190600101612829565b5092979650505050505050565b60006020828403121561289757600080fd5b5051919050565b6000808335601e198436030181126128b557600080fd5b83018035915067ffffffffffffffff8211156128d057600080fd5b6020019150368190038213156126d857600080fd5b6000808335601e198436030181126128fc57600080fd5b830160208101925035905067ffffffffffffffff81111561291c57600080fd5b8036038213156126d857600080fd5b818352818160208501375060006020828401015260006020601f19601f840116840101905092915050565b82815260406020820152600061296c83846128e5565b60e060408501526129826101208501828461292b565b91505060006020850135905080606085015250604084013560808401526129ac60608501856128e5565b7fffffffffffffffffffffffffffffffffffffffffffffffffffffffffffffffc08584030160a08601526129e183828461292b565b608087013560c087015292506001600160a01b039150612a05905060a08601612134565b1660e08401526001600160a01b03612a1f60c08601612134565b16610100840152809150509392505050565b60008251612a43818460208701612630565b919091019291505056fea2646970667358221220d3346e4595fb5a4b5e7e4bd975e3d5307c9b70b24cc0c62268a7604d2d4471ff64736f6c634300081c0033",
  "linkReferences": {},
  "deployedLinkReferences": {}
}