{
  "_format": "hh-sol-artifact-1",
  "contractName": "NoxPartyB",
  "sourceName": "contracts/solver/NoxSolver.sol",
  "abi": [
    {
      "inputs": [],
      "stateMutability": "nonpayable",
      "type": "constructor"
    },
    {
      "anonymous": false,
      "inputs": [
        {
          "indexed": false,
          "internalType": "address",
          "name": "previousAdmin",
          "type": "address"
        },
        {
          "indexed": false,
          "internalType": "address",
          "name": "newAdmin",
          "type": "address"
        }
      ],
      "name": "AdminChanged",
      "type": "event"
    },
    {
      "anonymous": false,
      "inputs": [
        {
          "indexed": true,
          "internalType": "address",
          "name": "beacon",
          "type": "address"
        }
      ],
      "name": "BeaconUpgraded",
      "type": "event"
    },
    {
      "anonymous": false,
      "inputs": [
        {
          "indexed": false,
          "internalType": "uint8",
          "name": "version",
          "type": "uint8"
        }
      ],
      "name": "Initialized",
      "type": "event"
    },
    {
      "anonymous": false,
      "inputs": [
        {
          "indexed": false,
          "internalType": "address",
          "name": "account",
          "type": "address"
        }
      ],
      "name": "Paused",
      "type": "event"
    },
    {
      "anonymous": false,
      "inputs": [
        {
          "indexed": true,
          "internalType": "bytes32",
          "name": "role",
          "type": "bytes32"
        },
        {
          "indexed": true,
          "internalType": "bytes32",
          "name": "previousAdminRole",
          "type": "bytes32"
        },
        {
          "indexed": true,
          "internalType": "bytes32",
          "name": "newAdminRole",
          "type": "bytes32"
        }
      ],
      "name": "RoleAdminChanged",
      "type": "event"
    },
    {
      "anonymous": false,
      "inputs": [
        {
          "indexed": true,
          "internalType": "bytes32",
          "name": "role",
          "type": "bytes32"
        },
        {
          "indexed": true,
          "internalType": "address",
          "name": "account",
          "type": "address"
        },
        {
          "indexed": true,
          "internalType": "address",
          "name": "sender",
          "type": "address"
        }
      ],
      "name": "RoleGranted",
      "type": "event"
    },
    {
      "anonymous": false,
      "inputs": [
        {
          "indexed": true,
          "internalType": "bytes32",
          "name": "role",
          "type": "bytes32"
        },
        {
          "indexed": true,
          "internalType": "address",
          "name": "account",
          "type": "address"
        },
        {
          "indexed": true,
          "internalType": "address",
          "name": "sender",
          "type": "address"
        }
      ],
      "name": "RoleRevoked",
      "type": "event"
    },
    {
      "anonymous": false,
      "inputs": [
        {
          "indexed": false,
          "internalType": "address",
          "name": "addr",
          "type": "address"
        },
        {
          "indexed": false,
          "internalType": "bool",
          "name": "state",
          "type": "bool"
        }
      ],
      "name": "SetMulticastWhitelist",
      "type": "event"
    },
    {
      "anonymous": false,
      "inputs": [
        {
          "indexed": false,
          "internalType": "bytes4",
          "name": "selector",
          "type": "bytes4"
        },
        {
          "indexed": false,
          "internalType": "bool",
          "name": "state",
          "type": "bool"
        }
      ],
      "name": "SetRestrictedSelector",
      "type": "event"
    },
    {
      "anonymous": false,
      "inputs": [
        {
          "indexed": false,
          "internalType": "address",
          "name": "oldSymmioAddress",
          "type": "address"
        },
        {
          "indexed": false,
          "internalType": "address",
          "name": "newSymmioAddress",
          "type": "address"
        }
      ],
      "name": "SetSymmioAddress",
      "type": "event"
    },
    {
      "anonymous": false,
      "inputs": [
        {
          "indexed": false,
          "internalType": "address",
          "name": "account",
          "type": "address"
        }
      ],
      "name": "Unpaused",
      "type": "event"
    },
    {
      "anonymous": false,
      "inputs": [
        {
          "indexed": true,
          "internalType": "address",
          "name": "implementation",
          "type": "address"
        }
      ],
      "name": "Upgraded",
      "type": "event"
    },
    {
      "inputs": [],
      "name": "DEFAULT_ADMIN_ROLE",
      "outputs": [
        {
          "internalType": "bytes32",
          "name": "",
          "type": "bytes32"
        }
      ],
      "stateMutability": "view",
      "type": "function"
    },
    {
      "inputs": [],
      "name": "EXECUTOR_ROLE",
      "outputs": [
        {
          "internalType": "bytes32",
          "name": "",
          "type": "bytes32"
        }
      ],
      "stateMutability": "view",
      "type": "function"
    },
    {
      "inputs": [],
      "name": "MANAGER_ROLE",
      "outputs": [
        {
          "internalType": "bytes32",
          "name": "",
          "type": "bytes32"
        }
      ],
      "stateMutability": "view",
      "type": "function"
    },
    {
      "inputs": [],
      "name": "TRUSTED_ROLE",
      "outputs": [
        {
          "internalType": "bytes32",
          "name": "",
          "type": "bytes32"
        }
      ],
      "stateMutability": "view",
      "type": "function"
    },
    {
      "inputs": [
        {
          "internalType": "address",
          "name": "token",
          "type": "address"
        },
        {
          "internalType": "uint256",
          "name": "amount",
          "type": "uint256"
        }
      ],
      "name": "_approve",
      "outputs": [],
      "stateMutability": "nonpayable",
      "type": "function"
    },
    {
      "inputs": [
        {
          "internalType": "bytes[]",
          "name": "_callDatas",
          "type": "bytes[]"
        }
      ],
      "name": "_call",
      "outputs": [],
      "stateMutability": "nonpayable",
      "type": "function"
    },
    {
      "inputs": [
        {
          "internalType": "address[]",
          "name": "destAddresses",
          "type": "address[]"
        },
        {
          "internalType": "bytes[]",
          "name": "_callDatas",
          "type": "bytes[]"
        }
      ],
      "name": "_multicastCall",
      "outputs": [],
      "stateMutability": "nonpayable",
      "type": "function"
    },
    {
      "inputs": [
        {
          "internalType": "bytes32",
          "name": "role",
          "type": "bytes32"
        }
      ],
      "name": "getRoleAdmin",
      "outputs": [
        {
          "internalType": "bytes32",
          "name": "",
          "type": "bytes32"
        }
      ],
      "stateMutability": "view",
      "type": "function"
    },
    {
      "inputs": [
        {
          "internalType": "address",
          "name": "addr",
          "type": "address"
        }
      ],
      "name": "grantExecutorRole",
      "outputs": [],
      "stateMutability": "nonpayable",
      "type": "function"
    },
    {
      "inputs": [
        {
          "internalType": "address",
          "name": "addr",
          "type": "address"
        }
      ],
      "name": "grantManagerRole",
      "outputs": [],
      "stateMutability": "nonpayable",
      "type": "function"
    },
    {
      "inputs": [
        {
          "internalType": "bytes32",
          "name": "role",
          "type": "bytes32"
        },
        {
          "internalType": "address",
          "name": "account",
          "type": "address"
        }
      ],
      "name": "grantRole",
      "outputs": [],
      "stateMutability": "nonpayable",
      "type": "function"
    },
    {
      "inputs": [
        {
          "internalType": "address",
          "name": "addr",
          "type": "address"
        }
      ],
      "name": "grantTrustedRole",
      "outputs": [],
      "stateMutability": "nonpayable",
      "type": "function"
    },
    {
      "inputs": [
        {
          "internalType": "bytes32",
          "name": "role",
          "type": "bytes32"
        },
        {
          "internalType": "address",
          "name": "account",
          "type": "address"
        }
      ],
      "name": "hasRole",
      "outputs": [
        {
          "internalType": "bool",
          "name": "",
          "type": "bool"
        }
      ],
      "stateMutability": "view",
      "type": "function"
    },
    {
      "inputs": [
        {
          "internalType": "address",
          "name": "admin",
          "type": "address"
        },
        {
          "internalType": "address[]",
          "name": "managers",
          "type": "address[]"
        },
        {
          "internalType": "address",
          "name": "withdrawalAddress_",
          "type": "address"
        },
        {
          "internalType": "address",
          "name": "ledgerMultiSigWithdrawalAddress_",
          "type": "address"
        },
        {
          "internalType": "address",
          "name": "symmioAddress_",
          "type": "address"
        }
      ],
      "name": "initialize",
      "outputs": [],
      "stateMutability": "nonpayable",
      "type": "function"
    },
    {
      "inputs": [
        {
          "internalType": "address",
          "name": "",
          "type": "address"
        }
      ],
      "name": "multicastWhitelist",
      "outputs": [
        {
          "internalType": "bool",
          "name": "",
          "type": "bool"
        }
      ],
      "stateMutability": "view",
      "type": "function"
    },
    {
      "inputs": [],
      "name": "pause",
      "outputs": [],
      "stateMutability": "nonpayable",
      "type": "function"
    },
    {
      "inputs": [],
      "name": "paused",
      "outputs": [
        {
          "internalType": "bool",
          "name": "",
          "type": "bool"
        }
      ],
      "stateMutability": "view",
      "type": "function"
    },
    {
      "inputs": [],
      "name": "proxiableUUID",
      "outputs": [
        {
          "internalType": "bytes32",
          "name": "",
          "type": "bytes32"
        }
      ],
      "stateMutability": "view",
      "type": "function"
    },
    {
      "inputs": [
        {
          "internalType": "bytes32",
          "name": "role",
          "type": "bytes32"
        },
        {
          "internalType": "address",
          "name": "account",
          "type": "address"
        }
      ],
      "name": "renounceRole",
      "outputs": [],
      "stateMutability": "nonpayable",
      "type": "function"
    },
    {
      "inputs": [
        {
          "internalType": "bytes4",
          "name": "",
          "type": "bytes4"
        }
      ],
      "name": "restrictedSelectors",
      "outputs": [
        {
          "internalType": "bool",
          "name": "",
          "type": "bool"
        }
      ],
      "stateMutability": "view",
      "type": "function"
    },
    {
      "inputs": [
        {
          "internalType": "bytes32",
          "name": "role",
          "type": "bytes32"
        },
        {
          "internalType": "address",
          "name": "account",
          "type": "address"
        }
      ],
      "name": "revokeRole",
      "outputs": [],
      "stateMutability": "nonpayable",
      "type": "function"
    },
    {
      "inputs": [
        {
          "internalType": "address",
          "name": "multiAccount",
          "type": "address"
        },
        {
          "internalType": "address",
          "name": "partyA",
          "type": "address"
        },
        {
          "internalType": "bytes[]",
          "name": "sendQuoteCalldata",
          "type": "bytes[]"
        },
        {
          "internalType": "uint256",
          "name": "allocationAmount",
          "type": "uint256"
        },
        {
          "components": [
            {
              "internalType": "bytes",
              "name": "reqId",
              "type": "bytes"
            },
            {
              "internalType": "uint256",
              "name": "timestamp",
              "type": "uint256"
            },
            {
              "internalType": "int256",
              "name": "upnl",
              "type": "int256"
            },
            {
              "internalType": "bytes",
              "name": "gatewaySignature",
              "type": "bytes"
            },
            {
              "components": [
                {
                  "internalType": "uint256",
                  "name": "signature",
                  "type": "uint256"
                },
                {
                  "internalType": "address",
                  "name": "owner",
                  "type": "address"
                },
                {
                  "internalType": "address",
                  "name": "nonce",
                  "type": "address"
                }
              ],
              "internalType": "struct SchnorrSign",
              "name": "sigs",
              "type": "tuple"
            }
          ],
          "internalType": "struct SingleUpnlSig",
          "name": "sig",
          "type": "tuple"
        }
      ],
      "name": "sendAndLockInstantOpenPositionWithReserveVault",
      "outputs": [],
      "stateMutability": "nonpayable",
      "type": "function"
    },
    {
      "inputs": [
        {
          "internalType": "address",
          "name": "addr",
          "type": "address"
        },
        {
          "internalType": "bool",
          "name": "state",
          "type": "bool"
        }
      ],
      "name": "setMulticastWhitelist",
      "outputs": [],
      "stateMutability": "nonpayable",
      "type": "function"
    },
    {
      "inputs": [
        {
          "internalType": "bytes4",
          "name": "selector",
          "type": "bytes4"
        },
        {
          "internalType": "bool",
          "name": "state",
          "type": "bool"
        }
      ],
      "name": "setRestrictedSelector",
      "outputs": [],
      "stateMutability": "nonpayable",
      "type": "function"
    },
    {
      "inputs": [
        {
          "internalType": "address",
          "name": "addr",
          "type": "address"
        }
      ],
      "name": "setSymmioAddress",
      "outputs": [],
      "stateMutability": "nonpayable",
      "type": "function"
    },
    {
      "inputs": [
        {
          "internalType": "bytes4",
          "name": "interfaceId",
          "type": "bytes4"
        }
      ],
      "name": "supportsInterface",
      "outputs": [
        {
          "internalType": "bool",
          "name": "",
          "type": "bool"
        }
      ],
      "stateMutability": "view",
      "type": "function"
    },
    {
      "inputs": [],
      "name": "symmioAddress",
      "outputs": [
        {
          "internalType": "address",
          "name": "",
          "type": "address"
        }
      ],
      "stateMutability": "view",
      "type": "function"
    },
    {
      "inputs": [],
      "name": "unpause",
      "outputs": [],
      "stateMutability": "nonpayable",
      "type": "function"
    },
    {
      "inputs": [
        {
          "internalType": "address",
          "name": "newImplementation",
          "type": "address"
        }
      ],
      "name": "upgradeTo",
      "outputs": [],
      "stateMutability": "nonpayable",
      "type": "function"
    },
    {
      "inputs": [
        {
          "internalType": "address",
          "name": "newImplementation",
          "type": "address"
        },
        {
          "internalType": "bytes",
          "name": "data",
          "type": "bytes"
        }
      ],
      "name": "upgradeToAndCall",
      "outputs": [],
      "stateMutability": "payable",
      "type": "function"
    },
    {
      "inputs": [
        {
          "internalType": "address",
          "name": "targetAddress",
          "type": "address"
        },
        {
          "internalType": "address",
          "name": "token",
          "type": "address"
        },
        {
          "internalType": "uint256",
          "name": "amount",
          "type": "uint256"
        }
      ],
      "name": "withdrawERC20",
      "outputs": [],
      "stateMutability": "nonpayable",
      "type": "function"
    }
  ],
  "bytecode": "0x60a06040523060805234801561001457600080fd5b5061001d610022565b6100e1565b600054610100900460ff161561008e5760405162461bcd60e51b815260206004820152602760248201527f496e697469616c697a61626c653a20636f6e747261637420697320696e697469604482015266616c697a696e6760c81b606482015260840160405180910390fd5b60005460ff908116146100df576000805460ff191660ff9081179091556040519081527f7f26b83ff96e1f2b6a682f133852f6798a09c465da95921460cefb38474024989060200160405180910390a15b565b6080516130ac61011860003960008181610ad001528181610b6601528181610e4401528181610eda0152610fd101526130ac6000f3fe6080604052600436106101d75760003560e01c80635c975abb1161010257806388ef77be11610095578063d547741f11610064578063d547741f146105a8578063ec87621c146105c8578063edddc273146105fc578063f504fd591461062d57600080fd5b806388ef77be1461050d57806391d148541461052d578063a217fddf14610573578063ca9d9c9d1461058857600080fd5b806380a4d414116100d157806380a4d4141461049857806383aba1d3146104b85780638456cb59146104d857806387e79880146104ed57600080fd5b80635c975abb14610407578063717bb2621461041f5780637278b28f1461043f5780637b7d72251461047857600080fd5b80632f2ff15d1161017a57806344004cc11161014957806344004cc11461038b5780634f1ef286146103ab57806352d1902d146103be5780635901692e146103d357600080fd5b80632f2ff15d1461031657806336568abe146103365780633659cfe6146103565780633f4ba83a1461037657600080fd5b806307bd0265116101b657806307bd0265146102645780630cf57c86146102a6578063248a9ca3146102c657806326e885e3146102f657600080fd5b8062fbc355146101dc57806301569e3a1461022257806301ffc9a714610244575b600080fd5b3480156101e857600080fd5b5061020d6101f73660046126a2565b6101326020526000908152604090205460ff1681565b60405190151581526020015b60405180910390f35b34801561022e57600080fd5b5061024261023d3660046126a2565b61064d565b005b34801561025057600080fd5b5061020d61025f3660046126ed565b6106f0565b34801561027057600080fd5b506102987fd8aa0f3194971a2a116679f7c2090f6939c8d4e01a2a8d7e41d55e5351469e6381565b604051908152602001610219565b3480156102b257600080fd5b506102426102c1366004612773565b610789565b3480156102d257600080fd5b506102986102e1366004612859565b600090815260c9602052604090206001015490565b34801561030257600080fd5b506102426103113660046126a2565b6109bc565b34801561032257600080fd5b50610242610331366004612872565b610a14565b34801561034257600080fd5b50610242610351366004612872565b610a3e565b34801561036257600080fd5b506102426103713660046126a2565b610ac6565b34801561038257600080fd5b50610242610c63565b34801561039757600080fd5b506102426103a636600461289e565b610c95565b6102426103b936600461294b565b610e3a565b3480156103ca57600080fd5b50610298610fc4565b3480156103df57600080fd5b506102987f2de84d9fbdf6d06e2cc584295043dbd76046423b9f8bae9426d4fa5e7c03f4a781565b34801561041357600080fd5b5060fb5460ff1661020d565b34801561042b57600080fd5b5061024261043a3660046129a7565b611089565b34801561044b57600080fd5b5061012d54610460906001600160a01b031681565b6040516001600160a01b039091168152602001610219565b34801561048457600080fd5b506102426104933660046129de565b611119565b3480156104a457600080fd5b506102426104b33660046126a2565b611228565b3480156104c457600080fd5b506102426104d3366004612a08565b61127c565b3480156104e457600080fd5b5061024261131c565b3480156104f957600080fd5b50610242610508366004612a3c565b61134e565b34801561051957600080fd5b506102426105283660046126a2565b611482565b34801561053957600080fd5b5061020d610548366004612872565b600091825260c9602090815260408084206001600160a01b0393909316845291905290205460ff1690565b34801561057f57600080fd5b50610298600081565b34801561059457600080fd5b506102426105a3366004612b96565b6114d6565b3480156105b457600080fd5b506102426105c3366004612872565b611570565b3480156105d457600080fd5b506102987f241ecf16d79d0f8dbfb92cbc07fe17840425976cf0667f022fe9877caa831b0881565b34801561060857600080fd5b5061020d6106173660046126ed565b6101316020526000908152604090205460ff1681565b34801561063957600080fd5b50610242610648366004612bd8565b611595565b7f241ecf16d79d0f8dbfb92cbc07fe17840425976cf0667f022fe9877caa831b086106778161169e565b61012d54604080516001600160a01b03928316815291841660208301527ff78ccdf5924090b2ab6627ac5da4ec5affed73d47c6bc6c8a4620a0d5ed57bc8910160405180910390a15061012d805473ffffffffffffffffffffffffffffffffffffffff19166001600160a01b0392909216919091179055565b60007fffffffff0000000000000000000000000000000000000000000000000000000082167f7965db0b00000000000000000000000000000000000000000000000000000000148061078357507f01ffc9a7000000000000000000000000000000000000000000000000000000007fffffffff000000000000000000000000000000000000000000000000000000008316145b92915050565b600054610100900460ff16158080156107a95750600054600160ff909116105b806107c35750303b1580156107c3575060005460ff166001145b61083a5760405162461bcd60e51b815260206004820152602e60248201527f496e697469616c697a61626c653a20636f6e747261637420697320616c72656160448201527f647920696e697469616c697a656400000000000000000000000000000000000060648201526084015b60405180910390fd5b6000805460ff19166001179055801561085d576000805461ff0019166101001790555b6108656116a8565b61086d611727565b6108756116a8565b61012d80546001600160a01b0380851673ffffffffffffffffffffffffffffffffffffffff199283161790925561012e805487841690831617905561012f8054928616929091169190911790556108cd6000876117ac565b60005b85518160ff16101561096d576109227f2de84d9fbdf6d06e2cc584295043dbd76046423b9f8bae9426d4fa5e7c03f4a7878360ff168151811061091557610915612c49565b60200260200101516117ac565b61095b7f241ecf16d79d0f8dbfb92cbc07fe17840425976cf0667f022fe9877caa831b08878360ff168151811061091557610915612c49565b8061096581612c75565b9150506108d0565b5080156109b4576000805461ff0019169055604051600181527f7f26b83ff96e1f2b6a682f133852f6798a09c465da95921460cefb38474024989060200160405180910390a15b505050505050565b7f241ecf16d79d0f8dbfb92cbc07fe17840425976cf0667f022fe9877caa831b086109e68161169e565b610a107f241ecf16d79d0f8dbfb92cbc07fe17840425976cf0667f022fe9877caa831b08836117ac565b5050565b600082815260c96020526040902060010154610a2f8161169e565b610a3983836117ac565b505050565b6001600160a01b0381163314610abc5760405162461bcd60e51b815260206004820152602f60248201527f416363657373436f6e74726f6c3a2063616e206f6e6c792072656e6f756e636560448201527f20726f6c657320666f722073656c6600000000000000000000000000000000006064820152608401610831565b610a10828261184e565b6001600160a01b037f0000000000000000000000000000000000000000000000000000000000000000163003610b645760405162461bcd60e51b815260206004820152602c60248201527f46756e6374696f6e206d7573742062652063616c6c6564207468726f7567682060448201527f64656c656761746563616c6c00000000000000000000000000000000000000006064820152608401610831565b7f00000000000000000000000000000000000000000000000000000000000000006001600160a01b0316610bbf7f360894a13ba1a3210667c828492db98dca3e2076cc3735a920a3ca505d382bbc546001600160a01b031690565b6001600160a01b031614610c3b5760405162461bcd60e51b815260206004820152602c60248201527f46756e6374696f6e206d7573742062652063616c6c6564207468726f7567682060448201527f6163746976652070726f787900000000000000000000000000000000000000006064820152608401610831565b610c44816118d1565b60408051600080825260208201909252610c60918391906118dc565b50565b7f241ecf16d79d0f8dbfb92cbc07fe17840425976cf0667f022fe9877caa831b08610c8d8161169e565b610c60611a7c565b7f241ecf16d79d0f8dbfb92cbc07fe17840425976cf0667f022fe9877caa831b08610cbf8161169e565b61012e546001600160a01b0385811691161480610cea575061012f546001600160a01b038581169116145b610d5c5760405162461bcd60e51b815260206004820152602260248201527f496e76616c696420746172676574207769746864726177616c2041646472657360448201527f73210000000000000000000000000000000000000000000000000000000000006064820152608401610831565b6040517fa9059cbb0000000000000000000000000000000000000000000000000000000081526001600160a01b0385811660048301526024820184905284169063a9059cbb906044016020604051808303816000875af1158015610dc4573d6000803e3d6000fd5b505050506040513d601f19601f82011682018060405250810190610de89190612c94565b610e345760405162461bcd60e51b815260206004820152601d60248201527f53796d6d696f5061727479423a204e6f74207472616e736665727265640000006044820152606401610831565b50505050565b6001600160a01b037f0000000000000000000000000000000000000000000000000000000000000000163003610ed85760405162461bcd60e51b815260206004820152602c60248201527f46756e6374696f6e206d7573742062652063616c6c6564207468726f7567682060448201527f64656c656761746563616c6c00000000000000000000000000000000000000006064820152608401610831565b7f00000000000000000000000000000000000000000000000000000000000000006001600160a01b0316610f337f360894a13ba1a3210667c828492db98dca3e2076cc3735a920a3ca505d382bbc546001600160a01b031690565b6001600160a01b031614610faf5760405162461bcd60e51b815260206004820152602c60248201527f46756e6374696f6e206d7573742062652063616c6c6564207468726f7567682060448201527f6163746976652070726f787900000000000000000000000000000000000000006064820152608401610831565b610fb8826118d1565b610a10828260016118dc565b6000306001600160a01b037f000000000000000000000000000000000000000000000000000000000000000016146110645760405162461bcd60e51b815260206004820152603860248201527f555550535570677261646561626c653a206d757374206e6f742062652063616c60448201527f6c6564207468726f7567682064656c656761746563616c6c00000000000000006064820152608401610831565b507f360894a13ba1a3210667c828492db98dca3e2076cc3735a920a3ca505d382bbc90565b7f241ecf16d79d0f8dbfb92cbc07fe17840425976cf0667f022fe9877caa831b086110b38161169e565b6001600160a01b03831660008181526101326020908152604091829020805460ff19168615159081179091558251938452908301527ff776d871534c4177eb3ea09ad170db249e5c7057ff18ddf26992d18459a904b191015b60405180910390a1505050565b7f2de84d9fbdf6d06e2cc584295043dbd76046423b9f8bae9426d4fa5e7c03f4a76111438161169e565b61114b611ace565b61012d546040517f095ea7b30000000000000000000000000000000000000000000000000000000081526001600160a01b039182166004820152602481018490529084169063095ea7b3906044016020604051808303816000875af11580156111b8573d6000803e3d6000fd5b505050506040513d601f19601f820116820180604052508101906111dc9190612c94565b610a395760405162461bcd60e51b815260206004820152601a60248201527f53796d6d696f5061727479423a204e6f7420617070726f7665640000000000006044820152606401610831565b7f241ecf16d79d0f8dbfb92cbc07fe17840425976cf0667f022fe9877caa831b086112528161169e565b610a107fd8aa0f3194971a2a116679f7c2090f6939c8d4e01a2a8d7e41d55e5351469e63836117ac565b7f241ecf16d79d0f8dbfb92cbc07fe17840425976cf0667f022fe9877caa831b086112a68161169e565b7fffffffff00000000000000000000000000000000000000000000000000000000831660008181526101316020908152604091829020805460ff19168615159081179091558251938452908301527f3b438b04c48041000349f30457a15358332ec96233735f9bc289621aa82fb775910161110c565b7f241ecf16d79d0f8dbfb92cbc07fe17840425976cf0667f022fe9877caa831b086113468161169e565b610c60611b21565b7fd8aa0f3194971a2a116679f7c2090f6939c8d4e01a2a8d7e41d55e5351469e636113788161169e565b6040517fbd367d8e0000000000000000000000000000000000000000000000000000000081526001600160a01b0387169063bd367d8e906113bf9088908890600401612d01565b600060405180830381600087803b1580156113d957600080fd5b505af11580156113ed573d6000803e3d6000fd5b50505050600061012d60009054906101000a90046001600160a01b03166001600160a01b031663aa48e2e86040518163ffffffff1660e01b8152600401602060405180830381865afa158015611447573d6000803e3d6000fd5b505050506040513d601f19601f8201168201806040525081019061146b9190612d94565b905061147981878686611b5e565b50505050505050565b7f241ecf16d79d0f8dbfb92cbc07fe17840425976cf0667f022fe9877caa831b086114ac8161169e565b610a107f2de84d9fbdf6d06e2cc584295043dbd76046423b9f8bae9426d4fa5e7c03f4a7836117ac565b6114de611ace565b60005b60ff8116821115610a395761012d5461155e906001600160a01b0316848460ff851681811061151257611512612c49565b90506020028101906115249190612dad565b8080601f016020809104026020016040519081016040528093929190818152602001838380828437600092019190915250611ce192505050565b8061156881612c75565b9150506114e1565b600082815260c9602052604090206001015461158b8161169e565b610a39838361184e565b61159d611ace565b7fd8aa0f3194971a2a116679f7c2090f6939c8d4e01a2a8d7e41d55e5351469e636115c78161169e565b83821461163c5760405162461bcd60e51b815260206004820152602360248201527f53796d6d696f5061727479423a204172726179206c656e677468206d69736d6160448201527f74636800000000000000000000000000000000000000000000000000000000006064820152608401610831565b60005b60ff81168311156109b45761168c86868360ff1681811061166257611662612c49565b905060200201602081019061167791906126a2565b85858460ff1681811061151257611512612c49565b8061169681612c75565b91505061163f565b610c608133612081565b600054610100900460ff166117255760405162461bcd60e51b815260206004820152602b60248201527f496e697469616c697a61626c653a20636f6e7472616374206973206e6f74206960448201527f6e697469616c697a696e670000000000000000000000000000000000000000006064820152608401610831565b565b600054610100900460ff166117a45760405162461bcd60e51b815260206004820152602b60248201527f496e697469616c697a61626c653a20636f6e7472616374206973206e6f74206960448201527f6e697469616c697a696e670000000000000000000000000000000000000000006064820152608401610831565b6117256120f6565b600082815260c9602090815260408083206001600160a01b038516845290915290205460ff16610a1057600082815260c9602090815260408083206001600160a01b03851684529091529020805460ff1916600117905561180a3390565b6001600160a01b0316816001600160a01b0316837f2f8788117e7eff1d82e926ec794901d17c78024a50270940304540a733656f0d60405160405180910390a45050565b600082815260c9602090815260408083206001600160a01b038516845290915290205460ff1615610a1057600082815260c9602090815260408083206001600160a01b0385168085529252808320805460ff1916905551339285917ff6391f5c32d9c69d2a47ea670b442974b53935d1edc7fd64eb21e047a839171b9190a45050565b6000610a108161169e565b7f4910fdfa16fed3260ed0e7147f7cc6da11a60208b5b9406d12a635614ffd91435460ff161561190f57610a398361217f565b826001600160a01b03166352d1902d6040518163ffffffff1660e01b8152600401602060405180830381865afa925050508015611969575060408051601f3d908101601f1916820190925261196691810190612d94565b60015b6119db5760405162461bcd60e51b815260206004820152602e60248201527f45524331393637557067726164653a206e657720696d706c656d656e7461746960448201527f6f6e206973206e6f7420555550530000000000000000000000000000000000006064820152608401610831565b7f360894a13ba1a3210667c828492db98dca3e2076cc3735a920a3ca505d382bbc8114611a705760405162461bcd60e51b815260206004820152602960248201527f45524331393637557067726164653a20756e737570706f727465642070726f7860448201527f6961626c655555494400000000000000000000000000000000000000000000006064820152608401610831565b50610a3983838361224a565b611a8461226f565b60fb805460ff191690557f5db9ee0a495bf2e6ff9c91a7834c1ba4fdd244a5e8aa4e537bd38aeae4b073aa335b6040516001600160a01b03909116815260200160405180910390a1565b60fb5460ff16156117255760405162461bcd60e51b815260206004820152601060248201527f5061757361626c653a20706175736564000000000000000000000000000000006044820152606401610831565b611b29611ace565b60fb805460ff191660011790557f62e78cea01bee320cd4e420270b5ea74000d11b0c9f74754ebdbfc544b05a258611ab13390565b8115611c5d5761012d546040517fb074c08d000000000000000000000000000000000000000000000000000000008152600481018490526001600160a01b039091169063b074c08d90602401600060405180830381600087803b158015611bc457600080fd5b505af1158015611bd8573d6000803e3d6000fd5b505061012d546040517fcd0bac16000000000000000000000000000000000000000000000000000000008152600481018690526001600160a01b038781166024830152909116925063cd0bac169150604401600060405180830381600087803b158015611c4457600080fd5b505af1158015611c58573d6000803e3d6000fd5b505050505b61012d546040517fca6b88de0000000000000000000000000000000000000000000000000000000081526001600160a01b039091169063ca6b88de90611ca99087908590600401612e65565b600060405180830381600087803b158015611cc357600080fd5b505af1158015611cd7573d6000803e3d6000fd5b5050505050505050565b6001600160a01b038216611d375760405162461bcd60e51b815260206004820152601d60248201527f53796d6d696f5061727479423a20496e76616c696420616464726573730000006044820152606401610831565b600481511015611d895760405162461bcd60e51b815260206004820152601f60248201527f53796d6d696f5061727479423a20496e76616c69642063616c6c2064617461006044820152606401610831565b61012d546001600160a01b0390811690831603611f07576020818101517fffffffff000000000000000000000000000000000000000000000000000000008116600090815261013190925260409091205460ff1615611e1157611e0c7f241ecf16d79d0f8dbfb92cbc07fe17840425976cf0667f022fe9877caa831b0833612081565b611f01565b3360009081527ff5f43b48833b613af61a2aa61573d51591ce86ef304bb6e01e9115b2a39191de602052604090205460ff1680611e7c57503360009081527f0eb0036da60f345ca868f77afd76c8c85a78b433ed7c398634576f508c0f7c40602052604090205460ff165b80611eb557503360009081527f7750ce262e31b07888762da9b9192f0e05766d6a59613ba0222b9251cf3e65bc602052604090205460ff165b611f015760405162461bcd60e51b815260206004820152601c60248201527f53796d6d696f5061727479423a20496e76616c696420616363657373000000006044820152606401610831565b50611fc0565b6001600160a01b0382166000908152610132602052604090205460ff16611f965760405162461bcd60e51b815260206004820152603460248201527f53796d6d696f5061727479423a2044657374696e6174696f6e2061646472657360448201527f73206973206e6f742077686974656c69737465640000000000000000000000006064820152608401610831565b611fc07f2de84d9fbdf6d06e2cc584295043dbd76046423b9f8bae9426d4fa5e7c03f4a733612081565b600080836001600160a01b0316600084604051611fdd9190612f40565b60006040518083038185875af1925050503d806000811461201a576040519150601f19603f3d011682016040523d82523d6000602084013e61201f565b606091505b509150915081610e34578051156120395780518060208301fd5b60405162461bcd60e51b815260206004820181905260248201527f53796d6d696f5061727479423a20457865637574696f6e2072657665727465646044820152606401610831565b600082815260c9602090815260408083206001600160a01b038516845290915290205460ff16610a10576120b4816122c1565b6120bf8360206122d3565b6040516020016120d0929190612f5c565b60408051601f198184030181529082905262461bcd60e51b825261083191600401612fdd565b600054610100900460ff166121735760405162461bcd60e51b815260206004820152602b60248201527f496e697469616c697a61626c653a20636f6e7472616374206973206e6f74206960448201527f6e697469616c697a696e670000000000000000000000000000000000000000006064820152608401610831565b60fb805460ff19169055565b6001600160a01b0381163b6121fc5760405162461bcd60e51b815260206004820152602d60248201527f455243313936373a206e657720696d706c656d656e746174696f6e206973206e60448201527f6f74206120636f6e7472616374000000000000000000000000000000000000006064820152608401610831565b7f360894a13ba1a3210667c828492db98dca3e2076cc3735a920a3ca505d382bbc805473ffffffffffffffffffffffffffffffffffffffff19166001600160a01b0392909216919091179055565b61225383612503565b6000825111806122605750805b15610a3957610e348383612543565b60fb5460ff166117255760405162461bcd60e51b815260206004820152601460248201527f5061757361626c653a206e6f74207061757365640000000000000000000000006044820152606401610831565b60606107836001600160a01b03831660145b606060006122e2836002612ff0565b6122ed906002613007565b67ffffffffffffffff81111561230557612305612708565b6040519080825280601f01601f19166020018201604052801561232f576020820181803683370190505b5090507f30000000000000000000000000000000000000000000000000000000000000008160008151811061236657612366612c49565b60200101907effffffffffffffffffffffffffffffffffffffffffffffffffffffffffffff1916908160001a9053507f7800000000000000000000000000000000000000000000000000000000000000816001815181106123c9576123c9612c49565b60200101907effffffffffffffffffffffffffffffffffffffffffffffffffffffffffffff1916908160001a9053506000612405846002612ff0565b612410906001613007565b90505b60018111156124ad577f303132333435363738396162636465660000000000000000000000000000000085600f166010811061245157612451612c49565b1a60f81b82828151811061246757612467612c49565b60200101907effffffffffffffffffffffffffffffffffffffffffffffffffffffffffffff1916908160001a90535060049490941c936124a68161301a565b9050612413565b5083156124fc5760405162461bcd60e51b815260206004820181905260248201527f537472696e67733a20686578206c656e67746820696e73756666696369656e746044820152606401610831565b9392505050565b61250c8161217f565b6040516001600160a01b038216907fbc7cd75a20ee27fd9adebab32041f755214dbc6bffa90cc0225b39da2e5c2d3b90600090a250565b60606124fc8383604051806060016040528060278152602001613050602791396060600080856001600160a01b0316856040516125809190612f40565b600060405180830381855af49150503d80600081146125bb576040519150601f19603f3d011682016040523d82523d6000602084013e6125c0565b606091505b50915091506125d1868383876125db565b9695505050505050565b6060831561264a578251600003612643576001600160a01b0385163b6126435760405162461bcd60e51b815260206004820152601d60248201527f416464726573733a2063616c6c20746f206e6f6e2d636f6e74726163740000006044820152606401610831565b5081612654565b612654838361265c565b949350505050565b81511561266c5781518083602001fd5b8060405162461bcd60e51b81526004016108319190612fdd565b80356001600160a01b038116811461269d57600080fd5b919050565b6000602082840312156126b457600080fd5b6124fc82612686565b80357fffffffff000000000000000000000000000000000000000000000000000000008116811461269d57600080fd5b6000602082840312156126ff57600080fd5b6124fc826126bd565b634e487b7160e01b600052604160045260246000fd5b604051601f8201601f1916810167ffffffffffffffff8111828210171561274757612747612708565b604052919050565b600067ffffffffffffffff82111561276957612769612708565b5060051b60200190565b600080600080600060a0868803121561278b57600080fd5b61279486612686565b9450602086013567ffffffffffffffff8111156127b057600080fd5b8601601f810188136127c157600080fd5b80356127d46127cf8261274f565b61271e565b8082825260208201915060208360051b85010192508a8311156127f657600080fd5b6020840193505b8284101561281f5761280e84612686565b8252602093840193909101906127fd565b96506128319250505060408701612686565b925061283f60608701612686565b915061284d60808701612686565b90509295509295909350565b60006020828403121561286b57600080fd5b5035919050565b6000806040838503121561288557600080fd5b8235915061289560208401612686565b90509250929050565b6000806000606084860312156128b357600080fd5b6128bc84612686565b92506128ca60208501612686565b929592945050506040919091013590565b600082601f8301126128ec57600080fd5b813567ffffffffffffffff81111561290657612906612708565b6129196020601f19601f8401160161271e565b81815284602083860101111561292e57600080fd5b816020850160208301376000918101602001919091529392505050565b6000806040838503121561295e57600080fd5b61296783612686565b9150602083013567ffffffffffffffff81111561298357600080fd5b61298f858286016128db565b9150509250929050565b8015158114610c6057600080fd5b600080604083850312156129ba57600080fd5b6129c383612686565b915060208301356129d381612999565b809150509250929050565b600080604083850312156129f157600080fd5b6129fa83612686565b946020939093013593505050565b60008060408385031215612a1b57600080fd5b6129c3836126bd565b600060e08284031215612a3657600080fd5b50919050565b600080600080600060a08688031215612a5457600080fd5b612a5d86612686565b9450612a6b60208701612686565b9350604086013567ffffffffffffffff811115612a8757600080fd5b8601601f81018813612a9857600080fd5b8035612aa66127cf8261274f565b8082825260208201915060208360051b85010192508a831115612ac857600080fd5b602084015b83811015612b0a57803567ffffffffffffffff811115612aec57600080fd5b612afb8d6020838901016128db565b84525060209283019201612acd565b50955050505060608601359150608086013567ffffffffffffffff811115612b3157600080fd5b612b3d88828901612a24565b9150509295509295909350565b60008083601f840112612b5c57600080fd5b50813567ffffffffffffffff811115612b7457600080fd5b6020830191508360208260051b8501011115612b8f57600080fd5b9250929050565b60008060208385031215612ba957600080fd5b823567ffffffffffffffff811115612bc057600080fd5b612bcc85828601612b4a565b90969095509350505050565b60008060008060408587031215612bee57600080fd5b843567ffffffffffffffff811115612c0557600080fd5b612c1187828801612b4a565b909550935050602085013567ffffffffffffffff811115612c3157600080fd5b612c3d87828801612b4a565b95989497509550505050565b634e487b7160e01b600052603260045260246000fd5b634e487b7160e01b600052601160045260246000fd5b600060ff821660ff8103612c8b57612c8b612c5f565b60010192915050565b600060208284031215612ca657600080fd5b81516124fc81612999565b60005b83811015612ccc578181015183820152602001612cb4565b50506000910152565b60008151808452612ced816020860160208601612cb1565b601f01601f19169290920160200192915050565b6000604082016001600160a01b03851683526040602084015280845180835260608501915060608160051b86010192506020860160005b82811015612d87577fffffffffffffffffffffffffffffffffffffffffffffffffffffffffffffffa0878603018452612d72858351612cd5565b94506020938401939190910190600101612d38565b5092979650505050505050565b600060208284031215612da657600080fd5b5051919050565b6000808335601e19843603018112612dc457600080fd5b83018035915067ffffffffffffffff821115612ddf57600080fd5b602001915036819003821315612b8f57600080fd5b6000808335601e19843603018112612e0b57600080fd5b830160208101925035905067ffffffffffffffff811115612e2b57600080fd5b803603821315612b8f57600080fd5b818352818160208501375060006020828401015260006020601f19601f840116840101905092915050565b828152604060208201526000612e7b8384612df4565b60e06040850152612e9161012085018284612e3a565b9150506000602085013590508060608501525060408401356080840152612ebb6060850185612df4565b7fffffffffffffffffffffffffffffffffffffffffffffffffffffffffffffffc08584030160a0860152612ef0838284612e3a565b608087013560c087015292506001600160a01b039150612f14905060a08601612686565b1660e08401526001600160a01b03612f2e60c08601612686565b16610100840152809150509392505050565b60008251612f52818460208701612cb1565b9190910192915050565b7f416363657373436f6e74726f6c3a206163636f756e7420000000000000000000815260008351612f94816017850160208801612cb1565b7f206973206d697373696e6720726f6c65200000000000000000000000000000006017918401918201528351612fd1816028840160208801612cb1565b01602801949350505050565b6020815260006124fc6020830184612cd5565b808202811582820484141761078357610783612c5f565b8082018082111561078357610783612c5f565b60008161302957613029612c5f565b507fffffffffffffffffffffffffffffffffffffffffffffffffffffffffffffffff019056fe416464726573733a206c6f772d6c6576656c2064656c65676174652063616c6c206661696c6564a26469706673582212208f0ef59d25e7d46ba3d318dfe2a08bf29fa550f6283930093ae8ab5f3dce745264736f6c634300081c0033",
  "linkReferences": {},
  "deployedLinkReferences": {}
}