{
  "_format": "hh-sol-artifact-1",
  "contractName": "NoxPartyB",
  "sourceName": "contracts/solver/NoxSolver.sol",
  "abi": [
    {
      "inputs": [],
      "stateMutability": "nonpayable",
      "type": "constructor"
    },
    {
      "anonymous": false,
      "inputs": [
        {
          "indexed": false,
          "internalType": "address",
          "name": "previousAdmin",
          "type": "address"
        },
        {
          "indexed": false,
          "internalType": "address",
          "name": "newAdmin",
          "type": "address"
        }
      ],
      "name": "AdminChanged",
      "type": "event"
    },
    {
      "anonymous": false,
      "inputs": [
        {
          "indexed": true,
          "internalType": "address",
          "name": "beacon",
          "type": "address"
        }
      ],
      "name": "BeaconUpgraded",
      "type": "event"
    },
    {
      "anonymous": false,
      "inputs": [
        {
          "indexed": false,
          "internalType": "uint8",
          "name": "version",
          "type": "uint8"
        }
      ],
      "name": "Initialized",
      "type": "event"
    },
    {
      "anonymous": false,
      "inputs": [
        {
          "indexed": false,
          "internalType": "address",
          "name": "account",
          "type": "address"
        }
      ],
      "name": "Paused",
      "type": "event"
    },
    {
      "anonymous": false,
      "inputs": [
        {
          "indexed": true,
          "internalType": "bytes32",
          "name": "role",
          "type": "bytes32"
        },
        {
          "indexed": true,
          "internalType": "bytes32",
          "name": "previousAdminRole",
          "type": "bytes32"
        },
        {
          "indexed": true,
          "internalType": "bytes32",
          "name": "newAdminRole",
          "type": "bytes32"
        }
      ],
      "name": "RoleAdminChanged",
      "type": "event"
    },
    {
      "anonymous": false,
      "inputs": [
        {
          "indexed": true,
          "internalType": "bytes32",
          "name": "role",
          "type": "bytes32"
        },
        {
          "indexed": true,
          "internalType": "address",
          "name": "account",
          "type": "address"
        },
        {
          "indexed": true,
          "internalType": "address",
          "name": "sender",
          "type": "address"
        }
      ],
      "name": "RoleGranted",
      "type": "event"
    },
    {
      "anonymous": false,
      "inputs": [
        {
          "indexed": true,
          "internalType": "bytes32",
          "name": "role",
          "type": "bytes32"
        },
        {
          "indexed": true,
          "internalType": "address",
          "name": "account",
          "type": "address"
        },
        {
          "indexed": true,
          "internalType": "address",
          "name": "sender",
          "type": "address"
        }
      ],
      "name": "RoleRevoked",
      "type": "event"
    },
    {
      "anonymous": false,
      "inputs": [
        {
          "indexed": false,
          "internalType": "address",
          "name": "addr",
          "type": "address"
        },
        {
          "indexed": false,
          "internalType": "bool",
          "name": "state",
          "type": "bool"
        }
      ],
      "name": "SetMulticastWhitelist",
      "type": "event"
    },
    {
      "anonymous": false,
      "inputs": [
        {
          "indexed": false,
          "internalType": "bytes4",
          "name": "selector",
          "type": "bytes4"
        },
        {
          "indexed": false,
          "internalType": "bool",
          "name": "state",
          "type": "bool"
        }
      ],
      "name": "SetRestrictedSelector",
      "type": "event"
    },
    {
      "anonymous": false,
      "inputs": [
        {
          "indexed": false,
          "internalType": "address",
          "name": "oldSymmioAddress",
          "type": "address"
        },
        {
          "indexed": false,
          "internalType": "address",
          "name": "newSymmioAddress",
          "type": "address"
        }
      ],
      "name": "SetSymmioAddress",
      "type": "event"
    },
    {
      "anonymous": false,
      "inputs": [
        {
          "indexed": false,
          "internalType": "address",
          "name": "account",
          "type": "address"
        }
      ],
      "name": "Unpaused",
      "type": "event"
    },
    {
      "anonymous": false,
      "inputs": [
        {
          "indexed": true,
          "internalType": "address",
          "name": "implementation",
          "type": "address"
        }
      ],
      "name": "Upgraded",
      "type": "event"
    },
    {
      "inputs": [],
      "name": "DEFAULT_ADMIN_ROLE",
      "outputs": [
        {
          "internalType": "bytes32",
          "name": "",
          "type": "bytes32"
        }
      ],
      "stateMutability": "view",
      "type": "function"
    },
    {
      "inputs": [],
      "name": "EXECUTOR_ROLE",
      "outputs": [
        {
          "internalType": "bytes32",
          "name": "",
          "type": "bytes32"
        }
      ],
      "stateMutability": "view",
      "type": "function"
    },
    {
      "inputs": [],
      "name": "MANAGER_ROLE",
      "outputs": [
        {
          "internalType": "bytes32",
          "name": "",
          "type": "bytes32"
        }
      ],
      "stateMutability": "view",
      "type": "function"
    },
    {
      "inputs": [],
      "name": "TRUSTED_ROLE",
      "outputs": [
        {
          "internalType": "bytes32",
          "name": "",
          "type": "bytes32"
        }
      ],
      "stateMutability": "view",
      "type": "function"
    },
    {
      "inputs": [
        {
          "internalType": "address",
          "name": "token",
          "type": "address"
        },
        {
          "internalType": "uint256",
          "name": "amount",
          "type": "uint256"
        }
      ],
      "name": "_approve",
      "outputs": [],
      "stateMutability": "nonpayable",
      "type": "function"
    },
    {
      "inputs": [
        {
          "internalType": "bytes[]",
          "name": "_callDatas",
          "type": "bytes[]"
        }
      ],
      "name": "_call",
      "outputs": [],
      "stateMutability": "nonpayable",
      "type": "function"
    },
    {
      "inputs": [
        {
          "internalType": "address[]",
          "name": "destAddresses",
          "type": "address[]"
        },
        {
          "internalType": "bytes[]",
          "name": "_callDatas",
          "type": "bytes[]"
        }
      ],
      "name": "_multicastCall",
      "outputs": [],
      "stateMutability": "nonpayable",
      "type": "function"
    },
    {
      "inputs": [
        {
          "internalType": "bytes32",
          "name": "role",
          "type": "bytes32"
        }
      ],
      "name": "getRoleAdmin",
      "outputs": [
        {
          "internalType": "bytes32",
          "name": "",
          "type": "bytes32"
        }
      ],
      "stateMutability": "view",
      "type": "function"
    },
    {
      "inputs": [
        {
          "internalType": "bytes32",
          "name": "role",
          "type": "bytes32"
        },
        {
          "internalType": "address",
          "name": "account",
          "type": "address"
        }
      ],
      "name": "grantRole",
      "outputs": [],
      "stateMutability": "nonpayable",
      "type": "function"
    },
    {
      "inputs": [
        {
          "internalType": "address",
          "name": "addr",
          "type": "address"
        }
      ],
      "name": "grantTrustedRole",
      "outputs": [],
      "stateMutability": "nonpayable",
      "type": "function"
    },
    {
      "inputs": [
        {
          "internalType": "bytes32",
          "name": "role",
          "type": "bytes32"
        },
        {
          "internalType": "address",
          "name": "account",
          "type": "address"
        }
      ],
      "name": "hasRole",
      "outputs": [
        {
          "internalType": "bool",
          "name": "",
          "type": "bool"
        }
      ],
      "stateMutability": "view",
      "type": "function"
    },
    {
      "inputs": [
        {
          "internalType": "address",
          "name": "admin",
          "type": "address"
        },
        {
          "internalType": "address[]",
          "name": "managers",
          "type": "address[]"
        },
        {
          "internalType": "address[]",
          "name": "trusted",
          "type": "address[]"
        },
        {
          "internalType": "address",
          "name": "withdrawalAddress_",
          "type": "address"
        },
        {
          "internalType": "address",
          "name": "ledgerMultiSigWithdrawalAddress_",
          "type": "address"
        },
        {
          "internalType": "address",
          "name": "symmioAddress_",
          "type": "address"
        }
      ],
      "name": "initialize",
      "outputs": [],
      "stateMutability": "nonpayable",
      "type": "function"
    },
    {
      "inputs": [
        {
          "internalType": "address",
          "name": "",
          "type": "address"
        }
      ],
      "name": "multicastWhitelist",
      "outputs": [
        {
          "internalType": "bool",
          "name": "",
          "type": "bool"
        }
      ],
      "stateMutability": "view",
      "type": "function"
    },
    {
      "inputs": [],
      "name": "pause",
      "outputs": [],
      "stateMutability": "nonpayable",
      "type": "function"
    },
    {
      "inputs": [],
      "name": "paused",
      "outputs": [
        {
          "internalType": "bool",
          "name": "",
          "type": "bool"
        }
      ],
      "stateMutability": "view",
      "type": "function"
    },
    {
      "inputs": [],
      "name": "proxiableUUID",
      "outputs": [
        {
          "internalType": "bytes32",
          "name": "",
          "type": "bytes32"
        }
      ],
      "stateMutability": "view",
      "type": "function"
    },
    {
      "inputs": [
        {
          "internalType": "bytes32",
          "name": "role",
          "type": "bytes32"
        },
        {
          "internalType": "address",
          "name": "account",
          "type": "address"
        }
      ],
      "name": "renounceRole",
      "outputs": [],
      "stateMutability": "nonpayable",
      "type": "function"
    },
    {
      "inputs": [
        {
          "internalType": "bytes4",
          "name": "",
          "type": "bytes4"
        }
      ],
      "name": "restrictedSelectors",
      "outputs": [
        {
          "internalType": "bool",
          "name": "",
          "type": "bool"
        }
      ],
      "stateMutability": "view",
      "type": "function"
    },
    {
      "inputs": [
        {
          "internalType": "bytes32",
          "name": "role",
          "type": "bytes32"
        },
        {
          "internalType": "address",
          "name": "account",
          "type": "address"
        }
      ],
      "name": "revokeRole",
      "outputs": [],
      "stateMutability": "nonpayable",
      "type": "function"
    },
    {
      "inputs": [
        {
          "internalType": "address",
          "name": "multiAccount",
          "type": "address"
        },
        {
          "internalType": "address",
          "name": "partyA",
          "type": "address"
        },
        {
          "internalType": "bytes[]",
          "name": "sendQuoteCalldata",
          "type": "bytes[]"
        },
        {
          "internalType": "uint256",
          "name": "allocationAmount",
          "type": "uint256"
        },
        {
          "components": [
            {
              "internalType": "bytes",
              "name": "reqId",
              "type": "bytes"
            },
            {
              "internalType": "uint256",
              "name": "timestamp",
              "type": "uint256"
            },
            {
              "internalType": "int256",
              "name": "upnl",
              "type": "int256"
            },
            {
              "internalType": "bytes",
              "name": "gatewaySignature",
              "type": "bytes"
            },
            {
              "components": [
                {
                  "internalType": "uint256",
                  "name": "signature",
                  "type": "uint256"
                },
                {
                  "internalType": "address",
                  "name": "owner",
                  "type": "address"
                },
                {
                  "internalType": "address",
                  "name": "nonce",
                  "type": "address"
                }
              ],
              "internalType": "struct SchnorrSign",
              "name": "sigs",
              "type": "tuple"
            }
          ],
          "internalType": "struct SingleUpnlSig",
          "name": "sig",
          "type": "tuple"
        }
      ],
      "name": "sendAndLockInstantOpenPositionWithReserveVault",
      "outputs": [],
      "stateMutability": "nonpayable",
      "type": "function"
    },
    {
      "inputs": [
        {
          "internalType": "address",
          "name": "addr",
          "type": "address"
        },
        {
          "internalType": "bool",
          "name": "state",
          "type": "bool"
        }
      ],
      "name": "setMulticastWhitelist",
      "outputs": [],
      "stateMutability": "nonpayable",
      "type": "function"
    },
    {
      "inputs": [
        {
          "internalType": "bytes4",
          "name": "selector",
          "type": "bytes4"
        },
        {
          "internalType": "bool",
          "name": "state",
          "type": "bool"
        }
      ],
      "name": "setRestrictedSelector",
      "outputs": [],
      "stateMutability": "nonpayable",
      "type": "function"
    },
    {
      "inputs": [
        {
          "internalType": "address",
          "name": "addr",
          "type": "address"
        }
      ],
      "name": "setSymmioAddress",
      "outputs": [],
      "stateMutability": "nonpayable",
      "type": "function"
    },
    {
      "inputs": [
        {
          "internalType": "bytes4",
          "name": "interfaceId",
          "type": "bytes4"
        }
      ],
      "name": "supportsInterface",
      "outputs": [
        {
          "internalType": "bool",
          "name": "",
          "type": "bool"
        }
      ],
      "stateMutability": "view",
      "type": "function"
    },
    {
      "inputs": [],
      "name": "symmioAddress",
      "outputs": [
        {
          "internalType": "address",
          "name": "",
          "type": "address"
        }
      ],
      "stateMutability": "view",
      "type": "function"
    },
    {
      "inputs": [],
      "name": "unpause",
      "outputs": [],
      "stateMutability": "nonpayable",
      "type": "function"
    },
    {
      "inputs": [
        {
          "internalType": "address",
          "name": "newImplementation",
          "type": "address"
        }
      ],
      "name": "upgradeTo",
      "outputs": [],
      "stateMutability": "nonpayable",
      "type": "function"
    },
    {
      "inputs": [
        {
          "internalType": "address",
          "name": "newImplementation",
          "type": "address"
        },
        {
          "internalType": "bytes",
          "name": "data",
          "type": "bytes"
        }
      ],
      "name": "upgradeToAndCall",
      "outputs": [],
      "stateMutability": "payable",
      "type": "function"
    },
    {
      "inputs": [
        {
          "internalType": "address",
          "name": "targetAddress",
          "type": "address"
        },
        {
          "internalType": "address",
          "name": "token",
          "type": "address"
        },
        {
          "internalType": "uint256",
          "name": "amount",
          "type": "uint256"
        }
      ],
      "name": "withdrawERC20",
      "outputs": [],
      "stateMutability": "nonpayable",
      "type": "function"
    }
  ],
  "bytecode": "0x60a06040523060805234801561001457600080fd5b5061001d610022565b6100e1565b600054610100900460ff161561008e5760405162461bcd60e51b815260206004820152602760248201527f496e697469616c697a61626c653a20636f6e747261637420697320696e697469604482015266616c697a696e6760c81b606482015260840160405180910390fd5b60005460ff908116146100df576000805460ff191660ff9081179091556040519081527f7f26b83ff96e1f2b6a682f133852f6798a09c465da95921460cefb38474024989060200160405180910390a15b565b608051613041610118600039600081816107f80152818161088e01528181610b6c01528181610c020152610cf901526130416000f3fe6080604052600436106101c15760003560e01c80636b18d182116100f757806388ef77be11610095578063d547741f11610064578063d547741f14610552578063ec87621c14610572578063edddc273146105a6578063f504fd59146105d757600080fd5b806388ef77be146104b757806391d14854146104d7578063a217fddf1461051d578063ca9d9c9d1461053257600080fd5b80637b7d7225116100d15780637b7d72251461044257806383aba1d3146104625780638456cb591461048257806387e798801461049757600080fd5b80636b18d182146103c9578063717bb262146103e95780637278b28f1461040957600080fd5b80633659cfe6116101645780634f1ef2861161013e5780634f1ef2861461035557806352d1902d146103685780635901692e1461037d5780635c975abb146103b157600080fd5b80633659cfe6146103005780633f4ba83a1461032057806344004cc11461033557600080fd5b806307bd0265116101a057806307bd02651461024e578063248a9ca3146102905780632f2ff15d146102c057806336568abe146102e057600080fd5b8062fbc355146101c657806301569e3a1461020c57806301ffc9a71461022e575b600080fd5b3480156101d257600080fd5b506101f76101e13660046125ff565b6101326020526000908152604090205460ff1681565b60405190151581526020015b60405180910390f35b34801561021857600080fd5b5061022c6102273660046125ff565b6105f7565b005b34801561023a57600080fd5b506101f761024936600461264a565b61069a565b34801561025a57600080fd5b506102827fd8aa0f3194971a2a116679f7c2090f6939c8d4e01a2a8d7e41d55e5351469e6381565b604051908152602001610203565b34801561029c57600080fd5b506102826102ab366004612665565b600090815260c9602052604090206001015490565b3480156102cc57600080fd5b5061022c6102db36600461267e565b610733565b3480156102ec57600080fd5b5061022c6102fb36600461267e565b61075d565b34801561030c57600080fd5b5061022c61031b3660046125ff565b6107ee565b34801561032c57600080fd5b5061022c61098b565b34801561034157600080fd5b5061022c6103503660046126aa565b6109bd565b61022c61036336600461279e565b610b62565b34801561037457600080fd5b50610282610cec565b34801561038957600080fd5b506102827f2de84d9fbdf6d06e2cc584295043dbd76046423b9f8bae9426d4fa5e7c03f4a781565b3480156103bd57600080fd5b5060fb5460ff166101f7565b3480156103d557600080fd5b5061022c6103e4366004612884565b610db1565b3480156103f557600080fd5b5061022c61040436600461293c565b61103b565b34801561041557600080fd5b5061012d5461042a906001600160a01b031681565b6040516001600160a01b039091168152602001610203565b34801561044e57600080fd5b5061022c61045d366004612973565b6110cb565b34801561046e57600080fd5b5061022c61047d36600461299d565b6111da565b34801561048e57600080fd5b5061022c61127a565b3480156104a357600080fd5b5061022c6104b23660046129d1565b6112ac565b3480156104c357600080fd5b5061022c6104d23660046125ff565b6113d7565b3480156104e357600080fd5b506101f76104f236600461267e565b600091825260c9602090815260408084206001600160a01b0393909316845291905290205460ff1690565b34801561052957600080fd5b50610282600081565b34801561053e57600080fd5b5061022c61054d366004612b2b565b61142b565b34801561055e57600080fd5b5061022c61056d36600461267e565b6114c5565b34801561057e57600080fd5b506102827f241ecf16d79d0f8dbfb92cbc07fe17840425976cf0667f022fe9877caa831b0881565b3480156105b257600080fd5b506101f76105c136600461264a565b6101316020526000908152604090205460ff1681565b3480156105e357600080fd5b5061022c6105f2366004612b6d565b6114ea565b7f241ecf16d79d0f8dbfb92cbc07fe17840425976cf0667f022fe9877caa831b08610621816115fb565b61012d54604080516001600160a01b03928316815291841660208301527ff78ccdf5924090b2ab6627ac5da4ec5affed73d47c6bc6c8a4620a0d5ed57bc8910160405180910390a15061012d805473ffffffffffffffffffffffffffffffffffffffff19166001600160a01b0392909216919091179055565b60007fffffffff0000000000000000000000000000000000000000000000000000000082167f7965db0b00000000000000000000000000000000000000000000000000000000148061072d57507f01ffc9a7000000000000000000000000000000000000000000000000000000007fffffffff000000000000000000000000000000000000000000000000000000008316145b92915050565b600082815260c9602052604090206001015461074e816115fb565b6107588383611605565b505050565b6001600160a01b03811633146107e05760405162461bcd60e51b815260206004820152602f60248201527f416363657373436f6e74726f6c3a2063616e206f6e6c792072656e6f756e636560448201527f20726f6c657320666f722073656c66000000000000000000000000000000000060648201526084015b60405180910390fd5b6107ea82826116a7565b5050565b6001600160a01b037f000000000000000000000000000000000000000000000000000000000000000016300361088c5760405162461bcd60e51b815260206004820152602c60248201527f46756e6374696f6e206d7573742062652063616c6c6564207468726f7567682060448201527f64656c656761746563616c6c000000000000000000000000000000000000000060648201526084016107d7565b7f00000000000000000000000000000000000000000000000000000000000000006001600160a01b03166108e77f360894a13ba1a3210667c828492db98dca3e2076cc3735a920a3ca505d382bbc546001600160a01b031690565b6001600160a01b0316146109635760405162461bcd60e51b815260206004820152602c60248201527f46756e6374696f6e206d7573742062652063616c6c6564207468726f7567682060448201527f6163746976652070726f7879000000000000000000000000000000000000000060648201526084016107d7565b61096c8161172a565b6040805160008082526020820190925261098891839190611735565b50565b7f241ecf16d79d0f8dbfb92cbc07fe17840425976cf0667f022fe9877caa831b086109b5816115fb565b6109886118d5565b7f241ecf16d79d0f8dbfb92cbc07fe17840425976cf0667f022fe9877caa831b086109e7816115fb565b61012e546001600160a01b0385811691161480610a12575061012f546001600160a01b038581169116145b610a845760405162461bcd60e51b815260206004820152602260248201527f496e76616c696420746172676574207769746864726177616c2041646472657360448201527f732100000000000000000000000000000000000000000000000000000000000060648201526084016107d7565b6040517fa9059cbb0000000000000000000000000000000000000000000000000000000081526001600160a01b0385811660048301526024820184905284169063a9059cbb906044016020604051808303816000875af1158015610aec573d6000803e3d6000fd5b505050506040513d601f19601f82011682018060405250810190610b109190612bde565b610b5c5760405162461bcd60e51b815260206004820152601d60248201527f53796d6d696f5061727479423a204e6f74207472616e7366657272656400000060448201526064016107d7565b50505050565b6001600160a01b037f0000000000000000000000000000000000000000000000000000000000000000163003610c005760405162461bcd60e51b815260206004820152602c60248201527f46756e6374696f6e206d7573742062652063616c6c6564207468726f7567682060448201527f64656c656761746563616c6c000000000000000000000000000000000000000060648201526084016107d7565b7f00000000000000000000000000000000000000000000000000000000000000006001600160a01b0316610c5b7f360894a13ba1a3210667c828492db98dca3e2076cc3735a920a3ca505d382bbc546001600160a01b031690565b6001600160a01b031614610cd75760405162461bcd60e51b815260206004820152602c60248201527f46756e6374696f6e206d7573742062652063616c6c6564207468726f7567682060448201527f6163746976652070726f7879000000000000000000000000000000000000000060648201526084016107d7565b610ce08261172a565b6107ea82826001611735565b6000306001600160a01b037f00000000000000000000000000000000000000000000000000000000000000001614610d8c5760405162461bcd60e51b815260206004820152603860248201527f555550535570677261646561626c653a206d757374206e6f742062652063616c60448201527f6c6564207468726f7567682064656c656761746563616c6c000000000000000060648201526084016107d7565b507f360894a13ba1a3210667c828492db98dca3e2076cc3735a920a3ca505d382bbc90565b600054610100900460ff1615808015610dd15750600054600160ff909116105b80610deb5750303b158015610deb575060005460ff166001145b610e5d5760405162461bcd60e51b815260206004820152602e60248201527f496e697469616c697a61626c653a20636f6e747261637420697320616c72656160448201527f647920696e697469616c697a656400000000000000000000000000000000000060648201526084016107d7565b6000805460ff191660011790558015610e80576000805461ff0019166101001790555b610e88611927565b610e906119a6565b610e98611927565b61012d80546001600160a01b0380851673ffffffffffffffffffffffffffffffffffffffff199283161790925561012e805487841690831617905561012f805492861692909116919091179055610ef0600088611605565b60005b86518160ff161015610f9057610f457f2de84d9fbdf6d06e2cc584295043dbd76046423b9f8bae9426d4fa5e7c03f4a7888360ff1681518110610f3857610f38612bfb565b6020026020010151611605565b610f7e7f241ecf16d79d0f8dbfb92cbc07fe17840425976cf0667f022fe9877caa831b08888360ff1681518110610f3857610f38612bfb565b80610f8881612c27565b915050610ef3565b5060005b85518160ff161015610feb57610fd97f2de84d9fbdf6d06e2cc584295043dbd76046423b9f8bae9426d4fa5e7c03f4a7878360ff1681518110610f3857610f38612bfb565b80610fe381612c27565b915050610f94565b508015611032576000805461ff0019169055604051600181527f7f26b83ff96e1f2b6a682f133852f6798a09c465da95921460cefb38474024989060200160405180910390a15b50505050505050565b7f241ecf16d79d0f8dbfb92cbc07fe17840425976cf0667f022fe9877caa831b08611065816115fb565b6001600160a01b03831660008181526101326020908152604091829020805460ff19168615159081179091558251938452908301527ff776d871534c4177eb3ea09ad170db249e5c7057ff18ddf26992d18459a904b191015b60405180910390a1505050565b7f2de84d9fbdf6d06e2cc584295043dbd76046423b9f8bae9426d4fa5e7c03f4a76110f5816115fb565b6110fd611a2b565b61012d546040517f095ea7b30000000000000000000000000000000000000000000000000000000081526001600160a01b039182166004820152602481018490529084169063095ea7b3906044016020604051808303816000875af115801561116a573d6000803e3d6000fd5b505050506040513d601f19601f8201168201806040525081019061118e9190612bde565b6107585760405162461bcd60e51b815260206004820152601a60248201527f53796d6d696f5061727479423a204e6f7420617070726f76656400000000000060448201526064016107d7565b7f241ecf16d79d0f8dbfb92cbc07fe17840425976cf0667f022fe9877caa831b08611204816115fb565b7fffffffff00000000000000000000000000000000000000000000000000000000831660008181526101316020908152604091829020805460ff19168615159081179091558251938452908301527f3b438b04c48041000349f30457a15358332ec96233735f9bc289621aa82fb77591016110be565b7f241ecf16d79d0f8dbfb92cbc07fe17840425976cf0667f022fe9877caa831b086112a4816115fb565b610988611a7e565b7fd8aa0f3194971a2a116679f7c2090f6939c8d4e01a2a8d7e41d55e5351469e636112d6816115fb565b6040517fbd367d8e0000000000000000000000000000000000000000000000000000000081526001600160a01b0387169063bd367d8e9061131d9088908890600401612c96565b600060405180830381600087803b15801561133757600080fd5b505af115801561134b573d6000803e3d6000fd5b50505050600061012d60009054906101000a90046001600160a01b03166001600160a01b031663aa48e2e86040518163ffffffff1660e01b8152600401602060405180830381865afa1580156113a5573d6000803e3d6000fd5b505050506040513d601f19601f820116820180604052508101906113c99190612d29565b905061103281878686611abb565b7f241ecf16d79d0f8dbfb92cbc07fe17840425976cf0667f022fe9877caa831b08611401816115fb565b6107ea7f2de84d9fbdf6d06e2cc584295043dbd76046423b9f8bae9426d4fa5e7c03f4a783611605565b611433611a2b565b60005b60ff81168211156107585761012d546114b3906001600160a01b0316848460ff851681811061146757611467612bfb565b90506020028101906114799190612d42565b8080601f016020809104026020016040519081016040528093929190818152602001838380828437600092019190915250611c3e92505050565b806114bd81612c27565b915050611436565b600082815260c960205260409020600101546114e0816115fb565b61075883836116a7565b6114f2611a2b565b7fd8aa0f3194971a2a116679f7c2090f6939c8d4e01a2a8d7e41d55e5351469e6361151c816115fb565b8382146115915760405162461bcd60e51b815260206004820152602360248201527f53796d6d696f5061727479423a204172726179206c656e677468206d69736d6160448201527f746368000000000000000000000000000000000000000000000000000000000060648201526084016107d7565b60005b60ff81168311156115f3576115e186868360ff168181106115b7576115b7612bfb565b90506020020160208101906115cc91906125ff565b85858460ff1681811061146757611467612bfb565b806115eb81612c27565b915050611594565b505050505050565b6109888133611fde565b600082815260c9602090815260408083206001600160a01b038516845290915290205460ff166107ea57600082815260c9602090815260408083206001600160a01b03851684529091529020805460ff191660011790556116633390565b6001600160a01b0316816001600160a01b0316837f2f8788117e7eff1d82e926ec794901d17c78024a50270940304540a733656f0d60405160405180910390a45050565b600082815260c9602090815260408083206001600160a01b038516845290915290205460ff16156107ea57600082815260c9602090815260408083206001600160a01b0385168085529252808320805460ff1916905551339285917ff6391f5c32d9c69d2a47ea670b442974b53935d1edc7fd64eb21e047a839171b9190a45050565b60006107ea816115fb565b7f4910fdfa16fed3260ed0e7147f7cc6da11a60208b5b9406d12a635614ffd91435460ff16156117685761075883612053565b826001600160a01b03166352d1902d6040518163ffffffff1660e01b8152600401602060405180830381865afa9250505080156117c2575060408051601f3d908101601f191682019092526117bf91810190612d29565b60015b6118345760405162461bcd60e51b815260206004820152602e60248201527f45524331393637557067726164653a206e657720696d706c656d656e7461746960448201527f6f6e206973206e6f74205555505300000000000000000000000000000000000060648201526084016107d7565b7f360894a13ba1a3210667c828492db98dca3e2076cc3735a920a3ca505d382bbc81146118c95760405162461bcd60e51b815260206004820152602960248201527f45524331393637557067726164653a20756e737570706f727465642070726f7860448201527f6961626c6555554944000000000000000000000000000000000000000000000060648201526084016107d7565b5061075883838361211e565b6118dd612143565b60fb805460ff191690557f5db9ee0a495bf2e6ff9c91a7834c1ba4fdd244a5e8aa4e537bd38aeae4b073aa335b6040516001600160a01b03909116815260200160405180910390a1565b600054610100900460ff166119a45760405162461bcd60e51b815260206004820152602b60248201527f496e697469616c697a61626c653a20636f6e7472616374206973206e6f74206960448201527f6e697469616c697a696e6700000000000000000000000000000000000000000060648201526084016107d7565b565b600054610100900460ff16611a235760405162461bcd60e51b815260206004820152602b60248201527f496e697469616c697a61626c653a20636f6e7472616374206973206e6f74206960448201527f6e697469616c697a696e6700000000000000000000000000000000000000000060648201526084016107d7565b6119a4612195565b60fb5460ff16156119a45760405162461bcd60e51b815260206004820152601060248201527f5061757361626c653a207061757365640000000000000000000000000000000060448201526064016107d7565b611a86611a2b565b60fb805460ff191660011790557f62e78cea01bee320cd4e420270b5ea74000d11b0c9f74754ebdbfc544b05a25861190a3390565b8115611bba5761012d546040517fb074c08d000000000000000000000000000000000000000000000000000000008152600481018490526001600160a01b039091169063b074c08d90602401600060405180830381600087803b158015611b2157600080fd5b505af1158015611b35573d6000803e3d6000fd5b505061012d546040517fcd0bac16000000000000000000000000000000000000000000000000000000008152600481018690526001600160a01b038781166024830152909116925063cd0bac169150604401600060405180830381600087803b158015611ba157600080fd5b505af1158015611bb5573d6000803e3d6000fd5b505050505b61012d546040517fca6b88de0000000000000000000000000000000000000000000000000000000081526001600160a01b039091169063ca6b88de90611c069087908590600401612dfa565b600060405180830381600087803b158015611c2057600080fd5b505af1158015611c34573d6000803e3d6000fd5b5050505050505050565b6001600160a01b038216611c945760405162461bcd60e51b815260206004820152601d60248201527f53796d6d696f5061727479423a20496e76616c6964206164647265737300000060448201526064016107d7565b600481511015611ce65760405162461bcd60e51b815260206004820152601f60248201527f53796d6d696f5061727479423a20496e76616c69642063616c6c20646174610060448201526064016107d7565b61012d546001600160a01b0390811690831603611e64576020818101517fffffffff000000000000000000000000000000000000000000000000000000008116600090815261013190925260409091205460ff1615611d6e57611d697f241ecf16d79d0f8dbfb92cbc07fe17840425976cf0667f022fe9877caa831b0833611fde565b611e5e565b3360009081527ff5f43b48833b613af61a2aa61573d51591ce86ef304bb6e01e9115b2a39191de602052604090205460ff1680611dd957503360009081527f0eb0036da60f345ca868f77afd76c8c85a78b433ed7c398634576f508c0f7c40602052604090205460ff165b80611e1257503360009081527f7750ce262e31b07888762da9b9192f0e05766d6a59613ba0222b9251cf3e65bc602052604090205460ff165b611e5e5760405162461bcd60e51b815260206004820152601c60248201527f53796d6d696f5061727479423a20496e76616c6964206163636573730000000060448201526064016107d7565b50611f1d565b6001600160a01b0382166000908152610132602052604090205460ff16611ef35760405162461bcd60e51b815260206004820152603460248201527f53796d6d696f5061727479423a2044657374696e6174696f6e2061646472657360448201527f73206973206e6f742077686974656c697374656400000000000000000000000060648201526084016107d7565b611f1d7f2de84d9fbdf6d06e2cc584295043dbd76046423b9f8bae9426d4fa5e7c03f4a733611fde565b600080836001600160a01b0316600084604051611f3a9190612ed5565b60006040518083038185875af1925050503d8060008114611f77576040519150601f19603f3d011682016040523d82523d6000602084013e611f7c565b606091505b509150915081610b5c57805115611f965780518060208301fd5b60405162461bcd60e51b815260206004820181905260248201527f53796d6d696f5061727479423a20457865637574696f6e20726576657274656460448201526064016107d7565b600082815260c9602090815260408083206001600160a01b038516845290915290205460ff166107ea576120118161221e565b61201c836020612230565b60405160200161202d929190612ef1565b60408051601f198184030181529082905262461bcd60e51b82526107d791600401612f72565b6001600160a01b0381163b6120d05760405162461bcd60e51b815260206004820152602d60248201527f455243313936373a206e657720696d706c656d656e746174696f6e206973206e60448201527f6f74206120636f6e74726163740000000000000000000000000000000000000060648201526084016107d7565b7f360894a13ba1a3210667c828492db98dca3e2076cc3735a920a3ca505d382bbc805473ffffffffffffffffffffffffffffffffffffffff19166001600160a01b0392909216919091179055565b61212783612460565b6000825111806121345750805b1561075857610b5c83836124a0565b60fb5460ff166119a45760405162461bcd60e51b815260206004820152601460248201527f5061757361626c653a206e6f742070617573656400000000000000000000000060448201526064016107d7565b600054610100900460ff166122125760405162461bcd60e51b815260206004820152602b60248201527f496e697469616c697a61626c653a20636f6e7472616374206973206e6f74206960448201527f6e697469616c697a696e6700000000000000000000000000000000000000000060648201526084016107d7565b60fb805460ff19169055565b606061072d6001600160a01b03831660145b6060600061223f836002612f85565b61224a906002612f9c565b67ffffffffffffffff811115612262576122626126e7565b6040519080825280601f01601f19166020018201604052801561228c576020820181803683370190505b5090507f3000000000000000000000000000000000000000000000000000000000000000816000815181106122c3576122c3612bfb565b60200101907effffffffffffffffffffffffffffffffffffffffffffffffffffffffffffff1916908160001a9053507f78000000000000000000000000000000000000000000000000000000000000008160018151811061232657612326612bfb565b60200101907effffffffffffffffffffffffffffffffffffffffffffffffffffffffffffff1916908160001a9053506000612362846002612f85565b61236d906001612f9c565b90505b600181111561240a577f303132333435363738396162636465660000000000000000000000000000000085600f16601081106123ae576123ae612bfb565b1a60f81b8282815181106123c4576123c4612bfb565b60200101907effffffffffffffffffffffffffffffffffffffffffffffffffffffffffffff1916908160001a90535060049490941c9361240381612faf565b9050612370565b5083156124595760405162461bcd60e51b815260206004820181905260248201527f537472696e67733a20686578206c656e67746820696e73756666696369656e7460448201526064016107d7565b9392505050565b61246981612053565b6040516001600160a01b038216907fbc7cd75a20ee27fd9adebab32041f755214dbc6bffa90cc0225b39da2e5c2d3b90600090a250565b60606124598383604051806060016040528060278152602001612fe5602791396060600080856001600160a01b0316856040516124dd9190612ed5565b600060405180830381855af49150503d8060008114612518576040519150601f19603f3d011682016040523d82523d6000602084013e61251d565b606091505b509150915061252e86838387612538565b9695505050505050565b606083156125a75782516000036125a0576001600160a01b0385163b6125a05760405162461bcd60e51b815260206004820152601d60248201527f416464726573733a2063616c6c20746f206e6f6e2d636f6e747261637400000060448201526064016107d7565b50816125b1565b6125b183836125b9565b949350505050565b8151156125c95781518083602001fd5b8060405162461bcd60e51b81526004016107d79190612f72565b80356001600160a01b03811681146125fa57600080fd5b919050565b60006020828403121561261157600080fd5b612459826125e3565b80357fffffffff00000000000000000000000000000000000000000000000000000000811681146125fa57600080fd5b60006020828403121561265c57600080fd5b6124598261261a565b60006020828403121561267757600080fd5b5035919050565b6000806040838503121561269157600080fd5b823591506126a1602084016125e3565b90509250929050565b6000806000606084860312156126bf57600080fd5b6126c8846125e3565b92506126d6602085016125e3565b929592945050506040919091013590565b634e487b7160e01b600052604160045260246000fd5b604051601f8201601f1916810167ffffffffffffffff81118282101715612726576127266126e7565b604052919050565b600082601f83011261273f57600080fd5b813567ffffffffffffffff811115612759576127596126e7565b61276c6020601f19601f840116016126fd565b81815284602083860101111561278157600080fd5b816020850160208301376000918101602001919091529392505050565b600080604083850312156127b157600080fd5b6127ba836125e3565b9150602083013567ffffffffffffffff8111156127d657600080fd5b6127e28582860161272e565b9150509250929050565b600067ffffffffffffffff821115612806576128066126e7565b5060051b60200190565b600082601f83011261282157600080fd5b813561283461282f826127ec565b6126fd565b8082825260208201915060208360051b86010192508583111561285657600080fd5b602085015b8381101561287a5761286c816125e3565b83526020928301920161285b565b5095945050505050565b60008060008060008060c0878903121561289d57600080fd5b6128a6876125e3565b9550602087013567ffffffffffffffff8111156128c257600080fd5b6128ce89828a01612810565b955050604087013567ffffffffffffffff8111156128eb57600080fd5b6128f789828a01612810565b945050612906606088016125e3565b9250612914608088016125e3565b915061292260a088016125e3565b90509295509295509295565b801515811461098857600080fd5b6000806040838503121561294f57600080fd5b612958836125e3565b915060208301356129688161292e565b809150509250929050565b6000806040838503121561298657600080fd5b61298f836125e3565b946020939093013593505050565b600080604083850312156129b057600080fd5b6129588361261a565b600060e082840312156129cb57600080fd5b50919050565b600080600080600060a086880312156129e957600080fd5b6129f2866125e3565b9450612a00602087016125e3565b9350604086013567ffffffffffffffff811115612a1c57600080fd5b8601601f81018813612a2d57600080fd5b8035612a3b61282f826127ec565b8082825260208201915060208360051b85010192508a831115612a5d57600080fd5b602084015b83811015612a9f57803567ffffffffffffffff811115612a8157600080fd5b612a908d60208389010161272e565b84525060209283019201612a62565b50955050505060608601359150608086013567ffffffffffffffff811115612ac657600080fd5b612ad2888289016129b9565b9150509295509295909350565b60008083601f840112612af157600080fd5b50813567ffffffffffffffff811115612b0957600080fd5b6020830191508360208260051b8501011115612b2457600080fd5b9250929050565b60008060208385031215612b3e57600080fd5b823567ffffffffffffffff811115612b5557600080fd5b612b6185828601612adf565b90969095509350505050565b60008060008060408587031215612b8357600080fd5b843567ffffffffffffffff811115612b9a57600080fd5b612ba687828801612adf565b909550935050602085013567ffffffffffffffff811115612bc657600080fd5b612bd287828801612adf565b95989497509550505050565b600060208284031215612bf057600080fd5b81516124598161292e565b634e487b7160e01b600052603260045260246000fd5b634e487b7160e01b600052601160045260246000fd5b600060ff821660ff8103612c3d57612c3d612c11565b60010192915050565b60005b83811015612c61578181015183820152602001612c49565b50506000910152565b60008151808452612c82816020860160208601612c46565b601f01601f19169290920160200192915050565b6000604082016001600160a01b03851683526040602084015280845180835260608501915060608160051b86010192506020860160005b82811015612d1c577fffffffffffffffffffffffffffffffffffffffffffffffffffffffffffffffa0878603018452612d07858351612c6a565b94506020938401939190910190600101612ccd565b5092979650505050505050565b600060208284031215612d3b57600080fd5b5051919050565b6000808335601e19843603018112612d5957600080fd5b83018035915067ffffffffffffffff821115612d7457600080fd5b602001915036819003821315612b2457600080fd5b6000808335601e19843603018112612da057600080fd5b830160208101925035905067ffffffffffffffff811115612dc057600080fd5b803603821315612b2457600080fd5b818352818160208501375060006020828401015260006020601f19601f840116840101905092915050565b828152604060208201526000612e108384612d89565b60e06040850152612e2661012085018284612dcf565b9150506000602085013590508060608501525060408401356080840152612e506060850185612d89565b7fffffffffffffffffffffffffffffffffffffffffffffffffffffffffffffffc08584030160a0860152612e85838284612dcf565b608087013560c087015292506001600160a01b039150612ea9905060a086016125e3565b1660e08401526001600160a01b03612ec360c086016125e3565b16610100840152809150509392505050565b60008251612ee7818460208701612c46565b9190910192915050565b7f416363657373436f6e74726f6c3a206163636f756e7420000000000000000000815260008351612f29816017850160208801612c46565b7f206973206d697373696e6720726f6c65200000000000000000000000000000006017918401918201528351612f66816028840160208801612c46565b01602801949350505050565b6020815260006124596020830184612c6a565b808202811582820484141761072d5761072d612c11565b8082018082111561072d5761072d612c11565b600081612fbe57612fbe612c11565b507fffffffffffffffffffffffffffffffffffffffffffffffffffffffffffffffff019056fe416464726573733a206c6f772d6c6576656c2064656c65676174652063616c6c206661696c6564a26469706673582212201b28b6626b07caed93eca098e7210ab3fb1785f7794f70060bbb5c4154db092364736f6c634300081c0033",
  "linkReferences": {},
  "deployedLinkReferences": {}
}