{
  "_format": "hh-sol-artifact-1",
  "contractName": "NoxPartyB",
  "sourceName": "contracts/solver/NoxSolver.sol",
  "abi": [
    {
      "inputs": [],
      "stateMutability": "nonpayable",
      "type": "constructor"
    },
    {
      "anonymous": false,
      "inputs": [
        {
          "indexed": false,
          "internalType": "address",
          "name": "previousAdmin",
          "type": "address"
        },
        {
          "indexed": false,
          "internalType": "address",
          "name": "newAdmin",
          "type": "address"
        }
      ],
      "name": "AdminChanged",
      "type": "event"
    },
    {
      "anonymous": false,
      "inputs": [
        {
          "indexed": true,
          "internalType": "address",
          "name": "beacon",
          "type": "address"
        }
      ],
      "name": "BeaconUpgraded",
      "type": "event"
    },
    {
      "anonymous": false,
      "inputs": [
        {
          "indexed": false,
          "internalType": "uint8",
          "name": "version",
          "type": "uint8"
        }
      ],
      "name": "Initialized",
      "type": "event"
    },
    {
      "anonymous": false,
      "inputs": [
        {
          "indexed": false,
          "internalType": "address",
          "name": "account",
          "type": "address"
        }
      ],
      "name": "Paused",
      "type": "event"
    },
    {
      "anonymous": false,
      "inputs": [
        {
          "indexed": true,
          "internalType": "bytes32",
          "name": "role",
          "type": "bytes32"
        },
        {
          "indexed": true,
          "internalType": "bytes32",
          "name": "previousAdminRole",
          "type": "bytes32"
        },
        {
          "indexed": true,
          "internalType": "bytes32",
          "name": "newAdminRole",
          "type": "bytes32"
        }
      ],
      "name": "RoleAdminChanged",
      "type": "event"
    },
    {
      "anonymous": false,
      "inputs": [
        {
          "indexed": true,
          "internalType": "bytes32",
          "name": "role",
          "type": "bytes32"
        },
        {
          "indexed": true,
          "internalType": "address",
          "name": "account",
          "type": "address"
        },
        {
          "indexed": true,
          "internalType": "address",
          "name": "sender",
          "type": "address"
        }
      ],
      "name": "RoleGranted",
      "type": "event"
    },
    {
      "anonymous": false,
      "inputs": [
        {
          "indexed": true,
          "internalType": "bytes32",
          "name": "role",
          "type": "bytes32"
        },
        {
          "indexed": true,
          "internalType": "address",
          "name": "account",
          "type": "address"
        },
        {
          "indexed": true,
          "internalType": "address",
          "name": "sender",
          "type": "address"
        }
      ],
      "name": "RoleRevoked",
      "type": "event"
    },
    {
      "anonymous": false,
      "inputs": [
        {
          "indexed": false,
          "internalType": "address",
          "name": "addr",
          "type": "address"
        },
        {
          "indexed": false,
          "internalType": "bool",
          "name": "state",
          "type": "bool"
        }
      ],
      "name": "SetMulticastWhitelist",
      "type": "event"
    },
    {
      "anonymous": false,
      "inputs": [
        {
          "indexed": false,
          "internalType": "bytes4",
          "name": "selector",
          "type": "bytes4"
        },
        {
          "indexed": false,
          "internalType": "bool",
          "name": "state",
          "type": "bool"
        }
      ],
      "name": "SetRestrictedSelector",
      "type": "event"
    },
    {
      "anonymous": false,
      "inputs": [
        {
          "indexed": false,
          "internalType": "address",
          "name": "oldSymmioAddress",
          "type": "address"
        },
        {
          "indexed": false,
          "internalType": "address",
          "name": "newSymmioAddress",
          "type": "address"
        }
      ],
      "name": "SetSymmioAddress",
      "type": "event"
    },
    {
      "anonymous": false,
      "inputs": [
        {
          "indexed": false,
          "internalType": "address",
          "name": "account",
          "type": "address"
        }
      ],
      "name": "Unpaused",
      "type": "event"
    },
    {
      "anonymous": false,
      "inputs": [
        {
          "indexed": true,
          "internalType": "address",
          "name": "implementation",
          "type": "address"
        }
      ],
      "name": "Upgraded",
      "type": "event"
    },
    {
      "inputs": [],
      "name": "DEFAULT_ADMIN_ROLE",
      "outputs": [
        {
          "internalType": "bytes32",
          "name": "",
          "type": "bytes32"
        }
      ],
      "stateMutability": "view",
      "type": "function"
    },
    {
      "inputs": [],
      "name": "EXECUTOR_ROLE",
      "outputs": [
        {
          "internalType": "bytes32",
          "name": "",
          "type": "bytes32"
        }
      ],
      "stateMutability": "view",
      "type": "function"
    },
    {
      "inputs": [],
      "name": "MANAGER_ROLE",
      "outputs": [
        {
          "internalType": "bytes32",
          "name": "",
          "type": "bytes32"
        }
      ],
      "stateMutability": "view",
      "type": "function"
    },
    {
      "inputs": [],
      "name": "TRUSTED_ROLE",
      "outputs": [
        {
          "internalType": "bytes32",
          "name": "",
          "type": "bytes32"
        }
      ],
      "stateMutability": "view",
      "type": "function"
    },
    {
      "inputs": [
        {
          "internalType": "address",
          "name": "token",
          "type": "address"
        },
        {
          "internalType": "uint256",
          "name": "amount",
          "type": "uint256"
        }
      ],
      "name": "_approve",
      "outputs": [],
      "stateMutability": "nonpayable",
      "type": "function"
    },
    {
      "inputs": [
        {
          "internalType": "bytes[]",
          "name": "_callDatas",
          "type": "bytes[]"
        }
      ],
      "name": "_call",
      "outputs": [],
      "stateMutability": "nonpayable",
      "type": "function"
    },
    {
      "inputs": [
        {
          "internalType": "address[]",
          "name": "destAddresses",
          "type": "address[]"
        },
        {
          "internalType": "bytes[]",
          "name": "_callDatas",
          "type": "bytes[]"
        }
      ],
      "name": "_multicastCall",
      "outputs": [],
      "stateMutability": "nonpayable",
      "type": "function"
    },
    {
      "inputs": [
        {
          "internalType": "address",
          "name": "withdrawalAddress_",
          "type": "address"
        }
      ],
      "name": "changeWithdrawalAddress",
      "outputs": [],
      "stateMutability": "nonpayable",
      "type": "function"
    },
    {
      "inputs": [
        {
          "internalType": "bytes32",
          "name": "role",
          "type": "bytes32"
        }
      ],
      "name": "getRoleAdmin",
      "outputs": [
        {
          "internalType": "bytes32",
          "name": "",
          "type": "bytes32"
        }
      ],
      "stateMutability": "view",
      "type": "function"
    },
    {
      "inputs": [
        {
          "internalType": "address",
          "name": "addr",
          "type": "address"
        }
      ],
      "name": "grantExecutorRole",
      "outputs": [],
      "stateMutability": "nonpayable",
      "type": "function"
    },
    {
      "inputs": [
        {
          "internalType": "address",
          "name": "addr",
          "type": "address"
        }
      ],
      "name": "grantManagerRole",
      "outputs": [],
      "stateMutability": "nonpayable",
      "type": "function"
    },
    {
      "inputs": [
        {
          "internalType": "bytes32",
          "name": "role",
          "type": "bytes32"
        },
        {
          "internalType": "address",
          "name": "account",
          "type": "address"
        }
      ],
      "name": "grantRole",
      "outputs": [],
      "stateMutability": "nonpayable",
      "type": "function"
    },
    {
      "inputs": [
        {
          "internalType": "address",
          "name": "addr",
          "type": "address"
        }
      ],
      "name": "grantTrustedRole",
      "outputs": [],
      "stateMutability": "nonpayable",
      "type": "function"
    },
    {
      "inputs": [
        {
          "internalType": "bytes32",
          "name": "role",
          "type": "bytes32"
        },
        {
          "internalType": "address",
          "name": "account",
          "type": "address"
        }
      ],
      "name": "hasRole",
      "outputs": [
        {
          "internalType": "bool",
          "name": "",
          "type": "bool"
        }
      ],
      "stateMutability": "view",
      "type": "function"
    },
    {
      "inputs": [
        {
          "internalType": "address",
          "name": "admin",
          "type": "address"
        },
        {
          "internalType": "address[]",
          "name": "managers",
          "type": "address[]"
        },
        {
          "internalType": "address",
          "name": "withdrawalAddress_",
          "type": "address"
        },
        {
          "internalType": "address",
          "name": "ledgerMultiSigWithdrawalAddress_",
          "type": "address"
        },
        {
          "internalType": "address",
          "name": "symmioAddress_",
          "type": "address"
        }
      ],
      "name": "initialize",
      "outputs": [],
      "stateMutability": "nonpayable",
      "type": "function"
    },
    {
      "inputs": [
        {
          "internalType": "address",
          "name": "",
          "type": "address"
        }
      ],
      "name": "multicastWhitelist",
      "outputs": [
        {
          "internalType": "bool",
          "name": "",
          "type": "bool"
        }
      ],
      "stateMutability": "view",
      "type": "function"
    },
    {
      "inputs": [],
      "name": "pause",
      "outputs": [],
      "stateMutability": "nonpayable",
      "type": "function"
    },
    {
      "inputs": [],
      "name": "paused",
      "outputs": [
        {
          "internalType": "bool",
          "name": "",
          "type": "bool"
        }
      ],
      "stateMutability": "view",
      "type": "function"
    },
    {
      "inputs": [],
      "name": "proxiableUUID",
      "outputs": [
        {
          "internalType": "bytes32",
          "name": "",
          "type": "bytes32"
        }
      ],
      "stateMutability": "view",
      "type": "function"
    },
    {
      "inputs": [
        {
          "internalType": "bytes32",
          "name": "role",
          "type": "bytes32"
        },
        {
          "internalType": "address",
          "name": "account",
          "type": "address"
        }
      ],
      "name": "renounceRole",
      "outputs": [],
      "stateMutability": "nonpayable",
      "type": "function"
    },
    {
      "inputs": [
        {
          "internalType": "bytes4",
          "name": "",
          "type": "bytes4"
        }
      ],
      "name": "restrictedSelectors",
      "outputs": [
        {
          "internalType": "bool",
          "name": "",
          "type": "bool"
        }
      ],
      "stateMutability": "view",
      "type": "function"
    },
    {
      "inputs": [
        {
          "internalType": "bytes32",
          "name": "role",
          "type": "bytes32"
        },
        {
          "internalType": "address",
          "name": "account",
          "type": "address"
        }
      ],
      "name": "revokeRole",
      "outputs": [],
      "stateMutability": "nonpayable",
      "type": "function"
    },
    {
      "inputs": [
        {
          "internalType": "address",
          "name": "multiAccount",
          "type": "address"
        },
        {
          "internalType": "address",
          "name": "partyA",
          "type": "address"
        },
        {
          "internalType": "bytes[]",
          "name": "sendQuoteCalldata",
          "type": "bytes[]"
        },
        {
          "internalType": "uint256",
          "name": "allocationAmount",
          "type": "uint256"
        },
        {
          "components": [
            {
              "internalType": "bytes",
              "name": "reqId",
              "type": "bytes"
            },
            {
              "internalType": "uint256",
              "name": "timestamp",
              "type": "uint256"
            },
            {
              "internalType": "int256",
              "name": "upnl",
              "type": "int256"
            },
            {
              "internalType": "bytes",
              "name": "gatewaySignature",
              "type": "bytes"
            },
            {
              "components": [
                {
                  "internalType": "uint256",
                  "name": "signature",
                  "type": "uint256"
                },
                {
                  "internalType": "address",
                  "name": "owner",
                  "type": "address"
                },
                {
                  "internalType": "address",
                  "name": "nonce",
                  "type": "address"
                }
              ],
              "internalType": "struct SchnorrSign",
              "name": "sigs",
              "type": "tuple"
            }
          ],
          "internalType": "struct SingleUpnlSig",
          "name": "sig",
          "type": "tuple"
        }
      ],
      "name": "sendAndLockInstantOpenPositionWithReserveVault",
      "outputs": [],
      "stateMutability": "nonpayable",
      "type": "function"
    },
    {
      "inputs": [
        {
          "internalType": "address",
          "name": "addr",
          "type": "address"
        },
        {
          "internalType": "bool",
          "name": "state",
          "type": "bool"
        }
      ],
      "name": "setMulticastWhitelist",
      "outputs": [],
      "stateMutability": "nonpayable",
      "type": "function"
    },
    {
      "inputs": [
        {
          "internalType": "bytes4",
          "name": "selector",
          "type": "bytes4"
        },
        {
          "internalType": "bool",
          "name": "state",
          "type": "bool"
        }
      ],
      "name": "setRestrictedSelector",
      "outputs": [],
      "stateMutability": "nonpayable",
      "type": "function"
    },
    {
      "inputs": [
        {
          "internalType": "address",
          "name": "addr",
          "type": "address"
        }
      ],
      "name": "setSymmioAddress",
      "outputs": [],
      "stateMutability": "nonpayable",
      "type": "function"
    },
    {
      "inputs": [
        {
          "internalType": "bytes4",
          "name": "interfaceId",
          "type": "bytes4"
        }
      ],
      "name": "supportsInterface",
      "outputs": [
        {
          "internalType": "bool",
          "name": "",
          "type": "bool"
        }
      ],
      "stateMutability": "view",
      "type": "function"
    },
    {
      "inputs": [],
      "name": "symmioAddress",
      "outputs": [
        {
          "internalType": "address",
          "name": "",
          "type": "address"
        }
      ],
      "stateMutability": "view",
      "type": "function"
    },
    {
      "inputs": [],
      "name": "unpause",
      "outputs": [],
      "stateMutability": "nonpayable",
      "type": "function"
    },
    {
      "inputs": [
        {
          "internalType": "address",
          "name": "newImplementation",
          "type": "address"
        }
      ],
      "name": "upgradeTo",
      "outputs": [],
      "stateMutability": "nonpayable",
      "type": "function"
    },
    {
      "inputs": [
        {
          "internalType": "address",
          "name": "newImplementation",
          "type": "address"
        },
        {
          "internalType": "bytes",
          "name": "data",
          "type": "bytes"
        }
      ],
      "name": "upgradeToAndCall",
      "outputs": [],
      "stateMutability": "payable",
      "type": "function"
    },
    {
      "inputs": [
        {
          "internalType": "address",
          "name": "targetAddress",
          "type": "address"
        },
        {
          "internalType": "address",
          "name": "token",
          "type": "address"
        },
        {
          "internalType": "uint256",
          "name": "amount",
          "type": "uint256"
        }
      ],
      "name": "withdrawERC20",
      "outputs": [],
      "stateMutability": "nonpayable",
      "type": "function"
    }
  ],
  "bytecode": "0x60a06040523060805234801561001457600080fd5b5061001d610022565b6100e1565b600054610100900460ff161561008e5760405162461bcd60e51b815260206004820152602760248201527f496e697469616c697a61626c653a20636f6e747261637420697320696e697469604482015266616c697a696e6760c81b606482015260840160405180910390fd5b60005460ff908116146100df576000805460ff191660ff9081179091556040519081527f7f26b83ff96e1f2b6a682f133852f6798a09c465da95921460cefb38474024989060200160405180910390a15b565b60805161313261011860003960008181610b5601528181610bec01528181610eca01528181610f60015261105701526131326000f3fe6080604052600436106101e25760003560e01c80635c975abb1161010257806388ef77be11610095578063d547741f11610064578063d547741f146105d3578063ec87621c146105f3578063edddc27314610627578063f504fd591461065857600080fd5b806388ef77be1461053857806391d1485414610558578063a217fddf1461059e578063ca9d9c9d146105b357600080fd5b806380a4d414116100d157806380a4d414146104c357806383aba1d3146104e35780638456cb591461050357806387e798801461051857600080fd5b80635c975abb14610432578063717bb2621461044a5780637278b28f1461046a5780637b7d7225146104a357600080fd5b80632f2ff15d1161017a57806344004cc11161014957806344004cc1146103b65780634f1ef286146103d657806352d1902d146103e95780635901692e146103fe57600080fd5b80632f2ff15d1461034157806336568abe146103615780633659cfe6146103815780633f4ba83a146103a157600080fd5b80630cf57c86116101b65780630cf57c86146102b15780631f4e2a53146102d1578063248a9ca3146102f157806326e885e31461032157600080fd5b8062fbc355146101e757806301569e3a1461022d57806301ffc9a71461024f57806307bd02651461026f575b600080fd5b3480156101f357600080fd5b50610218610202366004612728565b6101326020526000908152604090205460ff1681565b60405190151581526020015b60405180910390f35b34801561023957600080fd5b5061024d610248366004612728565b610678565b005b34801561025b57600080fd5b5061021861026a366004612773565b61071b565b34801561027b57600080fd5b506102a37fd8aa0f3194971a2a116679f7c2090f6939c8d4e01a2a8d7e41d55e5351469e6381565b604051908152602001610224565b3480156102bd57600080fd5b5061024d6102cc3660046127f9565b6107b4565b3480156102dd57600080fd5b5061024d6102ec366004612728565b6109e7565b3480156102fd57600080fd5b506102a361030c3660046128df565b600090815260c9602052604090206001015490565b34801561032d57600080fd5b5061024d61033c366004612728565b610a42565b34801561034d57600080fd5b5061024d61035c3660046128f8565b610a9a565b34801561036d57600080fd5b5061024d61037c3660046128f8565b610ac4565b34801561038d57600080fd5b5061024d61039c366004612728565b610b4c565b3480156103ad57600080fd5b5061024d610ce9565b3480156103c257600080fd5b5061024d6103d1366004612924565b610d1b565b61024d6103e43660046129d1565b610ec0565b3480156103f557600080fd5b506102a361104a565b34801561040a57600080fd5b506102a37f2de84d9fbdf6d06e2cc584295043dbd76046423b9f8bae9426d4fa5e7c03f4a781565b34801561043e57600080fd5b5060fb5460ff16610218565b34801561045657600080fd5b5061024d610465366004612a2d565b61110f565b34801561047657600080fd5b5061012d5461048b906001600160a01b031681565b6040516001600160a01b039091168152602001610224565b3480156104af57600080fd5b5061024d6104be366004612a64565b61119f565b3480156104cf57600080fd5b5061024d6104de366004612728565b6112ae565b3480156104ef57600080fd5b5061024d6104fe366004612a8e565b611302565b34801561050f57600080fd5b5061024d6113a2565b34801561052457600080fd5b5061024d610533366004612ac2565b6113d4565b34801561054457600080fd5b5061024d610553366004612728565b611508565b34801561056457600080fd5b506102186105733660046128f8565b600091825260c9602090815260408084206001600160a01b0393909316845291905290205460ff1690565b3480156105aa57600080fd5b506102a3600081565b3480156105bf57600080fd5b5061024d6105ce366004612c1c565b61155c565b3480156105df57600080fd5b5061024d6105ee3660046128f8565b6115f6565b3480156105ff57600080fd5b506102a37f241ecf16d79d0f8dbfb92cbc07fe17840425976cf0667f022fe9877caa831b0881565b34801561063357600080fd5b50610218610642366004612773565b6101316020526000908152604090205460ff1681565b34801561066457600080fd5b5061024d610673366004612c5e565b61161b565b7f241ecf16d79d0f8dbfb92cbc07fe17840425976cf0667f022fe9877caa831b086106a281611724565b61012d54604080516001600160a01b03928316815291841660208301527ff78ccdf5924090b2ab6627ac5da4ec5affed73d47c6bc6c8a4620a0d5ed57bc8910160405180910390a15061012d805473ffffffffffffffffffffffffffffffffffffffff19166001600160a01b0392909216919091179055565b60007fffffffff0000000000000000000000000000000000000000000000000000000082167f7965db0b0000000000000000000000000000000000000000000000000000000014806107ae57507f01ffc9a7000000000000000000000000000000000000000000000000000000007fffffffff000000000000000000000000000000000000000000000000000000008316145b92915050565b600054610100900460ff16158080156107d45750600054600160ff909116105b806107ee5750303b1580156107ee575060005460ff166001145b6108655760405162461bcd60e51b815260206004820152602e60248201527f496e697469616c697a61626c653a20636f6e747261637420697320616c72656160448201527f647920696e697469616c697a656400000000000000000000000000000000000060648201526084015b60405180910390fd5b6000805460ff191660011790558015610888576000805461ff0019166101001790555b61089061172e565b6108986117ad565b6108a061172e565b61012d80546001600160a01b0380851673ffffffffffffffffffffffffffffffffffffffff199283161790925561012e805487841690831617905561012f8054928616929091169190911790556108f8600087611832565b60005b85518160ff1610156109985761094d7f2de84d9fbdf6d06e2cc584295043dbd76046423b9f8bae9426d4fa5e7c03f4a7878360ff168151811061094057610940612ccf565b6020026020010151611832565b6109867f241ecf16d79d0f8dbfb92cbc07fe17840425976cf0667f022fe9877caa831b08878360ff168151811061094057610940612ccf565b8061099081612cfb565b9150506108fb565b5080156109df576000805461ff0019169055604051600181527f7f26b83ff96e1f2b6a682f133852f6798a09c465da95921460cefb38474024989060200160405180910390a15b505050505050565b7f241ecf16d79d0f8dbfb92cbc07fe17840425976cf0667f022fe9877caa831b08610a1181611724565b5061012e805473ffffffffffffffffffffffffffffffffffffffff19166001600160a01b0392909216919091179055565b7f241ecf16d79d0f8dbfb92cbc07fe17840425976cf0667f022fe9877caa831b08610a6c81611724565b610a967f241ecf16d79d0f8dbfb92cbc07fe17840425976cf0667f022fe9877caa831b0883611832565b5050565b600082815260c96020526040902060010154610ab581611724565b610abf8383611832565b505050565b6001600160a01b0381163314610b425760405162461bcd60e51b815260206004820152602f60248201527f416363657373436f6e74726f6c3a2063616e206f6e6c792072656e6f756e636560448201527f20726f6c657320666f722073656c660000000000000000000000000000000000606482015260840161085c565b610a9682826118d4565b6001600160a01b037f0000000000000000000000000000000000000000000000000000000000000000163003610bea5760405162461bcd60e51b815260206004820152602c60248201527f46756e6374696f6e206d7573742062652063616c6c6564207468726f7567682060448201527f64656c656761746563616c6c0000000000000000000000000000000000000000606482015260840161085c565b7f00000000000000000000000000000000000000000000000000000000000000006001600160a01b0316610c457f360894a13ba1a3210667c828492db98dca3e2076cc3735a920a3ca505d382bbc546001600160a01b031690565b6001600160a01b031614610cc15760405162461bcd60e51b815260206004820152602c60248201527f46756e6374696f6e206d7573742062652063616c6c6564207468726f7567682060448201527f6163746976652070726f78790000000000000000000000000000000000000000606482015260840161085c565b610cca81611957565b60408051600080825260208201909252610ce691839190611962565b50565b7f241ecf16d79d0f8dbfb92cbc07fe17840425976cf0667f022fe9877caa831b08610d1381611724565b610ce6611b02565b7f241ecf16d79d0f8dbfb92cbc07fe17840425976cf0667f022fe9877caa831b08610d4581611724565b61012e546001600160a01b0385811691161480610d70575061012f546001600160a01b038581169116145b610de25760405162461bcd60e51b815260206004820152602260248201527f496e76616c696420746172676574207769746864726177616c2041646472657360448201527f7321000000000000000000000000000000000000000000000000000000000000606482015260840161085c565b6040517fa9059cbb0000000000000000000000000000000000000000000000000000000081526001600160a01b0385811660048301526024820184905284169063a9059cbb906044016020604051808303816000875af1158015610e4a573d6000803e3d6000fd5b505050506040513d601f19601f82011682018060405250810190610e6e9190612d1a565b610eba5760405162461bcd60e51b815260206004820152601d60248201527f53796d6d696f5061727479423a204e6f74207472616e73666572726564000000604482015260640161085c565b50505050565b6001600160a01b037f0000000000000000000000000000000000000000000000000000000000000000163003610f5e5760405162461bcd60e51b815260206004820152602c60248201527f46756e6374696f6e206d7573742062652063616c6c6564207468726f7567682060448201527f64656c656761746563616c6c0000000000000000000000000000000000000000606482015260840161085c565b7f00000000000000000000000000000000000000000000000000000000000000006001600160a01b0316610fb97f360894a13ba1a3210667c828492db98dca3e2076cc3735a920a3ca505d382bbc546001600160a01b031690565b6001600160a01b0316146110355760405162461bcd60e51b815260206004820152602c60248201527f46756e6374696f6e206d7573742062652063616c6c6564207468726f7567682060448201527f6163746976652070726f78790000000000000000000000000000000000000000606482015260840161085c565b61103e82611957565b610a9682826001611962565b6000306001600160a01b037f000000000000000000000000000000000000000000000000000000000000000016146110ea5760405162461bcd60e51b815260206004820152603860248201527f555550535570677261646561626c653a206d757374206e6f742062652063616c60448201527f6c6564207468726f7567682064656c656761746563616c6c0000000000000000606482015260840161085c565b507f360894a13ba1a3210667c828492db98dca3e2076cc3735a920a3ca505d382bbc90565b7f241ecf16d79d0f8dbfb92cbc07fe17840425976cf0667f022fe9877caa831b0861113981611724565b6001600160a01b03831660008181526101326020908152604091829020805460ff19168615159081179091558251938452908301527ff776d871534c4177eb3ea09ad170db249e5c7057ff18ddf26992d18459a904b191015b60405180910390a1505050565b7f2de84d9fbdf6d06e2cc584295043dbd76046423b9f8bae9426d4fa5e7c03f4a76111c981611724565b6111d1611b54565b61012d546040517f095ea7b30000000000000000000000000000000000000000000000000000000081526001600160a01b039182166004820152602481018490529084169063095ea7b3906044016020604051808303816000875af115801561123e573d6000803e3d6000fd5b505050506040513d601f19601f820116820180604052508101906112629190612d1a565b610abf5760405162461bcd60e51b815260206004820152601a60248201527f53796d6d696f5061727479423a204e6f7420617070726f766564000000000000604482015260640161085c565b7f241ecf16d79d0f8dbfb92cbc07fe17840425976cf0667f022fe9877caa831b086112d881611724565b610a967fd8aa0f3194971a2a116679f7c2090f6939c8d4e01a2a8d7e41d55e5351469e6383611832565b7f241ecf16d79d0f8dbfb92cbc07fe17840425976cf0667f022fe9877caa831b0861132c81611724565b7fffffffff00000000000000000000000000000000000000000000000000000000831660008181526101316020908152604091829020805460ff19168615159081179091558251938452908301527f3b438b04c48041000349f30457a15358332ec96233735f9bc289621aa82fb7759101611192565b7f241ecf16d79d0f8dbfb92cbc07fe17840425976cf0667f022fe9877caa831b086113cc81611724565b610ce6611ba7565b7fd8aa0f3194971a2a116679f7c2090f6939c8d4e01a2a8d7e41d55e5351469e636113fe81611724565b6040517fbd367d8e0000000000000000000000000000000000000000000000000000000081526001600160a01b0387169063bd367d8e906114459088908890600401612d87565b600060405180830381600087803b15801561145f57600080fd5b505af1158015611473573d6000803e3d6000fd5b50505050600061012d60009054906101000a90046001600160a01b03166001600160a01b031663aa48e2e86040518163ffffffff1660e01b8152600401602060405180830381865afa1580156114cd573d6000803e3d6000fd5b505050506040513d601f19601f820116820180604052508101906114f19190612e1a565b90506114ff81878686611be4565b50505050505050565b7f241ecf16d79d0f8dbfb92cbc07fe17840425976cf0667f022fe9877caa831b0861153281611724565b610a967f2de84d9fbdf6d06e2cc584295043dbd76046423b9f8bae9426d4fa5e7c03f4a783611832565b611564611b54565b60005b60ff8116821115610abf5761012d546115e4906001600160a01b0316848460ff851681811061159857611598612ccf565b90506020028101906115aa9190612e33565b8080601f016020809104026020016040519081016040528093929190818152602001838380828437600092019190915250611d6792505050565b806115ee81612cfb565b915050611567565b600082815260c9602052604090206001015461161181611724565b610abf83836118d4565b611623611b54565b7fd8aa0f3194971a2a116679f7c2090f6939c8d4e01a2a8d7e41d55e5351469e6361164d81611724565b8382146116c25760405162461bcd60e51b815260206004820152602360248201527f53796d6d696f5061727479423a204172726179206c656e677468206d69736d6160448201527f7463680000000000000000000000000000000000000000000000000000000000606482015260840161085c565b60005b60ff81168311156109df5761171286868360ff168181106116e8576116e8612ccf565b90506020020160208101906116fd9190612728565b85858460ff1681811061159857611598612ccf565b8061171c81612cfb565b9150506116c5565b610ce68133612107565b600054610100900460ff166117ab5760405162461bcd60e51b815260206004820152602b60248201527f496e697469616c697a61626c653a20636f6e7472616374206973206e6f74206960448201527f6e697469616c697a696e67000000000000000000000000000000000000000000606482015260840161085c565b565b600054610100900460ff1661182a5760405162461bcd60e51b815260206004820152602b60248201527f496e697469616c697a61626c653a20636f6e7472616374206973206e6f74206960448201527f6e697469616c697a696e67000000000000000000000000000000000000000000606482015260840161085c565b6117ab61217c565b600082815260c9602090815260408083206001600160a01b038516845290915290205460ff16610a9657600082815260c9602090815260408083206001600160a01b03851684529091529020805460ff191660011790556118903390565b6001600160a01b0316816001600160a01b0316837f2f8788117e7eff1d82e926ec794901d17c78024a50270940304540a733656f0d60405160405180910390a45050565b600082815260c9602090815260408083206001600160a01b038516845290915290205460ff1615610a9657600082815260c9602090815260408083206001600160a01b0385168085529252808320805460ff1916905551339285917ff6391f5c32d9c69d2a47ea670b442974b53935d1edc7fd64eb21e047a839171b9190a45050565b6000610a9681611724565b7f4910fdfa16fed3260ed0e7147f7cc6da11a60208b5b9406d12a635614ffd91435460ff161561199557610abf83612205565b826001600160a01b03166352d1902d6040518163ffffffff1660e01b8152600401602060405180830381865afa9250505080156119ef575060408051601f3d908101601f191682019092526119ec91810190612e1a565b60015b611a615760405162461bcd60e51b815260206004820152602e60248201527f45524331393637557067726164653a206e657720696d706c656d656e7461746960448201527f6f6e206973206e6f742055555053000000000000000000000000000000000000606482015260840161085c565b7f360894a13ba1a3210667c828492db98dca3e2076cc3735a920a3ca505d382bbc8114611af65760405162461bcd60e51b815260206004820152602960248201527f45524331393637557067726164653a20756e737570706f727465642070726f7860448201527f6961626c65555549440000000000000000000000000000000000000000000000606482015260840161085c565b50610abf8383836122d0565b611b0a6122f5565b60fb805460ff191690557f5db9ee0a495bf2e6ff9c91a7834c1ba4fdd244a5e8aa4e537bd38aeae4b073aa335b6040516001600160a01b03909116815260200160405180910390a1565b60fb5460ff16156117ab5760405162461bcd60e51b815260206004820152601060248201527f5061757361626c653a2070617573656400000000000000000000000000000000604482015260640161085c565b611baf611b54565b60fb805460ff191660011790557f62e78cea01bee320cd4e420270b5ea74000d11b0c9f74754ebdbfc544b05a258611b373390565b8115611ce35761012d546040517fb074c08d000000000000000000000000000000000000000000000000000000008152600481018490526001600160a01b039091169063b074c08d90602401600060405180830381600087803b158015611c4a57600080fd5b505af1158015611c5e573d6000803e3d6000fd5b505061012d546040517fcd0bac16000000000000000000000000000000000000000000000000000000008152600481018690526001600160a01b038781166024830152909116925063cd0bac169150604401600060405180830381600087803b158015611cca57600080fd5b505af1158015611cde573d6000803e3d6000fd5b505050505b61012d546040517fca6b88de0000000000000000000000000000000000000000000000000000000081526001600160a01b039091169063ca6b88de90611d2f9087908590600401612eeb565b600060405180830381600087803b158015611d4957600080fd5b505af1158015611d5d573d6000803e3d6000fd5b5050505050505050565b6001600160a01b038216611dbd5760405162461bcd60e51b815260206004820152601d60248201527f53796d6d696f5061727479423a20496e76616c69642061646472657373000000604482015260640161085c565b600481511015611e0f5760405162461bcd60e51b815260206004820152601f60248201527f53796d6d696f5061727479423a20496e76616c69642063616c6c206461746100604482015260640161085c565b61012d546001600160a01b0390811690831603611f8d576020818101517fffffffff000000000000000000000000000000000000000000000000000000008116600090815261013190925260409091205460ff1615611e9757611e927f241ecf16d79d0f8dbfb92cbc07fe17840425976cf0667f022fe9877caa831b0833612107565b611f87565b3360009081527ff5f43b48833b613af61a2aa61573d51591ce86ef304bb6e01e9115b2a39191de602052604090205460ff1680611f0257503360009081527f0eb0036da60f345ca868f77afd76c8c85a78b433ed7c398634576f508c0f7c40602052604090205460ff165b80611f3b57503360009081527f7750ce262e31b07888762da9b9192f0e05766d6a59613ba0222b9251cf3e65bc602052604090205460ff165b611f875760405162461bcd60e51b815260206004820152601c60248201527f53796d6d696f5061727479423a20496e76616c69642061636365737300000000604482015260640161085c565b50612046565b6001600160a01b0382166000908152610132602052604090205460ff1661201c5760405162461bcd60e51b815260206004820152603460248201527f53796d6d696f5061727479423a2044657374696e6174696f6e2061646472657360448201527f73206973206e6f742077686974656c6973746564000000000000000000000000606482015260840161085c565b6120467f2de84d9fbdf6d06e2cc584295043dbd76046423b9f8bae9426d4fa5e7c03f4a733612107565b600080836001600160a01b03166000846040516120639190612fc6565b60006040518083038185875af1925050503d80600081146120a0576040519150601f19603f3d011682016040523d82523d6000602084013e6120a5565b606091505b509150915081610eba578051156120bf5780518060208301fd5b60405162461bcd60e51b815260206004820181905260248201527f53796d6d696f5061727479423a20457865637574696f6e207265766572746564604482015260640161085c565b600082815260c9602090815260408083206001600160a01b038516845290915290205460ff16610a965761213a81612347565b612145836020612359565b604051602001612156929190612fe2565b60408051601f198184030181529082905262461bcd60e51b825261085c91600401613063565b600054610100900460ff166121f95760405162461bcd60e51b815260206004820152602b60248201527f496e697469616c697a61626c653a20636f6e7472616374206973206e6f74206960448201527f6e697469616c697a696e67000000000000000000000000000000000000000000606482015260840161085c565b60fb805460ff19169055565b6001600160a01b0381163b6122825760405162461bcd60e51b815260206004820152602d60248201527f455243313936373a206e657720696d706c656d656e746174696f6e206973206e60448201527f6f74206120636f6e747261637400000000000000000000000000000000000000606482015260840161085c565b7f360894a13ba1a3210667c828492db98dca3e2076cc3735a920a3ca505d382bbc805473ffffffffffffffffffffffffffffffffffffffff19166001600160a01b0392909216919091179055565b6122d983612589565b6000825111806122e65750805b15610abf57610eba83836125c9565b60fb5460ff166117ab5760405162461bcd60e51b815260206004820152601460248201527f5061757361626c653a206e6f7420706175736564000000000000000000000000604482015260640161085c565b60606107ae6001600160a01b03831660145b60606000612368836002613076565b61237390600261308d565b67ffffffffffffffff81111561238b5761238b61278e565b6040519080825280601f01601f1916602001820160405280156123b5576020820181803683370190505b5090507f3000000000000000000000000000000000000000000000000000000000000000816000815181106123ec576123ec612ccf565b60200101907effffffffffffffffffffffffffffffffffffffffffffffffffffffffffffff1916908160001a9053507f78000000000000000000000000000000000000000000000000000000000000008160018151811061244f5761244f612ccf565b60200101907effffffffffffffffffffffffffffffffffffffffffffffffffffffffffffff1916908160001a905350600061248b846002613076565b61249690600161308d565b90505b6001811115612533577f303132333435363738396162636465660000000000000000000000000000000085600f16601081106124d7576124d7612ccf565b1a60f81b8282815181106124ed576124ed612ccf565b60200101907effffffffffffffffffffffffffffffffffffffffffffffffffffffffffffff1916908160001a90535060049490941c9361252c816130a0565b9050612499565b5083156125825760405162461bcd60e51b815260206004820181905260248201527f537472696e67733a20686578206c656e67746820696e73756666696369656e74604482015260640161085c565b9392505050565b61259281612205565b6040516001600160a01b038216907fbc7cd75a20ee27fd9adebab32041f755214dbc6bffa90cc0225b39da2e5c2d3b90600090a250565b606061258283836040518060600160405280602781526020016130d6602791396060600080856001600160a01b0316856040516126069190612fc6565b600060405180830381855af49150503d8060008114612641576040519150601f19603f3d011682016040523d82523d6000602084013e612646565b606091505b509150915061265786838387612661565b9695505050505050565b606083156126d05782516000036126c9576001600160a01b0385163b6126c95760405162461bcd60e51b815260206004820152601d60248201527f416464726573733a2063616c6c20746f206e6f6e2d636f6e7472616374000000604482015260640161085c565b50816126da565b6126da83836126e2565b949350505050565b8151156126f25781518083602001fd5b8060405162461bcd60e51b815260040161085c9190613063565b80356001600160a01b038116811461272357600080fd5b919050565b60006020828403121561273a57600080fd5b6125828261270c565b80357fffffffff000000000000000000000000000000000000000000000000000000008116811461272357600080fd5b60006020828403121561278557600080fd5b61258282612743565b634e487b7160e01b600052604160045260246000fd5b604051601f8201601f1916810167ffffffffffffffff811182821017156127cd576127cd61278e565b604052919050565b600067ffffffffffffffff8211156127ef576127ef61278e565b5060051b60200190565b600080600080600060a0868803121561281157600080fd5b61281a8661270c565b9450602086013567ffffffffffffffff81111561283657600080fd5b8601601f8101881361284757600080fd5b803561285a612855826127d5565b6127a4565b8082825260208201915060208360051b85010192508a83111561287c57600080fd5b6020840193505b828410156128a5576128948461270c565b825260209384019390910190612883565b96506128b7925050506040870161270c565b92506128c56060870161270c565b91506128d36080870161270c565b90509295509295909350565b6000602082840312156128f157600080fd5b5035919050565b6000806040838503121561290b57600080fd5b8235915061291b6020840161270c565b90509250929050565b60008060006060848603121561293957600080fd5b6129428461270c565b92506129506020850161270c565b929592945050506040919091013590565b600082601f83011261297257600080fd5b813567ffffffffffffffff81111561298c5761298c61278e565b61299f6020601f19601f840116016127a4565b8181528460208386010111156129b457600080fd5b816020850160208301376000918101602001919091529392505050565b600080604083850312156129e457600080fd5b6129ed8361270c565b9150602083013567ffffffffffffffff811115612a0957600080fd5b612a1585828601612961565b9150509250929050565b8015158114610ce657600080fd5b60008060408385031215612a4057600080fd5b612a498361270c565b91506020830135612a5981612a1f565b809150509250929050565b60008060408385031215612a7757600080fd5b612a808361270c565b946020939093013593505050565b60008060408385031215612aa157600080fd5b612a4983612743565b600060e08284031215612abc57600080fd5b50919050565b600080600080600060a08688031215612ada57600080fd5b612ae38661270c565b9450612af16020870161270c565b9350604086013567ffffffffffffffff811115612b0d57600080fd5b8601601f81018813612b1e57600080fd5b8035612b2c612855826127d5565b8082825260208201915060208360051b85010192508a831115612b4e57600080fd5b602084015b83811015612b9057803567ffffffffffffffff811115612b7257600080fd5b612b818d602083890101612961565b84525060209283019201612b53565b50955050505060608601359150608086013567ffffffffffffffff811115612bb757600080fd5b612bc388828901612aaa565b9150509295509295909350565b60008083601f840112612be257600080fd5b50813567ffffffffffffffff811115612bfa57600080fd5b6020830191508360208260051b8501011115612c1557600080fd5b9250929050565b60008060208385031215612c2f57600080fd5b823567ffffffffffffffff811115612c4657600080fd5b612c5285828601612bd0565b90969095509350505050565b60008060008060408587031215612c7457600080fd5b843567ffffffffffffffff811115612c8b57600080fd5b612c9787828801612bd0565b909550935050602085013567ffffffffffffffff811115612cb757600080fd5b612cc387828801612bd0565b95989497509550505050565b634e487b7160e01b600052603260045260246000fd5b634e487b7160e01b600052601160045260246000fd5b600060ff821660ff8103612d1157612d11612ce5565b60010192915050565b600060208284031215612d2c57600080fd5b815161258281612a1f565b60005b83811015612d52578181015183820152602001612d3a565b50506000910152565b60008151808452612d73816020860160208601612d37565b601f01601f19169290920160200192915050565b6000604082016001600160a01b03851683526040602084015280845180835260608501915060608160051b86010192506020860160005b82811015612e0d577fffffffffffffffffffffffffffffffffffffffffffffffffffffffffffffffa0878603018452612df8858351612d5b565b94506020938401939190910190600101612dbe565b5092979650505050505050565b600060208284031215612e2c57600080fd5b5051919050565b6000808335601e19843603018112612e4a57600080fd5b83018035915067ffffffffffffffff821115612e6557600080fd5b602001915036819003821315612c1557600080fd5b6000808335601e19843603018112612e9157600080fd5b830160208101925035905067ffffffffffffffff811115612eb157600080fd5b803603821315612c1557600080fd5b818352818160208501375060006020828401015260006020601f19601f840116840101905092915050565b828152604060208201526000612f018384612e7a565b60e06040850152612f1761012085018284612ec0565b9150506000602085013590508060608501525060408401356080840152612f416060850185612e7a565b7fffffffffffffffffffffffffffffffffffffffffffffffffffffffffffffffc08584030160a0860152612f76838284612ec0565b608087013560c087015292506001600160a01b039150612f9a905060a0860161270c565b1660e08401526001600160a01b03612fb460c0860161270c565b16610100840152809150509392505050565b60008251612fd8818460208701612d37565b9190910192915050565b7f416363657373436f6e74726f6c3a206163636f756e742000000000000000000081526000835161301a816017850160208801612d37565b7f206973206d697373696e6720726f6c65200000000000000000000000000000006017918401918201528351613057816028840160208801612d37565b01602801949350505050565b6020815260006125826020830184612d5b565b80820281158282048414176107ae576107ae612ce5565b808201808211156107ae576107ae612ce5565b6000816130af576130af612ce5565b507fffffffffffffffffffffffffffffffffffffffffffffffffffffffffffffffff019056fe416464726573733a206c6f772d6c6576656c2064656c65676174652063616c6c206661696c6564a2646970667358221220d8b213a916ec7cae3b749481d5223fbb7e292444c31a198125f455118515cad564736f6c634300081c0033",
  "linkReferences": {},
  "deployedLinkReferences": {}
}